{
	"contracts/Chocolate.sol": {
		"Chocolate": {
			"abi": [
				{
					"inputs": [],
					"stateMutability": "nonpayable",
					"type": "constructor"
				},
				{
					"inputs": [
						{
							"internalType": "string",
							"name": "name",
							"type": "string"
						},
						{
							"internalType": "string",
							"name": "message",
							"type": "string"
						}
					],
					"name": "buyChocolates",
					"outputs": [],
					"stateMutability": "payable",
					"type": "function"
				},
				{
					"inputs": [],
					"name": "getMemos",
					"outputs": [
						{
							"components": [
								{
									"internalType": "string",
									"name": "name",
									"type": "string"
								},
								{
									"internalType": "string",
									"name": "message",
									"type": "string"
								},
								{
									"internalType": "uint256",
									"name": "timestamp",
									"type": "uint256"
								},
								{
									"internalType": "address",
									"name": "from",
									"type": "address"
								}
							],
							"internalType": "struct Chocolate.Memo[]",
							"name": "",
							"type": "tuple[]"
						}
					],
					"stateMutability": "view",
					"type": "function"
				}
			],
			"devdoc": {
				"kind": "dev",
				"methods": {},
				"version": 1
			},
			"evm": {
				"assembly": "    /* \"contracts/Chocolate.sol\":68:699  contract Chocolate {... */\n  mstore(0x40, 0x80)\n    /* \"contracts/Chocolate.sol\":269:329  constructor() {... */\n  callvalue\n  dup1\n  iszero\n  tag_1\n  jumpi\n  0x00\n  dup1\n  revert\ntag_1:\n  pop\n    /* \"contracts/Chocolate.sol\":310:320  msg.sender */\n  caller\n    /* \"contracts/Chocolate.sol\":294:299  owner */\n  0x01\n  0x00\n    /* \"contracts/Chocolate.sol\":294:321  owner = payable(msg.sender) */\n  0x0100\n  exp\n  dup2\n  sload\n  dup2\n  0xffffffffffffffffffffffffffffffffffffffff\n  mul\n  not\n  and\n  swap1\n  dup4\n  0xffffffffffffffffffffffffffffffffffffffff\n  and\n  mul\n  or\n  swap1\n  sstore\n  pop\n    /* \"contracts/Chocolate.sol\":68:699  contract Chocolate {... */\n  dataSize(sub_0)\n  dup1\n  dataOffset(sub_0)\n  0x00\n  codecopy\n  0x00\n  return\nstop\n\nsub_0: assembly {\n        /* \"contracts/Chocolate.sol\":68:699  contract Chocolate {... */\n      mstore(0x40, 0x80)\n      jumpi(tag_1, lt(calldatasize, 0x04))\n      shr(0xe0, calldataload(0x00))\n      dup1\n      0x37141c23\n      eq\n      tag_2\n      jumpi\n      dup1\n      0x865c5172\n      eq\n      tag_3\n      jumpi\n    tag_1:\n      0x00\n      dup1\n      revert\n        /* \"contracts/Chocolate.sol\":337:601  function buyChocolates(string memory name, string memory message) public payable {... */\n    tag_2:\n      tag_4\n      0x04\n      dup1\n      calldatasize\n      sub\n      dup2\n      add\n      swap1\n      tag_5\n      swap2\n      swap1\n      tag_6\n      jump\t// in\n    tag_5:\n      tag_7\n      jump\t// in\n    tag_4:\n      stop\n        /* \"contracts/Chocolate.sol\":609:696  function getMemos() public view returns (Memo[] memory) {... */\n    tag_3:\n      callvalue\n      dup1\n      iszero\n      tag_8\n      jumpi\n      0x00\n      dup1\n      revert\n    tag_8:\n      pop\n      tag_9\n      tag_10\n      jump\t// in\n    tag_9:\n      mload(0x40)\n      tag_11\n      swap2\n      swap1\n      tag_12\n      jump\t// in\n    tag_11:\n      mload(0x40)\n      dup1\n      swap2\n      sub\n      swap1\n      return\n        /* \"contracts/Chocolate.sol\":337:601  function buyChocolates(string memory name, string memory message) public payable {... */\n    tag_7:\n        /* \"contracts/Chocolate.sol\":449:450  0 */\n      0x00\n        /* \"contracts/Chocolate.sol\":437:446  msg.value */\n      callvalue\n        /* \"contracts/Chocolate.sol\":437:450  msg.value > 0 */\n      gt\n        /* \"contracts/Chocolate.sol\":429:486  require(msg.value > 0, \"Please pay greater than 0 ether\") */\n      tag_14\n      jumpi\n      mload(0x40)\n      0x08c379a000000000000000000000000000000000000000000000000000000000\n      dup2\n      mstore\n      0x04\n      add\n      tag_15\n      swap1\n      tag_16\n      jump\t// in\n    tag_15:\n      mload(0x40)\n      dup1\n      swap2\n      sub\n      swap1\n      revert\n    tag_14:\n        /* \"contracts/Chocolate.sol\":497:502  owner */\n      0x01\n      0x00\n      swap1\n      sload\n      swap1\n      0x0100\n      exp\n      swap1\n      div\n      0xffffffffffffffffffffffffffffffffffffffff\n      and\n        /* \"contracts/Chocolate.sol\":497:511  owner.transfer */\n      0xffffffffffffffffffffffffffffffffffffffff\n      and\n        /* \"contracts/Chocolate.sol\":497:522  owner.transfer(msg.value) */\n      0x08fc\n        /* \"contracts/Chocolate.sol\":512:521  msg.value */\n      callvalue\n        /* \"contracts/Chocolate.sol\":497:522  owner.transfer(msg.value) */\n      swap1\n      dup2\n      iszero\n      mul\n      swap1\n      mload(0x40)\n      0x00\n      mload(0x40)\n      dup1\n      dup4\n      sub\n      dup2\n      dup6\n      dup9\n      dup9\n      call\n      swap4\n      pop\n      pop\n      pop\n      pop\n      iszero\n      dup1\n      iszero\n      tag_18\n      jumpi\n      returndatasize\n      0x00\n      dup1\n      returndatacopy\n      revert(0x00, returndatasize)\n    tag_18:\n      pop\n        /* \"contracts/Chocolate.sol\":533:538  memos */\n      0x00\n        /* \"contracts/Chocolate.sol\":544:592  Memo(name, message, block.timestamp, msg.sender) */\n      mload(0x40)\n      dup1\n      0x80\n      add\n      0x40\n      mstore\n      dup1\n        /* \"contracts/Chocolate.sol\":549:553  name */\n      dup5\n        /* \"contracts/Chocolate.sol\":544:592  Memo(name, message, block.timestamp, msg.sender) */\n      dup2\n      mstore\n      0x20\n      add\n        /* \"contracts/Chocolate.sol\":555:562  message */\n      dup4\n        /* \"contracts/Chocolate.sol\":544:592  Memo(name, message, block.timestamp, msg.sender) */\n      dup2\n      mstore\n      0x20\n      add\n        /* \"contracts/Chocolate.sol\":564:579  block.timestamp */\n      timestamp\n        /* \"contracts/Chocolate.sol\":544:592  Memo(name, message, block.timestamp, msg.sender) */\n      dup2\n      mstore\n      0x20\n      add\n        /* \"contracts/Chocolate.sol\":581:591  msg.sender */\n      caller\n        /* \"contracts/Chocolate.sol\":544:592  Memo(name, message, block.timestamp, msg.sender) */\n      0xffffffffffffffffffffffffffffffffffffffff\n      and\n      dup2\n      mstore\n      pop\n        /* \"contracts/Chocolate.sol\":533:593  memos.push(Memo(name, message, block.timestamp, msg.sender)) */\n      swap1\n      dup1\n      0x01\n      dup2\n      sload\n      add\n      dup1\n      dup3\n      sstore\n      dup1\n      swap2\n      pop\n      pop\n      0x01\n      swap1\n      sub\n      swap1\n      0x00\n      mstore\n      keccak256(0x00, 0x20)\n      swap1\n      0x04\n      mul\n      add\n      0x00\n      swap1\n      swap2\n      swap1\n      swap2\n      swap1\n      swap2\n      pop\n      0x00\n      dup3\n      add\n      mload\n      dup2\n      0x00\n      add\n      swap1\n      dup2\n      tag_20\n      swap2\n      swap1\n      tag_21\n      jump\t// in\n    tag_20:\n      pop\n      0x20\n      dup3\n      add\n      mload\n      dup2\n      0x01\n      add\n      swap1\n      dup2\n      tag_22\n      swap2\n      swap1\n      tag_21\n      jump\t// in\n    tag_22:\n      pop\n      0x40\n      dup3\n      add\n      mload\n      dup2\n      0x02\n      add\n      sstore\n      0x60\n      dup3\n      add\n      mload\n      dup2\n      0x03\n      add\n      exp(0x0100, 0x00)\n      dup2\n      sload\n      dup2\n      0xffffffffffffffffffffffffffffffffffffffff\n      mul\n      not\n      and\n      swap1\n      dup4\n      0xffffffffffffffffffffffffffffffffffffffff\n      and\n      mul\n      or\n      swap1\n      sstore\n      pop\n      pop\n      pop\n        /* \"contracts/Chocolate.sol\":337:601  function buyChocolates(string memory name, string memory message) public payable {... */\n      pop\n      pop\n      jump\t// out\n        /* \"contracts/Chocolate.sol\":609:696  function getMemos() public view returns (Memo[] memory) {... */\n    tag_10:\n        /* \"contracts/Chocolate.sol\":650:663  Memo[] memory */\n      0x60\n        /* \"contracts/Chocolate.sol\":683:688  memos */\n      0x00\n        /* \"contracts/Chocolate.sol\":676:688  return memos */\n      dup1\n      sload\n      dup1\n      0x20\n      mul\n      0x20\n      add\n      mload(0x40)\n      swap1\n      dup2\n      add\n      0x40\n      mstore\n      dup1\n      swap3\n      swap2\n      swap1\n      dup2\n      dup2\n      mstore\n      0x20\n      add\n      0x00\n      swap1\n    tag_24:\n      dup3\n      dup3\n      lt\n      iszero\n      tag_25\n      jumpi\n      dup4\n      dup3\n      swap1\n      0x00\n      mstore\n      keccak256(0x00, 0x20)\n      swap1\n      0x04\n      mul\n      add\n      mload(0x40)\n      dup1\n      0x80\n      add\n      0x40\n      mstore\n      swap1\n      dup2\n      0x00\n      dup3\n      add\n      dup1\n      sload\n      tag_27\n      swap1\n      tag_28\n      jump\t// in\n    tag_27:\n      dup1\n      0x1f\n      add\n      0x20\n      dup1\n      swap2\n      div\n      mul\n      0x20\n      add\n      mload(0x40)\n      swap1\n      dup2\n      add\n      0x40\n      mstore\n      dup1\n      swap3\n      swap2\n      swap1\n      dup2\n      dup2\n      mstore\n      0x20\n      add\n      dup3\n      dup1\n      sload\n      tag_29\n      swap1\n      tag_28\n      jump\t// in\n    tag_29:\n      dup1\n      iszero\n      tag_30\n      jumpi\n      dup1\n      0x1f\n      lt\n      tag_31\n      jumpi\n      0x0100\n      dup1\n      dup4\n      sload\n      div\n      mul\n      dup4\n      mstore\n      swap2\n      0x20\n      add\n      swap2\n      jump(tag_30)\n    tag_31:\n      dup3\n      add\n      swap2\n      swap1\n      0x00\n      mstore\n      keccak256(0x00, 0x20)\n      swap1\n    tag_32:\n      dup2\n      sload\n      dup2\n      mstore\n      swap1\n      0x01\n      add\n      swap1\n      0x20\n      add\n      dup1\n      dup4\n      gt\n      tag_32\n      jumpi\n      dup3\n      swap1\n      sub\n      0x1f\n      and\n      dup3\n      add\n      swap2\n    tag_30:\n      pop\n      pop\n      pop\n      pop\n      pop\n      dup2\n      mstore\n      0x20\n      add\n      0x01\n      dup3\n      add\n      dup1\n      sload\n      tag_33\n      swap1\n      tag_28\n      jump\t// in\n    tag_33:\n      dup1\n      0x1f\n      add\n      0x20\n      dup1\n      swap2\n      div\n      mul\n      0x20\n      add\n      mload(0x40)\n      swap1\n      dup2\n      add\n      0x40\n      mstore\n      dup1\n      swap3\n      swap2\n      swap1\n      dup2\n      dup2\n      mstore\n      0x20\n      add\n      dup3\n      dup1\n      sload\n      tag_34\n      swap1\n      tag_28\n      jump\t// in\n    tag_34:\n      dup1\n      iszero\n      tag_35\n      jumpi\n      dup1\n      0x1f\n      lt\n      tag_36\n      jumpi\n      0x0100\n      dup1\n      dup4\n      sload\n      div\n      mul\n      dup4\n      mstore\n      swap2\n      0x20\n      add\n      swap2\n      jump(tag_35)\n    tag_36:\n      dup3\n      add\n      swap2\n      swap1\n      0x00\n      mstore\n      keccak256(0x00, 0x20)\n      swap1\n    tag_37:\n      dup2\n      sload\n      dup2\n      mstore\n      swap1\n      0x01\n      add\n      swap1\n      0x20\n      add\n      dup1\n      dup4\n      gt\n      tag_37\n      jumpi\n      dup3\n      swap1\n      sub\n      0x1f\n      and\n      dup3\n      add\n      swap2\n    tag_35:\n      pop\n      pop\n      pop\n      pop\n      pop\n      dup2\n      mstore\n      0x20\n      add\n      0x02\n      dup3\n      add\n      sload\n      dup2\n      mstore\n      0x20\n      add\n      0x03\n      dup3\n      add\n      0x00\n      swap1\n      sload\n      swap1\n      0x0100\n      exp\n      swap1\n      div\n      0xffffffffffffffffffffffffffffffffffffffff\n      and\n      0xffffffffffffffffffffffffffffffffffffffff\n      and\n      0xffffffffffffffffffffffffffffffffffffffff\n      and\n      dup2\n      mstore\n      pop\n      pop\n      dup2\n      mstore\n      0x20\n      add\n      swap1\n      0x01\n      add\n      swap1\n      jump(tag_24)\n    tag_25:\n      pop\n      pop\n      pop\n      pop\n      swap1\n      pop\n        /* \"contracts/Chocolate.sol\":609:696  function getMemos() public view returns (Memo[] memory) {... */\n      swap1\n      jump\t// out\n        /* \"#utility.yul\":7:82   */\n    tag_38:\n        /* \"#utility.yul\":40:46   */\n      0x00\n        /* \"#utility.yul\":73:75   */\n      0x40\n        /* \"#utility.yul\":67:76   */\n      mload\n        /* \"#utility.yul\":57:76   */\n      swap1\n      pop\n        /* \"#utility.yul\":7:82   */\n      swap1\n      jump\t// out\n        /* \"#utility.yul\":88:205   */\n    tag_39:\n        /* \"#utility.yul\":197:198   */\n      0x00\n        /* \"#utility.yul\":194:195   */\n      dup1\n        /* \"#utility.yul\":187:199   */\n      revert\n        /* \"#utility.yul\":211:328   */\n    tag_40:\n        /* \"#utility.yul\":320:321   */\n      0x00\n        /* \"#utility.yul\":317:318   */\n      dup1\n        /* \"#utility.yul\":310:322   */\n      revert\n        /* \"#utility.yul\":334:451   */\n    tag_41:\n        /* \"#utility.yul\":443:444   */\n      0x00\n        /* \"#utility.yul\":440:441   */\n      dup1\n        /* \"#utility.yul\":433:445   */\n      revert\n        /* \"#utility.yul\":457:574   */\n    tag_42:\n        /* \"#utility.yul\":566:567   */\n      0x00\n        /* \"#utility.yul\":563:564   */\n      dup1\n        /* \"#utility.yul\":556:568   */\n      revert\n        /* \"#utility.yul\":580:682   */\n    tag_43:\n        /* \"#utility.yul\":621:627   */\n      0x00\n        /* \"#utility.yul\":672:674   */\n      0x1f\n        /* \"#utility.yul\":668:675   */\n      not\n        /* \"#utility.yul\":663:665   */\n      0x1f\n        /* \"#utility.yul\":656:661   */\n      dup4\n        /* \"#utility.yul\":652:666   */\n      add\n        /* \"#utility.yul\":648:676   */\n      and\n        /* \"#utility.yul\":638:676   */\n      swap1\n      pop\n        /* \"#utility.yul\":580:682   */\n      swap2\n      swap1\n      pop\n      jump\t// out\n        /* \"#utility.yul\":688:868   */\n    tag_44:\n        /* \"#utility.yul\":736:813   */\n      0x4e487b7100000000000000000000000000000000000000000000000000000000\n        /* \"#utility.yul\":733:734   */\n      0x00\n        /* \"#utility.yul\":726:814   */\n      mstore\n        /* \"#utility.yul\":833:837   */\n      0x41\n        /* \"#utility.yul\":830:831   */\n      0x04\n        /* \"#utility.yul\":823:838   */\n      mstore\n        /* \"#utility.yul\":857:861   */\n      0x24\n        /* \"#utility.yul\":854:855   */\n      0x00\n        /* \"#utility.yul\":847:862   */\n      revert\n        /* \"#utility.yul\":874:1155   */\n    tag_45:\n        /* \"#utility.yul\":957:984   */\n      tag_95\n        /* \"#utility.yul\":979:983   */\n      dup3\n        /* \"#utility.yul\":957:984   */\n      tag_43\n      jump\t// in\n    tag_95:\n        /* \"#utility.yul\":949:955   */\n      dup2\n        /* \"#utility.yul\":945:985   */\n      add\n        /* \"#utility.yul\":1087:1093   */\n      dup2\n        /* \"#utility.yul\":1075:1085   */\n      dup2\n        /* \"#utility.yul\":1072:1094   */\n      lt\n        /* \"#utility.yul\":1051:1069   */\n      0xffffffffffffffff\n        /* \"#utility.yul\":1039:1049   */\n      dup3\n        /* \"#utility.yul\":1036:1070   */\n      gt\n        /* \"#utility.yul\":1033:1095   */\n      or\n        /* \"#utility.yul\":1030:1118   */\n      iszero\n      tag_96\n      jumpi\n        /* \"#utility.yul\":1098:1116   */\n      tag_97\n      tag_44\n      jump\t// in\n    tag_97:\n        /* \"#utility.yul\":1030:1118   */\n    tag_96:\n        /* \"#utility.yul\":1138:1148   */\n      dup1\n        /* \"#utility.yul\":1134:1136   */\n      0x40\n        /* \"#utility.yul\":1127:1149   */\n      mstore\n        /* \"#utility.yul\":917:1155   */\n      pop\n        /* \"#utility.yul\":874:1155   */\n      pop\n      pop\n      jump\t// out\n        /* \"#utility.yul\":1161:1290   */\n    tag_46:\n        /* \"#utility.yul\":1195:1201   */\n      0x00\n        /* \"#utility.yul\":1222:1242   */\n      tag_99\n      tag_38\n      jump\t// in\n    tag_99:\n        /* \"#utility.yul\":1212:1242   */\n      swap1\n      pop\n        /* \"#utility.yul\":1251:1284   */\n      tag_100\n        /* \"#utility.yul\":1279:1283   */\n      dup3\n        /* \"#utility.yul\":1271:1277   */\n      dup3\n        /* \"#utility.yul\":1251:1284   */\n      tag_45\n      jump\t// in\n    tag_100:\n        /* \"#utility.yul\":1161:1290   */\n      swap2\n      swap1\n      pop\n      jump\t// out\n        /* \"#utility.yul\":1296:1604   */\n    tag_47:\n        /* \"#utility.yul\":1358:1362   */\n      0x00\n        /* \"#utility.yul\":1448:1466   */\n      0xffffffffffffffff\n        /* \"#utility.yul\":1440:1446   */\n      dup3\n        /* \"#utility.yul\":1437:1467   */\n      gt\n        /* \"#utility.yul\":1434:1490   */\n      iszero\n      tag_102\n      jumpi\n        /* \"#utility.yul\":1470:1488   */\n      tag_103\n      tag_44\n      jump\t// in\n    tag_103:\n        /* \"#utility.yul\":1434:1490   */\n    tag_102:\n        /* \"#utility.yul\":1508:1537   */\n      tag_104\n        /* \"#utility.yul\":1530:1536   */\n      dup3\n        /* \"#utility.yul\":1508:1537   */\n      tag_43\n      jump\t// in\n    tag_104:\n        /* \"#utility.yul\":1500:1537   */\n      swap1\n      pop\n        /* \"#utility.yul\":1592:1596   */\n      0x20\n        /* \"#utility.yul\":1586:1590   */\n      dup2\n        /* \"#utility.yul\":1582:1597   */\n      add\n        /* \"#utility.yul\":1574:1597   */\n      swap1\n      pop\n        /* \"#utility.yul\":1296:1604   */\n      swap2\n      swap1\n      pop\n      jump\t// out\n        /* \"#utility.yul\":1610:1756   */\n    tag_48:\n        /* \"#utility.yul\":1707:1713   */\n      dup3\n        /* \"#utility.yul\":1702:1705   */\n      dup2\n        /* \"#utility.yul\":1697:1700   */\n      dup4\n        /* \"#utility.yul\":1684:1714   */\n      calldatacopy\n        /* \"#utility.yul\":1748:1749   */\n      0x00\n        /* \"#utility.yul\":1739:1745   */\n      dup4\n        /* \"#utility.yul\":1734:1737   */\n      dup4\n        /* \"#utility.yul\":1730:1746   */\n      add\n        /* \"#utility.yul\":1723:1750   */\n      mstore\n        /* \"#utility.yul\":1610:1756   */\n      pop\n      pop\n      pop\n      jump\t// out\n        /* \"#utility.yul\":1762:2187   */\n    tag_49:\n        /* \"#utility.yul\":1840:1845   */\n      0x00\n        /* \"#utility.yul\":1865:1931   */\n      tag_107\n        /* \"#utility.yul\":1881:1930   */\n      tag_108\n        /* \"#utility.yul\":1923:1929   */\n      dup5\n        /* \"#utility.yul\":1881:1930   */\n      tag_47\n      jump\t// in\n    tag_108:\n        /* \"#utility.yul\":1865:1931   */\n      tag_46\n      jump\t// in\n    tag_107:\n        /* \"#utility.yul\":1856:1931   */\n      swap1\n      pop\n        /* \"#utility.yul\":1954:1960   */\n      dup3\n        /* \"#utility.yul\":1947:1952   */\n      dup2\n        /* \"#utility.yul\":1940:1961   */\n      mstore\n        /* \"#utility.yul\":1992:1996   */\n      0x20\n        /* \"#utility.yul\":1985:1990   */\n      dup2\n        /* \"#utility.yul\":1981:1997   */\n      add\n        /* \"#utility.yul\":2030:2033   */\n      dup5\n        /* \"#utility.yul\":2021:2027   */\n      dup5\n        /* \"#utility.yul\":2016:2019   */\n      dup5\n        /* \"#utility.yul\":2012:2028   */\n      add\n        /* \"#utility.yul\":2009:2034   */\n      gt\n        /* \"#utility.yul\":2006:2118   */\n      iszero\n      tag_109\n      jumpi\n        /* \"#utility.yul\":2037:2116   */\n      tag_110\n      tag_42\n      jump\t// in\n    tag_110:\n        /* \"#utility.yul\":2006:2118   */\n    tag_109:\n        /* \"#utility.yul\":2127:2181   */\n      tag_111\n        /* \"#utility.yul\":2174:2180   */\n      dup5\n        /* \"#utility.yul\":2169:2172   */\n      dup3\n        /* \"#utility.yul\":2164:2167   */\n      dup6\n        /* \"#utility.yul\":2127:2181   */\n      tag_48\n      jump\t// in\n    tag_111:\n        /* \"#utility.yul\":1846:2187   */\n      pop\n        /* \"#utility.yul\":1762:2187   */\n      swap4\n      swap3\n      pop\n      pop\n      pop\n      jump\t// out\n        /* \"#utility.yul\":2207:2547   */\n    tag_50:\n        /* \"#utility.yul\":2263:2268   */\n      0x00\n        /* \"#utility.yul\":2312:2315   */\n      dup3\n        /* \"#utility.yul\":2305:2309   */\n      0x1f\n        /* \"#utility.yul\":2297:2303   */\n      dup4\n        /* \"#utility.yul\":2293:2310   */\n      add\n        /* \"#utility.yul\":2289:2316   */\n      slt\n        /* \"#utility.yul\":2279:2401   */\n      tag_113\n      jumpi\n        /* \"#utility.yul\":2320:2399   */\n      tag_114\n      tag_41\n      jump\t// in\n    tag_114:\n        /* \"#utility.yul\":2279:2401   */\n    tag_113:\n        /* \"#utility.yul\":2437:2443   */\n      dup2\n        /* \"#utility.yul\":2424:2444   */\n      calldataload\n        /* \"#utility.yul\":2462:2541   */\n      tag_115\n        /* \"#utility.yul\":2537:2540   */\n      dup5\n        /* \"#utility.yul\":2529:2535   */\n      dup3\n        /* \"#utility.yul\":2522:2526   */\n      0x20\n        /* \"#utility.yul\":2514:2520   */\n      dup7\n        /* \"#utility.yul\":2510:2527   */\n      add\n        /* \"#utility.yul\":2462:2541   */\n      tag_49\n      jump\t// in\n    tag_115:\n        /* \"#utility.yul\":2453:2541   */\n      swap2\n      pop\n        /* \"#utility.yul\":2269:2547   */\n      pop\n        /* \"#utility.yul\":2207:2547   */\n      swap3\n      swap2\n      pop\n      pop\n      jump\t// out\n        /* \"#utility.yul\":2553:3387   */\n    tag_6:\n        /* \"#utility.yul\":2641:2647   */\n      0x00\n        /* \"#utility.yul\":2649:2655   */\n      dup1\n        /* \"#utility.yul\":2698:2700   */\n      0x40\n        /* \"#utility.yul\":2686:2695   */\n      dup4\n        /* \"#utility.yul\":2677:2684   */\n      dup6\n        /* \"#utility.yul\":2673:2696   */\n      sub\n        /* \"#utility.yul\":2669:2701   */\n      slt\n        /* \"#utility.yul\":2666:2785   */\n      iszero\n      tag_117\n      jumpi\n        /* \"#utility.yul\":2704:2783   */\n      tag_118\n      tag_39\n      jump\t// in\n    tag_118:\n        /* \"#utility.yul\":2666:2785   */\n    tag_117:\n        /* \"#utility.yul\":2852:2853   */\n      0x00\n        /* \"#utility.yul\":2841:2850   */\n      dup4\n        /* \"#utility.yul\":2837:2854   */\n      add\n        /* \"#utility.yul\":2824:2855   */\n      calldataload\n        /* \"#utility.yul\":2882:2900   */\n      0xffffffffffffffff\n        /* \"#utility.yul\":2874:2880   */\n      dup2\n        /* \"#utility.yul\":2871:2901   */\n      gt\n        /* \"#utility.yul\":2868:2985   */\n      iszero\n      tag_119\n      jumpi\n        /* \"#utility.yul\":2904:2983   */\n      tag_120\n      tag_40\n      jump\t// in\n    tag_120:\n        /* \"#utility.yul\":2868:2985   */\n    tag_119:\n        /* \"#utility.yul\":3009:3072   */\n      tag_121\n        /* \"#utility.yul\":3064:3071   */\n      dup6\n        /* \"#utility.yul\":3055:3061   */\n      dup3\n        /* \"#utility.yul\":3044:3053   */\n      dup7\n        /* \"#utility.yul\":3040:3062   */\n      add\n        /* \"#utility.yul\":3009:3072   */\n      tag_50\n      jump\t// in\n    tag_121:\n        /* \"#utility.yul\":2999:3072   */\n      swap3\n      pop\n        /* \"#utility.yul\":2795:3082   */\n      pop\n        /* \"#utility.yul\":3149:3151   */\n      0x20\n        /* \"#utility.yul\":3138:3147   */\n      dup4\n        /* \"#utility.yul\":3134:3152   */\n      add\n        /* \"#utility.yul\":3121:3153   */\n      calldataload\n        /* \"#utility.yul\":3180:3198   */\n      0xffffffffffffffff\n        /* \"#utility.yul\":3172:3178   */\n      dup2\n        /* \"#utility.yul\":3169:3199   */\n      gt\n        /* \"#utility.yul\":3166:3283   */\n      iszero\n      tag_122\n      jumpi\n        /* \"#utility.yul\":3202:3281   */\n      tag_123\n      tag_40\n      jump\t// in\n    tag_123:\n        /* \"#utility.yul\":3166:3283   */\n    tag_122:\n        /* \"#utility.yul\":3307:3370   */\n      tag_124\n        /* \"#utility.yul\":3362:3369   */\n      dup6\n        /* \"#utility.yul\":3353:3359   */\n      dup3\n        /* \"#utility.yul\":3342:3351   */\n      dup7\n        /* \"#utility.yul\":3338:3360   */\n      add\n        /* \"#utility.yul\":3307:3370   */\n      tag_50\n      jump\t// in\n    tag_124:\n        /* \"#utility.yul\":3297:3370   */\n      swap2\n      pop\n        /* \"#utility.yul\":3092:3380   */\n      pop\n        /* \"#utility.yul\":2553:3387   */\n      swap3\n      pop\n      swap3\n      swap1\n      pop\n      jump\t// out\n        /* \"#utility.yul\":3393:3527   */\n    tag_51:\n        /* \"#utility.yul\":3480:3486   */\n      0x00\n        /* \"#utility.yul\":3514:3519   */\n      dup2\n        /* \"#utility.yul\":3508:3520   */\n      mload\n        /* \"#utility.yul\":3498:3520   */\n      swap1\n      pop\n        /* \"#utility.yul\":3393:3527   */\n      swap2\n      swap1\n      pop\n      jump\t// out\n        /* \"#utility.yul\":3533:3737   */\n    tag_52:\n        /* \"#utility.yul\":3652:3663   */\n      0x00\n        /* \"#utility.yul\":3686:3692   */\n      dup3\n        /* \"#utility.yul\":3681:3684   */\n      dup3\n        /* \"#utility.yul\":3674:3693   */\n      mstore\n        /* \"#utility.yul\":3726:3730   */\n      0x20\n        /* \"#utility.yul\":3721:3724   */\n      dup3\n        /* \"#utility.yul\":3717:3731   */\n      add\n        /* \"#utility.yul\":3702:3731   */\n      swap1\n      pop\n        /* \"#utility.yul\":3533:3737   */\n      swap3\n      swap2\n      pop\n      pop\n      jump\t// out\n        /* \"#utility.yul\":3743:3895   */\n    tag_53:\n        /* \"#utility.yul\":3830:3834   */\n      0x00\n        /* \"#utility.yul\":3853:3856   */\n      dup2\n        /* \"#utility.yul\":3845:3856   */\n      swap1\n      pop\n        /* \"#utility.yul\":3883:3887   */\n      0x20\n        /* \"#utility.yul\":3878:3881   */\n      dup3\n        /* \"#utility.yul\":3874:3888   */\n      add\n        /* \"#utility.yul\":3866:3888   */\n      swap1\n      pop\n        /* \"#utility.yul\":3743:3895   */\n      swap2\n      swap1\n      pop\n      jump\t// out\n        /* \"#utility.yul\":3901:4000   */\n    tag_54:\n        /* \"#utility.yul\":3953:3959   */\n      0x00\n        /* \"#utility.yul\":3987:3992   */\n      dup2\n        /* \"#utility.yul\":3981:3993   */\n      mload\n        /* \"#utility.yul\":3971:3993   */\n      swap1\n      pop\n        /* \"#utility.yul\":3901:4000   */\n      swap2\n      swap1\n      pop\n      jump\t// out\n        /* \"#utility.yul\":4006:4165   */\n    tag_55:\n        /* \"#utility.yul\":4080:4091   */\n      0x00\n        /* \"#utility.yul\":4114:4120   */\n      dup3\n        /* \"#utility.yul\":4109:4112   */\n      dup3\n        /* \"#utility.yul\":4102:4121   */\n      mstore\n        /* \"#utility.yul\":4154:4158   */\n      0x20\n        /* \"#utility.yul\":4149:4152   */\n      dup3\n        /* \"#utility.yul\":4145:4159   */\n      add\n        /* \"#utility.yul\":4130:4159   */\n      swap1\n      pop\n        /* \"#utility.yul\":4006:4165   */\n      swap3\n      swap2\n      pop\n      pop\n      jump\t// out\n        /* \"#utility.yul\":4171:4417   */\n    tag_56:\n        /* \"#utility.yul\":4252:4253   */\n      0x00\n        /* \"#utility.yul\":4262:4375   */\n    tag_131:\n        /* \"#utility.yul\":4276:4282   */\n      dup4\n        /* \"#utility.yul\":4273:4274   */\n      dup2\n        /* \"#utility.yul\":4270:4283   */\n      lt\n        /* \"#utility.yul\":4262:4375   */\n      iszero\n      tag_133\n      jumpi\n        /* \"#utility.yul\":4361:4362   */\n      dup1\n        /* \"#utility.yul\":4356:4359   */\n      dup3\n        /* \"#utility.yul\":4352:4363   */\n      add\n        /* \"#utility.yul\":4346:4364   */\n      mload\n        /* \"#utility.yul\":4342:4343   */\n      dup2\n        /* \"#utility.yul\":4337:4340   */\n      dup5\n        /* \"#utility.yul\":4333:4344   */\n      add\n        /* \"#utility.yul\":4326:4365   */\n      mstore\n        /* \"#utility.yul\":4298:4300   */\n      0x20\n        /* \"#utility.yul\":4295:4296   */\n      dup2\n        /* \"#utility.yul\":4291:4301   */\n      add\n        /* \"#utility.yul\":4286:4301   */\n      swap1\n      pop\n        /* \"#utility.yul\":4262:4375   */\n      jump(tag_131)\n    tag_133:\n        /* \"#utility.yul\":4409:4410   */\n      0x00\n        /* \"#utility.yul\":4400:4406   */\n      dup5\n        /* \"#utility.yul\":4395:4398   */\n      dup5\n        /* \"#utility.yul\":4391:4407   */\n      add\n        /* \"#utility.yul\":4384:4411   */\n      mstore\n        /* \"#utility.yul\":4233:4417   */\n      pop\n        /* \"#utility.yul\":4171:4417   */\n      pop\n      pop\n      pop\n      jump\t// out\n        /* \"#utility.yul\":4423:4780   */\n    tag_57:\n        /* \"#utility.yul\":4501:4504   */\n      0x00\n        /* \"#utility.yul\":4529:4568   */\n      tag_135\n        /* \"#utility.yul\":4562:4567   */\n      dup3\n        /* \"#utility.yul\":4529:4568   */\n      tag_54\n      jump\t// in\n    tag_135:\n        /* \"#utility.yul\":4584:4645   */\n      tag_136\n        /* \"#utility.yul\":4638:4644   */\n      dup2\n        /* \"#utility.yul\":4633:4636   */\n      dup6\n        /* \"#utility.yul\":4584:4645   */\n      tag_55\n      jump\t// in\n    tag_136:\n        /* \"#utility.yul\":4577:4645   */\n      swap4\n      pop\n        /* \"#utility.yul\":4654:4719   */\n      tag_137\n        /* \"#utility.yul\":4712:4718   */\n      dup2\n        /* \"#utility.yul\":4707:4710   */\n      dup6\n        /* \"#utility.yul\":4700:4704   */\n      0x20\n        /* \"#utility.yul\":4693:4698   */\n      dup7\n        /* \"#utility.yul\":4689:4705   */\n      add\n        /* \"#utility.yul\":4654:4719   */\n      tag_56\n      jump\t// in\n    tag_137:\n        /* \"#utility.yul\":4744:4773   */\n      tag_138\n        /* \"#utility.yul\":4766:4772   */\n      dup2\n        /* \"#utility.yul\":4744:4773   */\n      tag_43\n      jump\t// in\n    tag_138:\n        /* \"#utility.yul\":4739:4742   */\n      dup5\n        /* \"#utility.yul\":4735:4774   */\n      add\n        /* \"#utility.yul\":4728:4774   */\n      swap2\n      pop\n        /* \"#utility.yul\":4505:4780   */\n      pop\n        /* \"#utility.yul\":4423:4780   */\n      swap3\n      swap2\n      pop\n      pop\n      jump\t// out\n        /* \"#utility.yul\":4786:4863   */\n    tag_58:\n        /* \"#utility.yul\":4823:4830   */\n      0x00\n        /* \"#utility.yul\":4852:4857   */\n      dup2\n        /* \"#utility.yul\":4841:4857   */\n      swap1\n      pop\n        /* \"#utility.yul\":4786:4863   */\n      swap2\n      swap1\n      pop\n      jump\t// out\n        /* \"#utility.yul\":4869:4977   */\n    tag_59:\n        /* \"#utility.yul\":4946:4970   */\n      tag_141\n        /* \"#utility.yul\":4964:4969   */\n      dup2\n        /* \"#utility.yul\":4946:4970   */\n      tag_58\n      jump\t// in\n    tag_141:\n        /* \"#utility.yul\":4941:4944   */\n      dup3\n        /* \"#utility.yul\":4934:4971   */\n      mstore\n        /* \"#utility.yul\":4869:4977   */\n      pop\n      pop\n      jump\t// out\n        /* \"#utility.yul\":4983:5109   */\n    tag_60:\n        /* \"#utility.yul\":5020:5027   */\n      0x00\n        /* \"#utility.yul\":5060:5102   */\n      0xffffffffffffffffffffffffffffffffffffffff\n        /* \"#utility.yul\":5053:5058   */\n      dup3\n        /* \"#utility.yul\":5049:5103   */\n      and\n        /* \"#utility.yul\":5038:5103   */\n      swap1\n      pop\n        /* \"#utility.yul\":4983:5109   */\n      swap2\n      swap1\n      pop\n      jump\t// out\n        /* \"#utility.yul\":5115:5211   */\n    tag_61:\n        /* \"#utility.yul\":5152:5159   */\n      0x00\n        /* \"#utility.yul\":5181:5205   */\n      tag_144\n        /* \"#utility.yul\":5199:5204   */\n      dup3\n        /* \"#utility.yul\":5181:5205   */\n      tag_60\n      jump\t// in\n    tag_144:\n        /* \"#utility.yul\":5170:5205   */\n      swap1\n      pop\n        /* \"#utility.yul\":5115:5211   */\n      swap2\n      swap1\n      pop\n      jump\t// out\n        /* \"#utility.yul\":5217:5325   */\n    tag_62:\n        /* \"#utility.yul\":5294:5318   */\n      tag_146\n        /* \"#utility.yul\":5312:5317   */\n      dup2\n        /* \"#utility.yul\":5294:5318   */\n      tag_61\n      jump\t// in\n    tag_146:\n        /* \"#utility.yul\":5289:5292   */\n      dup3\n        /* \"#utility.yul\":5282:5319   */\n      mstore\n        /* \"#utility.yul\":5217:5325   */\n      pop\n      pop\n      jump\t// out\n        /* \"#utility.yul\":5385:6398   */\n    tag_63:\n        /* \"#utility.yul\":5484:5487   */\n      0x00\n        /* \"#utility.yul\":5520:5524   */\n      0x80\n        /* \"#utility.yul\":5515:5518   */\n      dup4\n        /* \"#utility.yul\":5511:5525   */\n      add\n        /* \"#utility.yul\":5607:5611   */\n      0x00\n        /* \"#utility.yul\":5600:5605   */\n      dup4\n        /* \"#utility.yul\":5596:5612   */\n      add\n        /* \"#utility.yul\":5590:5613   */\n      mload\n        /* \"#utility.yul\":5660:5663   */\n      dup5\n        /* \"#utility.yul\":5654:5658   */\n      dup3\n        /* \"#utility.yul\":5650:5664   */\n      sub\n        /* \"#utility.yul\":5643:5647   */\n      0x00\n        /* \"#utility.yul\":5638:5641   */\n      dup7\n        /* \"#utility.yul\":5634:5648   */\n      add\n        /* \"#utility.yul\":5627:5665   */\n      mstore\n        /* \"#utility.yul\":5686:5759   */\n      tag_148\n        /* \"#utility.yul\":5754:5758   */\n      dup3\n        /* \"#utility.yul\":5740:5752   */\n      dup3\n        /* \"#utility.yul\":5686:5759   */\n      tag_57\n      jump\t// in\n    tag_148:\n        /* \"#utility.yul\":5678:5759   */\n      swap2\n      pop\n        /* \"#utility.yul\":5535:5770   */\n      pop\n        /* \"#utility.yul\":5855:5859   */\n      0x20\n        /* \"#utility.yul\":5848:5853   */\n      dup4\n        /* \"#utility.yul\":5844:5860   */\n      add\n        /* \"#utility.yul\":5838:5861   */\n      mload\n        /* \"#utility.yul\":5908:5911   */\n      dup5\n        /* \"#utility.yul\":5902:5906   */\n      dup3\n        /* \"#utility.yul\":5898:5912   */\n      sub\n        /* \"#utility.yul\":5891:5895   */\n      0x20\n        /* \"#utility.yul\":5886:5889   */\n      dup7\n        /* \"#utility.yul\":5882:5896   */\n      add\n        /* \"#utility.yul\":5875:5913   */\n      mstore\n        /* \"#utility.yul\":5934:6007   */\n      tag_149\n        /* \"#utility.yul\":6002:6006   */\n      dup3\n        /* \"#utility.yul\":5988:6000   */\n      dup3\n        /* \"#utility.yul\":5934:6007   */\n      tag_57\n      jump\t// in\n    tag_149:\n        /* \"#utility.yul\":5926:6007   */\n      swap2\n      pop\n        /* \"#utility.yul\":5780:6018   */\n      pop\n        /* \"#utility.yul\":6105:6109   */\n      0x40\n        /* \"#utility.yul\":6098:6103   */\n      dup4\n        /* \"#utility.yul\":6094:6110   */\n      add\n        /* \"#utility.yul\":6088:6111   */\n      mload\n        /* \"#utility.yul\":6124:6187   */\n      tag_150\n        /* \"#utility.yul\":6181:6185   */\n      0x40\n        /* \"#utility.yul\":6176:6179   */\n      dup7\n        /* \"#utility.yul\":6172:6186   */\n      add\n        /* \"#utility.yul\":6158:6170   */\n      dup3\n        /* \"#utility.yul\":6124:6187   */\n      tag_59\n      jump\t// in\n    tag_150:\n        /* \"#utility.yul\":6028:6197   */\n      pop\n        /* \"#utility.yul\":6279:6283   */\n      0x60\n        /* \"#utility.yul\":6272:6277   */\n      dup4\n        /* \"#utility.yul\":6268:6284   */\n      add\n        /* \"#utility.yul\":6262:6285   */\n      mload\n        /* \"#utility.yul\":6298:6361   */\n      tag_151\n        /* \"#utility.yul\":6355:6359   */\n      0x60\n        /* \"#utility.yul\":6350:6353   */\n      dup7\n        /* \"#utility.yul\":6346:6360   */\n      add\n        /* \"#utility.yul\":6332:6344   */\n      dup3\n        /* \"#utility.yul\":6298:6361   */\n      tag_62\n      jump\t// in\n    tag_151:\n        /* \"#utility.yul\":6207:6371   */\n      pop\n        /* \"#utility.yul\":6388:6392   */\n      dup1\n        /* \"#utility.yul\":6381:6392   */\n      swap2\n      pop\n        /* \"#utility.yul\":5489:6398   */\n      pop\n        /* \"#utility.yul\":5385:6398   */\n      swap3\n      swap2\n      pop\n      pop\n      jump\t// out\n        /* \"#utility.yul\":6404:6640   */\n    tag_64:\n        /* \"#utility.yul\":6513:6523   */\n      0x00\n        /* \"#utility.yul\":6548:6634   */\n      tag_153\n        /* \"#utility.yul\":6630:6633   */\n      dup4\n        /* \"#utility.yul\":6622:6628   */\n      dup4\n        /* \"#utility.yul\":6548:6634   */\n      tag_63\n      jump\t// in\n    tag_153:\n        /* \"#utility.yul\":6534:6634   */\n      swap1\n      pop\n        /* \"#utility.yul\":6404:6640   */\n      swap3\n      swap2\n      pop\n      pop\n      jump\t// out\n        /* \"#utility.yul\":6646:6779   */\n    tag_65:\n        /* \"#utility.yul\":6736:6740   */\n      0x00\n        /* \"#utility.yul\":6768:6772   */\n      0x20\n        /* \"#utility.yul\":6763:6766   */\n      dup3\n        /* \"#utility.yul\":6759:6773   */\n      add\n        /* \"#utility.yul\":6751:6773   */\n      swap1\n      pop\n        /* \"#utility.yul\":6646:6779   */\n      swap2\n      swap1\n      pop\n      jump\t// out\n        /* \"#utility.yul\":6843:7914   */\n    tag_66:\n        /* \"#utility.yul\":7002:7005   */\n      0x00\n        /* \"#utility.yul\":7031:7105   */\n      tag_156\n        /* \"#utility.yul\":7099:7104   */\n      dup3\n        /* \"#utility.yul\":7031:7105   */\n      tag_51\n      jump\t// in\n    tag_156:\n        /* \"#utility.yul\":7121:7227   */\n      tag_157\n        /* \"#utility.yul\":7220:7226   */\n      dup2\n        /* \"#utility.yul\":7215:7218   */\n      dup6\n        /* \"#utility.yul\":7121:7227   */\n      tag_52\n      jump\t// in\n    tag_157:\n        /* \"#utility.yul\":7114:7227   */\n      swap4\n      pop\n        /* \"#utility.yul\":7253:7256   */\n      dup4\n        /* \"#utility.yul\":7298:7302   */\n      0x20\n        /* \"#utility.yul\":7290:7296   */\n      dup3\n        /* \"#utility.yul\":7286:7303   */\n      mul\n        /* \"#utility.yul\":7281:7284   */\n      dup6\n        /* \"#utility.yul\":7277:7304   */\n      add\n        /* \"#utility.yul\":7328:7404   */\n      tag_158\n        /* \"#utility.yul\":7398:7403   */\n      dup6\n        /* \"#utility.yul\":7328:7404   */\n      tag_53\n      jump\t// in\n    tag_158:\n        /* \"#utility.yul\":7427:7434   */\n      dup1\n        /* \"#utility.yul\":7458:7459   */\n      0x00\n        /* \"#utility.yul\":7443:7869   */\n    tag_159:\n        /* \"#utility.yul\":7468:7474   */\n      dup6\n        /* \"#utility.yul\":7465:7466   */\n      dup2\n        /* \"#utility.yul\":7462:7475   */\n      lt\n        /* \"#utility.yul\":7443:7869   */\n      iszero\n      tag_161\n      jumpi\n        /* \"#utility.yul\":7539:7548   */\n      dup5\n        /* \"#utility.yul\":7533:7537   */\n      dup5\n        /* \"#utility.yul\":7529:7549   */\n      sub\n        /* \"#utility.yul\":7524:7527   */\n      dup10\n        /* \"#utility.yul\":7517:7550   */\n      mstore\n        /* \"#utility.yul\":7590:7596   */\n      dup2\n        /* \"#utility.yul\":7584:7597   */\n      mload\n        /* \"#utility.yul\":7618:7722   */\n      tag_162\n        /* \"#utility.yul\":7717:7721   */\n      dup6\n        /* \"#utility.yul\":7702:7715   */\n      dup3\n        /* \"#utility.yul\":7618:7722   */\n      tag_64\n      jump\t// in\n    tag_162:\n        /* \"#utility.yul\":7610:7722   */\n      swap5\n      pop\n        /* \"#utility.yul\":7745:7825   */\n      tag_163\n        /* \"#utility.yul\":7818:7824   */\n      dup4\n        /* \"#utility.yul\":7745:7825   */\n      tag_65\n      jump\t// in\n    tag_163:\n        /* \"#utility.yul\":7735:7825   */\n      swap3\n      pop\n        /* \"#utility.yul\":7854:7858   */\n      0x20\n        /* \"#utility.yul\":7849:7852   */\n      dup11\n        /* \"#utility.yul\":7845:7859   */\n      add\n        /* \"#utility.yul\":7838:7859   */\n      swap10\n      pop\n        /* \"#utility.yul\":7503:7869   */\n      pop\n        /* \"#utility.yul\":7490:7491   */\n      0x01\n        /* \"#utility.yul\":7487:7488   */\n      dup2\n        /* \"#utility.yul\":7483:7492   */\n      add\n        /* \"#utility.yul\":7478:7492   */\n      swap1\n      pop\n        /* \"#utility.yul\":7443:7869   */\n      jump(tag_159)\n    tag_161:\n        /* \"#utility.yul\":7447:7461   */\n      pop\n        /* \"#utility.yul\":7885:7889   */\n      dup3\n        /* \"#utility.yul\":7878:7889   */\n      swap8\n      pop\n        /* \"#utility.yul\":7905:7908   */\n      dup8\n        /* \"#utility.yul\":7898:7908   */\n      swap6\n      pop\n        /* \"#utility.yul\":7007:7914   */\n      pop\n      pop\n      pop\n      pop\n      pop\n        /* \"#utility.yul\":6843:7914   */\n      swap3\n      swap2\n      pop\n      pop\n      jump\t// out\n        /* \"#utility.yul\":7920:8373   */\n    tag_12:\n        /* \"#utility.yul\":8103:8107   */\n      0x00\n        /* \"#utility.yul\":8141:8143   */\n      0x20\n        /* \"#utility.yul\":8130:8139   */\n      dup3\n        /* \"#utility.yul\":8126:8144   */\n      add\n        /* \"#utility.yul\":8118:8144   */\n      swap1\n      pop\n        /* \"#utility.yul\":8190:8199   */\n      dup2\n        /* \"#utility.yul\":8184:8188   */\n      dup2\n        /* \"#utility.yul\":8180:8200   */\n      sub\n        /* \"#utility.yul\":8176:8177   */\n      0x00\n        /* \"#utility.yul\":8165:8174   */\n      dup4\n        /* \"#utility.yul\":8161:8178   */\n      add\n        /* \"#utility.yul\":8154:8201   */\n      mstore\n        /* \"#utility.yul\":8218:8366   */\n      tag_165\n        /* \"#utility.yul\":8361:8365   */\n      dup2\n        /* \"#utility.yul\":8352:8358   */\n      dup5\n        /* \"#utility.yul\":8218:8366   */\n      tag_66\n      jump\t// in\n    tag_165:\n        /* \"#utility.yul\":8210:8366   */\n      swap1\n      pop\n        /* \"#utility.yul\":7920:8373   */\n      swap3\n      swap2\n      pop\n      pop\n      jump\t// out\n        /* \"#utility.yul\":8379:8548   */\n    tag_67:\n        /* \"#utility.yul\":8463:8474   */\n      0x00\n        /* \"#utility.yul\":8497:8503   */\n      dup3\n        /* \"#utility.yul\":8492:8495   */\n      dup3\n        /* \"#utility.yul\":8485:8504   */\n      mstore\n        /* \"#utility.yul\":8537:8541   */\n      0x20\n        /* \"#utility.yul\":8532:8535   */\n      dup3\n        /* \"#utility.yul\":8528:8542   */\n      add\n        /* \"#utility.yul\":8513:8542   */\n      swap1\n      pop\n        /* \"#utility.yul\":8379:8548   */\n      swap3\n      swap2\n      pop\n      pop\n      jump\t// out\n        /* \"#utility.yul\":8554:8735   */\n    tag_68:\n        /* \"#utility.yul\":8694:8727   */\n      0x506c65617365207061792067726561746572207468616e203020657468657200\n        /* \"#utility.yul\":8690:8691   */\n      0x00\n        /* \"#utility.yul\":8682:8688   */\n      dup3\n        /* \"#utility.yul\":8678:8692   */\n      add\n        /* \"#utility.yul\":8671:8728   */\n      mstore\n        /* \"#utility.yul\":8554:8735   */\n      pop\n      jump\t// out\n        /* \"#utility.yul\":8741:9107   */\n    tag_69:\n        /* \"#utility.yul\":8883:8886   */\n      0x00\n        /* \"#utility.yul\":8904:8971   */\n      tag_169\n        /* \"#utility.yul\":8968:8970   */\n      0x1f\n        /* \"#utility.yul\":8963:8966   */\n      dup4\n        /* \"#utility.yul\":8904:8971   */\n      tag_67\n      jump\t// in\n    tag_169:\n        /* \"#utility.yul\":8897:8971   */\n      swap2\n      pop\n        /* \"#utility.yul\":8980:9073   */\n      tag_170\n        /* \"#utility.yul\":9069:9072   */\n      dup3\n        /* \"#utility.yul\":8980:9073   */\n      tag_68\n      jump\t// in\n    tag_170:\n        /* \"#utility.yul\":9098:9100   */\n      0x20\n        /* \"#utility.yul\":9093:9096   */\n      dup3\n        /* \"#utility.yul\":9089:9101   */\n      add\n        /* \"#utility.yul\":9082:9101   */\n      swap1\n      pop\n        /* \"#utility.yul\":8741:9107   */\n      swap2\n      swap1\n      pop\n      jump\t// out\n        /* \"#utility.yul\":9113:9532   */\n    tag_16:\n        /* \"#utility.yul\":9279:9283   */\n      0x00\n        /* \"#utility.yul\":9317:9319   */\n      0x20\n        /* \"#utility.yul\":9306:9315   */\n      dup3\n        /* \"#utility.yul\":9302:9320   */\n      add\n        /* \"#utility.yul\":9294:9320   */\n      swap1\n      pop\n        /* \"#utility.yul\":9366:9375   */\n      dup2\n        /* \"#utility.yul\":9360:9364   */\n      dup2\n        /* \"#utility.yul\":9356:9376   */\n      sub\n        /* \"#utility.yul\":9352:9353   */\n      0x00\n        /* \"#utility.yul\":9341:9350   */\n      dup4\n        /* \"#utility.yul\":9337:9354   */\n      add\n        /* \"#utility.yul\":9330:9377   */\n      mstore\n        /* \"#utility.yul\":9394:9525   */\n      tag_172\n        /* \"#utility.yul\":9520:9524   */\n      dup2\n        /* \"#utility.yul\":9394:9525   */\n      tag_69\n      jump\t// in\n    tag_172:\n        /* \"#utility.yul\":9386:9525   */\n      swap1\n      pop\n        /* \"#utility.yul\":9113:9532   */\n      swap2\n      swap1\n      pop\n      jump\t// out\n        /* \"#utility.yul\":9538:9718   */\n    tag_70:\n        /* \"#utility.yul\":9586:9663   */\n      0x4e487b7100000000000000000000000000000000000000000000000000000000\n        /* \"#utility.yul\":9583:9584   */\n      0x00\n        /* \"#utility.yul\":9576:9664   */\n      mstore\n        /* \"#utility.yul\":9683:9687   */\n      0x22\n        /* \"#utility.yul\":9680:9681   */\n      0x04\n        /* \"#utility.yul\":9673:9688   */\n      mstore\n        /* \"#utility.yul\":9707:9711   */\n      0x24\n        /* \"#utility.yul\":9704:9705   */\n      0x00\n        /* \"#utility.yul\":9697:9712   */\n      revert\n        /* \"#utility.yul\":9724:10044   */\n    tag_28:\n        /* \"#utility.yul\":9768:9774   */\n      0x00\n        /* \"#utility.yul\":9805:9806   */\n      0x02\n        /* \"#utility.yul\":9799:9803   */\n      dup3\n        /* \"#utility.yul\":9795:9807   */\n      div\n        /* \"#utility.yul\":9785:9807   */\n      swap1\n      pop\n        /* \"#utility.yul\":9852:9853   */\n      0x01\n        /* \"#utility.yul\":9846:9850   */\n      dup3\n        /* \"#utility.yul\":9842:9854   */\n      and\n        /* \"#utility.yul\":9873:9891   */\n      dup1\n        /* \"#utility.yul\":9863:9944   */\n      tag_175\n      jumpi\n        /* \"#utility.yul\":9929:9933   */\n      0x7f\n        /* \"#utility.yul\":9921:9927   */\n      dup3\n        /* \"#utility.yul\":9917:9934   */\n      and\n        /* \"#utility.yul\":9907:9934   */\n      swap2\n      pop\n        /* \"#utility.yul\":9863:9944   */\n    tag_175:\n        /* \"#utility.yul\":9991:9993   */\n      0x20\n        /* \"#utility.yul\":9983:9989   */\n      dup3\n        /* \"#utility.yul\":9980:9994   */\n      lt\n        /* \"#utility.yul\":9960:9978   */\n      dup2\n        /* \"#utility.yul\":9957:9995   */\n      sub\n        /* \"#utility.yul\":9954:10038   */\n      tag_176\n      jumpi\n        /* \"#utility.yul\":10010:10028   */\n      tag_177\n      tag_70\n      jump\t// in\n    tag_177:\n        /* \"#utility.yul\":9954:10038   */\n    tag_176:\n        /* \"#utility.yul\":9775:10044   */\n      pop\n        /* \"#utility.yul\":9724:10044   */\n      swap2\n      swap1\n      pop\n      jump\t// out\n        /* \"#utility.yul\":10050:10191   */\n    tag_71:\n        /* \"#utility.yul\":10099:10103   */\n      0x00\n        /* \"#utility.yul\":10122:10125   */\n      dup2\n        /* \"#utility.yul\":10114:10125   */\n      swap1\n      pop\n        /* \"#utility.yul\":10145:10148   */\n      dup2\n        /* \"#utility.yul\":10142:10143   */\n      0x00\n        /* \"#utility.yul\":10135:10149   */\n      mstore\n        /* \"#utility.yul\":10179:10183   */\n      0x20\n        /* \"#utility.yul\":10176:10177   */\n      0x00\n        /* \"#utility.yul\":10166:10184   */\n      keccak256\n        /* \"#utility.yul\":10158:10184   */\n      swap1\n      pop\n        /* \"#utility.yul\":10050:10191   */\n      swap2\n      swap1\n      pop\n      jump\t// out\n        /* \"#utility.yul\":10197:10290   */\n    tag_72:\n        /* \"#utility.yul\":10234:10240   */\n      0x00\n        /* \"#utility.yul\":10281:10283   */\n      0x20\n        /* \"#utility.yul\":10276:10278   */\n      0x1f\n        /* \"#utility.yul\":10269:10274   */\n      dup4\n        /* \"#utility.yul\":10265:10279   */\n      add\n        /* \"#utility.yul\":10261:10284   */\n      div\n        /* \"#utility.yul\":10251:10284   */\n      swap1\n      pop\n        /* \"#utility.yul\":10197:10290   */\n      swap2\n      swap1\n      pop\n      jump\t// out\n        /* \"#utility.yul\":10296:10403   */\n    tag_73:\n        /* \"#utility.yul\":10340:10348   */\n      0x00\n        /* \"#utility.yul\":10390:10395   */\n      dup3\n        /* \"#utility.yul\":10384:10388   */\n      dup3\n        /* \"#utility.yul\":10380:10396   */\n      shl\n        /* \"#utility.yul\":10359:10396   */\n      swap1\n      pop\n        /* \"#utility.yul\":10296:10403   */\n      swap3\n      swap2\n      pop\n      pop\n      jump\t// out\n        /* \"#utility.yul\":10409:10802   */\n    tag_74:\n        /* \"#utility.yul\":10478:10484   */\n      0x00\n        /* \"#utility.yul\":10528:10529   */\n      0x08\n        /* \"#utility.yul\":10516:10526   */\n      dup4\n        /* \"#utility.yul\":10512:10530   */\n      mul\n        /* \"#utility.yul\":10551:10648   */\n      tag_182\n        /* \"#utility.yul\":10581:10647   */\n      0xffffffffffffffffffffffffffffffffffffffffffffffffffffffffffffffff\n        /* \"#utility.yul\":10570:10579   */\n      dup3\n        /* \"#utility.yul\":10551:10648   */\n      tag_73\n      jump\t// in\n    tag_182:\n        /* \"#utility.yul\":10669:10708   */\n      tag_183\n        /* \"#utility.yul\":10699:10707   */\n      dup7\n        /* \"#utility.yul\":10688:10697   */\n      dup4\n        /* \"#utility.yul\":10669:10708   */\n      tag_73\n      jump\t// in\n    tag_183:\n        /* \"#utility.yul\":10657:10708   */\n      swap6\n      pop\n        /* \"#utility.yul\":10741:10745   */\n      dup1\n        /* \"#utility.yul\":10737:10746   */\n      not\n        /* \"#utility.yul\":10730:10735   */\n      dup5\n        /* \"#utility.yul\":10726:10747   */\n      and\n        /* \"#utility.yul\":10717:10747   */\n      swap4\n      pop\n        /* \"#utility.yul\":10790:10794   */\n      dup1\n        /* \"#utility.yul\":10780:10788   */\n      dup7\n        /* \"#utility.yul\":10776:10795   */\n      and\n        /* \"#utility.yul\":10769:10774   */\n      dup5\n        /* \"#utility.yul\":10766:10796   */\n      or\n        /* \"#utility.yul\":10756:10796   */\n      swap3\n      pop\n        /* \"#utility.yul\":10485:10802   */\n      pop\n      pop\n        /* \"#utility.yul\":10409:10802   */\n      swap4\n      swap3\n      pop\n      pop\n      pop\n      jump\t// out\n        /* \"#utility.yul\":10808:10868   */\n    tag_75:\n        /* \"#utility.yul\":10836:10839   */\n      0x00\n        /* \"#utility.yul\":10857:10862   */\n      dup2\n        /* \"#utility.yul\":10850:10862   */\n      swap1\n      pop\n        /* \"#utility.yul\":10808:10868   */\n      swap2\n      swap1\n      pop\n      jump\t// out\n        /* \"#utility.yul\":10874:11016   */\n    tag_76:\n        /* \"#utility.yul\":10924:10933   */\n      0x00\n        /* \"#utility.yul\":10957:11010   */\n      tag_186\n        /* \"#utility.yul\":10975:11009   */\n      tag_187\n        /* \"#utility.yul\":10984:11008   */\n      tag_188\n        /* \"#utility.yul\":11002:11007   */\n      dup5\n        /* \"#utility.yul\":10984:11008   */\n      tag_58\n      jump\t// in\n    tag_188:\n        /* \"#utility.yul\":10975:11009   */\n      tag_75\n      jump\t// in\n    tag_187:\n        /* \"#utility.yul\":10957:11010   */\n      tag_58\n      jump\t// in\n    tag_186:\n        /* \"#utility.yul\":10944:11010   */\n      swap1\n      pop\n        /* \"#utility.yul\":10874:11016   */\n      swap2\n      swap1\n      pop\n      jump\t// out\n        /* \"#utility.yul\":11022:11097   */\n    tag_77:\n        /* \"#utility.yul\":11065:11068   */\n      0x00\n        /* \"#utility.yul\":11086:11091   */\n      dup2\n        /* \"#utility.yul\":11079:11091   */\n      swap1\n      pop\n        /* \"#utility.yul\":11022:11097   */\n      swap2\n      swap1\n      pop\n      jump\t// out\n        /* \"#utility.yul\":11103:11372   */\n    tag_78:\n        /* \"#utility.yul\":11213:11252   */\n      tag_191\n        /* \"#utility.yul\":11244:11251   */\n      dup4\n        /* \"#utility.yul\":11213:11252   */\n      tag_76\n      jump\t// in\n    tag_191:\n        /* \"#utility.yul\":11274:11365   */\n      tag_192\n        /* \"#utility.yul\":11323:11364   */\n      tag_193\n        /* \"#utility.yul\":11347:11363   */\n      dup3\n        /* \"#utility.yul\":11323:11364   */\n      tag_77\n      jump\t// in\n    tag_193:\n        /* \"#utility.yul\":11315:11321   */\n      dup5\n        /* \"#utility.yul\":11308:11312   */\n      dup5\n        /* \"#utility.yul\":11302:11313   */\n      sload\n        /* \"#utility.yul\":11274:11365   */\n      tag_74\n      jump\t// in\n    tag_192:\n        /* \"#utility.yul\":11268:11272   */\n      dup3\n        /* \"#utility.yul\":11261:11366   */\n      sstore\n        /* \"#utility.yul\":11179:11372   */\n      pop\n        /* \"#utility.yul\":11103:11372   */\n      pop\n      pop\n      pop\n      jump\t// out\n        /* \"#utility.yul\":11378:11451   */\n    tag_79:\n        /* \"#utility.yul\":11423:11426   */\n      0x00\n        /* \"#utility.yul\":11378:11451   */\n      swap1\n      jump\t// out\n        /* \"#utility.yul\":11457:11646   */\n    tag_80:\n        /* \"#utility.yul\":11534:11566   */\n      tag_196\n      tag_79\n      jump\t// in\n    tag_196:\n        /* \"#utility.yul\":11575:11640   */\n      tag_197\n        /* \"#utility.yul\":11633:11639   */\n      dup2\n        /* \"#utility.yul\":11625:11631   */\n      dup5\n        /* \"#utility.yul\":11619:11623   */\n      dup5\n        /* \"#utility.yul\":11575:11640   */\n      tag_78\n      jump\t// in\n    tag_197:\n        /* \"#utility.yul\":11510:11646   */\n      pop\n        /* \"#utility.yul\":11457:11646   */\n      pop\n      pop\n      jump\t// out\n        /* \"#utility.yul\":11652:11838   */\n    tag_81:\n        /* \"#utility.yul\":11712:11832   */\n    tag_199:\n        /* \"#utility.yul\":11729:11732   */\n      dup2\n        /* \"#utility.yul\":11722:11727   */\n      dup2\n        /* \"#utility.yul\":11719:11733   */\n      lt\n        /* \"#utility.yul\":11712:11832   */\n      iszero\n      tag_201\n      jumpi\n        /* \"#utility.yul\":11783:11822   */\n      tag_202\n        /* \"#utility.yul\":11820:11821   */\n      0x00\n        /* \"#utility.yul\":11813:11818   */\n      dup3\n        /* \"#utility.yul\":11783:11822   */\n      tag_80\n      jump\t// in\n    tag_202:\n        /* \"#utility.yul\":11756:11757   */\n      0x01\n        /* \"#utility.yul\":11749:11754   */\n      dup2\n        /* \"#utility.yul\":11745:11758   */\n      add\n        /* \"#utility.yul\":11736:11758   */\n      swap1\n      pop\n        /* \"#utility.yul\":11712:11832   */\n      jump(tag_199)\n    tag_201:\n        /* \"#utility.yul\":11652:11838   */\n      pop\n      pop\n      jump\t// out\n        /* \"#utility.yul\":11844:12387   */\n    tag_82:\n        /* \"#utility.yul\":11945:11947   */\n      0x1f\n        /* \"#utility.yul\":11940:11943   */\n      dup3\n        /* \"#utility.yul\":11937:11948   */\n      gt\n        /* \"#utility.yul\":11934:12380   */\n      iszero\n      tag_204\n      jumpi\n        /* \"#utility.yul\":11979:12017   */\n      tag_205\n        /* \"#utility.yul\":12011:12016   */\n      dup2\n        /* \"#utility.yul\":11979:12017   */\n      tag_71\n      jump\t// in\n    tag_205:\n        /* \"#utility.yul\":12063:12092   */\n      tag_206\n        /* \"#utility.yul\":12081:12091   */\n      dup5\n        /* \"#utility.yul\":12063:12092   */\n      tag_72\n      jump\t// in\n    tag_206:\n        /* \"#utility.yul\":12053:12061   */\n      dup2\n        /* \"#utility.yul\":12049:12093   */\n      add\n        /* \"#utility.yul\":12246:12248   */\n      0x20\n        /* \"#utility.yul\":12234:12244   */\n      dup6\n        /* \"#utility.yul\":12231:12249   */\n      lt\n        /* \"#utility.yul\":12228:12277   */\n      iszero\n      tag_207\n      jumpi\n        /* \"#utility.yul\":12267:12275   */\n      dup2\n        /* \"#utility.yul\":12252:12275   */\n      swap1\n      pop\n        /* \"#utility.yul\":12228:12277   */\n    tag_207:\n        /* \"#utility.yul\":12290:12370   */\n      tag_208\n        /* \"#utility.yul\":12346:12368   */\n      tag_209\n        /* \"#utility.yul\":12364:12367   */\n      dup6\n        /* \"#utility.yul\":12346:12368   */\n      tag_72\n      jump\t// in\n    tag_209:\n        /* \"#utility.yul\":12336:12344   */\n      dup4\n        /* \"#utility.yul\":12332:12369   */\n      add\n        /* \"#utility.yul\":12319:12330   */\n      dup3\n        /* \"#utility.yul\":12290:12370   */\n      tag_81\n      jump\t// in\n    tag_208:\n        /* \"#utility.yul\":11949:12380   */\n      pop\n      pop\n        /* \"#utility.yul\":11934:12380   */\n    tag_204:\n        /* \"#utility.yul\":11844:12387   */\n      pop\n      pop\n      pop\n      jump\t// out\n        /* \"#utility.yul\":12393:12510   */\n    tag_83:\n        /* \"#utility.yul\":12447:12455   */\n      0x00\n        /* \"#utility.yul\":12497:12502   */\n      dup3\n        /* \"#utility.yul\":12491:12495   */\n      dup3\n        /* \"#utility.yul\":12487:12503   */\n      shr\n        /* \"#utility.yul\":12466:12503   */\n      swap1\n      pop\n        /* \"#utility.yul\":12393:12510   */\n      swap3\n      swap2\n      pop\n      pop\n      jump\t// out\n        /* \"#utility.yul\":12516:12685   */\n    tag_84:\n        /* \"#utility.yul\":12560:12566   */\n      0x00\n        /* \"#utility.yul\":12593:12644   */\n      tag_212\n        /* \"#utility.yul\":12641:12642   */\n      0x00\n        /* \"#utility.yul\":12637:12643   */\n      not\n        /* \"#utility.yul\":12629:12634   */\n      dup5\n        /* \"#utility.yul\":12626:12627   */\n      0x08\n        /* \"#utility.yul\":12622:12635   */\n      mul\n        /* \"#utility.yul\":12593:12644   */\n      tag_83\n      jump\t// in\n    tag_212:\n        /* \"#utility.yul\":12589:12645   */\n      not\n        /* \"#utility.yul\":12674:12678   */\n      dup1\n        /* \"#utility.yul\":12668:12672   */\n      dup4\n        /* \"#utility.yul\":12664:12679   */\n      and\n        /* \"#utility.yul\":12654:12679   */\n      swap2\n      pop\n        /* \"#utility.yul\":12567:12685   */\n      pop\n        /* \"#utility.yul\":12516:12685   */\n      swap3\n      swap2\n      pop\n      pop\n      jump\t// out\n        /* \"#utility.yul\":12690:12985   */\n    tag_85:\n        /* \"#utility.yul\":12766:12770   */\n      0x00\n        /* \"#utility.yul\":12912:12941   */\n      tag_214\n        /* \"#utility.yul\":12937:12940   */\n      dup4\n        /* \"#utility.yul\":12931:12935   */\n      dup4\n        /* \"#utility.yul\":12912:12941   */\n      tag_84\n      jump\t// in\n    tag_214:\n        /* \"#utility.yul\":12904:12941   */\n      swap2\n      pop\n        /* \"#utility.yul\":12974:12977   */\n      dup3\n        /* \"#utility.yul\":12971:12972   */\n      0x02\n        /* \"#utility.yul\":12967:12978   */\n      mul\n        /* \"#utility.yul\":12961:12965   */\n      dup3\n        /* \"#utility.yul\":12958:12979   */\n      or\n        /* \"#utility.yul\":12950:12979   */\n      swap1\n      pop\n        /* \"#utility.yul\":12690:12985   */\n      swap3\n      swap2\n      pop\n      pop\n      jump\t// out\n        /* \"#utility.yul\":12990:14385   */\n    tag_21:\n        /* \"#utility.yul\":13107:13144   */\n      tag_216\n        /* \"#utility.yul\":13140:13143   */\n      dup3\n        /* \"#utility.yul\":13107:13144   */\n      tag_54\n      jump\t// in\n    tag_216:\n        /* \"#utility.yul\":13209:13227   */\n      0xffffffffffffffff\n        /* \"#utility.yul\":13201:13207   */\n      dup2\n        /* \"#utility.yul\":13198:13228   */\n      gt\n        /* \"#utility.yul\":13195:13251   */\n      iszero\n      tag_217\n      jumpi\n        /* \"#utility.yul\":13231:13249   */\n      tag_218\n      tag_44\n      jump\t// in\n    tag_218:\n        /* \"#utility.yul\":13195:13251   */\n    tag_217:\n        /* \"#utility.yul\":13275:13313   */\n      tag_219\n        /* \"#utility.yul\":13307:13311   */\n      dup3\n        /* \"#utility.yul\":13301:13312   */\n      sload\n        /* \"#utility.yul\":13275:13313   */\n      tag_28\n      jump\t// in\n    tag_219:\n        /* \"#utility.yul\":13360:13427   */\n      tag_220\n        /* \"#utility.yul\":13420:13426   */\n      dup3\n        /* \"#utility.yul\":13412:13418   */\n      dup3\n        /* \"#utility.yul\":13406:13410   */\n      dup6\n        /* \"#utility.yul\":13360:13427   */\n      tag_82\n      jump\t// in\n    tag_220:\n        /* \"#utility.yul\":13454:13455   */\n      0x00\n        /* \"#utility.yul\":13478:13482   */\n      0x20\n        /* \"#utility.yul\":13465:13482   */\n      swap1\n      pop\n        /* \"#utility.yul\":13510:13512   */\n      0x1f\n        /* \"#utility.yul\":13502:13508   */\n      dup4\n        /* \"#utility.yul\":13499:13513   */\n      gt\n        /* \"#utility.yul\":13527:13528   */\n      0x01\n        /* \"#utility.yul\":13522:14140   */\n      dup2\n      eq\n      tag_222\n      jumpi\n        /* \"#utility.yul\":14184:14185   */\n      0x00\n        /* \"#utility.yul\":14201:14207   */\n      dup5\n        /* \"#utility.yul\":14198:14275   */\n      iszero\n      tag_223\n      jumpi\n        /* \"#utility.yul\":14250:14259   */\n      dup3\n        /* \"#utility.yul\":14245:14248   */\n      dup8\n        /* \"#utility.yul\":14241:14260   */\n      add\n        /* \"#utility.yul\":14235:14261   */\n      mload\n        /* \"#utility.yul\":14226:14261   */\n      swap1\n      pop\n        /* \"#utility.yul\":14198:14275   */\n    tag_223:\n        /* \"#utility.yul\":14301:14368   */\n      tag_224\n        /* \"#utility.yul\":14361:14367   */\n      dup6\n        /* \"#utility.yul\":14354:14359   */\n      dup3\n        /* \"#utility.yul\":14301:14368   */\n      tag_85\n      jump\t// in\n    tag_224:\n        /* \"#utility.yul\":14295:14299   */\n      dup7\n        /* \"#utility.yul\":14288:14369   */\n      sstore\n        /* \"#utility.yul\":14157:14379   */\n      pop\n        /* \"#utility.yul\":13492:14379   */\n      jump(tag_221)\n        /* \"#utility.yul\":13522:14140   */\n    tag_222:\n        /* \"#utility.yul\":13574:13578   */\n      0x1f\n        /* \"#utility.yul\":13570:13579   */\n      not\n        /* \"#utility.yul\":13562:13568   */\n      dup5\n        /* \"#utility.yul\":13558:13580   */\n      and\n        /* \"#utility.yul\":13608:13645   */\n      tag_225\n        /* \"#utility.yul\":13640:13644   */\n      dup7\n        /* \"#utility.yul\":13608:13645   */\n      tag_71\n      jump\t// in\n    tag_225:\n        /* \"#utility.yul\":13667:13668   */\n      0x00\n        /* \"#utility.yul\":13681:13889   */\n    tag_226:\n        /* \"#utility.yul\":13695:13702   */\n      dup3\n        /* \"#utility.yul\":13692:13693   */\n      dup2\n        /* \"#utility.yul\":13689:13703   */\n      lt\n        /* \"#utility.yul\":13681:13889   */\n      iszero\n      tag_228\n      jumpi\n        /* \"#utility.yul\":13774:13783   */\n      dup5\n        /* \"#utility.yul\":13769:13772   */\n      dup10\n        /* \"#utility.yul\":13765:13784   */\n      add\n        /* \"#utility.yul\":13759:13785   */\n      mload\n        /* \"#utility.yul\":13751:13757   */\n      dup3\n        /* \"#utility.yul\":13744:13786   */\n      sstore\n        /* \"#utility.yul\":13825:13826   */\n      0x01\n        /* \"#utility.yul\":13817:13823   */\n      dup3\n        /* \"#utility.yul\":13813:13827   */\n      add\n        /* \"#utility.yul\":13803:13827   */\n      swap2\n      pop\n        /* \"#utility.yul\":13872:13874   */\n      0x20\n        /* \"#utility.yul\":13861:13870   */\n      dup6\n        /* \"#utility.yul\":13857:13875   */\n      add\n        /* \"#utility.yul\":13844:13875   */\n      swap5\n      pop\n        /* \"#utility.yul\":13718:13722   */\n      0x20\n        /* \"#utility.yul\":13715:13716   */\n      dup2\n        /* \"#utility.yul\":13711:13723   */\n      add\n        /* \"#utility.yul\":13706:13723   */\n      swap1\n      pop\n        /* \"#utility.yul\":13681:13889   */\n      jump(tag_226)\n    tag_228:\n        /* \"#utility.yul\":13917:13923   */\n      dup7\n        /* \"#utility.yul\":13908:13915   */\n      dup4\n        /* \"#utility.yul\":13905:13924   */\n      lt\n        /* \"#utility.yul\":13902:14081   */\n      iszero\n      tag_229\n      jumpi\n        /* \"#utility.yul\":13975:13984   */\n      dup5\n        /* \"#utility.yul\":13970:13973   */\n      dup10\n        /* \"#utility.yul\":13966:13985   */\n      add\n        /* \"#utility.yul\":13960:13986   */\n      mload\n        /* \"#utility.yul\":14018:14066   */\n      tag_230\n        /* \"#utility.yul\":14060:14064   */\n      0x1f\n        /* \"#utility.yul\":14052:14058   */\n      dup10\n        /* \"#utility.yul\":14048:14065   */\n      and\n        /* \"#utility.yul\":14037:14046   */\n      dup3\n        /* \"#utility.yul\":14018:14066   */\n      tag_84\n      jump\t// in\n    tag_230:\n        /* \"#utility.yul\":14010:14016   */\n      dup4\n        /* \"#utility.yul\":14003:14067   */\n      sstore\n        /* \"#utility.yul\":13925:14081   */\n      pop\n        /* \"#utility.yul\":13902:14081   */\n    tag_229:\n        /* \"#utility.yul\":14127:14128   */\n      0x01\n        /* \"#utility.yul\":14123:14124   */\n      0x02\n        /* \"#utility.yul\":14115:14121   */\n      dup9\n        /* \"#utility.yul\":14111:14125   */\n      mul\n        /* \"#utility.yul\":14107:14129   */\n      add\n        /* \"#utility.yul\":14101:14105   */\n      dup9\n        /* \"#utility.yul\":14094:14130   */\n      sstore\n        /* \"#utility.yul\":13529:14140   */\n      pop\n      pop\n      pop\n        /* \"#utility.yul\":13492:14379   */\n    tag_221:\n      pop\n        /* \"#utility.yul\":13082:14385   */\n      pop\n      pop\n      pop\n        /* \"#utility.yul\":12990:14385   */\n      pop\n      pop\n      jump\t// out\n\n    auxdata: 0xa264697066735822122013105dd66a349b80e25d357d62f4c0ca80dca0e840ce2bb2943bfa3536a62fdb64736f6c63430008120033\n}\n",
				"bytecode": {
					"linkReferences": {},
					"object": "608060405234801561001057600080fd5b5033600160006101000a81548173ffffffffffffffffffffffffffffffffffffffff021916908373ffffffffffffffffffffffffffffffffffffffff160217905550610b73806100616000396000f3fe6080604052600436106100295760003560e01c806337141c231461002e578063865c51721461004a575b600080fd5b61004860048036038101906100439190610543565b610075565b005b34801561005657600080fd5b5061005f610206565b60405161006c91906107c0565b60405180910390f35b600034116100b8576040517f08c379a00000000000000000000000000000000000000000000000000000000081526004016100af9061083f565b60405180910390fd5b600160009054906101000a900473ffffffffffffffffffffffffffffffffffffffff1673ffffffffffffffffffffffffffffffffffffffff166108fc349081150290604051600060405180830381858888f19350505050158015610120573d6000803e3d6000fd5b50600060405180608001604052808481526020018381526020014281526020013373ffffffffffffffffffffffffffffffffffffffff16815250908060018154018082558091505060019003906000526020600020906004020160009091909190915060008201518160000190816101989190610a6b565b5060208201518160010190816101ae9190610a6b565b506040820151816002015560608201518160030160006101000a81548173ffffffffffffffffffffffffffffffffffffffff021916908373ffffffffffffffffffffffffffffffffffffffff16021790555050505050565b60606000805480602002602001604051908101604052809291908181526020016000905b828210156103e0578382906000526020600020906004020160405180608001604052908160008201805461025d9061088e565b80601f01602080910402602001604051908101604052809291908181526020018280546102899061088e565b80156102d65780601f106102ab576101008083540402835291602001916102d6565b820191906000526020600020905b8154815290600101906020018083116102b957829003601f168201915b505050505081526020016001820180546102ef9061088e565b80601f016020809104026020016040519081016040528092919081815260200182805461031b9061088e565b80156103685780601f1061033d57610100808354040283529160200191610368565b820191906000526020600020905b81548152906001019060200180831161034b57829003601f168201915b50505050508152602001600282015481526020016003820160009054906101000a900473ffffffffffffffffffffffffffffffffffffffff1673ffffffffffffffffffffffffffffffffffffffff1673ffffffffffffffffffffffffffffffffffffffff16815250508152602001906001019061022a565b50505050905090565b6000604051905090565b600080fd5b600080fd5b600080fd5b600080fd5b6000601f19601f8301169050919050565b7f4e487b7100000000000000000000000000000000000000000000000000000000600052604160045260246000fd5b61045082610407565b810181811067ffffffffffffffff8211171561046f5761046e610418565b5b80604052505050565b60006104826103e9565b905061048e8282610447565b919050565b600067ffffffffffffffff8211156104ae576104ad610418565b5b6104b782610407565b9050602081019050919050565b82818337600083830152505050565b60006104e66104e184610493565b610478565b90508281526020810184848401111561050257610501610402565b5b61050d8482856104c4565b509392505050565b600082601f83011261052a576105296103fd565b5b813561053a8482602086016104d3565b91505092915050565b6000806040838503121561055a576105596103f3565b5b600083013567ffffffffffffffff811115610578576105776103f8565b5b61058485828601610515565b925050602083013567ffffffffffffffff8111156105a5576105a46103f8565b5b6105b185828601610515565b9150509250929050565b600081519050919050565b600082825260208201905092915050565b6000819050602082019050919050565b600081519050919050565b600082825260208201905092915050565b60005b83811015610621578082015181840152602081019050610606565b60008484015250505050565b6000610638826105e7565b61064281856105f2565b9350610652818560208601610603565b61065b81610407565b840191505092915050565b6000819050919050565b61067981610666565b82525050565b600073ffffffffffffffffffffffffffffffffffffffff82169050919050565b60006106aa8261067f565b9050919050565b6106ba8161069f565b82525050565b600060808301600083015184820360008601526106dd828261062d565b915050602083015184820360208601526106f7828261062d565b915050604083015161070c6040860182610670565b50606083015161071f60608601826106b1565b508091505092915050565b600061073683836106c0565b905092915050565b6000602082019050919050565b6000610756826105bb565b61076081856105c6565b935083602082028501610772856105d7565b8060005b858110156107ae578484038952815161078f858261072a565b945061079a8361073e565b925060208a01995050600181019050610776565b50829750879550505050505092915050565b600060208201905081810360008301526107da818461074b565b905092915050565b600082825260208201905092915050565b7f506c65617365207061792067726561746572207468616e203020657468657200600082015250565b6000610829601f836107e2565b9150610834826107f3565b602082019050919050565b600060208201905081810360008301526108588161081c565b9050919050565b7f4e487b7100000000000000000000000000000000000000000000000000000000600052602260045260246000fd5b600060028204905060018216806108a657607f821691505b6020821081036108b9576108b861085f565b5b50919050565b60008190508160005260206000209050919050565b60006020601f8301049050919050565b600082821b905092915050565b6000600883026109217fffffffffffffffffffffffffffffffffffffffffffffffffffffffffffffffff826108e4565b61092b86836108e4565b95508019841693508086168417925050509392505050565b6000819050919050565b600061096861096361095e84610666565b610943565b610666565b9050919050565b6000819050919050565b6109828361094d565b61099661098e8261096f565b8484546108f1565b825550505050565b600090565b6109ab61099e565b6109b6818484610979565b505050565b5b818110156109da576109cf6000826109a3565b6001810190506109bc565b5050565b601f821115610a1f576109f0816108bf565b6109f9846108d4565b81016020851015610a08578190505b610a1c610a14856108d4565b8301826109bb565b50505b505050565b600082821c905092915050565b6000610a4260001984600802610a24565b1980831691505092915050565b6000610a5b8383610a31565b9150826002028217905092915050565b610a74826105e7565b67ffffffffffffffff811115610a8d57610a8c610418565b5b610a97825461088e565b610aa28282856109de565b600060209050601f831160018114610ad55760008415610ac3578287015190505b610acd8582610a4f565b865550610b35565b601f198416610ae3866108bf565b60005b82811015610b0b57848901518255600182019150602085019450602081019050610ae6565b86831015610b285784890151610b24601f891682610a31565b8355505b6001600288020188555050505b50505050505056fea264697066735822122013105dd66a349b80e25d357d62f4c0ca80dca0e840ce2bb2943bfa3536a62fdb64736f6c63430008120033",
					"opcodes": "PUSH1 0x80 PUSH1 0x40 MSTORE CALLVALUE DUP1 ISZERO PUSH2 0x10 JUMPI PUSH1 0x0 DUP1 REVERT JUMPDEST POP CALLER PUSH1 0x1 PUSH1 0x0 PUSH2 0x100 EXP DUP2 SLOAD DUP2 PUSH20 0xFFFFFFFFFFFFFFFFFFFFFFFFFFFFFFFFFFFFFFFF MUL NOT AND SWAP1 DUP4 PUSH20 0xFFFFFFFFFFFFFFFFFFFFFFFFFFFFFFFFFFFFFFFF AND MUL OR SWAP1 SSTORE POP PUSH2 0xB73 DUP1 PUSH2 0x61 PUSH1 0x0 CODECOPY PUSH1 0x0 RETURN INVALID PUSH1 0x80 PUSH1 0x40 MSTORE PUSH1 0x4 CALLDATASIZE LT PUSH2 0x29 JUMPI PUSH1 0x0 CALLDATALOAD PUSH1 0xE0 SHR DUP1 PUSH4 0x37141C23 EQ PUSH2 0x2E JUMPI DUP1 PUSH4 0x865C5172 EQ PUSH2 0x4A JUMPI JUMPDEST PUSH1 0x0 DUP1 REVERT JUMPDEST PUSH2 0x48 PUSH1 0x4 DUP1 CALLDATASIZE SUB DUP2 ADD SWAP1 PUSH2 0x43 SWAP2 SWAP1 PUSH2 0x543 JUMP JUMPDEST PUSH2 0x75 JUMP JUMPDEST STOP JUMPDEST CALLVALUE DUP1 ISZERO PUSH2 0x56 JUMPI PUSH1 0x0 DUP1 REVERT JUMPDEST POP PUSH2 0x5F PUSH2 0x206 JUMP JUMPDEST PUSH1 0x40 MLOAD PUSH2 0x6C SWAP2 SWAP1 PUSH2 0x7C0 JUMP JUMPDEST PUSH1 0x40 MLOAD DUP1 SWAP2 SUB SWAP1 RETURN JUMPDEST PUSH1 0x0 CALLVALUE GT PUSH2 0xB8 JUMPI PUSH1 0x40 MLOAD PUSH32 0x8C379A000000000000000000000000000000000000000000000000000000000 DUP2 MSTORE PUSH1 0x4 ADD PUSH2 0xAF SWAP1 PUSH2 0x83F JUMP JUMPDEST PUSH1 0x40 MLOAD DUP1 SWAP2 SUB SWAP1 REVERT JUMPDEST PUSH1 0x1 PUSH1 0x0 SWAP1 SLOAD SWAP1 PUSH2 0x100 EXP SWAP1 DIV PUSH20 0xFFFFFFFFFFFFFFFFFFFFFFFFFFFFFFFFFFFFFFFF AND PUSH20 0xFFFFFFFFFFFFFFFFFFFFFFFFFFFFFFFFFFFFFFFF AND PUSH2 0x8FC CALLVALUE SWAP1 DUP2 ISZERO MUL SWAP1 PUSH1 0x40 MLOAD PUSH1 0x0 PUSH1 0x40 MLOAD DUP1 DUP4 SUB DUP2 DUP6 DUP9 DUP9 CALL SWAP4 POP POP POP POP ISZERO DUP1 ISZERO PUSH2 0x120 JUMPI RETURNDATASIZE PUSH1 0x0 DUP1 RETURNDATACOPY RETURNDATASIZE PUSH1 0x0 REVERT JUMPDEST POP PUSH1 0x0 PUSH1 0x40 MLOAD DUP1 PUSH1 0x80 ADD PUSH1 0x40 MSTORE DUP1 DUP5 DUP2 MSTORE PUSH1 0x20 ADD DUP4 DUP2 MSTORE PUSH1 0x20 ADD TIMESTAMP DUP2 MSTORE PUSH1 0x20 ADD CALLER PUSH20 0xFFFFFFFFFFFFFFFFFFFFFFFFFFFFFFFFFFFFFFFF AND DUP2 MSTORE POP SWAP1 DUP1 PUSH1 0x1 DUP2 SLOAD ADD DUP1 DUP3 SSTORE DUP1 SWAP2 POP POP PUSH1 0x1 SWAP1 SUB SWAP1 PUSH1 0x0 MSTORE PUSH1 0x20 PUSH1 0x0 KECCAK256 SWAP1 PUSH1 0x4 MUL ADD PUSH1 0x0 SWAP1 SWAP2 SWAP1 SWAP2 SWAP1 SWAP2 POP PUSH1 0x0 DUP3 ADD MLOAD DUP2 PUSH1 0x0 ADD SWAP1 DUP2 PUSH2 0x198 SWAP2 SWAP1 PUSH2 0xA6B JUMP JUMPDEST POP PUSH1 0x20 DUP3 ADD MLOAD DUP2 PUSH1 0x1 ADD SWAP1 DUP2 PUSH2 0x1AE SWAP2 SWAP1 PUSH2 0xA6B JUMP JUMPDEST POP PUSH1 0x40 DUP3 ADD MLOAD DUP2 PUSH1 0x2 ADD SSTORE PUSH1 0x60 DUP3 ADD MLOAD DUP2 PUSH1 0x3 ADD PUSH1 0x0 PUSH2 0x100 EXP DUP2 SLOAD DUP2 PUSH20 0xFFFFFFFFFFFFFFFFFFFFFFFFFFFFFFFFFFFFFFFF MUL NOT AND SWAP1 DUP4 PUSH20 0xFFFFFFFFFFFFFFFFFFFFFFFFFFFFFFFFFFFFFFFF AND MUL OR SWAP1 SSTORE POP POP POP POP POP JUMP JUMPDEST PUSH1 0x60 PUSH1 0x0 DUP1 SLOAD DUP1 PUSH1 0x20 MUL PUSH1 0x20 ADD PUSH1 0x40 MLOAD SWAP1 DUP2 ADD PUSH1 0x40 MSTORE DUP1 SWAP3 SWAP2 SWAP1 DUP2 DUP2 MSTORE PUSH1 0x20 ADD PUSH1 0x0 SWAP1 JUMPDEST DUP3 DUP3 LT ISZERO PUSH2 0x3E0 JUMPI DUP4 DUP3 SWAP1 PUSH1 0x0 MSTORE PUSH1 0x20 PUSH1 0x0 KECCAK256 SWAP1 PUSH1 0x4 MUL ADD PUSH1 0x40 MLOAD DUP1 PUSH1 0x80 ADD PUSH1 0x40 MSTORE SWAP1 DUP2 PUSH1 0x0 DUP3 ADD DUP1 SLOAD PUSH2 0x25D SWAP1 PUSH2 0x88E JUMP JUMPDEST DUP1 PUSH1 0x1F ADD PUSH1 0x20 DUP1 SWAP2 DIV MUL PUSH1 0x20 ADD PUSH1 0x40 MLOAD SWAP1 DUP2 ADD PUSH1 0x40 MSTORE DUP1 SWAP3 SWAP2 SWAP1 DUP2 DUP2 MSTORE PUSH1 0x20 ADD DUP3 DUP1 SLOAD PUSH2 0x289 SWAP1 PUSH2 0x88E JUMP JUMPDEST DUP1 ISZERO PUSH2 0x2D6 JUMPI DUP1 PUSH1 0x1F LT PUSH2 0x2AB JUMPI PUSH2 0x100 DUP1 DUP4 SLOAD DIV MUL DUP4 MSTORE SWAP2 PUSH1 0x20 ADD SWAP2 PUSH2 0x2D6 JUMP JUMPDEST DUP3 ADD SWAP2 SWAP1 PUSH1 0x0 MSTORE PUSH1 0x20 PUSH1 0x0 KECCAK256 SWAP1 JUMPDEST DUP2 SLOAD DUP2 MSTORE SWAP1 PUSH1 0x1 ADD SWAP1 PUSH1 0x20 ADD DUP1 DUP4 GT PUSH2 0x2B9 JUMPI DUP3 SWAP1 SUB PUSH1 0x1F AND DUP3 ADD SWAP2 JUMPDEST POP POP POP POP POP DUP2 MSTORE PUSH1 0x20 ADD PUSH1 0x1 DUP3 ADD DUP1 SLOAD PUSH2 0x2EF SWAP1 PUSH2 0x88E JUMP JUMPDEST DUP1 PUSH1 0x1F ADD PUSH1 0x20 DUP1 SWAP2 DIV MUL PUSH1 0x20 ADD PUSH1 0x40 MLOAD SWAP1 DUP2 ADD PUSH1 0x40 MSTORE DUP1 SWAP3 SWAP2 SWAP1 DUP2 DUP2 MSTORE PUSH1 0x20 ADD DUP3 DUP1 SLOAD PUSH2 0x31B SWAP1 PUSH2 0x88E JUMP JUMPDEST DUP1 ISZERO PUSH2 0x368 JUMPI DUP1 PUSH1 0x1F LT PUSH2 0x33D JUMPI PUSH2 0x100 DUP1 DUP4 SLOAD DIV MUL DUP4 MSTORE SWAP2 PUSH1 0x20 ADD SWAP2 PUSH2 0x368 JUMP JUMPDEST DUP3 ADD SWAP2 SWAP1 PUSH1 0x0 MSTORE PUSH1 0x20 PUSH1 0x0 KECCAK256 SWAP1 JUMPDEST DUP2 SLOAD DUP2 MSTORE SWAP1 PUSH1 0x1 ADD SWAP1 PUSH1 0x20 ADD DUP1 DUP4 GT PUSH2 0x34B JUMPI DUP3 SWAP1 SUB PUSH1 0x1F AND DUP3 ADD SWAP2 JUMPDEST POP POP POP POP POP DUP2 MSTORE PUSH1 0x20 ADD PUSH1 0x2 DUP3 ADD SLOAD DUP2 MSTORE PUSH1 0x20 ADD PUSH1 0x3 DUP3 ADD PUSH1 0x0 SWAP1 SLOAD SWAP1 PUSH2 0x100 EXP SWAP1 DIV PUSH20 0xFFFFFFFFFFFFFFFFFFFFFFFFFFFFFFFFFFFFFFFF AND PUSH20 0xFFFFFFFFFFFFFFFFFFFFFFFFFFFFFFFFFFFFFFFF AND PUSH20 0xFFFFFFFFFFFFFFFFFFFFFFFFFFFFFFFFFFFFFFFF AND DUP2 MSTORE POP POP DUP2 MSTORE PUSH1 0x20 ADD SWAP1 PUSH1 0x1 ADD SWAP1 PUSH2 0x22A JUMP JUMPDEST POP POP POP POP SWAP1 POP SWAP1 JUMP JUMPDEST PUSH1 0x0 PUSH1 0x40 MLOAD SWAP1 POP SWAP1 JUMP JUMPDEST PUSH1 0x0 DUP1 REVERT JUMPDEST PUSH1 0x0 DUP1 REVERT JUMPDEST PUSH1 0x0 DUP1 REVERT JUMPDEST PUSH1 0x0 DUP1 REVERT JUMPDEST PUSH1 0x0 PUSH1 0x1F NOT PUSH1 0x1F DUP4 ADD AND SWAP1 POP SWAP2 SWAP1 POP JUMP JUMPDEST PUSH32 0x4E487B7100000000000000000000000000000000000000000000000000000000 PUSH1 0x0 MSTORE PUSH1 0x41 PUSH1 0x4 MSTORE PUSH1 0x24 PUSH1 0x0 REVERT JUMPDEST PUSH2 0x450 DUP3 PUSH2 0x407 JUMP JUMPDEST DUP2 ADD DUP2 DUP2 LT PUSH8 0xFFFFFFFFFFFFFFFF DUP3 GT OR ISZERO PUSH2 0x46F JUMPI PUSH2 0x46E PUSH2 0x418 JUMP JUMPDEST JUMPDEST DUP1 PUSH1 0x40 MSTORE POP POP POP JUMP JUMPDEST PUSH1 0x0 PUSH2 0x482 PUSH2 0x3E9 JUMP JUMPDEST SWAP1 POP PUSH2 0x48E DUP3 DUP3 PUSH2 0x447 JUMP JUMPDEST SWAP2 SWAP1 POP JUMP JUMPDEST PUSH1 0x0 PUSH8 0xFFFFFFFFFFFFFFFF DUP3 GT ISZERO PUSH2 0x4AE JUMPI PUSH2 0x4AD PUSH2 0x418 JUMP JUMPDEST JUMPDEST PUSH2 0x4B7 DUP3 PUSH2 0x407 JUMP JUMPDEST SWAP1 POP PUSH1 0x20 DUP2 ADD SWAP1 POP SWAP2 SWAP1 POP JUMP JUMPDEST DUP3 DUP2 DUP4 CALLDATACOPY PUSH1 0x0 DUP4 DUP4 ADD MSTORE POP POP POP JUMP JUMPDEST PUSH1 0x0 PUSH2 0x4E6 PUSH2 0x4E1 DUP5 PUSH2 0x493 JUMP JUMPDEST PUSH2 0x478 JUMP JUMPDEST SWAP1 POP DUP3 DUP2 MSTORE PUSH1 0x20 DUP2 ADD DUP5 DUP5 DUP5 ADD GT ISZERO PUSH2 0x502 JUMPI PUSH2 0x501 PUSH2 0x402 JUMP JUMPDEST JUMPDEST PUSH2 0x50D DUP5 DUP3 DUP6 PUSH2 0x4C4 JUMP JUMPDEST POP SWAP4 SWAP3 POP POP POP JUMP JUMPDEST PUSH1 0x0 DUP3 PUSH1 0x1F DUP4 ADD SLT PUSH2 0x52A JUMPI PUSH2 0x529 PUSH2 0x3FD JUMP JUMPDEST JUMPDEST DUP2 CALLDATALOAD PUSH2 0x53A DUP5 DUP3 PUSH1 0x20 DUP7 ADD PUSH2 0x4D3 JUMP JUMPDEST SWAP2 POP POP SWAP3 SWAP2 POP POP JUMP JUMPDEST PUSH1 0x0 DUP1 PUSH1 0x40 DUP4 DUP6 SUB SLT ISZERO PUSH2 0x55A JUMPI PUSH2 0x559 PUSH2 0x3F3 JUMP JUMPDEST JUMPDEST PUSH1 0x0 DUP4 ADD CALLDATALOAD PUSH8 0xFFFFFFFFFFFFFFFF DUP2 GT ISZERO PUSH2 0x578 JUMPI PUSH2 0x577 PUSH2 0x3F8 JUMP JUMPDEST JUMPDEST PUSH2 0x584 DUP6 DUP3 DUP7 ADD PUSH2 0x515 JUMP JUMPDEST SWAP3 POP POP PUSH1 0x20 DUP4 ADD CALLDATALOAD PUSH8 0xFFFFFFFFFFFFFFFF DUP2 GT ISZERO PUSH2 0x5A5 JUMPI PUSH2 0x5A4 PUSH2 0x3F8 JUMP JUMPDEST JUMPDEST PUSH2 0x5B1 DUP6 DUP3 DUP7 ADD PUSH2 0x515 JUMP JUMPDEST SWAP2 POP POP SWAP3 POP SWAP3 SWAP1 POP JUMP JUMPDEST PUSH1 0x0 DUP2 MLOAD SWAP1 POP SWAP2 SWAP1 POP JUMP JUMPDEST PUSH1 0x0 DUP3 DUP3 MSTORE PUSH1 0x20 DUP3 ADD SWAP1 POP SWAP3 SWAP2 POP POP JUMP JUMPDEST PUSH1 0x0 DUP2 SWAP1 POP PUSH1 0x20 DUP3 ADD SWAP1 POP SWAP2 SWAP1 POP JUMP JUMPDEST PUSH1 0x0 DUP2 MLOAD SWAP1 POP SWAP2 SWAP1 POP JUMP JUMPDEST PUSH1 0x0 DUP3 DUP3 MSTORE PUSH1 0x20 DUP3 ADD SWAP1 POP SWAP3 SWAP2 POP POP JUMP JUMPDEST PUSH1 0x0 JUMPDEST DUP4 DUP2 LT ISZERO PUSH2 0x621 JUMPI DUP1 DUP3 ADD MLOAD DUP2 DUP5 ADD MSTORE PUSH1 0x20 DUP2 ADD SWAP1 POP PUSH2 0x606 JUMP JUMPDEST PUSH1 0x0 DUP5 DUP5 ADD MSTORE POP POP POP POP JUMP JUMPDEST PUSH1 0x0 PUSH2 0x638 DUP3 PUSH2 0x5E7 JUMP JUMPDEST PUSH2 0x642 DUP2 DUP6 PUSH2 0x5F2 JUMP JUMPDEST SWAP4 POP PUSH2 0x652 DUP2 DUP6 PUSH1 0x20 DUP7 ADD PUSH2 0x603 JUMP JUMPDEST PUSH2 0x65B DUP2 PUSH2 0x407 JUMP JUMPDEST DUP5 ADD SWAP2 POP POP SWAP3 SWAP2 POP POP JUMP JUMPDEST PUSH1 0x0 DUP2 SWAP1 POP SWAP2 SWAP1 POP JUMP JUMPDEST PUSH2 0x679 DUP2 PUSH2 0x666 JUMP JUMPDEST DUP3 MSTORE POP POP JUMP JUMPDEST PUSH1 0x0 PUSH20 0xFFFFFFFFFFFFFFFFFFFFFFFFFFFFFFFFFFFFFFFF DUP3 AND SWAP1 POP SWAP2 SWAP1 POP JUMP JUMPDEST PUSH1 0x0 PUSH2 0x6AA DUP3 PUSH2 0x67F JUMP JUMPDEST SWAP1 POP SWAP2 SWAP1 POP JUMP JUMPDEST PUSH2 0x6BA DUP2 PUSH2 0x69F JUMP JUMPDEST DUP3 MSTORE POP POP JUMP JUMPDEST PUSH1 0x0 PUSH1 0x80 DUP4 ADD PUSH1 0x0 DUP4 ADD MLOAD DUP5 DUP3 SUB PUSH1 0x0 DUP7 ADD MSTORE PUSH2 0x6DD DUP3 DUP3 PUSH2 0x62D JUMP JUMPDEST SWAP2 POP POP PUSH1 0x20 DUP4 ADD MLOAD DUP5 DUP3 SUB PUSH1 0x20 DUP7 ADD MSTORE PUSH2 0x6F7 DUP3 DUP3 PUSH2 0x62D JUMP JUMPDEST SWAP2 POP POP PUSH1 0x40 DUP4 ADD MLOAD PUSH2 0x70C PUSH1 0x40 DUP7 ADD DUP3 PUSH2 0x670 JUMP JUMPDEST POP PUSH1 0x60 DUP4 ADD MLOAD PUSH2 0x71F PUSH1 0x60 DUP7 ADD DUP3 PUSH2 0x6B1 JUMP JUMPDEST POP DUP1 SWAP2 POP POP SWAP3 SWAP2 POP POP JUMP JUMPDEST PUSH1 0x0 PUSH2 0x736 DUP4 DUP4 PUSH2 0x6C0 JUMP JUMPDEST SWAP1 POP SWAP3 SWAP2 POP POP JUMP JUMPDEST PUSH1 0x0 PUSH1 0x20 DUP3 ADD SWAP1 POP SWAP2 SWAP1 POP JUMP JUMPDEST PUSH1 0x0 PUSH2 0x756 DUP3 PUSH2 0x5BB JUMP JUMPDEST PUSH2 0x760 DUP2 DUP6 PUSH2 0x5C6 JUMP JUMPDEST SWAP4 POP DUP4 PUSH1 0x20 DUP3 MUL DUP6 ADD PUSH2 0x772 DUP6 PUSH2 0x5D7 JUMP JUMPDEST DUP1 PUSH1 0x0 JUMPDEST DUP6 DUP2 LT ISZERO PUSH2 0x7AE JUMPI DUP5 DUP5 SUB DUP10 MSTORE DUP2 MLOAD PUSH2 0x78F DUP6 DUP3 PUSH2 0x72A JUMP JUMPDEST SWAP5 POP PUSH2 0x79A DUP4 PUSH2 0x73E JUMP JUMPDEST SWAP3 POP PUSH1 0x20 DUP11 ADD SWAP10 POP POP PUSH1 0x1 DUP2 ADD SWAP1 POP PUSH2 0x776 JUMP JUMPDEST POP DUP3 SWAP8 POP DUP8 SWAP6 POP POP POP POP POP POP SWAP3 SWAP2 POP POP JUMP JUMPDEST PUSH1 0x0 PUSH1 0x20 DUP3 ADD SWAP1 POP DUP2 DUP2 SUB PUSH1 0x0 DUP4 ADD MSTORE PUSH2 0x7DA DUP2 DUP5 PUSH2 0x74B JUMP JUMPDEST SWAP1 POP SWAP3 SWAP2 POP POP JUMP JUMPDEST PUSH1 0x0 DUP3 DUP3 MSTORE PUSH1 0x20 DUP3 ADD SWAP1 POP SWAP3 SWAP2 POP POP JUMP JUMPDEST PUSH32 0x506C65617365207061792067726561746572207468616E203020657468657200 PUSH1 0x0 DUP3 ADD MSTORE POP JUMP JUMPDEST PUSH1 0x0 PUSH2 0x829 PUSH1 0x1F DUP4 PUSH2 0x7E2 JUMP JUMPDEST SWAP2 POP PUSH2 0x834 DUP3 PUSH2 0x7F3 JUMP JUMPDEST PUSH1 0x20 DUP3 ADD SWAP1 POP SWAP2 SWAP1 POP JUMP JUMPDEST PUSH1 0x0 PUSH1 0x20 DUP3 ADD SWAP1 POP DUP2 DUP2 SUB PUSH1 0x0 DUP4 ADD MSTORE PUSH2 0x858 DUP2 PUSH2 0x81C JUMP JUMPDEST SWAP1 POP SWAP2 SWAP1 POP JUMP JUMPDEST PUSH32 0x4E487B7100000000000000000000000000000000000000000000000000000000 PUSH1 0x0 MSTORE PUSH1 0x22 PUSH1 0x4 MSTORE PUSH1 0x24 PUSH1 0x0 REVERT JUMPDEST PUSH1 0x0 PUSH1 0x2 DUP3 DIV SWAP1 POP PUSH1 0x1 DUP3 AND DUP1 PUSH2 0x8A6 JUMPI PUSH1 0x7F DUP3 AND SWAP2 POP JUMPDEST PUSH1 0x20 DUP3 LT DUP2 SUB PUSH2 0x8B9 JUMPI PUSH2 0x8B8 PUSH2 0x85F JUMP JUMPDEST JUMPDEST POP SWAP2 SWAP1 POP JUMP JUMPDEST PUSH1 0x0 DUP2 SWAP1 POP DUP2 PUSH1 0x0 MSTORE PUSH1 0x20 PUSH1 0x0 KECCAK256 SWAP1 POP SWAP2 SWAP1 POP JUMP JUMPDEST PUSH1 0x0 PUSH1 0x20 PUSH1 0x1F DUP4 ADD DIV SWAP1 POP SWAP2 SWAP1 POP JUMP JUMPDEST PUSH1 0x0 DUP3 DUP3 SHL SWAP1 POP SWAP3 SWAP2 POP POP JUMP JUMPDEST PUSH1 0x0 PUSH1 0x8 DUP4 MUL PUSH2 0x921 PUSH32 0xFFFFFFFFFFFFFFFFFFFFFFFFFFFFFFFFFFFFFFFFFFFFFFFFFFFFFFFFFFFFFFFF DUP3 PUSH2 0x8E4 JUMP JUMPDEST PUSH2 0x92B DUP7 DUP4 PUSH2 0x8E4 JUMP JUMPDEST SWAP6 POP DUP1 NOT DUP5 AND SWAP4 POP DUP1 DUP7 AND DUP5 OR SWAP3 POP POP POP SWAP4 SWAP3 POP POP POP JUMP JUMPDEST PUSH1 0x0 DUP2 SWAP1 POP SWAP2 SWAP1 POP JUMP JUMPDEST PUSH1 0x0 PUSH2 0x968 PUSH2 0x963 PUSH2 0x95E DUP5 PUSH2 0x666 JUMP JUMPDEST PUSH2 0x943 JUMP JUMPDEST PUSH2 0x666 JUMP JUMPDEST SWAP1 POP SWAP2 SWAP1 POP JUMP JUMPDEST PUSH1 0x0 DUP2 SWAP1 POP SWAP2 SWAP1 POP JUMP JUMPDEST PUSH2 0x982 DUP4 PUSH2 0x94D JUMP JUMPDEST PUSH2 0x996 PUSH2 0x98E DUP3 PUSH2 0x96F JUMP JUMPDEST DUP5 DUP5 SLOAD PUSH2 0x8F1 JUMP JUMPDEST DUP3 SSTORE POP POP POP POP JUMP JUMPDEST PUSH1 0x0 SWAP1 JUMP JUMPDEST PUSH2 0x9AB PUSH2 0x99E JUMP JUMPDEST PUSH2 0x9B6 DUP2 DUP5 DUP5 PUSH2 0x979 JUMP JUMPDEST POP POP POP JUMP JUMPDEST JUMPDEST DUP2 DUP2 LT ISZERO PUSH2 0x9DA JUMPI PUSH2 0x9CF PUSH1 0x0 DUP3 PUSH2 0x9A3 JUMP JUMPDEST PUSH1 0x1 DUP2 ADD SWAP1 POP PUSH2 0x9BC JUMP JUMPDEST POP POP JUMP JUMPDEST PUSH1 0x1F DUP3 GT ISZERO PUSH2 0xA1F JUMPI PUSH2 0x9F0 DUP2 PUSH2 0x8BF JUMP JUMPDEST PUSH2 0x9F9 DUP5 PUSH2 0x8D4 JUMP JUMPDEST DUP2 ADD PUSH1 0x20 DUP6 LT ISZERO PUSH2 0xA08 JUMPI DUP2 SWAP1 POP JUMPDEST PUSH2 0xA1C PUSH2 0xA14 DUP6 PUSH2 0x8D4 JUMP JUMPDEST DUP4 ADD DUP3 PUSH2 0x9BB JUMP JUMPDEST POP POP JUMPDEST POP POP POP JUMP JUMPDEST PUSH1 0x0 DUP3 DUP3 SHR SWAP1 POP SWAP3 SWAP2 POP POP JUMP JUMPDEST PUSH1 0x0 PUSH2 0xA42 PUSH1 0x0 NOT DUP5 PUSH1 0x8 MUL PUSH2 0xA24 JUMP JUMPDEST NOT DUP1 DUP4 AND SWAP2 POP POP SWAP3 SWAP2 POP POP JUMP JUMPDEST PUSH1 0x0 PUSH2 0xA5B DUP4 DUP4 PUSH2 0xA31 JUMP JUMPDEST SWAP2 POP DUP3 PUSH1 0x2 MUL DUP3 OR SWAP1 POP SWAP3 SWAP2 POP POP JUMP JUMPDEST PUSH2 0xA74 DUP3 PUSH2 0x5E7 JUMP JUMPDEST PUSH8 0xFFFFFFFFFFFFFFFF DUP2 GT ISZERO PUSH2 0xA8D JUMPI PUSH2 0xA8C PUSH2 0x418 JUMP JUMPDEST JUMPDEST PUSH2 0xA97 DUP3 SLOAD PUSH2 0x88E JUMP JUMPDEST PUSH2 0xAA2 DUP3 DUP3 DUP6 PUSH2 0x9DE JUMP JUMPDEST PUSH1 0x0 PUSH1 0x20 SWAP1 POP PUSH1 0x1F DUP4 GT PUSH1 0x1 DUP2 EQ PUSH2 0xAD5 JUMPI PUSH1 0x0 DUP5 ISZERO PUSH2 0xAC3 JUMPI DUP3 DUP8 ADD MLOAD SWAP1 POP JUMPDEST PUSH2 0xACD DUP6 DUP3 PUSH2 0xA4F JUMP JUMPDEST DUP7 SSTORE POP PUSH2 0xB35 JUMP JUMPDEST PUSH1 0x1F NOT DUP5 AND PUSH2 0xAE3 DUP7 PUSH2 0x8BF JUMP JUMPDEST PUSH1 0x0 JUMPDEST DUP3 DUP2 LT ISZERO PUSH2 0xB0B JUMPI DUP5 DUP10 ADD MLOAD DUP3 SSTORE PUSH1 0x1 DUP3 ADD SWAP2 POP PUSH1 0x20 DUP6 ADD SWAP5 POP PUSH1 0x20 DUP2 ADD SWAP1 POP PUSH2 0xAE6 JUMP JUMPDEST DUP7 DUP4 LT ISZERO PUSH2 0xB28 JUMPI DUP5 DUP10 ADD MLOAD PUSH2 0xB24 PUSH1 0x1F DUP10 AND DUP3 PUSH2 0xA31 JUMP JUMPDEST DUP4 SSTORE POP JUMPDEST PUSH1 0x1 PUSH1 0x2 DUP9 MUL ADD DUP9 SSTORE POP POP POP JUMPDEST POP POP POP POP POP POP JUMP INVALID LOG2 PUSH5 0x6970667358 0x22 SLT KECCAK256 SGT LT 0x5D 0xD6 PUSH11 0x349B80E25D357D62F4C0CA DUP1 0xDC LOG0 0xE8 BLOCKHASH 0xCE 0x2B 0xB2 SWAP5 EXTCODESIZE STATICCALL CALLDATALOAD CALLDATASIZE 0xA6 0x2F 0xDB PUSH5 0x736F6C6343 STOP ADDMOD SLT STOP CALLER "
				},
				"gasEstimates": {
					"creation": {
						"codeDepositCost": "586200",
						"executionCost": "24885",
						"totalCost": "611085"
					},
					"external": {
						"buyChocolates(string,string)": "infinite",
						"getMemos()": "infinite"
					}
				},
				"methodIdentifiers": {
					"buyChocolates(string,string)": "37141c23",
					"getMemos()": "865c5172"
				}
			},
			"storageLayout": {
				"storage": [
					{
						"astId": 14,
						"contract": "contracts/Chocolate.sol:Chocolate",
						"label": "memos",
						"offset": 0,
						"slot": "0",
						"type": "t_array(t_struct(Memo)10_storage)dyn_storage"
					},
					{
						"astId": 16,
						"contract": "contracts/Chocolate.sol:Chocolate",
						"label": "owner",
						"offset": 0,
						"slot": "1",
						"type": "t_address_payable"
					}
				],
				"types": {
					"t_address": {
						"encoding": "inplace",
						"label": "address",
						"numberOfBytes": "20"
					},
					"t_address_payable": {
						"encoding": "inplace",
						"label": "address payable",
						"numberOfBytes": "20"
					},
					"t_array(t_struct(Memo)10_storage)dyn_storage": {
						"base": "t_struct(Memo)10_storage",
						"encoding": "dynamic_array",
						"label": "struct Chocolate.Memo[]",
						"numberOfBytes": "32"
					},
					"t_string_storage": {
						"encoding": "bytes",
						"label": "string",
						"numberOfBytes": "32"
					},
					"t_struct(Memo)10_storage": {
						"encoding": "inplace",
						"label": "struct Chocolate.Memo",
						"members": [
							{
								"astId": 3,
								"contract": "contracts/Chocolate.sol:Chocolate",
								"label": "name",
								"offset": 0,
								"slot": "0",
								"type": "t_string_storage"
							},
							{
								"astId": 5,
								"contract": "contracts/Chocolate.sol:Chocolate",
								"label": "message",
								"offset": 0,
								"slot": "1",
								"type": "t_string_storage"
							},
							{
								"astId": 7,
								"contract": "contracts/Chocolate.sol:Chocolate",
								"label": "timestamp",
								"offset": 0,
								"slot": "2",
								"type": "t_uint256"
							},
							{
								"astId": 9,
								"contract": "contracts/Chocolate.sol:Chocolate",
								"label": "from",
								"offset": 0,
								"slot": "3",
								"type": "t_address"
							}
						],
						"numberOfBytes": "128"
					},
					"t_uint256": {
						"encoding": "inplace",
						"label": "uint256",
						"numberOfBytes": "32"
					}
				}
			},
			"userdoc": {
				"kind": "user",
				"methods": {},
				"version": 1
			}
		}
	}
}