{
	"contracts/Portfolio.sol": {
		"Portfolio": {
			"abi": [
				{
					"inputs": [],
					"stateMutability": "nonpayable",
					"type": "constructor"
				},
				{
					"inputs": [],
					"name": "allEductationDetails",
					"outputs": [
						{
							"components": [
								{
									"internalType": "uint256",
									"name": "id",
									"type": "uint256"
								},
								{
									"internalType": "string",
									"name": "date",
									"type": "string"
								},
								{
									"internalType": "string",
									"name": "degree",
									"type": "string"
								},
								{
									"internalType": "string",
									"name": "knowledgeAcquired",
									"type": "string"
								},
								{
									"internalType": "string",
									"name": "instutionName",
									"type": "string"
								}
							],
							"internalType": "struct Portfolio.Education[3]",
							"name": "",
							"type": "tuple[3]"
						}
					],
					"stateMutability": "view",
					"type": "function"
				},
				{
					"inputs": [],
					"name": "allExperienceDetails",
					"outputs": [
						{
							"components": [
								{
									"internalType": "uint256",
									"name": "id",
									"type": "uint256"
								},
								{
									"internalType": "string",
									"name": "date",
									"type": "string"
								},
								{
									"internalType": "string",
									"name": "post",
									"type": "string"
								},
								{
									"internalType": "string",
									"name": "knowledgeAcquired",
									"type": "string"
								},
								{
									"internalType": "string",
									"name": "compamyName",
									"type": "string"
								}
							],
							"internalType": "struct Portfolio.Experience[3]",
							"name": "",
							"type": "tuple[3]"
						}
					],
					"stateMutability": "view",
					"type": "function"
				},
				{
					"inputs": [],
					"name": "allProjects",
					"outputs": [
						{
							"components": [
								{
									"internalType": "uint256",
									"name": "id",
									"type": "uint256"
								},
								{
									"internalType": "string",
									"name": "name",
									"type": "string"
								},
								{
									"internalType": "string",
									"name": "description",
									"type": "string"
								},
								{
									"internalType": "string",
									"name": "image",
									"type": "string"
								},
								{
									"internalType": "string",
									"name": "githubLink",
									"type": "string"
								}
							],
							"internalType": "struct Portfolio.Project[3]",
							"name": "",
							"type": "tuple[3]"
						}
					],
					"stateMutability": "view",
					"type": "function"
				},
				{
					"inputs": [
						{
							"internalType": "string",
							"name": "_description",
							"type": "string"
						}
					],
					"name": "changeDescription",
					"outputs": [],
					"stateMutability": "nonpayable",
					"type": "function"
				},
				{
					"inputs": [
						{
							"internalType": "string",
							"name": "_date",
							"type": "string"
						},
						{
							"internalType": "string",
							"name": "_degree",
							"type": "string"
						},
						{
							"internalType": "string",
							"name": "_knowledgeAcquired",
							"type": "string"
						},
						{
							"internalType": "string",
							"name": "_instutionName",
							"type": "string"
						},
						{
							"internalType": "uint256",
							"name": "_educationDetailCount",
							"type": "uint256"
						}
					],
					"name": "changeEducation",
					"outputs": [],
					"stateMutability": "nonpayable",
					"type": "function"
				},
				{
					"inputs": [
						{
							"internalType": "string",
							"name": "_date",
							"type": "string"
						},
						{
							"internalType": "string",
							"name": "_post",
							"type": "string"
						},
						{
							"internalType": "string",
							"name": "_knowledgeAcquired",
							"type": "string"
						},
						{
							"internalType": "string",
							"name": "_companyName",
							"type": "string"
						},
						{
							"internalType": "uint256",
							"name": "_experienceDetailCount",
							"type": "uint256"
						}
					],
					"name": "changeExperience",
					"outputs": [],
					"stateMutability": "nonpayable",
					"type": "function"
				},
				{
					"inputs": [
						{
							"internalType": "string",
							"name": "_imageLink",
							"type": "string"
						}
					],
					"name": "changeImageLink",
					"outputs": [],
					"stateMutability": "nonpayable",
					"type": "function"
				},
				{
					"inputs": [
						{
							"internalType": "string",
							"name": "_name",
							"type": "string"
						},
						{
							"internalType": "string",
							"name": "_description",
							"type": "string"
						},
						{
							"internalType": "string",
							"name": "_image",
							"type": "string"
						},
						{
							"internalType": "string",
							"name": "_githubLink",
							"type": "string"
						},
						{
							"internalType": "uint256",
							"name": "_projectCount",
							"type": "uint256"
						}
					],
					"name": "changeProject",
					"outputs": [],
					"stateMutability": "nonpayable",
					"type": "function"
				},
				{
					"inputs": [
						{
							"internalType": "string",
							"name": "_resumeLink",
							"type": "string"
						}
					],
					"name": "changeResumeLink",
					"outputs": [],
					"stateMutability": "nonpayable",
					"type": "function"
				},
				{
					"inputs": [],
					"name": "description",
					"outputs": [
						{
							"internalType": "string",
							"name": "",
							"type": "string"
						}
					],
					"stateMutability": "view",
					"type": "function"
				},
				{
					"inputs": [],
					"name": "donate",
					"outputs": [],
					"stateMutability": "payable",
					"type": "function"
				},
				{
					"inputs": [
						{
							"internalType": "uint256",
							"name": "",
							"type": "uint256"
						}
					],
					"name": "educationDetails",
					"outputs": [
						{
							"internalType": "uint256",
							"name": "id",
							"type": "uint256"
						},
						{
							"internalType": "string",
							"name": "date",
							"type": "string"
						},
						{
							"internalType": "string",
							"name": "degree",
							"type": "string"
						},
						{
							"internalType": "string",
							"name": "knowledgeAcquired",
							"type": "string"
						},
						{
							"internalType": "string",
							"name": "instutionName",
							"type": "string"
						}
					],
					"stateMutability": "view",
					"type": "function"
				},
				{
					"inputs": [
						{
							"internalType": "uint256",
							"name": "",
							"type": "uint256"
						}
					],
					"name": "experienceDetails",
					"outputs": [
						{
							"internalType": "uint256",
							"name": "id",
							"type": "uint256"
						},
						{
							"internalType": "string",
							"name": "date",
							"type": "string"
						},
						{
							"internalType": "string",
							"name": "post",
							"type": "string"
						},
						{
							"internalType": "string",
							"name": "knowledgeAcquired",
							"type": "string"
						},
						{
							"internalType": "string",
							"name": "compamyName",
							"type": "string"
						}
					],
					"stateMutability": "view",
					"type": "function"
				},
				{
					"inputs": [],
					"name": "imageLink",
					"outputs": [
						{
							"internalType": "string",
							"name": "",
							"type": "string"
						}
					],
					"stateMutability": "view",
					"type": "function"
				},
				{
					"inputs": [
						{
							"internalType": "string",
							"name": "_date",
							"type": "string"
						},
						{
							"internalType": "string",
							"name": "_degree",
							"type": "string"
						},
						{
							"internalType": "string",
							"name": "_knowledgeAcquired",
							"type": "string"
						},
						{
							"internalType": "string",
							"name": "_instutionName",
							"type": "string"
						}
					],
					"name": "insertEducation",
					"outputs": [],
					"stateMutability": "nonpayable",
					"type": "function"
				},
				{
					"inputs": [
						{
							"internalType": "string",
							"name": "_date",
							"type": "string"
						},
						{
							"internalType": "string",
							"name": "_post",
							"type": "string"
						},
						{
							"internalType": "string",
							"name": "_knowledgeAcquired",
							"type": "string"
						},
						{
							"internalType": "string",
							"name": "_companyName",
							"type": "string"
						}
					],
					"name": "insertExperience",
					"outputs": [],
					"stateMutability": "nonpayable",
					"type": "function"
				},
				{
					"inputs": [
						{
							"internalType": "string",
							"name": "_name",
							"type": "string"
						},
						{
							"internalType": "string",
							"name": "_description",
							"type": "string"
						},
						{
							"internalType": "string",
							"name": "_image",
							"type": "string"
						},
						{
							"internalType": "string",
							"name": "_githubLink",
							"type": "string"
						}
					],
					"name": "insertProject",
					"outputs": [],
					"stateMutability": "nonpayable",
					"type": "function"
				},
				{
					"inputs": [],
					"name": "manager",
					"outputs": [
						{
							"internalType": "address",
							"name": "",
							"type": "address"
						}
					],
					"stateMutability": "view",
					"type": "function"
				},
				{
					"inputs": [
						{
							"internalType": "uint256",
							"name": "",
							"type": "uint256"
						}
					],
					"name": "projects",
					"outputs": [
						{
							"internalType": "uint256",
							"name": "id",
							"type": "uint256"
						},
						{
							"internalType": "string",
							"name": "name",
							"type": "string"
						},
						{
							"internalType": "string",
							"name": "description",
							"type": "string"
						},
						{
							"internalType": "string",
							"name": "image",
							"type": "string"
						},
						{
							"internalType": "string",
							"name": "githubLink",
							"type": "string"
						}
					],
					"stateMutability": "view",
					"type": "function"
				},
				{
					"inputs": [],
					"name": "resumeLink",
					"outputs": [
						{
							"internalType": "string",
							"name": "",
							"type": "string"
						}
					],
					"stateMutability": "view",
					"type": "function"
				}
			],
			"devdoc": {
				"kind": "dev",
				"methods": {},
				"version": 1
			},
			"evm": {
				"assembly": "    /* \"contracts/Portfolio.sol\":72:4522  contract Portfolio{... */\n  mstore(0x40, 0x80)\n    /* \"contracts/Portfolio.sol\":804:876  string public imageLink=\"QmSjiH4FLeLabWZruw4ZsJfwydKKRdyUPd84gg3i639Qr3\" */\n  mload(0x40)\n  dup1\n  0x60\n  add\n  0x40\n  mstore\n  dup1\n  0x2e\n  dup2\n  mstore\n  0x20\n  add\n  data_8cec0b9742948d85fcc46d804d313b5cb13efe2ff877a9653d8334ca1161f2ae\n  0x2e\n  swap2\n  codecopy\n  0x2d\n  swap1\n  dup2\n  tag_1\n  swap2\n  swap1\n  tag_2\n  jump\t// in\ntag_1:\n  pop\n    /* \"contracts/Portfolio.sol\":881:1133  string public description=\"I am pursuing B. Tech from GEHU. A good knowledge in Blockchain Development. I have experience mainly in Ethereum Blockchain. I am also active in the field of coding . I have also keen interest in learning about technology. \" */\n  mload(0x40)\n  dup1\n  0x0100\n  add\n  0x40\n  mstore\n  dup1\n  0xe0\n  dup2\n  mstore\n  0x20\n  add\n  data_3e137cb1890dcd26a2a27a8cea0c3a85394f96573f7cecf4fed57f505d38cfc9\n  0xe0\n  swap2\n  codecopy\n  0x2e\n  swap1\n  dup2\n  tag_3\n  swap2\n  swap1\n  tag_2\n  jump\t// in\ntag_3:\n  pop\n    /* \"contracts/Portfolio.sol\":1138:1211  string public resumeLink=\"QmTYG6xTsWvnK7NWUeDt9vZHT9a4YMmcD7mg1VAf2Z9uHT\" */\n  mload(0x40)\n  dup1\n  0x60\n  add\n  0x40\n  mstore\n  dup1\n  0x2e\n  dup2\n  mstore\n  0x20\n  add\n  data_519dcc8bfc60c4316359a1ed42e6b8872f284dd792842ac2d20a24327211a73f\n  0x2e\n  swap2\n  codecopy\n  0x2f\n  swap1\n  dup2\n  tag_4\n  swap2\n  swap1\n  tag_2\n  jump\t// in\ntag_4:\n  pop\n    /* \"contracts/Portfolio.sol\":1316:1362  constructor(){... */\n  callvalue\n  dup1\n  iszero\n  tag_5\n  jumpi\n  revert(0x00, 0x00)\ntag_5:\n  pop\n    /* \"contracts/Portfolio.sol\":1346:1356  msg.sender */\n  caller\n    /* \"contracts/Portfolio.sol\":1338:1345  manager */\n  0x33\n  0x00\n    /* \"contracts/Portfolio.sol\":1338:1356  manager=msg.sender */\n  0x0100\n  exp\n  dup2\n  sload\n  dup2\n  0xffffffffffffffffffffffffffffffffffffffff\n  mul\n  not\n  and\n  swap1\n  dup4\n  0xffffffffffffffffffffffffffffffffffffffff\n  and\n  mul\n  or\n  swap1\n  sstore\n  pop\n    /* \"contracts/Portfolio.sol\":72:4522  contract Portfolio{... */\n  jump(tag_8)\n    /* \"#utility.yul\":7:106   */\ntag_9:\n    /* \"#utility.yul\":59:65   */\n  0x00\n    /* \"#utility.yul\":93:98   */\n  dup2\n    /* \"#utility.yul\":87:99   */\n  mload\n    /* \"#utility.yul\":77:99   */\n  swap1\n  pop\n    /* \"#utility.yul\":7:106   */\n  swap2\n  swap1\n  pop\n  jump\t// out\n    /* \"#utility.yul\":112:292   */\ntag_10:\n    /* \"#utility.yul\":160:237   */\n  0x4e487b7100000000000000000000000000000000000000000000000000000000\n    /* \"#utility.yul\":157:158   */\n  0x00\n    /* \"#utility.yul\":150:238   */\n  mstore\n    /* \"#utility.yul\":257:261   */\n  0x41\n    /* \"#utility.yul\":254:255   */\n  0x04\n    /* \"#utility.yul\":247:262   */\n  mstore\n    /* \"#utility.yul\":281:285   */\n  0x24\n    /* \"#utility.yul\":278:279   */\n  0x00\n    /* \"#utility.yul\":271:286   */\n  revert\n    /* \"#utility.yul\":298:478   */\ntag_11:\n    /* \"#utility.yul\":346:423   */\n  0x4e487b7100000000000000000000000000000000000000000000000000000000\n    /* \"#utility.yul\":343:344   */\n  0x00\n    /* \"#utility.yul\":336:424   */\n  mstore\n    /* \"#utility.yul\":443:447   */\n  0x22\n    /* \"#utility.yul\":440:441   */\n  0x04\n    /* \"#utility.yul\":433:448   */\n  mstore\n    /* \"#utility.yul\":467:471   */\n  0x24\n    /* \"#utility.yul\":464:465   */\n  0x00\n    /* \"#utility.yul\":457:472   */\n  revert\n    /* \"#utility.yul\":484:804   */\ntag_12:\n    /* \"#utility.yul\":528:534   */\n  0x00\n    /* \"#utility.yul\":565:566   */\n  0x02\n    /* \"#utility.yul\":559:563   */\n  dup3\n    /* \"#utility.yul\":555:567   */\n  div\n    /* \"#utility.yul\":545:567   */\n  swap1\n  pop\n    /* \"#utility.yul\":612:613   */\n  0x01\n    /* \"#utility.yul\":606:610   */\n  dup3\n    /* \"#utility.yul\":602:614   */\n  and\n    /* \"#utility.yul\":633:651   */\n  dup1\n    /* \"#utility.yul\":623:704   */\n  tag_34\n  jumpi\n    /* \"#utility.yul\":689:693   */\n  0x7f\n    /* \"#utility.yul\":681:687   */\n  dup3\n    /* \"#utility.yul\":677:694   */\n  and\n    /* \"#utility.yul\":667:694   */\n  swap2\n  pop\n    /* \"#utility.yul\":623:704   */\ntag_34:\n    /* \"#utility.yul\":751:753   */\n  0x20\n    /* \"#utility.yul\":743:749   */\n  dup3\n    /* \"#utility.yul\":740:754   */\n  lt\n    /* \"#utility.yul\":720:738   */\n  dup2\n    /* \"#utility.yul\":717:755   */\n  sub\n    /* \"#utility.yul\":714:798   */\n  tag_35\n  jumpi\n    /* \"#utility.yul\":770:788   */\n  tag_36\n  tag_11\n  jump\t// in\ntag_36:\n    /* \"#utility.yul\":714:798   */\ntag_35:\n    /* \"#utility.yul\":535:804   */\n  pop\n    /* \"#utility.yul\":484:804   */\n  swap2\n  swap1\n  pop\n  jump\t// out\n    /* \"#utility.yul\":810:951   */\ntag_13:\n    /* \"#utility.yul\":859:863   */\n  0x00\n    /* \"#utility.yul\":882:885   */\n  dup2\n    /* \"#utility.yul\":874:885   */\n  swap1\n  pop\n    /* \"#utility.yul\":905:908   */\n  dup2\n    /* \"#utility.yul\":902:903   */\n  0x00\n    /* \"#utility.yul\":895:909   */\n  mstore\n    /* \"#utility.yul\":939:943   */\n  0x20\n    /* \"#utility.yul\":936:937   */\n  0x00\n    /* \"#utility.yul\":926:944   */\n  keccak256\n    /* \"#utility.yul\":918:944   */\n  swap1\n  pop\n    /* \"#utility.yul\":810:951   */\n  swap2\n  swap1\n  pop\n  jump\t// out\n    /* \"#utility.yul\":957:1050   */\ntag_14:\n    /* \"#utility.yul\":994:1000   */\n  0x00\n    /* \"#utility.yul\":1041:1043   */\n  0x20\n    /* \"#utility.yul\":1036:1038   */\n  0x1f\n    /* \"#utility.yul\":1029:1034   */\n  dup4\n    /* \"#utility.yul\":1025:1039   */\n  add\n    /* \"#utility.yul\":1021:1044   */\n  div\n    /* \"#utility.yul\":1011:1044   */\n  swap1\n  pop\n    /* \"#utility.yul\":957:1050   */\n  swap2\n  swap1\n  pop\n  jump\t// out\n    /* \"#utility.yul\":1056:1163   */\ntag_15:\n    /* \"#utility.yul\":1100:1108   */\n  0x00\n    /* \"#utility.yul\":1150:1155   */\n  dup3\n    /* \"#utility.yul\":1144:1148   */\n  dup3\n    /* \"#utility.yul\":1140:1156   */\n  shl\n    /* \"#utility.yul\":1119:1156   */\n  swap1\n  pop\n    /* \"#utility.yul\":1056:1163   */\n  swap3\n  swap2\n  pop\n  pop\n  jump\t// out\n    /* \"#utility.yul\":1169:1562   */\ntag_16:\n    /* \"#utility.yul\":1238:1244   */\n  0x00\n    /* \"#utility.yul\":1288:1289   */\n  0x08\n    /* \"#utility.yul\":1276:1286   */\n  dup4\n    /* \"#utility.yul\":1272:1290   */\n  mul\n    /* \"#utility.yul\":1311:1408   */\n  tag_41\n    /* \"#utility.yul\":1341:1407   */\n  0xffffffffffffffffffffffffffffffffffffffffffffffffffffffffffffffff\n    /* \"#utility.yul\":1330:1339   */\n  dup3\n    /* \"#utility.yul\":1311:1408   */\n  tag_15\n  jump\t// in\ntag_41:\n    /* \"#utility.yul\":1429:1468   */\n  tag_42\n    /* \"#utility.yul\":1459:1467   */\n  dup7\n    /* \"#utility.yul\":1448:1457   */\n  dup4\n    /* \"#utility.yul\":1429:1468   */\n  tag_15\n  jump\t// in\ntag_42:\n    /* \"#utility.yul\":1417:1468   */\n  swap6\n  pop\n    /* \"#utility.yul\":1501:1505   */\n  dup1\n    /* \"#utility.yul\":1497:1506   */\n  not\n    /* \"#utility.yul\":1490:1495   */\n  dup5\n    /* \"#utility.yul\":1486:1507   */\n  and\n    /* \"#utility.yul\":1477:1507   */\n  swap4\n  pop\n    /* \"#utility.yul\":1550:1554   */\n  dup1\n    /* \"#utility.yul\":1540:1548   */\n  dup7\n    /* \"#utility.yul\":1536:1555   */\n  and\n    /* \"#utility.yul\":1529:1534   */\n  dup5\n    /* \"#utility.yul\":1526:1556   */\n  or\n    /* \"#utility.yul\":1516:1556   */\n  swap3\n  pop\n    /* \"#utility.yul\":1245:1562   */\n  pop\n  pop\n    /* \"#utility.yul\":1169:1562   */\n  swap4\n  swap3\n  pop\n  pop\n  pop\n  jump\t// out\n    /* \"#utility.yul\":1568:1645   */\ntag_17:\n    /* \"#utility.yul\":1605:1612   */\n  0x00\n    /* \"#utility.yul\":1634:1639   */\n  dup2\n    /* \"#utility.yul\":1623:1639   */\n  swap1\n  pop\n    /* \"#utility.yul\":1568:1645   */\n  swap2\n  swap1\n  pop\n  jump\t// out\n    /* \"#utility.yul\":1651:1711   */\ntag_18:\n    /* \"#utility.yul\":1679:1682   */\n  0x00\n    /* \"#utility.yul\":1700:1705   */\n  dup2\n    /* \"#utility.yul\":1693:1705   */\n  swap1\n  pop\n    /* \"#utility.yul\":1651:1711   */\n  swap2\n  swap1\n  pop\n  jump\t// out\n    /* \"#utility.yul\":1717:1859   */\ntag_19:\n    /* \"#utility.yul\":1767:1776   */\n  0x00\n    /* \"#utility.yul\":1800:1853   */\n  tag_46\n    /* \"#utility.yul\":1818:1852   */\n  tag_47\n    /* \"#utility.yul\":1827:1851   */\n  tag_48\n    /* \"#utility.yul\":1845:1850   */\n  dup5\n    /* \"#utility.yul\":1827:1851   */\n  tag_17\n  jump\t// in\ntag_48:\n    /* \"#utility.yul\":1818:1852   */\n  tag_18\n  jump\t// in\ntag_47:\n    /* \"#utility.yul\":1800:1853   */\n  tag_17\n  jump\t// in\ntag_46:\n    /* \"#utility.yul\":1787:1853   */\n  swap1\n  pop\n    /* \"#utility.yul\":1717:1859   */\n  swap2\n  swap1\n  pop\n  jump\t// out\n    /* \"#utility.yul\":1865:1940   */\ntag_20:\n    /* \"#utility.yul\":1908:1911   */\n  0x00\n    /* \"#utility.yul\":1929:1934   */\n  dup2\n    /* \"#utility.yul\":1922:1934   */\n  swap1\n  pop\n    /* \"#utility.yul\":1865:1940   */\n  swap2\n  swap1\n  pop\n  jump\t// out\n    /* \"#utility.yul\":1946:2215   */\ntag_21:\n    /* \"#utility.yul\":2056:2095   */\n  tag_51\n    /* \"#utility.yul\":2087:2094   */\n  dup4\n    /* \"#utility.yul\":2056:2095   */\n  tag_19\n  jump\t// in\ntag_51:\n    /* \"#utility.yul\":2117:2208   */\n  tag_52\n    /* \"#utility.yul\":2166:2207   */\n  tag_53\n    /* \"#utility.yul\":2190:2206   */\n  dup3\n    /* \"#utility.yul\":2166:2207   */\n  tag_20\n  jump\t// in\ntag_53:\n    /* \"#utility.yul\":2158:2164   */\n  dup5\n    /* \"#utility.yul\":2151:2155   */\n  dup5\n    /* \"#utility.yul\":2145:2156   */\n  sload\n    /* \"#utility.yul\":2117:2208   */\n  tag_16\n  jump\t// in\ntag_52:\n    /* \"#utility.yul\":2111:2115   */\n  dup3\n    /* \"#utility.yul\":2104:2209   */\n  sstore\n    /* \"#utility.yul\":2022:2215   */\n  pop\n    /* \"#utility.yul\":1946:2215   */\n  pop\n  pop\n  pop\n  jump\t// out\n    /* \"#utility.yul\":2221:2294   */\ntag_22:\n    /* \"#utility.yul\":2266:2269   */\n  0x00\n    /* \"#utility.yul\":2287:2288   */\n  0x00\n    /* \"#utility.yul\":2280:2288   */\n  swap1\n  pop\n    /* \"#utility.yul\":2221:2294   */\n  swap1\n  jump\t// out\n    /* \"#utility.yul\":2300:2489   */\ntag_23:\n    /* \"#utility.yul\":2377:2409   */\n  tag_56\n  tag_22\n  jump\t// in\ntag_56:\n    /* \"#utility.yul\":2418:2483   */\n  tag_57\n    /* \"#utility.yul\":2476:2482   */\n  dup2\n    /* \"#utility.yul\":2468:2474   */\n  dup5\n    /* \"#utility.yul\":2462:2466   */\n  dup5\n    /* \"#utility.yul\":2418:2483   */\n  tag_21\n  jump\t// in\ntag_57:\n    /* \"#utility.yul\":2353:2489   */\n  pop\n    /* \"#utility.yul\":2300:2489   */\n  pop\n  pop\n  jump\t// out\n    /* \"#utility.yul\":2495:2681   */\ntag_24:\n    /* \"#utility.yul\":2555:2675   */\ntag_59:\n    /* \"#utility.yul\":2572:2575   */\n  dup2\n    /* \"#utility.yul\":2565:2570   */\n  dup2\n    /* \"#utility.yul\":2562:2576   */\n  lt\n    /* \"#utility.yul\":2555:2675   */\n  iszero\n  tag_61\n  jumpi\n    /* \"#utility.yul\":2626:2665   */\n  tag_62\n    /* \"#utility.yul\":2663:2664   */\n  0x00\n    /* \"#utility.yul\":2656:2661   */\n  dup3\n    /* \"#utility.yul\":2626:2665   */\n  tag_23\n  jump\t// in\ntag_62:\n    /* \"#utility.yul\":2599:2600   */\n  0x01\n    /* \"#utility.yul\":2592:2597   */\n  dup2\n    /* \"#utility.yul\":2588:2601   */\n  add\n    /* \"#utility.yul\":2579:2601   */\n  swap1\n  pop\n    /* \"#utility.yul\":2555:2675   */\n  jump(tag_59)\ntag_61:\n    /* \"#utility.yul\":2495:2681   */\n  pop\n  pop\n  jump\t// out\n    /* \"#utility.yul\":2687:3230   */\ntag_25:\n    /* \"#utility.yul\":2788:2790   */\n  0x1f\n    /* \"#utility.yul\":2783:2786   */\n  dup3\n    /* \"#utility.yul\":2780:2791   */\n  gt\n    /* \"#utility.yul\":2777:3223   */\n  iszero\n  tag_64\n  jumpi\n    /* \"#utility.yul\":2822:2860   */\n  tag_65\n    /* \"#utility.yul\":2854:2859   */\n  dup2\n    /* \"#utility.yul\":2822:2860   */\n  tag_13\n  jump\t// in\ntag_65:\n    /* \"#utility.yul\":2906:2935   */\n  tag_66\n    /* \"#utility.yul\":2924:2934   */\n  dup5\n    /* \"#utility.yul\":2906:2935   */\n  tag_14\n  jump\t// in\ntag_66:\n    /* \"#utility.yul\":2896:2904   */\n  dup2\n    /* \"#utility.yul\":2892:2936   */\n  add\n    /* \"#utility.yul\":3089:3091   */\n  0x20\n    /* \"#utility.yul\":3077:3087   */\n  dup6\n    /* \"#utility.yul\":3074:3092   */\n  lt\n    /* \"#utility.yul\":3071:3120   */\n  iszero\n  tag_67\n  jumpi\n    /* \"#utility.yul\":3110:3118   */\n  dup2\n    /* \"#utility.yul\":3095:3118   */\n  swap1\n  pop\n    /* \"#utility.yul\":3071:3120   */\ntag_67:\n    /* \"#utility.yul\":3133:3213   */\n  tag_68\n    /* \"#utility.yul\":3189:3211   */\n  tag_69\n    /* \"#utility.yul\":3207:3210   */\n  dup6\n    /* \"#utility.yul\":3189:3211   */\n  tag_14\n  jump\t// in\ntag_69:\n    /* \"#utility.yul\":3179:3187   */\n  dup4\n    /* \"#utility.yul\":3175:3212   */\n  add\n    /* \"#utility.yul\":3162:3173   */\n  dup3\n    /* \"#utility.yul\":3133:3213   */\n  tag_24\n  jump\t// in\ntag_68:\n    /* \"#utility.yul\":2792:3223   */\n  pop\n  pop\n    /* \"#utility.yul\":2777:3223   */\ntag_64:\n    /* \"#utility.yul\":2687:3230   */\n  pop\n  pop\n  pop\n  jump\t// out\n    /* \"#utility.yul\":3236:3353   */\ntag_26:\n    /* \"#utility.yul\":3290:3298   */\n  0x00\n    /* \"#utility.yul\":3340:3345   */\n  dup3\n    /* \"#utility.yul\":3334:3338   */\n  dup3\n    /* \"#utility.yul\":3330:3346   */\n  shr\n    /* \"#utility.yul\":3309:3346   */\n  swap1\n  pop\n    /* \"#utility.yul\":3236:3353   */\n  swap3\n  swap2\n  pop\n  pop\n  jump\t// out\n    /* \"#utility.yul\":3359:3528   */\ntag_27:\n    /* \"#utility.yul\":3403:3409   */\n  0x00\n    /* \"#utility.yul\":3436:3487   */\n  tag_72\n    /* \"#utility.yul\":3484:3485   */\n  0x00\n    /* \"#utility.yul\":3480:3486   */\n  not\n    /* \"#utility.yul\":3472:3477   */\n  dup5\n    /* \"#utility.yul\":3469:3470   */\n  0x08\n    /* \"#utility.yul\":3465:3478   */\n  mul\n    /* \"#utility.yul\":3436:3487   */\n  tag_26\n  jump\t// in\ntag_72:\n    /* \"#utility.yul\":3432:3488   */\n  not\n    /* \"#utility.yul\":3517:3521   */\n  dup1\n    /* \"#utility.yul\":3511:3515   */\n  dup4\n    /* \"#utility.yul\":3507:3522   */\n  and\n    /* \"#utility.yul\":3497:3522   */\n  swap2\n  pop\n    /* \"#utility.yul\":3410:3528   */\n  pop\n    /* \"#utility.yul\":3359:3528   */\n  swap3\n  swap2\n  pop\n  pop\n  jump\t// out\n    /* \"#utility.yul\":3533:3828   */\ntag_28:\n    /* \"#utility.yul\":3609:3613   */\n  0x00\n    /* \"#utility.yul\":3755:3784   */\n  tag_74\n    /* \"#utility.yul\":3780:3783   */\n  dup4\n    /* \"#utility.yul\":3774:3778   */\n  dup4\n    /* \"#utility.yul\":3755:3784   */\n  tag_27\n  jump\t// in\ntag_74:\n    /* \"#utility.yul\":3747:3784   */\n  swap2\n  pop\n    /* \"#utility.yul\":3817:3820   */\n  dup3\n    /* \"#utility.yul\":3814:3815   */\n  0x02\n    /* \"#utility.yul\":3810:3821   */\n  mul\n    /* \"#utility.yul\":3804:3808   */\n  dup3\n    /* \"#utility.yul\":3801:3822   */\n  or\n    /* \"#utility.yul\":3793:3822   */\n  swap1\n  pop\n    /* \"#utility.yul\":3533:3828   */\n  swap3\n  swap2\n  pop\n  pop\n  jump\t// out\n    /* \"#utility.yul\":3833:5228   */\ntag_2:\n    /* \"#utility.yul\":3950:3987   */\n  tag_76\n    /* \"#utility.yul\":3983:3986   */\n  dup3\n    /* \"#utility.yul\":3950:3987   */\n  tag_9\n  jump\t// in\ntag_76:\n    /* \"#utility.yul\":4052:4070   */\n  0xffffffffffffffff\n    /* \"#utility.yul\":4044:4050   */\n  dup2\n    /* \"#utility.yul\":4041:4071   */\n  gt\n    /* \"#utility.yul\":4038:4094   */\n  iszero\n  tag_77\n  jumpi\n    /* \"#utility.yul\":4074:4092   */\n  tag_78\n  tag_10\n  jump\t// in\ntag_78:\n    /* \"#utility.yul\":4038:4094   */\ntag_77:\n    /* \"#utility.yul\":4118:4156   */\n  tag_79\n    /* \"#utility.yul\":4150:4154   */\n  dup3\n    /* \"#utility.yul\":4144:4155   */\n  sload\n    /* \"#utility.yul\":4118:4156   */\n  tag_12\n  jump\t// in\ntag_79:\n    /* \"#utility.yul\":4203:4270   */\n  tag_80\n    /* \"#utility.yul\":4263:4269   */\n  dup3\n    /* \"#utility.yul\":4255:4261   */\n  dup3\n    /* \"#utility.yul\":4249:4253   */\n  dup6\n    /* \"#utility.yul\":4203:4270   */\n  tag_25\n  jump\t// in\ntag_80:\n    /* \"#utility.yul\":4297:4298   */\n  0x00\n    /* \"#utility.yul\":4321:4325   */\n  0x20\n    /* \"#utility.yul\":4308:4325   */\n  swap1\n  pop\n    /* \"#utility.yul\":4353:4355   */\n  0x1f\n    /* \"#utility.yul\":4345:4351   */\n  dup4\n    /* \"#utility.yul\":4342:4356   */\n  gt\n    /* \"#utility.yul\":4370:4371   */\n  0x01\n    /* \"#utility.yul\":4365:4983   */\n  dup2\n  eq\n  tag_82\n  jumpi\n    /* \"#utility.yul\":5027:5028   */\n  0x00\n    /* \"#utility.yul\":5044:5050   */\n  dup5\n    /* \"#utility.yul\":5041:5118   */\n  iszero\n  tag_83\n  jumpi\n    /* \"#utility.yul\":5093:5102   */\n  dup3\n    /* \"#utility.yul\":5088:5091   */\n  dup8\n    /* \"#utility.yul\":5084:5103   */\n  add\n    /* \"#utility.yul\":5078:5104   */\n  mload\n    /* \"#utility.yul\":5069:5104   */\n  swap1\n  pop\n    /* \"#utility.yul\":5041:5118   */\ntag_83:\n    /* \"#utility.yul\":5144:5211   */\n  tag_84\n    /* \"#utility.yul\":5204:5210   */\n  dup6\n    /* \"#utility.yul\":5197:5202   */\n  dup3\n    /* \"#utility.yul\":5144:5211   */\n  tag_28\n  jump\t// in\ntag_84:\n    /* \"#utility.yul\":5138:5142   */\n  dup7\n    /* \"#utility.yul\":5131:5212   */\n  sstore\n    /* \"#utility.yul\":5000:5222   */\n  pop\n    /* \"#utility.yul\":4335:5222   */\n  jump(tag_81)\n    /* \"#utility.yul\":4365:4983   */\ntag_82:\n    /* \"#utility.yul\":4417:4421   */\n  0x1f\n    /* \"#utility.yul\":4413:4422   */\n  not\n    /* \"#utility.yul\":4405:4411   */\n  dup5\n    /* \"#utility.yul\":4401:4423   */\n  and\n    /* \"#utility.yul\":4451:4488   */\n  tag_85\n    /* \"#utility.yul\":4483:4487   */\n  dup7\n    /* \"#utility.yul\":4451:4488   */\n  tag_13\n  jump\t// in\ntag_85:\n    /* \"#utility.yul\":4510:4511   */\n  0x00\n    /* \"#utility.yul\":4524:4732   */\ntag_86:\n    /* \"#utility.yul\":4538:4545   */\n  dup3\n    /* \"#utility.yul\":4535:4536   */\n  dup2\n    /* \"#utility.yul\":4532:4546   */\n  lt\n    /* \"#utility.yul\":4524:4732   */\n  iszero\n  tag_88\n  jumpi\n    /* \"#utility.yul\":4617:4626   */\n  dup5\n    /* \"#utility.yul\":4612:4615   */\n  dup10\n    /* \"#utility.yul\":4608:4627   */\n  add\n    /* \"#utility.yul\":4602:4628   */\n  mload\n    /* \"#utility.yul\":4594:4600   */\n  dup3\n    /* \"#utility.yul\":4587:4629   */\n  sstore\n    /* \"#utility.yul\":4668:4669   */\n  0x01\n    /* \"#utility.yul\":4660:4666   */\n  dup3\n    /* \"#utility.yul\":4656:4670   */\n  add\n    /* \"#utility.yul\":4646:4670   */\n  swap2\n  pop\n    /* \"#utility.yul\":4715:4717   */\n  0x20\n    /* \"#utility.yul\":4704:4713   */\n  dup6\n    /* \"#utility.yul\":4700:4718   */\n  add\n    /* \"#utility.yul\":4687:4718   */\n  swap5\n  pop\n    /* \"#utility.yul\":4561:4565   */\n  0x20\n    /* \"#utility.yul\":4558:4559   */\n  dup2\n    /* \"#utility.yul\":4554:4566   */\n  add\n    /* \"#utility.yul\":4549:4566   */\n  swap1\n  pop\n    /* \"#utility.yul\":4524:4732   */\n  jump(tag_86)\ntag_88:\n    /* \"#utility.yul\":4760:4766   */\n  dup7\n    /* \"#utility.yul\":4751:4758   */\n  dup4\n    /* \"#utility.yul\":4748:4767   */\n  lt\n    /* \"#utility.yul\":4745:4924   */\n  iszero\n  tag_89\n  jumpi\n    /* \"#utility.yul\":4818:4827   */\n  dup5\n    /* \"#utility.yul\":4813:4816   */\n  dup10\n    /* \"#utility.yul\":4809:4828   */\n  add\n    /* \"#utility.yul\":4803:4829   */\n  mload\n    /* \"#utility.yul\":4861:4909   */\n  tag_90\n    /* \"#utility.yul\":4903:4907   */\n  0x1f\n    /* \"#utility.yul\":4895:4901   */\n  dup10\n    /* \"#utility.yul\":4891:4908   */\n  and\n    /* \"#utility.yul\":4880:4889   */\n  dup3\n    /* \"#utility.yul\":4861:4909   */\n  tag_27\n  jump\t// in\ntag_90:\n    /* \"#utility.yul\":4853:4859   */\n  dup4\n    /* \"#utility.yul\":4846:4910   */\n  sstore\n    /* \"#utility.yul\":4768:4924   */\n  pop\n    /* \"#utility.yul\":4745:4924   */\ntag_89:\n    /* \"#utility.yul\":4970:4971   */\n  0x01\n    /* \"#utility.yul\":4966:4967   */\n  0x02\n    /* \"#utility.yul\":4958:4964   */\n  dup9\n    /* \"#utility.yul\":4954:4968   */\n  mul\n    /* \"#utility.yul\":4950:4972   */\n  add\n    /* \"#utility.yul\":4944:4948   */\n  dup9\n    /* \"#utility.yul\":4937:4973   */\n  sstore\n    /* \"#utility.yul\":4372:4983   */\n  pop\n  pop\n  pop\n    /* \"#utility.yul\":4335:5222   */\ntag_81:\n  pop\n    /* \"#utility.yul\":3925:5228   */\n  pop\n  pop\n  pop\n    /* \"#utility.yul\":3833:5228   */\n  pop\n  pop\n  jump\t// out\n    /* \"contracts/Portfolio.sol\":72:4522  contract Portfolio{... */\ntag_8:\n  dataSize(sub_0)\n  dup1\n  dataOffset(sub_0)\n  0x00\n  codecopy\n  0x00\n  return\nstop\ndata_3e137cb1890dcd26a2a27a8cea0c3a85394f96573f7cecf4fed57f505d38cfc9 4920616d207075727375696e6720422e20546563682066726f6d20474548552e204120676f6f64206b6e6f776c6564676520696e20426c6f636b636861696e20446576656c6f706d656e742e2049206861766520657870657269656e6365206d61696e6c7920696e20457468657265756d20426c6f636b636861696e2e204920616d20616c736f2061637469766520696e20746865206669656c64206f6620636f64696e67202e2049206861766520616c736f206b65656e20696e74657265737420696e206c6561726e696e672061626f757420746563686e6f6c6f67792e20\ndata_519dcc8bfc60c4316359a1ed42e6b8872f284dd792842ac2d20a24327211a73f 516d5459473678547357766e4b374e575565447439765a4854396134594d6d6344376d6731564166325a39754854\ndata_8cec0b9742948d85fcc46d804d313b5cb13efe2ff877a9653d8334ca1161f2ae 516d536a694834464c654c6162575a727577345a734a667779644b4b526479555064383467673369363339517233\n\nsub_0: assembly {\n        /* \"contracts/Portfolio.sol\":72:4522  contract Portfolio{... */\n      mstore(0x40, 0x80)\n      jumpi(tag_1, lt(calldatasize, 0x04))\n      shr(0xe0, calldataload(0x00))\n      dup1\n      0x6fe8e0bd\n      gt\n      tag_22\n      jumpi\n      dup1\n      0xcaf7b759\n      gt\n      tag_23\n      jumpi\n      dup1\n      0xcaf7b759\n      eq\n      tag_17\n      jumpi\n      dup1\n      0xd3cedf11\n      eq\n      tag_18\n      jumpi\n      dup1\n      0xd921fa82\n      eq\n      tag_19\n      jumpi\n      dup1\n      0xe6120413\n      eq\n      tag_20\n      jumpi\n      dup1\n      0xed88c68e\n      eq\n      tag_21\n      jumpi\n      jump(tag_1)\n    tag_23:\n      dup1\n      0x6fe8e0bd\n      eq\n      tag_12\n      jumpi\n      dup1\n      0x7284e416\n      eq\n      tag_13\n      jumpi\n      dup1\n      0x7aea95aa\n      eq\n      tag_14\n      jumpi\n      dup1\n      0x8af4f98d\n      eq\n      tag_15\n      jumpi\n      dup1\n      0x98f831b6\n      eq\n      tag_16\n      jumpi\n      jump(tag_1)\n    tag_22:\n      dup1\n      0x598e7f37\n      gt\n      tag_24\n      jumpi\n      dup1\n      0x598e7f37\n      eq\n      tag_7\n      jumpi\n      dup1\n      0x5b173a69\n      eq\n      tag_8\n      jumpi\n      dup1\n      0x5cea6a7c\n      eq\n      tag_9\n      jumpi\n      dup1\n      0x5d85a1f4\n      eq\n      tag_10\n      jumpi\n      dup1\n      0x6426d4c3\n      eq\n      tag_11\n      jumpi\n      jump(tag_1)\n    tag_24:\n      dup1\n      0x107046bd\n      eq\n      tag_2\n      jumpi\n      dup1\n      0x10ef62c5\n      eq\n      tag_3\n      jumpi\n      dup1\n      0x2adf13b2\n      eq\n      tag_4\n      jumpi\n      dup1\n      0x36eea422\n      eq\n      tag_5\n      jumpi\n      dup1\n      0x481c6a75\n      eq\n      tag_6\n      jumpi\n    tag_1:\n      revert(0x00, 0x00)\n        /* \"contracts/Portfolio.sol\":687:713  Project[3] public projects */\n    tag_2:\n      callvalue\n      dup1\n      iszero\n      tag_25\n      jumpi\n      revert(0x00, 0x00)\n    tag_25:\n      pop\n      tag_26\n      0x04\n      dup1\n      calldatasize\n      sub\n      dup2\n      add\n      swap1\n      tag_27\n      swap2\n      swap1\n      tag_28\n      jump\t// in\n    tag_27:\n      tag_29\n      jump\t// in\n    tag_26:\n      mload(0x40)\n      tag_30\n      swap6\n      swap5\n      swap4\n      swap3\n      swap2\n      swap1\n      tag_31\n      jump\t// in\n    tag_30:\n      mload(0x40)\n      dup1\n      swap2\n      sub\n      swap1\n      return\n        /* \"contracts/Portfolio.sol\":759:797  Experience[3] public experienceDetails */\n    tag_3:\n      callvalue\n      dup1\n      iszero\n      tag_32\n      jumpi\n      revert(0x00, 0x00)\n    tag_32:\n      pop\n      tag_33\n      0x04\n      dup1\n      calldatasize\n      sub\n      dup2\n      add\n      swap1\n      tag_34\n      swap2\n      swap1\n      tag_28\n      jump\t// in\n    tag_34:\n      tag_35\n      jump\t// in\n    tag_33:\n      mload(0x40)\n      tag_36\n      swap6\n      swap5\n      swap4\n      swap3\n      swap2\n      swap1\n      tag_31\n      jump\t// in\n    tag_36:\n      mload(0x40)\n      dup1\n      swap2\n      sub\n      swap1\n      return\n        /* \"contracts/Portfolio.sol\":2136:2233  function allProjects() external view returns(Project[3] memory){... */\n    tag_4:\n      callvalue\n      dup1\n      iszero\n      tag_37\n      jumpi\n      revert(0x00, 0x00)\n    tag_37:\n      pop\n      tag_38\n      tag_39\n      jump\t// in\n    tag_38:\n      mload(0x40)\n      tag_40\n      swap2\n      swap1\n      tag_41\n      jump\t// in\n    tag_40:\n      mload(0x40)\n      dup1\n      swap2\n      sub\n      swap1\n      return\n        /* \"contracts/Portfolio.sol\":3969:4085  function allExperienceDetails() external view returns(Experience[3] memory){... */\n    tag_5:\n      callvalue\n      dup1\n      iszero\n      tag_42\n      jumpi\n      revert(0x00, 0x00)\n    tag_42:\n      pop\n      tag_43\n      tag_44\n      jump\t// in\n    tag_43:\n      mload(0x40)\n      tag_45\n      swap2\n      swap1\n      tag_46\n      jump\t// in\n    tag_45:\n      mload(0x40)\n      dup1\n      swap2\n      sub\n      swap1\n      return\n        /* \"contracts/Portfolio.sol\":1287:1309  address public manager */\n    tag_6:\n      callvalue\n      dup1\n      iszero\n      tag_47\n      jumpi\n      revert(0x00, 0x00)\n    tag_47:\n      pop\n      tag_48\n      tag_49\n      jump\t// in\n    tag_48:\n      mload(0x40)\n      tag_50\n      swap2\n      swap1\n      tag_51\n      jump\t// in\n    tag_50:\n      mload(0x40)\n      dup1\n      swap2\n      sub\n      swap1\n      return\n        /* \"contracts/Portfolio.sol\":4320:4428  function changeImageLink(string calldata _imageLink) external onlyManager{... */\n    tag_7:\n      callvalue\n      dup1\n      iszero\n      tag_52\n      jumpi\n      revert(0x00, 0x00)\n    tag_52:\n      pop\n      tag_53\n      0x04\n      dup1\n      calldatasize\n      sub\n      dup2\n      add\n      swap1\n      tag_54\n      swap2\n      swap1\n      tag_55\n      jump\t// in\n    tag_54:\n      tag_56\n      jump\t// in\n    tag_53:\n      stop\n        /* \"contracts/Portfolio.sol\":2619:3033  function changeEducation(string calldata _date,string calldata _degree,string calldata _knowledgeAcquired,string calldata _instutionName,uint _educationDetailCount) external onlyManager{... */\n    tag_8:\n      callvalue\n      dup1\n      iszero\n      tag_57\n      jumpi\n      revert(0x00, 0x00)\n    tag_57:\n      pop\n      tag_58\n      0x04\n      dup1\n      calldatasize\n      sub\n      dup2\n      add\n      swap1\n      tag_59\n      swap2\n      swap1\n      tag_60\n      jump\t// in\n    tag_59:\n      tag_61\n      jump\t// in\n    tag_58:\n      stop\n        /* \"contracts/Portfolio.sol\":1138:1211  string public resumeLink=\"QmTYG6xTsWvnK7NWUeDt9vZHT9a4YMmcD7mg1VAf2Z9uHT\" */\n    tag_9:\n      callvalue\n      dup1\n      iszero\n      tag_62\n      jumpi\n      revert(0x00, 0x00)\n    tag_62:\n      pop\n      tag_63\n      tag_64\n      jump\t// in\n    tag_63:\n      mload(0x40)\n      tag_65\n      swap2\n      swap1\n      tag_66\n      jump\t// in\n    tag_65:\n      mload(0x40)\n      dup1\n      swap2\n      sub\n      swap1\n      return\n        /* \"contracts/Portfolio.sol\":3161:3533  function insertExperience(string calldata _date,string calldata _post,string calldata _knowledgeAcquired,string calldata _companyName) external  onlyManager{... */\n    tag_10:\n      callvalue\n      dup1\n      iszero\n      tag_67\n      jumpi\n      revert(0x00, 0x00)\n    tag_67:\n      pop\n      tag_68\n      0x04\n      dup1\n      calldatasize\n      sub\n      dup2\n      add\n      swap1\n      tag_69\n      swap2\n      swap1\n      tag_70\n      jump\t// in\n    tag_69:\n      tag_71\n      jump\t// in\n    tag_68:\n      stop\n        /* \"contracts/Portfolio.sol\":1477:1791  function insertProject(string calldata _name,string calldata _description,string calldata _image,string calldata _githubLink) external{... */\n    tag_11:\n      callvalue\n      dup1\n      iszero\n      tag_72\n      jumpi\n      revert(0x00, 0x00)\n    tag_72:\n      pop\n      tag_73\n      0x04\n      dup1\n      calldatasize\n      sub\n      dup2\n      add\n      swap1\n      tag_74\n      swap2\n      swap1\n      tag_70\n      jump\t// in\n    tag_74:\n      tag_75\n      jump\t// in\n    tag_73:\n      stop\n        /* \"contracts/Portfolio.sol\":1797:2130  function changeProject(string calldata _name,string calldata _description,string calldata _image,string calldata _githubLink,uint _projectCount) external{... */\n    tag_12:\n      callvalue\n      dup1\n      iszero\n      tag_76\n      jumpi\n      revert(0x00, 0x00)\n    tag_76:\n      pop\n      tag_77\n      0x04\n      dup1\n      calldatasize\n      sub\n      dup2\n      add\n      swap1\n      tag_78\n      swap2\n      swap1\n      tag_60\n      jump\t// in\n    tag_78:\n      tag_79\n      jump\t// in\n    tag_77:\n      stop\n        /* \"contracts/Portfolio.sol\":881:1133  string public description=\"I am pursuing B. Tech from GEHU. A good knowledge in Blockchain Development. I have experience mainly in Ethereum Blockchain. I am also active in the field of coding . I have also keen interest in learning about technology. \" */\n    tag_13:\n      callvalue\n      dup1\n      iszero\n      tag_80\n      jumpi\n      revert(0x00, 0x00)\n    tag_80:\n      pop\n      tag_81\n      tag_82\n      jump\t// in\n    tag_81:\n      mload(0x40)\n      tag_83\n      swap2\n      swap1\n      tag_66\n      jump\t// in\n    tag_83:\n      mload(0x40)\n      dup1\n      swap2\n      sub\n      swap1\n      return\n        /* \"contracts/Portfolio.sol\":718:754  Education[3] public educationDetails */\n    tag_14:\n      callvalue\n      dup1\n      iszero\n      tag_84\n      jumpi\n      revert(0x00, 0x00)\n    tag_84:\n      pop\n      tag_85\n      0x04\n      dup1\n      calldatasize\n      sub\n      dup2\n      add\n      swap1\n      tag_86\n      swap2\n      swap1\n      tag_28\n      jump\t// in\n    tag_86:\n      tag_87\n      jump\t// in\n    tag_85:\n      mload(0x40)\n      tag_88\n      swap6\n      swap5\n      swap4\n      swap3\n      swap2\n      swap1\n      tag_31\n      jump\t// in\n    tag_88:\n      mload(0x40)\n      dup1\n      swap2\n      sub\n      swap1\n      return\n        /* \"contracts/Portfolio.sol\":3041:3153  function allEductationDetails() external view returns(Education[3] memory){... */\n    tag_15:\n      callvalue\n      dup1\n      iszero\n      tag_89\n      jumpi\n      revert(0x00, 0x00)\n    tag_89:\n      pop\n      tag_90\n      tag_91\n      jump\t// in\n    tag_90:\n      mload(0x40)\n      tag_92\n      swap2\n      swap1\n      tag_93\n      jump\t// in\n    tag_92:\n      mload(0x40)\n      dup1\n      swap2\n      sub\n      swap1\n      return\n        /* \"contracts/Portfolio.sol\":2240:2613  function insertEducation(string calldata _date,string calldata _degree,string calldata _knowledgeAcquired,string calldata _instutionName) external  onlyManager{... */\n    tag_16:\n      callvalue\n      dup1\n      iszero\n      tag_94\n      jumpi\n      revert(0x00, 0x00)\n    tag_94:\n      pop\n      tag_95\n      0x04\n      dup1\n      calldatasize\n      sub\n      dup2\n      add\n      swap1\n      tag_96\n      swap2\n      swap1\n      tag_70\n      jump\t// in\n    tag_96:\n      tag_97\n      jump\t// in\n    tag_95:\n      stop\n        /* \"contracts/Portfolio.sol\":804:876  string public imageLink=\"QmSjiH4FLeLabWZruw4ZsJfwydKKRdyUPd84gg3i639Qr3\" */\n    tag_17:\n      callvalue\n      dup1\n      iszero\n      tag_98\n      jumpi\n      revert(0x00, 0x00)\n    tag_98:\n      pop\n      tag_99\n      tag_100\n      jump\t// in\n    tag_99:\n      mload(0x40)\n      tag_101\n      swap2\n      swap1\n      tag_66\n      jump\t// in\n    tag_101:\n      mload(0x40)\n      dup1\n      swap2\n      sub\n      swap1\n      return\n        /* \"contracts/Portfolio.sol\":4201:4313  function changeResumeLink(string calldata _resumeLink) external onlyManager{... */\n    tag_18:\n      callvalue\n      dup1\n      iszero\n      tag_102\n      jumpi\n      revert(0x00, 0x00)\n    tag_102:\n      pop\n      tag_103\n      0x04\n      dup1\n      calldatasize\n      sub\n      dup2\n      add\n      swap1\n      tag_104\n      swap2\n      swap1\n      tag_55\n      jump\t// in\n    tag_104:\n      tag_105\n      jump\t// in\n    tag_103:\n      stop\n        /* \"contracts/Portfolio.sol\":3541:3957  function changeExperience(string calldata _date,string calldata _post,string calldata _knowledgeAcquired,string calldata _companyName,uint _experienceDetailCount) external  onlyManager{... */\n    tag_19:\n      callvalue\n      dup1\n      iszero\n      tag_106\n      jumpi\n      revert(0x00, 0x00)\n    tag_106:\n      pop\n      tag_107\n      0x04\n      dup1\n      calldatasize\n      sub\n      dup2\n      add\n      swap1\n      tag_108\n      swap2\n      swap1\n      tag_60\n      jump\t// in\n    tag_108:\n      tag_109\n      jump\t// in\n    tag_107:\n      stop\n        /* \"contracts/Portfolio.sol\":4089:4193  function changeDescription(string calldata _description) external{... */\n    tag_20:\n      callvalue\n      dup1\n      iszero\n      tag_110\n      jumpi\n      revert(0x00, 0x00)\n    tag_110:\n      pop\n      tag_111\n      0x04\n      dup1\n      calldatasize\n      sub\n      dup2\n      add\n      swap1\n      tag_112\n      swap2\n      swap1\n      tag_55\n      jump\t// in\n    tag_112:\n      tag_113\n      jump\t// in\n    tag_111:\n      stop\n        /* \"contracts/Portfolio.sol\":4434:4517  function donate() public payable{... */\n    tag_21:\n      tag_114\n      tag_115\n      jump\t// in\n    tag_114:\n      stop\n        /* \"contracts/Portfolio.sol\":687:713  Project[3] public projects */\n    tag_29:\n      0x00\n      dup2\n      0x03\n      dup2\n      lt\n      tag_116\n      jumpi\n      0x00\n      dup1\n      revert\n    tag_116:\n      0x05\n      mul\n      add\n      0x00\n      swap2\n      pop\n      swap1\n      pop\n      dup1\n      0x00\n      add\n      sload\n      swap1\n      dup1\n      0x01\n      add\n      dup1\n      sload\n      tag_118\n      swap1\n      tag_119\n      jump\t// in\n    tag_118:\n      dup1\n      0x1f\n      add\n      0x20\n      dup1\n      swap2\n      div\n      mul\n      0x20\n      add\n      mload(0x40)\n      swap1\n      dup2\n      add\n      0x40\n      mstore\n      dup1\n      swap3\n      swap2\n      swap1\n      dup2\n      dup2\n      mstore\n      0x20\n      add\n      dup3\n      dup1\n      sload\n      tag_120\n      swap1\n      tag_119\n      jump\t// in\n    tag_120:\n      dup1\n      iszero\n      tag_121\n      jumpi\n      dup1\n      0x1f\n      lt\n      tag_122\n      jumpi\n      0x0100\n      dup1\n      dup4\n      sload\n      div\n      mul\n      dup4\n      mstore\n      swap2\n      0x20\n      add\n      swap2\n      jump(tag_121)\n    tag_122:\n      dup3\n      add\n      swap2\n      swap1\n      0x00\n      mstore\n      keccak256(0x00, 0x20)\n      swap1\n    tag_123:\n      dup2\n      sload\n      dup2\n      mstore\n      swap1\n      0x01\n      add\n      swap1\n      0x20\n      add\n      dup1\n      dup4\n      gt\n      tag_123\n      jumpi\n      dup3\n      swap1\n      sub\n      0x1f\n      and\n      dup3\n      add\n      swap2\n    tag_121:\n      pop\n      pop\n      pop\n      pop\n      pop\n      swap1\n      dup1\n      0x02\n      add\n      dup1\n      sload\n      tag_124\n      swap1\n      tag_119\n      jump\t// in\n    tag_124:\n      dup1\n      0x1f\n      add\n      0x20\n      dup1\n      swap2\n      div\n      mul\n      0x20\n      add\n      mload(0x40)\n      swap1\n      dup2\n      add\n      0x40\n      mstore\n      dup1\n      swap3\n      swap2\n      swap1\n      dup2\n      dup2\n      mstore\n      0x20\n      add\n      dup3\n      dup1\n      sload\n      tag_125\n      swap1\n      tag_119\n      jump\t// in\n    tag_125:\n      dup1\n      iszero\n      tag_126\n      jumpi\n      dup1\n      0x1f\n      lt\n      tag_127\n      jumpi\n      0x0100\n      dup1\n      dup4\n      sload\n      div\n      mul\n      dup4\n      mstore\n      swap2\n      0x20\n      add\n      swap2\n      jump(tag_126)\n    tag_127:\n      dup3\n      add\n      swap2\n      swap1\n      0x00\n      mstore\n      keccak256(0x00, 0x20)\n      swap1\n    tag_128:\n      dup2\n      sload\n      dup2\n      mstore\n      swap1\n      0x01\n      add\n      swap1\n      0x20\n      add\n      dup1\n      dup4\n      gt\n      tag_128\n      jumpi\n      dup3\n      swap1\n      sub\n      0x1f\n      and\n      dup3\n      add\n      swap2\n    tag_126:\n      pop\n      pop\n      pop\n      pop\n      pop\n      swap1\n      dup1\n      0x03\n      add\n      dup1\n      sload\n      tag_129\n      swap1\n      tag_119\n      jump\t// in\n    tag_129:\n      dup1\n      0x1f\n      add\n      0x20\n      dup1\n      swap2\n      div\n      mul\n      0x20\n      add\n      mload(0x40)\n      swap1\n      dup2\n      add\n      0x40\n      mstore\n      dup1\n      swap3\n      swap2\n      swap1\n      dup2\n      dup2\n      mstore\n      0x20\n      add\n      dup3\n      dup1\n      sload\n      tag_130\n      swap1\n      tag_119\n      jump\t// in\n    tag_130:\n      dup1\n      iszero\n      tag_131\n      jumpi\n      dup1\n      0x1f\n      lt\n      tag_132\n      jumpi\n      0x0100\n      dup1\n      dup4\n      sload\n      div\n      mul\n      dup4\n      mstore\n      swap2\n      0x20\n      add\n      swap2\n      jump(tag_131)\n    tag_132:\n      dup3\n      add\n      swap2\n      swap1\n      0x00\n      mstore\n      keccak256(0x00, 0x20)\n      swap1\n    tag_133:\n      dup2\n      sload\n      dup2\n      mstore\n      swap1\n      0x01\n      add\n      swap1\n      0x20\n      add\n      dup1\n      dup4\n      gt\n      tag_133\n      jumpi\n      dup3\n      swap1\n      sub\n      0x1f\n      and\n      dup3\n      add\n      swap2\n    tag_131:\n      pop\n      pop\n      pop\n      pop\n      pop\n      swap1\n      dup1\n      0x04\n      add\n      dup1\n      sload\n      tag_134\n      swap1\n      tag_119\n      jump\t// in\n    tag_134:\n      dup1\n      0x1f\n      add\n      0x20\n      dup1\n      swap2\n      div\n      mul\n      0x20\n      add\n      mload(0x40)\n      swap1\n      dup2\n      add\n      0x40\n      mstore\n      dup1\n      swap3\n      swap2\n      swap1\n      dup2\n      dup2\n      mstore\n      0x20\n      add\n      dup3\n      dup1\n      sload\n      tag_135\n      swap1\n      tag_119\n      jump\t// in\n    tag_135:\n      dup1\n      iszero\n      tag_136\n      jumpi\n      dup1\n      0x1f\n      lt\n      tag_137\n      jumpi\n      0x0100\n      dup1\n      dup4\n      sload\n      div\n      mul\n      dup4\n      mstore\n      swap2\n      0x20\n      add\n      swap2\n      jump(tag_136)\n    tag_137:\n      dup3\n      add\n      swap2\n      swap1\n      0x00\n      mstore\n      keccak256(0x00, 0x20)\n      swap1\n    tag_138:\n      dup2\n      sload\n      dup2\n      mstore\n      swap1\n      0x01\n      add\n      swap1\n      0x20\n      add\n      dup1\n      dup4\n      gt\n      tag_138\n      jumpi\n      dup3\n      swap1\n      sub\n      0x1f\n      and\n      dup3\n      add\n      swap2\n    tag_136:\n      pop\n      pop\n      pop\n      pop\n      pop\n      swap1\n      pop\n      dup6\n      jump\t// out\n        /* \"contracts/Portfolio.sol\":759:797  Experience[3] public experienceDetails */\n    tag_35:\n      0x1e\n      dup2\n      0x03\n      dup2\n      lt\n      tag_139\n      jumpi\n      0x00\n      dup1\n      revert\n    tag_139:\n      0x05\n      mul\n      add\n      0x00\n      swap2\n      pop\n      swap1\n      pop\n      dup1\n      0x00\n      add\n      sload\n      swap1\n      dup1\n      0x01\n      add\n      dup1\n      sload\n      tag_141\n      swap1\n      tag_119\n      jump\t// in\n    tag_141:\n      dup1\n      0x1f\n      add\n      0x20\n      dup1\n      swap2\n      div\n      mul\n      0x20\n      add\n      mload(0x40)\n      swap1\n      dup2\n      add\n      0x40\n      mstore\n      dup1\n      swap3\n      swap2\n      swap1\n      dup2\n      dup2\n      mstore\n      0x20\n      add\n      dup3\n      dup1\n      sload\n      tag_142\n      swap1\n      tag_119\n      jump\t// in\n    tag_142:\n      dup1\n      iszero\n      tag_143\n      jumpi\n      dup1\n      0x1f\n      lt\n      tag_144\n      jumpi\n      0x0100\n      dup1\n      dup4\n      sload\n      div\n      mul\n      dup4\n      mstore\n      swap2\n      0x20\n      add\n      swap2\n      jump(tag_143)\n    tag_144:\n      dup3\n      add\n      swap2\n      swap1\n      0x00\n      mstore\n      keccak256(0x00, 0x20)\n      swap1\n    tag_145:\n      dup2\n      sload\n      dup2\n      mstore\n      swap1\n      0x01\n      add\n      swap1\n      0x20\n      add\n      dup1\n      dup4\n      gt\n      tag_145\n      jumpi\n      dup3\n      swap1\n      sub\n      0x1f\n      and\n      dup3\n      add\n      swap2\n    tag_143:\n      pop\n      pop\n      pop\n      pop\n      pop\n      swap1\n      dup1\n      0x02\n      add\n      dup1\n      sload\n      tag_146\n      swap1\n      tag_119\n      jump\t// in\n    tag_146:\n      dup1\n      0x1f\n      add\n      0x20\n      dup1\n      swap2\n      div\n      mul\n      0x20\n      add\n      mload(0x40)\n      swap1\n      dup2\n      add\n      0x40\n      mstore\n      dup1\n      swap3\n      swap2\n      swap1\n      dup2\n      dup2\n      mstore\n      0x20\n      add\n      dup3\n      dup1\n      sload\n      tag_147\n      swap1\n      tag_119\n      jump\t// in\n    tag_147:\n      dup1\n      iszero\n      tag_148\n      jumpi\n      dup1\n      0x1f\n      lt\n      tag_149\n      jumpi\n      0x0100\n      dup1\n      dup4\n      sload\n      div\n      mul\n      dup4\n      mstore\n      swap2\n      0x20\n      add\n      swap2\n      jump(tag_148)\n    tag_149:\n      dup3\n      add\n      swap2\n      swap1\n      0x00\n      mstore\n      keccak256(0x00, 0x20)\n      swap1\n    tag_150:\n      dup2\n      sload\n      dup2\n      mstore\n      swap1\n      0x01\n      add\n      swap1\n      0x20\n      add\n      dup1\n      dup4\n      gt\n      tag_150\n      jumpi\n      dup3\n      swap1\n      sub\n      0x1f\n      and\n      dup3\n      add\n      swap2\n    tag_148:\n      pop\n      pop\n      pop\n      pop\n      pop\n      swap1\n      dup1\n      0x03\n      add\n      dup1\n      sload\n      tag_151\n      swap1\n      tag_119\n      jump\t// in\n    tag_151:\n      dup1\n      0x1f\n      add\n      0x20\n      dup1\n      swap2\n      div\n      mul\n      0x20\n      add\n      mload(0x40)\n      swap1\n      dup2\n      add\n      0x40\n      mstore\n      dup1\n      swap3\n      swap2\n      swap1\n      dup2\n      dup2\n      mstore\n      0x20\n      add\n      dup3\n      dup1\n      sload\n      tag_152\n      swap1\n      tag_119\n      jump\t// in\n    tag_152:\n      dup1\n      iszero\n      tag_153\n      jumpi\n      dup1\n      0x1f\n      lt\n      tag_154\n      jumpi\n      0x0100\n      dup1\n      dup4\n      sload\n      div\n      mul\n      dup4\n      mstore\n      swap2\n      0x20\n      add\n      swap2\n      jump(tag_153)\n    tag_154:\n      dup3\n      add\n      swap2\n      swap1\n      0x00\n      mstore\n      keccak256(0x00, 0x20)\n      swap1\n    tag_155:\n      dup2\n      sload\n      dup2\n      mstore\n      swap1\n      0x01\n      add\n      swap1\n      0x20\n      add\n      dup1\n      dup4\n      gt\n      tag_155\n      jumpi\n      dup3\n      swap1\n      sub\n      0x1f\n      and\n      dup3\n      add\n      swap2\n    tag_153:\n      pop\n      pop\n      pop\n      pop\n      pop\n      swap1\n      dup1\n      0x04\n      add\n      dup1\n      sload\n      tag_156\n      swap1\n      tag_119\n      jump\t// in\n    tag_156:\n      dup1\n      0x1f\n      add\n      0x20\n      dup1\n      swap2\n      div\n      mul\n      0x20\n      add\n      mload(0x40)\n      swap1\n      dup2\n      add\n      0x40\n      mstore\n      dup1\n      swap3\n      swap2\n      swap1\n      dup2\n      dup2\n      mstore\n      0x20\n      add\n      dup3\n      dup1\n      sload\n      tag_157\n      swap1\n      tag_119\n      jump\t// in\n    tag_157:\n      dup1\n      iszero\n      tag_158\n      jumpi\n      dup1\n      0x1f\n      lt\n      tag_159\n      jumpi\n      0x0100\n      dup1\n      dup4\n      sload\n      div\n      mul\n      dup4\n      mstore\n      swap2\n      0x20\n      add\n      swap2\n      jump(tag_158)\n    tag_159:\n      dup3\n      add\n      swap2\n      swap1\n      0x00\n      mstore\n      keccak256(0x00, 0x20)\n      swap1\n    tag_160:\n      dup2\n      sload\n      dup2\n      mstore\n      swap1\n      0x01\n      add\n      swap1\n      0x20\n      add\n      dup1\n      dup4\n      gt\n      tag_160\n      jumpi\n      dup3\n      swap1\n      sub\n      0x1f\n      and\n      dup3\n      add\n      swap2\n    tag_158:\n      pop\n      pop\n      pop\n      pop\n      pop\n      swap1\n      pop\n      dup6\n      jump\t// out\n        /* \"contracts/Portfolio.sol\":2136:2233  function allProjects() external view returns(Project[3] memory){... */\n    tag_39:\n        /* \"contracts/Portfolio.sol\":2181:2198  Project[3] memory */\n      tag_161\n      tag_162\n      jump\t// in\n    tag_161:\n        /* \"contracts/Portfolio.sol\":2217:2225  projects */\n      0x00\n        /* \"contracts/Portfolio.sol\":2210:2225  return projects */\n      0x03\n      dup1\n      0x20\n      mul\n      mload(0x40)\n      swap1\n      dup2\n      add\n      0x40\n      mstore\n      dup1\n      swap3\n      swap2\n      swap1\n      0x00\n      swap1\n    tag_164:\n      dup3\n      dup3\n      lt\n      iszero\n      tag_165\n      jumpi\n      dup4\n      dup3\n      0x05\n      mul\n      add\n      mload(0x40)\n      dup1\n      0xa0\n      add\n      0x40\n      mstore\n      swap1\n      dup2\n      0x00\n      dup3\n      add\n      sload\n      dup2\n      mstore\n      0x20\n      add\n      0x01\n      dup3\n      add\n      dup1\n      sload\n      tag_167\n      swap1\n      tag_119\n      jump\t// in\n    tag_167:\n      dup1\n      0x1f\n      add\n      0x20\n      dup1\n      swap2\n      div\n      mul\n      0x20\n      add\n      mload(0x40)\n      swap1\n      dup2\n      add\n      0x40\n      mstore\n      dup1\n      swap3\n      swap2\n      swap1\n      dup2\n      dup2\n      mstore\n      0x20\n      add\n      dup3\n      dup1\n      sload\n      tag_168\n      swap1\n      tag_119\n      jump\t// in\n    tag_168:\n      dup1\n      iszero\n      tag_169\n      jumpi\n      dup1\n      0x1f\n      lt\n      tag_170\n      jumpi\n      0x0100\n      dup1\n      dup4\n      sload\n      div\n      mul\n      dup4\n      mstore\n      swap2\n      0x20\n      add\n      swap2\n      jump(tag_169)\n    tag_170:\n      dup3\n      add\n      swap2\n      swap1\n      0x00\n      mstore\n      keccak256(0x00, 0x20)\n      swap1\n    tag_171:\n      dup2\n      sload\n      dup2\n      mstore\n      swap1\n      0x01\n      add\n      swap1\n      0x20\n      add\n      dup1\n      dup4\n      gt\n      tag_171\n      jumpi\n      dup3\n      swap1\n      sub\n      0x1f\n      and\n      dup3\n      add\n      swap2\n    tag_169:\n      pop\n      pop\n      pop\n      pop\n      pop\n      dup2\n      mstore\n      0x20\n      add\n      0x02\n      dup3\n      add\n      dup1\n      sload\n      tag_172\n      swap1\n      tag_119\n      jump\t// in\n    tag_172:\n      dup1\n      0x1f\n      add\n      0x20\n      dup1\n      swap2\n      div\n      mul\n      0x20\n      add\n      mload(0x40)\n      swap1\n      dup2\n      add\n      0x40\n      mstore\n      dup1\n      swap3\n      swap2\n      swap1\n      dup2\n      dup2\n      mstore\n      0x20\n      add\n      dup3\n      dup1\n      sload\n      tag_173\n      swap1\n      tag_119\n      jump\t// in\n    tag_173:\n      dup1\n      iszero\n      tag_174\n      jumpi\n      dup1\n      0x1f\n      lt\n      tag_175\n      jumpi\n      0x0100\n      dup1\n      dup4\n      sload\n      div\n      mul\n      dup4\n      mstore\n      swap2\n      0x20\n      add\n      swap2\n      jump(tag_174)\n    tag_175:\n      dup3\n      add\n      swap2\n      swap1\n      0x00\n      mstore\n      keccak256(0x00, 0x20)\n      swap1\n    tag_176:\n      dup2\n      sload\n      dup2\n      mstore\n      swap1\n      0x01\n      add\n      swap1\n      0x20\n      add\n      dup1\n      dup4\n      gt\n      tag_176\n      jumpi\n      dup3\n      swap1\n      sub\n      0x1f\n      and\n      dup3\n      add\n      swap2\n    tag_174:\n      pop\n      pop\n      pop\n      pop\n      pop\n      dup2\n      mstore\n      0x20\n      add\n      0x03\n      dup3\n      add\n      dup1\n      sload\n      tag_177\n      swap1\n      tag_119\n      jump\t// in\n    tag_177:\n      dup1\n      0x1f\n      add\n      0x20\n      dup1\n      swap2\n      div\n      mul\n      0x20\n      add\n      mload(0x40)\n      swap1\n      dup2\n      add\n      0x40\n      mstore\n      dup1\n      swap3\n      swap2\n      swap1\n      dup2\n      dup2\n      mstore\n      0x20\n      add\n      dup3\n      dup1\n      sload\n      tag_178\n      swap1\n      tag_119\n      jump\t// in\n    tag_178:\n      dup1\n      iszero\n      tag_179\n      jumpi\n      dup1\n      0x1f\n      lt\n      tag_180\n      jumpi\n      0x0100\n      dup1\n      dup4\n      sload\n      div\n      mul\n      dup4\n      mstore\n      swap2\n      0x20\n      add\n      swap2\n      jump(tag_179)\n    tag_180:\n      dup3\n      add\n      swap2\n      swap1\n      0x00\n      mstore\n      keccak256(0x00, 0x20)\n      swap1\n    tag_181:\n      dup2\n      sload\n      dup2\n      mstore\n      swap1\n      0x01\n      add\n      swap1\n      0x20\n      add\n      dup1\n      dup4\n      gt\n      tag_181\n      jumpi\n      dup3\n      swap1\n      sub\n      0x1f\n      and\n      dup3\n      add\n      swap2\n    tag_179:\n      pop\n      pop\n      pop\n      pop\n      pop\n      dup2\n      mstore\n      0x20\n      add\n      0x04\n      dup3\n      add\n      dup1\n      sload\n      tag_182\n      swap1\n      tag_119\n      jump\t// in\n    tag_182:\n      dup1\n      0x1f\n      add\n      0x20\n      dup1\n      swap2\n      div\n      mul\n      0x20\n      add\n      mload(0x40)\n      swap1\n      dup2\n      add\n      0x40\n      mstore\n      dup1\n      swap3\n      swap2\n      swap1\n      dup2\n      dup2\n      mstore\n      0x20\n      add\n      dup3\n      dup1\n      sload\n      tag_183\n      swap1\n      tag_119\n      jump\t// in\n    tag_183:\n      dup1\n      iszero\n      tag_184\n      jumpi\n      dup1\n      0x1f\n      lt\n      tag_185\n      jumpi\n      0x0100\n      dup1\n      dup4\n      sload\n      div\n      mul\n      dup4\n      mstore\n      swap2\n      0x20\n      add\n      swap2\n      jump(tag_184)\n    tag_185:\n      dup3\n      add\n      swap2\n      swap1\n      0x00\n      mstore\n      keccak256(0x00, 0x20)\n      swap1\n    tag_186:\n      dup2\n      sload\n      dup2\n      mstore\n      swap1\n      0x01\n      add\n      swap1\n      0x20\n      add\n      dup1\n      dup4\n      gt\n      tag_186\n      jumpi\n      dup3\n      swap1\n      sub\n      0x1f\n      and\n      dup3\n      add\n      swap2\n    tag_184:\n      pop\n      pop\n      pop\n      pop\n      pop\n      dup2\n      mstore\n      pop\n      pop\n      dup2\n      mstore\n      0x20\n      add\n      swap1\n      0x01\n      add\n      swap1\n      jump(tag_164)\n    tag_165:\n      pop\n      pop\n      pop\n      pop\n      swap1\n      pop\n        /* \"contracts/Portfolio.sol\":2136:2233  function allProjects() external view returns(Project[3] memory){... */\n      swap1\n      jump\t// out\n        /* \"contracts/Portfolio.sol\":3969:4085  function allExperienceDetails() external view returns(Experience[3] memory){... */\n    tag_44:\n        /* \"contracts/Portfolio.sol\":4023:4043  Experience[3] memory */\n      tag_187\n      tag_188\n      jump\t// in\n    tag_187:\n        /* \"contracts/Portfolio.sol\":4060:4077  experienceDetails */\n      0x1e\n        /* \"contracts/Portfolio.sol\":4053:4077  return experienceDetails */\n      0x03\n      dup1\n      0x20\n      mul\n      mload(0x40)\n      swap1\n      dup2\n      add\n      0x40\n      mstore\n      dup1\n      swap3\n      swap2\n      swap1\n      0x00\n      swap1\n    tag_190:\n      dup3\n      dup3\n      lt\n      iszero\n      tag_191\n      jumpi\n      dup4\n      dup3\n      0x05\n      mul\n      add\n      mload(0x40)\n      dup1\n      0xa0\n      add\n      0x40\n      mstore\n      swap1\n      dup2\n      0x00\n      dup3\n      add\n      sload\n      dup2\n      mstore\n      0x20\n      add\n      0x01\n      dup3\n      add\n      dup1\n      sload\n      tag_193\n      swap1\n      tag_119\n      jump\t// in\n    tag_193:\n      dup1\n      0x1f\n      add\n      0x20\n      dup1\n      swap2\n      div\n      mul\n      0x20\n      add\n      mload(0x40)\n      swap1\n      dup2\n      add\n      0x40\n      mstore\n      dup1\n      swap3\n      swap2\n      swap1\n      dup2\n      dup2\n      mstore\n      0x20\n      add\n      dup3\n      dup1\n      sload\n      tag_194\n      swap1\n      tag_119\n      jump\t// in\n    tag_194:\n      dup1\n      iszero\n      tag_195\n      jumpi\n      dup1\n      0x1f\n      lt\n      tag_196\n      jumpi\n      0x0100\n      dup1\n      dup4\n      sload\n      div\n      mul\n      dup4\n      mstore\n      swap2\n      0x20\n      add\n      swap2\n      jump(tag_195)\n    tag_196:\n      dup3\n      add\n      swap2\n      swap1\n      0x00\n      mstore\n      keccak256(0x00, 0x20)\n      swap1\n    tag_197:\n      dup2\n      sload\n      dup2\n      mstore\n      swap1\n      0x01\n      add\n      swap1\n      0x20\n      add\n      dup1\n      dup4\n      gt\n      tag_197\n      jumpi\n      dup3\n      swap1\n      sub\n      0x1f\n      and\n      dup3\n      add\n      swap2\n    tag_195:\n      pop\n      pop\n      pop\n      pop\n      pop\n      dup2\n      mstore\n      0x20\n      add\n      0x02\n      dup3\n      add\n      dup1\n      sload\n      tag_198\n      swap1\n      tag_119\n      jump\t// in\n    tag_198:\n      dup1\n      0x1f\n      add\n      0x20\n      dup1\n      swap2\n      div\n      mul\n      0x20\n      add\n      mload(0x40)\n      swap1\n      dup2\n      add\n      0x40\n      mstore\n      dup1\n      swap3\n      swap2\n      swap1\n      dup2\n      dup2\n      mstore\n      0x20\n      add\n      dup3\n      dup1\n      sload\n      tag_199\n      swap1\n      tag_119\n      jump\t// in\n    tag_199:\n      dup1\n      iszero\n      tag_200\n      jumpi\n      dup1\n      0x1f\n      lt\n      tag_201\n      jumpi\n      0x0100\n      dup1\n      dup4\n      sload\n      div\n      mul\n      dup4\n      mstore\n      swap2\n      0x20\n      add\n      swap2\n      jump(tag_200)\n    tag_201:\n      dup3\n      add\n      swap2\n      swap1\n      0x00\n      mstore\n      keccak256(0x00, 0x20)\n      swap1\n    tag_202:\n      dup2\n      sload\n      dup2\n      mstore\n      swap1\n      0x01\n      add\n      swap1\n      0x20\n      add\n      dup1\n      dup4\n      gt\n      tag_202\n      jumpi\n      dup3\n      swap1\n      sub\n      0x1f\n      and\n      dup3\n      add\n      swap2\n    tag_200:\n      pop\n      pop\n      pop\n      pop\n      pop\n      dup2\n      mstore\n      0x20\n      add\n      0x03\n      dup3\n      add\n      dup1\n      sload\n      tag_203\n      swap1\n      tag_119\n      jump\t// in\n    tag_203:\n      dup1\n      0x1f\n      add\n      0x20\n      dup1\n      swap2\n      div\n      mul\n      0x20\n      add\n      mload(0x40)\n      swap1\n      dup2\n      add\n      0x40\n      mstore\n      dup1\n      swap3\n      swap2\n      swap1\n      dup2\n      dup2\n      mstore\n      0x20\n      add\n      dup3\n      dup1\n      sload\n      tag_204\n      swap1\n      tag_119\n      jump\t// in\n    tag_204:\n      dup1\n      iszero\n      tag_205\n      jumpi\n      dup1\n      0x1f\n      lt\n      tag_206\n      jumpi\n      0x0100\n      dup1\n      dup4\n      sload\n      div\n      mul\n      dup4\n      mstore\n      swap2\n      0x20\n      add\n      swap2\n      jump(tag_205)\n    tag_206:\n      dup3\n      add\n      swap2\n      swap1\n      0x00\n      mstore\n      keccak256(0x00, 0x20)\n      swap1\n    tag_207:\n      dup2\n      sload\n      dup2\n      mstore\n      swap1\n      0x01\n      add\n      swap1\n      0x20\n      add\n      dup1\n      dup4\n      gt\n      tag_207\n      jumpi\n      dup3\n      swap1\n      sub\n      0x1f\n      and\n      dup3\n      add\n      swap2\n    tag_205:\n      pop\n      pop\n      pop\n      pop\n      pop\n      dup2\n      mstore\n      0x20\n      add\n      0x04\n      dup3\n      add\n      dup1\n      sload\n      tag_208\n      swap1\n      tag_119\n      jump\t// in\n    tag_208:\n      dup1\n      0x1f\n      add\n      0x20\n      dup1\n      swap2\n      div\n      mul\n      0x20\n      add\n      mload(0x40)\n      swap1\n      dup2\n      add\n      0x40\n      mstore\n      dup1\n      swap3\n      swap2\n      swap1\n      dup2\n      dup2\n      mstore\n      0x20\n      add\n      dup3\n      dup1\n      sload\n      tag_209\n      swap1\n      tag_119\n      jump\t// in\n    tag_209:\n      dup1\n      iszero\n      tag_210\n      jumpi\n      dup1\n      0x1f\n      lt\n      tag_211\n      jumpi\n      0x0100\n      dup1\n      dup4\n      sload\n      div\n      mul\n      dup4\n      mstore\n      swap2\n      0x20\n      add\n      swap2\n      jump(tag_210)\n    tag_211:\n      dup3\n      add\n      swap2\n      swap1\n      0x00\n      mstore\n      keccak256(0x00, 0x20)\n      swap1\n    tag_212:\n      dup2\n      sload\n      dup2\n      mstore\n      swap1\n      0x01\n      add\n      swap1\n      0x20\n      add\n      dup1\n      dup4\n      gt\n      tag_212\n      jumpi\n      dup3\n      swap1\n      sub\n      0x1f\n      and\n      dup3\n      add\n      swap2\n    tag_210:\n      pop\n      pop\n      pop\n      pop\n      pop\n      dup2\n      mstore\n      pop\n      pop\n      dup2\n      mstore\n      0x20\n      add\n      swap1\n      0x01\n      add\n      swap1\n      jump(tag_190)\n    tag_191:\n      pop\n      pop\n      pop\n      pop\n      swap1\n      pop\n        /* \"contracts/Portfolio.sol\":3969:4085  function allExperienceDetails() external view returns(Experience[3] memory){... */\n      swap1\n      jump\t// out\n        /* \"contracts/Portfolio.sol\":1287:1309  address public manager */\n    tag_49:\n      0x33\n      0x00\n      swap1\n      sload\n      swap1\n      0x0100\n      exp\n      swap1\n      div\n      0xffffffffffffffffffffffffffffffffffffffff\n      and\n      dup2\n      jump\t// out\n        /* \"contracts/Portfolio.sol\":4320:4428  function changeImageLink(string calldata _imageLink) external onlyManager{... */\n    tag_56:\n        /* \"contracts/Portfolio.sol\":1416:1426  msg.sender */\n      caller\n        /* \"contracts/Portfolio.sol\":1407:1426  manager==msg.sender */\n      0xffffffffffffffffffffffffffffffffffffffff\n      and\n        /* \"contracts/Portfolio.sol\":1407:1414  manager */\n      0x33\n      0x00\n      swap1\n      sload\n      swap1\n      0x0100\n      exp\n      swap1\n      div\n      0xffffffffffffffffffffffffffffffffffffffff\n      and\n        /* \"contracts/Portfolio.sol\":1407:1426  manager==msg.sender */\n      0xffffffffffffffffffffffffffffffffffffffff\n      and\n      eq\n        /* \"contracts/Portfolio.sol\":1399:1453  require(manager==msg.sender,\"You are not the manager\") */\n      tag_214\n      jumpi\n      mload(0x40)\n      0x08c379a000000000000000000000000000000000000000000000000000000000\n      dup2\n      mstore\n      0x04\n      add\n      tag_215\n      swap1\n      tag_216\n      jump\t// in\n    tag_215:\n      mload(0x40)\n      dup1\n      swap2\n      sub\n      swap1\n      revert\n    tag_214:\n        /* \"contracts/Portfolio.sol\":4412:4422  _imageLink */\n      dup2\n      dup2\n        /* \"contracts/Portfolio.sol\":4402:4411  imageLink */\n      0x2d\n        /* \"contracts/Portfolio.sol\":4402:4422  imageLink=_imageLink */\n      swap2\n      dup3\n      tag_218\n      swap3\n      swap2\n      swap1\n      tag_219\n      jump\t// in\n    tag_218:\n      pop\n        /* \"contracts/Portfolio.sol\":4320:4428  function changeImageLink(string calldata _imageLink) external onlyManager{... */\n      pop\n      pop\n      jump\t// out\n        /* \"contracts/Portfolio.sol\":2619:3033  function changeEducation(string calldata _date,string calldata _degree,string calldata _knowledgeAcquired,string calldata _instutionName,uint _educationDetailCount) external onlyManager{... */\n    tag_61:\n        /* \"contracts/Portfolio.sol\":1416:1426  msg.sender */\n      caller\n        /* \"contracts/Portfolio.sol\":1407:1426  manager==msg.sender */\n      0xffffffffffffffffffffffffffffffffffffffff\n      and\n        /* \"contracts/Portfolio.sol\":1407:1414  manager */\n      0x33\n      0x00\n      swap1\n      sload\n      swap1\n      0x0100\n      exp\n      swap1\n      div\n      0xffffffffffffffffffffffffffffffffffffffff\n      and\n        /* \"contracts/Portfolio.sol\":1407:1426  manager==msg.sender */\n      0xffffffffffffffffffffffffffffffffffffffff\n      and\n      eq\n        /* \"contracts/Portfolio.sol\":1399:1453  require(manager==msg.sender,\"You are not the manager\") */\n      tag_221\n      jumpi\n      mload(0x40)\n      0x08c379a000000000000000000000000000000000000000000000000000000000\n      dup2\n      mstore\n      0x04\n      add\n      tag_222\n      swap1\n      tag_216\n      jump\t// in\n    tag_222:\n      mload(0x40)\n      dup1\n      swap2\n      sub\n      swap1\n      revert\n    tag_221:\n        /* \"contracts/Portfolio.sol\":2844:2845  0 */\n      0x00\n        /* \"contracts/Portfolio.sol\":2821:2842  _educationDetailCount */\n      dup2\n        /* \"contracts/Portfolio.sol\":2821:2845  _educationDetailCount>=0 */\n      lt\n      iszero\n        /* \"contracts/Portfolio.sol\":2821:2872  _educationDetailCount>=0 && _educationDetailCount<3 */\n      dup1\n      iszero\n      tag_224\n      jumpi\n      pop\n        /* \"contracts/Portfolio.sol\":2871:2872  3 */\n      0x03\n        /* \"contracts/Portfolio.sol\":2849:2870  _educationDetailCount */\n      dup2\n        /* \"contracts/Portfolio.sol\":2849:2872  _educationDetailCount<3 */\n      lt\n        /* \"contracts/Portfolio.sol\":2821:2872  _educationDetailCount>=0 && _educationDetailCount<3 */\n    tag_224:\n        /* \"contracts/Portfolio.sol\":2813:2898  require(_educationDetailCount>=0 && _educationDetailCount<3,\"Invalid educationCount\") */\n      tag_225\n      jumpi\n      mload(0x40)\n      0x08c379a000000000000000000000000000000000000000000000000000000000\n      dup2\n      mstore\n      0x04\n      add\n      tag_226\n      swap1\n      tag_227\n      jump\t// in\n    tag_226:\n      mload(0x40)\n      dup1\n      swap2\n      sub\n      swap1\n      revert\n    tag_225:\n        /* \"contracts/Portfolio.sol\":2947:3027  Education(_educationDetailCount,_date,_degree,_knowledgeAcquired,_instutionName) */\n      mload(0x40)\n      dup1\n      0xa0\n      add\n      0x40\n      mstore\n      dup1\n        /* \"contracts/Portfolio.sol\":2957:2978  _educationDetailCount */\n      dup3\n        /* \"contracts/Portfolio.sol\":2947:3027  Education(_educationDetailCount,_date,_degree,_knowledgeAcquired,_instutionName) */\n      dup2\n      mstore\n      0x20\n      add\n        /* \"contracts/Portfolio.sol\":2979:2984  _date */\n      dup11\n      dup11\n        /* \"contracts/Portfolio.sol\":2947:3027  Education(_educationDetailCount,_date,_degree,_knowledgeAcquired,_instutionName) */\n      dup1\n      dup1\n      0x1f\n      add\n      0x20\n      dup1\n      swap2\n      div\n      mul\n      0x20\n      add\n      mload(0x40)\n      swap1\n      dup2\n      add\n      0x40\n      mstore\n      dup1\n      swap4\n      swap3\n      swap2\n      swap1\n      dup2\n      dup2\n      mstore\n      0x20\n      add\n      dup4\n      dup4\n      dup1\n      dup3\n      dup5\n      calldatacopy\n      0x00\n      dup2\n      dup5\n      add\n      mstore\n      not(0x1f)\n      0x1f\n      dup3\n      add\n      and\n      swap1\n      pop\n      dup1\n      dup4\n      add\n      swap3\n      pop\n      pop\n      pop\n      pop\n      pop\n      pop\n      pop\n      dup2\n      mstore\n      0x20\n      add\n        /* \"contracts/Portfolio.sol\":2985:2992  _degree */\n      dup9\n      dup9\n        /* \"contracts/Portfolio.sol\":2947:3027  Education(_educationDetailCount,_date,_degree,_knowledgeAcquired,_instutionName) */\n      dup1\n      dup1\n      0x1f\n      add\n      0x20\n      dup1\n      swap2\n      div\n      mul\n      0x20\n      add\n      mload(0x40)\n      swap1\n      dup2\n      add\n      0x40\n      mstore\n      dup1\n      swap4\n      swap3\n      swap2\n      swap1\n      dup2\n      dup2\n      mstore\n      0x20\n      add\n      dup4\n      dup4\n      dup1\n      dup3\n      dup5\n      calldatacopy\n      0x00\n      dup2\n      dup5\n      add\n      mstore\n      not(0x1f)\n      0x1f\n      dup3\n      add\n      and\n      swap1\n      pop\n      dup1\n      dup4\n      add\n      swap3\n      pop\n      pop\n      pop\n      pop\n      pop\n      pop\n      pop\n      dup2\n      mstore\n      0x20\n      add\n        /* \"contracts/Portfolio.sol\":2993:3011  _knowledgeAcquired */\n      dup7\n      dup7\n        /* \"contracts/Portfolio.sol\":2947:3027  Education(_educationDetailCount,_date,_degree,_knowledgeAcquired,_instutionName) */\n      dup1\n      dup1\n      0x1f\n      add\n      0x20\n      dup1\n      swap2\n      div\n      mul\n      0x20\n      add\n      mload(0x40)\n      swap1\n      dup2\n      add\n      0x40\n      mstore\n      dup1\n      swap4\n      swap3\n      swap2\n      swap1\n      dup2\n      dup2\n      mstore\n      0x20\n      add\n      dup4\n      dup4\n      dup1\n      dup3\n      dup5\n      calldatacopy\n      0x00\n      dup2\n      dup5\n      add\n      mstore\n      not(0x1f)\n      0x1f\n      dup3\n      add\n      and\n      swap1\n      pop\n      dup1\n      dup4\n      add\n      swap3\n      pop\n      pop\n      pop\n      pop\n      pop\n      pop\n      pop\n      dup2\n      mstore\n      0x20\n      add\n        /* \"contracts/Portfolio.sol\":3012:3026  _instutionName */\n      dup5\n      dup5\n        /* \"contracts/Portfolio.sol\":2947:3027  Education(_educationDetailCount,_date,_degree,_knowledgeAcquired,_instutionName) */\n      dup1\n      dup1\n      0x1f\n      add\n      0x20\n      dup1\n      swap2\n      div\n      mul\n      0x20\n      add\n      mload(0x40)\n      swap1\n      dup2\n      add\n      0x40\n      mstore\n      dup1\n      swap4\n      swap3\n      swap2\n      swap1\n      dup2\n      dup2\n      mstore\n      0x20\n      add\n      dup4\n      dup4\n      dup1\n      dup3\n      dup5\n      calldatacopy\n      0x00\n      dup2\n      dup5\n      add\n      mstore\n      not(0x1f)\n      0x1f\n      dup3\n      add\n      and\n      swap1\n      pop\n      dup1\n      dup4\n      add\n      swap3\n      pop\n      pop\n      pop\n      pop\n      pop\n      pop\n      pop\n      dup2\n      mstore\n      pop\n        /* \"contracts/Portfolio.sol\":2907:2923  educationDetails */\n      0x0f\n        /* \"contracts/Portfolio.sol\":2924:2945  _educationDetailCount */\n      dup3\n        /* \"contracts/Portfolio.sol\":2907:2946  educationDetails[_educationDetailCount] */\n      0x03\n      dup2\n      lt\n      tag_228\n      jumpi\n      tag_229\n      tag_230\n      jump\t// in\n    tag_229:\n    tag_228:\n      0x05\n      mul\n      add\n        /* \"contracts/Portfolio.sol\":2907:3027  educationDetails[_educationDetailCount]=Education(_educationDetailCount,_date,_degree,_knowledgeAcquired,_instutionName) */\n      0x00\n      dup3\n      add\n      mload\n      dup2\n      0x00\n      add\n      sstore\n      0x20\n      dup3\n      add\n      mload\n      dup2\n      0x01\n      add\n      swap1\n      dup2\n      tag_232\n      swap2\n      swap1\n      tag_233\n      jump\t// in\n    tag_232:\n      pop\n      0x40\n      dup3\n      add\n      mload\n      dup2\n      0x02\n      add\n      swap1\n      dup2\n      tag_234\n      swap2\n      swap1\n      tag_233\n      jump\t// in\n    tag_234:\n      pop\n      0x60\n      dup3\n      add\n      mload\n      dup2\n      0x03\n      add\n      swap1\n      dup2\n      tag_235\n      swap2\n      swap1\n      tag_233\n      jump\t// in\n    tag_235:\n      pop\n      0x80\n      dup3\n      add\n      mload\n      dup2\n      0x04\n      add\n      swap1\n      dup2\n      tag_236\n      swap2\n      swap1\n      tag_233\n      jump\t// in\n    tag_236:\n      pop\n      swap1\n      pop\n      pop\n        /* \"contracts/Portfolio.sol\":2619:3033  function changeEducation(string calldata _date,string calldata _degree,string calldata _knowledgeAcquired,string calldata _instutionName,uint _educationDetailCount) external onlyManager{... */\n      pop\n      pop\n      pop\n      pop\n      pop\n      pop\n      pop\n      pop\n      pop\n      jump\t// out\n        /* \"contracts/Portfolio.sol\":1138:1211  string public resumeLink=\"QmTYG6xTsWvnK7NWUeDt9vZHT9a4YMmcD7mg1VAf2Z9uHT\" */\n    tag_64:\n      0x2f\n      dup1\n      sload\n      tag_237\n      swap1\n      tag_119\n      jump\t// in\n    tag_237:\n      dup1\n      0x1f\n      add\n      0x20\n      dup1\n      swap2\n      div\n      mul\n      0x20\n      add\n      mload(0x40)\n      swap1\n      dup2\n      add\n      0x40\n      mstore\n      dup1\n      swap3\n      swap2\n      swap1\n      dup2\n      dup2\n      mstore\n      0x20\n      add\n      dup3\n      dup1\n      sload\n      tag_238\n      swap1\n      tag_119\n      jump\t// in\n    tag_238:\n      dup1\n      iszero\n      tag_239\n      jumpi\n      dup1\n      0x1f\n      lt\n      tag_240\n      jumpi\n      0x0100\n      dup1\n      dup4\n      sload\n      div\n      mul\n      dup4\n      mstore\n      swap2\n      0x20\n      add\n      swap2\n      jump(tag_239)\n    tag_240:\n      dup3\n      add\n      swap2\n      swap1\n      0x00\n      mstore\n      keccak256(0x00, 0x20)\n      swap1\n    tag_241:\n      dup2\n      sload\n      dup2\n      mstore\n      swap1\n      0x01\n      add\n      swap1\n      0x20\n      add\n      dup1\n      dup4\n      gt\n      tag_241\n      jumpi\n      dup3\n      swap1\n      sub\n      0x1f\n      and\n      dup3\n      add\n      swap2\n    tag_239:\n      pop\n      pop\n      pop\n      pop\n      pop\n      dup2\n      jump\t// out\n        /* \"contracts/Portfolio.sol\":3161:3533  function insertExperience(string calldata _date,string calldata _post,string calldata _knowledgeAcquired,string calldata _companyName) external  onlyManager{... */\n    tag_71:\n        /* \"contracts/Portfolio.sol\":1416:1426  msg.sender */\n      caller\n        /* \"contracts/Portfolio.sol\":1407:1426  manager==msg.sender */\n      0xffffffffffffffffffffffffffffffffffffffff\n      and\n        /* \"contracts/Portfolio.sol\":1407:1414  manager */\n      0x33\n      0x00\n      swap1\n      sload\n      swap1\n      0x0100\n      exp\n      swap1\n      div\n      0xffffffffffffffffffffffffffffffffffffffff\n      and\n        /* \"contracts/Portfolio.sol\":1407:1426  manager==msg.sender */\n      0xffffffffffffffffffffffffffffffffffffffff\n      and\n      eq\n        /* \"contracts/Portfolio.sol\":1399:1453  require(manager==msg.sender,\"You are not the manager\") */\n      tag_243\n      jumpi\n      mload(0x40)\n      0x08c379a000000000000000000000000000000000000000000000000000000000\n      dup2\n      mstore\n      0x04\n      add\n      tag_244\n      swap1\n      tag_216\n      jump\t// in\n    tag_244:\n      mload(0x40)\n      dup1\n      swap2\n      sub\n      swap1\n      revert\n    tag_243:\n        /* \"contracts/Portfolio.sol\":3349:3350  3 */\n      0x03\n        /* \"contracts/Portfolio.sol\":3333:3348  experienceCount */\n      sload(0x32)\n        /* \"contracts/Portfolio.sol\":3333:3350  experienceCount<3 */\n      lt\n        /* \"contracts/Portfolio.sol\":3325:3386  require(experienceCount<3,\"Only 3 education details allowed\") */\n      tag_246\n      jumpi\n      mload(0x40)\n      0x08c379a000000000000000000000000000000000000000000000000000000000\n      dup2\n      mstore\n      0x04\n      add\n      tag_247\n      swap1\n      tag_248\n      jump\t// in\n    tag_247:\n      mload(0x40)\n      dup1\n      swap2\n      sub\n      swap1\n      revert\n    tag_246:\n        /* \"contracts/Portfolio.sol\":3429:3500  Experience(experienceCount,_date,_post,_knowledgeAcquired,_companyName) */\n      mload(0x40)\n      dup1\n      0xa0\n      add\n      0x40\n      mstore\n      dup1\n        /* \"contracts/Portfolio.sol\":3440:3455  experienceCount */\n      sload(0x32)\n        /* \"contracts/Portfolio.sol\":3429:3500  Experience(experienceCount,_date,_post,_knowledgeAcquired,_companyName) */\n      dup2\n      mstore\n      0x20\n      add\n        /* \"contracts/Portfolio.sol\":3456:3461  _date */\n      dup10\n      dup10\n        /* \"contracts/Portfolio.sol\":3429:3500  Experience(experienceCount,_date,_post,_knowledgeAcquired,_companyName) */\n      dup1\n      dup1\n      0x1f\n      add\n      0x20\n      dup1\n      swap2\n      div\n      mul\n      0x20\n      add\n      mload(0x40)\n      swap1\n      dup2\n      add\n      0x40\n      mstore\n      dup1\n      swap4\n      swap3\n      swap2\n      swap1\n      dup2\n      dup2\n      mstore\n      0x20\n      add\n      dup4\n      dup4\n      dup1\n      dup3\n      dup5\n      calldatacopy\n      0x00\n      dup2\n      dup5\n      add\n      mstore\n      not(0x1f)\n      0x1f\n      dup3\n      add\n      and\n      swap1\n      pop\n      dup1\n      dup4\n      add\n      swap3\n      pop\n      pop\n      pop\n      pop\n      pop\n      pop\n      pop\n      dup2\n      mstore\n      0x20\n      add\n        /* \"contracts/Portfolio.sol\":3462:3467  _post */\n      dup8\n      dup8\n        /* \"contracts/Portfolio.sol\":3429:3500  Experience(experienceCount,_date,_post,_knowledgeAcquired,_companyName) */\n      dup1\n      dup1\n      0x1f\n      add\n      0x20\n      dup1\n      swap2\n      div\n      mul\n      0x20\n      add\n      mload(0x40)\n      swap1\n      dup2\n      add\n      0x40\n      mstore\n      dup1\n      swap4\n      swap3\n      swap2\n      swap1\n      dup2\n      dup2\n      mstore\n      0x20\n      add\n      dup4\n      dup4\n      dup1\n      dup3\n      dup5\n      calldatacopy\n      0x00\n      dup2\n      dup5\n      add\n      mstore\n      not(0x1f)\n      0x1f\n      dup3\n      add\n      and\n      swap1\n      pop\n      dup1\n      dup4\n      add\n      swap3\n      pop\n      pop\n      pop\n      pop\n      pop\n      pop\n      pop\n      dup2\n      mstore\n      0x20\n      add\n        /* \"contracts/Portfolio.sol\":3468:3486  _knowledgeAcquired */\n      dup6\n      dup6\n        /* \"contracts/Portfolio.sol\":3429:3500  Experience(experienceCount,_date,_post,_knowledgeAcquired,_companyName) */\n      dup1\n      dup1\n      0x1f\n      add\n      0x20\n      dup1\n      swap2\n      div\n      mul\n      0x20\n      add\n      mload(0x40)\n      swap1\n      dup2\n      add\n      0x40\n      mstore\n      dup1\n      swap4\n      swap3\n      swap2\n      swap1\n      dup2\n      dup2\n      mstore\n      0x20\n      add\n      dup4\n      dup4\n      dup1\n      dup3\n      dup5\n      calldatacopy\n      0x00\n      dup2\n      dup5\n      add\n      mstore\n      not(0x1f)\n      0x1f\n      dup3\n      add\n      and\n      swap1\n      pop\n      dup1\n      dup4\n      add\n      swap3\n      pop\n      pop\n      pop\n      pop\n      pop\n      pop\n      pop\n      dup2\n      mstore\n      0x20\n      add\n        /* \"contracts/Portfolio.sol\":3487:3499  _companyName */\n      dup4\n      dup4\n        /* \"contracts/Portfolio.sol\":3429:3500  Experience(experienceCount,_date,_post,_knowledgeAcquired,_companyName) */\n      dup1\n      dup1\n      0x1f\n      add\n      0x20\n      dup1\n      swap2\n      div\n      mul\n      0x20\n      add\n      mload(0x40)\n      swap1\n      dup2\n      add\n      0x40\n      mstore\n      dup1\n      swap4\n      swap3\n      swap2\n      swap1\n      dup2\n      dup2\n      mstore\n      0x20\n      add\n      dup4\n      dup4\n      dup1\n      dup3\n      dup5\n      calldatacopy\n      0x00\n      dup2\n      dup5\n      add\n      mstore\n      not(0x1f)\n      0x1f\n      dup3\n      add\n      and\n      swap1\n      pop\n      dup1\n      dup4\n      add\n      swap3\n      pop\n      pop\n      pop\n      pop\n      pop\n      pop\n      pop\n      dup2\n      mstore\n      pop\n        /* \"contracts/Portfolio.sol\":3394:3411  experienceDetails */\n      0x1e\n        /* \"contracts/Portfolio.sol\":3412:3427  experienceCount */\n      sload(0x32)\n        /* \"contracts/Portfolio.sol\":3394:3428  experienceDetails[experienceCount] */\n      0x03\n      dup2\n      lt\n      tag_249\n      jumpi\n      tag_250\n      tag_230\n      jump\t// in\n    tag_250:\n    tag_249:\n      0x05\n      mul\n      add\n        /* \"contracts/Portfolio.sol\":3394:3500  experienceDetails[experienceCount]=Experience(experienceCount,_date,_post,_knowledgeAcquired,_companyName) */\n      0x00\n      dup3\n      add\n      mload\n      dup2\n      0x00\n      add\n      sstore\n      0x20\n      dup3\n      add\n      mload\n      dup2\n      0x01\n      add\n      swap1\n      dup2\n      tag_252\n      swap2\n      swap1\n      tag_233\n      jump\t// in\n    tag_252:\n      pop\n      0x40\n      dup3\n      add\n      mload\n      dup2\n      0x02\n      add\n      swap1\n      dup2\n      tag_253\n      swap2\n      swap1\n      tag_233\n      jump\t// in\n    tag_253:\n      pop\n      0x60\n      dup3\n      add\n      mload\n      dup2\n      0x03\n      add\n      swap1\n      dup2\n      tag_254\n      swap2\n      swap1\n      tag_233\n      jump\t// in\n    tag_254:\n      pop\n      0x80\n      dup3\n      add\n      mload\n      dup2\n      0x04\n      add\n      swap1\n      dup2\n      tag_255\n      swap2\n      swap1\n      tag_233\n      jump\t// in\n    tag_255:\n      pop\n      swap1\n      pop\n      pop\n        /* \"contracts/Portfolio.sol\":3508:3523  experienceCount */\n      0x32\n      0x00\n        /* \"contracts/Portfolio.sol\":3508:3525  experienceCount++ */\n      dup2\n      sload\n      dup1\n      swap3\n      swap2\n      swap1\n      tag_256\n      swap1\n      tag_257\n      jump\t// in\n    tag_256:\n      swap2\n      swap1\n      pop\n      sstore\n      pop\n        /* \"contracts/Portfolio.sol\":3161:3533  function insertExperience(string calldata _date,string calldata _post,string calldata _knowledgeAcquired,string calldata _companyName) external  onlyManager{... */\n      pop\n      pop\n      pop\n      pop\n      pop\n      pop\n      pop\n      pop\n      jump\t// out\n        /* \"contracts/Portfolio.sol\":1477:1791  function insertProject(string calldata _name,string calldata _description,string calldata _image,string calldata _githubLink) external{... */\n    tag_75:\n        /* \"contracts/Portfolio.sol\":1641:1642  3 */\n      0x03\n        /* \"contracts/Portfolio.sol\":1628:1640  projectCount */\n      sload(0x30)\n        /* \"contracts/Portfolio.sol\":1628:1642  projectCount<3 */\n      lt\n        /* \"contracts/Portfolio.sol\":1620:1669  require(projectCount<3,\"Only 3 projects allowed\") */\n      tag_259\n      jumpi\n      mload(0x40)\n      0x08c379a000000000000000000000000000000000000000000000000000000000\n      dup2\n      mstore\n      0x04\n      add\n      tag_260\n      swap1\n      tag_261\n      jump\t// in\n    tag_260:\n      mload(0x40)\n      dup1\n      swap2\n      sub\n      swap1\n      revert\n    tag_259:\n        /* \"contracts/Portfolio.sol\":1703:1762  Project(projectCount,_name,_description,_image,_githubLink) */\n      mload(0x40)\n      dup1\n      0xa0\n      add\n      0x40\n      mstore\n      dup1\n        /* \"contracts/Portfolio.sol\":1711:1723  projectCount */\n      sload(0x30)\n        /* \"contracts/Portfolio.sol\":1703:1762  Project(projectCount,_name,_description,_image,_githubLink) */\n      dup2\n      mstore\n      0x20\n      add\n        /* \"contracts/Portfolio.sol\":1724:1729  _name */\n      dup10\n      dup10\n        /* \"contracts/Portfolio.sol\":1703:1762  Project(projectCount,_name,_description,_image,_githubLink) */\n      dup1\n      dup1\n      0x1f\n      add\n      0x20\n      dup1\n      swap2\n      div\n      mul\n      0x20\n      add\n      mload(0x40)\n      swap1\n      dup2\n      add\n      0x40\n      mstore\n      dup1\n      swap4\n      swap3\n      swap2\n      swap1\n      dup2\n      dup2\n      mstore\n      0x20\n      add\n      dup4\n      dup4\n      dup1\n      dup3\n      dup5\n      calldatacopy\n      0x00\n      dup2\n      dup5\n      add\n      mstore\n      not(0x1f)\n      0x1f\n      dup3\n      add\n      and\n      swap1\n      pop\n      dup1\n      dup4\n      add\n      swap3\n      pop\n      pop\n      pop\n      pop\n      pop\n      pop\n      pop\n      dup2\n      mstore\n      0x20\n      add\n        /* \"contracts/Portfolio.sol\":1730:1742  _description */\n      dup8\n      dup8\n        /* \"contracts/Portfolio.sol\":1703:1762  Project(projectCount,_name,_description,_image,_githubLink) */\n      dup1\n      dup1\n      0x1f\n      add\n      0x20\n      dup1\n      swap2\n      div\n      mul\n      0x20\n      add\n      mload(0x40)\n      swap1\n      dup2\n      add\n      0x40\n      mstore\n      dup1\n      swap4\n      swap3\n      swap2\n      swap1\n      dup2\n      dup2\n      mstore\n      0x20\n      add\n      dup4\n      dup4\n      dup1\n      dup3\n      dup5\n      calldatacopy\n      0x00\n      dup2\n      dup5\n      add\n      mstore\n      not(0x1f)\n      0x1f\n      dup3\n      add\n      and\n      swap1\n      pop\n      dup1\n      dup4\n      add\n      swap3\n      pop\n      pop\n      pop\n      pop\n      pop\n      pop\n      pop\n      dup2\n      mstore\n      0x20\n      add\n        /* \"contracts/Portfolio.sol\":1743:1749  _image */\n      dup6\n      dup6\n        /* \"contracts/Portfolio.sol\":1703:1762  Project(projectCount,_name,_description,_image,_githubLink) */\n      dup1\n      dup1\n      0x1f\n      add\n      0x20\n      dup1\n      swap2\n      div\n      mul\n      0x20\n      add\n      mload(0x40)\n      swap1\n      dup2\n      add\n      0x40\n      mstore\n      dup1\n      swap4\n      swap3\n      swap2\n      swap1\n      dup2\n      dup2\n      mstore\n      0x20\n      add\n      dup4\n      dup4\n      dup1\n      dup3\n      dup5\n      calldatacopy\n      0x00\n      dup2\n      dup5\n      add\n      mstore\n      not(0x1f)\n      0x1f\n      dup3\n      add\n      and\n      swap1\n      pop\n      dup1\n      dup4\n      add\n      swap3\n      pop\n      pop\n      pop\n      pop\n      pop\n      pop\n      pop\n      dup2\n      mstore\n      0x20\n      add\n        /* \"contracts/Portfolio.sol\":1750:1761  _githubLink */\n      dup4\n      dup4\n        /* \"contracts/Portfolio.sol\":1703:1762  Project(projectCount,_name,_description,_image,_githubLink) */\n      dup1\n      dup1\n      0x1f\n      add\n      0x20\n      dup1\n      swap2\n      div\n      mul\n      0x20\n      add\n      mload(0x40)\n      swap1\n      dup2\n      add\n      0x40\n      mstore\n      dup1\n      swap4\n      swap3\n      swap2\n      swap1\n      dup2\n      dup2\n      mstore\n      0x20\n      add\n      dup4\n      dup4\n      dup1\n      dup3\n      dup5\n      calldatacopy\n      0x00\n      dup2\n      dup5\n      add\n      mstore\n      not(0x1f)\n      0x1f\n      dup3\n      add\n      and\n      swap1\n      pop\n      dup1\n      dup4\n      add\n      swap3\n      pop\n      pop\n      pop\n      pop\n      pop\n      pop\n      pop\n      dup2\n      mstore\n      pop\n        /* \"contracts/Portfolio.sol\":1678:1686  projects */\n      0x00\n        /* \"contracts/Portfolio.sol\":1687:1699  projectCount */\n      sload(0x30)\n        /* \"contracts/Portfolio.sol\":1678:1700  projects[projectCount] */\n      0x03\n      dup2\n      lt\n      tag_262\n      jumpi\n      tag_263\n      tag_230\n      jump\t// in\n    tag_263:\n    tag_262:\n      0x05\n      mul\n      add\n        /* \"contracts/Portfolio.sol\":1678:1762  projects[projectCount] = Project(projectCount,_name,_description,_image,_githubLink) */\n      0x00\n      dup3\n      add\n      mload\n      dup2\n      0x00\n      add\n      sstore\n      0x20\n      dup3\n      add\n      mload\n      dup2\n      0x01\n      add\n      swap1\n      dup2\n      tag_265\n      swap2\n      swap1\n      tag_233\n      jump\t// in\n    tag_265:\n      pop\n      0x40\n      dup3\n      add\n      mload\n      dup2\n      0x02\n      add\n      swap1\n      dup2\n      tag_266\n      swap2\n      swap1\n      tag_233\n      jump\t// in\n    tag_266:\n      pop\n      0x60\n      dup3\n      add\n      mload\n      dup2\n      0x03\n      add\n      swap1\n      dup2\n      tag_267\n      swap2\n      swap1\n      tag_233\n      jump\t// in\n    tag_267:\n      pop\n      0x80\n      dup3\n      add\n      mload\n      dup2\n      0x04\n      add\n      swap1\n      dup2\n      tag_268\n      swap2\n      swap1\n      tag_233\n      jump\t// in\n    tag_268:\n      pop\n      swap1\n      pop\n      pop\n        /* \"contracts/Portfolio.sol\":1771:1783  projectCount */\n      0x30\n      0x00\n        /* \"contracts/Portfolio.sol\":1771:1785  projectCount++ */\n      dup2\n      sload\n      dup1\n      swap3\n      swap2\n      swap1\n      tag_269\n      swap1\n      tag_257\n      jump\t// in\n    tag_269:\n      swap2\n      swap1\n      pop\n      sstore\n      pop\n        /* \"contracts/Portfolio.sol\":1477:1791  function insertProject(string calldata _name,string calldata _description,string calldata _image,string calldata _githubLink) external{... */\n      pop\n      pop\n      pop\n      pop\n      pop\n      pop\n      pop\n      pop\n      jump\t// out\n        /* \"contracts/Portfolio.sol\":1797:2130  function changeProject(string calldata _name,string calldata _description,string calldata _image,string calldata _githubLink,uint _projectCount) external{... */\n    tag_79:\n        /* \"contracts/Portfolio.sol\":1983:1984  0 */\n      0x00\n        /* \"contracts/Portfolio.sol\":1968:1981  _projectCount */\n      dup2\n        /* \"contracts/Portfolio.sol\":1968:1984  _projectCount>=0 */\n      lt\n      iszero\n        /* \"contracts/Portfolio.sol\":1968:2003  _projectCount>=0 && _projectCount<3 */\n      dup1\n      iszero\n      tag_271\n      jumpi\n      pop\n        /* \"contracts/Portfolio.sol\":2002:2003  3 */\n      0x03\n        /* \"contracts/Portfolio.sol\":1988:2001  _projectCount */\n      dup2\n        /* \"contracts/Portfolio.sol\":1988:2003  _projectCount<3 */\n      lt\n        /* \"contracts/Portfolio.sol\":1968:2003  _projectCount>=0 && _projectCount<3 */\n    tag_271:\n        /* \"contracts/Portfolio.sol\":1960:2030  require(_projectCount>=0 && _projectCount<3,\"Only 3 projects allowed\") */\n      tag_272\n      jumpi\n      mload(0x40)\n      0x08c379a000000000000000000000000000000000000000000000000000000000\n      dup2\n      mstore\n      0x04\n      add\n      tag_273\n      swap1\n      tag_261\n      jump\t// in\n    tag_273:\n      mload(0x40)\n      dup1\n      swap2\n      sub\n      swap1\n      revert\n    tag_272:\n        /* \"contracts/Portfolio.sol\":2064:2124  Project(_projectCount,_name,_description,_image,_githubLink) */\n      mload(0x40)\n      dup1\n      0xa0\n      add\n      0x40\n      mstore\n      dup1\n        /* \"contracts/Portfolio.sol\":2072:2085  _projectCount */\n      dup3\n        /* \"contracts/Portfolio.sol\":2064:2124  Project(_projectCount,_name,_description,_image,_githubLink) */\n      dup2\n      mstore\n      0x20\n      add\n        /* \"contracts/Portfolio.sol\":2086:2091  _name */\n      dup11\n      dup11\n        /* \"contracts/Portfolio.sol\":2064:2124  Project(_projectCount,_name,_description,_image,_githubLink) */\n      dup1\n      dup1\n      0x1f\n      add\n      0x20\n      dup1\n      swap2\n      div\n      mul\n      0x20\n      add\n      mload(0x40)\n      swap1\n      dup2\n      add\n      0x40\n      mstore\n      dup1\n      swap4\n      swap3\n      swap2\n      swap1\n      dup2\n      dup2\n      mstore\n      0x20\n      add\n      dup4\n      dup4\n      dup1\n      dup3\n      dup5\n      calldatacopy\n      0x00\n      dup2\n      dup5\n      add\n      mstore\n      not(0x1f)\n      0x1f\n      dup3\n      add\n      and\n      swap1\n      pop\n      dup1\n      dup4\n      add\n      swap3\n      pop\n      pop\n      pop\n      pop\n      pop\n      pop\n      pop\n      dup2\n      mstore\n      0x20\n      add\n        /* \"contracts/Portfolio.sol\":2092:2104  _description */\n      dup9\n      dup9\n        /* \"contracts/Portfolio.sol\":2064:2124  Project(_projectCount,_name,_description,_image,_githubLink) */\n      dup1\n      dup1\n      0x1f\n      add\n      0x20\n      dup1\n      swap2\n      div\n      mul\n      0x20\n      add\n      mload(0x40)\n      swap1\n      dup2\n      add\n      0x40\n      mstore\n      dup1\n      swap4\n      swap3\n      swap2\n      swap1\n      dup2\n      dup2\n      mstore\n      0x20\n      add\n      dup4\n      dup4\n      dup1\n      dup3\n      dup5\n      calldatacopy\n      0x00\n      dup2\n      dup5\n      add\n      mstore\n      not(0x1f)\n      0x1f\n      dup3\n      add\n      and\n      swap1\n      pop\n      dup1\n      dup4\n      add\n      swap3\n      pop\n      pop\n      pop\n      pop\n      pop\n      pop\n      pop\n      dup2\n      mstore\n      0x20\n      add\n        /* \"contracts/Portfolio.sol\":2105:2111  _image */\n      dup7\n      dup7\n        /* \"contracts/Portfolio.sol\":2064:2124  Project(_projectCount,_name,_description,_image,_githubLink) */\n      dup1\n      dup1\n      0x1f\n      add\n      0x20\n      dup1\n      swap2\n      div\n      mul\n      0x20\n      add\n      mload(0x40)\n      swap1\n      dup2\n      add\n      0x40\n      mstore\n      dup1\n      swap4\n      swap3\n      swap2\n      swap1\n      dup2\n      dup2\n      mstore\n      0x20\n      add\n      dup4\n      dup4\n      dup1\n      dup3\n      dup5\n      calldatacopy\n      0x00\n      dup2\n      dup5\n      add\n      mstore\n      not(0x1f)\n      0x1f\n      dup3\n      add\n      and\n      swap1\n      pop\n      dup1\n      dup4\n      add\n      swap3\n      pop\n      pop\n      pop\n      pop\n      pop\n      pop\n      pop\n      dup2\n      mstore\n      0x20\n      add\n        /* \"contracts/Portfolio.sol\":2112:2123  _githubLink */\n      dup5\n      dup5\n        /* \"contracts/Portfolio.sol\":2064:2124  Project(_projectCount,_name,_description,_image,_githubLink) */\n      dup1\n      dup1\n      0x1f\n      add\n      0x20\n      dup1\n      swap2\n      div\n      mul\n      0x20\n      add\n      mload(0x40)\n      swap1\n      dup2\n      add\n      0x40\n      mstore\n      dup1\n      swap4\n      swap3\n      swap2\n      swap1\n      dup2\n      dup2\n      mstore\n      0x20\n      add\n      dup4\n      dup4\n      dup1\n      dup3\n      dup5\n      calldatacopy\n      0x00\n      dup2\n      dup5\n      add\n      mstore\n      not(0x1f)\n      0x1f\n      dup3\n      add\n      and\n      swap1\n      pop\n      dup1\n      dup4\n      add\n      swap3\n      pop\n      pop\n      pop\n      pop\n      pop\n      pop\n      pop\n      dup2\n      mstore\n      pop\n        /* \"contracts/Portfolio.sol\":2039:2047  projects */\n      0x00\n        /* \"contracts/Portfolio.sol\":2048:2060  projectCount */\n      sload(0x30)\n        /* \"contracts/Portfolio.sol\":2039:2061  projects[projectCount] */\n      0x03\n      dup2\n      lt\n      tag_274\n      jumpi\n      tag_275\n      tag_230\n      jump\t// in\n    tag_275:\n    tag_274:\n      0x05\n      mul\n      add\n        /* \"contracts/Portfolio.sol\":2039:2124  projects[projectCount] = Project(_projectCount,_name,_description,_image,_githubLink) */\n      0x00\n      dup3\n      add\n      mload\n      dup2\n      0x00\n      add\n      sstore\n      0x20\n      dup3\n      add\n      mload\n      dup2\n      0x01\n      add\n      swap1\n      dup2\n      tag_277\n      swap2\n      swap1\n      tag_233\n      jump\t// in\n    tag_277:\n      pop\n      0x40\n      dup3\n      add\n      mload\n      dup2\n      0x02\n      add\n      swap1\n      dup2\n      tag_278\n      swap2\n      swap1\n      tag_233\n      jump\t// in\n    tag_278:\n      pop\n      0x60\n      dup3\n      add\n      mload\n      dup2\n      0x03\n      add\n      swap1\n      dup2\n      tag_279\n      swap2\n      swap1\n      tag_233\n      jump\t// in\n    tag_279:\n      pop\n      0x80\n      dup3\n      add\n      mload\n      dup2\n      0x04\n      add\n      swap1\n      dup2\n      tag_280\n      swap2\n      swap1\n      tag_233\n      jump\t// in\n    tag_280:\n      pop\n      swap1\n      pop\n      pop\n        /* \"contracts/Portfolio.sol\":1797:2130  function changeProject(string calldata _name,string calldata _description,string calldata _image,string calldata _githubLink,uint _projectCount) external{... */\n      pop\n      pop\n      pop\n      pop\n      pop\n      pop\n      pop\n      pop\n      pop\n      jump\t// out\n        /* \"contracts/Portfolio.sol\":881:1133  string public description=\"I am pursuing B. Tech from GEHU. A good knowledge in Blockchain Development. I have experience mainly in Ethereum Blockchain. I am also active in the field of coding . I have also keen interest in learning about technology. \" */\n    tag_82:\n      0x2e\n      dup1\n      sload\n      tag_281\n      swap1\n      tag_119\n      jump\t// in\n    tag_281:\n      dup1\n      0x1f\n      add\n      0x20\n      dup1\n      swap2\n      div\n      mul\n      0x20\n      add\n      mload(0x40)\n      swap1\n      dup2\n      add\n      0x40\n      mstore\n      dup1\n      swap3\n      swap2\n      swap1\n      dup2\n      dup2\n      mstore\n      0x20\n      add\n      dup3\n      dup1\n      sload\n      tag_282\n      swap1\n      tag_119\n      jump\t// in\n    tag_282:\n      dup1\n      iszero\n      tag_283\n      jumpi\n      dup1\n      0x1f\n      lt\n      tag_284\n      jumpi\n      0x0100\n      dup1\n      dup4\n      sload\n      div\n      mul\n      dup4\n      mstore\n      swap2\n      0x20\n      add\n      swap2\n      jump(tag_283)\n    tag_284:\n      dup3\n      add\n      swap2\n      swap1\n      0x00\n      mstore\n      keccak256(0x00, 0x20)\n      swap1\n    tag_285:\n      dup2\n      sload\n      dup2\n      mstore\n      swap1\n      0x01\n      add\n      swap1\n      0x20\n      add\n      dup1\n      dup4\n      gt\n      tag_285\n      jumpi\n      dup3\n      swap1\n      sub\n      0x1f\n      and\n      dup3\n      add\n      swap2\n    tag_283:\n      pop\n      pop\n      pop\n      pop\n      pop\n      dup2\n      jump\t// out\n        /* \"contracts/Portfolio.sol\":718:754  Education[3] public educationDetails */\n    tag_87:\n      0x0f\n      dup2\n      0x03\n      dup2\n      lt\n      tag_286\n      jumpi\n      0x00\n      dup1\n      revert\n    tag_286:\n      0x05\n      mul\n      add\n      0x00\n      swap2\n      pop\n      swap1\n      pop\n      dup1\n      0x00\n      add\n      sload\n      swap1\n      dup1\n      0x01\n      add\n      dup1\n      sload\n      tag_288\n      swap1\n      tag_119\n      jump\t// in\n    tag_288:\n      dup1\n      0x1f\n      add\n      0x20\n      dup1\n      swap2\n      div\n      mul\n      0x20\n      add\n      mload(0x40)\n      swap1\n      dup2\n      add\n      0x40\n      mstore\n      dup1\n      swap3\n      swap2\n      swap1\n      dup2\n      dup2\n      mstore\n      0x20\n      add\n      dup3\n      dup1\n      sload\n      tag_289\n      swap1\n      tag_119\n      jump\t// in\n    tag_289:\n      dup1\n      iszero\n      tag_290\n      jumpi\n      dup1\n      0x1f\n      lt\n      tag_291\n      jumpi\n      0x0100\n      dup1\n      dup4\n      sload\n      div\n      mul\n      dup4\n      mstore\n      swap2\n      0x20\n      add\n      swap2\n      jump(tag_290)\n    tag_291:\n      dup3\n      add\n      swap2\n      swap1\n      0x00\n      mstore\n      keccak256(0x00, 0x20)\n      swap1\n    tag_292:\n      dup2\n      sload\n      dup2\n      mstore\n      swap1\n      0x01\n      add\n      swap1\n      0x20\n      add\n      dup1\n      dup4\n      gt\n      tag_292\n      jumpi\n      dup3\n      swap1\n      sub\n      0x1f\n      and\n      dup3\n      add\n      swap2\n    tag_290:\n      pop\n      pop\n      pop\n      pop\n      pop\n      swap1\n      dup1\n      0x02\n      add\n      dup1\n      sload\n      tag_293\n      swap1\n      tag_119\n      jump\t// in\n    tag_293:\n      dup1\n      0x1f\n      add\n      0x20\n      dup1\n      swap2\n      div\n      mul\n      0x20\n      add\n      mload(0x40)\n      swap1\n      dup2\n      add\n      0x40\n      mstore\n      dup1\n      swap3\n      swap2\n      swap1\n      dup2\n      dup2\n      mstore\n      0x20\n      add\n      dup3\n      dup1\n      sload\n      tag_294\n      swap1\n      tag_119\n      jump\t// in\n    tag_294:\n      dup1\n      iszero\n      tag_295\n      jumpi\n      dup1\n      0x1f\n      lt\n      tag_296\n      jumpi\n      0x0100\n      dup1\n      dup4\n      sload\n      div\n      mul\n      dup4\n      mstore\n      swap2\n      0x20\n      add\n      swap2\n      jump(tag_295)\n    tag_296:\n      dup3\n      add\n      swap2\n      swap1\n      0x00\n      mstore\n      keccak256(0x00, 0x20)\n      swap1\n    tag_297:\n      dup2\n      sload\n      dup2\n      mstore\n      swap1\n      0x01\n      add\n      swap1\n      0x20\n      add\n      dup1\n      dup4\n      gt\n      tag_297\n      jumpi\n      dup3\n      swap1\n      sub\n      0x1f\n      and\n      dup3\n      add\n      swap2\n    tag_295:\n      pop\n      pop\n      pop\n      pop\n      pop\n      swap1\n      dup1\n      0x03\n      add\n      dup1\n      sload\n      tag_298\n      swap1\n      tag_119\n      jump\t// in\n    tag_298:\n      dup1\n      0x1f\n      add\n      0x20\n      dup1\n      swap2\n      div\n      mul\n      0x20\n      add\n      mload(0x40)\n      swap1\n      dup2\n      add\n      0x40\n      mstore\n      dup1\n      swap3\n      swap2\n      swap1\n      dup2\n      dup2\n      mstore\n      0x20\n      add\n      dup3\n      dup1\n      sload\n      tag_299\n      swap1\n      tag_119\n      jump\t// in\n    tag_299:\n      dup1\n      iszero\n      tag_300\n      jumpi\n      dup1\n      0x1f\n      lt\n      tag_301\n      jumpi\n      0x0100\n      dup1\n      dup4\n      sload\n      div\n      mul\n      dup4\n      mstore\n      swap2\n      0x20\n      add\n      swap2\n      jump(tag_300)\n    tag_301:\n      dup3\n      add\n      swap2\n      swap1\n      0x00\n      mstore\n      keccak256(0x00, 0x20)\n      swap1\n    tag_302:\n      dup2\n      sload\n      dup2\n      mstore\n      swap1\n      0x01\n      add\n      swap1\n      0x20\n      add\n      dup1\n      dup4\n      gt\n      tag_302\n      jumpi\n      dup3\n      swap1\n      sub\n      0x1f\n      and\n      dup3\n      add\n      swap2\n    tag_300:\n      pop\n      pop\n      pop\n      pop\n      pop\n      swap1\n      dup1\n      0x04\n      add\n      dup1\n      sload\n      tag_303\n      swap1\n      tag_119\n      jump\t// in\n    tag_303:\n      dup1\n      0x1f\n      add\n      0x20\n      dup1\n      swap2\n      div\n      mul\n      0x20\n      add\n      mload(0x40)\n      swap1\n      dup2\n      add\n      0x40\n      mstore\n      dup1\n      swap3\n      swap2\n      swap1\n      dup2\n      dup2\n      mstore\n      0x20\n      add\n      dup3\n      dup1\n      sload\n      tag_304\n      swap1\n      tag_119\n      jump\t// in\n    tag_304:\n      dup1\n      iszero\n      tag_305\n      jumpi\n      dup1\n      0x1f\n      lt\n      tag_306\n      jumpi\n      0x0100\n      dup1\n      dup4\n      sload\n      div\n      mul\n      dup4\n      mstore\n      swap2\n      0x20\n      add\n      swap2\n      jump(tag_305)\n    tag_306:\n      dup3\n      add\n      swap2\n      swap1\n      0x00\n      mstore\n      keccak256(0x00, 0x20)\n      swap1\n    tag_307:\n      dup2\n      sload\n      dup2\n      mstore\n      swap1\n      0x01\n      add\n      swap1\n      0x20\n      add\n      dup1\n      dup4\n      gt\n      tag_307\n      jumpi\n      dup3\n      swap1\n      sub\n      0x1f\n      and\n      dup3\n      add\n      swap2\n    tag_305:\n      pop\n      pop\n      pop\n      pop\n      pop\n      swap1\n      pop\n      dup6\n      jump\t// out\n        /* \"contracts/Portfolio.sol\":3041:3153  function allEductationDetails() external view returns(Education[3] memory){... */\n    tag_91:\n        /* \"contracts/Portfolio.sol\":3095:3114  Education[3] memory */\n      tag_308\n      tag_309\n      jump\t// in\n    tag_308:\n        /* \"contracts/Portfolio.sol\":3131:3147  educationDetails */\n      0x0f\n        /* \"contracts/Portfolio.sol\":3124:3147  return educationDetails */\n      0x03\n      dup1\n      0x20\n      mul\n      mload(0x40)\n      swap1\n      dup2\n      add\n      0x40\n      mstore\n      dup1\n      swap3\n      swap2\n      swap1\n      0x00\n      swap1\n    tag_311:\n      dup3\n      dup3\n      lt\n      iszero\n      tag_312\n      jumpi\n      dup4\n      dup3\n      0x05\n      mul\n      add\n      mload(0x40)\n      dup1\n      0xa0\n      add\n      0x40\n      mstore\n      swap1\n      dup2\n      0x00\n      dup3\n      add\n      sload\n      dup2\n      mstore\n      0x20\n      add\n      0x01\n      dup3\n      add\n      dup1\n      sload\n      tag_314\n      swap1\n      tag_119\n      jump\t// in\n    tag_314:\n      dup1\n      0x1f\n      add\n      0x20\n      dup1\n      swap2\n      div\n      mul\n      0x20\n      add\n      mload(0x40)\n      swap1\n      dup2\n      add\n      0x40\n      mstore\n      dup1\n      swap3\n      swap2\n      swap1\n      dup2\n      dup2\n      mstore\n      0x20\n      add\n      dup3\n      dup1\n      sload\n      tag_315\n      swap1\n      tag_119\n      jump\t// in\n    tag_315:\n      dup1\n      iszero\n      tag_316\n      jumpi\n      dup1\n      0x1f\n      lt\n      tag_317\n      jumpi\n      0x0100\n      dup1\n      dup4\n      sload\n      div\n      mul\n      dup4\n      mstore\n      swap2\n      0x20\n      add\n      swap2\n      jump(tag_316)\n    tag_317:\n      dup3\n      add\n      swap2\n      swap1\n      0x00\n      mstore\n      keccak256(0x00, 0x20)\n      swap1\n    tag_318:\n      dup2\n      sload\n      dup2\n      mstore\n      swap1\n      0x01\n      add\n      swap1\n      0x20\n      add\n      dup1\n      dup4\n      gt\n      tag_318\n      jumpi\n      dup3\n      swap1\n      sub\n      0x1f\n      and\n      dup3\n      add\n      swap2\n    tag_316:\n      pop\n      pop\n      pop\n      pop\n      pop\n      dup2\n      mstore\n      0x20\n      add\n      0x02\n      dup3\n      add\n      dup1\n      sload\n      tag_319\n      swap1\n      tag_119\n      jump\t// in\n    tag_319:\n      dup1\n      0x1f\n      add\n      0x20\n      dup1\n      swap2\n      div\n      mul\n      0x20\n      add\n      mload(0x40)\n      swap1\n      dup2\n      add\n      0x40\n      mstore\n      dup1\n      swap3\n      swap2\n      swap1\n      dup2\n      dup2\n      mstore\n      0x20\n      add\n      dup3\n      dup1\n      sload\n      tag_320\n      swap1\n      tag_119\n      jump\t// in\n    tag_320:\n      dup1\n      iszero\n      tag_321\n      jumpi\n      dup1\n      0x1f\n      lt\n      tag_322\n      jumpi\n      0x0100\n      dup1\n      dup4\n      sload\n      div\n      mul\n      dup4\n      mstore\n      swap2\n      0x20\n      add\n      swap2\n      jump(tag_321)\n    tag_322:\n      dup3\n      add\n      swap2\n      swap1\n      0x00\n      mstore\n      keccak256(0x00, 0x20)\n      swap1\n    tag_323:\n      dup2\n      sload\n      dup2\n      mstore\n      swap1\n      0x01\n      add\n      swap1\n      0x20\n      add\n      dup1\n      dup4\n      gt\n      tag_323\n      jumpi\n      dup3\n      swap1\n      sub\n      0x1f\n      and\n      dup3\n      add\n      swap2\n    tag_321:\n      pop\n      pop\n      pop\n      pop\n      pop\n      dup2\n      mstore\n      0x20\n      add\n      0x03\n      dup3\n      add\n      dup1\n      sload\n      tag_324\n      swap1\n      tag_119\n      jump\t// in\n    tag_324:\n      dup1\n      0x1f\n      add\n      0x20\n      dup1\n      swap2\n      div\n      mul\n      0x20\n      add\n      mload(0x40)\n      swap1\n      dup2\n      add\n      0x40\n      mstore\n      dup1\n      swap3\n      swap2\n      swap1\n      dup2\n      dup2\n      mstore\n      0x20\n      add\n      dup3\n      dup1\n      sload\n      tag_325\n      swap1\n      tag_119\n      jump\t// in\n    tag_325:\n      dup1\n      iszero\n      tag_326\n      jumpi\n      dup1\n      0x1f\n      lt\n      tag_327\n      jumpi\n      0x0100\n      dup1\n      dup4\n      sload\n      div\n      mul\n      dup4\n      mstore\n      swap2\n      0x20\n      add\n      swap2\n      jump(tag_326)\n    tag_327:\n      dup3\n      add\n      swap2\n      swap1\n      0x00\n      mstore\n      keccak256(0x00, 0x20)\n      swap1\n    tag_328:\n      dup2\n      sload\n      dup2\n      mstore\n      swap1\n      0x01\n      add\n      swap1\n      0x20\n      add\n      dup1\n      dup4\n      gt\n      tag_328\n      jumpi\n      dup3\n      swap1\n      sub\n      0x1f\n      and\n      dup3\n      add\n      swap2\n    tag_326:\n      pop\n      pop\n      pop\n      pop\n      pop\n      dup2\n      mstore\n      0x20\n      add\n      0x04\n      dup3\n      add\n      dup1\n      sload\n      tag_329\n      swap1\n      tag_119\n      jump\t// in\n    tag_329:\n      dup1\n      0x1f\n      add\n      0x20\n      dup1\n      swap2\n      div\n      mul\n      0x20\n      add\n      mload(0x40)\n      swap1\n      dup2\n      add\n      0x40\n      mstore\n      dup1\n      swap3\n      swap2\n      swap1\n      dup2\n      dup2\n      mstore\n      0x20\n      add\n      dup3\n      dup1\n      sload\n      tag_330\n      swap1\n      tag_119\n      jump\t// in\n    tag_330:\n      dup1\n      iszero\n      tag_331\n      jumpi\n      dup1\n      0x1f\n      lt\n      tag_332\n      jumpi\n      0x0100\n      dup1\n      dup4\n      sload\n      div\n      mul\n      dup4\n      mstore\n      swap2\n      0x20\n      add\n      swap2\n      jump(tag_331)\n    tag_332:\n      dup3\n      add\n      swap2\n      swap1\n      0x00\n      mstore\n      keccak256(0x00, 0x20)\n      swap1\n    tag_333:\n      dup2\n      sload\n      dup2\n      mstore\n      swap1\n      0x01\n      add\n      swap1\n      0x20\n      add\n      dup1\n      dup4\n      gt\n      tag_333\n      jumpi\n      dup3\n      swap1\n      sub\n      0x1f\n      and\n      dup3\n      add\n      swap2\n    tag_331:\n      pop\n      pop\n      pop\n      pop\n      pop\n      dup2\n      mstore\n      pop\n      pop\n      dup2\n      mstore\n      0x20\n      add\n      swap1\n      0x01\n      add\n      swap1\n      jump(tag_311)\n    tag_312:\n      pop\n      pop\n      pop\n      pop\n      swap1\n      pop\n        /* \"contracts/Portfolio.sol\":3041:3153  function allEductationDetails() external view returns(Education[3] memory){... */\n      swap1\n      jump\t// out\n        /* \"contracts/Portfolio.sol\":2240:2613  function insertEducation(string calldata _date,string calldata _degree,string calldata _knowledgeAcquired,string calldata _instutionName) external  onlyManager{... */\n    tag_97:\n        /* \"contracts/Portfolio.sol\":1416:1426  msg.sender */\n      caller\n        /* \"contracts/Portfolio.sol\":1407:1426  manager==msg.sender */\n      0xffffffffffffffffffffffffffffffffffffffff\n      and\n        /* \"contracts/Portfolio.sol\":1407:1414  manager */\n      0x33\n      0x00\n      swap1\n      sload\n      swap1\n      0x0100\n      exp\n      swap1\n      div\n      0xffffffffffffffffffffffffffffffffffffffff\n      and\n        /* \"contracts/Portfolio.sol\":1407:1426  manager==msg.sender */\n      0xffffffffffffffffffffffffffffffffffffffff\n      and\n      eq\n        /* \"contracts/Portfolio.sol\":1399:1453  require(manager==msg.sender,\"You are not the manager\") */\n      tag_335\n      jumpi\n      mload(0x40)\n      0x08c379a000000000000000000000000000000000000000000000000000000000\n      dup2\n      mstore\n      0x04\n      add\n      tag_336\n      swap1\n      tag_216\n      jump\t// in\n    tag_336:\n      mload(0x40)\n      dup1\n      swap2\n      sub\n      swap1\n      revert\n    tag_335:\n        /* \"contracts/Portfolio.sol\":2430:2431  3 */\n      0x03\n        /* \"contracts/Portfolio.sol\":2415:2429  educationCount */\n      sload(0x31)\n        /* \"contracts/Portfolio.sol\":2415:2431  educationCount<3 */\n      lt\n        /* \"contracts/Portfolio.sol\":2407:2467  require(educationCount<3,\"Only 3 education details allowed\") */\n      tag_338\n      jumpi\n      mload(0x40)\n      0x08c379a000000000000000000000000000000000000000000000000000000000\n      dup2\n      mstore\n      0x04\n      add\n      tag_339\n      swap1\n      tag_248\n      jump\t// in\n    tag_339:\n      mload(0x40)\n      dup1\n      swap2\n      sub\n      swap1\n      revert\n    tag_338:\n        /* \"contracts/Portfolio.sol\":2508:2581  Education(educationCount,_date,_degree,_knowledgeAcquired,_instutionName) */\n      mload(0x40)\n      dup1\n      0xa0\n      add\n      0x40\n      mstore\n      dup1\n        /* \"contracts/Portfolio.sol\":2518:2532  educationCount */\n      sload(0x31)\n        /* \"contracts/Portfolio.sol\":2508:2581  Education(educationCount,_date,_degree,_knowledgeAcquired,_instutionName) */\n      dup2\n      mstore\n      0x20\n      add\n        /* \"contracts/Portfolio.sol\":2533:2538  _date */\n      dup10\n      dup10\n        /* \"contracts/Portfolio.sol\":2508:2581  Education(educationCount,_date,_degree,_knowledgeAcquired,_instutionName) */\n      dup1\n      dup1\n      0x1f\n      add\n      0x20\n      dup1\n      swap2\n      div\n      mul\n      0x20\n      add\n      mload(0x40)\n      swap1\n      dup2\n      add\n      0x40\n      mstore\n      dup1\n      swap4\n      swap3\n      swap2\n      swap1\n      dup2\n      dup2\n      mstore\n      0x20\n      add\n      dup4\n      dup4\n      dup1\n      dup3\n      dup5\n      calldatacopy\n      0x00\n      dup2\n      dup5\n      add\n      mstore\n      not(0x1f)\n      0x1f\n      dup3\n      add\n      and\n      swap1\n      pop\n      dup1\n      dup4\n      add\n      swap3\n      pop\n      pop\n      pop\n      pop\n      pop\n      pop\n      pop\n      dup2\n      mstore\n      0x20\n      add\n        /* \"contracts/Portfolio.sol\":2539:2546  _degree */\n      dup8\n      dup8\n        /* \"contracts/Portfolio.sol\":2508:2581  Education(educationCount,_date,_degree,_knowledgeAcquired,_instutionName) */\n      dup1\n      dup1\n      0x1f\n      add\n      0x20\n      dup1\n      swap2\n      div\n      mul\n      0x20\n      add\n      mload(0x40)\n      swap1\n      dup2\n      add\n      0x40\n      mstore\n      dup1\n      swap4\n      swap3\n      swap2\n      swap1\n      dup2\n      dup2\n      mstore\n      0x20\n      add\n      dup4\n      dup4\n      dup1\n      dup3\n      dup5\n      calldatacopy\n      0x00\n      dup2\n      dup5\n      add\n      mstore\n      not(0x1f)\n      0x1f\n      dup3\n      add\n      and\n      swap1\n      pop\n      dup1\n      dup4\n      add\n      swap3\n      pop\n      pop\n      pop\n      pop\n      pop\n      pop\n      pop\n      dup2\n      mstore\n      0x20\n      add\n        /* \"contracts/Portfolio.sol\":2547:2565  _knowledgeAcquired */\n      dup6\n      dup6\n        /* \"contracts/Portfolio.sol\":2508:2581  Education(educationCount,_date,_degree,_knowledgeAcquired,_instutionName) */\n      dup1\n      dup1\n      0x1f\n      add\n      0x20\n      dup1\n      swap2\n      div\n      mul\n      0x20\n      add\n      mload(0x40)\n      swap1\n      dup2\n      add\n      0x40\n      mstore\n      dup1\n      swap4\n      swap3\n      swap2\n      swap1\n      dup2\n      dup2\n      mstore\n      0x20\n      add\n      dup4\n      dup4\n      dup1\n      dup3\n      dup5\n      calldatacopy\n      0x00\n      dup2\n      dup5\n      add\n      mstore\n      not(0x1f)\n      0x1f\n      dup3\n      add\n      and\n      swap1\n      pop\n      dup1\n      dup4\n      add\n      swap3\n      pop\n      pop\n      pop\n      pop\n      pop\n      pop\n      pop\n      dup2\n      mstore\n      0x20\n      add\n        /* \"contracts/Portfolio.sol\":2566:2580  _instutionName */\n      dup4\n      dup4\n        /* \"contracts/Portfolio.sol\":2508:2581  Education(educationCount,_date,_degree,_knowledgeAcquired,_instutionName) */\n      dup1\n      dup1\n      0x1f\n      add\n      0x20\n      dup1\n      swap2\n      div\n      mul\n      0x20\n      add\n      mload(0x40)\n      swap1\n      dup2\n      add\n      0x40\n      mstore\n      dup1\n      swap4\n      swap3\n      swap2\n      swap1\n      dup2\n      dup2\n      mstore\n      0x20\n      add\n      dup4\n      dup4\n      dup1\n      dup3\n      dup5\n      calldatacopy\n      0x00\n      dup2\n      dup5\n      add\n      mstore\n      not(0x1f)\n      0x1f\n      dup3\n      add\n      and\n      swap1\n      pop\n      dup1\n      dup4\n      add\n      swap3\n      pop\n      pop\n      pop\n      pop\n      pop\n      pop\n      pop\n      dup2\n      mstore\n      pop\n        /* \"contracts/Portfolio.sol\":2475:2491  educationDetails */\n      0x0f\n        /* \"contracts/Portfolio.sol\":2492:2506  educationCount */\n      sload(0x31)\n        /* \"contracts/Portfolio.sol\":2475:2507  educationDetails[educationCount] */\n      0x03\n      dup2\n      lt\n      tag_340\n      jumpi\n      tag_341\n      tag_230\n      jump\t// in\n    tag_341:\n    tag_340:\n      0x05\n      mul\n      add\n        /* \"contracts/Portfolio.sol\":2475:2581  educationDetails[educationCount]=Education(educationCount,_date,_degree,_knowledgeAcquired,_instutionName) */\n      0x00\n      dup3\n      add\n      mload\n      dup2\n      0x00\n      add\n      sstore\n      0x20\n      dup3\n      add\n      mload\n      dup2\n      0x01\n      add\n      swap1\n      dup2\n      tag_343\n      swap2\n      swap1\n      tag_233\n      jump\t// in\n    tag_343:\n      pop\n      0x40\n      dup3\n      add\n      mload\n      dup2\n      0x02\n      add\n      swap1\n      dup2\n      tag_344\n      swap2\n      swap1\n      tag_233\n      jump\t// in\n    tag_344:\n      pop\n      0x60\n      dup3\n      add\n      mload\n      dup2\n      0x03\n      add\n      swap1\n      dup2\n      tag_345\n      swap2\n      swap1\n      tag_233\n      jump\t// in\n    tag_345:\n      pop\n      0x80\n      dup3\n      add\n      mload\n      dup2\n      0x04\n      add\n      swap1\n      dup2\n      tag_346\n      swap2\n      swap1\n      tag_233\n      jump\t// in\n    tag_346:\n      pop\n      swap1\n      pop\n      pop\n        /* \"contracts/Portfolio.sol\":2589:2603  educationCount */\n      0x31\n      0x00\n        /* \"contracts/Portfolio.sol\":2589:2605  educationCount++ */\n      dup2\n      sload\n      dup1\n      swap3\n      swap2\n      swap1\n      tag_347\n      swap1\n      tag_257\n      jump\t// in\n    tag_347:\n      swap2\n      swap1\n      pop\n      sstore\n      pop\n        /* \"contracts/Portfolio.sol\":2240:2613  function insertEducation(string calldata _date,string calldata _degree,string calldata _knowledgeAcquired,string calldata _instutionName) external  onlyManager{... */\n      pop\n      pop\n      pop\n      pop\n      pop\n      pop\n      pop\n      pop\n      jump\t// out\n        /* \"contracts/Portfolio.sol\":804:876  string public imageLink=\"QmSjiH4FLeLabWZruw4ZsJfwydKKRdyUPd84gg3i639Qr3\" */\n    tag_100:\n      0x2d\n      dup1\n      sload\n      tag_348\n      swap1\n      tag_119\n      jump\t// in\n    tag_348:\n      dup1\n      0x1f\n      add\n      0x20\n      dup1\n      swap2\n      div\n      mul\n      0x20\n      add\n      mload(0x40)\n      swap1\n      dup2\n      add\n      0x40\n      mstore\n      dup1\n      swap3\n      swap2\n      swap1\n      dup2\n      dup2\n      mstore\n      0x20\n      add\n      dup3\n      dup1\n      sload\n      tag_349\n      swap1\n      tag_119\n      jump\t// in\n    tag_349:\n      dup1\n      iszero\n      tag_350\n      jumpi\n      dup1\n      0x1f\n      lt\n      tag_351\n      jumpi\n      0x0100\n      dup1\n      dup4\n      sload\n      div\n      mul\n      dup4\n      mstore\n      swap2\n      0x20\n      add\n      swap2\n      jump(tag_350)\n    tag_351:\n      dup3\n      add\n      swap2\n      swap1\n      0x00\n      mstore\n      keccak256(0x00, 0x20)\n      swap1\n    tag_352:\n      dup2\n      sload\n      dup2\n      mstore\n      swap1\n      0x01\n      add\n      swap1\n      0x20\n      add\n      dup1\n      dup4\n      gt\n      tag_352\n      jumpi\n      dup3\n      swap1\n      sub\n      0x1f\n      and\n      dup3\n      add\n      swap2\n    tag_350:\n      pop\n      pop\n      pop\n      pop\n      pop\n      dup2\n      jump\t// out\n        /* \"contracts/Portfolio.sol\":4201:4313  function changeResumeLink(string calldata _resumeLink) external onlyManager{... */\n    tag_105:\n        /* \"contracts/Portfolio.sol\":1416:1426  msg.sender */\n      caller\n        /* \"contracts/Portfolio.sol\":1407:1426  manager==msg.sender */\n      0xffffffffffffffffffffffffffffffffffffffff\n      and\n        /* \"contracts/Portfolio.sol\":1407:1414  manager */\n      0x33\n      0x00\n      swap1\n      sload\n      swap1\n      0x0100\n      exp\n      swap1\n      div\n      0xffffffffffffffffffffffffffffffffffffffff\n      and\n        /* \"contracts/Portfolio.sol\":1407:1426  manager==msg.sender */\n      0xffffffffffffffffffffffffffffffffffffffff\n      and\n      eq\n        /* \"contracts/Portfolio.sol\":1399:1453  require(manager==msg.sender,\"You are not the manager\") */\n      tag_354\n      jumpi\n      mload(0x40)\n      0x08c379a000000000000000000000000000000000000000000000000000000000\n      dup2\n      mstore\n      0x04\n      add\n      tag_355\n      swap1\n      tag_216\n      jump\t// in\n    tag_355:\n      mload(0x40)\n      dup1\n      swap2\n      sub\n      swap1\n      revert\n    tag_354:\n        /* \"contracts/Portfolio.sol\":4296:4307  _resumeLink */\n      dup2\n      dup2\n        /* \"contracts/Portfolio.sol\":4285:4295  resumeLink */\n      0x2f\n        /* \"contracts/Portfolio.sol\":4285:4307  resumeLink=_resumeLink */\n      swap2\n      dup3\n      tag_357\n      swap3\n      swap2\n      swap1\n      tag_219\n      jump\t// in\n    tag_357:\n      pop\n        /* \"contracts/Portfolio.sol\":4201:4313  function changeResumeLink(string calldata _resumeLink) external onlyManager{... */\n      pop\n      pop\n      jump\t// out\n        /* \"contracts/Portfolio.sol\":3541:3957  function changeExperience(string calldata _date,string calldata _post,string calldata _knowledgeAcquired,string calldata _companyName,uint _experienceDetailCount) external  onlyManager{... */\n    tag_109:\n        /* \"contracts/Portfolio.sol\":1416:1426  msg.sender */\n      caller\n        /* \"contracts/Portfolio.sol\":1407:1426  manager==msg.sender */\n      0xffffffffffffffffffffffffffffffffffffffff\n      and\n        /* \"contracts/Portfolio.sol\":1407:1414  manager */\n      0x33\n      0x00\n      swap1\n      sload\n      swap1\n      0x0100\n      exp\n      swap1\n      div\n      0xffffffffffffffffffffffffffffffffffffffff\n      and\n        /* \"contracts/Portfolio.sol\":1407:1426  manager==msg.sender */\n      0xffffffffffffffffffffffffffffffffffffffff\n      and\n      eq\n        /* \"contracts/Portfolio.sol\":1399:1453  require(manager==msg.sender,\"You are not the manager\") */\n      tag_359\n      jumpi\n      mload(0x40)\n      0x08c379a000000000000000000000000000000000000000000000000000000000\n      dup2\n      mstore\n      0x04\n      add\n      tag_360\n      swap1\n      tag_216\n      jump\t// in\n    tag_360:\n      mload(0x40)\n      dup1\n      swap2\n      sub\n      swap1\n      revert\n    tag_359:\n        /* \"contracts/Portfolio.sol\":3765:3766  0 */\n      0x00\n        /* \"contracts/Portfolio.sol\":3741:3763  _experienceDetailCount */\n      dup2\n        /* \"contracts/Portfolio.sol\":3741:3766  _experienceDetailCount>=0 */\n      lt\n      iszero\n        /* \"contracts/Portfolio.sol\":3741:3794  _experienceDetailCount>=0 && _experienceDetailCount<3 */\n      dup1\n      iszero\n      tag_362\n      jumpi\n      pop\n        /* \"contracts/Portfolio.sol\":3793:3794  3 */\n      0x03\n        /* \"contracts/Portfolio.sol\":3770:3792  _experienceDetailCount */\n      dup2\n        /* \"contracts/Portfolio.sol\":3770:3794  _experienceDetailCount<3 */\n      lt\n        /* \"contracts/Portfolio.sol\":3741:3794  _experienceDetailCount>=0 && _experienceDetailCount<3 */\n    tag_362:\n        /* \"contracts/Portfolio.sol\":3733:3821  require(_experienceDetailCount>=0 && _experienceDetailCount<3,\"Invalid experienceCount\") */\n      tag_363\n      jumpi\n      mload(0x40)\n      0x08c379a000000000000000000000000000000000000000000000000000000000\n      dup2\n      mstore\n      0x04\n      add\n      tag_364\n      swap1\n      tag_365\n      jump\t// in\n    tag_364:\n      mload(0x40)\n      dup1\n      swap2\n      sub\n      swap1\n      revert\n    tag_363:\n        /* \"contracts/Portfolio.sol\":3871:3949  Experience(_experienceDetailCount,_date,_post,_knowledgeAcquired,_companyName) */\n      mload(0x40)\n      dup1\n      0xa0\n      add\n      0x40\n      mstore\n      dup1\n        /* \"contracts/Portfolio.sol\":3882:3904  _experienceDetailCount */\n      dup3\n        /* \"contracts/Portfolio.sol\":3871:3949  Experience(_experienceDetailCount,_date,_post,_knowledgeAcquired,_companyName) */\n      dup2\n      mstore\n      0x20\n      add\n        /* \"contracts/Portfolio.sol\":3905:3910  _date */\n      dup11\n      dup11\n        /* \"contracts/Portfolio.sol\":3871:3949  Experience(_experienceDetailCount,_date,_post,_knowledgeAcquired,_companyName) */\n      dup1\n      dup1\n      0x1f\n      add\n      0x20\n      dup1\n      swap2\n      div\n      mul\n      0x20\n      add\n      mload(0x40)\n      swap1\n      dup2\n      add\n      0x40\n      mstore\n      dup1\n      swap4\n      swap3\n      swap2\n      swap1\n      dup2\n      dup2\n      mstore\n      0x20\n      add\n      dup4\n      dup4\n      dup1\n      dup3\n      dup5\n      calldatacopy\n      0x00\n      dup2\n      dup5\n      add\n      mstore\n      not(0x1f)\n      0x1f\n      dup3\n      add\n      and\n      swap1\n      pop\n      dup1\n      dup4\n      add\n      swap3\n      pop\n      pop\n      pop\n      pop\n      pop\n      pop\n      pop\n      dup2\n      mstore\n      0x20\n      add\n        /* \"contracts/Portfolio.sol\":3911:3916  _post */\n      dup9\n      dup9\n        /* \"contracts/Portfolio.sol\":3871:3949  Experience(_experienceDetailCount,_date,_post,_knowledgeAcquired,_companyName) */\n      dup1\n      dup1\n      0x1f\n      add\n      0x20\n      dup1\n      swap2\n      div\n      mul\n      0x20\n      add\n      mload(0x40)\n      swap1\n      dup2\n      add\n      0x40\n      mstore\n      dup1\n      swap4\n      swap3\n      swap2\n      swap1\n      dup2\n      dup2\n      mstore\n      0x20\n      add\n      dup4\n      dup4\n      dup1\n      dup3\n      dup5\n      calldatacopy\n      0x00\n      dup2\n      dup5\n      add\n      mstore\n      not(0x1f)\n      0x1f\n      dup3\n      add\n      and\n      swap1\n      pop\n      dup1\n      dup4\n      add\n      swap3\n      pop\n      pop\n      pop\n      pop\n      pop\n      pop\n      pop\n      dup2\n      mstore\n      0x20\n      add\n        /* \"contracts/Portfolio.sol\":3917:3935  _knowledgeAcquired */\n      dup7\n      dup7\n        /* \"contracts/Portfolio.sol\":3871:3949  Experience(_experienceDetailCount,_date,_post,_knowledgeAcquired,_companyName) */\n      dup1\n      dup1\n      0x1f\n      add\n      0x20\n      dup1\n      swap2\n      div\n      mul\n      0x20\n      add\n      mload(0x40)\n      swap1\n      dup2\n      add\n      0x40\n      mstore\n      dup1\n      swap4\n      swap3\n      swap2\n      swap1\n      dup2\n      dup2\n      mstore\n      0x20\n      add\n      dup4\n      dup4\n      dup1\n      dup3\n      dup5\n      calldatacopy\n      0x00\n      dup2\n      dup5\n      add\n      mstore\n      not(0x1f)\n      0x1f\n      dup3\n      add\n      and\n      swap1\n      pop\n      dup1\n      dup4\n      add\n      swap3\n      pop\n      pop\n      pop\n      pop\n      pop\n      pop\n      pop\n      dup2\n      mstore\n      0x20\n      add\n        /* \"contracts/Portfolio.sol\":3936:3948  _companyName */\n      dup5\n      dup5\n        /* \"contracts/Portfolio.sol\":3871:3949  Experience(_experienceDetailCount,_date,_post,_knowledgeAcquired,_companyName) */\n      dup1\n      dup1\n      0x1f\n      add\n      0x20\n      dup1\n      swap2\n      div\n      mul\n      0x20\n      add\n      mload(0x40)\n      swap1\n      dup2\n      add\n      0x40\n      mstore\n      dup1\n      swap4\n      swap3\n      swap2\n      swap1\n      dup2\n      dup2\n      mstore\n      0x20\n      add\n      dup4\n      dup4\n      dup1\n      dup3\n      dup5\n      calldatacopy\n      0x00\n      dup2\n      dup5\n      add\n      mstore\n      not(0x1f)\n      0x1f\n      dup3\n      add\n      and\n      swap1\n      pop\n      dup1\n      dup4\n      add\n      swap3\n      pop\n      pop\n      pop\n      pop\n      pop\n      pop\n      pop\n      dup2\n      mstore\n      pop\n        /* \"contracts/Portfolio.sol\":3829:3846  experienceDetails */\n      0x1e\n        /* \"contracts/Portfolio.sol\":3847:3869  _experienceDetailCount */\n      dup3\n        /* \"contracts/Portfolio.sol\":3829:3870  experienceDetails[_experienceDetailCount] */\n      0x03\n      dup2\n      lt\n      tag_366\n      jumpi\n      tag_367\n      tag_230\n      jump\t// in\n    tag_367:\n    tag_366:\n      0x05\n      mul\n      add\n        /* \"contracts/Portfolio.sol\":3829:3949  experienceDetails[_experienceDetailCount]=Experience(_experienceDetailCount,_date,_post,_knowledgeAcquired,_companyName) */\n      0x00\n      dup3\n      add\n      mload\n      dup2\n      0x00\n      add\n      sstore\n      0x20\n      dup3\n      add\n      mload\n      dup2\n      0x01\n      add\n      swap1\n      dup2\n      tag_369\n      swap2\n      swap1\n      tag_233\n      jump\t// in\n    tag_369:\n      pop\n      0x40\n      dup3\n      add\n      mload\n      dup2\n      0x02\n      add\n      swap1\n      dup2\n      tag_370\n      swap2\n      swap1\n      tag_233\n      jump\t// in\n    tag_370:\n      pop\n      0x60\n      dup3\n      add\n      mload\n      dup2\n      0x03\n      add\n      swap1\n      dup2\n      tag_371\n      swap2\n      swap1\n      tag_233\n      jump\t// in\n    tag_371:\n      pop\n      0x80\n      dup3\n      add\n      mload\n      dup2\n      0x04\n      add\n      swap1\n      dup2\n      tag_372\n      swap2\n      swap1\n      tag_233\n      jump\t// in\n    tag_372:\n      pop\n      swap1\n      pop\n      pop\n        /* \"contracts/Portfolio.sol\":3541:3957  function changeExperience(string calldata _date,string calldata _post,string calldata _knowledgeAcquired,string calldata _companyName,uint _experienceDetailCount) external  onlyManager{... */\n      pop\n      pop\n      pop\n      pop\n      pop\n      pop\n      pop\n      pop\n      pop\n      jump\t// out\n        /* \"contracts/Portfolio.sol\":4089:4193  function changeDescription(string calldata _description) external{... */\n    tag_113:\n        /* \"contracts/Portfolio.sol\":4175:4187  _description */\n      dup2\n      dup2\n        /* \"contracts/Portfolio.sol\":4163:4174  description */\n      0x2e\n        /* \"contracts/Portfolio.sol\":4163:4187  description=_description */\n      swap2\n      dup3\n      tag_374\n      swap3\n      swap2\n      swap1\n      tag_219\n      jump\t// in\n    tag_374:\n      pop\n        /* \"contracts/Portfolio.sol\":4089:4193  function changeDescription(string calldata _description) external{... */\n      pop\n      pop\n      jump\t// out\n        /* \"contracts/Portfolio.sol\":4434:4517  function donate() public payable{... */\n    tag_115:\n        /* \"contracts/Portfolio.sol\":4483:4490  manager */\n      0x33\n      0x00\n      swap1\n      sload\n      swap1\n      0x0100\n      exp\n      swap1\n      div\n      0xffffffffffffffffffffffffffffffffffffffff\n      and\n        /* \"contracts/Portfolio.sol\":4475:4500  payable(manager).transfer */\n      0xffffffffffffffffffffffffffffffffffffffff\n      and\n        /* \"contracts/Portfolio.sol\":4475:4511  payable(manager).transfer(msg.value) */\n      0x08fc\n        /* \"contracts/Portfolio.sol\":4501:4510  msg.value */\n      callvalue\n        /* \"contracts/Portfolio.sol\":4475:4511  payable(manager).transfer(msg.value) */\n      swap1\n      dup2\n      iszero\n      mul\n      swap1\n      mload(0x40)\n      0x00\n      mload(0x40)\n      dup1\n      dup4\n      sub\n      dup2\n      dup6\n      dup9\n      dup9\n      call\n      swap4\n      pop\n      pop\n      pop\n      pop\n      iszero\n      dup1\n      iszero\n      tag_377\n      jumpi\n      returndatacopy(0x00, 0x00, returndatasize)\n      revert(0x00, returndatasize)\n    tag_377:\n      pop\n        /* \"contracts/Portfolio.sol\":4434:4517  function donate() public payable{... */\n      jump\t// out\n    tag_162:\n      mload(0x40)\n      dup1\n      0x60\n      add\n      0x40\n      mstore\n      dup1\n      0x03\n      swap1\n    tag_378:\n      tag_379\n      tag_380\n      jump\t// in\n    tag_379:\n      dup2\n      mstore\n      0x20\n      add\n      swap1\n      0x01\n      swap1\n      sub\n      swap1\n      dup2\n      tag_378\n      jumpi\n      swap1\n      pop\n      pop\n      swap1\n      jump\t// out\n    tag_188:\n      mload(0x40)\n      dup1\n      0x60\n      add\n      0x40\n      mstore\n      dup1\n      0x03\n      swap1\n    tag_381:\n      tag_382\n      tag_383\n      jump\t// in\n    tag_382:\n      dup2\n      mstore\n      0x20\n      add\n      swap1\n      0x01\n      swap1\n      sub\n      swap1\n      dup2\n      tag_381\n      jumpi\n      swap1\n      pop\n      pop\n      swap1\n      jump\t// out\n    tag_309:\n      mload(0x40)\n      dup1\n      0x60\n      add\n      0x40\n      mstore\n      dup1\n      0x03\n      swap1\n    tag_384:\n      tag_385\n      tag_386\n      jump\t// in\n    tag_385:\n      dup2\n      mstore\n      0x20\n      add\n      swap1\n      0x01\n      swap1\n      sub\n      swap1\n      dup2\n      tag_384\n      jumpi\n      swap1\n      pop\n      pop\n      swap1\n      jump\t// out\n    tag_380:\n      mload(0x40)\n      dup1\n      0xa0\n      add\n      0x40\n      mstore\n      dup1\n      0x00\n      dup2\n      mstore\n      0x20\n      add\n      0x60\n      dup2\n      mstore\n      0x20\n      add\n      0x60\n      dup2\n      mstore\n      0x20\n      add\n      0x60\n      dup2\n      mstore\n      0x20\n      add\n      0x60\n      dup2\n      mstore\n      pop\n      swap1\n      jump\t// out\n    tag_383:\n      mload(0x40)\n      dup1\n      0xa0\n      add\n      0x40\n      mstore\n      dup1\n      0x00\n      dup2\n      mstore\n      0x20\n      add\n      0x60\n      dup2\n      mstore\n      0x20\n      add\n      0x60\n      dup2\n      mstore\n      0x20\n      add\n      0x60\n      dup2\n      mstore\n      0x20\n      add\n      0x60\n      dup2\n      mstore\n      pop\n      swap1\n      jump\t// out\n    tag_386:\n      mload(0x40)\n      dup1\n      0xa0\n      add\n      0x40\n      mstore\n      dup1\n      0x00\n      dup2\n      mstore\n      0x20\n      add\n      0x60\n      dup2\n      mstore\n      0x20\n      add\n      0x60\n      dup2\n      mstore\n      0x20\n      add\n      0x60\n      dup2\n      mstore\n      0x20\n      add\n      0x60\n      dup2\n      mstore\n      pop\n      swap1\n      jump\t// out\n        /* \"#utility.yul\":88:205   */\n    tag_388:\n        /* \"#utility.yul\":197:198   */\n      0x00\n        /* \"#utility.yul\":194:195   */\n      0x00\n        /* \"#utility.yul\":187:199   */\n      revert\n        /* \"#utility.yul\":211:328   */\n    tag_389:\n        /* \"#utility.yul\":320:321   */\n      0x00\n        /* \"#utility.yul\":317:318   */\n      0x00\n        /* \"#utility.yul\":310:322   */\n      revert\n        /* \"#utility.yul\":334:411   */\n    tag_390:\n        /* \"#utility.yul\":371:378   */\n      0x00\n        /* \"#utility.yul\":400:405   */\n      dup2\n        /* \"#utility.yul\":389:405   */\n      swap1\n      pop\n        /* \"#utility.yul\":334:411   */\n      swap2\n      swap1\n      pop\n      jump\t// out\n        /* \"#utility.yul\":417:539   */\n    tag_391:\n        /* \"#utility.yul\":490:514   */\n      tag_465\n        /* \"#utility.yul\":508:513   */\n      dup2\n        /* \"#utility.yul\":490:514   */\n      tag_390\n      jump\t// in\n    tag_465:\n        /* \"#utility.yul\":483:488   */\n      dup2\n        /* \"#utility.yul\":480:515   */\n      eq\n        /* \"#utility.yul\":470:533   */\n      tag_466\n      jumpi\n        /* \"#utility.yul\":529:530   */\n      0x00\n        /* \"#utility.yul\":526:527   */\n      0x00\n        /* \"#utility.yul\":519:531   */\n      revert\n        /* \"#utility.yul\":470:533   */\n    tag_466:\n        /* \"#utility.yul\":417:539   */\n      pop\n      jump\t// out\n        /* \"#utility.yul\":545:684   */\n    tag_392:\n        /* \"#utility.yul\":591:596   */\n      0x00\n        /* \"#utility.yul\":629:635   */\n      dup2\n        /* \"#utility.yul\":616:636   */\n      calldataload\n        /* \"#utility.yul\":607:636   */\n      swap1\n      pop\n        /* \"#utility.yul\":645:678   */\n      tag_468\n        /* \"#utility.yul\":672:677   */\n      dup2\n        /* \"#utility.yul\":645:678   */\n      tag_391\n      jump\t// in\n    tag_468:\n        /* \"#utility.yul\":545:684   */\n      swap3\n      swap2\n      pop\n      pop\n      jump\t// out\n        /* \"#utility.yul\":690:1019   */\n    tag_28:\n        /* \"#utility.yul\":749:755   */\n      0x00\n        /* \"#utility.yul\":798:800   */\n      0x20\n        /* \"#utility.yul\":786:795   */\n      dup3\n        /* \"#utility.yul\":777:784   */\n      dup5\n        /* \"#utility.yul\":773:796   */\n      sub\n        /* \"#utility.yul\":769:801   */\n      slt\n        /* \"#utility.yul\":766:885   */\n      iszero\n      tag_470\n      jumpi\n        /* \"#utility.yul\":804:883   */\n      tag_471\n      tag_388\n      jump\t// in\n    tag_471:\n        /* \"#utility.yul\":766:885   */\n    tag_470:\n        /* \"#utility.yul\":924:925   */\n      0x00\n        /* \"#utility.yul\":949:1002   */\n      tag_472\n        /* \"#utility.yul\":994:1001   */\n      dup5\n        /* \"#utility.yul\":985:991   */\n      dup3\n        /* \"#utility.yul\":974:983   */\n      dup6\n        /* \"#utility.yul\":970:992   */\n      add\n        /* \"#utility.yul\":949:1002   */\n      tag_392\n      jump\t// in\n    tag_472:\n        /* \"#utility.yul\":939:1002   */\n      swap2\n      pop\n        /* \"#utility.yul\":895:1012   */\n      pop\n        /* \"#utility.yul\":690:1019   */\n      swap3\n      swap2\n      pop\n      pop\n      jump\t// out\n        /* \"#utility.yul\":1025:1143   */\n    tag_393:\n        /* \"#utility.yul\":1112:1136   */\n      tag_474\n        /* \"#utility.yul\":1130:1135   */\n      dup2\n        /* \"#utility.yul\":1112:1136   */\n      tag_390\n      jump\t// in\n    tag_474:\n        /* \"#utility.yul\":1107:1110   */\n      dup3\n        /* \"#utility.yul\":1100:1137   */\n      mstore\n        /* \"#utility.yul\":1025:1143   */\n      pop\n      pop\n      jump\t// out\n        /* \"#utility.yul\":1149:1248   */\n    tag_394:\n        /* \"#utility.yul\":1201:1207   */\n      0x00\n        /* \"#utility.yul\":1235:1240   */\n      dup2\n        /* \"#utility.yul\":1229:1241   */\n      mload\n        /* \"#utility.yul\":1219:1241   */\n      swap1\n      pop\n        /* \"#utility.yul\":1149:1248   */\n      swap2\n      swap1\n      pop\n      jump\t// out\n        /* \"#utility.yul\":1254:1423   */\n    tag_395:\n        /* \"#utility.yul\":1338:1349   */\n      0x00\n        /* \"#utility.yul\":1372:1378   */\n      dup3\n        /* \"#utility.yul\":1367:1370   */\n      dup3\n        /* \"#utility.yul\":1360:1379   */\n      mstore\n        /* \"#utility.yul\":1412:1416   */\n      0x20\n        /* \"#utility.yul\":1407:1410   */\n      dup3\n        /* \"#utility.yul\":1403:1417   */\n      add\n        /* \"#utility.yul\":1388:1417   */\n      swap1\n      pop\n        /* \"#utility.yul\":1254:1423   */\n      swap3\n      swap2\n      pop\n      pop\n      jump\t// out\n        /* \"#utility.yul\":1429:1568   */\n    tag_396:\n        /* \"#utility.yul\":1518:1524   */\n      dup3\n        /* \"#utility.yul\":1513:1516   */\n      dup2\n        /* \"#utility.yul\":1508:1511   */\n      dup4\n        /* \"#utility.yul\":1502:1525   */\n      mcopy\n        /* \"#utility.yul\":1559:1560   */\n      0x00\n        /* \"#utility.yul\":1550:1556   */\n      dup4\n        /* \"#utility.yul\":1545:1548   */\n      dup4\n        /* \"#utility.yul\":1541:1557   */\n      add\n        /* \"#utility.yul\":1534:1561   */\n      mstore\n        /* \"#utility.yul\":1429:1568   */\n      pop\n      pop\n      pop\n      jump\t// out\n        /* \"#utility.yul\":1574:1676   */\n    tag_397:\n        /* \"#utility.yul\":1615:1621   */\n      0x00\n        /* \"#utility.yul\":1666:1668   */\n      0x1f\n        /* \"#utility.yul\":1662:1669   */\n      not\n        /* \"#utility.yul\":1657:1659   */\n      0x1f\n        /* \"#utility.yul\":1650:1655   */\n      dup4\n        /* \"#utility.yul\":1646:1660   */\n      add\n        /* \"#utility.yul\":1642:1670   */\n      and\n        /* \"#utility.yul\":1632:1670   */\n      swap1\n      pop\n        /* \"#utility.yul\":1574:1676   */\n      swap2\n      swap1\n      pop\n      jump\t// out\n        /* \"#utility.yul\":1682:2059   */\n    tag_398:\n        /* \"#utility.yul\":1770:1773   */\n      0x00\n        /* \"#utility.yul\":1798:1837   */\n      tag_480\n        /* \"#utility.yul\":1831:1836   */\n      dup3\n        /* \"#utility.yul\":1798:1837   */\n      tag_394\n      jump\t// in\n    tag_480:\n        /* \"#utility.yul\":1853:1924   */\n      tag_481\n        /* \"#utility.yul\":1917:1923   */\n      dup2\n        /* \"#utility.yul\":1912:1915   */\n      dup6\n        /* \"#utility.yul\":1853:1924   */\n      tag_395\n      jump\t// in\n    tag_481:\n        /* \"#utility.yul\":1846:1924   */\n      swap4\n      pop\n        /* \"#utility.yul\":1933:1998   */\n      tag_482\n        /* \"#utility.yul\":1991:1997   */\n      dup2\n        /* \"#utility.yul\":1986:1989   */\n      dup6\n        /* \"#utility.yul\":1979:1983   */\n      0x20\n        /* \"#utility.yul\":1972:1977   */\n      dup7\n        /* \"#utility.yul\":1968:1984   */\n      add\n        /* \"#utility.yul\":1933:1998   */\n      tag_396\n      jump\t// in\n    tag_482:\n        /* \"#utility.yul\":2023:2052   */\n      tag_483\n        /* \"#utility.yul\":2045:2051   */\n      dup2\n        /* \"#utility.yul\":2023:2052   */\n      tag_397\n      jump\t// in\n    tag_483:\n        /* \"#utility.yul\":2018:2021   */\n      dup5\n        /* \"#utility.yul\":2014:2053   */\n      add\n        /* \"#utility.yul\":2007:2053   */\n      swap2\n      pop\n        /* \"#utility.yul\":1774:2059   */\n      pop\n        /* \"#utility.yul\":1682:2059   */\n      swap3\n      swap2\n      pop\n      pop\n      jump\t// out\n        /* \"#utility.yul\":2065:3093   */\n    tag_31:\n        /* \"#utility.yul\":2350:2354   */\n      0x00\n        /* \"#utility.yul\":2388:2391   */\n      0xa0\n        /* \"#utility.yul\":2377:2386   */\n      dup3\n        /* \"#utility.yul\":2373:2392   */\n      add\n        /* \"#utility.yul\":2365:2392   */\n      swap1\n      pop\n        /* \"#utility.yul\":2402:2473   */\n      tag_485\n        /* \"#utility.yul\":2470:2471   */\n      0x00\n        /* \"#utility.yul\":2459:2468   */\n      dup4\n        /* \"#utility.yul\":2455:2472   */\n      add\n        /* \"#utility.yul\":2446:2452   */\n      dup9\n        /* \"#utility.yul\":2402:2473   */\n      tag_393\n      jump\t// in\n    tag_485:\n        /* \"#utility.yul\":2520:2529   */\n      dup2\n        /* \"#utility.yul\":2514:2518   */\n      dup2\n        /* \"#utility.yul\":2510:2530   */\n      sub\n        /* \"#utility.yul\":2505:2507   */\n      0x20\n        /* \"#utility.yul\":2494:2503   */\n      dup4\n        /* \"#utility.yul\":2490:2508   */\n      add\n        /* \"#utility.yul\":2483:2531   */\n      mstore\n        /* \"#utility.yul\":2548:2626   */\n      tag_486\n        /* \"#utility.yul\":2621:2625   */\n      dup2\n        /* \"#utility.yul\":2612:2618   */\n      dup8\n        /* \"#utility.yul\":2548:2626   */\n      tag_398\n      jump\t// in\n    tag_486:\n        /* \"#utility.yul\":2540:2626   */\n      swap1\n      pop\n        /* \"#utility.yul\":2673:2682   */\n      dup2\n        /* \"#utility.yul\":2667:2671   */\n      dup2\n        /* \"#utility.yul\":2663:2683   */\n      sub\n        /* \"#utility.yul\":2658:2660   */\n      0x40\n        /* \"#utility.yul\":2647:2656   */\n      dup4\n        /* \"#utility.yul\":2643:2661   */\n      add\n        /* \"#utility.yul\":2636:2684   */\n      mstore\n        /* \"#utility.yul\":2701:2779   */\n      tag_487\n        /* \"#utility.yul\":2774:2778   */\n      dup2\n        /* \"#utility.yul\":2765:2771   */\n      dup7\n        /* \"#utility.yul\":2701:2779   */\n      tag_398\n      jump\t// in\n    tag_487:\n        /* \"#utility.yul\":2693:2779   */\n      swap1\n      pop\n        /* \"#utility.yul\":2826:2835   */\n      dup2\n        /* \"#utility.yul\":2820:2824   */\n      dup2\n        /* \"#utility.yul\":2816:2836   */\n      sub\n        /* \"#utility.yul\":2811:2813   */\n      0x60\n        /* \"#utility.yul\":2800:2809   */\n      dup4\n        /* \"#utility.yul\":2796:2814   */\n      add\n        /* \"#utility.yul\":2789:2837   */\n      mstore\n        /* \"#utility.yul\":2854:2932   */\n      tag_488\n        /* \"#utility.yul\":2927:2931   */\n      dup2\n        /* \"#utility.yul\":2918:2924   */\n      dup6\n        /* \"#utility.yul\":2854:2932   */\n      tag_398\n      jump\t// in\n    tag_488:\n        /* \"#utility.yul\":2846:2932   */\n      swap1\n      pop\n        /* \"#utility.yul\":2980:2989   */\n      dup2\n        /* \"#utility.yul\":2974:2978   */\n      dup2\n        /* \"#utility.yul\":2970:2990   */\n      sub\n        /* \"#utility.yul\":2964:2967   */\n      0x80\n        /* \"#utility.yul\":2953:2962   */\n      dup4\n        /* \"#utility.yul\":2949:2968   */\n      add\n        /* \"#utility.yul\":2942:2991   */\n      mstore\n        /* \"#utility.yul\":3008:3086   */\n      tag_489\n        /* \"#utility.yul\":3081:3085   */\n      dup2\n        /* \"#utility.yul\":3072:3078   */\n      dup5\n        /* \"#utility.yul\":3008:3086   */\n      tag_398\n      jump\t// in\n    tag_489:\n        /* \"#utility.yul\":3000:3086   */\n      swap1\n      pop\n        /* \"#utility.yul\":2065:3093   */\n      swap7\n      swap6\n      pop\n      pop\n      pop\n      pop\n      pop\n      pop\n      jump\t// out\n        /* \"#utility.yul\":3099:3226   */\n    tag_399:\n        /* \"#utility.yul\":3187:3193   */\n      0x00\n        /* \"#utility.yul\":3215:3219   */\n      0x03\n        /* \"#utility.yul\":3205:3219   */\n      swap1\n      pop\n        /* \"#utility.yul\":3099:3226   */\n      swap2\n      swap1\n      pop\n      jump\t// out\n        /* \"#utility.yul\":3232:3398   */\n    tag_400:\n        /* \"#utility.yul\":3352:3363   */\n      0x00\n        /* \"#utility.yul\":3389:3392   */\n      dup2\n        /* \"#utility.yul\":3374:3392   */\n      swap1\n      pop\n        /* \"#utility.yul\":3232:3398   */\n      swap3\n      swap2\n      pop\n      pop\n      jump\t// out\n        /* \"#utility.yul\":3404:3525   */\n    tag_401:\n        /* \"#utility.yul\":3492:3496   */\n      0x00\n        /* \"#utility.yul\":3515:3518   */\n      dup2\n        /* \"#utility.yul\":3507:3518   */\n      swap1\n      pop\n        /* \"#utility.yul\":3404:3525   */\n      swap2\n      swap1\n      pop\n      jump\t// out\n        /* \"#utility.yul\":3531:3639   */\n    tag_402:\n        /* \"#utility.yul\":3608:3632   */\n      tag_494\n        /* \"#utility.yul\":3626:3631   */\n      dup2\n        /* \"#utility.yul\":3608:3632   */\n      tag_390\n      jump\t// in\n    tag_494:\n        /* \"#utility.yul\":3603:3606   */\n      dup3\n        /* \"#utility.yul\":3596:3633   */\n      mstore\n        /* \"#utility.yul\":3531:3639   */\n      pop\n      pop\n      jump\t// out\n        /* \"#utility.yul\":3645:3804   */\n    tag_403:\n        /* \"#utility.yul\":3719:3730   */\n      0x00\n        /* \"#utility.yul\":3753:3759   */\n      dup3\n        /* \"#utility.yul\":3748:3751   */\n      dup3\n        /* \"#utility.yul\":3741:3760   */\n      mstore\n        /* \"#utility.yul\":3793:3797   */\n      0x20\n        /* \"#utility.yul\":3788:3791   */\n      dup3\n        /* \"#utility.yul\":3784:3798   */\n      add\n        /* \"#utility.yul\":3769:3798   */\n      swap1\n      pop\n        /* \"#utility.yul\":3645:3804   */\n      swap3\n      swap2\n      pop\n      pop\n      jump\t// out\n        /* \"#utility.yul\":3810:4167   */\n    tag_404:\n        /* \"#utility.yul\":3888:3891   */\n      0x00\n        /* \"#utility.yul\":3916:3955   */\n      tag_497\n        /* \"#utility.yul\":3949:3954   */\n      dup3\n        /* \"#utility.yul\":3916:3955   */\n      tag_394\n      jump\t// in\n    tag_497:\n        /* \"#utility.yul\":3971:4032   */\n      tag_498\n        /* \"#utility.yul\":4025:4031   */\n      dup2\n        /* \"#utility.yul\":4020:4023   */\n      dup6\n        /* \"#utility.yul\":3971:4032   */\n      tag_403\n      jump\t// in\n    tag_498:\n        /* \"#utility.yul\":3964:4032   */\n      swap4\n      pop\n        /* \"#utility.yul\":4041:4106   */\n      tag_499\n        /* \"#utility.yul\":4099:4105   */\n      dup2\n        /* \"#utility.yul\":4094:4097   */\n      dup6\n        /* \"#utility.yul\":4087:4091   */\n      0x20\n        /* \"#utility.yul\":4080:4085   */\n      dup7\n        /* \"#utility.yul\":4076:4092   */\n      add\n        /* \"#utility.yul\":4041:4106   */\n      tag_396\n      jump\t// in\n    tag_499:\n        /* \"#utility.yul\":4131:4160   */\n      tag_500\n        /* \"#utility.yul\":4153:4159   */\n      dup2\n        /* \"#utility.yul\":4131:4160   */\n      tag_397\n      jump\t// in\n    tag_500:\n        /* \"#utility.yul\":4126:4129   */\n      dup5\n        /* \"#utility.yul\":4122:4161   */\n      add\n        /* \"#utility.yul\":4115:4161   */\n      swap2\n      pop\n        /* \"#utility.yul\":3892:4167   */\n      pop\n        /* \"#utility.yul\":3810:4167   */\n      swap3\n      swap2\n      pop\n      pop\n      jump\t// out\n        /* \"#utility.yul\":4233:5572   */\n    tag_405:\n        /* \"#utility.yul\":4338:4341   */\n      0x00\n        /* \"#utility.yul\":4374:4378   */\n      0xa0\n        /* \"#utility.yul\":4369:4372   */\n      dup4\n        /* \"#utility.yul\":4365:4379   */\n      add\n        /* \"#utility.yul\":4459:4463   */\n      0x00\n        /* \"#utility.yul\":4452:4457   */\n      dup4\n        /* \"#utility.yul\":4448:4464   */\n      add\n        /* \"#utility.yul\":4442:4465   */\n      mload\n        /* \"#utility.yul\":4478:4541   */\n      tag_502\n        /* \"#utility.yul\":4535:4539   */\n      0x00\n        /* \"#utility.yul\":4530:4533   */\n      dup7\n        /* \"#utility.yul\":4526:4540   */\n      add\n        /* \"#utility.yul\":4512:4524   */\n      dup3\n        /* \"#utility.yul\":4478:4541   */\n      tag_402\n      jump\t// in\n    tag_502:\n        /* \"#utility.yul\":4389:4551   */\n      pop\n        /* \"#utility.yul\":4633:4637   */\n      0x20\n        /* \"#utility.yul\":4626:4631   */\n      dup4\n        /* \"#utility.yul\":4622:4638   */\n      add\n        /* \"#utility.yul\":4616:4639   */\n      mload\n        /* \"#utility.yul\":4686:4689   */\n      dup5\n        /* \"#utility.yul\":4680:4684   */\n      dup3\n        /* \"#utility.yul\":4676:4690   */\n      sub\n        /* \"#utility.yul\":4669:4673   */\n      0x20\n        /* \"#utility.yul\":4664:4667   */\n      dup7\n        /* \"#utility.yul\":4660:4674   */\n      add\n        /* \"#utility.yul\":4653:4691   */\n      mstore\n        /* \"#utility.yul\":4712:4785   */\n      tag_503\n        /* \"#utility.yul\":4780:4784   */\n      dup3\n        /* \"#utility.yul\":4766:4778   */\n      dup3\n        /* \"#utility.yul\":4712:4785   */\n      tag_404\n      jump\t// in\n    tag_503:\n        /* \"#utility.yul\":4704:4785   */\n      swap2\n      pop\n        /* \"#utility.yul\":4561:4796   */\n      pop\n        /* \"#utility.yul\":4885:4889   */\n      0x40\n        /* \"#utility.yul\":4878:4883   */\n      dup4\n        /* \"#utility.yul\":4874:4890   */\n      add\n        /* \"#utility.yul\":4868:4891   */\n      mload\n        /* \"#utility.yul\":4938:4941   */\n      dup5\n        /* \"#utility.yul\":4932:4936   */\n      dup3\n        /* \"#utility.yul\":4928:4942   */\n      sub\n        /* \"#utility.yul\":4921:4925   */\n      0x40\n        /* \"#utility.yul\":4916:4919   */\n      dup7\n        /* \"#utility.yul\":4912:4926   */\n      add\n        /* \"#utility.yul\":4905:4943   */\n      mstore\n        /* \"#utility.yul\":4964:5037   */\n      tag_504\n        /* \"#utility.yul\":5032:5036   */\n      dup3\n        /* \"#utility.yul\":5018:5030   */\n      dup3\n        /* \"#utility.yul\":4964:5037   */\n      tag_404\n      jump\t// in\n    tag_504:\n        /* \"#utility.yul\":4956:5037   */\n      swap2\n      pop\n        /* \"#utility.yul\":4806:5048   */\n      pop\n        /* \"#utility.yul\":5131:5135   */\n      0x60\n        /* \"#utility.yul\":5124:5129   */\n      dup4\n        /* \"#utility.yul\":5120:5136   */\n      add\n        /* \"#utility.yul\":5114:5137   */\n      mload\n        /* \"#utility.yul\":5184:5187   */\n      dup5\n        /* \"#utility.yul\":5178:5182   */\n      dup3\n        /* \"#utility.yul\":5174:5188   */\n      sub\n        /* \"#utility.yul\":5167:5171   */\n      0x60\n        /* \"#utility.yul\":5162:5165   */\n      dup7\n        /* \"#utility.yul\":5158:5172   */\n      add\n        /* \"#utility.yul\":5151:5189   */\n      mstore\n        /* \"#utility.yul\":5210:5283   */\n      tag_505\n        /* \"#utility.yul\":5278:5282   */\n      dup3\n        /* \"#utility.yul\":5264:5276   */\n      dup3\n        /* \"#utility.yul\":5210:5283   */\n      tag_404\n      jump\t// in\n    tag_505:\n        /* \"#utility.yul\":5202:5283   */\n      swap2\n      pop\n        /* \"#utility.yul\":5058:5294   */\n      pop\n        /* \"#utility.yul\":5382:5386   */\n      0x80\n        /* \"#utility.yul\":5375:5380   */\n      dup4\n        /* \"#utility.yul\":5371:5387   */\n      add\n        /* \"#utility.yul\":5365:5388   */\n      mload\n        /* \"#utility.yul\":5435:5438   */\n      dup5\n        /* \"#utility.yul\":5429:5433   */\n      dup3\n        /* \"#utility.yul\":5425:5439   */\n      sub\n        /* \"#utility.yul\":5418:5422   */\n      0x80\n        /* \"#utility.yul\":5413:5416   */\n      dup7\n        /* \"#utility.yul\":5409:5423   */\n      add\n        /* \"#utility.yul\":5402:5440   */\n      mstore\n        /* \"#utility.yul\":5461:5534   */\n      tag_506\n        /* \"#utility.yul\":5529:5533   */\n      dup3\n        /* \"#utility.yul\":5515:5527   */\n      dup3\n        /* \"#utility.yul\":5461:5534   */\n      tag_404\n      jump\t// in\n    tag_506:\n        /* \"#utility.yul\":5453:5534   */\n      swap2\n      pop\n        /* \"#utility.yul\":5304:5545   */\n      pop\n        /* \"#utility.yul\":5562:5566   */\n      dup1\n        /* \"#utility.yul\":5555:5566   */\n      swap2\n      pop\n        /* \"#utility.yul\":4343:5572   */\n      pop\n        /* \"#utility.yul\":4233:5572   */\n      swap3\n      swap2\n      pop\n      pop\n      jump\t// out\n        /* \"#utility.yul\":5578:5826   */\n    tag_406:\n        /* \"#utility.yul\":5693:5703   */\n      0x00\n        /* \"#utility.yul\":5728:5820   */\n      tag_508\n        /* \"#utility.yul\":5816:5819   */\n      dup4\n        /* \"#utility.yul\":5808:5814   */\n      dup4\n        /* \"#utility.yul\":5728:5820   */\n      tag_405\n      jump\t// in\n    tag_508:\n        /* \"#utility.yul\":5714:5820   */\n      swap1\n      pop\n        /* \"#utility.yul\":5578:5826   */\n      swap3\n      swap2\n      pop\n      pop\n      jump\t// out\n        /* \"#utility.yul\":5832:5966   */\n    tag_407:\n        /* \"#utility.yul\":5923:5927   */\n      0x00\n        /* \"#utility.yul\":5955:5959   */\n      0x20\n        /* \"#utility.yul\":5950:5953   */\n      dup3\n        /* \"#utility.yul\":5946:5960   */\n      add\n        /* \"#utility.yul\":5938:5960   */\n      swap1\n      pop\n        /* \"#utility.yul\":5832:5966   */\n      swap2\n      swap1\n      pop\n      jump\t// out\n        /* \"#utility.yul\":6038:7121   */\n    tag_408:\n        /* \"#utility.yul\":6199:6202   */\n      0x00\n        /* \"#utility.yul\":6228:6303   */\n      tag_511\n        /* \"#utility.yul\":6297:6302   */\n      dup3\n        /* \"#utility.yul\":6228:6303   */\n      tag_399\n      jump\t// in\n    tag_511:\n        /* \"#utility.yul\":6319:6426   */\n      tag_512\n        /* \"#utility.yul\":6419:6425   */\n      dup2\n        /* \"#utility.yul\":6414:6417   */\n      dup6\n        /* \"#utility.yul\":6319:6426   */\n      tag_400\n      jump\t// in\n    tag_512:\n        /* \"#utility.yul\":6312:6426   */\n      swap4\n      pop\n        /* \"#utility.yul\":6452:6455   */\n      dup4\n        /* \"#utility.yul\":6497:6501   */\n      0x20\n        /* \"#utility.yul\":6489:6495   */\n      dup3\n        /* \"#utility.yul\":6485:6502   */\n      mul\n        /* \"#utility.yul\":6480:6483   */\n      dup6\n        /* \"#utility.yul\":6476:6503   */\n      add\n        /* \"#utility.yul\":6527:6604   */\n      tag_513\n        /* \"#utility.yul\":6598:6603   */\n      dup6\n        /* \"#utility.yul\":6527:6604   */\n      tag_401\n      jump\t// in\n    tag_513:\n        /* \"#utility.yul\":6627:6634   */\n      dup1\n        /* \"#utility.yul\":6658:6659   */\n      0x00\n        /* \"#utility.yul\":6643:7076   */\n    tag_514:\n        /* \"#utility.yul\":6668:6674   */\n      dup6\n        /* \"#utility.yul\":6665:6666   */\n      dup2\n        /* \"#utility.yul\":6662:6675   */\n      lt\n        /* \"#utility.yul\":6643:7076   */\n      iszero\n      tag_516\n      jumpi\n        /* \"#utility.yul\":6739:6748   */\n      dup5\n        /* \"#utility.yul\":6733:6737   */\n      dup5\n        /* \"#utility.yul\":6729:6749   */\n      sub\n        /* \"#utility.yul\":6724:6727   */\n      dup10\n        /* \"#utility.yul\":6717:6750   */\n      mstore\n        /* \"#utility.yul\":6790:6796   */\n      dup2\n        /* \"#utility.yul\":6784:6797   */\n      mload\n        /* \"#utility.yul\":6818:6928   */\n      tag_517\n        /* \"#utility.yul\":6923:6927   */\n      dup6\n        /* \"#utility.yul\":6908:6921   */\n      dup3\n        /* \"#utility.yul\":6818:6928   */\n      tag_406\n      jump\t// in\n    tag_517:\n        /* \"#utility.yul\":6810:6928   */\n      swap5\n      pop\n        /* \"#utility.yul\":6951:7032   */\n      tag_518\n        /* \"#utility.yul\":7025:7031   */\n      dup4\n        /* \"#utility.yul\":6951:7032   */\n      tag_407\n      jump\t// in\n    tag_518:\n        /* \"#utility.yul\":6941:7032   */\n      swap3\n      pop\n        /* \"#utility.yul\":7061:7065   */\n      0x20\n        /* \"#utility.yul\":7056:7059   */\n      dup11\n        /* \"#utility.yul\":7052:7066   */\n      add\n        /* \"#utility.yul\":7045:7066   */\n      swap10\n      pop\n        /* \"#utility.yul\":6703:7076   */\n      pop\n        /* \"#utility.yul\":6690:6691   */\n      0x01\n        /* \"#utility.yul\":6687:6688   */\n      dup2\n        /* \"#utility.yul\":6683:6692   */\n      add\n        /* \"#utility.yul\":6678:6692   */\n      swap1\n      pop\n        /* \"#utility.yul\":6643:7076   */\n      jump(tag_514)\n    tag_516:\n        /* \"#utility.yul\":6647:6661   */\n      pop\n        /* \"#utility.yul\":7092:7096   */\n      dup3\n        /* \"#utility.yul\":7085:7096   */\n      swap8\n      pop\n        /* \"#utility.yul\":7112:7115   */\n      dup8\n        /* \"#utility.yul\":7105:7115   */\n      swap6\n      pop\n        /* \"#utility.yul\":6204:7121   */\n      pop\n      pop\n      pop\n      pop\n      pop\n        /* \"#utility.yul\":6038:7121   */\n      swap3\n      swap2\n      pop\n      pop\n      jump\t// out\n        /* \"#utility.yul\":7127:7584   */\n    tag_41:\n        /* \"#utility.yul\":7312:7316   */\n      0x00\n        /* \"#utility.yul\":7350:7352   */\n      0x20\n        /* \"#utility.yul\":7339:7348   */\n      dup3\n        /* \"#utility.yul\":7335:7353   */\n      add\n        /* \"#utility.yul\":7327:7353   */\n      swap1\n      pop\n        /* \"#utility.yul\":7399:7408   */\n      dup2\n        /* \"#utility.yul\":7393:7397   */\n      dup2\n        /* \"#utility.yul\":7389:7409   */\n      sub\n        /* \"#utility.yul\":7385:7386   */\n      0x00\n        /* \"#utility.yul\":7374:7383   */\n      dup4\n        /* \"#utility.yul\":7370:7387   */\n      add\n        /* \"#utility.yul\":7363:7410   */\n      mstore\n        /* \"#utility.yul\":7427:7577   */\n      tag_520\n        /* \"#utility.yul\":7572:7576   */\n      dup2\n        /* \"#utility.yul\":7563:7569   */\n      dup5\n        /* \"#utility.yul\":7427:7577   */\n      tag_408\n      jump\t// in\n    tag_520:\n        /* \"#utility.yul\":7419:7577   */\n      swap1\n      pop\n        /* \"#utility.yul\":7127:7584   */\n      swap3\n      swap2\n      pop\n      pop\n      jump\t// out\n        /* \"#utility.yul\":7590:7720   */\n    tag_409:\n        /* \"#utility.yul\":7681:7687   */\n      0x00\n        /* \"#utility.yul\":7709:7713   */\n      0x03\n        /* \"#utility.yul\":7699:7713   */\n      swap1\n      pop\n        /* \"#utility.yul\":7590:7720   */\n      swap2\n      swap1\n      pop\n      jump\t// out\n        /* \"#utility.yul\":7726:7895   */\n    tag_410:\n        /* \"#utility.yul\":7849:7860   */\n      0x00\n        /* \"#utility.yul\":7886:7889   */\n      dup2\n        /* \"#utility.yul\":7871:7889   */\n      swap1\n      pop\n        /* \"#utility.yul\":7726:7895   */\n      swap3\n      swap2\n      pop\n      pop\n      jump\t// out\n        /* \"#utility.yul\":7901:8025   */\n    tag_411:\n        /* \"#utility.yul\":7992:7996   */\n      0x00\n        /* \"#utility.yul\":8015:8018   */\n      dup2\n        /* \"#utility.yul\":8007:8018   */\n      swap1\n      pop\n        /* \"#utility.yul\":7901:8025   */\n      swap2\n      swap1\n      pop\n      jump\t// out\n        /* \"#utility.yul\":8097:9448   */\n    tag_412:\n        /* \"#utility.yul\":8208:8211   */\n      0x00\n        /* \"#utility.yul\":8244:8248   */\n      0xa0\n        /* \"#utility.yul\":8239:8242   */\n      dup4\n        /* \"#utility.yul\":8235:8249   */\n      add\n        /* \"#utility.yul\":8329:8333   */\n      0x00\n        /* \"#utility.yul\":8322:8327   */\n      dup4\n        /* \"#utility.yul\":8318:8334   */\n      add\n        /* \"#utility.yul\":8312:8335   */\n      mload\n        /* \"#utility.yul\":8348:8411   */\n      tag_525\n        /* \"#utility.yul\":8405:8409   */\n      0x00\n        /* \"#utility.yul\":8400:8403   */\n      dup7\n        /* \"#utility.yul\":8396:8410   */\n      add\n        /* \"#utility.yul\":8382:8394   */\n      dup3\n        /* \"#utility.yul\":8348:8411   */\n      tag_402\n      jump\t// in\n    tag_525:\n        /* \"#utility.yul\":8259:8421   */\n      pop\n        /* \"#utility.yul\":8503:8507   */\n      0x20\n        /* \"#utility.yul\":8496:8501   */\n      dup4\n        /* \"#utility.yul\":8492:8508   */\n      add\n        /* \"#utility.yul\":8486:8509   */\n      mload\n        /* \"#utility.yul\":8556:8559   */\n      dup5\n        /* \"#utility.yul\":8550:8554   */\n      dup3\n        /* \"#utility.yul\":8546:8560   */\n      sub\n        /* \"#utility.yul\":8539:8543   */\n      0x20\n        /* \"#utility.yul\":8534:8537   */\n      dup7\n        /* \"#utility.yul\":8530:8544   */\n      add\n        /* \"#utility.yul\":8523:8561   */\n      mstore\n        /* \"#utility.yul\":8582:8655   */\n      tag_526\n        /* \"#utility.yul\":8650:8654   */\n      dup3\n        /* \"#utility.yul\":8636:8648   */\n      dup3\n        /* \"#utility.yul\":8582:8655   */\n      tag_404\n      jump\t// in\n    tag_526:\n        /* \"#utility.yul\":8574:8655   */\n      swap2\n      pop\n        /* \"#utility.yul\":8431:8666   */\n      pop\n        /* \"#utility.yul\":8748:8752   */\n      0x40\n        /* \"#utility.yul\":8741:8746   */\n      dup4\n        /* \"#utility.yul\":8737:8753   */\n      add\n        /* \"#utility.yul\":8731:8754   */\n      mload\n        /* \"#utility.yul\":8801:8804   */\n      dup5\n        /* \"#utility.yul\":8795:8799   */\n      dup3\n        /* \"#utility.yul\":8791:8805   */\n      sub\n        /* \"#utility.yul\":8784:8788   */\n      0x40\n        /* \"#utility.yul\":8779:8782   */\n      dup7\n        /* \"#utility.yul\":8775:8789   */\n      add\n        /* \"#utility.yul\":8768:8806   */\n      mstore\n        /* \"#utility.yul\":8827:8900   */\n      tag_527\n        /* \"#utility.yul\":8895:8899   */\n      dup3\n        /* \"#utility.yul\":8881:8893   */\n      dup3\n        /* \"#utility.yul\":8827:8900   */\n      tag_404\n      jump\t// in\n    tag_527:\n        /* \"#utility.yul\":8819:8900   */\n      swap2\n      pop\n        /* \"#utility.yul\":8676:8911   */\n      pop\n        /* \"#utility.yul\":9006:9010   */\n      0x60\n        /* \"#utility.yul\":8999:9004   */\n      dup4\n        /* \"#utility.yul\":8995:9011   */\n      add\n        /* \"#utility.yul\":8989:9012   */\n      mload\n        /* \"#utility.yul\":9059:9062   */\n      dup5\n        /* \"#utility.yul\":9053:9057   */\n      dup3\n        /* \"#utility.yul\":9049:9063   */\n      sub\n        /* \"#utility.yul\":9042:9046   */\n      0x60\n        /* \"#utility.yul\":9037:9040   */\n      dup7\n        /* \"#utility.yul\":9033:9047   */\n      add\n        /* \"#utility.yul\":9026:9064   */\n      mstore\n        /* \"#utility.yul\":9085:9158   */\n      tag_528\n        /* \"#utility.yul\":9153:9157   */\n      dup3\n        /* \"#utility.yul\":9139:9151   */\n      dup3\n        /* \"#utility.yul\":9085:9158   */\n      tag_404\n      jump\t// in\n    tag_528:\n        /* \"#utility.yul\":9077:9158   */\n      swap2\n      pop\n        /* \"#utility.yul\":8921:9169   */\n      pop\n        /* \"#utility.yul\":9258:9262   */\n      0x80\n        /* \"#utility.yul\":9251:9256   */\n      dup4\n        /* \"#utility.yul\":9247:9263   */\n      add\n        /* \"#utility.yul\":9241:9264   */\n      mload\n        /* \"#utility.yul\":9311:9314   */\n      dup5\n        /* \"#utility.yul\":9305:9309   */\n      dup3\n        /* \"#utility.yul\":9301:9315   */\n      sub\n        /* \"#utility.yul\":9294:9298   */\n      0x80\n        /* \"#utility.yul\":9289:9292   */\n      dup7\n        /* \"#utility.yul\":9285:9299   */\n      add\n        /* \"#utility.yul\":9278:9316   */\n      mstore\n        /* \"#utility.yul\":9337:9410   */\n      tag_529\n        /* \"#utility.yul\":9405:9409   */\n      dup3\n        /* \"#utility.yul\":9391:9403   */\n      dup3\n        /* \"#utility.yul\":9337:9410   */\n      tag_404\n      jump\t// in\n    tag_529:\n        /* \"#utility.yul\":9329:9410   */\n      swap2\n      pop\n        /* \"#utility.yul\":9179:9421   */\n      pop\n        /* \"#utility.yul\":9438:9442   */\n      dup1\n        /* \"#utility.yul\":9431:9442   */\n      swap2\n      pop\n        /* \"#utility.yul\":8213:9448   */\n      pop\n        /* \"#utility.yul\":8097:9448   */\n      swap3\n      swap2\n      pop\n      pop\n      jump\t// out\n        /* \"#utility.yul\":9454:9714   */\n    tag_413:\n        /* \"#utility.yul\":9575:9585   */\n      0x00\n        /* \"#utility.yul\":9610:9708   */\n      tag_531\n        /* \"#utility.yul\":9704:9707   */\n      dup4\n        /* \"#utility.yul\":9696:9702   */\n      dup4\n        /* \"#utility.yul\":9610:9708   */\n      tag_412\n      jump\t// in\n    tag_531:\n        /* \"#utility.yul\":9596:9708   */\n      swap1\n      pop\n        /* \"#utility.yul\":9454:9714   */\n      swap3\n      swap2\n      pop\n      pop\n      jump\t// out\n        /* \"#utility.yul\":9720:9857   */\n    tag_414:\n        /* \"#utility.yul\":9814:9818   */\n      0x00\n        /* \"#utility.yul\":9846:9850   */\n      0x20\n        /* \"#utility.yul\":9841:9844   */\n      dup3\n        /* \"#utility.yul\":9837:9851   */\n      add\n        /* \"#utility.yul\":9829:9851   */\n      swap1\n      pop\n        /* \"#utility.yul\":9720:9857   */\n      swap2\n      swap1\n      pop\n      jump\t// out\n        /* \"#utility.yul\":9935:11042   */\n    tag_415:\n        /* \"#utility.yul\":10102:10105   */\n      0x00\n        /* \"#utility.yul\":10131:10209   */\n      tag_534\n        /* \"#utility.yul\":10203:10208   */\n      dup3\n        /* \"#utility.yul\":10131:10209   */\n      tag_409\n      jump\t// in\n    tag_534:\n        /* \"#utility.yul\":10225:10335   */\n      tag_535\n        /* \"#utility.yul\":10328:10334   */\n      dup2\n        /* \"#utility.yul\":10323:10326   */\n      dup6\n        /* \"#utility.yul\":10225:10335   */\n      tag_410\n      jump\t// in\n    tag_535:\n        /* \"#utility.yul\":10218:10335   */\n      swap4\n      pop\n        /* \"#utility.yul\":10361:10364   */\n      dup4\n        /* \"#utility.yul\":10406:10410   */\n      0x20\n        /* \"#utility.yul\":10398:10404   */\n      dup3\n        /* \"#utility.yul\":10394:10411   */\n      mul\n        /* \"#utility.yul\":10389:10392   */\n      dup6\n        /* \"#utility.yul\":10385:10412   */\n      add\n        /* \"#utility.yul\":10436:10516   */\n      tag_536\n        /* \"#utility.yul\":10510:10515   */\n      dup6\n        /* \"#utility.yul\":10436:10516   */\n      tag_411\n      jump\t// in\n    tag_536:\n        /* \"#utility.yul\":10539:10546   */\n      dup1\n        /* \"#utility.yul\":10570:10571   */\n      0x00\n        /* \"#utility.yul\":10555:10997   */\n    tag_537:\n        /* \"#utility.yul\":10580:10586   */\n      dup6\n        /* \"#utility.yul\":10577:10578   */\n      dup2\n        /* \"#utility.yul\":10574:10587   */\n      lt\n        /* \"#utility.yul\":10555:10997   */\n      iszero\n      tag_539\n      jumpi\n        /* \"#utility.yul\":10651:10660   */\n      dup5\n        /* \"#utility.yul\":10645:10649   */\n      dup5\n        /* \"#utility.yul\":10641:10661   */\n      sub\n        /* \"#utility.yul\":10636:10639   */\n      dup10\n        /* \"#utility.yul\":10629:10662   */\n      mstore\n        /* \"#utility.yul\":10702:10708   */\n      dup2\n        /* \"#utility.yul\":10696:10709   */\n      mload\n        /* \"#utility.yul\":10730:10846   */\n      tag_540\n        /* \"#utility.yul\":10841:10845   */\n      dup6\n        /* \"#utility.yul\":10826:10839   */\n      dup3\n        /* \"#utility.yul\":10730:10846   */\n      tag_413\n      jump\t// in\n    tag_540:\n        /* \"#utility.yul\":10722:10846   */\n      swap5\n      pop\n        /* \"#utility.yul\":10869:10953   */\n      tag_541\n        /* \"#utility.yul\":10946:10952   */\n      dup4\n        /* \"#utility.yul\":10869:10953   */\n      tag_414\n      jump\t// in\n    tag_541:\n        /* \"#utility.yul\":10859:10953   */\n      swap3\n      pop\n        /* \"#utility.yul\":10982:10986   */\n      0x20\n        /* \"#utility.yul\":10977:10980   */\n      dup11\n        /* \"#utility.yul\":10973:10987   */\n      add\n        /* \"#utility.yul\":10966:10987   */\n      swap10\n      pop\n        /* \"#utility.yul\":10615:10997   */\n      pop\n        /* \"#utility.yul\":10602:10603   */\n      0x01\n        /* \"#utility.yul\":10599:10600   */\n      dup2\n        /* \"#utility.yul\":10595:10604   */\n      add\n        /* \"#utility.yul\":10590:10604   */\n      swap1\n      pop\n        /* \"#utility.yul\":10555:10997   */\n      jump(tag_537)\n    tag_539:\n        /* \"#utility.yul\":10559:10573   */\n      pop\n        /* \"#utility.yul\":11013:11017   */\n      dup3\n        /* \"#utility.yul\":11006:11017   */\n      swap8\n      pop\n        /* \"#utility.yul\":11033:11036   */\n      dup8\n        /* \"#utility.yul\":11026:11036   */\n      swap6\n      pop\n        /* \"#utility.yul\":10107:11042   */\n      pop\n      pop\n      pop\n      pop\n      pop\n        /* \"#utility.yul\":9935:11042   */\n      swap3\n      swap2\n      pop\n      pop\n      jump\t// out\n        /* \"#utility.yul\":11048:11517   */\n    tag_46:\n        /* \"#utility.yul\":11239:11243   */\n      0x00\n        /* \"#utility.yul\":11277:11279   */\n      0x20\n        /* \"#utility.yul\":11266:11275   */\n      dup3\n        /* \"#utility.yul\":11262:11280   */\n      add\n        /* \"#utility.yul\":11254:11280   */\n      swap1\n      pop\n        /* \"#utility.yul\":11326:11335   */\n      dup2\n        /* \"#utility.yul\":11320:11324   */\n      dup2\n        /* \"#utility.yul\":11316:11336   */\n      sub\n        /* \"#utility.yul\":11312:11313   */\n      0x00\n        /* \"#utility.yul\":11301:11310   */\n      dup4\n        /* \"#utility.yul\":11297:11314   */\n      add\n        /* \"#utility.yul\":11290:11337   */\n      mstore\n        /* \"#utility.yul\":11354:11510   */\n      tag_543\n        /* \"#utility.yul\":11505:11509   */\n      dup2\n        /* \"#utility.yul\":11496:11502   */\n      dup5\n        /* \"#utility.yul\":11354:11510   */\n      tag_415\n      jump\t// in\n    tag_543:\n        /* \"#utility.yul\":11346:11510   */\n      swap1\n      pop\n        /* \"#utility.yul\":11048:11517   */\n      swap3\n      swap2\n      pop\n      pop\n      jump\t// out\n        /* \"#utility.yul\":11523:11649   */\n    tag_416:\n        /* \"#utility.yul\":11560:11567   */\n      0x00\n        /* \"#utility.yul\":11600:11642   */\n      0xffffffffffffffffffffffffffffffffffffffff\n        /* \"#utility.yul\":11593:11598   */\n      dup3\n        /* \"#utility.yul\":11589:11643   */\n      and\n        /* \"#utility.yul\":11578:11643   */\n      swap1\n      pop\n        /* \"#utility.yul\":11523:11649   */\n      swap2\n      swap1\n      pop\n      jump\t// out\n        /* \"#utility.yul\":11655:11751   */\n    tag_417:\n        /* \"#utility.yul\":11692:11699   */\n      0x00\n        /* \"#utility.yul\":11721:11745   */\n      tag_546\n        /* \"#utility.yul\":11739:11744   */\n      dup3\n        /* \"#utility.yul\":11721:11745   */\n      tag_416\n      jump\t// in\n    tag_546:\n        /* \"#utility.yul\":11710:11745   */\n      swap1\n      pop\n        /* \"#utility.yul\":11655:11751   */\n      swap2\n      swap1\n      pop\n      jump\t// out\n        /* \"#utility.yul\":11757:11875   */\n    tag_418:\n        /* \"#utility.yul\":11844:11868   */\n      tag_548\n        /* \"#utility.yul\":11862:11867   */\n      dup2\n        /* \"#utility.yul\":11844:11868   */\n      tag_417\n      jump\t// in\n    tag_548:\n        /* \"#utility.yul\":11839:11842   */\n      dup3\n        /* \"#utility.yul\":11832:11869   */\n      mstore\n        /* \"#utility.yul\":11757:11875   */\n      pop\n      pop\n      jump\t// out\n        /* \"#utility.yul\":11881:12103   */\n    tag_51:\n        /* \"#utility.yul\":11974:11978   */\n      0x00\n        /* \"#utility.yul\":12012:12014   */\n      0x20\n        /* \"#utility.yul\":12001:12010   */\n      dup3\n        /* \"#utility.yul\":11997:12015   */\n      add\n        /* \"#utility.yul\":11989:12015   */\n      swap1\n      pop\n        /* \"#utility.yul\":12025:12096   */\n      tag_550\n        /* \"#utility.yul\":12093:12094   */\n      0x00\n        /* \"#utility.yul\":12082:12091   */\n      dup4\n        /* \"#utility.yul\":12078:12095   */\n      add\n        /* \"#utility.yul\":12069:12075   */\n      dup5\n        /* \"#utility.yul\":12025:12096   */\n      tag_418\n      jump\t// in\n    tag_550:\n        /* \"#utility.yul\":11881:12103   */\n      swap3\n      swap2\n      pop\n      pop\n      jump\t// out\n        /* \"#utility.yul\":12109:12226   */\n    tag_419:\n        /* \"#utility.yul\":12218:12219   */\n      0x00\n        /* \"#utility.yul\":12215:12216   */\n      0x00\n        /* \"#utility.yul\":12208:12220   */\n      revert\n        /* \"#utility.yul\":12232:12349   */\n    tag_420:\n        /* \"#utility.yul\":12341:12342   */\n      0x00\n        /* \"#utility.yul\":12338:12339   */\n      0x00\n        /* \"#utility.yul\":12331:12343   */\n      revert\n        /* \"#utility.yul\":12355:12472   */\n    tag_421:\n        /* \"#utility.yul\":12464:12465   */\n      0x00\n        /* \"#utility.yul\":12461:12462   */\n      0x00\n        /* \"#utility.yul\":12454:12466   */\n      revert\n        /* \"#utility.yul\":12492:13045   */\n    tag_422:\n        /* \"#utility.yul\":12550:12558   */\n      0x00\n        /* \"#utility.yul\":12560:12566   */\n      0x00\n        /* \"#utility.yul\":12610:12613   */\n      dup4\n        /* \"#utility.yul\":12603:12607   */\n      0x1f\n        /* \"#utility.yul\":12595:12601   */\n      dup5\n        /* \"#utility.yul\":12591:12608   */\n      add\n        /* \"#utility.yul\":12587:12614   */\n      slt\n        /* \"#utility.yul\":12577:12699   */\n      tag_555\n      jumpi\n        /* \"#utility.yul\":12618:12697   */\n      tag_556\n      tag_419\n      jump\t// in\n    tag_556:\n        /* \"#utility.yul\":12577:12699   */\n    tag_555:\n        /* \"#utility.yul\":12731:12737   */\n      dup3\n        /* \"#utility.yul\":12718:12738   */\n      calldataload\n        /* \"#utility.yul\":12708:12738   */\n      swap1\n      pop\n        /* \"#utility.yul\":12761:12779   */\n      0xffffffffffffffff\n        /* \"#utility.yul\":12753:12759   */\n      dup2\n        /* \"#utility.yul\":12750:12780   */\n      gt\n        /* \"#utility.yul\":12747:12864   */\n      iszero\n      tag_557\n      jumpi\n        /* \"#utility.yul\":12783:12862   */\n      tag_558\n      tag_420\n      jump\t// in\n    tag_558:\n        /* \"#utility.yul\":12747:12864   */\n    tag_557:\n        /* \"#utility.yul\":12897:12901   */\n      0x20\n        /* \"#utility.yul\":12889:12895   */\n      dup4\n        /* \"#utility.yul\":12885:12902   */\n      add\n        /* \"#utility.yul\":12873:12902   */\n      swap2\n      pop\n        /* \"#utility.yul\":12951:12954   */\n      dup4\n        /* \"#utility.yul\":12943:12947   */\n      0x01\n        /* \"#utility.yul\":12935:12941   */\n      dup3\n        /* \"#utility.yul\":12931:12948   */\n      mul\n        /* \"#utility.yul\":12921:12929   */\n      dup4\n        /* \"#utility.yul\":12917:12949   */\n      add\n        /* \"#utility.yul\":12914:12955   */\n      gt\n        /* \"#utility.yul\":12911:13039   */\n      iszero\n      tag_559\n      jumpi\n        /* \"#utility.yul\":12958:13037   */\n      tag_560\n      tag_421\n      jump\t// in\n    tag_560:\n        /* \"#utility.yul\":12911:13039   */\n    tag_559:\n        /* \"#utility.yul\":12492:13045   */\n      swap3\n      pop\n      swap3\n      swap1\n      pop\n      jump\t// out\n        /* \"#utility.yul\":13051:13580   */\n    tag_55:\n        /* \"#utility.yul\":13122:13128   */\n      0x00\n        /* \"#utility.yul\":13130:13136   */\n      0x00\n        /* \"#utility.yul\":13179:13181   */\n      0x20\n        /* \"#utility.yul\":13167:13176   */\n      dup4\n        /* \"#utility.yul\":13158:13165   */\n      dup6\n        /* \"#utility.yul\":13154:13177   */\n      sub\n        /* \"#utility.yul\":13150:13182   */\n      slt\n        /* \"#utility.yul\":13147:13266   */\n      iszero\n      tag_562\n      jumpi\n        /* \"#utility.yul\":13185:13264   */\n      tag_563\n      tag_388\n      jump\t// in\n    tag_563:\n        /* \"#utility.yul\":13147:13266   */\n    tag_562:\n        /* \"#utility.yul\":13333:13334   */\n      0x00\n        /* \"#utility.yul\":13322:13331   */\n      dup4\n        /* \"#utility.yul\":13318:13335   */\n      add\n        /* \"#utility.yul\":13305:13336   */\n      calldataload\n        /* \"#utility.yul\":13363:13381   */\n      0xffffffffffffffff\n        /* \"#utility.yul\":13355:13361   */\n      dup2\n        /* \"#utility.yul\":13352:13382   */\n      gt\n        /* \"#utility.yul\":13349:13466   */\n      iszero\n      tag_564\n      jumpi\n        /* \"#utility.yul\":13385:13464   */\n      tag_565\n      tag_389\n      jump\t// in\n    tag_565:\n        /* \"#utility.yul\":13349:13466   */\n    tag_564:\n        /* \"#utility.yul\":13498:13563   */\n      tag_566\n        /* \"#utility.yul\":13555:13562   */\n      dup6\n        /* \"#utility.yul\":13546:13552   */\n      dup3\n        /* \"#utility.yul\":13535:13544   */\n      dup7\n        /* \"#utility.yul\":13531:13553   */\n      add\n        /* \"#utility.yul\":13498:13563   */\n      tag_422\n      jump\t// in\n    tag_566:\n        /* \"#utility.yul\":13480:13563   */\n      swap3\n      pop\n      swap3\n      pop\n        /* \"#utility.yul\":13276:13573   */\n      pop\n        /* \"#utility.yul\":13051:13580   */\n      swap3\n      pop\n      swap3\n      swap1\n      pop\n      jump\t// out\n        /* \"#utility.yul\":13586:15297   */\n    tag_60:\n        /* \"#utility.yul\":13729:13735   */\n      0x00\n        /* \"#utility.yul\":13737:13743   */\n      0x00\n        /* \"#utility.yul\":13745:13751   */\n      0x00\n        /* \"#utility.yul\":13753:13759   */\n      0x00\n        /* \"#utility.yul\":13761:13767   */\n      0x00\n        /* \"#utility.yul\":13769:13775   */\n      0x00\n        /* \"#utility.yul\":13777:13783   */\n      0x00\n        /* \"#utility.yul\":13785:13791   */\n      0x00\n        /* \"#utility.yul\":13793:13799   */\n      0x00\n        /* \"#utility.yul\":13842:13845   */\n      0xa0\n        /* \"#utility.yul\":13830:13839   */\n      dup11\n        /* \"#utility.yul\":13821:13828   */\n      dup13\n        /* \"#utility.yul\":13817:13840   */\n      sub\n        /* \"#utility.yul\":13813:13846   */\n      slt\n        /* \"#utility.yul\":13810:13930   */\n      iszero\n      tag_568\n      jumpi\n        /* \"#utility.yul\":13849:13928   */\n      tag_569\n      tag_388\n      jump\t// in\n    tag_569:\n        /* \"#utility.yul\":13810:13930   */\n    tag_568:\n        /* \"#utility.yul\":13997:13998   */\n      0x00\n        /* \"#utility.yul\":13986:13995   */\n      dup11\n        /* \"#utility.yul\":13982:13999   */\n      add\n        /* \"#utility.yul\":13969:14000   */\n      calldataload\n        /* \"#utility.yul\":14027:14045   */\n      0xffffffffffffffff\n        /* \"#utility.yul\":14019:14025   */\n      dup2\n        /* \"#utility.yul\":14016:14046   */\n      gt\n        /* \"#utility.yul\":14013:14130   */\n      iszero\n      tag_570\n      jumpi\n        /* \"#utility.yul\":14049:14128   */\n      tag_571\n      tag_389\n      jump\t// in\n    tag_571:\n        /* \"#utility.yul\":14013:14130   */\n    tag_570:\n        /* \"#utility.yul\":14162:14227   */\n      tag_572\n        /* \"#utility.yul\":14219:14226   */\n      dup13\n        /* \"#utility.yul\":14210:14216   */\n      dup3\n        /* \"#utility.yul\":14199:14208   */\n      dup14\n        /* \"#utility.yul\":14195:14217   */\n      add\n        /* \"#utility.yul\":14162:14227   */\n      tag_422\n      jump\t// in\n    tag_572:\n        /* \"#utility.yul\":14144:14227   */\n      swap10\n      pop\n      swap10\n      pop\n        /* \"#utility.yul\":13940:14237   */\n      pop\n        /* \"#utility.yul\":14304:14306   */\n      0x20\n        /* \"#utility.yul\":14293:14302   */\n      dup11\n        /* \"#utility.yul\":14289:14307   */\n      add\n        /* \"#utility.yul\":14276:14308   */\n      calldataload\n        /* \"#utility.yul\":14335:14353   */\n      0xffffffffffffffff\n        /* \"#utility.yul\":14327:14333   */\n      dup2\n        /* \"#utility.yul\":14324:14354   */\n      gt\n        /* \"#utility.yul\":14321:14438   */\n      iszero\n      tag_573\n      jumpi\n        /* \"#utility.yul\":14357:14436   */\n      tag_574\n      tag_389\n      jump\t// in\n    tag_574:\n        /* \"#utility.yul\":14321:14438   */\n    tag_573:\n        /* \"#utility.yul\":14470:14535   */\n      tag_575\n        /* \"#utility.yul\":14527:14534   */\n      dup13\n        /* \"#utility.yul\":14518:14524   */\n      dup3\n        /* \"#utility.yul\":14507:14516   */\n      dup14\n        /* \"#utility.yul\":14503:14525   */\n      add\n        /* \"#utility.yul\":14470:14535   */\n      tag_422\n      jump\t// in\n    tag_575:\n        /* \"#utility.yul\":14452:14535   */\n      swap8\n      pop\n      swap8\n      pop\n        /* \"#utility.yul\":14247:14545   */\n      pop\n        /* \"#utility.yul\":14612:14614   */\n      0x40\n        /* \"#utility.yul\":14601:14610   */\n      dup11\n        /* \"#utility.yul\":14597:14615   */\n      add\n        /* \"#utility.yul\":14584:14616   */\n      calldataload\n        /* \"#utility.yul\":14643:14661   */\n      0xffffffffffffffff\n        /* \"#utility.yul\":14635:14641   */\n      dup2\n        /* \"#utility.yul\":14632:14662   */\n      gt\n        /* \"#utility.yul\":14629:14746   */\n      iszero\n      tag_576\n      jumpi\n        /* \"#utility.yul\":14665:14744   */\n      tag_577\n      tag_389\n      jump\t// in\n    tag_577:\n        /* \"#utility.yul\":14629:14746   */\n    tag_576:\n        /* \"#utility.yul\":14778:14843   */\n      tag_578\n        /* \"#utility.yul\":14835:14842   */\n      dup13\n        /* \"#utility.yul\":14826:14832   */\n      dup3\n        /* \"#utility.yul\":14815:14824   */\n      dup14\n        /* \"#utility.yul\":14811:14833   */\n      add\n        /* \"#utility.yul\":14778:14843   */\n      tag_422\n      jump\t// in\n    tag_578:\n        /* \"#utility.yul\":14760:14843   */\n      swap6\n      pop\n      swap6\n      pop\n        /* \"#utility.yul\":14555:14853   */\n      pop\n        /* \"#utility.yul\":14920:14922   */\n      0x60\n        /* \"#utility.yul\":14909:14918   */\n      dup11\n        /* \"#utility.yul\":14905:14923   */\n      add\n        /* \"#utility.yul\":14892:14924   */\n      calldataload\n        /* \"#utility.yul\":14951:14969   */\n      0xffffffffffffffff\n        /* \"#utility.yul\":14943:14949   */\n      dup2\n        /* \"#utility.yul\":14940:14970   */\n      gt\n        /* \"#utility.yul\":14937:15054   */\n      iszero\n      tag_579\n      jumpi\n        /* \"#utility.yul\":14973:15052   */\n      tag_580\n      tag_389\n      jump\t// in\n    tag_580:\n        /* \"#utility.yul\":14937:15054   */\n    tag_579:\n        /* \"#utility.yul\":15086:15151   */\n      tag_581\n        /* \"#utility.yul\":15143:15150   */\n      dup13\n        /* \"#utility.yul\":15134:15140   */\n      dup3\n        /* \"#utility.yul\":15123:15132   */\n      dup14\n        /* \"#utility.yul\":15119:15141   */\n      add\n        /* \"#utility.yul\":15086:15151   */\n      tag_422\n      jump\t// in\n    tag_581:\n        /* \"#utility.yul\":15068:15151   */\n      swap4\n      pop\n      swap4\n      pop\n        /* \"#utility.yul\":14863:15161   */\n      pop\n        /* \"#utility.yul\":15200:15203   */\n      0x80\n        /* \"#utility.yul\":15227:15280   */\n      tag_582\n        /* \"#utility.yul\":15272:15279   */\n      dup13\n        /* \"#utility.yul\":15263:15269   */\n      dup3\n        /* \"#utility.yul\":15252:15261   */\n      dup14\n        /* \"#utility.yul\":15248:15270   */\n      add\n        /* \"#utility.yul\":15227:15280   */\n      tag_392\n      jump\t// in\n    tag_582:\n        /* \"#utility.yul\":15217:15280   */\n      swap2\n      pop\n        /* \"#utility.yul\":15171:15290   */\n      pop\n        /* \"#utility.yul\":13586:15297   */\n      swap3\n      swap6\n      swap9\n      pop\n      swap3\n      swap6\n      swap9\n      pop\n      swap3\n      swap6\n      swap9\n      jump\t// out\n        /* \"#utility.yul\":15303:15616   */\n    tag_66:\n        /* \"#utility.yul\":15416:15420   */\n      0x00\n        /* \"#utility.yul\":15454:15456   */\n      0x20\n        /* \"#utility.yul\":15443:15452   */\n      dup3\n        /* \"#utility.yul\":15439:15457   */\n      add\n        /* \"#utility.yul\":15431:15457   */\n      swap1\n      pop\n        /* \"#utility.yul\":15503:15512   */\n      dup2\n        /* \"#utility.yul\":15497:15501   */\n      dup2\n        /* \"#utility.yul\":15493:15513   */\n      sub\n        /* \"#utility.yul\":15489:15490   */\n      0x00\n        /* \"#utility.yul\":15478:15487   */\n      dup4\n        /* \"#utility.yul\":15474:15491   */\n      add\n        /* \"#utility.yul\":15467:15514   */\n      mstore\n        /* \"#utility.yul\":15531:15609   */\n      tag_584\n        /* \"#utility.yul\":15604:15608   */\n      dup2\n        /* \"#utility.yul\":15595:15601   */\n      dup5\n        /* \"#utility.yul\":15531:15609   */\n      tag_398\n      jump\t// in\n    tag_584:\n        /* \"#utility.yul\":15523:15609   */\n      swap1\n      pop\n        /* \"#utility.yul\":15303:15616   */\n      swap3\n      swap2\n      pop\n      pop\n      jump\t// out\n        /* \"#utility.yul\":15622:17187   */\n    tag_70:\n        /* \"#utility.yul\":15756:15762   */\n      0x00\n        /* \"#utility.yul\":15764:15770   */\n      0x00\n        /* \"#utility.yul\":15772:15778   */\n      0x00\n        /* \"#utility.yul\":15780:15786   */\n      0x00\n        /* \"#utility.yul\":15788:15794   */\n      0x00\n        /* \"#utility.yul\":15796:15802   */\n      0x00\n        /* \"#utility.yul\":15804:15810   */\n      0x00\n        /* \"#utility.yul\":15812:15818   */\n      0x00\n        /* \"#utility.yul\":15861:15864   */\n      0x80\n        /* \"#utility.yul\":15849:15858   */\n      dup10\n        /* \"#utility.yul\":15840:15847   */\n      dup12\n        /* \"#utility.yul\":15836:15859   */\n      sub\n        /* \"#utility.yul\":15832:15865   */\n      slt\n        /* \"#utility.yul\":15829:15949   */\n      iszero\n      tag_586\n      jumpi\n        /* \"#utility.yul\":15868:15947   */\n      tag_587\n      tag_388\n      jump\t// in\n    tag_587:\n        /* \"#utility.yul\":15829:15949   */\n    tag_586:\n        /* \"#utility.yul\":16016:16017   */\n      0x00\n        /* \"#utility.yul\":16005:16014   */\n      dup10\n        /* \"#utility.yul\":16001:16018   */\n      add\n        /* \"#utility.yul\":15988:16019   */\n      calldataload\n        /* \"#utility.yul\":16046:16064   */\n      0xffffffffffffffff\n        /* \"#utility.yul\":16038:16044   */\n      dup2\n        /* \"#utility.yul\":16035:16065   */\n      gt\n        /* \"#utility.yul\":16032:16149   */\n      iszero\n      tag_588\n      jumpi\n        /* \"#utility.yul\":16068:16147   */\n      tag_589\n      tag_389\n      jump\t// in\n    tag_589:\n        /* \"#utility.yul\":16032:16149   */\n    tag_588:\n        /* \"#utility.yul\":16181:16246   */\n      tag_590\n        /* \"#utility.yul\":16238:16245   */\n      dup12\n        /* \"#utility.yul\":16229:16235   */\n      dup3\n        /* \"#utility.yul\":16218:16227   */\n      dup13\n        /* \"#utility.yul\":16214:16236   */\n      add\n        /* \"#utility.yul\":16181:16246   */\n      tag_422\n      jump\t// in\n    tag_590:\n        /* \"#utility.yul\":16163:16246   */\n      swap9\n      pop\n      swap9\n      pop\n        /* \"#utility.yul\":15959:16256   */\n      pop\n        /* \"#utility.yul\":16323:16325   */\n      0x20\n        /* \"#utility.yul\":16312:16321   */\n      dup10\n        /* \"#utility.yul\":16308:16326   */\n      add\n        /* \"#utility.yul\":16295:16327   */\n      calldataload\n        /* \"#utility.yul\":16354:16372   */\n      0xffffffffffffffff\n        /* \"#utility.yul\":16346:16352   */\n      dup2\n        /* \"#utility.yul\":16343:16373   */\n      gt\n        /* \"#utility.yul\":16340:16457   */\n      iszero\n      tag_591\n      jumpi\n        /* \"#utility.yul\":16376:16455   */\n      tag_592\n      tag_389\n      jump\t// in\n    tag_592:\n        /* \"#utility.yul\":16340:16457   */\n    tag_591:\n        /* \"#utility.yul\":16489:16554   */\n      tag_593\n        /* \"#utility.yul\":16546:16553   */\n      dup12\n        /* \"#utility.yul\":16537:16543   */\n      dup3\n        /* \"#utility.yul\":16526:16535   */\n      dup13\n        /* \"#utility.yul\":16522:16544   */\n      add\n        /* \"#utility.yul\":16489:16554   */\n      tag_422\n      jump\t// in\n    tag_593:\n        /* \"#utility.yul\":16471:16554   */\n      swap7\n      pop\n      swap7\n      pop\n        /* \"#utility.yul\":16266:16564   */\n      pop\n        /* \"#utility.yul\":16631:16633   */\n      0x40\n        /* \"#utility.yul\":16620:16629   */\n      dup10\n        /* \"#utility.yul\":16616:16634   */\n      add\n        /* \"#utility.yul\":16603:16635   */\n      calldataload\n        /* \"#utility.yul\":16662:16680   */\n      0xffffffffffffffff\n        /* \"#utility.yul\":16654:16660   */\n      dup2\n        /* \"#utility.yul\":16651:16681   */\n      gt\n        /* \"#utility.yul\":16648:16765   */\n      iszero\n      tag_594\n      jumpi\n        /* \"#utility.yul\":16684:16763   */\n      tag_595\n      tag_389\n      jump\t// in\n    tag_595:\n        /* \"#utility.yul\":16648:16765   */\n    tag_594:\n        /* \"#utility.yul\":16797:16862   */\n      tag_596\n        /* \"#utility.yul\":16854:16861   */\n      dup12\n        /* \"#utility.yul\":16845:16851   */\n      dup3\n        /* \"#utility.yul\":16834:16843   */\n      dup13\n        /* \"#utility.yul\":16830:16852   */\n      add\n        /* \"#utility.yul\":16797:16862   */\n      tag_422\n      jump\t// in\n    tag_596:\n        /* \"#utility.yul\":16779:16862   */\n      swap5\n      pop\n      swap5\n      pop\n        /* \"#utility.yul\":16574:16872   */\n      pop\n        /* \"#utility.yul\":16939:16941   */\n      0x60\n        /* \"#utility.yul\":16928:16937   */\n      dup10\n        /* \"#utility.yul\":16924:16942   */\n      add\n        /* \"#utility.yul\":16911:16943   */\n      calldataload\n        /* \"#utility.yul\":16970:16988   */\n      0xffffffffffffffff\n        /* \"#utility.yul\":16962:16968   */\n      dup2\n        /* \"#utility.yul\":16959:16989   */\n      gt\n        /* \"#utility.yul\":16956:17073   */\n      iszero\n      tag_597\n      jumpi\n        /* \"#utility.yul\":16992:17071   */\n      tag_598\n      tag_389\n      jump\t// in\n    tag_598:\n        /* \"#utility.yul\":16956:17073   */\n    tag_597:\n        /* \"#utility.yul\":17105:17170   */\n      tag_599\n        /* \"#utility.yul\":17162:17169   */\n      dup12\n        /* \"#utility.yul\":17153:17159   */\n      dup3\n        /* \"#utility.yul\":17142:17151   */\n      dup13\n        /* \"#utility.yul\":17138:17160   */\n      add\n        /* \"#utility.yul\":17105:17170   */\n      tag_422\n      jump\t// in\n    tag_599:\n        /* \"#utility.yul\":17087:17170   */\n      swap3\n      pop\n      swap3\n      pop\n        /* \"#utility.yul\":16882:17180   */\n      pop\n        /* \"#utility.yul\":15622:17187   */\n      swap3\n      swap6\n      swap9\n      pop\n      swap3\n      swap6\n      swap9\n      swap1\n      swap4\n      swap7\n      pop\n      jump\t// out\n        /* \"#utility.yul\":17193:17322   */\n    tag_423:\n        /* \"#utility.yul\":17283:17289   */\n      0x00\n        /* \"#utility.yul\":17311:17315   */\n      0x03\n        /* \"#utility.yul\":17301:17315   */\n      swap1\n      pop\n        /* \"#utility.yul\":17193:17322   */\n      swap2\n      swap1\n      pop\n      jump\t// out\n        /* \"#utility.yul\":17328:17496   */\n    tag_424:\n        /* \"#utility.yul\":17450:17461   */\n      0x00\n        /* \"#utility.yul\":17487:17490   */\n      dup2\n        /* \"#utility.yul\":17472:17490   */\n      swap1\n      pop\n        /* \"#utility.yul\":17328:17496   */\n      swap3\n      swap2\n      pop\n      pop\n      jump\t// out\n        /* \"#utility.yul\":17502:17625   */\n    tag_425:\n        /* \"#utility.yul\":17592:17596   */\n      0x00\n        /* \"#utility.yul\":17615:17618   */\n      dup2\n        /* \"#utility.yul\":17607:17618   */\n      swap1\n      pop\n        /* \"#utility.yul\":17502:17625   */\n      swap2\n      swap1\n      pop\n      jump\t// out\n        /* \"#utility.yul\":17695:19048   */\n    tag_426:\n        /* \"#utility.yul\":17804:17807   */\n      0x00\n        /* \"#utility.yul\":17840:17844   */\n      0xa0\n        /* \"#utility.yul\":17835:17838   */\n      dup4\n        /* \"#utility.yul\":17831:17845   */\n      add\n        /* \"#utility.yul\":17925:17929   */\n      0x00\n        /* \"#utility.yul\":17918:17923   */\n      dup4\n        /* \"#utility.yul\":17914:17930   */\n      add\n        /* \"#utility.yul\":17908:17931   */\n      mload\n        /* \"#utility.yul\":17944:18007   */\n      tag_604\n        /* \"#utility.yul\":18001:18005   */\n      0x00\n        /* \"#utility.yul\":17996:17999   */\n      dup7\n        /* \"#utility.yul\":17992:18006   */\n      add\n        /* \"#utility.yul\":17978:17990   */\n      dup3\n        /* \"#utility.yul\":17944:18007   */\n      tag_402\n      jump\t// in\n    tag_604:\n        /* \"#utility.yul\":17855:18017   */\n      pop\n        /* \"#utility.yul\":18099:18103   */\n      0x20\n        /* \"#utility.yul\":18092:18097   */\n      dup4\n        /* \"#utility.yul\":18088:18104   */\n      add\n        /* \"#utility.yul\":18082:18105   */\n      mload\n        /* \"#utility.yul\":18152:18155   */\n      dup5\n        /* \"#utility.yul\":18146:18150   */\n      dup3\n        /* \"#utility.yul\":18142:18156   */\n      sub\n        /* \"#utility.yul\":18135:18139   */\n      0x20\n        /* \"#utility.yul\":18130:18133   */\n      dup7\n        /* \"#utility.yul\":18126:18140   */\n      add\n        /* \"#utility.yul\":18119:18157   */\n      mstore\n        /* \"#utility.yul\":18178:18251   */\n      tag_605\n        /* \"#utility.yul\":18246:18250   */\n      dup3\n        /* \"#utility.yul\":18232:18244   */\n      dup3\n        /* \"#utility.yul\":18178:18251   */\n      tag_404\n      jump\t// in\n    tag_605:\n        /* \"#utility.yul\":18170:18251   */\n      swap2\n      pop\n        /* \"#utility.yul\":18027:18262   */\n      pop\n        /* \"#utility.yul\":18346:18350   */\n      0x40\n        /* \"#utility.yul\":18339:18344   */\n      dup4\n        /* \"#utility.yul\":18335:18351   */\n      add\n        /* \"#utility.yul\":18329:18352   */\n      mload\n        /* \"#utility.yul\":18399:18402   */\n      dup5\n        /* \"#utility.yul\":18393:18397   */\n      dup3\n        /* \"#utility.yul\":18389:18403   */\n      sub\n        /* \"#utility.yul\":18382:18386   */\n      0x40\n        /* \"#utility.yul\":18377:18380   */\n      dup7\n        /* \"#utility.yul\":18373:18387   */\n      add\n        /* \"#utility.yul\":18366:18404   */\n      mstore\n        /* \"#utility.yul\":18425:18498   */\n      tag_606\n        /* \"#utility.yul\":18493:18497   */\n      dup3\n        /* \"#utility.yul\":18479:18491   */\n      dup3\n        /* \"#utility.yul\":18425:18498   */\n      tag_404\n      jump\t// in\n    tag_606:\n        /* \"#utility.yul\":18417:18498   */\n      swap2\n      pop\n        /* \"#utility.yul\":18272:18509   */\n      pop\n        /* \"#utility.yul\":18604:18608   */\n      0x60\n        /* \"#utility.yul\":18597:18602   */\n      dup4\n        /* \"#utility.yul\":18593:18609   */\n      add\n        /* \"#utility.yul\":18587:18610   */\n      mload\n        /* \"#utility.yul\":18657:18660   */\n      dup5\n        /* \"#utility.yul\":18651:18655   */\n      dup3\n        /* \"#utility.yul\":18647:18661   */\n      sub\n        /* \"#utility.yul\":18640:18644   */\n      0x60\n        /* \"#utility.yul\":18635:18638   */\n      dup7\n        /* \"#utility.yul\":18631:18645   */\n      add\n        /* \"#utility.yul\":18624:18662   */\n      mstore\n        /* \"#utility.yul\":18683:18756   */\n      tag_607\n        /* \"#utility.yul\":18751:18755   */\n      dup3\n        /* \"#utility.yul\":18737:18749   */\n      dup3\n        /* \"#utility.yul\":18683:18756   */\n      tag_404\n      jump\t// in\n    tag_607:\n        /* \"#utility.yul\":18675:18756   */\n      swap2\n      pop\n        /* \"#utility.yul\":18519:18767   */\n      pop\n        /* \"#utility.yul\":18858:18862   */\n      0x80\n        /* \"#utility.yul\":18851:18856   */\n      dup4\n        /* \"#utility.yul\":18847:18863   */\n      add\n        /* \"#utility.yul\":18841:18864   */\n      mload\n        /* \"#utility.yul\":18911:18914   */\n      dup5\n        /* \"#utility.yul\":18905:18909   */\n      dup3\n        /* \"#utility.yul\":18901:18915   */\n      sub\n        /* \"#utility.yul\":18894:18898   */\n      0x80\n        /* \"#utility.yul\":18889:18892   */\n      dup7\n        /* \"#utility.yul\":18885:18899   */\n      add\n        /* \"#utility.yul\":18878:18916   */\n      mstore\n        /* \"#utility.yul\":18937:19010   */\n      tag_608\n        /* \"#utility.yul\":19005:19009   */\n      dup3\n        /* \"#utility.yul\":18991:19003   */\n      dup3\n        /* \"#utility.yul\":18937:19010   */\n      tag_404\n      jump\t// in\n    tag_608:\n        /* \"#utility.yul\":18929:19010   */\n      swap2\n      pop\n        /* \"#utility.yul\":18777:19021   */\n      pop\n        /* \"#utility.yul\":19038:19042   */\n      dup1\n        /* \"#utility.yul\":19031:19042   */\n      swap2\n      pop\n        /* \"#utility.yul\":17809:19048   */\n      pop\n        /* \"#utility.yul\":17695:19048   */\n      swap3\n      swap2\n      pop\n      pop\n      jump\t// out\n        /* \"#utility.yul\":19054:19310   */\n    tag_427:\n        /* \"#utility.yul\":19173:19183   */\n      0x00\n        /* \"#utility.yul\":19208:19304   */\n      tag_610\n        /* \"#utility.yul\":19300:19303   */\n      dup4\n        /* \"#utility.yul\":19292:19298   */\n      dup4\n        /* \"#utility.yul\":19208:19304   */\n      tag_426\n      jump\t// in\n    tag_610:\n        /* \"#utility.yul\":19194:19304   */\n      swap1\n      pop\n        /* \"#utility.yul\":19054:19310   */\n      swap3\n      swap2\n      pop\n      pop\n      jump\t// out\n        /* \"#utility.yul\":19316:19452   */\n    tag_428:\n        /* \"#utility.yul\":19409:19413   */\n      0x00\n        /* \"#utility.yul\":19441:19445   */\n      0x20\n        /* \"#utility.yul\":19436:19439   */\n      dup3\n        /* \"#utility.yul\":19432:19446   */\n      add\n        /* \"#utility.yul\":19424:19446   */\n      swap1\n      pop\n        /* \"#utility.yul\":19316:19452   */\n      swap2\n      swap1\n      pop\n      jump\t// out\n        /* \"#utility.yul\":19528:20627   */\n    tag_429:\n        /* \"#utility.yul\":19693:19696   */\n      0x00\n        /* \"#utility.yul\":19722:19799   */\n      tag_613\n        /* \"#utility.yul\":19793:19798   */\n      dup3\n        /* \"#utility.yul\":19722:19799   */\n      tag_423\n      jump\t// in\n    tag_613:\n        /* \"#utility.yul\":19815:19924   */\n      tag_614\n        /* \"#utility.yul\":19917:19923   */\n      dup2\n        /* \"#utility.yul\":19912:19915   */\n      dup6\n        /* \"#utility.yul\":19815:19924   */\n      tag_424\n      jump\t// in\n    tag_614:\n        /* \"#utility.yul\":19808:19924   */\n      swap4\n      pop\n        /* \"#utility.yul\":19950:19953   */\n      dup4\n        /* \"#utility.yul\":19995:19999   */\n      0x20\n        /* \"#utility.yul\":19987:19993   */\n      dup3\n        /* \"#utility.yul\":19983:20000   */\n      mul\n        /* \"#utility.yul\":19978:19981   */\n      dup6\n        /* \"#utility.yul\":19974:20001   */\n      add\n        /* \"#utility.yul\":20025:20104   */\n      tag_615\n        /* \"#utility.yul\":20098:20103   */\n      dup6\n        /* \"#utility.yul\":20025:20104   */\n      tag_425\n      jump\t// in\n    tag_615:\n        /* \"#utility.yul\":20127:20134   */\n      dup1\n        /* \"#utility.yul\":20158:20159   */\n      0x00\n        /* \"#utility.yul\":20143:20582   */\n    tag_616:\n        /* \"#utility.yul\":20168:20174   */\n      dup6\n        /* \"#utility.yul\":20165:20166   */\n      dup2\n        /* \"#utility.yul\":20162:20175   */\n      lt\n        /* \"#utility.yul\":20143:20582   */\n      iszero\n      tag_618\n      jumpi\n        /* \"#utility.yul\":20239:20248   */\n      dup5\n        /* \"#utility.yul\":20233:20237   */\n      dup5\n        /* \"#utility.yul\":20229:20249   */\n      sub\n        /* \"#utility.yul\":20224:20227   */\n      dup10\n        /* \"#utility.yul\":20217:20250   */\n      mstore\n        /* \"#utility.yul\":20290:20296   */\n      dup2\n        /* \"#utility.yul\":20284:20297   */\n      mload\n        /* \"#utility.yul\":20318:20432   */\n      tag_619\n        /* \"#utility.yul\":20427:20431   */\n      dup6\n        /* \"#utility.yul\":20412:20425   */\n      dup3\n        /* \"#utility.yul\":20318:20432   */\n      tag_427\n      jump\t// in\n    tag_619:\n        /* \"#utility.yul\":20310:20432   */\n      swap5\n      pop\n        /* \"#utility.yul\":20455:20538   */\n      tag_620\n        /* \"#utility.yul\":20531:20537   */\n      dup4\n        /* \"#utility.yul\":20455:20538   */\n      tag_428\n      jump\t// in\n    tag_620:\n        /* \"#utility.yul\":20445:20538   */\n      swap3\n      pop\n        /* \"#utility.yul\":20567:20571   */\n      0x20\n        /* \"#utility.yul\":20562:20565   */\n      dup11\n        /* \"#utility.yul\":20558:20572   */\n      add\n        /* \"#utility.yul\":20551:20572   */\n      swap10\n      pop\n        /* \"#utility.yul\":20203:20582   */\n      pop\n        /* \"#utility.yul\":20190:20191   */\n      0x01\n        /* \"#utility.yul\":20187:20188   */\n      dup2\n        /* \"#utility.yul\":20183:20192   */\n      add\n        /* \"#utility.yul\":20178:20192   */\n      swap1\n      pop\n        /* \"#utility.yul\":20143:20582   */\n      jump(tag_616)\n    tag_618:\n        /* \"#utility.yul\":20147:20161   */\n      pop\n        /* \"#utility.yul\":20598:20602   */\n      dup3\n        /* \"#utility.yul\":20591:20602   */\n      swap8\n      pop\n        /* \"#utility.yul\":20618:20621   */\n      dup8\n        /* \"#utility.yul\":20611:20621   */\n      swap6\n      pop\n        /* \"#utility.yul\":19698:20627   */\n      pop\n      pop\n      pop\n      pop\n      pop\n        /* \"#utility.yul\":19528:20627   */\n      swap3\n      swap2\n      pop\n      pop\n      jump\t// out\n        /* \"#utility.yul\":20633:21098   */\n    tag_93:\n        /* \"#utility.yul\":20822:20826   */\n      0x00\n        /* \"#utility.yul\":20860:20862   */\n      0x20\n        /* \"#utility.yul\":20849:20858   */\n      dup3\n        /* \"#utility.yul\":20845:20863   */\n      add\n        /* \"#utility.yul\":20837:20863   */\n      swap1\n      pop\n        /* \"#utility.yul\":20909:20918   */\n      dup2\n        /* \"#utility.yul\":20903:20907   */\n      dup2\n        /* \"#utility.yul\":20899:20919   */\n      sub\n        /* \"#utility.yul\":20895:20896   */\n      0x00\n        /* \"#utility.yul\":20884:20893   */\n      dup4\n        /* \"#utility.yul\":20880:20897   */\n      add\n        /* \"#utility.yul\":20873:20920   */\n      mstore\n        /* \"#utility.yul\":20937:21091   */\n      tag_622\n        /* \"#utility.yul\":21086:21090   */\n      dup2\n        /* \"#utility.yul\":21077:21083   */\n      dup5\n        /* \"#utility.yul\":20937:21091   */\n      tag_429\n      jump\t// in\n    tag_622:\n        /* \"#utility.yul\":20929:21091   */\n      swap1\n      pop\n        /* \"#utility.yul\":20633:21098   */\n      swap3\n      swap2\n      pop\n      pop\n      jump\t// out\n        /* \"#utility.yul\":21104:21284   */\n    tag_430:\n        /* \"#utility.yul\":21152:21229   */\n      0x4e487b7100000000000000000000000000000000000000000000000000000000\n        /* \"#utility.yul\":21149:21150   */\n      0x00\n        /* \"#utility.yul\":21142:21230   */\n      mstore\n        /* \"#utility.yul\":21249:21253   */\n      0x22\n        /* \"#utility.yul\":21246:21247   */\n      0x04\n        /* \"#utility.yul\":21239:21254   */\n      mstore\n        /* \"#utility.yul\":21273:21277   */\n      0x24\n        /* \"#utility.yul\":21270:21271   */\n      0x00\n        /* \"#utility.yul\":21263:21278   */\n      revert\n        /* \"#utility.yul\":21290:21610   */\n    tag_119:\n        /* \"#utility.yul\":21334:21340   */\n      0x00\n        /* \"#utility.yul\":21371:21372   */\n      0x02\n        /* \"#utility.yul\":21365:21369   */\n      dup3\n        /* \"#utility.yul\":21361:21373   */\n      div\n        /* \"#utility.yul\":21351:21373   */\n      swap1\n      pop\n        /* \"#utility.yul\":21418:21419   */\n      0x01\n        /* \"#utility.yul\":21412:21416   */\n      dup3\n        /* \"#utility.yul\":21408:21420   */\n      and\n        /* \"#utility.yul\":21439:21457   */\n      dup1\n        /* \"#utility.yul\":21429:21510   */\n      tag_625\n      jumpi\n        /* \"#utility.yul\":21495:21499   */\n      0x7f\n        /* \"#utility.yul\":21487:21493   */\n      dup3\n        /* \"#utility.yul\":21483:21500   */\n      and\n        /* \"#utility.yul\":21473:21500   */\n      swap2\n      pop\n        /* \"#utility.yul\":21429:21510   */\n    tag_625:\n        /* \"#utility.yul\":21557:21559   */\n      0x20\n        /* \"#utility.yul\":21549:21555   */\n      dup3\n        /* \"#utility.yul\":21546:21560   */\n      lt\n        /* \"#utility.yul\":21526:21544   */\n      dup2\n        /* \"#utility.yul\":21523:21561   */\n      sub\n        /* \"#utility.yul\":21520:21604   */\n      tag_626\n      jumpi\n        /* \"#utility.yul\":21576:21594   */\n      tag_627\n      tag_430\n      jump\t// in\n    tag_627:\n        /* \"#utility.yul\":21520:21604   */\n    tag_626:\n        /* \"#utility.yul\":21341:21610   */\n      pop\n        /* \"#utility.yul\":21290:21610   */\n      swap2\n      swap1\n      pop\n      jump\t// out\n        /* \"#utility.yul\":21616:21789   */\n    tag_431:\n        /* \"#utility.yul\":21756:21781   */\n      0x596f7520617265206e6f7420746865206d616e61676572000000000000000000\n        /* \"#utility.yul\":21752:21753   */\n      0x00\n        /* \"#utility.yul\":21744:21750   */\n      dup3\n        /* \"#utility.yul\":21740:21754   */\n      add\n        /* \"#utility.yul\":21733:21782   */\n      mstore\n        /* \"#utility.yul\":21616:21789   */\n      pop\n      jump\t// out\n        /* \"#utility.yul\":21795:22161   */\n    tag_432:\n        /* \"#utility.yul\":21937:21940   */\n      0x00\n        /* \"#utility.yul\":21958:22025   */\n      tag_630\n        /* \"#utility.yul\":22022:22024   */\n      0x17\n        /* \"#utility.yul\":22017:22020   */\n      dup4\n        /* \"#utility.yul\":21958:22025   */\n      tag_395\n      jump\t// in\n    tag_630:\n        /* \"#utility.yul\":21951:22025   */\n      swap2\n      pop\n        /* \"#utility.yul\":22034:22127   */\n      tag_631\n        /* \"#utility.yul\":22123:22126   */\n      dup3\n        /* \"#utility.yul\":22034:22127   */\n      tag_431\n      jump\t// in\n    tag_631:\n        /* \"#utility.yul\":22152:22154   */\n      0x20\n        /* \"#utility.yul\":22147:22150   */\n      dup3\n        /* \"#utility.yul\":22143:22155   */\n      add\n        /* \"#utility.yul\":22136:22155   */\n      swap1\n      pop\n        /* \"#utility.yul\":21795:22161   */\n      swap2\n      swap1\n      pop\n      jump\t// out\n        /* \"#utility.yul\":22167:22586   */\n    tag_216:\n        /* \"#utility.yul\":22333:22337   */\n      0x00\n        /* \"#utility.yul\":22371:22373   */\n      0x20\n        /* \"#utility.yul\":22360:22369   */\n      dup3\n        /* \"#utility.yul\":22356:22374   */\n      add\n        /* \"#utility.yul\":22348:22374   */\n      swap1\n      pop\n        /* \"#utility.yul\":22420:22429   */\n      dup2\n        /* \"#utility.yul\":22414:22418   */\n      dup2\n        /* \"#utility.yul\":22410:22430   */\n      sub\n        /* \"#utility.yul\":22406:22407   */\n      0x00\n        /* \"#utility.yul\":22395:22404   */\n      dup4\n        /* \"#utility.yul\":22391:22408   */\n      add\n        /* \"#utility.yul\":22384:22431   */\n      mstore\n        /* \"#utility.yul\":22448:22579   */\n      tag_633\n        /* \"#utility.yul\":22574:22578   */\n      dup2\n        /* \"#utility.yul\":22448:22579   */\n      tag_432\n      jump\t// in\n    tag_633:\n        /* \"#utility.yul\":22440:22579   */\n      swap1\n      pop\n        /* \"#utility.yul\":22167:22586   */\n      swap2\n      swap1\n      pop\n      jump\t// out\n        /* \"#utility.yul\":22592:22689   */\n    tag_433:\n        /* \"#utility.yul\":22651:22657   */\n      0x00\n        /* \"#utility.yul\":22679:22682   */\n      dup3\n        /* \"#utility.yul\":22669:22682   */\n      swap1\n      pop\n        /* \"#utility.yul\":22592:22689   */\n      swap3\n      swap2\n      pop\n      pop\n      jump\t// out\n        /* \"#utility.yul\":22695:22875   */\n    tag_434:\n        /* \"#utility.yul\":22743:22820   */\n      0x4e487b7100000000000000000000000000000000000000000000000000000000\n        /* \"#utility.yul\":22740:22741   */\n      0x00\n        /* \"#utility.yul\":22733:22821   */\n      mstore\n        /* \"#utility.yul\":22840:22844   */\n      0x41\n        /* \"#utility.yul\":22837:22838   */\n      0x04\n        /* \"#utility.yul\":22830:22845   */\n      mstore\n        /* \"#utility.yul\":22864:22868   */\n      0x24\n        /* \"#utility.yul\":22861:22862   */\n      0x00\n        /* \"#utility.yul\":22854:22869   */\n      revert\n        /* \"#utility.yul\":22881:23022   */\n    tag_435:\n        /* \"#utility.yul\":22930:22934   */\n      0x00\n        /* \"#utility.yul\":22953:22956   */\n      dup2\n        /* \"#utility.yul\":22945:22956   */\n      swap1\n      pop\n        /* \"#utility.yul\":22976:22979   */\n      dup2\n        /* \"#utility.yul\":22973:22974   */\n      0x00\n        /* \"#utility.yul\":22966:22980   */\n      mstore\n        /* \"#utility.yul\":23010:23014   */\n      0x20\n        /* \"#utility.yul\":23007:23008   */\n      0x00\n        /* \"#utility.yul\":22997:23015   */\n      keccak256\n        /* \"#utility.yul\":22989:23015   */\n      swap1\n      pop\n        /* \"#utility.yul\":22881:23022   */\n      swap2\n      swap1\n      pop\n      jump\t// out\n        /* \"#utility.yul\":23028:23121   */\n    tag_436:\n        /* \"#utility.yul\":23065:23071   */\n      0x00\n        /* \"#utility.yul\":23112:23114   */\n      0x20\n        /* \"#utility.yul\":23107:23109   */\n      0x1f\n        /* \"#utility.yul\":23100:23105   */\n      dup4\n        /* \"#utility.yul\":23096:23110   */\n      add\n        /* \"#utility.yul\":23092:23115   */\n      div\n        /* \"#utility.yul\":23082:23115   */\n      swap1\n      pop\n        /* \"#utility.yul\":23028:23121   */\n      swap2\n      swap1\n      pop\n      jump\t// out\n        /* \"#utility.yul\":23127:23234   */\n    tag_437:\n        /* \"#utility.yul\":23171:23179   */\n      0x00\n        /* \"#utility.yul\":23221:23226   */\n      dup3\n        /* \"#utility.yul\":23215:23219   */\n      dup3\n        /* \"#utility.yul\":23211:23227   */\n      shl\n        /* \"#utility.yul\":23190:23227   */\n      swap1\n      pop\n        /* \"#utility.yul\":23127:23234   */\n      swap3\n      swap2\n      pop\n      pop\n      jump\t// out\n        /* \"#utility.yul\":23240:23633   */\n    tag_438:\n        /* \"#utility.yul\":23309:23315   */\n      0x00\n        /* \"#utility.yul\":23359:23360   */\n      0x08\n        /* \"#utility.yul\":23347:23357   */\n      dup4\n        /* \"#utility.yul\":23343:23361   */\n      mul\n        /* \"#utility.yul\":23382:23479   */\n      tag_640\n        /* \"#utility.yul\":23412:23478   */\n      0xffffffffffffffffffffffffffffffffffffffffffffffffffffffffffffffff\n        /* \"#utility.yul\":23401:23410   */\n      dup3\n        /* \"#utility.yul\":23382:23479   */\n      tag_437\n      jump\t// in\n    tag_640:\n        /* \"#utility.yul\":23500:23539   */\n      tag_641\n        /* \"#utility.yul\":23530:23538   */\n      dup7\n        /* \"#utility.yul\":23519:23528   */\n      dup4\n        /* \"#utility.yul\":23500:23539   */\n      tag_437\n      jump\t// in\n    tag_641:\n        /* \"#utility.yul\":23488:23539   */\n      swap6\n      pop\n        /* \"#utility.yul\":23572:23576   */\n      dup1\n        /* \"#utility.yul\":23568:23577   */\n      not\n        /* \"#utility.yul\":23561:23566   */\n      dup5\n        /* \"#utility.yul\":23557:23578   */\n      and\n        /* \"#utility.yul\":23548:23578   */\n      swap4\n      pop\n        /* \"#utility.yul\":23621:23625   */\n      dup1\n        /* \"#utility.yul\":23611:23619   */\n      dup7\n        /* \"#utility.yul\":23607:23626   */\n      and\n        /* \"#utility.yul\":23600:23605   */\n      dup5\n        /* \"#utility.yul\":23597:23627   */\n      or\n        /* \"#utility.yul\":23587:23627   */\n      swap3\n      pop\n        /* \"#utility.yul\":23316:23633   */\n      pop\n      pop\n        /* \"#utility.yul\":23240:23633   */\n      swap4\n      swap3\n      pop\n      pop\n      pop\n      jump\t// out\n        /* \"#utility.yul\":23639:23699   */\n    tag_439:\n        /* \"#utility.yul\":23667:23670   */\n      0x00\n        /* \"#utility.yul\":23688:23693   */\n      dup2\n        /* \"#utility.yul\":23681:23693   */\n      swap1\n      pop\n        /* \"#utility.yul\":23639:23699   */\n      swap2\n      swap1\n      pop\n      jump\t// out\n        /* \"#utility.yul\":23705:23847   */\n    tag_440:\n        /* \"#utility.yul\":23755:23764   */\n      0x00\n        /* \"#utility.yul\":23788:23841   */\n      tag_644\n        /* \"#utility.yul\":23806:23840   */\n      tag_645\n        /* \"#utility.yul\":23815:23839   */\n      tag_646\n        /* \"#utility.yul\":23833:23838   */\n      dup5\n        /* \"#utility.yul\":23815:23839   */\n      tag_390\n      jump\t// in\n    tag_646:\n        /* \"#utility.yul\":23806:23840   */\n      tag_439\n      jump\t// in\n    tag_645:\n        /* \"#utility.yul\":23788:23841   */\n      tag_390\n      jump\t// in\n    tag_644:\n        /* \"#utility.yul\":23775:23841   */\n      swap1\n      pop\n        /* \"#utility.yul\":23705:23847   */\n      swap2\n      swap1\n      pop\n      jump\t// out\n        /* \"#utility.yul\":23853:23928   */\n    tag_441:\n        /* \"#utility.yul\":23896:23899   */\n      0x00\n        /* \"#utility.yul\":23917:23922   */\n      dup2\n        /* \"#utility.yul\":23910:23922   */\n      swap1\n      pop\n        /* \"#utility.yul\":23853:23928   */\n      swap2\n      swap1\n      pop\n      jump\t// out\n        /* \"#utility.yul\":23934:24203   */\n    tag_442:\n        /* \"#utility.yul\":24044:24083   */\n      tag_649\n        /* \"#utility.yul\":24075:24082   */\n      dup4\n        /* \"#utility.yul\":24044:24083   */\n      tag_440\n      jump\t// in\n    tag_649:\n        /* \"#utility.yul\":24105:24196   */\n      tag_650\n        /* \"#utility.yul\":24154:24195   */\n      tag_651\n        /* \"#utility.yul\":24178:24194   */\n      dup3\n        /* \"#utility.yul\":24154:24195   */\n      tag_441\n      jump\t// in\n    tag_651:\n        /* \"#utility.yul\":24146:24152   */\n      dup5\n        /* \"#utility.yul\":24139:24143   */\n      dup5\n        /* \"#utility.yul\":24133:24144   */\n      sload\n        /* \"#utility.yul\":24105:24196   */\n      tag_438\n      jump\t// in\n    tag_650:\n        /* \"#utility.yul\":24099:24103   */\n      dup3\n        /* \"#utility.yul\":24092:24197   */\n      sstore\n        /* \"#utility.yul\":24010:24203   */\n      pop\n        /* \"#utility.yul\":23934:24203   */\n      pop\n      pop\n      pop\n      jump\t// out\n        /* \"#utility.yul\":24209:24282   */\n    tag_443:\n        /* \"#utility.yul\":24254:24257   */\n      0x00\n        /* \"#utility.yul\":24275:24276   */\n      0x00\n        /* \"#utility.yul\":24268:24276   */\n      swap1\n      pop\n        /* \"#utility.yul\":24209:24282   */\n      swap1\n      jump\t// out\n        /* \"#utility.yul\":24288:24477   */\n    tag_444:\n        /* \"#utility.yul\":24365:24397   */\n      tag_654\n      tag_443\n      jump\t// in\n    tag_654:\n        /* \"#utility.yul\":24406:24471   */\n      tag_655\n        /* \"#utility.yul\":24464:24470   */\n      dup2\n        /* \"#utility.yul\":24456:24462   */\n      dup5\n        /* \"#utility.yul\":24450:24454   */\n      dup5\n        /* \"#utility.yul\":24406:24471   */\n      tag_442\n      jump\t// in\n    tag_655:\n        /* \"#utility.yul\":24341:24477   */\n      pop\n        /* \"#utility.yul\":24288:24477   */\n      pop\n      pop\n      jump\t// out\n        /* \"#utility.yul\":24483:24669   */\n    tag_445:\n        /* \"#utility.yul\":24543:24663   */\n    tag_657:\n        /* \"#utility.yul\":24560:24563   */\n      dup2\n        /* \"#utility.yul\":24553:24558   */\n      dup2\n        /* \"#utility.yul\":24550:24564   */\n      lt\n        /* \"#utility.yul\":24543:24663   */\n      iszero\n      tag_659\n      jumpi\n        /* \"#utility.yul\":24614:24653   */\n      tag_660\n        /* \"#utility.yul\":24651:24652   */\n      0x00\n        /* \"#utility.yul\":24644:24649   */\n      dup3\n        /* \"#utility.yul\":24614:24653   */\n      tag_444\n      jump\t// in\n    tag_660:\n        /* \"#utility.yul\":24587:24588   */\n      0x01\n        /* \"#utility.yul\":24580:24585   */\n      dup2\n        /* \"#utility.yul\":24576:24589   */\n      add\n        /* \"#utility.yul\":24567:24589   */\n      swap1\n      pop\n        /* \"#utility.yul\":24543:24663   */\n      jump(tag_657)\n    tag_659:\n        /* \"#utility.yul\":24483:24669   */\n      pop\n      pop\n      jump\t// out\n        /* \"#utility.yul\":24675:25218   */\n    tag_446:\n        /* \"#utility.yul\":24776:24778   */\n      0x1f\n        /* \"#utility.yul\":24771:24774   */\n      dup3\n        /* \"#utility.yul\":24768:24779   */\n      gt\n        /* \"#utility.yul\":24765:25211   */\n      iszero\n      tag_662\n      jumpi\n        /* \"#utility.yul\":24810:24848   */\n      tag_663\n        /* \"#utility.yul\":24842:24847   */\n      dup2\n        /* \"#utility.yul\":24810:24848   */\n      tag_435\n      jump\t// in\n    tag_663:\n        /* \"#utility.yul\":24894:24923   */\n      tag_664\n        /* \"#utility.yul\":24912:24922   */\n      dup5\n        /* \"#utility.yul\":24894:24923   */\n      tag_436\n      jump\t// in\n    tag_664:\n        /* \"#utility.yul\":24884:24892   */\n      dup2\n        /* \"#utility.yul\":24880:24924   */\n      add\n        /* \"#utility.yul\":25077:25079   */\n      0x20\n        /* \"#utility.yul\":25065:25075   */\n      dup6\n        /* \"#utility.yul\":25062:25080   */\n      lt\n        /* \"#utility.yul\":25059:25108   */\n      iszero\n      tag_665\n      jumpi\n        /* \"#utility.yul\":25098:25106   */\n      dup2\n        /* \"#utility.yul\":25083:25106   */\n      swap1\n      pop\n        /* \"#utility.yul\":25059:25108   */\n    tag_665:\n        /* \"#utility.yul\":25121:25201   */\n      tag_666\n        /* \"#utility.yul\":25177:25199   */\n      tag_667\n        /* \"#utility.yul\":25195:25198   */\n      dup6\n        /* \"#utility.yul\":25177:25199   */\n      tag_436\n      jump\t// in\n    tag_667:\n        /* \"#utility.yul\":25167:25175   */\n      dup4\n        /* \"#utility.yul\":25163:25200   */\n      add\n        /* \"#utility.yul\":25150:25161   */\n      dup3\n        /* \"#utility.yul\":25121:25201   */\n      tag_445\n      jump\t// in\n    tag_666:\n        /* \"#utility.yul\":24780:25211   */\n      pop\n      pop\n        /* \"#utility.yul\":24765:25211   */\n    tag_662:\n        /* \"#utility.yul\":24675:25218   */\n      pop\n      pop\n      pop\n      jump\t// out\n        /* \"#utility.yul\":25224:25341   */\n    tag_447:\n        /* \"#utility.yul\":25278:25286   */\n      0x00\n        /* \"#utility.yul\":25328:25333   */\n      dup3\n        /* \"#utility.yul\":25322:25326   */\n      dup3\n        /* \"#utility.yul\":25318:25334   */\n      shr\n        /* \"#utility.yul\":25297:25334   */\n      swap1\n      pop\n        /* \"#utility.yul\":25224:25341   */\n      swap3\n      swap2\n      pop\n      pop\n      jump\t// out\n        /* \"#utility.yul\":25347:25516   */\n    tag_448:\n        /* \"#utility.yul\":25391:25397   */\n      0x00\n        /* \"#utility.yul\":25424:25475   */\n      tag_670\n        /* \"#utility.yul\":25472:25473   */\n      0x00\n        /* \"#utility.yul\":25468:25474   */\n      not\n        /* \"#utility.yul\":25460:25465   */\n      dup5\n        /* \"#utility.yul\":25457:25458   */\n      0x08\n        /* \"#utility.yul\":25453:25466   */\n      mul\n        /* \"#utility.yul\":25424:25475   */\n      tag_447\n      jump\t// in\n    tag_670:\n        /* \"#utility.yul\":25420:25476   */\n      not\n        /* \"#utility.yul\":25505:25509   */\n      dup1\n        /* \"#utility.yul\":25499:25503   */\n      dup4\n        /* \"#utility.yul\":25495:25510   */\n      and\n        /* \"#utility.yul\":25485:25510   */\n      swap2\n      pop\n        /* \"#utility.yul\":25398:25516   */\n      pop\n        /* \"#utility.yul\":25347:25516   */\n      swap3\n      swap2\n      pop\n      pop\n      jump\t// out\n        /* \"#utility.yul\":25521:25816   */\n    tag_449:\n        /* \"#utility.yul\":25597:25601   */\n      0x00\n        /* \"#utility.yul\":25743:25772   */\n      tag_672\n        /* \"#utility.yul\":25768:25771   */\n      dup4\n        /* \"#utility.yul\":25762:25766   */\n      dup4\n        /* \"#utility.yul\":25743:25772   */\n      tag_448\n      jump\t// in\n    tag_672:\n        /* \"#utility.yul\":25735:25772   */\n      swap2\n      pop\n        /* \"#utility.yul\":25805:25808   */\n      dup3\n        /* \"#utility.yul\":25802:25803   */\n      0x02\n        /* \"#utility.yul\":25798:25809   */\n      mul\n        /* \"#utility.yul\":25792:25796   */\n      dup3\n        /* \"#utility.yul\":25789:25810   */\n      or\n        /* \"#utility.yul\":25781:25810   */\n      swap1\n      pop\n        /* \"#utility.yul\":25521:25816   */\n      swap3\n      swap2\n      pop\n      pop\n      jump\t// out\n        /* \"#utility.yul\":25821:27224   */\n    tag_219:\n        /* \"#utility.yul\":25945:25989   */\n      tag_674\n        /* \"#utility.yul\":25985:25988   */\n      dup4\n        /* \"#utility.yul\":25980:25983   */\n      dup4\n        /* \"#utility.yul\":25945:25989   */\n      tag_433\n      jump\t// in\n    tag_674:\n        /* \"#utility.yul\":26054:26072   */\n      0xffffffffffffffff\n        /* \"#utility.yul\":26046:26052   */\n      dup2\n        /* \"#utility.yul\":26043:26073   */\n      gt\n        /* \"#utility.yul\":26040:26096   */\n      iszero\n      tag_675\n      jumpi\n        /* \"#utility.yul\":26076:26094   */\n      tag_676\n      tag_434\n      jump\t// in\n    tag_676:\n        /* \"#utility.yul\":26040:26096   */\n    tag_675:\n        /* \"#utility.yul\":26120:26158   */\n      tag_677\n        /* \"#utility.yul\":26152:26156   */\n      dup3\n        /* \"#utility.yul\":26146:26157   */\n      sload\n        /* \"#utility.yul\":26120:26158   */\n      tag_119\n      jump\t// in\n    tag_677:\n        /* \"#utility.yul\":26205:26272   */\n      tag_678\n        /* \"#utility.yul\":26265:26271   */\n      dup3\n        /* \"#utility.yul\":26257:26263   */\n      dup3\n        /* \"#utility.yul\":26251:26255   */\n      dup6\n        /* \"#utility.yul\":26205:26272   */\n      tag_446\n      jump\t// in\n    tag_678:\n        /* \"#utility.yul\":26299:26300   */\n      0x00\n        /* \"#utility.yul\":26328:26330   */\n      0x1f\n        /* \"#utility.yul\":26320:26326   */\n      dup4\n        /* \"#utility.yul\":26317:26331   */\n      gt\n        /* \"#utility.yul\":26345:26346   */\n      0x01\n        /* \"#utility.yul\":26340:26972   */\n      dup2\n      eq\n      tag_680\n      jumpi\n        /* \"#utility.yul\":27016:27017   */\n      0x00\n        /* \"#utility.yul\":27033:27039   */\n      dup5\n        /* \"#utility.yul\":27030:27114   */\n      iszero\n      tag_681\n      jumpi\n        /* \"#utility.yul\":27089:27098   */\n      dup3\n        /* \"#utility.yul\":27084:27087   */\n      dup8\n        /* \"#utility.yul\":27080:27099   */\n      add\n        /* \"#utility.yul\":27067:27100   */\n      calldataload\n        /* \"#utility.yul\":27058:27100   */\n      swap1\n      pop\n        /* \"#utility.yul\":27030:27114   */\n    tag_681:\n        /* \"#utility.yul\":27140:27207   */\n      tag_682\n        /* \"#utility.yul\":27200:27206   */\n      dup6\n        /* \"#utility.yul\":27193:27198   */\n      dup3\n        /* \"#utility.yul\":27140:27207   */\n      tag_449\n      jump\t// in\n    tag_682:\n        /* \"#utility.yul\":27134:27138   */\n      dup7\n        /* \"#utility.yul\":27127:27208   */\n      sstore\n        /* \"#utility.yul\":26989:27218   */\n      pop\n        /* \"#utility.yul\":26310:27218   */\n      jump(tag_679)\n        /* \"#utility.yul\":26340:26972   */\n    tag_680:\n        /* \"#utility.yul\":26392:26396   */\n      0x1f\n        /* \"#utility.yul\":26388:26397   */\n      not\n        /* \"#utility.yul\":26380:26386   */\n      dup5\n        /* \"#utility.yul\":26376:26398   */\n      and\n        /* \"#utility.yul\":26426:26463   */\n      tag_683\n        /* \"#utility.yul\":26458:26462   */\n      dup7\n        /* \"#utility.yul\":26426:26463   */\n      tag_435\n      jump\t// in\n    tag_683:\n        /* \"#utility.yul\":26485:26486   */\n      0x00\n        /* \"#utility.yul\":26499:26714   */\n    tag_684:\n        /* \"#utility.yul\":26513:26520   */\n      dup3\n        /* \"#utility.yul\":26510:26511   */\n      dup2\n        /* \"#utility.yul\":26507:26521   */\n      lt\n        /* \"#utility.yul\":26499:26714   */\n      iszero\n      tag_686\n      jumpi\n        /* \"#utility.yul\":26599:26608   */\n      dup5\n        /* \"#utility.yul\":26594:26597   */\n      dup10\n        /* \"#utility.yul\":26590:26609   */\n      add\n        /* \"#utility.yul\":26577:26610   */\n      calldataload\n        /* \"#utility.yul\":26569:26575   */\n      dup3\n        /* \"#utility.yul\":26562:26611   */\n      sstore\n        /* \"#utility.yul\":26650:26651   */\n      0x01\n        /* \"#utility.yul\":26642:26648   */\n      dup3\n        /* \"#utility.yul\":26638:26652   */\n      add\n        /* \"#utility.yul\":26628:26652   */\n      swap2\n      pop\n        /* \"#utility.yul\":26697:26699   */\n      0x20\n        /* \"#utility.yul\":26686:26695   */\n      dup6\n        /* \"#utility.yul\":26682:26700   */\n      add\n        /* \"#utility.yul\":26669:26700   */\n      swap5\n      pop\n        /* \"#utility.yul\":26536:26540   */\n      0x20\n        /* \"#utility.yul\":26533:26534   */\n      dup2\n        /* \"#utility.yul\":26529:26541   */\n      add\n        /* \"#utility.yul\":26524:26541   */\n      swap1\n      pop\n        /* \"#utility.yul\":26499:26714   */\n      jump(tag_684)\n    tag_686:\n        /* \"#utility.yul\":26742:26748   */\n      dup7\n        /* \"#utility.yul\":26733:26740   */\n      dup4\n        /* \"#utility.yul\":26730:26749   */\n      lt\n        /* \"#utility.yul\":26727:26913   */\n      iszero\n      tag_687\n      jumpi\n        /* \"#utility.yul\":26807:26816   */\n      dup5\n        /* \"#utility.yul\":26802:26805   */\n      dup10\n        /* \"#utility.yul\":26798:26817   */\n      add\n        /* \"#utility.yul\":26785:26818   */\n      calldataload\n        /* \"#utility.yul\":26850:26898   */\n      tag_688\n        /* \"#utility.yul\":26892:26896   */\n      0x1f\n        /* \"#utility.yul\":26884:26890   */\n      dup10\n        /* \"#utility.yul\":26880:26897   */\n      and\n        /* \"#utility.yul\":26869:26878   */\n      dup3\n        /* \"#utility.yul\":26850:26898   */\n      tag_448\n      jump\t// in\n    tag_688:\n        /* \"#utility.yul\":26842:26848   */\n      dup4\n        /* \"#utility.yul\":26835:26899   */\n      sstore\n        /* \"#utility.yul\":26750:26913   */\n      pop\n        /* \"#utility.yul\":26727:26913   */\n    tag_687:\n        /* \"#utility.yul\":26959:26960   */\n      0x01\n        /* \"#utility.yul\":26955:26956   */\n      0x02\n        /* \"#utility.yul\":26947:26953   */\n      dup9\n        /* \"#utility.yul\":26943:26957   */\n      mul\n        /* \"#utility.yul\":26939:26961   */\n      add\n        /* \"#utility.yul\":26933:26937   */\n      dup9\n        /* \"#utility.yul\":26926:26962   */\n      sstore\n        /* \"#utility.yul\":26347:26972   */\n      pop\n      pop\n      pop\n        /* \"#utility.yul\":26310:27218   */\n    tag_679:\n      pop\n        /* \"#utility.yul\":25920:27224   */\n      pop\n      pop\n      pop\n        /* \"#utility.yul\":25821:27224   */\n      pop\n      pop\n      pop\n      jump\t// out\n        /* \"#utility.yul\":27230:27402   */\n    tag_450:\n        /* \"#utility.yul\":27370:27394   */\n      0x496e76616c696420656475636174696f6e436f756e7400000000000000000000\n        /* \"#utility.yul\":27366:27367   */\n      0x00\n        /* \"#utility.yul\":27358:27364   */\n      dup3\n        /* \"#utility.yul\":27354:27368   */\n      add\n        /* \"#utility.yul\":27347:27395   */\n      mstore\n        /* \"#utility.yul\":27230:27402   */\n      pop\n      jump\t// out\n        /* \"#utility.yul\":27408:27774   */\n    tag_451:\n        /* \"#utility.yul\":27550:27553   */\n      0x00\n        /* \"#utility.yul\":27571:27638   */\n      tag_691\n        /* \"#utility.yul\":27635:27637   */\n      0x16\n        /* \"#utility.yul\":27630:27633   */\n      dup4\n        /* \"#utility.yul\":27571:27638   */\n      tag_395\n      jump\t// in\n    tag_691:\n        /* \"#utility.yul\":27564:27638   */\n      swap2\n      pop\n        /* \"#utility.yul\":27647:27740   */\n      tag_692\n        /* \"#utility.yul\":27736:27739   */\n      dup3\n        /* \"#utility.yul\":27647:27740   */\n      tag_450\n      jump\t// in\n    tag_692:\n        /* \"#utility.yul\":27765:27767   */\n      0x20\n        /* \"#utility.yul\":27760:27763   */\n      dup3\n        /* \"#utility.yul\":27756:27768   */\n      add\n        /* \"#utility.yul\":27749:27768   */\n      swap1\n      pop\n        /* \"#utility.yul\":27408:27774   */\n      swap2\n      swap1\n      pop\n      jump\t// out\n        /* \"#utility.yul\":27780:28199   */\n    tag_227:\n        /* \"#utility.yul\":27946:27950   */\n      0x00\n        /* \"#utility.yul\":27984:27986   */\n      0x20\n        /* \"#utility.yul\":27973:27982   */\n      dup3\n        /* \"#utility.yul\":27969:27987   */\n      add\n        /* \"#utility.yul\":27961:27987   */\n      swap1\n      pop\n        /* \"#utility.yul\":28033:28042   */\n      dup2\n        /* \"#utility.yul\":28027:28031   */\n      dup2\n        /* \"#utility.yul\":28023:28043   */\n      sub\n        /* \"#utility.yul\":28019:28020   */\n      0x00\n        /* \"#utility.yul\":28008:28017   */\n      dup4\n        /* \"#utility.yul\":28004:28021   */\n      add\n        /* \"#utility.yul\":27997:28044   */\n      mstore\n        /* \"#utility.yul\":28061:28192   */\n      tag_694\n        /* \"#utility.yul\":28187:28191   */\n      dup2\n        /* \"#utility.yul\":28061:28192   */\n      tag_451\n      jump\t// in\n    tag_694:\n        /* \"#utility.yul\":28053:28192   */\n      swap1\n      pop\n        /* \"#utility.yul\":27780:28199   */\n      swap2\n      swap1\n      pop\n      jump\t// out\n        /* \"#utility.yul\":28205:28385   */\n    tag_230:\n        /* \"#utility.yul\":28253:28330   */\n      0x4e487b7100000000000000000000000000000000000000000000000000000000\n        /* \"#utility.yul\":28250:28251   */\n      0x00\n        /* \"#utility.yul\":28243:28331   */\n      mstore\n        /* \"#utility.yul\":28350:28354   */\n      0x32\n        /* \"#utility.yul\":28347:28348   */\n      0x04\n        /* \"#utility.yul\":28340:28355   */\n      mstore\n        /* \"#utility.yul\":28374:28378   */\n      0x24\n        /* \"#utility.yul\":28371:28372   */\n      0x00\n        /* \"#utility.yul\":28364:28379   */\n      revert\n        /* \"#utility.yul\":28391:29786   */\n    tag_233:\n        /* \"#utility.yul\":28508:28545   */\n      tag_697\n        /* \"#utility.yul\":28541:28544   */\n      dup3\n        /* \"#utility.yul\":28508:28545   */\n      tag_394\n      jump\t// in\n    tag_697:\n        /* \"#utility.yul\":28610:28628   */\n      0xffffffffffffffff\n        /* \"#utility.yul\":28602:28608   */\n      dup2\n        /* \"#utility.yul\":28599:28629   */\n      gt\n        /* \"#utility.yul\":28596:28652   */\n      iszero\n      tag_698\n      jumpi\n        /* \"#utility.yul\":28632:28650   */\n      tag_699\n      tag_434\n      jump\t// in\n    tag_699:\n        /* \"#utility.yul\":28596:28652   */\n    tag_698:\n        /* \"#utility.yul\":28676:28714   */\n      tag_700\n        /* \"#utility.yul\":28708:28712   */\n      dup3\n        /* \"#utility.yul\":28702:28713   */\n      sload\n        /* \"#utility.yul\":28676:28714   */\n      tag_119\n      jump\t// in\n    tag_700:\n        /* \"#utility.yul\":28761:28828   */\n      tag_701\n        /* \"#utility.yul\":28821:28827   */\n      dup3\n        /* \"#utility.yul\":28813:28819   */\n      dup3\n        /* \"#utility.yul\":28807:28811   */\n      dup6\n        /* \"#utility.yul\":28761:28828   */\n      tag_446\n      jump\t// in\n    tag_701:\n        /* \"#utility.yul\":28855:28856   */\n      0x00\n        /* \"#utility.yul\":28879:28883   */\n      0x20\n        /* \"#utility.yul\":28866:28883   */\n      swap1\n      pop\n        /* \"#utility.yul\":28911:28913   */\n      0x1f\n        /* \"#utility.yul\":28903:28909   */\n      dup4\n        /* \"#utility.yul\":28900:28914   */\n      gt\n        /* \"#utility.yul\":28928:28929   */\n      0x01\n        /* \"#utility.yul\":28923:29541   */\n      dup2\n      eq\n      tag_703\n      jumpi\n        /* \"#utility.yul\":29585:29586   */\n      0x00\n        /* \"#utility.yul\":29602:29608   */\n      dup5\n        /* \"#utility.yul\":29599:29676   */\n      iszero\n      tag_704\n      jumpi\n        /* \"#utility.yul\":29651:29660   */\n      dup3\n        /* \"#utility.yul\":29646:29649   */\n      dup8\n        /* \"#utility.yul\":29642:29661   */\n      add\n        /* \"#utility.yul\":29636:29662   */\n      mload\n        /* \"#utility.yul\":29627:29662   */\n      swap1\n      pop\n        /* \"#utility.yul\":29599:29676   */\n    tag_704:\n        /* \"#utility.yul\":29702:29769   */\n      tag_705\n        /* \"#utility.yul\":29762:29768   */\n      dup6\n        /* \"#utility.yul\":29755:29760   */\n      dup3\n        /* \"#utility.yul\":29702:29769   */\n      tag_449\n      jump\t// in\n    tag_705:\n        /* \"#utility.yul\":29696:29700   */\n      dup7\n        /* \"#utility.yul\":29689:29770   */\n      sstore\n        /* \"#utility.yul\":29558:29780   */\n      pop\n        /* \"#utility.yul\":28893:29780   */\n      jump(tag_702)\n        /* \"#utility.yul\":28923:29541   */\n    tag_703:\n        /* \"#utility.yul\":28975:28979   */\n      0x1f\n        /* \"#utility.yul\":28971:28980   */\n      not\n        /* \"#utility.yul\":28963:28969   */\n      dup5\n        /* \"#utility.yul\":28959:28981   */\n      and\n        /* \"#utility.yul\":29009:29046   */\n      tag_706\n        /* \"#utility.yul\":29041:29045   */\n      dup7\n        /* \"#utility.yul\":29009:29046   */\n      tag_435\n      jump\t// in\n    tag_706:\n        /* \"#utility.yul\":29068:29069   */\n      0x00\n        /* \"#utility.yul\":29082:29290   */\n    tag_707:\n        /* \"#utility.yul\":29096:29103   */\n      dup3\n        /* \"#utility.yul\":29093:29094   */\n      dup2\n        /* \"#utility.yul\":29090:29104   */\n      lt\n        /* \"#utility.yul\":29082:29290   */\n      iszero\n      tag_709\n      jumpi\n        /* \"#utility.yul\":29175:29184   */\n      dup5\n        /* \"#utility.yul\":29170:29173   */\n      dup10\n        /* \"#utility.yul\":29166:29185   */\n      add\n        /* \"#utility.yul\":29160:29186   */\n      mload\n        /* \"#utility.yul\":29152:29158   */\n      dup3\n        /* \"#utility.yul\":29145:29187   */\n      sstore\n        /* \"#utility.yul\":29226:29227   */\n      0x01\n        /* \"#utility.yul\":29218:29224   */\n      dup3\n        /* \"#utility.yul\":29214:29228   */\n      add\n        /* \"#utility.yul\":29204:29228   */\n      swap2\n      pop\n        /* \"#utility.yul\":29273:29275   */\n      0x20\n        /* \"#utility.yul\":29262:29271   */\n      dup6\n        /* \"#utility.yul\":29258:29276   */\n      add\n        /* \"#utility.yul\":29245:29276   */\n      swap5\n      pop\n        /* \"#utility.yul\":29119:29123   */\n      0x20\n        /* \"#utility.yul\":29116:29117   */\n      dup2\n        /* \"#utility.yul\":29112:29124   */\n      add\n        /* \"#utility.yul\":29107:29124   */\n      swap1\n      pop\n        /* \"#utility.yul\":29082:29290   */\n      jump(tag_707)\n    tag_709:\n        /* \"#utility.yul\":29318:29324   */\n      dup7\n        /* \"#utility.yul\":29309:29316   */\n      dup4\n        /* \"#utility.yul\":29306:29325   */\n      lt\n        /* \"#utility.yul\":29303:29482   */\n      iszero\n      tag_710\n      jumpi\n        /* \"#utility.yul\":29376:29385   */\n      dup5\n        /* \"#utility.yul\":29371:29374   */\n      dup10\n        /* \"#utility.yul\":29367:29386   */\n      add\n        /* \"#utility.yul\":29361:29387   */\n      mload\n        /* \"#utility.yul\":29419:29467   */\n      tag_711\n        /* \"#utility.yul\":29461:29465   */\n      0x1f\n        /* \"#utility.yul\":29453:29459   */\n      dup10\n        /* \"#utility.yul\":29449:29466   */\n      and\n        /* \"#utility.yul\":29438:29447   */\n      dup3\n        /* \"#utility.yul\":29419:29467   */\n      tag_448\n      jump\t// in\n    tag_711:\n        /* \"#utility.yul\":29411:29417   */\n      dup4\n        /* \"#utility.yul\":29404:29468   */\n      sstore\n        /* \"#utility.yul\":29326:29482   */\n      pop\n        /* \"#utility.yul\":29303:29482   */\n    tag_710:\n        /* \"#utility.yul\":29528:29529   */\n      0x01\n        /* \"#utility.yul\":29524:29525   */\n      0x02\n        /* \"#utility.yul\":29516:29522   */\n      dup9\n        /* \"#utility.yul\":29512:29526   */\n      mul\n        /* \"#utility.yul\":29508:29530   */\n      add\n        /* \"#utility.yul\":29502:29506   */\n      dup9\n        /* \"#utility.yul\":29495:29531   */\n      sstore\n        /* \"#utility.yul\":28930:29541   */\n      pop\n      pop\n      pop\n        /* \"#utility.yul\":28893:29780   */\n    tag_702:\n      pop\n        /* \"#utility.yul\":28483:29786   */\n      pop\n      pop\n      pop\n        /* \"#utility.yul\":28391:29786   */\n      pop\n      pop\n      jump\t// out\n        /* \"#utility.yul\":29792:29974   */\n    tag_452:\n        /* \"#utility.yul\":29932:29966   */\n      0x4f6e6c79203320656475636174696f6e2064657461696c7320616c6c6f776564\n        /* \"#utility.yul\":29928:29929   */\n      0x00\n        /* \"#utility.yul\":29920:29926   */\n      dup3\n        /* \"#utility.yul\":29916:29930   */\n      add\n        /* \"#utility.yul\":29909:29967   */\n      mstore\n        /* \"#utility.yul\":29792:29974   */\n      pop\n      jump\t// out\n        /* \"#utility.yul\":29980:30346   */\n    tag_453:\n        /* \"#utility.yul\":30122:30125   */\n      0x00\n        /* \"#utility.yul\":30143:30210   */\n      tag_714\n        /* \"#utility.yul\":30207:30209   */\n      0x20\n        /* \"#utility.yul\":30202:30205   */\n      dup4\n        /* \"#utility.yul\":30143:30210   */\n      tag_395\n      jump\t// in\n    tag_714:\n        /* \"#utility.yul\":30136:30210   */\n      swap2\n      pop\n        /* \"#utility.yul\":30219:30312   */\n      tag_715\n        /* \"#utility.yul\":30308:30311   */\n      dup3\n        /* \"#utility.yul\":30219:30312   */\n      tag_452\n      jump\t// in\n    tag_715:\n        /* \"#utility.yul\":30337:30339   */\n      0x20\n        /* \"#utility.yul\":30332:30335   */\n      dup3\n        /* \"#utility.yul\":30328:30340   */\n      add\n        /* \"#utility.yul\":30321:30340   */\n      swap1\n      pop\n        /* \"#utility.yul\":29980:30346   */\n      swap2\n      swap1\n      pop\n      jump\t// out\n        /* \"#utility.yul\":30352:30771   */\n    tag_248:\n        /* \"#utility.yul\":30518:30522   */\n      0x00\n        /* \"#utility.yul\":30556:30558   */\n      0x20\n        /* \"#utility.yul\":30545:30554   */\n      dup3\n        /* \"#utility.yul\":30541:30559   */\n      add\n        /* \"#utility.yul\":30533:30559   */\n      swap1\n      pop\n        /* \"#utility.yul\":30605:30614   */\n      dup2\n        /* \"#utility.yul\":30599:30603   */\n      dup2\n        /* \"#utility.yul\":30595:30615   */\n      sub\n        /* \"#utility.yul\":30591:30592   */\n      0x00\n        /* \"#utility.yul\":30580:30589   */\n      dup4\n        /* \"#utility.yul\":30576:30593   */\n      add\n        /* \"#utility.yul\":30569:30616   */\n      mstore\n        /* \"#utility.yul\":30633:30764   */\n      tag_717\n        /* \"#utility.yul\":30759:30763   */\n      dup2\n        /* \"#utility.yul\":30633:30764   */\n      tag_453\n      jump\t// in\n    tag_717:\n        /* \"#utility.yul\":30625:30764   */\n      swap1\n      pop\n        /* \"#utility.yul\":30352:30771   */\n      swap2\n      swap1\n      pop\n      jump\t// out\n        /* \"#utility.yul\":30777:30957   */\n    tag_454:\n        /* \"#utility.yul\":30825:30902   */\n      0x4e487b7100000000000000000000000000000000000000000000000000000000\n        /* \"#utility.yul\":30822:30823   */\n      0x00\n        /* \"#utility.yul\":30815:30903   */\n      mstore\n        /* \"#utility.yul\":30922:30926   */\n      0x11\n        /* \"#utility.yul\":30919:30920   */\n      0x04\n        /* \"#utility.yul\":30912:30927   */\n      mstore\n        /* \"#utility.yul\":30946:30950   */\n      0x24\n        /* \"#utility.yul\":30943:30944   */\n      0x00\n        /* \"#utility.yul\":30936:30951   */\n      revert\n        /* \"#utility.yul\":30963:31196   */\n    tag_257:\n        /* \"#utility.yul\":31002:31005   */\n      0x00\n        /* \"#utility.yul\":31025:31049   */\n      tag_720\n        /* \"#utility.yul\":31043:31048   */\n      dup3\n        /* \"#utility.yul\":31025:31049   */\n      tag_390\n      jump\t// in\n    tag_720:\n        /* \"#utility.yul\":31016:31049   */\n      swap2\n      pop\n        /* \"#utility.yul\":31071:31137   */\n      0xffffffffffffffffffffffffffffffffffffffffffffffffffffffffffffffff\n        /* \"#utility.yul\":31064:31069   */\n      dup3\n        /* \"#utility.yul\":31061:31138   */\n      sub\n        /* \"#utility.yul\":31058:31161   */\n      tag_721\n      jumpi\n        /* \"#utility.yul\":31141:31159   */\n      tag_722\n      tag_454\n      jump\t// in\n    tag_722:\n        /* \"#utility.yul\":31058:31161   */\n    tag_721:\n        /* \"#utility.yul\":31188:31189   */\n      0x01\n        /* \"#utility.yul\":31181:31186   */\n      dup3\n        /* \"#utility.yul\":31177:31190   */\n      add\n        /* \"#utility.yul\":31170:31190   */\n      swap1\n      pop\n        /* \"#utility.yul\":30963:31196   */\n      swap2\n      swap1\n      pop\n      jump\t// out\n        /* \"#utility.yul\":31202:31375   */\n    tag_455:\n        /* \"#utility.yul\":31342:31367   */\n      0x4f6e6c7920332070726f6a6563747320616c6c6f776564000000000000000000\n        /* \"#utility.yul\":31338:31339   */\n      0x00\n        /* \"#utility.yul\":31330:31336   */\n      dup3\n        /* \"#utility.yul\":31326:31340   */\n      add\n        /* \"#utility.yul\":31319:31368   */\n      mstore\n        /* \"#utility.yul\":31202:31375   */\n      pop\n      jump\t// out\n        /* \"#utility.yul\":31381:31747   */\n    tag_456:\n        /* \"#utility.yul\":31523:31526   */\n      0x00\n        /* \"#utility.yul\":31544:31611   */\n      tag_725\n        /* \"#utility.yul\":31608:31610   */\n      0x17\n        /* \"#utility.yul\":31603:31606   */\n      dup4\n        /* \"#utility.yul\":31544:31611   */\n      tag_395\n      jump\t// in\n    tag_725:\n        /* \"#utility.yul\":31537:31611   */\n      swap2\n      pop\n        /* \"#utility.yul\":31620:31713   */\n      tag_726\n        /* \"#utility.yul\":31709:31712   */\n      dup3\n        /* \"#utility.yul\":31620:31713   */\n      tag_455\n      jump\t// in\n    tag_726:\n        /* \"#utility.yul\":31738:31740   */\n      0x20\n        /* \"#utility.yul\":31733:31736   */\n      dup3\n        /* \"#utility.yul\":31729:31741   */\n      add\n        /* \"#utility.yul\":31722:31741   */\n      swap1\n      pop\n        /* \"#utility.yul\":31381:31747   */\n      swap2\n      swap1\n      pop\n      jump\t// out\n        /* \"#utility.yul\":31753:32172   */\n    tag_261:\n        /* \"#utility.yul\":31919:31923   */\n      0x00\n        /* \"#utility.yul\":31957:31959   */\n      0x20\n        /* \"#utility.yul\":31946:31955   */\n      dup3\n        /* \"#utility.yul\":31942:31960   */\n      add\n        /* \"#utility.yul\":31934:31960   */\n      swap1\n      pop\n        /* \"#utility.yul\":32006:32015   */\n      dup2\n        /* \"#utility.yul\":32000:32004   */\n      dup2\n        /* \"#utility.yul\":31996:32016   */\n      sub\n        /* \"#utility.yul\":31992:31993   */\n      0x00\n        /* \"#utility.yul\":31981:31990   */\n      dup4\n        /* \"#utility.yul\":31977:31994   */\n      add\n        /* \"#utility.yul\":31970:32017   */\n      mstore\n        /* \"#utility.yul\":32034:32165   */\n      tag_728\n        /* \"#utility.yul\":32160:32164   */\n      dup2\n        /* \"#utility.yul\":32034:32165   */\n      tag_456\n      jump\t// in\n    tag_728:\n        /* \"#utility.yul\":32026:32165   */\n      swap1\n      pop\n        /* \"#utility.yul\":31753:32172   */\n      swap2\n      swap1\n      pop\n      jump\t// out\n        /* \"#utility.yul\":32178:32351   */\n    tag_457:\n        /* \"#utility.yul\":32318:32343   */\n      0x496e76616c696420657870657269656e6365436f756e74000000000000000000\n        /* \"#utility.yul\":32314:32315   */\n      0x00\n        /* \"#utility.yul\":32306:32312   */\n      dup3\n        /* \"#utility.yul\":32302:32316   */\n      add\n        /* \"#utility.yul\":32295:32344   */\n      mstore\n        /* \"#utility.yul\":32178:32351   */\n      pop\n      jump\t// out\n        /* \"#utility.yul\":32357:32723   */\n    tag_458:\n        /* \"#utility.yul\":32499:32502   */\n      0x00\n        /* \"#utility.yul\":32520:32587   */\n      tag_731\n        /* \"#utility.yul\":32584:32586   */\n      0x17\n        /* \"#utility.yul\":32579:32582   */\n      dup4\n        /* \"#utility.yul\":32520:32587   */\n      tag_395\n      jump\t// in\n    tag_731:\n        /* \"#utility.yul\":32513:32587   */\n      swap2\n      pop\n        /* \"#utility.yul\":32596:32689   */\n      tag_732\n        /* \"#utility.yul\":32685:32688   */\n      dup3\n        /* \"#utility.yul\":32596:32689   */\n      tag_457\n      jump\t// in\n    tag_732:\n        /* \"#utility.yul\":32714:32716   */\n      0x20\n        /* \"#utility.yul\":32709:32712   */\n      dup3\n        /* \"#utility.yul\":32705:32717   */\n      add\n        /* \"#utility.yul\":32698:32717   */\n      swap1\n      pop\n        /* \"#utility.yul\":32357:32723   */\n      swap2\n      swap1\n      pop\n      jump\t// out\n        /* \"#utility.yul\":32729:33148   */\n    tag_365:\n        /* \"#utility.yul\":32895:32899   */\n      0x00\n        /* \"#utility.yul\":32933:32935   */\n      0x20\n        /* \"#utility.yul\":32922:32931   */\n      dup3\n        /* \"#utility.yul\":32918:32936   */\n      add\n        /* \"#utility.yul\":32910:32936   */\n      swap1\n      pop\n        /* \"#utility.yul\":32982:32991   */\n      dup2\n        /* \"#utility.yul\":32976:32980   */\n      dup2\n        /* \"#utility.yul\":32972:32992   */\n      sub\n        /* \"#utility.yul\":32968:32969   */\n      0x00\n        /* \"#utility.yul\":32957:32966   */\n      dup4\n        /* \"#utility.yul\":32953:32970   */\n      add\n        /* \"#utility.yul\":32946:32993   */\n      mstore\n        /* \"#utility.yul\":33010:33141   */\n      tag_734\n        /* \"#utility.yul\":33136:33140   */\n      dup2\n        /* \"#utility.yul\":33010:33141   */\n      tag_458\n      jump\t// in\n    tag_734:\n        /* \"#utility.yul\":33002:33141   */\n      swap1\n      pop\n        /* \"#utility.yul\":32729:33148   */\n      swap2\n      swap1\n      pop\n      jump\t// out\n\n    auxdata: 0xa264697066735822122077241e7451a16368f2b6fc51fd98a966681ec3409106ec96c50ddcaa3ecf452364736f6c634300081c0033\n}\n",
				"bytecode": {
					"linkReferences": {},
					"object": "60806040526040518060600160405280602e8152602001613ac6602e9139602d908161002b919061030b565b5060405180610100016040528060e081526020016139b860e09139602e9081610054919061030b565b506040518060600160405280602e8152602001613a98602e9139602f908161007c919061030b565b50348015610088575f5ffd5b503360335f6101000a81548173ffffffffffffffffffffffffffffffffffffffff021916908373ffffffffffffffffffffffffffffffffffffffff1602179055506103da565b5f81519050919050565b7f4e487b71000000000000000000000000000000000000000000000000000000005f52604160045260245ffd5b7f4e487b71000000000000000000000000000000000000000000000000000000005f52602260045260245ffd5b5f600282049050600182168061014957607f821691505b60208210810361015c5761015b610105565b5b50919050565b5f819050815f5260205f209050919050565b5f6020601f8301049050919050565b5f82821b905092915050565b5f600883026101be7fffffffffffffffffffffffffffffffffffffffffffffffffffffffffffffffff82610183565b6101c88683610183565b95508019841693508086168417925050509392505050565b5f819050919050565b5f819050919050565b5f61020c610207610202846101e0565b6101e9565b6101e0565b9050919050565b5f819050919050565b610225836101f2565b61023961023182610213565b84845461018f565b825550505050565b5f5f905090565b610250610241565b61025b81848461021c565b505050565b5b8181101561027e576102735f82610248565b600181019050610261565b5050565b601f8211156102c35761029481610162565b61029d84610174565b810160208510156102ac578190505b6102c06102b885610174565b830182610260565b50505b505050565b5f82821c905092915050565b5f6102e35f19846008026102c8565b1980831691505092915050565b5f6102fb83836102d4565b9150826002028217905092915050565b610314826100ce565b67ffffffffffffffff81111561032d5761032c6100d8565b5b6103378254610132565b610342828285610282565b5f60209050601f831160018114610373575f8415610361578287015190505b61036b85826102f0565b8655506103d2565b601f19841661038186610162565b5f5b828110156103a857848901518255600182019150602085019450602081019050610383565b868310156103c557848901516103c1601f8916826102d4565b8355505b6001600288020188555050505b505050505050565b6135d1806103e75f395ff3fe60806040526004361061011e575f3560e01c80636fe8e0bd1161009f578063caf7b75911610063578063caf7b759146103ce578063d3cedf11146103f8578063d921fa8214610420578063e612041314610448578063ed88c68e146104705761011e565b80636fe8e0bd146102ea5780637284e416146103125780637aea95aa1461033c5780638af4f98d1461037c57806398f831b6146103a65761011e565b8063598e7f37116100e6578063598e7f37146102205780635b173a69146102485780635cea6a7c146102705780635d85a1f41461029a5780636426d4c3146102c25761011e565b8063107046bd1461012257806310ef62c5146101625780632adf13b2146101a257806336eea422146101cc578063481c6a75146101f6575b5f5ffd5b34801561012d575f5ffd5b50610148600480360381019061014391906126b1565b61047a565b60405161015995949392919061275b565b60405180910390f35b34801561016d575f5ffd5b50610188600480360381019061018391906126b1565b6106ca565b60405161019995949392919061275b565b60405180910390f35b3480156101ad575f5ffd5b506101b661091b565b6040516101c39190612956565b60405180910390f35b3480156101d7575f5ffd5b506101e0610bb4565b6040516101ed9190612aad565b60405180910390f35b348015610201575f5ffd5b5061020a610e4e565b6040516102179190612b0c565b60405180910390f35b34801561022b575f5ffd5b5061024660048036038101906102419190612b86565b610e73565b005b348015610253575f5ffd5b5061026e60048036038101906102699190612bd1565b610f18565b005b34801561027b575f5ffd5b506102846111af565b6040516102919190612cc7565b60405180910390f35b3480156102a5575f5ffd5b506102c060048036038101906102bb9190612ce7565b61123b565b005b3480156102cd575f5ffd5b506102e860048036038101906102e39190612ce7565b6114e2565b005b3480156102f5575f5ffd5b50610310600480360381019061030b9190612bd1565b6116f9565b005b34801561031d575f5ffd5b50610326611902565b6040516103339190612cc7565b60405180910390f35b348015610347575f5ffd5b50610362600480360381019061035d91906126b1565b61198e565b60405161037395949392919061275b565b60405180910390f35b348015610387575f5ffd5b50610390611bdf565b60405161039d9190612f02565b60405180910390f35b3480156103b1575f5ffd5b506103cc60048036038101906103c79190612ce7565b611e79565b005b3480156103d9575f5ffd5b506103e2612120565b6040516103ef9190612cc7565b60405180910390f35b348015610403575f5ffd5b5061041e60048036038101906104199190612b86565b6121ac565b005b34801561042b575f5ffd5b5061044660048036038101906104419190612bd1565b612251565b005b348015610453575f5ffd5b5061046e60048036038101906104699190612b86565b6124e8565b005b6104786124fe565b005b5f8160038110610488575f80fd5b600502015f91509050805f0154908060010180546104a590612f4f565b80601f01602080910402602001604051908101604052809291908181526020018280546104d190612f4f565b801561051c5780601f106104f35761010080835404028352916020019161051c565b820191905f5260205f20905b8154815290600101906020018083116104ff57829003601f168201915b50505050509080600201805461053190612f4f565b80601f016020809104026020016040519081016040528092919081815260200182805461055d90612f4f565b80156105a85780601f1061057f576101008083540402835291602001916105a8565b820191905f5260205f20905b81548152906001019060200180831161058b57829003601f168201915b5050505050908060030180546105bd90612f4f565b80601f01602080910402602001604051908101604052809291908181526020018280546105e990612f4f565b80156106345780601f1061060b57610100808354040283529160200191610634565b820191905f5260205f20905b81548152906001019060200180831161061757829003601f168201915b50505050509080600401805461064990612f4f565b80601f016020809104026020016040519081016040528092919081815260200182805461067590612f4f565b80156106c05780601f10610697576101008083540402835291602001916106c0565b820191905f5260205f20905b8154815290600101906020018083116106a357829003601f168201915b5050505050905085565b601e81600381106106d9575f80fd5b600502015f91509050805f0154908060010180546106f690612f4f565b80601f016020809104026020016040519081016040528092919081815260200182805461072290612f4f565b801561076d5780601f106107445761010080835404028352916020019161076d565b820191905f5260205f20905b81548152906001019060200180831161075057829003601f168201915b50505050509080600201805461078290612f4f565b80601f01602080910402602001604051908101604052809291908181526020018280546107ae90612f4f565b80156107f95780601f106107d0576101008083540402835291602001916107f9565b820191905f5260205f20905b8154815290600101906020018083116107dc57829003601f168201915b50505050509080600301805461080e90612f4f565b80601f016020809104026020016040519081016040528092919081815260200182805461083a90612f4f565b80156108855780601f1061085c57610100808354040283529160200191610885565b820191905f5260205f20905b81548152906001019060200180831161086857829003601f168201915b50505050509080600401805461089a90612f4f565b80601f01602080910402602001604051908101604052809291908181526020018280546108c690612f4f565b80156109115780601f106108e857610100808354040283529160200191610911565b820191905f5260205f20905b8154815290600101906020018083116108f457829003601f168201915b5050505050905085565b610923612565565b5f600380602002604051908101604052809291905f905b82821015610bab578382600502016040518060a00160405290815f820154815260200160018201805461096c90612f4f565b80601f016020809104026020016040519081016040528092919081815260200182805461099890612f4f565b80156109e35780601f106109ba576101008083540402835291602001916109e3565b820191905f5260205f20905b8154815290600101906020018083116109c657829003601f168201915b505050505081526020016002820180546109fc90612f4f565b80601f0160208091040260200160405190810160405280929190818152602001828054610a2890612f4f565b8015610a735780601f10610a4a57610100808354040283529160200191610a73565b820191905f5260205f20905b815481529060010190602001808311610a5657829003601f168201915b50505050508152602001600382018054610a8c90612f4f565b80601f0160208091040260200160405190810160405280929190818152602001828054610ab890612f4f565b8015610b035780601f10610ada57610100808354040283529160200191610b03565b820191905f5260205f20905b815481529060010190602001808311610ae657829003601f168201915b50505050508152602001600482018054610b1c90612f4f565b80601f0160208091040260200160405190810160405280929190818152602001828054610b4890612f4f565b8015610b935780601f10610b6a57610100808354040283529160200191610b93565b820191905f5260205f20905b815481529060010190602001808311610b7657829003601f168201915b5050505050815250508152602001906001019061093a565b50505050905090565b610bbc612592565b601e600380602002604051908101604052809291905f905b82821015610e45578382600502016040518060a00160405290815f8201548152602001600182018054610c0690612f4f565b80601f0160208091040260200160405190810160405280929190818152602001828054610c3290612f4f565b8015610c7d5780601f10610c5457610100808354040283529160200191610c7d565b820191905f5260205f20905b815481529060010190602001808311610c6057829003601f168201915b50505050508152602001600282018054610c9690612f4f565b80601f0160208091040260200160405190810160405280929190818152602001828054610cc290612f4f565b8015610d0d5780601f10610ce457610100808354040283529160200191610d0d565b820191905f5260205f20905b815481529060010190602001808311610cf057829003601f168201915b50505050508152602001600382018054610d2690612f4f565b80601f0160208091040260200160405190810160405280929190818152602001828054610d5290612f4f565b8015610d9d5780601f10610d7457610100808354040283529160200191610d9d565b820191905f5260205f20905b815481529060010190602001808311610d8057829003601f168201915b50505050508152602001600482018054610db690612f4f565b80601f0160208091040260200160405190810160405280929190818152602001828054610de290612f4f565b8015610e2d5780601f10610e0457610100808354040283529160200191610e2d565b820191905f5260205f20905b815481529060010190602001808311610e1057829003601f168201915b50505050508152505081526020019060010190610bd4565b50505050905090565b60335f9054906101000a900473ffffffffffffffffffffffffffffffffffffffff1681565b3373ffffffffffffffffffffffffffffffffffffffff1660335f9054906101000a900473ffffffffffffffffffffffffffffffffffffffff1673ffffffffffffffffffffffffffffffffffffffff1614610f02576040517f08c379a0000000000000000000000000000000000000000000000000000000008152600401610ef990612fc9565b60405180910390fd5b8181602d9182610f139291906131be565b505050565b3373ffffffffffffffffffffffffffffffffffffffff1660335f9054906101000a900473ffffffffffffffffffffffffffffffffffffffff1673ffffffffffffffffffffffffffffffffffffffff1614610fa7576040517f08c379a0000000000000000000000000000000000000000000000000000000008152600401610f9e90612fc9565b60405180910390fd5b5f8110158015610fb75750600381105b610ff6576040517f08c379a0000000000000000000000000000000000000000000000000000000008152600401610fed906132d5565b60405180910390fd5b6040518060a001604052808281526020018a8a8080601f0160208091040260200160405190810160405280939291908181526020018383808284375f81840152601f19601f82011690508083019250505050505050815260200188888080601f0160208091040260200160405190810160405280939291908181526020018383808284375f81840152601f19601f82011690508083019250505050505050815260200186868080601f0160208091040260200160405190810160405280939291908181526020018383808284375f81840152601f19601f82011690508083019250505050505050815260200184848080601f0160208091040260200160405190810160405280939291908181526020018383808284375f81840152601f19601f82011690508083019250505050505050815250600f826003811061113d5761113c6132f3565b5b600502015f820151815f0155602082015181600101908161115e9190613320565b5060408201518160020190816111749190613320565b50606082015181600301908161118a9190613320565b5060808201518160040190816111a09190613320565b50905050505050505050505050565b602f80546111bc90612f4f565b80601f01602080910402602001604051908101604052809291908181526020018280546111e890612f4f565b80156112335780601f1061120a57610100808354040283529160200191611233565b820191905f5260205f20905b81548152906001019060200180831161121657829003601f168201915b505050505081565b3373ffffffffffffffffffffffffffffffffffffffff1660335f9054906101000a900473ffffffffffffffffffffffffffffffffffffffff1673ffffffffffffffffffffffffffffffffffffffff16146112ca576040517f08c379a00000000000000000000000000000000000000000000000000000000081526004016112c190612fc9565b60405180910390fd5b60036032541061130f576040517f08c379a000000000000000000000000000000000000000000000000000000000815260040161130690613439565b60405180910390fd5b6040518060a00160405280603254815260200189898080601f0160208091040260200160405190810160405280939291908181526020018383808284375f81840152601f19601f82011690508083019250505050505050815260200187878080601f0160208091040260200160405190810160405280939291908181526020018383808284375f81840152601f19601f82011690508083019250505050505050815260200185858080601f0160208091040260200160405190810160405280939291908181526020018383808284375f81840152601f19601f82011690508083019250505050505050815260200183838080601f0160208091040260200160405190810160405280939291908181526020018383808284375f81840152601f19601f82011690508083019250505050505050815250601e6032546003811061145a576114596132f3565b5b600502015f820151815f0155602082015181600101908161147b9190613320565b5060408201518160020190816114919190613320565b5060608201518160030190816114a79190613320565b5060808201518160040190816114bd9190613320565b5090505060325f8154809291906114d390613484565b91905055505050505050505050565b600360305410611527576040517f08c379a000000000000000000000000000000000000000000000000000000000815260040161151e90613515565b60405180910390fd5b6040518060a00160405280603054815260200189898080601f0160208091040260200160405190810160405280939291908181526020018383808284375f81840152601f19601f82011690508083019250505050505050815260200187878080601f0160208091040260200160405190810160405280939291908181526020018383808284375f81840152601f19601f82011690508083019250505050505050815260200185858080601f0160208091040260200160405190810160405280939291908181526020018383808284375f81840152601f19601f82011690508083019250505050505050815260200183838080601f0160208091040260200160405190810160405280939291908181526020018383808284375f81840152601f19601f820116905080830192505050505050508152505f60305460038110611671576116706132f3565b5b600502015f820151815f015560208201518160010190816116929190613320565b5060408201518160020190816116a89190613320565b5060608201518160030190816116be9190613320565b5060808201518160040190816116d49190613320565b5090505060305f8154809291906116ea90613484565b91905055505050505050505050565b5f81101580156117095750600381105b611748576040517f08c379a000000000000000000000000000000000000000000000000000000000815260040161173f90613515565b60405180910390fd5b6040518060a001604052808281526020018a8a8080601f0160208091040260200160405190810160405280939291908181526020018383808284375f81840152601f19601f82011690508083019250505050505050815260200188888080601f0160208091040260200160405190810160405280939291908181526020018383808284375f81840152601f19601f82011690508083019250505050505050815260200186868080601f0160208091040260200160405190810160405280939291908181526020018383808284375f81840152601f19601f82011690508083019250505050505050815260200184848080601f0160208091040260200160405190810160405280939291908181526020018383808284375f81840152601f19601f820116905080830192505050505050508152505f603054600381106118905761188f6132f3565b5b600502015f820151815f015560208201518160010190816118b19190613320565b5060408201518160020190816118c79190613320565b5060608201518160030190816118dd9190613320565b5060808201518160040190816118f39190613320565b50905050505050505050505050565b602e805461190f90612f4f565b80601f016020809104026020016040519081016040528092919081815260200182805461193b90612f4f565b80156119865780601f1061195d57610100808354040283529160200191611986565b820191905f5260205f20905b81548152906001019060200180831161196957829003601f168201915b505050505081565b600f816003811061199d575f80fd5b600502015f91509050805f0154908060010180546119ba90612f4f565b80601f01602080910402602001604051908101604052809291908181526020018280546119e690612f4f565b8015611a315780601f10611a0857610100808354040283529160200191611a31565b820191905f5260205f20905b815481529060010190602001808311611a1457829003601f168201915b505050505090806002018054611a4690612f4f565b80601f0160208091040260200160405190810160405280929190818152602001828054611a7290612f4f565b8015611abd5780601f10611a9457610100808354040283529160200191611abd565b820191905f5260205f20905b815481529060010190602001808311611aa057829003601f168201915b505050505090806003018054611ad290612f4f565b80601f0160208091040260200160405190810160405280929190818152602001828054611afe90612f4f565b8015611b495780601f10611b2057610100808354040283529160200191611b49565b820191905f5260205f20905b815481529060010190602001808311611b2c57829003601f168201915b505050505090806004018054611b5e90612f4f565b80601f0160208091040260200160405190810160405280929190818152602001828054611b8a90612f4f565b8015611bd55780601f10611bac57610100808354040283529160200191611bd5565b820191905f5260205f20905b815481529060010190602001808311611bb857829003601f168201915b5050505050905085565b611be76125bf565b600f600380602002604051908101604052809291905f905b82821015611e70578382600502016040518060a00160405290815f8201548152602001600182018054611c3190612f4f565b80601f0160208091040260200160405190810160405280929190818152602001828054611c5d90612f4f565b8015611ca85780601f10611c7f57610100808354040283529160200191611ca8565b820191905f5260205f20905b815481529060010190602001808311611c8b57829003601f168201915b50505050508152602001600282018054611cc190612f4f565b80601f0160208091040260200160405190810160405280929190818152602001828054611ced90612f4f565b8015611d385780601f10611d0f57610100808354040283529160200191611d38565b820191905f5260205f20905b815481529060010190602001808311611d1b57829003601f168201915b50505050508152602001600382018054611d5190612f4f565b80601f0160208091040260200160405190810160405280929190818152602001828054611d7d90612f4f565b8015611dc85780601f10611d9f57610100808354040283529160200191611dc8565b820191905f5260205f20905b815481529060010190602001808311611dab57829003601f168201915b50505050508152602001600482018054611de190612f4f565b80601f0160208091040260200160405190810160405280929190818152602001828054611e0d90612f4f565b8015611e585780601f10611e2f57610100808354040283529160200191611e58565b820191905f5260205f20905b815481529060010190602001808311611e3b57829003601f168201915b50505050508152505081526020019060010190611bff565b50505050905090565b3373ffffffffffffffffffffffffffffffffffffffff1660335f9054906101000a900473ffffffffffffffffffffffffffffffffffffffff1673ffffffffffffffffffffffffffffffffffffffff1614611f08576040517f08c379a0000000000000000000000000000000000000000000000000000000008152600401611eff90612fc9565b60405180910390fd5b600360315410611f4d576040517f08c379a0000000000000000000000000000000000000000000000000000000008152600401611f4490613439565b60405180910390fd5b6040518060a00160405280603154815260200189898080601f0160208091040260200160405190810160405280939291908181526020018383808284375f81840152601f19601f82011690508083019250505050505050815260200187878080601f0160208091040260200160405190810160405280939291908181526020018383808284375f81840152601f19601f82011690508083019250505050505050815260200185858080601f0160208091040260200160405190810160405280939291908181526020018383808284375f81840152601f19601f82011690508083019250505050505050815260200183838080601f0160208091040260200160405190810160405280939291908181526020018383808284375f81840152601f19601f82011690508083019250505050505050815250600f60315460038110612098576120976132f3565b5b600502015f820151815f015560208201518160010190816120b99190613320565b5060408201518160020190816120cf9190613320565b5060608201518160030190816120e59190613320565b5060808201518160040190816120fb9190613320565b5090505060315f81548092919061211190613484565b91905055505050505050505050565b602d805461212d90612f4f565b80601f016020809104026020016040519081016040528092919081815260200182805461215990612f4f565b80156121a45780601f1061217b576101008083540402835291602001916121a4565b820191905f5260205f20905b81548152906001019060200180831161218757829003601f168201915b505050505081565b3373ffffffffffffffffffffffffffffffffffffffff1660335f9054906101000a900473ffffffffffffffffffffffffffffffffffffffff1673ffffffffffffffffffffffffffffffffffffffff161461223b576040517f08c379a000000000000000000000000000000000000000000000000000000000815260040161223290612fc9565b60405180910390fd5b8181602f918261224c9291906131be565b505050565b3373ffffffffffffffffffffffffffffffffffffffff1660335f9054906101000a900473ffffffffffffffffffffffffffffffffffffffff1673ffffffffffffffffffffffffffffffffffffffff16146122e0576040517f08c379a00000000000000000000000000000000000000000000000000000000081526004016122d790612fc9565b60405180910390fd5b5f81101580156122f05750600381105b61232f576040517f08c379a00000000000000000000000000000000000000000000000000000000081526004016123269061357d565b60405180910390fd5b6040518060a001604052808281526020018a8a8080601f0160208091040260200160405190810160405280939291908181526020018383808284375f81840152601f19601f82011690508083019250505050505050815260200188888080601f0160208091040260200160405190810160405280939291908181526020018383808284375f81840152601f19601f82011690508083019250505050505050815260200186868080601f0160208091040260200160405190810160405280939291908181526020018383808284375f81840152601f19601f82011690508083019250505050505050815260200184848080601f0160208091040260200160405190810160405280939291908181526020018383808284375f81840152601f19601f82011690508083019250505050505050815250601e8260038110612476576124756132f3565b5b600502015f820151815f015560208201518160010190816124979190613320565b5060408201518160020190816124ad9190613320565b5060608201518160030190816124c39190613320565b5060808201518160040190816124d99190613320565b50905050505050505050505050565b8181602e91826124f99291906131be565b505050565b60335f9054906101000a900473ffffffffffffffffffffffffffffffffffffffff1673ffffffffffffffffffffffffffffffffffffffff166108fc3490811502906040515f60405180830381858888f19350505050158015612562573d5f5f3e3d5ffd5b50565b60405180606001604052806003905b61257c6125ec565b8152602001906001900390816125745790505090565b60405180606001604052806003905b6125a961261a565b8152602001906001900390816125a15790505090565b60405180606001604052806003905b6125d6612648565b8152602001906001900390816125ce5790505090565b6040518060a001604052805f8152602001606081526020016060815260200160608152602001606081525090565b6040518060a001604052805f8152602001606081526020016060815260200160608152602001606081525090565b6040518060a001604052805f8152602001606081526020016060815260200160608152602001606081525090565b5f5ffd5b5f5ffd5b5f819050919050565b6126908161267e565b811461269a575f5ffd5b50565b5f813590506126ab81612687565b92915050565b5f602082840312156126c6576126c5612676565b5b5f6126d38482850161269d565b91505092915050565b6126e58161267e565b82525050565b5f81519050919050565b5f82825260208201905092915050565b8281835e5f83830152505050565b5f601f19601f8301169050919050565b5f61272d826126eb565b61273781856126f5565b9350612747818560208601612705565b61275081612713565b840191505092915050565b5f60a08201905061276e5f8301886126dc565b81810360208301526127808187612723565b905081810360408301526127948186612723565b905081810360608301526127a88185612723565b905081810360808301526127bc8184612723565b90509695505050505050565b5f60039050919050565b5f81905092915050565b5f819050919050565b6127ee8161267e565b82525050565b5f82825260208201905092915050565b5f61280e826126eb565b61281881856127f4565b9350612828818560208601612705565b61283181612713565b840191505092915050565b5f60a083015f8301516128515f8601826127e5565b50602083015184820360208601526128698282612804565b915050604083015184820360408601526128838282612804565b9150506060830151848203606086015261289d8282612804565b915050608083015184820360808601526128b78282612804565b9150508091505092915050565b5f6128cf838361283c565b905092915050565b5f602082019050919050565b5f6128ed826127c8565b6128f781856127d2565b935083602082028501612909856127dc565b805f5b85811015612944578484038952815161292585826128c4565b9450612930836128d7565b925060208a0199505060018101905061290c565b50829750879550505050505092915050565b5f6020820190508181035f83015261296e81846128e3565b905092915050565b5f60039050919050565b5f81905092915050565b5f819050919050565b5f60a083015f8301516129a85f8601826127e5565b50602083015184820360208601526129c08282612804565b915050604083015184820360408601526129da8282612804565b915050606083015184820360608601526129f48282612804565b91505060808301518482036080860152612a0e8282612804565b9150508091505092915050565b5f612a268383612993565b905092915050565b5f602082019050919050565b5f612a4482612976565b612a4e8185612980565b935083602082028501612a608561298a565b805f5b85811015612a9b5784840389528151612a7c8582612a1b565b9450612a8783612a2e565b925060208a01995050600181019050612a63565b50829750879550505050505092915050565b5f6020820190508181035f830152612ac58184612a3a565b905092915050565b5f73ffffffffffffffffffffffffffffffffffffffff82169050919050565b5f612af682612acd565b9050919050565b612b0681612aec565b82525050565b5f602082019050612b1f5f830184612afd565b92915050565b5f5ffd5b5f5ffd5b5f5ffd5b5f5f83601f840112612b4657612b45612b25565b5b8235905067ffffffffffffffff811115612b6357612b62612b29565b5b602083019150836001820283011115612b7f57612b7e612b2d565b5b9250929050565b5f5f60208385031215612b9c57612b9b612676565b5b5f83013567ffffffffffffffff811115612bb957612bb861267a565b5b612bc585828601612b31565b92509250509250929050565b5f5f5f5f5f5f5f5f5f60a08a8c031215612bee57612bed612676565b5b5f8a013567ffffffffffffffff811115612c0b57612c0a61267a565b5b612c178c828d01612b31565b995099505060208a013567ffffffffffffffff811115612c3a57612c3961267a565b5b612c468c828d01612b31565b975097505060408a013567ffffffffffffffff811115612c6957612c6861267a565b5b612c758c828d01612b31565b955095505060608a013567ffffffffffffffff811115612c9857612c9761267a565b5b612ca48c828d01612b31565b93509350506080612cb78c828d0161269d565b9150509295985092959850929598565b5f6020820190508181035f830152612cdf8184612723565b905092915050565b5f5f5f5f5f5f5f5f6080898b031215612d0357612d02612676565b5b5f89013567ffffffffffffffff811115612d2057612d1f61267a565b5b612d2c8b828c01612b31565b9850985050602089013567ffffffffffffffff811115612d4f57612d4e61267a565b5b612d5b8b828c01612b31565b9650965050604089013567ffffffffffffffff811115612d7e57612d7d61267a565b5b612d8a8b828c01612b31565b9450945050606089013567ffffffffffffffff811115612dad57612dac61267a565b5b612db98b828c01612b31565b92509250509295985092959890939650565b5f60039050919050565b5f81905092915050565b5f819050919050565b5f60a083015f830151612dfd5f8601826127e5565b5060208301518482036020860152612e158282612804565b91505060408301518482036040860152612e2f8282612804565b91505060608301518482036060860152612e498282612804565b91505060808301518482036080860152612e638282612804565b9150508091505092915050565b5f612e7b8383612de8565b905092915050565b5f602082019050919050565b5f612e9982612dcb565b612ea38185612dd5565b935083602082028501612eb585612ddf565b805f5b85811015612ef05784840389528151612ed18582612e70565b9450612edc83612e83565b925060208a01995050600181019050612eb8565b50829750879550505050505092915050565b5f6020820190508181035f830152612f1a8184612e8f565b905092915050565b7f4e487b71000000000000000000000000000000000000000000000000000000005f52602260045260245ffd5b5f6002820490506001821680612f6657607f821691505b602082108103612f7957612f78612f22565b5b50919050565b7f596f7520617265206e6f7420746865206d616e616765720000000000000000005f82015250565b5f612fb36017836126f5565b9150612fbe82612f7f565b602082019050919050565b5f6020820190508181035f830152612fe081612fa7565b9050919050565b5f82905092915050565b7f4e487b71000000000000000000000000000000000000000000000000000000005f52604160045260245ffd5b5f819050815f5260205f209050919050565b5f6020601f8301049050919050565b5f82821b905092915050565b5f6008830261307a7fffffffffffffffffffffffffffffffffffffffffffffffffffffffffffffffff8261303f565b613084868361303f565b95508019841693508086168417925050509392505050565b5f819050919050565b5f6130bf6130ba6130b58461267e565b61309c565b61267e565b9050919050565b5f819050919050565b6130d8836130a5565b6130ec6130e4826130c6565b84845461304b565b825550505050565b5f5f905090565b6131036130f4565b61310e8184846130cf565b505050565b5b81811015613131576131265f826130fb565b600181019050613114565b5050565b601f821115613176576131478161301e565b61315084613030565b8101602085101561315f578190505b61317361316b85613030565b830182613113565b50505b505050565b5f82821c905092915050565b5f6131965f198460080261317b565b1980831691505092915050565b5f6131ae8383613187565b9150826002028217905092915050565b6131c88383612fe7565b67ffffffffffffffff8111156131e1576131e0612ff1565b5b6131eb8254612f4f565b6131f6828285613135565b5f601f831160018114613223575f8415613211578287013590505b61321b85826131a3565b865550613282565b601f1984166132318661301e565b5f5b8281101561325857848901358255600182019150602085019450602081019050613233565b868310156132755784890135613271601f891682613187565b8355505b6001600288020188555050505b50505050505050565b7f496e76616c696420656475636174696f6e436f756e74000000000000000000005f82015250565b5f6132bf6016836126f5565b91506132ca8261328b565b602082019050919050565b5f6020820190508181035f8301526132ec816132b3565b9050919050565b7f4e487b71000000000000000000000000000000000000000000000000000000005f52603260045260245ffd5b613329826126eb565b67ffffffffffffffff81111561334257613341612ff1565b5b61334c8254612f4f565b613357828285613135565b5f60209050601f831160018114613388575f8415613376578287015190505b61338085826131a3565b8655506133e7565b601f1984166133968661301e565b5f5b828110156133bd57848901518255600182019150602085019450602081019050613398565b868310156133da57848901516133d6601f891682613187565b8355505b6001600288020188555050505b505050505050565b7f4f6e6c79203320656475636174696f6e2064657461696c7320616c6c6f7765645f82015250565b5f6134236020836126f5565b915061342e826133ef565b602082019050919050565b5f6020820190508181035f83015261345081613417565b9050919050565b7f4e487b71000000000000000000000000000000000000000000000000000000005f52601160045260245ffd5b5f61348e8261267e565b91507fffffffffffffffffffffffffffffffffffffffffffffffffffffffffffffffff82036134c0576134bf613457565b5b600182019050919050565b7f4f6e6c7920332070726f6a6563747320616c6c6f7765640000000000000000005f82015250565b5f6134ff6017836126f5565b915061350a826134cb565b602082019050919050565b5f6020820190508181035f83015261352c816134f3565b9050919050565b7f496e76616c696420657870657269656e6365436f756e740000000000000000005f82015250565b5f6135676017836126f5565b915061357282613533565b602082019050919050565b5f6020820190508181035f8301526135948161355b565b905091905056fea264697066735822122077241e7451a16368f2b6fc51fd98a966681ec3409106ec96c50ddcaa3ecf452364736f6c634300081c00334920616d207075727375696e6720422e20546563682066726f6d20474548552e204120676f6f64206b6e6f776c6564676520696e20426c6f636b636861696e20446576656c6f706d656e742e2049206861766520657870657269656e6365206d61696e6c7920696e20457468657265756d20426c6f636b636861696e2e204920616d20616c736f2061637469766520696e20746865206669656c64206f6620636f64696e67202e2049206861766520616c736f206b65656e20696e74657265737420696e206c6561726e696e672061626f757420746563686e6f6c6f67792e20516d5459473678547357766e4b374e575565447439765a4854396134594d6d6344376d6731564166325a39754854516d536a694834464c654c6162575a727577345a734a667779644b4b526479555064383467673369363339517233",
					"opcodes": "PUSH1 0x80 PUSH1 0x40 MSTORE PUSH1 0x40 MLOAD DUP1 PUSH1 0x60 ADD PUSH1 0x40 MSTORE DUP1 PUSH1 0x2E DUP2 MSTORE PUSH1 0x20 ADD PUSH2 0x3AC6 PUSH1 0x2E SWAP2 CODECOPY PUSH1 0x2D SWAP1 DUP2 PUSH2 0x2B SWAP2 SWAP1 PUSH2 0x30B JUMP JUMPDEST POP PUSH1 0x40 MLOAD DUP1 PUSH2 0x100 ADD PUSH1 0x40 MSTORE DUP1 PUSH1 0xE0 DUP2 MSTORE PUSH1 0x20 ADD PUSH2 0x39B8 PUSH1 0xE0 SWAP2 CODECOPY PUSH1 0x2E SWAP1 DUP2 PUSH2 0x54 SWAP2 SWAP1 PUSH2 0x30B JUMP JUMPDEST POP PUSH1 0x40 MLOAD DUP1 PUSH1 0x60 ADD PUSH1 0x40 MSTORE DUP1 PUSH1 0x2E DUP2 MSTORE PUSH1 0x20 ADD PUSH2 0x3A98 PUSH1 0x2E SWAP2 CODECOPY PUSH1 0x2F SWAP1 DUP2 PUSH2 0x7C SWAP2 SWAP1 PUSH2 0x30B JUMP JUMPDEST POP CALLVALUE DUP1 ISZERO PUSH2 0x88 JUMPI PUSH0 PUSH0 REVERT JUMPDEST POP CALLER PUSH1 0x33 PUSH0 PUSH2 0x100 EXP DUP2 SLOAD DUP2 PUSH20 0xFFFFFFFFFFFFFFFFFFFFFFFFFFFFFFFFFFFFFFFF MUL NOT AND SWAP1 DUP4 PUSH20 0xFFFFFFFFFFFFFFFFFFFFFFFFFFFFFFFFFFFFFFFF AND MUL OR SWAP1 SSTORE POP PUSH2 0x3DA JUMP JUMPDEST PUSH0 DUP2 MLOAD SWAP1 POP SWAP2 SWAP1 POP JUMP JUMPDEST PUSH32 0x4E487B7100000000000000000000000000000000000000000000000000000000 PUSH0 MSTORE PUSH1 0x41 PUSH1 0x4 MSTORE PUSH1 0x24 PUSH0 REVERT JUMPDEST PUSH32 0x4E487B7100000000000000000000000000000000000000000000000000000000 PUSH0 MSTORE PUSH1 0x22 PUSH1 0x4 MSTORE PUSH1 0x24 PUSH0 REVERT JUMPDEST PUSH0 PUSH1 0x2 DUP3 DIV SWAP1 POP PUSH1 0x1 DUP3 AND DUP1 PUSH2 0x149 JUMPI PUSH1 0x7F DUP3 AND SWAP2 POP JUMPDEST PUSH1 0x20 DUP3 LT DUP2 SUB PUSH2 0x15C JUMPI PUSH2 0x15B PUSH2 0x105 JUMP JUMPDEST JUMPDEST POP SWAP2 SWAP1 POP JUMP JUMPDEST PUSH0 DUP2 SWAP1 POP DUP2 PUSH0 MSTORE PUSH1 0x20 PUSH0 KECCAK256 SWAP1 POP SWAP2 SWAP1 POP JUMP JUMPDEST PUSH0 PUSH1 0x20 PUSH1 0x1F DUP4 ADD DIV SWAP1 POP SWAP2 SWAP1 POP JUMP JUMPDEST PUSH0 DUP3 DUP3 SHL SWAP1 POP SWAP3 SWAP2 POP POP JUMP JUMPDEST PUSH0 PUSH1 0x8 DUP4 MUL PUSH2 0x1BE PUSH32 0xFFFFFFFFFFFFFFFFFFFFFFFFFFFFFFFFFFFFFFFFFFFFFFFFFFFFFFFFFFFFFFFF DUP3 PUSH2 0x183 JUMP JUMPDEST PUSH2 0x1C8 DUP7 DUP4 PUSH2 0x183 JUMP JUMPDEST SWAP6 POP DUP1 NOT DUP5 AND SWAP4 POP DUP1 DUP7 AND DUP5 OR SWAP3 POP POP POP SWAP4 SWAP3 POP POP POP JUMP JUMPDEST PUSH0 DUP2 SWAP1 POP SWAP2 SWAP1 POP JUMP JUMPDEST PUSH0 DUP2 SWAP1 POP SWAP2 SWAP1 POP JUMP JUMPDEST PUSH0 PUSH2 0x20C PUSH2 0x207 PUSH2 0x202 DUP5 PUSH2 0x1E0 JUMP JUMPDEST PUSH2 0x1E9 JUMP JUMPDEST PUSH2 0x1E0 JUMP JUMPDEST SWAP1 POP SWAP2 SWAP1 POP JUMP JUMPDEST PUSH0 DUP2 SWAP1 POP SWAP2 SWAP1 POP JUMP JUMPDEST PUSH2 0x225 DUP4 PUSH2 0x1F2 JUMP JUMPDEST PUSH2 0x239 PUSH2 0x231 DUP3 PUSH2 0x213 JUMP JUMPDEST DUP5 DUP5 SLOAD PUSH2 0x18F JUMP JUMPDEST DUP3 SSTORE POP POP POP POP JUMP JUMPDEST PUSH0 PUSH0 SWAP1 POP SWAP1 JUMP JUMPDEST PUSH2 0x250 PUSH2 0x241 JUMP JUMPDEST PUSH2 0x25B DUP2 DUP5 DUP5 PUSH2 0x21C JUMP JUMPDEST POP POP POP JUMP JUMPDEST JUMPDEST DUP2 DUP2 LT ISZERO PUSH2 0x27E JUMPI PUSH2 0x273 PUSH0 DUP3 PUSH2 0x248 JUMP JUMPDEST PUSH1 0x1 DUP2 ADD SWAP1 POP PUSH2 0x261 JUMP JUMPDEST POP POP JUMP JUMPDEST PUSH1 0x1F DUP3 GT ISZERO PUSH2 0x2C3 JUMPI PUSH2 0x294 DUP2 PUSH2 0x162 JUMP JUMPDEST PUSH2 0x29D DUP5 PUSH2 0x174 JUMP JUMPDEST DUP2 ADD PUSH1 0x20 DUP6 LT ISZERO PUSH2 0x2AC JUMPI DUP2 SWAP1 POP JUMPDEST PUSH2 0x2C0 PUSH2 0x2B8 DUP6 PUSH2 0x174 JUMP JUMPDEST DUP4 ADD DUP3 PUSH2 0x260 JUMP JUMPDEST POP POP JUMPDEST POP POP POP JUMP JUMPDEST PUSH0 DUP3 DUP3 SHR SWAP1 POP SWAP3 SWAP2 POP POP JUMP JUMPDEST PUSH0 PUSH2 0x2E3 PUSH0 NOT DUP5 PUSH1 0x8 MUL PUSH2 0x2C8 JUMP JUMPDEST NOT DUP1 DUP4 AND SWAP2 POP POP SWAP3 SWAP2 POP POP JUMP JUMPDEST PUSH0 PUSH2 0x2FB DUP4 DUP4 PUSH2 0x2D4 JUMP JUMPDEST SWAP2 POP DUP3 PUSH1 0x2 MUL DUP3 OR SWAP1 POP SWAP3 SWAP2 POP POP JUMP JUMPDEST PUSH2 0x314 DUP3 PUSH2 0xCE JUMP JUMPDEST PUSH8 0xFFFFFFFFFFFFFFFF DUP2 GT ISZERO PUSH2 0x32D JUMPI PUSH2 0x32C PUSH2 0xD8 JUMP JUMPDEST JUMPDEST PUSH2 0x337 DUP3 SLOAD PUSH2 0x132 JUMP JUMPDEST PUSH2 0x342 DUP3 DUP3 DUP6 PUSH2 0x282 JUMP JUMPDEST PUSH0 PUSH1 0x20 SWAP1 POP PUSH1 0x1F DUP4 GT PUSH1 0x1 DUP2 EQ PUSH2 0x373 JUMPI PUSH0 DUP5 ISZERO PUSH2 0x361 JUMPI DUP3 DUP8 ADD MLOAD SWAP1 POP JUMPDEST PUSH2 0x36B DUP6 DUP3 PUSH2 0x2F0 JUMP JUMPDEST DUP7 SSTORE POP PUSH2 0x3D2 JUMP JUMPDEST PUSH1 0x1F NOT DUP5 AND PUSH2 0x381 DUP7 PUSH2 0x162 JUMP JUMPDEST PUSH0 JUMPDEST DUP3 DUP2 LT ISZERO PUSH2 0x3A8 JUMPI DUP5 DUP10 ADD MLOAD DUP3 SSTORE PUSH1 0x1 DUP3 ADD SWAP2 POP PUSH1 0x20 DUP6 ADD SWAP5 POP PUSH1 0x20 DUP2 ADD SWAP1 POP PUSH2 0x383 JUMP JUMPDEST DUP7 DUP4 LT ISZERO PUSH2 0x3C5 JUMPI DUP5 DUP10 ADD MLOAD PUSH2 0x3C1 PUSH1 0x1F DUP10 AND DUP3 PUSH2 0x2D4 JUMP JUMPDEST DUP4 SSTORE POP JUMPDEST PUSH1 0x1 PUSH1 0x2 DUP9 MUL ADD DUP9 SSTORE POP POP POP JUMPDEST POP POP POP POP POP POP JUMP JUMPDEST PUSH2 0x35D1 DUP1 PUSH2 0x3E7 PUSH0 CODECOPY PUSH0 RETURN INVALID PUSH1 0x80 PUSH1 0x40 MSTORE PUSH1 0x4 CALLDATASIZE LT PUSH2 0x11E JUMPI PUSH0 CALLDATALOAD PUSH1 0xE0 SHR DUP1 PUSH4 0x6FE8E0BD GT PUSH2 0x9F JUMPI DUP1 PUSH4 0xCAF7B759 GT PUSH2 0x63 JUMPI DUP1 PUSH4 0xCAF7B759 EQ PUSH2 0x3CE JUMPI DUP1 PUSH4 0xD3CEDF11 EQ PUSH2 0x3F8 JUMPI DUP1 PUSH4 0xD921FA82 EQ PUSH2 0x420 JUMPI DUP1 PUSH4 0xE6120413 EQ PUSH2 0x448 JUMPI DUP1 PUSH4 0xED88C68E EQ PUSH2 0x470 JUMPI PUSH2 0x11E JUMP JUMPDEST DUP1 PUSH4 0x6FE8E0BD EQ PUSH2 0x2EA JUMPI DUP1 PUSH4 0x7284E416 EQ PUSH2 0x312 JUMPI DUP1 PUSH4 0x7AEA95AA EQ PUSH2 0x33C JUMPI DUP1 PUSH4 0x8AF4F98D EQ PUSH2 0x37C JUMPI DUP1 PUSH4 0x98F831B6 EQ PUSH2 0x3A6 JUMPI PUSH2 0x11E JUMP JUMPDEST DUP1 PUSH4 0x598E7F37 GT PUSH2 0xE6 JUMPI DUP1 PUSH4 0x598E7F37 EQ PUSH2 0x220 JUMPI DUP1 PUSH4 0x5B173A69 EQ PUSH2 0x248 JUMPI DUP1 PUSH4 0x5CEA6A7C EQ PUSH2 0x270 JUMPI DUP1 PUSH4 0x5D85A1F4 EQ PUSH2 0x29A JUMPI DUP1 PUSH4 0x6426D4C3 EQ PUSH2 0x2C2 JUMPI PUSH2 0x11E JUMP JUMPDEST DUP1 PUSH4 0x107046BD EQ PUSH2 0x122 JUMPI DUP1 PUSH4 0x10EF62C5 EQ PUSH2 0x162 JUMPI DUP1 PUSH4 0x2ADF13B2 EQ PUSH2 0x1A2 JUMPI DUP1 PUSH4 0x36EEA422 EQ PUSH2 0x1CC JUMPI DUP1 PUSH4 0x481C6A75 EQ PUSH2 0x1F6 JUMPI JUMPDEST PUSH0 PUSH0 REVERT JUMPDEST CALLVALUE DUP1 ISZERO PUSH2 0x12D JUMPI PUSH0 PUSH0 REVERT JUMPDEST POP PUSH2 0x148 PUSH1 0x4 DUP1 CALLDATASIZE SUB DUP2 ADD SWAP1 PUSH2 0x143 SWAP2 SWAP1 PUSH2 0x26B1 JUMP JUMPDEST PUSH2 0x47A JUMP JUMPDEST PUSH1 0x40 MLOAD PUSH2 0x159 SWAP6 SWAP5 SWAP4 SWAP3 SWAP2 SWAP1 PUSH2 0x275B JUMP JUMPDEST PUSH1 0x40 MLOAD DUP1 SWAP2 SUB SWAP1 RETURN JUMPDEST CALLVALUE DUP1 ISZERO PUSH2 0x16D JUMPI PUSH0 PUSH0 REVERT JUMPDEST POP PUSH2 0x188 PUSH1 0x4 DUP1 CALLDATASIZE SUB DUP2 ADD SWAP1 PUSH2 0x183 SWAP2 SWAP1 PUSH2 0x26B1 JUMP JUMPDEST PUSH2 0x6CA JUMP JUMPDEST PUSH1 0x40 MLOAD PUSH2 0x199 SWAP6 SWAP5 SWAP4 SWAP3 SWAP2 SWAP1 PUSH2 0x275B JUMP JUMPDEST PUSH1 0x40 MLOAD DUP1 SWAP2 SUB SWAP1 RETURN JUMPDEST CALLVALUE DUP1 ISZERO PUSH2 0x1AD JUMPI PUSH0 PUSH0 REVERT JUMPDEST POP PUSH2 0x1B6 PUSH2 0x91B JUMP JUMPDEST PUSH1 0x40 MLOAD PUSH2 0x1C3 SWAP2 SWAP1 PUSH2 0x2956 JUMP JUMPDEST PUSH1 0x40 MLOAD DUP1 SWAP2 SUB SWAP1 RETURN JUMPDEST CALLVALUE DUP1 ISZERO PUSH2 0x1D7 JUMPI PUSH0 PUSH0 REVERT JUMPDEST POP PUSH2 0x1E0 PUSH2 0xBB4 JUMP JUMPDEST PUSH1 0x40 MLOAD PUSH2 0x1ED SWAP2 SWAP1 PUSH2 0x2AAD JUMP JUMPDEST PUSH1 0x40 MLOAD DUP1 SWAP2 SUB SWAP1 RETURN JUMPDEST CALLVALUE DUP1 ISZERO PUSH2 0x201 JUMPI PUSH0 PUSH0 REVERT JUMPDEST POP PUSH2 0x20A PUSH2 0xE4E JUMP JUMPDEST PUSH1 0x40 MLOAD PUSH2 0x217 SWAP2 SWAP1 PUSH2 0x2B0C JUMP JUMPDEST PUSH1 0x40 MLOAD DUP1 SWAP2 SUB SWAP1 RETURN JUMPDEST CALLVALUE DUP1 ISZERO PUSH2 0x22B JUMPI PUSH0 PUSH0 REVERT JUMPDEST POP PUSH2 0x246 PUSH1 0x4 DUP1 CALLDATASIZE SUB DUP2 ADD SWAP1 PUSH2 0x241 SWAP2 SWAP1 PUSH2 0x2B86 JUMP JUMPDEST PUSH2 0xE73 JUMP JUMPDEST STOP JUMPDEST CALLVALUE DUP1 ISZERO PUSH2 0x253 JUMPI PUSH0 PUSH0 REVERT JUMPDEST POP PUSH2 0x26E PUSH1 0x4 DUP1 CALLDATASIZE SUB DUP2 ADD SWAP1 PUSH2 0x269 SWAP2 SWAP1 PUSH2 0x2BD1 JUMP JUMPDEST PUSH2 0xF18 JUMP JUMPDEST STOP JUMPDEST CALLVALUE DUP1 ISZERO PUSH2 0x27B JUMPI PUSH0 PUSH0 REVERT JUMPDEST POP PUSH2 0x284 PUSH2 0x11AF JUMP JUMPDEST PUSH1 0x40 MLOAD PUSH2 0x291 SWAP2 SWAP1 PUSH2 0x2CC7 JUMP JUMPDEST PUSH1 0x40 MLOAD DUP1 SWAP2 SUB SWAP1 RETURN JUMPDEST CALLVALUE DUP1 ISZERO PUSH2 0x2A5 JUMPI PUSH0 PUSH0 REVERT JUMPDEST POP PUSH2 0x2C0 PUSH1 0x4 DUP1 CALLDATASIZE SUB DUP2 ADD SWAP1 PUSH2 0x2BB SWAP2 SWAP1 PUSH2 0x2CE7 JUMP JUMPDEST PUSH2 0x123B JUMP JUMPDEST STOP JUMPDEST CALLVALUE DUP1 ISZERO PUSH2 0x2CD JUMPI PUSH0 PUSH0 REVERT JUMPDEST POP PUSH2 0x2E8 PUSH1 0x4 DUP1 CALLDATASIZE SUB DUP2 ADD SWAP1 PUSH2 0x2E3 SWAP2 SWAP1 PUSH2 0x2CE7 JUMP JUMPDEST PUSH2 0x14E2 JUMP JUMPDEST STOP JUMPDEST CALLVALUE DUP1 ISZERO PUSH2 0x2F5 JUMPI PUSH0 PUSH0 REVERT JUMPDEST POP PUSH2 0x310 PUSH1 0x4 DUP1 CALLDATASIZE SUB DUP2 ADD SWAP1 PUSH2 0x30B SWAP2 SWAP1 PUSH2 0x2BD1 JUMP JUMPDEST PUSH2 0x16F9 JUMP JUMPDEST STOP JUMPDEST CALLVALUE DUP1 ISZERO PUSH2 0x31D JUMPI PUSH0 PUSH0 REVERT JUMPDEST POP PUSH2 0x326 PUSH2 0x1902 JUMP JUMPDEST PUSH1 0x40 MLOAD PUSH2 0x333 SWAP2 SWAP1 PUSH2 0x2CC7 JUMP JUMPDEST PUSH1 0x40 MLOAD DUP1 SWAP2 SUB SWAP1 RETURN JUMPDEST CALLVALUE DUP1 ISZERO PUSH2 0x347 JUMPI PUSH0 PUSH0 REVERT JUMPDEST POP PUSH2 0x362 PUSH1 0x4 DUP1 CALLDATASIZE SUB DUP2 ADD SWAP1 PUSH2 0x35D SWAP2 SWAP1 PUSH2 0x26B1 JUMP JUMPDEST PUSH2 0x198E JUMP JUMPDEST PUSH1 0x40 MLOAD PUSH2 0x373 SWAP6 SWAP5 SWAP4 SWAP3 SWAP2 SWAP1 PUSH2 0x275B JUMP JUMPDEST PUSH1 0x40 MLOAD DUP1 SWAP2 SUB SWAP1 RETURN JUMPDEST CALLVALUE DUP1 ISZERO PUSH2 0x387 JUMPI PUSH0 PUSH0 REVERT JUMPDEST POP PUSH2 0x390 PUSH2 0x1BDF JUMP JUMPDEST PUSH1 0x40 MLOAD PUSH2 0x39D SWAP2 SWAP1 PUSH2 0x2F02 JUMP JUMPDEST PUSH1 0x40 MLOAD DUP1 SWAP2 SUB SWAP1 RETURN JUMPDEST CALLVALUE DUP1 ISZERO PUSH2 0x3B1 JUMPI PUSH0 PUSH0 REVERT JUMPDEST POP PUSH2 0x3CC PUSH1 0x4 DUP1 CALLDATASIZE SUB DUP2 ADD SWAP1 PUSH2 0x3C7 SWAP2 SWAP1 PUSH2 0x2CE7 JUMP JUMPDEST PUSH2 0x1E79 JUMP JUMPDEST STOP JUMPDEST CALLVALUE DUP1 ISZERO PUSH2 0x3D9 JUMPI PUSH0 PUSH0 REVERT JUMPDEST POP PUSH2 0x3E2 PUSH2 0x2120 JUMP JUMPDEST PUSH1 0x40 MLOAD PUSH2 0x3EF SWAP2 SWAP1 PUSH2 0x2CC7 JUMP JUMPDEST PUSH1 0x40 MLOAD DUP1 SWAP2 SUB SWAP1 RETURN JUMPDEST CALLVALUE DUP1 ISZERO PUSH2 0x403 JUMPI PUSH0 PUSH0 REVERT JUMPDEST POP PUSH2 0x41E PUSH1 0x4 DUP1 CALLDATASIZE SUB DUP2 ADD SWAP1 PUSH2 0x419 SWAP2 SWAP1 PUSH2 0x2B86 JUMP JUMPDEST PUSH2 0x21AC JUMP JUMPDEST STOP JUMPDEST CALLVALUE DUP1 ISZERO PUSH2 0x42B JUMPI PUSH0 PUSH0 REVERT JUMPDEST POP PUSH2 0x446 PUSH1 0x4 DUP1 CALLDATASIZE SUB DUP2 ADD SWAP1 PUSH2 0x441 SWAP2 SWAP1 PUSH2 0x2BD1 JUMP JUMPDEST PUSH2 0x2251 JUMP JUMPDEST STOP JUMPDEST CALLVALUE DUP1 ISZERO PUSH2 0x453 JUMPI PUSH0 PUSH0 REVERT JUMPDEST POP PUSH2 0x46E PUSH1 0x4 DUP1 CALLDATASIZE SUB DUP2 ADD SWAP1 PUSH2 0x469 SWAP2 SWAP1 PUSH2 0x2B86 JUMP JUMPDEST PUSH2 0x24E8 JUMP JUMPDEST STOP JUMPDEST PUSH2 0x478 PUSH2 0x24FE JUMP JUMPDEST STOP JUMPDEST PUSH0 DUP2 PUSH1 0x3 DUP2 LT PUSH2 0x488 JUMPI PUSH0 DUP1 REVERT JUMPDEST PUSH1 0x5 MUL ADD PUSH0 SWAP2 POP SWAP1 POP DUP1 PUSH0 ADD SLOAD SWAP1 DUP1 PUSH1 0x1 ADD DUP1 SLOAD PUSH2 0x4A5 SWAP1 PUSH2 0x2F4F JUMP JUMPDEST DUP1 PUSH1 0x1F ADD PUSH1 0x20 DUP1 SWAP2 DIV MUL PUSH1 0x20 ADD PUSH1 0x40 MLOAD SWAP1 DUP2 ADD PUSH1 0x40 MSTORE DUP1 SWAP3 SWAP2 SWAP1 DUP2 DUP2 MSTORE PUSH1 0x20 ADD DUP3 DUP1 SLOAD PUSH2 0x4D1 SWAP1 PUSH2 0x2F4F JUMP JUMPDEST DUP1 ISZERO PUSH2 0x51C JUMPI DUP1 PUSH1 0x1F LT PUSH2 0x4F3 JUMPI PUSH2 0x100 DUP1 DUP4 SLOAD DIV MUL DUP4 MSTORE SWAP2 PUSH1 0x20 ADD SWAP2 PUSH2 0x51C JUMP JUMPDEST DUP3 ADD SWAP2 SWAP1 PUSH0 MSTORE PUSH1 0x20 PUSH0 KECCAK256 SWAP1 JUMPDEST DUP2 SLOAD DUP2 MSTORE SWAP1 PUSH1 0x1 ADD SWAP1 PUSH1 0x20 ADD DUP1 DUP4 GT PUSH2 0x4FF JUMPI DUP3 SWAP1 SUB PUSH1 0x1F AND DUP3 ADD SWAP2 JUMPDEST POP POP POP POP POP SWAP1 DUP1 PUSH1 0x2 ADD DUP1 SLOAD PUSH2 0x531 SWAP1 PUSH2 0x2F4F JUMP JUMPDEST DUP1 PUSH1 0x1F ADD PUSH1 0x20 DUP1 SWAP2 DIV MUL PUSH1 0x20 ADD PUSH1 0x40 MLOAD SWAP1 DUP2 ADD PUSH1 0x40 MSTORE DUP1 SWAP3 SWAP2 SWAP1 DUP2 DUP2 MSTORE PUSH1 0x20 ADD DUP3 DUP1 SLOAD PUSH2 0x55D SWAP1 PUSH2 0x2F4F JUMP JUMPDEST DUP1 ISZERO PUSH2 0x5A8 JUMPI DUP1 PUSH1 0x1F LT PUSH2 0x57F JUMPI PUSH2 0x100 DUP1 DUP4 SLOAD DIV MUL DUP4 MSTORE SWAP2 PUSH1 0x20 ADD SWAP2 PUSH2 0x5A8 JUMP JUMPDEST DUP3 ADD SWAP2 SWAP1 PUSH0 MSTORE PUSH1 0x20 PUSH0 KECCAK256 SWAP1 JUMPDEST DUP2 SLOAD DUP2 MSTORE SWAP1 PUSH1 0x1 ADD SWAP1 PUSH1 0x20 ADD DUP1 DUP4 GT PUSH2 0x58B JUMPI DUP3 SWAP1 SUB PUSH1 0x1F AND DUP3 ADD SWAP2 JUMPDEST POP POP POP POP POP SWAP1 DUP1 PUSH1 0x3 ADD DUP1 SLOAD PUSH2 0x5BD SWAP1 PUSH2 0x2F4F JUMP JUMPDEST DUP1 PUSH1 0x1F ADD PUSH1 0x20 DUP1 SWAP2 DIV MUL PUSH1 0x20 ADD PUSH1 0x40 MLOAD SWAP1 DUP2 ADD PUSH1 0x40 MSTORE DUP1 SWAP3 SWAP2 SWAP1 DUP2 DUP2 MSTORE PUSH1 0x20 ADD DUP3 DUP1 SLOAD PUSH2 0x5E9 SWAP1 PUSH2 0x2F4F JUMP JUMPDEST DUP1 ISZERO PUSH2 0x634 JUMPI DUP1 PUSH1 0x1F LT PUSH2 0x60B JUMPI PUSH2 0x100 DUP1 DUP4 SLOAD DIV MUL DUP4 MSTORE SWAP2 PUSH1 0x20 ADD SWAP2 PUSH2 0x634 JUMP JUMPDEST DUP3 ADD SWAP2 SWAP1 PUSH0 MSTORE PUSH1 0x20 PUSH0 KECCAK256 SWAP1 JUMPDEST DUP2 SLOAD DUP2 MSTORE SWAP1 PUSH1 0x1 ADD SWAP1 PUSH1 0x20 ADD DUP1 DUP4 GT PUSH2 0x617 JUMPI DUP3 SWAP1 SUB PUSH1 0x1F AND DUP3 ADD SWAP2 JUMPDEST POP POP POP POP POP SWAP1 DUP1 PUSH1 0x4 ADD DUP1 SLOAD PUSH2 0x649 SWAP1 PUSH2 0x2F4F JUMP JUMPDEST DUP1 PUSH1 0x1F ADD PUSH1 0x20 DUP1 SWAP2 DIV MUL PUSH1 0x20 ADD PUSH1 0x40 MLOAD SWAP1 DUP2 ADD PUSH1 0x40 MSTORE DUP1 SWAP3 SWAP2 SWAP1 DUP2 DUP2 MSTORE PUSH1 0x20 ADD DUP3 DUP1 SLOAD PUSH2 0x675 SWAP1 PUSH2 0x2F4F JUMP JUMPDEST DUP1 ISZERO PUSH2 0x6C0 JUMPI DUP1 PUSH1 0x1F LT PUSH2 0x697 JUMPI PUSH2 0x100 DUP1 DUP4 SLOAD DIV MUL DUP4 MSTORE SWAP2 PUSH1 0x20 ADD SWAP2 PUSH2 0x6C0 JUMP JUMPDEST DUP3 ADD SWAP2 SWAP1 PUSH0 MSTORE PUSH1 0x20 PUSH0 KECCAK256 SWAP1 JUMPDEST DUP2 SLOAD DUP2 MSTORE SWAP1 PUSH1 0x1 ADD SWAP1 PUSH1 0x20 ADD DUP1 DUP4 GT PUSH2 0x6A3 JUMPI DUP3 SWAP1 SUB PUSH1 0x1F AND DUP3 ADD SWAP2 JUMPDEST POP POP POP POP POP SWAP1 POP DUP6 JUMP JUMPDEST PUSH1 0x1E DUP2 PUSH1 0x3 DUP2 LT PUSH2 0x6D9 JUMPI PUSH0 DUP1 REVERT JUMPDEST PUSH1 0x5 MUL ADD PUSH0 SWAP2 POP SWAP1 POP DUP1 PUSH0 ADD SLOAD SWAP1 DUP1 PUSH1 0x1 ADD DUP1 SLOAD PUSH2 0x6F6 SWAP1 PUSH2 0x2F4F JUMP JUMPDEST DUP1 PUSH1 0x1F ADD PUSH1 0x20 DUP1 SWAP2 DIV MUL PUSH1 0x20 ADD PUSH1 0x40 MLOAD SWAP1 DUP2 ADD PUSH1 0x40 MSTORE DUP1 SWAP3 SWAP2 SWAP1 DUP2 DUP2 MSTORE PUSH1 0x20 ADD DUP3 DUP1 SLOAD PUSH2 0x722 SWAP1 PUSH2 0x2F4F JUMP JUMPDEST DUP1 ISZERO PUSH2 0x76D JUMPI DUP1 PUSH1 0x1F LT PUSH2 0x744 JUMPI PUSH2 0x100 DUP1 DUP4 SLOAD DIV MUL DUP4 MSTORE SWAP2 PUSH1 0x20 ADD SWAP2 PUSH2 0x76D JUMP JUMPDEST DUP3 ADD SWAP2 SWAP1 PUSH0 MSTORE PUSH1 0x20 PUSH0 KECCAK256 SWAP1 JUMPDEST DUP2 SLOAD DUP2 MSTORE SWAP1 PUSH1 0x1 ADD SWAP1 PUSH1 0x20 ADD DUP1 DUP4 GT PUSH2 0x750 JUMPI DUP3 SWAP1 SUB PUSH1 0x1F AND DUP3 ADD SWAP2 JUMPDEST POP POP POP POP POP SWAP1 DUP1 PUSH1 0x2 ADD DUP1 SLOAD PUSH2 0x782 SWAP1 PUSH2 0x2F4F JUMP JUMPDEST DUP1 PUSH1 0x1F ADD PUSH1 0x20 DUP1 SWAP2 DIV MUL PUSH1 0x20 ADD PUSH1 0x40 MLOAD SWAP1 DUP2 ADD PUSH1 0x40 MSTORE DUP1 SWAP3 SWAP2 SWAP1 DUP2 DUP2 MSTORE PUSH1 0x20 ADD DUP3 DUP1 SLOAD PUSH2 0x7AE SWAP1 PUSH2 0x2F4F JUMP JUMPDEST DUP1 ISZERO PUSH2 0x7F9 JUMPI DUP1 PUSH1 0x1F LT PUSH2 0x7D0 JUMPI PUSH2 0x100 DUP1 DUP4 SLOAD DIV MUL DUP4 MSTORE SWAP2 PUSH1 0x20 ADD SWAP2 PUSH2 0x7F9 JUMP JUMPDEST DUP3 ADD SWAP2 SWAP1 PUSH0 MSTORE PUSH1 0x20 PUSH0 KECCAK256 SWAP1 JUMPDEST DUP2 SLOAD DUP2 MSTORE SWAP1 PUSH1 0x1 ADD SWAP1 PUSH1 0x20 ADD DUP1 DUP4 GT PUSH2 0x7DC JUMPI DUP3 SWAP1 SUB PUSH1 0x1F AND DUP3 ADD SWAP2 JUMPDEST POP POP POP POP POP SWAP1 DUP1 PUSH1 0x3 ADD DUP1 SLOAD PUSH2 0x80E SWAP1 PUSH2 0x2F4F JUMP JUMPDEST DUP1 PUSH1 0x1F ADD PUSH1 0x20 DUP1 SWAP2 DIV MUL PUSH1 0x20 ADD PUSH1 0x40 MLOAD SWAP1 DUP2 ADD PUSH1 0x40 MSTORE DUP1 SWAP3 SWAP2 SWAP1 DUP2 DUP2 MSTORE PUSH1 0x20 ADD DUP3 DUP1 SLOAD PUSH2 0x83A SWAP1 PUSH2 0x2F4F JUMP JUMPDEST DUP1 ISZERO PUSH2 0x885 JUMPI DUP1 PUSH1 0x1F LT PUSH2 0x85C JUMPI PUSH2 0x100 DUP1 DUP4 SLOAD DIV MUL DUP4 MSTORE SWAP2 PUSH1 0x20 ADD SWAP2 PUSH2 0x885 JUMP JUMPDEST DUP3 ADD SWAP2 SWAP1 PUSH0 MSTORE PUSH1 0x20 PUSH0 KECCAK256 SWAP1 JUMPDEST DUP2 SLOAD DUP2 MSTORE SWAP1 PUSH1 0x1 ADD SWAP1 PUSH1 0x20 ADD DUP1 DUP4 GT PUSH2 0x868 JUMPI DUP3 SWAP1 SUB PUSH1 0x1F AND DUP3 ADD SWAP2 JUMPDEST POP POP POP POP POP SWAP1 DUP1 PUSH1 0x4 ADD DUP1 SLOAD PUSH2 0x89A SWAP1 PUSH2 0x2F4F JUMP JUMPDEST DUP1 PUSH1 0x1F ADD PUSH1 0x20 DUP1 SWAP2 DIV MUL PUSH1 0x20 ADD PUSH1 0x40 MLOAD SWAP1 DUP2 ADD PUSH1 0x40 MSTORE DUP1 SWAP3 SWAP2 SWAP1 DUP2 DUP2 MSTORE PUSH1 0x20 ADD DUP3 DUP1 SLOAD PUSH2 0x8C6 SWAP1 PUSH2 0x2F4F JUMP JUMPDEST DUP1 ISZERO PUSH2 0x911 JUMPI DUP1 PUSH1 0x1F LT PUSH2 0x8E8 JUMPI PUSH2 0x100 DUP1 DUP4 SLOAD DIV MUL DUP4 MSTORE SWAP2 PUSH1 0x20 ADD SWAP2 PUSH2 0x911 JUMP JUMPDEST DUP3 ADD SWAP2 SWAP1 PUSH0 MSTORE PUSH1 0x20 PUSH0 KECCAK256 SWAP1 JUMPDEST DUP2 SLOAD DUP2 MSTORE SWAP1 PUSH1 0x1 ADD SWAP1 PUSH1 0x20 ADD DUP1 DUP4 GT PUSH2 0x8F4 JUMPI DUP3 SWAP1 SUB PUSH1 0x1F AND DUP3 ADD SWAP2 JUMPDEST POP POP POP POP POP SWAP1 POP DUP6 JUMP JUMPDEST PUSH2 0x923 PUSH2 0x2565 JUMP JUMPDEST PUSH0 PUSH1 0x3 DUP1 PUSH1 0x20 MUL PUSH1 0x40 MLOAD SWAP1 DUP2 ADD PUSH1 0x40 MSTORE DUP1 SWAP3 SWAP2 SWAP1 PUSH0 SWAP1 JUMPDEST DUP3 DUP3 LT ISZERO PUSH2 0xBAB JUMPI DUP4 DUP3 PUSH1 0x5 MUL ADD PUSH1 0x40 MLOAD DUP1 PUSH1 0xA0 ADD PUSH1 0x40 MSTORE SWAP1 DUP2 PUSH0 DUP3 ADD SLOAD DUP2 MSTORE PUSH1 0x20 ADD PUSH1 0x1 DUP3 ADD DUP1 SLOAD PUSH2 0x96C SWAP1 PUSH2 0x2F4F JUMP JUMPDEST DUP1 PUSH1 0x1F ADD PUSH1 0x20 DUP1 SWAP2 DIV MUL PUSH1 0x20 ADD PUSH1 0x40 MLOAD SWAP1 DUP2 ADD PUSH1 0x40 MSTORE DUP1 SWAP3 SWAP2 SWAP1 DUP2 DUP2 MSTORE PUSH1 0x20 ADD DUP3 DUP1 SLOAD PUSH2 0x998 SWAP1 PUSH2 0x2F4F JUMP JUMPDEST DUP1 ISZERO PUSH2 0x9E3 JUMPI DUP1 PUSH1 0x1F LT PUSH2 0x9BA JUMPI PUSH2 0x100 DUP1 DUP4 SLOAD DIV MUL DUP4 MSTORE SWAP2 PUSH1 0x20 ADD SWAP2 PUSH2 0x9E3 JUMP JUMPDEST DUP3 ADD SWAP2 SWAP1 PUSH0 MSTORE PUSH1 0x20 PUSH0 KECCAK256 SWAP1 JUMPDEST DUP2 SLOAD DUP2 MSTORE SWAP1 PUSH1 0x1 ADD SWAP1 PUSH1 0x20 ADD DUP1 DUP4 GT PUSH2 0x9C6 JUMPI DUP3 SWAP1 SUB PUSH1 0x1F AND DUP3 ADD SWAP2 JUMPDEST POP POP POP POP POP DUP2 MSTORE PUSH1 0x20 ADD PUSH1 0x2 DUP3 ADD DUP1 SLOAD PUSH2 0x9FC SWAP1 PUSH2 0x2F4F JUMP JUMPDEST DUP1 PUSH1 0x1F ADD PUSH1 0x20 DUP1 SWAP2 DIV MUL PUSH1 0x20 ADD PUSH1 0x40 MLOAD SWAP1 DUP2 ADD PUSH1 0x40 MSTORE DUP1 SWAP3 SWAP2 SWAP1 DUP2 DUP2 MSTORE PUSH1 0x20 ADD DUP3 DUP1 SLOAD PUSH2 0xA28 SWAP1 PUSH2 0x2F4F JUMP JUMPDEST DUP1 ISZERO PUSH2 0xA73 JUMPI DUP1 PUSH1 0x1F LT PUSH2 0xA4A JUMPI PUSH2 0x100 DUP1 DUP4 SLOAD DIV MUL DUP4 MSTORE SWAP2 PUSH1 0x20 ADD SWAP2 PUSH2 0xA73 JUMP JUMPDEST DUP3 ADD SWAP2 SWAP1 PUSH0 MSTORE PUSH1 0x20 PUSH0 KECCAK256 SWAP1 JUMPDEST DUP2 SLOAD DUP2 MSTORE SWAP1 PUSH1 0x1 ADD SWAP1 PUSH1 0x20 ADD DUP1 DUP4 GT PUSH2 0xA56 JUMPI DUP3 SWAP1 SUB PUSH1 0x1F AND DUP3 ADD SWAP2 JUMPDEST POP POP POP POP POP DUP2 MSTORE PUSH1 0x20 ADD PUSH1 0x3 DUP3 ADD DUP1 SLOAD PUSH2 0xA8C SWAP1 PUSH2 0x2F4F JUMP JUMPDEST DUP1 PUSH1 0x1F ADD PUSH1 0x20 DUP1 SWAP2 DIV MUL PUSH1 0x20 ADD PUSH1 0x40 MLOAD SWAP1 DUP2 ADD PUSH1 0x40 MSTORE DUP1 SWAP3 SWAP2 SWAP1 DUP2 DUP2 MSTORE PUSH1 0x20 ADD DUP3 DUP1 SLOAD PUSH2 0xAB8 SWAP1 PUSH2 0x2F4F JUMP JUMPDEST DUP1 ISZERO PUSH2 0xB03 JUMPI DUP1 PUSH1 0x1F LT PUSH2 0xADA JUMPI PUSH2 0x100 DUP1 DUP4 SLOAD DIV MUL DUP4 MSTORE SWAP2 PUSH1 0x20 ADD SWAP2 PUSH2 0xB03 JUMP JUMPDEST DUP3 ADD SWAP2 SWAP1 PUSH0 MSTORE PUSH1 0x20 PUSH0 KECCAK256 SWAP1 JUMPDEST DUP2 SLOAD DUP2 MSTORE SWAP1 PUSH1 0x1 ADD SWAP1 PUSH1 0x20 ADD DUP1 DUP4 GT PUSH2 0xAE6 JUMPI DUP3 SWAP1 SUB PUSH1 0x1F AND DUP3 ADD SWAP2 JUMPDEST POP POP POP POP POP DUP2 MSTORE PUSH1 0x20 ADD PUSH1 0x4 DUP3 ADD DUP1 SLOAD PUSH2 0xB1C SWAP1 PUSH2 0x2F4F JUMP JUMPDEST DUP1 PUSH1 0x1F ADD PUSH1 0x20 DUP1 SWAP2 DIV MUL PUSH1 0x20 ADD PUSH1 0x40 MLOAD SWAP1 DUP2 ADD PUSH1 0x40 MSTORE DUP1 SWAP3 SWAP2 SWAP1 DUP2 DUP2 MSTORE PUSH1 0x20 ADD DUP3 DUP1 SLOAD PUSH2 0xB48 SWAP1 PUSH2 0x2F4F JUMP JUMPDEST DUP1 ISZERO PUSH2 0xB93 JUMPI DUP1 PUSH1 0x1F LT PUSH2 0xB6A JUMPI PUSH2 0x100 DUP1 DUP4 SLOAD DIV MUL DUP4 MSTORE SWAP2 PUSH1 0x20 ADD SWAP2 PUSH2 0xB93 JUMP JUMPDEST DUP3 ADD SWAP2 SWAP1 PUSH0 MSTORE PUSH1 0x20 PUSH0 KECCAK256 SWAP1 JUMPDEST DUP2 SLOAD DUP2 MSTORE SWAP1 PUSH1 0x1 ADD SWAP1 PUSH1 0x20 ADD DUP1 DUP4 GT PUSH2 0xB76 JUMPI DUP3 SWAP1 SUB PUSH1 0x1F AND DUP3 ADD SWAP2 JUMPDEST POP POP POP POP POP DUP2 MSTORE POP POP DUP2 MSTORE PUSH1 0x20 ADD SWAP1 PUSH1 0x1 ADD SWAP1 PUSH2 0x93A JUMP JUMPDEST POP POP POP POP SWAP1 POP SWAP1 JUMP JUMPDEST PUSH2 0xBBC PUSH2 0x2592 JUMP JUMPDEST PUSH1 0x1E PUSH1 0x3 DUP1 PUSH1 0x20 MUL PUSH1 0x40 MLOAD SWAP1 DUP2 ADD PUSH1 0x40 MSTORE DUP1 SWAP3 SWAP2 SWAP1 PUSH0 SWAP1 JUMPDEST DUP3 DUP3 LT ISZERO PUSH2 0xE45 JUMPI DUP4 DUP3 PUSH1 0x5 MUL ADD PUSH1 0x40 MLOAD DUP1 PUSH1 0xA0 ADD PUSH1 0x40 MSTORE SWAP1 DUP2 PUSH0 DUP3 ADD SLOAD DUP2 MSTORE PUSH1 0x20 ADD PUSH1 0x1 DUP3 ADD DUP1 SLOAD PUSH2 0xC06 SWAP1 PUSH2 0x2F4F JUMP JUMPDEST DUP1 PUSH1 0x1F ADD PUSH1 0x20 DUP1 SWAP2 DIV MUL PUSH1 0x20 ADD PUSH1 0x40 MLOAD SWAP1 DUP2 ADD PUSH1 0x40 MSTORE DUP1 SWAP3 SWAP2 SWAP1 DUP2 DUP2 MSTORE PUSH1 0x20 ADD DUP3 DUP1 SLOAD PUSH2 0xC32 SWAP1 PUSH2 0x2F4F JUMP JUMPDEST DUP1 ISZERO PUSH2 0xC7D JUMPI DUP1 PUSH1 0x1F LT PUSH2 0xC54 JUMPI PUSH2 0x100 DUP1 DUP4 SLOAD DIV MUL DUP4 MSTORE SWAP2 PUSH1 0x20 ADD SWAP2 PUSH2 0xC7D JUMP JUMPDEST DUP3 ADD SWAP2 SWAP1 PUSH0 MSTORE PUSH1 0x20 PUSH0 KECCAK256 SWAP1 JUMPDEST DUP2 SLOAD DUP2 MSTORE SWAP1 PUSH1 0x1 ADD SWAP1 PUSH1 0x20 ADD DUP1 DUP4 GT PUSH2 0xC60 JUMPI DUP3 SWAP1 SUB PUSH1 0x1F AND DUP3 ADD SWAP2 JUMPDEST POP POP POP POP POP DUP2 MSTORE PUSH1 0x20 ADD PUSH1 0x2 DUP3 ADD DUP1 SLOAD PUSH2 0xC96 SWAP1 PUSH2 0x2F4F JUMP JUMPDEST DUP1 PUSH1 0x1F ADD PUSH1 0x20 DUP1 SWAP2 DIV MUL PUSH1 0x20 ADD PUSH1 0x40 MLOAD SWAP1 DUP2 ADD PUSH1 0x40 MSTORE DUP1 SWAP3 SWAP2 SWAP1 DUP2 DUP2 MSTORE PUSH1 0x20 ADD DUP3 DUP1 SLOAD PUSH2 0xCC2 SWAP1 PUSH2 0x2F4F JUMP JUMPDEST DUP1 ISZERO PUSH2 0xD0D JUMPI DUP1 PUSH1 0x1F LT PUSH2 0xCE4 JUMPI PUSH2 0x100 DUP1 DUP4 SLOAD DIV MUL DUP4 MSTORE SWAP2 PUSH1 0x20 ADD SWAP2 PUSH2 0xD0D JUMP JUMPDEST DUP3 ADD SWAP2 SWAP1 PUSH0 MSTORE PUSH1 0x20 PUSH0 KECCAK256 SWAP1 JUMPDEST DUP2 SLOAD DUP2 MSTORE SWAP1 PUSH1 0x1 ADD SWAP1 PUSH1 0x20 ADD DUP1 DUP4 GT PUSH2 0xCF0 JUMPI DUP3 SWAP1 SUB PUSH1 0x1F AND DUP3 ADD SWAP2 JUMPDEST POP POP POP POP POP DUP2 MSTORE PUSH1 0x20 ADD PUSH1 0x3 DUP3 ADD DUP1 SLOAD PUSH2 0xD26 SWAP1 PUSH2 0x2F4F JUMP JUMPDEST DUP1 PUSH1 0x1F ADD PUSH1 0x20 DUP1 SWAP2 DIV MUL PUSH1 0x20 ADD PUSH1 0x40 MLOAD SWAP1 DUP2 ADD PUSH1 0x40 MSTORE DUP1 SWAP3 SWAP2 SWAP1 DUP2 DUP2 MSTORE PUSH1 0x20 ADD DUP3 DUP1 SLOAD PUSH2 0xD52 SWAP1 PUSH2 0x2F4F JUMP JUMPDEST DUP1 ISZERO PUSH2 0xD9D JUMPI DUP1 PUSH1 0x1F LT PUSH2 0xD74 JUMPI PUSH2 0x100 DUP1 DUP4 SLOAD DIV MUL DUP4 MSTORE SWAP2 PUSH1 0x20 ADD SWAP2 PUSH2 0xD9D JUMP JUMPDEST DUP3 ADD SWAP2 SWAP1 PUSH0 MSTORE PUSH1 0x20 PUSH0 KECCAK256 SWAP1 JUMPDEST DUP2 SLOAD DUP2 MSTORE SWAP1 PUSH1 0x1 ADD SWAP1 PUSH1 0x20 ADD DUP1 DUP4 GT PUSH2 0xD80 JUMPI DUP3 SWAP1 SUB PUSH1 0x1F AND DUP3 ADD SWAP2 JUMPDEST POP POP POP POP POP DUP2 MSTORE PUSH1 0x20 ADD PUSH1 0x4 DUP3 ADD DUP1 SLOAD PUSH2 0xDB6 SWAP1 PUSH2 0x2F4F JUMP JUMPDEST DUP1 PUSH1 0x1F ADD PUSH1 0x20 DUP1 SWAP2 DIV MUL PUSH1 0x20 ADD PUSH1 0x40 MLOAD SWAP1 DUP2 ADD PUSH1 0x40 MSTORE DUP1 SWAP3 SWAP2 SWAP1 DUP2 DUP2 MSTORE PUSH1 0x20 ADD DUP3 DUP1 SLOAD PUSH2 0xDE2 SWAP1 PUSH2 0x2F4F JUMP JUMPDEST DUP1 ISZERO PUSH2 0xE2D JUMPI DUP1 PUSH1 0x1F LT PUSH2 0xE04 JUMPI PUSH2 0x100 DUP1 DUP4 SLOAD DIV MUL DUP4 MSTORE SWAP2 PUSH1 0x20 ADD SWAP2 PUSH2 0xE2D JUMP JUMPDEST DUP3 ADD SWAP2 SWAP1 PUSH0 MSTORE PUSH1 0x20 PUSH0 KECCAK256 SWAP1 JUMPDEST DUP2 SLOAD DUP2 MSTORE SWAP1 PUSH1 0x1 ADD SWAP1 PUSH1 0x20 ADD DUP1 DUP4 GT PUSH2 0xE10 JUMPI DUP3 SWAP1 SUB PUSH1 0x1F AND DUP3 ADD SWAP2 JUMPDEST POP POP POP POP POP DUP2 MSTORE POP POP DUP2 MSTORE PUSH1 0x20 ADD SWAP1 PUSH1 0x1 ADD SWAP1 PUSH2 0xBD4 JUMP JUMPDEST POP POP POP POP SWAP1 POP SWAP1 JUMP JUMPDEST PUSH1 0x33 PUSH0 SWAP1 SLOAD SWAP1 PUSH2 0x100 EXP SWAP1 DIV PUSH20 0xFFFFFFFFFFFFFFFFFFFFFFFFFFFFFFFFFFFFFFFF AND DUP2 JUMP JUMPDEST CALLER PUSH20 0xFFFFFFFFFFFFFFFFFFFFFFFFFFFFFFFFFFFFFFFF AND PUSH1 0x33 PUSH0 SWAP1 SLOAD SWAP1 PUSH2 0x100 EXP SWAP1 DIV PUSH20 0xFFFFFFFFFFFFFFFFFFFFFFFFFFFFFFFFFFFFFFFF AND PUSH20 0xFFFFFFFFFFFFFFFFFFFFFFFFFFFFFFFFFFFFFFFF AND EQ PUSH2 0xF02 JUMPI PUSH1 0x40 MLOAD PUSH32 0x8C379A000000000000000000000000000000000000000000000000000000000 DUP2 MSTORE PUSH1 0x4 ADD PUSH2 0xEF9 SWAP1 PUSH2 0x2FC9 JUMP JUMPDEST PUSH1 0x40 MLOAD DUP1 SWAP2 SUB SWAP1 REVERT JUMPDEST DUP2 DUP2 PUSH1 0x2D SWAP2 DUP3 PUSH2 0xF13 SWAP3 SWAP2 SWAP1 PUSH2 0x31BE JUMP JUMPDEST POP POP POP JUMP JUMPDEST CALLER PUSH20 0xFFFFFFFFFFFFFFFFFFFFFFFFFFFFFFFFFFFFFFFF AND PUSH1 0x33 PUSH0 SWAP1 SLOAD SWAP1 PUSH2 0x100 EXP SWAP1 DIV PUSH20 0xFFFFFFFFFFFFFFFFFFFFFFFFFFFFFFFFFFFFFFFF AND PUSH20 0xFFFFFFFFFFFFFFFFFFFFFFFFFFFFFFFFFFFFFFFF AND EQ PUSH2 0xFA7 JUMPI PUSH1 0x40 MLOAD PUSH32 0x8C379A000000000000000000000000000000000000000000000000000000000 DUP2 MSTORE PUSH1 0x4 ADD PUSH2 0xF9E SWAP1 PUSH2 0x2FC9 JUMP JUMPDEST PUSH1 0x40 MLOAD DUP1 SWAP2 SUB SWAP1 REVERT JUMPDEST PUSH0 DUP2 LT ISZERO DUP1 ISZERO PUSH2 0xFB7 JUMPI POP PUSH1 0x3 DUP2 LT JUMPDEST PUSH2 0xFF6 JUMPI PUSH1 0x40 MLOAD PUSH32 0x8C379A000000000000000000000000000000000000000000000000000000000 DUP2 MSTORE PUSH1 0x4 ADD PUSH2 0xFED SWAP1 PUSH2 0x32D5 JUMP JUMPDEST PUSH1 0x40 MLOAD DUP1 SWAP2 SUB SWAP1 REVERT JUMPDEST PUSH1 0x40 MLOAD DUP1 PUSH1 0xA0 ADD PUSH1 0x40 MSTORE DUP1 DUP3 DUP2 MSTORE PUSH1 0x20 ADD DUP11 DUP11 DUP1 DUP1 PUSH1 0x1F ADD PUSH1 0x20 DUP1 SWAP2 DIV MUL PUSH1 0x20 ADD PUSH1 0x40 MLOAD SWAP1 DUP2 ADD PUSH1 0x40 MSTORE DUP1 SWAP4 SWAP3 SWAP2 SWAP1 DUP2 DUP2 MSTORE PUSH1 0x20 ADD DUP4 DUP4 DUP1 DUP3 DUP5 CALLDATACOPY PUSH0 DUP2 DUP5 ADD MSTORE PUSH1 0x1F NOT PUSH1 0x1F DUP3 ADD AND SWAP1 POP DUP1 DUP4 ADD SWAP3 POP POP POP POP POP POP POP DUP2 MSTORE PUSH1 0x20 ADD DUP9 DUP9 DUP1 DUP1 PUSH1 0x1F ADD PUSH1 0x20 DUP1 SWAP2 DIV MUL PUSH1 0x20 ADD PUSH1 0x40 MLOAD SWAP1 DUP2 ADD PUSH1 0x40 MSTORE DUP1 SWAP4 SWAP3 SWAP2 SWAP1 DUP2 DUP2 MSTORE PUSH1 0x20 ADD DUP4 DUP4 DUP1 DUP3 DUP5 CALLDATACOPY PUSH0 DUP2 DUP5 ADD MSTORE PUSH1 0x1F NOT PUSH1 0x1F DUP3 ADD AND SWAP1 POP DUP1 DUP4 ADD SWAP3 POP POP POP POP POP POP POP DUP2 MSTORE PUSH1 0x20 ADD DUP7 DUP7 DUP1 DUP1 PUSH1 0x1F ADD PUSH1 0x20 DUP1 SWAP2 DIV MUL PUSH1 0x20 ADD PUSH1 0x40 MLOAD SWAP1 DUP2 ADD PUSH1 0x40 MSTORE DUP1 SWAP4 SWAP3 SWAP2 SWAP1 DUP2 DUP2 MSTORE PUSH1 0x20 ADD DUP4 DUP4 DUP1 DUP3 DUP5 CALLDATACOPY PUSH0 DUP2 DUP5 ADD MSTORE PUSH1 0x1F NOT PUSH1 0x1F DUP3 ADD AND SWAP1 POP DUP1 DUP4 ADD SWAP3 POP POP POP POP POP POP POP DUP2 MSTORE PUSH1 0x20 ADD DUP5 DUP5 DUP1 DUP1 PUSH1 0x1F ADD PUSH1 0x20 DUP1 SWAP2 DIV MUL PUSH1 0x20 ADD PUSH1 0x40 MLOAD SWAP1 DUP2 ADD PUSH1 0x40 MSTORE DUP1 SWAP4 SWAP3 SWAP2 SWAP1 DUP2 DUP2 MSTORE PUSH1 0x20 ADD DUP4 DUP4 DUP1 DUP3 DUP5 CALLDATACOPY PUSH0 DUP2 DUP5 ADD MSTORE PUSH1 0x1F NOT PUSH1 0x1F DUP3 ADD AND SWAP1 POP DUP1 DUP4 ADD SWAP3 POP POP POP POP POP POP POP DUP2 MSTORE POP PUSH1 0xF DUP3 PUSH1 0x3 DUP2 LT PUSH2 0x113D JUMPI PUSH2 0x113C PUSH2 0x32F3 JUMP JUMPDEST JUMPDEST PUSH1 0x5 MUL ADD PUSH0 DUP3 ADD MLOAD DUP2 PUSH0 ADD SSTORE PUSH1 0x20 DUP3 ADD MLOAD DUP2 PUSH1 0x1 ADD SWAP1 DUP2 PUSH2 0x115E SWAP2 SWAP1 PUSH2 0x3320 JUMP JUMPDEST POP PUSH1 0x40 DUP3 ADD MLOAD DUP2 PUSH1 0x2 ADD SWAP1 DUP2 PUSH2 0x1174 SWAP2 SWAP1 PUSH2 0x3320 JUMP JUMPDEST POP PUSH1 0x60 DUP3 ADD MLOAD DUP2 PUSH1 0x3 ADD SWAP1 DUP2 PUSH2 0x118A SWAP2 SWAP1 PUSH2 0x3320 JUMP JUMPDEST POP PUSH1 0x80 DUP3 ADD MLOAD DUP2 PUSH1 0x4 ADD SWAP1 DUP2 PUSH2 0x11A0 SWAP2 SWAP1 PUSH2 0x3320 JUMP JUMPDEST POP SWAP1 POP POP POP POP POP POP POP POP POP POP POP JUMP JUMPDEST PUSH1 0x2F DUP1 SLOAD PUSH2 0x11BC SWAP1 PUSH2 0x2F4F JUMP JUMPDEST DUP1 PUSH1 0x1F ADD PUSH1 0x20 DUP1 SWAP2 DIV MUL PUSH1 0x20 ADD PUSH1 0x40 MLOAD SWAP1 DUP2 ADD PUSH1 0x40 MSTORE DUP1 SWAP3 SWAP2 SWAP1 DUP2 DUP2 MSTORE PUSH1 0x20 ADD DUP3 DUP1 SLOAD PUSH2 0x11E8 SWAP1 PUSH2 0x2F4F JUMP JUMPDEST DUP1 ISZERO PUSH2 0x1233 JUMPI DUP1 PUSH1 0x1F LT PUSH2 0x120A JUMPI PUSH2 0x100 DUP1 DUP4 SLOAD DIV MUL DUP4 MSTORE SWAP2 PUSH1 0x20 ADD SWAP2 PUSH2 0x1233 JUMP JUMPDEST DUP3 ADD SWAP2 SWAP1 PUSH0 MSTORE PUSH1 0x20 PUSH0 KECCAK256 SWAP1 JUMPDEST DUP2 SLOAD DUP2 MSTORE SWAP1 PUSH1 0x1 ADD SWAP1 PUSH1 0x20 ADD DUP1 DUP4 GT PUSH2 0x1216 JUMPI DUP3 SWAP1 SUB PUSH1 0x1F AND DUP3 ADD SWAP2 JUMPDEST POP POP POP POP POP DUP2 JUMP JUMPDEST CALLER PUSH20 0xFFFFFFFFFFFFFFFFFFFFFFFFFFFFFFFFFFFFFFFF AND PUSH1 0x33 PUSH0 SWAP1 SLOAD SWAP1 PUSH2 0x100 EXP SWAP1 DIV PUSH20 0xFFFFFFFFFFFFFFFFFFFFFFFFFFFFFFFFFFFFFFFF AND PUSH20 0xFFFFFFFFFFFFFFFFFFFFFFFFFFFFFFFFFFFFFFFF AND EQ PUSH2 0x12CA JUMPI PUSH1 0x40 MLOAD PUSH32 0x8C379A000000000000000000000000000000000000000000000000000000000 DUP2 MSTORE PUSH1 0x4 ADD PUSH2 0x12C1 SWAP1 PUSH2 0x2FC9 JUMP JUMPDEST PUSH1 0x40 MLOAD DUP1 SWAP2 SUB SWAP1 REVERT JUMPDEST PUSH1 0x3 PUSH1 0x32 SLOAD LT PUSH2 0x130F JUMPI PUSH1 0x40 MLOAD PUSH32 0x8C379A000000000000000000000000000000000000000000000000000000000 DUP2 MSTORE PUSH1 0x4 ADD PUSH2 0x1306 SWAP1 PUSH2 0x3439 JUMP JUMPDEST PUSH1 0x40 MLOAD DUP1 SWAP2 SUB SWAP1 REVERT JUMPDEST PUSH1 0x40 MLOAD DUP1 PUSH1 0xA0 ADD PUSH1 0x40 MSTORE DUP1 PUSH1 0x32 SLOAD DUP2 MSTORE PUSH1 0x20 ADD DUP10 DUP10 DUP1 DUP1 PUSH1 0x1F ADD PUSH1 0x20 DUP1 SWAP2 DIV MUL PUSH1 0x20 ADD PUSH1 0x40 MLOAD SWAP1 DUP2 ADD PUSH1 0x40 MSTORE DUP1 SWAP4 SWAP3 SWAP2 SWAP1 DUP2 DUP2 MSTORE PUSH1 0x20 ADD DUP4 DUP4 DUP1 DUP3 DUP5 CALLDATACOPY PUSH0 DUP2 DUP5 ADD MSTORE PUSH1 0x1F NOT PUSH1 0x1F DUP3 ADD AND SWAP1 POP DUP1 DUP4 ADD SWAP3 POP POP POP POP POP POP POP DUP2 MSTORE PUSH1 0x20 ADD DUP8 DUP8 DUP1 DUP1 PUSH1 0x1F ADD PUSH1 0x20 DUP1 SWAP2 DIV MUL PUSH1 0x20 ADD PUSH1 0x40 MLOAD SWAP1 DUP2 ADD PUSH1 0x40 MSTORE DUP1 SWAP4 SWAP3 SWAP2 SWAP1 DUP2 DUP2 MSTORE PUSH1 0x20 ADD DUP4 DUP4 DUP1 DUP3 DUP5 CALLDATACOPY PUSH0 DUP2 DUP5 ADD MSTORE PUSH1 0x1F NOT PUSH1 0x1F DUP3 ADD AND SWAP1 POP DUP1 DUP4 ADD SWAP3 POP POP POP POP POP POP POP DUP2 MSTORE PUSH1 0x20 ADD DUP6 DUP6 DUP1 DUP1 PUSH1 0x1F ADD PUSH1 0x20 DUP1 SWAP2 DIV MUL PUSH1 0x20 ADD PUSH1 0x40 MLOAD SWAP1 DUP2 ADD PUSH1 0x40 MSTORE DUP1 SWAP4 SWAP3 SWAP2 SWAP1 DUP2 DUP2 MSTORE PUSH1 0x20 ADD DUP4 DUP4 DUP1 DUP3 DUP5 CALLDATACOPY PUSH0 DUP2 DUP5 ADD MSTORE PUSH1 0x1F NOT PUSH1 0x1F DUP3 ADD AND SWAP1 POP DUP1 DUP4 ADD SWAP3 POP POP POP POP POP POP POP DUP2 MSTORE PUSH1 0x20 ADD DUP4 DUP4 DUP1 DUP1 PUSH1 0x1F ADD PUSH1 0x20 DUP1 SWAP2 DIV MUL PUSH1 0x20 ADD PUSH1 0x40 MLOAD SWAP1 DUP2 ADD PUSH1 0x40 MSTORE DUP1 SWAP4 SWAP3 SWAP2 SWAP1 DUP2 DUP2 MSTORE PUSH1 0x20 ADD DUP4 DUP4 DUP1 DUP3 DUP5 CALLDATACOPY PUSH0 DUP2 DUP5 ADD MSTORE PUSH1 0x1F NOT PUSH1 0x1F DUP3 ADD AND SWAP1 POP DUP1 DUP4 ADD SWAP3 POP POP POP POP POP POP POP DUP2 MSTORE POP PUSH1 0x1E PUSH1 0x32 SLOAD PUSH1 0x3 DUP2 LT PUSH2 0x145A JUMPI PUSH2 0x1459 PUSH2 0x32F3 JUMP JUMPDEST JUMPDEST PUSH1 0x5 MUL ADD PUSH0 DUP3 ADD MLOAD DUP2 PUSH0 ADD SSTORE PUSH1 0x20 DUP3 ADD MLOAD DUP2 PUSH1 0x1 ADD SWAP1 DUP2 PUSH2 0x147B SWAP2 SWAP1 PUSH2 0x3320 JUMP JUMPDEST POP PUSH1 0x40 DUP3 ADD MLOAD DUP2 PUSH1 0x2 ADD SWAP1 DUP2 PUSH2 0x1491 SWAP2 SWAP1 PUSH2 0x3320 JUMP JUMPDEST POP PUSH1 0x60 DUP3 ADD MLOAD DUP2 PUSH1 0x3 ADD SWAP1 DUP2 PUSH2 0x14A7 SWAP2 SWAP1 PUSH2 0x3320 JUMP JUMPDEST POP PUSH1 0x80 DUP3 ADD MLOAD DUP2 PUSH1 0x4 ADD SWAP1 DUP2 PUSH2 0x14BD SWAP2 SWAP1 PUSH2 0x3320 JUMP JUMPDEST POP SWAP1 POP POP PUSH1 0x32 PUSH0 DUP2 SLOAD DUP1 SWAP3 SWAP2 SWAP1 PUSH2 0x14D3 SWAP1 PUSH2 0x3484 JUMP JUMPDEST SWAP2 SWAP1 POP SSTORE POP POP POP POP POP POP POP POP POP JUMP JUMPDEST PUSH1 0x3 PUSH1 0x30 SLOAD LT PUSH2 0x1527 JUMPI PUSH1 0x40 MLOAD PUSH32 0x8C379A000000000000000000000000000000000000000000000000000000000 DUP2 MSTORE PUSH1 0x4 ADD PUSH2 0x151E SWAP1 PUSH2 0x3515 JUMP JUMPDEST PUSH1 0x40 MLOAD DUP1 SWAP2 SUB SWAP1 REVERT JUMPDEST PUSH1 0x40 MLOAD DUP1 PUSH1 0xA0 ADD PUSH1 0x40 MSTORE DUP1 PUSH1 0x30 SLOAD DUP2 MSTORE PUSH1 0x20 ADD DUP10 DUP10 DUP1 DUP1 PUSH1 0x1F ADD PUSH1 0x20 DUP1 SWAP2 DIV MUL PUSH1 0x20 ADD PUSH1 0x40 MLOAD SWAP1 DUP2 ADD PUSH1 0x40 MSTORE DUP1 SWAP4 SWAP3 SWAP2 SWAP1 DUP2 DUP2 MSTORE PUSH1 0x20 ADD DUP4 DUP4 DUP1 DUP3 DUP5 CALLDATACOPY PUSH0 DUP2 DUP5 ADD MSTORE PUSH1 0x1F NOT PUSH1 0x1F DUP3 ADD AND SWAP1 POP DUP1 DUP4 ADD SWAP3 POP POP POP POP POP POP POP DUP2 MSTORE PUSH1 0x20 ADD DUP8 DUP8 DUP1 DUP1 PUSH1 0x1F ADD PUSH1 0x20 DUP1 SWAP2 DIV MUL PUSH1 0x20 ADD PUSH1 0x40 MLOAD SWAP1 DUP2 ADD PUSH1 0x40 MSTORE DUP1 SWAP4 SWAP3 SWAP2 SWAP1 DUP2 DUP2 MSTORE PUSH1 0x20 ADD DUP4 DUP4 DUP1 DUP3 DUP5 CALLDATACOPY PUSH0 DUP2 DUP5 ADD MSTORE PUSH1 0x1F NOT PUSH1 0x1F DUP3 ADD AND SWAP1 POP DUP1 DUP4 ADD SWAP3 POP POP POP POP POP POP POP DUP2 MSTORE PUSH1 0x20 ADD DUP6 DUP6 DUP1 DUP1 PUSH1 0x1F ADD PUSH1 0x20 DUP1 SWAP2 DIV MUL PUSH1 0x20 ADD PUSH1 0x40 MLOAD SWAP1 DUP2 ADD PUSH1 0x40 MSTORE DUP1 SWAP4 SWAP3 SWAP2 SWAP1 DUP2 DUP2 MSTORE PUSH1 0x20 ADD DUP4 DUP4 DUP1 DUP3 DUP5 CALLDATACOPY PUSH0 DUP2 DUP5 ADD MSTORE PUSH1 0x1F NOT PUSH1 0x1F DUP3 ADD AND SWAP1 POP DUP1 DUP4 ADD SWAP3 POP POP POP POP POP POP POP DUP2 MSTORE PUSH1 0x20 ADD DUP4 DUP4 DUP1 DUP1 PUSH1 0x1F ADD PUSH1 0x20 DUP1 SWAP2 DIV MUL PUSH1 0x20 ADD PUSH1 0x40 MLOAD SWAP1 DUP2 ADD PUSH1 0x40 MSTORE DUP1 SWAP4 SWAP3 SWAP2 SWAP1 DUP2 DUP2 MSTORE PUSH1 0x20 ADD DUP4 DUP4 DUP1 DUP3 DUP5 CALLDATACOPY PUSH0 DUP2 DUP5 ADD MSTORE PUSH1 0x1F NOT PUSH1 0x1F DUP3 ADD AND SWAP1 POP DUP1 DUP4 ADD SWAP3 POP POP POP POP POP POP POP DUP2 MSTORE POP PUSH0 PUSH1 0x30 SLOAD PUSH1 0x3 DUP2 LT PUSH2 0x1671 JUMPI PUSH2 0x1670 PUSH2 0x32F3 JUMP JUMPDEST JUMPDEST PUSH1 0x5 MUL ADD PUSH0 DUP3 ADD MLOAD DUP2 PUSH0 ADD SSTORE PUSH1 0x20 DUP3 ADD MLOAD DUP2 PUSH1 0x1 ADD SWAP1 DUP2 PUSH2 0x1692 SWAP2 SWAP1 PUSH2 0x3320 JUMP JUMPDEST POP PUSH1 0x40 DUP3 ADD MLOAD DUP2 PUSH1 0x2 ADD SWAP1 DUP2 PUSH2 0x16A8 SWAP2 SWAP1 PUSH2 0x3320 JUMP JUMPDEST POP PUSH1 0x60 DUP3 ADD MLOAD DUP2 PUSH1 0x3 ADD SWAP1 DUP2 PUSH2 0x16BE SWAP2 SWAP1 PUSH2 0x3320 JUMP JUMPDEST POP PUSH1 0x80 DUP3 ADD MLOAD DUP2 PUSH1 0x4 ADD SWAP1 DUP2 PUSH2 0x16D4 SWAP2 SWAP1 PUSH2 0x3320 JUMP JUMPDEST POP SWAP1 POP POP PUSH1 0x30 PUSH0 DUP2 SLOAD DUP1 SWAP3 SWAP2 SWAP1 PUSH2 0x16EA SWAP1 PUSH2 0x3484 JUMP JUMPDEST SWAP2 SWAP1 POP SSTORE POP POP POP POP POP POP POP POP POP JUMP JUMPDEST PUSH0 DUP2 LT ISZERO DUP1 ISZERO PUSH2 0x1709 JUMPI POP PUSH1 0x3 DUP2 LT JUMPDEST PUSH2 0x1748 JUMPI PUSH1 0x40 MLOAD PUSH32 0x8C379A000000000000000000000000000000000000000000000000000000000 DUP2 MSTORE PUSH1 0x4 ADD PUSH2 0x173F SWAP1 PUSH2 0x3515 JUMP JUMPDEST PUSH1 0x40 MLOAD DUP1 SWAP2 SUB SWAP1 REVERT JUMPDEST PUSH1 0x40 MLOAD DUP1 PUSH1 0xA0 ADD PUSH1 0x40 MSTORE DUP1 DUP3 DUP2 MSTORE PUSH1 0x20 ADD DUP11 DUP11 DUP1 DUP1 PUSH1 0x1F ADD PUSH1 0x20 DUP1 SWAP2 DIV MUL PUSH1 0x20 ADD PUSH1 0x40 MLOAD SWAP1 DUP2 ADD PUSH1 0x40 MSTORE DUP1 SWAP4 SWAP3 SWAP2 SWAP1 DUP2 DUP2 MSTORE PUSH1 0x20 ADD DUP4 DUP4 DUP1 DUP3 DUP5 CALLDATACOPY PUSH0 DUP2 DUP5 ADD MSTORE PUSH1 0x1F NOT PUSH1 0x1F DUP3 ADD AND SWAP1 POP DUP1 DUP4 ADD SWAP3 POP POP POP POP POP POP POP DUP2 MSTORE PUSH1 0x20 ADD DUP9 DUP9 DUP1 DUP1 PUSH1 0x1F ADD PUSH1 0x20 DUP1 SWAP2 DIV MUL PUSH1 0x20 ADD PUSH1 0x40 MLOAD SWAP1 DUP2 ADD PUSH1 0x40 MSTORE DUP1 SWAP4 SWAP3 SWAP2 SWAP1 DUP2 DUP2 MSTORE PUSH1 0x20 ADD DUP4 DUP4 DUP1 DUP3 DUP5 CALLDATACOPY PUSH0 DUP2 DUP5 ADD MSTORE PUSH1 0x1F NOT PUSH1 0x1F DUP3 ADD AND SWAP1 POP DUP1 DUP4 ADD SWAP3 POP POP POP POP POP POP POP DUP2 MSTORE PUSH1 0x20 ADD DUP7 DUP7 DUP1 DUP1 PUSH1 0x1F ADD PUSH1 0x20 DUP1 SWAP2 DIV MUL PUSH1 0x20 ADD PUSH1 0x40 MLOAD SWAP1 DUP2 ADD PUSH1 0x40 MSTORE DUP1 SWAP4 SWAP3 SWAP2 SWAP1 DUP2 DUP2 MSTORE PUSH1 0x20 ADD DUP4 DUP4 DUP1 DUP3 DUP5 CALLDATACOPY PUSH0 DUP2 DUP5 ADD MSTORE PUSH1 0x1F NOT PUSH1 0x1F DUP3 ADD AND SWAP1 POP DUP1 DUP4 ADD SWAP3 POP POP POP POP POP POP POP DUP2 MSTORE PUSH1 0x20 ADD DUP5 DUP5 DUP1 DUP1 PUSH1 0x1F ADD PUSH1 0x20 DUP1 SWAP2 DIV MUL PUSH1 0x20 ADD PUSH1 0x40 MLOAD SWAP1 DUP2 ADD PUSH1 0x40 MSTORE DUP1 SWAP4 SWAP3 SWAP2 SWAP1 DUP2 DUP2 MSTORE PUSH1 0x20 ADD DUP4 DUP4 DUP1 DUP3 DUP5 CALLDATACOPY PUSH0 DUP2 DUP5 ADD MSTORE PUSH1 0x1F NOT PUSH1 0x1F DUP3 ADD AND SWAP1 POP DUP1 DUP4 ADD SWAP3 POP POP POP POP POP POP POP DUP2 MSTORE POP PUSH0 PUSH1 0x30 SLOAD PUSH1 0x3 DUP2 LT PUSH2 0x1890 JUMPI PUSH2 0x188F PUSH2 0x32F3 JUMP JUMPDEST JUMPDEST PUSH1 0x5 MUL ADD PUSH0 DUP3 ADD MLOAD DUP2 PUSH0 ADD SSTORE PUSH1 0x20 DUP3 ADD MLOAD DUP2 PUSH1 0x1 ADD SWAP1 DUP2 PUSH2 0x18B1 SWAP2 SWAP1 PUSH2 0x3320 JUMP JUMPDEST POP PUSH1 0x40 DUP3 ADD MLOAD DUP2 PUSH1 0x2 ADD SWAP1 DUP2 PUSH2 0x18C7 SWAP2 SWAP1 PUSH2 0x3320 JUMP JUMPDEST POP PUSH1 0x60 DUP3 ADD MLOAD DUP2 PUSH1 0x3 ADD SWAP1 DUP2 PUSH2 0x18DD SWAP2 SWAP1 PUSH2 0x3320 JUMP JUMPDEST POP PUSH1 0x80 DUP3 ADD MLOAD DUP2 PUSH1 0x4 ADD SWAP1 DUP2 PUSH2 0x18F3 SWAP2 SWAP1 PUSH2 0x3320 JUMP JUMPDEST POP SWAP1 POP POP POP POP POP POP POP POP POP POP POP JUMP JUMPDEST PUSH1 0x2E DUP1 SLOAD PUSH2 0x190F SWAP1 PUSH2 0x2F4F JUMP JUMPDEST DUP1 PUSH1 0x1F ADD PUSH1 0x20 DUP1 SWAP2 DIV MUL PUSH1 0x20 ADD PUSH1 0x40 MLOAD SWAP1 DUP2 ADD PUSH1 0x40 MSTORE DUP1 SWAP3 SWAP2 SWAP1 DUP2 DUP2 MSTORE PUSH1 0x20 ADD DUP3 DUP1 SLOAD PUSH2 0x193B SWAP1 PUSH2 0x2F4F JUMP JUMPDEST DUP1 ISZERO PUSH2 0x1986 JUMPI DUP1 PUSH1 0x1F LT PUSH2 0x195D JUMPI PUSH2 0x100 DUP1 DUP4 SLOAD DIV MUL DUP4 MSTORE SWAP2 PUSH1 0x20 ADD SWAP2 PUSH2 0x1986 JUMP JUMPDEST DUP3 ADD SWAP2 SWAP1 PUSH0 MSTORE PUSH1 0x20 PUSH0 KECCAK256 SWAP1 JUMPDEST DUP2 SLOAD DUP2 MSTORE SWAP1 PUSH1 0x1 ADD SWAP1 PUSH1 0x20 ADD DUP1 DUP4 GT PUSH2 0x1969 JUMPI DUP3 SWAP1 SUB PUSH1 0x1F AND DUP3 ADD SWAP2 JUMPDEST POP POP POP POP POP DUP2 JUMP JUMPDEST PUSH1 0xF DUP2 PUSH1 0x3 DUP2 LT PUSH2 0x199D JUMPI PUSH0 DUP1 REVERT JUMPDEST PUSH1 0x5 MUL ADD PUSH0 SWAP2 POP SWAP1 POP DUP1 PUSH0 ADD SLOAD SWAP1 DUP1 PUSH1 0x1 ADD DUP1 SLOAD PUSH2 0x19BA SWAP1 PUSH2 0x2F4F JUMP JUMPDEST DUP1 PUSH1 0x1F ADD PUSH1 0x20 DUP1 SWAP2 DIV MUL PUSH1 0x20 ADD PUSH1 0x40 MLOAD SWAP1 DUP2 ADD PUSH1 0x40 MSTORE DUP1 SWAP3 SWAP2 SWAP1 DUP2 DUP2 MSTORE PUSH1 0x20 ADD DUP3 DUP1 SLOAD PUSH2 0x19E6 SWAP1 PUSH2 0x2F4F JUMP JUMPDEST DUP1 ISZERO PUSH2 0x1A31 JUMPI DUP1 PUSH1 0x1F LT PUSH2 0x1A08 JUMPI PUSH2 0x100 DUP1 DUP4 SLOAD DIV MUL DUP4 MSTORE SWAP2 PUSH1 0x20 ADD SWAP2 PUSH2 0x1A31 JUMP JUMPDEST DUP3 ADD SWAP2 SWAP1 PUSH0 MSTORE PUSH1 0x20 PUSH0 KECCAK256 SWAP1 JUMPDEST DUP2 SLOAD DUP2 MSTORE SWAP1 PUSH1 0x1 ADD SWAP1 PUSH1 0x20 ADD DUP1 DUP4 GT PUSH2 0x1A14 JUMPI DUP3 SWAP1 SUB PUSH1 0x1F AND DUP3 ADD SWAP2 JUMPDEST POP POP POP POP POP SWAP1 DUP1 PUSH1 0x2 ADD DUP1 SLOAD PUSH2 0x1A46 SWAP1 PUSH2 0x2F4F JUMP JUMPDEST DUP1 PUSH1 0x1F ADD PUSH1 0x20 DUP1 SWAP2 DIV MUL PUSH1 0x20 ADD PUSH1 0x40 MLOAD SWAP1 DUP2 ADD PUSH1 0x40 MSTORE DUP1 SWAP3 SWAP2 SWAP1 DUP2 DUP2 MSTORE PUSH1 0x20 ADD DUP3 DUP1 SLOAD PUSH2 0x1A72 SWAP1 PUSH2 0x2F4F JUMP JUMPDEST DUP1 ISZERO PUSH2 0x1ABD JUMPI DUP1 PUSH1 0x1F LT PUSH2 0x1A94 JUMPI PUSH2 0x100 DUP1 DUP4 SLOAD DIV MUL DUP4 MSTORE SWAP2 PUSH1 0x20 ADD SWAP2 PUSH2 0x1ABD JUMP JUMPDEST DUP3 ADD SWAP2 SWAP1 PUSH0 MSTORE PUSH1 0x20 PUSH0 KECCAK256 SWAP1 JUMPDEST DUP2 SLOAD DUP2 MSTORE SWAP1 PUSH1 0x1 ADD SWAP1 PUSH1 0x20 ADD DUP1 DUP4 GT PUSH2 0x1AA0 JUMPI DUP3 SWAP1 SUB PUSH1 0x1F AND DUP3 ADD SWAP2 JUMPDEST POP POP POP POP POP SWAP1 DUP1 PUSH1 0x3 ADD DUP1 SLOAD PUSH2 0x1AD2 SWAP1 PUSH2 0x2F4F JUMP JUMPDEST DUP1 PUSH1 0x1F ADD PUSH1 0x20 DUP1 SWAP2 DIV MUL PUSH1 0x20 ADD PUSH1 0x40 MLOAD SWAP1 DUP2 ADD PUSH1 0x40 MSTORE DUP1 SWAP3 SWAP2 SWAP1 DUP2 DUP2 MSTORE PUSH1 0x20 ADD DUP3 DUP1 SLOAD PUSH2 0x1AFE SWAP1 PUSH2 0x2F4F JUMP JUMPDEST DUP1 ISZERO PUSH2 0x1B49 JUMPI DUP1 PUSH1 0x1F LT PUSH2 0x1B20 JUMPI PUSH2 0x100 DUP1 DUP4 SLOAD DIV MUL DUP4 MSTORE SWAP2 PUSH1 0x20 ADD SWAP2 PUSH2 0x1B49 JUMP JUMPDEST DUP3 ADD SWAP2 SWAP1 PUSH0 MSTORE PUSH1 0x20 PUSH0 KECCAK256 SWAP1 JUMPDEST DUP2 SLOAD DUP2 MSTORE SWAP1 PUSH1 0x1 ADD SWAP1 PUSH1 0x20 ADD DUP1 DUP4 GT PUSH2 0x1B2C JUMPI DUP3 SWAP1 SUB PUSH1 0x1F AND DUP3 ADD SWAP2 JUMPDEST POP POP POP POP POP SWAP1 DUP1 PUSH1 0x4 ADD DUP1 SLOAD PUSH2 0x1B5E SWAP1 PUSH2 0x2F4F JUMP JUMPDEST DUP1 PUSH1 0x1F ADD PUSH1 0x20 DUP1 SWAP2 DIV MUL PUSH1 0x20 ADD PUSH1 0x40 MLOAD SWAP1 DUP2 ADD PUSH1 0x40 MSTORE DUP1 SWAP3 SWAP2 SWAP1 DUP2 DUP2 MSTORE PUSH1 0x20 ADD DUP3 DUP1 SLOAD PUSH2 0x1B8A SWAP1 PUSH2 0x2F4F JUMP JUMPDEST DUP1 ISZERO PUSH2 0x1BD5 JUMPI DUP1 PUSH1 0x1F LT PUSH2 0x1BAC JUMPI PUSH2 0x100 DUP1 DUP4 SLOAD DIV MUL DUP4 MSTORE SWAP2 PUSH1 0x20 ADD SWAP2 PUSH2 0x1BD5 JUMP JUMPDEST DUP3 ADD SWAP2 SWAP1 PUSH0 MSTORE PUSH1 0x20 PUSH0 KECCAK256 SWAP1 JUMPDEST DUP2 SLOAD DUP2 MSTORE SWAP1 PUSH1 0x1 ADD SWAP1 PUSH1 0x20 ADD DUP1 DUP4 GT PUSH2 0x1BB8 JUMPI DUP3 SWAP1 SUB PUSH1 0x1F AND DUP3 ADD SWAP2 JUMPDEST POP POP POP POP POP SWAP1 POP DUP6 JUMP JUMPDEST PUSH2 0x1BE7 PUSH2 0x25BF JUMP JUMPDEST PUSH1 0xF PUSH1 0x3 DUP1 PUSH1 0x20 MUL PUSH1 0x40 MLOAD SWAP1 DUP2 ADD PUSH1 0x40 MSTORE DUP1 SWAP3 SWAP2 SWAP1 PUSH0 SWAP1 JUMPDEST DUP3 DUP3 LT ISZERO PUSH2 0x1E70 JUMPI DUP4 DUP3 PUSH1 0x5 MUL ADD PUSH1 0x40 MLOAD DUP1 PUSH1 0xA0 ADD PUSH1 0x40 MSTORE SWAP1 DUP2 PUSH0 DUP3 ADD SLOAD DUP2 MSTORE PUSH1 0x20 ADD PUSH1 0x1 DUP3 ADD DUP1 SLOAD PUSH2 0x1C31 SWAP1 PUSH2 0x2F4F JUMP JUMPDEST DUP1 PUSH1 0x1F ADD PUSH1 0x20 DUP1 SWAP2 DIV MUL PUSH1 0x20 ADD PUSH1 0x40 MLOAD SWAP1 DUP2 ADD PUSH1 0x40 MSTORE DUP1 SWAP3 SWAP2 SWAP1 DUP2 DUP2 MSTORE PUSH1 0x20 ADD DUP3 DUP1 SLOAD PUSH2 0x1C5D SWAP1 PUSH2 0x2F4F JUMP JUMPDEST DUP1 ISZERO PUSH2 0x1CA8 JUMPI DUP1 PUSH1 0x1F LT PUSH2 0x1C7F JUMPI PUSH2 0x100 DUP1 DUP4 SLOAD DIV MUL DUP4 MSTORE SWAP2 PUSH1 0x20 ADD SWAP2 PUSH2 0x1CA8 JUMP JUMPDEST DUP3 ADD SWAP2 SWAP1 PUSH0 MSTORE PUSH1 0x20 PUSH0 KECCAK256 SWAP1 JUMPDEST DUP2 SLOAD DUP2 MSTORE SWAP1 PUSH1 0x1 ADD SWAP1 PUSH1 0x20 ADD DUP1 DUP4 GT PUSH2 0x1C8B JUMPI DUP3 SWAP1 SUB PUSH1 0x1F AND DUP3 ADD SWAP2 JUMPDEST POP POP POP POP POP DUP2 MSTORE PUSH1 0x20 ADD PUSH1 0x2 DUP3 ADD DUP1 SLOAD PUSH2 0x1CC1 SWAP1 PUSH2 0x2F4F JUMP JUMPDEST DUP1 PUSH1 0x1F ADD PUSH1 0x20 DUP1 SWAP2 DIV MUL PUSH1 0x20 ADD PUSH1 0x40 MLOAD SWAP1 DUP2 ADD PUSH1 0x40 MSTORE DUP1 SWAP3 SWAP2 SWAP1 DUP2 DUP2 MSTORE PUSH1 0x20 ADD DUP3 DUP1 SLOAD PUSH2 0x1CED SWAP1 PUSH2 0x2F4F JUMP JUMPDEST DUP1 ISZERO PUSH2 0x1D38 JUMPI DUP1 PUSH1 0x1F LT PUSH2 0x1D0F JUMPI PUSH2 0x100 DUP1 DUP4 SLOAD DIV MUL DUP4 MSTORE SWAP2 PUSH1 0x20 ADD SWAP2 PUSH2 0x1D38 JUMP JUMPDEST DUP3 ADD SWAP2 SWAP1 PUSH0 MSTORE PUSH1 0x20 PUSH0 KECCAK256 SWAP1 JUMPDEST DUP2 SLOAD DUP2 MSTORE SWAP1 PUSH1 0x1 ADD SWAP1 PUSH1 0x20 ADD DUP1 DUP4 GT PUSH2 0x1D1B JUMPI DUP3 SWAP1 SUB PUSH1 0x1F AND DUP3 ADD SWAP2 JUMPDEST POP POP POP POP POP DUP2 MSTORE PUSH1 0x20 ADD PUSH1 0x3 DUP3 ADD DUP1 SLOAD PUSH2 0x1D51 SWAP1 PUSH2 0x2F4F JUMP JUMPDEST DUP1 PUSH1 0x1F ADD PUSH1 0x20 DUP1 SWAP2 DIV MUL PUSH1 0x20 ADD PUSH1 0x40 MLOAD SWAP1 DUP2 ADD PUSH1 0x40 MSTORE DUP1 SWAP3 SWAP2 SWAP1 DUP2 DUP2 MSTORE PUSH1 0x20 ADD DUP3 DUP1 SLOAD PUSH2 0x1D7D SWAP1 PUSH2 0x2F4F JUMP JUMPDEST DUP1 ISZERO PUSH2 0x1DC8 JUMPI DUP1 PUSH1 0x1F LT PUSH2 0x1D9F JUMPI PUSH2 0x100 DUP1 DUP4 SLOAD DIV MUL DUP4 MSTORE SWAP2 PUSH1 0x20 ADD SWAP2 PUSH2 0x1DC8 JUMP JUMPDEST DUP3 ADD SWAP2 SWAP1 PUSH0 MSTORE PUSH1 0x20 PUSH0 KECCAK256 SWAP1 JUMPDEST DUP2 SLOAD DUP2 MSTORE SWAP1 PUSH1 0x1 ADD SWAP1 PUSH1 0x20 ADD DUP1 DUP4 GT PUSH2 0x1DAB JUMPI DUP3 SWAP1 SUB PUSH1 0x1F AND DUP3 ADD SWAP2 JUMPDEST POP POP POP POP POP DUP2 MSTORE PUSH1 0x20 ADD PUSH1 0x4 DUP3 ADD DUP1 SLOAD PUSH2 0x1DE1 SWAP1 PUSH2 0x2F4F JUMP JUMPDEST DUP1 PUSH1 0x1F ADD PUSH1 0x20 DUP1 SWAP2 DIV MUL PUSH1 0x20 ADD PUSH1 0x40 MLOAD SWAP1 DUP2 ADD PUSH1 0x40 MSTORE DUP1 SWAP3 SWAP2 SWAP1 DUP2 DUP2 MSTORE PUSH1 0x20 ADD DUP3 DUP1 SLOAD PUSH2 0x1E0D SWAP1 PUSH2 0x2F4F JUMP JUMPDEST DUP1 ISZERO PUSH2 0x1E58 JUMPI DUP1 PUSH1 0x1F LT PUSH2 0x1E2F JUMPI PUSH2 0x100 DUP1 DUP4 SLOAD DIV MUL DUP4 MSTORE SWAP2 PUSH1 0x20 ADD SWAP2 PUSH2 0x1E58 JUMP JUMPDEST DUP3 ADD SWAP2 SWAP1 PUSH0 MSTORE PUSH1 0x20 PUSH0 KECCAK256 SWAP1 JUMPDEST DUP2 SLOAD DUP2 MSTORE SWAP1 PUSH1 0x1 ADD SWAP1 PUSH1 0x20 ADD DUP1 DUP4 GT PUSH2 0x1E3B JUMPI DUP3 SWAP1 SUB PUSH1 0x1F AND DUP3 ADD SWAP2 JUMPDEST POP POP POP POP POP DUP2 MSTORE POP POP DUP2 MSTORE PUSH1 0x20 ADD SWAP1 PUSH1 0x1 ADD SWAP1 PUSH2 0x1BFF JUMP JUMPDEST POP POP POP POP SWAP1 POP SWAP1 JUMP JUMPDEST CALLER PUSH20 0xFFFFFFFFFFFFFFFFFFFFFFFFFFFFFFFFFFFFFFFF AND PUSH1 0x33 PUSH0 SWAP1 SLOAD SWAP1 PUSH2 0x100 EXP SWAP1 DIV PUSH20 0xFFFFFFFFFFFFFFFFFFFFFFFFFFFFFFFFFFFFFFFF AND PUSH20 0xFFFFFFFFFFFFFFFFFFFFFFFFFFFFFFFFFFFFFFFF AND EQ PUSH2 0x1F08 JUMPI PUSH1 0x40 MLOAD PUSH32 0x8C379A000000000000000000000000000000000000000000000000000000000 DUP2 MSTORE PUSH1 0x4 ADD PUSH2 0x1EFF SWAP1 PUSH2 0x2FC9 JUMP JUMPDEST PUSH1 0x40 MLOAD DUP1 SWAP2 SUB SWAP1 REVERT JUMPDEST PUSH1 0x3 PUSH1 0x31 SLOAD LT PUSH2 0x1F4D JUMPI PUSH1 0x40 MLOAD PUSH32 0x8C379A000000000000000000000000000000000000000000000000000000000 DUP2 MSTORE PUSH1 0x4 ADD PUSH2 0x1F44 SWAP1 PUSH2 0x3439 JUMP JUMPDEST PUSH1 0x40 MLOAD DUP1 SWAP2 SUB SWAP1 REVERT JUMPDEST PUSH1 0x40 MLOAD DUP1 PUSH1 0xA0 ADD PUSH1 0x40 MSTORE DUP1 PUSH1 0x31 SLOAD DUP2 MSTORE PUSH1 0x20 ADD DUP10 DUP10 DUP1 DUP1 PUSH1 0x1F ADD PUSH1 0x20 DUP1 SWAP2 DIV MUL PUSH1 0x20 ADD PUSH1 0x40 MLOAD SWAP1 DUP2 ADD PUSH1 0x40 MSTORE DUP1 SWAP4 SWAP3 SWAP2 SWAP1 DUP2 DUP2 MSTORE PUSH1 0x20 ADD DUP4 DUP4 DUP1 DUP3 DUP5 CALLDATACOPY PUSH0 DUP2 DUP5 ADD MSTORE PUSH1 0x1F NOT PUSH1 0x1F DUP3 ADD AND SWAP1 POP DUP1 DUP4 ADD SWAP3 POP POP POP POP POP POP POP DUP2 MSTORE PUSH1 0x20 ADD DUP8 DUP8 DUP1 DUP1 PUSH1 0x1F ADD PUSH1 0x20 DUP1 SWAP2 DIV MUL PUSH1 0x20 ADD PUSH1 0x40 MLOAD SWAP1 DUP2 ADD PUSH1 0x40 MSTORE DUP1 SWAP4 SWAP3 SWAP2 SWAP1 DUP2 DUP2 MSTORE PUSH1 0x20 ADD DUP4 DUP4 DUP1 DUP3 DUP5 CALLDATACOPY PUSH0 DUP2 DUP5 ADD MSTORE PUSH1 0x1F NOT PUSH1 0x1F DUP3 ADD AND SWAP1 POP DUP1 DUP4 ADD SWAP3 POP POP POP POP POP POP POP DUP2 MSTORE PUSH1 0x20 ADD DUP6 DUP6 DUP1 DUP1 PUSH1 0x1F ADD PUSH1 0x20 DUP1 SWAP2 DIV MUL PUSH1 0x20 ADD PUSH1 0x40 MLOAD SWAP1 DUP2 ADD PUSH1 0x40 MSTORE DUP1 SWAP4 SWAP3 SWAP2 SWAP1 DUP2 DUP2 MSTORE PUSH1 0x20 ADD DUP4 DUP4 DUP1 DUP3 DUP5 CALLDATACOPY PUSH0 DUP2 DUP5 ADD MSTORE PUSH1 0x1F NOT PUSH1 0x1F DUP3 ADD AND SWAP1 POP DUP1 DUP4 ADD SWAP3 POP POP POP POP POP POP POP DUP2 MSTORE PUSH1 0x20 ADD DUP4 DUP4 DUP1 DUP1 PUSH1 0x1F ADD PUSH1 0x20 DUP1 SWAP2 DIV MUL PUSH1 0x20 ADD PUSH1 0x40 MLOAD SWAP1 DUP2 ADD PUSH1 0x40 MSTORE DUP1 SWAP4 SWAP3 SWAP2 SWAP1 DUP2 DUP2 MSTORE PUSH1 0x20 ADD DUP4 DUP4 DUP1 DUP3 DUP5 CALLDATACOPY PUSH0 DUP2 DUP5 ADD MSTORE PUSH1 0x1F NOT PUSH1 0x1F DUP3 ADD AND SWAP1 POP DUP1 DUP4 ADD SWAP3 POP POP POP POP POP POP POP DUP2 MSTORE POP PUSH1 0xF PUSH1 0x31 SLOAD PUSH1 0x3 DUP2 LT PUSH2 0x2098 JUMPI PUSH2 0x2097 PUSH2 0x32F3 JUMP JUMPDEST JUMPDEST PUSH1 0x5 MUL ADD PUSH0 DUP3 ADD MLOAD DUP2 PUSH0 ADD SSTORE PUSH1 0x20 DUP3 ADD MLOAD DUP2 PUSH1 0x1 ADD SWAP1 DUP2 PUSH2 0x20B9 SWAP2 SWAP1 PUSH2 0x3320 JUMP JUMPDEST POP PUSH1 0x40 DUP3 ADD MLOAD DUP2 PUSH1 0x2 ADD SWAP1 DUP2 PUSH2 0x20CF SWAP2 SWAP1 PUSH2 0x3320 JUMP JUMPDEST POP PUSH1 0x60 DUP3 ADD MLOAD DUP2 PUSH1 0x3 ADD SWAP1 DUP2 PUSH2 0x20E5 SWAP2 SWAP1 PUSH2 0x3320 JUMP JUMPDEST POP PUSH1 0x80 DUP3 ADD MLOAD DUP2 PUSH1 0x4 ADD SWAP1 DUP2 PUSH2 0x20FB SWAP2 SWAP1 PUSH2 0x3320 JUMP JUMPDEST POP SWAP1 POP POP PUSH1 0x31 PUSH0 DUP2 SLOAD DUP1 SWAP3 SWAP2 SWAP1 PUSH2 0x2111 SWAP1 PUSH2 0x3484 JUMP JUMPDEST SWAP2 SWAP1 POP SSTORE POP POP POP POP POP POP POP POP POP JUMP JUMPDEST PUSH1 0x2D DUP1 SLOAD PUSH2 0x212D SWAP1 PUSH2 0x2F4F JUMP JUMPDEST DUP1 PUSH1 0x1F ADD PUSH1 0x20 DUP1 SWAP2 DIV MUL PUSH1 0x20 ADD PUSH1 0x40 MLOAD SWAP1 DUP2 ADD PUSH1 0x40 MSTORE DUP1 SWAP3 SWAP2 SWAP1 DUP2 DUP2 MSTORE PUSH1 0x20 ADD DUP3 DUP1 SLOAD PUSH2 0x2159 SWAP1 PUSH2 0x2F4F JUMP JUMPDEST DUP1 ISZERO PUSH2 0x21A4 JUMPI DUP1 PUSH1 0x1F LT PUSH2 0x217B JUMPI PUSH2 0x100 DUP1 DUP4 SLOAD DIV MUL DUP4 MSTORE SWAP2 PUSH1 0x20 ADD SWAP2 PUSH2 0x21A4 JUMP JUMPDEST DUP3 ADD SWAP2 SWAP1 PUSH0 MSTORE PUSH1 0x20 PUSH0 KECCAK256 SWAP1 JUMPDEST DUP2 SLOAD DUP2 MSTORE SWAP1 PUSH1 0x1 ADD SWAP1 PUSH1 0x20 ADD DUP1 DUP4 GT PUSH2 0x2187 JUMPI DUP3 SWAP1 SUB PUSH1 0x1F AND DUP3 ADD SWAP2 JUMPDEST POP POP POP POP POP DUP2 JUMP JUMPDEST CALLER PUSH20 0xFFFFFFFFFFFFFFFFFFFFFFFFFFFFFFFFFFFFFFFF AND PUSH1 0x33 PUSH0 SWAP1 SLOAD SWAP1 PUSH2 0x100 EXP SWAP1 DIV PUSH20 0xFFFFFFFFFFFFFFFFFFFFFFFFFFFFFFFFFFFFFFFF AND PUSH20 0xFFFFFFFFFFFFFFFFFFFFFFFFFFFFFFFFFFFFFFFF AND EQ PUSH2 0x223B JUMPI PUSH1 0x40 MLOAD PUSH32 0x8C379A000000000000000000000000000000000000000000000000000000000 DUP2 MSTORE PUSH1 0x4 ADD PUSH2 0x2232 SWAP1 PUSH2 0x2FC9 JUMP JUMPDEST PUSH1 0x40 MLOAD DUP1 SWAP2 SUB SWAP1 REVERT JUMPDEST DUP2 DUP2 PUSH1 0x2F SWAP2 DUP3 PUSH2 0x224C SWAP3 SWAP2 SWAP1 PUSH2 0x31BE JUMP JUMPDEST POP POP POP JUMP JUMPDEST CALLER PUSH20 0xFFFFFFFFFFFFFFFFFFFFFFFFFFFFFFFFFFFFFFFF AND PUSH1 0x33 PUSH0 SWAP1 SLOAD SWAP1 PUSH2 0x100 EXP SWAP1 DIV PUSH20 0xFFFFFFFFFFFFFFFFFFFFFFFFFFFFFFFFFFFFFFFF AND PUSH20 0xFFFFFFFFFFFFFFFFFFFFFFFFFFFFFFFFFFFFFFFF AND EQ PUSH2 0x22E0 JUMPI PUSH1 0x40 MLOAD PUSH32 0x8C379A000000000000000000000000000000000000000000000000000000000 DUP2 MSTORE PUSH1 0x4 ADD PUSH2 0x22D7 SWAP1 PUSH2 0x2FC9 JUMP JUMPDEST PUSH1 0x40 MLOAD DUP1 SWAP2 SUB SWAP1 REVERT JUMPDEST PUSH0 DUP2 LT ISZERO DUP1 ISZERO PUSH2 0x22F0 JUMPI POP PUSH1 0x3 DUP2 LT JUMPDEST PUSH2 0x232F JUMPI PUSH1 0x40 MLOAD PUSH32 0x8C379A000000000000000000000000000000000000000000000000000000000 DUP2 MSTORE PUSH1 0x4 ADD PUSH2 0x2326 SWAP1 PUSH2 0x357D JUMP JUMPDEST PUSH1 0x40 MLOAD DUP1 SWAP2 SUB SWAP1 REVERT JUMPDEST PUSH1 0x40 MLOAD DUP1 PUSH1 0xA0 ADD PUSH1 0x40 MSTORE DUP1 DUP3 DUP2 MSTORE PUSH1 0x20 ADD DUP11 DUP11 DUP1 DUP1 PUSH1 0x1F ADD PUSH1 0x20 DUP1 SWAP2 DIV MUL PUSH1 0x20 ADD PUSH1 0x40 MLOAD SWAP1 DUP2 ADD PUSH1 0x40 MSTORE DUP1 SWAP4 SWAP3 SWAP2 SWAP1 DUP2 DUP2 MSTORE PUSH1 0x20 ADD DUP4 DUP4 DUP1 DUP3 DUP5 CALLDATACOPY PUSH0 DUP2 DUP5 ADD MSTORE PUSH1 0x1F NOT PUSH1 0x1F DUP3 ADD AND SWAP1 POP DUP1 DUP4 ADD SWAP3 POP POP POP POP POP POP POP DUP2 MSTORE PUSH1 0x20 ADD DUP9 DUP9 DUP1 DUP1 PUSH1 0x1F ADD PUSH1 0x20 DUP1 SWAP2 DIV MUL PUSH1 0x20 ADD PUSH1 0x40 MLOAD SWAP1 DUP2 ADD PUSH1 0x40 MSTORE DUP1 SWAP4 SWAP3 SWAP2 SWAP1 DUP2 DUP2 MSTORE PUSH1 0x20 ADD DUP4 DUP4 DUP1 DUP3 DUP5 CALLDATACOPY PUSH0 DUP2 DUP5 ADD MSTORE PUSH1 0x1F NOT PUSH1 0x1F DUP3 ADD AND SWAP1 POP DUP1 DUP4 ADD SWAP3 POP POP POP POP POP POP POP DUP2 MSTORE PUSH1 0x20 ADD DUP7 DUP7 DUP1 DUP1 PUSH1 0x1F ADD PUSH1 0x20 DUP1 SWAP2 DIV MUL PUSH1 0x20 ADD PUSH1 0x40 MLOAD SWAP1 DUP2 ADD PUSH1 0x40 MSTORE DUP1 SWAP4 SWAP3 SWAP2 SWAP1 DUP2 DUP2 MSTORE PUSH1 0x20 ADD DUP4 DUP4 DUP1 DUP3 DUP5 CALLDATACOPY PUSH0 DUP2 DUP5 ADD MSTORE PUSH1 0x1F NOT PUSH1 0x1F DUP3 ADD AND SWAP1 POP DUP1 DUP4 ADD SWAP3 POP POP POP POP POP POP POP DUP2 MSTORE PUSH1 0x20 ADD DUP5 DUP5 DUP1 DUP1 PUSH1 0x1F ADD PUSH1 0x20 DUP1 SWAP2 DIV MUL PUSH1 0x20 ADD PUSH1 0x40 MLOAD SWAP1 DUP2 ADD PUSH1 0x40 MSTORE DUP1 SWAP4 SWAP3 SWAP2 SWAP1 DUP2 DUP2 MSTORE PUSH1 0x20 ADD DUP4 DUP4 DUP1 DUP3 DUP5 CALLDATACOPY PUSH0 DUP2 DUP5 ADD MSTORE PUSH1 0x1F NOT PUSH1 0x1F DUP3 ADD AND SWAP1 POP DUP1 DUP4 ADD SWAP3 POP POP POP POP POP POP POP DUP2 MSTORE POP PUSH1 0x1E DUP3 PUSH1 0x3 DUP2 LT PUSH2 0x2476 JUMPI PUSH2 0x2475 PUSH2 0x32F3 JUMP JUMPDEST JUMPDEST PUSH1 0x5 MUL ADD PUSH0 DUP3 ADD MLOAD DUP2 PUSH0 ADD SSTORE PUSH1 0x20 DUP3 ADD MLOAD DUP2 PUSH1 0x1 ADD SWAP1 DUP2 PUSH2 0x2497 SWAP2 SWAP1 PUSH2 0x3320 JUMP JUMPDEST POP PUSH1 0x40 DUP3 ADD MLOAD DUP2 PUSH1 0x2 ADD SWAP1 DUP2 PUSH2 0x24AD SWAP2 SWAP1 PUSH2 0x3320 JUMP JUMPDEST POP PUSH1 0x60 DUP3 ADD MLOAD DUP2 PUSH1 0x3 ADD SWAP1 DUP2 PUSH2 0x24C3 SWAP2 SWAP1 PUSH2 0x3320 JUMP JUMPDEST POP PUSH1 0x80 DUP3 ADD MLOAD DUP2 PUSH1 0x4 ADD SWAP1 DUP2 PUSH2 0x24D9 SWAP2 SWAP1 PUSH2 0x3320 JUMP JUMPDEST POP SWAP1 POP POP POP POP POP POP POP POP POP POP POP JUMP JUMPDEST DUP2 DUP2 PUSH1 0x2E SWAP2 DUP3 PUSH2 0x24F9 SWAP3 SWAP2 SWAP1 PUSH2 0x31BE JUMP JUMPDEST POP POP POP JUMP JUMPDEST PUSH1 0x33 PUSH0 SWAP1 SLOAD SWAP1 PUSH2 0x100 EXP SWAP1 DIV PUSH20 0xFFFFFFFFFFFFFFFFFFFFFFFFFFFFFFFFFFFFFFFF AND PUSH20 0xFFFFFFFFFFFFFFFFFFFFFFFFFFFFFFFFFFFFFFFF AND PUSH2 0x8FC CALLVALUE SWAP1 DUP2 ISZERO MUL SWAP1 PUSH1 0x40 MLOAD PUSH0 PUSH1 0x40 MLOAD DUP1 DUP4 SUB DUP2 DUP6 DUP9 DUP9 CALL SWAP4 POP POP POP POP ISZERO DUP1 ISZERO PUSH2 0x2562 JUMPI RETURNDATASIZE PUSH0 PUSH0 RETURNDATACOPY RETURNDATASIZE PUSH0 REVERT JUMPDEST POP JUMP JUMPDEST PUSH1 0x40 MLOAD DUP1 PUSH1 0x60 ADD PUSH1 0x40 MSTORE DUP1 PUSH1 0x3 SWAP1 JUMPDEST PUSH2 0x257C PUSH2 0x25EC JUMP JUMPDEST DUP2 MSTORE PUSH1 0x20 ADD SWAP1 PUSH1 0x1 SWAP1 SUB SWAP1 DUP2 PUSH2 0x2574 JUMPI SWAP1 POP POP SWAP1 JUMP JUMPDEST PUSH1 0x40 MLOAD DUP1 PUSH1 0x60 ADD PUSH1 0x40 MSTORE DUP1 PUSH1 0x3 SWAP1 JUMPDEST PUSH2 0x25A9 PUSH2 0x261A JUMP JUMPDEST DUP2 MSTORE PUSH1 0x20 ADD SWAP1 PUSH1 0x1 SWAP1 SUB SWAP1 DUP2 PUSH2 0x25A1 JUMPI SWAP1 POP POP SWAP1 JUMP JUMPDEST PUSH1 0x40 MLOAD DUP1 PUSH1 0x60 ADD PUSH1 0x40 MSTORE DUP1 PUSH1 0x3 SWAP1 JUMPDEST PUSH2 0x25D6 PUSH2 0x2648 JUMP JUMPDEST DUP2 MSTORE PUSH1 0x20 ADD SWAP1 PUSH1 0x1 SWAP1 SUB SWAP1 DUP2 PUSH2 0x25CE JUMPI SWAP1 POP POP SWAP1 JUMP JUMPDEST PUSH1 0x40 MLOAD DUP1 PUSH1 0xA0 ADD PUSH1 0x40 MSTORE DUP1 PUSH0 DUP2 MSTORE PUSH1 0x20 ADD PUSH1 0x60 DUP2 MSTORE PUSH1 0x20 ADD PUSH1 0x60 DUP2 MSTORE PUSH1 0x20 ADD PUSH1 0x60 DUP2 MSTORE PUSH1 0x20 ADD PUSH1 0x60 DUP2 MSTORE POP SWAP1 JUMP JUMPDEST PUSH1 0x40 MLOAD DUP1 PUSH1 0xA0 ADD PUSH1 0x40 MSTORE DUP1 PUSH0 DUP2 MSTORE PUSH1 0x20 ADD PUSH1 0x60 DUP2 MSTORE PUSH1 0x20 ADD PUSH1 0x60 DUP2 MSTORE PUSH1 0x20 ADD PUSH1 0x60 DUP2 MSTORE PUSH1 0x20 ADD PUSH1 0x60 DUP2 MSTORE POP SWAP1 JUMP JUMPDEST PUSH1 0x40 MLOAD DUP1 PUSH1 0xA0 ADD PUSH1 0x40 MSTORE DUP1 PUSH0 DUP2 MSTORE PUSH1 0x20 ADD PUSH1 0x60 DUP2 MSTORE PUSH1 0x20 ADD PUSH1 0x60 DUP2 MSTORE PUSH1 0x20 ADD PUSH1 0x60 DUP2 MSTORE PUSH1 0x20 ADD PUSH1 0x60 DUP2 MSTORE POP SWAP1 JUMP JUMPDEST PUSH0 PUSH0 REVERT JUMPDEST PUSH0 PUSH0 REVERT JUMPDEST PUSH0 DUP2 SWAP1 POP SWAP2 SWAP1 POP JUMP JUMPDEST PUSH2 0x2690 DUP2 PUSH2 0x267E JUMP JUMPDEST DUP2 EQ PUSH2 0x269A JUMPI PUSH0 PUSH0 REVERT JUMPDEST POP JUMP JUMPDEST PUSH0 DUP2 CALLDATALOAD SWAP1 POP PUSH2 0x26AB DUP2 PUSH2 0x2687 JUMP JUMPDEST SWAP3 SWAP2 POP POP JUMP JUMPDEST PUSH0 PUSH1 0x20 DUP3 DUP5 SUB SLT ISZERO PUSH2 0x26C6 JUMPI PUSH2 0x26C5 PUSH2 0x2676 JUMP JUMPDEST JUMPDEST PUSH0 PUSH2 0x26D3 DUP5 DUP3 DUP6 ADD PUSH2 0x269D JUMP JUMPDEST SWAP2 POP POP SWAP3 SWAP2 POP POP JUMP JUMPDEST PUSH2 0x26E5 DUP2 PUSH2 0x267E JUMP JUMPDEST DUP3 MSTORE POP POP JUMP JUMPDEST PUSH0 DUP2 MLOAD SWAP1 POP SWAP2 SWAP1 POP JUMP JUMPDEST PUSH0 DUP3 DUP3 MSTORE PUSH1 0x20 DUP3 ADD SWAP1 POP SWAP3 SWAP2 POP POP JUMP JUMPDEST DUP3 DUP2 DUP4 MCOPY PUSH0 DUP4 DUP4 ADD MSTORE POP POP POP JUMP JUMPDEST PUSH0 PUSH1 0x1F NOT PUSH1 0x1F DUP4 ADD AND SWAP1 POP SWAP2 SWAP1 POP JUMP JUMPDEST PUSH0 PUSH2 0x272D DUP3 PUSH2 0x26EB JUMP JUMPDEST PUSH2 0x2737 DUP2 DUP6 PUSH2 0x26F5 JUMP JUMPDEST SWAP4 POP PUSH2 0x2747 DUP2 DUP6 PUSH1 0x20 DUP7 ADD PUSH2 0x2705 JUMP JUMPDEST PUSH2 0x2750 DUP2 PUSH2 0x2713 JUMP JUMPDEST DUP5 ADD SWAP2 POP POP SWAP3 SWAP2 POP POP JUMP JUMPDEST PUSH0 PUSH1 0xA0 DUP3 ADD SWAP1 POP PUSH2 0x276E PUSH0 DUP4 ADD DUP9 PUSH2 0x26DC JUMP JUMPDEST DUP2 DUP2 SUB PUSH1 0x20 DUP4 ADD MSTORE PUSH2 0x2780 DUP2 DUP8 PUSH2 0x2723 JUMP JUMPDEST SWAP1 POP DUP2 DUP2 SUB PUSH1 0x40 DUP4 ADD MSTORE PUSH2 0x2794 DUP2 DUP7 PUSH2 0x2723 JUMP JUMPDEST SWAP1 POP DUP2 DUP2 SUB PUSH1 0x60 DUP4 ADD MSTORE PUSH2 0x27A8 DUP2 DUP6 PUSH2 0x2723 JUMP JUMPDEST SWAP1 POP DUP2 DUP2 SUB PUSH1 0x80 DUP4 ADD MSTORE PUSH2 0x27BC DUP2 DUP5 PUSH2 0x2723 JUMP JUMPDEST SWAP1 POP SWAP7 SWAP6 POP POP POP POP POP POP JUMP JUMPDEST PUSH0 PUSH1 0x3 SWAP1 POP SWAP2 SWAP1 POP JUMP JUMPDEST PUSH0 DUP2 SWAP1 POP SWAP3 SWAP2 POP POP JUMP JUMPDEST PUSH0 DUP2 SWAP1 POP SWAP2 SWAP1 POP JUMP JUMPDEST PUSH2 0x27EE DUP2 PUSH2 0x267E JUMP JUMPDEST DUP3 MSTORE POP POP JUMP JUMPDEST PUSH0 DUP3 DUP3 MSTORE PUSH1 0x20 DUP3 ADD SWAP1 POP SWAP3 SWAP2 POP POP JUMP JUMPDEST PUSH0 PUSH2 0x280E DUP3 PUSH2 0x26EB JUMP JUMPDEST PUSH2 0x2818 DUP2 DUP6 PUSH2 0x27F4 JUMP JUMPDEST SWAP4 POP PUSH2 0x2828 DUP2 DUP6 PUSH1 0x20 DUP7 ADD PUSH2 0x2705 JUMP JUMPDEST PUSH2 0x2831 DUP2 PUSH2 0x2713 JUMP JUMPDEST DUP5 ADD SWAP2 POP POP SWAP3 SWAP2 POP POP JUMP JUMPDEST PUSH0 PUSH1 0xA0 DUP4 ADD PUSH0 DUP4 ADD MLOAD PUSH2 0x2851 PUSH0 DUP7 ADD DUP3 PUSH2 0x27E5 JUMP JUMPDEST POP PUSH1 0x20 DUP4 ADD MLOAD DUP5 DUP3 SUB PUSH1 0x20 DUP7 ADD MSTORE PUSH2 0x2869 DUP3 DUP3 PUSH2 0x2804 JUMP JUMPDEST SWAP2 POP POP PUSH1 0x40 DUP4 ADD MLOAD DUP5 DUP3 SUB PUSH1 0x40 DUP7 ADD MSTORE PUSH2 0x2883 DUP3 DUP3 PUSH2 0x2804 JUMP JUMPDEST SWAP2 POP POP PUSH1 0x60 DUP4 ADD MLOAD DUP5 DUP3 SUB PUSH1 0x60 DUP7 ADD MSTORE PUSH2 0x289D DUP3 DUP3 PUSH2 0x2804 JUMP JUMPDEST SWAP2 POP POP PUSH1 0x80 DUP4 ADD MLOAD DUP5 DUP3 SUB PUSH1 0x80 DUP7 ADD MSTORE PUSH2 0x28B7 DUP3 DUP3 PUSH2 0x2804 JUMP JUMPDEST SWAP2 POP POP DUP1 SWAP2 POP POP SWAP3 SWAP2 POP POP JUMP JUMPDEST PUSH0 PUSH2 0x28CF DUP4 DUP4 PUSH2 0x283C JUMP JUMPDEST SWAP1 POP SWAP3 SWAP2 POP POP JUMP JUMPDEST PUSH0 PUSH1 0x20 DUP3 ADD SWAP1 POP SWAP2 SWAP1 POP JUMP JUMPDEST PUSH0 PUSH2 0x28ED DUP3 PUSH2 0x27C8 JUMP JUMPDEST PUSH2 0x28F7 DUP2 DUP6 PUSH2 0x27D2 JUMP JUMPDEST SWAP4 POP DUP4 PUSH1 0x20 DUP3 MUL DUP6 ADD PUSH2 0x2909 DUP6 PUSH2 0x27DC JUMP JUMPDEST DUP1 PUSH0 JUMPDEST DUP6 DUP2 LT ISZERO PUSH2 0x2944 JUMPI DUP5 DUP5 SUB DUP10 MSTORE DUP2 MLOAD PUSH2 0x2925 DUP6 DUP3 PUSH2 0x28C4 JUMP JUMPDEST SWAP5 POP PUSH2 0x2930 DUP4 PUSH2 0x28D7 JUMP JUMPDEST SWAP3 POP PUSH1 0x20 DUP11 ADD SWAP10 POP POP PUSH1 0x1 DUP2 ADD SWAP1 POP PUSH2 0x290C JUMP JUMPDEST POP DUP3 SWAP8 POP DUP8 SWAP6 POP POP POP POP POP POP SWAP3 SWAP2 POP POP JUMP JUMPDEST PUSH0 PUSH1 0x20 DUP3 ADD SWAP1 POP DUP2 DUP2 SUB PUSH0 DUP4 ADD MSTORE PUSH2 0x296E DUP2 DUP5 PUSH2 0x28E3 JUMP JUMPDEST SWAP1 POP SWAP3 SWAP2 POP POP JUMP JUMPDEST PUSH0 PUSH1 0x3 SWAP1 POP SWAP2 SWAP1 POP JUMP JUMPDEST PUSH0 DUP2 SWAP1 POP SWAP3 SWAP2 POP POP JUMP JUMPDEST PUSH0 DUP2 SWAP1 POP SWAP2 SWAP1 POP JUMP JUMPDEST PUSH0 PUSH1 0xA0 DUP4 ADD PUSH0 DUP4 ADD MLOAD PUSH2 0x29A8 PUSH0 DUP7 ADD DUP3 PUSH2 0x27E5 JUMP JUMPDEST POP PUSH1 0x20 DUP4 ADD MLOAD DUP5 DUP3 SUB PUSH1 0x20 DUP7 ADD MSTORE PUSH2 0x29C0 DUP3 DUP3 PUSH2 0x2804 JUMP JUMPDEST SWAP2 POP POP PUSH1 0x40 DUP4 ADD MLOAD DUP5 DUP3 SUB PUSH1 0x40 DUP7 ADD MSTORE PUSH2 0x29DA DUP3 DUP3 PUSH2 0x2804 JUMP JUMPDEST SWAP2 POP POP PUSH1 0x60 DUP4 ADD MLOAD DUP5 DUP3 SUB PUSH1 0x60 DUP7 ADD MSTORE PUSH2 0x29F4 DUP3 DUP3 PUSH2 0x2804 JUMP JUMPDEST SWAP2 POP POP PUSH1 0x80 DUP4 ADD MLOAD DUP5 DUP3 SUB PUSH1 0x80 DUP7 ADD MSTORE PUSH2 0x2A0E DUP3 DUP3 PUSH2 0x2804 JUMP JUMPDEST SWAP2 POP POP DUP1 SWAP2 POP POP SWAP3 SWAP2 POP POP JUMP JUMPDEST PUSH0 PUSH2 0x2A26 DUP4 DUP4 PUSH2 0x2993 JUMP JUMPDEST SWAP1 POP SWAP3 SWAP2 POP POP JUMP JUMPDEST PUSH0 PUSH1 0x20 DUP3 ADD SWAP1 POP SWAP2 SWAP1 POP JUMP JUMPDEST PUSH0 PUSH2 0x2A44 DUP3 PUSH2 0x2976 JUMP JUMPDEST PUSH2 0x2A4E DUP2 DUP6 PUSH2 0x2980 JUMP JUMPDEST SWAP4 POP DUP4 PUSH1 0x20 DUP3 MUL DUP6 ADD PUSH2 0x2A60 DUP6 PUSH2 0x298A JUMP JUMPDEST DUP1 PUSH0 JUMPDEST DUP6 DUP2 LT ISZERO PUSH2 0x2A9B JUMPI DUP5 DUP5 SUB DUP10 MSTORE DUP2 MLOAD PUSH2 0x2A7C DUP6 DUP3 PUSH2 0x2A1B JUMP JUMPDEST SWAP5 POP PUSH2 0x2A87 DUP4 PUSH2 0x2A2E JUMP JUMPDEST SWAP3 POP PUSH1 0x20 DUP11 ADD SWAP10 POP POP PUSH1 0x1 DUP2 ADD SWAP1 POP PUSH2 0x2A63 JUMP JUMPDEST POP DUP3 SWAP8 POP DUP8 SWAP6 POP POP POP POP POP POP SWAP3 SWAP2 POP POP JUMP JUMPDEST PUSH0 PUSH1 0x20 DUP3 ADD SWAP1 POP DUP2 DUP2 SUB PUSH0 DUP4 ADD MSTORE PUSH2 0x2AC5 DUP2 DUP5 PUSH2 0x2A3A JUMP JUMPDEST SWAP1 POP SWAP3 SWAP2 POP POP JUMP JUMPDEST PUSH0 PUSH20 0xFFFFFFFFFFFFFFFFFFFFFFFFFFFFFFFFFFFFFFFF DUP3 AND SWAP1 POP SWAP2 SWAP1 POP JUMP JUMPDEST PUSH0 PUSH2 0x2AF6 DUP3 PUSH2 0x2ACD JUMP JUMPDEST SWAP1 POP SWAP2 SWAP1 POP JUMP JUMPDEST PUSH2 0x2B06 DUP2 PUSH2 0x2AEC JUMP JUMPDEST DUP3 MSTORE POP POP JUMP JUMPDEST PUSH0 PUSH1 0x20 DUP3 ADD SWAP1 POP PUSH2 0x2B1F PUSH0 DUP4 ADD DUP5 PUSH2 0x2AFD JUMP JUMPDEST SWAP3 SWAP2 POP POP JUMP JUMPDEST PUSH0 PUSH0 REVERT JUMPDEST PUSH0 PUSH0 REVERT JUMPDEST PUSH0 PUSH0 REVERT JUMPDEST PUSH0 PUSH0 DUP4 PUSH1 0x1F DUP5 ADD SLT PUSH2 0x2B46 JUMPI PUSH2 0x2B45 PUSH2 0x2B25 JUMP JUMPDEST JUMPDEST DUP3 CALLDATALOAD SWAP1 POP PUSH8 0xFFFFFFFFFFFFFFFF DUP2 GT ISZERO PUSH2 0x2B63 JUMPI PUSH2 0x2B62 PUSH2 0x2B29 JUMP JUMPDEST JUMPDEST PUSH1 0x20 DUP4 ADD SWAP2 POP DUP4 PUSH1 0x1 DUP3 MUL DUP4 ADD GT ISZERO PUSH2 0x2B7F JUMPI PUSH2 0x2B7E PUSH2 0x2B2D JUMP JUMPDEST JUMPDEST SWAP3 POP SWAP3 SWAP1 POP JUMP JUMPDEST PUSH0 PUSH0 PUSH1 0x20 DUP4 DUP6 SUB SLT ISZERO PUSH2 0x2B9C JUMPI PUSH2 0x2B9B PUSH2 0x2676 JUMP JUMPDEST JUMPDEST PUSH0 DUP4 ADD CALLDATALOAD PUSH8 0xFFFFFFFFFFFFFFFF DUP2 GT ISZERO PUSH2 0x2BB9 JUMPI PUSH2 0x2BB8 PUSH2 0x267A JUMP JUMPDEST JUMPDEST PUSH2 0x2BC5 DUP6 DUP3 DUP7 ADD PUSH2 0x2B31 JUMP JUMPDEST SWAP3 POP SWAP3 POP POP SWAP3 POP SWAP3 SWAP1 POP JUMP JUMPDEST PUSH0 PUSH0 PUSH0 PUSH0 PUSH0 PUSH0 PUSH0 PUSH0 PUSH0 PUSH1 0xA0 DUP11 DUP13 SUB SLT ISZERO PUSH2 0x2BEE JUMPI PUSH2 0x2BED PUSH2 0x2676 JUMP JUMPDEST JUMPDEST PUSH0 DUP11 ADD CALLDATALOAD PUSH8 0xFFFFFFFFFFFFFFFF DUP2 GT ISZERO PUSH2 0x2C0B JUMPI PUSH2 0x2C0A PUSH2 0x267A JUMP JUMPDEST JUMPDEST PUSH2 0x2C17 DUP13 DUP3 DUP14 ADD PUSH2 0x2B31 JUMP JUMPDEST SWAP10 POP SWAP10 POP POP PUSH1 0x20 DUP11 ADD CALLDATALOAD PUSH8 0xFFFFFFFFFFFFFFFF DUP2 GT ISZERO PUSH2 0x2C3A JUMPI PUSH2 0x2C39 PUSH2 0x267A JUMP JUMPDEST JUMPDEST PUSH2 0x2C46 DUP13 DUP3 DUP14 ADD PUSH2 0x2B31 JUMP JUMPDEST SWAP8 POP SWAP8 POP POP PUSH1 0x40 DUP11 ADD CALLDATALOAD PUSH8 0xFFFFFFFFFFFFFFFF DUP2 GT ISZERO PUSH2 0x2C69 JUMPI PUSH2 0x2C68 PUSH2 0x267A JUMP JUMPDEST JUMPDEST PUSH2 0x2C75 DUP13 DUP3 DUP14 ADD PUSH2 0x2B31 JUMP JUMPDEST SWAP6 POP SWAP6 POP POP PUSH1 0x60 DUP11 ADD CALLDATALOAD PUSH8 0xFFFFFFFFFFFFFFFF DUP2 GT ISZERO PUSH2 0x2C98 JUMPI PUSH2 0x2C97 PUSH2 0x267A JUMP JUMPDEST JUMPDEST PUSH2 0x2CA4 DUP13 DUP3 DUP14 ADD PUSH2 0x2B31 JUMP JUMPDEST SWAP4 POP SWAP4 POP POP PUSH1 0x80 PUSH2 0x2CB7 DUP13 DUP3 DUP14 ADD PUSH2 0x269D JUMP JUMPDEST SWAP2 POP POP SWAP3 SWAP6 SWAP9 POP SWAP3 SWAP6 SWAP9 POP SWAP3 SWAP6 SWAP9 JUMP JUMPDEST PUSH0 PUSH1 0x20 DUP3 ADD SWAP1 POP DUP2 DUP2 SUB PUSH0 DUP4 ADD MSTORE PUSH2 0x2CDF DUP2 DUP5 PUSH2 0x2723 JUMP JUMPDEST SWAP1 POP SWAP3 SWAP2 POP POP JUMP JUMPDEST PUSH0 PUSH0 PUSH0 PUSH0 PUSH0 PUSH0 PUSH0 PUSH0 PUSH1 0x80 DUP10 DUP12 SUB SLT ISZERO PUSH2 0x2D03 JUMPI PUSH2 0x2D02 PUSH2 0x2676 JUMP JUMPDEST JUMPDEST PUSH0 DUP10 ADD CALLDATALOAD PUSH8 0xFFFFFFFFFFFFFFFF DUP2 GT ISZERO PUSH2 0x2D20 JUMPI PUSH2 0x2D1F PUSH2 0x267A JUMP JUMPDEST JUMPDEST PUSH2 0x2D2C DUP12 DUP3 DUP13 ADD PUSH2 0x2B31 JUMP JUMPDEST SWAP9 POP SWAP9 POP POP PUSH1 0x20 DUP10 ADD CALLDATALOAD PUSH8 0xFFFFFFFFFFFFFFFF DUP2 GT ISZERO PUSH2 0x2D4F JUMPI PUSH2 0x2D4E PUSH2 0x267A JUMP JUMPDEST JUMPDEST PUSH2 0x2D5B DUP12 DUP3 DUP13 ADD PUSH2 0x2B31 JUMP JUMPDEST SWAP7 POP SWAP7 POP POP PUSH1 0x40 DUP10 ADD CALLDATALOAD PUSH8 0xFFFFFFFFFFFFFFFF DUP2 GT ISZERO PUSH2 0x2D7E JUMPI PUSH2 0x2D7D PUSH2 0x267A JUMP JUMPDEST JUMPDEST PUSH2 0x2D8A DUP12 DUP3 DUP13 ADD PUSH2 0x2B31 JUMP JUMPDEST SWAP5 POP SWAP5 POP POP PUSH1 0x60 DUP10 ADD CALLDATALOAD PUSH8 0xFFFFFFFFFFFFFFFF DUP2 GT ISZERO PUSH2 0x2DAD JUMPI PUSH2 0x2DAC PUSH2 0x267A JUMP JUMPDEST JUMPDEST PUSH2 0x2DB9 DUP12 DUP3 DUP13 ADD PUSH2 0x2B31 JUMP JUMPDEST SWAP3 POP SWAP3 POP POP SWAP3 SWAP6 SWAP9 POP SWAP3 SWAP6 SWAP9 SWAP1 SWAP4 SWAP7 POP JUMP JUMPDEST PUSH0 PUSH1 0x3 SWAP1 POP SWAP2 SWAP1 POP JUMP JUMPDEST PUSH0 DUP2 SWAP1 POP SWAP3 SWAP2 POP POP JUMP JUMPDEST PUSH0 DUP2 SWAP1 POP SWAP2 SWAP1 POP JUMP JUMPDEST PUSH0 PUSH1 0xA0 DUP4 ADD PUSH0 DUP4 ADD MLOAD PUSH2 0x2DFD PUSH0 DUP7 ADD DUP3 PUSH2 0x27E5 JUMP JUMPDEST POP PUSH1 0x20 DUP4 ADD MLOAD DUP5 DUP3 SUB PUSH1 0x20 DUP7 ADD MSTORE PUSH2 0x2E15 DUP3 DUP3 PUSH2 0x2804 JUMP JUMPDEST SWAP2 POP POP PUSH1 0x40 DUP4 ADD MLOAD DUP5 DUP3 SUB PUSH1 0x40 DUP7 ADD MSTORE PUSH2 0x2E2F DUP3 DUP3 PUSH2 0x2804 JUMP JUMPDEST SWAP2 POP POP PUSH1 0x60 DUP4 ADD MLOAD DUP5 DUP3 SUB PUSH1 0x60 DUP7 ADD MSTORE PUSH2 0x2E49 DUP3 DUP3 PUSH2 0x2804 JUMP JUMPDEST SWAP2 POP POP PUSH1 0x80 DUP4 ADD MLOAD DUP5 DUP3 SUB PUSH1 0x80 DUP7 ADD MSTORE PUSH2 0x2E63 DUP3 DUP3 PUSH2 0x2804 JUMP JUMPDEST SWAP2 POP POP DUP1 SWAP2 POP POP SWAP3 SWAP2 POP POP JUMP JUMPDEST PUSH0 PUSH2 0x2E7B DUP4 DUP4 PUSH2 0x2DE8 JUMP JUMPDEST SWAP1 POP SWAP3 SWAP2 POP POP JUMP JUMPDEST PUSH0 PUSH1 0x20 DUP3 ADD SWAP1 POP SWAP2 SWAP1 POP JUMP JUMPDEST PUSH0 PUSH2 0x2E99 DUP3 PUSH2 0x2DCB JUMP JUMPDEST PUSH2 0x2EA3 DUP2 DUP6 PUSH2 0x2DD5 JUMP JUMPDEST SWAP4 POP DUP4 PUSH1 0x20 DUP3 MUL DUP6 ADD PUSH2 0x2EB5 DUP6 PUSH2 0x2DDF JUMP JUMPDEST DUP1 PUSH0 JUMPDEST DUP6 DUP2 LT ISZERO PUSH2 0x2EF0 JUMPI DUP5 DUP5 SUB DUP10 MSTORE DUP2 MLOAD PUSH2 0x2ED1 DUP6 DUP3 PUSH2 0x2E70 JUMP JUMPDEST SWAP5 POP PUSH2 0x2EDC DUP4 PUSH2 0x2E83 JUMP JUMPDEST SWAP3 POP PUSH1 0x20 DUP11 ADD SWAP10 POP POP PUSH1 0x1 DUP2 ADD SWAP1 POP PUSH2 0x2EB8 JUMP JUMPDEST POP DUP3 SWAP8 POP DUP8 SWAP6 POP POP POP POP POP POP SWAP3 SWAP2 POP POP JUMP JUMPDEST PUSH0 PUSH1 0x20 DUP3 ADD SWAP1 POP DUP2 DUP2 SUB PUSH0 DUP4 ADD MSTORE PUSH2 0x2F1A DUP2 DUP5 PUSH2 0x2E8F JUMP JUMPDEST SWAP1 POP SWAP3 SWAP2 POP POP JUMP JUMPDEST PUSH32 0x4E487B7100000000000000000000000000000000000000000000000000000000 PUSH0 MSTORE PUSH1 0x22 PUSH1 0x4 MSTORE PUSH1 0x24 PUSH0 REVERT JUMPDEST PUSH0 PUSH1 0x2 DUP3 DIV SWAP1 POP PUSH1 0x1 DUP3 AND DUP1 PUSH2 0x2F66 JUMPI PUSH1 0x7F DUP3 AND SWAP2 POP JUMPDEST PUSH1 0x20 DUP3 LT DUP2 SUB PUSH2 0x2F79 JUMPI PUSH2 0x2F78 PUSH2 0x2F22 JUMP JUMPDEST JUMPDEST POP SWAP2 SWAP1 POP JUMP JUMPDEST PUSH32 0x596F7520617265206E6F7420746865206D616E61676572000000000000000000 PUSH0 DUP3 ADD MSTORE POP JUMP JUMPDEST PUSH0 PUSH2 0x2FB3 PUSH1 0x17 DUP4 PUSH2 0x26F5 JUMP JUMPDEST SWAP2 POP PUSH2 0x2FBE DUP3 PUSH2 0x2F7F JUMP JUMPDEST PUSH1 0x20 DUP3 ADD SWAP1 POP SWAP2 SWAP1 POP JUMP JUMPDEST PUSH0 PUSH1 0x20 DUP3 ADD SWAP1 POP DUP2 DUP2 SUB PUSH0 DUP4 ADD MSTORE PUSH2 0x2FE0 DUP2 PUSH2 0x2FA7 JUMP JUMPDEST SWAP1 POP SWAP2 SWAP1 POP JUMP JUMPDEST PUSH0 DUP3 SWAP1 POP SWAP3 SWAP2 POP POP JUMP JUMPDEST PUSH32 0x4E487B7100000000000000000000000000000000000000000000000000000000 PUSH0 MSTORE PUSH1 0x41 PUSH1 0x4 MSTORE PUSH1 0x24 PUSH0 REVERT JUMPDEST PUSH0 DUP2 SWAP1 POP DUP2 PUSH0 MSTORE PUSH1 0x20 PUSH0 KECCAK256 SWAP1 POP SWAP2 SWAP1 POP JUMP JUMPDEST PUSH0 PUSH1 0x20 PUSH1 0x1F DUP4 ADD DIV SWAP1 POP SWAP2 SWAP1 POP JUMP JUMPDEST PUSH0 DUP3 DUP3 SHL SWAP1 POP SWAP3 SWAP2 POP POP JUMP JUMPDEST PUSH0 PUSH1 0x8 DUP4 MUL PUSH2 0x307A PUSH32 0xFFFFFFFFFFFFFFFFFFFFFFFFFFFFFFFFFFFFFFFFFFFFFFFFFFFFFFFFFFFFFFFF DUP3 PUSH2 0x303F JUMP JUMPDEST PUSH2 0x3084 DUP7 DUP4 PUSH2 0x303F JUMP JUMPDEST SWAP6 POP DUP1 NOT DUP5 AND SWAP4 POP DUP1 DUP7 AND DUP5 OR SWAP3 POP POP POP SWAP4 SWAP3 POP POP POP JUMP JUMPDEST PUSH0 DUP2 SWAP1 POP SWAP2 SWAP1 POP JUMP JUMPDEST PUSH0 PUSH2 0x30BF PUSH2 0x30BA PUSH2 0x30B5 DUP5 PUSH2 0x267E JUMP JUMPDEST PUSH2 0x309C JUMP JUMPDEST PUSH2 0x267E JUMP JUMPDEST SWAP1 POP SWAP2 SWAP1 POP JUMP JUMPDEST PUSH0 DUP2 SWAP1 POP SWAP2 SWAP1 POP JUMP JUMPDEST PUSH2 0x30D8 DUP4 PUSH2 0x30A5 JUMP JUMPDEST PUSH2 0x30EC PUSH2 0x30E4 DUP3 PUSH2 0x30C6 JUMP JUMPDEST DUP5 DUP5 SLOAD PUSH2 0x304B JUMP JUMPDEST DUP3 SSTORE POP POP POP POP JUMP JUMPDEST PUSH0 PUSH0 SWAP1 POP SWAP1 JUMP JUMPDEST PUSH2 0x3103 PUSH2 0x30F4 JUMP JUMPDEST PUSH2 0x310E DUP2 DUP5 DUP5 PUSH2 0x30CF JUMP JUMPDEST POP POP POP JUMP JUMPDEST JUMPDEST DUP2 DUP2 LT ISZERO PUSH2 0x3131 JUMPI PUSH2 0x3126 PUSH0 DUP3 PUSH2 0x30FB JUMP JUMPDEST PUSH1 0x1 DUP2 ADD SWAP1 POP PUSH2 0x3114 JUMP JUMPDEST POP POP JUMP JUMPDEST PUSH1 0x1F DUP3 GT ISZERO PUSH2 0x3176 JUMPI PUSH2 0x3147 DUP2 PUSH2 0x301E JUMP JUMPDEST PUSH2 0x3150 DUP5 PUSH2 0x3030 JUMP JUMPDEST DUP2 ADD PUSH1 0x20 DUP6 LT ISZERO PUSH2 0x315F JUMPI DUP2 SWAP1 POP JUMPDEST PUSH2 0x3173 PUSH2 0x316B DUP6 PUSH2 0x3030 JUMP JUMPDEST DUP4 ADD DUP3 PUSH2 0x3113 JUMP JUMPDEST POP POP JUMPDEST POP POP POP JUMP JUMPDEST PUSH0 DUP3 DUP3 SHR SWAP1 POP SWAP3 SWAP2 POP POP JUMP JUMPDEST PUSH0 PUSH2 0x3196 PUSH0 NOT DUP5 PUSH1 0x8 MUL PUSH2 0x317B JUMP JUMPDEST NOT DUP1 DUP4 AND SWAP2 POP POP SWAP3 SWAP2 POP POP JUMP JUMPDEST PUSH0 PUSH2 0x31AE DUP4 DUP4 PUSH2 0x3187 JUMP JUMPDEST SWAP2 POP DUP3 PUSH1 0x2 MUL DUP3 OR SWAP1 POP SWAP3 SWAP2 POP POP JUMP JUMPDEST PUSH2 0x31C8 DUP4 DUP4 PUSH2 0x2FE7 JUMP JUMPDEST PUSH8 0xFFFFFFFFFFFFFFFF DUP2 GT ISZERO PUSH2 0x31E1 JUMPI PUSH2 0x31E0 PUSH2 0x2FF1 JUMP JUMPDEST JUMPDEST PUSH2 0x31EB DUP3 SLOAD PUSH2 0x2F4F JUMP JUMPDEST PUSH2 0x31F6 DUP3 DUP3 DUP6 PUSH2 0x3135 JUMP JUMPDEST PUSH0 PUSH1 0x1F DUP4 GT PUSH1 0x1 DUP2 EQ PUSH2 0x3223 JUMPI PUSH0 DUP5 ISZERO PUSH2 0x3211 JUMPI DUP3 DUP8 ADD CALLDATALOAD SWAP1 POP JUMPDEST PUSH2 0x321B DUP6 DUP3 PUSH2 0x31A3 JUMP JUMPDEST DUP7 SSTORE POP PUSH2 0x3282 JUMP JUMPDEST PUSH1 0x1F NOT DUP5 AND PUSH2 0x3231 DUP7 PUSH2 0x301E JUMP JUMPDEST PUSH0 JUMPDEST DUP3 DUP2 LT ISZERO PUSH2 0x3258 JUMPI DUP5 DUP10 ADD CALLDATALOAD DUP3 SSTORE PUSH1 0x1 DUP3 ADD SWAP2 POP PUSH1 0x20 DUP6 ADD SWAP5 POP PUSH1 0x20 DUP2 ADD SWAP1 POP PUSH2 0x3233 JUMP JUMPDEST DUP7 DUP4 LT ISZERO PUSH2 0x3275 JUMPI DUP5 DUP10 ADD CALLDATALOAD PUSH2 0x3271 PUSH1 0x1F DUP10 AND DUP3 PUSH2 0x3187 JUMP JUMPDEST DUP4 SSTORE POP JUMPDEST PUSH1 0x1 PUSH1 0x2 DUP9 MUL ADD DUP9 SSTORE POP POP POP JUMPDEST POP POP POP POP POP POP POP JUMP JUMPDEST PUSH32 0x496E76616C696420656475636174696F6E436F756E7400000000000000000000 PUSH0 DUP3 ADD MSTORE POP JUMP JUMPDEST PUSH0 PUSH2 0x32BF PUSH1 0x16 DUP4 PUSH2 0x26F5 JUMP JUMPDEST SWAP2 POP PUSH2 0x32CA DUP3 PUSH2 0x328B JUMP JUMPDEST PUSH1 0x20 DUP3 ADD SWAP1 POP SWAP2 SWAP1 POP JUMP JUMPDEST PUSH0 PUSH1 0x20 DUP3 ADD SWAP1 POP DUP2 DUP2 SUB PUSH0 DUP4 ADD MSTORE PUSH2 0x32EC DUP2 PUSH2 0x32B3 JUMP JUMPDEST SWAP1 POP SWAP2 SWAP1 POP JUMP JUMPDEST PUSH32 0x4E487B7100000000000000000000000000000000000000000000000000000000 PUSH0 MSTORE PUSH1 0x32 PUSH1 0x4 MSTORE PUSH1 0x24 PUSH0 REVERT JUMPDEST PUSH2 0x3329 DUP3 PUSH2 0x26EB JUMP JUMPDEST PUSH8 0xFFFFFFFFFFFFFFFF DUP2 GT ISZERO PUSH2 0x3342 JUMPI PUSH2 0x3341 PUSH2 0x2FF1 JUMP JUMPDEST JUMPDEST PUSH2 0x334C DUP3 SLOAD PUSH2 0x2F4F JUMP JUMPDEST PUSH2 0x3357 DUP3 DUP3 DUP6 PUSH2 0x3135 JUMP JUMPDEST PUSH0 PUSH1 0x20 SWAP1 POP PUSH1 0x1F DUP4 GT PUSH1 0x1 DUP2 EQ PUSH2 0x3388 JUMPI PUSH0 DUP5 ISZERO PUSH2 0x3376 JUMPI DUP3 DUP8 ADD MLOAD SWAP1 POP JUMPDEST PUSH2 0x3380 DUP6 DUP3 PUSH2 0x31A3 JUMP JUMPDEST DUP7 SSTORE POP PUSH2 0x33E7 JUMP JUMPDEST PUSH1 0x1F NOT DUP5 AND PUSH2 0x3396 DUP7 PUSH2 0x301E JUMP JUMPDEST PUSH0 JUMPDEST DUP3 DUP2 LT ISZERO PUSH2 0x33BD JUMPI DUP5 DUP10 ADD MLOAD DUP3 SSTORE PUSH1 0x1 DUP3 ADD SWAP2 POP PUSH1 0x20 DUP6 ADD SWAP5 POP PUSH1 0x20 DUP2 ADD SWAP1 POP PUSH2 0x3398 JUMP JUMPDEST DUP7 DUP4 LT ISZERO PUSH2 0x33DA JUMPI DUP5 DUP10 ADD MLOAD PUSH2 0x33D6 PUSH1 0x1F DUP10 AND DUP3 PUSH2 0x3187 JUMP JUMPDEST DUP4 SSTORE POP JUMPDEST PUSH1 0x1 PUSH1 0x2 DUP9 MUL ADD DUP9 SSTORE POP POP POP JUMPDEST POP POP POP POP POP POP JUMP JUMPDEST PUSH32 0x4F6E6C79203320656475636174696F6E2064657461696C7320616C6C6F776564 PUSH0 DUP3 ADD MSTORE POP JUMP JUMPDEST PUSH0 PUSH2 0x3423 PUSH1 0x20 DUP4 PUSH2 0x26F5 JUMP JUMPDEST SWAP2 POP PUSH2 0x342E DUP3 PUSH2 0x33EF JUMP JUMPDEST PUSH1 0x20 DUP3 ADD SWAP1 POP SWAP2 SWAP1 POP JUMP JUMPDEST PUSH0 PUSH1 0x20 DUP3 ADD SWAP1 POP DUP2 DUP2 SUB PUSH0 DUP4 ADD MSTORE PUSH2 0x3450 DUP2 PUSH2 0x3417 JUMP JUMPDEST SWAP1 POP SWAP2 SWAP1 POP JUMP JUMPDEST PUSH32 0x4E487B7100000000000000000000000000000000000000000000000000000000 PUSH0 MSTORE PUSH1 0x11 PUSH1 0x4 MSTORE PUSH1 0x24 PUSH0 REVERT JUMPDEST PUSH0 PUSH2 0x348E DUP3 PUSH2 0x267E JUMP JUMPDEST SWAP2 POP PUSH32 0xFFFFFFFFFFFFFFFFFFFFFFFFFFFFFFFFFFFFFFFFFFFFFFFFFFFFFFFFFFFFFFFF DUP3 SUB PUSH2 0x34C0 JUMPI PUSH2 0x34BF PUSH2 0x3457 JUMP JUMPDEST JUMPDEST PUSH1 0x1 DUP3 ADD SWAP1 POP SWAP2 SWAP1 POP JUMP JUMPDEST PUSH32 0x4F6E6C7920332070726F6A6563747320616C6C6F776564000000000000000000 PUSH0 DUP3 ADD MSTORE POP JUMP JUMPDEST PUSH0 PUSH2 0x34FF PUSH1 0x17 DUP4 PUSH2 0x26F5 JUMP JUMPDEST SWAP2 POP PUSH2 0x350A DUP3 PUSH2 0x34CB JUMP JUMPDEST PUSH1 0x20 DUP3 ADD SWAP1 POP SWAP2 SWAP1 POP JUMP JUMPDEST PUSH0 PUSH1 0x20 DUP3 ADD SWAP1 POP DUP2 DUP2 SUB PUSH0 DUP4 ADD MSTORE PUSH2 0x352C DUP2 PUSH2 0x34F3 JUMP JUMPDEST SWAP1 POP SWAP2 SWAP1 POP JUMP JUMPDEST PUSH32 0x496E76616C696420657870657269656E6365436F756E74000000000000000000 PUSH0 DUP3 ADD MSTORE POP JUMP JUMPDEST PUSH0 PUSH2 0x3567 PUSH1 0x17 DUP4 PUSH2 0x26F5 JUMP JUMPDEST SWAP2 POP PUSH2 0x3572 DUP3 PUSH2 0x3533 JUMP JUMPDEST PUSH1 0x20 DUP3 ADD SWAP1 POP SWAP2 SWAP1 POP JUMP JUMPDEST PUSH0 PUSH1 0x20 DUP3 ADD SWAP1 POP DUP2 DUP2 SUB PUSH0 DUP4 ADD MSTORE PUSH2 0x3594 DUP2 PUSH2 0x355B JUMP JUMPDEST SWAP1 POP SWAP2 SWAP1 POP JUMP INVALID LOG2 PUSH5 0x6970667358 0x22 SLT KECCAK256 PUSH24 0x241E7451A16368F2B6FC51FD98A966681EC3409106EC96C5 0xD 0xDC 0xAA RETURNDATACOPY 0xCF GASLIMIT 0x23 PUSH5 0x736F6C6343 STOP ADDMOD SHR STOP CALLER BLOBHASH KECCAK256 PUSH2 0x6D20 PUSH17 0x75727375696E6720422E20546563682066 PUSH19 0x6F6D20474548552E204120676F6F64206B6E6F PUSH24 0x6C6564676520696E20426C6F636B636861696E2044657665 PUSH13 0x6F706D656E742E204920686176 PUSH6 0x206578706572 PUSH10 0x656E6365206D61696E6C PUSH26 0x20696E20457468657265756D20426C6F636B636861696E2E2049 KECCAK256 PUSH2 0x6D20 PUSH2 0x6C73 PUSH16 0x2061637469766520696E207468652066 PUSH10 0x656C64206F6620636F64 PUSH10 0x6E67202E204920686176 PUSH6 0x20616C736F20 PUSH12 0x65656E20696E746572657374 KECCAK256 PUSH10 0x6E206C6561726E696E67 KECCAK256 PUSH2 0x626F PUSH22 0x7420746563686E6F6C6F67792E20516D545947367854 PUSH20 0x57766E4B374E575565447439765A485439613459 0x4D PUSH14 0x6344376D6731564166325A397548 SLOAD MLOAD PUSH14 0x536A694834464C654C6162575A72 PUSH22 0x77345A734A667779644B4B5264795550643834676733 PUSH10 0x36333951723300000000 "
				},
				"gasEstimates": {
					"creation": {
						"codeDepositCost": "2755400",
						"executionCost": "infinite",
						"totalCost": "infinite"
					},
					"external": {
						"allEductationDetails()": "infinite",
						"allExperienceDetails()": "infinite",
						"allProjects()": "infinite",
						"changeDescription(string)": "infinite",
						"changeEducation(string,string,string,string,uint256)": "infinite",
						"changeExperience(string,string,string,string,uint256)": "infinite",
						"changeImageLink(string)": "infinite",
						"changeProject(string,string,string,string,uint256)": "infinite",
						"changeResumeLink(string)": "infinite",
						"description()": "infinite",
						"donate()": "infinite",
						"educationDetails(uint256)": "infinite",
						"experienceDetails(uint256)": "infinite",
						"imageLink()": "infinite",
						"insertEducation(string,string,string,string)": "infinite",
						"insertExperience(string,string,string,string)": "infinite",
						"insertProject(string,string,string,string)": "infinite",
						"manager()": "2620",
						"projects(uint256)": "infinite",
						"resumeLink()": "infinite"
					}
				},
				"methodIdentifiers": {
					"allEductationDetails()": "8af4f98d",
					"allExperienceDetails()": "36eea422",
					"allProjects()": "2adf13b2",
					"changeDescription(string)": "e6120413",
					"changeEducation(string,string,string,string,uint256)": "5b173a69",
					"changeExperience(string,string,string,string,uint256)": "d921fa82",
					"changeImageLink(string)": "598e7f37",
					"changeProject(string,string,string,string,uint256)": "6fe8e0bd",
					"changeResumeLink(string)": "d3cedf11",
					"description()": "7284e416",
					"donate()": "ed88c68e",
					"educationDetails(uint256)": "7aea95aa",
					"experienceDetails(uint256)": "10ef62c5",
					"imageLink()": "caf7b759",
					"insertEducation(string,string,string,string)": "98f831b6",
					"insertExperience(string,string,string,string)": "5d85a1f4",
					"insertProject(string,string,string,string)": "6426d4c3",
					"manager()": "481c6a75",
					"projects(uint256)": "107046bd",
					"resumeLink()": "5cea6a7c"
				}
			},
			"storageLayout": {
				"storage": [
					{
						"astId": 39,
						"contract": "contracts/Portfolio.sol:Portfolio",
						"label": "projects",
						"offset": 0,
						"slot": "0",
						"type": "t_array(t_struct(Project)12_storage)3_storage"
					},
					{
						"astId": 44,
						"contract": "contracts/Portfolio.sol:Portfolio",
						"label": "educationDetails",
						"offset": 0,
						"slot": "15",
						"type": "t_array(t_struct(Education)23_storage)3_storage"
					},
					{
						"astId": 49,
						"contract": "contracts/Portfolio.sol:Portfolio",
						"label": "experienceDetails",
						"offset": 0,
						"slot": "30",
						"type": "t_array(t_struct(Experience)34_storage)3_storage"
					},
					{
						"astId": 52,
						"contract": "contracts/Portfolio.sol:Portfolio",
						"label": "imageLink",
						"offset": 0,
						"slot": "45",
						"type": "t_string_storage"
					},
					{
						"astId": 55,
						"contract": "contracts/Portfolio.sol:Portfolio",
						"label": "description",
						"offset": 0,
						"slot": "46",
						"type": "t_string_storage"
					},
					{
						"astId": 58,
						"contract": "contracts/Portfolio.sol:Portfolio",
						"label": "resumeLink",
						"offset": 0,
						"slot": "47",
						"type": "t_string_storage"
					},
					{
						"astId": 60,
						"contract": "contracts/Portfolio.sol:Portfolio",
						"label": "projectCount",
						"offset": 0,
						"slot": "48",
						"type": "t_uint256"
					},
					{
						"astId": 62,
						"contract": "contracts/Portfolio.sol:Portfolio",
						"label": "educationCount",
						"offset": 0,
						"slot": "49",
						"type": "t_uint256"
					},
					{
						"astId": 64,
						"contract": "contracts/Portfolio.sol:Portfolio",
						"label": "experienceCount",
						"offset": 0,
						"slot": "50",
						"type": "t_uint256"
					},
					{
						"astId": 66,
						"contract": "contracts/Portfolio.sol:Portfolio",
						"label": "manager",
						"offset": 0,
						"slot": "51",
						"type": "t_address"
					}
				],
				"types": {
					"t_address": {
						"encoding": "inplace",
						"label": "address",
						"numberOfBytes": "20"
					},
					"t_array(t_struct(Education)23_storage)3_storage": {
						"base": "t_struct(Education)23_storage",
						"encoding": "inplace",
						"label": "struct Portfolio.Education[3]",
						"numberOfBytes": "480"
					},
					"t_array(t_struct(Experience)34_storage)3_storage": {
						"base": "t_struct(Experience)34_storage",
						"encoding": "inplace",
						"label": "struct Portfolio.Experience[3]",
						"numberOfBytes": "480"
					},
					"t_array(t_struct(Project)12_storage)3_storage": {
						"base": "t_struct(Project)12_storage",
						"encoding": "inplace",
						"label": "struct Portfolio.Project[3]",
						"numberOfBytes": "480"
					},
					"t_string_storage": {
						"encoding": "bytes",
						"label": "string",
						"numberOfBytes": "32"
					},
					"t_struct(Education)23_storage": {
						"encoding": "inplace",
						"label": "struct Portfolio.Education",
						"members": [
							{
								"astId": 14,
								"contract": "contracts/Portfolio.sol:Portfolio",
								"label": "id",
								"offset": 0,
								"slot": "0",
								"type": "t_uint256"
							},
							{
								"astId": 16,
								"contract": "contracts/Portfolio.sol:Portfolio",
								"label": "date",
								"offset": 0,
								"slot": "1",
								"type": "t_string_storage"
							},
							{
								"astId": 18,
								"contract": "contracts/Portfolio.sol:Portfolio",
								"label": "degree",
								"offset": 0,
								"slot": "2",
								"type": "t_string_storage"
							},
							{
								"astId": 20,
								"contract": "contracts/Portfolio.sol:Portfolio",
								"label": "knowledgeAcquired",
								"offset": 0,
								"slot": "3",
								"type": "t_string_storage"
							},
							{
								"astId": 22,
								"contract": "contracts/Portfolio.sol:Portfolio",
								"label": "instutionName",
								"offset": 0,
								"slot": "4",
								"type": "t_string_storage"
							}
						],
						"numberOfBytes": "160"
					},
					"t_struct(Experience)34_storage": {
						"encoding": "inplace",
						"label": "struct Portfolio.Experience",
						"members": [
							{
								"astId": 25,
								"contract": "contracts/Portfolio.sol:Portfolio",
								"label": "id",
								"offset": 0,
								"slot": "0",
								"type": "t_uint256"
							},
							{
								"astId": 27,
								"contract": "contracts/Portfolio.sol:Portfolio",
								"label": "date",
								"offset": 0,
								"slot": "1",
								"type": "t_string_storage"
							},
							{
								"astId": 29,
								"contract": "contracts/Portfolio.sol:Portfolio",
								"label": "post",
								"offset": 0,
								"slot": "2",
								"type": "t_string_storage"
							},
							{
								"astId": 31,
								"contract": "contracts/Portfolio.sol:Portfolio",
								"label": "knowledgeAcquired",
								"offset": 0,
								"slot": "3",
								"type": "t_string_storage"
							},
							{
								"astId": 33,
								"contract": "contracts/Portfolio.sol:Portfolio",
								"label": "compamyName",
								"offset": 0,
								"slot": "4",
								"type": "t_string_storage"
							}
						],
						"numberOfBytes": "160"
					},
					"t_struct(Project)12_storage": {
						"encoding": "inplace",
						"label": "struct Portfolio.Project",
						"members": [
							{
								"astId": 3,
								"contract": "contracts/Portfolio.sol:Portfolio",
								"label": "id",
								"offset": 0,
								"slot": "0",
								"type": "t_uint256"
							},
							{
								"astId": 5,
								"contract": "contracts/Portfolio.sol:Portfolio",
								"label": "name",
								"offset": 0,
								"slot": "1",
								"type": "t_string_storage"
							},
							{
								"astId": 7,
								"contract": "contracts/Portfolio.sol:Portfolio",
								"label": "description",
								"offset": 0,
								"slot": "2",
								"type": "t_string_storage"
							},
							{
								"astId": 9,
								"contract": "contracts/Portfolio.sol:Portfolio",
								"label": "image",
								"offset": 0,
								"slot": "3",
								"type": "t_string_storage"
							},
							{
								"astId": 11,
								"contract": "contracts/Portfolio.sol:Portfolio",
								"label": "githubLink",
								"offset": 0,
								"slot": "4",
								"type": "t_string_storage"
							}
						],
						"numberOfBytes": "160"
					},
					"t_uint256": {
						"encoding": "inplace",
						"label": "uint256",
						"numberOfBytes": "32"
					}
				}
			},
			"userdoc": {
				"kind": "user",
				"methods": {},
				"version": 1
			}
		}
	}
}