{
	"contracts/Tracking.sol": {
		"Tracking": {
			"abi": [
				{
					"inputs": [],
					"stateMutability": "nonpayable",
					"type": "constructor"
				},
				{
					"anonymous": false,
					"inputs": [
						{
							"indexed": true,
							"internalType": "address",
							"name": "sender",
							"type": "address"
						},
						{
							"indexed": true,
							"internalType": "address",
							"name": "receiver",
							"type": "address"
						},
						{
							"indexed": false,
							"internalType": "uint256",
							"name": "pickupTime",
							"type": "uint256"
						},
						{
							"indexed": false,
							"internalType": "uint256",
							"name": "distance",
							"type": "uint256"
						},
						{
							"indexed": false,
							"internalType": "uint256",
							"name": "price",
							"type": "uint256"
						}
					],
					"name": "ShipmentCreated",
					"type": "event"
				},
				{
					"anonymous": false,
					"inputs": [
						{
							"indexed": true,
							"internalType": "address",
							"name": "sender",
							"type": "address"
						},
						{
							"indexed": true,
							"internalType": "address",
							"name": "receiver",
							"type": "address"
						},
						{
							"indexed": false,
							"internalType": "uint256",
							"name": "deliveryTime",
							"type": "uint256"
						}
					],
					"name": "ShipmentDelivered",
					"type": "event"
				},
				{
					"anonymous": false,
					"inputs": [
						{
							"indexed": true,
							"internalType": "address",
							"name": "sender",
							"type": "address"
						},
						{
							"indexed": true,
							"internalType": "address",
							"name": "receiver",
							"type": "address"
						},
						{
							"indexed": false,
							"internalType": "uint256",
							"name": "pickupTime",
							"type": "uint256"
						}
					],
					"name": "ShipmentInTransit",
					"type": "event"
				},
				{
					"anonymous": false,
					"inputs": [
						{
							"indexed": true,
							"internalType": "address",
							"name": "sender",
							"type": "address"
						},
						{
							"indexed": true,
							"internalType": "address",
							"name": "receiver",
							"type": "address"
						},
						{
							"indexed": false,
							"internalType": "uint256",
							"name": "amount",
							"type": "uint256"
						}
					],
					"name": "ShipmentPaid",
					"type": "event"
				},
				{
					"inputs": [
						{
							"internalType": "address",
							"name": "_sender",
							"type": "address"
						},
						{
							"internalType": "address",
							"name": "_receiver",
							"type": "address"
						},
						{
							"internalType": "uint256",
							"name": "_index",
							"type": "uint256"
						}
					],
					"name": "completeShipment",
					"outputs": [],
					"stateMutability": "nonpayable",
					"type": "function"
				},
				{
					"inputs": [
						{
							"internalType": "address",
							"name": "_receiver",
							"type": "address"
						},
						{
							"internalType": "uint256",
							"name": "_pickupTime",
							"type": "uint256"
						},
						{
							"internalType": "uint256",
							"name": "_distance",
							"type": "uint256"
						},
						{
							"internalType": "uint256",
							"name": "_price",
							"type": "uint256"
						}
					],
					"name": "createShipment",
					"outputs": [],
					"stateMutability": "payable",
					"type": "function"
				},
				{
					"inputs": [],
					"name": "getAllTransactions",
					"outputs": [
						{
							"components": [
								{
									"internalType": "address",
									"name": "sender",
									"type": "address"
								},
								{
									"internalType": "address",
									"name": "receiver",
									"type": "address"
								},
								{
									"internalType": "uint256",
									"name": "pickupTime",
									"type": "uint256"
								},
								{
									"internalType": "uint256",
									"name": "deliveryTime",
									"type": "uint256"
								},
								{
									"internalType": "uint256",
									"name": "distance",
									"type": "uint256"
								},
								{
									"internalType": "uint256",
									"name": "price",
									"type": "uint256"
								},
								{
									"internalType": "enum Tracking.ShipmentStatus",
									"name": "status",
									"type": "uint8"
								},
								{
									"internalType": "bool",
									"name": "isPaid",
									"type": "bool"
								}
							],
							"internalType": "struct Tracking.TyepShipment[]",
							"name": "",
							"type": "tuple[]"
						}
					],
					"stateMutability": "view",
					"type": "function"
				},
				{
					"inputs": [
						{
							"internalType": "address",
							"name": "_sender",
							"type": "address"
						},
						{
							"internalType": "uint256",
							"name": "_index",
							"type": "uint256"
						}
					],
					"name": "getShipment",
					"outputs": [
						{
							"internalType": "address",
							"name": "",
							"type": "address"
						},
						{
							"internalType": "address",
							"name": "",
							"type": "address"
						},
						{
							"internalType": "uint256",
							"name": "",
							"type": "uint256"
						},
						{
							"internalType": "uint256",
							"name": "",
							"type": "uint256"
						},
						{
							"internalType": "uint256",
							"name": "",
							"type": "uint256"
						},
						{
							"internalType": "uint256",
							"name": "",
							"type": "uint256"
						},
						{
							"internalType": "enum Tracking.ShipmentStatus",
							"name": "",
							"type": "uint8"
						},
						{
							"internalType": "bool",
							"name": "",
							"type": "bool"
						}
					],
					"stateMutability": "view",
					"type": "function"
				},
				{
					"inputs": [
						{
							"internalType": "address",
							"name": "_sender",
							"type": "address"
						}
					],
					"name": "getShipmentsCount",
					"outputs": [
						{
							"internalType": "uint256",
							"name": "",
							"type": "uint256"
						}
					],
					"stateMutability": "view",
					"type": "function"
				},
				{
					"inputs": [],
					"name": "shipmentCount",
					"outputs": [
						{
							"internalType": "uint256",
							"name": "",
							"type": "uint256"
						}
					],
					"stateMutability": "view",
					"type": "function"
				},
				{
					"inputs": [
						{
							"internalType": "address",
							"name": "",
							"type": "address"
						},
						{
							"internalType": "uint256",
							"name": "",
							"type": "uint256"
						}
					],
					"name": "shipments",
					"outputs": [
						{
							"internalType": "address",
							"name": "sender",
							"type": "address"
						},
						{
							"internalType": "address",
							"name": "receiver",
							"type": "address"
						},
						{
							"internalType": "uint256",
							"name": "pickupTime",
							"type": "uint256"
						},
						{
							"internalType": "uint256",
							"name": "deliveryTime",
							"type": "uint256"
						},
						{
							"internalType": "uint256",
							"name": "distance",
							"type": "uint256"
						},
						{
							"internalType": "uint256",
							"name": "price",
							"type": "uint256"
						},
						{
							"internalType": "enum Tracking.ShipmentStatus",
							"name": "status",
							"type": "uint8"
						},
						{
							"internalType": "bool",
							"name": "isPaid",
							"type": "bool"
						}
					],
					"stateMutability": "view",
					"type": "function"
				},
				{
					"inputs": [
						{
							"internalType": "address",
							"name": "_sender",
							"type": "address"
						},
						{
							"internalType": "address",
							"name": "_receiver",
							"type": "address"
						},
						{
							"internalType": "uint256",
							"name": "_index",
							"type": "uint256"
						}
					],
					"name": "startShipment",
					"outputs": [],
					"stateMutability": "nonpayable",
					"type": "function"
				}
			],
			"devdoc": {
				"kind": "dev",
				"methods": {},
				"version": 1
			},
			"evm": {
				"assembly": "    /* \"contracts/Tracking.sol\":60:4380  contract Tracking {... */\n  mstore(0x40, 0x80)\n    /* \"contracts/Tracking.sol\":1210:1260  constructor() {... */\n  callvalue\n  dup1\n  iszero\n  tag_1\n  jumpi\n  0x00\n  dup1\n  revert\ntag_1:\n  pop\n    /* \"contracts/Tracking.sol\":1251:1252  0 */\n  0x00\n    /* \"contracts/Tracking.sol\":1235:1248  shipmentCount */\n  0x01\n    /* \"contracts/Tracking.sol\":1235:1252  shipmentCount = 0 */\n  dup2\n  swap1\n  sstore\n  pop\n    /* \"contracts/Tracking.sol\":60:4380  contract Tracking {... */\n  dataSize(sub_0)\n  dup1\n  dataOffset(sub_0)\n  0x00\n  codecopy\n  0x00\n  return\nstop\n\nsub_0: assembly {\n        /* \"contracts/Tracking.sol\":60:4380  contract Tracking {... */\n      mstore(0x40, 0x80)\n      jumpi(tag_1, lt(calldatasize, 0x04))\n      shr(0xe0, calldataload(0x00))\n      dup1\n      0x7ff5265d\n      gt\n      tag_10\n      jumpi\n      dup1\n      0x7ff5265d\n      eq\n      tag_6\n      jumpi\n      dup1\n      0x8365da54\n      eq\n      tag_7\n      jumpi\n      dup1\n      0xaace20b7\n      eq\n      tag_8\n      jumpi\n      dup1\n      0xcbc4b181\n      eq\n      tag_9\n      jumpi\n      jump(tag_1)\n    tag_10:\n      dup1\n      0x179a878c\n      eq\n      tag_2\n      jumpi\n      dup1\n      0x27506f53\n      eq\n      tag_3\n      jumpi\n      dup1\n      0x41fdc195\n      eq\n      tag_4\n      jumpi\n      dup1\n      0x5667e02f\n      eq\n      tag_5\n      jumpi\n    tag_1:\n      0x00\n      dup1\n      revert\n        /* \"contracts/Tracking.sol\":2706:3685  function completeShipment(address _sender, address _receiver, uint256 _index) public {... */\n    tag_2:\n      callvalue\n      dup1\n      iszero\n      tag_11\n      jumpi\n      0x00\n      dup1\n      revert\n    tag_11:\n      pop\n      tag_12\n      0x04\n      dup1\n      calldatasize\n      sub\n      dup2\n      add\n      swap1\n      tag_13\n      swap2\n      swap1\n      tag_14\n      jump\t// in\n    tag_13:\n      tag_15\n      jump\t// in\n    tag_12:\n      stop\n        /* \"contracts/Tracking.sol\":4225:4370  function getAllTransactions()... */\n    tag_3:\n      callvalue\n      dup1\n      iszero\n      tag_16\n      jumpi\n      0x00\n      dup1\n      revert\n    tag_16:\n      pop\n      tag_17\n      tag_18\n      jump\t// in\n    tag_17:\n      mload(0x40)\n      tag_19\n      swap2\n      swap1\n      tag_20\n      jump\t// in\n    tag_19:\n      mload(0x40)\n      dup1\n      swap2\n      sub\n      swap1\n      return\n        /* \"contracts/Tracking.sol\":4091:4216  function getShipmentsCount(address _sender) public view returns (uint256) {... */\n    tag_4:\n      callvalue\n      dup1\n      iszero\n      tag_21\n      jumpi\n      0x00\n      dup1\n      revert\n    tag_21:\n      pop\n      tag_22\n      0x04\n      dup1\n      calldatasize\n      sub\n      dup2\n      add\n      swap1\n      tag_23\n      swap2\n      swap1\n      tag_24\n      jump\t// in\n    tag_23:\n      tag_25\n      jump\t// in\n    tag_22:\n      mload(0x40)\n      tag_26\n      swap2\n      swap1\n      tag_27\n      jump\t// in\n    tag_26:\n      mload(0x40)\n      dup1\n      swap2\n      sub\n      swap1\n      return\n        /* \"contracts/Tracking.sol\":396:443  mapping(address => Shipment[]) public shipments */\n    tag_5:\n      callvalue\n      dup1\n      iszero\n      tag_28\n      jumpi\n      0x00\n      dup1\n      revert\n    tag_28:\n      pop\n      tag_29\n      0x04\n      dup1\n      calldatasize\n      sub\n      dup2\n      add\n      swap1\n      tag_30\n      swap2\n      swap1\n      tag_31\n      jump\t// in\n    tag_30:\n      tag_32\n      jump\t// in\n    tag_29:\n      mload(0x40)\n      tag_33\n      swap9\n      swap8\n      swap7\n      swap6\n      swap5\n      swap4\n      swap3\n      swap2\n      swap1\n      tag_34\n      jump\t// in\n    tag_33:\n      mload(0x40)\n      dup1\n      swap2\n      sub\n      swap1\n      return\n        /* \"contracts/Tracking.sol\":2111:2698  function startShipment(address _sender, address _receiver, uint256 _index) public {... */\n    tag_6:\n      callvalue\n      dup1\n      iszero\n      tag_35\n      jumpi\n      0x00\n      dup1\n      revert\n    tag_35:\n      pop\n      tag_36\n      0x04\n      dup1\n      calldatasize\n      sub\n      dup2\n      add\n      swap1\n      tag_37\n      swap2\n      swap1\n      tag_14\n      jump\t// in\n    tag_37:\n      tag_38\n      jump\t// in\n    tag_36:\n      stop\n        /* \"contracts/Tracking.sol\":3693:4083  function getShipment(address _sender, uint256 _index) public view returns (address, address, uint256, uint256, uint256, uint256, ShipmentStatus, bool) {... */\n    tag_7:\n      callvalue\n      dup1\n      iszero\n      tag_39\n      jumpi\n      0x00\n      dup1\n      revert\n    tag_39:\n      pop\n      tag_40\n      0x04\n      dup1\n      calldatasize\n      sub\n      dup2\n      add\n      swap1\n      tag_41\n      swap2\n      swap1\n      tag_31\n      jump\t// in\n    tag_41:\n      tag_42\n      jump\t// in\n    tag_40:\n      mload(0x40)\n      tag_43\n      swap9\n      swap8\n      swap7\n      swap6\n      swap5\n      swap4\n      swap3\n      swap2\n      swap1\n      tag_34\n      jump\t// in\n    tag_43:\n      mload(0x40)\n      dup1\n      swap2\n      sub\n      swap1\n      return\n        /* \"contracts/Tracking.sol\":450:478  uint256 public shipmentCount */\n    tag_8:\n      callvalue\n      dup1\n      iszero\n      tag_44\n      jumpi\n      0x00\n      dup1\n      revert\n    tag_44:\n      pop\n      tag_45\n      tag_46\n      jump\t// in\n    tag_45:\n      mload(0x40)\n      tag_47\n      swap2\n      swap1\n      tag_27\n      jump\t// in\n    tag_47:\n      mload(0x40)\n      dup1\n      swap2\n      sub\n      swap1\n      return\n        /* \"contracts/Tracking.sol\":1269:2103  function createShipment(address _receiver, uint256 _pickupTime, uint256 _distance, uint256 _price) public payable {... */\n    tag_9:\n      tag_48\n      0x04\n      dup1\n      calldatasize\n      sub\n      dup2\n      add\n      swap1\n      tag_49\n      swap2\n      swap1\n      tag_50\n      jump\t// in\n    tag_49:\n      tag_51\n      jump\t// in\n    tag_48:\n      stop\n        /* \"contracts/Tracking.sol\":2706:3685  function completeShipment(address _sender, address _receiver, uint256 _index) public {... */\n    tag_15:\n        /* \"contracts/Tracking.sol\":2802:2827  Shipment storage shipment */\n      0x00\n        /* \"contracts/Tracking.sol\":2830:2839  shipments */\n      dup1\n        /* \"contracts/Tracking.sol\":2830:2848  shipments[_sender] */\n      0x00\n        /* \"contracts/Tracking.sol\":2840:2847  _sender */\n      dup6\n        /* \"contracts/Tracking.sol\":2830:2848  shipments[_sender] */\n      0xffffffffffffffffffffffffffffffffffffffff\n      and\n      0xffffffffffffffffffffffffffffffffffffffff\n      and\n      dup2\n      mstore\n      0x20\n      add\n      swap1\n      dup2\n      mstore\n      0x20\n      add\n      0x00\n      keccak256\n        /* \"contracts/Tracking.sol\":2849:2855  _index */\n      dup3\n        /* \"contracts/Tracking.sol\":2830:2856  shipments[_sender][_index] */\n      dup2\n      sload\n      dup2\n      lt\n      tag_53\n      jumpi\n      tag_54\n      tag_55\n      jump\t// in\n    tag_54:\n    tag_53:\n      swap1\n      0x00\n      mstore\n      keccak256(0x00, 0x20)\n      swap1\n      0x07\n      mul\n      add\n        /* \"contracts/Tracking.sol\":2802:2856  Shipment storage shipment = shipments[_sender][_index] */\n      swap1\n      pop\n        /* \"contracts/Tracking.sol\":2867:2900  TyepShipment storage tyepShipment */\n      0x00\n        /* \"contracts/Tracking.sol\":2903:2916  tyepShipments */\n      0x02\n        /* \"contracts/Tracking.sol\":2917:2923  _index */\n      dup4\n        /* \"contracts/Tracking.sol\":2903:2924  tyepShipments[_index] */\n      dup2\n      sload\n      dup2\n      lt\n      tag_57\n      jumpi\n      tag_58\n      tag_55\n      jump\t// in\n    tag_58:\n    tag_57:\n      swap1\n      0x00\n      mstore\n      keccak256(0x00, 0x20)\n      swap1\n      0x07\n      mul\n      add\n        /* \"contracts/Tracking.sol\":2867:2924  TyepShipment storage tyepShipment = tyepShipments[_index] */\n      swap1\n      pop\n        /* \"contracts/Tracking.sol\":2966:2975  _receiver */\n      dup4\n        /* \"contracts/Tracking.sol\":2945:2975  shipment.receiver == _receiver */\n      0xffffffffffffffffffffffffffffffffffffffff\n      and\n        /* \"contracts/Tracking.sol\":2945:2953  shipment */\n      dup3\n        /* \"contracts/Tracking.sol\":2945:2962  shipment.receiver */\n      0x01\n      add\n      0x00\n      swap1\n      sload\n      swap1\n      0x0100\n      exp\n      swap1\n      div\n      0xffffffffffffffffffffffffffffffffffffffff\n      and\n        /* \"contracts/Tracking.sol\":2945:2975  shipment.receiver == _receiver */\n      0xffffffffffffffffffffffffffffffffffffffff\n      and\n      eq\n        /* \"contracts/Tracking.sol\":2937:2997  require(shipment.receiver == _receiver, \"Invalid receiver.\") */\n      tag_60\n      jumpi\n      mload(0x40)\n      0x08c379a000000000000000000000000000000000000000000000000000000000\n      dup2\n      mstore\n      0x04\n      add\n      tag_61\n      swap1\n      tag_62\n      jump\t// in\n    tag_61:\n      mload(0x40)\n      dup1\n      swap2\n      sub\n      swap1\n      revert\n    tag_60:\n        /* \"contracts/Tracking.sol\":3035:3060  ShipmentStatus.IN_TRANSIT */\n      0x01\n        /* \"contracts/Tracking.sol\":3016:3060  shipment.status == ShipmentStatus.IN_TRANSIT */\n      0x02\n      dup2\n      gt\n      iszero\n      tag_63\n      jumpi\n      tag_64\n      tag_65\n      jump\t// in\n    tag_64:\n    tag_63:\n        /* \"contracts/Tracking.sol\":3016:3024  shipment */\n      dup3\n        /* \"contracts/Tracking.sol\":3016:3031  shipment.status */\n      0x06\n      add\n      0x00\n      swap1\n      sload\n      swap1\n      0x0100\n      exp\n      swap1\n      div\n      0xff\n      and\n        /* \"contracts/Tracking.sol\":3016:3060  shipment.status == ShipmentStatus.IN_TRANSIT */\n      0x02\n      dup2\n      gt\n      iszero\n      tag_66\n      jumpi\n      tag_67\n      tag_65\n      jump\t// in\n    tag_67:\n    tag_66:\n      eq\n        /* \"contracts/Tracking.sol\":3008:3089  require(shipment.status == ShipmentStatus.IN_TRANSIT, \"Shipment not in transit.\") */\n      tag_68\n      jumpi\n      mload(0x40)\n      0x08c379a000000000000000000000000000000000000000000000000000000000\n      dup2\n      mstore\n      0x04\n      add\n      tag_69\n      swap1\n      tag_70\n      jump\t// in\n    tag_69:\n      mload(0x40)\n      dup1\n      swap2\n      sub\n      swap1\n      revert\n    tag_68:\n        /* \"contracts/Tracking.sol\":3109:3117  shipment */\n      dup2\n        /* \"contracts/Tracking.sol\":3109:3124  shipment.isPaid */\n      0x06\n      add\n      0x01\n      swap1\n      sload\n      swap1\n      0x0100\n      exp\n      swap1\n      div\n      0xff\n      and\n        /* \"contracts/Tracking.sol\":3108:3124  !shipment.isPaid */\n      iszero\n        /* \"contracts/Tracking.sol\":3100:3151  require(!shipment.isPaid, \"Shipment already paid.\") */\n      tag_71\n      jumpi\n      mload(0x40)\n      0x08c379a000000000000000000000000000000000000000000000000000000000\n      dup2\n      mstore\n      0x04\n      add\n      tag_72\n      swap1\n      tag_73\n      jump\t// in\n    tag_72:\n      mload(0x40)\n      dup1\n      swap2\n      sub\n      swap1\n      revert\n    tag_71:\n        /* \"contracts/Tracking.sol\":3183:3207  ShipmentStatus.DELIVERED */\n      0x02\n        /* \"contracts/Tracking.sol\":3165:3173  shipment */\n      dup3\n        /* \"contracts/Tracking.sol\":3165:3180  shipment.status */\n      0x06\n      add\n      0x00\n        /* \"contracts/Tracking.sol\":3165:3207  shipment.status = ShipmentStatus.DELIVERED */\n      0x0100\n      exp\n      dup2\n      sload\n      dup2\n      0xff\n      mul\n      not\n      and\n      swap1\n      dup4\n      0x02\n      dup2\n      gt\n      iszero\n      tag_74\n      jumpi\n      tag_75\n      tag_65\n      jump\t// in\n    tag_75:\n    tag_74:\n      mul\n      or\n      swap1\n      sstore\n      pop\n        /* \"contracts/Tracking.sol\":3241:3265  ShipmentStatus.DELIVERED */\n      0x02\n        /* \"contracts/Tracking.sol\":3219:3231  tyepShipment */\n      dup2\n        /* \"contracts/Tracking.sol\":3219:3238  tyepShipment.status */\n      0x06\n      add\n      0x00\n        /* \"contracts/Tracking.sol\":3219:3265  tyepShipment.status = ShipmentStatus.DELIVERED */\n      0x0100\n      exp\n      dup2\n      sload\n      dup2\n      0xff\n      mul\n      not\n      and\n      swap1\n      dup4\n      0x02\n      dup2\n      gt\n      iszero\n      tag_76\n      jumpi\n      tag_77\n      tag_65\n      jump\t// in\n    tag_77:\n    tag_76:\n      mul\n      or\n      swap1\n      sstore\n      pop\n        /* \"contracts/Tracking.sol\":3305:3320  block.timestamp */\n      timestamp\n        /* \"contracts/Tracking.sol\":3277:3289  tyepShipment */\n      dup2\n        /* \"contracts/Tracking.sol\":3277:3302  tyepShipment.deliveryTime */\n      0x03\n      add\n        /* \"contracts/Tracking.sol\":3277:3320  tyepShipment.deliveryTime = block.timestamp */\n      dup2\n      swap1\n      sstore\n      pop\n        /* \"contracts/Tracking.sol\":3356:3371  block.timestamp */\n      timestamp\n        /* \"contracts/Tracking.sol\":3332:3340  shipment */\n      dup3\n        /* \"contracts/Tracking.sol\":3332:3353  shipment.deliveryTime */\n      0x03\n      add\n        /* \"contracts/Tracking.sol\":3332:3371  shipment.deliveryTime = block.timestamp */\n      dup2\n      swap1\n      sstore\n      pop\n        /* \"contracts/Tracking.sol\":3384:3398  uint256 amount */\n      0x00\n        /* \"contracts/Tracking.sol\":3401:3409  shipment */\n      dup3\n        /* \"contracts/Tracking.sol\":3401:3415  shipment.price */\n      0x05\n      add\n      sload\n        /* \"contracts/Tracking.sol\":3384:3415  uint256 amount = shipment.price */\n      swap1\n      pop\n        /* \"contracts/Tracking.sol\":3436:3444  shipment */\n      dup3\n        /* \"contracts/Tracking.sol\":3436:3453  shipment.receiver */\n      0x01\n      add\n      0x00\n      swap1\n      sload\n      swap1\n      0x0100\n      exp\n      swap1\n      div\n      0xffffffffffffffffffffffffffffffffffffffff\n      and\n        /* \"contracts/Tracking.sol\":3428:3463  payable(shipment.receiver).transfer */\n      0xffffffffffffffffffffffffffffffffffffffff\n      and\n        /* \"contracts/Tracking.sol\":3428:3471  payable(shipment.receiver).transfer(amount) */\n      0x08fc\n        /* \"contracts/Tracking.sol\":3464:3470  amount */\n      dup3\n        /* \"contracts/Tracking.sol\":3428:3471  payable(shipment.receiver).transfer(amount) */\n      swap1\n      dup2\n      iszero\n      mul\n      swap1\n      mload(0x40)\n      0x00\n      mload(0x40)\n      dup1\n      dup4\n      sub\n      dup2\n      dup6\n      dup9\n      dup9\n      call\n      swap4\n      pop\n      pop\n      pop\n      pop\n      iszero\n      dup1\n      iszero\n      tag_79\n      jumpi\n      returndatasize\n      0x00\n      dup1\n      returndatacopy\n      revert(0x00, returndatasize)\n    tag_79:\n      pop\n        /* \"contracts/Tracking.sol\":3502:3506  true */\n      0x01\n        /* \"contracts/Tracking.sol\":3484:3492  shipment */\n      dup4\n        /* \"contracts/Tracking.sol\":3484:3499  shipment.isPaid */\n      0x06\n      add\n      0x01\n        /* \"contracts/Tracking.sol\":3484:3506  shipment.isPaid = true */\n      0x0100\n      exp\n      dup2\n      sload\n      dup2\n      0xff\n      mul\n      not\n      and\n      swap1\n      dup4\n      iszero\n      iszero\n      mul\n      or\n      swap1\n      sstore\n      pop\n        /* \"contracts/Tracking.sol\":3539:3543  true */\n      0x01\n        /* \"contracts/Tracking.sol\":3517:3529  tyepShipment */\n      dup3\n        /* \"contracts/Tracking.sol\":3517:3536  tyepShipment.isPaid */\n      0x06\n      add\n      0x01\n        /* \"contracts/Tracking.sol\":3517:3543  tyepShipment.isPaid = true */\n      0x0100\n      exp\n      dup2\n      sload\n      dup2\n      0xff\n      mul\n      not\n      and\n      swap1\n      dup4\n      iszero\n      iszero\n      mul\n      or\n      swap1\n      sstore\n      pop\n        /* \"contracts/Tracking.sol\":3588:3597  _receiver */\n      dup5\n        /* \"contracts/Tracking.sol\":3561:3621  ShipmentDelivered(_sender, _receiver, shipment.deliveryTime) */\n      0xffffffffffffffffffffffffffffffffffffffff\n      and\n        /* \"contracts/Tracking.sol\":3579:3586  _sender */\n      dup7\n        /* \"contracts/Tracking.sol\":3561:3621  ShipmentDelivered(_sender, _receiver, shipment.deliveryTime) */\n      0xffffffffffffffffffffffffffffffffffffffff\n      and\n      0x3746ccceb54f44c9b0ee0120e596168d07ec9f6ca303cfdd9810d3b2e2686a2e\n        /* \"contracts/Tracking.sol\":3599:3607  shipment */\n      dup6\n        /* \"contracts/Tracking.sol\":3599:3620  shipment.deliveryTime */\n      0x03\n      add\n      sload\n        /* \"contracts/Tracking.sol\":3561:3621  ShipmentDelivered(_sender, _receiver, shipment.deliveryTime) */\n      mload(0x40)\n      tag_80\n      swap2\n      swap1\n      tag_27\n      jump\t// in\n    tag_80:\n      mload(0x40)\n      dup1\n      swap2\n      sub\n      swap1\n      log3\n        /* \"contracts/Tracking.sol\":3659:3668  _receiver */\n      dup5\n        /* \"contracts/Tracking.sol\":3637:3677  ShipmentPaid(_sender, _receiver, amount) */\n      0xffffffffffffffffffffffffffffffffffffffff\n      and\n        /* \"contracts/Tracking.sol\":3650:3657  _sender */\n      dup7\n        /* \"contracts/Tracking.sol\":3637:3677  ShipmentPaid(_sender, _receiver, amount) */\n      0xffffffffffffffffffffffffffffffffffffffff\n      and\n      0x2b6f2473aebafaf8d0889669490135928ec4454d2e29a103fd39693bbca6aef1\n        /* \"contracts/Tracking.sol\":3670:3676  amount */\n      dup4\n        /* \"contracts/Tracking.sol\":3637:3677  ShipmentPaid(_sender, _receiver, amount) */\n      mload(0x40)\n      tag_81\n      swap2\n      swap1\n      tag_27\n      jump\t// in\n    tag_81:\n      mload(0x40)\n      dup1\n      swap2\n      sub\n      swap1\n      log3\n        /* \"contracts/Tracking.sol\":2791:3685  {... */\n      pop\n      pop\n      pop\n        /* \"contracts/Tracking.sol\":2706:3685  function completeShipment(address _sender, address _receiver, uint256 _index) public {... */\n      pop\n      pop\n      pop\n      jump\t// out\n        /* \"contracts/Tracking.sol\":4225:4370  function getAllTransactions()... */\n    tag_18:\n        /* \"contracts/Tracking.sol\":4303:4324  TyepShipment[] memory */\n      0x60\n        /* \"contracts/Tracking.sol\":4349:4362  tyepShipments */\n      0x02\n        /* \"contracts/Tracking.sol\":4342:4362  return tyepShipments */\n      dup1\n      sload\n      dup1\n      0x20\n      mul\n      0x20\n      add\n      mload(0x40)\n      swap1\n      dup2\n      add\n      0x40\n      mstore\n      dup1\n      swap3\n      swap2\n      swap1\n      dup2\n      dup2\n      mstore\n      0x20\n      add\n      0x00\n      swap1\n    tag_83:\n      dup3\n      dup3\n      lt\n      iszero\n      tag_84\n      jumpi\n      dup4\n      dup3\n      swap1\n      0x00\n      mstore\n      keccak256(0x00, 0x20)\n      swap1\n      0x07\n      mul\n      add\n      mload(0x40)\n      dup1\n      0x0100\n      add\n      0x40\n      mstore\n      swap1\n      dup2\n      0x00\n      dup3\n      add\n      0x00\n      swap1\n      sload\n      swap1\n      0x0100\n      exp\n      swap1\n      div\n      0xffffffffffffffffffffffffffffffffffffffff\n      and\n      0xffffffffffffffffffffffffffffffffffffffff\n      and\n      0xffffffffffffffffffffffffffffffffffffffff\n      and\n      dup2\n      mstore\n      0x20\n      add\n      0x01\n      dup3\n      add\n      0x00\n      swap1\n      sload\n      swap1\n      0x0100\n      exp\n      swap1\n      div\n      0xffffffffffffffffffffffffffffffffffffffff\n      and\n      0xffffffffffffffffffffffffffffffffffffffff\n      and\n      0xffffffffffffffffffffffffffffffffffffffff\n      and\n      dup2\n      mstore\n      0x20\n      add\n      0x02\n      dup3\n      add\n      sload\n      dup2\n      mstore\n      0x20\n      add\n      0x03\n      dup3\n      add\n      sload\n      dup2\n      mstore\n      0x20\n      add\n      0x04\n      dup3\n      add\n      sload\n      dup2\n      mstore\n      0x20\n      add\n      0x05\n      dup3\n      add\n      sload\n      dup2\n      mstore\n      0x20\n      add\n      0x06\n      dup3\n      add\n      0x00\n      swap1\n      sload\n      swap1\n      0x0100\n      exp\n      swap1\n      div\n      0xff\n      and\n      0x02\n      dup2\n      gt\n      iszero\n      tag_86\n      jumpi\n      tag_87\n      tag_65\n      jump\t// in\n    tag_87:\n    tag_86:\n      0x02\n      dup2\n      gt\n      iszero\n      tag_88\n      jumpi\n      tag_89\n      tag_65\n      jump\t// in\n    tag_89:\n    tag_88:\n      dup2\n      mstore\n      0x20\n      add\n      0x06\n      dup3\n      add\n      0x01\n      swap1\n      sload\n      swap1\n      0x0100\n      exp\n      swap1\n      div\n      0xff\n      and\n      iszero\n      iszero\n      iszero\n      iszero\n      dup2\n      mstore\n      pop\n      pop\n      dup2\n      mstore\n      0x20\n      add\n      swap1\n      0x01\n      add\n      swap1\n      jump(tag_83)\n    tag_84:\n      pop\n      pop\n      pop\n      pop\n      swap1\n      pop\n        /* \"contracts/Tracking.sol\":4225:4370  function getAllTransactions()... */\n      swap1\n      jump\t// out\n        /* \"contracts/Tracking.sol\":4091:4216  function getShipmentsCount(address _sender) public view returns (uint256) {... */\n    tag_25:\n        /* \"contracts/Tracking.sol\":4156:4163  uint256 */\n      0x00\n        /* \"contracts/Tracking.sol\":4183:4192  shipments */\n      dup1\n        /* \"contracts/Tracking.sol\":4183:4201  shipments[_sender] */\n      0x00\n        /* \"contracts/Tracking.sol\":4193:4200  _sender */\n      dup4\n        /* \"contracts/Tracking.sol\":4183:4201  shipments[_sender] */\n      0xffffffffffffffffffffffffffffffffffffffff\n      and\n      0xffffffffffffffffffffffffffffffffffffffff\n      and\n      dup2\n      mstore\n      0x20\n      add\n      swap1\n      dup2\n      mstore\n      0x20\n      add\n      0x00\n      keccak256\n        /* \"contracts/Tracking.sol\":4183:4208  shipments[_sender].length */\n      dup1\n      sload\n      swap1\n      pop\n        /* \"contracts/Tracking.sol\":4176:4208  return shipments[_sender].length */\n      swap1\n      pop\n        /* \"contracts/Tracking.sol\":4091:4216  function getShipmentsCount(address _sender) public view returns (uint256) {... */\n      swap2\n      swap1\n      pop\n      jump\t// out\n        /* \"contracts/Tracking.sol\":396:443  mapping(address => Shipment[]) public shipments */\n    tag_32:\n      mstore(0x20, 0x00)\n      dup2\n      0x00\n      mstore\n      keccak256(0x00, 0x40)\n      dup2\n      dup2\n      sload\n      dup2\n      lt\n      tag_91\n      jumpi\n      0x00\n      dup1\n      revert\n    tag_91:\n      swap1\n      0x00\n      mstore\n      keccak256(0x00, 0x20)\n      swap1\n      0x07\n      mul\n      add\n      0x00\n      swap2\n      pop\n      swap2\n      pop\n      pop\n      dup1\n      0x00\n      add\n      0x00\n      swap1\n      sload\n      swap1\n      0x0100\n      exp\n      swap1\n      div\n      0xffffffffffffffffffffffffffffffffffffffff\n      and\n      swap1\n      dup1\n      0x01\n      add\n      0x00\n      swap1\n      sload\n      swap1\n      0x0100\n      exp\n      swap1\n      div\n      0xffffffffffffffffffffffffffffffffffffffff\n      and\n      swap1\n      dup1\n      0x02\n      add\n      sload\n      swap1\n      dup1\n      0x03\n      add\n      sload\n      swap1\n      dup1\n      0x04\n      add\n      sload\n      swap1\n      dup1\n      0x05\n      add\n      sload\n      swap1\n      dup1\n      0x06\n      add\n      0x00\n      swap1\n      sload\n      swap1\n      0x0100\n      exp\n      swap1\n      div\n      0xff\n      and\n      swap1\n      dup1\n      0x06\n      add\n      0x01\n      swap1\n      sload\n      swap1\n      0x0100\n      exp\n      swap1\n      div\n      0xff\n      and\n      swap1\n      pop\n      dup9\n      jump\t// out\n        /* \"contracts/Tracking.sol\":2111:2698  function startShipment(address _sender, address _receiver, uint256 _index) public {... */\n    tag_38:\n        /* \"contracts/Tracking.sol\":2204:2229  Shipment storage shipment */\n      0x00\n        /* \"contracts/Tracking.sol\":2232:2241  shipments */\n      dup1\n        /* \"contracts/Tracking.sol\":2232:2250  shipments[_sender] */\n      0x00\n        /* \"contracts/Tracking.sol\":2242:2249  _sender */\n      dup6\n        /* \"contracts/Tracking.sol\":2232:2250  shipments[_sender] */\n      0xffffffffffffffffffffffffffffffffffffffff\n      and\n      0xffffffffffffffffffffffffffffffffffffffff\n      and\n      dup2\n      mstore\n      0x20\n      add\n      swap1\n      dup2\n      mstore\n      0x20\n      add\n      0x00\n      keccak256\n        /* \"contracts/Tracking.sol\":2251:2257  _index */\n      dup3\n        /* \"contracts/Tracking.sol\":2232:2258  shipments[_sender][_index] */\n      dup2\n      sload\n      dup2\n      lt\n      tag_94\n      jumpi\n      tag_95\n      tag_55\n      jump\t// in\n    tag_95:\n    tag_94:\n      swap1\n      0x00\n      mstore\n      keccak256(0x00, 0x20)\n      swap1\n      0x07\n      mul\n      add\n        /* \"contracts/Tracking.sol\":2204:2258  Shipment storage shipment = shipments[_sender][_index] */\n      swap1\n      pop\n        /* \"contracts/Tracking.sol\":2269:2302  TyepShipment storage tyepShipment */\n      0x00\n        /* \"contracts/Tracking.sol\":2305:2318  tyepShipments */\n      0x02\n        /* \"contracts/Tracking.sol\":2319:2325  _index */\n      dup4\n        /* \"contracts/Tracking.sol\":2305:2326  tyepShipments[_index] */\n      dup2\n      sload\n      dup2\n      lt\n      tag_97\n      jumpi\n      tag_98\n      tag_55\n      jump\t// in\n    tag_98:\n    tag_97:\n      swap1\n      0x00\n      mstore\n      keccak256(0x00, 0x20)\n      swap1\n      0x07\n      mul\n      add\n        /* \"contracts/Tracking.sol\":2269:2326  TyepShipment storage tyepShipment = tyepShipments[_index] */\n      swap1\n      pop\n        /* \"contracts/Tracking.sol\":2376:2385  _receiver */\n      dup4\n        /* \"contracts/Tracking.sol\":2355:2385  shipment.receiver == _receiver */\n      0xffffffffffffffffffffffffffffffffffffffff\n      and\n        /* \"contracts/Tracking.sol\":2355:2363  shipment */\n      dup3\n        /* \"contracts/Tracking.sol\":2355:2372  shipment.receiver */\n      0x01\n      add\n      0x00\n      swap1\n      sload\n      swap1\n      0x0100\n      exp\n      swap1\n      div\n      0xffffffffffffffffffffffffffffffffffffffff\n      and\n        /* \"contracts/Tracking.sol\":2355:2385  shipment.receiver == _receiver */\n      0xffffffffffffffffffffffffffffffffffffffff\n      and\n      eq\n        /* \"contracts/Tracking.sol\":2347:2407  require(shipment.receiver == _receiver, \"Invalid receiver.\") */\n      tag_100\n      jumpi\n      mload(0x40)\n      0x08c379a000000000000000000000000000000000000000000000000000000000\n      dup2\n      mstore\n      0x04\n      add\n      tag_101\n      swap1\n      tag_62\n      jump\t// in\n    tag_101:\n      mload(0x40)\n      dup1\n      swap2\n      sub\n      swap1\n      revert\n    tag_100:\n        /* \"contracts/Tracking.sol\":2445:2467  ShipmentStatus.PENDING */\n      0x00\n        /* \"contracts/Tracking.sol\":2426:2467  shipment.status == ShipmentStatus.PENDING */\n      0x02\n      dup2\n      gt\n      iszero\n      tag_102\n      jumpi\n      tag_103\n      tag_65\n      jump\t// in\n    tag_103:\n    tag_102:\n        /* \"contracts/Tracking.sol\":2426:2434  shipment */\n      dup3\n        /* \"contracts/Tracking.sol\":2426:2441  shipment.status */\n      0x06\n      add\n      0x00\n      swap1\n      sload\n      swap1\n      0x0100\n      exp\n      swap1\n      div\n      0xff\n      and\n        /* \"contracts/Tracking.sol\":2426:2467  shipment.status == ShipmentStatus.PENDING */\n      0x02\n      dup2\n      gt\n      iszero\n      tag_104\n      jumpi\n      tag_105\n      tag_65\n      jump\t// in\n    tag_105:\n    tag_104:\n      eq\n        /* \"contracts/Tracking.sol\":2418:2500  require(shipment.status == ShipmentStatus.PENDING, \"Shipment already in transit.\") */\n      tag_106\n      jumpi\n      mload(0x40)\n      0x08c379a000000000000000000000000000000000000000000000000000000000\n      dup2\n      mstore\n      0x04\n      add\n      tag_107\n      swap1\n      tag_108\n      jump\t// in\n    tag_107:\n      mload(0x40)\n      dup1\n      swap2\n      sub\n      swap1\n      revert\n    tag_106:\n        /* \"contracts/Tracking.sol\":2531:2556  ShipmentStatus.IN_TRANSIT */\n      0x01\n        /* \"contracts/Tracking.sol\":2513:2521  shipment */\n      dup3\n        /* \"contracts/Tracking.sol\":2513:2528  shipment.status */\n      0x06\n      add\n      0x00\n        /* \"contracts/Tracking.sol\":2513:2556  shipment.status = ShipmentStatus.IN_TRANSIT */\n      0x0100\n      exp\n      dup2\n      sload\n      dup2\n      0xff\n      mul\n      not\n      and\n      swap1\n      dup4\n      0x02\n      dup2\n      gt\n      iszero\n      tag_109\n      jumpi\n      tag_110\n      tag_65\n      jump\t// in\n    tag_110:\n    tag_109:\n      mul\n      or\n      swap1\n      sstore\n      pop\n        /* \"contracts/Tracking.sol\":2589:2614  ShipmentStatus.IN_TRANSIT */\n      0x01\n        /* \"contracts/Tracking.sol\":2567:2579  tyepShipment */\n      dup2\n        /* \"contracts/Tracking.sol\":2567:2586  tyepShipment.status */\n      0x06\n      add\n      0x00\n        /* \"contracts/Tracking.sol\":2567:2614  tyepShipment.status = ShipmentStatus.IN_TRANSIT */\n      0x0100\n      exp\n      dup2\n      sload\n      dup2\n      0xff\n      mul\n      not\n      and\n      swap1\n      dup4\n      0x02\n      dup2\n      gt\n      iszero\n      tag_111\n      jumpi\n      tag_112\n      tag_65\n      jump\t// in\n    tag_112:\n    tag_111:\n      mul\n      or\n      swap1\n      sstore\n      pop\n        /* \"contracts/Tracking.sol\":2659:2668  _receiver */\n      dup4\n        /* \"contracts/Tracking.sol\":2632:2690  ShipmentInTransit(_sender, _receiver, shipment.pickupTime) */\n      0xffffffffffffffffffffffffffffffffffffffff\n      and\n        /* \"contracts/Tracking.sol\":2650:2657  _sender */\n      dup6\n        /* \"contracts/Tracking.sol\":2632:2690  ShipmentInTransit(_sender, _receiver, shipment.pickupTime) */\n      0xffffffffffffffffffffffffffffffffffffffff\n      and\n      0xaafab9f94340179ff9cefd29621e1772a4b8efab8023163838f1b0a8f6ce5df5\n        /* \"contracts/Tracking.sol\":2670:2678  shipment */\n      dup5\n        /* \"contracts/Tracking.sol\":2670:2689  shipment.pickupTime */\n      0x02\n      add\n      sload\n        /* \"contracts/Tracking.sol\":2632:2690  ShipmentInTransit(_sender, _receiver, shipment.pickupTime) */\n      mload(0x40)\n      tag_113\n      swap2\n      swap1\n      tag_27\n      jump\t// in\n    tag_113:\n      mload(0x40)\n      dup1\n      swap2\n      sub\n      swap1\n      log3\n        /* \"contracts/Tracking.sol\":2193:2698  {... */\n      pop\n      pop\n        /* \"contracts/Tracking.sol\":2111:2698  function startShipment(address _sender, address _receiver, uint256 _index) public {... */\n      pop\n      pop\n      pop\n      jump\t// out\n        /* \"contracts/Tracking.sol\":3693:4083  function getShipment(address _sender, uint256 _index) public view returns (address, address, uint256, uint256, uint256, uint256, ShipmentStatus, bool) {... */\n    tag_42:\n        /* \"contracts/Tracking.sol\":3768:3775  address */\n      0x00\n        /* \"contracts/Tracking.sol\":3777:3784  address */\n      dup1\n        /* \"contracts/Tracking.sol\":3786:3793  uint256 */\n      0x00\n        /* \"contracts/Tracking.sol\":3795:3802  uint256 */\n      dup1\n        /* \"contracts/Tracking.sol\":3804:3811  uint256 */\n      0x00\n        /* \"contracts/Tracking.sol\":3813:3820  uint256 */\n      dup1\n        /* \"contracts/Tracking.sol\":3822:3836  ShipmentStatus */\n      0x00\n        /* \"contracts/Tracking.sol\":3838:3842  bool */\n      dup1\n        /* \"contracts/Tracking.sol\":3855:3879  Shipment memory shipment */\n      0x00\n        /* \"contracts/Tracking.sol\":3882:3891  shipments */\n      dup1\n        /* \"contracts/Tracking.sol\":3882:3900  shipments[_sender] */\n      0x00\n        /* \"contracts/Tracking.sol\":3892:3899  _sender */\n      dup13\n        /* \"contracts/Tracking.sol\":3882:3900  shipments[_sender] */\n      0xffffffffffffffffffffffffffffffffffffffff\n      and\n      0xffffffffffffffffffffffffffffffffffffffff\n      and\n      dup2\n      mstore\n      0x20\n      add\n      swap1\n      dup2\n      mstore\n      0x20\n      add\n      0x00\n      keccak256\n        /* \"contracts/Tracking.sol\":3901:3907  _index */\n      dup11\n        /* \"contracts/Tracking.sol\":3882:3908  shipments[_sender][_index] */\n      dup2\n      sload\n      dup2\n      lt\n      tag_115\n      jumpi\n      tag_116\n      tag_55\n      jump\t// in\n    tag_116:\n    tag_115:\n      swap1\n      0x00\n      mstore\n      keccak256(0x00, 0x20)\n      swap1\n      0x07\n      mul\n      add\n        /* \"contracts/Tracking.sol\":3855:3908  Shipment memory shipment = shipments[_sender][_index] */\n      mload(0x40)\n      dup1\n      0x0100\n      add\n      0x40\n      mstore\n      swap1\n      dup2\n      0x00\n      dup3\n      add\n      0x00\n      swap1\n      sload\n      swap1\n      0x0100\n      exp\n      swap1\n      div\n      0xffffffffffffffffffffffffffffffffffffffff\n      and\n      0xffffffffffffffffffffffffffffffffffffffff\n      and\n      0xffffffffffffffffffffffffffffffffffffffff\n      and\n      dup2\n      mstore\n      0x20\n      add\n      0x01\n      dup3\n      add\n      0x00\n      swap1\n      sload\n      swap1\n      0x0100\n      exp\n      swap1\n      div\n      0xffffffffffffffffffffffffffffffffffffffff\n      and\n      0xffffffffffffffffffffffffffffffffffffffff\n      and\n      0xffffffffffffffffffffffffffffffffffffffff\n      and\n      dup2\n      mstore\n      0x20\n      add\n      0x02\n      dup3\n      add\n      sload\n      dup2\n      mstore\n      0x20\n      add\n      0x03\n      dup3\n      add\n      sload\n      dup2\n      mstore\n      0x20\n      add\n      0x04\n      dup3\n      add\n      sload\n      dup2\n      mstore\n      0x20\n      add\n      0x05\n      dup3\n      add\n      sload\n      dup2\n      mstore\n      0x20\n      add\n      0x06\n      dup3\n      add\n      0x00\n      swap1\n      sload\n      swap1\n      0x0100\n      exp\n      swap1\n      div\n      0xff\n      and\n      0x02\n      dup2\n      gt\n      iszero\n      tag_118\n      jumpi\n      tag_119\n      tag_65\n      jump\t// in\n    tag_119:\n    tag_118:\n      0x02\n      dup2\n      gt\n      iszero\n      tag_120\n      jumpi\n      tag_121\n      tag_65\n      jump\t// in\n    tag_121:\n    tag_120:\n      dup2\n      mstore\n      0x20\n      add\n      0x06\n      dup3\n      add\n      0x01\n      swap1\n      sload\n      swap1\n      0x0100\n      exp\n      swap1\n      div\n      0xff\n      and\n      iszero\n      iszero\n      iszero\n      iszero\n      dup2\n      mstore\n      pop\n      pop\n      swap1\n      pop\n        /* \"contracts/Tracking.sol\":3927:3935  shipment */\n      dup1\n        /* \"contracts/Tracking.sol\":3927:3942  shipment.sender */\n      0x00\n      add\n      mload\n        /* \"contracts/Tracking.sol\":3944:3952  shipment */\n      dup2\n        /* \"contracts/Tracking.sol\":3944:3961  shipment.receiver */\n      0x20\n      add\n      mload\n        /* \"contracts/Tracking.sol\":3963:3971  shipment */\n      dup3\n        /* \"contracts/Tracking.sol\":3963:3982  shipment.pickupTime */\n      0x40\n      add\n      mload\n        /* \"contracts/Tracking.sol\":3984:3992  shipment */\n      dup4\n        /* \"contracts/Tracking.sol\":3984:4005  shipment.deliveryTime */\n      0x60\n      add\n      mload\n        /* \"contracts/Tracking.sol\":4007:4015  shipment */\n      dup5\n        /* \"contracts/Tracking.sol\":4007:4024  shipment.distance */\n      0x80\n      add\n      mload\n        /* \"contracts/Tracking.sol\":4026:4034  shipment */\n      dup6\n        /* \"contracts/Tracking.sol\":4026:4040  shipment.price */\n      0xa0\n      add\n      mload\n        /* \"contracts/Tracking.sol\":4042:4050  shipment */\n      dup7\n        /* \"contracts/Tracking.sol\":4042:4057  shipment.status */\n      0xc0\n      add\n      mload\n        /* \"contracts/Tracking.sol\":4059:4067  shipment */\n      dup8\n        /* \"contracts/Tracking.sol\":4059:4074  shipment.isPaid */\n      0xe0\n      add\n      mload\n        /* \"contracts/Tracking.sol\":3919:4075  return (shipment.sender, shipment.receiver, shipment.pickupTime, shipment.deliveryTime, shipment.distance, shipment.price, shipment.status, shipment.isPaid) */\n      swap9\n      pop\n      swap9\n      pop\n      swap9\n      pop\n      swap9\n      pop\n      swap9\n      pop\n      swap9\n      pop\n      swap9\n      pop\n      swap9\n      pop\n      pop\n        /* \"contracts/Tracking.sol\":3693:4083  function getShipment(address _sender, uint256 _index) public view returns (address, address, uint256, uint256, uint256, uint256, ShipmentStatus, bool) {... */\n      swap3\n      swap6\n      swap9\n      pop\n      swap3\n      swap6\n      swap9\n      swap1\n      swap4\n      swap7\n      pop\n      jump\t// out\n        /* \"contracts/Tracking.sol\":450:478  uint256 public shipmentCount */\n    tag_46:\n      sload(0x01)\n      dup2\n      jump\t// out\n        /* \"contracts/Tracking.sol\":1269:2103  function createShipment(address _receiver, uint256 _pickupTime, uint256 _distance, uint256 _price) public payable {... */\n    tag_51:\n        /* \"contracts/Tracking.sol\":1415:1421  _price */\n      dup1\n        /* \"contracts/Tracking.sol\":1402:1411  msg.value */\n      callvalue\n        /* \"contracts/Tracking.sol\":1402:1421  msg.value == _price */\n      eq\n        /* \"contracts/Tracking.sol\":1394:1462  require(msg.value == _price, \"Payment amount must match the price.\") */\n      tag_123\n      jumpi\n      mload(0x40)\n      0x08c379a000000000000000000000000000000000000000000000000000000000\n      dup2\n      mstore\n      0x04\n      add\n      tag_124\n      swap1\n      tag_125\n      jump\t// in\n    tag_124:\n      mload(0x40)\n      dup1\n      swap2\n      sub\n      swap1\n      revert\n    tag_123:\n        /* \"contracts/Tracking.sol\":1483:1507  Shipment memory shipment */\n      0x00\n        /* \"contracts/Tracking.sol\":1510:1607  Shipment(msg.sender, _receiver, _pickupTime, 0, _distance, _price, ShipmentStatus.PENDING, false) */\n      mload(0x40)\n      dup1\n      0x0100\n      add\n      0x40\n      mstore\n      dup1\n        /* \"contracts/Tracking.sol\":1519:1529  msg.sender */\n      caller\n        /* \"contracts/Tracking.sol\":1510:1607  Shipment(msg.sender, _receiver, _pickupTime, 0, _distance, _price, ShipmentStatus.PENDING, false) */\n      0xffffffffffffffffffffffffffffffffffffffff\n      and\n      dup2\n      mstore\n      0x20\n      add\n        /* \"contracts/Tracking.sol\":1531:1540  _receiver */\n      dup7\n        /* \"contracts/Tracking.sol\":1510:1607  Shipment(msg.sender, _receiver, _pickupTime, 0, _distance, _price, ShipmentStatus.PENDING, false) */\n      0xffffffffffffffffffffffffffffffffffffffff\n      and\n      dup2\n      mstore\n      0x20\n      add\n        /* \"contracts/Tracking.sol\":1542:1553  _pickupTime */\n      dup6\n        /* \"contracts/Tracking.sol\":1510:1607  Shipment(msg.sender, _receiver, _pickupTime, 0, _distance, _price, ShipmentStatus.PENDING, false) */\n      dup2\n      mstore\n      0x20\n      add\n        /* \"contracts/Tracking.sol\":1555:1556  0 */\n      0x00\n        /* \"contracts/Tracking.sol\":1510:1607  Shipment(msg.sender, _receiver, _pickupTime, 0, _distance, _price, ShipmentStatus.PENDING, false) */\n      dup2\n      mstore\n      0x20\n      add\n        /* \"contracts/Tracking.sol\":1558:1567  _distance */\n      dup5\n        /* \"contracts/Tracking.sol\":1510:1607  Shipment(msg.sender, _receiver, _pickupTime, 0, _distance, _price, ShipmentStatus.PENDING, false) */\n      dup2\n      mstore\n      0x20\n      add\n        /* \"contracts/Tracking.sol\":1569:1575  _price */\n      dup4\n        /* \"contracts/Tracking.sol\":1510:1607  Shipment(msg.sender, _receiver, _pickupTime, 0, _distance, _price, ShipmentStatus.PENDING, false) */\n      dup2\n      mstore\n      0x20\n      add\n        /* \"contracts/Tracking.sol\":1577:1599  ShipmentStatus.PENDING */\n      0x00\n        /* \"contracts/Tracking.sol\":1510:1607  Shipment(msg.sender, _receiver, _pickupTime, 0, _distance, _price, ShipmentStatus.PENDING, false) */\n      0x02\n      dup2\n      gt\n      iszero\n      tag_126\n      jumpi\n      tag_127\n      tag_65\n      jump\t// in\n    tag_127:\n    tag_126:\n      dup2\n      mstore\n      0x20\n      add\n        /* \"contracts/Tracking.sol\":1601:1606  false */\n      0x00\n        /* \"contracts/Tracking.sol\":1510:1607  Shipment(msg.sender, _receiver, _pickupTime, 0, _distance, _price, ShipmentStatus.PENDING, false) */\n      iszero\n      iszero\n      dup2\n      mstore\n      pop\n        /* \"contracts/Tracking.sol\":1483:1607  Shipment memory shipment = Shipment(msg.sender, _receiver, _pickupTime, 0, _distance, _price, ShipmentStatus.PENDING, false) */\n      swap1\n      pop\n        /* \"contracts/Tracking.sol\":1620:1629  shipments */\n      0x00\n        /* \"contracts/Tracking.sol\":1620:1641  shipments[msg.sender] */\n      dup1\n        /* \"contracts/Tracking.sol\":1630:1640  msg.sender */\n      caller\n        /* \"contracts/Tracking.sol\":1620:1641  shipments[msg.sender] */\n      0xffffffffffffffffffffffffffffffffffffffff\n      and\n      0xffffffffffffffffffffffffffffffffffffffff\n      and\n      dup2\n      mstore\n      0x20\n      add\n      swap1\n      dup2\n      mstore\n      0x20\n      add\n      0x00\n      keccak256\n        /* \"contracts/Tracking.sol\":1647:1655  shipment */\n      dup2\n        /* \"contracts/Tracking.sol\":1620:1656  shipments[msg.sender].push(shipment) */\n      swap1\n      dup1\n      0x01\n      dup2\n      sload\n      add\n      dup1\n      dup3\n      sstore\n      dup1\n      swap2\n      pop\n      pop\n      0x01\n      swap1\n      sub\n      swap1\n      0x00\n      mstore\n      keccak256(0x00, 0x20)\n      swap1\n      0x07\n      mul\n      add\n      0x00\n      swap1\n      swap2\n      swap1\n      swap2\n      swap1\n      swap2\n      pop\n      0x00\n      dup3\n      add\n      mload\n      dup2\n      0x00\n      add\n      exp(0x0100, 0x00)\n      dup2\n      sload\n      dup2\n      0xffffffffffffffffffffffffffffffffffffffff\n      mul\n      not\n      and\n      swap1\n      dup4\n      0xffffffffffffffffffffffffffffffffffffffff\n      and\n      mul\n      or\n      swap1\n      sstore\n      pop\n      0x20\n      dup3\n      add\n      mload\n      dup2\n      0x01\n      add\n      exp(0x0100, 0x00)\n      dup2\n      sload\n      dup2\n      0xffffffffffffffffffffffffffffffffffffffff\n      mul\n      not\n      and\n      swap1\n      dup4\n      0xffffffffffffffffffffffffffffffffffffffff\n      and\n      mul\n      or\n      swap1\n      sstore\n      pop\n      0x40\n      dup3\n      add\n      mload\n      dup2\n      0x02\n      add\n      sstore\n      0x60\n      dup3\n      add\n      mload\n      dup2\n      0x03\n      add\n      sstore\n      0x80\n      dup3\n      add\n      mload\n      dup2\n      0x04\n      add\n      sstore\n      0xa0\n      dup3\n      add\n      mload\n      dup2\n      0x05\n      add\n      sstore\n      0xc0\n      dup3\n      add\n      mload\n      dup2\n      0x06\n      add\n      exp(0x0100, 0x00)\n      dup2\n      sload\n      dup2\n      0xff\n      mul\n      not\n      and\n      swap1\n      dup4\n      0x02\n      dup2\n      gt\n      iszero\n      tag_129\n      jumpi\n      tag_130\n      tag_65\n      jump\t// in\n    tag_130:\n    tag_129:\n      mul\n      or\n      swap1\n      sstore\n      pop\n      0xe0\n      dup3\n      add\n      mload\n      dup2\n      0x06\n      add\n      exp(0x0100, 0x01)\n      dup2\n      sload\n      dup2\n      0xff\n      mul\n      not\n      and\n      swap1\n      dup4\n      iszero\n      iszero\n      mul\n      or\n      swap1\n      sstore\n      pop\n      pop\n      pop\n        /* \"contracts/Tracking.sol\":1667:1680  shipmentCount */\n      0x01\n      0x00\n        /* \"contracts/Tracking.sol\":1667:1682  shipmentCount++ */\n      dup2\n      sload\n      dup1\n      swap3\n      swap2\n      swap1\n      tag_131\n      swap1\n      tag_132\n      jump\t// in\n    tag_131:\n      swap2\n      swap1\n      pop\n      sstore\n      pop\n        /* \"contracts/Tracking.sol\":1696:1709  tyepShipments */\n      0x02\n        /* \"contracts/Tracking.sol\":1729:1988  TyepShipment(... */\n      mload(0x40)\n      dup1\n      0x0100\n      add\n      0x40\n      mstore\n      dup1\n        /* \"contracts/Tracking.sol\":1760:1770  msg.sender */\n      caller\n        /* \"contracts/Tracking.sol\":1729:1988  TyepShipment(... */\n      0xffffffffffffffffffffffffffffffffffffffff\n      and\n      dup2\n      mstore\n      0x20\n      add\n        /* \"contracts/Tracking.sol\":1790:1799  _receiver */\n      dup8\n        /* \"contracts/Tracking.sol\":1729:1988  TyepShipment(... */\n      0xffffffffffffffffffffffffffffffffffffffff\n      and\n      dup2\n      mstore\n      0x20\n      add\n        /* \"contracts/Tracking.sol\":1819:1830  _pickupTime */\n      dup7\n        /* \"contracts/Tracking.sol\":1729:1988  TyepShipment(... */\n      dup2\n      mstore\n      0x20\n      add\n        /* \"contracts/Tracking.sol\":1850:1851  0 */\n      0x00\n        /* \"contracts/Tracking.sol\":1729:1988  TyepShipment(... */\n      dup2\n      mstore\n      0x20\n      add\n        /* \"contracts/Tracking.sol\":1871:1880  _distance */\n      dup6\n        /* \"contracts/Tracking.sol\":1729:1988  TyepShipment(... */\n      dup2\n      mstore\n      0x20\n      add\n        /* \"contracts/Tracking.sol\":1900:1906  _price */\n      dup5\n        /* \"contracts/Tracking.sol\":1729:1988  TyepShipment(... */\n      dup2\n      mstore\n      0x20\n      add\n        /* \"contracts/Tracking.sol\":1926:1948  ShipmentStatus.PENDING */\n      0x00\n        /* \"contracts/Tracking.sol\":1729:1988  TyepShipment(... */\n      0x02\n      dup2\n      gt\n      iszero\n      tag_133\n      jumpi\n      tag_134\n      tag_65\n      jump\t// in\n    tag_134:\n    tag_133:\n      dup2\n      mstore\n      0x20\n      add\n        /* \"contracts/Tracking.sol\":1968:1973  false */\n      0x00\n        /* \"contracts/Tracking.sol\":1729:1988  TyepShipment(... */\n      iszero\n      iszero\n      dup2\n      mstore\n      pop\n        /* \"contracts/Tracking.sol\":1696:1999  tyepShipments.push(... */\n      swap1\n      dup1\n      0x01\n      dup2\n      sload\n      add\n      dup1\n      dup3\n      sstore\n      dup1\n      swap2\n      pop\n      pop\n      0x01\n      swap1\n      sub\n      swap1\n      0x00\n      mstore\n      keccak256(0x00, 0x20)\n      swap1\n      0x07\n      mul\n      add\n      0x00\n      swap1\n      swap2\n      swap1\n      swap2\n      swap1\n      swap2\n      pop\n      0x00\n      dup3\n      add\n      mload\n      dup2\n      0x00\n      add\n      exp(0x0100, 0x00)\n      dup2\n      sload\n      dup2\n      0xffffffffffffffffffffffffffffffffffffffff\n      mul\n      not\n      and\n      swap1\n      dup4\n      0xffffffffffffffffffffffffffffffffffffffff\n      and\n      mul\n      or\n      swap1\n      sstore\n      pop\n      0x20\n      dup3\n      add\n      mload\n      dup2\n      0x01\n      add\n      exp(0x0100, 0x00)\n      dup2\n      sload\n      dup2\n      0xffffffffffffffffffffffffffffffffffffffff\n      mul\n      not\n      and\n      swap1\n      dup4\n      0xffffffffffffffffffffffffffffffffffffffff\n      and\n      mul\n      or\n      swap1\n      sstore\n      pop\n      0x40\n      dup3\n      add\n      mload\n      dup2\n      0x02\n      add\n      sstore\n      0x60\n      dup3\n      add\n      mload\n      dup2\n      0x03\n      add\n      sstore\n      0x80\n      dup3\n      add\n      mload\n      dup2\n      0x04\n      add\n      sstore\n      0xa0\n      dup3\n      add\n      mload\n      dup2\n      0x05\n      add\n      sstore\n      0xc0\n      dup3\n      add\n      mload\n      dup2\n      0x06\n      add\n      exp(0x0100, 0x00)\n      dup2\n      sload\n      dup2\n      0xff\n      mul\n      not\n      and\n      swap1\n      dup4\n      0x02\n      dup2\n      gt\n      iszero\n      tag_136\n      jumpi\n      tag_137\n      tag_65\n      jump\t// in\n    tag_137:\n    tag_136:\n      mul\n      or\n      swap1\n      sstore\n      pop\n      0xe0\n      dup3\n      add\n      mload\n      dup2\n      0x06\n      add\n      exp(0x0100, 0x01)\n      dup2\n      sload\n      dup2\n      0xff\n      mul\n      not\n      and\n      swap1\n      dup4\n      iszero\n      iszero\n      mul\n      or\n      swap1\n      sstore\n      pop\n      pop\n      pop\n        /* \"contracts/Tracking.sol\":2053:2062  _receiver */\n      dup5\n        /* \"contracts/Tracking.sol\":2025:2095  ShipmentCreated(msg.sender, _receiver, _pickupTime, _distance, _price) */\n      0xffffffffffffffffffffffffffffffffffffffff\n      and\n        /* \"contracts/Tracking.sol\":2041:2051  msg.sender */\n      caller\n        /* \"contracts/Tracking.sol\":2025:2095  ShipmentCreated(msg.sender, _receiver, _pickupTime, _distance, _price) */\n      0xffffffffffffffffffffffffffffffffffffffff\n      and\n      0x5001b34ecf2db5b7bbeddcbbe761ec9ecadcc7638018b98ce3e24995b0e946b6\n        /* \"contracts/Tracking.sol\":2064:2075  _pickupTime */\n      dup7\n        /* \"contracts/Tracking.sol\":2077:2086  _distance */\n      dup7\n        /* \"contracts/Tracking.sol\":2088:2094  _price */\n      dup7\n        /* \"contracts/Tracking.sol\":2025:2095  ShipmentCreated(msg.sender, _receiver, _pickupTime, _distance, _price) */\n      mload(0x40)\n      tag_138\n      swap4\n      swap3\n      swap2\n      swap1\n      tag_139\n      jump\t// in\n    tag_138:\n      mload(0x40)\n      dup1\n      swap2\n      sub\n      swap1\n      log3\n        /* \"contracts/Tracking.sol\":1383:2103  {... */\n      pop\n        /* \"contracts/Tracking.sol\":1269:2103  function createShipment(address _receiver, uint256 _pickupTime, uint256 _distance, uint256 _price) public payable {... */\n      pop\n      pop\n      pop\n      pop\n      jump\t// out\n        /* \"#utility.yul\":88:205   */\n    tag_141:\n        /* \"#utility.yul\":197:198   */\n      0x00\n        /* \"#utility.yul\":194:195   */\n      dup1\n        /* \"#utility.yul\":187:199   */\n      revert\n        /* \"#utility.yul\":334:460   */\n    tag_143:\n        /* \"#utility.yul\":371:378   */\n      0x00\n        /* \"#utility.yul\":411:453   */\n      0xffffffffffffffffffffffffffffffffffffffff\n        /* \"#utility.yul\":404:409   */\n      dup3\n        /* \"#utility.yul\":400:454   */\n      and\n        /* \"#utility.yul\":389:454   */\n      swap1\n      pop\n        /* \"#utility.yul\":334:460   */\n      swap2\n      swap1\n      pop\n      jump\t// out\n        /* \"#utility.yul\":466:562   */\n    tag_144:\n        /* \"#utility.yul\":503:510   */\n      0x00\n        /* \"#utility.yul\":532:556   */\n      tag_187\n        /* \"#utility.yul\":550:555   */\n      dup3\n        /* \"#utility.yul\":532:556   */\n      tag_143\n      jump\t// in\n    tag_187:\n        /* \"#utility.yul\":521:556   */\n      swap1\n      pop\n        /* \"#utility.yul\":466:562   */\n      swap2\n      swap1\n      pop\n      jump\t// out\n        /* \"#utility.yul\":568:690   */\n    tag_145:\n        /* \"#utility.yul\":641:665   */\n      tag_189\n        /* \"#utility.yul\":659:664   */\n      dup2\n        /* \"#utility.yul\":641:665   */\n      tag_144\n      jump\t// in\n    tag_189:\n        /* \"#utility.yul\":634:639   */\n      dup2\n        /* \"#utility.yul\":631:666   */\n      eq\n        /* \"#utility.yul\":621:684   */\n      tag_190\n      jumpi\n        /* \"#utility.yul\":680:681   */\n      0x00\n        /* \"#utility.yul\":677:678   */\n      dup1\n        /* \"#utility.yul\":670:682   */\n      revert\n        /* \"#utility.yul\":621:684   */\n    tag_190:\n        /* \"#utility.yul\":568:690   */\n      pop\n      jump\t// out\n        /* \"#utility.yul\":696:835   */\n    tag_146:\n        /* \"#utility.yul\":742:747   */\n      0x00\n        /* \"#utility.yul\":780:786   */\n      dup2\n        /* \"#utility.yul\":767:787   */\n      calldataload\n        /* \"#utility.yul\":758:787   */\n      swap1\n      pop\n        /* \"#utility.yul\":796:829   */\n      tag_192\n        /* \"#utility.yul\":823:828   */\n      dup2\n        /* \"#utility.yul\":796:829   */\n      tag_145\n      jump\t// in\n    tag_192:\n        /* \"#utility.yul\":696:835   */\n      swap3\n      swap2\n      pop\n      pop\n      jump\t// out\n        /* \"#utility.yul\":841:918   */\n    tag_147:\n        /* \"#utility.yul\":878:885   */\n      0x00\n        /* \"#utility.yul\":907:912   */\n      dup2\n        /* \"#utility.yul\":896:912   */\n      swap1\n      pop\n        /* \"#utility.yul\":841:918   */\n      swap2\n      swap1\n      pop\n      jump\t// out\n        /* \"#utility.yul\":924:1046   */\n    tag_148:\n        /* \"#utility.yul\":997:1021   */\n      tag_195\n        /* \"#utility.yul\":1015:1020   */\n      dup2\n        /* \"#utility.yul\":997:1021   */\n      tag_147\n      jump\t// in\n    tag_195:\n        /* \"#utility.yul\":990:995   */\n      dup2\n        /* \"#utility.yul\":987:1022   */\n      eq\n        /* \"#utility.yul\":977:1040   */\n      tag_196\n      jumpi\n        /* \"#utility.yul\":1036:1037   */\n      0x00\n        /* \"#utility.yul\":1033:1034   */\n      dup1\n        /* \"#utility.yul\":1026:1038   */\n      revert\n        /* \"#utility.yul\":977:1040   */\n    tag_196:\n        /* \"#utility.yul\":924:1046   */\n      pop\n      jump\t// out\n        /* \"#utility.yul\":1052:1191   */\n    tag_149:\n        /* \"#utility.yul\":1098:1103   */\n      0x00\n        /* \"#utility.yul\":1136:1142   */\n      dup2\n        /* \"#utility.yul\":1123:1143   */\n      calldataload\n        /* \"#utility.yul\":1114:1143   */\n      swap1\n      pop\n        /* \"#utility.yul\":1152:1185   */\n      tag_198\n        /* \"#utility.yul\":1179:1184   */\n      dup2\n        /* \"#utility.yul\":1152:1185   */\n      tag_148\n      jump\t// in\n    tag_198:\n        /* \"#utility.yul\":1052:1191   */\n      swap3\n      swap2\n      pop\n      pop\n      jump\t// out\n        /* \"#utility.yul\":1197:1816   */\n    tag_14:\n        /* \"#utility.yul\":1274:1280   */\n      0x00\n        /* \"#utility.yul\":1282:1288   */\n      dup1\n        /* \"#utility.yul\":1290:1296   */\n      0x00\n        /* \"#utility.yul\":1339:1341   */\n      0x60\n        /* \"#utility.yul\":1327:1336   */\n      dup5\n        /* \"#utility.yul\":1318:1325   */\n      dup7\n        /* \"#utility.yul\":1314:1337   */\n      sub\n        /* \"#utility.yul\":1310:1342   */\n      slt\n        /* \"#utility.yul\":1307:1426   */\n      iszero\n      tag_200\n      jumpi\n        /* \"#utility.yul\":1345:1424   */\n      tag_201\n      tag_141\n      jump\t// in\n    tag_201:\n        /* \"#utility.yul\":1307:1426   */\n    tag_200:\n        /* \"#utility.yul\":1465:1466   */\n      0x00\n        /* \"#utility.yul\":1490:1543   */\n      tag_202\n        /* \"#utility.yul\":1535:1542   */\n      dup7\n        /* \"#utility.yul\":1526:1532   */\n      dup3\n        /* \"#utility.yul\":1515:1524   */\n      dup8\n        /* \"#utility.yul\":1511:1533   */\n      add\n        /* \"#utility.yul\":1490:1543   */\n      tag_146\n      jump\t// in\n    tag_202:\n        /* \"#utility.yul\":1480:1543   */\n      swap4\n      pop\n        /* \"#utility.yul\":1436:1553   */\n      pop\n        /* \"#utility.yul\":1592:1594   */\n      0x20\n        /* \"#utility.yul\":1618:1671   */\n      tag_203\n        /* \"#utility.yul\":1663:1670   */\n      dup7\n        /* \"#utility.yul\":1654:1660   */\n      dup3\n        /* \"#utility.yul\":1643:1652   */\n      dup8\n        /* \"#utility.yul\":1639:1661   */\n      add\n        /* \"#utility.yul\":1618:1671   */\n      tag_146\n      jump\t// in\n    tag_203:\n        /* \"#utility.yul\":1608:1671   */\n      swap3\n      pop\n        /* \"#utility.yul\":1563:1681   */\n      pop\n        /* \"#utility.yul\":1720:1722   */\n      0x40\n        /* \"#utility.yul\":1746:1799   */\n      tag_204\n        /* \"#utility.yul\":1791:1798   */\n      dup7\n        /* \"#utility.yul\":1782:1788   */\n      dup3\n        /* \"#utility.yul\":1771:1780   */\n      dup8\n        /* \"#utility.yul\":1767:1789   */\n      add\n        /* \"#utility.yul\":1746:1799   */\n      tag_149\n      jump\t// in\n    tag_204:\n        /* \"#utility.yul\":1736:1799   */\n      swap2\n      pop\n        /* \"#utility.yul\":1691:1809   */\n      pop\n        /* \"#utility.yul\":1197:1816   */\n      swap3\n      pop\n      swap3\n      pop\n      swap3\n      jump\t// out\n        /* \"#utility.yul\":1822:1964   */\n    tag_150:\n        /* \"#utility.yul\":1917:1923   */\n      0x00\n        /* \"#utility.yul\":1951:1956   */\n      dup2\n        /* \"#utility.yul\":1945:1957   */\n      mload\n        /* \"#utility.yul\":1935:1957   */\n      swap1\n      pop\n        /* \"#utility.yul\":1822:1964   */\n      swap2\n      swap1\n      pop\n      jump\t// out\n        /* \"#utility.yul\":1970:2182   */\n    tag_151:\n        /* \"#utility.yul\":2097:2108   */\n      0x00\n        /* \"#utility.yul\":2131:2137   */\n      dup3\n        /* \"#utility.yul\":2126:2129   */\n      dup3\n        /* \"#utility.yul\":2119:2138   */\n      mstore\n        /* \"#utility.yul\":2171:2175   */\n      0x20\n        /* \"#utility.yul\":2166:2169   */\n      dup3\n        /* \"#utility.yul\":2162:2176   */\n      add\n        /* \"#utility.yul\":2147:2176   */\n      swap1\n      pop\n        /* \"#utility.yul\":1970:2182   */\n      swap3\n      swap2\n      pop\n      pop\n      jump\t// out\n        /* \"#utility.yul\":2188:2348   */\n    tag_152:\n        /* \"#utility.yul\":2283:2287   */\n      0x00\n        /* \"#utility.yul\":2306:2309   */\n      dup2\n        /* \"#utility.yul\":2298:2309   */\n      swap1\n      pop\n        /* \"#utility.yul\":2336:2340   */\n      0x20\n        /* \"#utility.yul\":2331:2334   */\n      dup3\n        /* \"#utility.yul\":2327:2341   */\n      add\n        /* \"#utility.yul\":2319:2341   */\n      swap1\n      pop\n        /* \"#utility.yul\":2188:2348   */\n      swap2\n      swap1\n      pop\n      jump\t// out\n        /* \"#utility.yul\":2354:2462   */\n    tag_153:\n        /* \"#utility.yul\":2431:2455   */\n      tag_209\n        /* \"#utility.yul\":2449:2454   */\n      dup2\n        /* \"#utility.yul\":2431:2455   */\n      tag_144\n      jump\t// in\n    tag_209:\n        /* \"#utility.yul\":2426:2429   */\n      dup3\n        /* \"#utility.yul\":2419:2456   */\n      mstore\n        /* \"#utility.yul\":2354:2462   */\n      pop\n      pop\n      jump\t// out\n        /* \"#utility.yul\":2468:2576   */\n    tag_154:\n        /* \"#utility.yul\":2545:2569   */\n      tag_211\n        /* \"#utility.yul\":2563:2568   */\n      dup2\n        /* \"#utility.yul\":2545:2569   */\n      tag_147\n      jump\t// in\n    tag_211:\n        /* \"#utility.yul\":2540:2543   */\n      dup3\n        /* \"#utility.yul\":2533:2570   */\n      mstore\n        /* \"#utility.yul\":2468:2576   */\n      pop\n      pop\n      jump\t// out\n        /* \"#utility.yul\":2582:2762   */\n    tag_65:\n        /* \"#utility.yul\":2630:2707   */\n      0x4e487b7100000000000000000000000000000000000000000000000000000000\n        /* \"#utility.yul\":2627:2628   */\n      0x00\n        /* \"#utility.yul\":2620:2708   */\n      mstore\n        /* \"#utility.yul\":2727:2731   */\n      0x21\n        /* \"#utility.yul\":2724:2725   */\n      0x04\n        /* \"#utility.yul\":2717:2732   */\n      mstore\n        /* \"#utility.yul\":2751:2755   */\n      0x24\n        /* \"#utility.yul\":2748:2749   */\n      0x00\n        /* \"#utility.yul\":2741:2756   */\n      revert\n        /* \"#utility.yul\":2768:2889   */\n    tag_155:\n        /* \"#utility.yul\":2857:2858   */\n      0x03\n        /* \"#utility.yul\":2850:2855   */\n      dup2\n        /* \"#utility.yul\":2847:2859   */\n      lt\n        /* \"#utility.yul\":2837:2883   */\n      tag_214\n      jumpi\n        /* \"#utility.yul\":2863:2881   */\n      tag_215\n      tag_65\n      jump\t// in\n    tag_215:\n        /* \"#utility.yul\":2837:2883   */\n    tag_214:\n        /* \"#utility.yul\":2768:2889   */\n      pop\n      jump\t// out\n        /* \"#utility.yul\":2895:3038   */\n    tag_156:\n        /* \"#utility.yul\":2948:2955   */\n      0x00\n        /* \"#utility.yul\":2977:2982   */\n      dup2\n        /* \"#utility.yul\":2966:2982   */\n      swap1\n      pop\n        /* \"#utility.yul\":2983:3032   */\n      tag_217\n        /* \"#utility.yul\":3026:3031   */\n      dup3\n        /* \"#utility.yul\":2983:3032   */\n      tag_155\n      jump\t// in\n    tag_217:\n        /* \"#utility.yul\":2895:3038   */\n      swap2\n      swap1\n      pop\n      jump\t// out\n        /* \"#utility.yul\":3044:3187   */\n    tag_157:\n        /* \"#utility.yul\":3108:3117   */\n      0x00\n        /* \"#utility.yul\":3141:3181   */\n      tag_219\n        /* \"#utility.yul\":3175:3180   */\n      dup3\n        /* \"#utility.yul\":3141:3181   */\n      tag_156\n      jump\t// in\n    tag_219:\n        /* \"#utility.yul\":3128:3181   */\n      swap1\n      pop\n        /* \"#utility.yul\":3044:3187   */\n      swap2\n      swap1\n      pop\n      jump\t// out\n        /* \"#utility.yul\":3193:3342   */\n    tag_158:\n        /* \"#utility.yul\":3284:3335   */\n      tag_221\n        /* \"#utility.yul\":3329:3334   */\n      dup2\n        /* \"#utility.yul\":3284:3335   */\n      tag_157\n      jump\t// in\n    tag_221:\n        /* \"#utility.yul\":3279:3282   */\n      dup3\n        /* \"#utility.yul\":3272:3336   */\n      mstore\n        /* \"#utility.yul\":3193:3342   */\n      pop\n      pop\n      jump\t// out\n        /* \"#utility.yul\":3348:3438   */\n    tag_159:\n        /* \"#utility.yul\":3382:3389   */\n      0x00\n        /* \"#utility.yul\":3425:3430   */\n      dup2\n        /* \"#utility.yul\":3418:3431   */\n      iszero\n        /* \"#utility.yul\":3411:3432   */\n      iszero\n        /* \"#utility.yul\":3400:3432   */\n      swap1\n      pop\n        /* \"#utility.yul\":3348:3438   */\n      swap2\n      swap1\n      pop\n      jump\t// out\n        /* \"#utility.yul\":3444:3543   */\n    tag_160:\n        /* \"#utility.yul\":3515:3536   */\n      tag_224\n        /* \"#utility.yul\":3530:3535   */\n      dup2\n        /* \"#utility.yul\":3515:3536   */\n      tag_159\n      jump\t// in\n    tag_224:\n        /* \"#utility.yul\":3510:3513   */\n      dup3\n        /* \"#utility.yul\":3503:3537   */\n      mstore\n        /* \"#utility.yul\":3444:3543   */\n      pop\n      pop\n      jump\t// out\n        /* \"#utility.yul\":3617:5203   */\n    tag_161:\n        /* \"#utility.yul\":3760:3766   */\n      0x0100\n        /* \"#utility.yul\":3755:3758   */\n      dup3\n        /* \"#utility.yul\":3751:3767   */\n      add\n        /* \"#utility.yul\":3851:3855   */\n      0x00\n        /* \"#utility.yul\":3844:3849   */\n      dup3\n        /* \"#utility.yul\":3840:3856   */\n      add\n        /* \"#utility.yul\":3834:3857   */\n      mload\n        /* \"#utility.yul\":3870:3933   */\n      tag_226\n        /* \"#utility.yul\":3927:3931   */\n      0x00\n        /* \"#utility.yul\":3922:3925   */\n      dup6\n        /* \"#utility.yul\":3918:3932   */\n      add\n        /* \"#utility.yul\":3904:3916   */\n      dup3\n        /* \"#utility.yul\":3870:3933   */\n      tag_153\n      jump\t// in\n    tag_226:\n        /* \"#utility.yul\":3777:3943   */\n      pop\n        /* \"#utility.yul\":4029:4033   */\n      0x20\n        /* \"#utility.yul\":4022:4027   */\n      dup3\n        /* \"#utility.yul\":4018:4034   */\n      add\n        /* \"#utility.yul\":4012:4035   */\n      mload\n        /* \"#utility.yul\":4048:4111   */\n      tag_227\n        /* \"#utility.yul\":4105:4109   */\n      0x20\n        /* \"#utility.yul\":4100:4103   */\n      dup6\n        /* \"#utility.yul\":4096:4110   */\n      add\n        /* \"#utility.yul\":4082:4094   */\n      dup3\n        /* \"#utility.yul\":4048:4111   */\n      tag_153\n      jump\t// in\n    tag_227:\n        /* \"#utility.yul\":3953:4121   */\n      pop\n        /* \"#utility.yul\":4209:4213   */\n      0x40\n        /* \"#utility.yul\":4202:4207   */\n      dup3\n        /* \"#utility.yul\":4198:4214   */\n      add\n        /* \"#utility.yul\":4192:4215   */\n      mload\n        /* \"#utility.yul\":4228:4291   */\n      tag_228\n        /* \"#utility.yul\":4285:4289   */\n      0x40\n        /* \"#utility.yul\":4280:4283   */\n      dup6\n        /* \"#utility.yul\":4276:4290   */\n      add\n        /* \"#utility.yul\":4262:4274   */\n      dup3\n        /* \"#utility.yul\":4228:4291   */\n      tag_154\n      jump\t// in\n    tag_228:\n        /* \"#utility.yul\":4131:4301   */\n      pop\n        /* \"#utility.yul\":4391:4395   */\n      0x60\n        /* \"#utility.yul\":4384:4389   */\n      dup3\n        /* \"#utility.yul\":4380:4396   */\n      add\n        /* \"#utility.yul\":4374:4397   */\n      mload\n        /* \"#utility.yul\":4410:4473   */\n      tag_229\n        /* \"#utility.yul\":4467:4471   */\n      0x60\n        /* \"#utility.yul\":4462:4465   */\n      dup6\n        /* \"#utility.yul\":4458:4472   */\n      add\n        /* \"#utility.yul\":4444:4456   */\n      dup3\n        /* \"#utility.yul\":4410:4473   */\n      tag_154\n      jump\t// in\n    tag_229:\n        /* \"#utility.yul\":4311:4483   */\n      pop\n        /* \"#utility.yul\":4569:4573   */\n      0x80\n        /* \"#utility.yul\":4562:4567   */\n      dup3\n        /* \"#utility.yul\":4558:4574   */\n      add\n        /* \"#utility.yul\":4552:4575   */\n      mload\n        /* \"#utility.yul\":4588:4651   */\n      tag_230\n        /* \"#utility.yul\":4645:4649   */\n      0x80\n        /* \"#utility.yul\":4640:4643   */\n      dup6\n        /* \"#utility.yul\":4636:4650   */\n      add\n        /* \"#utility.yul\":4622:4634   */\n      dup3\n        /* \"#utility.yul\":4588:4651   */\n      tag_154\n      jump\t// in\n    tag_230:\n        /* \"#utility.yul\":4493:4661   */\n      pop\n        /* \"#utility.yul\":4744:4748   */\n      0xa0\n        /* \"#utility.yul\":4737:4742   */\n      dup3\n        /* \"#utility.yul\":4733:4749   */\n      add\n        /* \"#utility.yul\":4727:4750   */\n      mload\n        /* \"#utility.yul\":4763:4826   */\n      tag_231\n        /* \"#utility.yul\":4820:4824   */\n      0xa0\n        /* \"#utility.yul\":4815:4818   */\n      dup6\n        /* \"#utility.yul\":4811:4825   */\n      add\n        /* \"#utility.yul\":4797:4809   */\n      dup3\n        /* \"#utility.yul\":4763:4826   */\n      tag_154\n      jump\t// in\n    tag_231:\n        /* \"#utility.yul\":4671:4836   */\n      pop\n        /* \"#utility.yul\":4920:4924   */\n      0xc0\n        /* \"#utility.yul\":4913:4918   */\n      dup3\n        /* \"#utility.yul\":4909:4925   */\n      add\n        /* \"#utility.yul\":4903:4926   */\n      mload\n        /* \"#utility.yul\":4939:5016   */\n      tag_232\n        /* \"#utility.yul\":5010:5014   */\n      0xc0\n        /* \"#utility.yul\":5005:5008   */\n      dup6\n        /* \"#utility.yul\":5001:5015   */\n      add\n        /* \"#utility.yul\":4987:4999   */\n      dup3\n        /* \"#utility.yul\":4939:5016   */\n      tag_158\n      jump\t// in\n    tag_232:\n        /* \"#utility.yul\":4846:5026   */\n      pop\n        /* \"#utility.yul\":5110:5114   */\n      0xe0\n        /* \"#utility.yul\":5103:5108   */\n      dup3\n        /* \"#utility.yul\":5099:5115   */\n      add\n        /* \"#utility.yul\":5093:5116   */\n      mload\n        /* \"#utility.yul\":5129:5186   */\n      tag_233\n        /* \"#utility.yul\":5180:5184   */\n      0xe0\n        /* \"#utility.yul\":5175:5178   */\n      dup6\n        /* \"#utility.yul\":5171:5185   */\n      add\n        /* \"#utility.yul\":5157:5169   */\n      dup3\n        /* \"#utility.yul\":5129:5186   */\n      tag_160\n      jump\t// in\n    tag_233:\n        /* \"#utility.yul\":5036:5196   */\n      pop\n        /* \"#utility.yul\":3729:5203   */\n      pop\n        /* \"#utility.yul\":3617:5203   */\n      pop\n      pop\n      jump\t// out\n        /* \"#utility.yul\":5209:5502   */\n    tag_162:\n        /* \"#utility.yul\":5334:5344   */\n      0x00\n        /* \"#utility.yul\":5355:5457   */\n      tag_235\n        /* \"#utility.yul\":5453:5456   */\n      dup4\n        /* \"#utility.yul\":5445:5451   */\n      dup4\n        /* \"#utility.yul\":5355:5457   */\n      tag_161\n      jump\t// in\n    tag_235:\n        /* \"#utility.yul\":5489:5495   */\n      0x0100\n        /* \"#utility.yul\":5484:5487   */\n      dup4\n        /* \"#utility.yul\":5480:5496   */\n      add\n        /* \"#utility.yul\":5466:5496   */\n      swap1\n      pop\n        /* \"#utility.yul\":5209:5502   */\n      swap3\n      swap2\n      pop\n      pop\n      jump\t// out\n        /* \"#utility.yul\":5508:5649   */\n    tag_163:\n        /* \"#utility.yul\":5606:5610   */\n      0x00\n        /* \"#utility.yul\":5638:5642   */\n      0x20\n        /* \"#utility.yul\":5633:5636   */\n      dup3\n        /* \"#utility.yul\":5629:5643   */\n      add\n        /* \"#utility.yul\":5621:5643   */\n      swap1\n      pop\n        /* \"#utility.yul\":5508:5649   */\n      swap2\n      swap1\n      pop\n      jump\t// out\n        /* \"#utility.yul\":5727:6683   */\n    tag_164:\n        /* \"#utility.yul\":5902:5905   */\n      0x00\n        /* \"#utility.yul\":5931:6013   */\n      tag_238\n        /* \"#utility.yul\":6007:6012   */\n      dup3\n        /* \"#utility.yul\":5931:6013   */\n      tag_150\n      jump\t// in\n    tag_238:\n        /* \"#utility.yul\":6029:6143   */\n      tag_239\n        /* \"#utility.yul\":6136:6142   */\n      dup2\n        /* \"#utility.yul\":6131:6134   */\n      dup6\n        /* \"#utility.yul\":6029:6143   */\n      tag_151\n      jump\t// in\n    tag_239:\n        /* \"#utility.yul\":6022:6143   */\n      swap4\n      pop\n        /* \"#utility.yul\":6167:6251   */\n      tag_240\n        /* \"#utility.yul\":6245:6250   */\n      dup4\n        /* \"#utility.yul\":6167:6251   */\n      tag_152\n      jump\t// in\n    tag_240:\n        /* \"#utility.yul\":6274:6281   */\n      dup1\n        /* \"#utility.yul\":6305:6306   */\n      0x00\n        /* \"#utility.yul\":6290:6658   */\n    tag_241:\n        /* \"#utility.yul\":6315:6321   */\n      dup4\n        /* \"#utility.yul\":6312:6313   */\n      dup2\n        /* \"#utility.yul\":6309:6322   */\n      lt\n        /* \"#utility.yul\":6290:6658   */\n      iszero\n      tag_243\n      jumpi\n        /* \"#utility.yul\":6391:6397   */\n      dup2\n        /* \"#utility.yul\":6385:6398   */\n      mload\n        /* \"#utility.yul\":6418:6537   */\n      tag_244\n        /* \"#utility.yul\":6533:6536   */\n      dup9\n        /* \"#utility.yul\":6518:6531   */\n      dup3\n        /* \"#utility.yul\":6418:6537   */\n      tag_162\n      jump\t// in\n    tag_244:\n        /* \"#utility.yul\":6411:6537   */\n      swap8\n      pop\n        /* \"#utility.yul\":6560:6648   */\n      tag_245\n        /* \"#utility.yul\":6641:6647   */\n      dup4\n        /* \"#utility.yul\":6560:6648   */\n      tag_163\n      jump\t// in\n    tag_245:\n        /* \"#utility.yul\":6550:6648   */\n      swap3\n      pop\n        /* \"#utility.yul\":6350:6658   */\n      pop\n        /* \"#utility.yul\":6337:6338   */\n      0x01\n        /* \"#utility.yul\":6334:6335   */\n      dup2\n        /* \"#utility.yul\":6330:6339   */\n      add\n        /* \"#utility.yul\":6325:6339   */\n      swap1\n      pop\n        /* \"#utility.yul\":6290:6658   */\n      jump(tag_241)\n    tag_243:\n        /* \"#utility.yul\":6294:6308   */\n      pop\n        /* \"#utility.yul\":6674:6677   */\n      dup6\n        /* \"#utility.yul\":6667:6677   */\n      swap4\n      pop\n        /* \"#utility.yul\":5907:6683   */\n      pop\n      pop\n      pop\n        /* \"#utility.yul\":5727:6683   */\n      swap3\n      swap2\n      pop\n      pop\n      jump\t// out\n        /* \"#utility.yul\":6689:7174   */\n    tag_20:\n        /* \"#utility.yul\":6888:6892   */\n      0x00\n        /* \"#utility.yul\":6926:6928   */\n      0x20\n        /* \"#utility.yul\":6915:6924   */\n      dup3\n        /* \"#utility.yul\":6911:6929   */\n      add\n        /* \"#utility.yul\":6903:6929   */\n      swap1\n      pop\n        /* \"#utility.yul\":6975:6984   */\n      dup2\n        /* \"#utility.yul\":6969:6973   */\n      dup2\n        /* \"#utility.yul\":6965:6985   */\n      sub\n        /* \"#utility.yul\":6961:6962   */\n      0x00\n        /* \"#utility.yul\":6950:6959   */\n      dup4\n        /* \"#utility.yul\":6946:6963   */\n      add\n        /* \"#utility.yul\":6939:6986   */\n      mstore\n        /* \"#utility.yul\":7003:7167   */\n      tag_247\n        /* \"#utility.yul\":7162:7166   */\n      dup2\n        /* \"#utility.yul\":7153:7159   */\n      dup5\n        /* \"#utility.yul\":7003:7167   */\n      tag_164\n      jump\t// in\n    tag_247:\n        /* \"#utility.yul\":6995:7167   */\n      swap1\n      pop\n        /* \"#utility.yul\":6689:7174   */\n      swap3\n      swap2\n      pop\n      pop\n      jump\t// out\n        /* \"#utility.yul\":7180:7509   */\n    tag_24:\n        /* \"#utility.yul\":7239:7245   */\n      0x00\n        /* \"#utility.yul\":7288:7290   */\n      0x20\n        /* \"#utility.yul\":7276:7285   */\n      dup3\n        /* \"#utility.yul\":7267:7274   */\n      dup5\n        /* \"#utility.yul\":7263:7286   */\n      sub\n        /* \"#utility.yul\":7259:7291   */\n      slt\n        /* \"#utility.yul\":7256:7375   */\n      iszero\n      tag_249\n      jumpi\n        /* \"#utility.yul\":7294:7373   */\n      tag_250\n      tag_141\n      jump\t// in\n    tag_250:\n        /* \"#utility.yul\":7256:7375   */\n    tag_249:\n        /* \"#utility.yul\":7414:7415   */\n      0x00\n        /* \"#utility.yul\":7439:7492   */\n      tag_251\n        /* \"#utility.yul\":7484:7491   */\n      dup5\n        /* \"#utility.yul\":7475:7481   */\n      dup3\n        /* \"#utility.yul\":7464:7473   */\n      dup6\n        /* \"#utility.yul\":7460:7482   */\n      add\n        /* \"#utility.yul\":7439:7492   */\n      tag_146\n      jump\t// in\n    tag_251:\n        /* \"#utility.yul\":7429:7492   */\n      swap2\n      pop\n        /* \"#utility.yul\":7385:7502   */\n      pop\n        /* \"#utility.yul\":7180:7509   */\n      swap3\n      swap2\n      pop\n      pop\n      jump\t// out\n        /* \"#utility.yul\":7515:7633   */\n    tag_165:\n        /* \"#utility.yul\":7602:7626   */\n      tag_253\n        /* \"#utility.yul\":7620:7625   */\n      dup2\n        /* \"#utility.yul\":7602:7626   */\n      tag_147\n      jump\t// in\n    tag_253:\n        /* \"#utility.yul\":7597:7600   */\n      dup3\n        /* \"#utility.yul\":7590:7627   */\n      mstore\n        /* \"#utility.yul\":7515:7633   */\n      pop\n      pop\n      jump\t// out\n        /* \"#utility.yul\":7639:7861   */\n    tag_27:\n        /* \"#utility.yul\":7732:7736   */\n      0x00\n        /* \"#utility.yul\":7770:7772   */\n      0x20\n        /* \"#utility.yul\":7759:7768   */\n      dup3\n        /* \"#utility.yul\":7755:7773   */\n      add\n        /* \"#utility.yul\":7747:7773   */\n      swap1\n      pop\n        /* \"#utility.yul\":7783:7854   */\n      tag_255\n        /* \"#utility.yul\":7851:7852   */\n      0x00\n        /* \"#utility.yul\":7840:7849   */\n      dup4\n        /* \"#utility.yul\":7836:7853   */\n      add\n        /* \"#utility.yul\":7827:7833   */\n      dup5\n        /* \"#utility.yul\":7783:7854   */\n      tag_165\n      jump\t// in\n    tag_255:\n        /* \"#utility.yul\":7639:7861   */\n      swap3\n      swap2\n      pop\n      pop\n      jump\t// out\n        /* \"#utility.yul\":7867:8341   */\n    tag_31:\n        /* \"#utility.yul\":7935:7941   */\n      0x00\n        /* \"#utility.yul\":7943:7949   */\n      dup1\n        /* \"#utility.yul\":7992:7994   */\n      0x40\n        /* \"#utility.yul\":7980:7989   */\n      dup4\n        /* \"#utility.yul\":7971:7978   */\n      dup6\n        /* \"#utility.yul\":7967:7990   */\n      sub\n        /* \"#utility.yul\":7963:7995   */\n      slt\n        /* \"#utility.yul\":7960:8079   */\n      iszero\n      tag_257\n      jumpi\n        /* \"#utility.yul\":7998:8077   */\n      tag_258\n      tag_141\n      jump\t// in\n    tag_258:\n        /* \"#utility.yul\":7960:8079   */\n    tag_257:\n        /* \"#utility.yul\":8118:8119   */\n      0x00\n        /* \"#utility.yul\":8143:8196   */\n      tag_259\n        /* \"#utility.yul\":8188:8195   */\n      dup6\n        /* \"#utility.yul\":8179:8185   */\n      dup3\n        /* \"#utility.yul\":8168:8177   */\n      dup7\n        /* \"#utility.yul\":8164:8186   */\n      add\n        /* \"#utility.yul\":8143:8196   */\n      tag_146\n      jump\t// in\n    tag_259:\n        /* \"#utility.yul\":8133:8196   */\n      swap3\n      pop\n        /* \"#utility.yul\":8089:8206   */\n      pop\n        /* \"#utility.yul\":8245:8247   */\n      0x20\n        /* \"#utility.yul\":8271:8324   */\n      tag_260\n        /* \"#utility.yul\":8316:8323   */\n      dup6\n        /* \"#utility.yul\":8307:8313   */\n      dup3\n        /* \"#utility.yul\":8296:8305   */\n      dup7\n        /* \"#utility.yul\":8292:8314   */\n      add\n        /* \"#utility.yul\":8271:8324   */\n      tag_149\n      jump\t// in\n    tag_260:\n        /* \"#utility.yul\":8261:8324   */\n      swap2\n      pop\n        /* \"#utility.yul\":8216:8334   */\n      pop\n        /* \"#utility.yul\":7867:8341   */\n      swap3\n      pop\n      swap3\n      swap1\n      pop\n      jump\t// out\n        /* \"#utility.yul\":8347:8465   */\n    tag_166:\n        /* \"#utility.yul\":8434:8458   */\n      tag_262\n        /* \"#utility.yul\":8452:8457   */\n      dup2\n        /* \"#utility.yul\":8434:8458   */\n      tag_144\n      jump\t// in\n    tag_262:\n        /* \"#utility.yul\":8429:8432   */\n      dup3\n        /* \"#utility.yul\":8422:8459   */\n      mstore\n        /* \"#utility.yul\":8347:8465   */\n      pop\n      pop\n      jump\t// out\n        /* \"#utility.yul\":8471:8630   */\n    tag_167:\n        /* \"#utility.yul\":8572:8623   */\n      tag_264\n        /* \"#utility.yul\":8617:8622   */\n      dup2\n        /* \"#utility.yul\":8572:8623   */\n      tag_157\n      jump\t// in\n    tag_264:\n        /* \"#utility.yul\":8567:8570   */\n      dup3\n        /* \"#utility.yul\":8560:8624   */\n      mstore\n        /* \"#utility.yul\":8471:8630   */\n      pop\n      pop\n      jump\t// out\n        /* \"#utility.yul\":8636:8745   */\n    tag_168:\n        /* \"#utility.yul\":8717:8738   */\n      tag_266\n        /* \"#utility.yul\":8732:8737   */\n      dup2\n        /* \"#utility.yul\":8717:8738   */\n      tag_159\n      jump\t// in\n    tag_266:\n        /* \"#utility.yul\":8712:8715   */\n      dup3\n        /* \"#utility.yul\":8705:8739   */\n      mstore\n        /* \"#utility.yul\":8636:8745   */\n      pop\n      pop\n      jump\t// out\n        /* \"#utility.yul\":8751:9764   */\n    tag_34:\n        /* \"#utility.yul\":9048:9052   */\n      0x00\n        /* \"#utility.yul\":9086:9089   */\n      0x0100\n        /* \"#utility.yul\":9075:9084   */\n      dup3\n        /* \"#utility.yul\":9071:9090   */\n      add\n        /* \"#utility.yul\":9063:9090   */\n      swap1\n      pop\n        /* \"#utility.yul\":9100:9171   */\n      tag_268\n        /* \"#utility.yul\":9168:9169   */\n      0x00\n        /* \"#utility.yul\":9157:9166   */\n      dup4\n        /* \"#utility.yul\":9153:9170   */\n      add\n        /* \"#utility.yul\":9144:9150   */\n      dup12\n        /* \"#utility.yul\":9100:9171   */\n      tag_166\n      jump\t// in\n    tag_268:\n        /* \"#utility.yul\":9181:9253   */\n      tag_269\n        /* \"#utility.yul\":9249:9251   */\n      0x20\n        /* \"#utility.yul\":9238:9247   */\n      dup4\n        /* \"#utility.yul\":9234:9252   */\n      add\n        /* \"#utility.yul\":9225:9231   */\n      dup11\n        /* \"#utility.yul\":9181:9253   */\n      tag_166\n      jump\t// in\n    tag_269:\n        /* \"#utility.yul\":9263:9335   */\n      tag_270\n        /* \"#utility.yul\":9331:9333   */\n      0x40\n        /* \"#utility.yul\":9320:9329   */\n      dup4\n        /* \"#utility.yul\":9316:9334   */\n      add\n        /* \"#utility.yul\":9307:9313   */\n      dup10\n        /* \"#utility.yul\":9263:9335   */\n      tag_165\n      jump\t// in\n    tag_270:\n        /* \"#utility.yul\":9345:9417   */\n      tag_271\n        /* \"#utility.yul\":9413:9415   */\n      0x60\n        /* \"#utility.yul\":9402:9411   */\n      dup4\n        /* \"#utility.yul\":9398:9416   */\n      add\n        /* \"#utility.yul\":9389:9395   */\n      dup9\n        /* \"#utility.yul\":9345:9417   */\n      tag_165\n      jump\t// in\n    tag_271:\n        /* \"#utility.yul\":9427:9500   */\n      tag_272\n        /* \"#utility.yul\":9495:9498   */\n      0x80\n        /* \"#utility.yul\":9484:9493   */\n      dup4\n        /* \"#utility.yul\":9480:9499   */\n      add\n        /* \"#utility.yul\":9471:9477   */\n      dup8\n        /* \"#utility.yul\":9427:9500   */\n      tag_165\n      jump\t// in\n    tag_272:\n        /* \"#utility.yul\":9510:9583   */\n      tag_273\n        /* \"#utility.yul\":9578:9581   */\n      0xa0\n        /* \"#utility.yul\":9567:9576   */\n      dup4\n        /* \"#utility.yul\":9563:9582   */\n      add\n        /* \"#utility.yul\":9554:9560   */\n      dup7\n        /* \"#utility.yul\":9510:9583   */\n      tag_165\n      jump\t// in\n    tag_273:\n        /* \"#utility.yul\":9593:9680   */\n      tag_274\n        /* \"#utility.yul\":9675:9678   */\n      0xc0\n        /* \"#utility.yul\":9664:9673   */\n      dup4\n        /* \"#utility.yul\":9660:9679   */\n      add\n        /* \"#utility.yul\":9651:9657   */\n      dup6\n        /* \"#utility.yul\":9593:9680   */\n      tag_167\n      jump\t// in\n    tag_274:\n        /* \"#utility.yul\":9690:9757   */\n      tag_275\n        /* \"#utility.yul\":9752:9755   */\n      0xe0\n        /* \"#utility.yul\":9741:9750   */\n      dup4\n        /* \"#utility.yul\":9737:9756   */\n      add\n        /* \"#utility.yul\":9728:9734   */\n      dup5\n        /* \"#utility.yul\":9690:9757   */\n      tag_168\n      jump\t// in\n    tag_275:\n        /* \"#utility.yul\":8751:9764   */\n      swap10\n      swap9\n      pop\n      pop\n      pop\n      pop\n      pop\n      pop\n      pop\n      pop\n      pop\n      jump\t// out\n        /* \"#utility.yul\":9770:10535   */\n    tag_50:\n        /* \"#utility.yul\":9856:9862   */\n      0x00\n        /* \"#utility.yul\":9864:9870   */\n      dup1\n        /* \"#utility.yul\":9872:9878   */\n      0x00\n        /* \"#utility.yul\":9880:9886   */\n      dup1\n        /* \"#utility.yul\":9929:9932   */\n      0x80\n        /* \"#utility.yul\":9917:9926   */\n      dup6\n        /* \"#utility.yul\":9908:9915   */\n      dup8\n        /* \"#utility.yul\":9904:9927   */\n      sub\n        /* \"#utility.yul\":9900:9933   */\n      slt\n        /* \"#utility.yul\":9897:10017   */\n      iszero\n      tag_277\n      jumpi\n        /* \"#utility.yul\":9936:10015   */\n      tag_278\n      tag_141\n      jump\t// in\n    tag_278:\n        /* \"#utility.yul\":9897:10017   */\n    tag_277:\n        /* \"#utility.yul\":10056:10057   */\n      0x00\n        /* \"#utility.yul\":10081:10134   */\n      tag_279\n        /* \"#utility.yul\":10126:10133   */\n      dup8\n        /* \"#utility.yul\":10117:10123   */\n      dup3\n        /* \"#utility.yul\":10106:10115   */\n      dup9\n        /* \"#utility.yul\":10102:10124   */\n      add\n        /* \"#utility.yul\":10081:10134   */\n      tag_146\n      jump\t// in\n    tag_279:\n        /* \"#utility.yul\":10071:10134   */\n      swap5\n      pop\n        /* \"#utility.yul\":10027:10144   */\n      pop\n        /* \"#utility.yul\":10183:10185   */\n      0x20\n        /* \"#utility.yul\":10209:10262   */\n      tag_280\n        /* \"#utility.yul\":10254:10261   */\n      dup8\n        /* \"#utility.yul\":10245:10251   */\n      dup3\n        /* \"#utility.yul\":10234:10243   */\n      dup9\n        /* \"#utility.yul\":10230:10252   */\n      add\n        /* \"#utility.yul\":10209:10262   */\n      tag_149\n      jump\t// in\n    tag_280:\n        /* \"#utility.yul\":10199:10262   */\n      swap4\n      pop\n        /* \"#utility.yul\":10154:10272   */\n      pop\n        /* \"#utility.yul\":10311:10313   */\n      0x40\n        /* \"#utility.yul\":10337:10390   */\n      tag_281\n        /* \"#utility.yul\":10382:10389   */\n      dup8\n        /* \"#utility.yul\":10373:10379   */\n      dup3\n        /* \"#utility.yul\":10362:10371   */\n      dup9\n        /* \"#utility.yul\":10358:10380   */\n      add\n        /* \"#utility.yul\":10337:10390   */\n      tag_149\n      jump\t// in\n    tag_281:\n        /* \"#utility.yul\":10327:10390   */\n      swap3\n      pop\n        /* \"#utility.yul\":10282:10400   */\n      pop\n        /* \"#utility.yul\":10439:10441   */\n      0x60\n        /* \"#utility.yul\":10465:10518   */\n      tag_282\n        /* \"#utility.yul\":10510:10517   */\n      dup8\n        /* \"#utility.yul\":10501:10507   */\n      dup3\n        /* \"#utility.yul\":10490:10499   */\n      dup9\n        /* \"#utility.yul\":10486:10508   */\n      add\n        /* \"#utility.yul\":10465:10518   */\n      tag_149\n      jump\t// in\n    tag_282:\n        /* \"#utility.yul\":10455:10518   */\n      swap2\n      pop\n        /* \"#utility.yul\":10410:10528   */\n      pop\n        /* \"#utility.yul\":9770:10535   */\n      swap3\n      swap6\n      swap2\n      swap5\n      pop\n      swap3\n      pop\n      jump\t// out\n        /* \"#utility.yul\":10541:10721   */\n    tag_55:\n        /* \"#utility.yul\":10589:10666   */\n      0x4e487b7100000000000000000000000000000000000000000000000000000000\n        /* \"#utility.yul\":10586:10587   */\n      0x00\n        /* \"#utility.yul\":10579:10667   */\n      mstore\n        /* \"#utility.yul\":10686:10690   */\n      0x32\n        /* \"#utility.yul\":10683:10684   */\n      0x04\n        /* \"#utility.yul\":10676:10691   */\n      mstore\n        /* \"#utility.yul\":10710:10714   */\n      0x24\n        /* \"#utility.yul\":10707:10708   */\n      0x00\n        /* \"#utility.yul\":10700:10715   */\n      revert\n        /* \"#utility.yul\":10727:10896   */\n    tag_169:\n        /* \"#utility.yul\":10811:10822   */\n      0x00\n        /* \"#utility.yul\":10845:10851   */\n      dup3\n        /* \"#utility.yul\":10840:10843   */\n      dup3\n        /* \"#utility.yul\":10833:10852   */\n      mstore\n        /* \"#utility.yul\":10885:10889   */\n      0x20\n        /* \"#utility.yul\":10880:10883   */\n      dup3\n        /* \"#utility.yul\":10876:10890   */\n      add\n        /* \"#utility.yul\":10861:10890   */\n      swap1\n      pop\n        /* \"#utility.yul\":10727:10896   */\n      swap3\n      swap2\n      pop\n      pop\n      jump\t// out\n        /* \"#utility.yul\":10902:11069   */\n    tag_170:\n        /* \"#utility.yul\":11042:11061   */\n      0x496e76616c69642072656365697665722e000000000000000000000000000000\n        /* \"#utility.yul\":11038:11039   */\n      0x00\n        /* \"#utility.yul\":11030:11036   */\n      dup3\n        /* \"#utility.yul\":11026:11040   */\n      add\n        /* \"#utility.yul\":11019:11062   */\n      mstore\n        /* \"#utility.yul\":10902:11069   */\n      pop\n      jump\t// out\n        /* \"#utility.yul\":11075:11441   */\n    tag_171:\n        /* \"#utility.yul\":11217:11220   */\n      0x00\n        /* \"#utility.yul\":11238:11305   */\n      tag_287\n        /* \"#utility.yul\":11302:11304   */\n      0x11\n        /* \"#utility.yul\":11297:11300   */\n      dup4\n        /* \"#utility.yul\":11238:11305   */\n      tag_169\n      jump\t// in\n    tag_287:\n        /* \"#utility.yul\":11231:11305   */\n      swap2\n      pop\n        /* \"#utility.yul\":11314:11407   */\n      tag_288\n        /* \"#utility.yul\":11403:11406   */\n      dup3\n        /* \"#utility.yul\":11314:11407   */\n      tag_170\n      jump\t// in\n    tag_288:\n        /* \"#utility.yul\":11432:11434   */\n      0x20\n        /* \"#utility.yul\":11427:11430   */\n      dup3\n        /* \"#utility.yul\":11423:11435   */\n      add\n        /* \"#utility.yul\":11416:11435   */\n      swap1\n      pop\n        /* \"#utility.yul\":11075:11441   */\n      swap2\n      swap1\n      pop\n      jump\t// out\n        /* \"#utility.yul\":11447:11866   */\n    tag_62:\n        /* \"#utility.yul\":11613:11617   */\n      0x00\n        /* \"#utility.yul\":11651:11653   */\n      0x20\n        /* \"#utility.yul\":11640:11649   */\n      dup3\n        /* \"#utility.yul\":11636:11654   */\n      add\n        /* \"#utility.yul\":11628:11654   */\n      swap1\n      pop\n        /* \"#utility.yul\":11700:11709   */\n      dup2\n        /* \"#utility.yul\":11694:11698   */\n      dup2\n        /* \"#utility.yul\":11690:11710   */\n      sub\n        /* \"#utility.yul\":11686:11687   */\n      0x00\n        /* \"#utility.yul\":11675:11684   */\n      dup4\n        /* \"#utility.yul\":11671:11688   */\n      add\n        /* \"#utility.yul\":11664:11711   */\n      mstore\n        /* \"#utility.yul\":11728:11859   */\n      tag_290\n        /* \"#utility.yul\":11854:11858   */\n      dup2\n        /* \"#utility.yul\":11728:11859   */\n      tag_171\n      jump\t// in\n    tag_290:\n        /* \"#utility.yul\":11720:11859   */\n      swap1\n      pop\n        /* \"#utility.yul\":11447:11866   */\n      swap2\n      swap1\n      pop\n      jump\t// out\n        /* \"#utility.yul\":11872:12046   */\n    tag_172:\n        /* \"#utility.yul\":12012:12038   */\n      0x536869706d656e74206e6f7420696e207472616e7369742e0000000000000000\n        /* \"#utility.yul\":12008:12009   */\n      0x00\n        /* \"#utility.yul\":12000:12006   */\n      dup3\n        /* \"#utility.yul\":11996:12010   */\n      add\n        /* \"#utility.yul\":11989:12039   */\n      mstore\n        /* \"#utility.yul\":11872:12046   */\n      pop\n      jump\t// out\n        /* \"#utility.yul\":12052:12418   */\n    tag_173:\n        /* \"#utility.yul\":12194:12197   */\n      0x00\n        /* \"#utility.yul\":12215:12282   */\n      tag_293\n        /* \"#utility.yul\":12279:12281   */\n      0x18\n        /* \"#utility.yul\":12274:12277   */\n      dup4\n        /* \"#utility.yul\":12215:12282   */\n      tag_169\n      jump\t// in\n    tag_293:\n        /* \"#utility.yul\":12208:12282   */\n      swap2\n      pop\n        /* \"#utility.yul\":12291:12384   */\n      tag_294\n        /* \"#utility.yul\":12380:12383   */\n      dup3\n        /* \"#utility.yul\":12291:12384   */\n      tag_172\n      jump\t// in\n    tag_294:\n        /* \"#utility.yul\":12409:12411   */\n      0x20\n        /* \"#utility.yul\":12404:12407   */\n      dup3\n        /* \"#utility.yul\":12400:12412   */\n      add\n        /* \"#utility.yul\":12393:12412   */\n      swap1\n      pop\n        /* \"#utility.yul\":12052:12418   */\n      swap2\n      swap1\n      pop\n      jump\t// out\n        /* \"#utility.yul\":12424:12843   */\n    tag_70:\n        /* \"#utility.yul\":12590:12594   */\n      0x00\n        /* \"#utility.yul\":12628:12630   */\n      0x20\n        /* \"#utility.yul\":12617:12626   */\n      dup3\n        /* \"#utility.yul\":12613:12631   */\n      add\n        /* \"#utility.yul\":12605:12631   */\n      swap1\n      pop\n        /* \"#utility.yul\":12677:12686   */\n      dup2\n        /* \"#utility.yul\":12671:12675   */\n      dup2\n        /* \"#utility.yul\":12667:12687   */\n      sub\n        /* \"#utility.yul\":12663:12664   */\n      0x00\n        /* \"#utility.yul\":12652:12661   */\n      dup4\n        /* \"#utility.yul\":12648:12665   */\n      add\n        /* \"#utility.yul\":12641:12688   */\n      mstore\n        /* \"#utility.yul\":12705:12836   */\n      tag_296\n        /* \"#utility.yul\":12831:12835   */\n      dup2\n        /* \"#utility.yul\":12705:12836   */\n      tag_173\n      jump\t// in\n    tag_296:\n        /* \"#utility.yul\":12697:12836   */\n      swap1\n      pop\n        /* \"#utility.yul\":12424:12843   */\n      swap2\n      swap1\n      pop\n      jump\t// out\n        /* \"#utility.yul\":12849:13021   */\n    tag_174:\n        /* \"#utility.yul\":12989:13013   */\n      0x536869706d656e7420616c726561647920706169642e00000000000000000000\n        /* \"#utility.yul\":12985:12986   */\n      0x00\n        /* \"#utility.yul\":12977:12983   */\n      dup3\n        /* \"#utility.yul\":12973:12987   */\n      add\n        /* \"#utility.yul\":12966:13014   */\n      mstore\n        /* \"#utility.yul\":12849:13021   */\n      pop\n      jump\t// out\n        /* \"#utility.yul\":13027:13393   */\n    tag_175:\n        /* \"#utility.yul\":13169:13172   */\n      0x00\n        /* \"#utility.yul\":13190:13257   */\n      tag_299\n        /* \"#utility.yul\":13254:13256   */\n      0x16\n        /* \"#utility.yul\":13249:13252   */\n      dup4\n        /* \"#utility.yul\":13190:13257   */\n      tag_169\n      jump\t// in\n    tag_299:\n        /* \"#utility.yul\":13183:13257   */\n      swap2\n      pop\n        /* \"#utility.yul\":13266:13359   */\n      tag_300\n        /* \"#utility.yul\":13355:13358   */\n      dup3\n        /* \"#utility.yul\":13266:13359   */\n      tag_174\n      jump\t// in\n    tag_300:\n        /* \"#utility.yul\":13384:13386   */\n      0x20\n        /* \"#utility.yul\":13379:13382   */\n      dup3\n        /* \"#utility.yul\":13375:13387   */\n      add\n        /* \"#utility.yul\":13368:13387   */\n      swap1\n      pop\n        /* \"#utility.yul\":13027:13393   */\n      swap2\n      swap1\n      pop\n      jump\t// out\n        /* \"#utility.yul\":13399:13818   */\n    tag_73:\n        /* \"#utility.yul\":13565:13569   */\n      0x00\n        /* \"#utility.yul\":13603:13605   */\n      0x20\n        /* \"#utility.yul\":13592:13601   */\n      dup3\n        /* \"#utility.yul\":13588:13606   */\n      add\n        /* \"#utility.yul\":13580:13606   */\n      swap1\n      pop\n        /* \"#utility.yul\":13652:13661   */\n      dup2\n        /* \"#utility.yul\":13646:13650   */\n      dup2\n        /* \"#utility.yul\":13642:13662   */\n      sub\n        /* \"#utility.yul\":13638:13639   */\n      0x00\n        /* \"#utility.yul\":13627:13636   */\n      dup4\n        /* \"#utility.yul\":13623:13640   */\n      add\n        /* \"#utility.yul\":13616:13663   */\n      mstore\n        /* \"#utility.yul\":13680:13811   */\n      tag_302\n        /* \"#utility.yul\":13806:13810   */\n      dup2\n        /* \"#utility.yul\":13680:13811   */\n      tag_175\n      jump\t// in\n    tag_302:\n        /* \"#utility.yul\":13672:13811   */\n      swap1\n      pop\n        /* \"#utility.yul\":13399:13818   */\n      swap2\n      swap1\n      pop\n      jump\t// out\n        /* \"#utility.yul\":13824:14002   */\n    tag_176:\n        /* \"#utility.yul\":13964:13994   */\n      0x536869706d656e7420616c726561647920696e207472616e7369742e00000000\n        /* \"#utility.yul\":13960:13961   */\n      0x00\n        /* \"#utility.yul\":13952:13958   */\n      dup3\n        /* \"#utility.yul\":13948:13962   */\n      add\n        /* \"#utility.yul\":13941:13995   */\n      mstore\n        /* \"#utility.yul\":13824:14002   */\n      pop\n      jump\t// out\n        /* \"#utility.yul\":14008:14374   */\n    tag_177:\n        /* \"#utility.yul\":14150:14153   */\n      0x00\n        /* \"#utility.yul\":14171:14238   */\n      tag_305\n        /* \"#utility.yul\":14235:14237   */\n      0x1c\n        /* \"#utility.yul\":14230:14233   */\n      dup4\n        /* \"#utility.yul\":14171:14238   */\n      tag_169\n      jump\t// in\n    tag_305:\n        /* \"#utility.yul\":14164:14238   */\n      swap2\n      pop\n        /* \"#utility.yul\":14247:14340   */\n      tag_306\n        /* \"#utility.yul\":14336:14339   */\n      dup3\n        /* \"#utility.yul\":14247:14340   */\n      tag_176\n      jump\t// in\n    tag_306:\n        /* \"#utility.yul\":14365:14367   */\n      0x20\n        /* \"#utility.yul\":14360:14363   */\n      dup3\n        /* \"#utility.yul\":14356:14368   */\n      add\n        /* \"#utility.yul\":14349:14368   */\n      swap1\n      pop\n        /* \"#utility.yul\":14008:14374   */\n      swap2\n      swap1\n      pop\n      jump\t// out\n        /* \"#utility.yul\":14380:14799   */\n    tag_108:\n        /* \"#utility.yul\":14546:14550   */\n      0x00\n        /* \"#utility.yul\":14584:14586   */\n      0x20\n        /* \"#utility.yul\":14573:14582   */\n      dup3\n        /* \"#utility.yul\":14569:14587   */\n      add\n        /* \"#utility.yul\":14561:14587   */\n      swap1\n      pop\n        /* \"#utility.yul\":14633:14642   */\n      dup2\n        /* \"#utility.yul\":14627:14631   */\n      dup2\n        /* \"#utility.yul\":14623:14643   */\n      sub\n        /* \"#utility.yul\":14619:14620   */\n      0x00\n        /* \"#utility.yul\":14608:14617   */\n      dup4\n        /* \"#utility.yul\":14604:14621   */\n      add\n        /* \"#utility.yul\":14597:14644   */\n      mstore\n        /* \"#utility.yul\":14661:14792   */\n      tag_308\n        /* \"#utility.yul\":14787:14791   */\n      dup2\n        /* \"#utility.yul\":14661:14792   */\n      tag_177\n      jump\t// in\n    tag_308:\n        /* \"#utility.yul\":14653:14792   */\n      swap1\n      pop\n        /* \"#utility.yul\":14380:14799   */\n      swap2\n      swap1\n      pop\n      jump\t// out\n        /* \"#utility.yul\":14805:15028   */\n    tag_178:\n        /* \"#utility.yul\":14945:14979   */\n      0x5061796d656e7420616d6f756e74206d757374206d6174636820746865207072\n        /* \"#utility.yul\":14941:14942   */\n      0x00\n        /* \"#utility.yul\":14933:14939   */\n      dup3\n        /* \"#utility.yul\":14929:14943   */\n      add\n        /* \"#utility.yul\":14922:14980   */\n      mstore\n        /* \"#utility.yul\":15014:15020   */\n      0x6963652e00000000000000000000000000000000000000000000000000000000\n        /* \"#utility.yul\":15009:15011   */\n      0x20\n        /* \"#utility.yul\":15001:15007   */\n      dup3\n        /* \"#utility.yul\":14997:15012   */\n      add\n        /* \"#utility.yul\":14990:15021   */\n      mstore\n        /* \"#utility.yul\":14805:15028   */\n      pop\n      jump\t// out\n        /* \"#utility.yul\":15034:15400   */\n    tag_179:\n        /* \"#utility.yul\":15176:15179   */\n      0x00\n        /* \"#utility.yul\":15197:15264   */\n      tag_311\n        /* \"#utility.yul\":15261:15263   */\n      0x24\n        /* \"#utility.yul\":15256:15259   */\n      dup4\n        /* \"#utility.yul\":15197:15264   */\n      tag_169\n      jump\t// in\n    tag_311:\n        /* \"#utility.yul\":15190:15264   */\n      swap2\n      pop\n        /* \"#utility.yul\":15273:15366   */\n      tag_312\n        /* \"#utility.yul\":15362:15365   */\n      dup3\n        /* \"#utility.yul\":15273:15366   */\n      tag_178\n      jump\t// in\n    tag_312:\n        /* \"#utility.yul\":15391:15393   */\n      0x40\n        /* \"#utility.yul\":15386:15389   */\n      dup3\n        /* \"#utility.yul\":15382:15394   */\n      add\n        /* \"#utility.yul\":15375:15394   */\n      swap1\n      pop\n        /* \"#utility.yul\":15034:15400   */\n      swap2\n      swap1\n      pop\n      jump\t// out\n        /* \"#utility.yul\":15406:15825   */\n    tag_125:\n        /* \"#utility.yul\":15572:15576   */\n      0x00\n        /* \"#utility.yul\":15610:15612   */\n      0x20\n        /* \"#utility.yul\":15599:15608   */\n      dup3\n        /* \"#utility.yul\":15595:15613   */\n      add\n        /* \"#utility.yul\":15587:15613   */\n      swap1\n      pop\n        /* \"#utility.yul\":15659:15668   */\n      dup2\n        /* \"#utility.yul\":15653:15657   */\n      dup2\n        /* \"#utility.yul\":15649:15669   */\n      sub\n        /* \"#utility.yul\":15645:15646   */\n      0x00\n        /* \"#utility.yul\":15634:15643   */\n      dup4\n        /* \"#utility.yul\":15630:15647   */\n      add\n        /* \"#utility.yul\":15623:15670   */\n      mstore\n        /* \"#utility.yul\":15687:15818   */\n      tag_314\n        /* \"#utility.yul\":15813:15817   */\n      dup2\n        /* \"#utility.yul\":15687:15818   */\n      tag_179\n      jump\t// in\n    tag_314:\n        /* \"#utility.yul\":15679:15818   */\n      swap1\n      pop\n        /* \"#utility.yul\":15406:15825   */\n      swap2\n      swap1\n      pop\n      jump\t// out\n        /* \"#utility.yul\":15831:16011   */\n    tag_180:\n        /* \"#utility.yul\":15879:15956   */\n      0x4e487b7100000000000000000000000000000000000000000000000000000000\n        /* \"#utility.yul\":15876:15877   */\n      0x00\n        /* \"#utility.yul\":15869:15957   */\n      mstore\n        /* \"#utility.yul\":15976:15980   */\n      0x11\n        /* \"#utility.yul\":15973:15974   */\n      0x04\n        /* \"#utility.yul\":15966:15981   */\n      mstore\n        /* \"#utility.yul\":16000:16004   */\n      0x24\n        /* \"#utility.yul\":15997:15998   */\n      0x00\n        /* \"#utility.yul\":15990:16005   */\n      revert\n        /* \"#utility.yul\":16017:16250   */\n    tag_132:\n        /* \"#utility.yul\":16056:16059   */\n      0x00\n        /* \"#utility.yul\":16079:16103   */\n      tag_317\n        /* \"#utility.yul\":16097:16102   */\n      dup3\n        /* \"#utility.yul\":16079:16103   */\n      tag_147\n      jump\t// in\n    tag_317:\n        /* \"#utility.yul\":16070:16103   */\n      swap2\n      pop\n        /* \"#utility.yul\":16125:16191   */\n      0xffffffffffffffffffffffffffffffffffffffffffffffffffffffffffffffff\n        /* \"#utility.yul\":16118:16123   */\n      dup3\n        /* \"#utility.yul\":16115:16192   */\n      sub\n        /* \"#utility.yul\":16112:16215   */\n      tag_318\n      jumpi\n        /* \"#utility.yul\":16195:16213   */\n      tag_319\n      tag_180\n      jump\t// in\n    tag_319:\n        /* \"#utility.yul\":16112:16215   */\n    tag_318:\n        /* \"#utility.yul\":16242:16243   */\n      0x01\n        /* \"#utility.yul\":16235:16240   */\n      dup3\n        /* \"#utility.yul\":16231:16244   */\n      add\n        /* \"#utility.yul\":16224:16244   */\n      swap1\n      pop\n        /* \"#utility.yul\":16017:16250   */\n      swap2\n      swap1\n      pop\n      jump\t// out\n        /* \"#utility.yul\":16256:16698   */\n    tag_139:\n        /* \"#utility.yul\":16405:16409   */\n      0x00\n        /* \"#utility.yul\":16443:16445   */\n      0x60\n        /* \"#utility.yul\":16432:16441   */\n      dup3\n        /* \"#utility.yul\":16428:16446   */\n      add\n        /* \"#utility.yul\":16420:16446   */\n      swap1\n      pop\n        /* \"#utility.yul\":16456:16527   */\n      tag_321\n        /* \"#utility.yul\":16524:16525   */\n      0x00\n        /* \"#utility.yul\":16513:16522   */\n      dup4\n        /* \"#utility.yul\":16509:16526   */\n      add\n        /* \"#utility.yul\":16500:16506   */\n      dup7\n        /* \"#utility.yul\":16456:16527   */\n      tag_165\n      jump\t// in\n    tag_321:\n        /* \"#utility.yul\":16537:16609   */\n      tag_322\n        /* \"#utility.yul\":16605:16607   */\n      0x20\n        /* \"#utility.yul\":16594:16603   */\n      dup4\n        /* \"#utility.yul\":16590:16608   */\n      add\n        /* \"#utility.yul\":16581:16587   */\n      dup6\n        /* \"#utility.yul\":16537:16609   */\n      tag_165\n      jump\t// in\n    tag_322:\n        /* \"#utility.yul\":16619:16691   */\n      tag_323\n        /* \"#utility.yul\":16687:16689   */\n      0x40\n        /* \"#utility.yul\":16676:16685   */\n      dup4\n        /* \"#utility.yul\":16672:16690   */\n      add\n        /* \"#utility.yul\":16663:16669   */\n      dup5\n        /* \"#utility.yul\":16619:16691   */\n      tag_165\n      jump\t// in\n    tag_323:\n        /* \"#utility.yul\":16256:16698   */\n      swap5\n      swap4\n      pop\n      pop\n      pop\n      pop\n      jump\t// out\n\n    auxdata: 0xa2646970667358221220802a4501b7399ec3a626fd1c2ad2062bc3676f33e055c1824317da304e15758264736f6c63430008120033\n}\n",
				"bytecode": {
					"linkReferences": {},
					"object": "608060405234801561001057600080fd5b506000600181905550611947806100286000396000f3fe60806040526004361061007b5760003560e01c80637ff5265d1161004e5780637ff5265d146101555780638365da541461017e578063aace20b7146101c2578063cbc4b181146101ed5761007b565b8063179a878c1461008057806327506f53146100a957806341fdc195146100d45780635667e02f14610111575b600080fd5b34801561008c57600080fd5b506100a760048036038101906100a291906111c1565b610209565b005b3480156100b557600080fd5b506100be6105dd565b6040516100cb9190611416565b60405180910390f35b3480156100e057600080fd5b506100fb60048036038101906100f69190611438565b610767565b6040516101089190611474565b60405180910390f35b34801561011d57600080fd5b506101386004803603810190610133919061148f565b6107b2565b60405161014c9897969594939291906114fc565b60405180910390f35b34801561016157600080fd5b5061017c600480360381019061017791906111c1565b610871565b005b34801561018a57600080fd5b506101a560048036038101906101a0919061148f565b610acd565b6040516101b99897969594939291906114fc565b60405180910390f35b3480156101ce57600080fd5b506101d7610cb7565b6040516101e49190611474565b60405180910390f35b6102076004803603810190610202919061157a565b610cbd565b005b60008060008573ffffffffffffffffffffffffffffffffffffffff1673ffffffffffffffffffffffffffffffffffffffff168152602001908152602001600020828154811061025b5761025a6115e1565b5b90600052602060002090600702019050600060028381548110610281576102806115e1565b5b906000526020600020906007020190508373ffffffffffffffffffffffffffffffffffffffff168260010160009054906101000a900473ffffffffffffffffffffffffffffffffffffffff1673ffffffffffffffffffffffffffffffffffffffff1614610323576040517f08c379a000000000000000000000000000000000000000000000000000000000815260040161031a9061166d565b60405180910390fd5b600160028111156103375761033661125e565b5b8260060160009054906101000a900460ff16600281111561035b5761035a61125e565b5b1461039b576040517f08c379a0000000000000000000000000000000000000000000000000000000008152600401610392906116d9565b60405180910390fd5b8160060160019054906101000a900460ff16156103ed576040517f08c379a00000000000000000000000000000000000000000000000000000000081526004016103e490611745565b60405180910390fd5b60028260060160006101000a81548160ff021916908360028111156104155761041461125e565b5b021790555060028160060160006101000a81548160ff021916908360028111156104425761044161125e565b5b02179055504281600301819055504282600301819055506000826005015490508260010160009054906101000a900473ffffffffffffffffffffffffffffffffffffffff1673ffffffffffffffffffffffffffffffffffffffff166108fc829081150290604051600060405180830381858888f193505050501580156104cc573d6000803e3d6000fd5b5060018360060160016101000a81548160ff02191690831515021790555060018260060160016101000a81548160ff0219169083151502179055508473ffffffffffffffffffffffffffffffffffffffff168673ffffffffffffffffffffffffffffffffffffffff167f3746ccceb54f44c9b0ee0120e596168d07ec9f6ca303cfdd9810d3b2e2686a2e85600301546040516105689190611474565b60405180910390a38473ffffffffffffffffffffffffffffffffffffffff168673ffffffffffffffffffffffffffffffffffffffff167f2b6f2473aebafaf8d0889669490135928ec4454d2e29a103fd39693bbca6aef1836040516105cd9190611474565b60405180910390a3505050505050565b60606002805480602002602001604051908101604052809291908181526020016000905b8282101561075e5783829060005260206000209060070201604051806101000160405290816000820160009054906101000a900473ffffffffffffffffffffffffffffffffffffffff1673ffffffffffffffffffffffffffffffffffffffff1673ffffffffffffffffffffffffffffffffffffffff1681526020016001820160009054906101000a900473ffffffffffffffffffffffffffffffffffffffff1673ffffffffffffffffffffffffffffffffffffffff1673ffffffffffffffffffffffffffffffffffffffff168152602001600282015481526020016003820154815260200160048201548152602001600582015481526020016006820160009054906101000a900460ff16600281111561071e5761071d61125e565b5b60028111156107305761072f61125e565b5b81526020016006820160019054906101000a900460ff16151515158152505081526020019060010190610601565b50505050905090565b60008060008373ffffffffffffffffffffffffffffffffffffffff1673ffffffffffffffffffffffffffffffffffffffff168152602001908152602001600020805490509050919050565b600060205281600052604060002081815481106107ce57600080fd5b9060005260206000209060070201600091509150508060000160009054906101000a900473ffffffffffffffffffffffffffffffffffffffff16908060010160009054906101000a900473ffffffffffffffffffffffffffffffffffffffff16908060020154908060030154908060040154908060050154908060060160009054906101000a900460ff16908060060160019054906101000a900460ff16905088565b60008060008573ffffffffffffffffffffffffffffffffffffffff1673ffffffffffffffffffffffffffffffffffffffff16815260200190815260200160002082815481106108c3576108c26115e1565b5b906000526020600020906007020190506000600283815481106108e9576108e86115e1565b5b906000526020600020906007020190508373ffffffffffffffffffffffffffffffffffffffff168260010160009054906101000a900473ffffffffffffffffffffffffffffffffffffffff1673ffffffffffffffffffffffffffffffffffffffff161461098b576040517f08c379a00000000000000000000000000000000000000000000000000000000081526004016109829061166d565b60405180910390fd5b6000600281111561099f5761099e61125e565b5b8260060160009054906101000a900460ff1660028111156109c3576109c261125e565b5b14610a03576040517f08c379a00000000000000000000000000000000000000000000000000000000081526004016109fa906117b1565b60405180910390fd5b60018260060160006101000a81548160ff02191690836002811115610a2b57610a2a61125e565b5b021790555060018160060160006101000a81548160ff02191690836002811115610a5857610a5761125e565b5b02179055508373ffffffffffffffffffffffffffffffffffffffff168573ffffffffffffffffffffffffffffffffffffffff167faafab9f94340179ff9cefd29621e1772a4b8efab8023163838f1b0a8f6ce5df58460020154604051610abe9190611474565b60405180910390a35050505050565b60008060008060008060008060008060008c73ffffffffffffffffffffffffffffffffffffffff1673ffffffffffffffffffffffffffffffffffffffff1681526020019081526020016000208a81548110610b2b57610b2a6115e1565b5b9060005260206000209060070201604051806101000160405290816000820160009054906101000a900473ffffffffffffffffffffffffffffffffffffffff1673ffffffffffffffffffffffffffffffffffffffff1673ffffffffffffffffffffffffffffffffffffffff1681526020016001820160009054906101000a900473ffffffffffffffffffffffffffffffffffffffff1673ffffffffffffffffffffffffffffffffffffffff1673ffffffffffffffffffffffffffffffffffffffff168152602001600282015481526020016003820154815260200160048201548152602001600582015481526020016006820160009054906101000a900460ff166002811115610c3e57610c3d61125e565b5b6002811115610c5057610c4f61125e565b5b81526020016006820160019054906101000a900460ff1615151515815250509050806000015181602001518260400151836060015184608001518560a001518660c001518760e0015198509850985098509850985098509850509295985092959890939650565b60015481565b803414610cff576040517f08c379a0000000000000000000000000000000000000000000000000000000008152600401610cf690611843565b60405180910390fd5b60006040518061010001604052803373ffffffffffffffffffffffffffffffffffffffff1681526020018673ffffffffffffffffffffffffffffffffffffffff1681526020018581526020016000815260200184815260200183815260200160006002811115610d7257610d7161125e565b5b81526020016000151581525090506000803373ffffffffffffffffffffffffffffffffffffffff1673ffffffffffffffffffffffffffffffffffffffff16815260200190815260200160002081908060018154018082558091505060019003906000526020600020906007020160009091909190915060008201518160000160006101000a81548173ffffffffffffffffffffffffffffffffffffffff021916908373ffffffffffffffffffffffffffffffffffffffff16021790555060208201518160010160006101000a81548173ffffffffffffffffffffffffffffffffffffffff021916908373ffffffffffffffffffffffffffffffffffffffff16021790555060408201518160020155606082015181600301556080820151816004015560a0820151816005015560c08201518160060160006101000a81548160ff02191690836002811115610ec957610ec861125e565b5b021790555060e08201518160060160016101000a81548160ff021916908315150217905550505060016000815480929190610f0390611892565b919050555060026040518061010001604052803373ffffffffffffffffffffffffffffffffffffffff1681526020018773ffffffffffffffffffffffffffffffffffffffff1681526020018681526020016000815260200185815260200184815260200160006002811115610f7b57610f7a61125e565b5b815260200160001515815250908060018154018082558091505060019003906000526020600020906007020160009091909190915060008201518160000160006101000a81548173ffffffffffffffffffffffffffffffffffffffff021916908373ffffffffffffffffffffffffffffffffffffffff16021790555060208201518160010160006101000a81548173ffffffffffffffffffffffffffffffffffffffff021916908373ffffffffffffffffffffffffffffffffffffffff16021790555060408201518160020155606082015181600301556080820151816004015560a0820151816005015560c08201518160060160006101000a81548160ff021916908360028111156110915761109061125e565b5b021790555060e08201518160060160016101000a81548160ff02191690831515021790555050508473ffffffffffffffffffffffffffffffffffffffff163373ffffffffffffffffffffffffffffffffffffffff167f5001b34ecf2db5b7bbeddcbbe761ec9ecadcc7638018b98ce3e24995b0e946b6868686604051611119939291906118da565b60405180910390a35050505050565b600080fd5b600073ffffffffffffffffffffffffffffffffffffffff82169050919050565b60006111588261112d565b9050919050565b6111688161114d565b811461117357600080fd5b50565b6000813590506111858161115f565b92915050565b6000819050919050565b61119e8161118b565b81146111a957600080fd5b50565b6000813590506111bb81611195565b92915050565b6000806000606084860312156111da576111d9611128565b5b60006111e886828701611176565b93505060206111f986828701611176565b925050604061120a868287016111ac565b9150509250925092565b600081519050919050565b600082825260208201905092915050565b6000819050602082019050919050565b6112498161114d565b82525050565b6112588161118b565b82525050565b7f4e487b7100000000000000000000000000000000000000000000000000000000600052602160045260246000fd5b6003811061129e5761129d61125e565b5b50565b60008190506112af8261128d565b919050565b60006112bf826112a1565b9050919050565b6112cf816112b4565b82525050565b60008115159050919050565b6112ea816112d5565b82525050565b610100820160008201516113076000850182611240565b50602082015161131a6020850182611240565b50604082015161132d604085018261124f565b506060820151611340606085018261124f565b506080820151611353608085018261124f565b5060a082015161136660a085018261124f565b5060c082015161137960c08501826112c6565b5060e082015161138c60e08501826112e1565b50505050565b600061139e83836112f0565b6101008301905092915050565b6000602082019050919050565b60006113c382611214565b6113cd818561121f565b93506113d883611230565b8060005b838110156114095781516113f08882611392565b97506113fb836113ab565b9250506001810190506113dc565b5085935050505092915050565b6000602082019050818103600083015261143081846113b8565b905092915050565b60006020828403121561144e5761144d611128565b5b600061145c84828501611176565b91505092915050565b61146e8161118b565b82525050565b60006020820190506114896000830184611465565b92915050565b600080604083850312156114a6576114a5611128565b5b60006114b485828601611176565b92505060206114c5858286016111ac565b9150509250929050565b6114d88161114d565b82525050565b6114e7816112b4565b82525050565b6114f6816112d5565b82525050565b600061010082019050611512600083018b6114cf565b61151f602083018a6114cf565b61152c6040830189611465565b6115396060830188611465565b6115466080830187611465565b61155360a0830186611465565b61156060c08301856114de565b61156d60e08301846114ed565b9998505050505050505050565b6000806000806080858703121561159457611593611128565b5b60006115a287828801611176565b94505060206115b3878288016111ac565b93505060406115c4878288016111ac565b92505060606115d5878288016111ac565b91505092959194509250565b7f4e487b7100000000000000000000000000000000000000000000000000000000600052603260045260246000fd5b600082825260208201905092915050565b7f496e76616c69642072656365697665722e000000000000000000000000000000600082015250565b6000611657601183611610565b915061166282611621565b602082019050919050565b600060208201905081810360008301526116868161164a565b9050919050565b7f536869706d656e74206e6f7420696e207472616e7369742e0000000000000000600082015250565b60006116c3601883611610565b91506116ce8261168d565b602082019050919050565b600060208201905081810360008301526116f2816116b6565b9050919050565b7f536869706d656e7420616c726561647920706169642e00000000000000000000600082015250565b600061172f601683611610565b915061173a826116f9565b602082019050919050565b6000602082019050818103600083015261175e81611722565b9050919050565b7f536869706d656e7420616c726561647920696e207472616e7369742e00000000600082015250565b600061179b601c83611610565b91506117a682611765565b602082019050919050565b600060208201905081810360008301526117ca8161178e565b9050919050565b7f5061796d656e7420616d6f756e74206d757374206d617463682074686520707260008201527f6963652e00000000000000000000000000000000000000000000000000000000602082015250565b600061182d602483611610565b9150611838826117d1565b604082019050919050565b6000602082019050818103600083015261185c81611820565b9050919050565b7f4e487b7100000000000000000000000000000000000000000000000000000000600052601160045260246000fd5b600061189d8261118b565b91507fffffffffffffffffffffffffffffffffffffffffffffffffffffffffffffffff82036118cf576118ce611863565b5b600182019050919050565b60006060820190506118ef6000830186611465565b6118fc6020830185611465565b6119096040830184611465565b94935050505056fea2646970667358221220802a4501b7399ec3a626fd1c2ad2062bc3676f33e055c1824317da304e15758264736f6c63430008120033",
					"opcodes": "PUSH1 0x80 PUSH1 0x40 MSTORE CALLVALUE DUP1 ISZERO PUSH2 0x10 JUMPI PUSH1 0x0 DUP1 REVERT JUMPDEST POP PUSH1 0x0 PUSH1 0x1 DUP2 SWAP1 SSTORE POP PUSH2 0x1947 DUP1 PUSH2 0x28 PUSH1 0x0 CODECOPY PUSH1 0x0 RETURN INVALID PUSH1 0x80 PUSH1 0x40 MSTORE PUSH1 0x4 CALLDATASIZE LT PUSH2 0x7B JUMPI PUSH1 0x0 CALLDATALOAD PUSH1 0xE0 SHR DUP1 PUSH4 0x7FF5265D GT PUSH2 0x4E JUMPI DUP1 PUSH4 0x7FF5265D EQ PUSH2 0x155 JUMPI DUP1 PUSH4 0x8365DA54 EQ PUSH2 0x17E JUMPI DUP1 PUSH4 0xAACE20B7 EQ PUSH2 0x1C2 JUMPI DUP1 PUSH4 0xCBC4B181 EQ PUSH2 0x1ED JUMPI PUSH2 0x7B JUMP JUMPDEST DUP1 PUSH4 0x179A878C EQ PUSH2 0x80 JUMPI DUP1 PUSH4 0x27506F53 EQ PUSH2 0xA9 JUMPI DUP1 PUSH4 0x41FDC195 EQ PUSH2 0xD4 JUMPI DUP1 PUSH4 0x5667E02F EQ PUSH2 0x111 JUMPI JUMPDEST PUSH1 0x0 DUP1 REVERT JUMPDEST CALLVALUE DUP1 ISZERO PUSH2 0x8C JUMPI PUSH1 0x0 DUP1 REVERT JUMPDEST POP PUSH2 0xA7 PUSH1 0x4 DUP1 CALLDATASIZE SUB DUP2 ADD SWAP1 PUSH2 0xA2 SWAP2 SWAP1 PUSH2 0x11C1 JUMP JUMPDEST PUSH2 0x209 JUMP JUMPDEST STOP JUMPDEST CALLVALUE DUP1 ISZERO PUSH2 0xB5 JUMPI PUSH1 0x0 DUP1 REVERT JUMPDEST POP PUSH2 0xBE PUSH2 0x5DD JUMP JUMPDEST PUSH1 0x40 MLOAD PUSH2 0xCB SWAP2 SWAP1 PUSH2 0x1416 JUMP JUMPDEST PUSH1 0x40 MLOAD DUP1 SWAP2 SUB SWAP1 RETURN JUMPDEST CALLVALUE DUP1 ISZERO PUSH2 0xE0 JUMPI PUSH1 0x0 DUP1 REVERT JUMPDEST POP PUSH2 0xFB PUSH1 0x4 DUP1 CALLDATASIZE SUB DUP2 ADD SWAP1 PUSH2 0xF6 SWAP2 SWAP1 PUSH2 0x1438 JUMP JUMPDEST PUSH2 0x767 JUMP JUMPDEST PUSH1 0x40 MLOAD PUSH2 0x108 SWAP2 SWAP1 PUSH2 0x1474 JUMP JUMPDEST PUSH1 0x40 MLOAD DUP1 SWAP2 SUB SWAP1 RETURN JUMPDEST CALLVALUE DUP1 ISZERO PUSH2 0x11D JUMPI PUSH1 0x0 DUP1 REVERT JUMPDEST POP PUSH2 0x138 PUSH1 0x4 DUP1 CALLDATASIZE SUB DUP2 ADD SWAP1 PUSH2 0x133 SWAP2 SWAP1 PUSH2 0x148F JUMP JUMPDEST PUSH2 0x7B2 JUMP JUMPDEST PUSH1 0x40 MLOAD PUSH2 0x14C SWAP9 SWAP8 SWAP7 SWAP6 SWAP5 SWAP4 SWAP3 SWAP2 SWAP1 PUSH2 0x14FC JUMP JUMPDEST PUSH1 0x40 MLOAD DUP1 SWAP2 SUB SWAP1 RETURN JUMPDEST CALLVALUE DUP1 ISZERO PUSH2 0x161 JUMPI PUSH1 0x0 DUP1 REVERT JUMPDEST POP PUSH2 0x17C PUSH1 0x4 DUP1 CALLDATASIZE SUB DUP2 ADD SWAP1 PUSH2 0x177 SWAP2 SWAP1 PUSH2 0x11C1 JUMP JUMPDEST PUSH2 0x871 JUMP JUMPDEST STOP JUMPDEST CALLVALUE DUP1 ISZERO PUSH2 0x18A JUMPI PUSH1 0x0 DUP1 REVERT JUMPDEST POP PUSH2 0x1A5 PUSH1 0x4 DUP1 CALLDATASIZE SUB DUP2 ADD SWAP1 PUSH2 0x1A0 SWAP2 SWAP1 PUSH2 0x148F JUMP JUMPDEST PUSH2 0xACD JUMP JUMPDEST PUSH1 0x40 MLOAD PUSH2 0x1B9 SWAP9 SWAP8 SWAP7 SWAP6 SWAP5 SWAP4 SWAP3 SWAP2 SWAP1 PUSH2 0x14FC JUMP JUMPDEST PUSH1 0x40 MLOAD DUP1 SWAP2 SUB SWAP1 RETURN JUMPDEST CALLVALUE DUP1 ISZERO PUSH2 0x1CE JUMPI PUSH1 0x0 DUP1 REVERT JUMPDEST POP PUSH2 0x1D7 PUSH2 0xCB7 JUMP JUMPDEST PUSH1 0x40 MLOAD PUSH2 0x1E4 SWAP2 SWAP1 PUSH2 0x1474 JUMP JUMPDEST PUSH1 0x40 MLOAD DUP1 SWAP2 SUB SWAP1 RETURN JUMPDEST PUSH2 0x207 PUSH1 0x4 DUP1 CALLDATASIZE SUB DUP2 ADD SWAP1 PUSH2 0x202 SWAP2 SWAP1 PUSH2 0x157A JUMP JUMPDEST PUSH2 0xCBD JUMP JUMPDEST STOP JUMPDEST PUSH1 0x0 DUP1 PUSH1 0x0 DUP6 PUSH20 0xFFFFFFFFFFFFFFFFFFFFFFFFFFFFFFFFFFFFFFFF AND PUSH20 0xFFFFFFFFFFFFFFFFFFFFFFFFFFFFFFFFFFFFFFFF AND DUP2 MSTORE PUSH1 0x20 ADD SWAP1 DUP2 MSTORE PUSH1 0x20 ADD PUSH1 0x0 KECCAK256 DUP3 DUP2 SLOAD DUP2 LT PUSH2 0x25B JUMPI PUSH2 0x25A PUSH2 0x15E1 JUMP JUMPDEST JUMPDEST SWAP1 PUSH1 0x0 MSTORE PUSH1 0x20 PUSH1 0x0 KECCAK256 SWAP1 PUSH1 0x7 MUL ADD SWAP1 POP PUSH1 0x0 PUSH1 0x2 DUP4 DUP2 SLOAD DUP2 LT PUSH2 0x281 JUMPI PUSH2 0x280 PUSH2 0x15E1 JUMP JUMPDEST JUMPDEST SWAP1 PUSH1 0x0 MSTORE PUSH1 0x20 PUSH1 0x0 KECCAK256 SWAP1 PUSH1 0x7 MUL ADD SWAP1 POP DUP4 PUSH20 0xFFFFFFFFFFFFFFFFFFFFFFFFFFFFFFFFFFFFFFFF AND DUP3 PUSH1 0x1 ADD PUSH1 0x0 SWAP1 SLOAD SWAP1 PUSH2 0x100 EXP SWAP1 DIV PUSH20 0xFFFFFFFFFFFFFFFFFFFFFFFFFFFFFFFFFFFFFFFF AND PUSH20 0xFFFFFFFFFFFFFFFFFFFFFFFFFFFFFFFFFFFFFFFF AND EQ PUSH2 0x323 JUMPI PUSH1 0x40 MLOAD PUSH32 0x8C379A000000000000000000000000000000000000000000000000000000000 DUP2 MSTORE PUSH1 0x4 ADD PUSH2 0x31A SWAP1 PUSH2 0x166D JUMP JUMPDEST PUSH1 0x40 MLOAD DUP1 SWAP2 SUB SWAP1 REVERT JUMPDEST PUSH1 0x1 PUSH1 0x2 DUP2 GT ISZERO PUSH2 0x337 JUMPI PUSH2 0x336 PUSH2 0x125E JUMP JUMPDEST JUMPDEST DUP3 PUSH1 0x6 ADD PUSH1 0x0 SWAP1 SLOAD SWAP1 PUSH2 0x100 EXP SWAP1 DIV PUSH1 0xFF AND PUSH1 0x2 DUP2 GT ISZERO PUSH2 0x35B JUMPI PUSH2 0x35A PUSH2 0x125E JUMP JUMPDEST JUMPDEST EQ PUSH2 0x39B JUMPI PUSH1 0x40 MLOAD PUSH32 0x8C379A000000000000000000000000000000000000000000000000000000000 DUP2 MSTORE PUSH1 0x4 ADD PUSH2 0x392 SWAP1 PUSH2 0x16D9 JUMP JUMPDEST PUSH1 0x40 MLOAD DUP1 SWAP2 SUB SWAP1 REVERT JUMPDEST DUP2 PUSH1 0x6 ADD PUSH1 0x1 SWAP1 SLOAD SWAP1 PUSH2 0x100 EXP SWAP1 DIV PUSH1 0xFF AND ISZERO PUSH2 0x3ED JUMPI PUSH1 0x40 MLOAD PUSH32 0x8C379A000000000000000000000000000000000000000000000000000000000 DUP2 MSTORE PUSH1 0x4 ADD PUSH2 0x3E4 SWAP1 PUSH2 0x1745 JUMP JUMPDEST PUSH1 0x40 MLOAD DUP1 SWAP2 SUB SWAP1 REVERT JUMPDEST PUSH1 0x2 DUP3 PUSH1 0x6 ADD PUSH1 0x0 PUSH2 0x100 EXP DUP2 SLOAD DUP2 PUSH1 0xFF MUL NOT AND SWAP1 DUP4 PUSH1 0x2 DUP2 GT ISZERO PUSH2 0x415 JUMPI PUSH2 0x414 PUSH2 0x125E JUMP JUMPDEST JUMPDEST MUL OR SWAP1 SSTORE POP PUSH1 0x2 DUP2 PUSH1 0x6 ADD PUSH1 0x0 PUSH2 0x100 EXP DUP2 SLOAD DUP2 PUSH1 0xFF MUL NOT AND SWAP1 DUP4 PUSH1 0x2 DUP2 GT ISZERO PUSH2 0x442 JUMPI PUSH2 0x441 PUSH2 0x125E JUMP JUMPDEST JUMPDEST MUL OR SWAP1 SSTORE POP TIMESTAMP DUP2 PUSH1 0x3 ADD DUP2 SWAP1 SSTORE POP TIMESTAMP DUP3 PUSH1 0x3 ADD DUP2 SWAP1 SSTORE POP PUSH1 0x0 DUP3 PUSH1 0x5 ADD SLOAD SWAP1 POP DUP3 PUSH1 0x1 ADD PUSH1 0x0 SWAP1 SLOAD SWAP1 PUSH2 0x100 EXP SWAP1 DIV PUSH20 0xFFFFFFFFFFFFFFFFFFFFFFFFFFFFFFFFFFFFFFFF AND PUSH20 0xFFFFFFFFFFFFFFFFFFFFFFFFFFFFFFFFFFFFFFFF AND PUSH2 0x8FC DUP3 SWAP1 DUP2 ISZERO MUL SWAP1 PUSH1 0x40 MLOAD PUSH1 0x0 PUSH1 0x40 MLOAD DUP1 DUP4 SUB DUP2 DUP6 DUP9 DUP9 CALL SWAP4 POP POP POP POP ISZERO DUP1 ISZERO PUSH2 0x4CC JUMPI RETURNDATASIZE PUSH1 0x0 DUP1 RETURNDATACOPY RETURNDATASIZE PUSH1 0x0 REVERT JUMPDEST POP PUSH1 0x1 DUP4 PUSH1 0x6 ADD PUSH1 0x1 PUSH2 0x100 EXP DUP2 SLOAD DUP2 PUSH1 0xFF MUL NOT AND SWAP1 DUP4 ISZERO ISZERO MUL OR SWAP1 SSTORE POP PUSH1 0x1 DUP3 PUSH1 0x6 ADD PUSH1 0x1 PUSH2 0x100 EXP DUP2 SLOAD DUP2 PUSH1 0xFF MUL NOT AND SWAP1 DUP4 ISZERO ISZERO MUL OR SWAP1 SSTORE POP DUP5 PUSH20 0xFFFFFFFFFFFFFFFFFFFFFFFFFFFFFFFFFFFFFFFF AND DUP7 PUSH20 0xFFFFFFFFFFFFFFFFFFFFFFFFFFFFFFFFFFFFFFFF AND PUSH32 0x3746CCCEB54F44C9B0EE0120E596168D07EC9F6CA303CFDD9810D3B2E2686A2E DUP6 PUSH1 0x3 ADD SLOAD PUSH1 0x40 MLOAD PUSH2 0x568 SWAP2 SWAP1 PUSH2 0x1474 JUMP JUMPDEST PUSH1 0x40 MLOAD DUP1 SWAP2 SUB SWAP1 LOG3 DUP5 PUSH20 0xFFFFFFFFFFFFFFFFFFFFFFFFFFFFFFFFFFFFFFFF AND DUP7 PUSH20 0xFFFFFFFFFFFFFFFFFFFFFFFFFFFFFFFFFFFFFFFF AND PUSH32 0x2B6F2473AEBAFAF8D0889669490135928EC4454D2E29A103FD39693BBCA6AEF1 DUP4 PUSH1 0x40 MLOAD PUSH2 0x5CD SWAP2 SWAP1 PUSH2 0x1474 JUMP JUMPDEST PUSH1 0x40 MLOAD DUP1 SWAP2 SUB SWAP1 LOG3 POP POP POP POP POP POP JUMP JUMPDEST PUSH1 0x60 PUSH1 0x2 DUP1 SLOAD DUP1 PUSH1 0x20 MUL PUSH1 0x20 ADD PUSH1 0x40 MLOAD SWAP1 DUP2 ADD PUSH1 0x40 MSTORE DUP1 SWAP3 SWAP2 SWAP1 DUP2 DUP2 MSTORE PUSH1 0x20 ADD PUSH1 0x0 SWAP1 JUMPDEST DUP3 DUP3 LT ISZERO PUSH2 0x75E JUMPI DUP4 DUP3 SWAP1 PUSH1 0x0 MSTORE PUSH1 0x20 PUSH1 0x0 KECCAK256 SWAP1 PUSH1 0x7 MUL ADD PUSH1 0x40 MLOAD DUP1 PUSH2 0x100 ADD PUSH1 0x40 MSTORE SWAP1 DUP2 PUSH1 0x0 DUP3 ADD PUSH1 0x0 SWAP1 SLOAD SWAP1 PUSH2 0x100 EXP SWAP1 DIV PUSH20 0xFFFFFFFFFFFFFFFFFFFFFFFFFFFFFFFFFFFFFFFF AND PUSH20 0xFFFFFFFFFFFFFFFFFFFFFFFFFFFFFFFFFFFFFFFF AND PUSH20 0xFFFFFFFFFFFFFFFFFFFFFFFFFFFFFFFFFFFFFFFF AND DUP2 MSTORE PUSH1 0x20 ADD PUSH1 0x1 DUP3 ADD PUSH1 0x0 SWAP1 SLOAD SWAP1 PUSH2 0x100 EXP SWAP1 DIV PUSH20 0xFFFFFFFFFFFFFFFFFFFFFFFFFFFFFFFFFFFFFFFF AND PUSH20 0xFFFFFFFFFFFFFFFFFFFFFFFFFFFFFFFFFFFFFFFF AND PUSH20 0xFFFFFFFFFFFFFFFFFFFFFFFFFFFFFFFFFFFFFFFF AND DUP2 MSTORE PUSH1 0x20 ADD PUSH1 0x2 DUP3 ADD SLOAD DUP2 MSTORE PUSH1 0x20 ADD PUSH1 0x3 DUP3 ADD SLOAD DUP2 MSTORE PUSH1 0x20 ADD PUSH1 0x4 DUP3 ADD SLOAD DUP2 MSTORE PUSH1 0x20 ADD PUSH1 0x5 DUP3 ADD SLOAD DUP2 MSTORE PUSH1 0x20 ADD PUSH1 0x6 DUP3 ADD PUSH1 0x0 SWAP1 SLOAD SWAP1 PUSH2 0x100 EXP SWAP1 DIV PUSH1 0xFF AND PUSH1 0x2 DUP2 GT ISZERO PUSH2 0x71E JUMPI PUSH2 0x71D PUSH2 0x125E JUMP JUMPDEST JUMPDEST PUSH1 0x2 DUP2 GT ISZERO PUSH2 0x730 JUMPI PUSH2 0x72F PUSH2 0x125E JUMP JUMPDEST JUMPDEST DUP2 MSTORE PUSH1 0x20 ADD PUSH1 0x6 DUP3 ADD PUSH1 0x1 SWAP1 SLOAD SWAP1 PUSH2 0x100 EXP SWAP1 DIV PUSH1 0xFF AND ISZERO ISZERO ISZERO ISZERO DUP2 MSTORE POP POP DUP2 MSTORE PUSH1 0x20 ADD SWAP1 PUSH1 0x1 ADD SWAP1 PUSH2 0x601 JUMP JUMPDEST POP POP POP POP SWAP1 POP SWAP1 JUMP JUMPDEST PUSH1 0x0 DUP1 PUSH1 0x0 DUP4 PUSH20 0xFFFFFFFFFFFFFFFFFFFFFFFFFFFFFFFFFFFFFFFF AND PUSH20 0xFFFFFFFFFFFFFFFFFFFFFFFFFFFFFFFFFFFFFFFF AND DUP2 MSTORE PUSH1 0x20 ADD SWAP1 DUP2 MSTORE PUSH1 0x20 ADD PUSH1 0x0 KECCAK256 DUP1 SLOAD SWAP1 POP SWAP1 POP SWAP2 SWAP1 POP JUMP JUMPDEST PUSH1 0x0 PUSH1 0x20 MSTORE DUP2 PUSH1 0x0 MSTORE PUSH1 0x40 PUSH1 0x0 KECCAK256 DUP2 DUP2 SLOAD DUP2 LT PUSH2 0x7CE JUMPI PUSH1 0x0 DUP1 REVERT JUMPDEST SWAP1 PUSH1 0x0 MSTORE PUSH1 0x20 PUSH1 0x0 KECCAK256 SWAP1 PUSH1 0x7 MUL ADD PUSH1 0x0 SWAP2 POP SWAP2 POP POP DUP1 PUSH1 0x0 ADD PUSH1 0x0 SWAP1 SLOAD SWAP1 PUSH2 0x100 EXP SWAP1 DIV PUSH20 0xFFFFFFFFFFFFFFFFFFFFFFFFFFFFFFFFFFFFFFFF AND SWAP1 DUP1 PUSH1 0x1 ADD PUSH1 0x0 SWAP1 SLOAD SWAP1 PUSH2 0x100 EXP SWAP1 DIV PUSH20 0xFFFFFFFFFFFFFFFFFFFFFFFFFFFFFFFFFFFFFFFF AND SWAP1 DUP1 PUSH1 0x2 ADD SLOAD SWAP1 DUP1 PUSH1 0x3 ADD SLOAD SWAP1 DUP1 PUSH1 0x4 ADD SLOAD SWAP1 DUP1 PUSH1 0x5 ADD SLOAD SWAP1 DUP1 PUSH1 0x6 ADD PUSH1 0x0 SWAP1 SLOAD SWAP1 PUSH2 0x100 EXP SWAP1 DIV PUSH1 0xFF AND SWAP1 DUP1 PUSH1 0x6 ADD PUSH1 0x1 SWAP1 SLOAD SWAP1 PUSH2 0x100 EXP SWAP1 DIV PUSH1 0xFF AND SWAP1 POP DUP9 JUMP JUMPDEST PUSH1 0x0 DUP1 PUSH1 0x0 DUP6 PUSH20 0xFFFFFFFFFFFFFFFFFFFFFFFFFFFFFFFFFFFFFFFF AND PUSH20 0xFFFFFFFFFFFFFFFFFFFFFFFFFFFFFFFFFFFFFFFF AND DUP2 MSTORE PUSH1 0x20 ADD SWAP1 DUP2 MSTORE PUSH1 0x20 ADD PUSH1 0x0 KECCAK256 DUP3 DUP2 SLOAD DUP2 LT PUSH2 0x8C3 JUMPI PUSH2 0x8C2 PUSH2 0x15E1 JUMP JUMPDEST JUMPDEST SWAP1 PUSH1 0x0 MSTORE PUSH1 0x20 PUSH1 0x0 KECCAK256 SWAP1 PUSH1 0x7 MUL ADD SWAP1 POP PUSH1 0x0 PUSH1 0x2 DUP4 DUP2 SLOAD DUP2 LT PUSH2 0x8E9 JUMPI PUSH2 0x8E8 PUSH2 0x15E1 JUMP JUMPDEST JUMPDEST SWAP1 PUSH1 0x0 MSTORE PUSH1 0x20 PUSH1 0x0 KECCAK256 SWAP1 PUSH1 0x7 MUL ADD SWAP1 POP DUP4 PUSH20 0xFFFFFFFFFFFFFFFFFFFFFFFFFFFFFFFFFFFFFFFF AND DUP3 PUSH1 0x1 ADD PUSH1 0x0 SWAP1 SLOAD SWAP1 PUSH2 0x100 EXP SWAP1 DIV PUSH20 0xFFFFFFFFFFFFFFFFFFFFFFFFFFFFFFFFFFFFFFFF AND PUSH20 0xFFFFFFFFFFFFFFFFFFFFFFFFFFFFFFFFFFFFFFFF AND EQ PUSH2 0x98B JUMPI PUSH1 0x40 MLOAD PUSH32 0x8C379A000000000000000000000000000000000000000000000000000000000 DUP2 MSTORE PUSH1 0x4 ADD PUSH2 0x982 SWAP1 PUSH2 0x166D JUMP JUMPDEST PUSH1 0x40 MLOAD DUP1 SWAP2 SUB SWAP1 REVERT JUMPDEST PUSH1 0x0 PUSH1 0x2 DUP2 GT ISZERO PUSH2 0x99F JUMPI PUSH2 0x99E PUSH2 0x125E JUMP JUMPDEST JUMPDEST DUP3 PUSH1 0x6 ADD PUSH1 0x0 SWAP1 SLOAD SWAP1 PUSH2 0x100 EXP SWAP1 DIV PUSH1 0xFF AND PUSH1 0x2 DUP2 GT ISZERO PUSH2 0x9C3 JUMPI PUSH2 0x9C2 PUSH2 0x125E JUMP JUMPDEST JUMPDEST EQ PUSH2 0xA03 JUMPI PUSH1 0x40 MLOAD PUSH32 0x8C379A000000000000000000000000000000000000000000000000000000000 DUP2 MSTORE PUSH1 0x4 ADD PUSH2 0x9FA SWAP1 PUSH2 0x17B1 JUMP JUMPDEST PUSH1 0x40 MLOAD DUP1 SWAP2 SUB SWAP1 REVERT JUMPDEST PUSH1 0x1 DUP3 PUSH1 0x6 ADD PUSH1 0x0 PUSH2 0x100 EXP DUP2 SLOAD DUP2 PUSH1 0xFF MUL NOT AND SWAP1 DUP4 PUSH1 0x2 DUP2 GT ISZERO PUSH2 0xA2B JUMPI PUSH2 0xA2A PUSH2 0x125E JUMP JUMPDEST JUMPDEST MUL OR SWAP1 SSTORE POP PUSH1 0x1 DUP2 PUSH1 0x6 ADD PUSH1 0x0 PUSH2 0x100 EXP DUP2 SLOAD DUP2 PUSH1 0xFF MUL NOT AND SWAP1 DUP4 PUSH1 0x2 DUP2 GT ISZERO PUSH2 0xA58 JUMPI PUSH2 0xA57 PUSH2 0x125E JUMP JUMPDEST JUMPDEST MUL OR SWAP1 SSTORE POP DUP4 PUSH20 0xFFFFFFFFFFFFFFFFFFFFFFFFFFFFFFFFFFFFFFFF AND DUP6 PUSH20 0xFFFFFFFFFFFFFFFFFFFFFFFFFFFFFFFFFFFFFFFF AND PUSH32 0xAAFAB9F94340179FF9CEFD29621E1772A4B8EFAB8023163838F1B0A8F6CE5DF5 DUP5 PUSH1 0x2 ADD SLOAD PUSH1 0x40 MLOAD PUSH2 0xABE SWAP2 SWAP1 PUSH2 0x1474 JUMP JUMPDEST PUSH1 0x40 MLOAD DUP1 SWAP2 SUB SWAP1 LOG3 POP POP POP POP POP JUMP JUMPDEST PUSH1 0x0 DUP1 PUSH1 0x0 DUP1 PUSH1 0x0 DUP1 PUSH1 0x0 DUP1 PUSH1 0x0 DUP1 PUSH1 0x0 DUP13 PUSH20 0xFFFFFFFFFFFFFFFFFFFFFFFFFFFFFFFFFFFFFFFF AND PUSH20 0xFFFFFFFFFFFFFFFFFFFFFFFFFFFFFFFFFFFFFFFF AND DUP2 MSTORE PUSH1 0x20 ADD SWAP1 DUP2 MSTORE PUSH1 0x20 ADD PUSH1 0x0 KECCAK256 DUP11 DUP2 SLOAD DUP2 LT PUSH2 0xB2B JUMPI PUSH2 0xB2A PUSH2 0x15E1 JUMP JUMPDEST JUMPDEST SWAP1 PUSH1 0x0 MSTORE PUSH1 0x20 PUSH1 0x0 KECCAK256 SWAP1 PUSH1 0x7 MUL ADD PUSH1 0x40 MLOAD DUP1 PUSH2 0x100 ADD PUSH1 0x40 MSTORE SWAP1 DUP2 PUSH1 0x0 DUP3 ADD PUSH1 0x0 SWAP1 SLOAD SWAP1 PUSH2 0x100 EXP SWAP1 DIV PUSH20 0xFFFFFFFFFFFFFFFFFFFFFFFFFFFFFFFFFFFFFFFF AND PUSH20 0xFFFFFFFFFFFFFFFFFFFFFFFFFFFFFFFFFFFFFFFF AND PUSH20 0xFFFFFFFFFFFFFFFFFFFFFFFFFFFFFFFFFFFFFFFF AND DUP2 MSTORE PUSH1 0x20 ADD PUSH1 0x1 DUP3 ADD PUSH1 0x0 SWAP1 SLOAD SWAP1 PUSH2 0x100 EXP SWAP1 DIV PUSH20 0xFFFFFFFFFFFFFFFFFFFFFFFFFFFFFFFFFFFFFFFF AND PUSH20 0xFFFFFFFFFFFFFFFFFFFFFFFFFFFFFFFFFFFFFFFF AND PUSH20 0xFFFFFFFFFFFFFFFFFFFFFFFFFFFFFFFFFFFFFFFF AND DUP2 MSTORE PUSH1 0x20 ADD PUSH1 0x2 DUP3 ADD SLOAD DUP2 MSTORE PUSH1 0x20 ADD PUSH1 0x3 DUP3 ADD SLOAD DUP2 MSTORE PUSH1 0x20 ADD PUSH1 0x4 DUP3 ADD SLOAD DUP2 MSTORE PUSH1 0x20 ADD PUSH1 0x5 DUP3 ADD SLOAD DUP2 MSTORE PUSH1 0x20 ADD PUSH1 0x6 DUP3 ADD PUSH1 0x0 SWAP1 SLOAD SWAP1 PUSH2 0x100 EXP SWAP1 DIV PUSH1 0xFF AND PUSH1 0x2 DUP2 GT ISZERO PUSH2 0xC3E JUMPI PUSH2 0xC3D PUSH2 0x125E JUMP JUMPDEST JUMPDEST PUSH1 0x2 DUP2 GT ISZERO PUSH2 0xC50 JUMPI PUSH2 0xC4F PUSH2 0x125E JUMP JUMPDEST JUMPDEST DUP2 MSTORE PUSH1 0x20 ADD PUSH1 0x6 DUP3 ADD PUSH1 0x1 SWAP1 SLOAD SWAP1 PUSH2 0x100 EXP SWAP1 DIV PUSH1 0xFF AND ISZERO ISZERO ISZERO ISZERO DUP2 MSTORE POP POP SWAP1 POP DUP1 PUSH1 0x0 ADD MLOAD DUP2 PUSH1 0x20 ADD MLOAD DUP3 PUSH1 0x40 ADD MLOAD DUP4 PUSH1 0x60 ADD MLOAD DUP5 PUSH1 0x80 ADD MLOAD DUP6 PUSH1 0xA0 ADD MLOAD DUP7 PUSH1 0xC0 ADD MLOAD DUP8 PUSH1 0xE0 ADD MLOAD SWAP9 POP SWAP9 POP SWAP9 POP SWAP9 POP SWAP9 POP SWAP9 POP SWAP9 POP SWAP9 POP POP SWAP3 SWAP6 SWAP9 POP SWAP3 SWAP6 SWAP9 SWAP1 SWAP4 SWAP7 POP JUMP JUMPDEST PUSH1 0x1 SLOAD DUP2 JUMP JUMPDEST DUP1 CALLVALUE EQ PUSH2 0xCFF JUMPI PUSH1 0x40 MLOAD PUSH32 0x8C379A000000000000000000000000000000000000000000000000000000000 DUP2 MSTORE PUSH1 0x4 ADD PUSH2 0xCF6 SWAP1 PUSH2 0x1843 JUMP JUMPDEST PUSH1 0x40 MLOAD DUP1 SWAP2 SUB SWAP1 REVERT JUMPDEST PUSH1 0x0 PUSH1 0x40 MLOAD DUP1 PUSH2 0x100 ADD PUSH1 0x40 MSTORE DUP1 CALLER PUSH20 0xFFFFFFFFFFFFFFFFFFFFFFFFFFFFFFFFFFFFFFFF AND DUP2 MSTORE PUSH1 0x20 ADD DUP7 PUSH20 0xFFFFFFFFFFFFFFFFFFFFFFFFFFFFFFFFFFFFFFFF AND DUP2 MSTORE PUSH1 0x20 ADD DUP6 DUP2 MSTORE PUSH1 0x20 ADD PUSH1 0x0 DUP2 MSTORE PUSH1 0x20 ADD DUP5 DUP2 MSTORE PUSH1 0x20 ADD DUP4 DUP2 MSTORE PUSH1 0x20 ADD PUSH1 0x0 PUSH1 0x2 DUP2 GT ISZERO PUSH2 0xD72 JUMPI PUSH2 0xD71 PUSH2 0x125E JUMP JUMPDEST JUMPDEST DUP2 MSTORE PUSH1 0x20 ADD PUSH1 0x0 ISZERO ISZERO DUP2 MSTORE POP SWAP1 POP PUSH1 0x0 DUP1 CALLER PUSH20 0xFFFFFFFFFFFFFFFFFFFFFFFFFFFFFFFFFFFFFFFF AND PUSH20 0xFFFFFFFFFFFFFFFFFFFFFFFFFFFFFFFFFFFFFFFF AND DUP2 MSTORE PUSH1 0x20 ADD SWAP1 DUP2 MSTORE PUSH1 0x20 ADD PUSH1 0x0 KECCAK256 DUP2 SWAP1 DUP1 PUSH1 0x1 DUP2 SLOAD ADD DUP1 DUP3 SSTORE DUP1 SWAP2 POP POP PUSH1 0x1 SWAP1 SUB SWAP1 PUSH1 0x0 MSTORE PUSH1 0x20 PUSH1 0x0 KECCAK256 SWAP1 PUSH1 0x7 MUL ADD PUSH1 0x0 SWAP1 SWAP2 SWAP1 SWAP2 SWAP1 SWAP2 POP PUSH1 0x0 DUP3 ADD MLOAD DUP2 PUSH1 0x0 ADD PUSH1 0x0 PUSH2 0x100 EXP DUP2 SLOAD DUP2 PUSH20 0xFFFFFFFFFFFFFFFFFFFFFFFFFFFFFFFFFFFFFFFF MUL NOT AND SWAP1 DUP4 PUSH20 0xFFFFFFFFFFFFFFFFFFFFFFFFFFFFFFFFFFFFFFFF AND MUL OR SWAP1 SSTORE POP PUSH1 0x20 DUP3 ADD MLOAD DUP2 PUSH1 0x1 ADD PUSH1 0x0 PUSH2 0x100 EXP DUP2 SLOAD DUP2 PUSH20 0xFFFFFFFFFFFFFFFFFFFFFFFFFFFFFFFFFFFFFFFF MUL NOT AND SWAP1 DUP4 PUSH20 0xFFFFFFFFFFFFFFFFFFFFFFFFFFFFFFFFFFFFFFFF AND MUL OR SWAP1 SSTORE POP PUSH1 0x40 DUP3 ADD MLOAD DUP2 PUSH1 0x2 ADD SSTORE PUSH1 0x60 DUP3 ADD MLOAD DUP2 PUSH1 0x3 ADD SSTORE PUSH1 0x80 DUP3 ADD MLOAD DUP2 PUSH1 0x4 ADD SSTORE PUSH1 0xA0 DUP3 ADD MLOAD DUP2 PUSH1 0x5 ADD SSTORE PUSH1 0xC0 DUP3 ADD MLOAD DUP2 PUSH1 0x6 ADD PUSH1 0x0 PUSH2 0x100 EXP DUP2 SLOAD DUP2 PUSH1 0xFF MUL NOT AND SWAP1 DUP4 PUSH1 0x2 DUP2 GT ISZERO PUSH2 0xEC9 JUMPI PUSH2 0xEC8 PUSH2 0x125E JUMP JUMPDEST JUMPDEST MUL OR SWAP1 SSTORE POP PUSH1 0xE0 DUP3 ADD MLOAD DUP2 PUSH1 0x6 ADD PUSH1 0x1 PUSH2 0x100 EXP DUP2 SLOAD DUP2 PUSH1 0xFF MUL NOT AND SWAP1 DUP4 ISZERO ISZERO MUL OR SWAP1 SSTORE POP POP POP PUSH1 0x1 PUSH1 0x0 DUP2 SLOAD DUP1 SWAP3 SWAP2 SWAP1 PUSH2 0xF03 SWAP1 PUSH2 0x1892 JUMP JUMPDEST SWAP2 SWAP1 POP SSTORE POP PUSH1 0x2 PUSH1 0x40 MLOAD DUP1 PUSH2 0x100 ADD PUSH1 0x40 MSTORE DUP1 CALLER PUSH20 0xFFFFFFFFFFFFFFFFFFFFFFFFFFFFFFFFFFFFFFFF AND DUP2 MSTORE PUSH1 0x20 ADD DUP8 PUSH20 0xFFFFFFFFFFFFFFFFFFFFFFFFFFFFFFFFFFFFFFFF AND DUP2 MSTORE PUSH1 0x20 ADD DUP7 DUP2 MSTORE PUSH1 0x20 ADD PUSH1 0x0 DUP2 MSTORE PUSH1 0x20 ADD DUP6 DUP2 MSTORE PUSH1 0x20 ADD DUP5 DUP2 MSTORE PUSH1 0x20 ADD PUSH1 0x0 PUSH1 0x2 DUP2 GT ISZERO PUSH2 0xF7B JUMPI PUSH2 0xF7A PUSH2 0x125E JUMP JUMPDEST JUMPDEST DUP2 MSTORE PUSH1 0x20 ADD PUSH1 0x0 ISZERO ISZERO DUP2 MSTORE POP SWAP1 DUP1 PUSH1 0x1 DUP2 SLOAD ADD DUP1 DUP3 SSTORE DUP1 SWAP2 POP POP PUSH1 0x1 SWAP1 SUB SWAP1 PUSH1 0x0 MSTORE PUSH1 0x20 PUSH1 0x0 KECCAK256 SWAP1 PUSH1 0x7 MUL ADD PUSH1 0x0 SWAP1 SWAP2 SWAP1 SWAP2 SWAP1 SWAP2 POP PUSH1 0x0 DUP3 ADD MLOAD DUP2 PUSH1 0x0 ADD PUSH1 0x0 PUSH2 0x100 EXP DUP2 SLOAD DUP2 PUSH20 0xFFFFFFFFFFFFFFFFFFFFFFFFFFFFFFFFFFFFFFFF MUL NOT AND SWAP1 DUP4 PUSH20 0xFFFFFFFFFFFFFFFFFFFFFFFFFFFFFFFFFFFFFFFF AND MUL OR SWAP1 SSTORE POP PUSH1 0x20 DUP3 ADD MLOAD DUP2 PUSH1 0x1 ADD PUSH1 0x0 PUSH2 0x100 EXP DUP2 SLOAD DUP2 PUSH20 0xFFFFFFFFFFFFFFFFFFFFFFFFFFFFFFFFFFFFFFFF MUL NOT AND SWAP1 DUP4 PUSH20 0xFFFFFFFFFFFFFFFFFFFFFFFFFFFFFFFFFFFFFFFF AND MUL OR SWAP1 SSTORE POP PUSH1 0x40 DUP3 ADD MLOAD DUP2 PUSH1 0x2 ADD SSTORE PUSH1 0x60 DUP3 ADD MLOAD DUP2 PUSH1 0x3 ADD SSTORE PUSH1 0x80 DUP3 ADD MLOAD DUP2 PUSH1 0x4 ADD SSTORE PUSH1 0xA0 DUP3 ADD MLOAD DUP2 PUSH1 0x5 ADD SSTORE PUSH1 0xC0 DUP3 ADD MLOAD DUP2 PUSH1 0x6 ADD PUSH1 0x0 PUSH2 0x100 EXP DUP2 SLOAD DUP2 PUSH1 0xFF MUL NOT AND SWAP1 DUP4 PUSH1 0x2 DUP2 GT ISZERO PUSH2 0x1091 JUMPI PUSH2 0x1090 PUSH2 0x125E JUMP JUMPDEST JUMPDEST MUL OR SWAP1 SSTORE POP PUSH1 0xE0 DUP3 ADD MLOAD DUP2 PUSH1 0x6 ADD PUSH1 0x1 PUSH2 0x100 EXP DUP2 SLOAD DUP2 PUSH1 0xFF MUL NOT AND SWAP1 DUP4 ISZERO ISZERO MUL OR SWAP1 SSTORE POP POP POP DUP5 PUSH20 0xFFFFFFFFFFFFFFFFFFFFFFFFFFFFFFFFFFFFFFFF AND CALLER PUSH20 0xFFFFFFFFFFFFFFFFFFFFFFFFFFFFFFFFFFFFFFFF AND PUSH32 0x5001B34ECF2DB5B7BBEDDCBBE761EC9ECADCC7638018B98CE3E24995B0E946B6 DUP7 DUP7 DUP7 PUSH1 0x40 MLOAD PUSH2 0x1119 SWAP4 SWAP3 SWAP2 SWAP1 PUSH2 0x18DA JUMP JUMPDEST PUSH1 0x40 MLOAD DUP1 SWAP2 SUB SWAP1 LOG3 POP POP POP POP POP JUMP JUMPDEST PUSH1 0x0 DUP1 REVERT JUMPDEST PUSH1 0x0 PUSH20 0xFFFFFFFFFFFFFFFFFFFFFFFFFFFFFFFFFFFFFFFF DUP3 AND SWAP1 POP SWAP2 SWAP1 POP JUMP JUMPDEST PUSH1 0x0 PUSH2 0x1158 DUP3 PUSH2 0x112D JUMP JUMPDEST SWAP1 POP SWAP2 SWAP1 POP JUMP JUMPDEST PUSH2 0x1168 DUP2 PUSH2 0x114D JUMP JUMPDEST DUP2 EQ PUSH2 0x1173 JUMPI PUSH1 0x0 DUP1 REVERT JUMPDEST POP JUMP JUMPDEST PUSH1 0x0 DUP2 CALLDATALOAD SWAP1 POP PUSH2 0x1185 DUP2 PUSH2 0x115F JUMP JUMPDEST SWAP3 SWAP2 POP POP JUMP JUMPDEST PUSH1 0x0 DUP2 SWAP1 POP SWAP2 SWAP1 POP JUMP JUMPDEST PUSH2 0x119E DUP2 PUSH2 0x118B JUMP JUMPDEST DUP2 EQ PUSH2 0x11A9 JUMPI PUSH1 0x0 DUP1 REVERT JUMPDEST POP JUMP JUMPDEST PUSH1 0x0 DUP2 CALLDATALOAD SWAP1 POP PUSH2 0x11BB DUP2 PUSH2 0x1195 JUMP JUMPDEST SWAP3 SWAP2 POP POP JUMP JUMPDEST PUSH1 0x0 DUP1 PUSH1 0x0 PUSH1 0x60 DUP5 DUP7 SUB SLT ISZERO PUSH2 0x11DA JUMPI PUSH2 0x11D9 PUSH2 0x1128 JUMP JUMPDEST JUMPDEST PUSH1 0x0 PUSH2 0x11E8 DUP7 DUP3 DUP8 ADD PUSH2 0x1176 JUMP JUMPDEST SWAP4 POP POP PUSH1 0x20 PUSH2 0x11F9 DUP7 DUP3 DUP8 ADD PUSH2 0x1176 JUMP JUMPDEST SWAP3 POP POP PUSH1 0x40 PUSH2 0x120A DUP7 DUP3 DUP8 ADD PUSH2 0x11AC JUMP JUMPDEST SWAP2 POP POP SWAP3 POP SWAP3 POP SWAP3 JUMP JUMPDEST PUSH1 0x0 DUP2 MLOAD SWAP1 POP SWAP2 SWAP1 POP JUMP JUMPDEST PUSH1 0x0 DUP3 DUP3 MSTORE PUSH1 0x20 DUP3 ADD SWAP1 POP SWAP3 SWAP2 POP POP JUMP JUMPDEST PUSH1 0x0 DUP2 SWAP1 POP PUSH1 0x20 DUP3 ADD SWAP1 POP SWAP2 SWAP1 POP JUMP JUMPDEST PUSH2 0x1249 DUP2 PUSH2 0x114D JUMP JUMPDEST DUP3 MSTORE POP POP JUMP JUMPDEST PUSH2 0x1258 DUP2 PUSH2 0x118B JUMP JUMPDEST DUP3 MSTORE POP POP JUMP JUMPDEST PUSH32 0x4E487B7100000000000000000000000000000000000000000000000000000000 PUSH1 0x0 MSTORE PUSH1 0x21 PUSH1 0x4 MSTORE PUSH1 0x24 PUSH1 0x0 REVERT JUMPDEST PUSH1 0x3 DUP2 LT PUSH2 0x129E JUMPI PUSH2 0x129D PUSH2 0x125E JUMP JUMPDEST JUMPDEST POP JUMP JUMPDEST PUSH1 0x0 DUP2 SWAP1 POP PUSH2 0x12AF DUP3 PUSH2 0x128D JUMP JUMPDEST SWAP2 SWAP1 POP JUMP JUMPDEST PUSH1 0x0 PUSH2 0x12BF DUP3 PUSH2 0x12A1 JUMP JUMPDEST SWAP1 POP SWAP2 SWAP1 POP JUMP JUMPDEST PUSH2 0x12CF DUP2 PUSH2 0x12B4 JUMP JUMPDEST DUP3 MSTORE POP POP JUMP JUMPDEST PUSH1 0x0 DUP2 ISZERO ISZERO SWAP1 POP SWAP2 SWAP1 POP JUMP JUMPDEST PUSH2 0x12EA DUP2 PUSH2 0x12D5 JUMP JUMPDEST DUP3 MSTORE POP POP JUMP JUMPDEST PUSH2 0x100 DUP3 ADD PUSH1 0x0 DUP3 ADD MLOAD PUSH2 0x1307 PUSH1 0x0 DUP6 ADD DUP3 PUSH2 0x1240 JUMP JUMPDEST POP PUSH1 0x20 DUP3 ADD MLOAD PUSH2 0x131A PUSH1 0x20 DUP6 ADD DUP3 PUSH2 0x1240 JUMP JUMPDEST POP PUSH1 0x40 DUP3 ADD MLOAD PUSH2 0x132D PUSH1 0x40 DUP6 ADD DUP3 PUSH2 0x124F JUMP JUMPDEST POP PUSH1 0x60 DUP3 ADD MLOAD PUSH2 0x1340 PUSH1 0x60 DUP6 ADD DUP3 PUSH2 0x124F JUMP JUMPDEST POP PUSH1 0x80 DUP3 ADD MLOAD PUSH2 0x1353 PUSH1 0x80 DUP6 ADD DUP3 PUSH2 0x124F JUMP JUMPDEST POP PUSH1 0xA0 DUP3 ADD MLOAD PUSH2 0x1366 PUSH1 0xA0 DUP6 ADD DUP3 PUSH2 0x124F JUMP JUMPDEST POP PUSH1 0xC0 DUP3 ADD MLOAD PUSH2 0x1379 PUSH1 0xC0 DUP6 ADD DUP3 PUSH2 0x12C6 JUMP JUMPDEST POP PUSH1 0xE0 DUP3 ADD MLOAD PUSH2 0x138C PUSH1 0xE0 DUP6 ADD DUP3 PUSH2 0x12E1 JUMP JUMPDEST POP POP POP POP JUMP JUMPDEST PUSH1 0x0 PUSH2 0x139E DUP4 DUP4 PUSH2 0x12F0 JUMP JUMPDEST PUSH2 0x100 DUP4 ADD SWAP1 POP SWAP3 SWAP2 POP POP JUMP JUMPDEST PUSH1 0x0 PUSH1 0x20 DUP3 ADD SWAP1 POP SWAP2 SWAP1 POP JUMP JUMPDEST PUSH1 0x0 PUSH2 0x13C3 DUP3 PUSH2 0x1214 JUMP JUMPDEST PUSH2 0x13CD DUP2 DUP6 PUSH2 0x121F JUMP JUMPDEST SWAP4 POP PUSH2 0x13D8 DUP4 PUSH2 0x1230 JUMP JUMPDEST DUP1 PUSH1 0x0 JUMPDEST DUP4 DUP2 LT ISZERO PUSH2 0x1409 JUMPI DUP2 MLOAD PUSH2 0x13F0 DUP9 DUP3 PUSH2 0x1392 JUMP JUMPDEST SWAP8 POP PUSH2 0x13FB DUP4 PUSH2 0x13AB JUMP JUMPDEST SWAP3 POP POP PUSH1 0x1 DUP2 ADD SWAP1 POP PUSH2 0x13DC JUMP JUMPDEST POP DUP6 SWAP4 POP POP POP POP SWAP3 SWAP2 POP POP JUMP JUMPDEST PUSH1 0x0 PUSH1 0x20 DUP3 ADD SWAP1 POP DUP2 DUP2 SUB PUSH1 0x0 DUP4 ADD MSTORE PUSH2 0x1430 DUP2 DUP5 PUSH2 0x13B8 JUMP JUMPDEST SWAP1 POP SWAP3 SWAP2 POP POP JUMP JUMPDEST PUSH1 0x0 PUSH1 0x20 DUP3 DUP5 SUB SLT ISZERO PUSH2 0x144E JUMPI PUSH2 0x144D PUSH2 0x1128 JUMP JUMPDEST JUMPDEST PUSH1 0x0 PUSH2 0x145C DUP5 DUP3 DUP6 ADD PUSH2 0x1176 JUMP JUMPDEST SWAP2 POP POP SWAP3 SWAP2 POP POP JUMP JUMPDEST PUSH2 0x146E DUP2 PUSH2 0x118B JUMP JUMPDEST DUP3 MSTORE POP POP JUMP JUMPDEST PUSH1 0x0 PUSH1 0x20 DUP3 ADD SWAP1 POP PUSH2 0x1489 PUSH1 0x0 DUP4 ADD DUP5 PUSH2 0x1465 JUMP JUMPDEST SWAP3 SWAP2 POP POP JUMP JUMPDEST PUSH1 0x0 DUP1 PUSH1 0x40 DUP4 DUP6 SUB SLT ISZERO PUSH2 0x14A6 JUMPI PUSH2 0x14A5 PUSH2 0x1128 JUMP JUMPDEST JUMPDEST PUSH1 0x0 PUSH2 0x14B4 DUP6 DUP3 DUP7 ADD PUSH2 0x1176 JUMP JUMPDEST SWAP3 POP POP PUSH1 0x20 PUSH2 0x14C5 DUP6 DUP3 DUP7 ADD PUSH2 0x11AC JUMP JUMPDEST SWAP2 POP POP SWAP3 POP SWAP3 SWAP1 POP JUMP JUMPDEST PUSH2 0x14D8 DUP2 PUSH2 0x114D JUMP JUMPDEST DUP3 MSTORE POP POP JUMP JUMPDEST PUSH2 0x14E7 DUP2 PUSH2 0x12B4 JUMP JUMPDEST DUP3 MSTORE POP POP JUMP JUMPDEST PUSH2 0x14F6 DUP2 PUSH2 0x12D5 JUMP JUMPDEST DUP3 MSTORE POP POP JUMP JUMPDEST PUSH1 0x0 PUSH2 0x100 DUP3 ADD SWAP1 POP PUSH2 0x1512 PUSH1 0x0 DUP4 ADD DUP12 PUSH2 0x14CF JUMP JUMPDEST PUSH2 0x151F PUSH1 0x20 DUP4 ADD DUP11 PUSH2 0x14CF JUMP JUMPDEST PUSH2 0x152C PUSH1 0x40 DUP4 ADD DUP10 PUSH2 0x1465 JUMP JUMPDEST PUSH2 0x1539 PUSH1 0x60 DUP4 ADD DUP9 PUSH2 0x1465 JUMP JUMPDEST PUSH2 0x1546 PUSH1 0x80 DUP4 ADD DUP8 PUSH2 0x1465 JUMP JUMPDEST PUSH2 0x1553 PUSH1 0xA0 DUP4 ADD DUP7 PUSH2 0x1465 JUMP JUMPDEST PUSH2 0x1560 PUSH1 0xC0 DUP4 ADD DUP6 PUSH2 0x14DE JUMP JUMPDEST PUSH2 0x156D PUSH1 0xE0 DUP4 ADD DUP5 PUSH2 0x14ED JUMP JUMPDEST SWAP10 SWAP9 POP POP POP POP POP POP POP POP POP JUMP JUMPDEST PUSH1 0x0 DUP1 PUSH1 0x0 DUP1 PUSH1 0x80 DUP6 DUP8 SUB SLT ISZERO PUSH2 0x1594 JUMPI PUSH2 0x1593 PUSH2 0x1128 JUMP JUMPDEST JUMPDEST PUSH1 0x0 PUSH2 0x15A2 DUP8 DUP3 DUP9 ADD PUSH2 0x1176 JUMP JUMPDEST SWAP5 POP POP PUSH1 0x20 PUSH2 0x15B3 DUP8 DUP3 DUP9 ADD PUSH2 0x11AC JUMP JUMPDEST SWAP4 POP POP PUSH1 0x40 PUSH2 0x15C4 DUP8 DUP3 DUP9 ADD PUSH2 0x11AC JUMP JUMPDEST SWAP3 POP POP PUSH1 0x60 PUSH2 0x15D5 DUP8 DUP3 DUP9 ADD PUSH2 0x11AC JUMP JUMPDEST SWAP2 POP POP SWAP3 SWAP6 SWAP2 SWAP5 POP SWAP3 POP JUMP JUMPDEST PUSH32 0x4E487B7100000000000000000000000000000000000000000000000000000000 PUSH1 0x0 MSTORE PUSH1 0x32 PUSH1 0x4 MSTORE PUSH1 0x24 PUSH1 0x0 REVERT JUMPDEST PUSH1 0x0 DUP3 DUP3 MSTORE PUSH1 0x20 DUP3 ADD SWAP1 POP SWAP3 SWAP2 POP POP JUMP JUMPDEST PUSH32 0x496E76616C69642072656365697665722E000000000000000000000000000000 PUSH1 0x0 DUP3 ADD MSTORE POP JUMP JUMPDEST PUSH1 0x0 PUSH2 0x1657 PUSH1 0x11 DUP4 PUSH2 0x1610 JUMP JUMPDEST SWAP2 POP PUSH2 0x1662 DUP3 PUSH2 0x1621 JUMP JUMPDEST PUSH1 0x20 DUP3 ADD SWAP1 POP SWAP2 SWAP1 POP JUMP JUMPDEST PUSH1 0x0 PUSH1 0x20 DUP3 ADD SWAP1 POP DUP2 DUP2 SUB PUSH1 0x0 DUP4 ADD MSTORE PUSH2 0x1686 DUP2 PUSH2 0x164A JUMP JUMPDEST SWAP1 POP SWAP2 SWAP1 POP JUMP JUMPDEST PUSH32 0x536869706D656E74206E6F7420696E207472616E7369742E0000000000000000 PUSH1 0x0 DUP3 ADD MSTORE POP JUMP JUMPDEST PUSH1 0x0 PUSH2 0x16C3 PUSH1 0x18 DUP4 PUSH2 0x1610 JUMP JUMPDEST SWAP2 POP PUSH2 0x16CE DUP3 PUSH2 0x168D JUMP JUMPDEST PUSH1 0x20 DUP3 ADD SWAP1 POP SWAP2 SWAP1 POP JUMP JUMPDEST PUSH1 0x0 PUSH1 0x20 DUP3 ADD SWAP1 POP DUP2 DUP2 SUB PUSH1 0x0 DUP4 ADD MSTORE PUSH2 0x16F2 DUP2 PUSH2 0x16B6 JUMP JUMPDEST SWAP1 POP SWAP2 SWAP1 POP JUMP JUMPDEST PUSH32 0x536869706D656E7420616C726561647920706169642E00000000000000000000 PUSH1 0x0 DUP3 ADD MSTORE POP JUMP JUMPDEST PUSH1 0x0 PUSH2 0x172F PUSH1 0x16 DUP4 PUSH2 0x1610 JUMP JUMPDEST SWAP2 POP PUSH2 0x173A DUP3 PUSH2 0x16F9 JUMP JUMPDEST PUSH1 0x20 DUP3 ADD SWAP1 POP SWAP2 SWAP1 POP JUMP JUMPDEST PUSH1 0x0 PUSH1 0x20 DUP3 ADD SWAP1 POP DUP2 DUP2 SUB PUSH1 0x0 DUP4 ADD MSTORE PUSH2 0x175E DUP2 PUSH2 0x1722 JUMP JUMPDEST SWAP1 POP SWAP2 SWAP1 POP JUMP JUMPDEST PUSH32 0x536869706D656E7420616C726561647920696E207472616E7369742E00000000 PUSH1 0x0 DUP3 ADD MSTORE POP JUMP JUMPDEST PUSH1 0x0 PUSH2 0x179B PUSH1 0x1C DUP4 PUSH2 0x1610 JUMP JUMPDEST SWAP2 POP PUSH2 0x17A6 DUP3 PUSH2 0x1765 JUMP JUMPDEST PUSH1 0x20 DUP3 ADD SWAP1 POP SWAP2 SWAP1 POP JUMP JUMPDEST PUSH1 0x0 PUSH1 0x20 DUP3 ADD SWAP1 POP DUP2 DUP2 SUB PUSH1 0x0 DUP4 ADD MSTORE PUSH2 0x17CA DUP2 PUSH2 0x178E JUMP JUMPDEST SWAP1 POP SWAP2 SWAP1 POP JUMP JUMPDEST PUSH32 0x5061796D656E7420616D6F756E74206D757374206D6174636820746865207072 PUSH1 0x0 DUP3 ADD MSTORE PUSH32 0x6963652E00000000000000000000000000000000000000000000000000000000 PUSH1 0x20 DUP3 ADD MSTORE POP JUMP JUMPDEST PUSH1 0x0 PUSH2 0x182D PUSH1 0x24 DUP4 PUSH2 0x1610 JUMP JUMPDEST SWAP2 POP PUSH2 0x1838 DUP3 PUSH2 0x17D1 JUMP JUMPDEST PUSH1 0x40 DUP3 ADD SWAP1 POP SWAP2 SWAP1 POP JUMP JUMPDEST PUSH1 0x0 PUSH1 0x20 DUP3 ADD SWAP1 POP DUP2 DUP2 SUB PUSH1 0x0 DUP4 ADD MSTORE PUSH2 0x185C DUP2 PUSH2 0x1820 JUMP JUMPDEST SWAP1 POP SWAP2 SWAP1 POP JUMP JUMPDEST PUSH32 0x4E487B7100000000000000000000000000000000000000000000000000000000 PUSH1 0x0 MSTORE PUSH1 0x11 PUSH1 0x4 MSTORE PUSH1 0x24 PUSH1 0x0 REVERT JUMPDEST PUSH1 0x0 PUSH2 0x189D DUP3 PUSH2 0x118B JUMP JUMPDEST SWAP2 POP PUSH32 0xFFFFFFFFFFFFFFFFFFFFFFFFFFFFFFFFFFFFFFFFFFFFFFFFFFFFFFFFFFFFFFFF DUP3 SUB PUSH2 0x18CF JUMPI PUSH2 0x18CE PUSH2 0x1863 JUMP JUMPDEST JUMPDEST PUSH1 0x1 DUP3 ADD SWAP1 POP SWAP2 SWAP1 POP JUMP JUMPDEST PUSH1 0x0 PUSH1 0x60 DUP3 ADD SWAP1 POP PUSH2 0x18EF PUSH1 0x0 DUP4 ADD DUP7 PUSH2 0x1465 JUMP JUMPDEST PUSH2 0x18FC PUSH1 0x20 DUP4 ADD DUP6 PUSH2 0x1465 JUMP JUMPDEST PUSH2 0x1909 PUSH1 0x40 DUP4 ADD DUP5 PUSH2 0x1465 JUMP JUMPDEST SWAP5 SWAP4 POP POP POP POP JUMP INVALID LOG2 PUSH5 0x6970667358 0x22 SLT KECCAK256 DUP1 0x2A GASLIMIT ADD 0xB7 CODECOPY SWAP15 0xC3 0xA6 0x26 REVERT SHR 0x2A 0xD2 MOD 0x2B 0xC3 PUSH8 0x6F33E055C1824317 0xDA ADDRESS 0x4E ISZERO PUSH22 0x8264736F6C6343000812003300000000000000000000 "
				},
				"gasEstimates": {
					"creation": {
						"codeDepositCost": "1294200",
						"executionCost": "6363",
						"totalCost": "1300563"
					},
					"external": {
						"completeShipment(address,address,uint256)": "infinite",
						"createShipment(address,uint256,uint256,uint256)": "infinite",
						"getAllTransactions()": "infinite",
						"getShipment(address,uint256)": "infinite",
						"getShipmentsCount(address)": "2894",
						"shipmentCount()": "2473",
						"shipments(address,uint256)": "infinite",
						"startShipment(address,address,uint256)": "infinite"
					}
				},
				"methodIdentifiers": {
					"completeShipment(address,address,uint256)": "179a878c",
					"createShipment(address,uint256,uint256,uint256)": "cbc4b181",
					"getAllTransactions()": "27506f53",
					"getShipment(address,uint256)": "8365da54",
					"getShipmentsCount(address)": "41fdc195",
					"shipmentCount()": "aace20b7",
					"shipments(address,uint256)": "5667e02f",
					"startShipment(address,address,uint256)": "7ff5265d"
				}
			},
			"storageLayout": {
				"storage": [
					{
						"astId": 29,
						"contract": "contracts/Tracking.sol:Tracking",
						"label": "shipments",
						"offset": 0,
						"slot": "0",
						"type": "t_mapping(t_address,t_array(t_struct(Shipment)23_storage)dyn_storage)"
					},
					{
						"astId": 31,
						"contract": "contracts/Tracking.sol:Tracking",
						"label": "shipmentCount",
						"offset": 0,
						"slot": "1",
						"type": "t_uint256"
					},
					{
						"astId": 53,
						"contract": "contracts/Tracking.sol:Tracking",
						"label": "tyepShipments",
						"offset": 0,
						"slot": "2",
						"type": "t_array(t_struct(TyepShipment)49_storage)dyn_storage"
					}
				],
				"types": {
					"t_address": {
						"encoding": "inplace",
						"label": "address",
						"numberOfBytes": "20"
					},
					"t_array(t_struct(Shipment)23_storage)dyn_storage": {
						"base": "t_struct(Shipment)23_storage",
						"encoding": "dynamic_array",
						"label": "struct Tracking.Shipment[]",
						"numberOfBytes": "32"
					},
					"t_array(t_struct(TyepShipment)49_storage)dyn_storage": {
						"base": "t_struct(TyepShipment)49_storage",
						"encoding": "dynamic_array",
						"label": "struct Tracking.TyepShipment[]",
						"numberOfBytes": "32"
					},
					"t_bool": {
						"encoding": "inplace",
						"label": "bool",
						"numberOfBytes": "1"
					},
					"t_enum(ShipmentStatus)5": {
						"encoding": "inplace",
						"label": "enum Tracking.ShipmentStatus",
						"numberOfBytes": "1"
					},
					"t_mapping(t_address,t_array(t_struct(Shipment)23_storage)dyn_storage)": {
						"encoding": "mapping",
						"key": "t_address",
						"label": "mapping(address => struct Tracking.Shipment[])",
						"numberOfBytes": "32",
						"value": "t_array(t_struct(Shipment)23_storage)dyn_storage"
					},
					"t_struct(Shipment)23_storage": {
						"encoding": "inplace",
						"label": "struct Tracking.Shipment",
						"members": [
							{
								"astId": 7,
								"contract": "contracts/Tracking.sol:Tracking",
								"label": "sender",
								"offset": 0,
								"slot": "0",
								"type": "t_address"
							},
							{
								"astId": 9,
								"contract": "contracts/Tracking.sol:Tracking",
								"label": "receiver",
								"offset": 0,
								"slot": "1",
								"type": "t_address"
							},
							{
								"astId": 11,
								"contract": "contracts/Tracking.sol:Tracking",
								"label": "pickupTime",
								"offset": 0,
								"slot": "2",
								"type": "t_uint256"
							},
							{
								"astId": 13,
								"contract": "contracts/Tracking.sol:Tracking",
								"label": "deliveryTime",
								"offset": 0,
								"slot": "3",
								"type": "t_uint256"
							},
							{
								"astId": 15,
								"contract": "contracts/Tracking.sol:Tracking",
								"label": "distance",
								"offset": 0,
								"slot": "4",
								"type": "t_uint256"
							},
							{
								"astId": 17,
								"contract": "contracts/Tracking.sol:Tracking",
								"label": "price",
								"offset": 0,
								"slot": "5",
								"type": "t_uint256"
							},
							{
								"astId": 20,
								"contract": "contracts/Tracking.sol:Tracking",
								"label": "status",
								"offset": 0,
								"slot": "6",
								"type": "t_enum(ShipmentStatus)5"
							},
							{
								"astId": 22,
								"contract": "contracts/Tracking.sol:Tracking",
								"label": "isPaid",
								"offset": 1,
								"slot": "6",
								"type": "t_bool"
							}
						],
						"numberOfBytes": "224"
					},
					"t_struct(TyepShipment)49_storage": {
						"encoding": "inplace",
						"label": "struct Tracking.TyepShipment",
						"members": [
							{
								"astId": 33,
								"contract": "contracts/Tracking.sol:Tracking",
								"label": "sender",
								"offset": 0,
								"slot": "0",
								"type": "t_address"
							},
							{
								"astId": 35,
								"contract": "contracts/Tracking.sol:Tracking",
								"label": "receiver",
								"offset": 0,
								"slot": "1",
								"type": "t_address"
							},
							{
								"astId": 37,
								"contract": "contracts/Tracking.sol:Tracking",
								"label": "pickupTime",
								"offset": 0,
								"slot": "2",
								"type": "t_uint256"
							},
							{
								"astId": 39,
								"contract": "contracts/Tracking.sol:Tracking",
								"label": "deliveryTime",
								"offset": 0,
								"slot": "3",
								"type": "t_uint256"
							},
							{
								"astId": 41,
								"contract": "contracts/Tracking.sol:Tracking",
								"label": "distance",
								"offset": 0,
								"slot": "4",
								"type": "t_uint256"
							},
							{
								"astId": 43,
								"contract": "contracts/Tracking.sol:Tracking",
								"label": "price",
								"offset": 0,
								"slot": "5",
								"type": "t_uint256"
							},
							{
								"astId": 46,
								"contract": "contracts/Tracking.sol:Tracking",
								"label": "status",
								"offset": 0,
								"slot": "6",
								"type": "t_enum(ShipmentStatus)5"
							},
							{
								"astId": 48,
								"contract": "contracts/Tracking.sol:Tracking",
								"label": "isPaid",
								"offset": 1,
								"slot": "6",
								"type": "t_bool"
							}
						],
						"numberOfBytes": "224"
					},
					"t_uint256": {
						"encoding": "inplace",
						"label": "uint256",
						"numberOfBytes": "32"
					}
				}
			},
			"userdoc": {
				"kind": "user",
				"methods": {},
				"version": 1
			}
		}
	}
}