{
	"contracts/demo.sol": {
		"Portfolio": {
			"abi": [
				{
					"inputs": [],
					"stateMutability": "nonpayable",
					"type": "constructor"
				},
				{
					"inputs": [],
					"name": "allEductationDetails",
					"outputs": [
						{
							"components": [
								{
									"internalType": "uint256",
									"name": "id",
									"type": "uint256"
								},
								{
									"internalType": "string",
									"name": "date",
									"type": "string"
								},
								{
									"internalType": "string",
									"name": "degree",
									"type": "string"
								},
								{
									"internalType": "string",
									"name": "knowledgeAcquired",
									"type": "string"
								},
								{
									"internalType": "string",
									"name": "instutionName",
									"type": "string"
								}
							],
							"internalType": "struct Portfolio.Education[3]",
							"name": "",
							"type": "tuple[3]"
						}
					],
					"stateMutability": "view",
					"type": "function"
				},
				{
					"inputs": [
						{
							"internalType": "uint256",
							"name": "",
							"type": "uint256"
						}
					],
					"name": "educationDetails",
					"outputs": [
						{
							"internalType": "uint256",
							"name": "id",
							"type": "uint256"
						},
						{
							"internalType": "string",
							"name": "date",
							"type": "string"
						},
						{
							"internalType": "string",
							"name": "degree",
							"type": "string"
						},
						{
							"internalType": "string",
							"name": "knowledgeAcquired",
							"type": "string"
						},
						{
							"internalType": "string",
							"name": "instutionName",
							"type": "string"
						}
					],
					"stateMutability": "view",
					"type": "function"
				},
				{
					"inputs": [
						{
							"internalType": "string",
							"name": "_date",
							"type": "string"
						},
						{
							"internalType": "string",
							"name": "_degree",
							"type": "string"
						},
						{
							"internalType": "string",
							"name": "_knowledgeAcquired",
							"type": "string"
						},
						{
							"internalType": "string",
							"name": "_instutionName",
							"type": "string"
						}
					],
					"name": "insertEducation",
					"outputs": [],
					"stateMutability": "nonpayable",
					"type": "function"
				},
				{
					"inputs": [],
					"name": "manager",
					"outputs": [
						{
							"internalType": "address",
							"name": "",
							"type": "address"
						}
					],
					"stateMutability": "view",
					"type": "function"
				}
			],
			"devdoc": {
				"kind": "dev",
				"methods": {},
				"version": 1
			},
			"evm": {
				"assembly": "    /* \"contracts/demo.sol\":72:987  contract Portfolio{... */\n  mstore(0x40, 0x80)\n    /* \"contracts/demo.sol\":335:381  constructor(){... */\n  callvalue\n  dup1\n  iszero\n  tag_1\n  jumpi\n  0x00\n  dup1\n  revert\ntag_1:\n  pop\n    /* \"contracts/demo.sol\":365:375  msg.sender */\n  caller\n    /* \"contracts/demo.sol\":357:364  manager */\n  0x10\n  0x00\n    /* \"contracts/demo.sol\":357:375  manager=msg.sender */\n  0x0100\n  exp\n  dup2\n  sload\n  dup2\n  0xffffffffffffffffffffffffffffffffffffffff\n  mul\n  not\n  and\n  swap1\n  dup4\n  0xffffffffffffffffffffffffffffffffffffffff\n  and\n  mul\n  or\n  swap1\n  sstore\n  pop\n    /* \"contracts/demo.sol\":72:987  contract Portfolio{... */\n  dataSize(sub_0)\n  dup1\n  dataOffset(sub_0)\n  0x00\n  codecopy\n  0x00\n  return\nstop\n\nsub_0: assembly {\n        /* \"contracts/demo.sol\":72:987  contract Portfolio{... */\n      mstore(0x40, 0x80)\n      callvalue\n      dup1\n      iszero\n      tag_1\n      jumpi\n      0x00\n      dup1\n      revert\n    tag_1:\n      pop\n      jumpi(tag_2, lt(calldatasize, 0x04))\n      shr(0xe0, calldataload(0x00))\n      dup1\n      0x481c6a75\n      eq\n      tag_3\n      jumpi\n      dup1\n      0x7aea95aa\n      eq\n      tag_4\n      jumpi\n      dup1\n      0x8af4f98d\n      eq\n      tag_5\n      jumpi\n      dup1\n      0x98f831b6\n      eq\n      tag_6\n      jumpi\n    tag_2:\n      0x00\n      dup1\n      revert\n        /* \"contracts/demo.sol\":306:328  address public manager */\n    tag_3:\n      tag_7\n      tag_8\n      jump\t// in\n    tag_7:\n      mload(0x40)\n      tag_9\n      swap2\n      swap1\n      tag_10\n      jump\t// in\n    tag_9:\n      mload(0x40)\n      dup1\n      swap2\n      sub\n      swap1\n      return\n        /* \"contracts/demo.sol\":241:277  Education[3] public educationDetails */\n    tag_4:\n      tag_11\n      0x04\n      dup1\n      calldatasize\n      sub\n      dup2\n      add\n      swap1\n      tag_12\n      swap2\n      swap1\n      tag_13\n      jump\t// in\n    tag_12:\n      tag_14\n      jump\t// in\n    tag_11:\n      mload(0x40)\n      tag_15\n      swap6\n      swap5\n      swap4\n      swap3\n      swap2\n      swap1\n      tag_16\n      jump\t// in\n    tag_15:\n      mload(0x40)\n      dup1\n      swap2\n      sub\n      swap1\n      return\n        /* \"contracts/demo.sol\":872:984  function allEductationDetails() external view returns(Education[3] memory){... */\n    tag_5:\n      tag_17\n      tag_18\n      jump\t// in\n    tag_17:\n      mload(0x40)\n      tag_19\n      swap2\n      swap1\n      tag_20\n      jump\t// in\n    tag_19:\n      mload(0x40)\n      dup1\n      swap2\n      sub\n      swap1\n      return\n        /* \"contracts/demo.sol\":493:866  function insertEducation(string calldata _date,string calldata _degree,string calldata _knowledgeAcquired,string calldata _instutionName) external  onlyManager{... */\n    tag_6:\n      tag_21\n      0x04\n      dup1\n      calldatasize\n      sub\n      dup2\n      add\n      swap1\n      tag_22\n      swap2\n      swap1\n      tag_23\n      jump\t// in\n    tag_22:\n      tag_24\n      jump\t// in\n    tag_21:\n      stop\n        /* \"contracts/demo.sol\":306:328  address public manager */\n    tag_8:\n      0x10\n      0x00\n      swap1\n      sload\n      swap1\n      0x0100\n      exp\n      swap1\n      div\n      0xffffffffffffffffffffffffffffffffffffffff\n      and\n      dup2\n      jump\t// out\n        /* \"contracts/demo.sol\":241:277  Education[3] public educationDetails */\n    tag_14:\n      0x00\n      dup2\n      0x03\n      dup2\n      lt\n      tag_25\n      jumpi\n      0x00\n      dup1\n      revert\n    tag_25:\n      0x05\n      mul\n      add\n      0x00\n      swap2\n      pop\n      swap1\n      pop\n      dup1\n      0x00\n      add\n      sload\n      swap1\n      dup1\n      0x01\n      add\n      dup1\n      sload\n      tag_27\n      swap1\n      tag_28\n      jump\t// in\n    tag_27:\n      dup1\n      0x1f\n      add\n      0x20\n      dup1\n      swap2\n      div\n      mul\n      0x20\n      add\n      mload(0x40)\n      swap1\n      dup2\n      add\n      0x40\n      mstore\n      dup1\n      swap3\n      swap2\n      swap1\n      dup2\n      dup2\n      mstore\n      0x20\n      add\n      dup3\n      dup1\n      sload\n      tag_29\n      swap1\n      tag_28\n      jump\t// in\n    tag_29:\n      dup1\n      iszero\n      tag_30\n      jumpi\n      dup1\n      0x1f\n      lt\n      tag_31\n      jumpi\n      0x0100\n      dup1\n      dup4\n      sload\n      div\n      mul\n      dup4\n      mstore\n      swap2\n      0x20\n      add\n      swap2\n      jump(tag_30)\n    tag_31:\n      dup3\n      add\n      swap2\n      swap1\n      0x00\n      mstore\n      keccak256(0x00, 0x20)\n      swap1\n    tag_32:\n      dup2\n      sload\n      dup2\n      mstore\n      swap1\n      0x01\n      add\n      swap1\n      0x20\n      add\n      dup1\n      dup4\n      gt\n      tag_32\n      jumpi\n      dup3\n      swap1\n      sub\n      0x1f\n      and\n      dup3\n      add\n      swap2\n    tag_30:\n      pop\n      pop\n      pop\n      pop\n      pop\n      swap1\n      dup1\n      0x02\n      add\n      dup1\n      sload\n      tag_33\n      swap1\n      tag_28\n      jump\t// in\n    tag_33:\n      dup1\n      0x1f\n      add\n      0x20\n      dup1\n      swap2\n      div\n      mul\n      0x20\n      add\n      mload(0x40)\n      swap1\n      dup2\n      add\n      0x40\n      mstore\n      dup1\n      swap3\n      swap2\n      swap1\n      dup2\n      dup2\n      mstore\n      0x20\n      add\n      dup3\n      dup1\n      sload\n      tag_34\n      swap1\n      tag_28\n      jump\t// in\n    tag_34:\n      dup1\n      iszero\n      tag_35\n      jumpi\n      dup1\n      0x1f\n      lt\n      tag_36\n      jumpi\n      0x0100\n      dup1\n      dup4\n      sload\n      div\n      mul\n      dup4\n      mstore\n      swap2\n      0x20\n      add\n      swap2\n      jump(tag_35)\n    tag_36:\n      dup3\n      add\n      swap2\n      swap1\n      0x00\n      mstore\n      keccak256(0x00, 0x20)\n      swap1\n    tag_37:\n      dup2\n      sload\n      dup2\n      mstore\n      swap1\n      0x01\n      add\n      swap1\n      0x20\n      add\n      dup1\n      dup4\n      gt\n      tag_37\n      jumpi\n      dup3\n      swap1\n      sub\n      0x1f\n      and\n      dup3\n      add\n      swap2\n    tag_35:\n      pop\n      pop\n      pop\n      pop\n      pop\n      swap1\n      dup1\n      0x03\n      add\n      dup1\n      sload\n      tag_38\n      swap1\n      tag_28\n      jump\t// in\n    tag_38:\n      dup1\n      0x1f\n      add\n      0x20\n      dup1\n      swap2\n      div\n      mul\n      0x20\n      add\n      mload(0x40)\n      swap1\n      dup2\n      add\n      0x40\n      mstore\n      dup1\n      swap3\n      swap2\n      swap1\n      dup2\n      dup2\n      mstore\n      0x20\n      add\n      dup3\n      dup1\n      sload\n      tag_39\n      swap1\n      tag_28\n      jump\t// in\n    tag_39:\n      dup1\n      iszero\n      tag_40\n      jumpi\n      dup1\n      0x1f\n      lt\n      tag_41\n      jumpi\n      0x0100\n      dup1\n      dup4\n      sload\n      div\n      mul\n      dup4\n      mstore\n      swap2\n      0x20\n      add\n      swap2\n      jump(tag_40)\n    tag_41:\n      dup3\n      add\n      swap2\n      swap1\n      0x00\n      mstore\n      keccak256(0x00, 0x20)\n      swap1\n    tag_42:\n      dup2\n      sload\n      dup2\n      mstore\n      swap1\n      0x01\n      add\n      swap1\n      0x20\n      add\n      dup1\n      dup4\n      gt\n      tag_42\n      jumpi\n      dup3\n      swap1\n      sub\n      0x1f\n      and\n      dup3\n      add\n      swap2\n    tag_40:\n      pop\n      pop\n      pop\n      pop\n      pop\n      swap1\n      dup1\n      0x04\n      add\n      dup1\n      sload\n      tag_43\n      swap1\n      tag_28\n      jump\t// in\n    tag_43:\n      dup1\n      0x1f\n      add\n      0x20\n      dup1\n      swap2\n      div\n      mul\n      0x20\n      add\n      mload(0x40)\n      swap1\n      dup2\n      add\n      0x40\n      mstore\n      dup1\n      swap3\n      swap2\n      swap1\n      dup2\n      dup2\n      mstore\n      0x20\n      add\n      dup3\n      dup1\n      sload\n      tag_44\n      swap1\n      tag_28\n      jump\t// in\n    tag_44:\n      dup1\n      iszero\n      tag_45\n      jumpi\n      dup1\n      0x1f\n      lt\n      tag_46\n      jumpi\n      0x0100\n      dup1\n      dup4\n      sload\n      div\n      mul\n      dup4\n      mstore\n      swap2\n      0x20\n      add\n      swap2\n      jump(tag_45)\n    tag_46:\n      dup3\n      add\n      swap2\n      swap1\n      0x00\n      mstore\n      keccak256(0x00, 0x20)\n      swap1\n    tag_47:\n      dup2\n      sload\n      dup2\n      mstore\n      swap1\n      0x01\n      add\n      swap1\n      0x20\n      add\n      dup1\n      dup4\n      gt\n      tag_47\n      jumpi\n      dup3\n      swap1\n      sub\n      0x1f\n      and\n      dup3\n      add\n      swap2\n    tag_45:\n      pop\n      pop\n      pop\n      pop\n      pop\n      swap1\n      pop\n      dup6\n      jump\t// out\n        /* \"contracts/demo.sol\":872:984  function allEductationDetails() external view returns(Education[3] memory){... */\n    tag_18:\n        /* \"contracts/demo.sol\":926:945  Education[3] memory */\n      tag_48\n      tag_49\n      jump\t// in\n    tag_48:\n        /* \"contracts/demo.sol\":962:978  educationDetails */\n      0x00\n        /* \"contracts/demo.sol\":955:978  return educationDetails */\n      0x03\n      dup1\n      0x20\n      mul\n      mload(0x40)\n      swap1\n      dup2\n      add\n      0x40\n      mstore\n      dup1\n      swap3\n      swap2\n      swap1\n      0x00\n      swap1\n    tag_51:\n      dup3\n      dup3\n      lt\n      iszero\n      tag_52\n      jumpi\n      dup4\n      dup3\n      0x05\n      mul\n      add\n      mload(0x40)\n      dup1\n      0xa0\n      add\n      0x40\n      mstore\n      swap1\n      dup2\n      0x00\n      dup3\n      add\n      sload\n      dup2\n      mstore\n      0x20\n      add\n      0x01\n      dup3\n      add\n      dup1\n      sload\n      tag_54\n      swap1\n      tag_28\n      jump\t// in\n    tag_54:\n      dup1\n      0x1f\n      add\n      0x20\n      dup1\n      swap2\n      div\n      mul\n      0x20\n      add\n      mload(0x40)\n      swap1\n      dup2\n      add\n      0x40\n      mstore\n      dup1\n      swap3\n      swap2\n      swap1\n      dup2\n      dup2\n      mstore\n      0x20\n      add\n      dup3\n      dup1\n      sload\n      tag_55\n      swap1\n      tag_28\n      jump\t// in\n    tag_55:\n      dup1\n      iszero\n      tag_56\n      jumpi\n      dup1\n      0x1f\n      lt\n      tag_57\n      jumpi\n      0x0100\n      dup1\n      dup4\n      sload\n      div\n      mul\n      dup4\n      mstore\n      swap2\n      0x20\n      add\n      swap2\n      jump(tag_56)\n    tag_57:\n      dup3\n      add\n      swap2\n      swap1\n      0x00\n      mstore\n      keccak256(0x00, 0x20)\n      swap1\n    tag_58:\n      dup2\n      sload\n      dup2\n      mstore\n      swap1\n      0x01\n      add\n      swap1\n      0x20\n      add\n      dup1\n      dup4\n      gt\n      tag_58\n      jumpi\n      dup3\n      swap1\n      sub\n      0x1f\n      and\n      dup3\n      add\n      swap2\n    tag_56:\n      pop\n      pop\n      pop\n      pop\n      pop\n      dup2\n      mstore\n      0x20\n      add\n      0x02\n      dup3\n      add\n      dup1\n      sload\n      tag_59\n      swap1\n      tag_28\n      jump\t// in\n    tag_59:\n      dup1\n      0x1f\n      add\n      0x20\n      dup1\n      swap2\n      div\n      mul\n      0x20\n      add\n      mload(0x40)\n      swap1\n      dup2\n      add\n      0x40\n      mstore\n      dup1\n      swap3\n      swap2\n      swap1\n      dup2\n      dup2\n      mstore\n      0x20\n      add\n      dup3\n      dup1\n      sload\n      tag_60\n      swap1\n      tag_28\n      jump\t// in\n    tag_60:\n      dup1\n      iszero\n      tag_61\n      jumpi\n      dup1\n      0x1f\n      lt\n      tag_62\n      jumpi\n      0x0100\n      dup1\n      dup4\n      sload\n      div\n      mul\n      dup4\n      mstore\n      swap2\n      0x20\n      add\n      swap2\n      jump(tag_61)\n    tag_62:\n      dup3\n      add\n      swap2\n      swap1\n      0x00\n      mstore\n      keccak256(0x00, 0x20)\n      swap1\n    tag_63:\n      dup2\n      sload\n      dup2\n      mstore\n      swap1\n      0x01\n      add\n      swap1\n      0x20\n      add\n      dup1\n      dup4\n      gt\n      tag_63\n      jumpi\n      dup3\n      swap1\n      sub\n      0x1f\n      and\n      dup3\n      add\n      swap2\n    tag_61:\n      pop\n      pop\n      pop\n      pop\n      pop\n      dup2\n      mstore\n      0x20\n      add\n      0x03\n      dup3\n      add\n      dup1\n      sload\n      tag_64\n      swap1\n      tag_28\n      jump\t// in\n    tag_64:\n      dup1\n      0x1f\n      add\n      0x20\n      dup1\n      swap2\n      div\n      mul\n      0x20\n      add\n      mload(0x40)\n      swap1\n      dup2\n      add\n      0x40\n      mstore\n      dup1\n      swap3\n      swap2\n      swap1\n      dup2\n      dup2\n      mstore\n      0x20\n      add\n      dup3\n      dup1\n      sload\n      tag_65\n      swap1\n      tag_28\n      jump\t// in\n    tag_65:\n      dup1\n      iszero\n      tag_66\n      jumpi\n      dup1\n      0x1f\n      lt\n      tag_67\n      jumpi\n      0x0100\n      dup1\n      dup4\n      sload\n      div\n      mul\n      dup4\n      mstore\n      swap2\n      0x20\n      add\n      swap2\n      jump(tag_66)\n    tag_67:\n      dup3\n      add\n      swap2\n      swap1\n      0x00\n      mstore\n      keccak256(0x00, 0x20)\n      swap1\n    tag_68:\n      dup2\n      sload\n      dup2\n      mstore\n      swap1\n      0x01\n      add\n      swap1\n      0x20\n      add\n      dup1\n      dup4\n      gt\n      tag_68\n      jumpi\n      dup3\n      swap1\n      sub\n      0x1f\n      and\n      dup3\n      add\n      swap2\n    tag_66:\n      pop\n      pop\n      pop\n      pop\n      pop\n      dup2\n      mstore\n      0x20\n      add\n      0x04\n      dup3\n      add\n      dup1\n      sload\n      tag_69\n      swap1\n      tag_28\n      jump\t// in\n    tag_69:\n      dup1\n      0x1f\n      add\n      0x20\n      dup1\n      swap2\n      div\n      mul\n      0x20\n      add\n      mload(0x40)\n      swap1\n      dup2\n      add\n      0x40\n      mstore\n      dup1\n      swap3\n      swap2\n      swap1\n      dup2\n      dup2\n      mstore\n      0x20\n      add\n      dup3\n      dup1\n      sload\n      tag_70\n      swap1\n      tag_28\n      jump\t// in\n    tag_70:\n      dup1\n      iszero\n      tag_71\n      jumpi\n      dup1\n      0x1f\n      lt\n      tag_72\n      jumpi\n      0x0100\n      dup1\n      dup4\n      sload\n      div\n      mul\n      dup4\n      mstore\n      swap2\n      0x20\n      add\n      swap2\n      jump(tag_71)\n    tag_72:\n      dup3\n      add\n      swap2\n      swap1\n      0x00\n      mstore\n      keccak256(0x00, 0x20)\n      swap1\n    tag_73:\n      dup2\n      sload\n      dup2\n      mstore\n      swap1\n      0x01\n      add\n      swap1\n      0x20\n      add\n      dup1\n      dup4\n      gt\n      tag_73\n      jumpi\n      dup3\n      swap1\n      sub\n      0x1f\n      and\n      dup3\n      add\n      swap2\n    tag_71:\n      pop\n      pop\n      pop\n      pop\n      pop\n      dup2\n      mstore\n      pop\n      pop\n      dup2\n      mstore\n      0x20\n      add\n      swap1\n      0x01\n      add\n      swap1\n      jump(tag_51)\n    tag_52:\n      pop\n      pop\n      pop\n      pop\n      swap1\n      pop\n        /* \"contracts/demo.sol\":872:984  function allEductationDetails() external view returns(Education[3] memory){... */\n      swap1\n      jump\t// out\n        /* \"contracts/demo.sol\":493:866  function insertEducation(string calldata _date,string calldata _degree,string calldata _knowledgeAcquired,string calldata _instutionName) external  onlyManager{... */\n    tag_24:\n        /* \"contracts/demo.sol\":435:445  msg.sender */\n      caller\n        /* \"contracts/demo.sol\":426:445  manager==msg.sender */\n      0xffffffffffffffffffffffffffffffffffffffff\n      and\n        /* \"contracts/demo.sol\":426:433  manager */\n      0x10\n      0x00\n      swap1\n      sload\n      swap1\n      0x0100\n      exp\n      swap1\n      div\n      0xffffffffffffffffffffffffffffffffffffffff\n      and\n        /* \"contracts/demo.sol\":426:445  manager==msg.sender */\n      0xffffffffffffffffffffffffffffffffffffffff\n      and\n      eq\n        /* \"contracts/demo.sol\":418:472  require(manager==msg.sender,\"You are not the manager\") */\n      tag_75\n      jumpi\n      mload(0x40)\n      0x08c379a000000000000000000000000000000000000000000000000000000000\n      dup2\n      mstore\n      0x04\n      add\n      tag_76\n      swap1\n      tag_77\n      jump\t// in\n    tag_76:\n      mload(0x40)\n      dup1\n      swap2\n      sub\n      swap1\n      revert\n    tag_75:\n        /* \"contracts/demo.sol\":683:684  3 */\n      0x03\n        /* \"contracts/demo.sol\":668:682  educationCount */\n      sload(0x0f)\n        /* \"contracts/demo.sol\":668:684  educationCount<3 */\n      lt\n        /* \"contracts/demo.sol\":660:720  require(educationCount<3,\"Only 3 education details allowed\") */\n      tag_79\n      jumpi\n      mload(0x40)\n      0x08c379a000000000000000000000000000000000000000000000000000000000\n      dup2\n      mstore\n      0x04\n      add\n      tag_80\n      swap1\n      tag_81\n      jump\t// in\n    tag_80:\n      mload(0x40)\n      dup1\n      swap2\n      sub\n      swap1\n      revert\n    tag_79:\n        /* \"contracts/demo.sol\":761:834  Education(educationCount,_date,_degree,_knowledgeAcquired,_instutionName) */\n      mload(0x40)\n      dup1\n      0xa0\n      add\n      0x40\n      mstore\n      dup1\n        /* \"contracts/demo.sol\":771:785  educationCount */\n      sload(0x0f)\n        /* \"contracts/demo.sol\":761:834  Education(educationCount,_date,_degree,_knowledgeAcquired,_instutionName) */\n      dup2\n      mstore\n      0x20\n      add\n        /* \"contracts/demo.sol\":786:791  _date */\n      dup10\n      dup10\n        /* \"contracts/demo.sol\":761:834  Education(educationCount,_date,_degree,_knowledgeAcquired,_instutionName) */\n      dup1\n      dup1\n      0x1f\n      add\n      0x20\n      dup1\n      swap2\n      div\n      mul\n      0x20\n      add\n      mload(0x40)\n      swap1\n      dup2\n      add\n      0x40\n      mstore\n      dup1\n      swap4\n      swap3\n      swap2\n      swap1\n      dup2\n      dup2\n      mstore\n      0x20\n      add\n      dup4\n      dup4\n      dup1\n      dup3\n      dup5\n      calldatacopy\n      0x00\n      dup2\n      dup5\n      add\n      mstore\n      not(0x1f)\n      0x1f\n      dup3\n      add\n      and\n      swap1\n      pop\n      dup1\n      dup4\n      add\n      swap3\n      pop\n      pop\n      pop\n      pop\n      pop\n      pop\n      pop\n      dup2\n      mstore\n      0x20\n      add\n        /* \"contracts/demo.sol\":792:799  _degree */\n      dup8\n      dup8\n        /* \"contracts/demo.sol\":761:834  Education(educationCount,_date,_degree,_knowledgeAcquired,_instutionName) */\n      dup1\n      dup1\n      0x1f\n      add\n      0x20\n      dup1\n      swap2\n      div\n      mul\n      0x20\n      add\n      mload(0x40)\n      swap1\n      dup2\n      add\n      0x40\n      mstore\n      dup1\n      swap4\n      swap3\n      swap2\n      swap1\n      dup2\n      dup2\n      mstore\n      0x20\n      add\n      dup4\n      dup4\n      dup1\n      dup3\n      dup5\n      calldatacopy\n      0x00\n      dup2\n      dup5\n      add\n      mstore\n      not(0x1f)\n      0x1f\n      dup3\n      add\n      and\n      swap1\n      pop\n      dup1\n      dup4\n      add\n      swap3\n      pop\n      pop\n      pop\n      pop\n      pop\n      pop\n      pop\n      dup2\n      mstore\n      0x20\n      add\n        /* \"contracts/demo.sol\":800:818  _knowledgeAcquired */\n      dup6\n      dup6\n        /* \"contracts/demo.sol\":761:834  Education(educationCount,_date,_degree,_knowledgeAcquired,_instutionName) */\n      dup1\n      dup1\n      0x1f\n      add\n      0x20\n      dup1\n      swap2\n      div\n      mul\n      0x20\n      add\n      mload(0x40)\n      swap1\n      dup2\n      add\n      0x40\n      mstore\n      dup1\n      swap4\n      swap3\n      swap2\n      swap1\n      dup2\n      dup2\n      mstore\n      0x20\n      add\n      dup4\n      dup4\n      dup1\n      dup3\n      dup5\n      calldatacopy\n      0x00\n      dup2\n      dup5\n      add\n      mstore\n      not(0x1f)\n      0x1f\n      dup3\n      add\n      and\n      swap1\n      pop\n      dup1\n      dup4\n      add\n      swap3\n      pop\n      pop\n      pop\n      pop\n      pop\n      pop\n      pop\n      dup2\n      mstore\n      0x20\n      add\n        /* \"contracts/demo.sol\":819:833  _instutionName */\n      dup4\n      dup4\n        /* \"contracts/demo.sol\":761:834  Education(educationCount,_date,_degree,_knowledgeAcquired,_instutionName) */\n      dup1\n      dup1\n      0x1f\n      add\n      0x20\n      dup1\n      swap2\n      div\n      mul\n      0x20\n      add\n      mload(0x40)\n      swap1\n      dup2\n      add\n      0x40\n      mstore\n      dup1\n      swap4\n      swap3\n      swap2\n      swap1\n      dup2\n      dup2\n      mstore\n      0x20\n      add\n      dup4\n      dup4\n      dup1\n      dup3\n      dup5\n      calldatacopy\n      0x00\n      dup2\n      dup5\n      add\n      mstore\n      not(0x1f)\n      0x1f\n      dup3\n      add\n      and\n      swap1\n      pop\n      dup1\n      dup4\n      add\n      swap3\n      pop\n      pop\n      pop\n      pop\n      pop\n      pop\n      pop\n      dup2\n      mstore\n      pop\n        /* \"contracts/demo.sol\":728:744  educationDetails */\n      0x00\n        /* \"contracts/demo.sol\":745:759  educationCount */\n      sload(0x0f)\n        /* \"contracts/demo.sol\":728:760  educationDetails[educationCount] */\n      0x03\n      dup2\n      lt\n      tag_82\n      jumpi\n      tag_83\n      tag_84\n      jump\t// in\n    tag_83:\n    tag_82:\n      0x05\n      mul\n      add\n        /* \"contracts/demo.sol\":728:834  educationDetails[educationCount]=Education(educationCount,_date,_degree,_knowledgeAcquired,_instutionName) */\n      0x00\n      dup3\n      add\n      mload\n      dup2\n      0x00\n      add\n      sstore\n      0x20\n      dup3\n      add\n      mload\n      dup2\n      0x01\n      add\n      swap1\n      dup2\n      tag_86\n      swap2\n      swap1\n      tag_87\n      jump\t// in\n    tag_86:\n      pop\n      0x40\n      dup3\n      add\n      mload\n      dup2\n      0x02\n      add\n      swap1\n      dup2\n      tag_88\n      swap2\n      swap1\n      tag_87\n      jump\t// in\n    tag_88:\n      pop\n      0x60\n      dup3\n      add\n      mload\n      dup2\n      0x03\n      add\n      swap1\n      dup2\n      tag_89\n      swap2\n      swap1\n      tag_87\n      jump\t// in\n    tag_89:\n      pop\n      0x80\n      dup3\n      add\n      mload\n      dup2\n      0x04\n      add\n      swap1\n      dup2\n      tag_90\n      swap2\n      swap1\n      tag_87\n      jump\t// in\n    tag_90:\n      pop\n      swap1\n      pop\n      pop\n        /* \"contracts/demo.sol\":842:856  educationCount */\n      0x0f\n      0x00\n        /* \"contracts/demo.sol\":842:858  educationCount++ */\n      dup2\n      sload\n      dup1\n      swap3\n      swap2\n      swap1\n      tag_91\n      swap1\n      tag_92\n      jump\t// in\n    tag_91:\n      swap2\n      swap1\n      pop\n      sstore\n      pop\n        /* \"contracts/demo.sol\":493:866  function insertEducation(string calldata _date,string calldata _degree,string calldata _knowledgeAcquired,string calldata _instutionName) external  onlyManager{... */\n      pop\n      pop\n      pop\n      pop\n      pop\n      pop\n      pop\n      pop\n      jump\t// out\n    tag_49:\n      mload(0x40)\n      dup1\n      0x60\n      add\n      0x40\n      mstore\n      dup1\n      0x03\n      swap1\n    tag_93:\n      tag_94\n      tag_95\n      jump\t// in\n    tag_94:\n      dup2\n      mstore\n      0x20\n      add\n      swap1\n      0x01\n      swap1\n      sub\n      swap1\n      dup2\n      tag_93\n      jumpi\n      swap1\n      pop\n      pop\n      swap1\n      jump\t// out\n    tag_95:\n      mload(0x40)\n      dup1\n      0xa0\n      add\n      0x40\n      mstore\n      dup1\n      0x00\n      dup2\n      mstore\n      0x20\n      add\n      0x60\n      dup2\n      mstore\n      0x20\n      add\n      0x60\n      dup2\n      mstore\n      0x20\n      add\n      0x60\n      dup2\n      mstore\n      0x20\n      add\n      0x60\n      dup2\n      mstore\n      pop\n      swap1\n      jump\t// out\n        /* \"#utility.yul\":7:133   */\n    tag_96:\n        /* \"#utility.yul\":44:51   */\n      0x00\n        /* \"#utility.yul\":84:126   */\n      0xffffffffffffffffffffffffffffffffffffffff\n        /* \"#utility.yul\":77:82   */\n      dup3\n        /* \"#utility.yul\":73:127   */\n      and\n        /* \"#utility.yul\":62:127   */\n      swap1\n      pop\n        /* \"#utility.yul\":7:133   */\n      swap2\n      swap1\n      pop\n      jump\t// out\n        /* \"#utility.yul\":139:235   */\n    tag_97:\n        /* \"#utility.yul\":176:183   */\n      0x00\n        /* \"#utility.yul\":205:229   */\n      tag_150\n        /* \"#utility.yul\":223:228   */\n      dup3\n        /* \"#utility.yul\":205:229   */\n      tag_96\n      jump\t// in\n    tag_150:\n        /* \"#utility.yul\":194:229   */\n      swap1\n      pop\n        /* \"#utility.yul\":139:235   */\n      swap2\n      swap1\n      pop\n      jump\t// out\n        /* \"#utility.yul\":241:359   */\n    tag_98:\n        /* \"#utility.yul\":328:352   */\n      tag_152\n        /* \"#utility.yul\":346:351   */\n      dup2\n        /* \"#utility.yul\":328:352   */\n      tag_97\n      jump\t// in\n    tag_152:\n        /* \"#utility.yul\":323:326   */\n      dup3\n        /* \"#utility.yul\":316:353   */\n      mstore\n        /* \"#utility.yul\":241:359   */\n      pop\n      pop\n      jump\t// out\n        /* \"#utility.yul\":365:587   */\n    tag_10:\n        /* \"#utility.yul\":458:462   */\n      0x00\n        /* \"#utility.yul\":496:498   */\n      0x20\n        /* \"#utility.yul\":485:494   */\n      dup3\n        /* \"#utility.yul\":481:499   */\n      add\n        /* \"#utility.yul\":473:499   */\n      swap1\n      pop\n        /* \"#utility.yul\":509:580   */\n      tag_154\n        /* \"#utility.yul\":577:578   */\n      0x00\n        /* \"#utility.yul\":566:575   */\n      dup4\n        /* \"#utility.yul\":562:579   */\n      add\n        /* \"#utility.yul\":553:559   */\n      dup5\n        /* \"#utility.yul\":509:580   */\n      tag_98\n      jump\t// in\n    tag_154:\n        /* \"#utility.yul\":365:587   */\n      swap3\n      swap2\n      pop\n      pop\n      jump\t// out\n        /* \"#utility.yul\":674:791   */\n    tag_100:\n        /* \"#utility.yul\":783:784   */\n      0x00\n        /* \"#utility.yul\":780:781   */\n      dup1\n        /* \"#utility.yul\":773:785   */\n      revert\n        /* \"#utility.yul\":797:914   */\n    tag_101:\n        /* \"#utility.yul\":906:907   */\n      0x00\n        /* \"#utility.yul\":903:904   */\n      dup1\n        /* \"#utility.yul\":896:908   */\n      revert\n        /* \"#utility.yul\":920:997   */\n    tag_102:\n        /* \"#utility.yul\":957:964   */\n      0x00\n        /* \"#utility.yul\":986:991   */\n      dup2\n        /* \"#utility.yul\":975:991   */\n      swap1\n      pop\n        /* \"#utility.yul\":920:997   */\n      swap2\n      swap1\n      pop\n      jump\t// out\n        /* \"#utility.yul\":1003:1125   */\n    tag_103:\n        /* \"#utility.yul\":1076:1100   */\n      tag_160\n        /* \"#utility.yul\":1094:1099   */\n      dup2\n        /* \"#utility.yul\":1076:1100   */\n      tag_102\n      jump\t// in\n    tag_160:\n        /* \"#utility.yul\":1069:1074   */\n      dup2\n        /* \"#utility.yul\":1066:1101   */\n      eq\n        /* \"#utility.yul\":1056:1119   */\n      tag_161\n      jumpi\n        /* \"#utility.yul\":1115:1116   */\n      0x00\n        /* \"#utility.yul\":1112:1113   */\n      dup1\n        /* \"#utility.yul\":1105:1117   */\n      revert\n        /* \"#utility.yul\":1056:1119   */\n    tag_161:\n        /* \"#utility.yul\":1003:1125   */\n      pop\n      jump\t// out\n        /* \"#utility.yul\":1131:1270   */\n    tag_104:\n        /* \"#utility.yul\":1177:1182   */\n      0x00\n        /* \"#utility.yul\":1215:1221   */\n      dup2\n        /* \"#utility.yul\":1202:1222   */\n      calldataload\n        /* \"#utility.yul\":1193:1222   */\n      swap1\n      pop\n        /* \"#utility.yul\":1231:1264   */\n      tag_163\n        /* \"#utility.yul\":1258:1263   */\n      dup2\n        /* \"#utility.yul\":1231:1264   */\n      tag_103\n      jump\t// in\n    tag_163:\n        /* \"#utility.yul\":1131:1270   */\n      swap3\n      swap2\n      pop\n      pop\n      jump\t// out\n        /* \"#utility.yul\":1276:1605   */\n    tag_13:\n        /* \"#utility.yul\":1335:1341   */\n      0x00\n        /* \"#utility.yul\":1384:1386   */\n      0x20\n        /* \"#utility.yul\":1372:1381   */\n      dup3\n        /* \"#utility.yul\":1363:1370   */\n      dup5\n        /* \"#utility.yul\":1359:1382   */\n      sub\n        /* \"#utility.yul\":1355:1387   */\n      slt\n        /* \"#utility.yul\":1352:1471   */\n      iszero\n      tag_165\n      jumpi\n        /* \"#utility.yul\":1390:1469   */\n      tag_166\n      tag_100\n      jump\t// in\n    tag_166:\n        /* \"#utility.yul\":1352:1471   */\n    tag_165:\n        /* \"#utility.yul\":1510:1511   */\n      0x00\n        /* \"#utility.yul\":1535:1588   */\n      tag_167\n        /* \"#utility.yul\":1580:1587   */\n      dup5\n        /* \"#utility.yul\":1571:1577   */\n      dup3\n        /* \"#utility.yul\":1560:1569   */\n      dup6\n        /* \"#utility.yul\":1556:1578   */\n      add\n        /* \"#utility.yul\":1535:1588   */\n      tag_104\n      jump\t// in\n    tag_167:\n        /* \"#utility.yul\":1525:1588   */\n      swap2\n      pop\n        /* \"#utility.yul\":1481:1598   */\n      pop\n        /* \"#utility.yul\":1276:1605   */\n      swap3\n      swap2\n      pop\n      pop\n      jump\t// out\n        /* \"#utility.yul\":1611:1729   */\n    tag_105:\n        /* \"#utility.yul\":1698:1722   */\n      tag_169\n        /* \"#utility.yul\":1716:1721   */\n      dup2\n        /* \"#utility.yul\":1698:1722   */\n      tag_102\n      jump\t// in\n    tag_169:\n        /* \"#utility.yul\":1693:1696   */\n      dup3\n        /* \"#utility.yul\":1686:1723   */\n      mstore\n        /* \"#utility.yul\":1611:1729   */\n      pop\n      pop\n      jump\t// out\n        /* \"#utility.yul\":1735:1834   */\n    tag_106:\n        /* \"#utility.yul\":1787:1793   */\n      0x00\n        /* \"#utility.yul\":1821:1826   */\n      dup2\n        /* \"#utility.yul\":1815:1827   */\n      mload\n        /* \"#utility.yul\":1805:1827   */\n      swap1\n      pop\n        /* \"#utility.yul\":1735:1834   */\n      swap2\n      swap1\n      pop\n      jump\t// out\n        /* \"#utility.yul\":1840:2009   */\n    tag_107:\n        /* \"#utility.yul\":1924:1935   */\n      0x00\n        /* \"#utility.yul\":1958:1964   */\n      dup3\n        /* \"#utility.yul\":1953:1956   */\n      dup3\n        /* \"#utility.yul\":1946:1965   */\n      mstore\n        /* \"#utility.yul\":1998:2002   */\n      0x20\n        /* \"#utility.yul\":1993:1996   */\n      dup3\n        /* \"#utility.yul\":1989:2003   */\n      add\n        /* \"#utility.yul\":1974:2003   */\n      swap1\n      pop\n        /* \"#utility.yul\":1840:2009   */\n      swap3\n      swap2\n      pop\n      pop\n      jump\t// out\n        /* \"#utility.yul\":2015:2261   */\n    tag_108:\n        /* \"#utility.yul\":2096:2097   */\n      0x00\n        /* \"#utility.yul\":2106:2219   */\n    tag_173:\n        /* \"#utility.yul\":2120:2126   */\n      dup4\n        /* \"#utility.yul\":2117:2118   */\n      dup2\n        /* \"#utility.yul\":2114:2127   */\n      lt\n        /* \"#utility.yul\":2106:2219   */\n      iszero\n      tag_175\n      jumpi\n        /* \"#utility.yul\":2205:2206   */\n      dup1\n        /* \"#utility.yul\":2200:2203   */\n      dup3\n        /* \"#utility.yul\":2196:2207   */\n      add\n        /* \"#utility.yul\":2190:2208   */\n      mload\n        /* \"#utility.yul\":2186:2187   */\n      dup2\n        /* \"#utility.yul\":2181:2184   */\n      dup5\n        /* \"#utility.yul\":2177:2188   */\n      add\n        /* \"#utility.yul\":2170:2209   */\n      mstore\n        /* \"#utility.yul\":2142:2144   */\n      0x20\n        /* \"#utility.yul\":2139:2140   */\n      dup2\n        /* \"#utility.yul\":2135:2145   */\n      add\n        /* \"#utility.yul\":2130:2145   */\n      swap1\n      pop\n        /* \"#utility.yul\":2106:2219   */\n      jump(tag_173)\n    tag_175:\n        /* \"#utility.yul\":2253:2254   */\n      0x00\n        /* \"#utility.yul\":2244:2250   */\n      dup5\n        /* \"#utility.yul\":2239:2242   */\n      dup5\n        /* \"#utility.yul\":2235:2251   */\n      add\n        /* \"#utility.yul\":2228:2255   */\n      mstore\n        /* \"#utility.yul\":2077:2261   */\n      pop\n        /* \"#utility.yul\":2015:2261   */\n      pop\n      pop\n      pop\n      jump\t// out\n        /* \"#utility.yul\":2267:2369   */\n    tag_109:\n        /* \"#utility.yul\":2308:2314   */\n      0x00\n        /* \"#utility.yul\":2359:2361   */\n      0x1f\n        /* \"#utility.yul\":2355:2362   */\n      not\n        /* \"#utility.yul\":2350:2352   */\n      0x1f\n        /* \"#utility.yul\":2343:2348   */\n      dup4\n        /* \"#utility.yul\":2339:2353   */\n      add\n        /* \"#utility.yul\":2335:2363   */\n      and\n        /* \"#utility.yul\":2325:2363   */\n      swap1\n      pop\n        /* \"#utility.yul\":2267:2369   */\n      swap2\n      swap1\n      pop\n      jump\t// out\n        /* \"#utility.yul\":2375:2752   */\n    tag_110:\n        /* \"#utility.yul\":2463:2466   */\n      0x00\n        /* \"#utility.yul\":2491:2530   */\n      tag_178\n        /* \"#utility.yul\":2524:2529   */\n      dup3\n        /* \"#utility.yul\":2491:2530   */\n      tag_106\n      jump\t// in\n    tag_178:\n        /* \"#utility.yul\":2546:2617   */\n      tag_179\n        /* \"#utility.yul\":2610:2616   */\n      dup2\n        /* \"#utility.yul\":2605:2608   */\n      dup6\n        /* \"#utility.yul\":2546:2617   */\n      tag_107\n      jump\t// in\n    tag_179:\n        /* \"#utility.yul\":2539:2617   */\n      swap4\n      pop\n        /* \"#utility.yul\":2626:2691   */\n      tag_180\n        /* \"#utility.yul\":2684:2690   */\n      dup2\n        /* \"#utility.yul\":2679:2682   */\n      dup6\n        /* \"#utility.yul\":2672:2676   */\n      0x20\n        /* \"#utility.yul\":2665:2670   */\n      dup7\n        /* \"#utility.yul\":2661:2677   */\n      add\n        /* \"#utility.yul\":2626:2691   */\n      tag_108\n      jump\t// in\n    tag_180:\n        /* \"#utility.yul\":2716:2745   */\n      tag_181\n        /* \"#utility.yul\":2738:2744   */\n      dup2\n        /* \"#utility.yul\":2716:2745   */\n      tag_109\n      jump\t// in\n    tag_181:\n        /* \"#utility.yul\":2711:2714   */\n      dup5\n        /* \"#utility.yul\":2707:2746   */\n      add\n        /* \"#utility.yul\":2700:2746   */\n      swap2\n      pop\n        /* \"#utility.yul\":2467:2752   */\n      pop\n        /* \"#utility.yul\":2375:2752   */\n      swap3\n      swap2\n      pop\n      pop\n      jump\t// out\n        /* \"#utility.yul\":2758:3786   */\n    tag_16:\n        /* \"#utility.yul\":3043:3047   */\n      0x00\n        /* \"#utility.yul\":3081:3084   */\n      0xa0\n        /* \"#utility.yul\":3070:3079   */\n      dup3\n        /* \"#utility.yul\":3066:3085   */\n      add\n        /* \"#utility.yul\":3058:3085   */\n      swap1\n      pop\n        /* \"#utility.yul\":3095:3166   */\n      tag_183\n        /* \"#utility.yul\":3163:3164   */\n      0x00\n        /* \"#utility.yul\":3152:3161   */\n      dup4\n        /* \"#utility.yul\":3148:3165   */\n      add\n        /* \"#utility.yul\":3139:3145   */\n      dup9\n        /* \"#utility.yul\":3095:3166   */\n      tag_105\n      jump\t// in\n    tag_183:\n        /* \"#utility.yul\":3213:3222   */\n      dup2\n        /* \"#utility.yul\":3207:3211   */\n      dup2\n        /* \"#utility.yul\":3203:3223   */\n      sub\n        /* \"#utility.yul\":3198:3200   */\n      0x20\n        /* \"#utility.yul\":3187:3196   */\n      dup4\n        /* \"#utility.yul\":3183:3201   */\n      add\n        /* \"#utility.yul\":3176:3224   */\n      mstore\n        /* \"#utility.yul\":3241:3319   */\n      tag_184\n        /* \"#utility.yul\":3314:3318   */\n      dup2\n        /* \"#utility.yul\":3305:3311   */\n      dup8\n        /* \"#utility.yul\":3241:3319   */\n      tag_110\n      jump\t// in\n    tag_184:\n        /* \"#utility.yul\":3233:3319   */\n      swap1\n      pop\n        /* \"#utility.yul\":3366:3375   */\n      dup2\n        /* \"#utility.yul\":3360:3364   */\n      dup2\n        /* \"#utility.yul\":3356:3376   */\n      sub\n        /* \"#utility.yul\":3351:3353   */\n      0x40\n        /* \"#utility.yul\":3340:3349   */\n      dup4\n        /* \"#utility.yul\":3336:3354   */\n      add\n        /* \"#utility.yul\":3329:3377   */\n      mstore\n        /* \"#utility.yul\":3394:3472   */\n      tag_185\n        /* \"#utility.yul\":3467:3471   */\n      dup2\n        /* \"#utility.yul\":3458:3464   */\n      dup7\n        /* \"#utility.yul\":3394:3472   */\n      tag_110\n      jump\t// in\n    tag_185:\n        /* \"#utility.yul\":3386:3472   */\n      swap1\n      pop\n        /* \"#utility.yul\":3519:3528   */\n      dup2\n        /* \"#utility.yul\":3513:3517   */\n      dup2\n        /* \"#utility.yul\":3509:3529   */\n      sub\n        /* \"#utility.yul\":3504:3506   */\n      0x60\n        /* \"#utility.yul\":3493:3502   */\n      dup4\n        /* \"#utility.yul\":3489:3507   */\n      add\n        /* \"#utility.yul\":3482:3530   */\n      mstore\n        /* \"#utility.yul\":3547:3625   */\n      tag_186\n        /* \"#utility.yul\":3620:3624   */\n      dup2\n        /* \"#utility.yul\":3611:3617   */\n      dup6\n        /* \"#utility.yul\":3547:3625   */\n      tag_110\n      jump\t// in\n    tag_186:\n        /* \"#utility.yul\":3539:3625   */\n      swap1\n      pop\n        /* \"#utility.yul\":3673:3682   */\n      dup2\n        /* \"#utility.yul\":3667:3671   */\n      dup2\n        /* \"#utility.yul\":3663:3683   */\n      sub\n        /* \"#utility.yul\":3657:3660   */\n      0x80\n        /* \"#utility.yul\":3646:3655   */\n      dup4\n        /* \"#utility.yul\":3642:3661   */\n      add\n        /* \"#utility.yul\":3635:3684   */\n      mstore\n        /* \"#utility.yul\":3701:3779   */\n      tag_187\n        /* \"#utility.yul\":3774:3778   */\n      dup2\n        /* \"#utility.yul\":3765:3771   */\n      dup5\n        /* \"#utility.yul\":3701:3779   */\n      tag_110\n      jump\t// in\n    tag_187:\n        /* \"#utility.yul\":3693:3779   */\n      swap1\n      pop\n        /* \"#utility.yul\":2758:3786   */\n      swap7\n      swap6\n      pop\n      pop\n      pop\n      pop\n      pop\n      pop\n      jump\t// out\n        /* \"#utility.yul\":3792:3921   */\n    tag_111:\n        /* \"#utility.yul\":3882:3888   */\n      0x00\n        /* \"#utility.yul\":3910:3914   */\n      0x03\n        /* \"#utility.yul\":3900:3914   */\n      swap1\n      pop\n        /* \"#utility.yul\":3792:3921   */\n      swap2\n      swap1\n      pop\n      jump\t// out\n        /* \"#utility.yul\":3927:4095   */\n    tag_112:\n        /* \"#utility.yul\":4049:4060   */\n      0x00\n        /* \"#utility.yul\":4086:4089   */\n      dup2\n        /* \"#utility.yul\":4071:4089   */\n      swap1\n      pop\n        /* \"#utility.yul\":3927:4095   */\n      swap3\n      swap2\n      pop\n      pop\n      jump\t// out\n        /* \"#utility.yul\":4101:4224   */\n    tag_113:\n        /* \"#utility.yul\":4191:4195   */\n      0x00\n        /* \"#utility.yul\":4214:4217   */\n      dup2\n        /* \"#utility.yul\":4206:4217   */\n      swap1\n      pop\n        /* \"#utility.yul\":4101:4224   */\n      swap2\n      swap1\n      pop\n      jump\t// out\n        /* \"#utility.yul\":4230:4338   */\n    tag_114:\n        /* \"#utility.yul\":4307:4331   */\n      tag_192\n        /* \"#utility.yul\":4325:4330   */\n      dup2\n        /* \"#utility.yul\":4307:4331   */\n      tag_102\n      jump\t// in\n    tag_192:\n        /* \"#utility.yul\":4302:4305   */\n      dup3\n        /* \"#utility.yul\":4295:4332   */\n      mstore\n        /* \"#utility.yul\":4230:4338   */\n      pop\n      pop\n      jump\t// out\n        /* \"#utility.yul\":4344:4503   */\n    tag_115:\n        /* \"#utility.yul\":4418:4429   */\n      0x00\n        /* \"#utility.yul\":4452:4458   */\n      dup3\n        /* \"#utility.yul\":4447:4450   */\n      dup3\n        /* \"#utility.yul\":4440:4459   */\n      mstore\n        /* \"#utility.yul\":4492:4496   */\n      0x20\n        /* \"#utility.yul\":4487:4490   */\n      dup3\n        /* \"#utility.yul\":4483:4497   */\n      add\n        /* \"#utility.yul\":4468:4497   */\n      swap1\n      pop\n        /* \"#utility.yul\":4344:4503   */\n      swap3\n      swap2\n      pop\n      pop\n      jump\t// out\n        /* \"#utility.yul\":4509:4866   */\n    tag_116:\n        /* \"#utility.yul\":4587:4590   */\n      0x00\n        /* \"#utility.yul\":4615:4654   */\n      tag_195\n        /* \"#utility.yul\":4648:4653   */\n      dup3\n        /* \"#utility.yul\":4615:4654   */\n      tag_106\n      jump\t// in\n    tag_195:\n        /* \"#utility.yul\":4670:4731   */\n      tag_196\n        /* \"#utility.yul\":4724:4730   */\n      dup2\n        /* \"#utility.yul\":4719:4722   */\n      dup6\n        /* \"#utility.yul\":4670:4731   */\n      tag_115\n      jump\t// in\n    tag_196:\n        /* \"#utility.yul\":4663:4731   */\n      swap4\n      pop\n        /* \"#utility.yul\":4740:4805   */\n      tag_197\n        /* \"#utility.yul\":4798:4804   */\n      dup2\n        /* \"#utility.yul\":4793:4796   */\n      dup6\n        /* \"#utility.yul\":4786:4790   */\n      0x20\n        /* \"#utility.yul\":4779:4784   */\n      dup7\n        /* \"#utility.yul\":4775:4791   */\n      add\n        /* \"#utility.yul\":4740:4805   */\n      tag_108\n      jump\t// in\n    tag_197:\n        /* \"#utility.yul\":4830:4859   */\n      tag_198\n        /* \"#utility.yul\":4852:4858   */\n      dup2\n        /* \"#utility.yul\":4830:4859   */\n      tag_109\n      jump\t// in\n    tag_198:\n        /* \"#utility.yul\":4825:4828   */\n      dup5\n        /* \"#utility.yul\":4821:4860   */\n      add\n        /* \"#utility.yul\":4814:4860   */\n      swap2\n      pop\n        /* \"#utility.yul\":4591:4866   */\n      pop\n        /* \"#utility.yul\":4509:4866   */\n      swap3\n      swap2\n      pop\n      pop\n      jump\t// out\n        /* \"#utility.yul\":4936:6289   */\n    tag_117:\n        /* \"#utility.yul\":5045:5048   */\n      0x00\n        /* \"#utility.yul\":5081:5085   */\n      0xa0\n        /* \"#utility.yul\":5076:5079   */\n      dup4\n        /* \"#utility.yul\":5072:5086   */\n      add\n        /* \"#utility.yul\":5166:5170   */\n      0x00\n        /* \"#utility.yul\":5159:5164   */\n      dup4\n        /* \"#utility.yul\":5155:5171   */\n      add\n        /* \"#utility.yul\":5149:5172   */\n      mload\n        /* \"#utility.yul\":5185:5248   */\n      tag_200\n        /* \"#utility.yul\":5242:5246   */\n      0x00\n        /* \"#utility.yul\":5237:5240   */\n      dup7\n        /* \"#utility.yul\":5233:5247   */\n      add\n        /* \"#utility.yul\":5219:5231   */\n      dup3\n        /* \"#utility.yul\":5185:5248   */\n      tag_114\n      jump\t// in\n    tag_200:\n        /* \"#utility.yul\":5096:5258   */\n      pop\n        /* \"#utility.yul\":5340:5344   */\n      0x20\n        /* \"#utility.yul\":5333:5338   */\n      dup4\n        /* \"#utility.yul\":5329:5345   */\n      add\n        /* \"#utility.yul\":5323:5346   */\n      mload\n        /* \"#utility.yul\":5393:5396   */\n      dup5\n        /* \"#utility.yul\":5387:5391   */\n      dup3\n        /* \"#utility.yul\":5383:5397   */\n      sub\n        /* \"#utility.yul\":5376:5380   */\n      0x20\n        /* \"#utility.yul\":5371:5374   */\n      dup7\n        /* \"#utility.yul\":5367:5381   */\n      add\n        /* \"#utility.yul\":5360:5398   */\n      mstore\n        /* \"#utility.yul\":5419:5492   */\n      tag_201\n        /* \"#utility.yul\":5487:5491   */\n      dup3\n        /* \"#utility.yul\":5473:5485   */\n      dup3\n        /* \"#utility.yul\":5419:5492   */\n      tag_116\n      jump\t// in\n    tag_201:\n        /* \"#utility.yul\":5411:5492   */\n      swap2\n      pop\n        /* \"#utility.yul\":5268:5503   */\n      pop\n        /* \"#utility.yul\":5587:5591   */\n      0x40\n        /* \"#utility.yul\":5580:5585   */\n      dup4\n        /* \"#utility.yul\":5576:5592   */\n      add\n        /* \"#utility.yul\":5570:5593   */\n      mload\n        /* \"#utility.yul\":5640:5643   */\n      dup5\n        /* \"#utility.yul\":5634:5638   */\n      dup3\n        /* \"#utility.yul\":5630:5644   */\n      sub\n        /* \"#utility.yul\":5623:5627   */\n      0x40\n        /* \"#utility.yul\":5618:5621   */\n      dup7\n        /* \"#utility.yul\":5614:5628   */\n      add\n        /* \"#utility.yul\":5607:5645   */\n      mstore\n        /* \"#utility.yul\":5666:5739   */\n      tag_202\n        /* \"#utility.yul\":5734:5738   */\n      dup3\n        /* \"#utility.yul\":5720:5732   */\n      dup3\n        /* \"#utility.yul\":5666:5739   */\n      tag_116\n      jump\t// in\n    tag_202:\n        /* \"#utility.yul\":5658:5739   */\n      swap2\n      pop\n        /* \"#utility.yul\":5513:5750   */\n      pop\n        /* \"#utility.yul\":5845:5849   */\n      0x60\n        /* \"#utility.yul\":5838:5843   */\n      dup4\n        /* \"#utility.yul\":5834:5850   */\n      add\n        /* \"#utility.yul\":5828:5851   */\n      mload\n        /* \"#utility.yul\":5898:5901   */\n      dup5\n        /* \"#utility.yul\":5892:5896   */\n      dup3\n        /* \"#utility.yul\":5888:5902   */\n      sub\n        /* \"#utility.yul\":5881:5885   */\n      0x60\n        /* \"#utility.yul\":5876:5879   */\n      dup7\n        /* \"#utility.yul\":5872:5886   */\n      add\n        /* \"#utility.yul\":5865:5903   */\n      mstore\n        /* \"#utility.yul\":5924:5997   */\n      tag_203\n        /* \"#utility.yul\":5992:5996   */\n      dup3\n        /* \"#utility.yul\":5978:5990   */\n      dup3\n        /* \"#utility.yul\":5924:5997   */\n      tag_116\n      jump\t// in\n    tag_203:\n        /* \"#utility.yul\":5916:5997   */\n      swap2\n      pop\n        /* \"#utility.yul\":5760:6008   */\n      pop\n        /* \"#utility.yul\":6099:6103   */\n      0x80\n        /* \"#utility.yul\":6092:6097   */\n      dup4\n        /* \"#utility.yul\":6088:6104   */\n      add\n        /* \"#utility.yul\":6082:6105   */\n      mload\n        /* \"#utility.yul\":6152:6155   */\n      dup5\n        /* \"#utility.yul\":6146:6150   */\n      dup3\n        /* \"#utility.yul\":6142:6156   */\n      sub\n        /* \"#utility.yul\":6135:6139   */\n      0x80\n        /* \"#utility.yul\":6130:6133   */\n      dup7\n        /* \"#utility.yul\":6126:6140   */\n      add\n        /* \"#utility.yul\":6119:6157   */\n      mstore\n        /* \"#utility.yul\":6178:6251   */\n      tag_204\n        /* \"#utility.yul\":6246:6250   */\n      dup3\n        /* \"#utility.yul\":6232:6244   */\n      dup3\n        /* \"#utility.yul\":6178:6251   */\n      tag_116\n      jump\t// in\n    tag_204:\n        /* \"#utility.yul\":6170:6251   */\n      swap2\n      pop\n        /* \"#utility.yul\":6018:6262   */\n      pop\n        /* \"#utility.yul\":6279:6283   */\n      dup1\n        /* \"#utility.yul\":6272:6283   */\n      swap2\n      pop\n        /* \"#utility.yul\":5050:6289   */\n      pop\n        /* \"#utility.yul\":4936:6289   */\n      swap3\n      swap2\n      pop\n      pop\n      jump\t// out\n        /* \"#utility.yul\":6295:6551   */\n    tag_118:\n        /* \"#utility.yul\":6414:6424   */\n      0x00\n        /* \"#utility.yul\":6449:6545   */\n      tag_206\n        /* \"#utility.yul\":6541:6544   */\n      dup4\n        /* \"#utility.yul\":6533:6539   */\n      dup4\n        /* \"#utility.yul\":6449:6545   */\n      tag_117\n      jump\t// in\n    tag_206:\n        /* \"#utility.yul\":6435:6545   */\n      swap1\n      pop\n        /* \"#utility.yul\":6295:6551   */\n      swap3\n      swap2\n      pop\n      pop\n      jump\t// out\n        /* \"#utility.yul\":6557:6693   */\n    tag_119:\n        /* \"#utility.yul\":6650:6654   */\n      0x00\n        /* \"#utility.yul\":6682:6686   */\n      0x20\n        /* \"#utility.yul\":6677:6680   */\n      dup3\n        /* \"#utility.yul\":6673:6687   */\n      add\n        /* \"#utility.yul\":6665:6687   */\n      swap1\n      pop\n        /* \"#utility.yul\":6557:6693   */\n      swap2\n      swap1\n      pop\n      jump\t// out\n        /* \"#utility.yul\":6769:7868   */\n    tag_120:\n        /* \"#utility.yul\":6934:6937   */\n      0x00\n        /* \"#utility.yul\":6963:7040   */\n      tag_209\n        /* \"#utility.yul\":7034:7039   */\n      dup3\n        /* \"#utility.yul\":6963:7040   */\n      tag_111\n      jump\t// in\n    tag_209:\n        /* \"#utility.yul\":7056:7165   */\n      tag_210\n        /* \"#utility.yul\":7158:7164   */\n      dup2\n        /* \"#utility.yul\":7153:7156   */\n      dup6\n        /* \"#utility.yul\":7056:7165   */\n      tag_112\n      jump\t// in\n    tag_210:\n        /* \"#utility.yul\":7049:7165   */\n      swap4\n      pop\n        /* \"#utility.yul\":7191:7194   */\n      dup4\n        /* \"#utility.yul\":7236:7240   */\n      0x20\n        /* \"#utility.yul\":7228:7234   */\n      dup3\n        /* \"#utility.yul\":7224:7241   */\n      mul\n        /* \"#utility.yul\":7219:7222   */\n      dup6\n        /* \"#utility.yul\":7215:7242   */\n      add\n        /* \"#utility.yul\":7266:7345   */\n      tag_211\n        /* \"#utility.yul\":7339:7344   */\n      dup6\n        /* \"#utility.yul\":7266:7345   */\n      tag_113\n      jump\t// in\n    tag_211:\n        /* \"#utility.yul\":7368:7375   */\n      dup1\n        /* \"#utility.yul\":7399:7400   */\n      0x00\n        /* \"#utility.yul\":7384:7823   */\n    tag_212:\n        /* \"#utility.yul\":7409:7415   */\n      dup6\n        /* \"#utility.yul\":7406:7407   */\n      dup2\n        /* \"#utility.yul\":7403:7416   */\n      lt\n        /* \"#utility.yul\":7384:7823   */\n      iszero\n      tag_214\n      jumpi\n        /* \"#utility.yul\":7480:7489   */\n      dup5\n        /* \"#utility.yul\":7474:7478   */\n      dup5\n        /* \"#utility.yul\":7470:7490   */\n      sub\n        /* \"#utility.yul\":7465:7468   */\n      dup10\n        /* \"#utility.yul\":7458:7491   */\n      mstore\n        /* \"#utility.yul\":7531:7537   */\n      dup2\n        /* \"#utility.yul\":7525:7538   */\n      mload\n        /* \"#utility.yul\":7559:7673   */\n      tag_215\n        /* \"#utility.yul\":7668:7672   */\n      dup6\n        /* \"#utility.yul\":7653:7666   */\n      dup3\n        /* \"#utility.yul\":7559:7673   */\n      tag_118\n      jump\t// in\n    tag_215:\n        /* \"#utility.yul\":7551:7673   */\n      swap5\n      pop\n        /* \"#utility.yul\":7696:7779   */\n      tag_216\n        /* \"#utility.yul\":7772:7778   */\n      dup4\n        /* \"#utility.yul\":7696:7779   */\n      tag_119\n      jump\t// in\n    tag_216:\n        /* \"#utility.yul\":7686:7779   */\n      swap3\n      pop\n        /* \"#utility.yul\":7808:7812   */\n      0x20\n        /* \"#utility.yul\":7803:7806   */\n      dup11\n        /* \"#utility.yul\":7799:7813   */\n      add\n        /* \"#utility.yul\":7792:7813   */\n      swap10\n      pop\n        /* \"#utility.yul\":7444:7823   */\n      pop\n        /* \"#utility.yul\":7431:7432   */\n      0x01\n        /* \"#utility.yul\":7428:7429   */\n      dup2\n        /* \"#utility.yul\":7424:7433   */\n      add\n        /* \"#utility.yul\":7419:7433   */\n      swap1\n      pop\n        /* \"#utility.yul\":7384:7823   */\n      jump(tag_212)\n    tag_214:\n        /* \"#utility.yul\":7388:7402   */\n      pop\n        /* \"#utility.yul\":7839:7843   */\n      dup3\n        /* \"#utility.yul\":7832:7843   */\n      swap8\n      pop\n        /* \"#utility.yul\":7859:7862   */\n      dup8\n        /* \"#utility.yul\":7852:7862   */\n      swap6\n      pop\n        /* \"#utility.yul\":6939:7868   */\n      pop\n      pop\n      pop\n      pop\n      pop\n        /* \"#utility.yul\":6769:7868   */\n      swap3\n      swap2\n      pop\n      pop\n      jump\t// out\n        /* \"#utility.yul\":7874:8339   */\n    tag_20:\n        /* \"#utility.yul\":8063:8067   */\n      0x00\n        /* \"#utility.yul\":8101:8103   */\n      0x20\n        /* \"#utility.yul\":8090:8099   */\n      dup3\n        /* \"#utility.yul\":8086:8104   */\n      add\n        /* \"#utility.yul\":8078:8104   */\n      swap1\n      pop\n        /* \"#utility.yul\":8150:8159   */\n      dup2\n        /* \"#utility.yul\":8144:8148   */\n      dup2\n        /* \"#utility.yul\":8140:8160   */\n      sub\n        /* \"#utility.yul\":8136:8137   */\n      0x00\n        /* \"#utility.yul\":8125:8134   */\n      dup4\n        /* \"#utility.yul\":8121:8138   */\n      add\n        /* \"#utility.yul\":8114:8161   */\n      mstore\n        /* \"#utility.yul\":8178:8332   */\n      tag_218\n        /* \"#utility.yul\":8327:8331   */\n      dup2\n        /* \"#utility.yul\":8318:8324   */\n      dup5\n        /* \"#utility.yul\":8178:8332   */\n      tag_120\n      jump\t// in\n    tag_218:\n        /* \"#utility.yul\":8170:8332   */\n      swap1\n      pop\n        /* \"#utility.yul\":7874:8339   */\n      swap3\n      swap2\n      pop\n      pop\n      jump\t// out\n        /* \"#utility.yul\":8345:8462   */\n    tag_121:\n        /* \"#utility.yul\":8454:8455   */\n      0x00\n        /* \"#utility.yul\":8451:8452   */\n      dup1\n        /* \"#utility.yul\":8444:8456   */\n      revert\n        /* \"#utility.yul\":8468:8585   */\n    tag_122:\n        /* \"#utility.yul\":8577:8578   */\n      0x00\n        /* \"#utility.yul\":8574:8575   */\n      dup1\n        /* \"#utility.yul\":8567:8579   */\n      revert\n        /* \"#utility.yul\":8591:8708   */\n    tag_123:\n        /* \"#utility.yul\":8700:8701   */\n      0x00\n        /* \"#utility.yul\":8697:8698   */\n      dup1\n        /* \"#utility.yul\":8690:8702   */\n      revert\n        /* \"#utility.yul\":8728:9281   */\n    tag_124:\n        /* \"#utility.yul\":8786:8794   */\n      0x00\n        /* \"#utility.yul\":8796:8802   */\n      dup1\n        /* \"#utility.yul\":8846:8849   */\n      dup4\n        /* \"#utility.yul\":8839:8843   */\n      0x1f\n        /* \"#utility.yul\":8831:8837   */\n      dup5\n        /* \"#utility.yul\":8827:8844   */\n      add\n        /* \"#utility.yul\":8823:8850   */\n      slt\n        /* \"#utility.yul\":8813:8935   */\n      tag_223\n      jumpi\n        /* \"#utility.yul\":8854:8933   */\n      tag_224\n      tag_121\n      jump\t// in\n    tag_224:\n        /* \"#utility.yul\":8813:8935   */\n    tag_223:\n        /* \"#utility.yul\":8967:8973   */\n      dup3\n        /* \"#utility.yul\":8954:8974   */\n      calldataload\n        /* \"#utility.yul\":8944:8974   */\n      swap1\n      pop\n        /* \"#utility.yul\":8997:9015   */\n      0xffffffffffffffff\n        /* \"#utility.yul\":8989:8995   */\n      dup2\n        /* \"#utility.yul\":8986:9016   */\n      gt\n        /* \"#utility.yul\":8983:9100   */\n      iszero\n      tag_225\n      jumpi\n        /* \"#utility.yul\":9019:9098   */\n      tag_226\n      tag_122\n      jump\t// in\n    tag_226:\n        /* \"#utility.yul\":8983:9100   */\n    tag_225:\n        /* \"#utility.yul\":9133:9137   */\n      0x20\n        /* \"#utility.yul\":9125:9131   */\n      dup4\n        /* \"#utility.yul\":9121:9138   */\n      add\n        /* \"#utility.yul\":9109:9138   */\n      swap2\n      pop\n        /* \"#utility.yul\":9187:9190   */\n      dup4\n        /* \"#utility.yul\":9179:9183   */\n      0x01\n        /* \"#utility.yul\":9171:9177   */\n      dup3\n        /* \"#utility.yul\":9167:9184   */\n      mul\n        /* \"#utility.yul\":9157:9165   */\n      dup4\n        /* \"#utility.yul\":9153:9185   */\n      add\n        /* \"#utility.yul\":9150:9191   */\n      gt\n        /* \"#utility.yul\":9147:9275   */\n      iszero\n      tag_227\n      jumpi\n        /* \"#utility.yul\":9194:9273   */\n      tag_228\n      tag_123\n      jump\t// in\n    tag_228:\n        /* \"#utility.yul\":9147:9275   */\n    tag_227:\n        /* \"#utility.yul\":8728:9281   */\n      swap3\n      pop\n      swap3\n      swap1\n      pop\n      jump\t// out\n        /* \"#utility.yul\":9287:10852   */\n    tag_23:\n        /* \"#utility.yul\":9421:9427   */\n      0x00\n        /* \"#utility.yul\":9429:9435   */\n      dup1\n        /* \"#utility.yul\":9437:9443   */\n      0x00\n        /* \"#utility.yul\":9445:9451   */\n      dup1\n        /* \"#utility.yul\":9453:9459   */\n      0x00\n        /* \"#utility.yul\":9461:9467   */\n      dup1\n        /* \"#utility.yul\":9469:9475   */\n      0x00\n        /* \"#utility.yul\":9477:9483   */\n      dup1\n        /* \"#utility.yul\":9526:9529   */\n      0x80\n        /* \"#utility.yul\":9514:9523   */\n      dup10\n        /* \"#utility.yul\":9505:9512   */\n      dup12\n        /* \"#utility.yul\":9501:9524   */\n      sub\n        /* \"#utility.yul\":9497:9530   */\n      slt\n        /* \"#utility.yul\":9494:9614   */\n      iszero\n      tag_230\n      jumpi\n        /* \"#utility.yul\":9533:9612   */\n      tag_231\n      tag_100\n      jump\t// in\n    tag_231:\n        /* \"#utility.yul\":9494:9614   */\n    tag_230:\n        /* \"#utility.yul\":9681:9682   */\n      0x00\n        /* \"#utility.yul\":9670:9679   */\n      dup10\n        /* \"#utility.yul\":9666:9683   */\n      add\n        /* \"#utility.yul\":9653:9684   */\n      calldataload\n        /* \"#utility.yul\":9711:9729   */\n      0xffffffffffffffff\n        /* \"#utility.yul\":9703:9709   */\n      dup2\n        /* \"#utility.yul\":9700:9730   */\n      gt\n        /* \"#utility.yul\":9697:9814   */\n      iszero\n      tag_232\n      jumpi\n        /* \"#utility.yul\":9733:9812   */\n      tag_233\n      tag_101\n      jump\t// in\n    tag_233:\n        /* \"#utility.yul\":9697:9814   */\n    tag_232:\n        /* \"#utility.yul\":9846:9911   */\n      tag_234\n        /* \"#utility.yul\":9903:9910   */\n      dup12\n        /* \"#utility.yul\":9894:9900   */\n      dup3\n        /* \"#utility.yul\":9883:9892   */\n      dup13\n        /* \"#utility.yul\":9879:9901   */\n      add\n        /* \"#utility.yul\":9846:9911   */\n      tag_124\n      jump\t// in\n    tag_234:\n        /* \"#utility.yul\":9828:9911   */\n      swap9\n      pop\n      swap9\n      pop\n        /* \"#utility.yul\":9624:9921   */\n      pop\n        /* \"#utility.yul\":9988:9990   */\n      0x20\n        /* \"#utility.yul\":9977:9986   */\n      dup10\n        /* \"#utility.yul\":9973:9991   */\n      add\n        /* \"#utility.yul\":9960:9992   */\n      calldataload\n        /* \"#utility.yul\":10019:10037   */\n      0xffffffffffffffff\n        /* \"#utility.yul\":10011:10017   */\n      dup2\n        /* \"#utility.yul\":10008:10038   */\n      gt\n        /* \"#utility.yul\":10005:10122   */\n      iszero\n      tag_235\n      jumpi\n        /* \"#utility.yul\":10041:10120   */\n      tag_236\n      tag_101\n      jump\t// in\n    tag_236:\n        /* \"#utility.yul\":10005:10122   */\n    tag_235:\n        /* \"#utility.yul\":10154:10219   */\n      tag_237\n        /* \"#utility.yul\":10211:10218   */\n      dup12\n        /* \"#utility.yul\":10202:10208   */\n      dup3\n        /* \"#utility.yul\":10191:10200   */\n      dup13\n        /* \"#utility.yul\":10187:10209   */\n      add\n        /* \"#utility.yul\":10154:10219   */\n      tag_124\n      jump\t// in\n    tag_237:\n        /* \"#utility.yul\":10136:10219   */\n      swap7\n      pop\n      swap7\n      pop\n        /* \"#utility.yul\":9931:10229   */\n      pop\n        /* \"#utility.yul\":10296:10298   */\n      0x40\n        /* \"#utility.yul\":10285:10294   */\n      dup10\n        /* \"#utility.yul\":10281:10299   */\n      add\n        /* \"#utility.yul\":10268:10300   */\n      calldataload\n        /* \"#utility.yul\":10327:10345   */\n      0xffffffffffffffff\n        /* \"#utility.yul\":10319:10325   */\n      dup2\n        /* \"#utility.yul\":10316:10346   */\n      gt\n        /* \"#utility.yul\":10313:10430   */\n      iszero\n      tag_238\n      jumpi\n        /* \"#utility.yul\":10349:10428   */\n      tag_239\n      tag_101\n      jump\t// in\n    tag_239:\n        /* \"#utility.yul\":10313:10430   */\n    tag_238:\n        /* \"#utility.yul\":10462:10527   */\n      tag_240\n        /* \"#utility.yul\":10519:10526   */\n      dup12\n        /* \"#utility.yul\":10510:10516   */\n      dup3\n        /* \"#utility.yul\":10499:10508   */\n      dup13\n        /* \"#utility.yul\":10495:10517   */\n      add\n        /* \"#utility.yul\":10462:10527   */\n      tag_124\n      jump\t// in\n    tag_240:\n        /* \"#utility.yul\":10444:10527   */\n      swap5\n      pop\n      swap5\n      pop\n        /* \"#utility.yul\":10239:10537   */\n      pop\n        /* \"#utility.yul\":10604:10606   */\n      0x60\n        /* \"#utility.yul\":10593:10602   */\n      dup10\n        /* \"#utility.yul\":10589:10607   */\n      add\n        /* \"#utility.yul\":10576:10608   */\n      calldataload\n        /* \"#utility.yul\":10635:10653   */\n      0xffffffffffffffff\n        /* \"#utility.yul\":10627:10633   */\n      dup2\n        /* \"#utility.yul\":10624:10654   */\n      gt\n        /* \"#utility.yul\":10621:10738   */\n      iszero\n      tag_241\n      jumpi\n        /* \"#utility.yul\":10657:10736   */\n      tag_242\n      tag_101\n      jump\t// in\n    tag_242:\n        /* \"#utility.yul\":10621:10738   */\n    tag_241:\n        /* \"#utility.yul\":10770:10835   */\n      tag_243\n        /* \"#utility.yul\":10827:10834   */\n      dup12\n        /* \"#utility.yul\":10818:10824   */\n      dup3\n        /* \"#utility.yul\":10807:10816   */\n      dup13\n        /* \"#utility.yul\":10803:10825   */\n      add\n        /* \"#utility.yul\":10770:10835   */\n      tag_124\n      jump\t// in\n    tag_243:\n        /* \"#utility.yul\":10752:10835   */\n      swap3\n      pop\n      swap3\n      pop\n        /* \"#utility.yul\":10547:10845   */\n      pop\n        /* \"#utility.yul\":9287:10852   */\n      swap3\n      swap6\n      swap9\n      pop\n      swap3\n      swap6\n      swap9\n      swap1\n      swap4\n      swap7\n      pop\n      jump\t// out\n        /* \"#utility.yul\":10858:11038   */\n    tag_125:\n        /* \"#utility.yul\":10906:10983   */\n      0x4e487b7100000000000000000000000000000000000000000000000000000000\n        /* \"#utility.yul\":10903:10904   */\n      0x00\n        /* \"#utility.yul\":10896:10984   */\n      mstore\n        /* \"#utility.yul\":11003:11007   */\n      0x22\n        /* \"#utility.yul\":11000:11001   */\n      0x04\n        /* \"#utility.yul\":10993:11008   */\n      mstore\n        /* \"#utility.yul\":11027:11031   */\n      0x24\n        /* \"#utility.yul\":11024:11025   */\n      0x00\n        /* \"#utility.yul\":11017:11032   */\n      revert\n        /* \"#utility.yul\":11044:11364   */\n    tag_28:\n        /* \"#utility.yul\":11088:11094   */\n      0x00\n        /* \"#utility.yul\":11125:11126   */\n      0x02\n        /* \"#utility.yul\":11119:11123   */\n      dup3\n        /* \"#utility.yul\":11115:11127   */\n      div\n        /* \"#utility.yul\":11105:11127   */\n      swap1\n      pop\n        /* \"#utility.yul\":11172:11173   */\n      0x01\n        /* \"#utility.yul\":11166:11170   */\n      dup3\n        /* \"#utility.yul\":11162:11174   */\n      and\n        /* \"#utility.yul\":11193:11211   */\n      dup1\n        /* \"#utility.yul\":11183:11264   */\n      tag_246\n      jumpi\n        /* \"#utility.yul\":11249:11253   */\n      0x7f\n        /* \"#utility.yul\":11241:11247   */\n      dup3\n        /* \"#utility.yul\":11237:11254   */\n      and\n        /* \"#utility.yul\":11227:11254   */\n      swap2\n      pop\n        /* \"#utility.yul\":11183:11264   */\n    tag_246:\n        /* \"#utility.yul\":11311:11313   */\n      0x20\n        /* \"#utility.yul\":11303:11309   */\n      dup3\n        /* \"#utility.yul\":11300:11314   */\n      lt\n        /* \"#utility.yul\":11280:11298   */\n      dup2\n        /* \"#utility.yul\":11277:11315   */\n      sub\n        /* \"#utility.yul\":11274:11358   */\n      tag_247\n      jumpi\n        /* \"#utility.yul\":11330:11348   */\n      tag_248\n      tag_125\n      jump\t// in\n    tag_248:\n        /* \"#utility.yul\":11274:11358   */\n    tag_247:\n        /* \"#utility.yul\":11095:11364   */\n      pop\n        /* \"#utility.yul\":11044:11364   */\n      swap2\n      swap1\n      pop\n      jump\t// out\n        /* \"#utility.yul\":11370:11543   */\n    tag_126:\n        /* \"#utility.yul\":11510:11535   */\n      0x596f7520617265206e6f7420746865206d616e61676572000000000000000000\n        /* \"#utility.yul\":11506:11507   */\n      0x00\n        /* \"#utility.yul\":11498:11504   */\n      dup3\n        /* \"#utility.yul\":11494:11508   */\n      add\n        /* \"#utility.yul\":11487:11536   */\n      mstore\n        /* \"#utility.yul\":11370:11543   */\n      pop\n      jump\t// out\n        /* \"#utility.yul\":11549:11915   */\n    tag_127:\n        /* \"#utility.yul\":11691:11694   */\n      0x00\n        /* \"#utility.yul\":11712:11779   */\n      tag_251\n        /* \"#utility.yul\":11776:11778   */\n      0x17\n        /* \"#utility.yul\":11771:11774   */\n      dup4\n        /* \"#utility.yul\":11712:11779   */\n      tag_107\n      jump\t// in\n    tag_251:\n        /* \"#utility.yul\":11705:11779   */\n      swap2\n      pop\n        /* \"#utility.yul\":11788:11881   */\n      tag_252\n        /* \"#utility.yul\":11877:11880   */\n      dup3\n        /* \"#utility.yul\":11788:11881   */\n      tag_126\n      jump\t// in\n    tag_252:\n        /* \"#utility.yul\":11906:11908   */\n      0x20\n        /* \"#utility.yul\":11901:11904   */\n      dup3\n        /* \"#utility.yul\":11897:11909   */\n      add\n        /* \"#utility.yul\":11890:11909   */\n      swap1\n      pop\n        /* \"#utility.yul\":11549:11915   */\n      swap2\n      swap1\n      pop\n      jump\t// out\n        /* \"#utility.yul\":11921:12340   */\n    tag_77:\n        /* \"#utility.yul\":12087:12091   */\n      0x00\n        /* \"#utility.yul\":12125:12127   */\n      0x20\n        /* \"#utility.yul\":12114:12123   */\n      dup3\n        /* \"#utility.yul\":12110:12128   */\n      add\n        /* \"#utility.yul\":12102:12128   */\n      swap1\n      pop\n        /* \"#utility.yul\":12174:12183   */\n      dup2\n        /* \"#utility.yul\":12168:12172   */\n      dup2\n        /* \"#utility.yul\":12164:12184   */\n      sub\n        /* \"#utility.yul\":12160:12161   */\n      0x00\n        /* \"#utility.yul\":12149:12158   */\n      dup4\n        /* \"#utility.yul\":12145:12162   */\n      add\n        /* \"#utility.yul\":12138:12185   */\n      mstore\n        /* \"#utility.yul\":12202:12333   */\n      tag_254\n        /* \"#utility.yul\":12328:12332   */\n      dup2\n        /* \"#utility.yul\":12202:12333   */\n      tag_127\n      jump\t// in\n    tag_254:\n        /* \"#utility.yul\":12194:12333   */\n      swap1\n      pop\n        /* \"#utility.yul\":11921:12340   */\n      swap2\n      swap1\n      pop\n      jump\t// out\n        /* \"#utility.yul\":12346:12528   */\n    tag_128:\n        /* \"#utility.yul\":12486:12520   */\n      0x4f6e6c79203320656475636174696f6e2064657461696c7320616c6c6f776564\n        /* \"#utility.yul\":12482:12483   */\n      0x00\n        /* \"#utility.yul\":12474:12480   */\n      dup3\n        /* \"#utility.yul\":12470:12484   */\n      add\n        /* \"#utility.yul\":12463:12521   */\n      mstore\n        /* \"#utility.yul\":12346:12528   */\n      pop\n      jump\t// out\n        /* \"#utility.yul\":12534:12900   */\n    tag_129:\n        /* \"#utility.yul\":12676:12679   */\n      0x00\n        /* \"#utility.yul\":12697:12764   */\n      tag_257\n        /* \"#utility.yul\":12761:12763   */\n      0x20\n        /* \"#utility.yul\":12756:12759   */\n      dup4\n        /* \"#utility.yul\":12697:12764   */\n      tag_107\n      jump\t// in\n    tag_257:\n        /* \"#utility.yul\":12690:12764   */\n      swap2\n      pop\n        /* \"#utility.yul\":12773:12866   */\n      tag_258\n        /* \"#utility.yul\":12862:12865   */\n      dup3\n        /* \"#utility.yul\":12773:12866   */\n      tag_128\n      jump\t// in\n    tag_258:\n        /* \"#utility.yul\":12891:12893   */\n      0x20\n        /* \"#utility.yul\":12886:12889   */\n      dup3\n        /* \"#utility.yul\":12882:12894   */\n      add\n        /* \"#utility.yul\":12875:12894   */\n      swap1\n      pop\n        /* \"#utility.yul\":12534:12900   */\n      swap2\n      swap1\n      pop\n      jump\t// out\n        /* \"#utility.yul\":12906:13325   */\n    tag_81:\n        /* \"#utility.yul\":13072:13076   */\n      0x00\n        /* \"#utility.yul\":13110:13112   */\n      0x20\n        /* \"#utility.yul\":13099:13108   */\n      dup3\n        /* \"#utility.yul\":13095:13113   */\n      add\n        /* \"#utility.yul\":13087:13113   */\n      swap1\n      pop\n        /* \"#utility.yul\":13159:13168   */\n      dup2\n        /* \"#utility.yul\":13153:13157   */\n      dup2\n        /* \"#utility.yul\":13149:13169   */\n      sub\n        /* \"#utility.yul\":13145:13146   */\n      0x00\n        /* \"#utility.yul\":13134:13143   */\n      dup4\n        /* \"#utility.yul\":13130:13147   */\n      add\n        /* \"#utility.yul\":13123:13170   */\n      mstore\n        /* \"#utility.yul\":13187:13318   */\n      tag_260\n        /* \"#utility.yul\":13313:13317   */\n      dup2\n        /* \"#utility.yul\":13187:13318   */\n      tag_129\n      jump\t// in\n    tag_260:\n        /* \"#utility.yul\":13179:13318   */\n      swap1\n      pop\n        /* \"#utility.yul\":12906:13325   */\n      swap2\n      swap1\n      pop\n      jump\t// out\n        /* \"#utility.yul\":13331:13511   */\n    tag_84:\n        /* \"#utility.yul\":13379:13456   */\n      0x4e487b7100000000000000000000000000000000000000000000000000000000\n        /* \"#utility.yul\":13376:13377   */\n      0x00\n        /* \"#utility.yul\":13369:13457   */\n      mstore\n        /* \"#utility.yul\":13476:13480   */\n      0x32\n        /* \"#utility.yul\":13473:13474   */\n      0x04\n        /* \"#utility.yul\":13466:13481   */\n      mstore\n        /* \"#utility.yul\":13500:13504   */\n      0x24\n        /* \"#utility.yul\":13497:13498   */\n      0x00\n        /* \"#utility.yul\":13490:13505   */\n      revert\n        /* \"#utility.yul\":13517:13697   */\n    tag_130:\n        /* \"#utility.yul\":13565:13642   */\n      0x4e487b7100000000000000000000000000000000000000000000000000000000\n        /* \"#utility.yul\":13562:13563   */\n      0x00\n        /* \"#utility.yul\":13555:13643   */\n      mstore\n        /* \"#utility.yul\":13662:13666   */\n      0x41\n        /* \"#utility.yul\":13659:13660   */\n      0x04\n        /* \"#utility.yul\":13652:13667   */\n      mstore\n        /* \"#utility.yul\":13686:13690   */\n      0x24\n        /* \"#utility.yul\":13683:13684   */\n      0x00\n        /* \"#utility.yul\":13676:13691   */\n      revert\n        /* \"#utility.yul\":13703:13844   */\n    tag_131:\n        /* \"#utility.yul\":13752:13756   */\n      0x00\n        /* \"#utility.yul\":13775:13778   */\n      dup2\n        /* \"#utility.yul\":13767:13778   */\n      swap1\n      pop\n        /* \"#utility.yul\":13798:13801   */\n      dup2\n        /* \"#utility.yul\":13795:13796   */\n      0x00\n        /* \"#utility.yul\":13788:13802   */\n      mstore\n        /* \"#utility.yul\":13832:13836   */\n      0x20\n        /* \"#utility.yul\":13829:13830   */\n      0x00\n        /* \"#utility.yul\":13819:13837   */\n      keccak256\n        /* \"#utility.yul\":13811:13837   */\n      swap1\n      pop\n        /* \"#utility.yul\":13703:13844   */\n      swap2\n      swap1\n      pop\n      jump\t// out\n        /* \"#utility.yul\":13850:13943   */\n    tag_132:\n        /* \"#utility.yul\":13887:13893   */\n      0x00\n        /* \"#utility.yul\":13934:13936   */\n      0x20\n        /* \"#utility.yul\":13929:13931   */\n      0x1f\n        /* \"#utility.yul\":13922:13927   */\n      dup4\n        /* \"#utility.yul\":13918:13932   */\n      add\n        /* \"#utility.yul\":13914:13937   */\n      div\n        /* \"#utility.yul\":13904:13937   */\n      swap1\n      pop\n        /* \"#utility.yul\":13850:13943   */\n      swap2\n      swap1\n      pop\n      jump\t// out\n        /* \"#utility.yul\":13949:14056   */\n    tag_133:\n        /* \"#utility.yul\":13993:14001   */\n      0x00\n        /* \"#utility.yul\":14043:14048   */\n      dup3\n        /* \"#utility.yul\":14037:14041   */\n      dup3\n        /* \"#utility.yul\":14033:14049   */\n      shl\n        /* \"#utility.yul\":14012:14049   */\n      swap1\n      pop\n        /* \"#utility.yul\":13949:14056   */\n      swap3\n      swap2\n      pop\n      pop\n      jump\t// out\n        /* \"#utility.yul\":14062:14455   */\n    tag_134:\n        /* \"#utility.yul\":14131:14137   */\n      0x00\n        /* \"#utility.yul\":14181:14182   */\n      0x08\n        /* \"#utility.yul\":14169:14179   */\n      dup4\n        /* \"#utility.yul\":14165:14183   */\n      mul\n        /* \"#utility.yul\":14204:14301   */\n      tag_267\n        /* \"#utility.yul\":14234:14300   */\n      0xffffffffffffffffffffffffffffffffffffffffffffffffffffffffffffffff\n        /* \"#utility.yul\":14223:14232   */\n      dup3\n        /* \"#utility.yul\":14204:14301   */\n      tag_133\n      jump\t// in\n    tag_267:\n        /* \"#utility.yul\":14322:14361   */\n      tag_268\n        /* \"#utility.yul\":14352:14360   */\n      dup7\n        /* \"#utility.yul\":14341:14350   */\n      dup4\n        /* \"#utility.yul\":14322:14361   */\n      tag_133\n      jump\t// in\n    tag_268:\n        /* \"#utility.yul\":14310:14361   */\n      swap6\n      pop\n        /* \"#utility.yul\":14394:14398   */\n      dup1\n        /* \"#utility.yul\":14390:14399   */\n      not\n        /* \"#utility.yul\":14383:14388   */\n      dup5\n        /* \"#utility.yul\":14379:14400   */\n      and\n        /* \"#utility.yul\":14370:14400   */\n      swap4\n      pop\n        /* \"#utility.yul\":14443:14447   */\n      dup1\n        /* \"#utility.yul\":14433:14441   */\n      dup7\n        /* \"#utility.yul\":14429:14448   */\n      and\n        /* \"#utility.yul\":14422:14427   */\n      dup5\n        /* \"#utility.yul\":14419:14449   */\n      or\n        /* \"#utility.yul\":14409:14449   */\n      swap3\n      pop\n        /* \"#utility.yul\":14138:14455   */\n      pop\n      pop\n        /* \"#utility.yul\":14062:14455   */\n      swap4\n      swap3\n      pop\n      pop\n      pop\n      jump\t// out\n        /* \"#utility.yul\":14461:14521   */\n    tag_135:\n        /* \"#utility.yul\":14489:14492   */\n      0x00\n        /* \"#utility.yul\":14510:14515   */\n      dup2\n        /* \"#utility.yul\":14503:14515   */\n      swap1\n      pop\n        /* \"#utility.yul\":14461:14521   */\n      swap2\n      swap1\n      pop\n      jump\t// out\n        /* \"#utility.yul\":14527:14669   */\n    tag_136:\n        /* \"#utility.yul\":14577:14586   */\n      0x00\n        /* \"#utility.yul\":14610:14663   */\n      tag_271\n        /* \"#utility.yul\":14628:14662   */\n      tag_272\n        /* \"#utility.yul\":14637:14661   */\n      tag_273\n        /* \"#utility.yul\":14655:14660   */\n      dup5\n        /* \"#utility.yul\":14637:14661   */\n      tag_102\n      jump\t// in\n    tag_273:\n        /* \"#utility.yul\":14628:14662   */\n      tag_135\n      jump\t// in\n    tag_272:\n        /* \"#utility.yul\":14610:14663   */\n      tag_102\n      jump\t// in\n    tag_271:\n        /* \"#utility.yul\":14597:14663   */\n      swap1\n      pop\n        /* \"#utility.yul\":14527:14669   */\n      swap2\n      swap1\n      pop\n      jump\t// out\n        /* \"#utility.yul\":14675:14750   */\n    tag_137:\n        /* \"#utility.yul\":14718:14721   */\n      0x00\n        /* \"#utility.yul\":14739:14744   */\n      dup2\n        /* \"#utility.yul\":14732:14744   */\n      swap1\n      pop\n        /* \"#utility.yul\":14675:14750   */\n      swap2\n      swap1\n      pop\n      jump\t// out\n        /* \"#utility.yul\":14756:15025   */\n    tag_138:\n        /* \"#utility.yul\":14866:14905   */\n      tag_276\n        /* \"#utility.yul\":14897:14904   */\n      dup4\n        /* \"#utility.yul\":14866:14905   */\n      tag_136\n      jump\t// in\n    tag_276:\n        /* \"#utility.yul\":14927:15018   */\n      tag_277\n        /* \"#utility.yul\":14976:15017   */\n      tag_278\n        /* \"#utility.yul\":15000:15016   */\n      dup3\n        /* \"#utility.yul\":14976:15017   */\n      tag_137\n      jump\t// in\n    tag_278:\n        /* \"#utility.yul\":14968:14974   */\n      dup5\n        /* \"#utility.yul\":14961:14965   */\n      dup5\n        /* \"#utility.yul\":14955:14966   */\n      sload\n        /* \"#utility.yul\":14927:15018   */\n      tag_134\n      jump\t// in\n    tag_277:\n        /* \"#utility.yul\":14921:14925   */\n      dup3\n        /* \"#utility.yul\":14914:15019   */\n      sstore\n        /* \"#utility.yul\":14832:15025   */\n      pop\n        /* \"#utility.yul\":14756:15025   */\n      pop\n      pop\n      pop\n      jump\t// out\n        /* \"#utility.yul\":15031:15104   */\n    tag_139:\n        /* \"#utility.yul\":15076:15079   */\n      0x00\n        /* \"#utility.yul\":15031:15104   */\n      swap1\n      jump\t// out\n        /* \"#utility.yul\":15110:15299   */\n    tag_140:\n        /* \"#utility.yul\":15187:15219   */\n      tag_281\n      tag_139\n      jump\t// in\n    tag_281:\n        /* \"#utility.yul\":15228:15293   */\n      tag_282\n        /* \"#utility.yul\":15286:15292   */\n      dup2\n        /* \"#utility.yul\":15278:15284   */\n      dup5\n        /* \"#utility.yul\":15272:15276   */\n      dup5\n        /* \"#utility.yul\":15228:15293   */\n      tag_138\n      jump\t// in\n    tag_282:\n        /* \"#utility.yul\":15163:15299   */\n      pop\n        /* \"#utility.yul\":15110:15299   */\n      pop\n      pop\n      jump\t// out\n        /* \"#utility.yul\":15305:15491   */\n    tag_141:\n        /* \"#utility.yul\":15365:15485   */\n    tag_284:\n        /* \"#utility.yul\":15382:15385   */\n      dup2\n        /* \"#utility.yul\":15375:15380   */\n      dup2\n        /* \"#utility.yul\":15372:15386   */\n      lt\n        /* \"#utility.yul\":15365:15485   */\n      iszero\n      tag_286\n      jumpi\n        /* \"#utility.yul\":15436:15475   */\n      tag_287\n        /* \"#utility.yul\":15473:15474   */\n      0x00\n        /* \"#utility.yul\":15466:15471   */\n      dup3\n        /* \"#utility.yul\":15436:15475   */\n      tag_140\n      jump\t// in\n    tag_287:\n        /* \"#utility.yul\":15409:15410   */\n      0x01\n        /* \"#utility.yul\":15402:15407   */\n      dup2\n        /* \"#utility.yul\":15398:15411   */\n      add\n        /* \"#utility.yul\":15389:15411   */\n      swap1\n      pop\n        /* \"#utility.yul\":15365:15485   */\n      jump(tag_284)\n    tag_286:\n        /* \"#utility.yul\":15305:15491   */\n      pop\n      pop\n      jump\t// out\n        /* \"#utility.yul\":15497:16040   */\n    tag_142:\n        /* \"#utility.yul\":15598:15600   */\n      0x1f\n        /* \"#utility.yul\":15593:15596   */\n      dup3\n        /* \"#utility.yul\":15590:15601   */\n      gt\n        /* \"#utility.yul\":15587:16033   */\n      iszero\n      tag_289\n      jumpi\n        /* \"#utility.yul\":15632:15670   */\n      tag_290\n        /* \"#utility.yul\":15664:15669   */\n      dup2\n        /* \"#utility.yul\":15632:15670   */\n      tag_131\n      jump\t// in\n    tag_290:\n        /* \"#utility.yul\":15716:15745   */\n      tag_291\n        /* \"#utility.yul\":15734:15744   */\n      dup5\n        /* \"#utility.yul\":15716:15745   */\n      tag_132\n      jump\t// in\n    tag_291:\n        /* \"#utility.yul\":15706:15714   */\n      dup2\n        /* \"#utility.yul\":15702:15746   */\n      add\n        /* \"#utility.yul\":15899:15901   */\n      0x20\n        /* \"#utility.yul\":15887:15897   */\n      dup6\n        /* \"#utility.yul\":15884:15902   */\n      lt\n        /* \"#utility.yul\":15881:15930   */\n      iszero\n      tag_292\n      jumpi\n        /* \"#utility.yul\":15920:15928   */\n      dup2\n        /* \"#utility.yul\":15905:15928   */\n      swap1\n      pop\n        /* \"#utility.yul\":15881:15930   */\n    tag_292:\n        /* \"#utility.yul\":15943:16023   */\n      tag_293\n        /* \"#utility.yul\":15999:16021   */\n      tag_294\n        /* \"#utility.yul\":16017:16020   */\n      dup6\n        /* \"#utility.yul\":15999:16021   */\n      tag_132\n      jump\t// in\n    tag_294:\n        /* \"#utility.yul\":15989:15997   */\n      dup4\n        /* \"#utility.yul\":15985:16022   */\n      add\n        /* \"#utility.yul\":15972:15983   */\n      dup3\n        /* \"#utility.yul\":15943:16023   */\n      tag_141\n      jump\t// in\n    tag_293:\n        /* \"#utility.yul\":15602:16033   */\n      pop\n      pop\n        /* \"#utility.yul\":15587:16033   */\n    tag_289:\n        /* \"#utility.yul\":15497:16040   */\n      pop\n      pop\n      pop\n      jump\t// out\n        /* \"#utility.yul\":16046:16163   */\n    tag_143:\n        /* \"#utility.yul\":16100:16108   */\n      0x00\n        /* \"#utility.yul\":16150:16155   */\n      dup3\n        /* \"#utility.yul\":16144:16148   */\n      dup3\n        /* \"#utility.yul\":16140:16156   */\n      shr\n        /* \"#utility.yul\":16119:16156   */\n      swap1\n      pop\n        /* \"#utility.yul\":16046:16163   */\n      swap3\n      swap2\n      pop\n      pop\n      jump\t// out\n        /* \"#utility.yul\":16169:16338   */\n    tag_144:\n        /* \"#utility.yul\":16213:16219   */\n      0x00\n        /* \"#utility.yul\":16246:16297   */\n      tag_297\n        /* \"#utility.yul\":16294:16295   */\n      0x00\n        /* \"#utility.yul\":16290:16296   */\n      not\n        /* \"#utility.yul\":16282:16287   */\n      dup5\n        /* \"#utility.yul\":16279:16280   */\n      0x08\n        /* \"#utility.yul\":16275:16288   */\n      mul\n        /* \"#utility.yul\":16246:16297   */\n      tag_143\n      jump\t// in\n    tag_297:\n        /* \"#utility.yul\":16242:16298   */\n      not\n        /* \"#utility.yul\":16327:16331   */\n      dup1\n        /* \"#utility.yul\":16321:16325   */\n      dup4\n        /* \"#utility.yul\":16317:16332   */\n      and\n        /* \"#utility.yul\":16307:16332   */\n      swap2\n      pop\n        /* \"#utility.yul\":16220:16338   */\n      pop\n        /* \"#utility.yul\":16169:16338   */\n      swap3\n      swap2\n      pop\n      pop\n      jump\t// out\n        /* \"#utility.yul\":16343:16638   */\n    tag_145:\n        /* \"#utility.yul\":16419:16423   */\n      0x00\n        /* \"#utility.yul\":16565:16594   */\n      tag_299\n        /* \"#utility.yul\":16590:16593   */\n      dup4\n        /* \"#utility.yul\":16584:16588   */\n      dup4\n        /* \"#utility.yul\":16565:16594   */\n      tag_144\n      jump\t// in\n    tag_299:\n        /* \"#utility.yul\":16557:16594   */\n      swap2\n      pop\n        /* \"#utility.yul\":16627:16630   */\n      dup3\n        /* \"#utility.yul\":16624:16625   */\n      0x02\n        /* \"#utility.yul\":16620:16631   */\n      mul\n        /* \"#utility.yul\":16614:16618   */\n      dup3\n        /* \"#utility.yul\":16611:16632   */\n      or\n        /* \"#utility.yul\":16603:16632   */\n      swap1\n      pop\n        /* \"#utility.yul\":16343:16638   */\n      swap3\n      swap2\n      pop\n      pop\n      jump\t// out\n        /* \"#utility.yul\":16643:18038   */\n    tag_87:\n        /* \"#utility.yul\":16760:16797   */\n      tag_301\n        /* \"#utility.yul\":16793:16796   */\n      dup3\n        /* \"#utility.yul\":16760:16797   */\n      tag_106\n      jump\t// in\n    tag_301:\n        /* \"#utility.yul\":16862:16880   */\n      0xffffffffffffffff\n        /* \"#utility.yul\":16854:16860   */\n      dup2\n        /* \"#utility.yul\":16851:16881   */\n      gt\n        /* \"#utility.yul\":16848:16904   */\n      iszero\n      tag_302\n      jumpi\n        /* \"#utility.yul\":16884:16902   */\n      tag_303\n      tag_130\n      jump\t// in\n    tag_303:\n        /* \"#utility.yul\":16848:16904   */\n    tag_302:\n        /* \"#utility.yul\":16928:16966   */\n      tag_304\n        /* \"#utility.yul\":16960:16964   */\n      dup3\n        /* \"#utility.yul\":16954:16965   */\n      sload\n        /* \"#utility.yul\":16928:16966   */\n      tag_28\n      jump\t// in\n    tag_304:\n        /* \"#utility.yul\":17013:17080   */\n      tag_305\n        /* \"#utility.yul\":17073:17079   */\n      dup3\n        /* \"#utility.yul\":17065:17071   */\n      dup3\n        /* \"#utility.yul\":17059:17063   */\n      dup6\n        /* \"#utility.yul\":17013:17080   */\n      tag_142\n      jump\t// in\n    tag_305:\n        /* \"#utility.yul\":17107:17108   */\n      0x00\n        /* \"#utility.yul\":17131:17135   */\n      0x20\n        /* \"#utility.yul\":17118:17135   */\n      swap1\n      pop\n        /* \"#utility.yul\":17163:17165   */\n      0x1f\n        /* \"#utility.yul\":17155:17161   */\n      dup4\n        /* \"#utility.yul\":17152:17166   */\n      gt\n        /* \"#utility.yul\":17180:17181   */\n      0x01\n        /* \"#utility.yul\":17175:17793   */\n      dup2\n      eq\n      tag_307\n      jumpi\n        /* \"#utility.yul\":17837:17838   */\n      0x00\n        /* \"#utility.yul\":17854:17860   */\n      dup5\n        /* \"#utility.yul\":17851:17928   */\n      iszero\n      tag_308\n      jumpi\n        /* \"#utility.yul\":17903:17912   */\n      dup3\n        /* \"#utility.yul\":17898:17901   */\n      dup8\n        /* \"#utility.yul\":17894:17913   */\n      add\n        /* \"#utility.yul\":17888:17914   */\n      mload\n        /* \"#utility.yul\":17879:17914   */\n      swap1\n      pop\n        /* \"#utility.yul\":17851:17928   */\n    tag_308:\n        /* \"#utility.yul\":17954:18021   */\n      tag_309\n        /* \"#utility.yul\":18014:18020   */\n      dup6\n        /* \"#utility.yul\":18007:18012   */\n      dup3\n        /* \"#utility.yul\":17954:18021   */\n      tag_145\n      jump\t// in\n    tag_309:\n        /* \"#utility.yul\":17948:17952   */\n      dup7\n        /* \"#utility.yul\":17941:18022   */\n      sstore\n        /* \"#utility.yul\":17810:18032   */\n      pop\n        /* \"#utility.yul\":17145:18032   */\n      jump(tag_306)\n        /* \"#utility.yul\":17175:17793   */\n    tag_307:\n        /* \"#utility.yul\":17227:17231   */\n      0x1f\n        /* \"#utility.yul\":17223:17232   */\n      not\n        /* \"#utility.yul\":17215:17221   */\n      dup5\n        /* \"#utility.yul\":17211:17233   */\n      and\n        /* \"#utility.yul\":17261:17298   */\n      tag_310\n        /* \"#utility.yul\":17293:17297   */\n      dup7\n        /* \"#utility.yul\":17261:17298   */\n      tag_131\n      jump\t// in\n    tag_310:\n        /* \"#utility.yul\":17320:17321   */\n      0x00\n        /* \"#utility.yul\":17334:17542   */\n    tag_311:\n        /* \"#utility.yul\":17348:17355   */\n      dup3\n        /* \"#utility.yul\":17345:17346   */\n      dup2\n        /* \"#utility.yul\":17342:17356   */\n      lt\n        /* \"#utility.yul\":17334:17542   */\n      iszero\n      tag_313\n      jumpi\n        /* \"#utility.yul\":17427:17436   */\n      dup5\n        /* \"#utility.yul\":17422:17425   */\n      dup10\n        /* \"#utility.yul\":17418:17437   */\n      add\n        /* \"#utility.yul\":17412:17438   */\n      mload\n        /* \"#utility.yul\":17404:17410   */\n      dup3\n        /* \"#utility.yul\":17397:17439   */\n      sstore\n        /* \"#utility.yul\":17478:17479   */\n      0x01\n        /* \"#utility.yul\":17470:17476   */\n      dup3\n        /* \"#utility.yul\":17466:17480   */\n      add\n        /* \"#utility.yul\":17456:17480   */\n      swap2\n      pop\n        /* \"#utility.yul\":17525:17527   */\n      0x20\n        /* \"#utility.yul\":17514:17523   */\n      dup6\n        /* \"#utility.yul\":17510:17528   */\n      add\n        /* \"#utility.yul\":17497:17528   */\n      swap5\n      pop\n        /* \"#utility.yul\":17371:17375   */\n      0x20\n        /* \"#utility.yul\":17368:17369   */\n      dup2\n        /* \"#utility.yul\":17364:17376   */\n      add\n        /* \"#utility.yul\":17359:17376   */\n      swap1\n      pop\n        /* \"#utility.yul\":17334:17542   */\n      jump(tag_311)\n    tag_313:\n        /* \"#utility.yul\":17570:17576   */\n      dup7\n        /* \"#utility.yul\":17561:17568   */\n      dup4\n        /* \"#utility.yul\":17558:17577   */\n      lt\n        /* \"#utility.yul\":17555:17734   */\n      iszero\n      tag_314\n      jumpi\n        /* \"#utility.yul\":17628:17637   */\n      dup5\n        /* \"#utility.yul\":17623:17626   */\n      dup10\n        /* \"#utility.yul\":17619:17638   */\n      add\n        /* \"#utility.yul\":17613:17639   */\n      mload\n        /* \"#utility.yul\":17671:17719   */\n      tag_315\n        /* \"#utility.yul\":17713:17717   */\n      0x1f\n        /* \"#utility.yul\":17705:17711   */\n      dup10\n        /* \"#utility.yul\":17701:17718   */\n      and\n        /* \"#utility.yul\":17690:17699   */\n      dup3\n        /* \"#utility.yul\":17671:17719   */\n      tag_144\n      jump\t// in\n    tag_315:\n        /* \"#utility.yul\":17663:17669   */\n      dup4\n        /* \"#utility.yul\":17656:17720   */\n      sstore\n        /* \"#utility.yul\":17578:17734   */\n      pop\n        /* \"#utility.yul\":17555:17734   */\n    tag_314:\n        /* \"#utility.yul\":17780:17781   */\n      0x01\n        /* \"#utility.yul\":17776:17777   */\n      0x02\n        /* \"#utility.yul\":17768:17774   */\n      dup9\n        /* \"#utility.yul\":17764:17778   */\n      mul\n        /* \"#utility.yul\":17760:17782   */\n      add\n        /* \"#utility.yul\":17754:17758   */\n      dup9\n        /* \"#utility.yul\":17747:17783   */\n      sstore\n        /* \"#utility.yul\":17182:17793   */\n      pop\n      pop\n      pop\n        /* \"#utility.yul\":17145:18032   */\n    tag_306:\n      pop\n        /* \"#utility.yul\":16735:18038   */\n      pop\n      pop\n      pop\n        /* \"#utility.yul\":16643:18038   */\n      pop\n      pop\n      jump\t// out\n        /* \"#utility.yul\":18044:18224   */\n    tag_146:\n        /* \"#utility.yul\":18092:18169   */\n      0x4e487b7100000000000000000000000000000000000000000000000000000000\n        /* \"#utility.yul\":18089:18090   */\n      0x00\n        /* \"#utility.yul\":18082:18170   */\n      mstore\n        /* \"#utility.yul\":18189:18193   */\n      0x11\n        /* \"#utility.yul\":18186:18187   */\n      0x04\n        /* \"#utility.yul\":18179:18194   */\n      mstore\n        /* \"#utility.yul\":18213:18217   */\n      0x24\n        /* \"#utility.yul\":18210:18211   */\n      0x00\n        /* \"#utility.yul\":18203:18218   */\n      revert\n        /* \"#utility.yul\":18230:18463   */\n    tag_92:\n        /* \"#utility.yul\":18269:18272   */\n      0x00\n        /* \"#utility.yul\":18292:18316   */\n      tag_318\n        /* \"#utility.yul\":18310:18315   */\n      dup3\n        /* \"#utility.yul\":18292:18316   */\n      tag_102\n      jump\t// in\n    tag_318:\n        /* \"#utility.yul\":18283:18316   */\n      swap2\n      pop\n        /* \"#utility.yul\":18338:18404   */\n      0xffffffffffffffffffffffffffffffffffffffffffffffffffffffffffffffff\n        /* \"#utility.yul\":18331:18336   */\n      dup3\n        /* \"#utility.yul\":18328:18405   */\n      sub\n        /* \"#utility.yul\":18325:18428   */\n      tag_319\n      jumpi\n        /* \"#utility.yul\":18408:18426   */\n      tag_320\n      tag_146\n      jump\t// in\n    tag_320:\n        /* \"#utility.yul\":18325:18428   */\n    tag_319:\n        /* \"#utility.yul\":18455:18456   */\n      0x01\n        /* \"#utility.yul\":18448:18453   */\n      dup3\n        /* \"#utility.yul\":18444:18457   */\n      add\n        /* \"#utility.yul\":18437:18457   */\n      swap1\n      pop\n        /* \"#utility.yul\":18230:18463   */\n      swap2\n      swap1\n      pop\n      jump\t// out\n\n    auxdata: 0xa264697066735822122065484d51a4b8645c3dfa91b44428d55cf466c8aa81b4bdee04c23e968cf21b4264736f6c63430008120033\n}\n",
				"bytecode": {
					"linkReferences": {},
					"object": "608060405234801561001057600080fd5b5033601060006101000a81548173ffffffffffffffffffffffffffffffffffffffff021916908373ffffffffffffffffffffffffffffffffffffffff1602179055506112b0806100616000396000f3fe608060405234801561001057600080fd5b506004361061004c5760003560e01c8063481c6a75146100515780637aea95aa1461006f5780638af4f98d146100a357806398f831b6146100c1575b600080fd5b6100596100dd565b604051610066919061094f565b60405180910390f35b610089600480360381019061008491906109aa565b610103565b60405161009a959493929190610a76565b60405180910390f35b6100ab61035f565b6040516100b89190610c7f565b60405180910390f35b6100db60048036038101906100d69190610d06565b610603565b005b601060009054906101000a900473ffffffffffffffffffffffffffffffffffffffff1681565b6000816003811061011357600080fd5b6005020160009150905080600001549080600101805461013290610e1e565b80601f016020809104026020016040519081016040528092919081815260200182805461015e90610e1e565b80156101ab5780601f10610180576101008083540402835291602001916101ab565b820191906000526020600020905b81548152906001019060200180831161018e57829003601f168201915b5050505050908060020180546101c090610e1e565b80601f01602080910402602001604051908101604052809291908181526020018280546101ec90610e1e565b80156102395780601f1061020e57610100808354040283529160200191610239565b820191906000526020600020905b81548152906001019060200180831161021c57829003601f168201915b50505050509080600301805461024e90610e1e565b80601f016020809104026020016040519081016040528092919081815260200182805461027a90610e1e565b80156102c75780601f1061029c576101008083540402835291602001916102c7565b820191906000526020600020905b8154815290600101906020018083116102aa57829003601f168201915b5050505050908060040180546102dc90610e1e565b80601f016020809104026020016040519081016040528092919081815260200182805461030890610e1e565b80156103555780601f1061032a57610100808354040283529160200191610355565b820191906000526020600020905b81548152906001019060200180831161033857829003601f168201915b5050505050905085565b6103676108b2565b6000600380602002604051908101604052809291906000905b828210156105fa578382600502016040518060a0016040529081600082015481526020016001820180546103b390610e1e565b80601f01602080910402602001604051908101604052809291908181526020018280546103df90610e1e565b801561042c5780601f106104015761010080835404028352916020019161042c565b820191906000526020600020905b81548152906001019060200180831161040f57829003601f168201915b5050505050815260200160028201805461044590610e1e565b80601f016020809104026020016040519081016040528092919081815260200182805461047190610e1e565b80156104be5780601f10610493576101008083540402835291602001916104be565b820191906000526020600020905b8154815290600101906020018083116104a157829003601f168201915b505050505081526020016003820180546104d790610e1e565b80601f016020809104026020016040519081016040528092919081815260200182805461050390610e1e565b80156105505780601f1061052557610100808354040283529160200191610550565b820191906000526020600020905b81548152906001019060200180831161053357829003601f168201915b5050505050815260200160048201805461056990610e1e565b80601f016020809104026020016040519081016040528092919081815260200182805461059590610e1e565b80156105e25780601f106105b7576101008083540402835291602001916105e2565b820191906000526020600020905b8154815290600101906020018083116105c557829003601f168201915b50505050508152505081526020019060010190610380565b50505050905090565b3373ffffffffffffffffffffffffffffffffffffffff16601060009054906101000a900473ffffffffffffffffffffffffffffffffffffffff1673ffffffffffffffffffffffffffffffffffffffff1614610693576040517f08c379a000000000000000000000000000000000000000000000000000000000815260040161068a90610e9b565b60405180910390fd5b6003600f54106106d8576040517f08c379a00000000000000000000000000000000000000000000000000000000081526004016106cf90610f07565b60405180910390fd5b6040518060a00160405280600f54815260200189898080601f016020809104026020016040519081016040528093929190818152602001838380828437600081840152601f19601f82011690508083019250505050505050815260200187878080601f016020809104026020016040519081016040528093929190818152602001838380828437600081840152601f19601f82011690508083019250505050505050815260200185858080601f016020809104026020016040519081016040528093929190818152602001838380828437600081840152601f19601f82011690508083019250505050505050815260200183838080601f016020809104026020016040519081016040528093929190818152602001838380828437600081840152601f19601f820116905080830192505050505050508152506000600f546003811061082757610826610f27565b5b6005020160008201518160000155602082015181600101908161084a9190611131565b5060408201518160020190816108609190611131565b5060608201518160030190816108769190611131565b50608082015181600401908161088c9190611131565b50905050600f60008154809291906108a390611232565b91905055505050505050505050565b60405180606001604052806003905b6108c96108df565b8152602001906001900390816108c15790505090565b6040518060a0016040528060008152602001606081526020016060815260200160608152602001606081525090565b600073ffffffffffffffffffffffffffffffffffffffff82169050919050565b60006109398261090e565b9050919050565b6109498161092e565b82525050565b60006020820190506109646000830184610940565b92915050565b600080fd5b600080fd5b6000819050919050565b61098781610974565b811461099257600080fd5b50565b6000813590506109a48161097e565b92915050565b6000602082840312156109c0576109bf61096a565b5b60006109ce84828501610995565b91505092915050565b6109e081610974565b82525050565b600081519050919050565b600082825260208201905092915050565b60005b83811015610a20578082015181840152602081019050610a05565b60008484015250505050565b6000601f19601f8301169050919050565b6000610a48826109e6565b610a5281856109f1565b9350610a62818560208601610a02565b610a6b81610a2c565b840191505092915050565b600060a082019050610a8b60008301886109d7565b8181036020830152610a9d8187610a3d565b90508181036040830152610ab18186610a3d565b90508181036060830152610ac58185610a3d565b90508181036080830152610ad98184610a3d565b90509695505050505050565b600060039050919050565b600081905092915050565b6000819050919050565b610b0e81610974565b82525050565b600082825260208201905092915050565b6000610b30826109e6565b610b3a8185610b14565b9350610b4a818560208601610a02565b610b5381610a2c565b840191505092915050565b600060a083016000830151610b766000860182610b05565b5060208301518482036020860152610b8e8282610b25565b91505060408301518482036040860152610ba88282610b25565b91505060608301518482036060860152610bc28282610b25565b91505060808301518482036080860152610bdc8282610b25565b9150508091505092915050565b6000610bf58383610b5e565b905092915050565b6000602082019050919050565b6000610c1582610ae5565b610c1f8185610af0565b935083602082028501610c3185610afb565b8060005b85811015610c6d5784840389528151610c4e8582610be9565b9450610c5983610bfd565b925060208a01995050600181019050610c35565b50829750879550505050505092915050565b60006020820190508181036000830152610c998184610c0a565b905092915050565b600080fd5b600080fd5b600080fd5b60008083601f840112610cc657610cc5610ca1565b5b8235905067ffffffffffffffff811115610ce357610ce2610ca6565b5b602083019150836001820283011115610cff57610cfe610cab565b5b9250929050565b6000806000806000806000806080898b031215610d2657610d2561096a565b5b600089013567ffffffffffffffff811115610d4457610d4361096f565b5b610d508b828c01610cb0565b9850985050602089013567ffffffffffffffff811115610d7357610d7261096f565b5b610d7f8b828c01610cb0565b9650965050604089013567ffffffffffffffff811115610da257610da161096f565b5b610dae8b828c01610cb0565b9450945050606089013567ffffffffffffffff811115610dd157610dd061096f565b5b610ddd8b828c01610cb0565b92509250509295985092959890939650565b7f4e487b7100000000000000000000000000000000000000000000000000000000600052602260045260246000fd5b60006002820490506001821680610e3657607f821691505b602082108103610e4957610e48610def565b5b50919050565b7f596f7520617265206e6f7420746865206d616e61676572000000000000000000600082015250565b6000610e856017836109f1565b9150610e9082610e4f565b602082019050919050565b60006020820190508181036000830152610eb481610e78565b9050919050565b7f4f6e6c79203320656475636174696f6e2064657461696c7320616c6c6f776564600082015250565b6000610ef16020836109f1565b9150610efc82610ebb565b602082019050919050565b60006020820190508181036000830152610f2081610ee4565b9050919050565b7f4e487b7100000000000000000000000000000000000000000000000000000000600052603260045260246000fd5b7f4e487b7100000000000000000000000000000000000000000000000000000000600052604160045260246000fd5b60008190508160005260206000209050919050565b60006020601f8301049050919050565b600082821b905092915050565b600060088302610fe77fffffffffffffffffffffffffffffffffffffffffffffffffffffffffffffffff82610faa565b610ff18683610faa565b95508019841693508086168417925050509392505050565b6000819050919050565b600061102e61102961102484610974565b611009565b610974565b9050919050565b6000819050919050565b61104883611013565b61105c61105482611035565b848454610fb7565b825550505050565b600090565b611071611064565b61107c81848461103f565b505050565b5b818110156110a057611095600082611069565b600181019050611082565b5050565b601f8211156110e5576110b681610f85565b6110bf84610f9a565b810160208510156110ce578190505b6110e26110da85610f9a565b830182611081565b50505b505050565b600082821c905092915050565b6000611108600019846008026110ea565b1980831691505092915050565b600061112183836110f7565b9150826002028217905092915050565b61113a826109e6565b67ffffffffffffffff81111561115357611152610f56565b5b61115d8254610e1e565b6111688282856110a4565b600060209050601f83116001811461119b5760008415611189578287015190505b6111938582611115565b8655506111fb565b601f1984166111a986610f85565b60005b828110156111d1578489015182556001820191506020850194506020810190506111ac565b868310156111ee57848901516111ea601f8916826110f7565b8355505b6001600288020188555050505b505050505050565b7f4e487b7100000000000000000000000000000000000000000000000000000000600052601160045260246000fd5b600061123d82610974565b91507fffffffffffffffffffffffffffffffffffffffffffffffffffffffffffffffff820361126f5761126e611203565b5b60018201905091905056fea264697066735822122065484d51a4b8645c3dfa91b44428d55cf466c8aa81b4bdee04c23e968cf21b4264736f6c63430008120033",
					"opcodes": "PUSH1 0x80 PUSH1 0x40 MSTORE CALLVALUE DUP1 ISZERO PUSH2 0x10 JUMPI PUSH1 0x0 DUP1 REVERT JUMPDEST POP CALLER PUSH1 0x10 PUSH1 0x0 PUSH2 0x100 EXP DUP2 SLOAD DUP2 PUSH20 0xFFFFFFFFFFFFFFFFFFFFFFFFFFFFFFFFFFFFFFFF MUL NOT AND SWAP1 DUP4 PUSH20 0xFFFFFFFFFFFFFFFFFFFFFFFFFFFFFFFFFFFFFFFF AND MUL OR SWAP1 SSTORE POP PUSH2 0x12B0 DUP1 PUSH2 0x61 PUSH1 0x0 CODECOPY PUSH1 0x0 RETURN INVALID PUSH1 0x80 PUSH1 0x40 MSTORE CALLVALUE DUP1 ISZERO PUSH2 0x10 JUMPI PUSH1 0x0 DUP1 REVERT JUMPDEST POP PUSH1 0x4 CALLDATASIZE LT PUSH2 0x4C JUMPI PUSH1 0x0 CALLDATALOAD PUSH1 0xE0 SHR DUP1 PUSH4 0x481C6A75 EQ PUSH2 0x51 JUMPI DUP1 PUSH4 0x7AEA95AA EQ PUSH2 0x6F JUMPI DUP1 PUSH4 0x8AF4F98D EQ PUSH2 0xA3 JUMPI DUP1 PUSH4 0x98F831B6 EQ PUSH2 0xC1 JUMPI JUMPDEST PUSH1 0x0 DUP1 REVERT JUMPDEST PUSH2 0x59 PUSH2 0xDD JUMP JUMPDEST PUSH1 0x40 MLOAD PUSH2 0x66 SWAP2 SWAP1 PUSH2 0x94F JUMP JUMPDEST PUSH1 0x40 MLOAD DUP1 SWAP2 SUB SWAP1 RETURN JUMPDEST PUSH2 0x89 PUSH1 0x4 DUP1 CALLDATASIZE SUB DUP2 ADD SWAP1 PUSH2 0x84 SWAP2 SWAP1 PUSH2 0x9AA JUMP JUMPDEST PUSH2 0x103 JUMP JUMPDEST PUSH1 0x40 MLOAD PUSH2 0x9A SWAP6 SWAP5 SWAP4 SWAP3 SWAP2 SWAP1 PUSH2 0xA76 JUMP JUMPDEST PUSH1 0x40 MLOAD DUP1 SWAP2 SUB SWAP1 RETURN JUMPDEST PUSH2 0xAB PUSH2 0x35F JUMP JUMPDEST PUSH1 0x40 MLOAD PUSH2 0xB8 SWAP2 SWAP1 PUSH2 0xC7F JUMP JUMPDEST PUSH1 0x40 MLOAD DUP1 SWAP2 SUB SWAP1 RETURN JUMPDEST PUSH2 0xDB PUSH1 0x4 DUP1 CALLDATASIZE SUB DUP2 ADD SWAP1 PUSH2 0xD6 SWAP2 SWAP1 PUSH2 0xD06 JUMP JUMPDEST PUSH2 0x603 JUMP JUMPDEST STOP JUMPDEST PUSH1 0x10 PUSH1 0x0 SWAP1 SLOAD SWAP1 PUSH2 0x100 EXP SWAP1 DIV PUSH20 0xFFFFFFFFFFFFFFFFFFFFFFFFFFFFFFFFFFFFFFFF AND DUP2 JUMP JUMPDEST PUSH1 0x0 DUP2 PUSH1 0x3 DUP2 LT PUSH2 0x113 JUMPI PUSH1 0x0 DUP1 REVERT JUMPDEST PUSH1 0x5 MUL ADD PUSH1 0x0 SWAP2 POP SWAP1 POP DUP1 PUSH1 0x0 ADD SLOAD SWAP1 DUP1 PUSH1 0x1 ADD DUP1 SLOAD PUSH2 0x132 SWAP1 PUSH2 0xE1E JUMP JUMPDEST DUP1 PUSH1 0x1F ADD PUSH1 0x20 DUP1 SWAP2 DIV MUL PUSH1 0x20 ADD PUSH1 0x40 MLOAD SWAP1 DUP2 ADD PUSH1 0x40 MSTORE DUP1 SWAP3 SWAP2 SWAP1 DUP2 DUP2 MSTORE PUSH1 0x20 ADD DUP3 DUP1 SLOAD PUSH2 0x15E SWAP1 PUSH2 0xE1E JUMP JUMPDEST DUP1 ISZERO PUSH2 0x1AB JUMPI DUP1 PUSH1 0x1F LT PUSH2 0x180 JUMPI PUSH2 0x100 DUP1 DUP4 SLOAD DIV MUL DUP4 MSTORE SWAP2 PUSH1 0x20 ADD SWAP2 PUSH2 0x1AB JUMP JUMPDEST DUP3 ADD SWAP2 SWAP1 PUSH1 0x0 MSTORE PUSH1 0x20 PUSH1 0x0 KECCAK256 SWAP1 JUMPDEST DUP2 SLOAD DUP2 MSTORE SWAP1 PUSH1 0x1 ADD SWAP1 PUSH1 0x20 ADD DUP1 DUP4 GT PUSH2 0x18E JUMPI DUP3 SWAP1 SUB PUSH1 0x1F AND DUP3 ADD SWAP2 JUMPDEST POP POP POP POP POP SWAP1 DUP1 PUSH1 0x2 ADD DUP1 SLOAD PUSH2 0x1C0 SWAP1 PUSH2 0xE1E JUMP JUMPDEST DUP1 PUSH1 0x1F ADD PUSH1 0x20 DUP1 SWAP2 DIV MUL PUSH1 0x20 ADD PUSH1 0x40 MLOAD SWAP1 DUP2 ADD PUSH1 0x40 MSTORE DUP1 SWAP3 SWAP2 SWAP1 DUP2 DUP2 MSTORE PUSH1 0x20 ADD DUP3 DUP1 SLOAD PUSH2 0x1EC SWAP1 PUSH2 0xE1E JUMP JUMPDEST DUP1 ISZERO PUSH2 0x239 JUMPI DUP1 PUSH1 0x1F LT PUSH2 0x20E JUMPI PUSH2 0x100 DUP1 DUP4 SLOAD DIV MUL DUP4 MSTORE SWAP2 PUSH1 0x20 ADD SWAP2 PUSH2 0x239 JUMP JUMPDEST DUP3 ADD SWAP2 SWAP1 PUSH1 0x0 MSTORE PUSH1 0x20 PUSH1 0x0 KECCAK256 SWAP1 JUMPDEST DUP2 SLOAD DUP2 MSTORE SWAP1 PUSH1 0x1 ADD SWAP1 PUSH1 0x20 ADD DUP1 DUP4 GT PUSH2 0x21C JUMPI DUP3 SWAP1 SUB PUSH1 0x1F AND DUP3 ADD SWAP2 JUMPDEST POP POP POP POP POP SWAP1 DUP1 PUSH1 0x3 ADD DUP1 SLOAD PUSH2 0x24E SWAP1 PUSH2 0xE1E JUMP JUMPDEST DUP1 PUSH1 0x1F ADD PUSH1 0x20 DUP1 SWAP2 DIV MUL PUSH1 0x20 ADD PUSH1 0x40 MLOAD SWAP1 DUP2 ADD PUSH1 0x40 MSTORE DUP1 SWAP3 SWAP2 SWAP1 DUP2 DUP2 MSTORE PUSH1 0x20 ADD DUP3 DUP1 SLOAD PUSH2 0x27A SWAP1 PUSH2 0xE1E JUMP JUMPDEST DUP1 ISZERO PUSH2 0x2C7 JUMPI DUP1 PUSH1 0x1F LT PUSH2 0x29C JUMPI PUSH2 0x100 DUP1 DUP4 SLOAD DIV MUL DUP4 MSTORE SWAP2 PUSH1 0x20 ADD SWAP2 PUSH2 0x2C7 JUMP JUMPDEST DUP3 ADD SWAP2 SWAP1 PUSH1 0x0 MSTORE PUSH1 0x20 PUSH1 0x0 KECCAK256 SWAP1 JUMPDEST DUP2 SLOAD DUP2 MSTORE SWAP1 PUSH1 0x1 ADD SWAP1 PUSH1 0x20 ADD DUP1 DUP4 GT PUSH2 0x2AA JUMPI DUP3 SWAP1 SUB PUSH1 0x1F AND DUP3 ADD SWAP2 JUMPDEST POP POP POP POP POP SWAP1 DUP1 PUSH1 0x4 ADD DUP1 SLOAD PUSH2 0x2DC SWAP1 PUSH2 0xE1E JUMP JUMPDEST DUP1 PUSH1 0x1F ADD PUSH1 0x20 DUP1 SWAP2 DIV MUL PUSH1 0x20 ADD PUSH1 0x40 MLOAD SWAP1 DUP2 ADD PUSH1 0x40 MSTORE DUP1 SWAP3 SWAP2 SWAP1 DUP2 DUP2 MSTORE PUSH1 0x20 ADD DUP3 DUP1 SLOAD PUSH2 0x308 SWAP1 PUSH2 0xE1E JUMP JUMPDEST DUP1 ISZERO PUSH2 0x355 JUMPI DUP1 PUSH1 0x1F LT PUSH2 0x32A JUMPI PUSH2 0x100 DUP1 DUP4 SLOAD DIV MUL DUP4 MSTORE SWAP2 PUSH1 0x20 ADD SWAP2 PUSH2 0x355 JUMP JUMPDEST DUP3 ADD SWAP2 SWAP1 PUSH1 0x0 MSTORE PUSH1 0x20 PUSH1 0x0 KECCAK256 SWAP1 JUMPDEST DUP2 SLOAD DUP2 MSTORE SWAP1 PUSH1 0x1 ADD SWAP1 PUSH1 0x20 ADD DUP1 DUP4 GT PUSH2 0x338 JUMPI DUP3 SWAP1 SUB PUSH1 0x1F AND DUP3 ADD SWAP2 JUMPDEST POP POP POP POP POP SWAP1 POP DUP6 JUMP JUMPDEST PUSH2 0x367 PUSH2 0x8B2 JUMP JUMPDEST PUSH1 0x0 PUSH1 0x3 DUP1 PUSH1 0x20 MUL PUSH1 0x40 MLOAD SWAP1 DUP2 ADD PUSH1 0x40 MSTORE DUP1 SWAP3 SWAP2 SWAP1 PUSH1 0x0 SWAP1 JUMPDEST DUP3 DUP3 LT ISZERO PUSH2 0x5FA JUMPI DUP4 DUP3 PUSH1 0x5 MUL ADD PUSH1 0x40 MLOAD DUP1 PUSH1 0xA0 ADD PUSH1 0x40 MSTORE SWAP1 DUP2 PUSH1 0x0 DUP3 ADD SLOAD DUP2 MSTORE PUSH1 0x20 ADD PUSH1 0x1 DUP3 ADD DUP1 SLOAD PUSH2 0x3B3 SWAP1 PUSH2 0xE1E JUMP JUMPDEST DUP1 PUSH1 0x1F ADD PUSH1 0x20 DUP1 SWAP2 DIV MUL PUSH1 0x20 ADD PUSH1 0x40 MLOAD SWAP1 DUP2 ADD PUSH1 0x40 MSTORE DUP1 SWAP3 SWAP2 SWAP1 DUP2 DUP2 MSTORE PUSH1 0x20 ADD DUP3 DUP1 SLOAD PUSH2 0x3DF SWAP1 PUSH2 0xE1E JUMP JUMPDEST DUP1 ISZERO PUSH2 0x42C JUMPI DUP1 PUSH1 0x1F LT PUSH2 0x401 JUMPI PUSH2 0x100 DUP1 DUP4 SLOAD DIV MUL DUP4 MSTORE SWAP2 PUSH1 0x20 ADD SWAP2 PUSH2 0x42C JUMP JUMPDEST DUP3 ADD SWAP2 SWAP1 PUSH1 0x0 MSTORE PUSH1 0x20 PUSH1 0x0 KECCAK256 SWAP1 JUMPDEST DUP2 SLOAD DUP2 MSTORE SWAP1 PUSH1 0x1 ADD SWAP1 PUSH1 0x20 ADD DUP1 DUP4 GT PUSH2 0x40F JUMPI DUP3 SWAP1 SUB PUSH1 0x1F AND DUP3 ADD SWAP2 JUMPDEST POP POP POP POP POP DUP2 MSTORE PUSH1 0x20 ADD PUSH1 0x2 DUP3 ADD DUP1 SLOAD PUSH2 0x445 SWAP1 PUSH2 0xE1E JUMP JUMPDEST DUP1 PUSH1 0x1F ADD PUSH1 0x20 DUP1 SWAP2 DIV MUL PUSH1 0x20 ADD PUSH1 0x40 MLOAD SWAP1 DUP2 ADD PUSH1 0x40 MSTORE DUP1 SWAP3 SWAP2 SWAP1 DUP2 DUP2 MSTORE PUSH1 0x20 ADD DUP3 DUP1 SLOAD PUSH2 0x471 SWAP1 PUSH2 0xE1E JUMP JUMPDEST DUP1 ISZERO PUSH2 0x4BE JUMPI DUP1 PUSH1 0x1F LT PUSH2 0x493 JUMPI PUSH2 0x100 DUP1 DUP4 SLOAD DIV MUL DUP4 MSTORE SWAP2 PUSH1 0x20 ADD SWAP2 PUSH2 0x4BE JUMP JUMPDEST DUP3 ADD SWAP2 SWAP1 PUSH1 0x0 MSTORE PUSH1 0x20 PUSH1 0x0 KECCAK256 SWAP1 JUMPDEST DUP2 SLOAD DUP2 MSTORE SWAP1 PUSH1 0x1 ADD SWAP1 PUSH1 0x20 ADD DUP1 DUP4 GT PUSH2 0x4A1 JUMPI DUP3 SWAP1 SUB PUSH1 0x1F AND DUP3 ADD SWAP2 JUMPDEST POP POP POP POP POP DUP2 MSTORE PUSH1 0x20 ADD PUSH1 0x3 DUP3 ADD DUP1 SLOAD PUSH2 0x4D7 SWAP1 PUSH2 0xE1E JUMP JUMPDEST DUP1 PUSH1 0x1F ADD PUSH1 0x20 DUP1 SWAP2 DIV MUL PUSH1 0x20 ADD PUSH1 0x40 MLOAD SWAP1 DUP2 ADD PUSH1 0x40 MSTORE DUP1 SWAP3 SWAP2 SWAP1 DUP2 DUP2 MSTORE PUSH1 0x20 ADD DUP3 DUP1 SLOAD PUSH2 0x503 SWAP1 PUSH2 0xE1E JUMP JUMPDEST DUP1 ISZERO PUSH2 0x550 JUMPI DUP1 PUSH1 0x1F LT PUSH2 0x525 JUMPI PUSH2 0x100 DUP1 DUP4 SLOAD DIV MUL DUP4 MSTORE SWAP2 PUSH1 0x20 ADD SWAP2 PUSH2 0x550 JUMP JUMPDEST DUP3 ADD SWAP2 SWAP1 PUSH1 0x0 MSTORE PUSH1 0x20 PUSH1 0x0 KECCAK256 SWAP1 JUMPDEST DUP2 SLOAD DUP2 MSTORE SWAP1 PUSH1 0x1 ADD SWAP1 PUSH1 0x20 ADD DUP1 DUP4 GT PUSH2 0x533 JUMPI DUP3 SWAP1 SUB PUSH1 0x1F AND DUP3 ADD SWAP2 JUMPDEST POP POP POP POP POP DUP2 MSTORE PUSH1 0x20 ADD PUSH1 0x4 DUP3 ADD DUP1 SLOAD PUSH2 0x569 SWAP1 PUSH2 0xE1E JUMP JUMPDEST DUP1 PUSH1 0x1F ADD PUSH1 0x20 DUP1 SWAP2 DIV MUL PUSH1 0x20 ADD PUSH1 0x40 MLOAD SWAP1 DUP2 ADD PUSH1 0x40 MSTORE DUP1 SWAP3 SWAP2 SWAP1 DUP2 DUP2 MSTORE PUSH1 0x20 ADD DUP3 DUP1 SLOAD PUSH2 0x595 SWAP1 PUSH2 0xE1E JUMP JUMPDEST DUP1 ISZERO PUSH2 0x5E2 JUMPI DUP1 PUSH1 0x1F LT PUSH2 0x5B7 JUMPI PUSH2 0x100 DUP1 DUP4 SLOAD DIV MUL DUP4 MSTORE SWAP2 PUSH1 0x20 ADD SWAP2 PUSH2 0x5E2 JUMP JUMPDEST DUP3 ADD SWAP2 SWAP1 PUSH1 0x0 MSTORE PUSH1 0x20 PUSH1 0x0 KECCAK256 SWAP1 JUMPDEST DUP2 SLOAD DUP2 MSTORE SWAP1 PUSH1 0x1 ADD SWAP1 PUSH1 0x20 ADD DUP1 DUP4 GT PUSH2 0x5C5 JUMPI DUP3 SWAP1 SUB PUSH1 0x1F AND DUP3 ADD SWAP2 JUMPDEST POP POP POP POP POP DUP2 MSTORE POP POP DUP2 MSTORE PUSH1 0x20 ADD SWAP1 PUSH1 0x1 ADD SWAP1 PUSH2 0x380 JUMP JUMPDEST POP POP POP POP SWAP1 POP SWAP1 JUMP JUMPDEST CALLER PUSH20 0xFFFFFFFFFFFFFFFFFFFFFFFFFFFFFFFFFFFFFFFF AND PUSH1 0x10 PUSH1 0x0 SWAP1 SLOAD SWAP1 PUSH2 0x100 EXP SWAP1 DIV PUSH20 0xFFFFFFFFFFFFFFFFFFFFFFFFFFFFFFFFFFFFFFFF AND PUSH20 0xFFFFFFFFFFFFFFFFFFFFFFFFFFFFFFFFFFFFFFFF AND EQ PUSH2 0x693 JUMPI PUSH1 0x40 MLOAD PUSH32 0x8C379A000000000000000000000000000000000000000000000000000000000 DUP2 MSTORE PUSH1 0x4 ADD PUSH2 0x68A SWAP1 PUSH2 0xE9B JUMP JUMPDEST PUSH1 0x40 MLOAD DUP1 SWAP2 SUB SWAP1 REVERT JUMPDEST PUSH1 0x3 PUSH1 0xF SLOAD LT PUSH2 0x6D8 JUMPI PUSH1 0x40 MLOAD PUSH32 0x8C379A000000000000000000000000000000000000000000000000000000000 DUP2 MSTORE PUSH1 0x4 ADD PUSH2 0x6CF SWAP1 PUSH2 0xF07 JUMP JUMPDEST PUSH1 0x40 MLOAD DUP1 SWAP2 SUB SWAP1 REVERT JUMPDEST PUSH1 0x40 MLOAD DUP1 PUSH1 0xA0 ADD PUSH1 0x40 MSTORE DUP1 PUSH1 0xF SLOAD DUP2 MSTORE PUSH1 0x20 ADD DUP10 DUP10 DUP1 DUP1 PUSH1 0x1F ADD PUSH1 0x20 DUP1 SWAP2 DIV MUL PUSH1 0x20 ADD PUSH1 0x40 MLOAD SWAP1 DUP2 ADD PUSH1 0x40 MSTORE DUP1 SWAP4 SWAP3 SWAP2 SWAP1 DUP2 DUP2 MSTORE PUSH1 0x20 ADD DUP4 DUP4 DUP1 DUP3 DUP5 CALLDATACOPY PUSH1 0x0 DUP2 DUP5 ADD MSTORE PUSH1 0x1F NOT PUSH1 0x1F DUP3 ADD AND SWAP1 POP DUP1 DUP4 ADD SWAP3 POP POP POP POP POP POP POP DUP2 MSTORE PUSH1 0x20 ADD DUP8 DUP8 DUP1 DUP1 PUSH1 0x1F ADD PUSH1 0x20 DUP1 SWAP2 DIV MUL PUSH1 0x20 ADD PUSH1 0x40 MLOAD SWAP1 DUP2 ADD PUSH1 0x40 MSTORE DUP1 SWAP4 SWAP3 SWAP2 SWAP1 DUP2 DUP2 MSTORE PUSH1 0x20 ADD DUP4 DUP4 DUP1 DUP3 DUP5 CALLDATACOPY PUSH1 0x0 DUP2 DUP5 ADD MSTORE PUSH1 0x1F NOT PUSH1 0x1F DUP3 ADD AND SWAP1 POP DUP1 DUP4 ADD SWAP3 POP POP POP POP POP POP POP DUP2 MSTORE PUSH1 0x20 ADD DUP6 DUP6 DUP1 DUP1 PUSH1 0x1F ADD PUSH1 0x20 DUP1 SWAP2 DIV MUL PUSH1 0x20 ADD PUSH1 0x40 MLOAD SWAP1 DUP2 ADD PUSH1 0x40 MSTORE DUP1 SWAP4 SWAP3 SWAP2 SWAP1 DUP2 DUP2 MSTORE PUSH1 0x20 ADD DUP4 DUP4 DUP1 DUP3 DUP5 CALLDATACOPY PUSH1 0x0 DUP2 DUP5 ADD MSTORE PUSH1 0x1F NOT PUSH1 0x1F DUP3 ADD AND SWAP1 POP DUP1 DUP4 ADD SWAP3 POP POP POP POP POP POP POP DUP2 MSTORE PUSH1 0x20 ADD DUP4 DUP4 DUP1 DUP1 PUSH1 0x1F ADD PUSH1 0x20 DUP1 SWAP2 DIV MUL PUSH1 0x20 ADD PUSH1 0x40 MLOAD SWAP1 DUP2 ADD PUSH1 0x40 MSTORE DUP1 SWAP4 SWAP3 SWAP2 SWAP1 DUP2 DUP2 MSTORE PUSH1 0x20 ADD DUP4 DUP4 DUP1 DUP3 DUP5 CALLDATACOPY PUSH1 0x0 DUP2 DUP5 ADD MSTORE PUSH1 0x1F NOT PUSH1 0x1F DUP3 ADD AND SWAP1 POP DUP1 DUP4 ADD SWAP3 POP POP POP POP POP POP POP DUP2 MSTORE POP PUSH1 0x0 PUSH1 0xF SLOAD PUSH1 0x3 DUP2 LT PUSH2 0x827 JUMPI PUSH2 0x826 PUSH2 0xF27 JUMP JUMPDEST JUMPDEST PUSH1 0x5 MUL ADD PUSH1 0x0 DUP3 ADD MLOAD DUP2 PUSH1 0x0 ADD SSTORE PUSH1 0x20 DUP3 ADD MLOAD DUP2 PUSH1 0x1 ADD SWAP1 DUP2 PUSH2 0x84A SWAP2 SWAP1 PUSH2 0x1131 JUMP JUMPDEST POP PUSH1 0x40 DUP3 ADD MLOAD DUP2 PUSH1 0x2 ADD SWAP1 DUP2 PUSH2 0x860 SWAP2 SWAP1 PUSH2 0x1131 JUMP JUMPDEST POP PUSH1 0x60 DUP3 ADD MLOAD DUP2 PUSH1 0x3 ADD SWAP1 DUP2 PUSH2 0x876 SWAP2 SWAP1 PUSH2 0x1131 JUMP JUMPDEST POP PUSH1 0x80 DUP3 ADD MLOAD DUP2 PUSH1 0x4 ADD SWAP1 DUP2 PUSH2 0x88C SWAP2 SWAP1 PUSH2 0x1131 JUMP JUMPDEST POP SWAP1 POP POP PUSH1 0xF PUSH1 0x0 DUP2 SLOAD DUP1 SWAP3 SWAP2 SWAP1 PUSH2 0x8A3 SWAP1 PUSH2 0x1232 JUMP JUMPDEST SWAP2 SWAP1 POP SSTORE POP POP POP POP POP POP POP POP POP JUMP JUMPDEST PUSH1 0x40 MLOAD DUP1 PUSH1 0x60 ADD PUSH1 0x40 MSTORE DUP1 PUSH1 0x3 SWAP1 JUMPDEST PUSH2 0x8C9 PUSH2 0x8DF JUMP JUMPDEST DUP2 MSTORE PUSH1 0x20 ADD SWAP1 PUSH1 0x1 SWAP1 SUB SWAP1 DUP2 PUSH2 0x8C1 JUMPI SWAP1 POP POP SWAP1 JUMP JUMPDEST PUSH1 0x40 MLOAD DUP1 PUSH1 0xA0 ADD PUSH1 0x40 MSTORE DUP1 PUSH1 0x0 DUP2 MSTORE PUSH1 0x20 ADD PUSH1 0x60 DUP2 MSTORE PUSH1 0x20 ADD PUSH1 0x60 DUP2 MSTORE PUSH1 0x20 ADD PUSH1 0x60 DUP2 MSTORE PUSH1 0x20 ADD PUSH1 0x60 DUP2 MSTORE POP SWAP1 JUMP JUMPDEST PUSH1 0x0 PUSH20 0xFFFFFFFFFFFFFFFFFFFFFFFFFFFFFFFFFFFFFFFF DUP3 AND SWAP1 POP SWAP2 SWAP1 POP JUMP JUMPDEST PUSH1 0x0 PUSH2 0x939 DUP3 PUSH2 0x90E JUMP JUMPDEST SWAP1 POP SWAP2 SWAP1 POP JUMP JUMPDEST PUSH2 0x949 DUP2 PUSH2 0x92E JUMP JUMPDEST DUP3 MSTORE POP POP JUMP JUMPDEST PUSH1 0x0 PUSH1 0x20 DUP3 ADD SWAP1 POP PUSH2 0x964 PUSH1 0x0 DUP4 ADD DUP5 PUSH2 0x940 JUMP JUMPDEST SWAP3 SWAP2 POP POP JUMP JUMPDEST PUSH1 0x0 DUP1 REVERT JUMPDEST PUSH1 0x0 DUP1 REVERT JUMPDEST PUSH1 0x0 DUP2 SWAP1 POP SWAP2 SWAP1 POP JUMP JUMPDEST PUSH2 0x987 DUP2 PUSH2 0x974 JUMP JUMPDEST DUP2 EQ PUSH2 0x992 JUMPI PUSH1 0x0 DUP1 REVERT JUMPDEST POP JUMP JUMPDEST PUSH1 0x0 DUP2 CALLDATALOAD SWAP1 POP PUSH2 0x9A4 DUP2 PUSH2 0x97E JUMP JUMPDEST SWAP3 SWAP2 POP POP JUMP JUMPDEST PUSH1 0x0 PUSH1 0x20 DUP3 DUP5 SUB SLT ISZERO PUSH2 0x9C0 JUMPI PUSH2 0x9BF PUSH2 0x96A JUMP JUMPDEST JUMPDEST PUSH1 0x0 PUSH2 0x9CE DUP5 DUP3 DUP6 ADD PUSH2 0x995 JUMP JUMPDEST SWAP2 POP POP SWAP3 SWAP2 POP POP JUMP JUMPDEST PUSH2 0x9E0 DUP2 PUSH2 0x974 JUMP JUMPDEST DUP3 MSTORE POP POP JUMP JUMPDEST PUSH1 0x0 DUP2 MLOAD SWAP1 POP SWAP2 SWAP1 POP JUMP JUMPDEST PUSH1 0x0 DUP3 DUP3 MSTORE PUSH1 0x20 DUP3 ADD SWAP1 POP SWAP3 SWAP2 POP POP JUMP JUMPDEST PUSH1 0x0 JUMPDEST DUP4 DUP2 LT ISZERO PUSH2 0xA20 JUMPI DUP1 DUP3 ADD MLOAD DUP2 DUP5 ADD MSTORE PUSH1 0x20 DUP2 ADD SWAP1 POP PUSH2 0xA05 JUMP JUMPDEST PUSH1 0x0 DUP5 DUP5 ADD MSTORE POP POP POP POP JUMP JUMPDEST PUSH1 0x0 PUSH1 0x1F NOT PUSH1 0x1F DUP4 ADD AND SWAP1 POP SWAP2 SWAP1 POP JUMP JUMPDEST PUSH1 0x0 PUSH2 0xA48 DUP3 PUSH2 0x9E6 JUMP JUMPDEST PUSH2 0xA52 DUP2 DUP6 PUSH2 0x9F1 JUMP JUMPDEST SWAP4 POP PUSH2 0xA62 DUP2 DUP6 PUSH1 0x20 DUP7 ADD PUSH2 0xA02 JUMP JUMPDEST PUSH2 0xA6B DUP2 PUSH2 0xA2C JUMP JUMPDEST DUP5 ADD SWAP2 POP POP SWAP3 SWAP2 POP POP JUMP JUMPDEST PUSH1 0x0 PUSH1 0xA0 DUP3 ADD SWAP1 POP PUSH2 0xA8B PUSH1 0x0 DUP4 ADD DUP9 PUSH2 0x9D7 JUMP JUMPDEST DUP2 DUP2 SUB PUSH1 0x20 DUP4 ADD MSTORE PUSH2 0xA9D DUP2 DUP8 PUSH2 0xA3D JUMP JUMPDEST SWAP1 POP DUP2 DUP2 SUB PUSH1 0x40 DUP4 ADD MSTORE PUSH2 0xAB1 DUP2 DUP7 PUSH2 0xA3D JUMP JUMPDEST SWAP1 POP DUP2 DUP2 SUB PUSH1 0x60 DUP4 ADD MSTORE PUSH2 0xAC5 DUP2 DUP6 PUSH2 0xA3D JUMP JUMPDEST SWAP1 POP DUP2 DUP2 SUB PUSH1 0x80 DUP4 ADD MSTORE PUSH2 0xAD9 DUP2 DUP5 PUSH2 0xA3D JUMP JUMPDEST SWAP1 POP SWAP7 SWAP6 POP POP POP POP POP POP JUMP JUMPDEST PUSH1 0x0 PUSH1 0x3 SWAP1 POP SWAP2 SWAP1 POP JUMP JUMPDEST PUSH1 0x0 DUP2 SWAP1 POP SWAP3 SWAP2 POP POP JUMP JUMPDEST PUSH1 0x0 DUP2 SWAP1 POP SWAP2 SWAP1 POP JUMP JUMPDEST PUSH2 0xB0E DUP2 PUSH2 0x974 JUMP JUMPDEST DUP3 MSTORE POP POP JUMP JUMPDEST PUSH1 0x0 DUP3 DUP3 MSTORE PUSH1 0x20 DUP3 ADD SWAP1 POP SWAP3 SWAP2 POP POP JUMP JUMPDEST PUSH1 0x0 PUSH2 0xB30 DUP3 PUSH2 0x9E6 JUMP JUMPDEST PUSH2 0xB3A DUP2 DUP6 PUSH2 0xB14 JUMP JUMPDEST SWAP4 POP PUSH2 0xB4A DUP2 DUP6 PUSH1 0x20 DUP7 ADD PUSH2 0xA02 JUMP JUMPDEST PUSH2 0xB53 DUP2 PUSH2 0xA2C JUMP JUMPDEST DUP5 ADD SWAP2 POP POP SWAP3 SWAP2 POP POP JUMP JUMPDEST PUSH1 0x0 PUSH1 0xA0 DUP4 ADD PUSH1 0x0 DUP4 ADD MLOAD PUSH2 0xB76 PUSH1 0x0 DUP7 ADD DUP3 PUSH2 0xB05 JUMP JUMPDEST POP PUSH1 0x20 DUP4 ADD MLOAD DUP5 DUP3 SUB PUSH1 0x20 DUP7 ADD MSTORE PUSH2 0xB8E DUP3 DUP3 PUSH2 0xB25 JUMP JUMPDEST SWAP2 POP POP PUSH1 0x40 DUP4 ADD MLOAD DUP5 DUP3 SUB PUSH1 0x40 DUP7 ADD MSTORE PUSH2 0xBA8 DUP3 DUP3 PUSH2 0xB25 JUMP JUMPDEST SWAP2 POP POP PUSH1 0x60 DUP4 ADD MLOAD DUP5 DUP3 SUB PUSH1 0x60 DUP7 ADD MSTORE PUSH2 0xBC2 DUP3 DUP3 PUSH2 0xB25 JUMP JUMPDEST SWAP2 POP POP PUSH1 0x80 DUP4 ADD MLOAD DUP5 DUP3 SUB PUSH1 0x80 DUP7 ADD MSTORE PUSH2 0xBDC DUP3 DUP3 PUSH2 0xB25 JUMP JUMPDEST SWAP2 POP POP DUP1 SWAP2 POP POP SWAP3 SWAP2 POP POP JUMP JUMPDEST PUSH1 0x0 PUSH2 0xBF5 DUP4 DUP4 PUSH2 0xB5E JUMP JUMPDEST SWAP1 POP SWAP3 SWAP2 POP POP JUMP JUMPDEST PUSH1 0x0 PUSH1 0x20 DUP3 ADD SWAP1 POP SWAP2 SWAP1 POP JUMP JUMPDEST PUSH1 0x0 PUSH2 0xC15 DUP3 PUSH2 0xAE5 JUMP JUMPDEST PUSH2 0xC1F DUP2 DUP6 PUSH2 0xAF0 JUMP JUMPDEST SWAP4 POP DUP4 PUSH1 0x20 DUP3 MUL DUP6 ADD PUSH2 0xC31 DUP6 PUSH2 0xAFB JUMP JUMPDEST DUP1 PUSH1 0x0 JUMPDEST DUP6 DUP2 LT ISZERO PUSH2 0xC6D JUMPI DUP5 DUP5 SUB DUP10 MSTORE DUP2 MLOAD PUSH2 0xC4E DUP6 DUP3 PUSH2 0xBE9 JUMP JUMPDEST SWAP5 POP PUSH2 0xC59 DUP4 PUSH2 0xBFD JUMP JUMPDEST SWAP3 POP PUSH1 0x20 DUP11 ADD SWAP10 POP POP PUSH1 0x1 DUP2 ADD SWAP1 POP PUSH2 0xC35 JUMP JUMPDEST POP DUP3 SWAP8 POP DUP8 SWAP6 POP POP POP POP POP POP SWAP3 SWAP2 POP POP JUMP JUMPDEST PUSH1 0x0 PUSH1 0x20 DUP3 ADD SWAP1 POP DUP2 DUP2 SUB PUSH1 0x0 DUP4 ADD MSTORE PUSH2 0xC99 DUP2 DUP5 PUSH2 0xC0A JUMP JUMPDEST SWAP1 POP SWAP3 SWAP2 POP POP JUMP JUMPDEST PUSH1 0x0 DUP1 REVERT JUMPDEST PUSH1 0x0 DUP1 REVERT JUMPDEST PUSH1 0x0 DUP1 REVERT JUMPDEST PUSH1 0x0 DUP1 DUP4 PUSH1 0x1F DUP5 ADD SLT PUSH2 0xCC6 JUMPI PUSH2 0xCC5 PUSH2 0xCA1 JUMP JUMPDEST JUMPDEST DUP3 CALLDATALOAD SWAP1 POP PUSH8 0xFFFFFFFFFFFFFFFF DUP2 GT ISZERO PUSH2 0xCE3 JUMPI PUSH2 0xCE2 PUSH2 0xCA6 JUMP JUMPDEST JUMPDEST PUSH1 0x20 DUP4 ADD SWAP2 POP DUP4 PUSH1 0x1 DUP3 MUL DUP4 ADD GT ISZERO PUSH2 0xCFF JUMPI PUSH2 0xCFE PUSH2 0xCAB JUMP JUMPDEST JUMPDEST SWAP3 POP SWAP3 SWAP1 POP JUMP JUMPDEST PUSH1 0x0 DUP1 PUSH1 0x0 DUP1 PUSH1 0x0 DUP1 PUSH1 0x0 DUP1 PUSH1 0x80 DUP10 DUP12 SUB SLT ISZERO PUSH2 0xD26 JUMPI PUSH2 0xD25 PUSH2 0x96A JUMP JUMPDEST JUMPDEST PUSH1 0x0 DUP10 ADD CALLDATALOAD PUSH8 0xFFFFFFFFFFFFFFFF DUP2 GT ISZERO PUSH2 0xD44 JUMPI PUSH2 0xD43 PUSH2 0x96F JUMP JUMPDEST JUMPDEST PUSH2 0xD50 DUP12 DUP3 DUP13 ADD PUSH2 0xCB0 JUMP JUMPDEST SWAP9 POP SWAP9 POP POP PUSH1 0x20 DUP10 ADD CALLDATALOAD PUSH8 0xFFFFFFFFFFFFFFFF DUP2 GT ISZERO PUSH2 0xD73 JUMPI PUSH2 0xD72 PUSH2 0x96F JUMP JUMPDEST JUMPDEST PUSH2 0xD7F DUP12 DUP3 DUP13 ADD PUSH2 0xCB0 JUMP JUMPDEST SWAP7 POP SWAP7 POP POP PUSH1 0x40 DUP10 ADD CALLDATALOAD PUSH8 0xFFFFFFFFFFFFFFFF DUP2 GT ISZERO PUSH2 0xDA2 JUMPI PUSH2 0xDA1 PUSH2 0x96F JUMP JUMPDEST JUMPDEST PUSH2 0xDAE DUP12 DUP3 DUP13 ADD PUSH2 0xCB0 JUMP JUMPDEST SWAP5 POP SWAP5 POP POP PUSH1 0x60 DUP10 ADD CALLDATALOAD PUSH8 0xFFFFFFFFFFFFFFFF DUP2 GT ISZERO PUSH2 0xDD1 JUMPI PUSH2 0xDD0 PUSH2 0x96F JUMP JUMPDEST JUMPDEST PUSH2 0xDDD DUP12 DUP3 DUP13 ADD PUSH2 0xCB0 JUMP JUMPDEST SWAP3 POP SWAP3 POP POP SWAP3 SWAP6 SWAP9 POP SWAP3 SWAP6 SWAP9 SWAP1 SWAP4 SWAP7 POP JUMP JUMPDEST PUSH32 0x4E487B7100000000000000000000000000000000000000000000000000000000 PUSH1 0x0 MSTORE PUSH1 0x22 PUSH1 0x4 MSTORE PUSH1 0x24 PUSH1 0x0 REVERT JUMPDEST PUSH1 0x0 PUSH1 0x2 DUP3 DIV SWAP1 POP PUSH1 0x1 DUP3 AND DUP1 PUSH2 0xE36 JUMPI PUSH1 0x7F DUP3 AND SWAP2 POP JUMPDEST PUSH1 0x20 DUP3 LT DUP2 SUB PUSH2 0xE49 JUMPI PUSH2 0xE48 PUSH2 0xDEF JUMP JUMPDEST JUMPDEST POP SWAP2 SWAP1 POP JUMP JUMPDEST PUSH32 0x596F7520617265206E6F7420746865206D616E61676572000000000000000000 PUSH1 0x0 DUP3 ADD MSTORE POP JUMP JUMPDEST PUSH1 0x0 PUSH2 0xE85 PUSH1 0x17 DUP4 PUSH2 0x9F1 JUMP JUMPDEST SWAP2 POP PUSH2 0xE90 DUP3 PUSH2 0xE4F JUMP JUMPDEST PUSH1 0x20 DUP3 ADD SWAP1 POP SWAP2 SWAP1 POP JUMP JUMPDEST PUSH1 0x0 PUSH1 0x20 DUP3 ADD SWAP1 POP DUP2 DUP2 SUB PUSH1 0x0 DUP4 ADD MSTORE PUSH2 0xEB4 DUP2 PUSH2 0xE78 JUMP JUMPDEST SWAP1 POP SWAP2 SWAP1 POP JUMP JUMPDEST PUSH32 0x4F6E6C79203320656475636174696F6E2064657461696C7320616C6C6F776564 PUSH1 0x0 DUP3 ADD MSTORE POP JUMP JUMPDEST PUSH1 0x0 PUSH2 0xEF1 PUSH1 0x20 DUP4 PUSH2 0x9F1 JUMP JUMPDEST SWAP2 POP PUSH2 0xEFC DUP3 PUSH2 0xEBB JUMP JUMPDEST PUSH1 0x20 DUP3 ADD SWAP1 POP SWAP2 SWAP1 POP JUMP JUMPDEST PUSH1 0x0 PUSH1 0x20 DUP3 ADD SWAP1 POP DUP2 DUP2 SUB PUSH1 0x0 DUP4 ADD MSTORE PUSH2 0xF20 DUP2 PUSH2 0xEE4 JUMP JUMPDEST SWAP1 POP SWAP2 SWAP1 POP JUMP JUMPDEST PUSH32 0x4E487B7100000000000000000000000000000000000000000000000000000000 PUSH1 0x0 MSTORE PUSH1 0x32 PUSH1 0x4 MSTORE PUSH1 0x24 PUSH1 0x0 REVERT JUMPDEST PUSH32 0x4E487B7100000000000000000000000000000000000000000000000000000000 PUSH1 0x0 MSTORE PUSH1 0x41 PUSH1 0x4 MSTORE PUSH1 0x24 PUSH1 0x0 REVERT JUMPDEST PUSH1 0x0 DUP2 SWAP1 POP DUP2 PUSH1 0x0 MSTORE PUSH1 0x20 PUSH1 0x0 KECCAK256 SWAP1 POP SWAP2 SWAP1 POP JUMP JUMPDEST PUSH1 0x0 PUSH1 0x20 PUSH1 0x1F DUP4 ADD DIV SWAP1 POP SWAP2 SWAP1 POP JUMP JUMPDEST PUSH1 0x0 DUP3 DUP3 SHL SWAP1 POP SWAP3 SWAP2 POP POP JUMP JUMPDEST PUSH1 0x0 PUSH1 0x8 DUP4 MUL PUSH2 0xFE7 PUSH32 0xFFFFFFFFFFFFFFFFFFFFFFFFFFFFFFFFFFFFFFFFFFFFFFFFFFFFFFFFFFFFFFFF DUP3 PUSH2 0xFAA JUMP JUMPDEST PUSH2 0xFF1 DUP7 DUP4 PUSH2 0xFAA JUMP JUMPDEST SWAP6 POP DUP1 NOT DUP5 AND SWAP4 POP DUP1 DUP7 AND DUP5 OR SWAP3 POP POP POP SWAP4 SWAP3 POP POP POP JUMP JUMPDEST PUSH1 0x0 DUP2 SWAP1 POP SWAP2 SWAP1 POP JUMP JUMPDEST PUSH1 0x0 PUSH2 0x102E PUSH2 0x1029 PUSH2 0x1024 DUP5 PUSH2 0x974 JUMP JUMPDEST PUSH2 0x1009 JUMP JUMPDEST PUSH2 0x974 JUMP JUMPDEST SWAP1 POP SWAP2 SWAP1 POP JUMP JUMPDEST PUSH1 0x0 DUP2 SWAP1 POP SWAP2 SWAP1 POP JUMP JUMPDEST PUSH2 0x1048 DUP4 PUSH2 0x1013 JUMP JUMPDEST PUSH2 0x105C PUSH2 0x1054 DUP3 PUSH2 0x1035 JUMP JUMPDEST DUP5 DUP5 SLOAD PUSH2 0xFB7 JUMP JUMPDEST DUP3 SSTORE POP POP POP POP JUMP JUMPDEST PUSH1 0x0 SWAP1 JUMP JUMPDEST PUSH2 0x1071 PUSH2 0x1064 JUMP JUMPDEST PUSH2 0x107C DUP2 DUP5 DUP5 PUSH2 0x103F JUMP JUMPDEST POP POP POP JUMP JUMPDEST JUMPDEST DUP2 DUP2 LT ISZERO PUSH2 0x10A0 JUMPI PUSH2 0x1095 PUSH1 0x0 DUP3 PUSH2 0x1069 JUMP JUMPDEST PUSH1 0x1 DUP2 ADD SWAP1 POP PUSH2 0x1082 JUMP JUMPDEST POP POP JUMP JUMPDEST PUSH1 0x1F DUP3 GT ISZERO PUSH2 0x10E5 JUMPI PUSH2 0x10B6 DUP2 PUSH2 0xF85 JUMP JUMPDEST PUSH2 0x10BF DUP5 PUSH2 0xF9A JUMP JUMPDEST DUP2 ADD PUSH1 0x20 DUP6 LT ISZERO PUSH2 0x10CE JUMPI DUP2 SWAP1 POP JUMPDEST PUSH2 0x10E2 PUSH2 0x10DA DUP6 PUSH2 0xF9A JUMP JUMPDEST DUP4 ADD DUP3 PUSH2 0x1081 JUMP JUMPDEST POP POP JUMPDEST POP POP POP JUMP JUMPDEST PUSH1 0x0 DUP3 DUP3 SHR SWAP1 POP SWAP3 SWAP2 POP POP JUMP JUMPDEST PUSH1 0x0 PUSH2 0x1108 PUSH1 0x0 NOT DUP5 PUSH1 0x8 MUL PUSH2 0x10EA JUMP JUMPDEST NOT DUP1 DUP4 AND SWAP2 POP POP SWAP3 SWAP2 POP POP JUMP JUMPDEST PUSH1 0x0 PUSH2 0x1121 DUP4 DUP4 PUSH2 0x10F7 JUMP JUMPDEST SWAP2 POP DUP3 PUSH1 0x2 MUL DUP3 OR SWAP1 POP SWAP3 SWAP2 POP POP JUMP JUMPDEST PUSH2 0x113A DUP3 PUSH2 0x9E6 JUMP JUMPDEST PUSH8 0xFFFFFFFFFFFFFFFF DUP2 GT ISZERO PUSH2 0x1153 JUMPI PUSH2 0x1152 PUSH2 0xF56 JUMP JUMPDEST JUMPDEST PUSH2 0x115D DUP3 SLOAD PUSH2 0xE1E JUMP JUMPDEST PUSH2 0x1168 DUP3 DUP3 DUP6 PUSH2 0x10A4 JUMP JUMPDEST PUSH1 0x0 PUSH1 0x20 SWAP1 POP PUSH1 0x1F DUP4 GT PUSH1 0x1 DUP2 EQ PUSH2 0x119B JUMPI PUSH1 0x0 DUP5 ISZERO PUSH2 0x1189 JUMPI DUP3 DUP8 ADD MLOAD SWAP1 POP JUMPDEST PUSH2 0x1193 DUP6 DUP3 PUSH2 0x1115 JUMP JUMPDEST DUP7 SSTORE POP PUSH2 0x11FB JUMP JUMPDEST PUSH1 0x1F NOT DUP5 AND PUSH2 0x11A9 DUP7 PUSH2 0xF85 JUMP JUMPDEST PUSH1 0x0 JUMPDEST DUP3 DUP2 LT ISZERO PUSH2 0x11D1 JUMPI DUP5 DUP10 ADD MLOAD DUP3 SSTORE PUSH1 0x1 DUP3 ADD SWAP2 POP PUSH1 0x20 DUP6 ADD SWAP5 POP PUSH1 0x20 DUP2 ADD SWAP1 POP PUSH2 0x11AC JUMP JUMPDEST DUP7 DUP4 LT ISZERO PUSH2 0x11EE JUMPI DUP5 DUP10 ADD MLOAD PUSH2 0x11EA PUSH1 0x1F DUP10 AND DUP3 PUSH2 0x10F7 JUMP JUMPDEST DUP4 SSTORE POP JUMPDEST PUSH1 0x1 PUSH1 0x2 DUP9 MUL ADD DUP9 SSTORE POP POP POP JUMPDEST POP POP POP POP POP POP JUMP JUMPDEST PUSH32 0x4E487B7100000000000000000000000000000000000000000000000000000000 PUSH1 0x0 MSTORE PUSH1 0x11 PUSH1 0x4 MSTORE PUSH1 0x24 PUSH1 0x0 REVERT JUMPDEST PUSH1 0x0 PUSH2 0x123D DUP3 PUSH2 0x974 JUMP JUMPDEST SWAP2 POP PUSH32 0xFFFFFFFFFFFFFFFFFFFFFFFFFFFFFFFFFFFFFFFFFFFFFFFFFFFFFFFFFFFFFFFF DUP3 SUB PUSH2 0x126F JUMPI PUSH2 0x126E PUSH2 0x1203 JUMP JUMPDEST JUMPDEST PUSH1 0x1 DUP3 ADD SWAP1 POP SWAP2 SWAP1 POP JUMP INVALID LOG2 PUSH5 0x6970667358 0x22 SLT KECCAK256 PUSH6 0x484D51A4B864 0x5C RETURNDATASIZE STATICCALL SWAP2 0xB4 PREVRANDAO 0x28 0xD5 0x5C DELEGATECALL PUSH7 0xC8AA81B4BDEE04 0xC2 RETURNDATACOPY SWAP7 DUP13 CALLCODE SHL TIMESTAMP PUSH5 0x736F6C6343 STOP ADDMOD SLT STOP CALLER "
				},
				"gasEstimates": {
					"creation": {
						"codeDepositCost": "956800",
						"executionCost": "25260",
						"totalCost": "982060"
					},
					"external": {
						"allEductationDetails()": "infinite",
						"educationDetails(uint256)": "infinite",
						"insertEducation(string,string,string,string)": "infinite",
						"manager()": "2492"
					}
				},
				"methodIdentifiers": {
					"allEductationDetails()": "8af4f98d",
					"educationDetails(uint256)": "7aea95aa",
					"insertEducation(string,string,string,string)": "98f831b6",
					"manager()": "481c6a75"
				}
			},
			"storageLayout": {
				"storage": [
					{
						"astId": 17,
						"contract": "contracts/demo.sol:Portfolio",
						"label": "educationDetails",
						"offset": 0,
						"slot": "0",
						"type": "t_array(t_struct(Education)12_storage)3_storage"
					},
					{
						"astId": 19,
						"contract": "contracts/demo.sol:Portfolio",
						"label": "educationCount",
						"offset": 0,
						"slot": "15",
						"type": "t_uint256"
					},
					{
						"astId": 21,
						"contract": "contracts/demo.sol:Portfolio",
						"label": "manager",
						"offset": 0,
						"slot": "16",
						"type": "t_address"
					}
				],
				"types": {
					"t_address": {
						"encoding": "inplace",
						"label": "address",
						"numberOfBytes": "20"
					},
					"t_array(t_struct(Education)12_storage)3_storage": {
						"base": "t_struct(Education)12_storage",
						"encoding": "inplace",
						"label": "struct Portfolio.Education[3]",
						"numberOfBytes": "480"
					},
					"t_string_storage": {
						"encoding": "bytes",
						"label": "string",
						"numberOfBytes": "32"
					},
					"t_struct(Education)12_storage": {
						"encoding": "inplace",
						"label": "struct Portfolio.Education",
						"members": [
							{
								"astId": 3,
								"contract": "contracts/demo.sol:Portfolio",
								"label": "id",
								"offset": 0,
								"slot": "0",
								"type": "t_uint256"
							},
							{
								"astId": 5,
								"contract": "contracts/demo.sol:Portfolio",
								"label": "date",
								"offset": 0,
								"slot": "1",
								"type": "t_string_storage"
							},
							{
								"astId": 7,
								"contract": "contracts/demo.sol:Portfolio",
								"label": "degree",
								"offset": 0,
								"slot": "2",
								"type": "t_string_storage"
							},
							{
								"astId": 9,
								"contract": "contracts/demo.sol:Portfolio",
								"label": "knowledgeAcquired",
								"offset": 0,
								"slot": "3",
								"type": "t_string_storage"
							},
							{
								"astId": 11,
								"contract": "contracts/demo.sol:Portfolio",
								"label": "instutionName",
								"offset": 0,
								"slot": "4",
								"type": "t_string_storage"
							}
						],
						"numberOfBytes": "160"
					},
					"t_uint256": {
						"encoding": "inplace",
						"label": "uint256",
						"numberOfBytes": "32"
					}
				}
			},
			"userdoc": {
				"kind": "user",
				"methods": {},
				"version": 1
			}
		}
	}
}