{
	"contracts/RNNManager.sol": {
		"Patient": {
			"abi": [
				{
					"inputs": [
						{
							"internalType": "string",
							"name": "_firstName",
							"type": "string"
						},
						{
							"internalType": "string",
							"name": "_lastName",
							"type": "string"
						},
						{
							"internalType": "string",
							"name": "_IID",
							"type": "string"
						},
						{
							"internalType": "string",
							"name": "_bdate",
							"type": "string"
						},
						{
							"internalType": "string",
							"name": "_email",
							"type": "string"
						},
						{
							"internalType": "string",
							"name": "_phone",
							"type": "string"
						},
						{
							"internalType": "string",
							"name": "_zip",
							"type": "string"
						},
						{
							"internalType": "string",
							"name": "_city",
							"type": "string"
						},
						{
							"internalType": "string",
							"name": "_encryption_key",
							"type": "string"
						}
					],
					"stateMutability": "nonpayable",
					"type": "constructor"
				},
				{
					"anonymous": false,
					"inputs": [
						{
							"indexed": false,
							"internalType": "string",
							"name": "return_msg",
							"type": "string"
						},
						{
							"indexed": false,
							"internalType": "address",
							"name": "audit_address",
							"type": "address"
						},
						{
							"indexed": false,
							"internalType": "uint256",
							"name": "record_time",
							"type": "uint256"
						}
					],
					"name": "event_add_audit",
					"type": "event"
				},
				{
					"anonymous": false,
					"inputs": [
						{
							"indexed": false,
							"internalType": "string",
							"name": "return_msg",
							"type": "string"
						},
						{
							"indexed": false,
							"internalType": "address",
							"name": "doctor_address",
							"type": "address"
						},
						{
							"indexed": false,
							"internalType": "uint256",
							"name": "record_time",
							"type": "uint256"
						}
					],
					"name": "event_add_doctor",
					"type": "event"
				},
				{
					"anonymous": false,
					"inputs": [
						{
							"indexed": false,
							"internalType": "string",
							"name": "record_msg",
							"type": "string"
						},
						{
							"indexed": false,
							"internalType": "uint256",
							"name": "record_status",
							"type": "uint256"
						},
						{
							"indexed": false,
							"internalType": "uint256",
							"name": "record_time",
							"type": "uint256"
						}
					],
					"name": "event_doctor_copy",
					"type": "event"
				},
				{
					"anonymous": false,
					"inputs": [
						{
							"indexed": false,
							"internalType": "string",
							"name": "record_msg",
							"type": "string"
						},
						{
							"indexed": false,
							"internalType": "uint256",
							"name": "record_status",
							"type": "uint256"
						},
						{
							"indexed": false,
							"internalType": "uint256",
							"name": "record_time",
							"type": "uint256"
						}
					],
					"name": "event_doctor_delete",
					"type": "event"
				},
				{
					"anonymous": false,
					"inputs": [
						{
							"indexed": false,
							"internalType": "string",
							"name": "record_msg",
							"type": "string"
						},
						{
							"indexed": false,
							"internalType": "uint256",
							"name": "record_status",
							"type": "uint256"
						},
						{
							"indexed": false,
							"internalType": "uint256",
							"name": "record_time",
							"type": "uint256"
						}
					],
					"name": "event_doctor_print",
					"type": "event"
				},
				{
					"anonymous": false,
					"inputs": [
						{
							"indexed": false,
							"internalType": "string",
							"name": "record_msg",
							"type": "string"
						},
						{
							"indexed": false,
							"internalType": "uint256",
							"name": "record_status",
							"type": "uint256"
						},
						{
							"indexed": false,
							"internalType": "uint256",
							"name": "record_time",
							"type": "uint256"
						}
					],
					"name": "event_doctor_query",
					"type": "event"
				},
				{
					"anonymous": false,
					"inputs": [
						{
							"indexed": false,
							"internalType": "string",
							"name": "record_msg",
							"type": "string"
						},
						{
							"indexed": false,
							"internalType": "uint256",
							"name": "record_status",
							"type": "uint256"
						},
						{
							"indexed": false,
							"internalType": "uint256",
							"name": "record_time",
							"type": "uint256"
						}
					],
					"name": "event_doctor_update",
					"type": "event"
				},
				{
					"anonymous": false,
					"inputs": [
						{
							"indexed": false,
							"internalType": "string",
							"name": "record_msg",
							"type": "string"
						},
						{
							"indexed": false,
							"internalType": "uint256",
							"name": "record_status",
							"type": "uint256"
						},
						{
							"indexed": false,
							"internalType": "uint256",
							"name": "record_time",
							"type": "uint256"
						}
					],
					"name": "event_patient_delete",
					"type": "event"
				},
				{
					"anonymous": false,
					"inputs": [
						{
							"indexed": false,
							"internalType": "string",
							"name": "record_msg",
							"type": "string"
						},
						{
							"indexed": false,
							"internalType": "uint256",
							"name": "record_status",
							"type": "uint256"
						},
						{
							"indexed": false,
							"internalType": "uint256",
							"name": "record_time",
							"type": "uint256"
						}
					],
					"name": "event_patient_print",
					"type": "event"
				},
				{
					"anonymous": false,
					"inputs": [
						{
							"indexed": false,
							"internalType": "string",
							"name": "return_msg",
							"type": "string"
						},
						{
							"indexed": false,
							"internalType": "address",
							"name": "audit_address",
							"type": "address"
						},
						{
							"indexed": false,
							"internalType": "uint256",
							"name": "record_time",
							"type": "uint256"
						}
					],
					"name": "event_remove_audit",
					"type": "event"
				},
				{
					"anonymous": false,
					"inputs": [
						{
							"indexed": false,
							"internalType": "string",
							"name": "return_msg",
							"type": "string"
						},
						{
							"indexed": false,
							"internalType": "address",
							"name": "doctor_address",
							"type": "address"
						},
						{
							"indexed": false,
							"internalType": "uint256",
							"name": "record_time",
							"type": "uint256"
						}
					],
					"name": "event_remove_doctor",
					"type": "event"
				},
				{
					"anonymous": false,
					"inputs": [
						{
							"indexed": false,
							"internalType": "address",
							"name": "record_unique_id",
							"type": "address"
						},
						{
							"indexed": false,
							"internalType": "string",
							"name": "record_msg",
							"type": "string"
						},
						{
							"indexed": false,
							"internalType": "uint256",
							"name": "record_status",
							"type": "uint256"
						},
						{
							"indexed": false,
							"internalType": "uint256",
							"name": "record_time",
							"type": "uint256"
						}
					],
					"name": "event_start_visit",
					"type": "event"
				},
				{
					"inputs": [
						{
							"internalType": "address",
							"name": "_audit_address",
							"type": "address"
						}
					],
					"name": "addAudit",
					"outputs": [
						{
							"internalType": "string",
							"name": "",
							"type": "string"
						}
					],
					"stateMutability": "nonpayable",
					"type": "function"
				},
				{
					"inputs": [
						{
							"internalType": "address",
							"name": "_doctor_address",
							"type": "address"
						}
					],
					"name": "addDoctors",
					"outputs": [
						{
							"internalType": "string",
							"name": "",
							"type": "string"
						}
					],
					"stateMutability": "nonpayable",
					"type": "function"
				},
				{
					"inputs": [
						{
							"internalType": "address",
							"name": "",
							"type": "address"
						}
					],
					"name": "audits",
					"outputs": [
						{
							"internalType": "bool",
							"name": "",
							"type": "bool"
						}
					],
					"stateMutability": "view",
					"type": "function"
				},
				{
					"inputs": [
						{
							"internalType": "address",
							"name": "_unique_id",
							"type": "address"
						}
					],
					"name": "delete_record",
					"outputs": [
						{
							"internalType": "string",
							"name": "",
							"type": "string"
						}
					],
					"stateMutability": "nonpayable",
					"type": "function"
				},
				{
					"inputs": [
						{
							"internalType": "address",
							"name": "_unique_id",
							"type": "address"
						}
					],
					"name": "doctor_copy_record",
					"outputs": [
						{
							"internalType": "string",
							"name": "",
							"type": "string"
						}
					],
					"stateMutability": "nonpayable",
					"type": "function"
				},
				{
					"inputs": [
						{
							"internalType": "address",
							"name": "_unique_id",
							"type": "address"
						}
					],
					"name": "doctor_delete_record",
					"outputs": [
						{
							"internalType": "string",
							"name": "",
							"type": "string"
						}
					],
					"stateMutability": "nonpayable",
					"type": "function"
				},
				{
					"inputs": [
						{
							"internalType": "address",
							"name": "_unique_id",
							"type": "address"
						}
					],
					"name": "doctor_print_record",
					"outputs": [
						{
							"internalType": "string",
							"name": "",
							"type": "string"
						}
					],
					"stateMutability": "nonpayable",
					"type": "function"
				},
				{
					"inputs": [
						{
							"internalType": "address",
							"name": "_unique_id",
							"type": "address"
						}
					],
					"name": "doctor_query_record",
					"outputs": [
						{
							"internalType": "string",
							"name": "",
							"type": "string"
						}
					],
					"stateMutability": "nonpayable",
					"type": "function"
				},
				{
					"inputs": [
						{
							"internalType": "address",
							"name": "_unique_id",
							"type": "address"
						},
						{
							"internalType": "string",
							"name": "_update",
							"type": "string"
						}
					],
					"name": "doctor_update_record",
					"outputs": [
						{
							"internalType": "string",
							"name": "",
							"type": "string"
						}
					],
					"stateMutability": "nonpayable",
					"type": "function"
				},
				{
					"inputs": [
						{
							"internalType": "address",
							"name": "",
							"type": "address"
						}
					],
					"name": "doctors",
					"outputs": [
						{
							"internalType": "bool",
							"name": "",
							"type": "bool"
						}
					],
					"stateMutability": "view",
					"type": "function"
				},
				{
					"inputs": [
						{
							"internalType": "address",
							"name": "_unique_id",
							"type": "address"
						}
					],
					"name": "get_record_details",
					"outputs": [
						{
							"internalType": "string",
							"name": "",
							"type": "string"
						}
					],
					"stateMutability": "view",
					"type": "function"
				},
				{
					"inputs": [
						{
							"internalType": "address",
							"name": "_unique_id",
							"type": "address"
						}
					],
					"name": "print_record",
					"outputs": [
						{
							"internalType": "string",
							"name": "",
							"type": "string"
						}
					],
					"stateMutability": "nonpayable",
					"type": "function"
				},
				{
					"inputs": [
						{
							"internalType": "address",
							"name": "",
							"type": "address"
						}
					],
					"name": "record_mapping",
					"outputs": [
						{
							"internalType": "bool",
							"name": "is_uid_generated",
							"type": "bool"
						},
						{
							"internalType": "uint256",
							"name": "record_id",
							"type": "uint256"
						},
						{
							"internalType": "string",
							"name": "record_msg",
							"type": "string"
						},
						{
							"internalType": "uint256",
							"name": "record_status",
							"type": "uint256"
						},
						{
							"internalType": "string",
							"name": "record_details",
							"type": "string"
						},
						{
							"internalType": "address",
							"name": "patient_address",
							"type": "address"
						},
						{
							"internalType": "uint256",
							"name": "record_time",
							"type": "uint256"
						},
						{
							"internalType": "address",
							"name": "doctor",
							"type": "address"
						},
						{
							"internalType": "uint256",
							"name": "doctor_time",
							"type": "uint256"
						},
						{
							"internalType": "address",
							"name": "audit",
							"type": "address"
						},
						{
							"internalType": "uint256",
							"name": "audit_time",
							"type": "uint256"
						}
					],
					"stateMutability": "view",
					"type": "function"
				},
				{
					"inputs": [
						{
							"internalType": "address",
							"name": "_audit_address",
							"type": "address"
						}
					],
					"name": "removeAudit",
					"outputs": [
						{
							"internalType": "string",
							"name": "",
							"type": "string"
						}
					],
					"stateMutability": "nonpayable",
					"type": "function"
				},
				{
					"inputs": [
						{
							"internalType": "address",
							"name": "_doctor_address",
							"type": "address"
						}
					],
					"name": "removeDoctors",
					"outputs": [
						{
							"internalType": "string",
							"name": "",
							"type": "string"
						}
					],
					"stateMutability": "nonpayable",
					"type": "function"
				},
				{
					"inputs": [
						{
							"internalType": "uint256",
							"name": "_time",
							"type": "uint256"
						}
					],
					"name": "start_visit",
					"outputs": [
						{
							"internalType": "address",
							"name": "",
							"type": "address"
						}
					],
					"stateMutability": "nonpayable",
					"type": "function"
				}
			],
			"devdoc": {
				"kind": "dev",
				"methods": {},
				"version": 1
			},
			"evm": {
				"assembly": "    /* \"contracts/RNNManager.sol\":69:13905  contract Patient{... */\n  mstore(0x40, 0x80)\n    /* \"contracts/RNNManager.sol\":1544:2092  constructor (string memory _firstName, string memory _lastName, string memory _IID, ... */\n  callvalue\n  dup1\n  iszero\n  tag_1\n  jumpi\n  0x00\n  dup1\n  revert\ntag_1:\n  pop\n  mload(0x40)\n  sub(codesize, bytecodeSize)\n  dup1\n  bytecodeSize\n  dup4\n  codecopy\n  dup2\n  dup2\n  add\n  0x40\n  mstore\n  dup2\n  add\n  swap1\n  tag_2\n  swap2\n  swap1\n  tag_3\n  jump\t// in\ntag_2:\n    /* \"contracts/RNNManager.sol\":1826:1836  msg.sender */\n  caller\n    /* \"contracts/RNNManager.sol\":1818:1823  owner */\n  0x00\n  dup1\n    /* \"contracts/RNNManager.sol\":1818:1836  owner = msg.sender */\n  0x0100\n  exp\n  dup2\n  sload\n  dup2\n  0xffffffffffffffffffffffffffffffffffffffff\n  mul\n  not\n  and\n  swap1\n  dup4\n  0xffffffffffffffffffffffffffffffffffffffff\n  and\n  mul\n  or\n  swap1\n  sstore\n  pop\n    /* \"contracts/RNNManager.sol\":1859:1869  _firstName */\n  dup9\n    /* \"contracts/RNNManager.sol\":1847:1856  firstName */\n  0x01\n    /* \"contracts/RNNManager.sol\":1847:1869  firstName = _firstName */\n  swap1\n  dup2\n  tag_6\n  swap2\n  swap1\n  tag_7\n  jump\t// in\ntag_6:\n  pop\n    /* \"contracts/RNNManager.sol\":1892:1901  _lastName */\n  dup8\n    /* \"contracts/RNNManager.sol\":1881:1889  lastName */\n  0x02\n    /* \"contracts/RNNManager.sol\":1881:1901  lastName = _lastName */\n  swap1\n  dup2\n  tag_8\n  swap2\n  swap1\n  tag_7\n  jump\t// in\ntag_8:\n  pop\n    /* \"contracts/RNNManager.sol\":1918:1922  _IID */\n  dup7\n    /* \"contracts/RNNManager.sol\":1912:1915  IID */\n  0x03\n    /* \"contracts/RNNManager.sol\":1912:1922  IID = _IID */\n  swap1\n  dup2\n  tag_9\n  swap2\n  swap1\n  tag_7\n  jump\t// in\ntag_9:\n  pop\n    /* \"contracts/RNNManager.sol\":1941:1947  _bdate */\n  dup6\n    /* \"contracts/RNNManager.sol\":1933:1938  bdate */\n  0x04\n    /* \"contracts/RNNManager.sol\":1933:1947  bdate = _bdate */\n  swap1\n  dup2\n  tag_10\n  swap2\n  swap1\n  tag_7\n  jump\t// in\ntag_10:\n  pop\n    /* \"contracts/RNNManager.sol\":1966:1972  _email */\n  dup5\n    /* \"contracts/RNNManager.sol\":1958:1963  email */\n  0x05\n    /* \"contracts/RNNManager.sol\":1958:1972  email = _email */\n  swap1\n  dup2\n  tag_11\n  swap2\n  swap1\n  tag_7\n  jump\t// in\ntag_11:\n  pop\n    /* \"contracts/RNNManager.sol\":1991:1997  _phone */\n  dup4\n    /* \"contracts/RNNManager.sol\":1983:1988  phone */\n  0x06\n    /* \"contracts/RNNManager.sol\":1983:1997  phone = _phone */\n  swap1\n  dup2\n  tag_12\n  swap2\n  swap1\n  tag_7\n  jump\t// in\ntag_12:\n  pop\n    /* \"contracts/RNNManager.sol\":2014:2018  _zip */\n  dup3\n    /* \"contracts/RNNManager.sol\":2008:2011  zip */\n  0x07\n    /* \"contracts/RNNManager.sol\":2008:2018  zip = _zip */\n  swap1\n  dup2\n  tag_13\n  swap2\n  swap1\n  tag_7\n  jump\t// in\ntag_13:\n  pop\n    /* \"contracts/RNNManager.sol\":2036:2041  _city */\n  dup2\n    /* \"contracts/RNNManager.sol\":2029:2033  city */\n  0x08\n    /* \"contracts/RNNManager.sol\":2029:2041  city = _city */\n  swap1\n  dup2\n  tag_14\n  swap2\n  swap1\n  tag_7\n  jump\t// in\ntag_14:\n  pop\n    /* \"contracts/RNNManager.sol\":2069:2084  _encryption_key */\n  dup1\n    /* \"contracts/RNNManager.sol\":2052:2066  encryption_key */\n  0x09\n    /* \"contracts/RNNManager.sol\":2052:2084  encryption_key = _encryption_key */\n  swap1\n  dup2\n  tag_15\n  swap2\n  swap1\n  tag_7\n  jump\t// in\ntag_15:\n  pop\n    /* \"contracts/RNNManager.sol\":1544:2092  constructor (string memory _firstName, string memory _lastName, string memory _IID, ... */\n  pop\n  pop\n  pop\n  pop\n  pop\n  pop\n  pop\n  pop\n  pop\n    /* \"contracts/RNNManager.sol\":69:13905  contract Patient{... */\n  jump(tag_16)\n    /* \"#utility.yul\":7:82   */\ntag_17:\n    /* \"#utility.yul\":40:46   */\n  0x00\n    /* \"#utility.yul\":73:75   */\n  0x40\n    /* \"#utility.yul\":67:76   */\n  mload\n    /* \"#utility.yul\":57:76   */\n  swap1\n  pop\n    /* \"#utility.yul\":7:82   */\n  swap1\n  jump\t// out\n    /* \"#utility.yul\":88:205   */\ntag_18:\n    /* \"#utility.yul\":197:198   */\n  0x00\n    /* \"#utility.yul\":194:195   */\n  dup1\n    /* \"#utility.yul\":187:199   */\n  revert\n    /* \"#utility.yul\":211:328   */\ntag_19:\n    /* \"#utility.yul\":320:321   */\n  0x00\n    /* \"#utility.yul\":317:318   */\n  dup1\n    /* \"#utility.yul\":310:322   */\n  revert\n    /* \"#utility.yul\":334:451   */\ntag_20:\n    /* \"#utility.yul\":443:444   */\n  0x00\n    /* \"#utility.yul\":440:441   */\n  dup1\n    /* \"#utility.yul\":433:445   */\n  revert\n    /* \"#utility.yul\":457:574   */\ntag_21:\n    /* \"#utility.yul\":566:567   */\n  0x00\n    /* \"#utility.yul\":563:564   */\n  dup1\n    /* \"#utility.yul\":556:568   */\n  revert\n    /* \"#utility.yul\":580:682   */\ntag_22:\n    /* \"#utility.yul\":621:627   */\n  0x00\n    /* \"#utility.yul\":672:674   */\n  0x1f\n    /* \"#utility.yul\":668:675   */\n  not\n    /* \"#utility.yul\":663:665   */\n  0x1f\n    /* \"#utility.yul\":656:661   */\n  dup4\n    /* \"#utility.yul\":652:666   */\n  add\n    /* \"#utility.yul\":648:676   */\n  and\n    /* \"#utility.yul\":638:676   */\n  swap1\n  pop\n    /* \"#utility.yul\":580:682   */\n  swap2\n  swap1\n  pop\n  jump\t// out\n    /* \"#utility.yul\":688:868   */\ntag_23:\n    /* \"#utility.yul\":736:813   */\n  0x4e487b7100000000000000000000000000000000000000000000000000000000\n    /* \"#utility.yul\":733:734   */\n  0x00\n    /* \"#utility.yul\":726:814   */\n  mstore\n    /* \"#utility.yul\":833:837   */\n  0x41\n    /* \"#utility.yul\":830:831   */\n  0x04\n    /* \"#utility.yul\":823:838   */\n  mstore\n    /* \"#utility.yul\":857:861   */\n  0x24\n    /* \"#utility.yul\":854:855   */\n  0x00\n    /* \"#utility.yul\":847:862   */\n  revert\n    /* \"#utility.yul\":874:1155   */\ntag_24:\n    /* \"#utility.yul\":957:984   */\n  tag_58\n    /* \"#utility.yul\":979:983   */\n  dup3\n    /* \"#utility.yul\":957:984   */\n  tag_22\n  jump\t// in\ntag_58:\n    /* \"#utility.yul\":949:955   */\n  dup2\n    /* \"#utility.yul\":945:985   */\n  add\n    /* \"#utility.yul\":1087:1093   */\n  dup2\n    /* \"#utility.yul\":1075:1085   */\n  dup2\n    /* \"#utility.yul\":1072:1094   */\n  lt\n    /* \"#utility.yul\":1051:1069   */\n  0xffffffffffffffff\n    /* \"#utility.yul\":1039:1049   */\n  dup3\n    /* \"#utility.yul\":1036:1070   */\n  gt\n    /* \"#utility.yul\":1033:1095   */\n  or\n    /* \"#utility.yul\":1030:1118   */\n  iszero\n  tag_59\n  jumpi\n    /* \"#utility.yul\":1098:1116   */\n  tag_60\n  tag_23\n  jump\t// in\ntag_60:\n    /* \"#utility.yul\":1030:1118   */\ntag_59:\n    /* \"#utility.yul\":1138:1148   */\n  dup1\n    /* \"#utility.yul\":1134:1136   */\n  0x40\n    /* \"#utility.yul\":1127:1149   */\n  mstore\n    /* \"#utility.yul\":917:1155   */\n  pop\n    /* \"#utility.yul\":874:1155   */\n  pop\n  pop\n  jump\t// out\n    /* \"#utility.yul\":1161:1290   */\ntag_25:\n    /* \"#utility.yul\":1195:1201   */\n  0x00\n    /* \"#utility.yul\":1222:1242   */\n  tag_62\n  tag_17\n  jump\t// in\ntag_62:\n    /* \"#utility.yul\":1212:1242   */\n  swap1\n  pop\n    /* \"#utility.yul\":1251:1284   */\n  tag_63\n    /* \"#utility.yul\":1279:1283   */\n  dup3\n    /* \"#utility.yul\":1271:1277   */\n  dup3\n    /* \"#utility.yul\":1251:1284   */\n  tag_24\n  jump\t// in\ntag_63:\n    /* \"#utility.yul\":1161:1290   */\n  swap2\n  swap1\n  pop\n  jump\t// out\n    /* \"#utility.yul\":1296:1604   */\ntag_26:\n    /* \"#utility.yul\":1358:1362   */\n  0x00\n    /* \"#utility.yul\":1448:1466   */\n  0xffffffffffffffff\n    /* \"#utility.yul\":1440:1446   */\n  dup3\n    /* \"#utility.yul\":1437:1467   */\n  gt\n    /* \"#utility.yul\":1434:1490   */\n  iszero\n  tag_65\n  jumpi\n    /* \"#utility.yul\":1470:1488   */\n  tag_66\n  tag_23\n  jump\t// in\ntag_66:\n    /* \"#utility.yul\":1434:1490   */\ntag_65:\n    /* \"#utility.yul\":1508:1537   */\n  tag_67\n    /* \"#utility.yul\":1530:1536   */\n  dup3\n    /* \"#utility.yul\":1508:1537   */\n  tag_22\n  jump\t// in\ntag_67:\n    /* \"#utility.yul\":1500:1537   */\n  swap1\n  pop\n    /* \"#utility.yul\":1592:1596   */\n  0x20\n    /* \"#utility.yul\":1586:1590   */\n  dup2\n    /* \"#utility.yul\":1582:1597   */\n  add\n    /* \"#utility.yul\":1574:1597   */\n  swap1\n  pop\n    /* \"#utility.yul\":1296:1604   */\n  swap2\n  swap1\n  pop\n  jump\t// out\n    /* \"#utility.yul\":1610:1856   */\ntag_27:\n    /* \"#utility.yul\":1691:1692   */\n  0x00\n    /* \"#utility.yul\":1701:1814   */\ntag_69:\n    /* \"#utility.yul\":1715:1721   */\n  dup4\n    /* \"#utility.yul\":1712:1713   */\n  dup2\n    /* \"#utility.yul\":1709:1722   */\n  lt\n    /* \"#utility.yul\":1701:1814   */\n  iszero\n  tag_71\n  jumpi\n    /* \"#utility.yul\":1800:1801   */\n  dup1\n    /* \"#utility.yul\":1795:1798   */\n  dup3\n    /* \"#utility.yul\":1791:1802   */\n  add\n    /* \"#utility.yul\":1785:1803   */\n  mload\n    /* \"#utility.yul\":1781:1782   */\n  dup2\n    /* \"#utility.yul\":1776:1779   */\n  dup5\n    /* \"#utility.yul\":1772:1783   */\n  add\n    /* \"#utility.yul\":1765:1804   */\n  mstore\n    /* \"#utility.yul\":1737:1739   */\n  0x20\n    /* \"#utility.yul\":1734:1735   */\n  dup2\n    /* \"#utility.yul\":1730:1740   */\n  add\n    /* \"#utility.yul\":1725:1740   */\n  swap1\n  pop\n    /* \"#utility.yul\":1701:1814   */\n  jump(tag_69)\ntag_71:\n    /* \"#utility.yul\":1848:1849   */\n  0x00\n    /* \"#utility.yul\":1839:1845   */\n  dup5\n    /* \"#utility.yul\":1834:1837   */\n  dup5\n    /* \"#utility.yul\":1830:1846   */\n  add\n    /* \"#utility.yul\":1823:1850   */\n  mstore\n    /* \"#utility.yul\":1672:1856   */\n  pop\n    /* \"#utility.yul\":1610:1856   */\n  pop\n  pop\n  pop\n  jump\t// out\n    /* \"#utility.yul\":1862:2296   */\ntag_28:\n    /* \"#utility.yul\":1951:1956   */\n  0x00\n    /* \"#utility.yul\":1976:2042   */\n  tag_73\n    /* \"#utility.yul\":1992:2041   */\n  tag_74\n    /* \"#utility.yul\":2034:2040   */\n  dup5\n    /* \"#utility.yul\":1992:2041   */\n  tag_26\n  jump\t// in\ntag_74:\n    /* \"#utility.yul\":1976:2042   */\n  tag_25\n  jump\t// in\ntag_73:\n    /* \"#utility.yul\":1967:2042   */\n  swap1\n  pop\n    /* \"#utility.yul\":2065:2071   */\n  dup3\n    /* \"#utility.yul\":2058:2063   */\n  dup2\n    /* \"#utility.yul\":2051:2072   */\n  mstore\n    /* \"#utility.yul\":2103:2107   */\n  0x20\n    /* \"#utility.yul\":2096:2101   */\n  dup2\n    /* \"#utility.yul\":2092:2108   */\n  add\n    /* \"#utility.yul\":2141:2144   */\n  dup5\n    /* \"#utility.yul\":2132:2138   */\n  dup5\n    /* \"#utility.yul\":2127:2130   */\n  dup5\n    /* \"#utility.yul\":2123:2139   */\n  add\n    /* \"#utility.yul\":2120:2145   */\n  gt\n    /* \"#utility.yul\":2117:2229   */\n  iszero\n  tag_75\n  jumpi\n    /* \"#utility.yul\":2148:2227   */\n  tag_76\n  tag_21\n  jump\t// in\ntag_76:\n    /* \"#utility.yul\":2117:2229   */\ntag_75:\n    /* \"#utility.yul\":2238:2290   */\n  tag_77\n    /* \"#utility.yul\":2283:2289   */\n  dup5\n    /* \"#utility.yul\":2278:2281   */\n  dup3\n    /* \"#utility.yul\":2273:2276   */\n  dup6\n    /* \"#utility.yul\":2238:2290   */\n  tag_27\n  jump\t// in\ntag_77:\n    /* \"#utility.yul\":1957:2296   */\n  pop\n    /* \"#utility.yul\":1862:2296   */\n  swap4\n  swap3\n  pop\n  pop\n  pop\n  jump\t// out\n    /* \"#utility.yul\":2316:2671   */\ntag_29:\n    /* \"#utility.yul\":2383:2388   */\n  0x00\n    /* \"#utility.yul\":2432:2435   */\n  dup3\n    /* \"#utility.yul\":2425:2429   */\n  0x1f\n    /* \"#utility.yul\":2417:2423   */\n  dup4\n    /* \"#utility.yul\":2413:2430   */\n  add\n    /* \"#utility.yul\":2409:2436   */\n  slt\n    /* \"#utility.yul\":2399:2521   */\n  tag_79\n  jumpi\n    /* \"#utility.yul\":2440:2519   */\n  tag_80\n  tag_20\n  jump\t// in\ntag_80:\n    /* \"#utility.yul\":2399:2521   */\ntag_79:\n    /* \"#utility.yul\":2550:2556   */\n  dup2\n    /* \"#utility.yul\":2544:2557   */\n  mload\n    /* \"#utility.yul\":2575:2665   */\n  tag_81\n    /* \"#utility.yul\":2661:2664   */\n  dup5\n    /* \"#utility.yul\":2653:2659   */\n  dup3\n    /* \"#utility.yul\":2646:2650   */\n  0x20\n    /* \"#utility.yul\":2638:2644   */\n  dup7\n    /* \"#utility.yul\":2634:2651   */\n  add\n    /* \"#utility.yul\":2575:2665   */\n  tag_28\n  jump\t// in\ntag_81:\n    /* \"#utility.yul\":2566:2665   */\n  swap2\n  pop\n    /* \"#utility.yul\":2389:2671   */\n  pop\n    /* \"#utility.yul\":2316:2671   */\n  swap3\n  swap2\n  pop\n  pop\n  jump\t// out\n    /* \"#utility.yul\":2677:5839   */\ntag_3:\n    /* \"#utility.yul\":2909:2915   */\n  0x00\n    /* \"#utility.yul\":2917:2923   */\n  dup1\n    /* \"#utility.yul\":2925:2931   */\n  0x00\n    /* \"#utility.yul\":2933:2939   */\n  dup1\n    /* \"#utility.yul\":2941:2947   */\n  0x00\n    /* \"#utility.yul\":2949:2955   */\n  dup1\n    /* \"#utility.yul\":2957:2963   */\n  0x00\n    /* \"#utility.yul\":2965:2971   */\n  dup1\n    /* \"#utility.yul\":2973:2979   */\n  0x00\n    /* \"#utility.yul\":3022:3025   */\n  0x0120\n    /* \"#utility.yul\":3010:3019   */\n  dup11\n    /* \"#utility.yul\":3001:3008   */\n  dup13\n    /* \"#utility.yul\":2997:3020   */\n  sub\n    /* \"#utility.yul\":2993:3026   */\n  slt\n    /* \"#utility.yul\":2990:3110   */\n  iszero\n  tag_83\n  jumpi\n    /* \"#utility.yul\":3029:3108   */\n  tag_84\n  tag_18\n  jump\t// in\ntag_84:\n    /* \"#utility.yul\":2990:3110   */\ntag_83:\n    /* \"#utility.yul\":3170:3171   */\n  0x00\n    /* \"#utility.yul\":3159:3168   */\n  dup11\n    /* \"#utility.yul\":3155:3172   */\n  add\n    /* \"#utility.yul\":3149:3173   */\n  mload\n    /* \"#utility.yul\":3200:3218   */\n  0xffffffffffffffff\n    /* \"#utility.yul\":3192:3198   */\n  dup2\n    /* \"#utility.yul\":3189:3219   */\n  gt\n    /* \"#utility.yul\":3186:3303   */\n  iszero\n  tag_85\n  jumpi\n    /* \"#utility.yul\":3222:3301   */\n  tag_86\n  tag_19\n  jump\t// in\ntag_86:\n    /* \"#utility.yul\":3186:3303   */\ntag_85:\n    /* \"#utility.yul\":3327:3401   */\n  tag_87\n    /* \"#utility.yul\":3393:3400   */\n  dup13\n    /* \"#utility.yul\":3384:3390   */\n  dup3\n    /* \"#utility.yul\":3373:3382   */\n  dup14\n    /* \"#utility.yul\":3369:3391   */\n  add\n    /* \"#utility.yul\":3327:3401   */\n  tag_29\n  jump\t// in\ntag_87:\n    /* \"#utility.yul\":3317:3401   */\n  swap10\n  pop\n    /* \"#utility.yul\":3120:3411   */\n  pop\n    /* \"#utility.yul\":3471:3473   */\n  0x20\n    /* \"#utility.yul\":3460:3469   */\n  dup11\n    /* \"#utility.yul\":3456:3474   */\n  add\n    /* \"#utility.yul\":3450:3475   */\n  mload\n    /* \"#utility.yul\":3502:3520   */\n  0xffffffffffffffff\n    /* \"#utility.yul\":3494:3500   */\n  dup2\n    /* \"#utility.yul\":3491:3521   */\n  gt\n    /* \"#utility.yul\":3488:3605   */\n  iszero\n  tag_88\n  jumpi\n    /* \"#utility.yul\":3524:3603   */\n  tag_89\n  tag_19\n  jump\t// in\ntag_89:\n    /* \"#utility.yul\":3488:3605   */\ntag_88:\n    /* \"#utility.yul\":3629:3703   */\n  tag_90\n    /* \"#utility.yul\":3695:3702   */\n  dup13\n    /* \"#utility.yul\":3686:3692   */\n  dup3\n    /* \"#utility.yul\":3675:3684   */\n  dup14\n    /* \"#utility.yul\":3671:3693   */\n  add\n    /* \"#utility.yul\":3629:3703   */\n  tag_29\n  jump\t// in\ntag_90:\n    /* \"#utility.yul\":3619:3703   */\n  swap9\n  pop\n    /* \"#utility.yul\":3421:3713   */\n  pop\n    /* \"#utility.yul\":3773:3775   */\n  0x40\n    /* \"#utility.yul\":3762:3771   */\n  dup11\n    /* \"#utility.yul\":3758:3776   */\n  add\n    /* \"#utility.yul\":3752:3777   */\n  mload\n    /* \"#utility.yul\":3804:3822   */\n  0xffffffffffffffff\n    /* \"#utility.yul\":3796:3802   */\n  dup2\n    /* \"#utility.yul\":3793:3823   */\n  gt\n    /* \"#utility.yul\":3790:3907   */\n  iszero\n  tag_91\n  jumpi\n    /* \"#utility.yul\":3826:3905   */\n  tag_92\n  tag_19\n  jump\t// in\ntag_92:\n    /* \"#utility.yul\":3790:3907   */\ntag_91:\n    /* \"#utility.yul\":3931:4005   */\n  tag_93\n    /* \"#utility.yul\":3997:4004   */\n  dup13\n    /* \"#utility.yul\":3988:3994   */\n  dup3\n    /* \"#utility.yul\":3977:3986   */\n  dup14\n    /* \"#utility.yul\":3973:3995   */\n  add\n    /* \"#utility.yul\":3931:4005   */\n  tag_29\n  jump\t// in\ntag_93:\n    /* \"#utility.yul\":3921:4005   */\n  swap8\n  pop\n    /* \"#utility.yul\":3723:4015   */\n  pop\n    /* \"#utility.yul\":4075:4077   */\n  0x60\n    /* \"#utility.yul\":4064:4073   */\n  dup11\n    /* \"#utility.yul\":4060:4078   */\n  add\n    /* \"#utility.yul\":4054:4079   */\n  mload\n    /* \"#utility.yul\":4106:4124   */\n  0xffffffffffffffff\n    /* \"#utility.yul\":4098:4104   */\n  dup2\n    /* \"#utility.yul\":4095:4125   */\n  gt\n    /* \"#utility.yul\":4092:4209   */\n  iszero\n  tag_94\n  jumpi\n    /* \"#utility.yul\":4128:4207   */\n  tag_95\n  tag_19\n  jump\t// in\ntag_95:\n    /* \"#utility.yul\":4092:4209   */\ntag_94:\n    /* \"#utility.yul\":4233:4307   */\n  tag_96\n    /* \"#utility.yul\":4299:4306   */\n  dup13\n    /* \"#utility.yul\":4290:4296   */\n  dup3\n    /* \"#utility.yul\":4279:4288   */\n  dup14\n    /* \"#utility.yul\":4275:4297   */\n  add\n    /* \"#utility.yul\":4233:4307   */\n  tag_29\n  jump\t// in\ntag_96:\n    /* \"#utility.yul\":4223:4307   */\n  swap7\n  pop\n    /* \"#utility.yul\":4025:4317   */\n  pop\n    /* \"#utility.yul\":4377:4380   */\n  0x80\n    /* \"#utility.yul\":4366:4375   */\n  dup11\n    /* \"#utility.yul\":4362:4381   */\n  add\n    /* \"#utility.yul\":4356:4382   */\n  mload\n    /* \"#utility.yul\":4409:4427   */\n  0xffffffffffffffff\n    /* \"#utility.yul\":4401:4407   */\n  dup2\n    /* \"#utility.yul\":4398:4428   */\n  gt\n    /* \"#utility.yul\":4395:4512   */\n  iszero\n  tag_97\n  jumpi\n    /* \"#utility.yul\":4431:4510   */\n  tag_98\n  tag_19\n  jump\t// in\ntag_98:\n    /* \"#utility.yul\":4395:4512   */\ntag_97:\n    /* \"#utility.yul\":4536:4610   */\n  tag_99\n    /* \"#utility.yul\":4602:4609   */\n  dup13\n    /* \"#utility.yul\":4593:4599   */\n  dup3\n    /* \"#utility.yul\":4582:4591   */\n  dup14\n    /* \"#utility.yul\":4578:4600   */\n  add\n    /* \"#utility.yul\":4536:4610   */\n  tag_29\n  jump\t// in\ntag_99:\n    /* \"#utility.yul\":4526:4610   */\n  swap6\n  pop\n    /* \"#utility.yul\":4327:4620   */\n  pop\n    /* \"#utility.yul\":4680:4683   */\n  0xa0\n    /* \"#utility.yul\":4669:4678   */\n  dup11\n    /* \"#utility.yul\":4665:4684   */\n  add\n    /* \"#utility.yul\":4659:4685   */\n  mload\n    /* \"#utility.yul\":4712:4730   */\n  0xffffffffffffffff\n    /* \"#utility.yul\":4704:4710   */\n  dup2\n    /* \"#utility.yul\":4701:4731   */\n  gt\n    /* \"#utility.yul\":4698:4815   */\n  iszero\n  tag_100\n  jumpi\n    /* \"#utility.yul\":4734:4813   */\n  tag_101\n  tag_19\n  jump\t// in\ntag_101:\n    /* \"#utility.yul\":4698:4815   */\ntag_100:\n    /* \"#utility.yul\":4839:4913   */\n  tag_102\n    /* \"#utility.yul\":4905:4912   */\n  dup13\n    /* \"#utility.yul\":4896:4902   */\n  dup3\n    /* \"#utility.yul\":4885:4894   */\n  dup14\n    /* \"#utility.yul\":4881:4903   */\n  add\n    /* \"#utility.yul\":4839:4913   */\n  tag_29\n  jump\t// in\ntag_102:\n    /* \"#utility.yul\":4829:4913   */\n  swap5\n  pop\n    /* \"#utility.yul\":4630:4923   */\n  pop\n    /* \"#utility.yul\":4983:4986   */\n  0xc0\n    /* \"#utility.yul\":4972:4981   */\n  dup11\n    /* \"#utility.yul\":4968:4987   */\n  add\n    /* \"#utility.yul\":4962:4988   */\n  mload\n    /* \"#utility.yul\":5015:5033   */\n  0xffffffffffffffff\n    /* \"#utility.yul\":5007:5013   */\n  dup2\n    /* \"#utility.yul\":5004:5034   */\n  gt\n    /* \"#utility.yul\":5001:5118   */\n  iszero\n  tag_103\n  jumpi\n    /* \"#utility.yul\":5037:5116   */\n  tag_104\n  tag_19\n  jump\t// in\ntag_104:\n    /* \"#utility.yul\":5001:5118   */\ntag_103:\n    /* \"#utility.yul\":5142:5216   */\n  tag_105\n    /* \"#utility.yul\":5208:5215   */\n  dup13\n    /* \"#utility.yul\":5199:5205   */\n  dup3\n    /* \"#utility.yul\":5188:5197   */\n  dup14\n    /* \"#utility.yul\":5184:5206   */\n  add\n    /* \"#utility.yul\":5142:5216   */\n  tag_29\n  jump\t// in\ntag_105:\n    /* \"#utility.yul\":5132:5216   */\n  swap4\n  pop\n    /* \"#utility.yul\":4933:5226   */\n  pop\n    /* \"#utility.yul\":5286:5289   */\n  0xe0\n    /* \"#utility.yul\":5275:5284   */\n  dup11\n    /* \"#utility.yul\":5271:5290   */\n  add\n    /* \"#utility.yul\":5265:5291   */\n  mload\n    /* \"#utility.yul\":5318:5336   */\n  0xffffffffffffffff\n    /* \"#utility.yul\":5310:5316   */\n  dup2\n    /* \"#utility.yul\":5307:5337   */\n  gt\n    /* \"#utility.yul\":5304:5421   */\n  iszero\n  tag_106\n  jumpi\n    /* \"#utility.yul\":5340:5419   */\n  tag_107\n  tag_19\n  jump\t// in\ntag_107:\n    /* \"#utility.yul\":5304:5421   */\ntag_106:\n    /* \"#utility.yul\":5445:5519   */\n  tag_108\n    /* \"#utility.yul\":5511:5518   */\n  dup13\n    /* \"#utility.yul\":5502:5508   */\n  dup3\n    /* \"#utility.yul\":5491:5500   */\n  dup14\n    /* \"#utility.yul\":5487:5509   */\n  add\n    /* \"#utility.yul\":5445:5519   */\n  tag_29\n  jump\t// in\ntag_108:\n    /* \"#utility.yul\":5435:5519   */\n  swap3\n  pop\n    /* \"#utility.yul\":5236:5529   */\n  pop\n    /* \"#utility.yul\":5589:5592   */\n  0x0100\n    /* \"#utility.yul\":5578:5587   */\n  dup11\n    /* \"#utility.yul\":5574:5593   */\n  add\n    /* \"#utility.yul\":5568:5594   */\n  mload\n    /* \"#utility.yul\":5621:5639   */\n  0xffffffffffffffff\n    /* \"#utility.yul\":5613:5619   */\n  dup2\n    /* \"#utility.yul\":5610:5640   */\n  gt\n    /* \"#utility.yul\":5607:5724   */\n  iszero\n  tag_109\n  jumpi\n    /* \"#utility.yul\":5643:5722   */\n  tag_110\n  tag_19\n  jump\t// in\ntag_110:\n    /* \"#utility.yul\":5607:5724   */\ntag_109:\n    /* \"#utility.yul\":5748:5822   */\n  tag_111\n    /* \"#utility.yul\":5814:5821   */\n  dup13\n    /* \"#utility.yul\":5805:5811   */\n  dup3\n    /* \"#utility.yul\":5794:5803   */\n  dup14\n    /* \"#utility.yul\":5790:5812   */\n  add\n    /* \"#utility.yul\":5748:5822   */\n  tag_29\n  jump\t// in\ntag_111:\n    /* \"#utility.yul\":5738:5822   */\n  swap2\n  pop\n    /* \"#utility.yul\":5539:5832   */\n  pop\n    /* \"#utility.yul\":2677:5839   */\n  swap3\n  swap6\n  swap9\n  pop\n  swap3\n  swap6\n  swap9\n  pop\n  swap3\n  swap6\n  swap9\n  jump\t// out\n    /* \"#utility.yul\":5845:5944   */\ntag_30:\n    /* \"#utility.yul\":5897:5903   */\n  0x00\n    /* \"#utility.yul\":5931:5936   */\n  dup2\n    /* \"#utility.yul\":5925:5937   */\n  mload\n    /* \"#utility.yul\":5915:5937   */\n  swap1\n  pop\n    /* \"#utility.yul\":5845:5944   */\n  swap2\n  swap1\n  pop\n  jump\t// out\n    /* \"#utility.yul\":5950:6130   */\ntag_31:\n    /* \"#utility.yul\":5998:6075   */\n  0x4e487b7100000000000000000000000000000000000000000000000000000000\n    /* \"#utility.yul\":5995:5996   */\n  0x00\n    /* \"#utility.yul\":5988:6076   */\n  mstore\n    /* \"#utility.yul\":6095:6099   */\n  0x22\n    /* \"#utility.yul\":6092:6093   */\n  0x04\n    /* \"#utility.yul\":6085:6100   */\n  mstore\n    /* \"#utility.yul\":6119:6123   */\n  0x24\n    /* \"#utility.yul\":6116:6117   */\n  0x00\n    /* \"#utility.yul\":6109:6124   */\n  revert\n    /* \"#utility.yul\":6136:6456   */\ntag_32:\n    /* \"#utility.yul\":6180:6186   */\n  0x00\n    /* \"#utility.yul\":6217:6218   */\n  0x02\n    /* \"#utility.yul\":6211:6215   */\n  dup3\n    /* \"#utility.yul\":6207:6219   */\n  div\n    /* \"#utility.yul\":6197:6219   */\n  swap1\n  pop\n    /* \"#utility.yul\":6264:6265   */\n  0x01\n    /* \"#utility.yul\":6258:6262   */\n  dup3\n    /* \"#utility.yul\":6254:6266   */\n  and\n    /* \"#utility.yul\":6285:6303   */\n  dup1\n    /* \"#utility.yul\":6275:6356   */\n  tag_115\n  jumpi\n    /* \"#utility.yul\":6341:6345   */\n  0x7f\n    /* \"#utility.yul\":6333:6339   */\n  dup3\n    /* \"#utility.yul\":6329:6346   */\n  and\n    /* \"#utility.yul\":6319:6346   */\n  swap2\n  pop\n    /* \"#utility.yul\":6275:6356   */\ntag_115:\n    /* \"#utility.yul\":6403:6405   */\n  0x20\n    /* \"#utility.yul\":6395:6401   */\n  dup3\n    /* \"#utility.yul\":6392:6406   */\n  lt\n    /* \"#utility.yul\":6372:6390   */\n  dup2\n    /* \"#utility.yul\":6369:6407   */\n  sub\n    /* \"#utility.yul\":6366:6450   */\n  tag_116\n  jumpi\n    /* \"#utility.yul\":6422:6440   */\n  tag_117\n  tag_31\n  jump\t// in\ntag_117:\n    /* \"#utility.yul\":6366:6450   */\ntag_116:\n    /* \"#utility.yul\":6187:6456   */\n  pop\n    /* \"#utility.yul\":6136:6456   */\n  swap2\n  swap1\n  pop\n  jump\t// out\n    /* \"#utility.yul\":6462:6603   */\ntag_33:\n    /* \"#utility.yul\":6511:6515   */\n  0x00\n    /* \"#utility.yul\":6534:6537   */\n  dup2\n    /* \"#utility.yul\":6526:6537   */\n  swap1\n  pop\n    /* \"#utility.yul\":6557:6560   */\n  dup2\n    /* \"#utility.yul\":6554:6555   */\n  0x00\n    /* \"#utility.yul\":6547:6561   */\n  mstore\n    /* \"#utility.yul\":6591:6595   */\n  0x20\n    /* \"#utility.yul\":6588:6589   */\n  0x00\n    /* \"#utility.yul\":6578:6596   */\n  keccak256\n    /* \"#utility.yul\":6570:6596   */\n  swap1\n  pop\n    /* \"#utility.yul\":6462:6603   */\n  swap2\n  swap1\n  pop\n  jump\t// out\n    /* \"#utility.yul\":6609:6702   */\ntag_34:\n    /* \"#utility.yul\":6646:6652   */\n  0x00\n    /* \"#utility.yul\":6693:6695   */\n  0x20\n    /* \"#utility.yul\":6688:6690   */\n  0x1f\n    /* \"#utility.yul\":6681:6686   */\n  dup4\n    /* \"#utility.yul\":6677:6691   */\n  add\n    /* \"#utility.yul\":6673:6696   */\n  div\n    /* \"#utility.yul\":6663:6696   */\n  swap1\n  pop\n    /* \"#utility.yul\":6609:6702   */\n  swap2\n  swap1\n  pop\n  jump\t// out\n    /* \"#utility.yul\":6708:6815   */\ntag_35:\n    /* \"#utility.yul\":6752:6760   */\n  0x00\n    /* \"#utility.yul\":6802:6807   */\n  dup3\n    /* \"#utility.yul\":6796:6800   */\n  dup3\n    /* \"#utility.yul\":6792:6808   */\n  shl\n    /* \"#utility.yul\":6771:6808   */\n  swap1\n  pop\n    /* \"#utility.yul\":6708:6815   */\n  swap3\n  swap2\n  pop\n  pop\n  jump\t// out\n    /* \"#utility.yul\":6821:7214   */\ntag_36:\n    /* \"#utility.yul\":6890:6896   */\n  0x00\n    /* \"#utility.yul\":6940:6941   */\n  0x08\n    /* \"#utility.yul\":6928:6938   */\n  dup4\n    /* \"#utility.yul\":6924:6942   */\n  mul\n    /* \"#utility.yul\":6963:7060   */\n  tag_122\n    /* \"#utility.yul\":6993:7059   */\n  0xffffffffffffffffffffffffffffffffffffffffffffffffffffffffffffffff\n    /* \"#utility.yul\":6982:6991   */\n  dup3\n    /* \"#utility.yul\":6963:7060   */\n  tag_35\n  jump\t// in\ntag_122:\n    /* \"#utility.yul\":7081:7120   */\n  tag_123\n    /* \"#utility.yul\":7111:7119   */\n  dup7\n    /* \"#utility.yul\":7100:7109   */\n  dup4\n    /* \"#utility.yul\":7081:7120   */\n  tag_35\n  jump\t// in\ntag_123:\n    /* \"#utility.yul\":7069:7120   */\n  swap6\n  pop\n    /* \"#utility.yul\":7153:7157   */\n  dup1\n    /* \"#utility.yul\":7149:7158   */\n  not\n    /* \"#utility.yul\":7142:7147   */\n  dup5\n    /* \"#utility.yul\":7138:7159   */\n  and\n    /* \"#utility.yul\":7129:7159   */\n  swap4\n  pop\n    /* \"#utility.yul\":7202:7206   */\n  dup1\n    /* \"#utility.yul\":7192:7200   */\n  dup7\n    /* \"#utility.yul\":7188:7207   */\n  and\n    /* \"#utility.yul\":7181:7186   */\n  dup5\n    /* \"#utility.yul\":7178:7208   */\n  or\n    /* \"#utility.yul\":7168:7208   */\n  swap3\n  pop\n    /* \"#utility.yul\":6897:7214   */\n  pop\n  pop\n    /* \"#utility.yul\":6821:7214   */\n  swap4\n  swap3\n  pop\n  pop\n  pop\n  jump\t// out\n    /* \"#utility.yul\":7220:7297   */\ntag_37:\n    /* \"#utility.yul\":7257:7264   */\n  0x00\n    /* \"#utility.yul\":7286:7291   */\n  dup2\n    /* \"#utility.yul\":7275:7291   */\n  swap1\n  pop\n    /* \"#utility.yul\":7220:7297   */\n  swap2\n  swap1\n  pop\n  jump\t// out\n    /* \"#utility.yul\":7303:7363   */\ntag_38:\n    /* \"#utility.yul\":7331:7334   */\n  0x00\n    /* \"#utility.yul\":7352:7357   */\n  dup2\n    /* \"#utility.yul\":7345:7357   */\n  swap1\n  pop\n    /* \"#utility.yul\":7303:7363   */\n  swap2\n  swap1\n  pop\n  jump\t// out\n    /* \"#utility.yul\":7369:7511   */\ntag_39:\n    /* \"#utility.yul\":7419:7428   */\n  0x00\n    /* \"#utility.yul\":7452:7505   */\n  tag_127\n    /* \"#utility.yul\":7470:7504   */\n  tag_128\n    /* \"#utility.yul\":7479:7503   */\n  tag_129\n    /* \"#utility.yul\":7497:7502   */\n  dup5\n    /* \"#utility.yul\":7479:7503   */\n  tag_37\n  jump\t// in\ntag_129:\n    /* \"#utility.yul\":7470:7504   */\n  tag_38\n  jump\t// in\ntag_128:\n    /* \"#utility.yul\":7452:7505   */\n  tag_37\n  jump\t// in\ntag_127:\n    /* \"#utility.yul\":7439:7505   */\n  swap1\n  pop\n    /* \"#utility.yul\":7369:7511   */\n  swap2\n  swap1\n  pop\n  jump\t// out\n    /* \"#utility.yul\":7517:7592   */\ntag_40:\n    /* \"#utility.yul\":7560:7563   */\n  0x00\n    /* \"#utility.yul\":7581:7586   */\n  dup2\n    /* \"#utility.yul\":7574:7586   */\n  swap1\n  pop\n    /* \"#utility.yul\":7517:7592   */\n  swap2\n  swap1\n  pop\n  jump\t// out\n    /* \"#utility.yul\":7598:7867   */\ntag_41:\n    /* \"#utility.yul\":7708:7747   */\n  tag_132\n    /* \"#utility.yul\":7739:7746   */\n  dup4\n    /* \"#utility.yul\":7708:7747   */\n  tag_39\n  jump\t// in\ntag_132:\n    /* \"#utility.yul\":7769:7860   */\n  tag_133\n    /* \"#utility.yul\":7818:7859   */\n  tag_134\n    /* \"#utility.yul\":7842:7858   */\n  dup3\n    /* \"#utility.yul\":7818:7859   */\n  tag_40\n  jump\t// in\ntag_134:\n    /* \"#utility.yul\":7810:7816   */\n  dup5\n    /* \"#utility.yul\":7803:7807   */\n  dup5\n    /* \"#utility.yul\":7797:7808   */\n  sload\n    /* \"#utility.yul\":7769:7860   */\n  tag_36\n  jump\t// in\ntag_133:\n    /* \"#utility.yul\":7763:7767   */\n  dup3\n    /* \"#utility.yul\":7756:7861   */\n  sstore\n    /* \"#utility.yul\":7674:7867   */\n  pop\n    /* \"#utility.yul\":7598:7867   */\n  pop\n  pop\n  pop\n  jump\t// out\n    /* \"#utility.yul\":7873:7946   */\ntag_42:\n    /* \"#utility.yul\":7918:7921   */\n  0x00\n    /* \"#utility.yul\":7873:7946   */\n  swap1\n  jump\t// out\n    /* \"#utility.yul\":7952:8141   */\ntag_43:\n    /* \"#utility.yul\":8029:8061   */\n  tag_137\n  tag_42\n  jump\t// in\ntag_137:\n    /* \"#utility.yul\":8070:8135   */\n  tag_138\n    /* \"#utility.yul\":8128:8134   */\n  dup2\n    /* \"#utility.yul\":8120:8126   */\n  dup5\n    /* \"#utility.yul\":8114:8118   */\n  dup5\n    /* \"#utility.yul\":8070:8135   */\n  tag_41\n  jump\t// in\ntag_138:\n    /* \"#utility.yul\":8005:8141   */\n  pop\n    /* \"#utility.yul\":7952:8141   */\n  pop\n  pop\n  jump\t// out\n    /* \"#utility.yul\":8147:8333   */\ntag_44:\n    /* \"#utility.yul\":8207:8327   */\ntag_140:\n    /* \"#utility.yul\":8224:8227   */\n  dup2\n    /* \"#utility.yul\":8217:8222   */\n  dup2\n    /* \"#utility.yul\":8214:8228   */\n  lt\n    /* \"#utility.yul\":8207:8327   */\n  iszero\n  tag_142\n  jumpi\n    /* \"#utility.yul\":8278:8317   */\n  tag_143\n    /* \"#utility.yul\":8315:8316   */\n  0x00\n    /* \"#utility.yul\":8308:8313   */\n  dup3\n    /* \"#utility.yul\":8278:8317   */\n  tag_43\n  jump\t// in\ntag_143:\n    /* \"#utility.yul\":8251:8252   */\n  0x01\n    /* \"#utility.yul\":8244:8249   */\n  dup2\n    /* \"#utility.yul\":8240:8253   */\n  add\n    /* \"#utility.yul\":8231:8253   */\n  swap1\n  pop\n    /* \"#utility.yul\":8207:8327   */\n  jump(tag_140)\ntag_142:\n    /* \"#utility.yul\":8147:8333   */\n  pop\n  pop\n  jump\t// out\n    /* \"#utility.yul\":8339:8882   */\ntag_45:\n    /* \"#utility.yul\":8440:8442   */\n  0x1f\n    /* \"#utility.yul\":8435:8438   */\n  dup3\n    /* \"#utility.yul\":8432:8443   */\n  gt\n    /* \"#utility.yul\":8429:8875   */\n  iszero\n  tag_145\n  jumpi\n    /* \"#utility.yul\":8474:8512   */\n  tag_146\n    /* \"#utility.yul\":8506:8511   */\n  dup2\n    /* \"#utility.yul\":8474:8512   */\n  tag_33\n  jump\t// in\ntag_146:\n    /* \"#utility.yul\":8558:8587   */\n  tag_147\n    /* \"#utility.yul\":8576:8586   */\n  dup5\n    /* \"#utility.yul\":8558:8587   */\n  tag_34\n  jump\t// in\ntag_147:\n    /* \"#utility.yul\":8548:8556   */\n  dup2\n    /* \"#utility.yul\":8544:8588   */\n  add\n    /* \"#utility.yul\":8741:8743   */\n  0x20\n    /* \"#utility.yul\":8729:8739   */\n  dup6\n    /* \"#utility.yul\":8726:8744   */\n  lt\n    /* \"#utility.yul\":8723:8772   */\n  iszero\n  tag_148\n  jumpi\n    /* \"#utility.yul\":8762:8770   */\n  dup2\n    /* \"#utility.yul\":8747:8770   */\n  swap1\n  pop\n    /* \"#utility.yul\":8723:8772   */\ntag_148:\n    /* \"#utility.yul\":8785:8865   */\n  tag_149\n    /* \"#utility.yul\":8841:8863   */\n  tag_150\n    /* \"#utility.yul\":8859:8862   */\n  dup6\n    /* \"#utility.yul\":8841:8863   */\n  tag_34\n  jump\t// in\ntag_150:\n    /* \"#utility.yul\":8831:8839   */\n  dup4\n    /* \"#utility.yul\":8827:8864   */\n  add\n    /* \"#utility.yul\":8814:8825   */\n  dup3\n    /* \"#utility.yul\":8785:8865   */\n  tag_44\n  jump\t// in\ntag_149:\n    /* \"#utility.yul\":8444:8875   */\n  pop\n  pop\n    /* \"#utility.yul\":8429:8875   */\ntag_145:\n    /* \"#utility.yul\":8339:8882   */\n  pop\n  pop\n  pop\n  jump\t// out\n    /* \"#utility.yul\":8888:9005   */\ntag_46:\n    /* \"#utility.yul\":8942:8950   */\n  0x00\n    /* \"#utility.yul\":8992:8997   */\n  dup3\n    /* \"#utility.yul\":8986:8990   */\n  dup3\n    /* \"#utility.yul\":8982:8998   */\n  shr\n    /* \"#utility.yul\":8961:8998   */\n  swap1\n  pop\n    /* \"#utility.yul\":8888:9005   */\n  swap3\n  swap2\n  pop\n  pop\n  jump\t// out\n    /* \"#utility.yul\":9011:9180   */\ntag_47:\n    /* \"#utility.yul\":9055:9061   */\n  0x00\n    /* \"#utility.yul\":9088:9139   */\n  tag_153\n    /* \"#utility.yul\":9136:9137   */\n  0x00\n    /* \"#utility.yul\":9132:9138   */\n  not\n    /* \"#utility.yul\":9124:9129   */\n  dup5\n    /* \"#utility.yul\":9121:9122   */\n  0x08\n    /* \"#utility.yul\":9117:9130   */\n  mul\n    /* \"#utility.yul\":9088:9139   */\n  tag_46\n  jump\t// in\ntag_153:\n    /* \"#utility.yul\":9084:9140   */\n  not\n    /* \"#utility.yul\":9169:9173   */\n  dup1\n    /* \"#utility.yul\":9163:9167   */\n  dup4\n    /* \"#utility.yul\":9159:9174   */\n  and\n    /* \"#utility.yul\":9149:9174   */\n  swap2\n  pop\n    /* \"#utility.yul\":9062:9180   */\n  pop\n    /* \"#utility.yul\":9011:9180   */\n  swap3\n  swap2\n  pop\n  pop\n  jump\t// out\n    /* \"#utility.yul\":9185:9480   */\ntag_48:\n    /* \"#utility.yul\":9261:9265   */\n  0x00\n    /* \"#utility.yul\":9407:9436   */\n  tag_155\n    /* \"#utility.yul\":9432:9435   */\n  dup4\n    /* \"#utility.yul\":9426:9430   */\n  dup4\n    /* \"#utility.yul\":9407:9436   */\n  tag_47\n  jump\t// in\ntag_155:\n    /* \"#utility.yul\":9399:9436   */\n  swap2\n  pop\n    /* \"#utility.yul\":9469:9472   */\n  dup3\n    /* \"#utility.yul\":9466:9467   */\n  0x02\n    /* \"#utility.yul\":9462:9473   */\n  mul\n    /* \"#utility.yul\":9456:9460   */\n  dup3\n    /* \"#utility.yul\":9453:9474   */\n  or\n    /* \"#utility.yul\":9445:9474   */\n  swap1\n  pop\n    /* \"#utility.yul\":9185:9480   */\n  swap3\n  swap2\n  pop\n  pop\n  jump\t// out\n    /* \"#utility.yul\":9485:10880   */\ntag_7:\n    /* \"#utility.yul\":9602:9639   */\n  tag_157\n    /* \"#utility.yul\":9635:9638   */\n  dup3\n    /* \"#utility.yul\":9602:9639   */\n  tag_30\n  jump\t// in\ntag_157:\n    /* \"#utility.yul\":9704:9722   */\n  0xffffffffffffffff\n    /* \"#utility.yul\":9696:9702   */\n  dup2\n    /* \"#utility.yul\":9693:9723   */\n  gt\n    /* \"#utility.yul\":9690:9746   */\n  iszero\n  tag_158\n  jumpi\n    /* \"#utility.yul\":9726:9744   */\n  tag_159\n  tag_23\n  jump\t// in\ntag_159:\n    /* \"#utility.yul\":9690:9746   */\ntag_158:\n    /* \"#utility.yul\":9770:9808   */\n  tag_160\n    /* \"#utility.yul\":9802:9806   */\n  dup3\n    /* \"#utility.yul\":9796:9807   */\n  sload\n    /* \"#utility.yul\":9770:9808   */\n  tag_32\n  jump\t// in\ntag_160:\n    /* \"#utility.yul\":9855:9922   */\n  tag_161\n    /* \"#utility.yul\":9915:9921   */\n  dup3\n    /* \"#utility.yul\":9907:9913   */\n  dup3\n    /* \"#utility.yul\":9901:9905   */\n  dup6\n    /* \"#utility.yul\":9855:9922   */\n  tag_45\n  jump\t// in\ntag_161:\n    /* \"#utility.yul\":9949:9950   */\n  0x00\n    /* \"#utility.yul\":9973:9977   */\n  0x20\n    /* \"#utility.yul\":9960:9977   */\n  swap1\n  pop\n    /* \"#utility.yul\":10005:10007   */\n  0x1f\n    /* \"#utility.yul\":9997:10003   */\n  dup4\n    /* \"#utility.yul\":9994:10008   */\n  gt\n    /* \"#utility.yul\":10022:10023   */\n  0x01\n    /* \"#utility.yul\":10017:10635   */\n  dup2\n  eq\n  tag_163\n  jumpi\n    /* \"#utility.yul\":10679:10680   */\n  0x00\n    /* \"#utility.yul\":10696:10702   */\n  dup5\n    /* \"#utility.yul\":10693:10770   */\n  iszero\n  tag_164\n  jumpi\n    /* \"#utility.yul\":10745:10754   */\n  dup3\n    /* \"#utility.yul\":10740:10743   */\n  dup8\n    /* \"#utility.yul\":10736:10755   */\n  add\n    /* \"#utility.yul\":10730:10756   */\n  mload\n    /* \"#utility.yul\":10721:10756   */\n  swap1\n  pop\n    /* \"#utility.yul\":10693:10770   */\ntag_164:\n    /* \"#utility.yul\":10796:10863   */\n  tag_165\n    /* \"#utility.yul\":10856:10862   */\n  dup6\n    /* \"#utility.yul\":10849:10854   */\n  dup3\n    /* \"#utility.yul\":10796:10863   */\n  tag_48\n  jump\t// in\ntag_165:\n    /* \"#utility.yul\":10790:10794   */\n  dup7\n    /* \"#utility.yul\":10783:10864   */\n  sstore\n    /* \"#utility.yul\":10652:10874   */\n  pop\n    /* \"#utility.yul\":9987:10874   */\n  jump(tag_162)\n    /* \"#utility.yul\":10017:10635   */\ntag_163:\n    /* \"#utility.yul\":10069:10073   */\n  0x1f\n    /* \"#utility.yul\":10065:10074   */\n  not\n    /* \"#utility.yul\":10057:10063   */\n  dup5\n    /* \"#utility.yul\":10053:10075   */\n  and\n    /* \"#utility.yul\":10103:10140   */\n  tag_166\n    /* \"#utility.yul\":10135:10139   */\n  dup7\n    /* \"#utility.yul\":10103:10140   */\n  tag_33\n  jump\t// in\ntag_166:\n    /* \"#utility.yul\":10162:10163   */\n  0x00\n    /* \"#utility.yul\":10176:10384   */\ntag_167:\n    /* \"#utility.yul\":10190:10197   */\n  dup3\n    /* \"#utility.yul\":10187:10188   */\n  dup2\n    /* \"#utility.yul\":10184:10198   */\n  lt\n    /* \"#utility.yul\":10176:10384   */\n  iszero\n  tag_169\n  jumpi\n    /* \"#utility.yul\":10269:10278   */\n  dup5\n    /* \"#utility.yul\":10264:10267   */\n  dup10\n    /* \"#utility.yul\":10260:10279   */\n  add\n    /* \"#utility.yul\":10254:10280   */\n  mload\n    /* \"#utility.yul\":10246:10252   */\n  dup3\n    /* \"#utility.yul\":10239:10281   */\n  sstore\n    /* \"#utility.yul\":10320:10321   */\n  0x01\n    /* \"#utility.yul\":10312:10318   */\n  dup3\n    /* \"#utility.yul\":10308:10322   */\n  add\n    /* \"#utility.yul\":10298:10322   */\n  swap2\n  pop\n    /* \"#utility.yul\":10367:10369   */\n  0x20\n    /* \"#utility.yul\":10356:10365   */\n  dup6\n    /* \"#utility.yul\":10352:10370   */\n  add\n    /* \"#utility.yul\":10339:10370   */\n  swap5\n  pop\n    /* \"#utility.yul\":10213:10217   */\n  0x20\n    /* \"#utility.yul\":10210:10211   */\n  dup2\n    /* \"#utility.yul\":10206:10218   */\n  add\n    /* \"#utility.yul\":10201:10218   */\n  swap1\n  pop\n    /* \"#utility.yul\":10176:10384   */\n  jump(tag_167)\ntag_169:\n    /* \"#utility.yul\":10412:10418   */\n  dup7\n    /* \"#utility.yul\":10403:10410   */\n  dup4\n    /* \"#utility.yul\":10400:10419   */\n  lt\n    /* \"#utility.yul\":10397:10576   */\n  iszero\n  tag_170\n  jumpi\n    /* \"#utility.yul\":10470:10479   */\n  dup5\n    /* \"#utility.yul\":10465:10468   */\n  dup10\n    /* \"#utility.yul\":10461:10480   */\n  add\n    /* \"#utility.yul\":10455:10481   */\n  mload\n    /* \"#utility.yul\":10513:10561   */\n  tag_171\n    /* \"#utility.yul\":10555:10559   */\n  0x1f\n    /* \"#utility.yul\":10547:10553   */\n  dup10\n    /* \"#utility.yul\":10543:10560   */\n  and\n    /* \"#utility.yul\":10532:10541   */\n  dup3\n    /* \"#utility.yul\":10513:10561   */\n  tag_47\n  jump\t// in\ntag_171:\n    /* \"#utility.yul\":10505:10511   */\n  dup4\n    /* \"#utility.yul\":10498:10562   */\n  sstore\n    /* \"#utility.yul\":10420:10576   */\n  pop\n    /* \"#utility.yul\":10397:10576   */\ntag_170:\n    /* \"#utility.yul\":10622:10623   */\n  0x01\n    /* \"#utility.yul\":10618:10619   */\n  0x02\n    /* \"#utility.yul\":10610:10616   */\n  dup9\n    /* \"#utility.yul\":10606:10620   */\n  mul\n    /* \"#utility.yul\":10602:10624   */\n  add\n    /* \"#utility.yul\":10596:10600   */\n  dup9\n    /* \"#utility.yul\":10589:10625   */\n  sstore\n    /* \"#utility.yul\":10024:10635   */\n  pop\n  pop\n  pop\n    /* \"#utility.yul\":9987:10874   */\ntag_162:\n  pop\n    /* \"#utility.yul\":9577:10880   */\n  pop\n  pop\n  pop\n    /* \"#utility.yul\":9485:10880   */\n  pop\n  pop\n  jump\t// out\n    /* \"contracts/RNNManager.sol\":69:13905  contract Patient{... */\ntag_16:\n  dataSize(sub_0)\n  dup1\n  dataOffset(sub_0)\n  0x00\n  codecopy\n  0x00\n  return\nstop\n\nsub_0: assembly {\n        /* \"contracts/RNNManager.sol\":69:13905  contract Patient{... */\n      mstore(0x40, 0x80)\n      callvalue\n      dup1\n      iszero\n      tag_1\n      jumpi\n      0x00\n      dup1\n      revert\n    tag_1:\n      pop\n      jumpi(tag_2, lt(calldatasize, 0x04))\n      shr(0xe0, calldataload(0x00))\n      dup1\n      0xb1649729\n      gt\n      tag_19\n      jumpi\n      dup1\n      0xd60bd310\n      gt\n      tag_20\n      jumpi\n      dup1\n      0xd60bd310\n      eq\n      tag_15\n      jumpi\n      dup1\n      0xdb1bf8d8\n      eq\n      tag_16\n      jumpi\n      dup1\n      0xe111265d\n      eq\n      tag_17\n      jumpi\n      dup1\n      0xf6c25bbd\n      eq\n      tag_18\n      jumpi\n      jump(tag_2)\n    tag_20:\n      dup1\n      0xb1649729\n      eq\n      tag_11\n      jumpi\n      dup1\n      0xb24be0a1\n      eq\n      tag_12\n      jumpi\n      dup1\n      0xb6e478e5\n      eq\n      tag_13\n      jumpi\n      dup1\n      0xc73d6d9e\n      eq\n      tag_14\n      jumpi\n      jump(tag_2)\n    tag_19:\n      dup1\n      0xa0da0ea3\n      gt\n      tag_21\n      jumpi\n      dup1\n      0xa0da0ea3\n      eq\n      tag_7\n      jumpi\n      dup1\n      0xa7bf973c\n      eq\n      tag_8\n      jumpi\n      dup1\n      0xa9583c22\n      eq\n      tag_9\n      jumpi\n      dup1\n      0xab7fca1c\n      eq\n      tag_10\n      jumpi\n      jump(tag_2)\n    tag_21:\n      dup1\n      0x0389523d\n      eq\n      tag_3\n      jumpi\n      dup1\n      0x0cb16b71\n      eq\n      tag_4\n      jumpi\n      dup1\n      0x16161f02\n      eq\n      tag_5\n      jumpi\n      dup1\n      0x1fe8bb6a\n      eq\n      tag_6\n      jumpi\n    tag_2:\n      0x00\n      dup1\n      revert\n        /* \"contracts/RNNManager.sol\":6946:7774  function get_record_details(address _unique_id) view public returns (string memory) {... */\n    tag_3:\n      tag_22\n      0x04\n      dup1\n      calldatasize\n      sub\n      dup2\n      add\n      swap1\n      tag_23\n      swap2\n      swap1\n      tag_24\n      jump\t// in\n    tag_23:\n      tag_25\n      jump\t// in\n    tag_22:\n      mload(0x40)\n      tag_26\n      swap2\n      swap1\n      tag_27\n      jump\t// in\n    tag_26:\n      mload(0x40)\n      dup1\n      swap2\n      sub\n      swap1\n      return\n        /* \"contracts/RNNManager.sol\":1249:1306  mapping (address => medical_record) public record_mapping */\n    tag_4:\n      tag_28\n      0x04\n      dup1\n      calldatasize\n      sub\n      dup2\n      add\n      swap1\n      tag_29\n      swap2\n      swap1\n      tag_24\n      jump\t// in\n    tag_29:\n      tag_30\n      jump\t// in\n    tag_28:\n      mload(0x40)\n      tag_31\n      swap12\n      swap11\n      swap10\n      swap9\n      swap8\n      swap7\n      swap6\n      swap5\n      swap4\n      swap3\n      swap2\n      swap1\n      tag_32\n      jump\t// in\n    tag_31:\n      mload(0x40)\n      dup1\n      swap2\n      sub\n      swap1\n      return\n        /* \"contracts/RNNManager.sol\":9665:10483  function doctor_delete_record(address _unique_id) public returns (string memory){... */\n    tag_5:\n      tag_33\n      0x04\n      dup1\n      calldatasize\n      sub\n      dup2\n      add\n      swap1\n      tag_34\n      swap2\n      swap1\n      tag_24\n      jump\t// in\n    tag_34:\n      tag_35\n      jump\t// in\n    tag_33:\n      mload(0x40)\n      tag_36\n      swap2\n      swap1\n      tag_27\n      jump\t// in\n    tag_36:\n      mload(0x40)\n      dup1\n      swap2\n      sub\n      swap1\n      return\n        /* \"contracts/RNNManager.sol\":5543:5917  function removeDoctors(address _doctor_address) public only_owner returns (string memory) {... */\n    tag_6:\n      tag_37\n      0x04\n      dup1\n      calldatasize\n      sub\n      dup2\n      add\n      swap1\n      tag_38\n      swap2\n      swap1\n      tag_24\n      jump\t// in\n    tag_38:\n      tag_39\n      jump\t// in\n    tag_37:\n      mload(0x40)\n      tag_40\n      swap2\n      swap1\n      tag_27\n      jump\t// in\n    tag_40:\n      mload(0x40)\n      dup1\n      swap2\n      sub\n      swap1\n      return\n        /* \"contracts/RNNManager.sol\":7966:8807  function delete_record(address _unique_id) public returns (string memory){... */\n    tag_7:\n      tag_41\n      0x04\n      dup1\n      calldatasize\n      sub\n      dup2\n      add\n      swap1\n      tag_42\n      swap2\n      swap1\n      tag_24\n      jump\t// in\n    tag_42:\n      tag_43\n      jump\t// in\n    tag_41:\n      mload(0x40)\n      tag_44\n      swap2\n      swap1\n      tag_27\n      jump\t// in\n    tag_44:\n      mload(0x40)\n      dup1\n      swap2\n      sub\n      swap1\n      return\n        /* \"contracts/RNNManager.sol\":12988:13824  function doctor_update_record(address _unique_id, string memory _update) public returns (string memory){... */\n    tag_8:\n      tag_45\n      0x04\n      dup1\n      calldatasize\n      sub\n      dup2\n      add\n      swap1\n      tag_46\n      swap2\n      swap1\n      tag_47\n      jump\t// in\n    tag_46:\n      tag_48\n      jump\t// in\n    tag_45:\n      mload(0x40)\n      tag_49\n      swap2\n      swap1\n      tag_27\n      jump\t// in\n    tag_49:\n      mload(0x40)\n      dup1\n      swap2\n      sub\n      swap1\n      return\n        /* \"contracts/RNNManager.sol\":1314:1354  mapping (address => bool) public doctors */\n    tag_9:\n      tag_50\n      0x04\n      dup1\n      calldatasize\n      sub\n      dup2\n      add\n      swap1\n      tag_51\n      swap2\n      swap1\n      tag_24\n      jump\t// in\n    tag_51:\n      tag_52\n      jump\t// in\n    tag_50:\n      mload(0x40)\n      tag_53\n      swap2\n      swap1\n      tag_54\n      jump\t// in\n    tag_53:\n      mload(0x40)\n      dup1\n      swap2\n      sub\n      swap1\n      return\n        /* \"contracts/RNNManager.sol\":1361:1400  mapping (address => bool) public audits */\n    tag_10:\n      tag_55\n      0x04\n      dup1\n      calldatasize\n      sub\n      dup2\n      add\n      swap1\n      tag_56\n      swap2\n      swap1\n      tag_24\n      jump\t// in\n    tag_56:\n      tag_57\n      jump\t// in\n    tag_55:\n      mload(0x40)\n      tag_58\n      swap2\n      swap1\n      tag_54\n      jump\t// in\n    tag_58:\n      mload(0x40)\n      dup1\n      swap2\n      sub\n      swap1\n      return\n        /* \"contracts/RNNManager.sol\":6021:6383  function addAudit(address _audit_address) public only_owner returns (string memory) {... */\n    tag_11:\n      tag_59\n      0x04\n      dup1\n      calldatasize\n      sub\n      dup2\n      add\n      swap1\n      tag_60\n      swap2\n      swap1\n      tag_24\n      jump\t// in\n    tag_60:\n      tag_61\n      jump\t// in\n    tag_59:\n      mload(0x40)\n      tag_62\n      swap2\n      swap1\n      tag_27\n      jump\t// in\n    tag_62:\n      mload(0x40)\n      dup1\n      swap2\n      sub\n      swap1\n      return\n        /* \"contracts/RNNManager.sol\":4114:5026  function start_visit(uint _time) public only_owner returns (address){... */\n    tag_12:\n      tag_63\n      0x04\n      dup1\n      calldatasize\n      sub\n      dup2\n      add\n      swap1\n      tag_64\n      swap2\n      swap1\n      tag_65\n      jump\t// in\n    tag_64:\n      tag_66\n      jump\t// in\n    tag_63:\n      mload(0x40)\n      tag_67\n      swap2\n      swap1\n      tag_68\n      jump\t// in\n    tag_67:\n      mload(0x40)\n      dup1\n      swap2\n      sub\n      swap1\n      return\n        /* \"contracts/RNNManager.sol\":11339:12098  function doctor_query_record(address _unique_id) public returns (string memory){... */\n    tag_13:\n      tag_69\n      0x04\n      dup1\n      calldatasize\n      sub\n      dup2\n      add\n      swap1\n      tag_70\n      swap2\n      swap1\n      tag_24\n      jump\t// in\n    tag_70:\n      tag_71\n      jump\t// in\n    tag_69:\n      mload(0x40)\n      tag_72\n      swap2\n      swap1\n      tag_27\n      jump\t// in\n    tag_72:\n      mload(0x40)\n      dup1\n      swap2\n      sub\n      swap1\n      return\n        /* \"contracts/RNNManager.sol\":10532:11291  function doctor_print_record(address _unique_id) public returns (string memory){... */\n    tag_14:\n      tag_73\n      0x04\n      dup1\n      calldatasize\n      sub\n      dup2\n      add\n      swap1\n      tag_74\n      swap2\n      swap1\n      tag_24\n      jump\t// in\n    tag_74:\n      tag_75\n      jump\t// in\n    tag_73:\n      mload(0x40)\n      tag_76\n      swap2\n      swap1\n      tag_27\n      jump\t// in\n    tag_76:\n      mload(0x40)\n      dup1\n      swap2\n      sub\n      swap1\n      return\n        /* \"contracts/RNNManager.sol\":6460:6825  function removeAudit(address _audit_address) public only_owner returns (string memory) {... */\n    tag_15:\n      tag_77\n      0x04\n      dup1\n      calldatasize\n      sub\n      dup2\n      add\n      swap1\n      tag_78\n      swap2\n      swap1\n      tag_24\n      jump\t// in\n    tag_78:\n      tag_79\n      jump\t// in\n    tag_77:\n      mload(0x40)\n      tag_80\n      swap2\n      swap1\n      tag_27\n      jump\t// in\n    tag_80:\n      mload(0x40)\n      dup1\n      swap2\n      sub\n      swap1\n      return\n        /* \"contracts/RNNManager.sol\":5095:5466  function addDoctors(address _doctor_address) public only_owner returns (string memory) {... */\n    tag_16:\n      tag_81\n      0x04\n      dup1\n      calldatasize\n      sub\n      dup2\n      add\n      swap1\n      tag_82\n      swap2\n      swap1\n      tag_24\n      jump\t// in\n    tag_82:\n      tag_83\n      jump\t// in\n    tag_81:\n      mload(0x40)\n      tag_84\n      swap2\n      swap1\n      tag_27\n      jump\t// in\n    tag_84:\n      mload(0x40)\n      dup1\n      swap2\n      sub\n      swap1\n      return\n        /* \"contracts/RNNManager.sol\":12145:12938  function doctor_copy_record(address _unique_id) public returns (string memory){... */\n    tag_17:\n      tag_85\n      0x04\n      dup1\n      calldatasize\n      sub\n      dup2\n      add\n      swap1\n      tag_86\n      swap2\n      swap1\n      tag_24\n      jump\t// in\n    tag_86:\n      tag_87\n      jump\t// in\n    tag_85:\n      mload(0x40)\n      tag_88\n      swap2\n      swap1\n      tag_27\n      jump\t// in\n    tag_88:\n      mload(0x40)\n      dup1\n      swap2\n      sub\n      swap1\n      return\n        /* \"contracts/RNNManager.sol\":8868:9601  function print_record(address _unique_id) public returns (string memory){... */\n    tag_18:\n      tag_89\n      0x04\n      dup1\n      calldatasize\n      sub\n      dup2\n      add\n      swap1\n      tag_90\n      swap2\n      swap1\n      tag_24\n      jump\t// in\n    tag_90:\n      tag_91\n      jump\t// in\n    tag_89:\n      mload(0x40)\n      tag_92\n      swap2\n      swap1\n      tag_27\n      jump\t// in\n    tag_92:\n      mload(0x40)\n      dup1\n      swap2\n      sub\n      swap1\n      return\n        /* \"contracts/RNNManager.sol\":6946:7774  function get_record_details(address _unique_id) view public returns (string memory) {... */\n    tag_25:\n        /* \"contracts/RNNManager.sol\":7015:7028  string memory */\n      0x60\n        /* \"contracts/RNNManager.sol\":7096:7100  true */\n      0x01\n        /* \"contracts/RNNManager.sol\":7049:7100  record_mapping[_unique_id].is_uid_generated == true */\n      iszero\n      iszero\n        /* \"contracts/RNNManager.sol\":7049:7063  record_mapping */\n      0x0a\n        /* \"contracts/RNNManager.sol\":7049:7075  record_mapping[_unique_id] */\n      0x00\n        /* \"contracts/RNNManager.sol\":7064:7074  _unique_id */\n      dup5\n        /* \"contracts/RNNManager.sol\":7049:7075  record_mapping[_unique_id] */\n      0xffffffffffffffffffffffffffffffffffffffff\n      and\n      0xffffffffffffffffffffffffffffffffffffffff\n      and\n      dup2\n      mstore\n      0x20\n      add\n      swap1\n      dup2\n      mstore\n      0x20\n      add\n      0x00\n      keccak256\n        /* \"contracts/RNNManager.sol\":7049:7092  record_mapping[_unique_id].is_uid_generated */\n      0x00\n      add\n      0x00\n      swap1\n      sload\n      swap1\n      0x0100\n      exp\n      swap1\n      div\n      0xff\n      and\n        /* \"contracts/RNNManager.sol\":7049:7100  record_mapping[_unique_id].is_uid_generated == true */\n      iszero\n      iszero\n      eq\n        /* \"contracts/RNNManager.sol\":7041:7101  require(record_mapping[_unique_id].is_uid_generated == true) */\n      tag_94\n      jumpi\n      0x00\n      dup1\n      revert\n    tag_94:\n        /* \"contracts/RNNManager.sol\":7162:7163  1 */\n      0x01\n        /* \"contracts/RNNManager.sol\":7120:7134  record_mapping */\n      0x0a\n        /* \"contracts/RNNManager.sol\":7120:7146  record_mapping[_unique_id] */\n      0x00\n        /* \"contracts/RNNManager.sol\":7135:7145  _unique_id */\n      dup5\n        /* \"contracts/RNNManager.sol\":7120:7146  record_mapping[_unique_id] */\n      0xffffffffffffffffffffffffffffffffffffffff\n      and\n      0xffffffffffffffffffffffffffffffffffffffff\n      and\n      dup2\n      mstore\n      0x20\n      add\n      swap1\n      dup2\n      mstore\n      0x20\n      add\n      0x00\n      keccak256\n        /* \"contracts/RNNManager.sol\":7120:7160  record_mapping[_unique_id].record_status */\n      0x03\n      add\n      sload\n        /* \"contracts/RNNManager.sol\":7120:7163  record_mapping[_unique_id].record_status!=1 */\n      sub\n        /* \"contracts/RNNManager.sol\":7112:7164  require(record_mapping[_unique_id].record_status!=1) */\n      tag_95\n      jumpi\n      0x00\n      dup1\n      revert\n    tag_95:\n        /* \"contracts/RNNManager.sol\":7224:7234  msg.sender */\n      caller\n        /* \"contracts/RNNManager.sol\":7178:7234  record_mapping[_unique_id].patient_address == msg.sender */\n      0xffffffffffffffffffffffffffffffffffffffff\n      and\n        /* \"contracts/RNNManager.sol\":7178:7192  record_mapping */\n      0x0a\n        /* \"contracts/RNNManager.sol\":7178:7204  record_mapping[_unique_id] */\n      0x00\n        /* \"contracts/RNNManager.sol\":7193:7203  _unique_id */\n      dup5\n        /* \"contracts/RNNManager.sol\":7178:7204  record_mapping[_unique_id] */\n      0xffffffffffffffffffffffffffffffffffffffff\n      and\n      0xffffffffffffffffffffffffffffffffffffffff\n      and\n      dup2\n      mstore\n      0x20\n      add\n      swap1\n      dup2\n      mstore\n      0x20\n      add\n      0x00\n      keccak256\n        /* \"contracts/RNNManager.sol\":7178:7220  record_mapping[_unique_id].patient_address */\n      0x05\n      add\n      0x00\n      swap1\n      sload\n      swap1\n      0x0100\n      exp\n      swap1\n      div\n      0xffffffffffffffffffffffffffffffffffffffff\n      and\n        /* \"contracts/RNNManager.sol\":7178:7234  record_mapping[_unique_id].patient_address == msg.sender */\n      0xffffffffffffffffffffffffffffffffffffffff\n      and\n      sub\n        /* \"contracts/RNNManager.sol\":7175:7390  if(record_mapping[_unique_id].patient_address == msg.sender){... */\n      tag_96\n      jumpi\n        /* \"contracts/RNNManager.sol\":7304:7314  msg.sender */\n      caller\n        /* \"contracts/RNNManager.sol\":7258:7314  record_mapping[_unique_id].patient_address == msg.sender */\n      0xffffffffffffffffffffffffffffffffffffffff\n      and\n        /* \"contracts/RNNManager.sol\":7258:7272  record_mapping */\n      0x0a\n        /* \"contracts/RNNManager.sol\":7258:7284  record_mapping[_unique_id] */\n      0x00\n        /* \"contracts/RNNManager.sol\":7273:7283  _unique_id */\n      dup5\n        /* \"contracts/RNNManager.sol\":7258:7284  record_mapping[_unique_id] */\n      0xffffffffffffffffffffffffffffffffffffffff\n      and\n      0xffffffffffffffffffffffffffffffffffffffff\n      and\n      dup2\n      mstore\n      0x20\n      add\n      swap1\n      dup2\n      mstore\n      0x20\n      add\n      0x00\n      keccak256\n        /* \"contracts/RNNManager.sol\":7258:7300  record_mapping[_unique_id].patient_address */\n      0x05\n      add\n      0x00\n      swap1\n      sload\n      swap1\n      0x0100\n      exp\n      swap1\n      div\n      0xffffffffffffffffffffffffffffffffffffffff\n      and\n        /* \"contracts/RNNManager.sol\":7258:7314  record_mapping[_unique_id].patient_address == msg.sender */\n      0xffffffffffffffffffffffffffffffffffffffff\n      and\n      eq\n        /* \"contracts/RNNManager.sol\":7250:7315  require(record_mapping[_unique_id].patient_address == msg.sender) */\n      tag_97\n      jumpi\n      0x00\n      dup1\n      revert\n    tag_97:\n        /* \"contracts/RNNManager.sol\":7337:7351  record_mapping */\n      0x0a\n        /* \"contracts/RNNManager.sol\":7337:7363  record_mapping[_unique_id] */\n      0x00\n        /* \"contracts/RNNManager.sol\":7352:7362  _unique_id */\n      dup4\n        /* \"contracts/RNNManager.sol\":7337:7363  record_mapping[_unique_id] */\n      0xffffffffffffffffffffffffffffffffffffffff\n      and\n      0xffffffffffffffffffffffffffffffffffffffff\n      and\n      dup2\n      mstore\n      0x20\n      add\n      swap1\n      dup2\n      mstore\n      0x20\n      add\n      0x00\n      keccak256\n        /* \"contracts/RNNManager.sol\":7337:7378  record_mapping[_unique_id].record_details */\n      0x04\n      add\n        /* \"contracts/RNNManager.sol\":7330:7378  return record_mapping[_unique_id].record_details */\n      dup1\n      sload\n      tag_98\n      swap1\n      tag_99\n      jump\t// in\n    tag_98:\n      dup1\n      0x1f\n      add\n      0x20\n      dup1\n      swap2\n      div\n      mul\n      0x20\n      add\n      mload(0x40)\n      swap1\n      dup2\n      add\n      0x40\n      mstore\n      dup1\n      swap3\n      swap2\n      swap1\n      dup2\n      dup2\n      mstore\n      0x20\n      add\n      dup3\n      dup1\n      sload\n      tag_100\n      swap1\n      tag_99\n      jump\t// in\n    tag_100:\n      dup1\n      iszero\n      tag_101\n      jumpi\n      dup1\n      0x1f\n      lt\n      tag_102\n      jumpi\n      0x0100\n      dup1\n      dup4\n      sload\n      div\n      mul\n      dup4\n      mstore\n      swap2\n      0x20\n      add\n      swap2\n      jump(tag_101)\n    tag_102:\n      dup3\n      add\n      swap2\n      swap1\n      0x00\n      mstore\n      keccak256(0x00, 0x20)\n      swap1\n    tag_103:\n      dup2\n      sload\n      dup2\n      mstore\n      swap1\n      0x01\n      add\n      swap1\n      0x20\n      add\n      dup1\n      dup4\n      gt\n      tag_103\n      jumpi\n      dup3\n      swap1\n      sub\n      0x1f\n      and\n      dup3\n      add\n      swap2\n    tag_101:\n      pop\n      pop\n      pop\n      pop\n      pop\n      swap1\n      pop\n      jump(tag_93)\n        /* \"contracts/RNNManager.sol\":7175:7390  if(record_mapping[_unique_id].patient_address == msg.sender){... */\n    tag_96:\n        /* \"contracts/RNNManager.sol\":7403:7410  doctors */\n      0x0b\n        /* \"contracts/RNNManager.sol\":7403:7422  doctors[msg.sender] */\n      0x00\n        /* \"contracts/RNNManager.sol\":7411:7421  msg.sender */\n      caller\n        /* \"contracts/RNNManager.sol\":7403:7422  doctors[msg.sender] */\n      0xffffffffffffffffffffffffffffffffffffffff\n      and\n      0xffffffffffffffffffffffffffffffffffffffff\n      and\n      dup2\n      mstore\n      0x20\n      add\n      swap1\n      dup2\n      mstore\n      0x20\n      add\n      0x00\n      keccak256\n      0x00\n      swap1\n      sload\n      swap1\n      0x0100\n      exp\n      swap1\n      div\n      0xff\n      and\n        /* \"contracts/RNNManager.sol\":7400:7556  if(doctors[msg.sender]){... */\n      iszero\n      tag_104\n      jumpi\n        /* \"contracts/RNNManager.sol\":7446:7453  doctors */\n      0x0b\n        /* \"contracts/RNNManager.sol\":7446:7465  doctors[msg.sender] */\n      0x00\n        /* \"contracts/RNNManager.sol\":7454:7464  msg.sender */\n      caller\n        /* \"contracts/RNNManager.sol\":7446:7465  doctors[msg.sender] */\n      0xffffffffffffffffffffffffffffffffffffffff\n      and\n      0xffffffffffffffffffffffffffffffffffffffff\n      and\n      dup2\n      mstore\n      0x20\n      add\n      swap1\n      dup2\n      mstore\n      0x20\n      add\n      0x00\n      keccak256\n      0x00\n      swap1\n      sload\n      swap1\n      0x0100\n      exp\n      swap1\n      div\n      0xff\n      and\n        /* \"contracts/RNNManager.sol\":7438:7481  require(doctors[msg.sender], \"Not working\") */\n      tag_105\n      jumpi\n      mload(0x40)\n      0x08c379a000000000000000000000000000000000000000000000000000000000\n      dup2\n      mstore\n      0x04\n      add\n      tag_106\n      swap1\n      tag_107\n      jump\t// in\n    tag_106:\n      mload(0x40)\n      dup1\n      swap2\n      sub\n      swap1\n      revert\n    tag_105:\n        /* \"contracts/RNNManager.sol\":7503:7517  record_mapping */\n      0x0a\n        /* \"contracts/RNNManager.sol\":7503:7529  record_mapping[_unique_id] */\n      0x00\n        /* \"contracts/RNNManager.sol\":7518:7528  _unique_id */\n      dup4\n        /* \"contracts/RNNManager.sol\":7503:7529  record_mapping[_unique_id] */\n      0xffffffffffffffffffffffffffffffffffffffff\n      and\n      0xffffffffffffffffffffffffffffffffffffffff\n      and\n      dup2\n      mstore\n      0x20\n      add\n      swap1\n      dup2\n      mstore\n      0x20\n      add\n      0x00\n      keccak256\n        /* \"contracts/RNNManager.sol\":7503:7544  record_mapping[_unique_id].record_details */\n      0x04\n      add\n        /* \"contracts/RNNManager.sol\":7496:7544  return record_mapping[_unique_id].record_details */\n      dup1\n      sload\n      tag_108\n      swap1\n      tag_99\n      jump\t// in\n    tag_108:\n      dup1\n      0x1f\n      add\n      0x20\n      dup1\n      swap2\n      div\n      mul\n      0x20\n      add\n      mload(0x40)\n      swap1\n      dup2\n      add\n      0x40\n      mstore\n      dup1\n      swap3\n      swap2\n      swap1\n      dup2\n      dup2\n      mstore\n      0x20\n      add\n      dup3\n      dup1\n      sload\n      tag_109\n      swap1\n      tag_99\n      jump\t// in\n    tag_109:\n      dup1\n      iszero\n      tag_110\n      jumpi\n      dup1\n      0x1f\n      lt\n      tag_111\n      jumpi\n      0x0100\n      dup1\n      dup4\n      sload\n      div\n      mul\n      dup4\n      mstore\n      swap2\n      0x20\n      add\n      swap2\n      jump(tag_110)\n    tag_111:\n      dup3\n      add\n      swap2\n      swap1\n      0x00\n      mstore\n      keccak256(0x00, 0x20)\n      swap1\n    tag_112:\n      dup2\n      sload\n      dup2\n      mstore\n      swap1\n      0x01\n      add\n      swap1\n      0x20\n      add\n      dup1\n      dup4\n      gt\n      tag_112\n      jumpi\n      dup3\n      swap1\n      sub\n      0x1f\n      and\n      dup3\n      add\n      swap2\n    tag_110:\n      pop\n      pop\n      pop\n      pop\n      pop\n      swap1\n      pop\n      jump(tag_93)\n        /* \"contracts/RNNManager.sol\":7400:7556  if(doctors[msg.sender]){... */\n    tag_104:\n        /* \"contracts/RNNManager.sol\":7570:7576  audits */\n      0x0c\n        /* \"contracts/RNNManager.sol\":7570:7588  audits[msg.sender] */\n      0x00\n        /* \"contracts/RNNManager.sol\":7577:7587  msg.sender */\n      caller\n        /* \"contracts/RNNManager.sol\":7570:7588  audits[msg.sender] */\n      0xffffffffffffffffffffffffffffffffffffffff\n      and\n      0xffffffffffffffffffffffffffffffffffffffff\n      and\n      dup2\n      mstore\n      0x20\n      add\n      swap1\n      dup2\n      mstore\n      0x20\n      add\n      0x00\n      keccak256\n      0x00\n      swap1\n      sload\n      swap1\n      0x0100\n      exp\n      swap1\n      div\n      0xff\n      and\n        /* \"contracts/RNNManager.sol\":7567:7721  if(audits[msg.sender]){... */\n      iszero\n      tag_113\n      jumpi\n        /* \"contracts/RNNManager.sol\":7612:7618  audits */\n      0x0c\n        /* \"contracts/RNNManager.sol\":7612:7630  audits[msg.sender] */\n      0x00\n        /* \"contracts/RNNManager.sol\":7619:7629  msg.sender */\n      caller\n        /* \"contracts/RNNManager.sol\":7612:7630  audits[msg.sender] */\n      0xffffffffffffffffffffffffffffffffffffffff\n      and\n      0xffffffffffffffffffffffffffffffffffffffff\n      and\n      dup2\n      mstore\n      0x20\n      add\n      swap1\n      dup2\n      mstore\n      0x20\n      add\n      0x00\n      keccak256\n      0x00\n      swap1\n      sload\n      swap1\n      0x0100\n      exp\n      swap1\n      div\n      0xff\n      and\n        /* \"contracts/RNNManager.sol\":7604:7646  require(audits[msg.sender], \"Not working\") */\n      tag_114\n      jumpi\n      mload(0x40)\n      0x08c379a000000000000000000000000000000000000000000000000000000000\n      dup2\n      mstore\n      0x04\n      add\n      tag_115\n      swap1\n      tag_107\n      jump\t// in\n    tag_115:\n      mload(0x40)\n      dup1\n      swap2\n      sub\n      swap1\n      revert\n    tag_114:\n        /* \"contracts/RNNManager.sol\":7668:7682  record_mapping */\n      0x0a\n        /* \"contracts/RNNManager.sol\":7668:7694  record_mapping[_unique_id] */\n      0x00\n        /* \"contracts/RNNManager.sol\":7683:7693  _unique_id */\n      dup4\n        /* \"contracts/RNNManager.sol\":7668:7694  record_mapping[_unique_id] */\n      0xffffffffffffffffffffffffffffffffffffffff\n      and\n      0xffffffffffffffffffffffffffffffffffffffff\n      and\n      dup2\n      mstore\n      0x20\n      add\n      swap1\n      dup2\n      mstore\n      0x20\n      add\n      0x00\n      keccak256\n        /* \"contracts/RNNManager.sol\":7668:7709  record_mapping[_unique_id].record_details */\n      0x04\n      add\n        /* \"contracts/RNNManager.sol\":7661:7709  return record_mapping[_unique_id].record_details */\n      dup1\n      sload\n      tag_116\n      swap1\n      tag_99\n      jump\t// in\n    tag_116:\n      dup1\n      0x1f\n      add\n      0x20\n      dup1\n      swap2\n      div\n      mul\n      0x20\n      add\n      mload(0x40)\n      swap1\n      dup2\n      add\n      0x40\n      mstore\n      dup1\n      swap3\n      swap2\n      swap1\n      dup2\n      dup2\n      mstore\n      0x20\n      add\n      dup3\n      dup1\n      sload\n      tag_117\n      swap1\n      tag_99\n      jump\t// in\n    tag_117:\n      dup1\n      iszero\n      tag_118\n      jumpi\n      dup1\n      0x1f\n      lt\n      tag_119\n      jumpi\n      0x0100\n      dup1\n      dup4\n      sload\n      div\n      mul\n      dup4\n      mstore\n      swap2\n      0x20\n      add\n      swap2\n      jump(tag_118)\n    tag_119:\n      dup3\n      add\n      swap2\n      swap1\n      0x00\n      mstore\n      keccak256(0x00, 0x20)\n      swap1\n    tag_120:\n      dup2\n      sload\n      dup2\n      mstore\n      swap1\n      0x01\n      add\n      swap1\n      0x20\n      add\n      dup1\n      dup4\n      gt\n      tag_120\n      jumpi\n      dup3\n      swap1\n      sub\n      0x1f\n      and\n      dup3\n      add\n      swap2\n    tag_118:\n      pop\n      pop\n      pop\n      pop\n      pop\n      swap1\n      pop\n      jump(tag_93)\n        /* \"contracts/RNNManager.sol\":7567:7721  if(audits[msg.sender]){... */\n    tag_113:\n        /* \"contracts/RNNManager.sol\":7731:7766  return \"You have no authorization.\" */\n      mload(0x40)\n      dup1\n      0x40\n      add\n      0x40\n      mstore\n      dup1\n      0x1a\n      dup2\n      mstore\n      0x20\n      add\n      0x596f752068617665206e6f20617574686f72697a6174696f6e2e000000000000\n      dup2\n      mstore\n      pop\n      swap1\n      pop\n        /* \"contracts/RNNManager.sol\":6946:7774  function get_record_details(address _unique_id) view public returns (string memory) {... */\n    tag_93:\n      swap2\n      swap1\n      pop\n      jump\t// out\n        /* \"contracts/RNNManager.sol\":1249:1306  mapping (address => medical_record) public record_mapping */\n    tag_30:\n      mstore(0x20, 0x0a)\n      dup1\n      0x00\n      mstore\n      keccak256(0x00, 0x40)\n      0x00\n      swap2\n      pop\n      swap1\n      pop\n      dup1\n      0x00\n      add\n      0x00\n      swap1\n      sload\n      swap1\n      0x0100\n      exp\n      swap1\n      div\n      0xff\n      and\n      swap1\n      dup1\n      0x01\n      add\n      sload\n      swap1\n      dup1\n      0x02\n      add\n      dup1\n      sload\n      tag_121\n      swap1\n      tag_99\n      jump\t// in\n    tag_121:\n      dup1\n      0x1f\n      add\n      0x20\n      dup1\n      swap2\n      div\n      mul\n      0x20\n      add\n      mload(0x40)\n      swap1\n      dup2\n      add\n      0x40\n      mstore\n      dup1\n      swap3\n      swap2\n      swap1\n      dup2\n      dup2\n      mstore\n      0x20\n      add\n      dup3\n      dup1\n      sload\n      tag_122\n      swap1\n      tag_99\n      jump\t// in\n    tag_122:\n      dup1\n      iszero\n      tag_123\n      jumpi\n      dup1\n      0x1f\n      lt\n      tag_124\n      jumpi\n      0x0100\n      dup1\n      dup4\n      sload\n      div\n      mul\n      dup4\n      mstore\n      swap2\n      0x20\n      add\n      swap2\n      jump(tag_123)\n    tag_124:\n      dup3\n      add\n      swap2\n      swap1\n      0x00\n      mstore\n      keccak256(0x00, 0x20)\n      swap1\n    tag_125:\n      dup2\n      sload\n      dup2\n      mstore\n      swap1\n      0x01\n      add\n      swap1\n      0x20\n      add\n      dup1\n      dup4\n      gt\n      tag_125\n      jumpi\n      dup3\n      swap1\n      sub\n      0x1f\n      and\n      dup3\n      add\n      swap2\n    tag_123:\n      pop\n      pop\n      pop\n      pop\n      pop\n      swap1\n      dup1\n      0x03\n      add\n      sload\n      swap1\n      dup1\n      0x04\n      add\n      dup1\n      sload\n      tag_126\n      swap1\n      tag_99\n      jump\t// in\n    tag_126:\n      dup1\n      0x1f\n      add\n      0x20\n      dup1\n      swap2\n      div\n      mul\n      0x20\n      add\n      mload(0x40)\n      swap1\n      dup2\n      add\n      0x40\n      mstore\n      dup1\n      swap3\n      swap2\n      swap1\n      dup2\n      dup2\n      mstore\n      0x20\n      add\n      dup3\n      dup1\n      sload\n      tag_127\n      swap1\n      tag_99\n      jump\t// in\n    tag_127:\n      dup1\n      iszero\n      tag_128\n      jumpi\n      dup1\n      0x1f\n      lt\n      tag_129\n      jumpi\n      0x0100\n      dup1\n      dup4\n      sload\n      div\n      mul\n      dup4\n      mstore\n      swap2\n      0x20\n      add\n      swap2\n      jump(tag_128)\n    tag_129:\n      dup3\n      add\n      swap2\n      swap1\n      0x00\n      mstore\n      keccak256(0x00, 0x20)\n      swap1\n    tag_130:\n      dup2\n      sload\n      dup2\n      mstore\n      swap1\n      0x01\n      add\n      swap1\n      0x20\n      add\n      dup1\n      dup4\n      gt\n      tag_130\n      jumpi\n      dup3\n      swap1\n      sub\n      0x1f\n      and\n      dup3\n      add\n      swap2\n    tag_128:\n      pop\n      pop\n      pop\n      pop\n      pop\n      swap1\n      dup1\n      0x05\n      add\n      0x00\n      swap1\n      sload\n      swap1\n      0x0100\n      exp\n      swap1\n      div\n      0xffffffffffffffffffffffffffffffffffffffff\n      and\n      swap1\n      dup1\n      0x06\n      add\n      sload\n      swap1\n      dup1\n      0x07\n      add\n      0x00\n      swap1\n      sload\n      swap1\n      0x0100\n      exp\n      swap1\n      div\n      0xffffffffffffffffffffffffffffffffffffffff\n      and\n      swap1\n      dup1\n      0x08\n      add\n      sload\n      swap1\n      dup1\n      0x09\n      add\n      0x00\n      swap1\n      sload\n      swap1\n      0x0100\n      exp\n      swap1\n      div\n      0xffffffffffffffffffffffffffffffffffffffff\n      and\n      swap1\n      dup1\n      0x0a\n      add\n      sload\n      swap1\n      pop\n      dup12\n      jump\t// out\n        /* \"contracts/RNNManager.sol\":9665:10483  function doctor_delete_record(address _unique_id) public returns (string memory){... */\n    tag_35:\n        /* \"contracts/RNNManager.sol\":9731:9744  string memory */\n      0x60\n        /* \"contracts/RNNManager.sol\":9764:9778  record_mapping */\n      0x0a\n        /* \"contracts/RNNManager.sol\":9764:9790  record_mapping[_unique_id] */\n      0x00\n        /* \"contracts/RNNManager.sol\":9779:9789  _unique_id */\n      dup4\n        /* \"contracts/RNNManager.sol\":9764:9790  record_mapping[_unique_id] */\n      0xffffffffffffffffffffffffffffffffffffffff\n      and\n      0xffffffffffffffffffffffffffffffffffffffff\n      and\n      dup2\n      mstore\n      0x20\n      add\n      swap1\n      dup2\n      mstore\n      0x20\n      add\n      0x00\n      keccak256\n        /* \"contracts/RNNManager.sol\":9764:9807  record_mapping[_unique_id].is_uid_generated */\n      0x00\n      add\n      0x00\n      swap1\n      sload\n      swap1\n      0x0100\n      exp\n      swap1\n      div\n      0xff\n      and\n        /* \"contracts/RNNManager.sol\":9756:9808  require(record_mapping[_unique_id].is_uid_generated) */\n      tag_132\n      jumpi\n      0x00\n      dup1\n      revert\n    tag_132:\n        /* \"contracts/RNNManager.sol\":9827:9834  doctors */\n      0x0b\n        /* \"contracts/RNNManager.sol\":9827:9846  doctors[msg.sender] */\n      0x00\n        /* \"contracts/RNNManager.sol\":9835:9845  msg.sender */\n      caller\n        /* \"contracts/RNNManager.sol\":9827:9846  doctors[msg.sender] */\n      0xffffffffffffffffffffffffffffffffffffffff\n      and\n      0xffffffffffffffffffffffffffffffffffffffff\n      and\n      dup2\n      mstore\n      0x20\n      add\n      swap1\n      dup2\n      mstore\n      0x20\n      add\n      0x00\n      keccak256\n      0x00\n      swap1\n      sload\n      swap1\n      0x0100\n      exp\n      swap1\n      div\n      0xff\n      and\n        /* \"contracts/RNNManager.sol\":9819:9847  require(doctors[msg.sender]) */\n      tag_133\n      jumpi\n      0x00\n      dup1\n      revert\n    tag_133:\n        /* \"contracts/RNNManager.sol\":9908:9909  1 */\n      0x01\n        /* \"contracts/RNNManager.sol\":9866:9880  record_mapping */\n      0x0a\n        /* \"contracts/RNNManager.sol\":9866:9892  record_mapping[_unique_id] */\n      0x00\n        /* \"contracts/RNNManager.sol\":9881:9891  _unique_id */\n      dup5\n        /* \"contracts/RNNManager.sol\":9866:9892  record_mapping[_unique_id] */\n      0xffffffffffffffffffffffffffffffffffffffff\n      and\n      0xffffffffffffffffffffffffffffffffffffffff\n      and\n      dup2\n      mstore\n      0x20\n      add\n      swap1\n      dup2\n      mstore\n      0x20\n      add\n      0x00\n      keccak256\n        /* \"contracts/RNNManager.sol\":9866:9906  record_mapping[_unique_id].record_status */\n      0x03\n      add\n      sload\n        /* \"contracts/RNNManager.sol\":9866:9909  record_mapping[_unique_id].record_status!=1 */\n      sub\n        /* \"contracts/RNNManager.sol\":9858:9910  require(record_mapping[_unique_id].record_status!=1) */\n      tag_134\n      jumpi\n      0x00\n      dup1\n      revert\n    tag_134:\n        /* \"contracts/RNNManager.sol\":9963:9973  msg.sender */\n      caller\n        /* \"contracts/RNNManager.sol\":9927:9941  record_mapping */\n      0x0a\n        /* \"contracts/RNNManager.sol\":9927:9953  record_mapping[_unique_id] */\n      0x00\n        /* \"contracts/RNNManager.sol\":9942:9952  _unique_id */\n      dup5\n        /* \"contracts/RNNManager.sol\":9927:9953  record_mapping[_unique_id] */\n      0xffffffffffffffffffffffffffffffffffffffff\n      and\n      0xffffffffffffffffffffffffffffffffffffffff\n      and\n      dup2\n      mstore\n      0x20\n      add\n      swap1\n      dup2\n      mstore\n      0x20\n      add\n      0x00\n      keccak256\n        /* \"contracts/RNNManager.sol\":9927:9960  record_mapping[_unique_id].doctor */\n      0x07\n      add\n      0x00\n        /* \"contracts/RNNManager.sol\":9927:9973  record_mapping[_unique_id].doctor = msg.sender */\n      0x0100\n      exp\n      dup2\n      sload\n      dup2\n      0xffffffffffffffffffffffffffffffffffffffff\n      mul\n      not\n      and\n      swap1\n      dup4\n      0xffffffffffffffffffffffffffffffffffffffff\n      and\n      mul\n      or\n      swap1\n      sstore\n      pop\n        /* \"contracts/RNNManager.sol\":10025:10040  block.timestamp */\n      timestamp\n        /* \"contracts/RNNManager.sol\":9984:9998  record_mapping */\n      0x0a\n        /* \"contracts/RNNManager.sol\":9984:10010  record_mapping[_unique_id] */\n      0x00\n        /* \"contracts/RNNManager.sol\":9999:10009  _unique_id */\n      dup5\n        /* \"contracts/RNNManager.sol\":9984:10010  record_mapping[_unique_id] */\n      0xffffffffffffffffffffffffffffffffffffffff\n      and\n      0xffffffffffffffffffffffffffffffffffffffff\n      and\n      dup2\n      mstore\n      0x20\n      add\n      swap1\n      dup2\n      mstore\n      0x20\n      add\n      0x00\n      keccak256\n        /* \"contracts/RNNManager.sol\":9984:10022  record_mapping[_unique_id].doctor_time */\n      0x08\n      add\n        /* \"contracts/RNNManager.sol\":9984:10040  record_mapping[_unique_id].doctor_time = block.timestamp */\n      dup2\n      swap1\n      sstore\n      pop\n        /* \"contracts/RNNManager.sol\":10061:10107  record_mapping[_unique_id].record_details = \"\" */\n      mload(0x40)\n      dup1\n      0x20\n      add\n      0x40\n      mstore\n      dup1\n      0x00\n      dup2\n      mstore\n      pop\n        /* \"contracts/RNNManager.sol\":10061:10075  record_mapping */\n      0x0a\n        /* \"contracts/RNNManager.sol\":10061:10087  record_mapping[_unique_id] */\n      0x00\n        /* \"contracts/RNNManager.sol\":10076:10086  _unique_id */\n      dup5\n        /* \"contracts/RNNManager.sol\":10061:10087  record_mapping[_unique_id] */\n      0xffffffffffffffffffffffffffffffffffffffff\n      and\n      0xffffffffffffffffffffffffffffffffffffffff\n      and\n      dup2\n      mstore\n      0x20\n      add\n      swap1\n      dup2\n      mstore\n      0x20\n      add\n      0x00\n      keccak256\n        /* \"contracts/RNNManager.sol\":10061:10102  record_mapping[_unique_id].record_details */\n      0x04\n      add\n        /* \"contracts/RNNManager.sol\":10061:10107  record_mapping[_unique_id].record_details = \"\" */\n      swap1\n      dup2\n      tag_135\n      swap2\n      swap1\n      tag_136\n      jump\t// in\n    tag_135:\n      pop\n        /* \"contracts/RNNManager.sol\":10161:10162  1 */\n      0x01\n        /* \"contracts/RNNManager.sol\":10118:10132  record_mapping */\n      0x0a\n        /* \"contracts/RNNManager.sol\":10118:10144  record_mapping[_unique_id] */\n      0x00\n        /* \"contracts/RNNManager.sol\":10133:10143  _unique_id */\n      dup5\n        /* \"contracts/RNNManager.sol\":10118:10144  record_mapping[_unique_id] */\n      0xffffffffffffffffffffffffffffffffffffffff\n      and\n      0xffffffffffffffffffffffffffffffffffffffff\n      and\n      dup2\n      mstore\n      0x20\n      add\n      swap1\n      dup2\n      mstore\n      0x20\n      add\n      0x00\n      keccak256\n        /* \"contracts/RNNManager.sol\":10118:10158  record_mapping[_unique_id].record_status */\n      0x03\n      add\n        /* \"contracts/RNNManager.sol\":10118:10162  record_mapping[_unique_id].record_status = 1 */\n      dup2\n      swap1\n      sstore\n      pop\n        /* \"contracts/RNNManager.sol\":10173:10249  record_mapping[_unique_id].record_msg = \"Record is deleted by doctor/audit.\" */\n      mload(0x40)\n      dup1\n      0x60\n      add\n      0x40\n      mstore\n      dup1\n      0x22\n      dup2\n      mstore\n      0x20\n      add\n      data_e102acbd7087c93401d8c6a9b5bbf1ae4dfc296293aff2204f4fc047b2628e40\n      0x22\n      swap2\n      codecopy\n        /* \"contracts/RNNManager.sol\":10173:10187  record_mapping */\n      0x0a\n        /* \"contracts/RNNManager.sol\":10173:10199  record_mapping[_unique_id] */\n      0x00\n        /* \"contracts/RNNManager.sol\":10188:10198  _unique_id */\n      dup5\n        /* \"contracts/RNNManager.sol\":10173:10199  record_mapping[_unique_id] */\n      0xffffffffffffffffffffffffffffffffffffffff\n      and\n      0xffffffffffffffffffffffffffffffffffffffff\n      and\n      dup2\n      mstore\n      0x20\n      add\n      swap1\n      dup2\n      mstore\n      0x20\n      add\n      0x00\n      keccak256\n        /* \"contracts/RNNManager.sol\":10173:10210  record_mapping[_unique_id].record_msg */\n      0x02\n      add\n        /* \"contracts/RNNManager.sol\":10173:10249  record_mapping[_unique_id].record_msg = \"Record is deleted by doctor/audit.\" */\n      swap1\n      dup2\n      tag_137\n      swap2\n      swap1\n      tag_136\n      jump\t// in\n    tag_137:\n      pop\n        /* \"contracts/RNNManager.sol\":10265:10455  event_doctor_delete(... */\n      0x41e7aef4a9a40592736811efa52bae55e6fd1cd88db143dc78a6370b2aac0960\n        /* \"contracts/RNNManager.sol\":10299:10313  record_mapping */\n      0x0a\n        /* \"contracts/RNNManager.sol\":10299:10325  record_mapping[_unique_id] */\n      0x00\n        /* \"contracts/RNNManager.sol\":10314:10324  _unique_id */\n      dup5\n        /* \"contracts/RNNManager.sol\":10299:10325  record_mapping[_unique_id] */\n      0xffffffffffffffffffffffffffffffffffffffff\n      and\n      0xffffffffffffffffffffffffffffffffffffffff\n      and\n      dup2\n      mstore\n      0x20\n      add\n      swap1\n      dup2\n      mstore\n      0x20\n      add\n      0x00\n      keccak256\n        /* \"contracts/RNNManager.sol\":10299:10336  record_mapping[_unique_id].record_msg */\n      0x02\n      add\n        /* \"contracts/RNNManager.sol\":10351:10365  record_mapping */\n      0x0a\n        /* \"contracts/RNNManager.sol\":10351:10377  record_mapping[_unique_id] */\n      0x00\n        /* \"contracts/RNNManager.sol\":10366:10376  _unique_id */\n      dup6\n        /* \"contracts/RNNManager.sol\":10351:10377  record_mapping[_unique_id] */\n      0xffffffffffffffffffffffffffffffffffffffff\n      and\n      0xffffffffffffffffffffffffffffffffffffffff\n      and\n      dup2\n      mstore\n      0x20\n      add\n      swap1\n      dup2\n      mstore\n      0x20\n      add\n      0x00\n      keccak256\n        /* \"contracts/RNNManager.sol\":10351:10391  record_mapping[_unique_id].record_status */\n      0x03\n      add\n      sload\n        /* \"contracts/RNNManager.sol\":10406:10420  record_mapping */\n      0x0a\n        /* \"contracts/RNNManager.sol\":10406:10432  record_mapping[_unique_id] */\n      0x00\n        /* \"contracts/RNNManager.sol\":10421:10431  _unique_id */\n      dup7\n        /* \"contracts/RNNManager.sol\":10406:10432  record_mapping[_unique_id] */\n      0xffffffffffffffffffffffffffffffffffffffff\n      and\n      0xffffffffffffffffffffffffffffffffffffffff\n      and\n      dup2\n      mstore\n      0x20\n      add\n      swap1\n      dup2\n      mstore\n      0x20\n      add\n      0x00\n      keccak256\n        /* \"contracts/RNNManager.sol\":10406:10444  record_mapping[_unique_id].record_time */\n      0x06\n      add\n      sload\n        /* \"contracts/RNNManager.sol\":10265:10455  event_doctor_delete(... */\n      mload(0x40)\n      tag_138\n      swap4\n      swap3\n      swap2\n      swap1\n      tag_139\n      jump\t// in\n    tag_138:\n      mload(0x40)\n      dup1\n      swap2\n      sub\n      swap1\n      log1\n        /* \"contracts/RNNManager.sol\":10466:10475  return \"\" */\n      mload(0x40)\n      dup1\n      0x20\n      add\n      0x40\n      mstore\n      dup1\n      0x00\n      dup2\n      mstore\n      pop\n      swap1\n      pop\n        /* \"contracts/RNNManager.sol\":9665:10483  function doctor_delete_record(address _unique_id) public returns (string memory){... */\n      swap2\n      swap1\n      pop\n      jump\t// out\n        /* \"contracts/RNNManager.sol\":5543:5917  function removeDoctors(address _doctor_address) public only_owner returns (string memory) {... */\n    tag_39:\n        /* \"contracts/RNNManager.sol\":5618:5631  string memory */\n      0x60\n        /* \"contracts/RNNManager.sol\":2210:2220  msg.sender */\n      caller\n        /* \"contracts/RNNManager.sol\":2201:2220  owner == msg.sender */\n      0xffffffffffffffffffffffffffffffffffffffff\n      and\n        /* \"contracts/RNNManager.sol\":2201:2206  owner */\n      0x00\n      dup1\n      sload\n      swap1\n      0x0100\n      exp\n      swap1\n      div\n      0xffffffffffffffffffffffffffffffffffffffff\n      and\n        /* \"contracts/RNNManager.sol\":2201:2220  owner == msg.sender */\n      0xffffffffffffffffffffffffffffffffffffffff\n      and\n      eq\n        /* \"contracts/RNNManager.sol\":2193:2221  require(owner == msg.sender) */\n      tag_141\n      jumpi\n      0x00\n      dup1\n      revert\n    tag_141:\n        /* \"contracts/RNNManager.sol\":5693:5700  doctors */\n      0x0b\n        /* \"contracts/RNNManager.sol\":5693:5717  doctors[_doctor_address] */\n      0x00\n        /* \"contracts/RNNManager.sol\":5701:5716  _doctor_address */\n      dup4\n        /* \"contracts/RNNManager.sol\":5693:5717  doctors[_doctor_address] */\n      0xffffffffffffffffffffffffffffffffffffffff\n      and\n      0xffffffffffffffffffffffffffffffffffffffff\n      and\n      dup2\n      mstore\n      0x20\n      add\n      swap1\n      dup2\n      mstore\n      0x20\n      add\n      0x00\n      keccak256\n      0x00\n      swap1\n      sload\n      swap1\n      0x0100\n      exp\n      swap1\n      div\n      0xff\n      and\n        /* \"contracts/RNNManager.sol\":5690:5777  if(doctors[_doctor_address]){... */\n      iszero\n      tag_143\n      jumpi\n        /* \"contracts/RNNManager.sol\":5760:5765  false */\n      0x00\n        /* \"contracts/RNNManager.sol\":5733:5740  doctors */\n      0x0b\n        /* \"contracts/RNNManager.sol\":5733:5757  doctors[_doctor_address] */\n      0x00\n        /* \"contracts/RNNManager.sol\":5741:5756  _doctor_address */\n      dup5\n        /* \"contracts/RNNManager.sol\":5733:5757  doctors[_doctor_address] */\n      0xffffffffffffffffffffffffffffffffffffffff\n      and\n      0xffffffffffffffffffffffffffffffffffffffff\n      and\n      dup2\n      mstore\n      0x20\n      add\n      swap1\n      dup2\n      mstore\n      0x20\n      add\n      0x00\n      keccak256\n      0x00\n        /* \"contracts/RNNManager.sol\":5733:5765  doctors[_doctor_address] = false */\n      0x0100\n      exp\n      dup2\n      sload\n      dup2\n      0xff\n      mul\n      not\n      and\n      swap1\n      dup4\n      iszero\n      iszero\n      mul\n      or\n      swap1\n      sstore\n      pop\n        /* \"contracts/RNNManager.sol\":5690:5777  if(doctors[_doctor_address]){... */\n    tag_143:\n        /* \"contracts/RNNManager.sol\":5792:5869  event_remove_doctor(\"A doctor is removed.\", _doctor_address, block.timestamp) */\n      0xd12f5594e82ad336a8fa185a7cc3aab483eddcf14e26ebc4ea81f6400b120a\n        /* \"contracts/RNNManager.sol\":5836:5851  _doctor_address */\n      dup3\n        /* \"contracts/RNNManager.sol\":5853:5868  block.timestamp */\n      timestamp\n        /* \"contracts/RNNManager.sol\":5792:5869  event_remove_doctor(\"A doctor is removed.\", _doctor_address, block.timestamp) */\n      mload(0x40)\n      tag_144\n      swap3\n      swap2\n      swap1\n      tag_145\n      jump\t// in\n    tag_144:\n      mload(0x40)\n      dup1\n      swap2\n      sub\n      swap1\n      log1\n        /* \"contracts/RNNManager.sol\":5880:5909  return \"A doctor is removed.\" */\n      mload(0x40)\n      dup1\n      0x40\n      add\n      0x40\n      mstore\n      dup1\n      0x14\n      dup2\n      mstore\n      0x20\n      add\n      0x4120646f63746f722069732072656d6f7665642e000000000000000000000000\n      dup2\n      mstore\n      pop\n      swap1\n      pop\n        /* \"contracts/RNNManager.sol\":5543:5917  function removeDoctors(address _doctor_address) public only_owner returns (string memory) {... */\n      swap2\n      swap1\n      pop\n      jump\t// out\n        /* \"contracts/RNNManager.sol\":7966:8807  function delete_record(address _unique_id) public returns (string memory){... */\n    tag_43:\n        /* \"contracts/RNNManager.sol\":8025:8038  string memory */\n      0x60\n        /* \"contracts/RNNManager.sol\":8105:8109  true */\n      0x01\n        /* \"contracts/RNNManager.sol\":8058:8109  record_mapping[_unique_id].is_uid_generated == true */\n      iszero\n      iszero\n        /* \"contracts/RNNManager.sol\":8058:8072  record_mapping */\n      0x0a\n        /* \"contracts/RNNManager.sol\":8058:8084  record_mapping[_unique_id] */\n      0x00\n        /* \"contracts/RNNManager.sol\":8073:8083  _unique_id */\n      dup5\n        /* \"contracts/RNNManager.sol\":8058:8084  record_mapping[_unique_id] */\n      0xffffffffffffffffffffffffffffffffffffffff\n      and\n      0xffffffffffffffffffffffffffffffffffffffff\n      and\n      dup2\n      mstore\n      0x20\n      add\n      swap1\n      dup2\n      mstore\n      0x20\n      add\n      0x00\n      keccak256\n        /* \"contracts/RNNManager.sol\":8058:8101  record_mapping[_unique_id].is_uid_generated */\n      0x00\n      add\n      0x00\n      swap1\n      sload\n      swap1\n      0x0100\n      exp\n      swap1\n      div\n      0xff\n      and\n        /* \"contracts/RNNManager.sol\":8058:8109  record_mapping[_unique_id].is_uid_generated == true */\n      iszero\n      iszero\n      eq\n        /* \"contracts/RNNManager.sol\":8050:8110  require(record_mapping[_unique_id].is_uid_generated == true) */\n      tag_147\n      jumpi\n      0x00\n      dup1\n      revert\n    tag_147:\n        /* \"contracts/RNNManager.sol\":8175:8185  msg.sender */\n      caller\n        /* \"contracts/RNNManager.sol\":8129:8185  record_mapping[_unique_id].patient_address == msg.sender */\n      0xffffffffffffffffffffffffffffffffffffffff\n      and\n        /* \"contracts/RNNManager.sol\":8129:8143  record_mapping */\n      0x0a\n        /* \"contracts/RNNManager.sol\":8129:8155  record_mapping[_unique_id] */\n      0x00\n        /* \"contracts/RNNManager.sol\":8144:8154  _unique_id */\n      dup5\n        /* \"contracts/RNNManager.sol\":8129:8155  record_mapping[_unique_id] */\n      0xffffffffffffffffffffffffffffffffffffffff\n      and\n      0xffffffffffffffffffffffffffffffffffffffff\n      and\n      dup2\n      mstore\n      0x20\n      add\n      swap1\n      dup2\n      mstore\n      0x20\n      add\n      0x00\n      keccak256\n        /* \"contracts/RNNManager.sol\":8129:8171  record_mapping[_unique_id].patient_address */\n      0x05\n      add\n      0x00\n      swap1\n      sload\n      swap1\n      0x0100\n      exp\n      swap1\n      div\n      0xffffffffffffffffffffffffffffffffffffffff\n      and\n        /* \"contracts/RNNManager.sol\":8129:8185  record_mapping[_unique_id].patient_address == msg.sender */\n      0xffffffffffffffffffffffffffffffffffffffff\n      and\n      eq\n        /* \"contracts/RNNManager.sol\":8121:8186  require(record_mapping[_unique_id].patient_address == msg.sender) */\n      tag_148\n      jumpi\n      0x00\n      dup1\n      revert\n    tag_148:\n        /* \"contracts/RNNManager.sol\":8247:8248  1 */\n      0x01\n        /* \"contracts/RNNManager.sol\":8205:8219  record_mapping */\n      0x0a\n        /* \"contracts/RNNManager.sol\":8205:8231  record_mapping[_unique_id] */\n      0x00\n        /* \"contracts/RNNManager.sol\":8220:8230  _unique_id */\n      dup5\n        /* \"contracts/RNNManager.sol\":8205:8231  record_mapping[_unique_id] */\n      0xffffffffffffffffffffffffffffffffffffffff\n      and\n      0xffffffffffffffffffffffffffffffffffffffff\n      and\n      dup2\n      mstore\n      0x20\n      add\n      swap1\n      dup2\n      mstore\n      0x20\n      add\n      0x00\n      keccak256\n        /* \"contracts/RNNManager.sol\":8205:8245  record_mapping[_unique_id].record_status */\n      0x03\n      add\n      sload\n        /* \"contracts/RNNManager.sol\":8205:8248  record_mapping[_unique_id].record_status!=1 */\n      sub\n        /* \"contracts/RNNManager.sol\":8197:8249  require(record_mapping[_unique_id].record_status!=1) */\n      tag_149\n      jumpi\n      0x00\n      dup1\n      revert\n    tag_149:\n        /* \"contracts/RNNManager.sol\":8271:8317  record_mapping[_unique_id].record_details = \"\" */\n      mload(0x40)\n      dup1\n      0x20\n      add\n      0x40\n      mstore\n      dup1\n      0x00\n      dup2\n      mstore\n      pop\n        /* \"contracts/RNNManager.sol\":8271:8285  record_mapping */\n      0x0a\n        /* \"contracts/RNNManager.sol\":8271:8297  record_mapping[_unique_id] */\n      0x00\n        /* \"contracts/RNNManager.sol\":8286:8296  _unique_id */\n      dup5\n        /* \"contracts/RNNManager.sol\":8271:8297  record_mapping[_unique_id] */\n      0xffffffffffffffffffffffffffffffffffffffff\n      and\n      0xffffffffffffffffffffffffffffffffffffffff\n      and\n      dup2\n      mstore\n      0x20\n      add\n      swap1\n      dup2\n      mstore\n      0x20\n      add\n      0x00\n      keccak256\n        /* \"contracts/RNNManager.sol\":8271:8312  record_mapping[_unique_id].record_details */\n      0x04\n      add\n        /* \"contracts/RNNManager.sol\":8271:8317  record_mapping[_unique_id].record_details = \"\" */\n      swap1\n      dup2\n      tag_150\n      swap2\n      swap1\n      tag_136\n      jump\t// in\n    tag_150:\n      pop\n        /* \"contracts/RNNManager.sol\":8369:8384  block.timestamp */\n      timestamp\n        /* \"contracts/RNNManager.sol\":8328:8342  record_mapping */\n      0x0a\n        /* \"contracts/RNNManager.sol\":8328:8354  record_mapping[_unique_id] */\n      0x00\n        /* \"contracts/RNNManager.sol\":8343:8353  _unique_id */\n      dup5\n        /* \"contracts/RNNManager.sol\":8328:8354  record_mapping[_unique_id] */\n      0xffffffffffffffffffffffffffffffffffffffff\n      and\n      0xffffffffffffffffffffffffffffffffffffffff\n      and\n      dup2\n      mstore\n      0x20\n      add\n      swap1\n      dup2\n      mstore\n      0x20\n      add\n      0x00\n      keccak256\n        /* \"contracts/RNNManager.sol\":8328:8366  record_mapping[_unique_id].record_time */\n      0x06\n      add\n        /* \"contracts/RNNManager.sol\":8328:8384  record_mapping[_unique_id].record_time = block.timestamp */\n      dup2\n      swap1\n      sstore\n      pop\n        /* \"contracts/RNNManager.sol\":8450:8451  1 */\n      0x01\n        /* \"contracts/RNNManager.sol\":8407:8421  record_mapping */\n      0x0a\n        /* \"contracts/RNNManager.sol\":8407:8433  record_mapping[_unique_id] */\n      0x00\n        /* \"contracts/RNNManager.sol\":8422:8432  _unique_id */\n      dup5\n        /* \"contracts/RNNManager.sol\":8407:8433  record_mapping[_unique_id] */\n      0xffffffffffffffffffffffffffffffffffffffff\n      and\n      0xffffffffffffffffffffffffffffffffffffffff\n      and\n      dup2\n      mstore\n      0x20\n      add\n      swap1\n      dup2\n      mstore\n      0x20\n      add\n      0x00\n      keccak256\n        /* \"contracts/RNNManager.sol\":8407:8447  record_mapping[_unique_id].record_status */\n      0x03\n      add\n        /* \"contracts/RNNManager.sol\":8407:8451  record_mapping[_unique_id].record_status = 1 */\n      dup2\n      swap1\n      sstore\n      pop\n        /* \"contracts/RNNManager.sol\":8462:8533  record_mapping[_unique_id].record_msg = \"Record is deleted by patient.\" */\n      mload(0x40)\n      dup1\n      0x40\n      add\n      0x40\n      mstore\n      dup1\n      0x1d\n      dup2\n      mstore\n      0x20\n      add\n      0x5265636f72642069732064656c657465642062792070617469656e742e000000\n      dup2\n      mstore\n      pop\n        /* \"contracts/RNNManager.sol\":8462:8476  record_mapping */\n      0x0a\n        /* \"contracts/RNNManager.sol\":8462:8488  record_mapping[_unique_id] */\n      0x00\n        /* \"contracts/RNNManager.sol\":8477:8487  _unique_id */\n      dup5\n        /* \"contracts/RNNManager.sol\":8462:8488  record_mapping[_unique_id] */\n      0xffffffffffffffffffffffffffffffffffffffff\n      and\n      0xffffffffffffffffffffffffffffffffffffffff\n      and\n      dup2\n      mstore\n      0x20\n      add\n      swap1\n      dup2\n      mstore\n      0x20\n      add\n      0x00\n      keccak256\n        /* \"contracts/RNNManager.sol\":8462:8499  record_mapping[_unique_id].record_msg */\n      0x02\n      add\n        /* \"contracts/RNNManager.sol\":8462:8533  record_mapping[_unique_id].record_msg = \"Record is deleted by patient.\" */\n      swap1\n      dup2\n      tag_151\n      swap2\n      swap1\n      tag_136\n      jump\t// in\n    tag_151:\n      pop\n        /* \"contracts/RNNManager.sol\":8549:8740  event_patient_delete(... */\n      0xc5451672c113180dcc201ad0122fe0677464f75276e03a264699d75d16906378\n        /* \"contracts/RNNManager.sol\":8584:8598  record_mapping */\n      0x0a\n        /* \"contracts/RNNManager.sol\":8584:8610  record_mapping[_unique_id] */\n      0x00\n        /* \"contracts/RNNManager.sol\":8599:8609  _unique_id */\n      dup5\n        /* \"contracts/RNNManager.sol\":8584:8610  record_mapping[_unique_id] */\n      0xffffffffffffffffffffffffffffffffffffffff\n      and\n      0xffffffffffffffffffffffffffffffffffffffff\n      and\n      dup2\n      mstore\n      0x20\n      add\n      swap1\n      dup2\n      mstore\n      0x20\n      add\n      0x00\n      keccak256\n        /* \"contracts/RNNManager.sol\":8584:8621  record_mapping[_unique_id].record_msg */\n      0x02\n      add\n        /* \"contracts/RNNManager.sol\":8636:8650  record_mapping */\n      0x0a\n        /* \"contracts/RNNManager.sol\":8636:8662  record_mapping[_unique_id] */\n      0x00\n        /* \"contracts/RNNManager.sol\":8651:8661  _unique_id */\n      dup6\n        /* \"contracts/RNNManager.sol\":8636:8662  record_mapping[_unique_id] */\n      0xffffffffffffffffffffffffffffffffffffffff\n      and\n      0xffffffffffffffffffffffffffffffffffffffff\n      and\n      dup2\n      mstore\n      0x20\n      add\n      swap1\n      dup2\n      mstore\n      0x20\n      add\n      0x00\n      keccak256\n        /* \"contracts/RNNManager.sol\":8636:8676  record_mapping[_unique_id].record_status */\n      0x03\n      add\n      sload\n        /* \"contracts/RNNManager.sol\":8691:8705  record_mapping */\n      0x0a\n        /* \"contracts/RNNManager.sol\":8691:8717  record_mapping[_unique_id] */\n      0x00\n        /* \"contracts/RNNManager.sol\":8706:8716  _unique_id */\n      dup7\n        /* \"contracts/RNNManager.sol\":8691:8717  record_mapping[_unique_id] */\n      0xffffffffffffffffffffffffffffffffffffffff\n      and\n      0xffffffffffffffffffffffffffffffffffffffff\n      and\n      dup2\n      mstore\n      0x20\n      add\n      swap1\n      dup2\n      mstore\n      0x20\n      add\n      0x00\n      keccak256\n        /* \"contracts/RNNManager.sol\":8691:8729  record_mapping[_unique_id].record_time */\n      0x06\n      add\n      sload\n        /* \"contracts/RNNManager.sol\":8549:8740  event_patient_delete(... */\n      mload(0x40)\n      tag_152\n      swap4\n      swap3\n      swap2\n      swap1\n      tag_139\n      jump\t// in\n    tag_152:\n      mload(0x40)\n      dup1\n      swap2\n      sub\n      swap1\n      log1\n        /* \"contracts/RNNManager.sol\":8751:8789  return \"Record is deleted by patient.\" */\n      mload(0x40)\n      dup1\n      0x40\n      add\n      0x40\n      mstore\n      dup1\n      0x1d\n      dup2\n      mstore\n      0x20\n      add\n      0x5265636f72642069732064656c657465642062792070617469656e742e000000\n      dup2\n      mstore\n      pop\n      swap1\n      pop\n        /* \"contracts/RNNManager.sol\":7966:8807  function delete_record(address _unique_id) public returns (string memory){... */\n      swap2\n      swap1\n      pop\n      jump\t// out\n        /* \"contracts/RNNManager.sol\":12988:13824  function doctor_update_record(address _unique_id, string memory _update) public returns (string memory){... */\n    tag_48:\n        /* \"contracts/RNNManager.sol\":13077:13090  string memory */\n      0x60\n        /* \"contracts/RNNManager.sol\":13110:13124  record_mapping */\n      0x0a\n        /* \"contracts/RNNManager.sol\":13110:13136  record_mapping[_unique_id] */\n      0x00\n        /* \"contracts/RNNManager.sol\":13125:13135  _unique_id */\n      dup5\n        /* \"contracts/RNNManager.sol\":13110:13136  record_mapping[_unique_id] */\n      0xffffffffffffffffffffffffffffffffffffffff\n      and\n      0xffffffffffffffffffffffffffffffffffffffff\n      and\n      dup2\n      mstore\n      0x20\n      add\n      swap1\n      dup2\n      mstore\n      0x20\n      add\n      0x00\n      keccak256\n        /* \"contracts/RNNManager.sol\":13110:13153  record_mapping[_unique_id].is_uid_generated */\n      0x00\n      add\n      0x00\n      swap1\n      sload\n      swap1\n      0x0100\n      exp\n      swap1\n      div\n      0xff\n      and\n        /* \"contracts/RNNManager.sol\":13102:13154  require(record_mapping[_unique_id].is_uid_generated) */\n      tag_154\n      jumpi\n      0x00\n      dup1\n      revert\n    tag_154:\n        /* \"contracts/RNNManager.sol\":13173:13180  doctors */\n      0x0b\n        /* \"contracts/RNNManager.sol\":13173:13192  doctors[msg.sender] */\n      0x00\n        /* \"contracts/RNNManager.sol\":13181:13191  msg.sender */\n      caller\n        /* \"contracts/RNNManager.sol\":13173:13192  doctors[msg.sender] */\n      0xffffffffffffffffffffffffffffffffffffffff\n      and\n      0xffffffffffffffffffffffffffffffffffffffff\n      and\n      dup2\n      mstore\n      0x20\n      add\n      swap1\n      dup2\n      mstore\n      0x20\n      add\n      0x00\n      keccak256\n      0x00\n      swap1\n      sload\n      swap1\n      0x0100\n      exp\n      swap1\n      div\n      0xff\n      and\n        /* \"contracts/RNNManager.sol\":13165:13193  require(doctors[msg.sender]) */\n      tag_155\n      jumpi\n      0x00\n      dup1\n      revert\n    tag_155:\n        /* \"contracts/RNNManager.sol\":13254:13255  1 */\n      0x01\n        /* \"contracts/RNNManager.sol\":13212:13226  record_mapping */\n      0x0a\n        /* \"contracts/RNNManager.sol\":13212:13238  record_mapping[_unique_id] */\n      0x00\n        /* \"contracts/RNNManager.sol\":13227:13237  _unique_id */\n      dup6\n        /* \"contracts/RNNManager.sol\":13212:13238  record_mapping[_unique_id] */\n      0xffffffffffffffffffffffffffffffffffffffff\n      and\n      0xffffffffffffffffffffffffffffffffffffffff\n      and\n      dup2\n      mstore\n      0x20\n      add\n      swap1\n      dup2\n      mstore\n      0x20\n      add\n      0x00\n      keccak256\n        /* \"contracts/RNNManager.sol\":13212:13252  record_mapping[_unique_id].record_status */\n      0x03\n      add\n      sload\n        /* \"contracts/RNNManager.sol\":13212:13255  record_mapping[_unique_id].record_status!=1 */\n      sub\n        /* \"contracts/RNNManager.sol\":13204:13256  require(record_mapping[_unique_id].record_status!=1) */\n      tag_156\n      jumpi\n      0x00\n      dup1\n      revert\n    tag_156:\n        /* \"contracts/RNNManager.sol\":13309:13319  msg.sender */\n      caller\n        /* \"contracts/RNNManager.sol\":13273:13287  record_mapping */\n      0x0a\n        /* \"contracts/RNNManager.sol\":13273:13299  record_mapping[_unique_id] */\n      0x00\n        /* \"contracts/RNNManager.sol\":13288:13298  _unique_id */\n      dup6\n        /* \"contracts/RNNManager.sol\":13273:13299  record_mapping[_unique_id] */\n      0xffffffffffffffffffffffffffffffffffffffff\n      and\n      0xffffffffffffffffffffffffffffffffffffffff\n      and\n      dup2\n      mstore\n      0x20\n      add\n      swap1\n      dup2\n      mstore\n      0x20\n      add\n      0x00\n      keccak256\n        /* \"contracts/RNNManager.sol\":13273:13306  record_mapping[_unique_id].doctor */\n      0x07\n      add\n      0x00\n        /* \"contracts/RNNManager.sol\":13273:13319  record_mapping[_unique_id].doctor = msg.sender */\n      0x0100\n      exp\n      dup2\n      sload\n      dup2\n      0xffffffffffffffffffffffffffffffffffffffff\n      mul\n      not\n      and\n      swap1\n      dup4\n      0xffffffffffffffffffffffffffffffffffffffff\n      and\n      mul\n      or\n      swap1\n      sstore\n      pop\n        /* \"contracts/RNNManager.sol\":13371:13386  block.timestamp */\n      timestamp\n        /* \"contracts/RNNManager.sol\":13330:13344  record_mapping */\n      0x0a\n        /* \"contracts/RNNManager.sol\":13330:13356  record_mapping[_unique_id] */\n      0x00\n        /* \"contracts/RNNManager.sol\":13345:13355  _unique_id */\n      dup6\n        /* \"contracts/RNNManager.sol\":13330:13356  record_mapping[_unique_id] */\n      0xffffffffffffffffffffffffffffffffffffffff\n      and\n      0xffffffffffffffffffffffffffffffffffffffff\n      and\n      dup2\n      mstore\n      0x20\n      add\n      swap1\n      dup2\n      mstore\n      0x20\n      add\n      0x00\n      keccak256\n        /* \"contracts/RNNManager.sol\":13330:13368  record_mapping[_unique_id].doctor_time */\n      0x08\n      add\n        /* \"contracts/RNNManager.sol\":13330:13386  record_mapping[_unique_id].doctor_time = block.timestamp */\n      dup2\n      swap1\n      sstore\n      pop\n        /* \"contracts/RNNManager.sol\":13441:13448  _update */\n      dup2\n        /* \"contracts/RNNManager.sol\":13397:13411  record_mapping */\n      0x0a\n        /* \"contracts/RNNManager.sol\":13397:13423  record_mapping[_unique_id] */\n      0x00\n        /* \"contracts/RNNManager.sol\":13412:13422  _unique_id */\n      dup6\n        /* \"contracts/RNNManager.sol\":13397:13423  record_mapping[_unique_id] */\n      0xffffffffffffffffffffffffffffffffffffffff\n      and\n      0xffffffffffffffffffffffffffffffffffffffff\n      and\n      dup2\n      mstore\n      0x20\n      add\n      swap1\n      dup2\n      mstore\n      0x20\n      add\n      0x00\n      keccak256\n        /* \"contracts/RNNManager.sol\":13397:13438  record_mapping[_unique_id].record_details */\n      0x04\n      add\n        /* \"contracts/RNNManager.sol\":13397:13448  record_mapping[_unique_id].record_details = _update */\n      swap1\n      dup2\n      tag_157\n      swap2\n      swap1\n      tag_136\n      jump\t// in\n    tag_157:\n      pop\n        /* \"contracts/RNNManager.sol\":13502:13503  5 */\n      0x05\n        /* \"contracts/RNNManager.sol\":13459:13473  record_mapping */\n      0x0a\n        /* \"contracts/RNNManager.sol\":13459:13485  record_mapping[_unique_id] */\n      0x00\n        /* \"contracts/RNNManager.sol\":13474:13484  _unique_id */\n      dup6\n        /* \"contracts/RNNManager.sol\":13459:13485  record_mapping[_unique_id] */\n      0xffffffffffffffffffffffffffffffffffffffff\n      and\n      0xffffffffffffffffffffffffffffffffffffffff\n      and\n      dup2\n      mstore\n      0x20\n      add\n      swap1\n      dup2\n      mstore\n      0x20\n      add\n      0x00\n      keccak256\n        /* \"contracts/RNNManager.sol\":13459:13499  record_mapping[_unique_id].record_status */\n      0x03\n      add\n        /* \"contracts/RNNManager.sol\":13459:13503  record_mapping[_unique_id].record_status = 5 */\n      dup2\n      swap1\n      sstore\n      pop\n        /* \"contracts/RNNManager.sol\":13514:13590  record_mapping[_unique_id].record_msg = \"Record is updated by doctor/audit.\" */\n      mload(0x40)\n      dup1\n      0x60\n      add\n      0x40\n      mstore\n      dup1\n      0x22\n      dup2\n      mstore\n      0x20\n      add\n      data_8ae2893cb4cf01e017397c0e83ef41a221a50089f1d558e3d312aaf17b08dafc\n      0x22\n      swap2\n      codecopy\n        /* \"contracts/RNNManager.sol\":13514:13528  record_mapping */\n      0x0a\n        /* \"contracts/RNNManager.sol\":13514:13540  record_mapping[_unique_id] */\n      0x00\n        /* \"contracts/RNNManager.sol\":13529:13539  _unique_id */\n      dup6\n        /* \"contracts/RNNManager.sol\":13514:13540  record_mapping[_unique_id] */\n      0xffffffffffffffffffffffffffffffffffffffff\n      and\n      0xffffffffffffffffffffffffffffffffffffffff\n      and\n      dup2\n      mstore\n      0x20\n      add\n      swap1\n      dup2\n      mstore\n      0x20\n      add\n      0x00\n      keccak256\n        /* \"contracts/RNNManager.sol\":13514:13551  record_mapping[_unique_id].record_msg */\n      0x02\n      add\n        /* \"contracts/RNNManager.sol\":13514:13590  record_mapping[_unique_id].record_msg = \"Record is updated by doctor/audit.\" */\n      swap1\n      dup2\n      tag_158\n      swap2\n      swap1\n      tag_136\n      jump\t// in\n    tag_158:\n      pop\n        /* \"contracts/RNNManager.sol\":13606:13796  event_doctor_update(... */\n      0x89c9a137dd6383374b8e2a092d40bc74fda69a614e9ece010b1f4eaded8f841c\n        /* \"contracts/RNNManager.sol\":13640:13654  record_mapping */\n      0x0a\n        /* \"contracts/RNNManager.sol\":13640:13666  record_mapping[_unique_id] */\n      0x00\n        /* \"contracts/RNNManager.sol\":13655:13665  _unique_id */\n      dup6\n        /* \"contracts/RNNManager.sol\":13640:13666  record_mapping[_unique_id] */\n      0xffffffffffffffffffffffffffffffffffffffff\n      and\n      0xffffffffffffffffffffffffffffffffffffffff\n      and\n      dup2\n      mstore\n      0x20\n      add\n      swap1\n      dup2\n      mstore\n      0x20\n      add\n      0x00\n      keccak256\n        /* \"contracts/RNNManager.sol\":13640:13677  record_mapping[_unique_id].record_msg */\n      0x02\n      add\n        /* \"contracts/RNNManager.sol\":13692:13706  record_mapping */\n      0x0a\n        /* \"contracts/RNNManager.sol\":13692:13718  record_mapping[_unique_id] */\n      0x00\n        /* \"contracts/RNNManager.sol\":13707:13717  _unique_id */\n      dup7\n        /* \"contracts/RNNManager.sol\":13692:13718  record_mapping[_unique_id] */\n      0xffffffffffffffffffffffffffffffffffffffff\n      and\n      0xffffffffffffffffffffffffffffffffffffffff\n      and\n      dup2\n      mstore\n      0x20\n      add\n      swap1\n      dup2\n      mstore\n      0x20\n      add\n      0x00\n      keccak256\n        /* \"contracts/RNNManager.sol\":13692:13732  record_mapping[_unique_id].record_status */\n      0x03\n      add\n      sload\n        /* \"contracts/RNNManager.sol\":13747:13761  record_mapping */\n      0x0a\n        /* \"contracts/RNNManager.sol\":13747:13773  record_mapping[_unique_id] */\n      0x00\n        /* \"contracts/RNNManager.sol\":13762:13772  _unique_id */\n      dup8\n        /* \"contracts/RNNManager.sol\":13747:13773  record_mapping[_unique_id] */\n      0xffffffffffffffffffffffffffffffffffffffff\n      and\n      0xffffffffffffffffffffffffffffffffffffffff\n      and\n      dup2\n      mstore\n      0x20\n      add\n      swap1\n      dup2\n      mstore\n      0x20\n      add\n      0x00\n      keccak256\n        /* \"contracts/RNNManager.sol\":13747:13785  record_mapping[_unique_id].record_time */\n      0x06\n      add\n      sload\n        /* \"contracts/RNNManager.sol\":13606:13796  event_doctor_update(... */\n      mload(0x40)\n      tag_159\n      swap4\n      swap3\n      swap2\n      swap1\n      tag_139\n      jump\t// in\n    tag_159:\n      mload(0x40)\n      dup1\n      swap2\n      sub\n      swap1\n      log1\n        /* \"contracts/RNNManager.sol\":13807:13816  return \"\" */\n      mload(0x40)\n      dup1\n      0x20\n      add\n      0x40\n      mstore\n      dup1\n      0x00\n      dup2\n      mstore\n      pop\n      swap1\n      pop\n        /* \"contracts/RNNManager.sol\":12988:13824  function doctor_update_record(address _unique_id, string memory _update) public returns (string memory){... */\n      swap3\n      swap2\n      pop\n      pop\n      jump\t// out\n        /* \"contracts/RNNManager.sol\":1314:1354  mapping (address => bool) public doctors */\n    tag_52:\n      mstore(0x20, 0x0b)\n      dup1\n      0x00\n      mstore\n      keccak256(0x00, 0x40)\n      0x00\n      swap2\n      pop\n      sload\n      swap1\n      0x0100\n      exp\n      swap1\n      div\n      0xff\n      and\n      dup2\n      jump\t// out\n        /* \"contracts/RNNManager.sol\":1361:1400  mapping (address => bool) public audits */\n    tag_57:\n      mstore(0x20, 0x0c)\n      dup1\n      0x00\n      mstore\n      keccak256(0x00, 0x40)\n      0x00\n      swap2\n      pop\n      sload\n      swap1\n      0x0100\n      exp\n      swap1\n      div\n      0xff\n      and\n      dup2\n      jump\t// out\n        /* \"contracts/RNNManager.sol\":6021:6383  function addAudit(address _audit_address) public only_owner returns (string memory) {... */\n    tag_61:\n        /* \"contracts/RNNManager.sol\":6090:6103  string memory */\n      0x60\n        /* \"contracts/RNNManager.sol\":2210:2220  msg.sender */\n      caller\n        /* \"contracts/RNNManager.sol\":2201:2220  owner == msg.sender */\n      0xffffffffffffffffffffffffffffffffffffffff\n      and\n        /* \"contracts/RNNManager.sol\":2201:2206  owner */\n      0x00\n      dup1\n      sload\n      swap1\n      0x0100\n      exp\n      swap1\n      div\n      0xffffffffffffffffffffffffffffffffffffffff\n      and\n        /* \"contracts/RNNManager.sol\":2201:2220  owner == msg.sender */\n      0xffffffffffffffffffffffffffffffffffffffff\n      and\n      eq\n        /* \"contracts/RNNManager.sol\":2193:2221  require(owner == msg.sender) */\n      tag_161\n      jumpi\n      0x00\n      dup1\n      revert\n    tag_161:\n        /* \"contracts/RNNManager.sol\":6173:6179  audits */\n      0x0c\n        /* \"contracts/RNNManager.sol\":6173:6195  audits[_audit_address] */\n      0x00\n        /* \"contracts/RNNManager.sol\":6180:6194  _audit_address */\n      dup4\n        /* \"contracts/RNNManager.sol\":6173:6195  audits[_audit_address] */\n      0xffffffffffffffffffffffffffffffffffffffff\n      and\n      0xffffffffffffffffffffffffffffffffffffffff\n      and\n      dup2\n      mstore\n      0x20\n      add\n      swap1\n      dup2\n      mstore\n      0x20\n      add\n      0x00\n      keccak256\n      0x00\n      swap1\n      sload\n      swap1\n      0x0100\n      exp\n      swap1\n      div\n      0xff\n      and\n        /* \"contracts/RNNManager.sol\":6169:6252  if(!audits[_audit_address]){... */\n      tag_163\n      jumpi\n        /* \"contracts/RNNManager.sol\":6236:6240  true */\n      0x01\n        /* \"contracts/RNNManager.sol\":6211:6217  audits */\n      0x0c\n        /* \"contracts/RNNManager.sol\":6211:6233  audits[_audit_address] */\n      0x00\n        /* \"contracts/RNNManager.sol\":6218:6232  _audit_address */\n      dup5\n        /* \"contracts/RNNManager.sol\":6211:6233  audits[_audit_address] */\n      0xffffffffffffffffffffffffffffffffffffffff\n      and\n      0xffffffffffffffffffffffffffffffffffffffff\n      and\n      dup2\n      mstore\n      0x20\n      add\n      swap1\n      dup2\n      mstore\n      0x20\n      add\n      0x00\n      keccak256\n      0x00\n        /* \"contracts/RNNManager.sol\":6211:6240  audits[_audit_address] = true */\n      0x0100\n      exp\n      dup2\n      sload\n      dup2\n      0xff\n      mul\n      not\n      and\n      swap1\n      dup4\n      iszero\n      iszero\n      mul\n      or\n      swap1\n      sstore\n      pop\n        /* \"contracts/RNNManager.sol\":6169:6252  if(!audits[_audit_address]){... */\n    tag_163:\n        /* \"contracts/RNNManager.sol\":6267:6337  event_add_audit(\"An audit is added.\", _audit_address, block.timestamp) */\n      0x8fbe047a5fafe34457a33e6bd83075c8ffed3878dc48a48d31ce3948bbb22cd4\n        /* \"contracts/RNNManager.sol\":6305:6319  _audit_address */\n      dup3\n        /* \"contracts/RNNManager.sol\":6321:6336  block.timestamp */\n      timestamp\n        /* \"contracts/RNNManager.sol\":6267:6337  event_add_audit(\"An audit is added.\", _audit_address, block.timestamp) */\n      mload(0x40)\n      tag_164\n      swap3\n      swap2\n      swap1\n      tag_165\n      jump\t// in\n    tag_164:\n      mload(0x40)\n      dup1\n      swap2\n      sub\n      swap1\n      log1\n        /* \"contracts/RNNManager.sol\":6348:6375  return \"An audit is added.\" */\n      mload(0x40)\n      dup1\n      0x40\n      add\n      0x40\n      mstore\n      dup1\n      0x12\n      dup2\n      mstore\n      0x20\n      add\n      0x416e2061756469742069732061646465642e0000000000000000000000000000\n      dup2\n      mstore\n      pop\n      swap1\n      pop\n        /* \"contracts/RNNManager.sol\":6021:6383  function addAudit(address _audit_address) public only_owner returns (string memory) {... */\n      swap2\n      swap1\n      pop\n      jump\t// out\n        /* \"contracts/RNNManager.sol\":4114:5026  function start_visit(uint _time) public only_owner returns (address){... */\n    tag_66:\n        /* \"contracts/RNNManager.sol\":4174:4181  address */\n      0x00\n        /* \"contracts/RNNManager.sol\":2210:2220  msg.sender */\n      caller\n        /* \"contracts/RNNManager.sol\":2201:2220  owner == msg.sender */\n      0xffffffffffffffffffffffffffffffffffffffff\n      and\n        /* \"contracts/RNNManager.sol\":2201:2206  owner */\n      0x00\n      dup1\n      sload\n      swap1\n      0x0100\n      exp\n      swap1\n      div\n      0xffffffffffffffffffffffffffffffffffffffff\n      and\n        /* \"contracts/RNNManager.sol\":2201:2220  owner == msg.sender */\n      0xffffffffffffffffffffffffffffffffffffffff\n      and\n      eq\n        /* \"contracts/RNNManager.sol\":2193:2221  require(owner == msg.sender) */\n      tag_167\n      jumpi\n      0x00\n      dup1\n      revert\n    tag_167:\n        /* \"contracts/RNNManager.sol\":4193:4210  address unique_id */\n      0x00\n        /* \"contracts/RNNManager.sol\":4237:4290  sha256(abi.encodePacked(msg.sender, block.timestamp)) */\n      0x02\n        /* \"contracts/RNNManager.sol\":4261:4271  msg.sender */\n      caller\n        /* \"contracts/RNNManager.sol\":4273:4288  block.timestamp */\n      timestamp\n        /* \"contracts/RNNManager.sol\":4244:4289  abi.encodePacked(msg.sender, block.timestamp) */\n      add(0x20, mload(0x40))\n      tag_169\n      swap3\n      swap2\n      swap1\n      tag_170\n      jump\t// in\n    tag_169:\n      mload(0x40)\n      0x20\n      dup2\n      dup4\n      sub\n      sub\n      dup2\n      mstore\n      swap1\n      0x40\n      mstore\n        /* \"contracts/RNNManager.sol\":4237:4290  sha256(abi.encodePacked(msg.sender, block.timestamp)) */\n      mload(0x40)\n      tag_171\n      swap2\n      swap1\n      tag_172\n      jump\t// in\n    tag_171:\n      0x20\n      mload(0x40)\n      dup1\n      dup4\n      sub\n      dup2\n      dup6\n      gas\n      staticcall\n      iszero\n      dup1\n      iszero\n      tag_174\n      jumpi\n      returndatasize\n      0x00\n      dup1\n      returndatacopy\n      revert(0x00, returndatasize)\n    tag_174:\n      pop\n      pop\n      pop\n      mload(0x40)\n      returndatasize\n      not(0x1f)\n      0x1f\n      dup3\n      add\n      and\n      dup3\n      add\n      dup1\n      0x40\n      mstore\n      pop\n      dup2\n      add\n      swap1\n      tag_175\n      swap2\n      swap1\n      tag_176\n      jump\t// in\n    tag_175:\n        /* \"contracts/RNNManager.sol\":4229:4291  uint256(sha256(abi.encodePacked(msg.sender, block.timestamp))) */\n      0x00\n      shr\n        /* \"contracts/RNNManager.sol\":4193:4293  address unique_id = address(uint160(uint256(sha256(abi.encodePacked(msg.sender, block.timestamp))))) */\n      swap1\n      pop\n        /* \"contracts/RNNManager.sol\":4349:4353  true */\n      0x01\n        /* \"contracts/RNNManager.sol\":4304:4318  record_mapping */\n      0x0a\n        /* \"contracts/RNNManager.sol\":4304:4329  record_mapping[unique_id] */\n      0x00\n        /* \"contracts/RNNManager.sol\":4319:4328  unique_id */\n      dup4\n        /* \"contracts/RNNManager.sol\":4304:4329  record_mapping[unique_id] */\n      0xffffffffffffffffffffffffffffffffffffffff\n      and\n      0xffffffffffffffffffffffffffffffffffffffff\n      and\n      dup2\n      mstore\n      0x20\n      add\n      swap1\n      dup2\n      mstore\n      0x20\n      add\n      0x00\n      keccak256\n        /* \"contracts/RNNManager.sol\":4304:4346  record_mapping[unique_id].is_uid_generated */\n      0x00\n      add\n      0x00\n        /* \"contracts/RNNManager.sol\":4304:4353  record_mapping[unique_id].is_uid_generated = true */\n      0x0100\n      exp\n      dup2\n      sload\n      dup2\n      0xff\n      mul\n      not\n      and\n      swap1\n      dup4\n      iszero\n      iszero\n      mul\n      or\n      swap1\n      sstore\n      pop\n        /* \"contracts/RNNManager.sol\":4418:4427  unique_id */\n      dup1\n        /* \"contracts/RNNManager.sol\":4402:4429  uint256(uint160(unique_id)) */\n      0xffffffffffffffffffffffffffffffffffffffff\n      and\n        /* \"contracts/RNNManager.sol\":4364:4378  record_mapping */\n      0x0a\n        /* \"contracts/RNNManager.sol\":4364:4389  record_mapping[unique_id] */\n      0x00\n        /* \"contracts/RNNManager.sol\":4379:4388  unique_id */\n      dup4\n        /* \"contracts/RNNManager.sol\":4364:4389  record_mapping[unique_id] */\n      0xffffffffffffffffffffffffffffffffffffffff\n      and\n      0xffffffffffffffffffffffffffffffffffffffff\n      and\n      dup2\n      mstore\n      0x20\n      add\n      swap1\n      dup2\n      mstore\n      0x20\n      add\n      0x00\n      keccak256\n        /* \"contracts/RNNManager.sol\":4364:4399  record_mapping[unique_id].record_id */\n      0x01\n      add\n        /* \"contracts/RNNManager.sol\":4364:4429  record_mapping[unique_id].record_id = uint256(uint160(unique_id)) */\n      dup2\n      swap1\n      sstore\n      pop\n        /* \"contracts/RNNManager.sol\":4440:4510  record_mapping[unique_id].record_msg = \"New Medical Record is created\" */\n      mload(0x40)\n      dup1\n      0x40\n      add\n      0x40\n      mstore\n      dup1\n      0x1d\n      dup2\n      mstore\n      0x20\n      add\n      0x4e6577204d65646963616c205265636f72642069732063726561746564000000\n      dup2\n      mstore\n      pop\n        /* \"contracts/RNNManager.sol\":4440:4454  record_mapping */\n      0x0a\n        /* \"contracts/RNNManager.sol\":4440:4465  record_mapping[unique_id] */\n      0x00\n        /* \"contracts/RNNManager.sol\":4455:4464  unique_id */\n      dup4\n        /* \"contracts/RNNManager.sol\":4440:4465  record_mapping[unique_id] */\n      0xffffffffffffffffffffffffffffffffffffffff\n      and\n      0xffffffffffffffffffffffffffffffffffffffff\n      and\n      dup2\n      mstore\n      0x20\n      add\n      swap1\n      dup2\n      mstore\n      0x20\n      add\n      0x00\n      keccak256\n        /* \"contracts/RNNManager.sol\":4440:4476  record_mapping[unique_id].record_msg */\n      0x02\n      add\n        /* \"contracts/RNNManager.sol\":4440:4510  record_mapping[unique_id].record_msg = \"New Medical Record is created\" */\n      swap1\n      dup2\n      tag_177\n      swap2\n      swap1\n      tag_136\n      jump\t// in\n    tag_177:\n      pop\n        /* \"contracts/RNNManager.sol\":4563:4564  0 */\n      0x00\n        /* \"contracts/RNNManager.sol\":4521:4535  record_mapping */\n      0x0a\n        /* \"contracts/RNNManager.sol\":4521:4546  record_mapping[unique_id] */\n      0x00\n        /* \"contracts/RNNManager.sol\":4536:4545  unique_id */\n      dup4\n        /* \"contracts/RNNManager.sol\":4521:4546  record_mapping[unique_id] */\n      0xffffffffffffffffffffffffffffffffffffffff\n      and\n      0xffffffffffffffffffffffffffffffffffffffff\n      and\n      dup2\n      mstore\n      0x20\n      add\n      swap1\n      dup2\n      mstore\n      0x20\n      add\n      0x00\n      keccak256\n        /* \"contracts/RNNManager.sol\":4521:4560  record_mapping[unique_id].record_status */\n      0x03\n      add\n        /* \"contracts/RNNManager.sol\":4521:4564  record_mapping[unique_id].record_status = 0 */\n      dup2\n      swap1\n      sstore\n      pop\n        /* \"contracts/RNNManager.sol\":4585:4644  record_mapping[unique_id].record_details = \"Visit initiate\" */\n      mload(0x40)\n      dup1\n      0x40\n      add\n      0x40\n      mstore\n      dup1\n      0x0e\n      dup2\n      mstore\n      0x20\n      add\n      0x566973697420696e697469617465000000000000000000000000000000000000\n      dup2\n      mstore\n      pop\n        /* \"contracts/RNNManager.sol\":4585:4599  record_mapping */\n      0x0a\n        /* \"contracts/RNNManager.sol\":4585:4610  record_mapping[unique_id] */\n      0x00\n        /* \"contracts/RNNManager.sol\":4600:4609  unique_id */\n      dup4\n        /* \"contracts/RNNManager.sol\":4585:4610  record_mapping[unique_id] */\n      0xffffffffffffffffffffffffffffffffffffffff\n      and\n      0xffffffffffffffffffffffffffffffffffffffff\n      and\n      dup2\n      mstore\n      0x20\n      add\n      swap1\n      dup2\n      mstore\n      0x20\n      add\n      0x00\n      keccak256\n        /* \"contracts/RNNManager.sol\":4585:4625  record_mapping[unique_id].record_details */\n      0x04\n      add\n        /* \"contracts/RNNManager.sol\":4585:4644  record_mapping[unique_id].record_details = \"Visit initiate\" */\n      swap1\n      dup2\n      tag_178\n      swap2\n      swap1\n      tag_136\n      jump\t// in\n    tag_178:\n      pop\n        /* \"contracts/RNNManager.sol\":4709:4719  msg.sender */\n      caller\n        /* \"contracts/RNNManager.sol\":4665:4679  record_mapping */\n      0x0a\n        /* \"contracts/RNNManager.sol\":4665:4690  record_mapping[unique_id] */\n      0x00\n        /* \"contracts/RNNManager.sol\":4680:4689  unique_id */\n      dup4\n        /* \"contracts/RNNManager.sol\":4665:4690  record_mapping[unique_id] */\n      0xffffffffffffffffffffffffffffffffffffffff\n      and\n      0xffffffffffffffffffffffffffffffffffffffff\n      and\n      dup2\n      mstore\n      0x20\n      add\n      swap1\n      dup2\n      mstore\n      0x20\n      add\n      0x00\n      keccak256\n        /* \"contracts/RNNManager.sol\":4665:4706  record_mapping[unique_id].patient_address */\n      0x05\n      add\n      0x00\n        /* \"contracts/RNNManager.sol\":4665:4719  record_mapping[unique_id].patient_address = msg.sender */\n      0x0100\n      exp\n      dup2\n      sload\n      dup2\n      0xffffffffffffffffffffffffffffffffffffffff\n      mul\n      not\n      and\n      swap1\n      dup4\n      0xffffffffffffffffffffffffffffffffffffffff\n      and\n      mul\n      or\n      swap1\n      sstore\n      pop\n        /* \"contracts/RNNManager.sol\":4770:4775  _time */\n      dup3\n        /* \"contracts/RNNManager.sol\":4730:4744  record_mapping */\n      0x0a\n        /* \"contracts/RNNManager.sol\":4730:4755  record_mapping[unique_id] */\n      0x00\n        /* \"contracts/RNNManager.sol\":4745:4754  unique_id */\n      dup4\n        /* \"contracts/RNNManager.sol\":4730:4755  record_mapping[unique_id] */\n      0xffffffffffffffffffffffffffffffffffffffff\n      and\n      0xffffffffffffffffffffffffffffffffffffffff\n      and\n      dup2\n      mstore\n      0x20\n      add\n      swap1\n      dup2\n      mstore\n      0x20\n      add\n      0x00\n      keccak256\n        /* \"contracts/RNNManager.sol\":4730:4767  record_mapping[unique_id].record_time */\n      0x06\n      add\n        /* \"contracts/RNNManager.sol\":4730:4775  record_mapping[unique_id].record_time = _time */\n      dup2\n      swap1\n      sstore\n      pop\n        /* \"contracts/RNNManager.sol\":4791:4991  event_start_visit(... */\n      0x14207ac2653501de32da60b3fee91a4d0c170419f5edd0528124b1c526a70509\n        /* \"contracts/RNNManager.sol\":4823:4832  unique_id */\n      dup2\n        /* \"contracts/RNNManager.sol\":4847:4861  record_mapping */\n      0x0a\n        /* \"contracts/RNNManager.sol\":4847:4872  record_mapping[unique_id] */\n      0x00\n        /* \"contracts/RNNManager.sol\":4862:4871  unique_id */\n      dup5\n        /* \"contracts/RNNManager.sol\":4847:4872  record_mapping[unique_id] */\n      0xffffffffffffffffffffffffffffffffffffffff\n      and\n      0xffffffffffffffffffffffffffffffffffffffff\n      and\n      dup2\n      mstore\n      0x20\n      add\n      swap1\n      dup2\n      mstore\n      0x20\n      add\n      0x00\n      keccak256\n        /* \"contracts/RNNManager.sol\":4847:4883  record_mapping[unique_id].record_msg */\n      0x02\n      add\n        /* \"contracts/RNNManager.sol\":4898:4912  record_mapping */\n      0x0a\n        /* \"contracts/RNNManager.sol\":4898:4923  record_mapping[unique_id] */\n      0x00\n        /* \"contracts/RNNManager.sol\":4913:4922  unique_id */\n      dup6\n        /* \"contracts/RNNManager.sol\":4898:4923  record_mapping[unique_id] */\n      0xffffffffffffffffffffffffffffffffffffffff\n      and\n      0xffffffffffffffffffffffffffffffffffffffff\n      and\n      dup2\n      mstore\n      0x20\n      add\n      swap1\n      dup2\n      mstore\n      0x20\n      add\n      0x00\n      keccak256\n        /* \"contracts/RNNManager.sol\":4898:4937  record_mapping[unique_id].record_status */\n      0x03\n      add\n      sload\n        /* \"contracts/RNNManager.sol\":4953:4967  record_mapping */\n      0x0a\n        /* \"contracts/RNNManager.sol\":4953:4978  record_mapping[unique_id] */\n      0x00\n        /* \"contracts/RNNManager.sol\":4968:4977  unique_id */\n      dup7\n        /* \"contracts/RNNManager.sol\":4953:4978  record_mapping[unique_id] */\n      0xffffffffffffffffffffffffffffffffffffffff\n      and\n      0xffffffffffffffffffffffffffffffffffffffff\n      and\n      dup2\n      mstore\n      0x20\n      add\n      swap1\n      dup2\n      mstore\n      0x20\n      add\n      0x00\n      keccak256\n        /* \"contracts/RNNManager.sol\":4953:4990  record_mapping[unique_id].record_time */\n      0x06\n      add\n      sload\n        /* \"contracts/RNNManager.sol\":4791:4991  event_start_visit(... */\n      mload(0x40)\n      tag_179\n      swap5\n      swap4\n      swap3\n      swap2\n      swap1\n      tag_180\n      jump\t// in\n    tag_179:\n      mload(0x40)\n      dup1\n      swap2\n      sub\n      swap1\n      log1\n        /* \"contracts/RNNManager.sol\":5009:5018  unique_id */\n      dup1\n        /* \"contracts/RNNManager.sol\":5002:5018  return unique_id */\n      swap2\n      pop\n      pop\n        /* \"contracts/RNNManager.sol\":4114:5026  function start_visit(uint _time) public only_owner returns (address){... */\n      swap2\n      swap1\n      pop\n      jump\t// out\n        /* \"contracts/RNNManager.sol\":11339:12098  function doctor_query_record(address _unique_id) public returns (string memory){... */\n    tag_71:\n        /* \"contracts/RNNManager.sol\":11404:11417  string memory */\n      0x60\n        /* \"contracts/RNNManager.sol\":11437:11451  record_mapping */\n      0x0a\n        /* \"contracts/RNNManager.sol\":11437:11463  record_mapping[_unique_id] */\n      0x00\n        /* \"contracts/RNNManager.sol\":11452:11462  _unique_id */\n      dup4\n        /* \"contracts/RNNManager.sol\":11437:11463  record_mapping[_unique_id] */\n      0xffffffffffffffffffffffffffffffffffffffff\n      and\n      0xffffffffffffffffffffffffffffffffffffffff\n      and\n      dup2\n      mstore\n      0x20\n      add\n      swap1\n      dup2\n      mstore\n      0x20\n      add\n      0x00\n      keccak256\n        /* \"contracts/RNNManager.sol\":11437:11480  record_mapping[_unique_id].is_uid_generated */\n      0x00\n      add\n      0x00\n      swap1\n      sload\n      swap1\n      0x0100\n      exp\n      swap1\n      div\n      0xff\n      and\n        /* \"contracts/RNNManager.sol\":11429:11481  require(record_mapping[_unique_id].is_uid_generated) */\n      tag_182\n      jumpi\n      0x00\n      dup1\n      revert\n    tag_182:\n        /* \"contracts/RNNManager.sol\":11500:11507  doctors */\n      0x0b\n        /* \"contracts/RNNManager.sol\":11500:11519  doctors[msg.sender] */\n      0x00\n        /* \"contracts/RNNManager.sol\":11508:11518  msg.sender */\n      caller\n        /* \"contracts/RNNManager.sol\":11500:11519  doctors[msg.sender] */\n      0xffffffffffffffffffffffffffffffffffffffff\n      and\n      0xffffffffffffffffffffffffffffffffffffffff\n      and\n      dup2\n      mstore\n      0x20\n      add\n      swap1\n      dup2\n      mstore\n      0x20\n      add\n      0x00\n      keccak256\n      0x00\n      swap1\n      sload\n      swap1\n      0x0100\n      exp\n      swap1\n      div\n      0xff\n      and\n        /* \"contracts/RNNManager.sol\":11492:11520  require(doctors[msg.sender]) */\n      tag_183\n      jumpi\n      0x00\n      dup1\n      revert\n    tag_183:\n        /* \"contracts/RNNManager.sol\":11581:11582  1 */\n      0x01\n        /* \"contracts/RNNManager.sol\":11539:11553  record_mapping */\n      0x0a\n        /* \"contracts/RNNManager.sol\":11539:11565  record_mapping[_unique_id] */\n      0x00\n        /* \"contracts/RNNManager.sol\":11554:11564  _unique_id */\n      dup5\n        /* \"contracts/RNNManager.sol\":11539:11565  record_mapping[_unique_id] */\n      0xffffffffffffffffffffffffffffffffffffffff\n      and\n      0xffffffffffffffffffffffffffffffffffffffff\n      and\n      dup2\n      mstore\n      0x20\n      add\n      swap1\n      dup2\n      mstore\n      0x20\n      add\n      0x00\n      keccak256\n        /* \"contracts/RNNManager.sol\":11539:11579  record_mapping[_unique_id].record_status */\n      0x03\n      add\n      sload\n        /* \"contracts/RNNManager.sol\":11539:11582  record_mapping[_unique_id].record_status!=1 */\n      sub\n        /* \"contracts/RNNManager.sol\":11531:11583  require(record_mapping[_unique_id].record_status!=1) */\n      tag_184\n      jumpi\n      0x00\n      dup1\n      revert\n    tag_184:\n        /* \"contracts/RNNManager.sol\":11636:11646  msg.sender */\n      caller\n        /* \"contracts/RNNManager.sol\":11600:11614  record_mapping */\n      0x0a\n        /* \"contracts/RNNManager.sol\":11600:11626  record_mapping[_unique_id] */\n      0x00\n        /* \"contracts/RNNManager.sol\":11615:11625  _unique_id */\n      dup5\n        /* \"contracts/RNNManager.sol\":11600:11626  record_mapping[_unique_id] */\n      0xffffffffffffffffffffffffffffffffffffffff\n      and\n      0xffffffffffffffffffffffffffffffffffffffff\n      and\n      dup2\n      mstore\n      0x20\n      add\n      swap1\n      dup2\n      mstore\n      0x20\n      add\n      0x00\n      keccak256\n        /* \"contracts/RNNManager.sol\":11600:11633  record_mapping[_unique_id].doctor */\n      0x07\n      add\n      0x00\n        /* \"contracts/RNNManager.sol\":11600:11646  record_mapping[_unique_id].doctor = msg.sender */\n      0x0100\n      exp\n      dup2\n      sload\n      dup2\n      0xffffffffffffffffffffffffffffffffffffffff\n      mul\n      not\n      and\n      swap1\n      dup4\n      0xffffffffffffffffffffffffffffffffffffffff\n      and\n      mul\n      or\n      swap1\n      sstore\n      pop\n        /* \"contracts/RNNManager.sol\":11698:11713  block.timestamp */\n      timestamp\n        /* \"contracts/RNNManager.sol\":11657:11671  record_mapping */\n      0x0a\n        /* \"contracts/RNNManager.sol\":11657:11683  record_mapping[_unique_id] */\n      0x00\n        /* \"contracts/RNNManager.sol\":11672:11682  _unique_id */\n      dup5\n        /* \"contracts/RNNManager.sol\":11657:11683  record_mapping[_unique_id] */\n      0xffffffffffffffffffffffffffffffffffffffff\n      and\n      0xffffffffffffffffffffffffffffffffffffffff\n      and\n      dup2\n      mstore\n      0x20\n      add\n      swap1\n      dup2\n      mstore\n      0x20\n      add\n      0x00\n      keccak256\n        /* \"contracts/RNNManager.sol\":11657:11695  record_mapping[_unique_id].doctor_time */\n      0x08\n      add\n        /* \"contracts/RNNManager.sol\":11657:11713  record_mapping[_unique_id].doctor_time = block.timestamp */\n      dup2\n      swap1\n      sstore\n      pop\n        /* \"contracts/RNNManager.sol\":11777:11778  3 */\n      0x03\n        /* \"contracts/RNNManager.sol\":11734:11748  record_mapping */\n      0x0a\n        /* \"contracts/RNNManager.sol\":11734:11760  record_mapping[_unique_id] */\n      0x00\n        /* \"contracts/RNNManager.sol\":11749:11759  _unique_id */\n      dup5\n        /* \"contracts/RNNManager.sol\":11734:11760  record_mapping[_unique_id] */\n      0xffffffffffffffffffffffffffffffffffffffff\n      and\n      0xffffffffffffffffffffffffffffffffffffffff\n      and\n      dup2\n      mstore\n      0x20\n      add\n      swap1\n      dup2\n      mstore\n      0x20\n      add\n      0x00\n      keccak256\n        /* \"contracts/RNNManager.sol\":11734:11774  record_mapping[_unique_id].record_status */\n      0x03\n      add\n        /* \"contracts/RNNManager.sol\":11734:11778  record_mapping[_unique_id].record_status = 3 */\n      dup2\n      swap1\n      sstore\n      pop\n        /* \"contracts/RNNManager.sol\":11789:11865  record_mapping[_unique_id].record_msg = \"Record is queried by doctor/audit.\" */\n      mload(0x40)\n      dup1\n      0x60\n      add\n      0x40\n      mstore\n      dup1\n      0x22\n      dup2\n      mstore\n      0x20\n      add\n      data_d38f047a012e048de635cf9ec2b5466fb7738ddfef828b834ad44ccf5f8582f9\n      0x22\n      swap2\n      codecopy\n        /* \"contracts/RNNManager.sol\":11789:11803  record_mapping */\n      0x0a\n        /* \"contracts/RNNManager.sol\":11789:11815  record_mapping[_unique_id] */\n      0x00\n        /* \"contracts/RNNManager.sol\":11804:11814  _unique_id */\n      dup5\n        /* \"contracts/RNNManager.sol\":11789:11815  record_mapping[_unique_id] */\n      0xffffffffffffffffffffffffffffffffffffffff\n      and\n      0xffffffffffffffffffffffffffffffffffffffff\n      and\n      dup2\n      mstore\n      0x20\n      add\n      swap1\n      dup2\n      mstore\n      0x20\n      add\n      0x00\n      keccak256\n        /* \"contracts/RNNManager.sol\":11789:11826  record_mapping[_unique_id].record_msg */\n      0x02\n      add\n        /* \"contracts/RNNManager.sol\":11789:11865  record_mapping[_unique_id].record_msg = \"Record is queried by doctor/audit.\" */\n      swap1\n      dup2\n      tag_185\n      swap2\n      swap1\n      tag_136\n      jump\t// in\n    tag_185:\n      pop\n        /* \"contracts/RNNManager.sol\":11881:12070  event_doctor_query(... */\n      0xd389c9d6eec9dc6179e4cfc56c2b4a3ddab405290f85c5ca35457c25da541465\n        /* \"contracts/RNNManager.sol\":11914:11928  record_mapping */\n      0x0a\n        /* \"contracts/RNNManager.sol\":11914:11940  record_mapping[_unique_id] */\n      0x00\n        /* \"contracts/RNNManager.sol\":11929:11939  _unique_id */\n      dup5\n        /* \"contracts/RNNManager.sol\":11914:11940  record_mapping[_unique_id] */\n      0xffffffffffffffffffffffffffffffffffffffff\n      and\n      0xffffffffffffffffffffffffffffffffffffffff\n      and\n      dup2\n      mstore\n      0x20\n      add\n      swap1\n      dup2\n      mstore\n      0x20\n      add\n      0x00\n      keccak256\n        /* \"contracts/RNNManager.sol\":11914:11951  record_mapping[_unique_id].record_msg */\n      0x02\n      add\n        /* \"contracts/RNNManager.sol\":11966:11980  record_mapping */\n      0x0a\n        /* \"contracts/RNNManager.sol\":11966:11992  record_mapping[_unique_id] */\n      0x00\n        /* \"contracts/RNNManager.sol\":11981:11991  _unique_id */\n      dup6\n        /* \"contracts/RNNManager.sol\":11966:11992  record_mapping[_unique_id] */\n      0xffffffffffffffffffffffffffffffffffffffff\n      and\n      0xffffffffffffffffffffffffffffffffffffffff\n      and\n      dup2\n      mstore\n      0x20\n      add\n      swap1\n      dup2\n      mstore\n      0x20\n      add\n      0x00\n      keccak256\n        /* \"contracts/RNNManager.sol\":11966:12006  record_mapping[_unique_id].record_status */\n      0x03\n      add\n      sload\n        /* \"contracts/RNNManager.sol\":12021:12035  record_mapping */\n      0x0a\n        /* \"contracts/RNNManager.sol\":12021:12047  record_mapping[_unique_id] */\n      0x00\n        /* \"contracts/RNNManager.sol\":12036:12046  _unique_id */\n      dup7\n        /* \"contracts/RNNManager.sol\":12021:12047  record_mapping[_unique_id] */\n      0xffffffffffffffffffffffffffffffffffffffff\n      and\n      0xffffffffffffffffffffffffffffffffffffffff\n      and\n      dup2\n      mstore\n      0x20\n      add\n      swap1\n      dup2\n      mstore\n      0x20\n      add\n      0x00\n      keccak256\n        /* \"contracts/RNNManager.sol\":12021:12059  record_mapping[_unique_id].record_time */\n      0x06\n      add\n      sload\n        /* \"contracts/RNNManager.sol\":11881:12070  event_doctor_query(... */\n      mload(0x40)\n      tag_186\n      swap4\n      swap3\n      swap2\n      swap1\n      tag_139\n      jump\t// in\n    tag_186:\n      mload(0x40)\n      dup1\n      swap2\n      sub\n      swap1\n      log1\n        /* \"contracts/RNNManager.sol\":12081:12090  return \"\" */\n      mload(0x40)\n      dup1\n      0x20\n      add\n      0x40\n      mstore\n      dup1\n      0x00\n      dup2\n      mstore\n      pop\n      swap1\n      pop\n        /* \"contracts/RNNManager.sol\":11339:12098  function doctor_query_record(address _unique_id) public returns (string memory){... */\n      swap2\n      swap1\n      pop\n      jump\t// out\n        /* \"contracts/RNNManager.sol\":10532:11291  function doctor_print_record(address _unique_id) public returns (string memory){... */\n    tag_75:\n        /* \"contracts/RNNManager.sol\":10597:10610  string memory */\n      0x60\n        /* \"contracts/RNNManager.sol\":10630:10644  record_mapping */\n      0x0a\n        /* \"contracts/RNNManager.sol\":10630:10656  record_mapping[_unique_id] */\n      0x00\n        /* \"contracts/RNNManager.sol\":10645:10655  _unique_id */\n      dup4\n        /* \"contracts/RNNManager.sol\":10630:10656  record_mapping[_unique_id] */\n      0xffffffffffffffffffffffffffffffffffffffff\n      and\n      0xffffffffffffffffffffffffffffffffffffffff\n      and\n      dup2\n      mstore\n      0x20\n      add\n      swap1\n      dup2\n      mstore\n      0x20\n      add\n      0x00\n      keccak256\n        /* \"contracts/RNNManager.sol\":10630:10673  record_mapping[_unique_id].is_uid_generated */\n      0x00\n      add\n      0x00\n      swap1\n      sload\n      swap1\n      0x0100\n      exp\n      swap1\n      div\n      0xff\n      and\n        /* \"contracts/RNNManager.sol\":10622:10674  require(record_mapping[_unique_id].is_uid_generated) */\n      tag_188\n      jumpi\n      0x00\n      dup1\n      revert\n    tag_188:\n        /* \"contracts/RNNManager.sol\":10693:10700  doctors */\n      0x0b\n        /* \"contracts/RNNManager.sol\":10693:10712  doctors[msg.sender] */\n      0x00\n        /* \"contracts/RNNManager.sol\":10701:10711  msg.sender */\n      caller\n        /* \"contracts/RNNManager.sol\":10693:10712  doctors[msg.sender] */\n      0xffffffffffffffffffffffffffffffffffffffff\n      and\n      0xffffffffffffffffffffffffffffffffffffffff\n      and\n      dup2\n      mstore\n      0x20\n      add\n      swap1\n      dup2\n      mstore\n      0x20\n      add\n      0x00\n      keccak256\n      0x00\n      swap1\n      sload\n      swap1\n      0x0100\n      exp\n      swap1\n      div\n      0xff\n      and\n        /* \"contracts/RNNManager.sol\":10685:10713  require(doctors[msg.sender]) */\n      tag_189\n      jumpi\n      0x00\n      dup1\n      revert\n    tag_189:\n        /* \"contracts/RNNManager.sol\":10774:10775  1 */\n      0x01\n        /* \"contracts/RNNManager.sol\":10732:10746  record_mapping */\n      0x0a\n        /* \"contracts/RNNManager.sol\":10732:10758  record_mapping[_unique_id] */\n      0x00\n        /* \"contracts/RNNManager.sol\":10747:10757  _unique_id */\n      dup5\n        /* \"contracts/RNNManager.sol\":10732:10758  record_mapping[_unique_id] */\n      0xffffffffffffffffffffffffffffffffffffffff\n      and\n      0xffffffffffffffffffffffffffffffffffffffff\n      and\n      dup2\n      mstore\n      0x20\n      add\n      swap1\n      dup2\n      mstore\n      0x20\n      add\n      0x00\n      keccak256\n        /* \"contracts/RNNManager.sol\":10732:10772  record_mapping[_unique_id].record_status */\n      0x03\n      add\n      sload\n        /* \"contracts/RNNManager.sol\":10732:10775  record_mapping[_unique_id].record_status!=1 */\n      sub\n        /* \"contracts/RNNManager.sol\":10724:10776  require(record_mapping[_unique_id].record_status!=1) */\n      tag_190\n      jumpi\n      0x00\n      dup1\n      revert\n    tag_190:\n        /* \"contracts/RNNManager.sol\":10829:10839  msg.sender */\n      caller\n        /* \"contracts/RNNManager.sol\":10793:10807  record_mapping */\n      0x0a\n        /* \"contracts/RNNManager.sol\":10793:10819  record_mapping[_unique_id] */\n      0x00\n        /* \"contracts/RNNManager.sol\":10808:10818  _unique_id */\n      dup5\n        /* \"contracts/RNNManager.sol\":10793:10819  record_mapping[_unique_id] */\n      0xffffffffffffffffffffffffffffffffffffffff\n      and\n      0xffffffffffffffffffffffffffffffffffffffff\n      and\n      dup2\n      mstore\n      0x20\n      add\n      swap1\n      dup2\n      mstore\n      0x20\n      add\n      0x00\n      keccak256\n        /* \"contracts/RNNManager.sol\":10793:10826  record_mapping[_unique_id].doctor */\n      0x07\n      add\n      0x00\n        /* \"contracts/RNNManager.sol\":10793:10839  record_mapping[_unique_id].doctor = msg.sender */\n      0x0100\n      exp\n      dup2\n      sload\n      dup2\n      0xffffffffffffffffffffffffffffffffffffffff\n      mul\n      not\n      and\n      swap1\n      dup4\n      0xffffffffffffffffffffffffffffffffffffffff\n      and\n      mul\n      or\n      swap1\n      sstore\n      pop\n        /* \"contracts/RNNManager.sol\":10891:10906  block.timestamp */\n      timestamp\n        /* \"contracts/RNNManager.sol\":10850:10864  record_mapping */\n      0x0a\n        /* \"contracts/RNNManager.sol\":10850:10876  record_mapping[_unique_id] */\n      0x00\n        /* \"contracts/RNNManager.sol\":10865:10875  _unique_id */\n      dup5\n        /* \"contracts/RNNManager.sol\":10850:10876  record_mapping[_unique_id] */\n      0xffffffffffffffffffffffffffffffffffffffff\n      and\n      0xffffffffffffffffffffffffffffffffffffffff\n      and\n      dup2\n      mstore\n      0x20\n      add\n      swap1\n      dup2\n      mstore\n      0x20\n      add\n      0x00\n      keccak256\n        /* \"contracts/RNNManager.sol\":10850:10888  record_mapping[_unique_id].doctor_time */\n      0x08\n      add\n        /* \"contracts/RNNManager.sol\":10850:10906  record_mapping[_unique_id].doctor_time = block.timestamp */\n      dup2\n      swap1\n      sstore\n      pop\n        /* \"contracts/RNNManager.sol\":10970:10971  4 */\n      0x04\n        /* \"contracts/RNNManager.sol\":10927:10941  record_mapping */\n      0x0a\n        /* \"contracts/RNNManager.sol\":10927:10953  record_mapping[_unique_id] */\n      0x00\n        /* \"contracts/RNNManager.sol\":10942:10952  _unique_id */\n      dup5\n        /* \"contracts/RNNManager.sol\":10927:10953  record_mapping[_unique_id] */\n      0xffffffffffffffffffffffffffffffffffffffff\n      and\n      0xffffffffffffffffffffffffffffffffffffffff\n      and\n      dup2\n      mstore\n      0x20\n      add\n      swap1\n      dup2\n      mstore\n      0x20\n      add\n      0x00\n      keccak256\n        /* \"contracts/RNNManager.sol\":10927:10967  record_mapping[_unique_id].record_status */\n      0x03\n      add\n        /* \"contracts/RNNManager.sol\":10927:10971  record_mapping[_unique_id].record_status = 4 */\n      dup2\n      swap1\n      sstore\n      pop\n        /* \"contracts/RNNManager.sol\":10982:11058  record_mapping[_unique_id].record_msg = \"Record is printed by doctor/audit.\" */\n      mload(0x40)\n      dup1\n      0x60\n      add\n      0x40\n      mstore\n      dup1\n      0x22\n      dup2\n      mstore\n      0x20\n      add\n      data_d00529ad41deaf843cb43ae8784c496ffb8e84190407ca9560b040e883addf38\n      0x22\n      swap2\n      codecopy\n        /* \"contracts/RNNManager.sol\":10982:10996  record_mapping */\n      0x0a\n        /* \"contracts/RNNManager.sol\":10982:11008  record_mapping[_unique_id] */\n      0x00\n        /* \"contracts/RNNManager.sol\":10997:11007  _unique_id */\n      dup5\n        /* \"contracts/RNNManager.sol\":10982:11008  record_mapping[_unique_id] */\n      0xffffffffffffffffffffffffffffffffffffffff\n      and\n      0xffffffffffffffffffffffffffffffffffffffff\n      and\n      dup2\n      mstore\n      0x20\n      add\n      swap1\n      dup2\n      mstore\n      0x20\n      add\n      0x00\n      keccak256\n        /* \"contracts/RNNManager.sol\":10982:11019  record_mapping[_unique_id].record_msg */\n      0x02\n      add\n        /* \"contracts/RNNManager.sol\":10982:11058  record_mapping[_unique_id].record_msg = \"Record is printed by doctor/audit.\" */\n      swap1\n      dup2\n      tag_191\n      swap2\n      swap1\n      tag_136\n      jump\t// in\n    tag_191:\n      pop\n        /* \"contracts/RNNManager.sol\":11074:11263  event_doctor_print(... */\n      0x291023100cfc44fba59b279273f751e0fa64289217179d5c9835fc07ab5b1e4f\n        /* \"contracts/RNNManager.sol\":11107:11121  record_mapping */\n      0x0a\n        /* \"contracts/RNNManager.sol\":11107:11133  record_mapping[_unique_id] */\n      0x00\n        /* \"contracts/RNNManager.sol\":11122:11132  _unique_id */\n      dup5\n        /* \"contracts/RNNManager.sol\":11107:11133  record_mapping[_unique_id] */\n      0xffffffffffffffffffffffffffffffffffffffff\n      and\n      0xffffffffffffffffffffffffffffffffffffffff\n      and\n      dup2\n      mstore\n      0x20\n      add\n      swap1\n      dup2\n      mstore\n      0x20\n      add\n      0x00\n      keccak256\n        /* \"contracts/RNNManager.sol\":11107:11144  record_mapping[_unique_id].record_msg */\n      0x02\n      add\n        /* \"contracts/RNNManager.sol\":11159:11173  record_mapping */\n      0x0a\n        /* \"contracts/RNNManager.sol\":11159:11185  record_mapping[_unique_id] */\n      0x00\n        /* \"contracts/RNNManager.sol\":11174:11184  _unique_id */\n      dup6\n        /* \"contracts/RNNManager.sol\":11159:11185  record_mapping[_unique_id] */\n      0xffffffffffffffffffffffffffffffffffffffff\n      and\n      0xffffffffffffffffffffffffffffffffffffffff\n      and\n      dup2\n      mstore\n      0x20\n      add\n      swap1\n      dup2\n      mstore\n      0x20\n      add\n      0x00\n      keccak256\n        /* \"contracts/RNNManager.sol\":11159:11199  record_mapping[_unique_id].record_status */\n      0x03\n      add\n      sload\n        /* \"contracts/RNNManager.sol\":11214:11228  record_mapping */\n      0x0a\n        /* \"contracts/RNNManager.sol\":11214:11240  record_mapping[_unique_id] */\n      0x00\n        /* \"contracts/RNNManager.sol\":11229:11239  _unique_id */\n      dup7\n        /* \"contracts/RNNManager.sol\":11214:11240  record_mapping[_unique_id] */\n      0xffffffffffffffffffffffffffffffffffffffff\n      and\n      0xffffffffffffffffffffffffffffffffffffffff\n      and\n      dup2\n      mstore\n      0x20\n      add\n      swap1\n      dup2\n      mstore\n      0x20\n      add\n      0x00\n      keccak256\n        /* \"contracts/RNNManager.sol\":11214:11252  record_mapping[_unique_id].record_time */\n      0x06\n      add\n      sload\n        /* \"contracts/RNNManager.sol\":11074:11263  event_doctor_print(... */\n      mload(0x40)\n      tag_192\n      swap4\n      swap3\n      swap2\n      swap1\n      tag_139\n      jump\t// in\n    tag_192:\n      mload(0x40)\n      dup1\n      swap2\n      sub\n      swap1\n      log1\n        /* \"contracts/RNNManager.sol\":11274:11283  return \"\" */\n      mload(0x40)\n      dup1\n      0x20\n      add\n      0x40\n      mstore\n      dup1\n      0x00\n      dup2\n      mstore\n      pop\n      swap1\n      pop\n        /* \"contracts/RNNManager.sol\":10532:11291  function doctor_print_record(address _unique_id) public returns (string memory){... */\n      swap2\n      swap1\n      pop\n      jump\t// out\n        /* \"contracts/RNNManager.sol\":6460:6825  function removeAudit(address _audit_address) public only_owner returns (string memory) {... */\n    tag_79:\n        /* \"contracts/RNNManager.sol\":6532:6545  string memory */\n      0x60\n        /* \"contracts/RNNManager.sol\":2210:2220  msg.sender */\n      caller\n        /* \"contracts/RNNManager.sol\":2201:2220  owner == msg.sender */\n      0xffffffffffffffffffffffffffffffffffffffff\n      and\n        /* \"contracts/RNNManager.sol\":2201:2206  owner */\n      0x00\n      dup1\n      sload\n      swap1\n      0x0100\n      exp\n      swap1\n      div\n      0xffffffffffffffffffffffffffffffffffffffff\n      and\n        /* \"contracts/RNNManager.sol\":2201:2220  owner == msg.sender */\n      0xffffffffffffffffffffffffffffffffffffffff\n      and\n      eq\n        /* \"contracts/RNNManager.sol\":2193:2221  require(owner == msg.sender) */\n      tag_194\n      jumpi\n      0x00\n      dup1\n      revert\n    tag_194:\n        /* \"contracts/RNNManager.sol\":6607:6613  audits */\n      0x0c\n        /* \"contracts/RNNManager.sol\":6607:6629  audits[_audit_address] */\n      0x00\n        /* \"contracts/RNNManager.sol\":6614:6628  _audit_address */\n      dup4\n        /* \"contracts/RNNManager.sol\":6607:6629  audits[_audit_address] */\n      0xffffffffffffffffffffffffffffffffffffffff\n      and\n      0xffffffffffffffffffffffffffffffffffffffff\n      and\n      dup2\n      mstore\n      0x20\n      add\n      swap1\n      dup2\n      mstore\n      0x20\n      add\n      0x00\n      keccak256\n      0x00\n      swap1\n      sload\n      swap1\n      0x0100\n      exp\n      swap1\n      div\n      0xff\n      and\n        /* \"contracts/RNNManager.sol\":6604:6687  if(audits[_audit_address]){... */\n      iszero\n      tag_196\n      jumpi\n        /* \"contracts/RNNManager.sol\":6670:6675  false */\n      0x00\n        /* \"contracts/RNNManager.sol\":6645:6651  audits */\n      0x0c\n        /* \"contracts/RNNManager.sol\":6645:6667  audits[_audit_address] */\n      0x00\n        /* \"contracts/RNNManager.sol\":6652:6666  _audit_address */\n      dup5\n        /* \"contracts/RNNManager.sol\":6645:6667  audits[_audit_address] */\n      0xffffffffffffffffffffffffffffffffffffffff\n      and\n      0xffffffffffffffffffffffffffffffffffffffff\n      and\n      dup2\n      mstore\n      0x20\n      add\n      swap1\n      dup2\n      mstore\n      0x20\n      add\n      0x00\n      keccak256\n      0x00\n        /* \"contracts/RNNManager.sol\":6645:6675  audits[_audit_address] = false */\n      0x0100\n      exp\n      dup2\n      sload\n      dup2\n      0xff\n      mul\n      not\n      and\n      swap1\n      dup4\n      iszero\n      iszero\n      mul\n      or\n      swap1\n      sstore\n      pop\n        /* \"contracts/RNNManager.sol\":6604:6687  if(audits[_audit_address]){... */\n    tag_196:\n        /* \"contracts/RNNManager.sol\":6702:6777  event_remove_audit(\"An audit is removed.\", _audit_address, block.timestamp) */\n      0xab14abf9ce720d4dfa04591da5de1ead53e0c4fdadfca225baaea81626567d4d\n        /* \"contracts/RNNManager.sol\":6745:6759  _audit_address */\n      dup3\n        /* \"contracts/RNNManager.sol\":6761:6776  block.timestamp */\n      timestamp\n        /* \"contracts/RNNManager.sol\":6702:6777  event_remove_audit(\"An audit is removed.\", _audit_address, block.timestamp) */\n      mload(0x40)\n      tag_197\n      swap3\n      swap2\n      swap1\n      tag_198\n      jump\t// in\n    tag_197:\n      mload(0x40)\n      dup1\n      swap2\n      sub\n      swap1\n      log1\n        /* \"contracts/RNNManager.sol\":6788:6817  return \"A doctor is removed.\" */\n      mload(0x40)\n      dup1\n      0x40\n      add\n      0x40\n      mstore\n      dup1\n      0x14\n      dup2\n      mstore\n      0x20\n      add\n      0x4120646f63746f722069732072656d6f7665642e000000000000000000000000\n      dup2\n      mstore\n      pop\n      swap1\n      pop\n        /* \"contracts/RNNManager.sol\":6460:6825  function removeAudit(address _audit_address) public only_owner returns (string memory) {... */\n      swap2\n      swap1\n      pop\n      jump\t// out\n        /* \"contracts/RNNManager.sol\":5095:5466  function addDoctors(address _doctor_address) public only_owner returns (string memory) {... */\n    tag_83:\n        /* \"contracts/RNNManager.sol\":5167:5180  string memory */\n      0x60\n        /* \"contracts/RNNManager.sol\":2210:2220  msg.sender */\n      caller\n        /* \"contracts/RNNManager.sol\":2201:2220  owner == msg.sender */\n      0xffffffffffffffffffffffffffffffffffffffff\n      and\n        /* \"contracts/RNNManager.sol\":2201:2206  owner */\n      0x00\n      dup1\n      sload\n      swap1\n      0x0100\n      exp\n      swap1\n      div\n      0xffffffffffffffffffffffffffffffffffffffff\n      and\n        /* \"contracts/RNNManager.sol\":2201:2220  owner == msg.sender */\n      0xffffffffffffffffffffffffffffffffffffffff\n      and\n      eq\n        /* \"contracts/RNNManager.sol\":2193:2221  require(owner == msg.sender) */\n      tag_200\n      jumpi\n      0x00\n      dup1\n      revert\n    tag_200:\n        /* \"contracts/RNNManager.sol\":5250:5257  doctors */\n      0x0b\n        /* \"contracts/RNNManager.sol\":5250:5274  doctors[_doctor_address] */\n      0x00\n        /* \"contracts/RNNManager.sol\":5258:5273  _doctor_address */\n      dup4\n        /* \"contracts/RNNManager.sol\":5250:5274  doctors[_doctor_address] */\n      0xffffffffffffffffffffffffffffffffffffffff\n      and\n      0xffffffffffffffffffffffffffffffffffffffff\n      and\n      dup2\n      mstore\n      0x20\n      add\n      swap1\n      dup2\n      mstore\n      0x20\n      add\n      0x00\n      keccak256\n      0x00\n      swap1\n      sload\n      swap1\n      0x0100\n      exp\n      swap1\n      div\n      0xff\n      and\n        /* \"contracts/RNNManager.sol\":5246:5333  if(!doctors[_doctor_address]){... */\n      tag_202\n      jumpi\n        /* \"contracts/RNNManager.sol\":5317:5321  true */\n      0x01\n        /* \"contracts/RNNManager.sol\":5290:5297  doctors */\n      0x0b\n        /* \"contracts/RNNManager.sol\":5290:5314  doctors[_doctor_address] */\n      0x00\n        /* \"contracts/RNNManager.sol\":5298:5313  _doctor_address */\n      dup5\n        /* \"contracts/RNNManager.sol\":5290:5314  doctors[_doctor_address] */\n      0xffffffffffffffffffffffffffffffffffffffff\n      and\n      0xffffffffffffffffffffffffffffffffffffffff\n      and\n      dup2\n      mstore\n      0x20\n      add\n      swap1\n      dup2\n      mstore\n      0x20\n      add\n      0x00\n      keccak256\n      0x00\n        /* \"contracts/RNNManager.sol\":5290:5321  doctors[_doctor_address] = true */\n      0x0100\n      exp\n      dup2\n      sload\n      dup2\n      0xff\n      mul\n      not\n      and\n      swap1\n      dup4\n      iszero\n      iszero\n      mul\n      or\n      swap1\n      sstore\n      pop\n        /* \"contracts/RNNManager.sol\":5246:5333  if(!doctors[_doctor_address]){... */\n    tag_202:\n        /* \"contracts/RNNManager.sol\":5348:5420  event_add_doctor(\"A doctor is added.\", _doctor_address, block.timestamp) */\n      0x51ab0ad16f4f10b093a4b9bc75d760dc953842c743d54ae9faa9b5aae40659aa\n        /* \"contracts/RNNManager.sol\":5387:5402  _doctor_address */\n      dup3\n        /* \"contracts/RNNManager.sol\":5404:5419  block.timestamp */\n      timestamp\n        /* \"contracts/RNNManager.sol\":5348:5420  event_add_doctor(\"A doctor is added.\", _doctor_address, block.timestamp) */\n      mload(0x40)\n      tag_203\n      swap3\n      swap2\n      swap1\n      tag_204\n      jump\t// in\n    tag_203:\n      mload(0x40)\n      dup1\n      swap2\n      sub\n      swap1\n      log1\n        /* \"contracts/RNNManager.sol\":5431:5458  return \"A doctor is added.\" */\n      mload(0x40)\n      dup1\n      0x40\n      add\n      0x40\n      mstore\n      dup1\n      0x12\n      dup2\n      mstore\n      0x20\n      add\n      0x4120646f63746f722069732061646465642e0000000000000000000000000000\n      dup2\n      mstore\n      pop\n      swap1\n      pop\n        /* \"contracts/RNNManager.sol\":5095:5466  function addDoctors(address _doctor_address) public only_owner returns (string memory) {... */\n      swap2\n      swap1\n      pop\n      jump\t// out\n        /* \"contracts/RNNManager.sol\":12145:12938  function doctor_copy_record(address _unique_id) public returns (string memory){... */\n    tag_87:\n        /* \"contracts/RNNManager.sol\":12209:12222  string memory */\n      0x60\n        /* \"contracts/RNNManager.sol\":12242:12256  record_mapping */\n      0x0a\n        /* \"contracts/RNNManager.sol\":12242:12268  record_mapping[_unique_id] */\n      0x00\n        /* \"contracts/RNNManager.sol\":12257:12267  _unique_id */\n      dup4\n        /* \"contracts/RNNManager.sol\":12242:12268  record_mapping[_unique_id] */\n      0xffffffffffffffffffffffffffffffffffffffff\n      and\n      0xffffffffffffffffffffffffffffffffffffffff\n      and\n      dup2\n      mstore\n      0x20\n      add\n      swap1\n      dup2\n      mstore\n      0x20\n      add\n      0x00\n      keccak256\n        /* \"contracts/RNNManager.sol\":12242:12285  record_mapping[_unique_id].is_uid_generated */\n      0x00\n      add\n      0x00\n      swap1\n      sload\n      swap1\n      0x0100\n      exp\n      swap1\n      div\n      0xff\n      and\n        /* \"contracts/RNNManager.sol\":12234:12286  require(record_mapping[_unique_id].is_uid_generated) */\n      tag_206\n      jumpi\n      0x00\n      dup1\n      revert\n    tag_206:\n        /* \"contracts/RNNManager.sol\":12305:12312  doctors */\n      0x0b\n        /* \"contracts/RNNManager.sol\":12305:12324  doctors[msg.sender] */\n      0x00\n        /* \"contracts/RNNManager.sol\":12313:12323  msg.sender */\n      caller\n        /* \"contracts/RNNManager.sol\":12305:12324  doctors[msg.sender] */\n      0xffffffffffffffffffffffffffffffffffffffff\n      and\n      0xffffffffffffffffffffffffffffffffffffffff\n      and\n      dup2\n      mstore\n      0x20\n      add\n      swap1\n      dup2\n      mstore\n      0x20\n      add\n      0x00\n      keccak256\n      0x00\n      swap1\n      sload\n      swap1\n      0x0100\n      exp\n      swap1\n      div\n      0xff\n      and\n        /* \"contracts/RNNManager.sol\":12305:12346  doctors[msg.sender] || audits[msg.sender] */\n      dup1\n      tag_207\n      jumpi\n      pop\n        /* \"contracts/RNNManager.sol\":12328:12334  audits */\n      0x0c\n        /* \"contracts/RNNManager.sol\":12328:12346  audits[msg.sender] */\n      0x00\n        /* \"contracts/RNNManager.sol\":12335:12345  msg.sender */\n      caller\n        /* \"contracts/RNNManager.sol\":12328:12346  audits[msg.sender] */\n      0xffffffffffffffffffffffffffffffffffffffff\n      and\n      0xffffffffffffffffffffffffffffffffffffffff\n      and\n      dup2\n      mstore\n      0x20\n      add\n      swap1\n      dup2\n      mstore\n      0x20\n      add\n      0x00\n      keccak256\n      0x00\n      swap1\n      sload\n      swap1\n      0x0100\n      exp\n      swap1\n      div\n      0xff\n      and\n        /* \"contracts/RNNManager.sol\":12305:12346  doctors[msg.sender] || audits[msg.sender] */\n    tag_207:\n        /* \"contracts/RNNManager.sol\":12297:12362  require(doctors[msg.sender] || audits[msg.sender], \"Not working\") */\n      tag_208\n      jumpi\n      mload(0x40)\n      0x08c379a000000000000000000000000000000000000000000000000000000000\n      dup2\n      mstore\n      0x04\n      add\n      tag_209\n      swap1\n      tag_107\n      jump\t// in\n    tag_209:\n      mload(0x40)\n      dup1\n      swap2\n      sub\n      swap1\n      revert\n    tag_208:\n        /* \"contracts/RNNManager.sol\":12423:12424  1 */\n      0x01\n        /* \"contracts/RNNManager.sol\":12381:12395  record_mapping */\n      0x0a\n        /* \"contracts/RNNManager.sol\":12381:12407  record_mapping[_unique_id] */\n      0x00\n        /* \"contracts/RNNManager.sol\":12396:12406  _unique_id */\n      dup5\n        /* \"contracts/RNNManager.sol\":12381:12407  record_mapping[_unique_id] */\n      0xffffffffffffffffffffffffffffffffffffffff\n      and\n      0xffffffffffffffffffffffffffffffffffffffff\n      and\n      dup2\n      mstore\n      0x20\n      add\n      swap1\n      dup2\n      mstore\n      0x20\n      add\n      0x00\n      keccak256\n        /* \"contracts/RNNManager.sol\":12381:12421  record_mapping[_unique_id].record_status */\n      0x03\n      add\n      sload\n        /* \"contracts/RNNManager.sol\":12381:12424  record_mapping[_unique_id].record_status!=1 */\n      sub\n        /* \"contracts/RNNManager.sol\":12373:12425  require(record_mapping[_unique_id].record_status!=1) */\n      tag_210\n      jumpi\n      0x00\n      dup1\n      revert\n    tag_210:\n        /* \"contracts/RNNManager.sol\":12478:12488  msg.sender */\n      caller\n        /* \"contracts/RNNManager.sol\":12442:12456  record_mapping */\n      0x0a\n        /* \"contracts/RNNManager.sol\":12442:12468  record_mapping[_unique_id] */\n      0x00\n        /* \"contracts/RNNManager.sol\":12457:12467  _unique_id */\n      dup5\n        /* \"contracts/RNNManager.sol\":12442:12468  record_mapping[_unique_id] */\n      0xffffffffffffffffffffffffffffffffffffffff\n      and\n      0xffffffffffffffffffffffffffffffffffffffff\n      and\n      dup2\n      mstore\n      0x20\n      add\n      swap1\n      dup2\n      mstore\n      0x20\n      add\n      0x00\n      keccak256\n        /* \"contracts/RNNManager.sol\":12442:12475  record_mapping[_unique_id].doctor */\n      0x07\n      add\n      0x00\n        /* \"contracts/RNNManager.sol\":12442:12488  record_mapping[_unique_id].doctor = msg.sender */\n      0x0100\n      exp\n      dup2\n      sload\n      dup2\n      0xffffffffffffffffffffffffffffffffffffffff\n      mul\n      not\n      and\n      swap1\n      dup4\n      0xffffffffffffffffffffffffffffffffffffffff\n      and\n      mul\n      or\n      swap1\n      sstore\n      pop\n        /* \"contracts/RNNManager.sol\":12540:12555  block.timestamp */\n      timestamp\n        /* \"contracts/RNNManager.sol\":12499:12513  record_mapping */\n      0x0a\n        /* \"contracts/RNNManager.sol\":12499:12525  record_mapping[_unique_id] */\n      0x00\n        /* \"contracts/RNNManager.sol\":12514:12524  _unique_id */\n      dup5\n        /* \"contracts/RNNManager.sol\":12499:12525  record_mapping[_unique_id] */\n      0xffffffffffffffffffffffffffffffffffffffff\n      and\n      0xffffffffffffffffffffffffffffffffffffffff\n      and\n      dup2\n      mstore\n      0x20\n      add\n      swap1\n      dup2\n      mstore\n      0x20\n      add\n      0x00\n      keccak256\n        /* \"contracts/RNNManager.sol\":12499:12537  record_mapping[_unique_id].doctor_time */\n      0x08\n      add\n        /* \"contracts/RNNManager.sol\":12499:12555  record_mapping[_unique_id].doctor_time = block.timestamp */\n      dup2\n      swap1\n      sstore\n      pop\n        /* \"contracts/RNNManager.sol\":12619:12620  5 */\n      0x05\n        /* \"contracts/RNNManager.sol\":12576:12590  record_mapping */\n      0x0a\n        /* \"contracts/RNNManager.sol\":12576:12602  record_mapping[_unique_id] */\n      0x00\n        /* \"contracts/RNNManager.sol\":12591:12601  _unique_id */\n      dup5\n        /* \"contracts/RNNManager.sol\":12576:12602  record_mapping[_unique_id] */\n      0xffffffffffffffffffffffffffffffffffffffff\n      and\n      0xffffffffffffffffffffffffffffffffffffffff\n      and\n      dup2\n      mstore\n      0x20\n      add\n      swap1\n      dup2\n      mstore\n      0x20\n      add\n      0x00\n      keccak256\n        /* \"contracts/RNNManager.sol\":12576:12616  record_mapping[_unique_id].record_status */\n      0x03\n      add\n        /* \"contracts/RNNManager.sol\":12576:12620  record_mapping[_unique_id].record_status = 5 */\n      dup2\n      swap1\n      sstore\n      pop\n        /* \"contracts/RNNManager.sol\":12631:12706  record_mapping[_unique_id].record_msg = \"Record is copied by doctor/audit.\" */\n      mload(0x40)\n      dup1\n      0x60\n      add\n      0x40\n      mstore\n      dup1\n      0x21\n      dup2\n      mstore\n      0x20\n      add\n      data_4978b6b03187df844a847c278aaf4a67aa6dcd97b76a4c1ab7c656e8ee41cb6d\n      0x21\n      swap2\n      codecopy\n        /* \"contracts/RNNManager.sol\":12631:12645  record_mapping */\n      0x0a\n        /* \"contracts/RNNManager.sol\":12631:12657  record_mapping[_unique_id] */\n      0x00\n        /* \"contracts/RNNManager.sol\":12646:12656  _unique_id */\n      dup5\n        /* \"contracts/RNNManager.sol\":12631:12657  record_mapping[_unique_id] */\n      0xffffffffffffffffffffffffffffffffffffffff\n      and\n      0xffffffffffffffffffffffffffffffffffffffff\n      and\n      dup2\n      mstore\n      0x20\n      add\n      swap1\n      dup2\n      mstore\n      0x20\n      add\n      0x00\n      keccak256\n        /* \"contracts/RNNManager.sol\":12631:12668  record_mapping[_unique_id].record_msg */\n      0x02\n      add\n        /* \"contracts/RNNManager.sol\":12631:12706  record_mapping[_unique_id].record_msg = \"Record is copied by doctor/audit.\" */\n      swap1\n      dup2\n      tag_211\n      swap2\n      swap1\n      tag_136\n      jump\t// in\n    tag_211:\n      pop\n        /* \"contracts/RNNManager.sol\":12722:12910  event_doctor_copy(... */\n      0x49b37b6c2e1da17dbf397324fe77f392778404db069d7652d87feb8e0be2bb1d\n        /* \"contracts/RNNManager.sol\":12754:12768  record_mapping */\n      0x0a\n        /* \"contracts/RNNManager.sol\":12754:12780  record_mapping[_unique_id] */\n      0x00\n        /* \"contracts/RNNManager.sol\":12769:12779  _unique_id */\n      dup5\n        /* \"contracts/RNNManager.sol\":12754:12780  record_mapping[_unique_id] */\n      0xffffffffffffffffffffffffffffffffffffffff\n      and\n      0xffffffffffffffffffffffffffffffffffffffff\n      and\n      dup2\n      mstore\n      0x20\n      add\n      swap1\n      dup2\n      mstore\n      0x20\n      add\n      0x00\n      keccak256\n        /* \"contracts/RNNManager.sol\":12754:12791  record_mapping[_unique_id].record_msg */\n      0x02\n      add\n        /* \"contracts/RNNManager.sol\":12806:12820  record_mapping */\n      0x0a\n        /* \"contracts/RNNManager.sol\":12806:12832  record_mapping[_unique_id] */\n      0x00\n        /* \"contracts/RNNManager.sol\":12821:12831  _unique_id */\n      dup6\n        /* \"contracts/RNNManager.sol\":12806:12832  record_mapping[_unique_id] */\n      0xffffffffffffffffffffffffffffffffffffffff\n      and\n      0xffffffffffffffffffffffffffffffffffffffff\n      and\n      dup2\n      mstore\n      0x20\n      add\n      swap1\n      dup2\n      mstore\n      0x20\n      add\n      0x00\n      keccak256\n        /* \"contracts/RNNManager.sol\":12806:12846  record_mapping[_unique_id].record_status */\n      0x03\n      add\n      sload\n        /* \"contracts/RNNManager.sol\":12861:12875  record_mapping */\n      0x0a\n        /* \"contracts/RNNManager.sol\":12861:12887  record_mapping[_unique_id] */\n      0x00\n        /* \"contracts/RNNManager.sol\":12876:12886  _unique_id */\n      dup7\n        /* \"contracts/RNNManager.sol\":12861:12887  record_mapping[_unique_id] */\n      0xffffffffffffffffffffffffffffffffffffffff\n      and\n      0xffffffffffffffffffffffffffffffffffffffff\n      and\n      dup2\n      mstore\n      0x20\n      add\n      swap1\n      dup2\n      mstore\n      0x20\n      add\n      0x00\n      keccak256\n        /* \"contracts/RNNManager.sol\":12861:12899  record_mapping[_unique_id].record_time */\n      0x06\n      add\n      sload\n        /* \"contracts/RNNManager.sol\":12722:12910  event_doctor_copy(... */\n      mload(0x40)\n      tag_212\n      swap4\n      swap3\n      swap2\n      swap1\n      tag_139\n      jump\t// in\n    tag_212:\n      mload(0x40)\n      dup1\n      swap2\n      sub\n      swap1\n      log1\n        /* \"contracts/RNNManager.sol\":12921:12930  return \"\" */\n      mload(0x40)\n      dup1\n      0x20\n      add\n      0x40\n      mstore\n      dup1\n      0x00\n      dup2\n      mstore\n      pop\n      swap1\n      pop\n        /* \"contracts/RNNManager.sol\":12145:12938  function doctor_copy_record(address _unique_id) public returns (string memory){... */\n      swap2\n      swap1\n      pop\n      jump\t// out\n        /* \"contracts/RNNManager.sol\":8868:9601  function print_record(address _unique_id) public returns (string memory){... */\n    tag_91:\n        /* \"contracts/RNNManager.sol\":8926:8939  string memory */\n      0x60\n        /* \"contracts/RNNManager.sol\":9006:9010  true */\n      0x01\n        /* \"contracts/RNNManager.sol\":8959:9010  record_mapping[_unique_id].is_uid_generated == true */\n      iszero\n      iszero\n        /* \"contracts/RNNManager.sol\":8959:8973  record_mapping */\n      0x0a\n        /* \"contracts/RNNManager.sol\":8959:8985  record_mapping[_unique_id] */\n      0x00\n        /* \"contracts/RNNManager.sol\":8974:8984  _unique_id */\n      dup5\n        /* \"contracts/RNNManager.sol\":8959:8985  record_mapping[_unique_id] */\n      0xffffffffffffffffffffffffffffffffffffffff\n      and\n      0xffffffffffffffffffffffffffffffffffffffff\n      and\n      dup2\n      mstore\n      0x20\n      add\n      swap1\n      dup2\n      mstore\n      0x20\n      add\n      0x00\n      keccak256\n        /* \"contracts/RNNManager.sol\":8959:9002  record_mapping[_unique_id].is_uid_generated */\n      0x00\n      add\n      0x00\n      swap1\n      sload\n      swap1\n      0x0100\n      exp\n      swap1\n      div\n      0xff\n      and\n        /* \"contracts/RNNManager.sol\":8959:9010  record_mapping[_unique_id].is_uid_generated == true */\n      iszero\n      iszero\n      eq\n        /* \"contracts/RNNManager.sol\":8951:9011  require(record_mapping[_unique_id].is_uid_generated == true) */\n      tag_214\n      jumpi\n      0x00\n      dup1\n      revert\n    tag_214:\n        /* \"contracts/RNNManager.sol\":9076:9086  msg.sender */\n      caller\n        /* \"contracts/RNNManager.sol\":9030:9086  record_mapping[_unique_id].patient_address == msg.sender */\n      0xffffffffffffffffffffffffffffffffffffffff\n      and\n        /* \"contracts/RNNManager.sol\":9030:9044  record_mapping */\n      0x0a\n        /* \"contracts/RNNManager.sol\":9030:9056  record_mapping[_unique_id] */\n      0x00\n        /* \"contracts/RNNManager.sol\":9045:9055  _unique_id */\n      dup5\n        /* \"contracts/RNNManager.sol\":9030:9056  record_mapping[_unique_id] */\n      0xffffffffffffffffffffffffffffffffffffffff\n      and\n      0xffffffffffffffffffffffffffffffffffffffff\n      and\n      dup2\n      mstore\n      0x20\n      add\n      swap1\n      dup2\n      mstore\n      0x20\n      add\n      0x00\n      keccak256\n        /* \"contracts/RNNManager.sol\":9030:9072  record_mapping[_unique_id].patient_address */\n      0x05\n      add\n      0x00\n      swap1\n      sload\n      swap1\n      0x0100\n      exp\n      swap1\n      div\n      0xffffffffffffffffffffffffffffffffffffffff\n      and\n        /* \"contracts/RNNManager.sol\":9030:9086  record_mapping[_unique_id].patient_address == msg.sender */\n      0xffffffffffffffffffffffffffffffffffffffff\n      and\n      eq\n        /* \"contracts/RNNManager.sol\":9022:9087  require(record_mapping[_unique_id].patient_address == msg.sender) */\n      tag_215\n      jumpi\n      0x00\n      dup1\n      revert\n    tag_215:\n        /* \"contracts/RNNManager.sol\":9148:9149  1 */\n      0x01\n        /* \"contracts/RNNManager.sol\":9106:9120  record_mapping */\n      0x0a\n        /* \"contracts/RNNManager.sol\":9106:9132  record_mapping[_unique_id] */\n      0x00\n        /* \"contracts/RNNManager.sol\":9121:9131  _unique_id */\n      dup5\n        /* \"contracts/RNNManager.sol\":9106:9132  record_mapping[_unique_id] */\n      0xffffffffffffffffffffffffffffffffffffffff\n      and\n      0xffffffffffffffffffffffffffffffffffffffff\n      and\n      dup2\n      mstore\n      0x20\n      add\n      swap1\n      dup2\n      mstore\n      0x20\n      add\n      0x00\n      keccak256\n        /* \"contracts/RNNManager.sol\":9106:9146  record_mapping[_unique_id].record_status */\n      0x03\n      add\n      sload\n        /* \"contracts/RNNManager.sol\":9106:9149  record_mapping[_unique_id].record_status!=1 */\n      sub\n        /* \"contracts/RNNManager.sol\":9098:9150  require(record_mapping[_unique_id].record_status!=1) */\n      tag_216\n      jumpi\n      0x00\n      dup1\n      revert\n    tag_216:\n        /* \"contracts/RNNManager.sol\":9213:9228  block.timestamp */\n      timestamp\n        /* \"contracts/RNNManager.sol\":9172:9186  record_mapping */\n      0x0a\n        /* \"contracts/RNNManager.sol\":9172:9198  record_mapping[_unique_id] */\n      0x00\n        /* \"contracts/RNNManager.sol\":9187:9197  _unique_id */\n      dup5\n        /* \"contracts/RNNManager.sol\":9172:9198  record_mapping[_unique_id] */\n      0xffffffffffffffffffffffffffffffffffffffff\n      and\n      0xffffffffffffffffffffffffffffffffffffffff\n      and\n      dup2\n      mstore\n      0x20\n      add\n      swap1\n      dup2\n      mstore\n      0x20\n      add\n      0x00\n      keccak256\n        /* \"contracts/RNNManager.sol\":9172:9210  record_mapping[_unique_id].record_time */\n      0x06\n      add\n        /* \"contracts/RNNManager.sol\":9172:9228  record_mapping[_unique_id].record_time = block.timestamp */\n      dup2\n      swap1\n      sstore\n      pop\n        /* \"contracts/RNNManager.sol\":9284:9285  4 */\n      0x04\n        /* \"contracts/RNNManager.sol\":9241:9255  record_mapping */\n      0x0a\n        /* \"contracts/RNNManager.sol\":9241:9267  record_mapping[_unique_id] */\n      0x00\n        /* \"contracts/RNNManager.sol\":9256:9266  _unique_id */\n      dup5\n        /* \"contracts/RNNManager.sol\":9241:9267  record_mapping[_unique_id] */\n      0xffffffffffffffffffffffffffffffffffffffff\n      and\n      0xffffffffffffffffffffffffffffffffffffffff\n      and\n      dup2\n      mstore\n      0x20\n      add\n      swap1\n      dup2\n      mstore\n      0x20\n      add\n      0x00\n      keccak256\n        /* \"contracts/RNNManager.sol\":9241:9281  record_mapping[_unique_id].record_status */\n      0x03\n      add\n        /* \"contracts/RNNManager.sol\":9241:9285  record_mapping[_unique_id].record_status = 4 */\n      dup2\n      swap1\n      sstore\n      pop\n        /* \"contracts/RNNManager.sol\":9296:9367  record_mapping[_unique_id].record_msg = \"Record is printed by patient.\" */\n      mload(0x40)\n      dup1\n      0x40\n      add\n      0x40\n      mstore\n      dup1\n      0x1d\n      dup2\n      mstore\n      0x20\n      add\n      0x5265636f7264206973207072696e7465642062792070617469656e742e000000\n      dup2\n      mstore\n      pop\n        /* \"contracts/RNNManager.sol\":9296:9310  record_mapping */\n      0x0a\n        /* \"contracts/RNNManager.sol\":9296:9322  record_mapping[_unique_id] */\n      0x00\n        /* \"contracts/RNNManager.sol\":9311:9321  _unique_id */\n      dup5\n        /* \"contracts/RNNManager.sol\":9296:9322  record_mapping[_unique_id] */\n      0xffffffffffffffffffffffffffffffffffffffff\n      and\n      0xffffffffffffffffffffffffffffffffffffffff\n      and\n      dup2\n      mstore\n      0x20\n      add\n      swap1\n      dup2\n      mstore\n      0x20\n      add\n      0x00\n      keccak256\n        /* \"contracts/RNNManager.sol\":9296:9333  record_mapping[_unique_id].record_msg */\n      0x02\n      add\n        /* \"contracts/RNNManager.sol\":9296:9367  record_mapping[_unique_id].record_msg = \"Record is printed by patient.\" */\n      swap1\n      dup2\n      tag_217\n      swap2\n      swap1\n      tag_136\n      jump\t// in\n    tag_217:\n      pop\n        /* \"contracts/RNNManager.sol\":9383:9573  event_patient_print(... */\n      0xddaa844cc6ae769766c27824c8e5c94b60683cee90d23f0a99f33b2b243a1fde\n        /* \"contracts/RNNManager.sol\":9417:9431  record_mapping */\n      0x0a\n        /* \"contracts/RNNManager.sol\":9417:9443  record_mapping[_unique_id] */\n      0x00\n        /* \"contracts/RNNManager.sol\":9432:9442  _unique_id */\n      dup5\n        /* \"contracts/RNNManager.sol\":9417:9443  record_mapping[_unique_id] */\n      0xffffffffffffffffffffffffffffffffffffffff\n      and\n      0xffffffffffffffffffffffffffffffffffffffff\n      and\n      dup2\n      mstore\n      0x20\n      add\n      swap1\n      dup2\n      mstore\n      0x20\n      add\n      0x00\n      keccak256\n        /* \"contracts/RNNManager.sol\":9417:9454  record_mapping[_unique_id].record_msg */\n      0x02\n      add\n        /* \"contracts/RNNManager.sol\":9469:9483  record_mapping */\n      0x0a\n        /* \"contracts/RNNManager.sol\":9469:9495  record_mapping[_unique_id] */\n      0x00\n        /* \"contracts/RNNManager.sol\":9484:9494  _unique_id */\n      dup6\n        /* \"contracts/RNNManager.sol\":9469:9495  record_mapping[_unique_id] */\n      0xffffffffffffffffffffffffffffffffffffffff\n      and\n      0xffffffffffffffffffffffffffffffffffffffff\n      and\n      dup2\n      mstore\n      0x20\n      add\n      swap1\n      dup2\n      mstore\n      0x20\n      add\n      0x00\n      keccak256\n        /* \"contracts/RNNManager.sol\":9469:9509  record_mapping[_unique_id].record_status */\n      0x03\n      add\n      sload\n        /* \"contracts/RNNManager.sol\":9524:9538  record_mapping */\n      0x0a\n        /* \"contracts/RNNManager.sol\":9524:9550  record_mapping[_unique_id] */\n      0x00\n        /* \"contracts/RNNManager.sol\":9539:9549  _unique_id */\n      dup7\n        /* \"contracts/RNNManager.sol\":9524:9550  record_mapping[_unique_id] */\n      0xffffffffffffffffffffffffffffffffffffffff\n      and\n      0xffffffffffffffffffffffffffffffffffffffff\n      and\n      dup2\n      mstore\n      0x20\n      add\n      swap1\n      dup2\n      mstore\n      0x20\n      add\n      0x00\n      keccak256\n        /* \"contracts/RNNManager.sol\":9524:9562  record_mapping[_unique_id].record_time */\n      0x06\n      add\n      sload\n        /* \"contracts/RNNManager.sol\":9383:9573  event_patient_print(... */\n      mload(0x40)\n      tag_218\n      swap4\n      swap3\n      swap2\n      swap1\n      tag_139\n      jump\t// in\n    tag_218:\n      mload(0x40)\n      dup1\n      swap2\n      sub\n      swap1\n      log1\n        /* \"contracts/RNNManager.sol\":9584:9593  return \"\" */\n      mload(0x40)\n      dup1\n      0x20\n      add\n      0x40\n      mstore\n      dup1\n      0x00\n      dup2\n      mstore\n      pop\n      swap1\n      pop\n        /* \"contracts/RNNManager.sol\":8868:9601  function print_record(address _unique_id) public returns (string memory){... */\n      swap2\n      swap1\n      pop\n      jump\t// out\n        /* \"#utility.yul\":7:82   */\n    tag_219:\n        /* \"#utility.yul\":40:46   */\n      0x00\n        /* \"#utility.yul\":73:75   */\n      0x40\n        /* \"#utility.yul\":67:76   */\n      mload\n        /* \"#utility.yul\":57:76   */\n      swap1\n      pop\n        /* \"#utility.yul\":7:82   */\n      swap1\n      jump\t// out\n        /* \"#utility.yul\":88:205   */\n    tag_220:\n        /* \"#utility.yul\":197:198   */\n      0x00\n        /* \"#utility.yul\":194:195   */\n      dup1\n        /* \"#utility.yul\":187:199   */\n      revert\n        /* \"#utility.yul\":211:328   */\n    tag_221:\n        /* \"#utility.yul\":320:321   */\n      0x00\n        /* \"#utility.yul\":317:318   */\n      dup1\n        /* \"#utility.yul\":310:322   */\n      revert\n        /* \"#utility.yul\":334:460   */\n    tag_222:\n        /* \"#utility.yul\":371:378   */\n      0x00\n        /* \"#utility.yul\":411:453   */\n      0xffffffffffffffffffffffffffffffffffffffff\n        /* \"#utility.yul\":404:409   */\n      dup3\n        /* \"#utility.yul\":400:454   */\n      and\n        /* \"#utility.yul\":389:454   */\n      swap1\n      pop\n        /* \"#utility.yul\":334:460   */\n      swap2\n      swap1\n      pop\n      jump\t// out\n        /* \"#utility.yul\":466:562   */\n    tag_223:\n        /* \"#utility.yul\":503:510   */\n      0x00\n        /* \"#utility.yul\":532:556   */\n      tag_292\n        /* \"#utility.yul\":550:555   */\n      dup3\n        /* \"#utility.yul\":532:556   */\n      tag_222\n      jump\t// in\n    tag_292:\n        /* \"#utility.yul\":521:556   */\n      swap1\n      pop\n        /* \"#utility.yul\":466:562   */\n      swap2\n      swap1\n      pop\n      jump\t// out\n        /* \"#utility.yul\":568:690   */\n    tag_224:\n        /* \"#utility.yul\":641:665   */\n      tag_294\n        /* \"#utility.yul\":659:664   */\n      dup2\n        /* \"#utility.yul\":641:665   */\n      tag_223\n      jump\t// in\n    tag_294:\n        /* \"#utility.yul\":634:639   */\n      dup2\n        /* \"#utility.yul\":631:666   */\n      eq\n        /* \"#utility.yul\":621:684   */\n      tag_295\n      jumpi\n        /* \"#utility.yul\":680:681   */\n      0x00\n        /* \"#utility.yul\":677:678   */\n      dup1\n        /* \"#utility.yul\":670:682   */\n      revert\n        /* \"#utility.yul\":621:684   */\n    tag_295:\n        /* \"#utility.yul\":568:690   */\n      pop\n      jump\t// out\n        /* \"#utility.yul\":696:835   */\n    tag_225:\n        /* \"#utility.yul\":742:747   */\n      0x00\n        /* \"#utility.yul\":780:786   */\n      dup2\n        /* \"#utility.yul\":767:787   */\n      calldataload\n        /* \"#utility.yul\":758:787   */\n      swap1\n      pop\n        /* \"#utility.yul\":796:829   */\n      tag_297\n        /* \"#utility.yul\":823:828   */\n      dup2\n        /* \"#utility.yul\":796:829   */\n      tag_224\n      jump\t// in\n    tag_297:\n        /* \"#utility.yul\":696:835   */\n      swap3\n      swap2\n      pop\n      pop\n      jump\t// out\n        /* \"#utility.yul\":841:1170   */\n    tag_24:\n        /* \"#utility.yul\":900:906   */\n      0x00\n        /* \"#utility.yul\":949:951   */\n      0x20\n        /* \"#utility.yul\":937:946   */\n      dup3\n        /* \"#utility.yul\":928:935   */\n      dup5\n        /* \"#utility.yul\":924:947   */\n      sub\n        /* \"#utility.yul\":920:952   */\n      slt\n        /* \"#utility.yul\":917:1036   */\n      iszero\n      tag_299\n      jumpi\n        /* \"#utility.yul\":955:1034   */\n      tag_300\n      tag_220\n      jump\t// in\n    tag_300:\n        /* \"#utility.yul\":917:1036   */\n    tag_299:\n        /* \"#utility.yul\":1075:1076   */\n      0x00\n        /* \"#utility.yul\":1100:1153   */\n      tag_301\n        /* \"#utility.yul\":1145:1152   */\n      dup5\n        /* \"#utility.yul\":1136:1142   */\n      dup3\n        /* \"#utility.yul\":1125:1134   */\n      dup6\n        /* \"#utility.yul\":1121:1143   */\n      add\n        /* \"#utility.yul\":1100:1153   */\n      tag_225\n      jump\t// in\n    tag_301:\n        /* \"#utility.yul\":1090:1153   */\n      swap2\n      pop\n        /* \"#utility.yul\":1046:1163   */\n      pop\n        /* \"#utility.yul\":841:1170   */\n      swap3\n      swap2\n      pop\n      pop\n      jump\t// out\n        /* \"#utility.yul\":1176:1275   */\n    tag_226:\n        /* \"#utility.yul\":1228:1234   */\n      0x00\n        /* \"#utility.yul\":1262:1267   */\n      dup2\n        /* \"#utility.yul\":1256:1268   */\n      mload\n        /* \"#utility.yul\":1246:1268   */\n      swap1\n      pop\n        /* \"#utility.yul\":1176:1275   */\n      swap2\n      swap1\n      pop\n      jump\t// out\n        /* \"#utility.yul\":1281:1450   */\n    tag_227:\n        /* \"#utility.yul\":1365:1376   */\n      0x00\n        /* \"#utility.yul\":1399:1405   */\n      dup3\n        /* \"#utility.yul\":1394:1397   */\n      dup3\n        /* \"#utility.yul\":1387:1406   */\n      mstore\n        /* \"#utility.yul\":1439:1443   */\n      0x20\n        /* \"#utility.yul\":1434:1437   */\n      dup3\n        /* \"#utility.yul\":1430:1444   */\n      add\n        /* \"#utility.yul\":1415:1444   */\n      swap1\n      pop\n        /* \"#utility.yul\":1281:1450   */\n      swap3\n      swap2\n      pop\n      pop\n      jump\t// out\n        /* \"#utility.yul\":1456:1702   */\n    tag_228:\n        /* \"#utility.yul\":1537:1538   */\n      0x00\n        /* \"#utility.yul\":1547:1660   */\n    tag_305:\n        /* \"#utility.yul\":1561:1567   */\n      dup4\n        /* \"#utility.yul\":1558:1559   */\n      dup2\n        /* \"#utility.yul\":1555:1568   */\n      lt\n        /* \"#utility.yul\":1547:1660   */\n      iszero\n      tag_307\n      jumpi\n        /* \"#utility.yul\":1646:1647   */\n      dup1\n        /* \"#utility.yul\":1641:1644   */\n      dup3\n        /* \"#utility.yul\":1637:1648   */\n      add\n        /* \"#utility.yul\":1631:1649   */\n      mload\n        /* \"#utility.yul\":1627:1628   */\n      dup2\n        /* \"#utility.yul\":1622:1625   */\n      dup5\n        /* \"#utility.yul\":1618:1629   */\n      add\n        /* \"#utility.yul\":1611:1650   */\n      mstore\n        /* \"#utility.yul\":1583:1585   */\n      0x20\n        /* \"#utility.yul\":1580:1581   */\n      dup2\n        /* \"#utility.yul\":1576:1586   */\n      add\n        /* \"#utility.yul\":1571:1586   */\n      swap1\n      pop\n        /* \"#utility.yul\":1547:1660   */\n      jump(tag_305)\n    tag_307:\n        /* \"#utility.yul\":1694:1695   */\n      0x00\n        /* \"#utility.yul\":1685:1691   */\n      dup5\n        /* \"#utility.yul\":1680:1683   */\n      dup5\n        /* \"#utility.yul\":1676:1692   */\n      add\n        /* \"#utility.yul\":1669:1696   */\n      mstore\n        /* \"#utility.yul\":1518:1702   */\n      pop\n        /* \"#utility.yul\":1456:1702   */\n      pop\n      pop\n      pop\n      jump\t// out\n        /* \"#utility.yul\":1708:1810   */\n    tag_229:\n        /* \"#utility.yul\":1749:1755   */\n      0x00\n        /* \"#utility.yul\":1800:1802   */\n      0x1f\n        /* \"#utility.yul\":1796:1803   */\n      not\n        /* \"#utility.yul\":1791:1793   */\n      0x1f\n        /* \"#utility.yul\":1784:1789   */\n      dup4\n        /* \"#utility.yul\":1780:1794   */\n      add\n        /* \"#utility.yul\":1776:1804   */\n      and\n        /* \"#utility.yul\":1766:1804   */\n      swap1\n      pop\n        /* \"#utility.yul\":1708:1810   */\n      swap2\n      swap1\n      pop\n      jump\t// out\n        /* \"#utility.yul\":1816:2193   */\n    tag_230:\n        /* \"#utility.yul\":1904:1907   */\n      0x00\n        /* \"#utility.yul\":1932:1971   */\n      tag_310\n        /* \"#utility.yul\":1965:1970   */\n      dup3\n        /* \"#utility.yul\":1932:1971   */\n      tag_226\n      jump\t// in\n    tag_310:\n        /* \"#utility.yul\":1987:2058   */\n      tag_311\n        /* \"#utility.yul\":2051:2057   */\n      dup2\n        /* \"#utility.yul\":2046:2049   */\n      dup6\n        /* \"#utility.yul\":1987:2058   */\n      tag_227\n      jump\t// in\n    tag_311:\n        /* \"#utility.yul\":1980:2058   */\n      swap4\n      pop\n        /* \"#utility.yul\":2067:2132   */\n      tag_312\n        /* \"#utility.yul\":2125:2131   */\n      dup2\n        /* \"#utility.yul\":2120:2123   */\n      dup6\n        /* \"#utility.yul\":2113:2117   */\n      0x20\n        /* \"#utility.yul\":2106:2111   */\n      dup7\n        /* \"#utility.yul\":2102:2118   */\n      add\n        /* \"#utility.yul\":2067:2132   */\n      tag_228\n      jump\t// in\n    tag_312:\n        /* \"#utility.yul\":2157:2186   */\n      tag_313\n        /* \"#utility.yul\":2179:2185   */\n      dup2\n        /* \"#utility.yul\":2157:2186   */\n      tag_229\n      jump\t// in\n    tag_313:\n        /* \"#utility.yul\":2152:2155   */\n      dup5\n        /* \"#utility.yul\":2148:2187   */\n      add\n        /* \"#utility.yul\":2141:2187   */\n      swap2\n      pop\n        /* \"#utility.yul\":1908:2193   */\n      pop\n        /* \"#utility.yul\":1816:2193   */\n      swap3\n      swap2\n      pop\n      pop\n      jump\t// out\n        /* \"#utility.yul\":2199:2512   */\n    tag_27:\n        /* \"#utility.yul\":2312:2316   */\n      0x00\n        /* \"#utility.yul\":2350:2352   */\n      0x20\n        /* \"#utility.yul\":2339:2348   */\n      dup3\n        /* \"#utility.yul\":2335:2353   */\n      add\n        /* \"#utility.yul\":2327:2353   */\n      swap1\n      pop\n        /* \"#utility.yul\":2399:2408   */\n      dup2\n        /* \"#utility.yul\":2393:2397   */\n      dup2\n        /* \"#utility.yul\":2389:2409   */\n      sub\n        /* \"#utility.yul\":2385:2386   */\n      0x00\n        /* \"#utility.yul\":2374:2383   */\n      dup4\n        /* \"#utility.yul\":2370:2387   */\n      add\n        /* \"#utility.yul\":2363:2410   */\n      mstore\n        /* \"#utility.yul\":2427:2505   */\n      tag_315\n        /* \"#utility.yul\":2500:2504   */\n      dup2\n        /* \"#utility.yul\":2491:2497   */\n      dup5\n        /* \"#utility.yul\":2427:2505   */\n      tag_230\n      jump\t// in\n    tag_315:\n        /* \"#utility.yul\":2419:2505   */\n      swap1\n      pop\n        /* \"#utility.yul\":2199:2512   */\n      swap3\n      swap2\n      pop\n      pop\n      jump\t// out\n        /* \"#utility.yul\":2518:2608   */\n    tag_231:\n        /* \"#utility.yul\":2552:2559   */\n      0x00\n        /* \"#utility.yul\":2595:2600   */\n      dup2\n        /* \"#utility.yul\":2588:2601   */\n      iszero\n        /* \"#utility.yul\":2581:2602   */\n      iszero\n        /* \"#utility.yul\":2570:2602   */\n      swap1\n      pop\n        /* \"#utility.yul\":2518:2608   */\n      swap2\n      swap1\n      pop\n      jump\t// out\n        /* \"#utility.yul\":2614:2723   */\n    tag_232:\n        /* \"#utility.yul\":2695:2716   */\n      tag_318\n        /* \"#utility.yul\":2710:2715   */\n      dup2\n        /* \"#utility.yul\":2695:2716   */\n      tag_231\n      jump\t// in\n    tag_318:\n        /* \"#utility.yul\":2690:2693   */\n      dup3\n        /* \"#utility.yul\":2683:2717   */\n      mstore\n        /* \"#utility.yul\":2614:2723   */\n      pop\n      pop\n      jump\t// out\n        /* \"#utility.yul\":2729:2806   */\n    tag_233:\n        /* \"#utility.yul\":2766:2773   */\n      0x00\n        /* \"#utility.yul\":2795:2800   */\n      dup2\n        /* \"#utility.yul\":2784:2800   */\n      swap1\n      pop\n        /* \"#utility.yul\":2729:2806   */\n      swap2\n      swap1\n      pop\n      jump\t// out\n        /* \"#utility.yul\":2812:2930   */\n    tag_234:\n        /* \"#utility.yul\":2899:2923   */\n      tag_321\n        /* \"#utility.yul\":2917:2922   */\n      dup2\n        /* \"#utility.yul\":2899:2923   */\n      tag_233\n      jump\t// in\n    tag_321:\n        /* \"#utility.yul\":2894:2897   */\n      dup3\n        /* \"#utility.yul\":2887:2924   */\n      mstore\n        /* \"#utility.yul\":2812:2930   */\n      pop\n      pop\n      jump\t// out\n        /* \"#utility.yul\":2936:3054   */\n    tag_235:\n        /* \"#utility.yul\":3023:3047   */\n      tag_323\n        /* \"#utility.yul\":3041:3046   */\n      dup2\n        /* \"#utility.yul\":3023:3047   */\n      tag_223\n      jump\t// in\n    tag_323:\n        /* \"#utility.yul\":3018:3021   */\n      dup3\n        /* \"#utility.yul\":3011:3048   */\n      mstore\n        /* \"#utility.yul\":2936:3054   */\n      pop\n      pop\n      jump\t// out\n        /* \"#utility.yul\":3060:4562   */\n    tag_32:\n        /* \"#utility.yul\":3468:3472   */\n      0x00\n        /* \"#utility.yul\":3506:3509   */\n      0x0160\n        /* \"#utility.yul\":3495:3504   */\n      dup3\n        /* \"#utility.yul\":3491:3510   */\n      add\n        /* \"#utility.yul\":3483:3510   */\n      swap1\n      pop\n        /* \"#utility.yul\":3520:3585   */\n      tag_325\n        /* \"#utility.yul\":3582:3583   */\n      0x00\n        /* \"#utility.yul\":3571:3580   */\n      dup4\n        /* \"#utility.yul\":3567:3584   */\n      add\n        /* \"#utility.yul\":3558:3564   */\n      dup15\n        /* \"#utility.yul\":3520:3585   */\n      tag_232\n      jump\t// in\n    tag_325:\n        /* \"#utility.yul\":3595:3667   */\n      tag_326\n        /* \"#utility.yul\":3663:3665   */\n      0x20\n        /* \"#utility.yul\":3652:3661   */\n      dup4\n        /* \"#utility.yul\":3648:3666   */\n      add\n        /* \"#utility.yul\":3639:3645   */\n      dup14\n        /* \"#utility.yul\":3595:3667   */\n      tag_234\n      jump\t// in\n    tag_326:\n        /* \"#utility.yul\":3714:3723   */\n      dup2\n        /* \"#utility.yul\":3708:3712   */\n      dup2\n        /* \"#utility.yul\":3704:3724   */\n      sub\n        /* \"#utility.yul\":3699:3701   */\n      0x40\n        /* \"#utility.yul\":3688:3697   */\n      dup4\n        /* \"#utility.yul\":3684:3702   */\n      add\n        /* \"#utility.yul\":3677:3725   */\n      mstore\n        /* \"#utility.yul\":3742:3820   */\n      tag_327\n        /* \"#utility.yul\":3815:3819   */\n      dup2\n        /* \"#utility.yul\":3806:3812   */\n      dup13\n        /* \"#utility.yul\":3742:3820   */\n      tag_230\n      jump\t// in\n    tag_327:\n        /* \"#utility.yul\":3734:3820   */\n      swap1\n      pop\n        /* \"#utility.yul\":3830:3902   */\n      tag_328\n        /* \"#utility.yul\":3898:3900   */\n      0x60\n        /* \"#utility.yul\":3887:3896   */\n      dup4\n        /* \"#utility.yul\":3883:3901   */\n      add\n        /* \"#utility.yul\":3874:3880   */\n      dup12\n        /* \"#utility.yul\":3830:3902   */\n      tag_234\n      jump\t// in\n    tag_328:\n        /* \"#utility.yul\":3950:3959   */\n      dup2\n        /* \"#utility.yul\":3944:3948   */\n      dup2\n        /* \"#utility.yul\":3940:3960   */\n      sub\n        /* \"#utility.yul\":3934:3937   */\n      0x80\n        /* \"#utility.yul\":3923:3932   */\n      dup4\n        /* \"#utility.yul\":3919:3938   */\n      add\n        /* \"#utility.yul\":3912:3961   */\n      mstore\n        /* \"#utility.yul\":3978:4056   */\n      tag_329\n        /* \"#utility.yul\":4051:4055   */\n      dup2\n        /* \"#utility.yul\":4042:4048   */\n      dup11\n        /* \"#utility.yul\":3978:4056   */\n      tag_230\n      jump\t// in\n    tag_329:\n        /* \"#utility.yul\":3970:4056   */\n      swap1\n      pop\n        /* \"#utility.yul\":4066:4139   */\n      tag_330\n        /* \"#utility.yul\":4134:4137   */\n      0xa0\n        /* \"#utility.yul\":4123:4132   */\n      dup4\n        /* \"#utility.yul\":4119:4138   */\n      add\n        /* \"#utility.yul\":4110:4116   */\n      dup10\n        /* \"#utility.yul\":4066:4139   */\n      tag_235\n      jump\t// in\n    tag_330:\n        /* \"#utility.yul\":4149:4222   */\n      tag_331\n        /* \"#utility.yul\":4217:4220   */\n      0xc0\n        /* \"#utility.yul\":4206:4215   */\n      dup4\n        /* \"#utility.yul\":4202:4221   */\n      add\n        /* \"#utility.yul\":4193:4199   */\n      dup9\n        /* \"#utility.yul\":4149:4222   */\n      tag_234\n      jump\t// in\n    tag_331:\n        /* \"#utility.yul\":4232:4305   */\n      tag_332\n        /* \"#utility.yul\":4300:4303   */\n      0xe0\n        /* \"#utility.yul\":4289:4298   */\n      dup4\n        /* \"#utility.yul\":4285:4304   */\n      add\n        /* \"#utility.yul\":4276:4282   */\n      dup8\n        /* \"#utility.yul\":4232:4305   */\n      tag_235\n      jump\t// in\n    tag_332:\n        /* \"#utility.yul\":4315:4388   */\n      tag_333\n        /* \"#utility.yul\":4383:4386   */\n      0x0100\n        /* \"#utility.yul\":4372:4381   */\n      dup4\n        /* \"#utility.yul\":4368:4387   */\n      add\n        /* \"#utility.yul\":4359:4365   */\n      dup7\n        /* \"#utility.yul\":4315:4388   */\n      tag_234\n      jump\t// in\n    tag_333:\n        /* \"#utility.yul\":4398:4471   */\n      tag_334\n        /* \"#utility.yul\":4466:4469   */\n      0x0120\n        /* \"#utility.yul\":4455:4464   */\n      dup4\n        /* \"#utility.yul\":4451:4470   */\n      add\n        /* \"#utility.yul\":4442:4448   */\n      dup6\n        /* \"#utility.yul\":4398:4471   */\n      tag_235\n      jump\t// in\n    tag_334:\n        /* \"#utility.yul\":4481:4555   */\n      tag_335\n        /* \"#utility.yul\":4550:4553   */\n      0x0140\n        /* \"#utility.yul\":4539:4548   */\n      dup4\n        /* \"#utility.yul\":4535:4554   */\n      add\n        /* \"#utility.yul\":4525:4532   */\n      dup5\n        /* \"#utility.yul\":4481:4555   */\n      tag_234\n      jump\t// in\n    tag_335:\n        /* \"#utility.yul\":3060:4562   */\n      swap13\n      swap12\n      pop\n      pop\n      pop\n      pop\n      pop\n      pop\n      pop\n      pop\n      pop\n      pop\n      pop\n      pop\n      jump\t// out\n        /* \"#utility.yul\":4568:4685   */\n    tag_236:\n        /* \"#utility.yul\":4677:4678   */\n      0x00\n        /* \"#utility.yul\":4674:4675   */\n      dup1\n        /* \"#utility.yul\":4667:4679   */\n      revert\n        /* \"#utility.yul\":4691:4808   */\n    tag_237:\n        /* \"#utility.yul\":4800:4801   */\n      0x00\n        /* \"#utility.yul\":4797:4798   */\n      dup1\n        /* \"#utility.yul\":4790:4802   */\n      revert\n        /* \"#utility.yul\":4814:4994   */\n    tag_238:\n        /* \"#utility.yul\":4862:4939   */\n      0x4e487b7100000000000000000000000000000000000000000000000000000000\n        /* \"#utility.yul\":4859:4860   */\n      0x00\n        /* \"#utility.yul\":4852:4940   */\n      mstore\n        /* \"#utility.yul\":4959:4963   */\n      0x41\n        /* \"#utility.yul\":4956:4957   */\n      0x04\n        /* \"#utility.yul\":4949:4964   */\n      mstore\n        /* \"#utility.yul\":4983:4987   */\n      0x24\n        /* \"#utility.yul\":4980:4981   */\n      0x00\n        /* \"#utility.yul\":4973:4988   */\n      revert\n        /* \"#utility.yul\":5000:5281   */\n    tag_239:\n        /* \"#utility.yul\":5083:5110   */\n      tag_340\n        /* \"#utility.yul\":5105:5109   */\n      dup3\n        /* \"#utility.yul\":5083:5110   */\n      tag_229\n      jump\t// in\n    tag_340:\n        /* \"#utility.yul\":5075:5081   */\n      dup2\n        /* \"#utility.yul\":5071:5111   */\n      add\n        /* \"#utility.yul\":5213:5219   */\n      dup2\n        /* \"#utility.yul\":5201:5211   */\n      dup2\n        /* \"#utility.yul\":5198:5220   */\n      lt\n        /* \"#utility.yul\":5177:5195   */\n      0xffffffffffffffff\n        /* \"#utility.yul\":5165:5175   */\n      dup3\n        /* \"#utility.yul\":5162:5196   */\n      gt\n        /* \"#utility.yul\":5159:5221   */\n      or\n        /* \"#utility.yul\":5156:5244   */\n      iszero\n      tag_341\n      jumpi\n        /* \"#utility.yul\":5224:5242   */\n      tag_342\n      tag_238\n      jump\t// in\n    tag_342:\n        /* \"#utility.yul\":5156:5244   */\n    tag_341:\n        /* \"#utility.yul\":5264:5274   */\n      dup1\n        /* \"#utility.yul\":5260:5262   */\n      0x40\n        /* \"#utility.yul\":5253:5275   */\n      mstore\n        /* \"#utility.yul\":5043:5281   */\n      pop\n        /* \"#utility.yul\":5000:5281   */\n      pop\n      pop\n      jump\t// out\n        /* \"#utility.yul\":5287:5416   */\n    tag_240:\n        /* \"#utility.yul\":5321:5327   */\n      0x00\n        /* \"#utility.yul\":5348:5368   */\n      tag_344\n      tag_219\n      jump\t// in\n    tag_344:\n        /* \"#utility.yul\":5338:5368   */\n      swap1\n      pop\n        /* \"#utility.yul\":5377:5410   */\n      tag_345\n        /* \"#utility.yul\":5405:5409   */\n      dup3\n        /* \"#utility.yul\":5397:5403   */\n      dup3\n        /* \"#utility.yul\":5377:5410   */\n      tag_239\n      jump\t// in\n    tag_345:\n        /* \"#utility.yul\":5287:5416   */\n      swap2\n      swap1\n      pop\n      jump\t// out\n        /* \"#utility.yul\":5422:5730   */\n    tag_241:\n        /* \"#utility.yul\":5484:5488   */\n      0x00\n        /* \"#utility.yul\":5574:5592   */\n      0xffffffffffffffff\n        /* \"#utility.yul\":5566:5572   */\n      dup3\n        /* \"#utility.yul\":5563:5593   */\n      gt\n        /* \"#utility.yul\":5560:5616   */\n      iszero\n      tag_347\n      jumpi\n        /* \"#utility.yul\":5596:5614   */\n      tag_348\n      tag_238\n      jump\t// in\n    tag_348:\n        /* \"#utility.yul\":5560:5616   */\n    tag_347:\n        /* \"#utility.yul\":5634:5663   */\n      tag_349\n        /* \"#utility.yul\":5656:5662   */\n      dup3\n        /* \"#utility.yul\":5634:5663   */\n      tag_229\n      jump\t// in\n    tag_349:\n        /* \"#utility.yul\":5626:5663   */\n      swap1\n      pop\n        /* \"#utility.yul\":5718:5722   */\n      0x20\n        /* \"#utility.yul\":5712:5716   */\n      dup2\n        /* \"#utility.yul\":5708:5723   */\n      add\n        /* \"#utility.yul\":5700:5723   */\n      swap1\n      pop\n        /* \"#utility.yul\":5422:5730   */\n      swap2\n      swap1\n      pop\n      jump\t// out\n        /* \"#utility.yul\":5736:5882   */\n    tag_242:\n        /* \"#utility.yul\":5833:5839   */\n      dup3\n        /* \"#utility.yul\":5828:5831   */\n      dup2\n        /* \"#utility.yul\":5823:5826   */\n      dup4\n        /* \"#utility.yul\":5810:5840   */\n      calldatacopy\n        /* \"#utility.yul\":5874:5875   */\n      0x00\n        /* \"#utility.yul\":5865:5871   */\n      dup4\n        /* \"#utility.yul\":5860:5863   */\n      dup4\n        /* \"#utility.yul\":5856:5872   */\n      add\n        /* \"#utility.yul\":5849:5876   */\n      mstore\n        /* \"#utility.yul\":5736:5882   */\n      pop\n      pop\n      pop\n      jump\t// out\n        /* \"#utility.yul\":5888:6313   */\n    tag_243:\n        /* \"#utility.yul\":5966:5971   */\n      0x00\n        /* \"#utility.yul\":5991:6057   */\n      tag_352\n        /* \"#utility.yul\":6007:6056   */\n      tag_353\n        /* \"#utility.yul\":6049:6055   */\n      dup5\n        /* \"#utility.yul\":6007:6056   */\n      tag_241\n      jump\t// in\n    tag_353:\n        /* \"#utility.yul\":5991:6057   */\n      tag_240\n      jump\t// in\n    tag_352:\n        /* \"#utility.yul\":5982:6057   */\n      swap1\n      pop\n        /* \"#utility.yul\":6080:6086   */\n      dup3\n        /* \"#utility.yul\":6073:6078   */\n      dup2\n        /* \"#utility.yul\":6066:6087   */\n      mstore\n        /* \"#utility.yul\":6118:6122   */\n      0x20\n        /* \"#utility.yul\":6111:6116   */\n      dup2\n        /* \"#utility.yul\":6107:6123   */\n      add\n        /* \"#utility.yul\":6156:6159   */\n      dup5\n        /* \"#utility.yul\":6147:6153   */\n      dup5\n        /* \"#utility.yul\":6142:6145   */\n      dup5\n        /* \"#utility.yul\":6138:6154   */\n      add\n        /* \"#utility.yul\":6135:6160   */\n      gt\n        /* \"#utility.yul\":6132:6244   */\n      iszero\n      tag_354\n      jumpi\n        /* \"#utility.yul\":6163:6242   */\n      tag_355\n      tag_237\n      jump\t// in\n    tag_355:\n        /* \"#utility.yul\":6132:6244   */\n    tag_354:\n        /* \"#utility.yul\":6253:6307   */\n      tag_356\n        /* \"#utility.yul\":6300:6306   */\n      dup5\n        /* \"#utility.yul\":6295:6298   */\n      dup3\n        /* \"#utility.yul\":6290:6293   */\n      dup6\n        /* \"#utility.yul\":6253:6307   */\n      tag_242\n      jump\t// in\n    tag_356:\n        /* \"#utility.yul\":5972:6313   */\n      pop\n        /* \"#utility.yul\":5888:6313   */\n      swap4\n      swap3\n      pop\n      pop\n      pop\n      jump\t// out\n        /* \"#utility.yul\":6333:6673   */\n    tag_244:\n        /* \"#utility.yul\":6389:6394   */\n      0x00\n        /* \"#utility.yul\":6438:6441   */\n      dup3\n        /* \"#utility.yul\":6431:6435   */\n      0x1f\n        /* \"#utility.yul\":6423:6429   */\n      dup4\n        /* \"#utility.yul\":6419:6436   */\n      add\n        /* \"#utility.yul\":6415:6442   */\n      slt\n        /* \"#utility.yul\":6405:6527   */\n      tag_358\n      jumpi\n        /* \"#utility.yul\":6446:6525   */\n      tag_359\n      tag_236\n      jump\t// in\n    tag_359:\n        /* \"#utility.yul\":6405:6527   */\n    tag_358:\n        /* \"#utility.yul\":6563:6569   */\n      dup2\n        /* \"#utility.yul\":6550:6570   */\n      calldataload\n        /* \"#utility.yul\":6588:6667   */\n      tag_360\n        /* \"#utility.yul\":6663:6666   */\n      dup5\n        /* \"#utility.yul\":6655:6661   */\n      dup3\n        /* \"#utility.yul\":6648:6652   */\n      0x20\n        /* \"#utility.yul\":6640:6646   */\n      dup7\n        /* \"#utility.yul\":6636:6653   */\n      add\n        /* \"#utility.yul\":6588:6667   */\n      tag_243\n      jump\t// in\n    tag_360:\n        /* \"#utility.yul\":6579:6667   */\n      swap2\n      pop\n        /* \"#utility.yul\":6395:6673   */\n      pop\n        /* \"#utility.yul\":6333:6673   */\n      swap3\n      swap2\n      pop\n      pop\n      jump\t// out\n        /* \"#utility.yul\":6679:7333   */\n    tag_47:\n        /* \"#utility.yul\":6757:6763   */\n      0x00\n        /* \"#utility.yul\":6765:6771   */\n      dup1\n        /* \"#utility.yul\":6814:6816   */\n      0x40\n        /* \"#utility.yul\":6802:6811   */\n      dup4\n        /* \"#utility.yul\":6793:6800   */\n      dup6\n        /* \"#utility.yul\":6789:6812   */\n      sub\n        /* \"#utility.yul\":6785:6817   */\n      slt\n        /* \"#utility.yul\":6782:6901   */\n      iszero\n      tag_362\n      jumpi\n        /* \"#utility.yul\":6820:6899   */\n      tag_363\n      tag_220\n      jump\t// in\n    tag_363:\n        /* \"#utility.yul\":6782:6901   */\n    tag_362:\n        /* \"#utility.yul\":6940:6941   */\n      0x00\n        /* \"#utility.yul\":6965:7018   */\n      tag_364\n        /* \"#utility.yul\":7010:7017   */\n      dup6\n        /* \"#utility.yul\":7001:7007   */\n      dup3\n        /* \"#utility.yul\":6990:6999   */\n      dup7\n        /* \"#utility.yul\":6986:7008   */\n      add\n        /* \"#utility.yul\":6965:7018   */\n      tag_225\n      jump\t// in\n    tag_364:\n        /* \"#utility.yul\":6955:7018   */\n      swap3\n      pop\n        /* \"#utility.yul\":6911:7028   */\n      pop\n        /* \"#utility.yul\":7095:7097   */\n      0x20\n        /* \"#utility.yul\":7084:7093   */\n      dup4\n        /* \"#utility.yul\":7080:7098   */\n      add\n        /* \"#utility.yul\":7067:7099   */\n      calldataload\n        /* \"#utility.yul\":7126:7144   */\n      0xffffffffffffffff\n        /* \"#utility.yul\":7118:7124   */\n      dup2\n        /* \"#utility.yul\":7115:7145   */\n      gt\n        /* \"#utility.yul\":7112:7229   */\n      iszero\n      tag_365\n      jumpi\n        /* \"#utility.yul\":7148:7227   */\n      tag_366\n      tag_221\n      jump\t// in\n    tag_366:\n        /* \"#utility.yul\":7112:7229   */\n    tag_365:\n        /* \"#utility.yul\":7253:7316   */\n      tag_367\n        /* \"#utility.yul\":7308:7315   */\n      dup6\n        /* \"#utility.yul\":7299:7305   */\n      dup3\n        /* \"#utility.yul\":7288:7297   */\n      dup7\n        /* \"#utility.yul\":7284:7306   */\n      add\n        /* \"#utility.yul\":7253:7316   */\n      tag_244\n      jump\t// in\n    tag_367:\n        /* \"#utility.yul\":7243:7316   */\n      swap2\n      pop\n        /* \"#utility.yul\":7038:7326   */\n      pop\n        /* \"#utility.yul\":6679:7333   */\n      swap3\n      pop\n      swap3\n      swap1\n      pop\n      jump\t// out\n        /* \"#utility.yul\":7339:7549   */\n    tag_54:\n        /* \"#utility.yul\":7426:7430   */\n      0x00\n        /* \"#utility.yul\":7464:7466   */\n      0x20\n        /* \"#utility.yul\":7453:7462   */\n      dup3\n        /* \"#utility.yul\":7449:7467   */\n      add\n        /* \"#utility.yul\":7441:7467   */\n      swap1\n      pop\n        /* \"#utility.yul\":7477:7542   */\n      tag_369\n        /* \"#utility.yul\":7539:7540   */\n      0x00\n        /* \"#utility.yul\":7528:7537   */\n      dup4\n        /* \"#utility.yul\":7524:7541   */\n      add\n        /* \"#utility.yul\":7515:7521   */\n      dup5\n        /* \"#utility.yul\":7477:7542   */\n      tag_232\n      jump\t// in\n    tag_369:\n        /* \"#utility.yul\":7339:7549   */\n      swap3\n      swap2\n      pop\n      pop\n      jump\t// out\n        /* \"#utility.yul\":7555:7677   */\n    tag_245:\n        /* \"#utility.yul\":7628:7652   */\n      tag_371\n        /* \"#utility.yul\":7646:7651   */\n      dup2\n        /* \"#utility.yul\":7628:7652   */\n      tag_233\n      jump\t// in\n    tag_371:\n        /* \"#utility.yul\":7621:7626   */\n      dup2\n        /* \"#utility.yul\":7618:7653   */\n      eq\n        /* \"#utility.yul\":7608:7671   */\n      tag_372\n      jumpi\n        /* \"#utility.yul\":7667:7668   */\n      0x00\n        /* \"#utility.yul\":7664:7665   */\n      dup1\n        /* \"#utility.yul\":7657:7669   */\n      revert\n        /* \"#utility.yul\":7608:7671   */\n    tag_372:\n        /* \"#utility.yul\":7555:7677   */\n      pop\n      jump\t// out\n        /* \"#utility.yul\":7683:7822   */\n    tag_246:\n        /* \"#utility.yul\":7729:7734   */\n      0x00\n        /* \"#utility.yul\":7767:7773   */\n      dup2\n        /* \"#utility.yul\":7754:7774   */\n      calldataload\n        /* \"#utility.yul\":7745:7774   */\n      swap1\n      pop\n        /* \"#utility.yul\":7783:7816   */\n      tag_374\n        /* \"#utility.yul\":7810:7815   */\n      dup2\n        /* \"#utility.yul\":7783:7816   */\n      tag_245\n      jump\t// in\n    tag_374:\n        /* \"#utility.yul\":7683:7822   */\n      swap3\n      swap2\n      pop\n      pop\n      jump\t// out\n        /* \"#utility.yul\":7828:8157   */\n    tag_65:\n        /* \"#utility.yul\":7887:7893   */\n      0x00\n        /* \"#utility.yul\":7936:7938   */\n      0x20\n        /* \"#utility.yul\":7924:7933   */\n      dup3\n        /* \"#utility.yul\":7915:7922   */\n      dup5\n        /* \"#utility.yul\":7911:7934   */\n      sub\n        /* \"#utility.yul\":7907:7939   */\n      slt\n        /* \"#utility.yul\":7904:8023   */\n      iszero\n      tag_376\n      jumpi\n        /* \"#utility.yul\":7942:8021   */\n      tag_377\n      tag_220\n      jump\t// in\n    tag_377:\n        /* \"#utility.yul\":7904:8023   */\n    tag_376:\n        /* \"#utility.yul\":8062:8063   */\n      0x00\n        /* \"#utility.yul\":8087:8140   */\n      tag_378\n        /* \"#utility.yul\":8132:8139   */\n      dup5\n        /* \"#utility.yul\":8123:8129   */\n      dup3\n        /* \"#utility.yul\":8112:8121   */\n      dup6\n        /* \"#utility.yul\":8108:8130   */\n      add\n        /* \"#utility.yul\":8087:8140   */\n      tag_246\n      jump\t// in\n    tag_378:\n        /* \"#utility.yul\":8077:8140   */\n      swap2\n      pop\n        /* \"#utility.yul\":8033:8150   */\n      pop\n        /* \"#utility.yul\":7828:8157   */\n      swap3\n      swap2\n      pop\n      pop\n      jump\t// out\n        /* \"#utility.yul\":8163:8385   */\n    tag_68:\n        /* \"#utility.yul\":8256:8260   */\n      0x00\n        /* \"#utility.yul\":8294:8296   */\n      0x20\n        /* \"#utility.yul\":8283:8292   */\n      dup3\n        /* \"#utility.yul\":8279:8297   */\n      add\n        /* \"#utility.yul\":8271:8297   */\n      swap1\n      pop\n        /* \"#utility.yul\":8307:8378   */\n      tag_380\n        /* \"#utility.yul\":8375:8376   */\n      0x00\n        /* \"#utility.yul\":8364:8373   */\n      dup4\n        /* \"#utility.yul\":8360:8377   */\n      add\n        /* \"#utility.yul\":8351:8357   */\n      dup5\n        /* \"#utility.yul\":8307:8378   */\n      tag_235\n      jump\t// in\n    tag_380:\n        /* \"#utility.yul\":8163:8385   */\n      swap3\n      swap2\n      pop\n      pop\n      jump\t// out\n        /* \"#utility.yul\":8391:8571   */\n    tag_247:\n        /* \"#utility.yul\":8439:8516   */\n      0x4e487b7100000000000000000000000000000000000000000000000000000000\n        /* \"#utility.yul\":8436:8437   */\n      0x00\n        /* \"#utility.yul\":8429:8517   */\n      mstore\n        /* \"#utility.yul\":8536:8540   */\n      0x22\n        /* \"#utility.yul\":8533:8534   */\n      0x04\n        /* \"#utility.yul\":8526:8541   */\n      mstore\n        /* \"#utility.yul\":8560:8564   */\n      0x24\n        /* \"#utility.yul\":8557:8558   */\n      0x00\n        /* \"#utility.yul\":8550:8565   */\n      revert\n        /* \"#utility.yul\":8577:8897   */\n    tag_99:\n        /* \"#utility.yul\":8621:8627   */\n      0x00\n        /* \"#utility.yul\":8658:8659   */\n      0x02\n        /* \"#utility.yul\":8652:8656   */\n      dup3\n        /* \"#utility.yul\":8648:8660   */\n      div\n        /* \"#utility.yul\":8638:8660   */\n      swap1\n      pop\n        /* \"#utility.yul\":8705:8706   */\n      0x01\n        /* \"#utility.yul\":8699:8703   */\n      dup3\n        /* \"#utility.yul\":8695:8707   */\n      and\n        /* \"#utility.yul\":8726:8744   */\n      dup1\n        /* \"#utility.yul\":8716:8797   */\n      tag_383\n      jumpi\n        /* \"#utility.yul\":8782:8786   */\n      0x7f\n        /* \"#utility.yul\":8774:8780   */\n      dup3\n        /* \"#utility.yul\":8770:8787   */\n      and\n        /* \"#utility.yul\":8760:8787   */\n      swap2\n      pop\n        /* \"#utility.yul\":8716:8797   */\n    tag_383:\n        /* \"#utility.yul\":8844:8846   */\n      0x20\n        /* \"#utility.yul\":8836:8842   */\n      dup3\n        /* \"#utility.yul\":8833:8847   */\n      lt\n        /* \"#utility.yul\":8813:8831   */\n      dup2\n        /* \"#utility.yul\":8810:8848   */\n      sub\n        /* \"#utility.yul\":8807:8891   */\n      tag_384\n      jumpi\n        /* \"#utility.yul\":8863:8881   */\n      tag_385\n      tag_247\n      jump\t// in\n    tag_385:\n        /* \"#utility.yul\":8807:8891   */\n    tag_384:\n        /* \"#utility.yul\":8628:8897   */\n      pop\n        /* \"#utility.yul\":8577:8897   */\n      swap2\n      swap1\n      pop\n      jump\t// out\n        /* \"#utility.yul\":8903:9064   */\n    tag_248:\n        /* \"#utility.yul\":9043:9056   */\n      0x4e6f7420776f726b696e67000000000000000000000000000000000000000000\n        /* \"#utility.yul\":9039:9040   */\n      0x00\n        /* \"#utility.yul\":9031:9037   */\n      dup3\n        /* \"#utility.yul\":9027:9041   */\n      add\n        /* \"#utility.yul\":9020:9057   */\n      mstore\n        /* \"#utility.yul\":8903:9064   */\n      pop\n      jump\t// out\n        /* \"#utility.yul\":9070:9436   */\n    tag_249:\n        /* \"#utility.yul\":9212:9215   */\n      0x00\n        /* \"#utility.yul\":9233:9300   */\n      tag_388\n        /* \"#utility.yul\":9297:9299   */\n      0x0b\n        /* \"#utility.yul\":9292:9295   */\n      dup4\n        /* \"#utility.yul\":9233:9300   */\n      tag_227\n      jump\t// in\n    tag_388:\n        /* \"#utility.yul\":9226:9300   */\n      swap2\n      pop\n        /* \"#utility.yul\":9309:9402   */\n      tag_389\n        /* \"#utility.yul\":9398:9401   */\n      dup3\n        /* \"#utility.yul\":9309:9402   */\n      tag_248\n      jump\t// in\n    tag_389:\n        /* \"#utility.yul\":9427:9429   */\n      0x20\n        /* \"#utility.yul\":9422:9425   */\n      dup3\n        /* \"#utility.yul\":9418:9430   */\n      add\n        /* \"#utility.yul\":9411:9430   */\n      swap1\n      pop\n        /* \"#utility.yul\":9070:9436   */\n      swap2\n      swap1\n      pop\n      jump\t// out\n        /* \"#utility.yul\":9442:9861   */\n    tag_107:\n        /* \"#utility.yul\":9608:9612   */\n      0x00\n        /* \"#utility.yul\":9646:9648   */\n      0x20\n        /* \"#utility.yul\":9635:9644   */\n      dup3\n        /* \"#utility.yul\":9631:9649   */\n      add\n        /* \"#utility.yul\":9623:9649   */\n      swap1\n      pop\n        /* \"#utility.yul\":9695:9704   */\n      dup2\n        /* \"#utility.yul\":9689:9693   */\n      dup2\n        /* \"#utility.yul\":9685:9705   */\n      sub\n        /* \"#utility.yul\":9681:9682   */\n      0x00\n        /* \"#utility.yul\":9670:9679   */\n      dup4\n        /* \"#utility.yul\":9666:9683   */\n      add\n        /* \"#utility.yul\":9659:9706   */\n      mstore\n        /* \"#utility.yul\":9723:9854   */\n      tag_391\n        /* \"#utility.yul\":9849:9853   */\n      dup2\n        /* \"#utility.yul\":9723:9854   */\n      tag_249\n      jump\t// in\n    tag_391:\n        /* \"#utility.yul\":9715:9854   */\n      swap1\n      pop\n        /* \"#utility.yul\":9442:9861   */\n      swap2\n      swap1\n      pop\n      jump\t// out\n        /* \"#utility.yul\":9867:10008   */\n    tag_250:\n        /* \"#utility.yul\":9916:9920   */\n      0x00\n        /* \"#utility.yul\":9939:9942   */\n      dup2\n        /* \"#utility.yul\":9931:9942   */\n      swap1\n      pop\n        /* \"#utility.yul\":9962:9965   */\n      dup2\n        /* \"#utility.yul\":9959:9960   */\n      0x00\n        /* \"#utility.yul\":9952:9966   */\n      mstore\n        /* \"#utility.yul\":9996:10000   */\n      0x20\n        /* \"#utility.yul\":9993:9994   */\n      0x00\n        /* \"#utility.yul\":9983:10001   */\n      keccak256\n        /* \"#utility.yul\":9975:10001   */\n      swap1\n      pop\n        /* \"#utility.yul\":9867:10008   */\n      swap2\n      swap1\n      pop\n      jump\t// out\n        /* \"#utility.yul\":10014:10107   */\n    tag_251:\n        /* \"#utility.yul\":10051:10057   */\n      0x00\n        /* \"#utility.yul\":10098:10100   */\n      0x20\n        /* \"#utility.yul\":10093:10095   */\n      0x1f\n        /* \"#utility.yul\":10086:10091   */\n      dup4\n        /* \"#utility.yul\":10082:10096   */\n      add\n        /* \"#utility.yul\":10078:10101   */\n      div\n        /* \"#utility.yul\":10068:10101   */\n      swap1\n      pop\n        /* \"#utility.yul\":10014:10107   */\n      swap2\n      swap1\n      pop\n      jump\t// out\n        /* \"#utility.yul\":10113:10220   */\n    tag_252:\n        /* \"#utility.yul\":10157:10165   */\n      0x00\n        /* \"#utility.yul\":10207:10212   */\n      dup3\n        /* \"#utility.yul\":10201:10205   */\n      dup3\n        /* \"#utility.yul\":10197:10213   */\n      shl\n        /* \"#utility.yul\":10176:10213   */\n      swap1\n      pop\n        /* \"#utility.yul\":10113:10220   */\n      swap3\n      swap2\n      pop\n      pop\n      jump\t// out\n        /* \"#utility.yul\":10226:10619   */\n    tag_253:\n        /* \"#utility.yul\":10295:10301   */\n      0x00\n        /* \"#utility.yul\":10345:10346   */\n      0x08\n        /* \"#utility.yul\":10333:10343   */\n      dup4\n        /* \"#utility.yul\":10329:10347   */\n      mul\n        /* \"#utility.yul\":10368:10465   */\n      tag_396\n        /* \"#utility.yul\":10398:10464   */\n      0xffffffffffffffffffffffffffffffffffffffffffffffffffffffffffffffff\n        /* \"#utility.yul\":10387:10396   */\n      dup3\n        /* \"#utility.yul\":10368:10465   */\n      tag_252\n      jump\t// in\n    tag_396:\n        /* \"#utility.yul\":10486:10525   */\n      tag_397\n        /* \"#utility.yul\":10516:10524   */\n      dup7\n        /* \"#utility.yul\":10505:10514   */\n      dup4\n        /* \"#utility.yul\":10486:10525   */\n      tag_252\n      jump\t// in\n    tag_397:\n        /* \"#utility.yul\":10474:10525   */\n      swap6\n      pop\n        /* \"#utility.yul\":10558:10562   */\n      dup1\n        /* \"#utility.yul\":10554:10563   */\n      not\n        /* \"#utility.yul\":10547:10552   */\n      dup5\n        /* \"#utility.yul\":10543:10564   */\n      and\n        /* \"#utility.yul\":10534:10564   */\n      swap4\n      pop\n        /* \"#utility.yul\":10607:10611   */\n      dup1\n        /* \"#utility.yul\":10597:10605   */\n      dup7\n        /* \"#utility.yul\":10593:10612   */\n      and\n        /* \"#utility.yul\":10586:10591   */\n      dup5\n        /* \"#utility.yul\":10583:10613   */\n      or\n        /* \"#utility.yul\":10573:10613   */\n      swap3\n      pop\n        /* \"#utility.yul\":10302:10619   */\n      pop\n      pop\n        /* \"#utility.yul\":10226:10619   */\n      swap4\n      swap3\n      pop\n      pop\n      pop\n      jump\t// out\n        /* \"#utility.yul\":10625:10685   */\n    tag_254:\n        /* \"#utility.yul\":10653:10656   */\n      0x00\n        /* \"#utility.yul\":10674:10679   */\n      dup2\n        /* \"#utility.yul\":10667:10679   */\n      swap1\n      pop\n        /* \"#utility.yul\":10625:10685   */\n      swap2\n      swap1\n      pop\n      jump\t// out\n        /* \"#utility.yul\":10691:10833   */\n    tag_255:\n        /* \"#utility.yul\":10741:10750   */\n      0x00\n        /* \"#utility.yul\":10774:10827   */\n      tag_400\n        /* \"#utility.yul\":10792:10826   */\n      tag_401\n        /* \"#utility.yul\":10801:10825   */\n      tag_402\n        /* \"#utility.yul\":10819:10824   */\n      dup5\n        /* \"#utility.yul\":10801:10825   */\n      tag_233\n      jump\t// in\n    tag_402:\n        /* \"#utility.yul\":10792:10826   */\n      tag_254\n      jump\t// in\n    tag_401:\n        /* \"#utility.yul\":10774:10827   */\n      tag_233\n      jump\t// in\n    tag_400:\n        /* \"#utility.yul\":10761:10827   */\n      swap1\n      pop\n        /* \"#utility.yul\":10691:10833   */\n      swap2\n      swap1\n      pop\n      jump\t// out\n        /* \"#utility.yul\":10839:10914   */\n    tag_256:\n        /* \"#utility.yul\":10882:10885   */\n      0x00\n        /* \"#utility.yul\":10903:10908   */\n      dup2\n        /* \"#utility.yul\":10896:10908   */\n      swap1\n      pop\n        /* \"#utility.yul\":10839:10914   */\n      swap2\n      swap1\n      pop\n      jump\t// out\n        /* \"#utility.yul\":10920:11189   */\n    tag_257:\n        /* \"#utility.yul\":11030:11069   */\n      tag_405\n        /* \"#utility.yul\":11061:11068   */\n      dup4\n        /* \"#utility.yul\":11030:11069   */\n      tag_255\n      jump\t// in\n    tag_405:\n        /* \"#utility.yul\":11091:11182   */\n      tag_406\n        /* \"#utility.yul\":11140:11181   */\n      tag_407\n        /* \"#utility.yul\":11164:11180   */\n      dup3\n        /* \"#utility.yul\":11140:11181   */\n      tag_256\n      jump\t// in\n    tag_407:\n        /* \"#utility.yul\":11132:11138   */\n      dup5\n        /* \"#utility.yul\":11125:11129   */\n      dup5\n        /* \"#utility.yul\":11119:11130   */\n      sload\n        /* \"#utility.yul\":11091:11182   */\n      tag_253\n      jump\t// in\n    tag_406:\n        /* \"#utility.yul\":11085:11089   */\n      dup3\n        /* \"#utility.yul\":11078:11183   */\n      sstore\n        /* \"#utility.yul\":10996:11189   */\n      pop\n        /* \"#utility.yul\":10920:11189   */\n      pop\n      pop\n      pop\n      jump\t// out\n        /* \"#utility.yul\":11195:11268   */\n    tag_258:\n        /* \"#utility.yul\":11240:11243   */\n      0x00\n        /* \"#utility.yul\":11195:11268   */\n      swap1\n      jump\t// out\n        /* \"#utility.yul\":11274:11463   */\n    tag_259:\n        /* \"#utility.yul\":11351:11383   */\n      tag_410\n      tag_258\n      jump\t// in\n    tag_410:\n        /* \"#utility.yul\":11392:11457   */\n      tag_411\n        /* \"#utility.yul\":11450:11456   */\n      dup2\n        /* \"#utility.yul\":11442:11448   */\n      dup5\n        /* \"#utility.yul\":11436:11440   */\n      dup5\n        /* \"#utility.yul\":11392:11457   */\n      tag_257\n      jump\t// in\n    tag_411:\n        /* \"#utility.yul\":11327:11463   */\n      pop\n        /* \"#utility.yul\":11274:11463   */\n      pop\n      pop\n      jump\t// out\n        /* \"#utility.yul\":11469:11655   */\n    tag_260:\n        /* \"#utility.yul\":11529:11649   */\n    tag_413:\n        /* \"#utility.yul\":11546:11549   */\n      dup2\n        /* \"#utility.yul\":11539:11544   */\n      dup2\n        /* \"#utility.yul\":11536:11550   */\n      lt\n        /* \"#utility.yul\":11529:11649   */\n      iszero\n      tag_415\n      jumpi\n        /* \"#utility.yul\":11600:11639   */\n      tag_416\n        /* \"#utility.yul\":11637:11638   */\n      0x00\n        /* \"#utility.yul\":11630:11635   */\n      dup3\n        /* \"#utility.yul\":11600:11639   */\n      tag_259\n      jump\t// in\n    tag_416:\n        /* \"#utility.yul\":11573:11574   */\n      0x01\n        /* \"#utility.yul\":11566:11571   */\n      dup2\n        /* \"#utility.yul\":11562:11575   */\n      add\n        /* \"#utility.yul\":11553:11575   */\n      swap1\n      pop\n        /* \"#utility.yul\":11529:11649   */\n      jump(tag_413)\n    tag_415:\n        /* \"#utility.yul\":11469:11655   */\n      pop\n      pop\n      jump\t// out\n        /* \"#utility.yul\":11661:12204   */\n    tag_261:\n        /* \"#utility.yul\":11762:11764   */\n      0x1f\n        /* \"#utility.yul\":11757:11760   */\n      dup3\n        /* \"#utility.yul\":11754:11765   */\n      gt\n        /* \"#utility.yul\":11751:12197   */\n      iszero\n      tag_418\n      jumpi\n        /* \"#utility.yul\":11796:11834   */\n      tag_419\n        /* \"#utility.yul\":11828:11833   */\n      dup2\n        /* \"#utility.yul\":11796:11834   */\n      tag_250\n      jump\t// in\n    tag_419:\n        /* \"#utility.yul\":11880:11909   */\n      tag_420\n        /* \"#utility.yul\":11898:11908   */\n      dup5\n        /* \"#utility.yul\":11880:11909   */\n      tag_251\n      jump\t// in\n    tag_420:\n        /* \"#utility.yul\":11870:11878   */\n      dup2\n        /* \"#utility.yul\":11866:11910   */\n      add\n        /* \"#utility.yul\":12063:12065   */\n      0x20\n        /* \"#utility.yul\":12051:12061   */\n      dup6\n        /* \"#utility.yul\":12048:12066   */\n      lt\n        /* \"#utility.yul\":12045:12094   */\n      iszero\n      tag_421\n      jumpi\n        /* \"#utility.yul\":12084:12092   */\n      dup2\n        /* \"#utility.yul\":12069:12092   */\n      swap1\n      pop\n        /* \"#utility.yul\":12045:12094   */\n    tag_421:\n        /* \"#utility.yul\":12107:12187   */\n      tag_422\n        /* \"#utility.yul\":12163:12185   */\n      tag_423\n        /* \"#utility.yul\":12181:12184   */\n      dup6\n        /* \"#utility.yul\":12163:12185   */\n      tag_251\n      jump\t// in\n    tag_423:\n        /* \"#utility.yul\":12153:12161   */\n      dup4\n        /* \"#utility.yul\":12149:12186   */\n      add\n        /* \"#utility.yul\":12136:12147   */\n      dup3\n        /* \"#utility.yul\":12107:12187   */\n      tag_260\n      jump\t// in\n    tag_422:\n        /* \"#utility.yul\":11766:12197   */\n      pop\n      pop\n        /* \"#utility.yul\":11751:12197   */\n    tag_418:\n        /* \"#utility.yul\":11661:12204   */\n      pop\n      pop\n      pop\n      jump\t// out\n        /* \"#utility.yul\":12210:12327   */\n    tag_262:\n        /* \"#utility.yul\":12264:12272   */\n      0x00\n        /* \"#utility.yul\":12314:12319   */\n      dup3\n        /* \"#utility.yul\":12308:12312   */\n      dup3\n        /* \"#utility.yul\":12304:12320   */\n      shr\n        /* \"#utility.yul\":12283:12320   */\n      swap1\n      pop\n        /* \"#utility.yul\":12210:12327   */\n      swap3\n      swap2\n      pop\n      pop\n      jump\t// out\n        /* \"#utility.yul\":12333:12502   */\n    tag_263:\n        /* \"#utility.yul\":12377:12383   */\n      0x00\n        /* \"#utility.yul\":12410:12461   */\n      tag_426\n        /* \"#utility.yul\":12458:12459   */\n      0x00\n        /* \"#utility.yul\":12454:12460   */\n      not\n        /* \"#utility.yul\":12446:12451   */\n      dup5\n        /* \"#utility.yul\":12443:12444   */\n      0x08\n        /* \"#utility.yul\":12439:12452   */\n      mul\n        /* \"#utility.yul\":12410:12461   */\n      tag_262\n      jump\t// in\n    tag_426:\n        /* \"#utility.yul\":12406:12462   */\n      not\n        /* \"#utility.yul\":12491:12495   */\n      dup1\n        /* \"#utility.yul\":12485:12489   */\n      dup4\n        /* \"#utility.yul\":12481:12496   */\n      and\n        /* \"#utility.yul\":12471:12496   */\n      swap2\n      pop\n        /* \"#utility.yul\":12384:12502   */\n      pop\n        /* \"#utility.yul\":12333:12502   */\n      swap3\n      swap2\n      pop\n      pop\n      jump\t// out\n        /* \"#utility.yul\":12507:12802   */\n    tag_264:\n        /* \"#utility.yul\":12583:12587   */\n      0x00\n        /* \"#utility.yul\":12729:12758   */\n      tag_428\n        /* \"#utility.yul\":12754:12757   */\n      dup4\n        /* \"#utility.yul\":12748:12752   */\n      dup4\n        /* \"#utility.yul\":12729:12758   */\n      tag_263\n      jump\t// in\n    tag_428:\n        /* \"#utility.yul\":12721:12758   */\n      swap2\n      pop\n        /* \"#utility.yul\":12791:12794   */\n      dup3\n        /* \"#utility.yul\":12788:12789   */\n      0x02\n        /* \"#utility.yul\":12784:12795   */\n      mul\n        /* \"#utility.yul\":12778:12782   */\n      dup3\n        /* \"#utility.yul\":12775:12796   */\n      or\n        /* \"#utility.yul\":12767:12796   */\n      swap1\n      pop\n        /* \"#utility.yul\":12507:12802   */\n      swap3\n      swap2\n      pop\n      pop\n      jump\t// out\n        /* \"#utility.yul\":12807:14202   */\n    tag_136:\n        /* \"#utility.yul\":12924:12961   */\n      tag_430\n        /* \"#utility.yul\":12957:12960   */\n      dup3\n        /* \"#utility.yul\":12924:12961   */\n      tag_226\n      jump\t// in\n    tag_430:\n        /* \"#utility.yul\":13026:13044   */\n      0xffffffffffffffff\n        /* \"#utility.yul\":13018:13024   */\n      dup2\n        /* \"#utility.yul\":13015:13045   */\n      gt\n        /* \"#utility.yul\":13012:13068   */\n      iszero\n      tag_431\n      jumpi\n        /* \"#utility.yul\":13048:13066   */\n      tag_432\n      tag_238\n      jump\t// in\n    tag_432:\n        /* \"#utility.yul\":13012:13068   */\n    tag_431:\n        /* \"#utility.yul\":13092:13130   */\n      tag_433\n        /* \"#utility.yul\":13124:13128   */\n      dup3\n        /* \"#utility.yul\":13118:13129   */\n      sload\n        /* \"#utility.yul\":13092:13130   */\n      tag_99\n      jump\t// in\n    tag_433:\n        /* \"#utility.yul\":13177:13244   */\n      tag_434\n        /* \"#utility.yul\":13237:13243   */\n      dup3\n        /* \"#utility.yul\":13229:13235   */\n      dup3\n        /* \"#utility.yul\":13223:13227   */\n      dup6\n        /* \"#utility.yul\":13177:13244   */\n      tag_261\n      jump\t// in\n    tag_434:\n        /* \"#utility.yul\":13271:13272   */\n      0x00\n        /* \"#utility.yul\":13295:13299   */\n      0x20\n        /* \"#utility.yul\":13282:13299   */\n      swap1\n      pop\n        /* \"#utility.yul\":13327:13329   */\n      0x1f\n        /* \"#utility.yul\":13319:13325   */\n      dup4\n        /* \"#utility.yul\":13316:13330   */\n      gt\n        /* \"#utility.yul\":13344:13345   */\n      0x01\n        /* \"#utility.yul\":13339:13957   */\n      dup2\n      eq\n      tag_436\n      jumpi\n        /* \"#utility.yul\":14001:14002   */\n      0x00\n        /* \"#utility.yul\":14018:14024   */\n      dup5\n        /* \"#utility.yul\":14015:14092   */\n      iszero\n      tag_437\n      jumpi\n        /* \"#utility.yul\":14067:14076   */\n      dup3\n        /* \"#utility.yul\":14062:14065   */\n      dup8\n        /* \"#utility.yul\":14058:14077   */\n      add\n        /* \"#utility.yul\":14052:14078   */\n      mload\n        /* \"#utility.yul\":14043:14078   */\n      swap1\n      pop\n        /* \"#utility.yul\":14015:14092   */\n    tag_437:\n        /* \"#utility.yul\":14118:14185   */\n      tag_438\n        /* \"#utility.yul\":14178:14184   */\n      dup6\n        /* \"#utility.yul\":14171:14176   */\n      dup3\n        /* \"#utility.yul\":14118:14185   */\n      tag_264\n      jump\t// in\n    tag_438:\n        /* \"#utility.yul\":14112:14116   */\n      dup7\n        /* \"#utility.yul\":14105:14186   */\n      sstore\n        /* \"#utility.yul\":13974:14196   */\n      pop\n        /* \"#utility.yul\":13309:14196   */\n      jump(tag_435)\n        /* \"#utility.yul\":13339:13957   */\n    tag_436:\n        /* \"#utility.yul\":13391:13395   */\n      0x1f\n        /* \"#utility.yul\":13387:13396   */\n      not\n        /* \"#utility.yul\":13379:13385   */\n      dup5\n        /* \"#utility.yul\":13375:13397   */\n      and\n        /* \"#utility.yul\":13425:13462   */\n      tag_439\n        /* \"#utility.yul\":13457:13461   */\n      dup7\n        /* \"#utility.yul\":13425:13462   */\n      tag_250\n      jump\t// in\n    tag_439:\n        /* \"#utility.yul\":13484:13485   */\n      0x00\n        /* \"#utility.yul\":13498:13706   */\n    tag_440:\n        /* \"#utility.yul\":13512:13519   */\n      dup3\n        /* \"#utility.yul\":13509:13510   */\n      dup2\n        /* \"#utility.yul\":13506:13520   */\n      lt\n        /* \"#utility.yul\":13498:13706   */\n      iszero\n      tag_442\n      jumpi\n        /* \"#utility.yul\":13591:13600   */\n      dup5\n        /* \"#utility.yul\":13586:13589   */\n      dup10\n        /* \"#utility.yul\":13582:13601   */\n      add\n        /* \"#utility.yul\":13576:13602   */\n      mload\n        /* \"#utility.yul\":13568:13574   */\n      dup3\n        /* \"#utility.yul\":13561:13603   */\n      sstore\n        /* \"#utility.yul\":13642:13643   */\n      0x01\n        /* \"#utility.yul\":13634:13640   */\n      dup3\n        /* \"#utility.yul\":13630:13644   */\n      add\n        /* \"#utility.yul\":13620:13644   */\n      swap2\n      pop\n        /* \"#utility.yul\":13689:13691   */\n      0x20\n        /* \"#utility.yul\":13678:13687   */\n      dup6\n        /* \"#utility.yul\":13674:13692   */\n      add\n        /* \"#utility.yul\":13661:13692   */\n      swap5\n      pop\n        /* \"#utility.yul\":13535:13539   */\n      0x20\n        /* \"#utility.yul\":13532:13533   */\n      dup2\n        /* \"#utility.yul\":13528:13540   */\n      add\n        /* \"#utility.yul\":13523:13540   */\n      swap1\n      pop\n        /* \"#utility.yul\":13498:13706   */\n      jump(tag_440)\n    tag_442:\n        /* \"#utility.yul\":13734:13740   */\n      dup7\n        /* \"#utility.yul\":13725:13732   */\n      dup4\n        /* \"#utility.yul\":13722:13741   */\n      lt\n        /* \"#utility.yul\":13719:13898   */\n      iszero\n      tag_443\n      jumpi\n        /* \"#utility.yul\":13792:13801   */\n      dup5\n        /* \"#utility.yul\":13787:13790   */\n      dup10\n        /* \"#utility.yul\":13783:13802   */\n      add\n        /* \"#utility.yul\":13777:13803   */\n      mload\n        /* \"#utility.yul\":13835:13883   */\n      tag_444\n        /* \"#utility.yul\":13877:13881   */\n      0x1f\n        /* \"#utility.yul\":13869:13875   */\n      dup10\n        /* \"#utility.yul\":13865:13882   */\n      and\n        /* \"#utility.yul\":13854:13863   */\n      dup3\n        /* \"#utility.yul\":13835:13883   */\n      tag_263\n      jump\t// in\n    tag_444:\n        /* \"#utility.yul\":13827:13833   */\n      dup4\n        /* \"#utility.yul\":13820:13884   */\n      sstore\n        /* \"#utility.yul\":13742:13898   */\n      pop\n        /* \"#utility.yul\":13719:13898   */\n    tag_443:\n        /* \"#utility.yul\":13944:13945   */\n      0x01\n        /* \"#utility.yul\":13940:13941   */\n      0x02\n        /* \"#utility.yul\":13932:13938   */\n      dup9\n        /* \"#utility.yul\":13928:13942   */\n      mul\n        /* \"#utility.yul\":13924:13946   */\n      add\n        /* \"#utility.yul\":13918:13922   */\n      dup9\n        /* \"#utility.yul\":13911:13947   */\n      sstore\n        /* \"#utility.yul\":13346:13957   */\n      pop\n      pop\n      pop\n        /* \"#utility.yul\":13309:14196   */\n    tag_435:\n      pop\n        /* \"#utility.yul\":12899:14202   */\n      pop\n      pop\n      pop\n        /* \"#utility.yul\":12807:14202   */\n      pop\n      pop\n      jump\t// out\n        /* \"#utility.yul\":14232:15063   */\n    tag_265:\n        /* \"#utility.yul\":14317:14320   */\n      0x00\n        /* \"#utility.yul\":14354:14359   */\n      dup2\n        /* \"#utility.yul\":14348:14360   */\n      sload\n        /* \"#utility.yul\":14383:14419   */\n      tag_446\n        /* \"#utility.yul\":14409:14418   */\n      dup2\n        /* \"#utility.yul\":14383:14419   */\n      tag_99\n      jump\t// in\n    tag_446:\n        /* \"#utility.yul\":14435:14506   */\n      tag_447\n        /* \"#utility.yul\":14499:14505   */\n      dup2\n        /* \"#utility.yul\":14494:14497   */\n      dup7\n        /* \"#utility.yul\":14435:14506   */\n      tag_227\n      jump\t// in\n    tag_447:\n        /* \"#utility.yul\":14428:14506   */\n      swap5\n      pop\n        /* \"#utility.yul\":14537:14538   */\n      0x01\n        /* \"#utility.yul\":14526:14535   */\n      dup3\n        /* \"#utility.yul\":14522:14539   */\n      and\n        /* \"#utility.yul\":14553:14554   */\n      0x00\n        /* \"#utility.yul\":14548:14712   */\n      dup2\n      eq\n      tag_449\n      jumpi\n        /* \"#utility.yul\":14726:14727   */\n      0x01\n        /* \"#utility.yul\":14721:15057   */\n      dup2\n      eq\n      tag_450\n      jumpi\n        /* \"#utility.yul\":14515:15057   */\n      jump(tag_448)\n        /* \"#utility.yul\":14548:14712   */\n    tag_449:\n        /* \"#utility.yul\":14632:14636   */\n      0xff\n        /* \"#utility.yul\":14628:14637   */\n      not\n        /* \"#utility.yul\":14617:14626   */\n      dup4\n        /* \"#utility.yul\":14613:14638   */\n      and\n        /* \"#utility.yul\":14608:14611   */\n      dup7\n        /* \"#utility.yul\":14601:14639   */\n      mstore\n        /* \"#utility.yul\":14692:14698   */\n      dup2\n        /* \"#utility.yul\":14685:14699   */\n      iszero\n        /* \"#utility.yul\":14678:14700   */\n      iszero\n        /* \"#utility.yul\":14672:14676   */\n      0x20\n        /* \"#utility.yul\":14668:14701   */\n      mul\n        /* \"#utility.yul\":14663:14666   */\n      dup7\n        /* \"#utility.yul\":14659:14702   */\n      add\n        /* \"#utility.yul\":14652:14702   */\n      swap4\n      pop\n        /* \"#utility.yul\":14548:14712   */\n      jump(tag_448)\n        /* \"#utility.yul\":14721:15057   */\n    tag_450:\n        /* \"#utility.yul\":14788:14826   */\n      tag_451\n        /* \"#utility.yul\":14820:14825   */\n      dup6\n        /* \"#utility.yul\":14788:14826   */\n      tag_250\n      jump\t// in\n    tag_451:\n        /* \"#utility.yul\":14848:14849   */\n      0x00\n        /* \"#utility.yul\":14862:15016   */\n    tag_452:\n        /* \"#utility.yul\":14876:14882   */\n      dup4\n        /* \"#utility.yul\":14873:14874   */\n      dup2\n        /* \"#utility.yul\":14870:14883   */\n      lt\n        /* \"#utility.yul\":14862:15016   */\n      iszero\n      tag_454\n      jumpi\n        /* \"#utility.yul\":14950:14957   */\n      dup2\n        /* \"#utility.yul\":14944:14958   */\n      sload\n        /* \"#utility.yul\":14940:14941   */\n      dup2\n        /* \"#utility.yul\":14935:14938   */\n      dup10\n        /* \"#utility.yul\":14931:14942   */\n      add\n        /* \"#utility.yul\":14924:14959   */\n      mstore\n        /* \"#utility.yul\":15000:15001   */\n      0x01\n        /* \"#utility.yul\":14991:14998   */\n      dup3\n        /* \"#utility.yul\":14987:15002   */\n      add\n        /* \"#utility.yul\":14976:15002   */\n      swap2\n      pop\n        /* \"#utility.yul\":14898:14902   */\n      0x20\n        /* \"#utility.yul\":14895:14896   */\n      dup2\n        /* \"#utility.yul\":14891:14903   */\n      add\n        /* \"#utility.yul\":14886:14903   */\n      swap1\n      pop\n        /* \"#utility.yul\":14862:15016   */\n      jump(tag_452)\n    tag_454:\n        /* \"#utility.yul\":15045:15046   */\n      dup1\n        /* \"#utility.yul\":15040:15043   */\n      dup9\n        /* \"#utility.yul\":15036:15047   */\n      add\n        /* \"#utility.yul\":15029:15047   */\n      swap6\n      pop\n        /* \"#utility.yul\":14728:15057   */\n      pop\n      pop\n        /* \"#utility.yul\":14515:15057   */\n    tag_448:\n      pop\n        /* \"#utility.yul\":14321:15063   */\n      pop\n      pop\n        /* \"#utility.yul\":14232:15063   */\n      swap3\n      swap2\n      pop\n      pop\n      jump\t// out\n        /* \"#utility.yul\":15069:15596   */\n    tag_139:\n        /* \"#utility.yul\":15235:15239   */\n      0x00\n        /* \"#utility.yul\":15273:15275   */\n      0x60\n        /* \"#utility.yul\":15262:15271   */\n      dup3\n        /* \"#utility.yul\":15258:15276   */\n      add\n        /* \"#utility.yul\":15250:15276   */\n      swap1\n      pop\n        /* \"#utility.yul\":15322:15331   */\n      dup2\n        /* \"#utility.yul\":15316:15320   */\n      dup2\n        /* \"#utility.yul\":15312:15332   */\n      sub\n        /* \"#utility.yul\":15308:15309   */\n      0x00\n        /* \"#utility.yul\":15297:15306   */\n      dup4\n        /* \"#utility.yul\":15293:15310   */\n      add\n        /* \"#utility.yul\":15286:15333   */\n      mstore\n        /* \"#utility.yul\":15350:15425   */\n      tag_456\n        /* \"#utility.yul\":15420:15424   */\n      dup2\n        /* \"#utility.yul\":15411:15417   */\n      dup7\n        /* \"#utility.yul\":15350:15425   */\n      tag_265\n      jump\t// in\n    tag_456:\n        /* \"#utility.yul\":15342:15425   */\n      swap1\n      pop\n        /* \"#utility.yul\":15435:15507   */\n      tag_457\n        /* \"#utility.yul\":15503:15505   */\n      0x20\n        /* \"#utility.yul\":15492:15501   */\n      dup4\n        /* \"#utility.yul\":15488:15506   */\n      add\n        /* \"#utility.yul\":15479:15485   */\n      dup6\n        /* \"#utility.yul\":15435:15507   */\n      tag_234\n      jump\t// in\n    tag_457:\n        /* \"#utility.yul\":15517:15589   */\n      tag_458\n        /* \"#utility.yul\":15585:15587   */\n      0x40\n        /* \"#utility.yul\":15574:15583   */\n      dup4\n        /* \"#utility.yul\":15570:15588   */\n      add\n        /* \"#utility.yul\":15561:15567   */\n      dup5\n        /* \"#utility.yul\":15517:15589   */\n      tag_234\n      jump\t// in\n    tag_458:\n        /* \"#utility.yul\":15069:15596   */\n      swap5\n      swap4\n      pop\n      pop\n      pop\n      pop\n      jump\t// out\n        /* \"#utility.yul\":15602:15772   */\n    tag_266:\n        /* \"#utility.yul\":15742:15764   */\n      0x4120646f63746f722069732072656d6f7665642e000000000000000000000000\n        /* \"#utility.yul\":15738:15739   */\n      0x00\n        /* \"#utility.yul\":15730:15736   */\n      dup3\n        /* \"#utility.yul\":15726:15740   */\n      add\n        /* \"#utility.yul\":15719:15765   */\n      mstore\n        /* \"#utility.yul\":15602:15772   */\n      pop\n      jump\t// out\n        /* \"#utility.yul\":15778:16144   */\n    tag_267:\n        /* \"#utility.yul\":15920:15923   */\n      0x00\n        /* \"#utility.yul\":15941:16008   */\n      tag_461\n        /* \"#utility.yul\":16005:16007   */\n      0x14\n        /* \"#utility.yul\":16000:16003   */\n      dup4\n        /* \"#utility.yul\":15941:16008   */\n      tag_227\n      jump\t// in\n    tag_461:\n        /* \"#utility.yul\":15934:16008   */\n      swap2\n      pop\n        /* \"#utility.yul\":16017:16110   */\n      tag_462\n        /* \"#utility.yul\":16106:16109   */\n      dup3\n        /* \"#utility.yul\":16017:16110   */\n      tag_266\n      jump\t// in\n    tag_462:\n        /* \"#utility.yul\":16135:16137   */\n      0x20\n        /* \"#utility.yul\":16130:16133   */\n      dup3\n        /* \"#utility.yul\":16126:16138   */\n      add\n        /* \"#utility.yul\":16119:16138   */\n      swap1\n      pop\n        /* \"#utility.yul\":15778:16144   */\n      swap2\n      swap1\n      pop\n      jump\t// out\n        /* \"#utility.yul\":16150:16789   */\n    tag_145:\n        /* \"#utility.yul\":16372:16376   */\n      0x00\n        /* \"#utility.yul\":16410:16412   */\n      0x60\n        /* \"#utility.yul\":16399:16408   */\n      dup3\n        /* \"#utility.yul\":16395:16413   */\n      add\n        /* \"#utility.yul\":16387:16413   */\n      swap1\n      pop\n        /* \"#utility.yul\":16459:16468   */\n      dup2\n        /* \"#utility.yul\":16453:16457   */\n      dup2\n        /* \"#utility.yul\":16449:16469   */\n      sub\n        /* \"#utility.yul\":16445:16446   */\n      0x00\n        /* \"#utility.yul\":16434:16443   */\n      dup4\n        /* \"#utility.yul\":16430:16447   */\n      add\n        /* \"#utility.yul\":16423:16470   */\n      mstore\n        /* \"#utility.yul\":16487:16618   */\n      tag_464\n        /* \"#utility.yul\":16613:16617   */\n      dup2\n        /* \"#utility.yul\":16487:16618   */\n      tag_267\n      jump\t// in\n    tag_464:\n        /* \"#utility.yul\":16479:16618   */\n      swap1\n      pop\n        /* \"#utility.yul\":16628:16700   */\n      tag_465\n        /* \"#utility.yul\":16696:16698   */\n      0x20\n        /* \"#utility.yul\":16685:16694   */\n      dup4\n        /* \"#utility.yul\":16681:16699   */\n      add\n        /* \"#utility.yul\":16672:16678   */\n      dup6\n        /* \"#utility.yul\":16628:16700   */\n      tag_235\n      jump\t// in\n    tag_465:\n        /* \"#utility.yul\":16710:16782   */\n      tag_466\n        /* \"#utility.yul\":16778:16780   */\n      0x40\n        /* \"#utility.yul\":16767:16776   */\n      dup4\n        /* \"#utility.yul\":16763:16781   */\n      add\n        /* \"#utility.yul\":16754:16760   */\n      dup5\n        /* \"#utility.yul\":16710:16782   */\n      tag_234\n      jump\t// in\n    tag_466:\n        /* \"#utility.yul\":16150:16789   */\n      swap4\n      swap3\n      pop\n      pop\n      pop\n      jump\t// out\n        /* \"#utility.yul\":16795:16963   */\n    tag_268:\n        /* \"#utility.yul\":16935:16955   */\n      0x416e2061756469742069732061646465642e0000000000000000000000000000\n        /* \"#utility.yul\":16931:16932   */\n      0x00\n        /* \"#utility.yul\":16923:16929   */\n      dup3\n        /* \"#utility.yul\":16919:16933   */\n      add\n        /* \"#utility.yul\":16912:16956   */\n      mstore\n        /* \"#utility.yul\":16795:16963   */\n      pop\n      jump\t// out\n        /* \"#utility.yul\":16969:17335   */\n    tag_269:\n        /* \"#utility.yul\":17111:17114   */\n      0x00\n        /* \"#utility.yul\":17132:17199   */\n      tag_469\n        /* \"#utility.yul\":17196:17198   */\n      0x12\n        /* \"#utility.yul\":17191:17194   */\n      dup4\n        /* \"#utility.yul\":17132:17199   */\n      tag_227\n      jump\t// in\n    tag_469:\n        /* \"#utility.yul\":17125:17199   */\n      swap2\n      pop\n        /* \"#utility.yul\":17208:17301   */\n      tag_470\n        /* \"#utility.yul\":17297:17300   */\n      dup3\n        /* \"#utility.yul\":17208:17301   */\n      tag_268\n      jump\t// in\n    tag_470:\n        /* \"#utility.yul\":17326:17328   */\n      0x20\n        /* \"#utility.yul\":17321:17324   */\n      dup3\n        /* \"#utility.yul\":17317:17329   */\n      add\n        /* \"#utility.yul\":17310:17329   */\n      swap1\n      pop\n        /* \"#utility.yul\":16969:17335   */\n      swap2\n      swap1\n      pop\n      jump\t// out\n        /* \"#utility.yul\":17341:17980   */\n    tag_165:\n        /* \"#utility.yul\":17563:17567   */\n      0x00\n        /* \"#utility.yul\":17601:17603   */\n      0x60\n        /* \"#utility.yul\":17590:17599   */\n      dup3\n        /* \"#utility.yul\":17586:17604   */\n      add\n        /* \"#utility.yul\":17578:17604   */\n      swap1\n      pop\n        /* \"#utility.yul\":17650:17659   */\n      dup2\n        /* \"#utility.yul\":17644:17648   */\n      dup2\n        /* \"#utility.yul\":17640:17660   */\n      sub\n        /* \"#utility.yul\":17636:17637   */\n      0x00\n        /* \"#utility.yul\":17625:17634   */\n      dup4\n        /* \"#utility.yul\":17621:17638   */\n      add\n        /* \"#utility.yul\":17614:17661   */\n      mstore\n        /* \"#utility.yul\":17678:17809   */\n      tag_472\n        /* \"#utility.yul\":17804:17808   */\n      dup2\n        /* \"#utility.yul\":17678:17809   */\n      tag_269\n      jump\t// in\n    tag_472:\n        /* \"#utility.yul\":17670:17809   */\n      swap1\n      pop\n        /* \"#utility.yul\":17819:17891   */\n      tag_473\n        /* \"#utility.yul\":17887:17889   */\n      0x20\n        /* \"#utility.yul\":17876:17885   */\n      dup4\n        /* \"#utility.yul\":17872:17890   */\n      add\n        /* \"#utility.yul\":17863:17869   */\n      dup6\n        /* \"#utility.yul\":17819:17891   */\n      tag_235\n      jump\t// in\n    tag_473:\n        /* \"#utility.yul\":17901:17973   */\n      tag_474\n        /* \"#utility.yul\":17969:17971   */\n      0x40\n        /* \"#utility.yul\":17958:17967   */\n      dup4\n        /* \"#utility.yul\":17954:17972   */\n      add\n        /* \"#utility.yul\":17945:17951   */\n      dup5\n        /* \"#utility.yul\":17901:17973   */\n      tag_234\n      jump\t// in\n    tag_474:\n        /* \"#utility.yul\":17341:17980   */\n      swap4\n      swap3\n      pop\n      pop\n      pop\n      jump\t// out\n        /* \"#utility.yul\":17986:18080   */\n    tag_270:\n        /* \"#utility.yul\":18019:18027   */\n      0x00\n        /* \"#utility.yul\":18067:18072   */\n      dup2\n        /* \"#utility.yul\":18063:18065   */\n      0x60\n        /* \"#utility.yul\":18059:18073   */\n      shl\n        /* \"#utility.yul\":18038:18073   */\n      swap1\n      pop\n        /* \"#utility.yul\":17986:18080   */\n      swap2\n      swap1\n      pop\n      jump\t// out\n        /* \"#utility.yul\":18086:18180   */\n    tag_271:\n        /* \"#utility.yul\":18125:18132   */\n      0x00\n        /* \"#utility.yul\":18154:18174   */\n      tag_477\n        /* \"#utility.yul\":18168:18173   */\n      dup3\n        /* \"#utility.yul\":18154:18174   */\n      tag_270\n      jump\t// in\n    tag_477:\n        /* \"#utility.yul\":18143:18174   */\n      swap1\n      pop\n        /* \"#utility.yul\":18086:18180   */\n      swap2\n      swap1\n      pop\n      jump\t// out\n        /* \"#utility.yul\":18186:18286   */\n    tag_272:\n        /* \"#utility.yul\":18225:18232   */\n      0x00\n        /* \"#utility.yul\":18254:18280   */\n      tag_479\n        /* \"#utility.yul\":18274:18279   */\n      dup3\n        /* \"#utility.yul\":18254:18280   */\n      tag_271\n      jump\t// in\n    tag_479:\n        /* \"#utility.yul\":18243:18280   */\n      swap1\n      pop\n        /* \"#utility.yul\":18186:18286   */\n      swap2\n      swap1\n      pop\n      jump\t// out\n        /* \"#utility.yul\":18292:18449   */\n    tag_273:\n        /* \"#utility.yul\":18397:18442   */\n      tag_481\n        /* \"#utility.yul\":18417:18441   */\n      tag_482\n        /* \"#utility.yul\":18435:18440   */\n      dup3\n        /* \"#utility.yul\":18417:18441   */\n      tag_223\n      jump\t// in\n    tag_482:\n        /* \"#utility.yul\":18397:18442   */\n      tag_272\n      jump\t// in\n    tag_481:\n        /* \"#utility.yul\":18392:18395   */\n      dup3\n        /* \"#utility.yul\":18385:18443   */\n      mstore\n        /* \"#utility.yul\":18292:18449   */\n      pop\n      pop\n      jump\t// out\n        /* \"#utility.yul\":18455:18534   */\n    tag_274:\n        /* \"#utility.yul\":18494:18501   */\n      0x00\n        /* \"#utility.yul\":18523:18528   */\n      dup2\n        /* \"#utility.yul\":18512:18528   */\n      swap1\n      pop\n        /* \"#utility.yul\":18455:18534   */\n      swap2\n      swap1\n      pop\n      jump\t// out\n        /* \"#utility.yul\":18540:18697   */\n    tag_275:\n        /* \"#utility.yul\":18645:18690   */\n      tag_485\n        /* \"#utility.yul\":18665:18689   */\n      tag_486\n        /* \"#utility.yul\":18683:18688   */\n      dup3\n        /* \"#utility.yul\":18665:18689   */\n      tag_233\n      jump\t// in\n    tag_486:\n        /* \"#utility.yul\":18645:18690   */\n      tag_274\n      jump\t// in\n    tag_485:\n        /* \"#utility.yul\":18640:18643   */\n      dup3\n        /* \"#utility.yul\":18633:18691   */\n      mstore\n        /* \"#utility.yul\":18540:18697   */\n      pop\n      pop\n      jump\t// out\n        /* \"#utility.yul\":18703:19100   */\n    tag_170:\n        /* \"#utility.yul\":18843:18846   */\n      0x00\n        /* \"#utility.yul\":18858:18933   */\n      tag_488\n        /* \"#utility.yul\":18929:18932   */\n      dup3\n        /* \"#utility.yul\":18920:18926   */\n      dup6\n        /* \"#utility.yul\":18858:18933   */\n      tag_273\n      jump\t// in\n    tag_488:\n        /* \"#utility.yul\":18958:18960   */\n      0x14\n        /* \"#utility.yul\":18953:18956   */\n      dup3\n        /* \"#utility.yul\":18949:18961   */\n      add\n        /* \"#utility.yul\":18942:18961   */\n      swap2\n      pop\n        /* \"#utility.yul\":18971:19046   */\n      tag_489\n        /* \"#utility.yul\":19042:19045   */\n      dup3\n        /* \"#utility.yul\":19033:19039   */\n      dup5\n        /* \"#utility.yul\":18971:19046   */\n      tag_275\n      jump\t// in\n    tag_489:\n        /* \"#utility.yul\":19071:19073   */\n      0x20\n        /* \"#utility.yul\":19066:19069   */\n      dup3\n        /* \"#utility.yul\":19062:19074   */\n      add\n        /* \"#utility.yul\":19055:19074   */\n      swap2\n      pop\n        /* \"#utility.yul\":19091:19094   */\n      dup2\n        /* \"#utility.yul\":19084:19094   */\n      swap1\n      pop\n        /* \"#utility.yul\":18703:19100   */\n      swap4\n      swap3\n      pop\n      pop\n      pop\n      jump\t// out\n        /* \"#utility.yul\":19106:19204   */\n    tag_276:\n        /* \"#utility.yul\":19157:19163   */\n      0x00\n        /* \"#utility.yul\":19191:19196   */\n      dup2\n        /* \"#utility.yul\":19185:19197   */\n      mload\n        /* \"#utility.yul\":19175:19197   */\n      swap1\n      pop\n        /* \"#utility.yul\":19106:19204   */\n      swap2\n      swap1\n      pop\n      jump\t// out\n        /* \"#utility.yul\":19210:19357   */\n    tag_277:\n        /* \"#utility.yul\":19311:19322   */\n      0x00\n        /* \"#utility.yul\":19348:19351   */\n      dup2\n        /* \"#utility.yul\":19333:19351   */\n      swap1\n      pop\n        /* \"#utility.yul\":19210:19357   */\n      swap3\n      swap2\n      pop\n      pop\n      jump\t// out\n        /* \"#utility.yul\":19363:19749   */\n    tag_278:\n        /* \"#utility.yul\":19467:19470   */\n      0x00\n        /* \"#utility.yul\":19495:19533   */\n      tag_493\n        /* \"#utility.yul\":19527:19532   */\n      dup3\n        /* \"#utility.yul\":19495:19533   */\n      tag_276\n      jump\t// in\n    tag_493:\n        /* \"#utility.yul\":19549:19637   */\n      tag_494\n        /* \"#utility.yul\":19630:19636   */\n      dup2\n        /* \"#utility.yul\":19625:19628   */\n      dup6\n        /* \"#utility.yul\":19549:19637   */\n      tag_277\n      jump\t// in\n    tag_494:\n        /* \"#utility.yul\":19542:19637   */\n      swap4\n      pop\n        /* \"#utility.yul\":19646:19711   */\n      tag_495\n        /* \"#utility.yul\":19704:19710   */\n      dup2\n        /* \"#utility.yul\":19699:19702   */\n      dup6\n        /* \"#utility.yul\":19692:19696   */\n      0x20\n        /* \"#utility.yul\":19685:19690   */\n      dup7\n        /* \"#utility.yul\":19681:19697   */\n      add\n        /* \"#utility.yul\":19646:19711   */\n      tag_228\n      jump\t// in\n    tag_495:\n        /* \"#utility.yul\":19736:19742   */\n      dup1\n        /* \"#utility.yul\":19731:19734   */\n      dup5\n        /* \"#utility.yul\":19727:19743   */\n      add\n        /* \"#utility.yul\":19720:19743   */\n      swap2\n      pop\n        /* \"#utility.yul\":19471:19749   */\n      pop\n        /* \"#utility.yul\":19363:19749   */\n      swap3\n      swap2\n      pop\n      pop\n      jump\t// out\n        /* \"#utility.yul\":19755:20026   */\n    tag_172:\n        /* \"#utility.yul\":19885:19888   */\n      0x00\n        /* \"#utility.yul\":19907:20000   */\n      tag_497\n        /* \"#utility.yul\":19996:19999   */\n      dup3\n        /* \"#utility.yul\":19987:19993   */\n      dup5\n        /* \"#utility.yul\":19907:20000   */\n      tag_278\n      jump\t// in\n    tag_497:\n        /* \"#utility.yul\":19900:20000   */\n      swap2\n      pop\n        /* \"#utility.yul\":20017:20020   */\n      dup2\n        /* \"#utility.yul\":20010:20020   */\n      swap1\n      pop\n        /* \"#utility.yul\":19755:20026   */\n      swap3\n      swap2\n      pop\n      pop\n      jump\t// out\n        /* \"#utility.yul\":20032:20109   */\n    tag_279:\n        /* \"#utility.yul\":20069:20076   */\n      0x00\n        /* \"#utility.yul\":20098:20103   */\n      dup2\n        /* \"#utility.yul\":20087:20103   */\n      swap1\n      pop\n        /* \"#utility.yul\":20032:20109   */\n      swap2\n      swap1\n      pop\n      jump\t// out\n        /* \"#utility.yul\":20115:20237   */\n    tag_280:\n        /* \"#utility.yul\":20188:20212   */\n      tag_500\n        /* \"#utility.yul\":20206:20211   */\n      dup2\n        /* \"#utility.yul\":20188:20212   */\n      tag_279\n      jump\t// in\n    tag_500:\n        /* \"#utility.yul\":20181:20186   */\n      dup2\n        /* \"#utility.yul\":20178:20213   */\n      eq\n        /* \"#utility.yul\":20168:20231   */\n      tag_501\n      jumpi\n        /* \"#utility.yul\":20227:20228   */\n      0x00\n        /* \"#utility.yul\":20224:20225   */\n      dup1\n        /* \"#utility.yul\":20217:20229   */\n      revert\n        /* \"#utility.yul\":20168:20231   */\n    tag_501:\n        /* \"#utility.yul\":20115:20237   */\n      pop\n      jump\t// out\n        /* \"#utility.yul\":20243:20386   */\n    tag_281:\n        /* \"#utility.yul\":20300:20305   */\n      0x00\n        /* \"#utility.yul\":20331:20337   */\n      dup2\n        /* \"#utility.yul\":20325:20338   */\n      mload\n        /* \"#utility.yul\":20316:20338   */\n      swap1\n      pop\n        /* \"#utility.yul\":20347:20380   */\n      tag_503\n        /* \"#utility.yul\":20374:20379   */\n      dup2\n        /* \"#utility.yul\":20347:20380   */\n      tag_280\n      jump\t// in\n    tag_503:\n        /* \"#utility.yul\":20243:20386   */\n      swap3\n      swap2\n      pop\n      pop\n      jump\t// out\n        /* \"#utility.yul\":20392:20743   */\n    tag_176:\n        /* \"#utility.yul\":20462:20468   */\n      0x00\n        /* \"#utility.yul\":20511:20513   */\n      0x20\n        /* \"#utility.yul\":20499:20508   */\n      dup3\n        /* \"#utility.yul\":20490:20497   */\n      dup5\n        /* \"#utility.yul\":20486:20509   */\n      sub\n        /* \"#utility.yul\":20482:20514   */\n      slt\n        /* \"#utility.yul\":20479:20598   */\n      iszero\n      tag_505\n      jumpi\n        /* \"#utility.yul\":20517:20596   */\n      tag_506\n      tag_220\n      jump\t// in\n    tag_506:\n        /* \"#utility.yul\":20479:20598   */\n    tag_505:\n        /* \"#utility.yul\":20637:20638   */\n      0x00\n        /* \"#utility.yul\":20662:20726   */\n      tag_507\n        /* \"#utility.yul\":20718:20725   */\n      dup5\n        /* \"#utility.yul\":20709:20715   */\n      dup3\n        /* \"#utility.yul\":20698:20707   */\n      dup6\n        /* \"#utility.yul\":20694:20716   */\n      add\n        /* \"#utility.yul\":20662:20726   */\n      tag_281\n      jump\t// in\n    tag_507:\n        /* \"#utility.yul\":20652:20726   */\n      swap2\n      pop\n        /* \"#utility.yul\":20608:20736   */\n      pop\n        /* \"#utility.yul\":20392:20743   */\n      swap3\n      swap2\n      pop\n      pop\n      jump\t// out\n        /* \"#utility.yul\":20749:21387   */\n    tag_180:\n        /* \"#utility.yul\":20943:20947   */\n      0x00\n        /* \"#utility.yul\":20981:20984   */\n      0x80\n        /* \"#utility.yul\":20970:20979   */\n      dup3\n        /* \"#utility.yul\":20966:20985   */\n      add\n        /* \"#utility.yul\":20958:20985   */\n      swap1\n      pop\n        /* \"#utility.yul\":20995:21066   */\n      tag_509\n        /* \"#utility.yul\":21063:21064   */\n      0x00\n        /* \"#utility.yul\":21052:21061   */\n      dup4\n        /* \"#utility.yul\":21048:21065   */\n      add\n        /* \"#utility.yul\":21039:21045   */\n      dup8\n        /* \"#utility.yul\":20995:21066   */\n      tag_235\n      jump\t// in\n    tag_509:\n        /* \"#utility.yul\":21113:21122   */\n      dup2\n        /* \"#utility.yul\":21107:21111   */\n      dup2\n        /* \"#utility.yul\":21103:21123   */\n      sub\n        /* \"#utility.yul\":21098:21100   */\n      0x20\n        /* \"#utility.yul\":21087:21096   */\n      dup4\n        /* \"#utility.yul\":21083:21101   */\n      add\n        /* \"#utility.yul\":21076:21124   */\n      mstore\n        /* \"#utility.yul\":21141:21216   */\n      tag_510\n        /* \"#utility.yul\":21211:21215   */\n      dup2\n        /* \"#utility.yul\":21202:21208   */\n      dup7\n        /* \"#utility.yul\":21141:21216   */\n      tag_265\n      jump\t// in\n    tag_510:\n        /* \"#utility.yul\":21133:21216   */\n      swap1\n      pop\n        /* \"#utility.yul\":21226:21298   */\n      tag_511\n        /* \"#utility.yul\":21294:21296   */\n      0x40\n        /* \"#utility.yul\":21283:21292   */\n      dup4\n        /* \"#utility.yul\":21279:21297   */\n      add\n        /* \"#utility.yul\":21270:21276   */\n      dup6\n        /* \"#utility.yul\":21226:21298   */\n      tag_234\n      jump\t// in\n    tag_511:\n        /* \"#utility.yul\":21308:21380   */\n      tag_512\n        /* \"#utility.yul\":21376:21378   */\n      0x60\n        /* \"#utility.yul\":21365:21374   */\n      dup4\n        /* \"#utility.yul\":21361:21379   */\n      add\n        /* \"#utility.yul\":21352:21358   */\n      dup5\n        /* \"#utility.yul\":21308:21380   */\n      tag_234\n      jump\t// in\n    tag_512:\n        /* \"#utility.yul\":20749:21387   */\n      swap6\n      swap5\n      pop\n      pop\n      pop\n      pop\n      pop\n      jump\t// out\n        /* \"#utility.yul\":21393:21563   */\n    tag_282:\n        /* \"#utility.yul\":21533:21555   */\n      0x416e2061756469742069732072656d6f7665642e000000000000000000000000\n        /* \"#utility.yul\":21529:21530   */\n      0x00\n        /* \"#utility.yul\":21521:21527   */\n      dup3\n        /* \"#utility.yul\":21517:21531   */\n      add\n        /* \"#utility.yul\":21510:21556   */\n      mstore\n        /* \"#utility.yul\":21393:21563   */\n      pop\n      jump\t// out\n        /* \"#utility.yul\":21569:21935   */\n    tag_283:\n        /* \"#utility.yul\":21711:21714   */\n      0x00\n        /* \"#utility.yul\":21732:21799   */\n      tag_515\n        /* \"#utility.yul\":21796:21798   */\n      0x14\n        /* \"#utility.yul\":21791:21794   */\n      dup4\n        /* \"#utility.yul\":21732:21799   */\n      tag_227\n      jump\t// in\n    tag_515:\n        /* \"#utility.yul\":21725:21799   */\n      swap2\n      pop\n        /* \"#utility.yul\":21808:21901   */\n      tag_516\n        /* \"#utility.yul\":21897:21900   */\n      dup3\n        /* \"#utility.yul\":21808:21901   */\n      tag_282\n      jump\t// in\n    tag_516:\n        /* \"#utility.yul\":21926:21928   */\n      0x20\n        /* \"#utility.yul\":21921:21924   */\n      dup3\n        /* \"#utility.yul\":21917:21929   */\n      add\n        /* \"#utility.yul\":21910:21929   */\n      swap1\n      pop\n        /* \"#utility.yul\":21569:21935   */\n      swap2\n      swap1\n      pop\n      jump\t// out\n        /* \"#utility.yul\":21941:22580   */\n    tag_198:\n        /* \"#utility.yul\":22163:22167   */\n      0x00\n        /* \"#utility.yul\":22201:22203   */\n      0x60\n        /* \"#utility.yul\":22190:22199   */\n      dup3\n        /* \"#utility.yul\":22186:22204   */\n      add\n        /* \"#utility.yul\":22178:22204   */\n      swap1\n      pop\n        /* \"#utility.yul\":22250:22259   */\n      dup2\n        /* \"#utility.yul\":22244:22248   */\n      dup2\n        /* \"#utility.yul\":22240:22260   */\n      sub\n        /* \"#utility.yul\":22236:22237   */\n      0x00\n        /* \"#utility.yul\":22225:22234   */\n      dup4\n        /* \"#utility.yul\":22221:22238   */\n      add\n        /* \"#utility.yul\":22214:22261   */\n      mstore\n        /* \"#utility.yul\":22278:22409   */\n      tag_518\n        /* \"#utility.yul\":22404:22408   */\n      dup2\n        /* \"#utility.yul\":22278:22409   */\n      tag_283\n      jump\t// in\n    tag_518:\n        /* \"#utility.yul\":22270:22409   */\n      swap1\n      pop\n        /* \"#utility.yul\":22419:22491   */\n      tag_519\n        /* \"#utility.yul\":22487:22489   */\n      0x20\n        /* \"#utility.yul\":22476:22485   */\n      dup4\n        /* \"#utility.yul\":22472:22490   */\n      add\n        /* \"#utility.yul\":22463:22469   */\n      dup6\n        /* \"#utility.yul\":22419:22491   */\n      tag_235\n      jump\t// in\n    tag_519:\n        /* \"#utility.yul\":22501:22573   */\n      tag_520\n        /* \"#utility.yul\":22569:22571   */\n      0x40\n        /* \"#utility.yul\":22558:22567   */\n      dup4\n        /* \"#utility.yul\":22554:22572   */\n      add\n        /* \"#utility.yul\":22545:22551   */\n      dup5\n        /* \"#utility.yul\":22501:22573   */\n      tag_234\n      jump\t// in\n    tag_520:\n        /* \"#utility.yul\":21941:22580   */\n      swap4\n      swap3\n      pop\n      pop\n      pop\n      jump\t// out\n        /* \"#utility.yul\":22586:22754   */\n    tag_284:\n        /* \"#utility.yul\":22726:22746   */\n      0x4120646f63746f722069732061646465642e0000000000000000000000000000\n        /* \"#utility.yul\":22722:22723   */\n      0x00\n        /* \"#utility.yul\":22714:22720   */\n      dup3\n        /* \"#utility.yul\":22710:22724   */\n      add\n        /* \"#utility.yul\":22703:22747   */\n      mstore\n        /* \"#utility.yul\":22586:22754   */\n      pop\n      jump\t// out\n        /* \"#utility.yul\":22760:23126   */\n    tag_285:\n        /* \"#utility.yul\":22902:22905   */\n      0x00\n        /* \"#utility.yul\":22923:22990   */\n      tag_523\n        /* \"#utility.yul\":22987:22989   */\n      0x12\n        /* \"#utility.yul\":22982:22985   */\n      dup4\n        /* \"#utility.yul\":22923:22990   */\n      tag_227\n      jump\t// in\n    tag_523:\n        /* \"#utility.yul\":22916:22990   */\n      swap2\n      pop\n        /* \"#utility.yul\":22999:23092   */\n      tag_524\n        /* \"#utility.yul\":23088:23091   */\n      dup3\n        /* \"#utility.yul\":22999:23092   */\n      tag_284\n      jump\t// in\n    tag_524:\n        /* \"#utility.yul\":23117:23119   */\n      0x20\n        /* \"#utility.yul\":23112:23115   */\n      dup3\n        /* \"#utility.yul\":23108:23120   */\n      add\n        /* \"#utility.yul\":23101:23120   */\n      swap1\n      pop\n        /* \"#utility.yul\":22760:23126   */\n      swap2\n      swap1\n      pop\n      jump\t// out\n        /* \"#utility.yul\":23132:23771   */\n    tag_204:\n        /* \"#utility.yul\":23354:23358   */\n      0x00\n        /* \"#utility.yul\":23392:23394   */\n      0x60\n        /* \"#utility.yul\":23381:23390   */\n      dup3\n        /* \"#utility.yul\":23377:23395   */\n      add\n        /* \"#utility.yul\":23369:23395   */\n      swap1\n      pop\n        /* \"#utility.yul\":23441:23450   */\n      dup2\n        /* \"#utility.yul\":23435:23439   */\n      dup2\n        /* \"#utility.yul\":23431:23451   */\n      sub\n        /* \"#utility.yul\":23427:23428   */\n      0x00\n        /* \"#utility.yul\":23416:23425   */\n      dup4\n        /* \"#utility.yul\":23412:23429   */\n      add\n        /* \"#utility.yul\":23405:23452   */\n      mstore\n        /* \"#utility.yul\":23469:23600   */\n      tag_526\n        /* \"#utility.yul\":23595:23599   */\n      dup2\n        /* \"#utility.yul\":23469:23600   */\n      tag_285\n      jump\t// in\n    tag_526:\n        /* \"#utility.yul\":23461:23600   */\n      swap1\n      pop\n        /* \"#utility.yul\":23610:23682   */\n      tag_527\n        /* \"#utility.yul\":23678:23680   */\n      0x20\n        /* \"#utility.yul\":23667:23676   */\n      dup4\n        /* \"#utility.yul\":23663:23681   */\n      add\n        /* \"#utility.yul\":23654:23660   */\n      dup6\n        /* \"#utility.yul\":23610:23682   */\n      tag_235\n      jump\t// in\n    tag_527:\n        /* \"#utility.yul\":23692:23764   */\n      tag_528\n        /* \"#utility.yul\":23760:23762   */\n      0x40\n        /* \"#utility.yul\":23749:23758   */\n      dup4\n        /* \"#utility.yul\":23745:23763   */\n      add\n        /* \"#utility.yul\":23736:23742   */\n      dup5\n        /* \"#utility.yul\":23692:23764   */\n      tag_234\n      jump\t// in\n    tag_528:\n        /* \"#utility.yul\":23132:23771   */\n      swap4\n      swap3\n      pop\n      pop\n      pop\n      jump\t// out\n    stop\n    data_4978b6b03187df844a847c278aaf4a67aa6dcd97b76a4c1ab7c656e8ee41cb6d 5265636f726420697320636f7069656420627920646f63746f722f61756469742e\n    data_8ae2893cb4cf01e017397c0e83ef41a221a50089f1d558e3d312aaf17b08dafc 5265636f7264206973207570646174656420627920646f63746f722f61756469742e\n    data_d00529ad41deaf843cb43ae8784c496ffb8e84190407ca9560b040e883addf38 5265636f7264206973207072696e74656420627920646f63746f722f61756469742e\n    data_d38f047a012e048de635cf9ec2b5466fb7738ddfef828b834ad44ccf5f8582f9 5265636f7264206973207175657269656420627920646f63746f722f61756469742e\n    data_e102acbd7087c93401d8c6a9b5bbf1ae4dfc296293aff2204f4fc047b2628e40 5265636f72642069732064656c6574656420627920646f63746f722f61756469742e\n\n    auxdata: 0xa2646970667358221220af541ca756a94c97d1b3e9e6e741501fe670438b81dc12cb7d00cb406b1faf7864736f6c63430008120033\n}\n",
				"bytecode": {
					"linkReferences": {},
					"object": "60806040523480156200001157600080fd5b5060405162004691380380620046918339818101604052810190620000379190620002bb565b336000806101000a81548173ffffffffffffffffffffffffffffffffffffffff021916908373ffffffffffffffffffffffffffffffffffffffff1602179055508860019081620000889190620006fc565b5087600290816200009a9190620006fc565b508660039081620000ac9190620006fc565b508560049081620000be9190620006fc565b508460059081620000d09190620006fc565b508360069081620000e29190620006fc565b508260079081620000f49190620006fc565b508160089081620001069190620006fc565b508060099081620001189190620006fc565b50505050505050505050620007e3565b6000604051905090565b600080fd5b600080fd5b600080fd5b600080fd5b6000601f19601f8301169050919050565b7f4e487b7100000000000000000000000000000000000000000000000000000000600052604160045260246000fd5b620001918262000146565b810181811067ffffffffffffffff82111715620001b357620001b262000157565b5b80604052505050565b6000620001c862000128565b9050620001d6828262000186565b919050565b600067ffffffffffffffff821115620001f957620001f862000157565b5b620002048262000146565b9050602081019050919050565b60005b838110156200023157808201518184015260208101905062000214565b60008484015250505050565b6000620002546200024e84620001db565b620001bc565b90508281526020810184848401111562000273576200027262000141565b5b6200028084828562000211565b509392505050565b600082601f830112620002a0576200029f6200013c565b5b8151620002b28482602086016200023d565b91505092915050565b60008060008060008060008060006101208a8c031215620002e157620002e062000132565b5b60008a015167ffffffffffffffff81111562000302576200030162000137565b5b620003108c828d0162000288565b99505060208a015167ffffffffffffffff81111562000334576200033362000137565b5b620003428c828d0162000288565b98505060408a015167ffffffffffffffff81111562000366576200036562000137565b5b620003748c828d0162000288565b97505060608a015167ffffffffffffffff81111562000398576200039762000137565b5b620003a68c828d0162000288565b96505060808a015167ffffffffffffffff811115620003ca57620003c962000137565b5b620003d88c828d0162000288565b95505060a08a015167ffffffffffffffff811115620003fc57620003fb62000137565b5b6200040a8c828d0162000288565b94505060c08a015167ffffffffffffffff8111156200042e576200042d62000137565b5b6200043c8c828d0162000288565b93505060e08a015167ffffffffffffffff81111562000460576200045f62000137565b5b6200046e8c828d0162000288565b9250506101008a015167ffffffffffffffff81111562000493576200049262000137565b5b620004a18c828d0162000288565b9150509295985092959850929598565b600081519050919050565b7f4e487b7100000000000000000000000000000000000000000000000000000000600052602260045260246000fd5b600060028204905060018216806200050457607f821691505b6020821081036200051a5762000519620004bc565b5b50919050565b60008190508160005260206000209050919050565b60006020601f8301049050919050565b600082821b905092915050565b600060088302620005847fffffffffffffffffffffffffffffffffffffffffffffffffffffffffffffffff8262000545565b62000590868362000545565b95508019841693508086168417925050509392505050565b6000819050919050565b6000819050919050565b6000620005dd620005d7620005d184620005a8565b620005b2565b620005a8565b9050919050565b6000819050919050565b620005f983620005bc565b620006116200060882620005e4565b84845462000552565b825550505050565b600090565b6200062862000619565b62000635818484620005ee565b505050565b5b818110156200065d57620006516000826200061e565b6001810190506200063b565b5050565b601f821115620006ac57620006768162000520565b620006818462000535565b8101602085101562000691578190505b620006a9620006a08562000535565b8301826200063a565b50505b505050565b600082821c905092915050565b6000620006d160001984600802620006b1565b1980831691505092915050565b6000620006ec8383620006be565b9150826002028217905092915050565b6200070782620004b1565b67ffffffffffffffff81111562000723576200072262000157565b5b6200072f8254620004eb565b6200073c82828562000661565b600060209050601f8311600181146200077457600084156200075f578287015190505b6200076b8582620006de565b865550620007db565b601f198416620007848662000520565b60005b82811015620007ae5784890151825560018201915060208501945060208101905062000787565b86831015620007ce5784890151620007ca601f891682620006be565b8355505b6001600288020188555050505b505050505050565b613e9e80620007f36000396000f3fe608060405234801561001057600080fd5b50600436106101005760003560e01c8063b164972911610097578063d60bd31011610066578063d60bd3101461034f578063db1bf8d81461037f578063e111265d146103af578063f6c25bbd146103df57610100565b8063b16497291461028f578063b24be0a1146102bf578063b6e478e5146102ef578063c73d6d9e1461031f57610100565b8063a0da0ea3116100d3578063a0da0ea3146101cf578063a7bf973c146101ff578063a9583c221461022f578063ab7fca1c1461025f57610100565b80630389523d146101055780630cb16b711461013557806316161f021461016f5780631fe8bb6a1461019f575b600080fd5b61011f600480360381019061011a91906131f6565b61040f565b60405161012c91906132b3565b60405180910390f35b61014f600480360381019061014a91906131f6565b610a5f565b6040516101669b9a99989796959493929190613318565b60405180910390f35b610189600480360381019061018491906131f6565b610c36565b60405161019691906132b3565b60405180910390f35b6101b960048036038101906101b491906131f6565b611024565b6040516101c691906132b3565b60405180910390f35b6101e960048036038101906101e491906131f6565b61119e565b6040516101f691906132b3565b60405180910390f35b61021960048036038101906102149190613506565b611599565b60405161022691906132b3565b60405180910390f35b610249600480360381019061024491906131f6565b611979565b6040516102569190613562565b60405180910390f35b610279600480360381019061027491906131f6565b611999565b6040516102869190613562565b60405180910390f35b6102a960048036038101906102a491906131f6565b6119b9565b6040516102b691906132b3565b60405180910390f35b6102d960048036038101906102d491906135a9565b611b33565b6040516102e691906135d6565b60405180910390f35b610309600480360381019061030491906131f6565b611fe2565b60405161031691906132b3565b60405180910390f35b610339600480360381019061033491906131f6565b612371565b60405161034691906132b3565b60405180910390f35b610369600480360381019061036491906131f6565b612700565b60405161037691906132b3565b60405180910390f35b610399600480360381019061039491906131f6565b61287b565b6040516103a691906132b3565b60405180910390f35b6103c960048036038101906103c491906131f6565b6129f5565b6040516103d691906132b3565b60405180910390f35b6103f960048036038101906103f491906131f6565b612e0e565b60405161040691906132b3565b60405180910390f35b606060011515600a60008473ffffffffffffffffffffffffffffffffffffffff1673ffffffffffffffffffffffffffffffffffffffff16815260200190815260200160002060000160009054906101000a900460ff1615151461047157600080fd5b6001600a60008473ffffffffffffffffffffffffffffffffffffffff1673ffffffffffffffffffffffffffffffffffffffff16815260200190815260200160002060030154036104c057600080fd5b3373ffffffffffffffffffffffffffffffffffffffff16600a60008473ffffffffffffffffffffffffffffffffffffffff1673ffffffffffffffffffffffffffffffffffffffff16815260200190815260200160002060050160009054906101000a900473ffffffffffffffffffffffffffffffffffffffff1673ffffffffffffffffffffffffffffffffffffffff16036106c1573373ffffffffffffffffffffffffffffffffffffffff16600a60008473ffffffffffffffffffffffffffffffffffffffff1673ffffffffffffffffffffffffffffffffffffffff16815260200190815260200160002060050160009054906101000a900473ffffffffffffffffffffffffffffffffffffffff1673ffffffffffffffffffffffffffffffffffffffff16146105ef57600080fd5b600a60008373ffffffffffffffffffffffffffffffffffffffff1673ffffffffffffffffffffffffffffffffffffffff168152602001908152602001600020600401805461063c90613620565b80601f016020809104026020016040519081016040528092919081815260200182805461066890613620565b80156106b55780601f1061068a576101008083540402835291602001916106b5565b820191906000526020600020905b81548152906001019060200180831161069857829003601f168201915b50505050509050610a5a565b600b60003373ffffffffffffffffffffffffffffffffffffffff1673ffffffffffffffffffffffffffffffffffffffff16815260200190815260200160002060009054906101000a900460ff161561087157600b60003373ffffffffffffffffffffffffffffffffffffffff1673ffffffffffffffffffffffffffffffffffffffff16815260200190815260200160002060009054906101000a900460ff1661079f576040517f08c379a00000000000000000000000000000000000000000000000000000000081526004016107969061369d565b60405180910390fd5b600a60008373ffffffffffffffffffffffffffffffffffffffff1673ffffffffffffffffffffffffffffffffffffffff16815260200190815260200160002060040180546107ec90613620565b80601f016020809104026020016040519081016040528092919081815260200182805461081890613620565b80156108655780601f1061083a57610100808354040283529160200191610865565b820191906000526020600020905b81548152906001019060200180831161084857829003601f168201915b50505050509050610a5a565b600c60003373ffffffffffffffffffffffffffffffffffffffff1673ffffffffffffffffffffffffffffffffffffffff16815260200190815260200160002060009054906101000a900460ff1615610a2157600c60003373ffffffffffffffffffffffffffffffffffffffff1673ffffffffffffffffffffffffffffffffffffffff16815260200190815260200160002060009054906101000a900460ff1661094f576040517f08c379a00000000000000000000000000000000000000000000000000000000081526004016109469061369d565b60405180910390fd5b600a60008373ffffffffffffffffffffffffffffffffffffffff1673ffffffffffffffffffffffffffffffffffffffff168152602001908152602001600020600401805461099c90613620565b80601f01602080910402602001604051908101604052809291908181526020018280546109c890613620565b8015610a155780601f106109ea57610100808354040283529160200191610a15565b820191906000526020600020905b8154815290600101906020018083116109f857829003601f168201915b50505050509050610a5a565b6040518060400160405280601a81526020017f596f752068617665206e6f20617574686f72697a6174696f6e2e00000000000081525090505b919050565b600a6020528060005260406000206000915090508060000160009054906101000a900460ff1690806001015490806002018054610a9b90613620565b80601f0160208091040260200160405190810160405280929190818152602001828054610ac790613620565b8015610b145780601f10610ae957610100808354040283529160200191610b14565b820191906000526020600020905b815481529060010190602001808311610af757829003601f168201915b505050505090806003015490806004018054610b2f90613620565b80601f0160208091040260200160405190810160405280929190818152602001828054610b5b90613620565b8015610ba85780601f10610b7d57610100808354040283529160200191610ba8565b820191906000526020600020905b815481529060010190602001808311610b8b57829003601f168201915b5050505050908060050160009054906101000a900473ffffffffffffffffffffffffffffffffffffffff16908060060154908060070160009054906101000a900473ffffffffffffffffffffffffffffffffffffffff16908060080154908060090160009054906101000a900473ffffffffffffffffffffffffffffffffffffffff169080600a015490508b565b6060600a60008373ffffffffffffffffffffffffffffffffffffffff1673ffffffffffffffffffffffffffffffffffffffff16815260200190815260200160002060000160009054906101000a900460ff16610c9157600080fd5b600b60003373ffffffffffffffffffffffffffffffffffffffff1673ffffffffffffffffffffffffffffffffffffffff16815260200190815260200160002060009054906101000a900460ff16610ce757600080fd5b6001600a60008473ffffffffffffffffffffffffffffffffffffffff1673ffffffffffffffffffffffffffffffffffffffff1681526020019081526020016000206003015403610d3657600080fd5b33600a60008473ffffffffffffffffffffffffffffffffffffffff1673ffffffffffffffffffffffffffffffffffffffff16815260200190815260200160002060070160006101000a81548173ffffffffffffffffffffffffffffffffffffffff021916908373ffffffffffffffffffffffffffffffffffffffff16021790555042600a60008473ffffffffffffffffffffffffffffffffffffffff1673ffffffffffffffffffffffffffffffffffffffff1681526020019081526020016000206008018190555060405180602001604052806000815250600a60008473ffffffffffffffffffffffffffffffffffffffff1673ffffffffffffffffffffffffffffffffffffffff1681526020019081526020016000206004019081610e5c9190613869565b506001600a60008473ffffffffffffffffffffffffffffffffffffffff1673ffffffffffffffffffffffffffffffffffffffff16815260200190815260200160002060030181905550604051806060016040528060228152602001613e4760229139600a60008473ffffffffffffffffffffffffffffffffffffffff1673ffffffffffffffffffffffffffffffffffffffff1681526020019081526020016000206002019081610f0c9190613869565b507f41e7aef4a9a40592736811efa52bae55e6fd1cd88db143dc78a6370b2aac0960600a60008473ffffffffffffffffffffffffffffffffffffffff1673ffffffffffffffffffffffffffffffffffffffff168152602001908152602001600020600201600a60008573ffffffffffffffffffffffffffffffffffffffff1673ffffffffffffffffffffffffffffffffffffffff16815260200190815260200160002060030154600a60008673ffffffffffffffffffffffffffffffffffffffff1673ffffffffffffffffffffffffffffffffffffffff16815260200190815260200160002060060154604051611005939291906139bf565b60405180910390a1604051806020016040528060008152509050919050565b60603373ffffffffffffffffffffffffffffffffffffffff1660008054906101000a900473ffffffffffffffffffffffffffffffffffffffff1673ffffffffffffffffffffffffffffffffffffffff161461107e57600080fd5b600b60008373ffffffffffffffffffffffffffffffffffffffff1673ffffffffffffffffffffffffffffffffffffffff16815260200190815260200160002060009054906101000a900460ff1615611129576000600b60008473ffffffffffffffffffffffffffffffffffffffff1673ffffffffffffffffffffffffffffffffffffffff16815260200190815260200160002060006101000a81548160ff0219169083151502179055505b7ed12f5594e82ad336a8fa185a7cc3aab483eddcf14e26ebc4ea81f6400b120a8242604051611159929190613a49565b60405180910390a16040518060400160405280601481526020017f4120646f63746f722069732072656d6f7665642e0000000000000000000000008152509050919050565b606060011515600a60008473ffffffffffffffffffffffffffffffffffffffff1673ffffffffffffffffffffffffffffffffffffffff16815260200190815260200160002060000160009054906101000a900460ff1615151461120057600080fd5b3373ffffffffffffffffffffffffffffffffffffffff16600a60008473ffffffffffffffffffffffffffffffffffffffff1673ffffffffffffffffffffffffffffffffffffffff16815260200190815260200160002060050160009054906101000a900473ffffffffffffffffffffffffffffffffffffffff1673ffffffffffffffffffffffffffffffffffffffff161461129a57600080fd5b6001600a60008473ffffffffffffffffffffffffffffffffffffffff1673ffffffffffffffffffffffffffffffffffffffff16815260200190815260200160002060030154036112e957600080fd5b60405180602001604052806000815250600a60008473ffffffffffffffffffffffffffffffffffffffff1673ffffffffffffffffffffffffffffffffffffffff16815260200190815260200160002060040190816113479190613869565b5042600a60008473ffffffffffffffffffffffffffffffffffffffff1673ffffffffffffffffffffffffffffffffffffffff168152602001908152602001600020600601819055506001600a60008473ffffffffffffffffffffffffffffffffffffffff1673ffffffffffffffffffffffffffffffffffffffff168152602001908152602001600020600301819055506040518060400160405280601d81526020017f5265636f72642069732064656c657465642062792070617469656e742e000000815250600a60008473ffffffffffffffffffffffffffffffffffffffff1673ffffffffffffffffffffffffffffffffffffffff168152602001908152602001600020600201908161145b9190613869565b507fc5451672c113180dcc201ad0122fe0677464f75276e03a264699d75d16906378600a60008473ffffffffffffffffffffffffffffffffffffffff1673ffffffffffffffffffffffffffffffffffffffff168152602001908152602001600020600201600a60008573ffffffffffffffffffffffffffffffffffffffff1673ffffffffffffffffffffffffffffffffffffffff16815260200190815260200160002060030154600a60008673ffffffffffffffffffffffffffffffffffffffff1673ffffffffffffffffffffffffffffffffffffffff16815260200190815260200160002060060154604051611554939291906139bf565b60405180910390a16040518060400160405280601d81526020017f5265636f72642069732064656c657465642062792070617469656e742e0000008152509050919050565b6060600a60008473ffffffffffffffffffffffffffffffffffffffff1673ffffffffffffffffffffffffffffffffffffffff16815260200190815260200160002060000160009054906101000a900460ff166115f457600080fd5b600b60003373ffffffffffffffffffffffffffffffffffffffff1673ffffffffffffffffffffffffffffffffffffffff16815260200190815260200160002060009054906101000a900460ff1661164a57600080fd5b6001600a60008573ffffffffffffffffffffffffffffffffffffffff1673ffffffffffffffffffffffffffffffffffffffff168152602001908152602001600020600301540361169957600080fd5b33600a60008573ffffffffffffffffffffffffffffffffffffffff1673ffffffffffffffffffffffffffffffffffffffff16815260200190815260200160002060070160006101000a81548173ffffffffffffffffffffffffffffffffffffffff021916908373ffffffffffffffffffffffffffffffffffffffff16021790555042600a60008573ffffffffffffffffffffffffffffffffffffffff1673ffffffffffffffffffffffffffffffffffffffff1681526020019081526020016000206008018190555081600a60008573ffffffffffffffffffffffffffffffffffffffff1673ffffffffffffffffffffffffffffffffffffffff16815260200190815260200160002060040190816117b09190613869565b506005600a60008573ffffffffffffffffffffffffffffffffffffffff1673ffffffffffffffffffffffffffffffffffffffff16815260200190815260200160002060030181905550604051806060016040528060228152602001613de160229139600a60008573ffffffffffffffffffffffffffffffffffffffff1673ffffffffffffffffffffffffffffffffffffffff16815260200190815260200160002060020190816118609190613869565b507f89c9a137dd6383374b8e2a092d40bc74fda69a614e9ece010b1f4eaded8f841c600a60008573ffffffffffffffffffffffffffffffffffffffff1673ffffffffffffffffffffffffffffffffffffffff168152602001908152602001600020600201600a60008673ffffffffffffffffffffffffffffffffffffffff1673ffffffffffffffffffffffffffffffffffffffff16815260200190815260200160002060030154600a60008773ffffffffffffffffffffffffffffffffffffffff1673ffffffffffffffffffffffffffffffffffffffff16815260200190815260200160002060060154604051611959939291906139bf565b60405180910390a160405180602001604052806000815250905092915050565b600b6020528060005260406000206000915054906101000a900460ff1681565b600c6020528060005260406000206000915054906101000a900460ff1681565b60603373ffffffffffffffffffffffffffffffffffffffff1660008054906101000a900473ffffffffffffffffffffffffffffffffffffffff1673ffffffffffffffffffffffffffffffffffffffff1614611a1357600080fd5b600c60008373ffffffffffffffffffffffffffffffffffffffff1673ffffffffffffffffffffffffffffffffffffffff16815260200190815260200160002060009054906101000a900460ff16611abd576001600c60008473ffffffffffffffffffffffffffffffffffffffff1673ffffffffffffffffffffffffffffffffffffffff16815260200190815260200160002060006101000a81548160ff0219169083151502179055505b7f8fbe047a5fafe34457a33e6bd83075c8ffed3878dc48a48d31ce3948bbb22cd48242604051611aee929190613ad1565b60405180910390a16040518060400160405280601281526020017f416e2061756469742069732061646465642e00000000000000000000000000008152509050919050565b60003373ffffffffffffffffffffffffffffffffffffffff1660008054906101000a900473ffffffffffffffffffffffffffffffffffffffff1673ffffffffffffffffffffffffffffffffffffffff1614611b8d57600080fd5b600060023342604051602001611ba4929190613b76565b604051602081830303815290604052604051611bc09190613be9565b602060405180830381855afa158015611bdd573d6000803e3d6000fd5b5050506040513d601f19601f82011682018060405250810190611c009190613c36565b60001c90506001600a60008373ffffffffffffffffffffffffffffffffffffffff1673ffffffffffffffffffffffffffffffffffffffff16815260200190815260200160002060000160006101000a81548160ff0219169083151502179055508073ffffffffffffffffffffffffffffffffffffffff16600a60008373ffffffffffffffffffffffffffffffffffffffff1673ffffffffffffffffffffffffffffffffffffffff168152602001908152602001600020600101819055506040518060400160405280601d81526020017f4e6577204d65646963616c205265636f72642069732063726561746564000000815250600a60008373ffffffffffffffffffffffffffffffffffffffff1673ffffffffffffffffffffffffffffffffffffffff1681526020019081526020016000206002019081611d419190613869565b506000600a60008373ffffffffffffffffffffffffffffffffffffffff1673ffffffffffffffffffffffffffffffffffffffff168152602001908152602001600020600301819055506040518060400160405280600e81526020017f566973697420696e697469617465000000000000000000000000000000000000815250600a60008373ffffffffffffffffffffffffffffffffffffffff1673ffffffffffffffffffffffffffffffffffffffff1681526020019081526020016000206004019081611e0e9190613869565b5033600a60008373ffffffffffffffffffffffffffffffffffffffff1673ffffffffffffffffffffffffffffffffffffffff16815260200190815260200160002060050160006101000a81548173ffffffffffffffffffffffffffffffffffffffff021916908373ffffffffffffffffffffffffffffffffffffffff16021790555082600a60008373ffffffffffffffffffffffffffffffffffffffff1673ffffffffffffffffffffffffffffffffffffffff168152602001908152602001600020600601819055507f14207ac2653501de32da60b3fee91a4d0c170419f5edd0528124b1c526a7050981600a60008473ffffffffffffffffffffffffffffffffffffffff1673ffffffffffffffffffffffffffffffffffffffff168152602001908152602001600020600201600a60008573ffffffffffffffffffffffffffffffffffffffff1673ffffffffffffffffffffffffffffffffffffffff16815260200190815260200160002060030154600a60008673ffffffffffffffffffffffffffffffffffffffff1673ffffffffffffffffffffffffffffffffffffffff16815260200190815260200160002060060154604051611fd19493929190613c63565b60405180910390a180915050919050565b6060600a60008373ffffffffffffffffffffffffffffffffffffffff1673ffffffffffffffffffffffffffffffffffffffff16815260200190815260200160002060000160009054906101000a900460ff1661203d57600080fd5b600b60003373ffffffffffffffffffffffffffffffffffffffff1673ffffffffffffffffffffffffffffffffffffffff16815260200190815260200160002060009054906101000a900460ff1661209357600080fd5b6001600a60008473ffffffffffffffffffffffffffffffffffffffff1673ffffffffffffffffffffffffffffffffffffffff16815260200190815260200160002060030154036120e257600080fd5b33600a60008473ffffffffffffffffffffffffffffffffffffffff1673ffffffffffffffffffffffffffffffffffffffff16815260200190815260200160002060070160006101000a81548173ffffffffffffffffffffffffffffffffffffffff021916908373ffffffffffffffffffffffffffffffffffffffff16021790555042600a60008473ffffffffffffffffffffffffffffffffffffffff1673ffffffffffffffffffffffffffffffffffffffff168152602001908152602001600020600801819055506003600a60008473ffffffffffffffffffffffffffffffffffffffff1673ffffffffffffffffffffffffffffffffffffffff16815260200190815260200160002060030181905550604051806060016040528060228152602001613e2560229139600a60008473ffffffffffffffffffffffffffffffffffffffff1673ffffffffffffffffffffffffffffffffffffffff16815260200190815260200160002060020190816122599190613869565b507fd389c9d6eec9dc6179e4cfc56c2b4a3ddab405290f85c5ca35457c25da541465600a60008473ffffffffffffffffffffffffffffffffffffffff1673ffffffffffffffffffffffffffffffffffffffff168152602001908152602001600020600201600a60008573ffffffffffffffffffffffffffffffffffffffff1673ffffffffffffffffffffffffffffffffffffffff16815260200190815260200160002060030154600a60008673ffffffffffffffffffffffffffffffffffffffff1673ffffffffffffffffffffffffffffffffffffffff16815260200190815260200160002060060154604051612352939291906139bf565b60405180910390a1604051806020016040528060008152509050919050565b6060600a60008373ffffffffffffffffffffffffffffffffffffffff1673ffffffffffffffffffffffffffffffffffffffff16815260200190815260200160002060000160009054906101000a900460ff166123cc57600080fd5b600b60003373ffffffffffffffffffffffffffffffffffffffff1673ffffffffffffffffffffffffffffffffffffffff16815260200190815260200160002060009054906101000a900460ff1661242257600080fd5b6001600a60008473ffffffffffffffffffffffffffffffffffffffff1673ffffffffffffffffffffffffffffffffffffffff168152602001908152602001600020600301540361247157600080fd5b33600a60008473ffffffffffffffffffffffffffffffffffffffff1673ffffffffffffffffffffffffffffffffffffffff16815260200190815260200160002060070160006101000a81548173ffffffffffffffffffffffffffffffffffffffff021916908373ffffffffffffffffffffffffffffffffffffffff16021790555042600a60008473ffffffffffffffffffffffffffffffffffffffff1673ffffffffffffffffffffffffffffffffffffffff168152602001908152602001600020600801819055506004600a60008473ffffffffffffffffffffffffffffffffffffffff1673ffffffffffffffffffffffffffffffffffffffff16815260200190815260200160002060030181905550604051806060016040528060228152602001613e0360229139600a60008473ffffffffffffffffffffffffffffffffffffffff1673ffffffffffffffffffffffffffffffffffffffff16815260200190815260200160002060020190816125e89190613869565b507f291023100cfc44fba59b279273f751e0fa64289217179d5c9835fc07ab5b1e4f600a60008473ffffffffffffffffffffffffffffffffffffffff1673ffffffffffffffffffffffffffffffffffffffff168152602001908152602001600020600201600a60008573ffffffffffffffffffffffffffffffffffffffff1673ffffffffffffffffffffffffffffffffffffffff16815260200190815260200160002060030154600a60008673ffffffffffffffffffffffffffffffffffffffff1673ffffffffffffffffffffffffffffffffffffffff168152602001908152602001600020600601546040516126e1939291906139bf565b60405180910390a1604051806020016040528060008152509050919050565b60603373ffffffffffffffffffffffffffffffffffffffff1660008054906101000a900473ffffffffffffffffffffffffffffffffffffffff1673ffffffffffffffffffffffffffffffffffffffff161461275a57600080fd5b600c60008373ffffffffffffffffffffffffffffffffffffffff1673ffffffffffffffffffffffffffffffffffffffff16815260200190815260200160002060009054906101000a900460ff1615612805576000600c60008473ffffffffffffffffffffffffffffffffffffffff1673ffffffffffffffffffffffffffffffffffffffff16815260200190815260200160002060006101000a81548160ff0219169083151502179055505b7fab14abf9ce720d4dfa04591da5de1ead53e0c4fdadfca225baaea81626567d4d8242604051612836929190613cfb565b60405180910390a16040518060400160405280601481526020017f4120646f63746f722069732072656d6f7665642e0000000000000000000000008152509050919050565b60603373ffffffffffffffffffffffffffffffffffffffff1660008054906101000a900473ffffffffffffffffffffffffffffffffffffffff1673ffffffffffffffffffffffffffffffffffffffff16146128d557600080fd5b600b60008373ffffffffffffffffffffffffffffffffffffffff1673ffffffffffffffffffffffffffffffffffffffff16815260200190815260200160002060009054906101000a900460ff1661297f576001600b60008473ffffffffffffffffffffffffffffffffffffffff1673ffffffffffffffffffffffffffffffffffffffff16815260200190815260200160002060006101000a81548160ff0219169083151502179055505b7f51ab0ad16f4f10b093a4b9bc75d760dc953842c743d54ae9faa9b5aae40659aa82426040516129b0929190613d83565b60405180910390a16040518060400160405280601281526020017f4120646f63746f722069732061646465642e00000000000000000000000000008152509050919050565b6060600a60008373ffffffffffffffffffffffffffffffffffffffff1673ffffffffffffffffffffffffffffffffffffffff16815260200190815260200160002060000160009054906101000a900460ff16612a5057600080fd5b600b60003373ffffffffffffffffffffffffffffffffffffffff1673ffffffffffffffffffffffffffffffffffffffff16815260200190815260200160002060009054906101000a900460ff1680612af15750600c60003373ffffffffffffffffffffffffffffffffffffffff1673ffffffffffffffffffffffffffffffffffffffff16815260200190815260200160002060009054906101000a900460ff165b612b30576040517f08c379a0000000000000000000000000000000000000000000000000000000008152600401612b279061369d565b60405180910390fd5b6001600a60008473ffffffffffffffffffffffffffffffffffffffff1673ffffffffffffffffffffffffffffffffffffffff1681526020019081526020016000206003015403612b7f57600080fd5b33600a60008473ffffffffffffffffffffffffffffffffffffffff1673ffffffffffffffffffffffffffffffffffffffff16815260200190815260200160002060070160006101000a81548173ffffffffffffffffffffffffffffffffffffffff021916908373ffffffffffffffffffffffffffffffffffffffff16021790555042600a60008473ffffffffffffffffffffffffffffffffffffffff1673ffffffffffffffffffffffffffffffffffffffff168152602001908152602001600020600801819055506005600a60008473ffffffffffffffffffffffffffffffffffffffff1673ffffffffffffffffffffffffffffffffffffffff16815260200190815260200160002060030181905550604051806060016040528060218152602001613dc060219139600a60008473ffffffffffffffffffffffffffffffffffffffff1673ffffffffffffffffffffffffffffffffffffffff1681526020019081526020016000206002019081612cf69190613869565b507f49b37b6c2e1da17dbf397324fe77f392778404db069d7652d87feb8e0be2bb1d600a60008473ffffffffffffffffffffffffffffffffffffffff1673ffffffffffffffffffffffffffffffffffffffff168152602001908152602001600020600201600a60008573ffffffffffffffffffffffffffffffffffffffff1673ffffffffffffffffffffffffffffffffffffffff16815260200190815260200160002060030154600a60008673ffffffffffffffffffffffffffffffffffffffff1673ffffffffffffffffffffffffffffffffffffffff16815260200190815260200160002060060154604051612def939291906139bf565b60405180910390a1604051806020016040528060008152509050919050565b606060011515600a60008473ffffffffffffffffffffffffffffffffffffffff1673ffffffffffffffffffffffffffffffffffffffff16815260200190815260200160002060000160009054906101000a900460ff16151514612e7057600080fd5b3373ffffffffffffffffffffffffffffffffffffffff16600a60008473ffffffffffffffffffffffffffffffffffffffff1673ffffffffffffffffffffffffffffffffffffffff16815260200190815260200160002060050160009054906101000a900473ffffffffffffffffffffffffffffffffffffffff1673ffffffffffffffffffffffffffffffffffffffff1614612f0a57600080fd5b6001600a60008473ffffffffffffffffffffffffffffffffffffffff1673ffffffffffffffffffffffffffffffffffffffff1681526020019081526020016000206003015403612f5957600080fd5b42600a60008473ffffffffffffffffffffffffffffffffffffffff1673ffffffffffffffffffffffffffffffffffffffff168152602001908152602001600020600601819055506004600a60008473ffffffffffffffffffffffffffffffffffffffff1673ffffffffffffffffffffffffffffffffffffffff168152602001908152602001600020600301819055506040518060400160405280601d81526020017f5265636f7264206973207072696e7465642062792070617469656e742e000000815250600a60008473ffffffffffffffffffffffffffffffffffffffff1673ffffffffffffffffffffffffffffffffffffffff168152602001908152602001600020600201908161306c9190613869565b507fddaa844cc6ae769766c27824c8e5c94b60683cee90d23f0a99f33b2b243a1fde600a60008473ffffffffffffffffffffffffffffffffffffffff1673ffffffffffffffffffffffffffffffffffffffff168152602001908152602001600020600201600a60008573ffffffffffffffffffffffffffffffffffffffff1673ffffffffffffffffffffffffffffffffffffffff16815260200190815260200160002060030154600a60008673ffffffffffffffffffffffffffffffffffffffff1673ffffffffffffffffffffffffffffffffffffffff16815260200190815260200160002060060154604051613165939291906139bf565b60405180910390a1604051806020016040528060008152509050919050565b6000604051905090565b600080fd5b600080fd5b600073ffffffffffffffffffffffffffffffffffffffff82169050919050565b60006131c382613198565b9050919050565b6131d3816131b8565b81146131de57600080fd5b50565b6000813590506131f0816131ca565b92915050565b60006020828403121561320c5761320b61318e565b5b600061321a848285016131e1565b91505092915050565b600081519050919050565b600082825260208201905092915050565b60005b8381101561325d578082015181840152602081019050613242565b60008484015250505050565b6000601f19601f8301169050919050565b600061328582613223565b61328f818561322e565b935061329f81856020860161323f565b6132a881613269565b840191505092915050565b600060208201905081810360008301526132cd818461327a565b905092915050565b60008115159050919050565b6132ea816132d5565b82525050565b6000819050919050565b613303816132f0565b82525050565b613312816131b8565b82525050565b60006101608201905061332e600083018e6132e1565b61333b602083018d6132fa565b818103604083015261334d818c61327a565b905061335c606083018b6132fa565b818103608083015261336e818a61327a565b905061337d60a0830189613309565b61338a60c08301886132fa565b61339760e0830187613309565b6133a56101008301866132fa565b6133b3610120830185613309565b6133c16101408301846132fa565b9c9b505050505050505050505050565b600080fd5b600080fd5b7f4e487b7100000000000000000000000000000000000000000000000000000000600052604160045260246000fd5b61341382613269565b810181811067ffffffffffffffff82111715613432576134316133db565b5b80604052505050565b6000613445613184565b9050613451828261340a565b919050565b600067ffffffffffffffff821115613471576134706133db565b5b61347a82613269565b9050602081019050919050565b82818337600083830152505050565b60006134a96134a484613456565b61343b565b9050828152602081018484840111156134c5576134c46133d6565b5b6134d0848285613487565b509392505050565b600082601f8301126134ed576134ec6133d1565b5b81356134fd848260208601613496565b91505092915050565b6000806040838503121561351d5761351c61318e565b5b600061352b858286016131e1565b925050602083013567ffffffffffffffff81111561354c5761354b613193565b5b613558858286016134d8565b9150509250929050565b600060208201905061357760008301846132e1565b92915050565b613586816132f0565b811461359157600080fd5b50565b6000813590506135a38161357d565b92915050565b6000602082840312156135bf576135be61318e565b5b60006135cd84828501613594565b91505092915050565b60006020820190506135eb6000830184613309565b92915050565b7f4e487b7100000000000000000000000000000000000000000000000000000000600052602260045260246000fd5b6000600282049050600182168061363857607f821691505b60208210810361364b5761364a6135f1565b5b50919050565b7f4e6f7420776f726b696e67000000000000000000000000000000000000000000600082015250565b6000613687600b8361322e565b915061369282613651565b602082019050919050565b600060208201905081810360008301526136b68161367a565b9050919050565b60008190508160005260206000209050919050565b60006020601f8301049050919050565b600082821b905092915050565b60006008830261371f7fffffffffffffffffffffffffffffffffffffffffffffffffffffffffffffffff826136e2565b61372986836136e2565b95508019841693508086168417925050509392505050565b6000819050919050565b600061376661376161375c846132f0565b613741565b6132f0565b9050919050565b6000819050919050565b6137808361374b565b61379461378c8261376d565b8484546136ef565b825550505050565b600090565b6137a961379c565b6137b4818484613777565b505050565b5b818110156137d8576137cd6000826137a1565b6001810190506137ba565b5050565b601f82111561381d576137ee816136bd565b6137f7846136d2565b81016020851015613806578190505b61381a613812856136d2565b8301826137b9565b50505b505050565b600082821c905092915050565b600061384060001984600802613822565b1980831691505092915050565b6000613859838361382f565b9150826002028217905092915050565b61387282613223565b67ffffffffffffffff81111561388b5761388a6133db565b5b6138958254613620565b6138a08282856137dc565b600060209050601f8311600181146138d357600084156138c1578287015190505b6138cb858261384d565b865550613933565b601f1984166138e1866136bd565b60005b82811015613909578489015182556001820191506020850194506020810190506138e4565b868310156139265784890151613922601f89168261382f565b8355505b6001600288020188555050505b505050505050565b6000815461394881613620565b613952818661322e565b9450600182166000811461396d5760018114613983576139b6565b60ff1983168652811515602002860193506139b6565b61398c856136bd565b60005b838110156139ae5781548189015260018201915060208101905061398f565b808801955050505b50505092915050565b600060608201905081810360008301526139d9818661393b565b90506139e860208301856132fa565b6139f560408301846132fa565b949350505050565b7f4120646f63746f722069732072656d6f7665642e000000000000000000000000600082015250565b6000613a3360148361322e565b9150613a3e826139fd565b602082019050919050565b60006060820190508181036000830152613a6281613a26565b9050613a716020830185613309565b613a7e60408301846132fa565b9392505050565b7f416e2061756469742069732061646465642e0000000000000000000000000000600082015250565b6000613abb60128361322e565b9150613ac682613a85565b602082019050919050565b60006060820190508181036000830152613aea81613aae565b9050613af96020830185613309565b613b0660408301846132fa565b9392505050565b60008160601b9050919050565b6000613b2582613b0d565b9050919050565b6000613b3782613b1a565b9050919050565b613b4f613b4a826131b8565b613b2c565b82525050565b6000819050919050565b613b70613b6b826132f0565b613b55565b82525050565b6000613b828285613b3e565b601482019150613b928284613b5f565b6020820191508190509392505050565b600081519050919050565b600081905092915050565b6000613bc382613ba2565b613bcd8185613bad565b9350613bdd81856020860161323f565b80840191505092915050565b6000613bf58284613bb8565b915081905092915050565b6000819050919050565b613c1381613c00565b8114613c1e57600080fd5b50565b600081519050613c3081613c0a565b92915050565b600060208284031215613c4c57613c4b61318e565b5b6000613c5a84828501613c21565b91505092915050565b6000608082019050613c786000830187613309565b8181036020830152613c8a818661393b565b9050613c9960408301856132fa565b613ca660608301846132fa565b95945050505050565b7f416e2061756469742069732072656d6f7665642e000000000000000000000000600082015250565b6000613ce560148361322e565b9150613cf082613caf565b602082019050919050565b60006060820190508181036000830152613d1481613cd8565b9050613d236020830185613309565b613d3060408301846132fa565b9392505050565b7f4120646f63746f722069732061646465642e0000000000000000000000000000600082015250565b6000613d6d60128361322e565b9150613d7882613d37565b602082019050919050565b60006060820190508181036000830152613d9c81613d60565b9050613dab6020830185613309565b613db860408301846132fa565b939250505056fe5265636f726420697320636f7069656420627920646f63746f722f61756469742e5265636f7264206973207570646174656420627920646f63746f722f61756469742e5265636f7264206973207072696e74656420627920646f63746f722f61756469742e5265636f7264206973207175657269656420627920646f63746f722f61756469742e5265636f72642069732064656c6574656420627920646f63746f722f61756469742ea2646970667358221220af541ca756a94c97d1b3e9e6e741501fe670438b81dc12cb7d00cb406b1faf7864736f6c63430008120033",
					"opcodes": "PUSH1 0x80 PUSH1 0x40 MSTORE CALLVALUE DUP1 ISZERO PUSH3 0x11 JUMPI PUSH1 0x0 DUP1 REVERT JUMPDEST POP PUSH1 0x40 MLOAD PUSH3 0x4691 CODESIZE SUB DUP1 PUSH3 0x4691 DUP4 CODECOPY DUP2 DUP2 ADD PUSH1 0x40 MSTORE DUP2 ADD SWAP1 PUSH3 0x37 SWAP2 SWAP1 PUSH3 0x2BB JUMP JUMPDEST CALLER PUSH1 0x0 DUP1 PUSH2 0x100 EXP DUP2 SLOAD DUP2 PUSH20 0xFFFFFFFFFFFFFFFFFFFFFFFFFFFFFFFFFFFFFFFF MUL NOT AND SWAP1 DUP4 PUSH20 0xFFFFFFFFFFFFFFFFFFFFFFFFFFFFFFFFFFFFFFFF AND MUL OR SWAP1 SSTORE POP DUP9 PUSH1 0x1 SWAP1 DUP2 PUSH3 0x88 SWAP2 SWAP1 PUSH3 0x6FC JUMP JUMPDEST POP DUP8 PUSH1 0x2 SWAP1 DUP2 PUSH3 0x9A SWAP2 SWAP1 PUSH3 0x6FC JUMP JUMPDEST POP DUP7 PUSH1 0x3 SWAP1 DUP2 PUSH3 0xAC SWAP2 SWAP1 PUSH3 0x6FC JUMP JUMPDEST POP DUP6 PUSH1 0x4 SWAP1 DUP2 PUSH3 0xBE SWAP2 SWAP1 PUSH3 0x6FC JUMP JUMPDEST POP DUP5 PUSH1 0x5 SWAP1 DUP2 PUSH3 0xD0 SWAP2 SWAP1 PUSH3 0x6FC JUMP JUMPDEST POP DUP4 PUSH1 0x6 SWAP1 DUP2 PUSH3 0xE2 SWAP2 SWAP1 PUSH3 0x6FC JUMP JUMPDEST POP DUP3 PUSH1 0x7 SWAP1 DUP2 PUSH3 0xF4 SWAP2 SWAP1 PUSH3 0x6FC JUMP JUMPDEST POP DUP2 PUSH1 0x8 SWAP1 DUP2 PUSH3 0x106 SWAP2 SWAP1 PUSH3 0x6FC JUMP JUMPDEST POP DUP1 PUSH1 0x9 SWAP1 DUP2 PUSH3 0x118 SWAP2 SWAP1 PUSH3 0x6FC JUMP JUMPDEST POP POP POP POP POP POP POP POP POP POP PUSH3 0x7E3 JUMP JUMPDEST PUSH1 0x0 PUSH1 0x40 MLOAD SWAP1 POP SWAP1 JUMP JUMPDEST PUSH1 0x0 DUP1 REVERT JUMPDEST PUSH1 0x0 DUP1 REVERT JUMPDEST PUSH1 0x0 DUP1 REVERT JUMPDEST PUSH1 0x0 DUP1 REVERT JUMPDEST PUSH1 0x0 PUSH1 0x1F NOT PUSH1 0x1F DUP4 ADD AND SWAP1 POP SWAP2 SWAP1 POP JUMP JUMPDEST PUSH32 0x4E487B7100000000000000000000000000000000000000000000000000000000 PUSH1 0x0 MSTORE PUSH1 0x41 PUSH1 0x4 MSTORE PUSH1 0x24 PUSH1 0x0 REVERT JUMPDEST PUSH3 0x191 DUP3 PUSH3 0x146 JUMP JUMPDEST DUP2 ADD DUP2 DUP2 LT PUSH8 0xFFFFFFFFFFFFFFFF DUP3 GT OR ISZERO PUSH3 0x1B3 JUMPI PUSH3 0x1B2 PUSH3 0x157 JUMP JUMPDEST JUMPDEST DUP1 PUSH1 0x40 MSTORE POP POP POP JUMP JUMPDEST PUSH1 0x0 PUSH3 0x1C8 PUSH3 0x128 JUMP JUMPDEST SWAP1 POP PUSH3 0x1D6 DUP3 DUP3 PUSH3 0x186 JUMP JUMPDEST SWAP2 SWAP1 POP JUMP JUMPDEST PUSH1 0x0 PUSH8 0xFFFFFFFFFFFFFFFF DUP3 GT ISZERO PUSH3 0x1F9 JUMPI PUSH3 0x1F8 PUSH3 0x157 JUMP JUMPDEST JUMPDEST PUSH3 0x204 DUP3 PUSH3 0x146 JUMP JUMPDEST SWAP1 POP PUSH1 0x20 DUP2 ADD SWAP1 POP SWAP2 SWAP1 POP JUMP JUMPDEST PUSH1 0x0 JUMPDEST DUP4 DUP2 LT ISZERO PUSH3 0x231 JUMPI DUP1 DUP3 ADD MLOAD DUP2 DUP5 ADD MSTORE PUSH1 0x20 DUP2 ADD SWAP1 POP PUSH3 0x214 JUMP JUMPDEST PUSH1 0x0 DUP5 DUP5 ADD MSTORE POP POP POP POP JUMP JUMPDEST PUSH1 0x0 PUSH3 0x254 PUSH3 0x24E DUP5 PUSH3 0x1DB JUMP JUMPDEST PUSH3 0x1BC JUMP JUMPDEST SWAP1 POP DUP3 DUP2 MSTORE PUSH1 0x20 DUP2 ADD DUP5 DUP5 DUP5 ADD GT ISZERO PUSH3 0x273 JUMPI PUSH3 0x272 PUSH3 0x141 JUMP JUMPDEST JUMPDEST PUSH3 0x280 DUP5 DUP3 DUP6 PUSH3 0x211 JUMP JUMPDEST POP SWAP4 SWAP3 POP POP POP JUMP JUMPDEST PUSH1 0x0 DUP3 PUSH1 0x1F DUP4 ADD SLT PUSH3 0x2A0 JUMPI PUSH3 0x29F PUSH3 0x13C JUMP JUMPDEST JUMPDEST DUP2 MLOAD PUSH3 0x2B2 DUP5 DUP3 PUSH1 0x20 DUP7 ADD PUSH3 0x23D JUMP JUMPDEST SWAP2 POP POP SWAP3 SWAP2 POP POP JUMP JUMPDEST PUSH1 0x0 DUP1 PUSH1 0x0 DUP1 PUSH1 0x0 DUP1 PUSH1 0x0 DUP1 PUSH1 0x0 PUSH2 0x120 DUP11 DUP13 SUB SLT ISZERO PUSH3 0x2E1 JUMPI PUSH3 0x2E0 PUSH3 0x132 JUMP JUMPDEST JUMPDEST PUSH1 0x0 DUP11 ADD MLOAD PUSH8 0xFFFFFFFFFFFFFFFF DUP2 GT ISZERO PUSH3 0x302 JUMPI PUSH3 0x301 PUSH3 0x137 JUMP JUMPDEST JUMPDEST PUSH3 0x310 DUP13 DUP3 DUP14 ADD PUSH3 0x288 JUMP JUMPDEST SWAP10 POP POP PUSH1 0x20 DUP11 ADD MLOAD PUSH8 0xFFFFFFFFFFFFFFFF DUP2 GT ISZERO PUSH3 0x334 JUMPI PUSH3 0x333 PUSH3 0x137 JUMP JUMPDEST JUMPDEST PUSH3 0x342 DUP13 DUP3 DUP14 ADD PUSH3 0x288 JUMP JUMPDEST SWAP9 POP POP PUSH1 0x40 DUP11 ADD MLOAD PUSH8 0xFFFFFFFFFFFFFFFF DUP2 GT ISZERO PUSH3 0x366 JUMPI PUSH3 0x365 PUSH3 0x137 JUMP JUMPDEST JUMPDEST PUSH3 0x374 DUP13 DUP3 DUP14 ADD PUSH3 0x288 JUMP JUMPDEST SWAP8 POP POP PUSH1 0x60 DUP11 ADD MLOAD PUSH8 0xFFFFFFFFFFFFFFFF DUP2 GT ISZERO PUSH3 0x398 JUMPI PUSH3 0x397 PUSH3 0x137 JUMP JUMPDEST JUMPDEST PUSH3 0x3A6 DUP13 DUP3 DUP14 ADD PUSH3 0x288 JUMP JUMPDEST SWAP7 POP POP PUSH1 0x80 DUP11 ADD MLOAD PUSH8 0xFFFFFFFFFFFFFFFF DUP2 GT ISZERO PUSH3 0x3CA JUMPI PUSH3 0x3C9 PUSH3 0x137 JUMP JUMPDEST JUMPDEST PUSH3 0x3D8 DUP13 DUP3 DUP14 ADD PUSH3 0x288 JUMP JUMPDEST SWAP6 POP POP PUSH1 0xA0 DUP11 ADD MLOAD PUSH8 0xFFFFFFFFFFFFFFFF DUP2 GT ISZERO PUSH3 0x3FC JUMPI PUSH3 0x3FB PUSH3 0x137 JUMP JUMPDEST JUMPDEST PUSH3 0x40A DUP13 DUP3 DUP14 ADD PUSH3 0x288 JUMP JUMPDEST SWAP5 POP POP PUSH1 0xC0 DUP11 ADD MLOAD PUSH8 0xFFFFFFFFFFFFFFFF DUP2 GT ISZERO PUSH3 0x42E JUMPI PUSH3 0x42D PUSH3 0x137 JUMP JUMPDEST JUMPDEST PUSH3 0x43C DUP13 DUP3 DUP14 ADD PUSH3 0x288 JUMP JUMPDEST SWAP4 POP POP PUSH1 0xE0 DUP11 ADD MLOAD PUSH8 0xFFFFFFFFFFFFFFFF DUP2 GT ISZERO PUSH3 0x460 JUMPI PUSH3 0x45F PUSH3 0x137 JUMP JUMPDEST JUMPDEST PUSH3 0x46E DUP13 DUP3 DUP14 ADD PUSH3 0x288 JUMP JUMPDEST SWAP3 POP POP PUSH2 0x100 DUP11 ADD MLOAD PUSH8 0xFFFFFFFFFFFFFFFF DUP2 GT ISZERO PUSH3 0x493 JUMPI PUSH3 0x492 PUSH3 0x137 JUMP JUMPDEST JUMPDEST PUSH3 0x4A1 DUP13 DUP3 DUP14 ADD PUSH3 0x288 JUMP JUMPDEST SWAP2 POP POP SWAP3 SWAP6 SWAP9 POP SWAP3 SWAP6 SWAP9 POP SWAP3 SWAP6 SWAP9 JUMP JUMPDEST PUSH1 0x0 DUP2 MLOAD SWAP1 POP SWAP2 SWAP1 POP JUMP JUMPDEST PUSH32 0x4E487B7100000000000000000000000000000000000000000000000000000000 PUSH1 0x0 MSTORE PUSH1 0x22 PUSH1 0x4 MSTORE PUSH1 0x24 PUSH1 0x0 REVERT JUMPDEST PUSH1 0x0 PUSH1 0x2 DUP3 DIV SWAP1 POP PUSH1 0x1 DUP3 AND DUP1 PUSH3 0x504 JUMPI PUSH1 0x7F DUP3 AND SWAP2 POP JUMPDEST PUSH1 0x20 DUP3 LT DUP2 SUB PUSH3 0x51A JUMPI PUSH3 0x519 PUSH3 0x4BC JUMP JUMPDEST JUMPDEST POP SWAP2 SWAP1 POP JUMP JUMPDEST PUSH1 0x0 DUP2 SWAP1 POP DUP2 PUSH1 0x0 MSTORE PUSH1 0x20 PUSH1 0x0 KECCAK256 SWAP1 POP SWAP2 SWAP1 POP JUMP JUMPDEST PUSH1 0x0 PUSH1 0x20 PUSH1 0x1F DUP4 ADD DIV SWAP1 POP SWAP2 SWAP1 POP JUMP JUMPDEST PUSH1 0x0 DUP3 DUP3 SHL SWAP1 POP SWAP3 SWAP2 POP POP JUMP JUMPDEST PUSH1 0x0 PUSH1 0x8 DUP4 MUL PUSH3 0x584 PUSH32 0xFFFFFFFFFFFFFFFFFFFFFFFFFFFFFFFFFFFFFFFFFFFFFFFFFFFFFFFFFFFFFFFF DUP3 PUSH3 0x545 JUMP JUMPDEST PUSH3 0x590 DUP7 DUP4 PUSH3 0x545 JUMP JUMPDEST SWAP6 POP DUP1 NOT DUP5 AND SWAP4 POP DUP1 DUP7 AND DUP5 OR SWAP3 POP POP POP SWAP4 SWAP3 POP POP POP JUMP JUMPDEST PUSH1 0x0 DUP2 SWAP1 POP SWAP2 SWAP1 POP JUMP JUMPDEST PUSH1 0x0 DUP2 SWAP1 POP SWAP2 SWAP1 POP JUMP JUMPDEST PUSH1 0x0 PUSH3 0x5DD PUSH3 0x5D7 PUSH3 0x5D1 DUP5 PUSH3 0x5A8 JUMP JUMPDEST PUSH3 0x5B2 JUMP JUMPDEST PUSH3 0x5A8 JUMP JUMPDEST SWAP1 POP SWAP2 SWAP1 POP JUMP JUMPDEST PUSH1 0x0 DUP2 SWAP1 POP SWAP2 SWAP1 POP JUMP JUMPDEST PUSH3 0x5F9 DUP4 PUSH3 0x5BC JUMP JUMPDEST PUSH3 0x611 PUSH3 0x608 DUP3 PUSH3 0x5E4 JUMP JUMPDEST DUP5 DUP5 SLOAD PUSH3 0x552 JUMP JUMPDEST DUP3 SSTORE POP POP POP POP JUMP JUMPDEST PUSH1 0x0 SWAP1 JUMP JUMPDEST PUSH3 0x628 PUSH3 0x619 JUMP JUMPDEST PUSH3 0x635 DUP2 DUP5 DUP5 PUSH3 0x5EE JUMP JUMPDEST POP POP POP JUMP JUMPDEST JUMPDEST DUP2 DUP2 LT ISZERO PUSH3 0x65D JUMPI PUSH3 0x651 PUSH1 0x0 DUP3 PUSH3 0x61E JUMP JUMPDEST PUSH1 0x1 DUP2 ADD SWAP1 POP PUSH3 0x63B JUMP JUMPDEST POP POP JUMP JUMPDEST PUSH1 0x1F DUP3 GT ISZERO PUSH3 0x6AC JUMPI PUSH3 0x676 DUP2 PUSH3 0x520 JUMP JUMPDEST PUSH3 0x681 DUP5 PUSH3 0x535 JUMP JUMPDEST DUP2 ADD PUSH1 0x20 DUP6 LT ISZERO PUSH3 0x691 JUMPI DUP2 SWAP1 POP JUMPDEST PUSH3 0x6A9 PUSH3 0x6A0 DUP6 PUSH3 0x535 JUMP JUMPDEST DUP4 ADD DUP3 PUSH3 0x63A JUMP JUMPDEST POP POP JUMPDEST POP POP POP JUMP JUMPDEST PUSH1 0x0 DUP3 DUP3 SHR SWAP1 POP SWAP3 SWAP2 POP POP JUMP JUMPDEST PUSH1 0x0 PUSH3 0x6D1 PUSH1 0x0 NOT DUP5 PUSH1 0x8 MUL PUSH3 0x6B1 JUMP JUMPDEST NOT DUP1 DUP4 AND SWAP2 POP POP SWAP3 SWAP2 POP POP JUMP JUMPDEST PUSH1 0x0 PUSH3 0x6EC DUP4 DUP4 PUSH3 0x6BE JUMP JUMPDEST SWAP2 POP DUP3 PUSH1 0x2 MUL DUP3 OR SWAP1 POP SWAP3 SWAP2 POP POP JUMP JUMPDEST PUSH3 0x707 DUP3 PUSH3 0x4B1 JUMP JUMPDEST PUSH8 0xFFFFFFFFFFFFFFFF DUP2 GT ISZERO PUSH3 0x723 JUMPI PUSH3 0x722 PUSH3 0x157 JUMP JUMPDEST JUMPDEST PUSH3 0x72F DUP3 SLOAD PUSH3 0x4EB JUMP JUMPDEST PUSH3 0x73C DUP3 DUP3 DUP6 PUSH3 0x661 JUMP JUMPDEST PUSH1 0x0 PUSH1 0x20 SWAP1 POP PUSH1 0x1F DUP4 GT PUSH1 0x1 DUP2 EQ PUSH3 0x774 JUMPI PUSH1 0x0 DUP5 ISZERO PUSH3 0x75F JUMPI DUP3 DUP8 ADD MLOAD SWAP1 POP JUMPDEST PUSH3 0x76B DUP6 DUP3 PUSH3 0x6DE JUMP JUMPDEST DUP7 SSTORE POP PUSH3 0x7DB JUMP JUMPDEST PUSH1 0x1F NOT DUP5 AND PUSH3 0x784 DUP7 PUSH3 0x520 JUMP JUMPDEST PUSH1 0x0 JUMPDEST DUP3 DUP2 LT ISZERO PUSH3 0x7AE JUMPI DUP5 DUP10 ADD MLOAD DUP3 SSTORE PUSH1 0x1 DUP3 ADD SWAP2 POP PUSH1 0x20 DUP6 ADD SWAP5 POP PUSH1 0x20 DUP2 ADD SWAP1 POP PUSH3 0x787 JUMP JUMPDEST DUP7 DUP4 LT ISZERO PUSH3 0x7CE JUMPI DUP5 DUP10 ADD MLOAD PUSH3 0x7CA PUSH1 0x1F DUP10 AND DUP3 PUSH3 0x6BE JUMP JUMPDEST DUP4 SSTORE POP JUMPDEST PUSH1 0x1 PUSH1 0x2 DUP9 MUL ADD DUP9 SSTORE POP POP POP JUMPDEST POP POP POP POP POP POP JUMP JUMPDEST PUSH2 0x3E9E DUP1 PUSH3 0x7F3 PUSH1 0x0 CODECOPY PUSH1 0x0 RETURN INVALID PUSH1 0x80 PUSH1 0x40 MSTORE CALLVALUE DUP1 ISZERO PUSH2 0x10 JUMPI PUSH1 0x0 DUP1 REVERT JUMPDEST POP PUSH1 0x4 CALLDATASIZE LT PUSH2 0x100 JUMPI PUSH1 0x0 CALLDATALOAD PUSH1 0xE0 SHR DUP1 PUSH4 0xB1649729 GT PUSH2 0x97 JUMPI DUP1 PUSH4 0xD60BD310 GT PUSH2 0x66 JUMPI DUP1 PUSH4 0xD60BD310 EQ PUSH2 0x34F JUMPI DUP1 PUSH4 0xDB1BF8D8 EQ PUSH2 0x37F JUMPI DUP1 PUSH4 0xE111265D EQ PUSH2 0x3AF JUMPI DUP1 PUSH4 0xF6C25BBD EQ PUSH2 0x3DF JUMPI PUSH2 0x100 JUMP JUMPDEST DUP1 PUSH4 0xB1649729 EQ PUSH2 0x28F JUMPI DUP1 PUSH4 0xB24BE0A1 EQ PUSH2 0x2BF JUMPI DUP1 PUSH4 0xB6E478E5 EQ PUSH2 0x2EF JUMPI DUP1 PUSH4 0xC73D6D9E EQ PUSH2 0x31F JUMPI PUSH2 0x100 JUMP JUMPDEST DUP1 PUSH4 0xA0DA0EA3 GT PUSH2 0xD3 JUMPI DUP1 PUSH4 0xA0DA0EA3 EQ PUSH2 0x1CF JUMPI DUP1 PUSH4 0xA7BF973C EQ PUSH2 0x1FF JUMPI DUP1 PUSH4 0xA9583C22 EQ PUSH2 0x22F JUMPI DUP1 PUSH4 0xAB7FCA1C EQ PUSH2 0x25F JUMPI PUSH2 0x100 JUMP JUMPDEST DUP1 PUSH4 0x389523D EQ PUSH2 0x105 JUMPI DUP1 PUSH4 0xCB16B71 EQ PUSH2 0x135 JUMPI DUP1 PUSH4 0x16161F02 EQ PUSH2 0x16F JUMPI DUP1 PUSH4 0x1FE8BB6A EQ PUSH2 0x19F JUMPI JUMPDEST PUSH1 0x0 DUP1 REVERT JUMPDEST PUSH2 0x11F PUSH1 0x4 DUP1 CALLDATASIZE SUB DUP2 ADD SWAP1 PUSH2 0x11A SWAP2 SWAP1 PUSH2 0x31F6 JUMP JUMPDEST PUSH2 0x40F JUMP JUMPDEST PUSH1 0x40 MLOAD PUSH2 0x12C SWAP2 SWAP1 PUSH2 0x32B3 JUMP JUMPDEST PUSH1 0x40 MLOAD DUP1 SWAP2 SUB SWAP1 RETURN JUMPDEST PUSH2 0x14F PUSH1 0x4 DUP1 CALLDATASIZE SUB DUP2 ADD SWAP1 PUSH2 0x14A SWAP2 SWAP1 PUSH2 0x31F6 JUMP JUMPDEST PUSH2 0xA5F JUMP JUMPDEST PUSH1 0x40 MLOAD PUSH2 0x166 SWAP12 SWAP11 SWAP10 SWAP9 SWAP8 SWAP7 SWAP6 SWAP5 SWAP4 SWAP3 SWAP2 SWAP1 PUSH2 0x3318 JUMP JUMPDEST PUSH1 0x40 MLOAD DUP1 SWAP2 SUB SWAP1 RETURN JUMPDEST PUSH2 0x189 PUSH1 0x4 DUP1 CALLDATASIZE SUB DUP2 ADD SWAP1 PUSH2 0x184 SWAP2 SWAP1 PUSH2 0x31F6 JUMP JUMPDEST PUSH2 0xC36 JUMP JUMPDEST PUSH1 0x40 MLOAD PUSH2 0x196 SWAP2 SWAP1 PUSH2 0x32B3 JUMP JUMPDEST PUSH1 0x40 MLOAD DUP1 SWAP2 SUB SWAP1 RETURN JUMPDEST PUSH2 0x1B9 PUSH1 0x4 DUP1 CALLDATASIZE SUB DUP2 ADD SWAP1 PUSH2 0x1B4 SWAP2 SWAP1 PUSH2 0x31F6 JUMP JUMPDEST PUSH2 0x1024 JUMP JUMPDEST PUSH1 0x40 MLOAD PUSH2 0x1C6 SWAP2 SWAP1 PUSH2 0x32B3 JUMP JUMPDEST PUSH1 0x40 MLOAD DUP1 SWAP2 SUB SWAP1 RETURN JUMPDEST PUSH2 0x1E9 PUSH1 0x4 DUP1 CALLDATASIZE SUB DUP2 ADD SWAP1 PUSH2 0x1E4 SWAP2 SWAP1 PUSH2 0x31F6 JUMP JUMPDEST PUSH2 0x119E JUMP JUMPDEST PUSH1 0x40 MLOAD PUSH2 0x1F6 SWAP2 SWAP1 PUSH2 0x32B3 JUMP JUMPDEST PUSH1 0x40 MLOAD DUP1 SWAP2 SUB SWAP1 RETURN JUMPDEST PUSH2 0x219 PUSH1 0x4 DUP1 CALLDATASIZE SUB DUP2 ADD SWAP1 PUSH2 0x214 SWAP2 SWAP1 PUSH2 0x3506 JUMP JUMPDEST PUSH2 0x1599 JUMP JUMPDEST PUSH1 0x40 MLOAD PUSH2 0x226 SWAP2 SWAP1 PUSH2 0x32B3 JUMP JUMPDEST PUSH1 0x40 MLOAD DUP1 SWAP2 SUB SWAP1 RETURN JUMPDEST PUSH2 0x249 PUSH1 0x4 DUP1 CALLDATASIZE SUB DUP2 ADD SWAP1 PUSH2 0x244 SWAP2 SWAP1 PUSH2 0x31F6 JUMP JUMPDEST PUSH2 0x1979 JUMP JUMPDEST PUSH1 0x40 MLOAD PUSH2 0x256 SWAP2 SWAP1 PUSH2 0x3562 JUMP JUMPDEST PUSH1 0x40 MLOAD DUP1 SWAP2 SUB SWAP1 RETURN JUMPDEST PUSH2 0x279 PUSH1 0x4 DUP1 CALLDATASIZE SUB DUP2 ADD SWAP1 PUSH2 0x274 SWAP2 SWAP1 PUSH2 0x31F6 JUMP JUMPDEST PUSH2 0x1999 JUMP JUMPDEST PUSH1 0x40 MLOAD PUSH2 0x286 SWAP2 SWAP1 PUSH2 0x3562 JUMP JUMPDEST PUSH1 0x40 MLOAD DUP1 SWAP2 SUB SWAP1 RETURN JUMPDEST PUSH2 0x2A9 PUSH1 0x4 DUP1 CALLDATASIZE SUB DUP2 ADD SWAP1 PUSH2 0x2A4 SWAP2 SWAP1 PUSH2 0x31F6 JUMP JUMPDEST PUSH2 0x19B9 JUMP JUMPDEST PUSH1 0x40 MLOAD PUSH2 0x2B6 SWAP2 SWAP1 PUSH2 0x32B3 JUMP JUMPDEST PUSH1 0x40 MLOAD DUP1 SWAP2 SUB SWAP1 RETURN JUMPDEST PUSH2 0x2D9 PUSH1 0x4 DUP1 CALLDATASIZE SUB DUP2 ADD SWAP1 PUSH2 0x2D4 SWAP2 SWAP1 PUSH2 0x35A9 JUMP JUMPDEST PUSH2 0x1B33 JUMP JUMPDEST PUSH1 0x40 MLOAD PUSH2 0x2E6 SWAP2 SWAP1 PUSH2 0x35D6 JUMP JUMPDEST PUSH1 0x40 MLOAD DUP1 SWAP2 SUB SWAP1 RETURN JUMPDEST PUSH2 0x309 PUSH1 0x4 DUP1 CALLDATASIZE SUB DUP2 ADD SWAP1 PUSH2 0x304 SWAP2 SWAP1 PUSH2 0x31F6 JUMP JUMPDEST PUSH2 0x1FE2 JUMP JUMPDEST PUSH1 0x40 MLOAD PUSH2 0x316 SWAP2 SWAP1 PUSH2 0x32B3 JUMP JUMPDEST PUSH1 0x40 MLOAD DUP1 SWAP2 SUB SWAP1 RETURN JUMPDEST PUSH2 0x339 PUSH1 0x4 DUP1 CALLDATASIZE SUB DUP2 ADD SWAP1 PUSH2 0x334 SWAP2 SWAP1 PUSH2 0x31F6 JUMP JUMPDEST PUSH2 0x2371 JUMP JUMPDEST PUSH1 0x40 MLOAD PUSH2 0x346 SWAP2 SWAP1 PUSH2 0x32B3 JUMP JUMPDEST PUSH1 0x40 MLOAD DUP1 SWAP2 SUB SWAP1 RETURN JUMPDEST PUSH2 0x369 PUSH1 0x4 DUP1 CALLDATASIZE SUB DUP2 ADD SWAP1 PUSH2 0x364 SWAP2 SWAP1 PUSH2 0x31F6 JUMP JUMPDEST PUSH2 0x2700 JUMP JUMPDEST PUSH1 0x40 MLOAD PUSH2 0x376 SWAP2 SWAP1 PUSH2 0x32B3 JUMP JUMPDEST PUSH1 0x40 MLOAD DUP1 SWAP2 SUB SWAP1 RETURN JUMPDEST PUSH2 0x399 PUSH1 0x4 DUP1 CALLDATASIZE SUB DUP2 ADD SWAP1 PUSH2 0x394 SWAP2 SWAP1 PUSH2 0x31F6 JUMP JUMPDEST PUSH2 0x287B JUMP JUMPDEST PUSH1 0x40 MLOAD PUSH2 0x3A6 SWAP2 SWAP1 PUSH2 0x32B3 JUMP JUMPDEST PUSH1 0x40 MLOAD DUP1 SWAP2 SUB SWAP1 RETURN JUMPDEST PUSH2 0x3C9 PUSH1 0x4 DUP1 CALLDATASIZE SUB DUP2 ADD SWAP1 PUSH2 0x3C4 SWAP2 SWAP1 PUSH2 0x31F6 JUMP JUMPDEST PUSH2 0x29F5 JUMP JUMPDEST PUSH1 0x40 MLOAD PUSH2 0x3D6 SWAP2 SWAP1 PUSH2 0x32B3 JUMP JUMPDEST PUSH1 0x40 MLOAD DUP1 SWAP2 SUB SWAP1 RETURN JUMPDEST PUSH2 0x3F9 PUSH1 0x4 DUP1 CALLDATASIZE SUB DUP2 ADD SWAP1 PUSH2 0x3F4 SWAP2 SWAP1 PUSH2 0x31F6 JUMP JUMPDEST PUSH2 0x2E0E JUMP JUMPDEST PUSH1 0x40 MLOAD PUSH2 0x406 SWAP2 SWAP1 PUSH2 0x32B3 JUMP JUMPDEST PUSH1 0x40 MLOAD DUP1 SWAP2 SUB SWAP1 RETURN JUMPDEST PUSH1 0x60 PUSH1 0x1 ISZERO ISZERO PUSH1 0xA PUSH1 0x0 DUP5 PUSH20 0xFFFFFFFFFFFFFFFFFFFFFFFFFFFFFFFFFFFFFFFF AND PUSH20 0xFFFFFFFFFFFFFFFFFFFFFFFFFFFFFFFFFFFFFFFF AND DUP2 MSTORE PUSH1 0x20 ADD SWAP1 DUP2 MSTORE PUSH1 0x20 ADD PUSH1 0x0 KECCAK256 PUSH1 0x0 ADD PUSH1 0x0 SWAP1 SLOAD SWAP1 PUSH2 0x100 EXP SWAP1 DIV PUSH1 0xFF AND ISZERO ISZERO EQ PUSH2 0x471 JUMPI PUSH1 0x0 DUP1 REVERT JUMPDEST PUSH1 0x1 PUSH1 0xA PUSH1 0x0 DUP5 PUSH20 0xFFFFFFFFFFFFFFFFFFFFFFFFFFFFFFFFFFFFFFFF AND PUSH20 0xFFFFFFFFFFFFFFFFFFFFFFFFFFFFFFFFFFFFFFFF AND DUP2 MSTORE PUSH1 0x20 ADD SWAP1 DUP2 MSTORE PUSH1 0x20 ADD PUSH1 0x0 KECCAK256 PUSH1 0x3 ADD SLOAD SUB PUSH2 0x4C0 JUMPI PUSH1 0x0 DUP1 REVERT JUMPDEST CALLER PUSH20 0xFFFFFFFFFFFFFFFFFFFFFFFFFFFFFFFFFFFFFFFF AND PUSH1 0xA PUSH1 0x0 DUP5 PUSH20 0xFFFFFFFFFFFFFFFFFFFFFFFFFFFFFFFFFFFFFFFF AND PUSH20 0xFFFFFFFFFFFFFFFFFFFFFFFFFFFFFFFFFFFFFFFF AND DUP2 MSTORE PUSH1 0x20 ADD SWAP1 DUP2 MSTORE PUSH1 0x20 ADD PUSH1 0x0 KECCAK256 PUSH1 0x5 ADD PUSH1 0x0 SWAP1 SLOAD SWAP1 PUSH2 0x100 EXP SWAP1 DIV PUSH20 0xFFFFFFFFFFFFFFFFFFFFFFFFFFFFFFFFFFFFFFFF AND PUSH20 0xFFFFFFFFFFFFFFFFFFFFFFFFFFFFFFFFFFFFFFFF AND SUB PUSH2 0x6C1 JUMPI CALLER PUSH20 0xFFFFFFFFFFFFFFFFFFFFFFFFFFFFFFFFFFFFFFFF AND PUSH1 0xA PUSH1 0x0 DUP5 PUSH20 0xFFFFFFFFFFFFFFFFFFFFFFFFFFFFFFFFFFFFFFFF AND PUSH20 0xFFFFFFFFFFFFFFFFFFFFFFFFFFFFFFFFFFFFFFFF AND DUP2 MSTORE PUSH1 0x20 ADD SWAP1 DUP2 MSTORE PUSH1 0x20 ADD PUSH1 0x0 KECCAK256 PUSH1 0x5 ADD PUSH1 0x0 SWAP1 SLOAD SWAP1 PUSH2 0x100 EXP SWAP1 DIV PUSH20 0xFFFFFFFFFFFFFFFFFFFFFFFFFFFFFFFFFFFFFFFF AND PUSH20 0xFFFFFFFFFFFFFFFFFFFFFFFFFFFFFFFFFFFFFFFF AND EQ PUSH2 0x5EF JUMPI PUSH1 0x0 DUP1 REVERT JUMPDEST PUSH1 0xA PUSH1 0x0 DUP4 PUSH20 0xFFFFFFFFFFFFFFFFFFFFFFFFFFFFFFFFFFFFFFFF AND PUSH20 0xFFFFFFFFFFFFFFFFFFFFFFFFFFFFFFFFFFFFFFFF AND DUP2 MSTORE PUSH1 0x20 ADD SWAP1 DUP2 MSTORE PUSH1 0x20 ADD PUSH1 0x0 KECCAK256 PUSH1 0x4 ADD DUP1 SLOAD PUSH2 0x63C SWAP1 PUSH2 0x3620 JUMP JUMPDEST DUP1 PUSH1 0x1F ADD PUSH1 0x20 DUP1 SWAP2 DIV MUL PUSH1 0x20 ADD PUSH1 0x40 MLOAD SWAP1 DUP2 ADD PUSH1 0x40 MSTORE DUP1 SWAP3 SWAP2 SWAP1 DUP2 DUP2 MSTORE PUSH1 0x20 ADD DUP3 DUP1 SLOAD PUSH2 0x668 SWAP1 PUSH2 0x3620 JUMP JUMPDEST DUP1 ISZERO PUSH2 0x6B5 JUMPI DUP1 PUSH1 0x1F LT PUSH2 0x68A JUMPI PUSH2 0x100 DUP1 DUP4 SLOAD DIV MUL DUP4 MSTORE SWAP2 PUSH1 0x20 ADD SWAP2 PUSH2 0x6B5 JUMP JUMPDEST DUP3 ADD SWAP2 SWAP1 PUSH1 0x0 MSTORE PUSH1 0x20 PUSH1 0x0 KECCAK256 SWAP1 JUMPDEST DUP2 SLOAD DUP2 MSTORE SWAP1 PUSH1 0x1 ADD SWAP1 PUSH1 0x20 ADD DUP1 DUP4 GT PUSH2 0x698 JUMPI DUP3 SWAP1 SUB PUSH1 0x1F AND DUP3 ADD SWAP2 JUMPDEST POP POP POP POP POP SWAP1 POP PUSH2 0xA5A JUMP JUMPDEST PUSH1 0xB PUSH1 0x0 CALLER PUSH20 0xFFFFFFFFFFFFFFFFFFFFFFFFFFFFFFFFFFFFFFFF AND PUSH20 0xFFFFFFFFFFFFFFFFFFFFFFFFFFFFFFFFFFFFFFFF AND DUP2 MSTORE PUSH1 0x20 ADD SWAP1 DUP2 MSTORE PUSH1 0x20 ADD PUSH1 0x0 KECCAK256 PUSH1 0x0 SWAP1 SLOAD SWAP1 PUSH2 0x100 EXP SWAP1 DIV PUSH1 0xFF AND ISZERO PUSH2 0x871 JUMPI PUSH1 0xB PUSH1 0x0 CALLER PUSH20 0xFFFFFFFFFFFFFFFFFFFFFFFFFFFFFFFFFFFFFFFF AND PUSH20 0xFFFFFFFFFFFFFFFFFFFFFFFFFFFFFFFFFFFFFFFF AND DUP2 MSTORE PUSH1 0x20 ADD SWAP1 DUP2 MSTORE PUSH1 0x20 ADD PUSH1 0x0 KECCAK256 PUSH1 0x0 SWAP1 SLOAD SWAP1 PUSH2 0x100 EXP SWAP1 DIV PUSH1 0xFF AND PUSH2 0x79F JUMPI PUSH1 0x40 MLOAD PUSH32 0x8C379A000000000000000000000000000000000000000000000000000000000 DUP2 MSTORE PUSH1 0x4 ADD PUSH2 0x796 SWAP1 PUSH2 0x369D JUMP JUMPDEST PUSH1 0x40 MLOAD DUP1 SWAP2 SUB SWAP1 REVERT JUMPDEST PUSH1 0xA PUSH1 0x0 DUP4 PUSH20 0xFFFFFFFFFFFFFFFFFFFFFFFFFFFFFFFFFFFFFFFF AND PUSH20 0xFFFFFFFFFFFFFFFFFFFFFFFFFFFFFFFFFFFFFFFF AND DUP2 MSTORE PUSH1 0x20 ADD SWAP1 DUP2 MSTORE PUSH1 0x20 ADD PUSH1 0x0 KECCAK256 PUSH1 0x4 ADD DUP1 SLOAD PUSH2 0x7EC SWAP1 PUSH2 0x3620 JUMP JUMPDEST DUP1 PUSH1 0x1F ADD PUSH1 0x20 DUP1 SWAP2 DIV MUL PUSH1 0x20 ADD PUSH1 0x40 MLOAD SWAP1 DUP2 ADD PUSH1 0x40 MSTORE DUP1 SWAP3 SWAP2 SWAP1 DUP2 DUP2 MSTORE PUSH1 0x20 ADD DUP3 DUP1 SLOAD PUSH2 0x818 SWAP1 PUSH2 0x3620 JUMP JUMPDEST DUP1 ISZERO PUSH2 0x865 JUMPI DUP1 PUSH1 0x1F LT PUSH2 0x83A JUMPI PUSH2 0x100 DUP1 DUP4 SLOAD DIV MUL DUP4 MSTORE SWAP2 PUSH1 0x20 ADD SWAP2 PUSH2 0x865 JUMP JUMPDEST DUP3 ADD SWAP2 SWAP1 PUSH1 0x0 MSTORE PUSH1 0x20 PUSH1 0x0 KECCAK256 SWAP1 JUMPDEST DUP2 SLOAD DUP2 MSTORE SWAP1 PUSH1 0x1 ADD SWAP1 PUSH1 0x20 ADD DUP1 DUP4 GT PUSH2 0x848 JUMPI DUP3 SWAP1 SUB PUSH1 0x1F AND DUP3 ADD SWAP2 JUMPDEST POP POP POP POP POP SWAP1 POP PUSH2 0xA5A JUMP JUMPDEST PUSH1 0xC PUSH1 0x0 CALLER PUSH20 0xFFFFFFFFFFFFFFFFFFFFFFFFFFFFFFFFFFFFFFFF AND PUSH20 0xFFFFFFFFFFFFFFFFFFFFFFFFFFFFFFFFFFFFFFFF AND DUP2 MSTORE PUSH1 0x20 ADD SWAP1 DUP2 MSTORE PUSH1 0x20 ADD PUSH1 0x0 KECCAK256 PUSH1 0x0 SWAP1 SLOAD SWAP1 PUSH2 0x100 EXP SWAP1 DIV PUSH1 0xFF AND ISZERO PUSH2 0xA21 JUMPI PUSH1 0xC PUSH1 0x0 CALLER PUSH20 0xFFFFFFFFFFFFFFFFFFFFFFFFFFFFFFFFFFFFFFFF AND PUSH20 0xFFFFFFFFFFFFFFFFFFFFFFFFFFFFFFFFFFFFFFFF AND DUP2 MSTORE PUSH1 0x20 ADD SWAP1 DUP2 MSTORE PUSH1 0x20 ADD PUSH1 0x0 KECCAK256 PUSH1 0x0 SWAP1 SLOAD SWAP1 PUSH2 0x100 EXP SWAP1 DIV PUSH1 0xFF AND PUSH2 0x94F JUMPI PUSH1 0x40 MLOAD PUSH32 0x8C379A000000000000000000000000000000000000000000000000000000000 DUP2 MSTORE PUSH1 0x4 ADD PUSH2 0x946 SWAP1 PUSH2 0x369D JUMP JUMPDEST PUSH1 0x40 MLOAD DUP1 SWAP2 SUB SWAP1 REVERT JUMPDEST PUSH1 0xA PUSH1 0x0 DUP4 PUSH20 0xFFFFFFFFFFFFFFFFFFFFFFFFFFFFFFFFFFFFFFFF AND PUSH20 0xFFFFFFFFFFFFFFFFFFFFFFFFFFFFFFFFFFFFFFFF AND DUP2 MSTORE PUSH1 0x20 ADD SWAP1 DUP2 MSTORE PUSH1 0x20 ADD PUSH1 0x0 KECCAK256 PUSH1 0x4 ADD DUP1 SLOAD PUSH2 0x99C SWAP1 PUSH2 0x3620 JUMP JUMPDEST DUP1 PUSH1 0x1F ADD PUSH1 0x20 DUP1 SWAP2 DIV MUL PUSH1 0x20 ADD PUSH1 0x40 MLOAD SWAP1 DUP2 ADD PUSH1 0x40 MSTORE DUP1 SWAP3 SWAP2 SWAP1 DUP2 DUP2 MSTORE PUSH1 0x20 ADD DUP3 DUP1 SLOAD PUSH2 0x9C8 SWAP1 PUSH2 0x3620 JUMP JUMPDEST DUP1 ISZERO PUSH2 0xA15 JUMPI DUP1 PUSH1 0x1F LT PUSH2 0x9EA JUMPI PUSH2 0x100 DUP1 DUP4 SLOAD DIV MUL DUP4 MSTORE SWAP2 PUSH1 0x20 ADD SWAP2 PUSH2 0xA15 JUMP JUMPDEST DUP3 ADD SWAP2 SWAP1 PUSH1 0x0 MSTORE PUSH1 0x20 PUSH1 0x0 KECCAK256 SWAP1 JUMPDEST DUP2 SLOAD DUP2 MSTORE SWAP1 PUSH1 0x1 ADD SWAP1 PUSH1 0x20 ADD DUP1 DUP4 GT PUSH2 0x9F8 JUMPI DUP3 SWAP1 SUB PUSH1 0x1F AND DUP3 ADD SWAP2 JUMPDEST POP POP POP POP POP SWAP1 POP PUSH2 0xA5A JUMP JUMPDEST PUSH1 0x40 MLOAD DUP1 PUSH1 0x40 ADD PUSH1 0x40 MSTORE DUP1 PUSH1 0x1A DUP2 MSTORE PUSH1 0x20 ADD PUSH32 0x596F752068617665206E6F20617574686F72697A6174696F6E2E000000000000 DUP2 MSTORE POP SWAP1 POP JUMPDEST SWAP2 SWAP1 POP JUMP JUMPDEST PUSH1 0xA PUSH1 0x20 MSTORE DUP1 PUSH1 0x0 MSTORE PUSH1 0x40 PUSH1 0x0 KECCAK256 PUSH1 0x0 SWAP2 POP SWAP1 POP DUP1 PUSH1 0x0 ADD PUSH1 0x0 SWAP1 SLOAD SWAP1 PUSH2 0x100 EXP SWAP1 DIV PUSH1 0xFF AND SWAP1 DUP1 PUSH1 0x1 ADD SLOAD SWAP1 DUP1 PUSH1 0x2 ADD DUP1 SLOAD PUSH2 0xA9B SWAP1 PUSH2 0x3620 JUMP JUMPDEST DUP1 PUSH1 0x1F ADD PUSH1 0x20 DUP1 SWAP2 DIV MUL PUSH1 0x20 ADD PUSH1 0x40 MLOAD SWAP1 DUP2 ADD PUSH1 0x40 MSTORE DUP1 SWAP3 SWAP2 SWAP1 DUP2 DUP2 MSTORE PUSH1 0x20 ADD DUP3 DUP1 SLOAD PUSH2 0xAC7 SWAP1 PUSH2 0x3620 JUMP JUMPDEST DUP1 ISZERO PUSH2 0xB14 JUMPI DUP1 PUSH1 0x1F LT PUSH2 0xAE9 JUMPI PUSH2 0x100 DUP1 DUP4 SLOAD DIV MUL DUP4 MSTORE SWAP2 PUSH1 0x20 ADD SWAP2 PUSH2 0xB14 JUMP JUMPDEST DUP3 ADD SWAP2 SWAP1 PUSH1 0x0 MSTORE PUSH1 0x20 PUSH1 0x0 KECCAK256 SWAP1 JUMPDEST DUP2 SLOAD DUP2 MSTORE SWAP1 PUSH1 0x1 ADD SWAP1 PUSH1 0x20 ADD DUP1 DUP4 GT PUSH2 0xAF7 JUMPI DUP3 SWAP1 SUB PUSH1 0x1F AND DUP3 ADD SWAP2 JUMPDEST POP POP POP POP POP SWAP1 DUP1 PUSH1 0x3 ADD SLOAD SWAP1 DUP1 PUSH1 0x4 ADD DUP1 SLOAD PUSH2 0xB2F SWAP1 PUSH2 0x3620 JUMP JUMPDEST DUP1 PUSH1 0x1F ADD PUSH1 0x20 DUP1 SWAP2 DIV MUL PUSH1 0x20 ADD PUSH1 0x40 MLOAD SWAP1 DUP2 ADD PUSH1 0x40 MSTORE DUP1 SWAP3 SWAP2 SWAP1 DUP2 DUP2 MSTORE PUSH1 0x20 ADD DUP3 DUP1 SLOAD PUSH2 0xB5B SWAP1 PUSH2 0x3620 JUMP JUMPDEST DUP1 ISZERO PUSH2 0xBA8 JUMPI DUP1 PUSH1 0x1F LT PUSH2 0xB7D JUMPI PUSH2 0x100 DUP1 DUP4 SLOAD DIV MUL DUP4 MSTORE SWAP2 PUSH1 0x20 ADD SWAP2 PUSH2 0xBA8 JUMP JUMPDEST DUP3 ADD SWAP2 SWAP1 PUSH1 0x0 MSTORE PUSH1 0x20 PUSH1 0x0 KECCAK256 SWAP1 JUMPDEST DUP2 SLOAD DUP2 MSTORE SWAP1 PUSH1 0x1 ADD SWAP1 PUSH1 0x20 ADD DUP1 DUP4 GT PUSH2 0xB8B JUMPI DUP3 SWAP1 SUB PUSH1 0x1F AND DUP3 ADD SWAP2 JUMPDEST POP POP POP POP POP SWAP1 DUP1 PUSH1 0x5 ADD PUSH1 0x0 SWAP1 SLOAD SWAP1 PUSH2 0x100 EXP SWAP1 DIV PUSH20 0xFFFFFFFFFFFFFFFFFFFFFFFFFFFFFFFFFFFFFFFF AND SWAP1 DUP1 PUSH1 0x6 ADD SLOAD SWAP1 DUP1 PUSH1 0x7 ADD PUSH1 0x0 SWAP1 SLOAD SWAP1 PUSH2 0x100 EXP SWAP1 DIV PUSH20 0xFFFFFFFFFFFFFFFFFFFFFFFFFFFFFFFFFFFFFFFF AND SWAP1 DUP1 PUSH1 0x8 ADD SLOAD SWAP1 DUP1 PUSH1 0x9 ADD PUSH1 0x0 SWAP1 SLOAD SWAP1 PUSH2 0x100 EXP SWAP1 DIV PUSH20 0xFFFFFFFFFFFFFFFFFFFFFFFFFFFFFFFFFFFFFFFF AND SWAP1 DUP1 PUSH1 0xA ADD SLOAD SWAP1 POP DUP12 JUMP JUMPDEST PUSH1 0x60 PUSH1 0xA PUSH1 0x0 DUP4 PUSH20 0xFFFFFFFFFFFFFFFFFFFFFFFFFFFFFFFFFFFFFFFF AND PUSH20 0xFFFFFFFFFFFFFFFFFFFFFFFFFFFFFFFFFFFFFFFF AND DUP2 MSTORE PUSH1 0x20 ADD SWAP1 DUP2 MSTORE PUSH1 0x20 ADD PUSH1 0x0 KECCAK256 PUSH1 0x0 ADD PUSH1 0x0 SWAP1 SLOAD SWAP1 PUSH2 0x100 EXP SWAP1 DIV PUSH1 0xFF AND PUSH2 0xC91 JUMPI PUSH1 0x0 DUP1 REVERT JUMPDEST PUSH1 0xB PUSH1 0x0 CALLER PUSH20 0xFFFFFFFFFFFFFFFFFFFFFFFFFFFFFFFFFFFFFFFF AND PUSH20 0xFFFFFFFFFFFFFFFFFFFFFFFFFFFFFFFFFFFFFFFF AND DUP2 MSTORE PUSH1 0x20 ADD SWAP1 DUP2 MSTORE PUSH1 0x20 ADD PUSH1 0x0 KECCAK256 PUSH1 0x0 SWAP1 SLOAD SWAP1 PUSH2 0x100 EXP SWAP1 DIV PUSH1 0xFF AND PUSH2 0xCE7 JUMPI PUSH1 0x0 DUP1 REVERT JUMPDEST PUSH1 0x1 PUSH1 0xA PUSH1 0x0 DUP5 PUSH20 0xFFFFFFFFFFFFFFFFFFFFFFFFFFFFFFFFFFFFFFFF AND PUSH20 0xFFFFFFFFFFFFFFFFFFFFFFFFFFFFFFFFFFFFFFFF AND DUP2 MSTORE PUSH1 0x20 ADD SWAP1 DUP2 MSTORE PUSH1 0x20 ADD PUSH1 0x0 KECCAK256 PUSH1 0x3 ADD SLOAD SUB PUSH2 0xD36 JUMPI PUSH1 0x0 DUP1 REVERT JUMPDEST CALLER PUSH1 0xA PUSH1 0x0 DUP5 PUSH20 0xFFFFFFFFFFFFFFFFFFFFFFFFFFFFFFFFFFFFFFFF AND PUSH20 0xFFFFFFFFFFFFFFFFFFFFFFFFFFFFFFFFFFFFFFFF AND DUP2 MSTORE PUSH1 0x20 ADD SWAP1 DUP2 MSTORE PUSH1 0x20 ADD PUSH1 0x0 KECCAK256 PUSH1 0x7 ADD PUSH1 0x0 PUSH2 0x100 EXP DUP2 SLOAD DUP2 PUSH20 0xFFFFFFFFFFFFFFFFFFFFFFFFFFFFFFFFFFFFFFFF MUL NOT AND SWAP1 DUP4 PUSH20 0xFFFFFFFFFFFFFFFFFFFFFFFFFFFFFFFFFFFFFFFF AND MUL OR SWAP1 SSTORE POP TIMESTAMP PUSH1 0xA PUSH1 0x0 DUP5 PUSH20 0xFFFFFFFFFFFFFFFFFFFFFFFFFFFFFFFFFFFFFFFF AND PUSH20 0xFFFFFFFFFFFFFFFFFFFFFFFFFFFFFFFFFFFFFFFF AND DUP2 MSTORE PUSH1 0x20 ADD SWAP1 DUP2 MSTORE PUSH1 0x20 ADD PUSH1 0x0 KECCAK256 PUSH1 0x8 ADD DUP2 SWAP1 SSTORE POP PUSH1 0x40 MLOAD DUP1 PUSH1 0x20 ADD PUSH1 0x40 MSTORE DUP1 PUSH1 0x0 DUP2 MSTORE POP PUSH1 0xA PUSH1 0x0 DUP5 PUSH20 0xFFFFFFFFFFFFFFFFFFFFFFFFFFFFFFFFFFFFFFFF AND PUSH20 0xFFFFFFFFFFFFFFFFFFFFFFFFFFFFFFFFFFFFFFFF AND DUP2 MSTORE PUSH1 0x20 ADD SWAP1 DUP2 MSTORE PUSH1 0x20 ADD PUSH1 0x0 KECCAK256 PUSH1 0x4 ADD SWAP1 DUP2 PUSH2 0xE5C SWAP2 SWAP1 PUSH2 0x3869 JUMP JUMPDEST POP PUSH1 0x1 PUSH1 0xA PUSH1 0x0 DUP5 PUSH20 0xFFFFFFFFFFFFFFFFFFFFFFFFFFFFFFFFFFFFFFFF AND PUSH20 0xFFFFFFFFFFFFFFFFFFFFFFFFFFFFFFFFFFFFFFFF AND DUP2 MSTORE PUSH1 0x20 ADD SWAP1 DUP2 MSTORE PUSH1 0x20 ADD PUSH1 0x0 KECCAK256 PUSH1 0x3 ADD DUP2 SWAP1 SSTORE POP PUSH1 0x40 MLOAD DUP1 PUSH1 0x60 ADD PUSH1 0x40 MSTORE DUP1 PUSH1 0x22 DUP2 MSTORE PUSH1 0x20 ADD PUSH2 0x3E47 PUSH1 0x22 SWAP2 CODECOPY PUSH1 0xA PUSH1 0x0 DUP5 PUSH20 0xFFFFFFFFFFFFFFFFFFFFFFFFFFFFFFFFFFFFFFFF AND PUSH20 0xFFFFFFFFFFFFFFFFFFFFFFFFFFFFFFFFFFFFFFFF AND DUP2 MSTORE PUSH1 0x20 ADD SWAP1 DUP2 MSTORE PUSH1 0x20 ADD PUSH1 0x0 KECCAK256 PUSH1 0x2 ADD SWAP1 DUP2 PUSH2 0xF0C SWAP2 SWAP1 PUSH2 0x3869 JUMP JUMPDEST POP PUSH32 0x41E7AEF4A9A40592736811EFA52BAE55E6FD1CD88DB143DC78A6370B2AAC0960 PUSH1 0xA PUSH1 0x0 DUP5 PUSH20 0xFFFFFFFFFFFFFFFFFFFFFFFFFFFFFFFFFFFFFFFF AND PUSH20 0xFFFFFFFFFFFFFFFFFFFFFFFFFFFFFFFFFFFFFFFF AND DUP2 MSTORE PUSH1 0x20 ADD SWAP1 DUP2 MSTORE PUSH1 0x20 ADD PUSH1 0x0 KECCAK256 PUSH1 0x2 ADD PUSH1 0xA PUSH1 0x0 DUP6 PUSH20 0xFFFFFFFFFFFFFFFFFFFFFFFFFFFFFFFFFFFFFFFF AND PUSH20 0xFFFFFFFFFFFFFFFFFFFFFFFFFFFFFFFFFFFFFFFF AND DUP2 MSTORE PUSH1 0x20 ADD SWAP1 DUP2 MSTORE PUSH1 0x20 ADD PUSH1 0x0 KECCAK256 PUSH1 0x3 ADD SLOAD PUSH1 0xA PUSH1 0x0 DUP7 PUSH20 0xFFFFFFFFFFFFFFFFFFFFFFFFFFFFFFFFFFFFFFFF AND PUSH20 0xFFFFFFFFFFFFFFFFFFFFFFFFFFFFFFFFFFFFFFFF AND DUP2 MSTORE PUSH1 0x20 ADD SWAP1 DUP2 MSTORE PUSH1 0x20 ADD PUSH1 0x0 KECCAK256 PUSH1 0x6 ADD SLOAD PUSH1 0x40 MLOAD PUSH2 0x1005 SWAP4 SWAP3 SWAP2 SWAP1 PUSH2 0x39BF JUMP JUMPDEST PUSH1 0x40 MLOAD DUP1 SWAP2 SUB SWAP1 LOG1 PUSH1 0x40 MLOAD DUP1 PUSH1 0x20 ADD PUSH1 0x40 MSTORE DUP1 PUSH1 0x0 DUP2 MSTORE POP SWAP1 POP SWAP2 SWAP1 POP JUMP JUMPDEST PUSH1 0x60 CALLER PUSH20 0xFFFFFFFFFFFFFFFFFFFFFFFFFFFFFFFFFFFFFFFF AND PUSH1 0x0 DUP1 SLOAD SWAP1 PUSH2 0x100 EXP SWAP1 DIV PUSH20 0xFFFFFFFFFFFFFFFFFFFFFFFFFFFFFFFFFFFFFFFF AND PUSH20 0xFFFFFFFFFFFFFFFFFFFFFFFFFFFFFFFFFFFFFFFF AND EQ PUSH2 0x107E JUMPI PUSH1 0x0 DUP1 REVERT JUMPDEST PUSH1 0xB PUSH1 0x0 DUP4 PUSH20 0xFFFFFFFFFFFFFFFFFFFFFFFFFFFFFFFFFFFFFFFF AND PUSH20 0xFFFFFFFFFFFFFFFFFFFFFFFFFFFFFFFFFFFFFFFF AND DUP2 MSTORE PUSH1 0x20 ADD SWAP1 DUP2 MSTORE PUSH1 0x20 ADD PUSH1 0x0 KECCAK256 PUSH1 0x0 SWAP1 SLOAD SWAP1 PUSH2 0x100 EXP SWAP1 DIV PUSH1 0xFF AND ISZERO PUSH2 0x1129 JUMPI PUSH1 0x0 PUSH1 0xB PUSH1 0x0 DUP5 PUSH20 0xFFFFFFFFFFFFFFFFFFFFFFFFFFFFFFFFFFFFFFFF AND PUSH20 0xFFFFFFFFFFFFFFFFFFFFFFFFFFFFFFFFFFFFFFFF AND DUP2 MSTORE PUSH1 0x20 ADD SWAP1 DUP2 MSTORE PUSH1 0x20 ADD PUSH1 0x0 KECCAK256 PUSH1 0x0 PUSH2 0x100 EXP DUP2 SLOAD DUP2 PUSH1 0xFF MUL NOT AND SWAP1 DUP4 ISZERO ISZERO MUL OR SWAP1 SSTORE POP JUMPDEST PUSH31 0xD12F5594E82AD336A8FA185A7CC3AAB483EDDCF14E26EBC4EA81F6400B120A DUP3 TIMESTAMP PUSH1 0x40 MLOAD PUSH2 0x1159 SWAP3 SWAP2 SWAP1 PUSH2 0x3A49 JUMP JUMPDEST PUSH1 0x40 MLOAD DUP1 SWAP2 SUB SWAP1 LOG1 PUSH1 0x40 MLOAD DUP1 PUSH1 0x40 ADD PUSH1 0x40 MSTORE DUP1 PUSH1 0x14 DUP2 MSTORE PUSH1 0x20 ADD PUSH32 0x4120646F63746F722069732072656D6F7665642E000000000000000000000000 DUP2 MSTORE POP SWAP1 POP SWAP2 SWAP1 POP JUMP JUMPDEST PUSH1 0x60 PUSH1 0x1 ISZERO ISZERO PUSH1 0xA PUSH1 0x0 DUP5 PUSH20 0xFFFFFFFFFFFFFFFFFFFFFFFFFFFFFFFFFFFFFFFF AND PUSH20 0xFFFFFFFFFFFFFFFFFFFFFFFFFFFFFFFFFFFFFFFF AND DUP2 MSTORE PUSH1 0x20 ADD SWAP1 DUP2 MSTORE PUSH1 0x20 ADD PUSH1 0x0 KECCAK256 PUSH1 0x0 ADD PUSH1 0x0 SWAP1 SLOAD SWAP1 PUSH2 0x100 EXP SWAP1 DIV PUSH1 0xFF AND ISZERO ISZERO EQ PUSH2 0x1200 JUMPI PUSH1 0x0 DUP1 REVERT JUMPDEST CALLER PUSH20 0xFFFFFFFFFFFFFFFFFFFFFFFFFFFFFFFFFFFFFFFF AND PUSH1 0xA PUSH1 0x0 DUP5 PUSH20 0xFFFFFFFFFFFFFFFFFFFFFFFFFFFFFFFFFFFFFFFF AND PUSH20 0xFFFFFFFFFFFFFFFFFFFFFFFFFFFFFFFFFFFFFFFF AND DUP2 MSTORE PUSH1 0x20 ADD SWAP1 DUP2 MSTORE PUSH1 0x20 ADD PUSH1 0x0 KECCAK256 PUSH1 0x5 ADD PUSH1 0x0 SWAP1 SLOAD SWAP1 PUSH2 0x100 EXP SWAP1 DIV PUSH20 0xFFFFFFFFFFFFFFFFFFFFFFFFFFFFFFFFFFFFFFFF AND PUSH20 0xFFFFFFFFFFFFFFFFFFFFFFFFFFFFFFFFFFFFFFFF AND EQ PUSH2 0x129A JUMPI PUSH1 0x0 DUP1 REVERT JUMPDEST PUSH1 0x1 PUSH1 0xA PUSH1 0x0 DUP5 PUSH20 0xFFFFFFFFFFFFFFFFFFFFFFFFFFFFFFFFFFFFFFFF AND PUSH20 0xFFFFFFFFFFFFFFFFFFFFFFFFFFFFFFFFFFFFFFFF AND DUP2 MSTORE PUSH1 0x20 ADD SWAP1 DUP2 MSTORE PUSH1 0x20 ADD PUSH1 0x0 KECCAK256 PUSH1 0x3 ADD SLOAD SUB PUSH2 0x12E9 JUMPI PUSH1 0x0 DUP1 REVERT JUMPDEST PUSH1 0x40 MLOAD DUP1 PUSH1 0x20 ADD PUSH1 0x40 MSTORE DUP1 PUSH1 0x0 DUP2 MSTORE POP PUSH1 0xA PUSH1 0x0 DUP5 PUSH20 0xFFFFFFFFFFFFFFFFFFFFFFFFFFFFFFFFFFFFFFFF AND PUSH20 0xFFFFFFFFFFFFFFFFFFFFFFFFFFFFFFFFFFFFFFFF AND DUP2 MSTORE PUSH1 0x20 ADD SWAP1 DUP2 MSTORE PUSH1 0x20 ADD PUSH1 0x0 KECCAK256 PUSH1 0x4 ADD SWAP1 DUP2 PUSH2 0x1347 SWAP2 SWAP1 PUSH2 0x3869 JUMP JUMPDEST POP TIMESTAMP PUSH1 0xA PUSH1 0x0 DUP5 PUSH20 0xFFFFFFFFFFFFFFFFFFFFFFFFFFFFFFFFFFFFFFFF AND PUSH20 0xFFFFFFFFFFFFFFFFFFFFFFFFFFFFFFFFFFFFFFFF AND DUP2 MSTORE PUSH1 0x20 ADD SWAP1 DUP2 MSTORE PUSH1 0x20 ADD PUSH1 0x0 KECCAK256 PUSH1 0x6 ADD DUP2 SWAP1 SSTORE POP PUSH1 0x1 PUSH1 0xA PUSH1 0x0 DUP5 PUSH20 0xFFFFFFFFFFFFFFFFFFFFFFFFFFFFFFFFFFFFFFFF AND PUSH20 0xFFFFFFFFFFFFFFFFFFFFFFFFFFFFFFFFFFFFFFFF AND DUP2 MSTORE PUSH1 0x20 ADD SWAP1 DUP2 MSTORE PUSH1 0x20 ADD PUSH1 0x0 KECCAK256 PUSH1 0x3 ADD DUP2 SWAP1 SSTORE POP PUSH1 0x40 MLOAD DUP1 PUSH1 0x40 ADD PUSH1 0x40 MSTORE DUP1 PUSH1 0x1D DUP2 MSTORE PUSH1 0x20 ADD PUSH32 0x5265636F72642069732064656C657465642062792070617469656E742E000000 DUP2 MSTORE POP PUSH1 0xA PUSH1 0x0 DUP5 PUSH20 0xFFFFFFFFFFFFFFFFFFFFFFFFFFFFFFFFFFFFFFFF AND PUSH20 0xFFFFFFFFFFFFFFFFFFFFFFFFFFFFFFFFFFFFFFFF AND DUP2 MSTORE PUSH1 0x20 ADD SWAP1 DUP2 MSTORE PUSH1 0x20 ADD PUSH1 0x0 KECCAK256 PUSH1 0x2 ADD SWAP1 DUP2 PUSH2 0x145B SWAP2 SWAP1 PUSH2 0x3869 JUMP JUMPDEST POP PUSH32 0xC5451672C113180DCC201AD0122FE0677464F75276E03A264699D75D16906378 PUSH1 0xA PUSH1 0x0 DUP5 PUSH20 0xFFFFFFFFFFFFFFFFFFFFFFFFFFFFFFFFFFFFFFFF AND PUSH20 0xFFFFFFFFFFFFFFFFFFFFFFFFFFFFFFFFFFFFFFFF AND DUP2 MSTORE PUSH1 0x20 ADD SWAP1 DUP2 MSTORE PUSH1 0x20 ADD PUSH1 0x0 KECCAK256 PUSH1 0x2 ADD PUSH1 0xA PUSH1 0x0 DUP6 PUSH20 0xFFFFFFFFFFFFFFFFFFFFFFFFFFFFFFFFFFFFFFFF AND PUSH20 0xFFFFFFFFFFFFFFFFFFFFFFFFFFFFFFFFFFFFFFFF AND DUP2 MSTORE PUSH1 0x20 ADD SWAP1 DUP2 MSTORE PUSH1 0x20 ADD PUSH1 0x0 KECCAK256 PUSH1 0x3 ADD SLOAD PUSH1 0xA PUSH1 0x0 DUP7 PUSH20 0xFFFFFFFFFFFFFFFFFFFFFFFFFFFFFFFFFFFFFFFF AND PUSH20 0xFFFFFFFFFFFFFFFFFFFFFFFFFFFFFFFFFFFFFFFF AND DUP2 MSTORE PUSH1 0x20 ADD SWAP1 DUP2 MSTORE PUSH1 0x20 ADD PUSH1 0x0 KECCAK256 PUSH1 0x6 ADD SLOAD PUSH1 0x40 MLOAD PUSH2 0x1554 SWAP4 SWAP3 SWAP2 SWAP1 PUSH2 0x39BF JUMP JUMPDEST PUSH1 0x40 MLOAD DUP1 SWAP2 SUB SWAP1 LOG1 PUSH1 0x40 MLOAD DUP1 PUSH1 0x40 ADD PUSH1 0x40 MSTORE DUP1 PUSH1 0x1D DUP2 MSTORE PUSH1 0x20 ADD PUSH32 0x5265636F72642069732064656C657465642062792070617469656E742E000000 DUP2 MSTORE POP SWAP1 POP SWAP2 SWAP1 POP JUMP JUMPDEST PUSH1 0x60 PUSH1 0xA PUSH1 0x0 DUP5 PUSH20 0xFFFFFFFFFFFFFFFFFFFFFFFFFFFFFFFFFFFFFFFF AND PUSH20 0xFFFFFFFFFFFFFFFFFFFFFFFFFFFFFFFFFFFFFFFF AND DUP2 MSTORE PUSH1 0x20 ADD SWAP1 DUP2 MSTORE PUSH1 0x20 ADD PUSH1 0x0 KECCAK256 PUSH1 0x0 ADD PUSH1 0x0 SWAP1 SLOAD SWAP1 PUSH2 0x100 EXP SWAP1 DIV PUSH1 0xFF AND PUSH2 0x15F4 JUMPI PUSH1 0x0 DUP1 REVERT JUMPDEST PUSH1 0xB PUSH1 0x0 CALLER PUSH20 0xFFFFFFFFFFFFFFFFFFFFFFFFFFFFFFFFFFFFFFFF AND PUSH20 0xFFFFFFFFFFFFFFFFFFFFFFFFFFFFFFFFFFFFFFFF AND DUP2 MSTORE PUSH1 0x20 ADD SWAP1 DUP2 MSTORE PUSH1 0x20 ADD PUSH1 0x0 KECCAK256 PUSH1 0x0 SWAP1 SLOAD SWAP1 PUSH2 0x100 EXP SWAP1 DIV PUSH1 0xFF AND PUSH2 0x164A JUMPI PUSH1 0x0 DUP1 REVERT JUMPDEST PUSH1 0x1 PUSH1 0xA PUSH1 0x0 DUP6 PUSH20 0xFFFFFFFFFFFFFFFFFFFFFFFFFFFFFFFFFFFFFFFF AND PUSH20 0xFFFFFFFFFFFFFFFFFFFFFFFFFFFFFFFFFFFFFFFF AND DUP2 MSTORE PUSH1 0x20 ADD SWAP1 DUP2 MSTORE PUSH1 0x20 ADD PUSH1 0x0 KECCAK256 PUSH1 0x3 ADD SLOAD SUB PUSH2 0x1699 JUMPI PUSH1 0x0 DUP1 REVERT JUMPDEST CALLER PUSH1 0xA PUSH1 0x0 DUP6 PUSH20 0xFFFFFFFFFFFFFFFFFFFFFFFFFFFFFFFFFFFFFFFF AND PUSH20 0xFFFFFFFFFFFFFFFFFFFFFFFFFFFFFFFFFFFFFFFF AND DUP2 MSTORE PUSH1 0x20 ADD SWAP1 DUP2 MSTORE PUSH1 0x20 ADD PUSH1 0x0 KECCAK256 PUSH1 0x7 ADD PUSH1 0x0 PUSH2 0x100 EXP DUP2 SLOAD DUP2 PUSH20 0xFFFFFFFFFFFFFFFFFFFFFFFFFFFFFFFFFFFFFFFF MUL NOT AND SWAP1 DUP4 PUSH20 0xFFFFFFFFFFFFFFFFFFFFFFFFFFFFFFFFFFFFFFFF AND MUL OR SWAP1 SSTORE POP TIMESTAMP PUSH1 0xA PUSH1 0x0 DUP6 PUSH20 0xFFFFFFFFFFFFFFFFFFFFFFFFFFFFFFFFFFFFFFFF AND PUSH20 0xFFFFFFFFFFFFFFFFFFFFFFFFFFFFFFFFFFFFFFFF AND DUP2 MSTORE PUSH1 0x20 ADD SWAP1 DUP2 MSTORE PUSH1 0x20 ADD PUSH1 0x0 KECCAK256 PUSH1 0x8 ADD DUP2 SWAP1 SSTORE POP DUP2 PUSH1 0xA PUSH1 0x0 DUP6 PUSH20 0xFFFFFFFFFFFFFFFFFFFFFFFFFFFFFFFFFFFFFFFF AND PUSH20 0xFFFFFFFFFFFFFFFFFFFFFFFFFFFFFFFFFFFFFFFF AND DUP2 MSTORE PUSH1 0x20 ADD SWAP1 DUP2 MSTORE PUSH1 0x20 ADD PUSH1 0x0 KECCAK256 PUSH1 0x4 ADD SWAP1 DUP2 PUSH2 0x17B0 SWAP2 SWAP1 PUSH2 0x3869 JUMP JUMPDEST POP PUSH1 0x5 PUSH1 0xA PUSH1 0x0 DUP6 PUSH20 0xFFFFFFFFFFFFFFFFFFFFFFFFFFFFFFFFFFFFFFFF AND PUSH20 0xFFFFFFFFFFFFFFFFFFFFFFFFFFFFFFFFFFFFFFFF AND DUP2 MSTORE PUSH1 0x20 ADD SWAP1 DUP2 MSTORE PUSH1 0x20 ADD PUSH1 0x0 KECCAK256 PUSH1 0x3 ADD DUP2 SWAP1 SSTORE POP PUSH1 0x40 MLOAD DUP1 PUSH1 0x60 ADD PUSH1 0x40 MSTORE DUP1 PUSH1 0x22 DUP2 MSTORE PUSH1 0x20 ADD PUSH2 0x3DE1 PUSH1 0x22 SWAP2 CODECOPY PUSH1 0xA PUSH1 0x0 DUP6 PUSH20 0xFFFFFFFFFFFFFFFFFFFFFFFFFFFFFFFFFFFFFFFF AND PUSH20 0xFFFFFFFFFFFFFFFFFFFFFFFFFFFFFFFFFFFFFFFF AND DUP2 MSTORE PUSH1 0x20 ADD SWAP1 DUP2 MSTORE PUSH1 0x20 ADD PUSH1 0x0 KECCAK256 PUSH1 0x2 ADD SWAP1 DUP2 PUSH2 0x1860 SWAP2 SWAP1 PUSH2 0x3869 JUMP JUMPDEST POP PUSH32 0x89C9A137DD6383374B8E2A092D40BC74FDA69A614E9ECE010B1F4EADED8F841C PUSH1 0xA PUSH1 0x0 DUP6 PUSH20 0xFFFFFFFFFFFFFFFFFFFFFFFFFFFFFFFFFFFFFFFF AND PUSH20 0xFFFFFFFFFFFFFFFFFFFFFFFFFFFFFFFFFFFFFFFF AND DUP2 MSTORE PUSH1 0x20 ADD SWAP1 DUP2 MSTORE PUSH1 0x20 ADD PUSH1 0x0 KECCAK256 PUSH1 0x2 ADD PUSH1 0xA PUSH1 0x0 DUP7 PUSH20 0xFFFFFFFFFFFFFFFFFFFFFFFFFFFFFFFFFFFFFFFF AND PUSH20 0xFFFFFFFFFFFFFFFFFFFFFFFFFFFFFFFFFFFFFFFF AND DUP2 MSTORE PUSH1 0x20 ADD SWAP1 DUP2 MSTORE PUSH1 0x20 ADD PUSH1 0x0 KECCAK256 PUSH1 0x3 ADD SLOAD PUSH1 0xA PUSH1 0x0 DUP8 PUSH20 0xFFFFFFFFFFFFFFFFFFFFFFFFFFFFFFFFFFFFFFFF AND PUSH20 0xFFFFFFFFFFFFFFFFFFFFFFFFFFFFFFFFFFFFFFFF AND DUP2 MSTORE PUSH1 0x20 ADD SWAP1 DUP2 MSTORE PUSH1 0x20 ADD PUSH1 0x0 KECCAK256 PUSH1 0x6 ADD SLOAD PUSH1 0x40 MLOAD PUSH2 0x1959 SWAP4 SWAP3 SWAP2 SWAP1 PUSH2 0x39BF JUMP JUMPDEST PUSH1 0x40 MLOAD DUP1 SWAP2 SUB SWAP1 LOG1 PUSH1 0x40 MLOAD DUP1 PUSH1 0x20 ADD PUSH1 0x40 MSTORE DUP1 PUSH1 0x0 DUP2 MSTORE POP SWAP1 POP SWAP3 SWAP2 POP POP JUMP JUMPDEST PUSH1 0xB PUSH1 0x20 MSTORE DUP1 PUSH1 0x0 MSTORE PUSH1 0x40 PUSH1 0x0 KECCAK256 PUSH1 0x0 SWAP2 POP SLOAD SWAP1 PUSH2 0x100 EXP SWAP1 DIV PUSH1 0xFF AND DUP2 JUMP JUMPDEST PUSH1 0xC PUSH1 0x20 MSTORE DUP1 PUSH1 0x0 MSTORE PUSH1 0x40 PUSH1 0x0 KECCAK256 PUSH1 0x0 SWAP2 POP SLOAD SWAP1 PUSH2 0x100 EXP SWAP1 DIV PUSH1 0xFF AND DUP2 JUMP JUMPDEST PUSH1 0x60 CALLER PUSH20 0xFFFFFFFFFFFFFFFFFFFFFFFFFFFFFFFFFFFFFFFF AND PUSH1 0x0 DUP1 SLOAD SWAP1 PUSH2 0x100 EXP SWAP1 DIV PUSH20 0xFFFFFFFFFFFFFFFFFFFFFFFFFFFFFFFFFFFFFFFF AND PUSH20 0xFFFFFFFFFFFFFFFFFFFFFFFFFFFFFFFFFFFFFFFF AND EQ PUSH2 0x1A13 JUMPI PUSH1 0x0 DUP1 REVERT JUMPDEST PUSH1 0xC PUSH1 0x0 DUP4 PUSH20 0xFFFFFFFFFFFFFFFFFFFFFFFFFFFFFFFFFFFFFFFF AND PUSH20 0xFFFFFFFFFFFFFFFFFFFFFFFFFFFFFFFFFFFFFFFF AND DUP2 MSTORE PUSH1 0x20 ADD SWAP1 DUP2 MSTORE PUSH1 0x20 ADD PUSH1 0x0 KECCAK256 PUSH1 0x0 SWAP1 SLOAD SWAP1 PUSH2 0x100 EXP SWAP1 DIV PUSH1 0xFF AND PUSH2 0x1ABD JUMPI PUSH1 0x1 PUSH1 0xC PUSH1 0x0 DUP5 PUSH20 0xFFFFFFFFFFFFFFFFFFFFFFFFFFFFFFFFFFFFFFFF AND PUSH20 0xFFFFFFFFFFFFFFFFFFFFFFFFFFFFFFFFFFFFFFFF AND DUP2 MSTORE PUSH1 0x20 ADD SWAP1 DUP2 MSTORE PUSH1 0x20 ADD PUSH1 0x0 KECCAK256 PUSH1 0x0 PUSH2 0x100 EXP DUP2 SLOAD DUP2 PUSH1 0xFF MUL NOT AND SWAP1 DUP4 ISZERO ISZERO MUL OR SWAP1 SSTORE POP JUMPDEST PUSH32 0x8FBE047A5FAFE34457A33E6BD83075C8FFED3878DC48A48D31CE3948BBB22CD4 DUP3 TIMESTAMP PUSH1 0x40 MLOAD PUSH2 0x1AEE SWAP3 SWAP2 SWAP1 PUSH2 0x3AD1 JUMP JUMPDEST PUSH1 0x40 MLOAD DUP1 SWAP2 SUB SWAP1 LOG1 PUSH1 0x40 MLOAD DUP1 PUSH1 0x40 ADD PUSH1 0x40 MSTORE DUP1 PUSH1 0x12 DUP2 MSTORE PUSH1 0x20 ADD PUSH32 0x416E2061756469742069732061646465642E0000000000000000000000000000 DUP2 MSTORE POP SWAP1 POP SWAP2 SWAP1 POP JUMP JUMPDEST PUSH1 0x0 CALLER PUSH20 0xFFFFFFFFFFFFFFFFFFFFFFFFFFFFFFFFFFFFFFFF AND PUSH1 0x0 DUP1 SLOAD SWAP1 PUSH2 0x100 EXP SWAP1 DIV PUSH20 0xFFFFFFFFFFFFFFFFFFFFFFFFFFFFFFFFFFFFFFFF AND PUSH20 0xFFFFFFFFFFFFFFFFFFFFFFFFFFFFFFFFFFFFFFFF AND EQ PUSH2 0x1B8D JUMPI PUSH1 0x0 DUP1 REVERT JUMPDEST PUSH1 0x0 PUSH1 0x2 CALLER TIMESTAMP PUSH1 0x40 MLOAD PUSH1 0x20 ADD PUSH2 0x1BA4 SWAP3 SWAP2 SWAP1 PUSH2 0x3B76 JUMP JUMPDEST PUSH1 0x40 MLOAD PUSH1 0x20 DUP2 DUP4 SUB SUB DUP2 MSTORE SWAP1 PUSH1 0x40 MSTORE PUSH1 0x40 MLOAD PUSH2 0x1BC0 SWAP2 SWAP1 PUSH2 0x3BE9 JUMP JUMPDEST PUSH1 0x20 PUSH1 0x40 MLOAD DUP1 DUP4 SUB DUP2 DUP6 GAS STATICCALL ISZERO DUP1 ISZERO PUSH2 0x1BDD JUMPI RETURNDATASIZE PUSH1 0x0 DUP1 RETURNDATACOPY RETURNDATASIZE PUSH1 0x0 REVERT JUMPDEST POP POP POP PUSH1 0x40 MLOAD RETURNDATASIZE PUSH1 0x1F NOT PUSH1 0x1F DUP3 ADD AND DUP3 ADD DUP1 PUSH1 0x40 MSTORE POP DUP2 ADD SWAP1 PUSH2 0x1C00 SWAP2 SWAP1 PUSH2 0x3C36 JUMP JUMPDEST PUSH1 0x0 SHR SWAP1 POP PUSH1 0x1 PUSH1 0xA PUSH1 0x0 DUP4 PUSH20 0xFFFFFFFFFFFFFFFFFFFFFFFFFFFFFFFFFFFFFFFF AND PUSH20 0xFFFFFFFFFFFFFFFFFFFFFFFFFFFFFFFFFFFFFFFF AND DUP2 MSTORE PUSH1 0x20 ADD SWAP1 DUP2 MSTORE PUSH1 0x20 ADD PUSH1 0x0 KECCAK256 PUSH1 0x0 ADD PUSH1 0x0 PUSH2 0x100 EXP DUP2 SLOAD DUP2 PUSH1 0xFF MUL NOT AND SWAP1 DUP4 ISZERO ISZERO MUL OR SWAP1 SSTORE POP DUP1 PUSH20 0xFFFFFFFFFFFFFFFFFFFFFFFFFFFFFFFFFFFFFFFF AND PUSH1 0xA PUSH1 0x0 DUP4 PUSH20 0xFFFFFFFFFFFFFFFFFFFFFFFFFFFFFFFFFFFFFFFF AND PUSH20 0xFFFFFFFFFFFFFFFFFFFFFFFFFFFFFFFFFFFFFFFF AND DUP2 MSTORE PUSH1 0x20 ADD SWAP1 DUP2 MSTORE PUSH1 0x20 ADD PUSH1 0x0 KECCAK256 PUSH1 0x1 ADD DUP2 SWAP1 SSTORE POP PUSH1 0x40 MLOAD DUP1 PUSH1 0x40 ADD PUSH1 0x40 MSTORE DUP1 PUSH1 0x1D DUP2 MSTORE PUSH1 0x20 ADD PUSH32 0x4E6577204D65646963616C205265636F72642069732063726561746564000000 DUP2 MSTORE POP PUSH1 0xA PUSH1 0x0 DUP4 PUSH20 0xFFFFFFFFFFFFFFFFFFFFFFFFFFFFFFFFFFFFFFFF AND PUSH20 0xFFFFFFFFFFFFFFFFFFFFFFFFFFFFFFFFFFFFFFFF AND DUP2 MSTORE PUSH1 0x20 ADD SWAP1 DUP2 MSTORE PUSH1 0x20 ADD PUSH1 0x0 KECCAK256 PUSH1 0x2 ADD SWAP1 DUP2 PUSH2 0x1D41 SWAP2 SWAP1 PUSH2 0x3869 JUMP JUMPDEST POP PUSH1 0x0 PUSH1 0xA PUSH1 0x0 DUP4 PUSH20 0xFFFFFFFFFFFFFFFFFFFFFFFFFFFFFFFFFFFFFFFF AND PUSH20 0xFFFFFFFFFFFFFFFFFFFFFFFFFFFFFFFFFFFFFFFF AND DUP2 MSTORE PUSH1 0x20 ADD SWAP1 DUP2 MSTORE PUSH1 0x20 ADD PUSH1 0x0 KECCAK256 PUSH1 0x3 ADD DUP2 SWAP1 SSTORE POP PUSH1 0x40 MLOAD DUP1 PUSH1 0x40 ADD PUSH1 0x40 MSTORE DUP1 PUSH1 0xE DUP2 MSTORE PUSH1 0x20 ADD PUSH32 0x566973697420696E697469617465000000000000000000000000000000000000 DUP2 MSTORE POP PUSH1 0xA PUSH1 0x0 DUP4 PUSH20 0xFFFFFFFFFFFFFFFFFFFFFFFFFFFFFFFFFFFFFFFF AND PUSH20 0xFFFFFFFFFFFFFFFFFFFFFFFFFFFFFFFFFFFFFFFF AND DUP2 MSTORE PUSH1 0x20 ADD SWAP1 DUP2 MSTORE PUSH1 0x20 ADD PUSH1 0x0 KECCAK256 PUSH1 0x4 ADD SWAP1 DUP2 PUSH2 0x1E0E SWAP2 SWAP1 PUSH2 0x3869 JUMP JUMPDEST POP CALLER PUSH1 0xA PUSH1 0x0 DUP4 PUSH20 0xFFFFFFFFFFFFFFFFFFFFFFFFFFFFFFFFFFFFFFFF AND PUSH20 0xFFFFFFFFFFFFFFFFFFFFFFFFFFFFFFFFFFFFFFFF AND DUP2 MSTORE PUSH1 0x20 ADD SWAP1 DUP2 MSTORE PUSH1 0x20 ADD PUSH1 0x0 KECCAK256 PUSH1 0x5 ADD PUSH1 0x0 PUSH2 0x100 EXP DUP2 SLOAD DUP2 PUSH20 0xFFFFFFFFFFFFFFFFFFFFFFFFFFFFFFFFFFFFFFFF MUL NOT AND SWAP1 DUP4 PUSH20 0xFFFFFFFFFFFFFFFFFFFFFFFFFFFFFFFFFFFFFFFF AND MUL OR SWAP1 SSTORE POP DUP3 PUSH1 0xA PUSH1 0x0 DUP4 PUSH20 0xFFFFFFFFFFFFFFFFFFFFFFFFFFFFFFFFFFFFFFFF AND PUSH20 0xFFFFFFFFFFFFFFFFFFFFFFFFFFFFFFFFFFFFFFFF AND DUP2 MSTORE PUSH1 0x20 ADD SWAP1 DUP2 MSTORE PUSH1 0x20 ADD PUSH1 0x0 KECCAK256 PUSH1 0x6 ADD DUP2 SWAP1 SSTORE POP PUSH32 0x14207AC2653501DE32DA60B3FEE91A4D0C170419F5EDD0528124B1C526A70509 DUP2 PUSH1 0xA PUSH1 0x0 DUP5 PUSH20 0xFFFFFFFFFFFFFFFFFFFFFFFFFFFFFFFFFFFFFFFF AND PUSH20 0xFFFFFFFFFFFFFFFFFFFFFFFFFFFFFFFFFFFFFFFF AND DUP2 MSTORE PUSH1 0x20 ADD SWAP1 DUP2 MSTORE PUSH1 0x20 ADD PUSH1 0x0 KECCAK256 PUSH1 0x2 ADD PUSH1 0xA PUSH1 0x0 DUP6 PUSH20 0xFFFFFFFFFFFFFFFFFFFFFFFFFFFFFFFFFFFFFFFF AND PUSH20 0xFFFFFFFFFFFFFFFFFFFFFFFFFFFFFFFFFFFFFFFF AND DUP2 MSTORE PUSH1 0x20 ADD SWAP1 DUP2 MSTORE PUSH1 0x20 ADD PUSH1 0x0 KECCAK256 PUSH1 0x3 ADD SLOAD PUSH1 0xA PUSH1 0x0 DUP7 PUSH20 0xFFFFFFFFFFFFFFFFFFFFFFFFFFFFFFFFFFFFFFFF AND PUSH20 0xFFFFFFFFFFFFFFFFFFFFFFFFFFFFFFFFFFFFFFFF AND DUP2 MSTORE PUSH1 0x20 ADD SWAP1 DUP2 MSTORE PUSH1 0x20 ADD PUSH1 0x0 KECCAK256 PUSH1 0x6 ADD SLOAD PUSH1 0x40 MLOAD PUSH2 0x1FD1 SWAP5 SWAP4 SWAP3 SWAP2 SWAP1 PUSH2 0x3C63 JUMP JUMPDEST PUSH1 0x40 MLOAD DUP1 SWAP2 SUB SWAP1 LOG1 DUP1 SWAP2 POP POP SWAP2 SWAP1 POP JUMP JUMPDEST PUSH1 0x60 PUSH1 0xA PUSH1 0x0 DUP4 PUSH20 0xFFFFFFFFFFFFFFFFFFFFFFFFFFFFFFFFFFFFFFFF AND PUSH20 0xFFFFFFFFFFFFFFFFFFFFFFFFFFFFFFFFFFFFFFFF AND DUP2 MSTORE PUSH1 0x20 ADD SWAP1 DUP2 MSTORE PUSH1 0x20 ADD PUSH1 0x0 KECCAK256 PUSH1 0x0 ADD PUSH1 0x0 SWAP1 SLOAD SWAP1 PUSH2 0x100 EXP SWAP1 DIV PUSH1 0xFF AND PUSH2 0x203D JUMPI PUSH1 0x0 DUP1 REVERT JUMPDEST PUSH1 0xB PUSH1 0x0 CALLER PUSH20 0xFFFFFFFFFFFFFFFFFFFFFFFFFFFFFFFFFFFFFFFF AND PUSH20 0xFFFFFFFFFFFFFFFFFFFFFFFFFFFFFFFFFFFFFFFF AND DUP2 MSTORE PUSH1 0x20 ADD SWAP1 DUP2 MSTORE PUSH1 0x20 ADD PUSH1 0x0 KECCAK256 PUSH1 0x0 SWAP1 SLOAD SWAP1 PUSH2 0x100 EXP SWAP1 DIV PUSH1 0xFF AND PUSH2 0x2093 JUMPI PUSH1 0x0 DUP1 REVERT JUMPDEST PUSH1 0x1 PUSH1 0xA PUSH1 0x0 DUP5 PUSH20 0xFFFFFFFFFFFFFFFFFFFFFFFFFFFFFFFFFFFFFFFF AND PUSH20 0xFFFFFFFFFFFFFFFFFFFFFFFFFFFFFFFFFFFFFFFF AND DUP2 MSTORE PUSH1 0x20 ADD SWAP1 DUP2 MSTORE PUSH1 0x20 ADD PUSH1 0x0 KECCAK256 PUSH1 0x3 ADD SLOAD SUB PUSH2 0x20E2 JUMPI PUSH1 0x0 DUP1 REVERT JUMPDEST CALLER PUSH1 0xA PUSH1 0x0 DUP5 PUSH20 0xFFFFFFFFFFFFFFFFFFFFFFFFFFFFFFFFFFFFFFFF AND PUSH20 0xFFFFFFFFFFFFFFFFFFFFFFFFFFFFFFFFFFFFFFFF AND DUP2 MSTORE PUSH1 0x20 ADD SWAP1 DUP2 MSTORE PUSH1 0x20 ADD PUSH1 0x0 KECCAK256 PUSH1 0x7 ADD PUSH1 0x0 PUSH2 0x100 EXP DUP2 SLOAD DUP2 PUSH20 0xFFFFFFFFFFFFFFFFFFFFFFFFFFFFFFFFFFFFFFFF MUL NOT AND SWAP1 DUP4 PUSH20 0xFFFFFFFFFFFFFFFFFFFFFFFFFFFFFFFFFFFFFFFF AND MUL OR SWAP1 SSTORE POP TIMESTAMP PUSH1 0xA PUSH1 0x0 DUP5 PUSH20 0xFFFFFFFFFFFFFFFFFFFFFFFFFFFFFFFFFFFFFFFF AND PUSH20 0xFFFFFFFFFFFFFFFFFFFFFFFFFFFFFFFFFFFFFFFF AND DUP2 MSTORE PUSH1 0x20 ADD SWAP1 DUP2 MSTORE PUSH1 0x20 ADD PUSH1 0x0 KECCAK256 PUSH1 0x8 ADD DUP2 SWAP1 SSTORE POP PUSH1 0x3 PUSH1 0xA PUSH1 0x0 DUP5 PUSH20 0xFFFFFFFFFFFFFFFFFFFFFFFFFFFFFFFFFFFFFFFF AND PUSH20 0xFFFFFFFFFFFFFFFFFFFFFFFFFFFFFFFFFFFFFFFF AND DUP2 MSTORE PUSH1 0x20 ADD SWAP1 DUP2 MSTORE PUSH1 0x20 ADD PUSH1 0x0 KECCAK256 PUSH1 0x3 ADD DUP2 SWAP1 SSTORE POP PUSH1 0x40 MLOAD DUP1 PUSH1 0x60 ADD PUSH1 0x40 MSTORE DUP1 PUSH1 0x22 DUP2 MSTORE PUSH1 0x20 ADD PUSH2 0x3E25 PUSH1 0x22 SWAP2 CODECOPY PUSH1 0xA PUSH1 0x0 DUP5 PUSH20 0xFFFFFFFFFFFFFFFFFFFFFFFFFFFFFFFFFFFFFFFF AND PUSH20 0xFFFFFFFFFFFFFFFFFFFFFFFFFFFFFFFFFFFFFFFF AND DUP2 MSTORE PUSH1 0x20 ADD SWAP1 DUP2 MSTORE PUSH1 0x20 ADD PUSH1 0x0 KECCAK256 PUSH1 0x2 ADD SWAP1 DUP2 PUSH2 0x2259 SWAP2 SWAP1 PUSH2 0x3869 JUMP JUMPDEST POP PUSH32 0xD389C9D6EEC9DC6179E4CFC56C2B4A3DDAB405290F85C5CA35457C25DA541465 PUSH1 0xA PUSH1 0x0 DUP5 PUSH20 0xFFFFFFFFFFFFFFFFFFFFFFFFFFFFFFFFFFFFFFFF AND PUSH20 0xFFFFFFFFFFFFFFFFFFFFFFFFFFFFFFFFFFFFFFFF AND DUP2 MSTORE PUSH1 0x20 ADD SWAP1 DUP2 MSTORE PUSH1 0x20 ADD PUSH1 0x0 KECCAK256 PUSH1 0x2 ADD PUSH1 0xA PUSH1 0x0 DUP6 PUSH20 0xFFFFFFFFFFFFFFFFFFFFFFFFFFFFFFFFFFFFFFFF AND PUSH20 0xFFFFFFFFFFFFFFFFFFFFFFFFFFFFFFFFFFFFFFFF AND DUP2 MSTORE PUSH1 0x20 ADD SWAP1 DUP2 MSTORE PUSH1 0x20 ADD PUSH1 0x0 KECCAK256 PUSH1 0x3 ADD SLOAD PUSH1 0xA PUSH1 0x0 DUP7 PUSH20 0xFFFFFFFFFFFFFFFFFFFFFFFFFFFFFFFFFFFFFFFF AND PUSH20 0xFFFFFFFFFFFFFFFFFFFFFFFFFFFFFFFFFFFFFFFF AND DUP2 MSTORE PUSH1 0x20 ADD SWAP1 DUP2 MSTORE PUSH1 0x20 ADD PUSH1 0x0 KECCAK256 PUSH1 0x6 ADD SLOAD PUSH1 0x40 MLOAD PUSH2 0x2352 SWAP4 SWAP3 SWAP2 SWAP1 PUSH2 0x39BF JUMP JUMPDEST PUSH1 0x40 MLOAD DUP1 SWAP2 SUB SWAP1 LOG1 PUSH1 0x40 MLOAD DUP1 PUSH1 0x20 ADD PUSH1 0x40 MSTORE DUP1 PUSH1 0x0 DUP2 MSTORE POP SWAP1 POP SWAP2 SWAP1 POP JUMP JUMPDEST PUSH1 0x60 PUSH1 0xA PUSH1 0x0 DUP4 PUSH20 0xFFFFFFFFFFFFFFFFFFFFFFFFFFFFFFFFFFFFFFFF AND PUSH20 0xFFFFFFFFFFFFFFFFFFFFFFFFFFFFFFFFFFFFFFFF AND DUP2 MSTORE PUSH1 0x20 ADD SWAP1 DUP2 MSTORE PUSH1 0x20 ADD PUSH1 0x0 KECCAK256 PUSH1 0x0 ADD PUSH1 0x0 SWAP1 SLOAD SWAP1 PUSH2 0x100 EXP SWAP1 DIV PUSH1 0xFF AND PUSH2 0x23CC JUMPI PUSH1 0x0 DUP1 REVERT JUMPDEST PUSH1 0xB PUSH1 0x0 CALLER PUSH20 0xFFFFFFFFFFFFFFFFFFFFFFFFFFFFFFFFFFFFFFFF AND PUSH20 0xFFFFFFFFFFFFFFFFFFFFFFFFFFFFFFFFFFFFFFFF AND DUP2 MSTORE PUSH1 0x20 ADD SWAP1 DUP2 MSTORE PUSH1 0x20 ADD PUSH1 0x0 KECCAK256 PUSH1 0x0 SWAP1 SLOAD SWAP1 PUSH2 0x100 EXP SWAP1 DIV PUSH1 0xFF AND PUSH2 0x2422 JUMPI PUSH1 0x0 DUP1 REVERT JUMPDEST PUSH1 0x1 PUSH1 0xA PUSH1 0x0 DUP5 PUSH20 0xFFFFFFFFFFFFFFFFFFFFFFFFFFFFFFFFFFFFFFFF AND PUSH20 0xFFFFFFFFFFFFFFFFFFFFFFFFFFFFFFFFFFFFFFFF AND DUP2 MSTORE PUSH1 0x20 ADD SWAP1 DUP2 MSTORE PUSH1 0x20 ADD PUSH1 0x0 KECCAK256 PUSH1 0x3 ADD SLOAD SUB PUSH2 0x2471 JUMPI PUSH1 0x0 DUP1 REVERT JUMPDEST CALLER PUSH1 0xA PUSH1 0x0 DUP5 PUSH20 0xFFFFFFFFFFFFFFFFFFFFFFFFFFFFFFFFFFFFFFFF AND PUSH20 0xFFFFFFFFFFFFFFFFFFFFFFFFFFFFFFFFFFFFFFFF AND DUP2 MSTORE PUSH1 0x20 ADD SWAP1 DUP2 MSTORE PUSH1 0x20 ADD PUSH1 0x0 KECCAK256 PUSH1 0x7 ADD PUSH1 0x0 PUSH2 0x100 EXP DUP2 SLOAD DUP2 PUSH20 0xFFFFFFFFFFFFFFFFFFFFFFFFFFFFFFFFFFFFFFFF MUL NOT AND SWAP1 DUP4 PUSH20 0xFFFFFFFFFFFFFFFFFFFFFFFFFFFFFFFFFFFFFFFF AND MUL OR SWAP1 SSTORE POP TIMESTAMP PUSH1 0xA PUSH1 0x0 DUP5 PUSH20 0xFFFFFFFFFFFFFFFFFFFFFFFFFFFFFFFFFFFFFFFF AND PUSH20 0xFFFFFFFFFFFFFFFFFFFFFFFFFFFFFFFFFFFFFFFF AND DUP2 MSTORE PUSH1 0x20 ADD SWAP1 DUP2 MSTORE PUSH1 0x20 ADD PUSH1 0x0 KECCAK256 PUSH1 0x8 ADD DUP2 SWAP1 SSTORE POP PUSH1 0x4 PUSH1 0xA PUSH1 0x0 DUP5 PUSH20 0xFFFFFFFFFFFFFFFFFFFFFFFFFFFFFFFFFFFFFFFF AND PUSH20 0xFFFFFFFFFFFFFFFFFFFFFFFFFFFFFFFFFFFFFFFF AND DUP2 MSTORE PUSH1 0x20 ADD SWAP1 DUP2 MSTORE PUSH1 0x20 ADD PUSH1 0x0 KECCAK256 PUSH1 0x3 ADD DUP2 SWAP1 SSTORE POP PUSH1 0x40 MLOAD DUP1 PUSH1 0x60 ADD PUSH1 0x40 MSTORE DUP1 PUSH1 0x22 DUP2 MSTORE PUSH1 0x20 ADD PUSH2 0x3E03 PUSH1 0x22 SWAP2 CODECOPY PUSH1 0xA PUSH1 0x0 DUP5 PUSH20 0xFFFFFFFFFFFFFFFFFFFFFFFFFFFFFFFFFFFFFFFF AND PUSH20 0xFFFFFFFFFFFFFFFFFFFFFFFFFFFFFFFFFFFFFFFF AND DUP2 MSTORE PUSH1 0x20 ADD SWAP1 DUP2 MSTORE PUSH1 0x20 ADD PUSH1 0x0 KECCAK256 PUSH1 0x2 ADD SWAP1 DUP2 PUSH2 0x25E8 SWAP2 SWAP1 PUSH2 0x3869 JUMP JUMPDEST POP PUSH32 0x291023100CFC44FBA59B279273F751E0FA64289217179D5C9835FC07AB5B1E4F PUSH1 0xA PUSH1 0x0 DUP5 PUSH20 0xFFFFFFFFFFFFFFFFFFFFFFFFFFFFFFFFFFFFFFFF AND PUSH20 0xFFFFFFFFFFFFFFFFFFFFFFFFFFFFFFFFFFFFFFFF AND DUP2 MSTORE PUSH1 0x20 ADD SWAP1 DUP2 MSTORE PUSH1 0x20 ADD PUSH1 0x0 KECCAK256 PUSH1 0x2 ADD PUSH1 0xA PUSH1 0x0 DUP6 PUSH20 0xFFFFFFFFFFFFFFFFFFFFFFFFFFFFFFFFFFFFFFFF AND PUSH20 0xFFFFFFFFFFFFFFFFFFFFFFFFFFFFFFFFFFFFFFFF AND DUP2 MSTORE PUSH1 0x20 ADD SWAP1 DUP2 MSTORE PUSH1 0x20 ADD PUSH1 0x0 KECCAK256 PUSH1 0x3 ADD SLOAD PUSH1 0xA PUSH1 0x0 DUP7 PUSH20 0xFFFFFFFFFFFFFFFFFFFFFFFFFFFFFFFFFFFFFFFF AND PUSH20 0xFFFFFFFFFFFFFFFFFFFFFFFFFFFFFFFFFFFFFFFF AND DUP2 MSTORE PUSH1 0x20 ADD SWAP1 DUP2 MSTORE PUSH1 0x20 ADD PUSH1 0x0 KECCAK256 PUSH1 0x6 ADD SLOAD PUSH1 0x40 MLOAD PUSH2 0x26E1 SWAP4 SWAP3 SWAP2 SWAP1 PUSH2 0x39BF JUMP JUMPDEST PUSH1 0x40 MLOAD DUP1 SWAP2 SUB SWAP1 LOG1 PUSH1 0x40 MLOAD DUP1 PUSH1 0x20 ADD PUSH1 0x40 MSTORE DUP1 PUSH1 0x0 DUP2 MSTORE POP SWAP1 POP SWAP2 SWAP1 POP JUMP JUMPDEST PUSH1 0x60 CALLER PUSH20 0xFFFFFFFFFFFFFFFFFFFFFFFFFFFFFFFFFFFFFFFF AND PUSH1 0x0 DUP1 SLOAD SWAP1 PUSH2 0x100 EXP SWAP1 DIV PUSH20 0xFFFFFFFFFFFFFFFFFFFFFFFFFFFFFFFFFFFFFFFF AND PUSH20 0xFFFFFFFFFFFFFFFFFFFFFFFFFFFFFFFFFFFFFFFF AND EQ PUSH2 0x275A JUMPI PUSH1 0x0 DUP1 REVERT JUMPDEST PUSH1 0xC PUSH1 0x0 DUP4 PUSH20 0xFFFFFFFFFFFFFFFFFFFFFFFFFFFFFFFFFFFFFFFF AND PUSH20 0xFFFFFFFFFFFFFFFFFFFFFFFFFFFFFFFFFFFFFFFF AND DUP2 MSTORE PUSH1 0x20 ADD SWAP1 DUP2 MSTORE PUSH1 0x20 ADD PUSH1 0x0 KECCAK256 PUSH1 0x0 SWAP1 SLOAD SWAP1 PUSH2 0x100 EXP SWAP1 DIV PUSH1 0xFF AND ISZERO PUSH2 0x2805 JUMPI PUSH1 0x0 PUSH1 0xC PUSH1 0x0 DUP5 PUSH20 0xFFFFFFFFFFFFFFFFFFFFFFFFFFFFFFFFFFFFFFFF AND PUSH20 0xFFFFFFFFFFFFFFFFFFFFFFFFFFFFFFFFFFFFFFFF AND DUP2 MSTORE PUSH1 0x20 ADD SWAP1 DUP2 MSTORE PUSH1 0x20 ADD PUSH1 0x0 KECCAK256 PUSH1 0x0 PUSH2 0x100 EXP DUP2 SLOAD DUP2 PUSH1 0xFF MUL NOT AND SWAP1 DUP4 ISZERO ISZERO MUL OR SWAP1 SSTORE POP JUMPDEST PUSH32 0xAB14ABF9CE720D4DFA04591DA5DE1EAD53E0C4FDADFCA225BAAEA81626567D4D DUP3 TIMESTAMP PUSH1 0x40 MLOAD PUSH2 0x2836 SWAP3 SWAP2 SWAP1 PUSH2 0x3CFB JUMP JUMPDEST PUSH1 0x40 MLOAD DUP1 SWAP2 SUB SWAP1 LOG1 PUSH1 0x40 MLOAD DUP1 PUSH1 0x40 ADD PUSH1 0x40 MSTORE DUP1 PUSH1 0x14 DUP2 MSTORE PUSH1 0x20 ADD PUSH32 0x4120646F63746F722069732072656D6F7665642E000000000000000000000000 DUP2 MSTORE POP SWAP1 POP SWAP2 SWAP1 POP JUMP JUMPDEST PUSH1 0x60 CALLER PUSH20 0xFFFFFFFFFFFFFFFFFFFFFFFFFFFFFFFFFFFFFFFF AND PUSH1 0x0 DUP1 SLOAD SWAP1 PUSH2 0x100 EXP SWAP1 DIV PUSH20 0xFFFFFFFFFFFFFFFFFFFFFFFFFFFFFFFFFFFFFFFF AND PUSH20 0xFFFFFFFFFFFFFFFFFFFFFFFFFFFFFFFFFFFFFFFF AND EQ PUSH2 0x28D5 JUMPI PUSH1 0x0 DUP1 REVERT JUMPDEST PUSH1 0xB PUSH1 0x0 DUP4 PUSH20 0xFFFFFFFFFFFFFFFFFFFFFFFFFFFFFFFFFFFFFFFF AND PUSH20 0xFFFFFFFFFFFFFFFFFFFFFFFFFFFFFFFFFFFFFFFF AND DUP2 MSTORE PUSH1 0x20 ADD SWAP1 DUP2 MSTORE PUSH1 0x20 ADD PUSH1 0x0 KECCAK256 PUSH1 0x0 SWAP1 SLOAD SWAP1 PUSH2 0x100 EXP SWAP1 DIV PUSH1 0xFF AND PUSH2 0x297F JUMPI PUSH1 0x1 PUSH1 0xB PUSH1 0x0 DUP5 PUSH20 0xFFFFFFFFFFFFFFFFFFFFFFFFFFFFFFFFFFFFFFFF AND PUSH20 0xFFFFFFFFFFFFFFFFFFFFFFFFFFFFFFFFFFFFFFFF AND DUP2 MSTORE PUSH1 0x20 ADD SWAP1 DUP2 MSTORE PUSH1 0x20 ADD PUSH1 0x0 KECCAK256 PUSH1 0x0 PUSH2 0x100 EXP DUP2 SLOAD DUP2 PUSH1 0xFF MUL NOT AND SWAP1 DUP4 ISZERO ISZERO MUL OR SWAP1 SSTORE POP JUMPDEST PUSH32 0x51AB0AD16F4F10B093A4B9BC75D760DC953842C743D54AE9FAA9B5AAE40659AA DUP3 TIMESTAMP PUSH1 0x40 MLOAD PUSH2 0x29B0 SWAP3 SWAP2 SWAP1 PUSH2 0x3D83 JUMP JUMPDEST PUSH1 0x40 MLOAD DUP1 SWAP2 SUB SWAP1 LOG1 PUSH1 0x40 MLOAD DUP1 PUSH1 0x40 ADD PUSH1 0x40 MSTORE DUP1 PUSH1 0x12 DUP2 MSTORE PUSH1 0x20 ADD PUSH32 0x4120646F63746F722069732061646465642E0000000000000000000000000000 DUP2 MSTORE POP SWAP1 POP SWAP2 SWAP1 POP JUMP JUMPDEST PUSH1 0x60 PUSH1 0xA PUSH1 0x0 DUP4 PUSH20 0xFFFFFFFFFFFFFFFFFFFFFFFFFFFFFFFFFFFFFFFF AND PUSH20 0xFFFFFFFFFFFFFFFFFFFFFFFFFFFFFFFFFFFFFFFF AND DUP2 MSTORE PUSH1 0x20 ADD SWAP1 DUP2 MSTORE PUSH1 0x20 ADD PUSH1 0x0 KECCAK256 PUSH1 0x0 ADD PUSH1 0x0 SWAP1 SLOAD SWAP1 PUSH2 0x100 EXP SWAP1 DIV PUSH1 0xFF AND PUSH2 0x2A50 JUMPI PUSH1 0x0 DUP1 REVERT JUMPDEST PUSH1 0xB PUSH1 0x0 CALLER PUSH20 0xFFFFFFFFFFFFFFFFFFFFFFFFFFFFFFFFFFFFFFFF AND PUSH20 0xFFFFFFFFFFFFFFFFFFFFFFFFFFFFFFFFFFFFFFFF AND DUP2 MSTORE PUSH1 0x20 ADD SWAP1 DUP2 MSTORE PUSH1 0x20 ADD PUSH1 0x0 KECCAK256 PUSH1 0x0 SWAP1 SLOAD SWAP1 PUSH2 0x100 EXP SWAP1 DIV PUSH1 0xFF AND DUP1 PUSH2 0x2AF1 JUMPI POP PUSH1 0xC PUSH1 0x0 CALLER PUSH20 0xFFFFFFFFFFFFFFFFFFFFFFFFFFFFFFFFFFFFFFFF AND PUSH20 0xFFFFFFFFFFFFFFFFFFFFFFFFFFFFFFFFFFFFFFFF AND DUP2 MSTORE PUSH1 0x20 ADD SWAP1 DUP2 MSTORE PUSH1 0x20 ADD PUSH1 0x0 KECCAK256 PUSH1 0x0 SWAP1 SLOAD SWAP1 PUSH2 0x100 EXP SWAP1 DIV PUSH1 0xFF AND JUMPDEST PUSH2 0x2B30 JUMPI PUSH1 0x40 MLOAD PUSH32 0x8C379A000000000000000000000000000000000000000000000000000000000 DUP2 MSTORE PUSH1 0x4 ADD PUSH2 0x2B27 SWAP1 PUSH2 0x369D JUMP JUMPDEST PUSH1 0x40 MLOAD DUP1 SWAP2 SUB SWAP1 REVERT JUMPDEST PUSH1 0x1 PUSH1 0xA PUSH1 0x0 DUP5 PUSH20 0xFFFFFFFFFFFFFFFFFFFFFFFFFFFFFFFFFFFFFFFF AND PUSH20 0xFFFFFFFFFFFFFFFFFFFFFFFFFFFFFFFFFFFFFFFF AND DUP2 MSTORE PUSH1 0x20 ADD SWAP1 DUP2 MSTORE PUSH1 0x20 ADD PUSH1 0x0 KECCAK256 PUSH1 0x3 ADD SLOAD SUB PUSH2 0x2B7F JUMPI PUSH1 0x0 DUP1 REVERT JUMPDEST CALLER PUSH1 0xA PUSH1 0x0 DUP5 PUSH20 0xFFFFFFFFFFFFFFFFFFFFFFFFFFFFFFFFFFFFFFFF AND PUSH20 0xFFFFFFFFFFFFFFFFFFFFFFFFFFFFFFFFFFFFFFFF AND DUP2 MSTORE PUSH1 0x20 ADD SWAP1 DUP2 MSTORE PUSH1 0x20 ADD PUSH1 0x0 KECCAK256 PUSH1 0x7 ADD PUSH1 0x0 PUSH2 0x100 EXP DUP2 SLOAD DUP2 PUSH20 0xFFFFFFFFFFFFFFFFFFFFFFFFFFFFFFFFFFFFFFFF MUL NOT AND SWAP1 DUP4 PUSH20 0xFFFFFFFFFFFFFFFFFFFFFFFFFFFFFFFFFFFFFFFF AND MUL OR SWAP1 SSTORE POP TIMESTAMP PUSH1 0xA PUSH1 0x0 DUP5 PUSH20 0xFFFFFFFFFFFFFFFFFFFFFFFFFFFFFFFFFFFFFFFF AND PUSH20 0xFFFFFFFFFFFFFFFFFFFFFFFFFFFFFFFFFFFFFFFF AND DUP2 MSTORE PUSH1 0x20 ADD SWAP1 DUP2 MSTORE PUSH1 0x20 ADD PUSH1 0x0 KECCAK256 PUSH1 0x8 ADD DUP2 SWAP1 SSTORE POP PUSH1 0x5 PUSH1 0xA PUSH1 0x0 DUP5 PUSH20 0xFFFFFFFFFFFFFFFFFFFFFFFFFFFFFFFFFFFFFFFF AND PUSH20 0xFFFFFFFFFFFFFFFFFFFFFFFFFFFFFFFFFFFFFFFF AND DUP2 MSTORE PUSH1 0x20 ADD SWAP1 DUP2 MSTORE PUSH1 0x20 ADD PUSH1 0x0 KECCAK256 PUSH1 0x3 ADD DUP2 SWAP1 SSTORE POP PUSH1 0x40 MLOAD DUP1 PUSH1 0x60 ADD PUSH1 0x40 MSTORE DUP1 PUSH1 0x21 DUP2 MSTORE PUSH1 0x20 ADD PUSH2 0x3DC0 PUSH1 0x21 SWAP2 CODECOPY PUSH1 0xA PUSH1 0x0 DUP5 PUSH20 0xFFFFFFFFFFFFFFFFFFFFFFFFFFFFFFFFFFFFFFFF AND PUSH20 0xFFFFFFFFFFFFFFFFFFFFFFFFFFFFFFFFFFFFFFFF AND DUP2 MSTORE PUSH1 0x20 ADD SWAP1 DUP2 MSTORE PUSH1 0x20 ADD PUSH1 0x0 KECCAK256 PUSH1 0x2 ADD SWAP1 DUP2 PUSH2 0x2CF6 SWAP2 SWAP1 PUSH2 0x3869 JUMP JUMPDEST POP PUSH32 0x49B37B6C2E1DA17DBF397324FE77F392778404DB069D7652D87FEB8E0BE2BB1D PUSH1 0xA PUSH1 0x0 DUP5 PUSH20 0xFFFFFFFFFFFFFFFFFFFFFFFFFFFFFFFFFFFFFFFF AND PUSH20 0xFFFFFFFFFFFFFFFFFFFFFFFFFFFFFFFFFFFFFFFF AND DUP2 MSTORE PUSH1 0x20 ADD SWAP1 DUP2 MSTORE PUSH1 0x20 ADD PUSH1 0x0 KECCAK256 PUSH1 0x2 ADD PUSH1 0xA PUSH1 0x0 DUP6 PUSH20 0xFFFFFFFFFFFFFFFFFFFFFFFFFFFFFFFFFFFFFFFF AND PUSH20 0xFFFFFFFFFFFFFFFFFFFFFFFFFFFFFFFFFFFFFFFF AND DUP2 MSTORE PUSH1 0x20 ADD SWAP1 DUP2 MSTORE PUSH1 0x20 ADD PUSH1 0x0 KECCAK256 PUSH1 0x3 ADD SLOAD PUSH1 0xA PUSH1 0x0 DUP7 PUSH20 0xFFFFFFFFFFFFFFFFFFFFFFFFFFFFFFFFFFFFFFFF AND PUSH20 0xFFFFFFFFFFFFFFFFFFFFFFFFFFFFFFFFFFFFFFFF AND DUP2 MSTORE PUSH1 0x20 ADD SWAP1 DUP2 MSTORE PUSH1 0x20 ADD PUSH1 0x0 KECCAK256 PUSH1 0x6 ADD SLOAD PUSH1 0x40 MLOAD PUSH2 0x2DEF SWAP4 SWAP3 SWAP2 SWAP1 PUSH2 0x39BF JUMP JUMPDEST PUSH1 0x40 MLOAD DUP1 SWAP2 SUB SWAP1 LOG1 PUSH1 0x40 MLOAD DUP1 PUSH1 0x20 ADD PUSH1 0x40 MSTORE DUP1 PUSH1 0x0 DUP2 MSTORE POP SWAP1 POP SWAP2 SWAP1 POP JUMP JUMPDEST PUSH1 0x60 PUSH1 0x1 ISZERO ISZERO PUSH1 0xA PUSH1 0x0 DUP5 PUSH20 0xFFFFFFFFFFFFFFFFFFFFFFFFFFFFFFFFFFFFFFFF AND PUSH20 0xFFFFFFFFFFFFFFFFFFFFFFFFFFFFFFFFFFFFFFFF AND DUP2 MSTORE PUSH1 0x20 ADD SWAP1 DUP2 MSTORE PUSH1 0x20 ADD PUSH1 0x0 KECCAK256 PUSH1 0x0 ADD PUSH1 0x0 SWAP1 SLOAD SWAP1 PUSH2 0x100 EXP SWAP1 DIV PUSH1 0xFF AND ISZERO ISZERO EQ PUSH2 0x2E70 JUMPI PUSH1 0x0 DUP1 REVERT JUMPDEST CALLER PUSH20 0xFFFFFFFFFFFFFFFFFFFFFFFFFFFFFFFFFFFFFFFF AND PUSH1 0xA PUSH1 0x0 DUP5 PUSH20 0xFFFFFFFFFFFFFFFFFFFFFFFFFFFFFFFFFFFFFFFF AND PUSH20 0xFFFFFFFFFFFFFFFFFFFFFFFFFFFFFFFFFFFFFFFF AND DUP2 MSTORE PUSH1 0x20 ADD SWAP1 DUP2 MSTORE PUSH1 0x20 ADD PUSH1 0x0 KECCAK256 PUSH1 0x5 ADD PUSH1 0x0 SWAP1 SLOAD SWAP1 PUSH2 0x100 EXP SWAP1 DIV PUSH20 0xFFFFFFFFFFFFFFFFFFFFFFFFFFFFFFFFFFFFFFFF AND PUSH20 0xFFFFFFFFFFFFFFFFFFFFFFFFFFFFFFFFFFFFFFFF AND EQ PUSH2 0x2F0A JUMPI PUSH1 0x0 DUP1 REVERT JUMPDEST PUSH1 0x1 PUSH1 0xA PUSH1 0x0 DUP5 PUSH20 0xFFFFFFFFFFFFFFFFFFFFFFFFFFFFFFFFFFFFFFFF AND PUSH20 0xFFFFFFFFFFFFFFFFFFFFFFFFFFFFFFFFFFFFFFFF AND DUP2 MSTORE PUSH1 0x20 ADD SWAP1 DUP2 MSTORE PUSH1 0x20 ADD PUSH1 0x0 KECCAK256 PUSH1 0x3 ADD SLOAD SUB PUSH2 0x2F59 JUMPI PUSH1 0x0 DUP1 REVERT JUMPDEST TIMESTAMP PUSH1 0xA PUSH1 0x0 DUP5 PUSH20 0xFFFFFFFFFFFFFFFFFFFFFFFFFFFFFFFFFFFFFFFF AND PUSH20 0xFFFFFFFFFFFFFFFFFFFFFFFFFFFFFFFFFFFFFFFF AND DUP2 MSTORE PUSH1 0x20 ADD SWAP1 DUP2 MSTORE PUSH1 0x20 ADD PUSH1 0x0 KECCAK256 PUSH1 0x6 ADD DUP2 SWAP1 SSTORE POP PUSH1 0x4 PUSH1 0xA PUSH1 0x0 DUP5 PUSH20 0xFFFFFFFFFFFFFFFFFFFFFFFFFFFFFFFFFFFFFFFF AND PUSH20 0xFFFFFFFFFFFFFFFFFFFFFFFFFFFFFFFFFFFFFFFF AND DUP2 MSTORE PUSH1 0x20 ADD SWAP1 DUP2 MSTORE PUSH1 0x20 ADD PUSH1 0x0 KECCAK256 PUSH1 0x3 ADD DUP2 SWAP1 SSTORE POP PUSH1 0x40 MLOAD DUP1 PUSH1 0x40 ADD PUSH1 0x40 MSTORE DUP1 PUSH1 0x1D DUP2 MSTORE PUSH1 0x20 ADD PUSH32 0x5265636F7264206973207072696E7465642062792070617469656E742E000000 DUP2 MSTORE POP PUSH1 0xA PUSH1 0x0 DUP5 PUSH20 0xFFFFFFFFFFFFFFFFFFFFFFFFFFFFFFFFFFFFFFFF AND PUSH20 0xFFFFFFFFFFFFFFFFFFFFFFFFFFFFFFFFFFFFFFFF AND DUP2 MSTORE PUSH1 0x20 ADD SWAP1 DUP2 MSTORE PUSH1 0x20 ADD PUSH1 0x0 KECCAK256 PUSH1 0x2 ADD SWAP1 DUP2 PUSH2 0x306C SWAP2 SWAP1 PUSH2 0x3869 JUMP JUMPDEST POP PUSH32 0xDDAA844CC6AE769766C27824C8E5C94B60683CEE90D23F0A99F33B2B243A1FDE PUSH1 0xA PUSH1 0x0 DUP5 PUSH20 0xFFFFFFFFFFFFFFFFFFFFFFFFFFFFFFFFFFFFFFFF AND PUSH20 0xFFFFFFFFFFFFFFFFFFFFFFFFFFFFFFFFFFFFFFFF AND DUP2 MSTORE PUSH1 0x20 ADD SWAP1 DUP2 MSTORE PUSH1 0x20 ADD PUSH1 0x0 KECCAK256 PUSH1 0x2 ADD PUSH1 0xA PUSH1 0x0 DUP6 PUSH20 0xFFFFFFFFFFFFFFFFFFFFFFFFFFFFFFFFFFFFFFFF AND PUSH20 0xFFFFFFFFFFFFFFFFFFFFFFFFFFFFFFFFFFFFFFFF AND DUP2 MSTORE PUSH1 0x20 ADD SWAP1 DUP2 MSTORE PUSH1 0x20 ADD PUSH1 0x0 KECCAK256 PUSH1 0x3 ADD SLOAD PUSH1 0xA PUSH1 0x0 DUP7 PUSH20 0xFFFFFFFFFFFFFFFFFFFFFFFFFFFFFFFFFFFFFFFF AND PUSH20 0xFFFFFFFFFFFFFFFFFFFFFFFFFFFFFFFFFFFFFFFF AND DUP2 MSTORE PUSH1 0x20 ADD SWAP1 DUP2 MSTORE PUSH1 0x20 ADD PUSH1 0x0 KECCAK256 PUSH1 0x6 ADD SLOAD PUSH1 0x40 MLOAD PUSH2 0x3165 SWAP4 SWAP3 SWAP2 SWAP1 PUSH2 0x39BF JUMP JUMPDEST PUSH1 0x40 MLOAD DUP1 SWAP2 SUB SWAP1 LOG1 PUSH1 0x40 MLOAD DUP1 PUSH1 0x20 ADD PUSH1 0x40 MSTORE DUP1 PUSH1 0x0 DUP2 MSTORE POP SWAP1 POP SWAP2 SWAP1 POP JUMP JUMPDEST PUSH1 0x0 PUSH1 0x40 MLOAD SWAP1 POP SWAP1 JUMP JUMPDEST PUSH1 0x0 DUP1 REVERT JUMPDEST PUSH1 0x0 DUP1 REVERT JUMPDEST PUSH1 0x0 PUSH20 0xFFFFFFFFFFFFFFFFFFFFFFFFFFFFFFFFFFFFFFFF DUP3 AND SWAP1 POP SWAP2 SWAP1 POP JUMP JUMPDEST PUSH1 0x0 PUSH2 0x31C3 DUP3 PUSH2 0x3198 JUMP JUMPDEST SWAP1 POP SWAP2 SWAP1 POP JUMP JUMPDEST PUSH2 0x31D3 DUP2 PUSH2 0x31B8 JUMP JUMPDEST DUP2 EQ PUSH2 0x31DE JUMPI PUSH1 0x0 DUP1 REVERT JUMPDEST POP JUMP JUMPDEST PUSH1 0x0 DUP2 CALLDATALOAD SWAP1 POP PUSH2 0x31F0 DUP2 PUSH2 0x31CA JUMP JUMPDEST SWAP3 SWAP2 POP POP JUMP JUMPDEST PUSH1 0x0 PUSH1 0x20 DUP3 DUP5 SUB SLT ISZERO PUSH2 0x320C JUMPI PUSH2 0x320B PUSH2 0x318E JUMP JUMPDEST JUMPDEST PUSH1 0x0 PUSH2 0x321A DUP5 DUP3 DUP6 ADD PUSH2 0x31E1 JUMP JUMPDEST SWAP2 POP POP SWAP3 SWAP2 POP POP JUMP JUMPDEST PUSH1 0x0 DUP2 MLOAD SWAP1 POP SWAP2 SWAP1 POP JUMP JUMPDEST PUSH1 0x0 DUP3 DUP3 MSTORE PUSH1 0x20 DUP3 ADD SWAP1 POP SWAP3 SWAP2 POP POP JUMP JUMPDEST PUSH1 0x0 JUMPDEST DUP4 DUP2 LT ISZERO PUSH2 0x325D JUMPI DUP1 DUP3 ADD MLOAD DUP2 DUP5 ADD MSTORE PUSH1 0x20 DUP2 ADD SWAP1 POP PUSH2 0x3242 JUMP JUMPDEST PUSH1 0x0 DUP5 DUP5 ADD MSTORE POP POP POP POP JUMP JUMPDEST PUSH1 0x0 PUSH1 0x1F NOT PUSH1 0x1F DUP4 ADD AND SWAP1 POP SWAP2 SWAP1 POP JUMP JUMPDEST PUSH1 0x0 PUSH2 0x3285 DUP3 PUSH2 0x3223 JUMP JUMPDEST PUSH2 0x328F DUP2 DUP6 PUSH2 0x322E JUMP JUMPDEST SWAP4 POP PUSH2 0x329F DUP2 DUP6 PUSH1 0x20 DUP7 ADD PUSH2 0x323F JUMP JUMPDEST PUSH2 0x32A8 DUP2 PUSH2 0x3269 JUMP JUMPDEST DUP5 ADD SWAP2 POP POP SWAP3 SWAP2 POP POP JUMP JUMPDEST PUSH1 0x0 PUSH1 0x20 DUP3 ADD SWAP1 POP DUP2 DUP2 SUB PUSH1 0x0 DUP4 ADD MSTORE PUSH2 0x32CD DUP2 DUP5 PUSH2 0x327A JUMP JUMPDEST SWAP1 POP SWAP3 SWAP2 POP POP JUMP JUMPDEST PUSH1 0x0 DUP2 ISZERO ISZERO SWAP1 POP SWAP2 SWAP1 POP JUMP JUMPDEST PUSH2 0x32EA DUP2 PUSH2 0x32D5 JUMP JUMPDEST DUP3 MSTORE POP POP JUMP JUMPDEST PUSH1 0x0 DUP2 SWAP1 POP SWAP2 SWAP1 POP JUMP JUMPDEST PUSH2 0x3303 DUP2 PUSH2 0x32F0 JUMP JUMPDEST DUP3 MSTORE POP POP JUMP JUMPDEST PUSH2 0x3312 DUP2 PUSH2 0x31B8 JUMP JUMPDEST DUP3 MSTORE POP POP JUMP JUMPDEST PUSH1 0x0 PUSH2 0x160 DUP3 ADD SWAP1 POP PUSH2 0x332E PUSH1 0x0 DUP4 ADD DUP15 PUSH2 0x32E1 JUMP JUMPDEST PUSH2 0x333B PUSH1 0x20 DUP4 ADD DUP14 PUSH2 0x32FA JUMP JUMPDEST DUP2 DUP2 SUB PUSH1 0x40 DUP4 ADD MSTORE PUSH2 0x334D DUP2 DUP13 PUSH2 0x327A JUMP JUMPDEST SWAP1 POP PUSH2 0x335C PUSH1 0x60 DUP4 ADD DUP12 PUSH2 0x32FA JUMP JUMPDEST DUP2 DUP2 SUB PUSH1 0x80 DUP4 ADD MSTORE PUSH2 0x336E DUP2 DUP11 PUSH2 0x327A JUMP JUMPDEST SWAP1 POP PUSH2 0x337D PUSH1 0xA0 DUP4 ADD DUP10 PUSH2 0x3309 JUMP JUMPDEST PUSH2 0x338A PUSH1 0xC0 DUP4 ADD DUP9 PUSH2 0x32FA JUMP JUMPDEST PUSH2 0x3397 PUSH1 0xE0 DUP4 ADD DUP8 PUSH2 0x3309 JUMP JUMPDEST PUSH2 0x33A5 PUSH2 0x100 DUP4 ADD DUP7 PUSH2 0x32FA JUMP JUMPDEST PUSH2 0x33B3 PUSH2 0x120 DUP4 ADD DUP6 PUSH2 0x3309 JUMP JUMPDEST PUSH2 0x33C1 PUSH2 0x140 DUP4 ADD DUP5 PUSH2 0x32FA JUMP JUMPDEST SWAP13 SWAP12 POP POP POP POP POP POP POP POP POP POP POP POP JUMP JUMPDEST PUSH1 0x0 DUP1 REVERT JUMPDEST PUSH1 0x0 DUP1 REVERT JUMPDEST PUSH32 0x4E487B7100000000000000000000000000000000000000000000000000000000 PUSH1 0x0 MSTORE PUSH1 0x41 PUSH1 0x4 MSTORE PUSH1 0x24 PUSH1 0x0 REVERT JUMPDEST PUSH2 0x3413 DUP3 PUSH2 0x3269 JUMP JUMPDEST DUP2 ADD DUP2 DUP2 LT PUSH8 0xFFFFFFFFFFFFFFFF DUP3 GT OR ISZERO PUSH2 0x3432 JUMPI PUSH2 0x3431 PUSH2 0x33DB JUMP JUMPDEST JUMPDEST DUP1 PUSH1 0x40 MSTORE POP POP POP JUMP JUMPDEST PUSH1 0x0 PUSH2 0x3445 PUSH2 0x3184 JUMP JUMPDEST SWAP1 POP PUSH2 0x3451 DUP3 DUP3 PUSH2 0x340A JUMP JUMPDEST SWAP2 SWAP1 POP JUMP JUMPDEST PUSH1 0x0 PUSH8 0xFFFFFFFFFFFFFFFF DUP3 GT ISZERO PUSH2 0x3471 JUMPI PUSH2 0x3470 PUSH2 0x33DB JUMP JUMPDEST JUMPDEST PUSH2 0x347A DUP3 PUSH2 0x3269 JUMP JUMPDEST SWAP1 POP PUSH1 0x20 DUP2 ADD SWAP1 POP SWAP2 SWAP1 POP JUMP JUMPDEST DUP3 DUP2 DUP4 CALLDATACOPY PUSH1 0x0 DUP4 DUP4 ADD MSTORE POP POP POP JUMP JUMPDEST PUSH1 0x0 PUSH2 0x34A9 PUSH2 0x34A4 DUP5 PUSH2 0x3456 JUMP JUMPDEST PUSH2 0x343B JUMP JUMPDEST SWAP1 POP DUP3 DUP2 MSTORE PUSH1 0x20 DUP2 ADD DUP5 DUP5 DUP5 ADD GT ISZERO PUSH2 0x34C5 JUMPI PUSH2 0x34C4 PUSH2 0x33D6 JUMP JUMPDEST JUMPDEST PUSH2 0x34D0 DUP5 DUP3 DUP6 PUSH2 0x3487 JUMP JUMPDEST POP SWAP4 SWAP3 POP POP POP JUMP JUMPDEST PUSH1 0x0 DUP3 PUSH1 0x1F DUP4 ADD SLT PUSH2 0x34ED JUMPI PUSH2 0x34EC PUSH2 0x33D1 JUMP JUMPDEST JUMPDEST DUP2 CALLDATALOAD PUSH2 0x34FD DUP5 DUP3 PUSH1 0x20 DUP7 ADD PUSH2 0x3496 JUMP JUMPDEST SWAP2 POP POP SWAP3 SWAP2 POP POP JUMP JUMPDEST PUSH1 0x0 DUP1 PUSH1 0x40 DUP4 DUP6 SUB SLT ISZERO PUSH2 0x351D JUMPI PUSH2 0x351C PUSH2 0x318E JUMP JUMPDEST JUMPDEST PUSH1 0x0 PUSH2 0x352B DUP6 DUP3 DUP7 ADD PUSH2 0x31E1 JUMP JUMPDEST SWAP3 POP POP PUSH1 0x20 DUP4 ADD CALLDATALOAD PUSH8 0xFFFFFFFFFFFFFFFF DUP2 GT ISZERO PUSH2 0x354C JUMPI PUSH2 0x354B PUSH2 0x3193 JUMP JUMPDEST JUMPDEST PUSH2 0x3558 DUP6 DUP3 DUP7 ADD PUSH2 0x34D8 JUMP JUMPDEST SWAP2 POP POP SWAP3 POP SWAP3 SWAP1 POP JUMP JUMPDEST PUSH1 0x0 PUSH1 0x20 DUP3 ADD SWAP1 POP PUSH2 0x3577 PUSH1 0x0 DUP4 ADD DUP5 PUSH2 0x32E1 JUMP JUMPDEST SWAP3 SWAP2 POP POP JUMP JUMPDEST PUSH2 0x3586 DUP2 PUSH2 0x32F0 JUMP JUMPDEST DUP2 EQ PUSH2 0x3591 JUMPI PUSH1 0x0 DUP1 REVERT JUMPDEST POP JUMP JUMPDEST PUSH1 0x0 DUP2 CALLDATALOAD SWAP1 POP PUSH2 0x35A3 DUP2 PUSH2 0x357D JUMP JUMPDEST SWAP3 SWAP2 POP POP JUMP JUMPDEST PUSH1 0x0 PUSH1 0x20 DUP3 DUP5 SUB SLT ISZERO PUSH2 0x35BF JUMPI PUSH2 0x35BE PUSH2 0x318E JUMP JUMPDEST JUMPDEST PUSH1 0x0 PUSH2 0x35CD DUP5 DUP3 DUP6 ADD PUSH2 0x3594 JUMP JUMPDEST SWAP2 POP POP SWAP3 SWAP2 POP POP JUMP JUMPDEST PUSH1 0x0 PUSH1 0x20 DUP3 ADD SWAP1 POP PUSH2 0x35EB PUSH1 0x0 DUP4 ADD DUP5 PUSH2 0x3309 JUMP JUMPDEST SWAP3 SWAP2 POP POP JUMP JUMPDEST PUSH32 0x4E487B7100000000000000000000000000000000000000000000000000000000 PUSH1 0x0 MSTORE PUSH1 0x22 PUSH1 0x4 MSTORE PUSH1 0x24 PUSH1 0x0 REVERT JUMPDEST PUSH1 0x0 PUSH1 0x2 DUP3 DIV SWAP1 POP PUSH1 0x1 DUP3 AND DUP1 PUSH2 0x3638 JUMPI PUSH1 0x7F DUP3 AND SWAP2 POP JUMPDEST PUSH1 0x20 DUP3 LT DUP2 SUB PUSH2 0x364B JUMPI PUSH2 0x364A PUSH2 0x35F1 JUMP JUMPDEST JUMPDEST POP SWAP2 SWAP1 POP JUMP JUMPDEST PUSH32 0x4E6F7420776F726B696E67000000000000000000000000000000000000000000 PUSH1 0x0 DUP3 ADD MSTORE POP JUMP JUMPDEST PUSH1 0x0 PUSH2 0x3687 PUSH1 0xB DUP4 PUSH2 0x322E JUMP JUMPDEST SWAP2 POP PUSH2 0x3692 DUP3 PUSH2 0x3651 JUMP JUMPDEST PUSH1 0x20 DUP3 ADD SWAP1 POP SWAP2 SWAP1 POP JUMP JUMPDEST PUSH1 0x0 PUSH1 0x20 DUP3 ADD SWAP1 POP DUP2 DUP2 SUB PUSH1 0x0 DUP4 ADD MSTORE PUSH2 0x36B6 DUP2 PUSH2 0x367A JUMP JUMPDEST SWAP1 POP SWAP2 SWAP1 POP JUMP JUMPDEST PUSH1 0x0 DUP2 SWAP1 POP DUP2 PUSH1 0x0 MSTORE PUSH1 0x20 PUSH1 0x0 KECCAK256 SWAP1 POP SWAP2 SWAP1 POP JUMP JUMPDEST PUSH1 0x0 PUSH1 0x20 PUSH1 0x1F DUP4 ADD DIV SWAP1 POP SWAP2 SWAP1 POP JUMP JUMPDEST PUSH1 0x0 DUP3 DUP3 SHL SWAP1 POP SWAP3 SWAP2 POP POP JUMP JUMPDEST PUSH1 0x0 PUSH1 0x8 DUP4 MUL PUSH2 0x371F PUSH32 0xFFFFFFFFFFFFFFFFFFFFFFFFFFFFFFFFFFFFFFFFFFFFFFFFFFFFFFFFFFFFFFFF DUP3 PUSH2 0x36E2 JUMP JUMPDEST PUSH2 0x3729 DUP7 DUP4 PUSH2 0x36E2 JUMP JUMPDEST SWAP6 POP DUP1 NOT DUP5 AND SWAP4 POP DUP1 DUP7 AND DUP5 OR SWAP3 POP POP POP SWAP4 SWAP3 POP POP POP JUMP JUMPDEST PUSH1 0x0 DUP2 SWAP1 POP SWAP2 SWAP1 POP JUMP JUMPDEST PUSH1 0x0 PUSH2 0x3766 PUSH2 0x3761 PUSH2 0x375C DUP5 PUSH2 0x32F0 JUMP JUMPDEST PUSH2 0x3741 JUMP JUMPDEST PUSH2 0x32F0 JUMP JUMPDEST SWAP1 POP SWAP2 SWAP1 POP JUMP JUMPDEST PUSH1 0x0 DUP2 SWAP1 POP SWAP2 SWAP1 POP JUMP JUMPDEST PUSH2 0x3780 DUP4 PUSH2 0x374B JUMP JUMPDEST PUSH2 0x3794 PUSH2 0x378C DUP3 PUSH2 0x376D JUMP JUMPDEST DUP5 DUP5 SLOAD PUSH2 0x36EF JUMP JUMPDEST DUP3 SSTORE POP POP POP POP JUMP JUMPDEST PUSH1 0x0 SWAP1 JUMP JUMPDEST PUSH2 0x37A9 PUSH2 0x379C JUMP JUMPDEST PUSH2 0x37B4 DUP2 DUP5 DUP5 PUSH2 0x3777 JUMP JUMPDEST POP POP POP JUMP JUMPDEST JUMPDEST DUP2 DUP2 LT ISZERO PUSH2 0x37D8 JUMPI PUSH2 0x37CD PUSH1 0x0 DUP3 PUSH2 0x37A1 JUMP JUMPDEST PUSH1 0x1 DUP2 ADD SWAP1 POP PUSH2 0x37BA JUMP JUMPDEST POP POP JUMP JUMPDEST PUSH1 0x1F DUP3 GT ISZERO PUSH2 0x381D JUMPI PUSH2 0x37EE DUP2 PUSH2 0x36BD JUMP JUMPDEST PUSH2 0x37F7 DUP5 PUSH2 0x36D2 JUMP JUMPDEST DUP2 ADD PUSH1 0x20 DUP6 LT ISZERO PUSH2 0x3806 JUMPI DUP2 SWAP1 POP JUMPDEST PUSH2 0x381A PUSH2 0x3812 DUP6 PUSH2 0x36D2 JUMP JUMPDEST DUP4 ADD DUP3 PUSH2 0x37B9 JUMP JUMPDEST POP POP JUMPDEST POP POP POP JUMP JUMPDEST PUSH1 0x0 DUP3 DUP3 SHR SWAP1 POP SWAP3 SWAP2 POP POP JUMP JUMPDEST PUSH1 0x0 PUSH2 0x3840 PUSH1 0x0 NOT DUP5 PUSH1 0x8 MUL PUSH2 0x3822 JUMP JUMPDEST NOT DUP1 DUP4 AND SWAP2 POP POP SWAP3 SWAP2 POP POP JUMP JUMPDEST PUSH1 0x0 PUSH2 0x3859 DUP4 DUP4 PUSH2 0x382F JUMP JUMPDEST SWAP2 POP DUP3 PUSH1 0x2 MUL DUP3 OR SWAP1 POP SWAP3 SWAP2 POP POP JUMP JUMPDEST PUSH2 0x3872 DUP3 PUSH2 0x3223 JUMP JUMPDEST PUSH8 0xFFFFFFFFFFFFFFFF DUP2 GT ISZERO PUSH2 0x388B JUMPI PUSH2 0x388A PUSH2 0x33DB JUMP JUMPDEST JUMPDEST PUSH2 0x3895 DUP3 SLOAD PUSH2 0x3620 JUMP JUMPDEST PUSH2 0x38A0 DUP3 DUP3 DUP6 PUSH2 0x37DC JUMP JUMPDEST PUSH1 0x0 PUSH1 0x20 SWAP1 POP PUSH1 0x1F DUP4 GT PUSH1 0x1 DUP2 EQ PUSH2 0x38D3 JUMPI PUSH1 0x0 DUP5 ISZERO PUSH2 0x38C1 JUMPI DUP3 DUP8 ADD MLOAD SWAP1 POP JUMPDEST PUSH2 0x38CB DUP6 DUP3 PUSH2 0x384D JUMP JUMPDEST DUP7 SSTORE POP PUSH2 0x3933 JUMP JUMPDEST PUSH1 0x1F NOT DUP5 AND PUSH2 0x38E1 DUP7 PUSH2 0x36BD JUMP JUMPDEST PUSH1 0x0 JUMPDEST DUP3 DUP2 LT ISZERO PUSH2 0x3909 JUMPI DUP5 DUP10 ADD MLOAD DUP3 SSTORE PUSH1 0x1 DUP3 ADD SWAP2 POP PUSH1 0x20 DUP6 ADD SWAP5 POP PUSH1 0x20 DUP2 ADD SWAP1 POP PUSH2 0x38E4 JUMP JUMPDEST DUP7 DUP4 LT ISZERO PUSH2 0x3926 JUMPI DUP5 DUP10 ADD MLOAD PUSH2 0x3922 PUSH1 0x1F DUP10 AND DUP3 PUSH2 0x382F JUMP JUMPDEST DUP4 SSTORE POP JUMPDEST PUSH1 0x1 PUSH1 0x2 DUP9 MUL ADD DUP9 SSTORE POP POP POP JUMPDEST POP POP POP POP POP POP JUMP JUMPDEST PUSH1 0x0 DUP2 SLOAD PUSH2 0x3948 DUP2 PUSH2 0x3620 JUMP JUMPDEST PUSH2 0x3952 DUP2 DUP7 PUSH2 0x322E JUMP JUMPDEST SWAP5 POP PUSH1 0x1 DUP3 AND PUSH1 0x0 DUP2 EQ PUSH2 0x396D JUMPI PUSH1 0x1 DUP2 EQ PUSH2 0x3983 JUMPI PUSH2 0x39B6 JUMP JUMPDEST PUSH1 0xFF NOT DUP4 AND DUP7 MSTORE DUP2 ISZERO ISZERO PUSH1 0x20 MUL DUP7 ADD SWAP4 POP PUSH2 0x39B6 JUMP JUMPDEST PUSH2 0x398C DUP6 PUSH2 0x36BD JUMP JUMPDEST PUSH1 0x0 JUMPDEST DUP4 DUP2 LT ISZERO PUSH2 0x39AE JUMPI DUP2 SLOAD DUP2 DUP10 ADD MSTORE PUSH1 0x1 DUP3 ADD SWAP2 POP PUSH1 0x20 DUP2 ADD SWAP1 POP PUSH2 0x398F JUMP JUMPDEST DUP1 DUP9 ADD SWAP6 POP POP POP JUMPDEST POP POP POP SWAP3 SWAP2 POP POP JUMP JUMPDEST PUSH1 0x0 PUSH1 0x60 DUP3 ADD SWAP1 POP DUP2 DUP2 SUB PUSH1 0x0 DUP4 ADD MSTORE PUSH2 0x39D9 DUP2 DUP7 PUSH2 0x393B JUMP JUMPDEST SWAP1 POP PUSH2 0x39E8 PUSH1 0x20 DUP4 ADD DUP6 PUSH2 0x32FA JUMP JUMPDEST PUSH2 0x39F5 PUSH1 0x40 DUP4 ADD DUP5 PUSH2 0x32FA JUMP JUMPDEST SWAP5 SWAP4 POP POP POP POP JUMP JUMPDEST PUSH32 0x4120646F63746F722069732072656D6F7665642E000000000000000000000000 PUSH1 0x0 DUP3 ADD MSTORE POP JUMP JUMPDEST PUSH1 0x0 PUSH2 0x3A33 PUSH1 0x14 DUP4 PUSH2 0x322E JUMP JUMPDEST SWAP2 POP PUSH2 0x3A3E DUP3 PUSH2 0x39FD JUMP JUMPDEST PUSH1 0x20 DUP3 ADD SWAP1 POP SWAP2 SWAP1 POP JUMP JUMPDEST PUSH1 0x0 PUSH1 0x60 DUP3 ADD SWAP1 POP DUP2 DUP2 SUB PUSH1 0x0 DUP4 ADD MSTORE PUSH2 0x3A62 DUP2 PUSH2 0x3A26 JUMP JUMPDEST SWAP1 POP PUSH2 0x3A71 PUSH1 0x20 DUP4 ADD DUP6 PUSH2 0x3309 JUMP JUMPDEST PUSH2 0x3A7E PUSH1 0x40 DUP4 ADD DUP5 PUSH2 0x32FA JUMP JUMPDEST SWAP4 SWAP3 POP POP POP JUMP JUMPDEST PUSH32 0x416E2061756469742069732061646465642E0000000000000000000000000000 PUSH1 0x0 DUP3 ADD MSTORE POP JUMP JUMPDEST PUSH1 0x0 PUSH2 0x3ABB PUSH1 0x12 DUP4 PUSH2 0x322E JUMP JUMPDEST SWAP2 POP PUSH2 0x3AC6 DUP3 PUSH2 0x3A85 JUMP JUMPDEST PUSH1 0x20 DUP3 ADD SWAP1 POP SWAP2 SWAP1 POP JUMP JUMPDEST PUSH1 0x0 PUSH1 0x60 DUP3 ADD SWAP1 POP DUP2 DUP2 SUB PUSH1 0x0 DUP4 ADD MSTORE PUSH2 0x3AEA DUP2 PUSH2 0x3AAE JUMP JUMPDEST SWAP1 POP PUSH2 0x3AF9 PUSH1 0x20 DUP4 ADD DUP6 PUSH2 0x3309 JUMP JUMPDEST PUSH2 0x3B06 PUSH1 0x40 DUP4 ADD DUP5 PUSH2 0x32FA JUMP JUMPDEST SWAP4 SWAP3 POP POP POP JUMP JUMPDEST PUSH1 0x0 DUP2 PUSH1 0x60 SHL SWAP1 POP SWAP2 SWAP1 POP JUMP JUMPDEST PUSH1 0x0 PUSH2 0x3B25 DUP3 PUSH2 0x3B0D JUMP JUMPDEST SWAP1 POP SWAP2 SWAP1 POP JUMP JUMPDEST PUSH1 0x0 PUSH2 0x3B37 DUP3 PUSH2 0x3B1A JUMP JUMPDEST SWAP1 POP SWAP2 SWAP1 POP JUMP JUMPDEST PUSH2 0x3B4F PUSH2 0x3B4A DUP3 PUSH2 0x31B8 JUMP JUMPDEST PUSH2 0x3B2C JUMP JUMPDEST DUP3 MSTORE POP POP JUMP JUMPDEST PUSH1 0x0 DUP2 SWAP1 POP SWAP2 SWAP1 POP JUMP JUMPDEST PUSH2 0x3B70 PUSH2 0x3B6B DUP3 PUSH2 0x32F0 JUMP JUMPDEST PUSH2 0x3B55 JUMP JUMPDEST DUP3 MSTORE POP POP JUMP JUMPDEST PUSH1 0x0 PUSH2 0x3B82 DUP3 DUP6 PUSH2 0x3B3E JUMP JUMPDEST PUSH1 0x14 DUP3 ADD SWAP2 POP PUSH2 0x3B92 DUP3 DUP5 PUSH2 0x3B5F JUMP JUMPDEST PUSH1 0x20 DUP3 ADD SWAP2 POP DUP2 SWAP1 POP SWAP4 SWAP3 POP POP POP JUMP JUMPDEST PUSH1 0x0 DUP2 MLOAD SWAP1 POP SWAP2 SWAP1 POP JUMP JUMPDEST PUSH1 0x0 DUP2 SWAP1 POP SWAP3 SWAP2 POP POP JUMP JUMPDEST PUSH1 0x0 PUSH2 0x3BC3 DUP3 PUSH2 0x3BA2 JUMP JUMPDEST PUSH2 0x3BCD DUP2 DUP6 PUSH2 0x3BAD JUMP JUMPDEST SWAP4 POP PUSH2 0x3BDD DUP2 DUP6 PUSH1 0x20 DUP7 ADD PUSH2 0x323F JUMP JUMPDEST DUP1 DUP5 ADD SWAP2 POP POP SWAP3 SWAP2 POP POP JUMP JUMPDEST PUSH1 0x0 PUSH2 0x3BF5 DUP3 DUP5 PUSH2 0x3BB8 JUMP JUMPDEST SWAP2 POP DUP2 SWAP1 POP SWAP3 SWAP2 POP POP JUMP JUMPDEST PUSH1 0x0 DUP2 SWAP1 POP SWAP2 SWAP1 POP JUMP JUMPDEST PUSH2 0x3C13 DUP2 PUSH2 0x3C00 JUMP JUMPDEST DUP2 EQ PUSH2 0x3C1E JUMPI PUSH1 0x0 DUP1 REVERT JUMPDEST POP JUMP JUMPDEST PUSH1 0x0 DUP2 MLOAD SWAP1 POP PUSH2 0x3C30 DUP2 PUSH2 0x3C0A JUMP JUMPDEST SWAP3 SWAP2 POP POP JUMP JUMPDEST PUSH1 0x0 PUSH1 0x20 DUP3 DUP5 SUB SLT ISZERO PUSH2 0x3C4C JUMPI PUSH2 0x3C4B PUSH2 0x318E JUMP JUMPDEST JUMPDEST PUSH1 0x0 PUSH2 0x3C5A DUP5 DUP3 DUP6 ADD PUSH2 0x3C21 JUMP JUMPDEST SWAP2 POP POP SWAP3 SWAP2 POP POP JUMP JUMPDEST PUSH1 0x0 PUSH1 0x80 DUP3 ADD SWAP1 POP PUSH2 0x3C78 PUSH1 0x0 DUP4 ADD DUP8 PUSH2 0x3309 JUMP JUMPDEST DUP2 DUP2 SUB PUSH1 0x20 DUP4 ADD MSTORE PUSH2 0x3C8A DUP2 DUP7 PUSH2 0x393B JUMP JUMPDEST SWAP1 POP PUSH2 0x3C99 PUSH1 0x40 DUP4 ADD DUP6 PUSH2 0x32FA JUMP JUMPDEST PUSH2 0x3CA6 PUSH1 0x60 DUP4 ADD DUP5 PUSH2 0x32FA JUMP JUMPDEST SWAP6 SWAP5 POP POP POP POP POP JUMP JUMPDEST PUSH32 0x416E2061756469742069732072656D6F7665642E000000000000000000000000 PUSH1 0x0 DUP3 ADD MSTORE POP JUMP JUMPDEST PUSH1 0x0 PUSH2 0x3CE5 PUSH1 0x14 DUP4 PUSH2 0x322E JUMP JUMPDEST SWAP2 POP PUSH2 0x3CF0 DUP3 PUSH2 0x3CAF JUMP JUMPDEST PUSH1 0x20 DUP3 ADD SWAP1 POP SWAP2 SWAP1 POP JUMP JUMPDEST PUSH1 0x0 PUSH1 0x60 DUP3 ADD SWAP1 POP DUP2 DUP2 SUB PUSH1 0x0 DUP4 ADD MSTORE PUSH2 0x3D14 DUP2 PUSH2 0x3CD8 JUMP JUMPDEST SWAP1 POP PUSH2 0x3D23 PUSH1 0x20 DUP4 ADD DUP6 PUSH2 0x3309 JUMP JUMPDEST PUSH2 0x3D30 PUSH1 0x40 DUP4 ADD DUP5 PUSH2 0x32FA JUMP JUMPDEST SWAP4 SWAP3 POP POP POP JUMP JUMPDEST PUSH32 0x4120646F63746F722069732061646465642E0000000000000000000000000000 PUSH1 0x0 DUP3 ADD MSTORE POP JUMP JUMPDEST PUSH1 0x0 PUSH2 0x3D6D PUSH1 0x12 DUP4 PUSH2 0x322E JUMP JUMPDEST SWAP2 POP PUSH2 0x3D78 DUP3 PUSH2 0x3D37 JUMP JUMPDEST PUSH1 0x20 DUP3 ADD SWAP1 POP SWAP2 SWAP1 POP JUMP JUMPDEST PUSH1 0x0 PUSH1 0x60 DUP3 ADD SWAP1 POP DUP2 DUP2 SUB PUSH1 0x0 DUP4 ADD MSTORE PUSH2 0x3D9C DUP2 PUSH2 0x3D60 JUMP JUMPDEST SWAP1 POP PUSH2 0x3DAB PUSH1 0x20 DUP4 ADD DUP6 PUSH2 0x3309 JUMP JUMPDEST PUSH2 0x3DB8 PUSH1 0x40 DUP4 ADD DUP5 PUSH2 0x32FA JUMP JUMPDEST SWAP4 SWAP3 POP POP POP JUMP INVALID MSTORE PUSH6 0x636F72642069 PUSH20 0x20636F7069656420627920646F63746F722F6175 PUSH5 0x69742E5265 PUSH4 0x6F726420 PUSH10 0x73207570646174656420 PUSH3 0x792064 PUSH16 0x63746F722F61756469742E5265636F72 PUSH5 0x2069732070 PUSH19 0x696E74656420627920646F63746F722F617564 PUSH10 0x742E5265636F72642069 PUSH20 0x207175657269656420627920646F63746F722F61 PUSH22 0x6469742E5265636F72642069732064656C6574656420 PUSH3 0x792064 PUSH16 0x63746F722F61756469742EA264697066 PUSH20 0x58221220AF541CA756A94C97D1B3E9E6E741501F 0xE6 PUSH17 0x438B81DC12CB7D00CB406B1FAF7864736F PUSH13 0x63430008120033000000000000 "
				},
				"gasEstimates": {
					"creation": {
						"codeDepositCost": "3206000",
						"executionCost": "infinite",
						"totalCost": "infinite"
					},
					"external": {
						"addAudit(address)": "infinite",
						"addDoctors(address)": "infinite",
						"audits(address)": "2934",
						"delete_record(address)": "infinite",
						"doctor_copy_record(address)": "infinite",
						"doctor_delete_record(address)": "infinite",
						"doctor_print_record(address)": "infinite",
						"doctor_query_record(address)": "infinite",
						"doctor_update_record(address,string)": "infinite",
						"doctors(address)": "2912",
						"get_record_details(address)": "infinite",
						"print_record(address)": "infinite",
						"record_mapping(address)": "infinite",
						"removeAudit(address)": "infinite",
						"removeDoctors(address)": "infinite",
						"start_visit(uint256)": "infinite"
					}
				},
				"methodIdentifiers": {
					"addAudit(address)": "b1649729",
					"addDoctors(address)": "db1bf8d8",
					"audits(address)": "ab7fca1c",
					"delete_record(address)": "a0da0ea3",
					"doctor_copy_record(address)": "e111265d",
					"doctor_delete_record(address)": "16161f02",
					"doctor_print_record(address)": "c73d6d9e",
					"doctor_query_record(address)": "b6e478e5",
					"doctor_update_record(address,string)": "a7bf973c",
					"doctors(address)": "a9583c22",
					"get_record_details(address)": "0389523d",
					"print_record(address)": "f6c25bbd",
					"record_mapping(address)": "0cb16b71",
					"removeAudit(address)": "d60bd310",
					"removeDoctors(address)": "1fe8bb6a",
					"start_visit(uint256)": "b24be0a1"
				}
			},
			"storageLayout": {
				"storage": [
					{
						"astId": 3,
						"contract": "contracts/RNNManager.sol:Patient",
						"label": "owner",
						"offset": 0,
						"slot": "0",
						"type": "t_address"
					},
					{
						"astId": 5,
						"contract": "contracts/RNNManager.sol:Patient",
						"label": "firstName",
						"offset": 0,
						"slot": "1",
						"type": "t_string_storage"
					},
					{
						"astId": 7,
						"contract": "contracts/RNNManager.sol:Patient",
						"label": "lastName",
						"offset": 0,
						"slot": "2",
						"type": "t_string_storage"
					},
					{
						"astId": 9,
						"contract": "contracts/RNNManager.sol:Patient",
						"label": "IID",
						"offset": 0,
						"slot": "3",
						"type": "t_string_storage"
					},
					{
						"astId": 11,
						"contract": "contracts/RNNManager.sol:Patient",
						"label": "bdate",
						"offset": 0,
						"slot": "4",
						"type": "t_string_storage"
					},
					{
						"astId": 13,
						"contract": "contracts/RNNManager.sol:Patient",
						"label": "email",
						"offset": 0,
						"slot": "5",
						"type": "t_string_storage"
					},
					{
						"astId": 15,
						"contract": "contracts/RNNManager.sol:Patient",
						"label": "phone",
						"offset": 0,
						"slot": "6",
						"type": "t_string_storage"
					},
					{
						"astId": 17,
						"contract": "contracts/RNNManager.sol:Patient",
						"label": "zip",
						"offset": 0,
						"slot": "7",
						"type": "t_string_storage"
					},
					{
						"astId": 19,
						"contract": "contracts/RNNManager.sol:Patient",
						"label": "city",
						"offset": 0,
						"slot": "8",
						"type": "t_string_storage"
					},
					{
						"astId": 21,
						"contract": "contracts/RNNManager.sol:Patient",
						"label": "encryption_key",
						"offset": 0,
						"slot": "9",
						"type": "t_string_storage"
					},
					{
						"astId": 49,
						"contract": "contracts/RNNManager.sol:Patient",
						"label": "record_mapping",
						"offset": 0,
						"slot": "10",
						"type": "t_mapping(t_address,t_struct(medical_record)44_storage)"
					},
					{
						"astId": 53,
						"contract": "contracts/RNNManager.sol:Patient",
						"label": "doctors",
						"offset": 0,
						"slot": "11",
						"type": "t_mapping(t_address,t_bool)"
					},
					{
						"astId": 57,
						"contract": "contracts/RNNManager.sol:Patient",
						"label": "audits",
						"offset": 0,
						"slot": "12",
						"type": "t_mapping(t_address,t_bool)"
					}
				],
				"types": {
					"t_address": {
						"encoding": "inplace",
						"label": "address",
						"numberOfBytes": "20"
					},
					"t_bool": {
						"encoding": "inplace",
						"label": "bool",
						"numberOfBytes": "1"
					},
					"t_mapping(t_address,t_bool)": {
						"encoding": "mapping",
						"key": "t_address",
						"label": "mapping(address => bool)",
						"numberOfBytes": "32",
						"value": "t_bool"
					},
					"t_mapping(t_address,t_struct(medical_record)44_storage)": {
						"encoding": "mapping",
						"key": "t_address",
						"label": "mapping(address => struct Patient.medical_record)",
						"numberOfBytes": "32",
						"value": "t_struct(medical_record)44_storage"
					},
					"t_string_storage": {
						"encoding": "bytes",
						"label": "string",
						"numberOfBytes": "32"
					},
					"t_struct(medical_record)44_storage": {
						"encoding": "inplace",
						"label": "struct Patient.medical_record",
						"members": [
							{
								"astId": 23,
								"contract": "contracts/RNNManager.sol:Patient",
								"label": "is_uid_generated",
								"offset": 0,
								"slot": "0",
								"type": "t_bool"
							},
							{
								"astId": 25,
								"contract": "contracts/RNNManager.sol:Patient",
								"label": "record_id",
								"offset": 0,
								"slot": "1",
								"type": "t_uint256"
							},
							{
								"astId": 27,
								"contract": "contracts/RNNManager.sol:Patient",
								"label": "record_msg",
								"offset": 0,
								"slot": "2",
								"type": "t_string_storage"
							},
							{
								"astId": 29,
								"contract": "contracts/RNNManager.sol:Patient",
								"label": "record_status",
								"offset": 0,
								"slot": "3",
								"type": "t_uint256"
							},
							{
								"astId": 31,
								"contract": "contracts/RNNManager.sol:Patient",
								"label": "record_details",
								"offset": 0,
								"slot": "4",
								"type": "t_string_storage"
							},
							{
								"astId": 33,
								"contract": "contracts/RNNManager.sol:Patient",
								"label": "patient_address",
								"offset": 0,
								"slot": "5",
								"type": "t_address"
							},
							{
								"astId": 35,
								"contract": "contracts/RNNManager.sol:Patient",
								"label": "record_time",
								"offset": 0,
								"slot": "6",
								"type": "t_uint256"
							},
							{
								"astId": 37,
								"contract": "contracts/RNNManager.sol:Patient",
								"label": "doctor",
								"offset": 0,
								"slot": "7",
								"type": "t_address"
							},
							{
								"astId": 39,
								"contract": "contracts/RNNManager.sol:Patient",
								"label": "doctor_time",
								"offset": 0,
								"slot": "8",
								"type": "t_uint256"
							},
							{
								"astId": 41,
								"contract": "contracts/RNNManager.sol:Patient",
								"label": "audit",
								"offset": 0,
								"slot": "9",
								"type": "t_address"
							},
							{
								"astId": 43,
								"contract": "contracts/RNNManager.sol:Patient",
								"label": "audit_time",
								"offset": 0,
								"slot": "10",
								"type": "t_uint256"
							}
						],
						"numberOfBytes": "352"
					},
					"t_uint256": {
						"encoding": "inplace",
						"label": "uint256",
						"numberOfBytes": "32"
					}
				}
			},
			"userdoc": {
				"kind": "user",
				"methods": {},
				"version": 1
			}
		}
	}
}