{
	"contracts/healthcare/Patient.sol": {
		"Patient": {
			"abi": [
				{
					"inputs": [
						{
							"internalType": "string",
							"name": "_firstName",
							"type": "string"
						},
						{
							"internalType": "string",
							"name": "_lastName",
							"type": "string"
						},
						{
							"internalType": "string",
							"name": "_IID",
							"type": "string"
						},
						{
							"internalType": "string",
							"name": "_bdate",
							"type": "string"
						},
						{
							"internalType": "string",
							"name": "_email",
							"type": "string"
						},
						{
							"internalType": "string",
							"name": "_phone",
							"type": "string"
						},
						{
							"internalType": "string",
							"name": "_zip",
							"type": "string"
						},
						{
							"internalType": "string",
							"name": "_city",
							"type": "string"
						},
						{
							"internalType": "string",
							"name": "_encryption_key",
							"type": "string"
						}
					],
					"stateMutability": "nonpayable",
					"type": "constructor"
				},
				{
					"anonymous": false,
					"inputs": [
						{
							"indexed": false,
							"internalType": "string",
							"name": "return_msg",
							"type": "string"
						},
						{
							"indexed": false,
							"internalType": "address",
							"name": "audit_address",
							"type": "address"
						},
						{
							"indexed": false,
							"internalType": "uint256",
							"name": "record_time",
							"type": "uint256"
						}
					],
					"name": "event_add_audit",
					"type": "event"
				},
				{
					"anonymous": false,
					"inputs": [
						{
							"indexed": false,
							"internalType": "string",
							"name": "return_msg",
							"type": "string"
						},
						{
							"indexed": false,
							"internalType": "address",
							"name": "doctor_address",
							"type": "address"
						},
						{
							"indexed": false,
							"internalType": "uint256",
							"name": "record_time",
							"type": "uint256"
						}
					],
					"name": "event_add_doctor",
					"type": "event"
				},
				{
					"anonymous": false,
					"inputs": [
						{
							"indexed": false,
							"internalType": "string",
							"name": "record_msg",
							"type": "string"
						},
						{
							"indexed": false,
							"internalType": "uint256",
							"name": "record_status",
							"type": "uint256"
						},
						{
							"indexed": false,
							"internalType": "uint256",
							"name": "record_time",
							"type": "uint256"
						}
					],
					"name": "event_doctor_copy",
					"type": "event"
				},
				{
					"anonymous": false,
					"inputs": [
						{
							"indexed": false,
							"internalType": "string",
							"name": "record_msg",
							"type": "string"
						},
						{
							"indexed": false,
							"internalType": "uint256",
							"name": "record_status",
							"type": "uint256"
						},
						{
							"indexed": false,
							"internalType": "uint256",
							"name": "record_time",
							"type": "uint256"
						}
					],
					"name": "event_doctor_delete",
					"type": "event"
				},
				{
					"anonymous": false,
					"inputs": [
						{
							"indexed": false,
							"internalType": "string",
							"name": "record_msg",
							"type": "string"
						},
						{
							"indexed": false,
							"internalType": "uint256",
							"name": "record_status",
							"type": "uint256"
						},
						{
							"indexed": false,
							"internalType": "uint256",
							"name": "record_time",
							"type": "uint256"
						}
					],
					"name": "event_doctor_print",
					"type": "event"
				},
				{
					"anonymous": false,
					"inputs": [
						{
							"indexed": false,
							"internalType": "string",
							"name": "record_msg",
							"type": "string"
						},
						{
							"indexed": false,
							"internalType": "uint256",
							"name": "record_status",
							"type": "uint256"
						},
						{
							"indexed": false,
							"internalType": "uint256",
							"name": "record_time",
							"type": "uint256"
						}
					],
					"name": "event_doctor_query",
					"type": "event"
				},
				{
					"anonymous": false,
					"inputs": [
						{
							"indexed": false,
							"internalType": "string",
							"name": "record_msg",
							"type": "string"
						},
						{
							"indexed": false,
							"internalType": "uint256",
							"name": "record_status",
							"type": "uint256"
						},
						{
							"indexed": false,
							"internalType": "uint256",
							"name": "record_time",
							"type": "uint256"
						}
					],
					"name": "event_doctor_update",
					"type": "event"
				},
				{
					"anonymous": false,
					"inputs": [
						{
							"indexed": false,
							"internalType": "string",
							"name": "record_msg",
							"type": "string"
						},
						{
							"indexed": false,
							"internalType": "uint256",
							"name": "record_status",
							"type": "uint256"
						},
						{
							"indexed": false,
							"internalType": "uint256",
							"name": "record_time",
							"type": "uint256"
						}
					],
					"name": "event_patient_delete",
					"type": "event"
				},
				{
					"anonymous": false,
					"inputs": [
						{
							"indexed": false,
							"internalType": "string",
							"name": "record_msg",
							"type": "string"
						},
						{
							"indexed": false,
							"internalType": "uint256",
							"name": "record_status",
							"type": "uint256"
						},
						{
							"indexed": false,
							"internalType": "uint256",
							"name": "record_time",
							"type": "uint256"
						}
					],
					"name": "event_patient_print",
					"type": "event"
				},
				{
					"anonymous": false,
					"inputs": [
						{
							"indexed": false,
							"internalType": "string",
							"name": "return_msg",
							"type": "string"
						},
						{
							"indexed": false,
							"internalType": "address",
							"name": "audit_address",
							"type": "address"
						},
						{
							"indexed": false,
							"internalType": "uint256",
							"name": "record_time",
							"type": "uint256"
						}
					],
					"name": "event_remove_audit",
					"type": "event"
				},
				{
					"anonymous": false,
					"inputs": [
						{
							"indexed": false,
							"internalType": "string",
							"name": "return_msg",
							"type": "string"
						},
						{
							"indexed": false,
							"internalType": "address",
							"name": "doctor_address",
							"type": "address"
						},
						{
							"indexed": false,
							"internalType": "uint256",
							"name": "record_time",
							"type": "uint256"
						}
					],
					"name": "event_remove_doctor",
					"type": "event"
				},
				{
					"anonymous": false,
					"inputs": [
						{
							"indexed": false,
							"internalType": "address",
							"name": "record_unique_id",
							"type": "address"
						},
						{
							"indexed": false,
							"internalType": "string",
							"name": "record_msg",
							"type": "string"
						},
						{
							"indexed": false,
							"internalType": "uint256",
							"name": "record_status",
							"type": "uint256"
						},
						{
							"indexed": false,
							"internalType": "uint256",
							"name": "record_time",
							"type": "uint256"
						}
					],
					"name": "event_start_visit",
					"type": "event"
				},
				{
					"inputs": [
						{
							"internalType": "address",
							"name": "_audit_address",
							"type": "address"
						}
					],
					"name": "addAudit",
					"outputs": [
						{
							"internalType": "string",
							"name": "",
							"type": "string"
						}
					],
					"stateMutability": "nonpayable",
					"type": "function"
				},
				{
					"inputs": [
						{
							"internalType": "address",
							"name": "_doctor_address",
							"type": "address"
						}
					],
					"name": "addDoctors",
					"outputs": [
						{
							"internalType": "string",
							"name": "",
							"type": "string"
						}
					],
					"stateMutability": "nonpayable",
					"type": "function"
				},
				{
					"inputs": [
						{
							"internalType": "address",
							"name": "",
							"type": "address"
						}
					],
					"name": "audits",
					"outputs": [
						{
							"internalType": "bool",
							"name": "",
							"type": "bool"
						}
					],
					"stateMutability": "view",
					"type": "function"
				},
				{
					"inputs": [
						{
							"internalType": "address",
							"name": "_unique_id",
							"type": "address"
						}
					],
					"name": "delete_record",
					"outputs": [
						{
							"internalType": "string",
							"name": "",
							"type": "string"
						}
					],
					"stateMutability": "nonpayable",
					"type": "function"
				},
				{
					"inputs": [
						{
							"internalType": "address",
							"name": "_unique_id",
							"type": "address"
						}
					],
					"name": "doctor_copy_record",
					"outputs": [
						{
							"internalType": "string",
							"name": "",
							"type": "string"
						}
					],
					"stateMutability": "nonpayable",
					"type": "function"
				},
				{
					"inputs": [
						{
							"internalType": "address",
							"name": "_unique_id",
							"type": "address"
						}
					],
					"name": "doctor_delete_record",
					"outputs": [
						{
							"internalType": "string",
							"name": "",
							"type": "string"
						}
					],
					"stateMutability": "nonpayable",
					"type": "function"
				},
				{
					"inputs": [
						{
							"internalType": "address",
							"name": "_unique_id",
							"type": "address"
						}
					],
					"name": "doctor_print_record",
					"outputs": [
						{
							"internalType": "string",
							"name": "record_status",
							"type": "string"
						}
					],
					"stateMutability": "nonpayable",
					"type": "function"
				},
				{
					"inputs": [
						{
							"internalType": "address",
							"name": "_unique_id",
							"type": "address"
						}
					],
					"name": "doctor_query_record",
					"outputs": [
						{
							"internalType": "string",
							"name": "",
							"type": "string"
						}
					],
					"stateMutability": "nonpayable",
					"type": "function"
				},
				{
					"inputs": [
						{
							"internalType": "address",
							"name": "_unique_id",
							"type": "address"
						},
						{
							"internalType": "string",
							"name": "_update",
							"type": "string"
						}
					],
					"name": "doctor_update_record",
					"outputs": [
						{
							"internalType": "string",
							"name": "",
							"type": "string"
						}
					],
					"stateMutability": "nonpayable",
					"type": "function"
				},
				{
					"inputs": [
						{
							"internalType": "address",
							"name": "",
							"type": "address"
						}
					],
					"name": "doctors",
					"outputs": [
						{
							"internalType": "bool",
							"name": "",
							"type": "bool"
						}
					],
					"stateMutability": "view",
					"type": "function"
				},
				{
					"inputs": [
						{
							"internalType": "address",
							"name": "_unique_id",
							"type": "address"
						}
					],
					"name": "getUniqueID",
					"outputs": [
						{
							"internalType": "bool",
							"name": "",
							"type": "bool"
						},
						{
							"internalType": "uint256",
							"name": "",
							"type": "uint256"
						},
						{
							"internalType": "string",
							"name": "",
							"type": "string"
						},
						{
							"internalType": "uint256",
							"name": "",
							"type": "uint256"
						}
					],
					"stateMutability": "view",
					"type": "function"
				},
				{
					"inputs": [
						{
							"internalType": "address",
							"name": "_unique_id",
							"type": "address"
						}
					],
					"name": "get_record_details",
					"outputs": [
						{
							"internalType": "string",
							"name": "",
							"type": "string"
						}
					],
					"stateMutability": "view",
					"type": "function"
				},
				{
					"inputs": [
						{
							"internalType": "address",
							"name": "_unique_id",
							"type": "address"
						}
					],
					"name": "print_record",
					"outputs": [
						{
							"internalType": "string",
							"name": "",
							"type": "string"
						}
					],
					"stateMutability": "nonpayable",
					"type": "function"
				},
				{
					"inputs": [
						{
							"internalType": "address",
							"name": "",
							"type": "address"
						}
					],
					"name": "record_mapping",
					"outputs": [
						{
							"internalType": "bool",
							"name": "is_uid_generated",
							"type": "bool"
						},
						{
							"internalType": "uint256",
							"name": "record_id",
							"type": "uint256"
						},
						{
							"internalType": "string",
							"name": "record_msg",
							"type": "string"
						},
						{
							"internalType": "uint256",
							"name": "record_status",
							"type": "uint256"
						},
						{
							"internalType": "string",
							"name": "record_details",
							"type": "string"
						},
						{
							"internalType": "address",
							"name": "patient_address",
							"type": "address"
						},
						{
							"internalType": "uint256",
							"name": "record_time",
							"type": "uint256"
						},
						{
							"internalType": "address",
							"name": "doctor",
							"type": "address"
						},
						{
							"internalType": "uint256",
							"name": "doctor_time",
							"type": "uint256"
						},
						{
							"internalType": "address",
							"name": "audit",
							"type": "address"
						},
						{
							"internalType": "uint256",
							"name": "audit_time",
							"type": "uint256"
						}
					],
					"stateMutability": "view",
					"type": "function"
				},
				{
					"inputs": [
						{
							"internalType": "address",
							"name": "_audit_address",
							"type": "address"
						}
					],
					"name": "removeAudit",
					"outputs": [
						{
							"internalType": "string",
							"name": "",
							"type": "string"
						}
					],
					"stateMutability": "nonpayable",
					"type": "function"
				},
				{
					"inputs": [
						{
							"internalType": "address",
							"name": "_doctor_address",
							"type": "address"
						}
					],
					"name": "removeDoctors",
					"outputs": [
						{
							"internalType": "string",
							"name": "",
							"type": "string"
						}
					],
					"stateMutability": "nonpayable",
					"type": "function"
				},
				{
					"inputs": [
						{
							"internalType": "uint256",
							"name": "_time",
							"type": "uint256"
						}
					],
					"name": "start_visit",
					"outputs": [
						{
							"internalType": "address",
							"name": "",
							"type": "address"
						}
					],
					"stateMutability": "nonpayable",
					"type": "function"
				}
			],
			"devdoc": {
				"kind": "dev",
				"methods": {},
				"version": 1
			},
			"evm": {
				"assembly": "    /* \"contracts/healthcare/Patient.sol\":69:14612  contract Patient{... */\n  mstore(0x40, 0x80)\n    /* \"contracts/healthcare/Patient.sol\":1544:2092  constructor (string memory _firstName, string memory _lastName, string memory _IID, ... */\n  callvalue\n  dup1\n  iszero\n  tag_1\n  jumpi\n  revert(0x00, 0x00)\ntag_1:\n  pop\n  mload(0x40)\n  sub(codesize, bytecodeSize)\n  dup1\n  bytecodeSize\n  dup4\n  codecopy\n  dup2\n  dup2\n  add\n  0x40\n  mstore\n  dup2\n  add\n  swap1\n  tag_2\n  swap2\n  swap1\n  tag_3\n  jump\t// in\ntag_2:\n    /* \"contracts/healthcare/Patient.sol\":1826:1836  msg.sender */\n  caller\n    /* \"contracts/healthcare/Patient.sol\":1818:1823  owner */\n  0x00\n  0x00\n    /* \"contracts/healthcare/Patient.sol\":1818:1836  owner = msg.sender */\n  0x0100\n  exp\n  dup2\n  sload\n  dup2\n  0xffffffffffffffffffffffffffffffffffffffff\n  mul\n  not\n  and\n  swap1\n  dup4\n  0xffffffffffffffffffffffffffffffffffffffff\n  and\n  mul\n  or\n  swap1\n  sstore\n  pop\n    /* \"contracts/healthcare/Patient.sol\":1859:1869  _firstName */\n  dup9\n    /* \"contracts/healthcare/Patient.sol\":1847:1856  firstName */\n  0x01\n    /* \"contracts/healthcare/Patient.sol\":1847:1869  firstName = _firstName */\n  swap1\n  dup2\n  tag_6\n  swap2\n  swap1\n  tag_7\n  jump\t// in\ntag_6:\n  pop\n    /* \"contracts/healthcare/Patient.sol\":1892:1901  _lastName */\n  dup8\n    /* \"contracts/healthcare/Patient.sol\":1881:1889  lastName */\n  0x02\n    /* \"contracts/healthcare/Patient.sol\":1881:1901  lastName = _lastName */\n  swap1\n  dup2\n  tag_8\n  swap2\n  swap1\n  tag_7\n  jump\t// in\ntag_8:\n  pop\n    /* \"contracts/healthcare/Patient.sol\":1918:1922  _IID */\n  dup7\n    /* \"contracts/healthcare/Patient.sol\":1912:1915  IID */\n  0x03\n    /* \"contracts/healthcare/Patient.sol\":1912:1922  IID = _IID */\n  swap1\n  dup2\n  tag_9\n  swap2\n  swap1\n  tag_7\n  jump\t// in\ntag_9:\n  pop\n    /* \"contracts/healthcare/Patient.sol\":1941:1947  _bdate */\n  dup6\n    /* \"contracts/healthcare/Patient.sol\":1933:1938  bdate */\n  0x04\n    /* \"contracts/healthcare/Patient.sol\":1933:1947  bdate = _bdate */\n  swap1\n  dup2\n  tag_10\n  swap2\n  swap1\n  tag_7\n  jump\t// in\ntag_10:\n  pop\n    /* \"contracts/healthcare/Patient.sol\":1966:1972  _email */\n  dup5\n    /* \"contracts/healthcare/Patient.sol\":1958:1963  email */\n  0x05\n    /* \"contracts/healthcare/Patient.sol\":1958:1972  email = _email */\n  swap1\n  dup2\n  tag_11\n  swap2\n  swap1\n  tag_7\n  jump\t// in\ntag_11:\n  pop\n    /* \"contracts/healthcare/Patient.sol\":1991:1997  _phone */\n  dup4\n    /* \"contracts/healthcare/Patient.sol\":1983:1988  phone */\n  0x06\n    /* \"contracts/healthcare/Patient.sol\":1983:1997  phone = _phone */\n  swap1\n  dup2\n  tag_12\n  swap2\n  swap1\n  tag_7\n  jump\t// in\ntag_12:\n  pop\n    /* \"contracts/healthcare/Patient.sol\":2014:2018  _zip */\n  dup3\n    /* \"contracts/healthcare/Patient.sol\":2008:2011  zip */\n  0x07\n    /* \"contracts/healthcare/Patient.sol\":2008:2018  zip = _zip */\n  swap1\n  dup2\n  tag_13\n  swap2\n  swap1\n  tag_7\n  jump\t// in\ntag_13:\n  pop\n    /* \"contracts/healthcare/Patient.sol\":2036:2041  _city */\n  dup2\n    /* \"contracts/healthcare/Patient.sol\":2029:2033  city */\n  0x08\n    /* \"contracts/healthcare/Patient.sol\":2029:2041  city = _city */\n  swap1\n  dup2\n  tag_14\n  swap2\n  swap1\n  tag_7\n  jump\t// in\ntag_14:\n  pop\n    /* \"contracts/healthcare/Patient.sol\":2069:2084  _encryption_key */\n  dup1\n    /* \"contracts/healthcare/Patient.sol\":2052:2066  encryption_key */\n  0x09\n    /* \"contracts/healthcare/Patient.sol\":2052:2084  encryption_key = _encryption_key */\n  swap1\n  dup2\n  tag_15\n  swap2\n  swap1\n  tag_7\n  jump\t// in\ntag_15:\n  pop\n    /* \"contracts/healthcare/Patient.sol\":1544:2092  constructor (string memory _firstName, string memory _lastName, string memory _IID, ... */\n  pop\n  pop\n  pop\n  pop\n  pop\n  pop\n  pop\n  pop\n  pop\n    /* \"contracts/healthcare/Patient.sol\":69:14612  contract Patient{... */\n  jump(tag_16)\n    /* \"#utility.yul\":7:82   */\ntag_17:\n    /* \"#utility.yul\":40:46   */\n  0x00\n    /* \"#utility.yul\":73:75   */\n  0x40\n    /* \"#utility.yul\":67:76   */\n  mload\n    /* \"#utility.yul\":57:76   */\n  swap1\n  pop\n    /* \"#utility.yul\":7:82   */\n  swap1\n  jump\t// out\n    /* \"#utility.yul\":88:205   */\ntag_18:\n    /* \"#utility.yul\":197:198   */\n  0x00\n    /* \"#utility.yul\":194:195   */\n  0x00\n    /* \"#utility.yul\":187:199   */\n  revert\n    /* \"#utility.yul\":211:328   */\ntag_19:\n    /* \"#utility.yul\":320:321   */\n  0x00\n    /* \"#utility.yul\":317:318   */\n  0x00\n    /* \"#utility.yul\":310:322   */\n  revert\n    /* \"#utility.yul\":334:451   */\ntag_20:\n    /* \"#utility.yul\":443:444   */\n  0x00\n    /* \"#utility.yul\":440:441   */\n  0x00\n    /* \"#utility.yul\":433:445   */\n  revert\n    /* \"#utility.yul\":457:574   */\ntag_21:\n    /* \"#utility.yul\":566:567   */\n  0x00\n    /* \"#utility.yul\":563:564   */\n  0x00\n    /* \"#utility.yul\":556:568   */\n  revert\n    /* \"#utility.yul\":580:682   */\ntag_22:\n    /* \"#utility.yul\":621:627   */\n  0x00\n    /* \"#utility.yul\":672:674   */\n  0x1f\n    /* \"#utility.yul\":668:675   */\n  not\n    /* \"#utility.yul\":663:665   */\n  0x1f\n    /* \"#utility.yul\":656:661   */\n  dup4\n    /* \"#utility.yul\":652:666   */\n  add\n    /* \"#utility.yul\":648:676   */\n  and\n    /* \"#utility.yul\":638:676   */\n  swap1\n  pop\n    /* \"#utility.yul\":580:682   */\n  swap2\n  swap1\n  pop\n  jump\t// out\n    /* \"#utility.yul\":688:868   */\ntag_23:\n    /* \"#utility.yul\":736:813   */\n  0x4e487b7100000000000000000000000000000000000000000000000000000000\n    /* \"#utility.yul\":733:734   */\n  0x00\n    /* \"#utility.yul\":726:814   */\n  mstore\n    /* \"#utility.yul\":833:837   */\n  0x41\n    /* \"#utility.yul\":830:831   */\n  0x04\n    /* \"#utility.yul\":823:838   */\n  mstore\n    /* \"#utility.yul\":857:861   */\n  0x24\n    /* \"#utility.yul\":854:855   */\n  0x00\n    /* \"#utility.yul\":847:862   */\n  revert\n    /* \"#utility.yul\":874:1155   */\ntag_24:\n    /* \"#utility.yul\":957:984   */\n  tag_58\n    /* \"#utility.yul\":979:983   */\n  dup3\n    /* \"#utility.yul\":957:984   */\n  tag_22\n  jump\t// in\ntag_58:\n    /* \"#utility.yul\":949:955   */\n  dup2\n    /* \"#utility.yul\":945:985   */\n  add\n    /* \"#utility.yul\":1087:1093   */\n  dup2\n    /* \"#utility.yul\":1075:1085   */\n  dup2\n    /* \"#utility.yul\":1072:1094   */\n  lt\n    /* \"#utility.yul\":1051:1069   */\n  0xffffffffffffffff\n    /* \"#utility.yul\":1039:1049   */\n  dup3\n    /* \"#utility.yul\":1036:1070   */\n  gt\n    /* \"#utility.yul\":1033:1095   */\n  or\n    /* \"#utility.yul\":1030:1118   */\n  iszero\n  tag_59\n  jumpi\n    /* \"#utility.yul\":1098:1116   */\n  tag_60\n  tag_23\n  jump\t// in\ntag_60:\n    /* \"#utility.yul\":1030:1118   */\ntag_59:\n    /* \"#utility.yul\":1138:1148   */\n  dup1\n    /* \"#utility.yul\":1134:1136   */\n  0x40\n    /* \"#utility.yul\":1127:1149   */\n  mstore\n    /* \"#utility.yul\":917:1155   */\n  pop\n    /* \"#utility.yul\":874:1155   */\n  pop\n  pop\n  jump\t// out\n    /* \"#utility.yul\":1161:1290   */\ntag_25:\n    /* \"#utility.yul\":1195:1201   */\n  0x00\n    /* \"#utility.yul\":1222:1242   */\n  tag_62\n  tag_17\n  jump\t// in\ntag_62:\n    /* \"#utility.yul\":1212:1242   */\n  swap1\n  pop\n    /* \"#utility.yul\":1251:1284   */\n  tag_63\n    /* \"#utility.yul\":1279:1283   */\n  dup3\n    /* \"#utility.yul\":1271:1277   */\n  dup3\n    /* \"#utility.yul\":1251:1284   */\n  tag_24\n  jump\t// in\ntag_63:\n    /* \"#utility.yul\":1161:1290   */\n  swap2\n  swap1\n  pop\n  jump\t// out\n    /* \"#utility.yul\":1296:1604   */\ntag_26:\n    /* \"#utility.yul\":1358:1362   */\n  0x00\n    /* \"#utility.yul\":1448:1466   */\n  0xffffffffffffffff\n    /* \"#utility.yul\":1440:1446   */\n  dup3\n    /* \"#utility.yul\":1437:1467   */\n  gt\n    /* \"#utility.yul\":1434:1490   */\n  iszero\n  tag_65\n  jumpi\n    /* \"#utility.yul\":1470:1488   */\n  tag_66\n  tag_23\n  jump\t// in\ntag_66:\n    /* \"#utility.yul\":1434:1490   */\ntag_65:\n    /* \"#utility.yul\":1508:1537   */\n  tag_67\n    /* \"#utility.yul\":1530:1536   */\n  dup3\n    /* \"#utility.yul\":1508:1537   */\n  tag_22\n  jump\t// in\ntag_67:\n    /* \"#utility.yul\":1500:1537   */\n  swap1\n  pop\n    /* \"#utility.yul\":1592:1596   */\n  0x20\n    /* \"#utility.yul\":1586:1590   */\n  dup2\n    /* \"#utility.yul\":1582:1597   */\n  add\n    /* \"#utility.yul\":1574:1597   */\n  swap1\n  pop\n    /* \"#utility.yul\":1296:1604   */\n  swap2\n  swap1\n  pop\n  jump\t// out\n    /* \"#utility.yul\":1610:1749   */\ntag_27:\n    /* \"#utility.yul\":1699:1705   */\n  dup3\n    /* \"#utility.yul\":1694:1697   */\n  dup2\n    /* \"#utility.yul\":1689:1692   */\n  dup4\n    /* \"#utility.yul\":1683:1706   */\n  mcopy\n    /* \"#utility.yul\":1740:1741   */\n  0x00\n    /* \"#utility.yul\":1731:1737   */\n  dup4\n    /* \"#utility.yul\":1726:1729   */\n  dup4\n    /* \"#utility.yul\":1722:1738   */\n  add\n    /* \"#utility.yul\":1715:1742   */\n  mstore\n    /* \"#utility.yul\":1610:1749   */\n  pop\n  pop\n  pop\n  jump\t// out\n    /* \"#utility.yul\":1755:2189   */\ntag_28:\n    /* \"#utility.yul\":1844:1849   */\n  0x00\n    /* \"#utility.yul\":1869:1935   */\n  tag_70\n    /* \"#utility.yul\":1885:1934   */\n  tag_71\n    /* \"#utility.yul\":1927:1933   */\n  dup5\n    /* \"#utility.yul\":1885:1934   */\n  tag_26\n  jump\t// in\ntag_71:\n    /* \"#utility.yul\":1869:1935   */\n  tag_25\n  jump\t// in\ntag_70:\n    /* \"#utility.yul\":1860:1935   */\n  swap1\n  pop\n    /* \"#utility.yul\":1958:1964   */\n  dup3\n    /* \"#utility.yul\":1951:1956   */\n  dup2\n    /* \"#utility.yul\":1944:1965   */\n  mstore\n    /* \"#utility.yul\":1996:2000   */\n  0x20\n    /* \"#utility.yul\":1989:1994   */\n  dup2\n    /* \"#utility.yul\":1985:2001   */\n  add\n    /* \"#utility.yul\":2034:2037   */\n  dup5\n    /* \"#utility.yul\":2025:2031   */\n  dup5\n    /* \"#utility.yul\":2020:2023   */\n  dup5\n    /* \"#utility.yul\":2016:2032   */\n  add\n    /* \"#utility.yul\":2013:2038   */\n  gt\n    /* \"#utility.yul\":2010:2122   */\n  iszero\n  tag_72\n  jumpi\n    /* \"#utility.yul\":2041:2120   */\n  tag_73\n  tag_21\n  jump\t// in\ntag_73:\n    /* \"#utility.yul\":2010:2122   */\ntag_72:\n    /* \"#utility.yul\":2131:2183   */\n  tag_74\n    /* \"#utility.yul\":2176:2182   */\n  dup5\n    /* \"#utility.yul\":2171:2174   */\n  dup3\n    /* \"#utility.yul\":2166:2169   */\n  dup6\n    /* \"#utility.yul\":2131:2183   */\n  tag_27\n  jump\t// in\ntag_74:\n    /* \"#utility.yul\":1850:2189   */\n  pop\n    /* \"#utility.yul\":1755:2189   */\n  swap4\n  swap3\n  pop\n  pop\n  pop\n  jump\t// out\n    /* \"#utility.yul\":2209:2564   */\ntag_29:\n    /* \"#utility.yul\":2276:2281   */\n  0x00\n    /* \"#utility.yul\":2325:2328   */\n  dup3\n    /* \"#utility.yul\":2318:2322   */\n  0x1f\n    /* \"#utility.yul\":2310:2316   */\n  dup4\n    /* \"#utility.yul\":2306:2323   */\n  add\n    /* \"#utility.yul\":2302:2329   */\n  slt\n    /* \"#utility.yul\":2292:2414   */\n  tag_76\n  jumpi\n    /* \"#utility.yul\":2333:2412   */\n  tag_77\n  tag_20\n  jump\t// in\ntag_77:\n    /* \"#utility.yul\":2292:2414   */\ntag_76:\n    /* \"#utility.yul\":2443:2449   */\n  dup2\n    /* \"#utility.yul\":2437:2450   */\n  mload\n    /* \"#utility.yul\":2468:2558   */\n  tag_78\n    /* \"#utility.yul\":2554:2557   */\n  dup5\n    /* \"#utility.yul\":2546:2552   */\n  dup3\n    /* \"#utility.yul\":2539:2543   */\n  0x20\n    /* \"#utility.yul\":2531:2537   */\n  dup7\n    /* \"#utility.yul\":2527:2544   */\n  add\n    /* \"#utility.yul\":2468:2558   */\n  tag_28\n  jump\t// in\ntag_78:\n    /* \"#utility.yul\":2459:2558   */\n  swap2\n  pop\n    /* \"#utility.yul\":2282:2564   */\n  pop\n    /* \"#utility.yul\":2209:2564   */\n  swap3\n  swap2\n  pop\n  pop\n  jump\t// out\n    /* \"#utility.yul\":2570:5732   */\ntag_3:\n    /* \"#utility.yul\":2802:2808   */\n  0x00\n    /* \"#utility.yul\":2810:2816   */\n  0x00\n    /* \"#utility.yul\":2818:2824   */\n  0x00\n    /* \"#utility.yul\":2826:2832   */\n  0x00\n    /* \"#utility.yul\":2834:2840   */\n  0x00\n    /* \"#utility.yul\":2842:2848   */\n  0x00\n    /* \"#utility.yul\":2850:2856   */\n  0x00\n    /* \"#utility.yul\":2858:2864   */\n  0x00\n    /* \"#utility.yul\":2866:2872   */\n  0x00\n    /* \"#utility.yul\":2915:2918   */\n  0x0120\n    /* \"#utility.yul\":2903:2912   */\n  dup11\n    /* \"#utility.yul\":2894:2901   */\n  dup13\n    /* \"#utility.yul\":2890:2913   */\n  sub\n    /* \"#utility.yul\":2886:2919   */\n  slt\n    /* \"#utility.yul\":2883:3003   */\n  iszero\n  tag_80\n  jumpi\n    /* \"#utility.yul\":2922:3001   */\n  tag_81\n  tag_18\n  jump\t// in\ntag_81:\n    /* \"#utility.yul\":2883:3003   */\ntag_80:\n    /* \"#utility.yul\":3063:3064   */\n  0x00\n    /* \"#utility.yul\":3052:3061   */\n  dup11\n    /* \"#utility.yul\":3048:3065   */\n  add\n    /* \"#utility.yul\":3042:3066   */\n  mload\n    /* \"#utility.yul\":3093:3111   */\n  0xffffffffffffffff\n    /* \"#utility.yul\":3085:3091   */\n  dup2\n    /* \"#utility.yul\":3082:3112   */\n  gt\n    /* \"#utility.yul\":3079:3196   */\n  iszero\n  tag_82\n  jumpi\n    /* \"#utility.yul\":3115:3194   */\n  tag_83\n  tag_19\n  jump\t// in\ntag_83:\n    /* \"#utility.yul\":3079:3196   */\ntag_82:\n    /* \"#utility.yul\":3220:3294   */\n  tag_84\n    /* \"#utility.yul\":3286:3293   */\n  dup13\n    /* \"#utility.yul\":3277:3283   */\n  dup3\n    /* \"#utility.yul\":3266:3275   */\n  dup14\n    /* \"#utility.yul\":3262:3284   */\n  add\n    /* \"#utility.yul\":3220:3294   */\n  tag_29\n  jump\t// in\ntag_84:\n    /* \"#utility.yul\":3210:3294   */\n  swap10\n  pop\n    /* \"#utility.yul\":3013:3304   */\n  pop\n    /* \"#utility.yul\":3364:3366   */\n  0x20\n    /* \"#utility.yul\":3353:3362   */\n  dup11\n    /* \"#utility.yul\":3349:3367   */\n  add\n    /* \"#utility.yul\":3343:3368   */\n  mload\n    /* \"#utility.yul\":3395:3413   */\n  0xffffffffffffffff\n    /* \"#utility.yul\":3387:3393   */\n  dup2\n    /* \"#utility.yul\":3384:3414   */\n  gt\n    /* \"#utility.yul\":3381:3498   */\n  iszero\n  tag_85\n  jumpi\n    /* \"#utility.yul\":3417:3496   */\n  tag_86\n  tag_19\n  jump\t// in\ntag_86:\n    /* \"#utility.yul\":3381:3498   */\ntag_85:\n    /* \"#utility.yul\":3522:3596   */\n  tag_87\n    /* \"#utility.yul\":3588:3595   */\n  dup13\n    /* \"#utility.yul\":3579:3585   */\n  dup3\n    /* \"#utility.yul\":3568:3577   */\n  dup14\n    /* \"#utility.yul\":3564:3586   */\n  add\n    /* \"#utility.yul\":3522:3596   */\n  tag_29\n  jump\t// in\ntag_87:\n    /* \"#utility.yul\":3512:3596   */\n  swap9\n  pop\n    /* \"#utility.yul\":3314:3606   */\n  pop\n    /* \"#utility.yul\":3666:3668   */\n  0x40\n    /* \"#utility.yul\":3655:3664   */\n  dup11\n    /* \"#utility.yul\":3651:3669   */\n  add\n    /* \"#utility.yul\":3645:3670   */\n  mload\n    /* \"#utility.yul\":3697:3715   */\n  0xffffffffffffffff\n    /* \"#utility.yul\":3689:3695   */\n  dup2\n    /* \"#utility.yul\":3686:3716   */\n  gt\n    /* \"#utility.yul\":3683:3800   */\n  iszero\n  tag_88\n  jumpi\n    /* \"#utility.yul\":3719:3798   */\n  tag_89\n  tag_19\n  jump\t// in\ntag_89:\n    /* \"#utility.yul\":3683:3800   */\ntag_88:\n    /* \"#utility.yul\":3824:3898   */\n  tag_90\n    /* \"#utility.yul\":3890:3897   */\n  dup13\n    /* \"#utility.yul\":3881:3887   */\n  dup3\n    /* \"#utility.yul\":3870:3879   */\n  dup14\n    /* \"#utility.yul\":3866:3888   */\n  add\n    /* \"#utility.yul\":3824:3898   */\n  tag_29\n  jump\t// in\ntag_90:\n    /* \"#utility.yul\":3814:3898   */\n  swap8\n  pop\n    /* \"#utility.yul\":3616:3908   */\n  pop\n    /* \"#utility.yul\":3968:3970   */\n  0x60\n    /* \"#utility.yul\":3957:3966   */\n  dup11\n    /* \"#utility.yul\":3953:3971   */\n  add\n    /* \"#utility.yul\":3947:3972   */\n  mload\n    /* \"#utility.yul\":3999:4017   */\n  0xffffffffffffffff\n    /* \"#utility.yul\":3991:3997   */\n  dup2\n    /* \"#utility.yul\":3988:4018   */\n  gt\n    /* \"#utility.yul\":3985:4102   */\n  iszero\n  tag_91\n  jumpi\n    /* \"#utility.yul\":4021:4100   */\n  tag_92\n  tag_19\n  jump\t// in\ntag_92:\n    /* \"#utility.yul\":3985:4102   */\ntag_91:\n    /* \"#utility.yul\":4126:4200   */\n  tag_93\n    /* \"#utility.yul\":4192:4199   */\n  dup13\n    /* \"#utility.yul\":4183:4189   */\n  dup3\n    /* \"#utility.yul\":4172:4181   */\n  dup14\n    /* \"#utility.yul\":4168:4190   */\n  add\n    /* \"#utility.yul\":4126:4200   */\n  tag_29\n  jump\t// in\ntag_93:\n    /* \"#utility.yul\":4116:4200   */\n  swap7\n  pop\n    /* \"#utility.yul\":3918:4210   */\n  pop\n    /* \"#utility.yul\":4270:4273   */\n  0x80\n    /* \"#utility.yul\":4259:4268   */\n  dup11\n    /* \"#utility.yul\":4255:4274   */\n  add\n    /* \"#utility.yul\":4249:4275   */\n  mload\n    /* \"#utility.yul\":4302:4320   */\n  0xffffffffffffffff\n    /* \"#utility.yul\":4294:4300   */\n  dup2\n    /* \"#utility.yul\":4291:4321   */\n  gt\n    /* \"#utility.yul\":4288:4405   */\n  iszero\n  tag_94\n  jumpi\n    /* \"#utility.yul\":4324:4403   */\n  tag_95\n  tag_19\n  jump\t// in\ntag_95:\n    /* \"#utility.yul\":4288:4405   */\ntag_94:\n    /* \"#utility.yul\":4429:4503   */\n  tag_96\n    /* \"#utility.yul\":4495:4502   */\n  dup13\n    /* \"#utility.yul\":4486:4492   */\n  dup3\n    /* \"#utility.yul\":4475:4484   */\n  dup14\n    /* \"#utility.yul\":4471:4493   */\n  add\n    /* \"#utility.yul\":4429:4503   */\n  tag_29\n  jump\t// in\ntag_96:\n    /* \"#utility.yul\":4419:4503   */\n  swap6\n  pop\n    /* \"#utility.yul\":4220:4513   */\n  pop\n    /* \"#utility.yul\":4573:4576   */\n  0xa0\n    /* \"#utility.yul\":4562:4571   */\n  dup11\n    /* \"#utility.yul\":4558:4577   */\n  add\n    /* \"#utility.yul\":4552:4578   */\n  mload\n    /* \"#utility.yul\":4605:4623   */\n  0xffffffffffffffff\n    /* \"#utility.yul\":4597:4603   */\n  dup2\n    /* \"#utility.yul\":4594:4624   */\n  gt\n    /* \"#utility.yul\":4591:4708   */\n  iszero\n  tag_97\n  jumpi\n    /* \"#utility.yul\":4627:4706   */\n  tag_98\n  tag_19\n  jump\t// in\ntag_98:\n    /* \"#utility.yul\":4591:4708   */\ntag_97:\n    /* \"#utility.yul\":4732:4806   */\n  tag_99\n    /* \"#utility.yul\":4798:4805   */\n  dup13\n    /* \"#utility.yul\":4789:4795   */\n  dup3\n    /* \"#utility.yul\":4778:4787   */\n  dup14\n    /* \"#utility.yul\":4774:4796   */\n  add\n    /* \"#utility.yul\":4732:4806   */\n  tag_29\n  jump\t// in\ntag_99:\n    /* \"#utility.yul\":4722:4806   */\n  swap5\n  pop\n    /* \"#utility.yul\":4523:4816   */\n  pop\n    /* \"#utility.yul\":4876:4879   */\n  0xc0\n    /* \"#utility.yul\":4865:4874   */\n  dup11\n    /* \"#utility.yul\":4861:4880   */\n  add\n    /* \"#utility.yul\":4855:4881   */\n  mload\n    /* \"#utility.yul\":4908:4926   */\n  0xffffffffffffffff\n    /* \"#utility.yul\":4900:4906   */\n  dup2\n    /* \"#utility.yul\":4897:4927   */\n  gt\n    /* \"#utility.yul\":4894:5011   */\n  iszero\n  tag_100\n  jumpi\n    /* \"#utility.yul\":4930:5009   */\n  tag_101\n  tag_19\n  jump\t// in\ntag_101:\n    /* \"#utility.yul\":4894:5011   */\ntag_100:\n    /* \"#utility.yul\":5035:5109   */\n  tag_102\n    /* \"#utility.yul\":5101:5108   */\n  dup13\n    /* \"#utility.yul\":5092:5098   */\n  dup3\n    /* \"#utility.yul\":5081:5090   */\n  dup14\n    /* \"#utility.yul\":5077:5099   */\n  add\n    /* \"#utility.yul\":5035:5109   */\n  tag_29\n  jump\t// in\ntag_102:\n    /* \"#utility.yul\":5025:5109   */\n  swap4\n  pop\n    /* \"#utility.yul\":4826:5119   */\n  pop\n    /* \"#utility.yul\":5179:5182   */\n  0xe0\n    /* \"#utility.yul\":5168:5177   */\n  dup11\n    /* \"#utility.yul\":5164:5183   */\n  add\n    /* \"#utility.yul\":5158:5184   */\n  mload\n    /* \"#utility.yul\":5211:5229   */\n  0xffffffffffffffff\n    /* \"#utility.yul\":5203:5209   */\n  dup2\n    /* \"#utility.yul\":5200:5230   */\n  gt\n    /* \"#utility.yul\":5197:5314   */\n  iszero\n  tag_103\n  jumpi\n    /* \"#utility.yul\":5233:5312   */\n  tag_104\n  tag_19\n  jump\t// in\ntag_104:\n    /* \"#utility.yul\":5197:5314   */\ntag_103:\n    /* \"#utility.yul\":5338:5412   */\n  tag_105\n    /* \"#utility.yul\":5404:5411   */\n  dup13\n    /* \"#utility.yul\":5395:5401   */\n  dup3\n    /* \"#utility.yul\":5384:5393   */\n  dup14\n    /* \"#utility.yul\":5380:5402   */\n  add\n    /* \"#utility.yul\":5338:5412   */\n  tag_29\n  jump\t// in\ntag_105:\n    /* \"#utility.yul\":5328:5412   */\n  swap3\n  pop\n    /* \"#utility.yul\":5129:5422   */\n  pop\n    /* \"#utility.yul\":5482:5485   */\n  0x0100\n    /* \"#utility.yul\":5471:5480   */\n  dup11\n    /* \"#utility.yul\":5467:5486   */\n  add\n    /* \"#utility.yul\":5461:5487   */\n  mload\n    /* \"#utility.yul\":5514:5532   */\n  0xffffffffffffffff\n    /* \"#utility.yul\":5506:5512   */\n  dup2\n    /* \"#utility.yul\":5503:5533   */\n  gt\n    /* \"#utility.yul\":5500:5617   */\n  iszero\n  tag_106\n  jumpi\n    /* \"#utility.yul\":5536:5615   */\n  tag_107\n  tag_19\n  jump\t// in\ntag_107:\n    /* \"#utility.yul\":5500:5617   */\ntag_106:\n    /* \"#utility.yul\":5641:5715   */\n  tag_108\n    /* \"#utility.yul\":5707:5714   */\n  dup13\n    /* \"#utility.yul\":5698:5704   */\n  dup3\n    /* \"#utility.yul\":5687:5696   */\n  dup14\n    /* \"#utility.yul\":5683:5705   */\n  add\n    /* \"#utility.yul\":5641:5715   */\n  tag_29\n  jump\t// in\ntag_108:\n    /* \"#utility.yul\":5631:5715   */\n  swap2\n  pop\n    /* \"#utility.yul\":5432:5725   */\n  pop\n    /* \"#utility.yul\":2570:5732   */\n  swap3\n  swap6\n  swap9\n  pop\n  swap3\n  swap6\n  swap9\n  pop\n  swap3\n  swap6\n  swap9\n  jump\t// out\n    /* \"#utility.yul\":5738:5837   */\ntag_30:\n    /* \"#utility.yul\":5790:5796   */\n  0x00\n    /* \"#utility.yul\":5824:5829   */\n  dup2\n    /* \"#utility.yul\":5818:5830   */\n  mload\n    /* \"#utility.yul\":5808:5830   */\n  swap1\n  pop\n    /* \"#utility.yul\":5738:5837   */\n  swap2\n  swap1\n  pop\n  jump\t// out\n    /* \"#utility.yul\":5843:6023   */\ntag_31:\n    /* \"#utility.yul\":5891:5968   */\n  0x4e487b7100000000000000000000000000000000000000000000000000000000\n    /* \"#utility.yul\":5888:5889   */\n  0x00\n    /* \"#utility.yul\":5881:5969   */\n  mstore\n    /* \"#utility.yul\":5988:5992   */\n  0x22\n    /* \"#utility.yul\":5985:5986   */\n  0x04\n    /* \"#utility.yul\":5978:5993   */\n  mstore\n    /* \"#utility.yul\":6012:6016   */\n  0x24\n    /* \"#utility.yul\":6009:6010   */\n  0x00\n    /* \"#utility.yul\":6002:6017   */\n  revert\n    /* \"#utility.yul\":6029:6349   */\ntag_32:\n    /* \"#utility.yul\":6073:6079   */\n  0x00\n    /* \"#utility.yul\":6110:6111   */\n  0x02\n    /* \"#utility.yul\":6104:6108   */\n  dup3\n    /* \"#utility.yul\":6100:6112   */\n  div\n    /* \"#utility.yul\":6090:6112   */\n  swap1\n  pop\n    /* \"#utility.yul\":6157:6158   */\n  0x01\n    /* \"#utility.yul\":6151:6155   */\n  dup3\n    /* \"#utility.yul\":6147:6159   */\n  and\n    /* \"#utility.yul\":6178:6196   */\n  dup1\n    /* \"#utility.yul\":6168:6249   */\n  tag_112\n  jumpi\n    /* \"#utility.yul\":6234:6238   */\n  0x7f\n    /* \"#utility.yul\":6226:6232   */\n  dup3\n    /* \"#utility.yul\":6222:6239   */\n  and\n    /* \"#utility.yul\":6212:6239   */\n  swap2\n  pop\n    /* \"#utility.yul\":6168:6249   */\ntag_112:\n    /* \"#utility.yul\":6296:6298   */\n  0x20\n    /* \"#utility.yul\":6288:6294   */\n  dup3\n    /* \"#utility.yul\":6285:6299   */\n  lt\n    /* \"#utility.yul\":6265:6283   */\n  dup2\n    /* \"#utility.yul\":6262:6300   */\n  sub\n    /* \"#utility.yul\":6259:6343   */\n  tag_113\n  jumpi\n    /* \"#utility.yul\":6315:6333   */\n  tag_114\n  tag_31\n  jump\t// in\ntag_114:\n    /* \"#utility.yul\":6259:6343   */\ntag_113:\n    /* \"#utility.yul\":6080:6349   */\n  pop\n    /* \"#utility.yul\":6029:6349   */\n  swap2\n  swap1\n  pop\n  jump\t// out\n    /* \"#utility.yul\":6355:6496   */\ntag_33:\n    /* \"#utility.yul\":6404:6408   */\n  0x00\n    /* \"#utility.yul\":6427:6430   */\n  dup2\n    /* \"#utility.yul\":6419:6430   */\n  swap1\n  pop\n    /* \"#utility.yul\":6450:6453   */\n  dup2\n    /* \"#utility.yul\":6447:6448   */\n  0x00\n    /* \"#utility.yul\":6440:6454   */\n  mstore\n    /* \"#utility.yul\":6484:6488   */\n  0x20\n    /* \"#utility.yul\":6481:6482   */\n  0x00\n    /* \"#utility.yul\":6471:6489   */\n  keccak256\n    /* \"#utility.yul\":6463:6489   */\n  swap1\n  pop\n    /* \"#utility.yul\":6355:6496   */\n  swap2\n  swap1\n  pop\n  jump\t// out\n    /* \"#utility.yul\":6502:6595   */\ntag_34:\n    /* \"#utility.yul\":6539:6545   */\n  0x00\n    /* \"#utility.yul\":6586:6588   */\n  0x20\n    /* \"#utility.yul\":6581:6583   */\n  0x1f\n    /* \"#utility.yul\":6574:6579   */\n  dup4\n    /* \"#utility.yul\":6570:6584   */\n  add\n    /* \"#utility.yul\":6566:6589   */\n  div\n    /* \"#utility.yul\":6556:6589   */\n  swap1\n  pop\n    /* \"#utility.yul\":6502:6595   */\n  swap2\n  swap1\n  pop\n  jump\t// out\n    /* \"#utility.yul\":6601:6708   */\ntag_35:\n    /* \"#utility.yul\":6645:6653   */\n  0x00\n    /* \"#utility.yul\":6695:6700   */\n  dup3\n    /* \"#utility.yul\":6689:6693   */\n  dup3\n    /* \"#utility.yul\":6685:6701   */\n  shl\n    /* \"#utility.yul\":6664:6701   */\n  swap1\n  pop\n    /* \"#utility.yul\":6601:6708   */\n  swap3\n  swap2\n  pop\n  pop\n  jump\t// out\n    /* \"#utility.yul\":6714:7107   */\ntag_36:\n    /* \"#utility.yul\":6783:6789   */\n  0x00\n    /* \"#utility.yul\":6833:6834   */\n  0x08\n    /* \"#utility.yul\":6821:6831   */\n  dup4\n    /* \"#utility.yul\":6817:6835   */\n  mul\n    /* \"#utility.yul\":6856:6953   */\n  tag_119\n    /* \"#utility.yul\":6886:6952   */\n  0xffffffffffffffffffffffffffffffffffffffffffffffffffffffffffffffff\n    /* \"#utility.yul\":6875:6884   */\n  dup3\n    /* \"#utility.yul\":6856:6953   */\n  tag_35\n  jump\t// in\ntag_119:\n    /* \"#utility.yul\":6974:7013   */\n  tag_120\n    /* \"#utility.yul\":7004:7012   */\n  dup7\n    /* \"#utility.yul\":6993:7002   */\n  dup4\n    /* \"#utility.yul\":6974:7013   */\n  tag_35\n  jump\t// in\ntag_120:\n    /* \"#utility.yul\":6962:7013   */\n  swap6\n  pop\n    /* \"#utility.yul\":7046:7050   */\n  dup1\n    /* \"#utility.yul\":7042:7051   */\n  not\n    /* \"#utility.yul\":7035:7040   */\n  dup5\n    /* \"#utility.yul\":7031:7052   */\n  and\n    /* \"#utility.yul\":7022:7052   */\n  swap4\n  pop\n    /* \"#utility.yul\":7095:7099   */\n  dup1\n    /* \"#utility.yul\":7085:7093   */\n  dup7\n    /* \"#utility.yul\":7081:7100   */\n  and\n    /* \"#utility.yul\":7074:7079   */\n  dup5\n    /* \"#utility.yul\":7071:7101   */\n  or\n    /* \"#utility.yul\":7061:7101   */\n  swap3\n  pop\n    /* \"#utility.yul\":6790:7107   */\n  pop\n  pop\n    /* \"#utility.yul\":6714:7107   */\n  swap4\n  swap3\n  pop\n  pop\n  pop\n  jump\t// out\n    /* \"#utility.yul\":7113:7190   */\ntag_37:\n    /* \"#utility.yul\":7150:7157   */\n  0x00\n    /* \"#utility.yul\":7179:7184   */\n  dup2\n    /* \"#utility.yul\":7168:7184   */\n  swap1\n  pop\n    /* \"#utility.yul\":7113:7190   */\n  swap2\n  swap1\n  pop\n  jump\t// out\n    /* \"#utility.yul\":7196:7256   */\ntag_38:\n    /* \"#utility.yul\":7224:7227   */\n  0x00\n    /* \"#utility.yul\":7245:7250   */\n  dup2\n    /* \"#utility.yul\":7238:7250   */\n  swap1\n  pop\n    /* \"#utility.yul\":7196:7256   */\n  swap2\n  swap1\n  pop\n  jump\t// out\n    /* \"#utility.yul\":7262:7404   */\ntag_39:\n    /* \"#utility.yul\":7312:7321   */\n  0x00\n    /* \"#utility.yul\":7345:7398   */\n  tag_124\n    /* \"#utility.yul\":7363:7397   */\n  tag_125\n    /* \"#utility.yul\":7372:7396   */\n  tag_126\n    /* \"#utility.yul\":7390:7395   */\n  dup5\n    /* \"#utility.yul\":7372:7396   */\n  tag_37\n  jump\t// in\ntag_126:\n    /* \"#utility.yul\":7363:7397   */\n  tag_38\n  jump\t// in\ntag_125:\n    /* \"#utility.yul\":7345:7398   */\n  tag_37\n  jump\t// in\ntag_124:\n    /* \"#utility.yul\":7332:7398   */\n  swap1\n  pop\n    /* \"#utility.yul\":7262:7404   */\n  swap2\n  swap1\n  pop\n  jump\t// out\n    /* \"#utility.yul\":7410:7485   */\ntag_40:\n    /* \"#utility.yul\":7453:7456   */\n  0x00\n    /* \"#utility.yul\":7474:7479   */\n  dup2\n    /* \"#utility.yul\":7467:7479   */\n  swap1\n  pop\n    /* \"#utility.yul\":7410:7485   */\n  swap2\n  swap1\n  pop\n  jump\t// out\n    /* \"#utility.yul\":7491:7760   */\ntag_41:\n    /* \"#utility.yul\":7601:7640   */\n  tag_129\n    /* \"#utility.yul\":7632:7639   */\n  dup4\n    /* \"#utility.yul\":7601:7640   */\n  tag_39\n  jump\t// in\ntag_129:\n    /* \"#utility.yul\":7662:7753   */\n  tag_130\n    /* \"#utility.yul\":7711:7752   */\n  tag_131\n    /* \"#utility.yul\":7735:7751   */\n  dup3\n    /* \"#utility.yul\":7711:7752   */\n  tag_40\n  jump\t// in\ntag_131:\n    /* \"#utility.yul\":7703:7709   */\n  dup5\n    /* \"#utility.yul\":7696:7700   */\n  dup5\n    /* \"#utility.yul\":7690:7701   */\n  sload\n    /* \"#utility.yul\":7662:7753   */\n  tag_36\n  jump\t// in\ntag_130:\n    /* \"#utility.yul\":7656:7660   */\n  dup3\n    /* \"#utility.yul\":7649:7754   */\n  sstore\n    /* \"#utility.yul\":7567:7760   */\n  pop\n    /* \"#utility.yul\":7491:7760   */\n  pop\n  pop\n  pop\n  jump\t// out\n    /* \"#utility.yul\":7766:7839   */\ntag_42:\n    /* \"#utility.yul\":7811:7814   */\n  0x00\n    /* \"#utility.yul\":7832:7833   */\n  0x00\n    /* \"#utility.yul\":7825:7833   */\n  swap1\n  pop\n    /* \"#utility.yul\":7766:7839   */\n  swap1\n  jump\t// out\n    /* \"#utility.yul\":7845:8034   */\ntag_43:\n    /* \"#utility.yul\":7922:7954   */\n  tag_134\n  tag_42\n  jump\t// in\ntag_134:\n    /* \"#utility.yul\":7963:8028   */\n  tag_135\n    /* \"#utility.yul\":8021:8027   */\n  dup2\n    /* \"#utility.yul\":8013:8019   */\n  dup5\n    /* \"#utility.yul\":8007:8011   */\n  dup5\n    /* \"#utility.yul\":7963:8028   */\n  tag_41\n  jump\t// in\ntag_135:\n    /* \"#utility.yul\":7898:8034   */\n  pop\n    /* \"#utility.yul\":7845:8034   */\n  pop\n  pop\n  jump\t// out\n    /* \"#utility.yul\":8040:8226   */\ntag_44:\n    /* \"#utility.yul\":8100:8220   */\ntag_137:\n    /* \"#utility.yul\":8117:8120   */\n  dup2\n    /* \"#utility.yul\":8110:8115   */\n  dup2\n    /* \"#utility.yul\":8107:8121   */\n  lt\n    /* \"#utility.yul\":8100:8220   */\n  iszero\n  tag_139\n  jumpi\n    /* \"#utility.yul\":8171:8210   */\n  tag_140\n    /* \"#utility.yul\":8208:8209   */\n  0x00\n    /* \"#utility.yul\":8201:8206   */\n  dup3\n    /* \"#utility.yul\":8171:8210   */\n  tag_43\n  jump\t// in\ntag_140:\n    /* \"#utility.yul\":8144:8145   */\n  0x01\n    /* \"#utility.yul\":8137:8142   */\n  dup2\n    /* \"#utility.yul\":8133:8146   */\n  add\n    /* \"#utility.yul\":8124:8146   */\n  swap1\n  pop\n    /* \"#utility.yul\":8100:8220   */\n  jump(tag_137)\ntag_139:\n    /* \"#utility.yul\":8040:8226   */\n  pop\n  pop\n  jump\t// out\n    /* \"#utility.yul\":8232:8775   */\ntag_45:\n    /* \"#utility.yul\":8333:8335   */\n  0x1f\n    /* \"#utility.yul\":8328:8331   */\n  dup3\n    /* \"#utility.yul\":8325:8336   */\n  gt\n    /* \"#utility.yul\":8322:8768   */\n  iszero\n  tag_142\n  jumpi\n    /* \"#utility.yul\":8367:8405   */\n  tag_143\n    /* \"#utility.yul\":8399:8404   */\n  dup2\n    /* \"#utility.yul\":8367:8405   */\n  tag_33\n  jump\t// in\ntag_143:\n    /* \"#utility.yul\":8451:8480   */\n  tag_144\n    /* \"#utility.yul\":8469:8479   */\n  dup5\n    /* \"#utility.yul\":8451:8480   */\n  tag_34\n  jump\t// in\ntag_144:\n    /* \"#utility.yul\":8441:8449   */\n  dup2\n    /* \"#utility.yul\":8437:8481   */\n  add\n    /* \"#utility.yul\":8634:8636   */\n  0x20\n    /* \"#utility.yul\":8622:8632   */\n  dup6\n    /* \"#utility.yul\":8619:8637   */\n  lt\n    /* \"#utility.yul\":8616:8665   */\n  iszero\n  tag_145\n  jumpi\n    /* \"#utility.yul\":8655:8663   */\n  dup2\n    /* \"#utility.yul\":8640:8663   */\n  swap1\n  pop\n    /* \"#utility.yul\":8616:8665   */\ntag_145:\n    /* \"#utility.yul\":8678:8758   */\n  tag_146\n    /* \"#utility.yul\":8734:8756   */\n  tag_147\n    /* \"#utility.yul\":8752:8755   */\n  dup6\n    /* \"#utility.yul\":8734:8756   */\n  tag_34\n  jump\t// in\ntag_147:\n    /* \"#utility.yul\":8724:8732   */\n  dup4\n    /* \"#utility.yul\":8720:8757   */\n  add\n    /* \"#utility.yul\":8707:8718   */\n  dup3\n    /* \"#utility.yul\":8678:8758   */\n  tag_44\n  jump\t// in\ntag_146:\n    /* \"#utility.yul\":8337:8768   */\n  pop\n  pop\n    /* \"#utility.yul\":8322:8768   */\ntag_142:\n    /* \"#utility.yul\":8232:8775   */\n  pop\n  pop\n  pop\n  jump\t// out\n    /* \"#utility.yul\":8781:8898   */\ntag_46:\n    /* \"#utility.yul\":8835:8843   */\n  0x00\n    /* \"#utility.yul\":8885:8890   */\n  dup3\n    /* \"#utility.yul\":8879:8883   */\n  dup3\n    /* \"#utility.yul\":8875:8891   */\n  shr\n    /* \"#utility.yul\":8854:8891   */\n  swap1\n  pop\n    /* \"#utility.yul\":8781:8898   */\n  swap3\n  swap2\n  pop\n  pop\n  jump\t// out\n    /* \"#utility.yul\":8904:9073   */\ntag_47:\n    /* \"#utility.yul\":8948:8954   */\n  0x00\n    /* \"#utility.yul\":8981:9032   */\n  tag_150\n    /* \"#utility.yul\":9029:9030   */\n  0x00\n    /* \"#utility.yul\":9025:9031   */\n  not\n    /* \"#utility.yul\":9017:9022   */\n  dup5\n    /* \"#utility.yul\":9014:9015   */\n  0x08\n    /* \"#utility.yul\":9010:9023   */\n  mul\n    /* \"#utility.yul\":8981:9032   */\n  tag_46\n  jump\t// in\ntag_150:\n    /* \"#utility.yul\":8977:9033   */\n  not\n    /* \"#utility.yul\":9062:9066   */\n  dup1\n    /* \"#utility.yul\":9056:9060   */\n  dup4\n    /* \"#utility.yul\":9052:9067   */\n  and\n    /* \"#utility.yul\":9042:9067   */\n  swap2\n  pop\n    /* \"#utility.yul\":8955:9073   */\n  pop\n    /* \"#utility.yul\":8904:9073   */\n  swap3\n  swap2\n  pop\n  pop\n  jump\t// out\n    /* \"#utility.yul\":9078:9373   */\ntag_48:\n    /* \"#utility.yul\":9154:9158   */\n  0x00\n    /* \"#utility.yul\":9300:9329   */\n  tag_152\n    /* \"#utility.yul\":9325:9328   */\n  dup4\n    /* \"#utility.yul\":9319:9323   */\n  dup4\n    /* \"#utility.yul\":9300:9329   */\n  tag_47\n  jump\t// in\ntag_152:\n    /* \"#utility.yul\":9292:9329   */\n  swap2\n  pop\n    /* \"#utility.yul\":9362:9365   */\n  dup3\n    /* \"#utility.yul\":9359:9360   */\n  0x02\n    /* \"#utility.yul\":9355:9366   */\n  mul\n    /* \"#utility.yul\":9349:9353   */\n  dup3\n    /* \"#utility.yul\":9346:9367   */\n  or\n    /* \"#utility.yul\":9338:9367   */\n  swap1\n  pop\n    /* \"#utility.yul\":9078:9373   */\n  swap3\n  swap2\n  pop\n  pop\n  jump\t// out\n    /* \"#utility.yul\":9378:10773   */\ntag_7:\n    /* \"#utility.yul\":9495:9532   */\n  tag_154\n    /* \"#utility.yul\":9528:9531   */\n  dup3\n    /* \"#utility.yul\":9495:9532   */\n  tag_30\n  jump\t// in\ntag_154:\n    /* \"#utility.yul\":9597:9615   */\n  0xffffffffffffffff\n    /* \"#utility.yul\":9589:9595   */\n  dup2\n    /* \"#utility.yul\":9586:9616   */\n  gt\n    /* \"#utility.yul\":9583:9639   */\n  iszero\n  tag_155\n  jumpi\n    /* \"#utility.yul\":9619:9637   */\n  tag_156\n  tag_23\n  jump\t// in\ntag_156:\n    /* \"#utility.yul\":9583:9639   */\ntag_155:\n    /* \"#utility.yul\":9663:9701   */\n  tag_157\n    /* \"#utility.yul\":9695:9699   */\n  dup3\n    /* \"#utility.yul\":9689:9700   */\n  sload\n    /* \"#utility.yul\":9663:9701   */\n  tag_32\n  jump\t// in\ntag_157:\n    /* \"#utility.yul\":9748:9815   */\n  tag_158\n    /* \"#utility.yul\":9808:9814   */\n  dup3\n    /* \"#utility.yul\":9800:9806   */\n  dup3\n    /* \"#utility.yul\":9794:9798   */\n  dup6\n    /* \"#utility.yul\":9748:9815   */\n  tag_45\n  jump\t// in\ntag_158:\n    /* \"#utility.yul\":9842:9843   */\n  0x00\n    /* \"#utility.yul\":9866:9870   */\n  0x20\n    /* \"#utility.yul\":9853:9870   */\n  swap1\n  pop\n    /* \"#utility.yul\":9898:9900   */\n  0x1f\n    /* \"#utility.yul\":9890:9896   */\n  dup4\n    /* \"#utility.yul\":9887:9901   */\n  gt\n    /* \"#utility.yul\":9915:9916   */\n  0x01\n    /* \"#utility.yul\":9910:10528   */\n  dup2\n  eq\n  tag_160\n  jumpi\n    /* \"#utility.yul\":10572:10573   */\n  0x00\n    /* \"#utility.yul\":10589:10595   */\n  dup5\n    /* \"#utility.yul\":10586:10663   */\n  iszero\n  tag_161\n  jumpi\n    /* \"#utility.yul\":10638:10647   */\n  dup3\n    /* \"#utility.yul\":10633:10636   */\n  dup8\n    /* \"#utility.yul\":10629:10648   */\n  add\n    /* \"#utility.yul\":10623:10649   */\n  mload\n    /* \"#utility.yul\":10614:10649   */\n  swap1\n  pop\n    /* \"#utility.yul\":10586:10663   */\ntag_161:\n    /* \"#utility.yul\":10689:10756   */\n  tag_162\n    /* \"#utility.yul\":10749:10755   */\n  dup6\n    /* \"#utility.yul\":10742:10747   */\n  dup3\n    /* \"#utility.yul\":10689:10756   */\n  tag_48\n  jump\t// in\ntag_162:\n    /* \"#utility.yul\":10683:10687   */\n  dup7\n    /* \"#utility.yul\":10676:10757   */\n  sstore\n    /* \"#utility.yul\":10545:10767   */\n  pop\n    /* \"#utility.yul\":9880:10767   */\n  jump(tag_159)\n    /* \"#utility.yul\":9910:10528   */\ntag_160:\n    /* \"#utility.yul\":9962:9966   */\n  0x1f\n    /* \"#utility.yul\":9958:9967   */\n  not\n    /* \"#utility.yul\":9950:9956   */\n  dup5\n    /* \"#utility.yul\":9946:9968   */\n  and\n    /* \"#utility.yul\":9996:10033   */\n  tag_163\n    /* \"#utility.yul\":10028:10032   */\n  dup7\n    /* \"#utility.yul\":9996:10033   */\n  tag_33\n  jump\t// in\ntag_163:\n    /* \"#utility.yul\":10055:10056   */\n  0x00\n    /* \"#utility.yul\":10069:10277   */\ntag_164:\n    /* \"#utility.yul\":10083:10090   */\n  dup3\n    /* \"#utility.yul\":10080:10081   */\n  dup2\n    /* \"#utility.yul\":10077:10091   */\n  lt\n    /* \"#utility.yul\":10069:10277   */\n  iszero\n  tag_166\n  jumpi\n    /* \"#utility.yul\":10162:10171   */\n  dup5\n    /* \"#utility.yul\":10157:10160   */\n  dup10\n    /* \"#utility.yul\":10153:10172   */\n  add\n    /* \"#utility.yul\":10147:10173   */\n  mload\n    /* \"#utility.yul\":10139:10145   */\n  dup3\n    /* \"#utility.yul\":10132:10174   */\n  sstore\n    /* \"#utility.yul\":10213:10214   */\n  0x01\n    /* \"#utility.yul\":10205:10211   */\n  dup3\n    /* \"#utility.yul\":10201:10215   */\n  add\n    /* \"#utility.yul\":10191:10215   */\n  swap2\n  pop\n    /* \"#utility.yul\":10260:10262   */\n  0x20\n    /* \"#utility.yul\":10249:10258   */\n  dup6\n    /* \"#utility.yul\":10245:10263   */\n  add\n    /* \"#utility.yul\":10232:10263   */\n  swap5\n  pop\n    /* \"#utility.yul\":10106:10110   */\n  0x20\n    /* \"#utility.yul\":10103:10104   */\n  dup2\n    /* \"#utility.yul\":10099:10111   */\n  add\n    /* \"#utility.yul\":10094:10111   */\n  swap1\n  pop\n    /* \"#utility.yul\":10069:10277   */\n  jump(tag_164)\ntag_166:\n    /* \"#utility.yul\":10305:10311   */\n  dup7\n    /* \"#utility.yul\":10296:10303   */\n  dup4\n    /* \"#utility.yul\":10293:10312   */\n  lt\n    /* \"#utility.yul\":10290:10469   */\n  iszero\n  tag_167\n  jumpi\n    /* \"#utility.yul\":10363:10372   */\n  dup5\n    /* \"#utility.yul\":10358:10361   */\n  dup10\n    /* \"#utility.yul\":10354:10373   */\n  add\n    /* \"#utility.yul\":10348:10374   */\n  mload\n    /* \"#utility.yul\":10406:10454   */\n  tag_168\n    /* \"#utility.yul\":10448:10452   */\n  0x1f\n    /* \"#utility.yul\":10440:10446   */\n  dup10\n    /* \"#utility.yul\":10436:10453   */\n  and\n    /* \"#utility.yul\":10425:10434   */\n  dup3\n    /* \"#utility.yul\":10406:10454   */\n  tag_47\n  jump\t// in\ntag_168:\n    /* \"#utility.yul\":10398:10404   */\n  dup4\n    /* \"#utility.yul\":10391:10455   */\n  sstore\n    /* \"#utility.yul\":10313:10469   */\n  pop\n    /* \"#utility.yul\":10290:10469   */\ntag_167:\n    /* \"#utility.yul\":10515:10516   */\n  0x01\n    /* \"#utility.yul\":10511:10512   */\n  0x02\n    /* \"#utility.yul\":10503:10509   */\n  dup9\n    /* \"#utility.yul\":10499:10513   */\n  mul\n    /* \"#utility.yul\":10495:10517   */\n  add\n    /* \"#utility.yul\":10489:10493   */\n  dup9\n    /* \"#utility.yul\":10482:10518   */\n  sstore\n    /* \"#utility.yul\":9917:10528   */\n  pop\n  pop\n  pop\n    /* \"#utility.yul\":9880:10767   */\ntag_159:\n  pop\n    /* \"#utility.yul\":9470:10773   */\n  pop\n  pop\n  pop\n    /* \"#utility.yul\":9378:10773   */\n  pop\n  pop\n  jump\t// out\n    /* \"contracts/healthcare/Patient.sol\":69:14612  contract Patient{... */\ntag_16:\n  dataSize(sub_0)\n  dup1\n  dataOffset(sub_0)\n  0x00\n  codecopy\n  0x00\n  return\nstop\n\nsub_0: assembly {\n        /* \"contracts/healthcare/Patient.sol\":69:14612  contract Patient{... */\n      mstore(0x40, 0x80)\n      callvalue\n      dup1\n      iszero\n      tag_1\n      jumpi\n      revert(0x00, 0x00)\n    tag_1:\n      pop\n      jumpi(tag_2, lt(calldatasize, 0x04))\n      shr(0xe0, calldataload(0x00))\n      dup1\n      0xb1649729\n      gt\n      tag_20\n      jumpi\n      dup1\n      0xd60bd310\n      gt\n      tag_21\n      jumpi\n      dup1\n      0xd60bd310\n      eq\n      tag_15\n      jumpi\n      dup1\n      0xdb1bf8d8\n      eq\n      tag_16\n      jumpi\n      dup1\n      0xe111265d\n      eq\n      tag_17\n      jumpi\n      dup1\n      0xf6c25bbd\n      eq\n      tag_18\n      jumpi\n      dup1\n      0xfbad2dbf\n      eq\n      tag_19\n      jumpi\n      jump(tag_2)\n    tag_21:\n      dup1\n      0xb1649729\n      eq\n      tag_11\n      jumpi\n      dup1\n      0xb24be0a1\n      eq\n      tag_12\n      jumpi\n      dup1\n      0xb6e478e5\n      eq\n      tag_13\n      jumpi\n      dup1\n      0xc73d6d9e\n      eq\n      tag_14\n      jumpi\n      jump(tag_2)\n    tag_20:\n      dup1\n      0xa0da0ea3\n      gt\n      tag_22\n      jumpi\n      dup1\n      0xa0da0ea3\n      eq\n      tag_7\n      jumpi\n      dup1\n      0xa7bf973c\n      eq\n      tag_8\n      jumpi\n      dup1\n      0xa9583c22\n      eq\n      tag_9\n      jumpi\n      dup1\n      0xab7fca1c\n      eq\n      tag_10\n      jumpi\n      jump(tag_2)\n    tag_22:\n      dup1\n      0x0389523d\n      eq\n      tag_3\n      jumpi\n      dup1\n      0x0cb16b71\n      eq\n      tag_4\n      jumpi\n      dup1\n      0x16161f02\n      eq\n      tag_5\n      jumpi\n      dup1\n      0x1fe8bb6a\n      eq\n      tag_6\n      jumpi\n    tag_2:\n      revert(0x00, 0x00)\n        /* \"contracts/healthcare/Patient.sol\":7293:8121  function get_record_details(address _unique_id) view public returns (string memory) {... */\n    tag_3:\n      tag_23\n      0x04\n      dup1\n      calldatasize\n      sub\n      dup2\n      add\n      swap1\n      tag_24\n      swap2\n      swap1\n      tag_25\n      jump\t// in\n    tag_24:\n      tag_26\n      jump\t// in\n    tag_23:\n      mload(0x40)\n      tag_27\n      swap2\n      swap1\n      tag_28\n      jump\t// in\n    tag_27:\n      mload(0x40)\n      dup1\n      swap2\n      sub\n      swap1\n      return\n        /* \"contracts/healthcare/Patient.sol\":1249:1306  mapping (address => medical_record) public record_mapping */\n    tag_4:\n      tag_29\n      0x04\n      dup1\n      calldatasize\n      sub\n      dup2\n      add\n      swap1\n      tag_30\n      swap2\n      swap1\n      tag_25\n      jump\t// in\n    tag_30:\n      tag_31\n      jump\t// in\n    tag_29:\n      mload(0x40)\n      tag_32\n      swap12\n      swap11\n      swap10\n      swap9\n      swap8\n      swap7\n      swap6\n      swap5\n      swap4\n      swap3\n      swap2\n      swap1\n      tag_33\n      jump\t// in\n    tag_32:\n      mload(0x40)\n      dup1\n      swap2\n      sub\n      swap1\n      return\n        /* \"contracts/healthcare/Patient.sol\":10156:11010  function doctor_delete_record(address _unique_id) public returns (string memory){... */\n    tag_5:\n      tag_34\n      0x04\n      dup1\n      calldatasize\n      sub\n      dup2\n      add\n      swap1\n      tag_35\n      swap2\n      swap1\n      tag_25\n      jump\t// in\n    tag_35:\n      tag_36\n      jump\t// in\n    tag_34:\n      mload(0x40)\n      tag_37\n      swap2\n      swap1\n      tag_28\n      jump\t// in\n    tag_37:\n      mload(0x40)\n      dup1\n      swap2\n      sub\n      swap1\n      return\n        /* \"contracts/healthcare/Patient.sol\":5890:6264  function removeDoctors(address _doctor_address) public only_owner returns (string memory) {... */\n    tag_6:\n      tag_38\n      0x04\n      dup1\n      calldatasize\n      sub\n      dup2\n      add\n      swap1\n      tag_39\n      swap2\n      swap1\n      tag_25\n      jump\t// in\n    tag_39:\n      tag_40\n      jump\t// in\n    tag_38:\n      mload(0x40)\n      tag_41\n      swap2\n      swap1\n      tag_28\n      jump\t// in\n    tag_41:\n      mload(0x40)\n      dup1\n      swap2\n      sub\n      swap1\n      return\n        /* \"contracts/healthcare/Patient.sol\":8313:9154  function delete_record(address _unique_id) public returns (string memory){... */\n    tag_7:\n      tag_42\n      0x04\n      dup1\n      calldatasize\n      sub\n      dup2\n      add\n      swap1\n      tag_43\n      swap2\n      swap1\n      tag_25\n      jump\t// in\n    tag_43:\n      tag_44\n      jump\t// in\n    tag_42:\n      mload(0x40)\n      tag_45\n      swap2\n      swap1\n      tag_28\n      jump\t// in\n    tag_45:\n      mload(0x40)\n      dup1\n      swap2\n      sub\n      swap1\n      return\n        /* \"contracts/healthcare/Patient.sol\":13666:14537  function doctor_update_record(address _unique_id, string memory _update) public returns (string memory){... */\n    tag_8:\n      tag_46\n      0x04\n      dup1\n      calldatasize\n      sub\n      dup2\n      add\n      swap1\n      tag_47\n      swap2\n      swap1\n      tag_48\n      jump\t// in\n    tag_47:\n      tag_49\n      jump\t// in\n    tag_46:\n      mload(0x40)\n      tag_50\n      swap2\n      swap1\n      tag_28\n      jump\t// in\n    tag_50:\n      mload(0x40)\n      dup1\n      swap2\n      sub\n      swap1\n      return\n        /* \"contracts/healthcare/Patient.sol\":1314:1354  mapping (address => bool) public doctors */\n    tag_9:\n      tag_51\n      0x04\n      dup1\n      calldatasize\n      sub\n      dup2\n      add\n      swap1\n      tag_52\n      swap2\n      swap1\n      tag_25\n      jump\t// in\n    tag_52:\n      tag_53\n      jump\t// in\n    tag_51:\n      mload(0x40)\n      tag_54\n      swap2\n      swap1\n      tag_55\n      jump\t// in\n    tag_54:\n      mload(0x40)\n      dup1\n      swap2\n      sub\n      swap1\n      return\n        /* \"contracts/healthcare/Patient.sol\":1361:1400  mapping (address => bool) public audits */\n    tag_10:\n      tag_56\n      0x04\n      dup1\n      calldatasize\n      sub\n      dup2\n      add\n      swap1\n      tag_57\n      swap2\n      swap1\n      tag_25\n      jump\t// in\n    tag_57:\n      tag_58\n      jump\t// in\n    tag_56:\n      mload(0x40)\n      tag_59\n      swap2\n      swap1\n      tag_55\n      jump\t// in\n    tag_59:\n      mload(0x40)\n      dup1\n      swap2\n      sub\n      swap1\n      return\n        /* \"contracts/healthcare/Patient.sol\":6368:6730  function addAudit(address _audit_address) public only_owner returns (string memory) {... */\n    tag_11:\n      tag_60\n      0x04\n      dup1\n      calldatasize\n      sub\n      dup2\n      add\n      swap1\n      tag_61\n      swap2\n      swap1\n      tag_25\n      jump\t// in\n    tag_61:\n      tag_62\n      jump\t// in\n    tag_60:\n      mload(0x40)\n      tag_63\n      swap2\n      swap1\n      tag_28\n      jump\t// in\n    tag_63:\n      mload(0x40)\n      dup1\n      swap2\n      sub\n      swap1\n      return\n        /* \"contracts/healthcare/Patient.sol\":4114:5036  function start_visit(uint _time) public only_owner returns (address){... */\n    tag_12:\n      tag_64\n      0x04\n      dup1\n      calldatasize\n      sub\n      dup2\n      add\n      swap1\n      tag_65\n      swap2\n      swap1\n      tag_66\n      jump\t// in\n    tag_65:\n      tag_67\n      jump\t// in\n    tag_64:\n      mload(0x40)\n      tag_68\n      swap2\n      swap1\n      tag_69\n      jump\t// in\n    tag_68:\n      mload(0x40)\n      dup1\n      swap2\n      sub\n      swap1\n      return\n        /* \"contracts/healthcare/Patient.sol\":11892:12725  function doctor_query_record(address _unique_id) public returns (string memory){... */\n    tag_13:\n      tag_70\n      0x04\n      dup1\n      calldatasize\n      sub\n      dup2\n      add\n      swap1\n      tag_71\n      swap2\n      swap1\n      tag_25\n      jump\t// in\n    tag_71:\n      tag_72\n      jump\t// in\n    tag_70:\n      mload(0x40)\n      tag_73\n      swap2\n      swap1\n      tag_28\n      jump\t// in\n    tag_73:\n      mload(0x40)\n      dup1\n      swap2\n      sub\n      swap1\n      return\n        /* \"contracts/healthcare/Patient.sol\":11059:11844  function doctor_print_record(address _unique_id) public returns (string memory record_status){... */\n    tag_14:\n      tag_74\n      0x04\n      dup1\n      calldatasize\n      sub\n      dup2\n      add\n      swap1\n      tag_75\n      swap2\n      swap1\n      tag_25\n      jump\t// in\n    tag_75:\n      tag_76\n      jump\t// in\n    tag_74:\n      mload(0x40)\n      tag_77\n      swap2\n      swap1\n      tag_28\n      jump\t// in\n    tag_77:\n      mload(0x40)\n      dup1\n      swap2\n      sub\n      swap1\n      return\n        /* \"contracts/healthcare/Patient.sol\":6807:7172  function removeAudit(address _audit_address) public only_owner returns (string memory) {... */\n    tag_15:\n      tag_78\n      0x04\n      dup1\n      calldatasize\n      sub\n      dup2\n      add\n      swap1\n      tag_79\n      swap2\n      swap1\n      tag_25\n      jump\t// in\n    tag_79:\n      tag_80\n      jump\t// in\n    tag_78:\n      mload(0x40)\n      tag_81\n      swap2\n      swap1\n      tag_28\n      jump\t// in\n    tag_81:\n      mload(0x40)\n      dup1\n      swap2\n      sub\n      swap1\n      return\n        /* \"contracts/healthcare/Patient.sol\":5442:5813  function addDoctors(address _doctor_address) public only_owner returns (string memory) {... */\n    tag_16:\n      tag_82\n      0x04\n      dup1\n      calldatasize\n      sub\n      dup2\n      add\n      swap1\n      tag_83\n      swap2\n      swap1\n      tag_25\n      jump\t// in\n    tag_83:\n      tag_84\n      jump\t// in\n    tag_82:\n      mload(0x40)\n      tag_85\n      swap2\n      swap1\n      tag_28\n      jump\t// in\n    tag_85:\n      mload(0x40)\n      dup1\n      swap2\n      sub\n      swap1\n      return\n        /* \"contracts/healthcare/Patient.sol\":12772:13616  function doctor_copy_record(address _unique_id) public returns (string memory){... */\n    tag_17:\n      tag_86\n      0x04\n      dup1\n      calldatasize\n      sub\n      dup2\n      add\n      swap1\n      tag_87\n      swap2\n      swap1\n      tag_25\n      jump\t// in\n    tag_87:\n      tag_88\n      jump\t// in\n    tag_86:\n      mload(0x40)\n      tag_89\n      swap2\n      swap1\n      tag_28\n      jump\t// in\n    tag_89:\n      mload(0x40)\n      dup1\n      swap2\n      sub\n      swap1\n      return\n        /* \"contracts/healthcare/Patient.sol\":9215:10092  function print_record(address _unique_id) public returns (string memory ){... */\n    tag_18:\n      tag_90\n      0x04\n      dup1\n      calldatasize\n      sub\n      dup2\n      add\n      swap1\n      tag_91\n      swap2\n      swap1\n      tag_25\n      jump\t// in\n    tag_91:\n      tag_92\n      jump\t// in\n    tag_90:\n      mload(0x40)\n      tag_93\n      swap2\n      swap1\n      tag_28\n      jump\t// in\n    tag_93:\n      mload(0x40)\n      dup1\n      swap2\n      sub\n      swap1\n      return\n        /* \"contracts/healthcare/Patient.sol\":5044:5371  function getUniqueID(address _unique_id) public view returns (bool, uint256, string memory, uint) {... */\n    tag_19:\n      tag_94\n      0x04\n      dup1\n      calldatasize\n      sub\n      dup2\n      add\n      swap1\n      tag_95\n      swap2\n      swap1\n      tag_25\n      jump\t// in\n    tag_95:\n      tag_96\n      jump\t// in\n    tag_94:\n      mload(0x40)\n      tag_97\n      swap5\n      swap4\n      swap3\n      swap2\n      swap1\n      tag_98\n      jump\t// in\n    tag_97:\n      mload(0x40)\n      dup1\n      swap2\n      sub\n      swap1\n      return\n        /* \"contracts/healthcare/Patient.sol\":7293:8121  function get_record_details(address _unique_id) view public returns (string memory) {... */\n    tag_26:\n        /* \"contracts/healthcare/Patient.sol\":7362:7375  string memory */\n      0x60\n        /* \"contracts/healthcare/Patient.sol\":7443:7447  true */\n      0x01\n        /* \"contracts/healthcare/Patient.sol\":7396:7447  record_mapping[_unique_id].is_uid_generated == true */\n      iszero\n      iszero\n        /* \"contracts/healthcare/Patient.sol\":7396:7410  record_mapping */\n      0x0a\n        /* \"contracts/healthcare/Patient.sol\":7396:7422  record_mapping[_unique_id] */\n      0x00\n        /* \"contracts/healthcare/Patient.sol\":7411:7421  _unique_id */\n      dup5\n        /* \"contracts/healthcare/Patient.sol\":7396:7422  record_mapping[_unique_id] */\n      0xffffffffffffffffffffffffffffffffffffffff\n      and\n      0xffffffffffffffffffffffffffffffffffffffff\n      and\n      dup2\n      mstore\n      0x20\n      add\n      swap1\n      dup2\n      mstore\n      0x20\n      add\n      0x00\n      keccak256\n        /* \"contracts/healthcare/Patient.sol\":7396:7439  record_mapping[_unique_id].is_uid_generated */\n      0x00\n      add\n      0x00\n      swap1\n      sload\n      swap1\n      0x0100\n      exp\n      swap1\n      div\n      0xff\n      and\n        /* \"contracts/healthcare/Patient.sol\":7396:7447  record_mapping[_unique_id].is_uid_generated == true */\n      iszero\n      iszero\n      eq\n        /* \"contracts/healthcare/Patient.sol\":7388:7448  require(record_mapping[_unique_id].is_uid_generated == true) */\n      tag_100\n      jumpi\n      revert(0x00, 0x00)\n    tag_100:\n        /* \"contracts/healthcare/Patient.sol\":7509:7510  1 */\n      0x01\n        /* \"contracts/healthcare/Patient.sol\":7467:7481  record_mapping */\n      0x0a\n        /* \"contracts/healthcare/Patient.sol\":7467:7493  record_mapping[_unique_id] */\n      0x00\n        /* \"contracts/healthcare/Patient.sol\":7482:7492  _unique_id */\n      dup5\n        /* \"contracts/healthcare/Patient.sol\":7467:7493  record_mapping[_unique_id] */\n      0xffffffffffffffffffffffffffffffffffffffff\n      and\n      0xffffffffffffffffffffffffffffffffffffffff\n      and\n      dup2\n      mstore\n      0x20\n      add\n      swap1\n      dup2\n      mstore\n      0x20\n      add\n      0x00\n      keccak256\n        /* \"contracts/healthcare/Patient.sol\":7467:7507  record_mapping[_unique_id].record_status */\n      0x03\n      add\n      sload\n        /* \"contracts/healthcare/Patient.sol\":7467:7510  record_mapping[_unique_id].record_status!=1 */\n      sub\n        /* \"contracts/healthcare/Patient.sol\":7459:7511  require(record_mapping[_unique_id].record_status!=1) */\n      tag_101\n      jumpi\n      revert(0x00, 0x00)\n    tag_101:\n        /* \"contracts/healthcare/Patient.sol\":7571:7581  msg.sender */\n      caller\n        /* \"contracts/healthcare/Patient.sol\":7525:7581  record_mapping[_unique_id].patient_address == msg.sender */\n      0xffffffffffffffffffffffffffffffffffffffff\n      and\n        /* \"contracts/healthcare/Patient.sol\":7525:7539  record_mapping */\n      0x0a\n        /* \"contracts/healthcare/Patient.sol\":7525:7551  record_mapping[_unique_id] */\n      0x00\n        /* \"contracts/healthcare/Patient.sol\":7540:7550  _unique_id */\n      dup5\n        /* \"contracts/healthcare/Patient.sol\":7525:7551  record_mapping[_unique_id] */\n      0xffffffffffffffffffffffffffffffffffffffff\n      and\n      0xffffffffffffffffffffffffffffffffffffffff\n      and\n      dup2\n      mstore\n      0x20\n      add\n      swap1\n      dup2\n      mstore\n      0x20\n      add\n      0x00\n      keccak256\n        /* \"contracts/healthcare/Patient.sol\":7525:7567  record_mapping[_unique_id].patient_address */\n      0x05\n      add\n      0x00\n      swap1\n      sload\n      swap1\n      0x0100\n      exp\n      swap1\n      div\n      0xffffffffffffffffffffffffffffffffffffffff\n      and\n        /* \"contracts/healthcare/Patient.sol\":7525:7581  record_mapping[_unique_id].patient_address == msg.sender */\n      0xffffffffffffffffffffffffffffffffffffffff\n      and\n      sub\n        /* \"contracts/healthcare/Patient.sol\":7522:7737  if(record_mapping[_unique_id].patient_address == msg.sender){... */\n      tag_102\n      jumpi\n        /* \"contracts/healthcare/Patient.sol\":7651:7661  msg.sender */\n      caller\n        /* \"contracts/healthcare/Patient.sol\":7605:7661  record_mapping[_unique_id].patient_address == msg.sender */\n      0xffffffffffffffffffffffffffffffffffffffff\n      and\n        /* \"contracts/healthcare/Patient.sol\":7605:7619  record_mapping */\n      0x0a\n        /* \"contracts/healthcare/Patient.sol\":7605:7631  record_mapping[_unique_id] */\n      0x00\n        /* \"contracts/healthcare/Patient.sol\":7620:7630  _unique_id */\n      dup5\n        /* \"contracts/healthcare/Patient.sol\":7605:7631  record_mapping[_unique_id] */\n      0xffffffffffffffffffffffffffffffffffffffff\n      and\n      0xffffffffffffffffffffffffffffffffffffffff\n      and\n      dup2\n      mstore\n      0x20\n      add\n      swap1\n      dup2\n      mstore\n      0x20\n      add\n      0x00\n      keccak256\n        /* \"contracts/healthcare/Patient.sol\":7605:7647  record_mapping[_unique_id].patient_address */\n      0x05\n      add\n      0x00\n      swap1\n      sload\n      swap1\n      0x0100\n      exp\n      swap1\n      div\n      0xffffffffffffffffffffffffffffffffffffffff\n      and\n        /* \"contracts/healthcare/Patient.sol\":7605:7661  record_mapping[_unique_id].patient_address == msg.sender */\n      0xffffffffffffffffffffffffffffffffffffffff\n      and\n      eq\n        /* \"contracts/healthcare/Patient.sol\":7597:7662  require(record_mapping[_unique_id].patient_address == msg.sender) */\n      tag_103\n      jumpi\n      revert(0x00, 0x00)\n    tag_103:\n        /* \"contracts/healthcare/Patient.sol\":7684:7698  record_mapping */\n      0x0a\n        /* \"contracts/healthcare/Patient.sol\":7684:7710  record_mapping[_unique_id] */\n      0x00\n        /* \"contracts/healthcare/Patient.sol\":7699:7709  _unique_id */\n      dup4\n        /* \"contracts/healthcare/Patient.sol\":7684:7710  record_mapping[_unique_id] */\n      0xffffffffffffffffffffffffffffffffffffffff\n      and\n      0xffffffffffffffffffffffffffffffffffffffff\n      and\n      dup2\n      mstore\n      0x20\n      add\n      swap1\n      dup2\n      mstore\n      0x20\n      add\n      0x00\n      keccak256\n        /* \"contracts/healthcare/Patient.sol\":7684:7725  record_mapping[_unique_id].record_details */\n      0x04\n      add\n        /* \"contracts/healthcare/Patient.sol\":7677:7725  return record_mapping[_unique_id].record_details */\n      dup1\n      sload\n      tag_104\n      swap1\n      tag_105\n      jump\t// in\n    tag_104:\n      dup1\n      0x1f\n      add\n      0x20\n      dup1\n      swap2\n      div\n      mul\n      0x20\n      add\n      mload(0x40)\n      swap1\n      dup2\n      add\n      0x40\n      mstore\n      dup1\n      swap3\n      swap2\n      swap1\n      dup2\n      dup2\n      mstore\n      0x20\n      add\n      dup3\n      dup1\n      sload\n      tag_106\n      swap1\n      tag_105\n      jump\t// in\n    tag_106:\n      dup1\n      iszero\n      tag_107\n      jumpi\n      dup1\n      0x1f\n      lt\n      tag_108\n      jumpi\n      0x0100\n      dup1\n      dup4\n      sload\n      div\n      mul\n      dup4\n      mstore\n      swap2\n      0x20\n      add\n      swap2\n      jump(tag_107)\n    tag_108:\n      dup3\n      add\n      swap2\n      swap1\n      0x00\n      mstore\n      keccak256(0x00, 0x20)\n      swap1\n    tag_109:\n      dup2\n      sload\n      dup2\n      mstore\n      swap1\n      0x01\n      add\n      swap1\n      0x20\n      add\n      dup1\n      dup4\n      gt\n      tag_109\n      jumpi\n      dup3\n      swap1\n      sub\n      0x1f\n      and\n      dup3\n      add\n      swap2\n    tag_107:\n      pop\n      pop\n      pop\n      pop\n      pop\n      swap1\n      pop\n      jump(tag_99)\n        /* \"contracts/healthcare/Patient.sol\":7522:7737  if(record_mapping[_unique_id].patient_address == msg.sender){... */\n    tag_102:\n        /* \"contracts/healthcare/Patient.sol\":7750:7757  doctors */\n      0x0b\n        /* \"contracts/healthcare/Patient.sol\":7750:7769  doctors[msg.sender] */\n      0x00\n        /* \"contracts/healthcare/Patient.sol\":7758:7768  msg.sender */\n      caller\n        /* \"contracts/healthcare/Patient.sol\":7750:7769  doctors[msg.sender] */\n      0xffffffffffffffffffffffffffffffffffffffff\n      and\n      0xffffffffffffffffffffffffffffffffffffffff\n      and\n      dup2\n      mstore\n      0x20\n      add\n      swap1\n      dup2\n      mstore\n      0x20\n      add\n      0x00\n      keccak256\n      0x00\n      swap1\n      sload\n      swap1\n      0x0100\n      exp\n      swap1\n      div\n      0xff\n      and\n        /* \"contracts/healthcare/Patient.sol\":7747:7903  if(doctors[msg.sender]){... */\n      iszero\n      tag_110\n      jumpi\n        /* \"contracts/healthcare/Patient.sol\":7793:7800  doctors */\n      0x0b\n        /* \"contracts/healthcare/Patient.sol\":7793:7812  doctors[msg.sender] */\n      0x00\n        /* \"contracts/healthcare/Patient.sol\":7801:7811  msg.sender */\n      caller\n        /* \"contracts/healthcare/Patient.sol\":7793:7812  doctors[msg.sender] */\n      0xffffffffffffffffffffffffffffffffffffffff\n      and\n      0xffffffffffffffffffffffffffffffffffffffff\n      and\n      dup2\n      mstore\n      0x20\n      add\n      swap1\n      dup2\n      mstore\n      0x20\n      add\n      0x00\n      keccak256\n      0x00\n      swap1\n      sload\n      swap1\n      0x0100\n      exp\n      swap1\n      div\n      0xff\n      and\n        /* \"contracts/healthcare/Patient.sol\":7785:7828  require(doctors[msg.sender], \"Not working\") */\n      tag_111\n      jumpi\n      mload(0x40)\n      0x08c379a000000000000000000000000000000000000000000000000000000000\n      dup2\n      mstore\n      0x04\n      add\n      tag_112\n      swap1\n      tag_113\n      jump\t// in\n    tag_112:\n      mload(0x40)\n      dup1\n      swap2\n      sub\n      swap1\n      revert\n    tag_111:\n        /* \"contracts/healthcare/Patient.sol\":7850:7864  record_mapping */\n      0x0a\n        /* \"contracts/healthcare/Patient.sol\":7850:7876  record_mapping[_unique_id] */\n      0x00\n        /* \"contracts/healthcare/Patient.sol\":7865:7875  _unique_id */\n      dup4\n        /* \"contracts/healthcare/Patient.sol\":7850:7876  record_mapping[_unique_id] */\n      0xffffffffffffffffffffffffffffffffffffffff\n      and\n      0xffffffffffffffffffffffffffffffffffffffff\n      and\n      dup2\n      mstore\n      0x20\n      add\n      swap1\n      dup2\n      mstore\n      0x20\n      add\n      0x00\n      keccak256\n        /* \"contracts/healthcare/Patient.sol\":7850:7891  record_mapping[_unique_id].record_details */\n      0x04\n      add\n        /* \"contracts/healthcare/Patient.sol\":7843:7891  return record_mapping[_unique_id].record_details */\n      dup1\n      sload\n      tag_114\n      swap1\n      tag_105\n      jump\t// in\n    tag_114:\n      dup1\n      0x1f\n      add\n      0x20\n      dup1\n      swap2\n      div\n      mul\n      0x20\n      add\n      mload(0x40)\n      swap1\n      dup2\n      add\n      0x40\n      mstore\n      dup1\n      swap3\n      swap2\n      swap1\n      dup2\n      dup2\n      mstore\n      0x20\n      add\n      dup3\n      dup1\n      sload\n      tag_115\n      swap1\n      tag_105\n      jump\t// in\n    tag_115:\n      dup1\n      iszero\n      tag_116\n      jumpi\n      dup1\n      0x1f\n      lt\n      tag_117\n      jumpi\n      0x0100\n      dup1\n      dup4\n      sload\n      div\n      mul\n      dup4\n      mstore\n      swap2\n      0x20\n      add\n      swap2\n      jump(tag_116)\n    tag_117:\n      dup3\n      add\n      swap2\n      swap1\n      0x00\n      mstore\n      keccak256(0x00, 0x20)\n      swap1\n    tag_118:\n      dup2\n      sload\n      dup2\n      mstore\n      swap1\n      0x01\n      add\n      swap1\n      0x20\n      add\n      dup1\n      dup4\n      gt\n      tag_118\n      jumpi\n      dup3\n      swap1\n      sub\n      0x1f\n      and\n      dup3\n      add\n      swap2\n    tag_116:\n      pop\n      pop\n      pop\n      pop\n      pop\n      swap1\n      pop\n      jump(tag_99)\n        /* \"contracts/healthcare/Patient.sol\":7747:7903  if(doctors[msg.sender]){... */\n    tag_110:\n        /* \"contracts/healthcare/Patient.sol\":7917:7923  audits */\n      0x0c\n        /* \"contracts/healthcare/Patient.sol\":7917:7935  audits[msg.sender] */\n      0x00\n        /* \"contracts/healthcare/Patient.sol\":7924:7934  msg.sender */\n      caller\n        /* \"contracts/healthcare/Patient.sol\":7917:7935  audits[msg.sender] */\n      0xffffffffffffffffffffffffffffffffffffffff\n      and\n      0xffffffffffffffffffffffffffffffffffffffff\n      and\n      dup2\n      mstore\n      0x20\n      add\n      swap1\n      dup2\n      mstore\n      0x20\n      add\n      0x00\n      keccak256\n      0x00\n      swap1\n      sload\n      swap1\n      0x0100\n      exp\n      swap1\n      div\n      0xff\n      and\n        /* \"contracts/healthcare/Patient.sol\":7914:8068  if(audits[msg.sender]){... */\n      iszero\n      tag_119\n      jumpi\n        /* \"contracts/healthcare/Patient.sol\":7959:7965  audits */\n      0x0c\n        /* \"contracts/healthcare/Patient.sol\":7959:7977  audits[msg.sender] */\n      0x00\n        /* \"contracts/healthcare/Patient.sol\":7966:7976  msg.sender */\n      caller\n        /* \"contracts/healthcare/Patient.sol\":7959:7977  audits[msg.sender] */\n      0xffffffffffffffffffffffffffffffffffffffff\n      and\n      0xffffffffffffffffffffffffffffffffffffffff\n      and\n      dup2\n      mstore\n      0x20\n      add\n      swap1\n      dup2\n      mstore\n      0x20\n      add\n      0x00\n      keccak256\n      0x00\n      swap1\n      sload\n      swap1\n      0x0100\n      exp\n      swap1\n      div\n      0xff\n      and\n        /* \"contracts/healthcare/Patient.sol\":7951:7993  require(audits[msg.sender], \"Not working\") */\n      tag_120\n      jumpi\n      mload(0x40)\n      0x08c379a000000000000000000000000000000000000000000000000000000000\n      dup2\n      mstore\n      0x04\n      add\n      tag_121\n      swap1\n      tag_113\n      jump\t// in\n    tag_121:\n      mload(0x40)\n      dup1\n      swap2\n      sub\n      swap1\n      revert\n    tag_120:\n        /* \"contracts/healthcare/Patient.sol\":8015:8029  record_mapping */\n      0x0a\n        /* \"contracts/healthcare/Patient.sol\":8015:8041  record_mapping[_unique_id] */\n      0x00\n        /* \"contracts/healthcare/Patient.sol\":8030:8040  _unique_id */\n      dup4\n        /* \"contracts/healthcare/Patient.sol\":8015:8041  record_mapping[_unique_id] */\n      0xffffffffffffffffffffffffffffffffffffffff\n      and\n      0xffffffffffffffffffffffffffffffffffffffff\n      and\n      dup2\n      mstore\n      0x20\n      add\n      swap1\n      dup2\n      mstore\n      0x20\n      add\n      0x00\n      keccak256\n        /* \"contracts/healthcare/Patient.sol\":8015:8056  record_mapping[_unique_id].record_details */\n      0x04\n      add\n        /* \"contracts/healthcare/Patient.sol\":8008:8056  return record_mapping[_unique_id].record_details */\n      dup1\n      sload\n      tag_122\n      swap1\n      tag_105\n      jump\t// in\n    tag_122:\n      dup1\n      0x1f\n      add\n      0x20\n      dup1\n      swap2\n      div\n      mul\n      0x20\n      add\n      mload(0x40)\n      swap1\n      dup2\n      add\n      0x40\n      mstore\n      dup1\n      swap3\n      swap2\n      swap1\n      dup2\n      dup2\n      mstore\n      0x20\n      add\n      dup3\n      dup1\n      sload\n      tag_123\n      swap1\n      tag_105\n      jump\t// in\n    tag_123:\n      dup1\n      iszero\n      tag_124\n      jumpi\n      dup1\n      0x1f\n      lt\n      tag_125\n      jumpi\n      0x0100\n      dup1\n      dup4\n      sload\n      div\n      mul\n      dup4\n      mstore\n      swap2\n      0x20\n      add\n      swap2\n      jump(tag_124)\n    tag_125:\n      dup3\n      add\n      swap2\n      swap1\n      0x00\n      mstore\n      keccak256(0x00, 0x20)\n      swap1\n    tag_126:\n      dup2\n      sload\n      dup2\n      mstore\n      swap1\n      0x01\n      add\n      swap1\n      0x20\n      add\n      dup1\n      dup4\n      gt\n      tag_126\n      jumpi\n      dup3\n      swap1\n      sub\n      0x1f\n      and\n      dup3\n      add\n      swap2\n    tag_124:\n      pop\n      pop\n      pop\n      pop\n      pop\n      swap1\n      pop\n      jump(tag_99)\n        /* \"contracts/healthcare/Patient.sol\":7914:8068  if(audits[msg.sender]){... */\n    tag_119:\n        /* \"contracts/healthcare/Patient.sol\":8078:8113  return \"You have no authorization.\" */\n      mload(0x40)\n      dup1\n      0x40\n      add\n      0x40\n      mstore\n      dup1\n      0x1a\n      dup2\n      mstore\n      0x20\n      add\n      0x596f752068617665206e6f20617574686f72697a6174696f6e2e000000000000\n      dup2\n      mstore\n      pop\n      swap1\n      pop\n        /* \"contracts/healthcare/Patient.sol\":7293:8121  function get_record_details(address _unique_id) view public returns (string memory) {... */\n    tag_99:\n      swap2\n      swap1\n      pop\n      jump\t// out\n        /* \"contracts/healthcare/Patient.sol\":1249:1306  mapping (address => medical_record) public record_mapping */\n    tag_31:\n      mstore(0x20, 0x0a)\n      dup1\n      0x00\n      mstore\n      keccak256(0x00, 0x40)\n      0x00\n      swap2\n      pop\n      swap1\n      pop\n      dup1\n      0x00\n      add\n      0x00\n      swap1\n      sload\n      swap1\n      0x0100\n      exp\n      swap1\n      div\n      0xff\n      and\n      swap1\n      dup1\n      0x01\n      add\n      sload\n      swap1\n      dup1\n      0x02\n      add\n      dup1\n      sload\n      tag_127\n      swap1\n      tag_105\n      jump\t// in\n    tag_127:\n      dup1\n      0x1f\n      add\n      0x20\n      dup1\n      swap2\n      div\n      mul\n      0x20\n      add\n      mload(0x40)\n      swap1\n      dup2\n      add\n      0x40\n      mstore\n      dup1\n      swap3\n      swap2\n      swap1\n      dup2\n      dup2\n      mstore\n      0x20\n      add\n      dup3\n      dup1\n      sload\n      tag_128\n      swap1\n      tag_105\n      jump\t// in\n    tag_128:\n      dup1\n      iszero\n      tag_129\n      jumpi\n      dup1\n      0x1f\n      lt\n      tag_130\n      jumpi\n      0x0100\n      dup1\n      dup4\n      sload\n      div\n      mul\n      dup4\n      mstore\n      swap2\n      0x20\n      add\n      swap2\n      jump(tag_129)\n    tag_130:\n      dup3\n      add\n      swap2\n      swap1\n      0x00\n      mstore\n      keccak256(0x00, 0x20)\n      swap1\n    tag_131:\n      dup2\n      sload\n      dup2\n      mstore\n      swap1\n      0x01\n      add\n      swap1\n      0x20\n      add\n      dup1\n      dup4\n      gt\n      tag_131\n      jumpi\n      dup3\n      swap1\n      sub\n      0x1f\n      and\n      dup3\n      add\n      swap2\n    tag_129:\n      pop\n      pop\n      pop\n      pop\n      pop\n      swap1\n      dup1\n      0x03\n      add\n      sload\n      swap1\n      dup1\n      0x04\n      add\n      dup1\n      sload\n      tag_132\n      swap1\n      tag_105\n      jump\t// in\n    tag_132:\n      dup1\n      0x1f\n      add\n      0x20\n      dup1\n      swap2\n      div\n      mul\n      0x20\n      add\n      mload(0x40)\n      swap1\n      dup2\n      add\n      0x40\n      mstore\n      dup1\n      swap3\n      swap2\n      swap1\n      dup2\n      dup2\n      mstore\n      0x20\n      add\n      dup3\n      dup1\n      sload\n      tag_133\n      swap1\n      tag_105\n      jump\t// in\n    tag_133:\n      dup1\n      iszero\n      tag_134\n      jumpi\n      dup1\n      0x1f\n      lt\n      tag_135\n      jumpi\n      0x0100\n      dup1\n      dup4\n      sload\n      div\n      mul\n      dup4\n      mstore\n      swap2\n      0x20\n      add\n      swap2\n      jump(tag_134)\n    tag_135:\n      dup3\n      add\n      swap2\n      swap1\n      0x00\n      mstore\n      keccak256(0x00, 0x20)\n      swap1\n    tag_136:\n      dup2\n      sload\n      dup2\n      mstore\n      swap1\n      0x01\n      add\n      swap1\n      0x20\n      add\n      dup1\n      dup4\n      gt\n      tag_136\n      jumpi\n      dup3\n      swap1\n      sub\n      0x1f\n      and\n      dup3\n      add\n      swap2\n    tag_134:\n      pop\n      pop\n      pop\n      pop\n      pop\n      swap1\n      dup1\n      0x05\n      add\n      0x00\n      swap1\n      sload\n      swap1\n      0x0100\n      exp\n      swap1\n      div\n      0xffffffffffffffffffffffffffffffffffffffff\n      and\n      swap1\n      dup1\n      0x06\n      add\n      sload\n      swap1\n      dup1\n      0x07\n      add\n      0x00\n      swap1\n      sload\n      swap1\n      0x0100\n      exp\n      swap1\n      div\n      0xffffffffffffffffffffffffffffffffffffffff\n      and\n      swap1\n      dup1\n      0x08\n      add\n      sload\n      swap1\n      dup1\n      0x09\n      add\n      0x00\n      swap1\n      sload\n      swap1\n      0x0100\n      exp\n      swap1\n      div\n      0xffffffffffffffffffffffffffffffffffffffff\n      and\n      swap1\n      dup1\n      0x0a\n      add\n      sload\n      swap1\n      pop\n      dup12\n      jump\t// out\n        /* \"contracts/healthcare/Patient.sol\":10156:11010  function doctor_delete_record(address _unique_id) public returns (string memory){... */\n    tag_36:\n        /* \"contracts/healthcare/Patient.sol\":10222:10235  string memory */\n      0x60\n        /* \"contracts/healthcare/Patient.sol\":10255:10269  record_mapping */\n      0x0a\n        /* \"contracts/healthcare/Patient.sol\":10255:10281  record_mapping[_unique_id] */\n      0x00\n        /* \"contracts/healthcare/Patient.sol\":10270:10280  _unique_id */\n      dup4\n        /* \"contracts/healthcare/Patient.sol\":10255:10281  record_mapping[_unique_id] */\n      0xffffffffffffffffffffffffffffffffffffffff\n      and\n      0xffffffffffffffffffffffffffffffffffffffff\n      and\n      dup2\n      mstore\n      0x20\n      add\n      swap1\n      dup2\n      mstore\n      0x20\n      add\n      0x00\n      keccak256\n        /* \"contracts/healthcare/Patient.sol\":10255:10298  record_mapping[_unique_id].is_uid_generated */\n      0x00\n      add\n      0x00\n      swap1\n      sload\n      swap1\n      0x0100\n      exp\n      swap1\n      div\n      0xff\n      and\n        /* \"contracts/healthcare/Patient.sol\":10247:10299  require(record_mapping[_unique_id].is_uid_generated) */\n      tag_138\n      jumpi\n      revert(0x00, 0x00)\n    tag_138:\n        /* \"contracts/healthcare/Patient.sol\":10318:10325  doctors */\n      0x0b\n        /* \"contracts/healthcare/Patient.sol\":10318:10337  doctors[msg.sender] */\n      0x00\n        /* \"contracts/healthcare/Patient.sol\":10326:10336  msg.sender */\n      caller\n        /* \"contracts/healthcare/Patient.sol\":10318:10337  doctors[msg.sender] */\n      0xffffffffffffffffffffffffffffffffffffffff\n      and\n      0xffffffffffffffffffffffffffffffffffffffff\n      and\n      dup2\n      mstore\n      0x20\n      add\n      swap1\n      dup2\n      mstore\n      0x20\n      add\n      0x00\n      keccak256\n      0x00\n      swap1\n      sload\n      swap1\n      0x0100\n      exp\n      swap1\n      div\n      0xff\n      and\n        /* \"contracts/healthcare/Patient.sol\":10310:10338  require(doctors[msg.sender]) */\n      tag_139\n      jumpi\n      revert(0x00, 0x00)\n    tag_139:\n        /* \"contracts/healthcare/Patient.sol\":10399:10400  1 */\n      0x01\n        /* \"contracts/healthcare/Patient.sol\":10357:10371  record_mapping */\n      0x0a\n        /* \"contracts/healthcare/Patient.sol\":10357:10383  record_mapping[_unique_id] */\n      0x00\n        /* \"contracts/healthcare/Patient.sol\":10372:10382  _unique_id */\n      dup5\n        /* \"contracts/healthcare/Patient.sol\":10357:10383  record_mapping[_unique_id] */\n      0xffffffffffffffffffffffffffffffffffffffff\n      and\n      0xffffffffffffffffffffffffffffffffffffffff\n      and\n      dup2\n      mstore\n      0x20\n      add\n      swap1\n      dup2\n      mstore\n      0x20\n      add\n      0x00\n      keccak256\n        /* \"contracts/healthcare/Patient.sol\":10357:10397  record_mapping[_unique_id].record_status */\n      0x03\n      add\n      sload\n        /* \"contracts/healthcare/Patient.sol\":10357:10400  record_mapping[_unique_id].record_status!=1 */\n      sub\n        /* \"contracts/healthcare/Patient.sol\":10349:10401  require(record_mapping[_unique_id].record_status!=1) */\n      tag_140\n      jumpi\n      revert(0x00, 0x00)\n    tag_140:\n        /* \"contracts/healthcare/Patient.sol\":10454:10464  msg.sender */\n      caller\n        /* \"contracts/healthcare/Patient.sol\":10418:10432  record_mapping */\n      0x0a\n        /* \"contracts/healthcare/Patient.sol\":10418:10444  record_mapping[_unique_id] */\n      0x00\n        /* \"contracts/healthcare/Patient.sol\":10433:10443  _unique_id */\n      dup5\n        /* \"contracts/healthcare/Patient.sol\":10418:10444  record_mapping[_unique_id] */\n      0xffffffffffffffffffffffffffffffffffffffff\n      and\n      0xffffffffffffffffffffffffffffffffffffffff\n      and\n      dup2\n      mstore\n      0x20\n      add\n      swap1\n      dup2\n      mstore\n      0x20\n      add\n      0x00\n      keccak256\n        /* \"contracts/healthcare/Patient.sol\":10418:10451  record_mapping[_unique_id].doctor */\n      0x07\n      add\n      0x00\n        /* \"contracts/healthcare/Patient.sol\":10418:10464  record_mapping[_unique_id].doctor = msg.sender */\n      0x0100\n      exp\n      dup2\n      sload\n      dup2\n      0xffffffffffffffffffffffffffffffffffffffff\n      mul\n      not\n      and\n      swap1\n      dup4\n      0xffffffffffffffffffffffffffffffffffffffff\n      and\n      mul\n      or\n      swap1\n      sstore\n      pop\n        /* \"contracts/healthcare/Patient.sol\":10516:10531  block.timestamp */\n      timestamp\n        /* \"contracts/healthcare/Patient.sol\":10475:10489  record_mapping */\n      0x0a\n        /* \"contracts/healthcare/Patient.sol\":10475:10501  record_mapping[_unique_id] */\n      0x00\n        /* \"contracts/healthcare/Patient.sol\":10490:10500  _unique_id */\n      dup5\n        /* \"contracts/healthcare/Patient.sol\":10475:10501  record_mapping[_unique_id] */\n      0xffffffffffffffffffffffffffffffffffffffff\n      and\n      0xffffffffffffffffffffffffffffffffffffffff\n      and\n      dup2\n      mstore\n      0x20\n      add\n      swap1\n      dup2\n      mstore\n      0x20\n      add\n      0x00\n      keccak256\n        /* \"contracts/healthcare/Patient.sol\":10475:10513  record_mapping[_unique_id].doctor_time */\n      0x08\n      add\n        /* \"contracts/healthcare/Patient.sol\":10475:10531  record_mapping[_unique_id].doctor_time = block.timestamp */\n      dup2\n      swap1\n      sstore\n      pop\n        /* \"contracts/healthcare/Patient.sol\":10552:10598  record_mapping[_unique_id].record_details = \"\" */\n      mload(0x40)\n      dup1\n      0x20\n      add\n      0x40\n      mstore\n      dup1\n      0x00\n      dup2\n      mstore\n      pop\n        /* \"contracts/healthcare/Patient.sol\":10552:10566  record_mapping */\n      0x0a\n        /* \"contracts/healthcare/Patient.sol\":10552:10578  record_mapping[_unique_id] */\n      0x00\n        /* \"contracts/healthcare/Patient.sol\":10567:10577  _unique_id */\n      dup5\n        /* \"contracts/healthcare/Patient.sol\":10552:10578  record_mapping[_unique_id] */\n      0xffffffffffffffffffffffffffffffffffffffff\n      and\n      0xffffffffffffffffffffffffffffffffffffffff\n      and\n      dup2\n      mstore\n      0x20\n      add\n      swap1\n      dup2\n      mstore\n      0x20\n      add\n      0x00\n      keccak256\n        /* \"contracts/healthcare/Patient.sol\":10552:10593  record_mapping[_unique_id].record_details */\n      0x04\n      add\n        /* \"contracts/healthcare/Patient.sol\":10552:10598  record_mapping[_unique_id].record_details = \"\" */\n      swap1\n      dup2\n      tag_141\n      swap2\n      swap1\n      tag_142\n      jump\t// in\n    tag_141:\n      pop\n        /* \"contracts/healthcare/Patient.sol\":10652:10653  1 */\n      0x01\n        /* \"contracts/healthcare/Patient.sol\":10609:10623  record_mapping */\n      0x0a\n        /* \"contracts/healthcare/Patient.sol\":10609:10635  record_mapping[_unique_id] */\n      0x00\n        /* \"contracts/healthcare/Patient.sol\":10624:10634  _unique_id */\n      dup5\n        /* \"contracts/healthcare/Patient.sol\":10609:10635  record_mapping[_unique_id] */\n      0xffffffffffffffffffffffffffffffffffffffff\n      and\n      0xffffffffffffffffffffffffffffffffffffffff\n      and\n      dup2\n      mstore\n      0x20\n      add\n      swap1\n      dup2\n      mstore\n      0x20\n      add\n      0x00\n      keccak256\n        /* \"contracts/healthcare/Patient.sol\":10609:10649  record_mapping[_unique_id].record_status */\n      0x03\n      add\n        /* \"contracts/healthcare/Patient.sol\":10609:10653  record_mapping[_unique_id].record_status = 1 */\n      dup2\n      swap1\n      sstore\n      pop\n        /* \"contracts/healthcare/Patient.sol\":10664:10740  record_mapping[_unique_id].record_msg = \"Record is deleted by doctor/audit.\" */\n      mload(0x40)\n      dup1\n      0x60\n      add\n      0x40\n      mstore\n      dup1\n      0x22\n      dup2\n      mstore\n      0x20\n      add\n      data_e102acbd7087c93401d8c6a9b5bbf1ae4dfc296293aff2204f4fc047b2628e40\n      0x22\n      swap2\n      codecopy\n        /* \"contracts/healthcare/Patient.sol\":10664:10678  record_mapping */\n      0x0a\n        /* \"contracts/healthcare/Patient.sol\":10664:10690  record_mapping[_unique_id] */\n      0x00\n        /* \"contracts/healthcare/Patient.sol\":10679:10689  _unique_id */\n      dup5\n        /* \"contracts/healthcare/Patient.sol\":10664:10690  record_mapping[_unique_id] */\n      0xffffffffffffffffffffffffffffffffffffffff\n      and\n      0xffffffffffffffffffffffffffffffffffffffff\n      and\n      dup2\n      mstore\n      0x20\n      add\n      swap1\n      dup2\n      mstore\n      0x20\n      add\n      0x00\n      keccak256\n        /* \"contracts/healthcare/Patient.sol\":10664:10701  record_mapping[_unique_id].record_msg */\n      0x02\n      add\n        /* \"contracts/healthcare/Patient.sol\":10664:10740  record_mapping[_unique_id].record_msg = \"Record is deleted by doctor/audit.\" */\n      swap1\n      dup2\n      tag_143\n      swap2\n      swap1\n      tag_142\n      jump\t// in\n    tag_143:\n      pop\n        /* \"contracts/healthcare/Patient.sol\":10756:10946  event_doctor_delete(... */\n      0x41e7aef4a9a40592736811efa52bae55e6fd1cd88db143dc78a6370b2aac0960\n        /* \"contracts/healthcare/Patient.sol\":10790:10804  record_mapping */\n      0x0a\n        /* \"contracts/healthcare/Patient.sol\":10790:10816  record_mapping[_unique_id] */\n      0x00\n        /* \"contracts/healthcare/Patient.sol\":10805:10815  _unique_id */\n      dup5\n        /* \"contracts/healthcare/Patient.sol\":10790:10816  record_mapping[_unique_id] */\n      0xffffffffffffffffffffffffffffffffffffffff\n      and\n      0xffffffffffffffffffffffffffffffffffffffff\n      and\n      dup2\n      mstore\n      0x20\n      add\n      swap1\n      dup2\n      mstore\n      0x20\n      add\n      0x00\n      keccak256\n        /* \"contracts/healthcare/Patient.sol\":10790:10827  record_mapping[_unique_id].record_msg */\n      0x02\n      add\n        /* \"contracts/healthcare/Patient.sol\":10842:10856  record_mapping */\n      0x0a\n        /* \"contracts/healthcare/Patient.sol\":10842:10868  record_mapping[_unique_id] */\n      0x00\n        /* \"contracts/healthcare/Patient.sol\":10857:10867  _unique_id */\n      dup6\n        /* \"contracts/healthcare/Patient.sol\":10842:10868  record_mapping[_unique_id] */\n      0xffffffffffffffffffffffffffffffffffffffff\n      and\n      0xffffffffffffffffffffffffffffffffffffffff\n      and\n      dup2\n      mstore\n      0x20\n      add\n      swap1\n      dup2\n      mstore\n      0x20\n      add\n      0x00\n      keccak256\n        /* \"contracts/healthcare/Patient.sol\":10842:10882  record_mapping[_unique_id].record_status */\n      0x03\n      add\n      sload\n        /* \"contracts/healthcare/Patient.sol\":10897:10911  record_mapping */\n      0x0a\n        /* \"contracts/healthcare/Patient.sol\":10897:10923  record_mapping[_unique_id] */\n      0x00\n        /* \"contracts/healthcare/Patient.sol\":10912:10922  _unique_id */\n      dup7\n        /* \"contracts/healthcare/Patient.sol\":10897:10923  record_mapping[_unique_id] */\n      0xffffffffffffffffffffffffffffffffffffffff\n      and\n      0xffffffffffffffffffffffffffffffffffffffff\n      and\n      dup2\n      mstore\n      0x20\n      add\n      swap1\n      dup2\n      mstore\n      0x20\n      add\n      0x00\n      keccak256\n        /* \"contracts/healthcare/Patient.sol\":10897:10935  record_mapping[_unique_id].record_time */\n      0x06\n      add\n      sload\n        /* \"contracts/healthcare/Patient.sol\":10756:10946  event_doctor_delete(... */\n      mload(0x40)\n      tag_144\n      swap4\n      swap3\n      swap2\n      swap1\n      tag_145\n      jump\t// in\n    tag_144:\n      mload(0x40)\n      dup1\n      swap2\n      sub\n      swap1\n      log1\n        /* \"contracts/healthcare/Patient.sol\":10957:11002  return \"Record has been successfully deleted\" */\n      mload(0x40)\n      dup1\n      0x60\n      add\n      0x40\n      mstore\n      dup1\n      0x24\n      dup2\n      mstore\n      0x20\n      add\n      data_043c9a87247bf674d41f3502006b2d867a9b9ef61039032b811494ba5f192019\n      0x24\n      swap2\n      codecopy\n      swap1\n      pop\n        /* \"contracts/healthcare/Patient.sol\":10156:11010  function doctor_delete_record(address _unique_id) public returns (string memory){... */\n      swap2\n      swap1\n      pop\n      jump\t// out\n        /* \"contracts/healthcare/Patient.sol\":5890:6264  function removeDoctors(address _doctor_address) public only_owner returns (string memory) {... */\n    tag_40:\n        /* \"contracts/healthcare/Patient.sol\":5965:5978  string memory */\n      0x60\n        /* \"contracts/healthcare/Patient.sol\":2210:2220  msg.sender */\n      caller\n        /* \"contracts/healthcare/Patient.sol\":2201:2220  owner == msg.sender */\n      0xffffffffffffffffffffffffffffffffffffffff\n      and\n        /* \"contracts/healthcare/Patient.sol\":2201:2206  owner */\n      0x00\n      0x00\n      swap1\n      sload\n      swap1\n      0x0100\n      exp\n      swap1\n      div\n      0xffffffffffffffffffffffffffffffffffffffff\n      and\n        /* \"contracts/healthcare/Patient.sol\":2201:2220  owner == msg.sender */\n      0xffffffffffffffffffffffffffffffffffffffff\n      and\n      eq\n        /* \"contracts/healthcare/Patient.sol\":2193:2221  require(owner == msg.sender) */\n      tag_147\n      jumpi\n      revert(0x00, 0x00)\n    tag_147:\n        /* \"contracts/healthcare/Patient.sol\":6040:6047  doctors */\n      0x0b\n        /* \"contracts/healthcare/Patient.sol\":6040:6064  doctors[_doctor_address] */\n      0x00\n        /* \"contracts/healthcare/Patient.sol\":6048:6063  _doctor_address */\n      dup4\n        /* \"contracts/healthcare/Patient.sol\":6040:6064  doctors[_doctor_address] */\n      0xffffffffffffffffffffffffffffffffffffffff\n      and\n      0xffffffffffffffffffffffffffffffffffffffff\n      and\n      dup2\n      mstore\n      0x20\n      add\n      swap1\n      dup2\n      mstore\n      0x20\n      add\n      0x00\n      keccak256\n      0x00\n      swap1\n      sload\n      swap1\n      0x0100\n      exp\n      swap1\n      div\n      0xff\n      and\n        /* \"contracts/healthcare/Patient.sol\":6037:6124  if(doctors[_doctor_address]){... */\n      iszero\n      tag_149\n      jumpi\n        /* \"contracts/healthcare/Patient.sol\":6107:6112  false */\n      0x00\n        /* \"contracts/healthcare/Patient.sol\":6080:6087  doctors */\n      0x0b\n        /* \"contracts/healthcare/Patient.sol\":6080:6104  doctors[_doctor_address] */\n      0x00\n        /* \"contracts/healthcare/Patient.sol\":6088:6103  _doctor_address */\n      dup5\n        /* \"contracts/healthcare/Patient.sol\":6080:6104  doctors[_doctor_address] */\n      0xffffffffffffffffffffffffffffffffffffffff\n      and\n      0xffffffffffffffffffffffffffffffffffffffff\n      and\n      dup2\n      mstore\n      0x20\n      add\n      swap1\n      dup2\n      mstore\n      0x20\n      add\n      0x00\n      keccak256\n      0x00\n        /* \"contracts/healthcare/Patient.sol\":6080:6112  doctors[_doctor_address] = false */\n      0x0100\n      exp\n      dup2\n      sload\n      dup2\n      0xff\n      mul\n      not\n      and\n      swap1\n      dup4\n      iszero\n      iszero\n      mul\n      or\n      swap1\n      sstore\n      pop\n        /* \"contracts/healthcare/Patient.sol\":6037:6124  if(doctors[_doctor_address]){... */\n    tag_149:\n        /* \"contracts/healthcare/Patient.sol\":6139:6216  event_remove_doctor(\"A doctor is removed.\", _doctor_address, block.timestamp) */\n      0xd12f5594e82ad336a8fa185a7cc3aab483eddcf14e26ebc4ea81f6400b120a\n        /* \"contracts/healthcare/Patient.sol\":6183:6198  _doctor_address */\n      dup3\n        /* \"contracts/healthcare/Patient.sol\":6200:6215  block.timestamp */\n      timestamp\n        /* \"contracts/healthcare/Patient.sol\":6139:6216  event_remove_doctor(\"A doctor is removed.\", _doctor_address, block.timestamp) */\n      mload(0x40)\n      tag_150\n      swap3\n      swap2\n      swap1\n      tag_151\n      jump\t// in\n    tag_150:\n      mload(0x40)\n      dup1\n      swap2\n      sub\n      swap1\n      log1\n        /* \"contracts/healthcare/Patient.sol\":6227:6256  return \"A doctor is removed.\" */\n      mload(0x40)\n      dup1\n      0x40\n      add\n      0x40\n      mstore\n      dup1\n      0x14\n      dup2\n      mstore\n      0x20\n      add\n      0x4120646f63746f722069732072656d6f7665642e000000000000000000000000\n      dup2\n      mstore\n      pop\n      swap1\n      pop\n        /* \"contracts/healthcare/Patient.sol\":5890:6264  function removeDoctors(address _doctor_address) public only_owner returns (string memory) {... */\n      swap2\n      swap1\n      pop\n      jump\t// out\n        /* \"contracts/healthcare/Patient.sol\":8313:9154  function delete_record(address _unique_id) public returns (string memory){... */\n    tag_44:\n        /* \"contracts/healthcare/Patient.sol\":8372:8385  string memory */\n      0x60\n        /* \"contracts/healthcare/Patient.sol\":8452:8456  true */\n      0x01\n        /* \"contracts/healthcare/Patient.sol\":8405:8456  record_mapping[_unique_id].is_uid_generated == true */\n      iszero\n      iszero\n        /* \"contracts/healthcare/Patient.sol\":8405:8419  record_mapping */\n      0x0a\n        /* \"contracts/healthcare/Patient.sol\":8405:8431  record_mapping[_unique_id] */\n      0x00\n        /* \"contracts/healthcare/Patient.sol\":8420:8430  _unique_id */\n      dup5\n        /* \"contracts/healthcare/Patient.sol\":8405:8431  record_mapping[_unique_id] */\n      0xffffffffffffffffffffffffffffffffffffffff\n      and\n      0xffffffffffffffffffffffffffffffffffffffff\n      and\n      dup2\n      mstore\n      0x20\n      add\n      swap1\n      dup2\n      mstore\n      0x20\n      add\n      0x00\n      keccak256\n        /* \"contracts/healthcare/Patient.sol\":8405:8448  record_mapping[_unique_id].is_uid_generated */\n      0x00\n      add\n      0x00\n      swap1\n      sload\n      swap1\n      0x0100\n      exp\n      swap1\n      div\n      0xff\n      and\n        /* \"contracts/healthcare/Patient.sol\":8405:8456  record_mapping[_unique_id].is_uid_generated == true */\n      iszero\n      iszero\n      eq\n        /* \"contracts/healthcare/Patient.sol\":8397:8457  require(record_mapping[_unique_id].is_uid_generated == true) */\n      tag_153\n      jumpi\n      revert(0x00, 0x00)\n    tag_153:\n        /* \"contracts/healthcare/Patient.sol\":8522:8532  msg.sender */\n      caller\n        /* \"contracts/healthcare/Patient.sol\":8476:8532  record_mapping[_unique_id].patient_address == msg.sender */\n      0xffffffffffffffffffffffffffffffffffffffff\n      and\n        /* \"contracts/healthcare/Patient.sol\":8476:8490  record_mapping */\n      0x0a\n        /* \"contracts/healthcare/Patient.sol\":8476:8502  record_mapping[_unique_id] */\n      0x00\n        /* \"contracts/healthcare/Patient.sol\":8491:8501  _unique_id */\n      dup5\n        /* \"contracts/healthcare/Patient.sol\":8476:8502  record_mapping[_unique_id] */\n      0xffffffffffffffffffffffffffffffffffffffff\n      and\n      0xffffffffffffffffffffffffffffffffffffffff\n      and\n      dup2\n      mstore\n      0x20\n      add\n      swap1\n      dup2\n      mstore\n      0x20\n      add\n      0x00\n      keccak256\n        /* \"contracts/healthcare/Patient.sol\":8476:8518  record_mapping[_unique_id].patient_address */\n      0x05\n      add\n      0x00\n      swap1\n      sload\n      swap1\n      0x0100\n      exp\n      swap1\n      div\n      0xffffffffffffffffffffffffffffffffffffffff\n      and\n        /* \"contracts/healthcare/Patient.sol\":8476:8532  record_mapping[_unique_id].patient_address == msg.sender */\n      0xffffffffffffffffffffffffffffffffffffffff\n      and\n      eq\n        /* \"contracts/healthcare/Patient.sol\":8468:8533  require(record_mapping[_unique_id].patient_address == msg.sender) */\n      tag_154\n      jumpi\n      revert(0x00, 0x00)\n    tag_154:\n        /* \"contracts/healthcare/Patient.sol\":8594:8595  1 */\n      0x01\n        /* \"contracts/healthcare/Patient.sol\":8552:8566  record_mapping */\n      0x0a\n        /* \"contracts/healthcare/Patient.sol\":8552:8578  record_mapping[_unique_id] */\n      0x00\n        /* \"contracts/healthcare/Patient.sol\":8567:8577  _unique_id */\n      dup5\n        /* \"contracts/healthcare/Patient.sol\":8552:8578  record_mapping[_unique_id] */\n      0xffffffffffffffffffffffffffffffffffffffff\n      and\n      0xffffffffffffffffffffffffffffffffffffffff\n      and\n      dup2\n      mstore\n      0x20\n      add\n      swap1\n      dup2\n      mstore\n      0x20\n      add\n      0x00\n      keccak256\n        /* \"contracts/healthcare/Patient.sol\":8552:8592  record_mapping[_unique_id].record_status */\n      0x03\n      add\n      sload\n        /* \"contracts/healthcare/Patient.sol\":8552:8595  record_mapping[_unique_id].record_status!=1 */\n      sub\n        /* \"contracts/healthcare/Patient.sol\":8544:8596  require(record_mapping[_unique_id].record_status!=1) */\n      tag_155\n      jumpi\n      revert(0x00, 0x00)\n    tag_155:\n        /* \"contracts/healthcare/Patient.sol\":8618:8664  record_mapping[_unique_id].record_details = \"\" */\n      mload(0x40)\n      dup1\n      0x20\n      add\n      0x40\n      mstore\n      dup1\n      0x00\n      dup2\n      mstore\n      pop\n        /* \"contracts/healthcare/Patient.sol\":8618:8632  record_mapping */\n      0x0a\n        /* \"contracts/healthcare/Patient.sol\":8618:8644  record_mapping[_unique_id] */\n      0x00\n        /* \"contracts/healthcare/Patient.sol\":8633:8643  _unique_id */\n      dup5\n        /* \"contracts/healthcare/Patient.sol\":8618:8644  record_mapping[_unique_id] */\n      0xffffffffffffffffffffffffffffffffffffffff\n      and\n      0xffffffffffffffffffffffffffffffffffffffff\n      and\n      dup2\n      mstore\n      0x20\n      add\n      swap1\n      dup2\n      mstore\n      0x20\n      add\n      0x00\n      keccak256\n        /* \"contracts/healthcare/Patient.sol\":8618:8659  record_mapping[_unique_id].record_details */\n      0x04\n      add\n        /* \"contracts/healthcare/Patient.sol\":8618:8664  record_mapping[_unique_id].record_details = \"\" */\n      swap1\n      dup2\n      tag_156\n      swap2\n      swap1\n      tag_142\n      jump\t// in\n    tag_156:\n      pop\n        /* \"contracts/healthcare/Patient.sol\":8716:8731  block.timestamp */\n      timestamp\n        /* \"contracts/healthcare/Patient.sol\":8675:8689  record_mapping */\n      0x0a\n        /* \"contracts/healthcare/Patient.sol\":8675:8701  record_mapping[_unique_id] */\n      0x00\n        /* \"contracts/healthcare/Patient.sol\":8690:8700  _unique_id */\n      dup5\n        /* \"contracts/healthcare/Patient.sol\":8675:8701  record_mapping[_unique_id] */\n      0xffffffffffffffffffffffffffffffffffffffff\n      and\n      0xffffffffffffffffffffffffffffffffffffffff\n      and\n      dup2\n      mstore\n      0x20\n      add\n      swap1\n      dup2\n      mstore\n      0x20\n      add\n      0x00\n      keccak256\n        /* \"contracts/healthcare/Patient.sol\":8675:8713  record_mapping[_unique_id].record_time */\n      0x06\n      add\n        /* \"contracts/healthcare/Patient.sol\":8675:8731  record_mapping[_unique_id].record_time = block.timestamp */\n      dup2\n      swap1\n      sstore\n      pop\n        /* \"contracts/healthcare/Patient.sol\":8797:8798  1 */\n      0x01\n        /* \"contracts/healthcare/Patient.sol\":8754:8768  record_mapping */\n      0x0a\n        /* \"contracts/healthcare/Patient.sol\":8754:8780  record_mapping[_unique_id] */\n      0x00\n        /* \"contracts/healthcare/Patient.sol\":8769:8779  _unique_id */\n      dup5\n        /* \"contracts/healthcare/Patient.sol\":8754:8780  record_mapping[_unique_id] */\n      0xffffffffffffffffffffffffffffffffffffffff\n      and\n      0xffffffffffffffffffffffffffffffffffffffff\n      and\n      dup2\n      mstore\n      0x20\n      add\n      swap1\n      dup2\n      mstore\n      0x20\n      add\n      0x00\n      keccak256\n        /* \"contracts/healthcare/Patient.sol\":8754:8794  record_mapping[_unique_id].record_status */\n      0x03\n      add\n        /* \"contracts/healthcare/Patient.sol\":8754:8798  record_mapping[_unique_id].record_status = 1 */\n      dup2\n      swap1\n      sstore\n      pop\n        /* \"contracts/healthcare/Patient.sol\":8809:8880  record_mapping[_unique_id].record_msg = \"Record is deleted by patient.\" */\n      mload(0x40)\n      dup1\n      0x40\n      add\n      0x40\n      mstore\n      dup1\n      0x1d\n      dup2\n      mstore\n      0x20\n      add\n      0x5265636f72642069732064656c657465642062792070617469656e742e000000\n      dup2\n      mstore\n      pop\n        /* \"contracts/healthcare/Patient.sol\":8809:8823  record_mapping */\n      0x0a\n        /* \"contracts/healthcare/Patient.sol\":8809:8835  record_mapping[_unique_id] */\n      0x00\n        /* \"contracts/healthcare/Patient.sol\":8824:8834  _unique_id */\n      dup5\n        /* \"contracts/healthcare/Patient.sol\":8809:8835  record_mapping[_unique_id] */\n      0xffffffffffffffffffffffffffffffffffffffff\n      and\n      0xffffffffffffffffffffffffffffffffffffffff\n      and\n      dup2\n      mstore\n      0x20\n      add\n      swap1\n      dup2\n      mstore\n      0x20\n      add\n      0x00\n      keccak256\n        /* \"contracts/healthcare/Patient.sol\":8809:8846  record_mapping[_unique_id].record_msg */\n      0x02\n      add\n        /* \"contracts/healthcare/Patient.sol\":8809:8880  record_mapping[_unique_id].record_msg = \"Record is deleted by patient.\" */\n      swap1\n      dup2\n      tag_157\n      swap2\n      swap1\n      tag_142\n      jump\t// in\n    tag_157:\n      pop\n        /* \"contracts/healthcare/Patient.sol\":8896:9087  event_patient_delete(... */\n      0xc5451672c113180dcc201ad0122fe0677464f75276e03a264699d75d16906378\n        /* \"contracts/healthcare/Patient.sol\":8931:8945  record_mapping */\n      0x0a\n        /* \"contracts/healthcare/Patient.sol\":8931:8957  record_mapping[_unique_id] */\n      0x00\n        /* \"contracts/healthcare/Patient.sol\":8946:8956  _unique_id */\n      dup5\n        /* \"contracts/healthcare/Patient.sol\":8931:8957  record_mapping[_unique_id] */\n      0xffffffffffffffffffffffffffffffffffffffff\n      and\n      0xffffffffffffffffffffffffffffffffffffffff\n      and\n      dup2\n      mstore\n      0x20\n      add\n      swap1\n      dup2\n      mstore\n      0x20\n      add\n      0x00\n      keccak256\n        /* \"contracts/healthcare/Patient.sol\":8931:8968  record_mapping[_unique_id].record_msg */\n      0x02\n      add\n        /* \"contracts/healthcare/Patient.sol\":8983:8997  record_mapping */\n      0x0a\n        /* \"contracts/healthcare/Patient.sol\":8983:9009  record_mapping[_unique_id] */\n      0x00\n        /* \"contracts/healthcare/Patient.sol\":8998:9008  _unique_id */\n      dup6\n        /* \"contracts/healthcare/Patient.sol\":8983:9009  record_mapping[_unique_id] */\n      0xffffffffffffffffffffffffffffffffffffffff\n      and\n      0xffffffffffffffffffffffffffffffffffffffff\n      and\n      dup2\n      mstore\n      0x20\n      add\n      swap1\n      dup2\n      mstore\n      0x20\n      add\n      0x00\n      keccak256\n        /* \"contracts/healthcare/Patient.sol\":8983:9023  record_mapping[_unique_id].record_status */\n      0x03\n      add\n      sload\n        /* \"contracts/healthcare/Patient.sol\":9038:9052  record_mapping */\n      0x0a\n        /* \"contracts/healthcare/Patient.sol\":9038:9064  record_mapping[_unique_id] */\n      0x00\n        /* \"contracts/healthcare/Patient.sol\":9053:9063  _unique_id */\n      dup7\n        /* \"contracts/healthcare/Patient.sol\":9038:9064  record_mapping[_unique_id] */\n      0xffffffffffffffffffffffffffffffffffffffff\n      and\n      0xffffffffffffffffffffffffffffffffffffffff\n      and\n      dup2\n      mstore\n      0x20\n      add\n      swap1\n      dup2\n      mstore\n      0x20\n      add\n      0x00\n      keccak256\n        /* \"contracts/healthcare/Patient.sol\":9038:9076  record_mapping[_unique_id].record_time */\n      0x06\n      add\n      sload\n        /* \"contracts/healthcare/Patient.sol\":8896:9087  event_patient_delete(... */\n      mload(0x40)\n      tag_158\n      swap4\n      swap3\n      swap2\n      swap1\n      tag_145\n      jump\t// in\n    tag_158:\n      mload(0x40)\n      dup1\n      swap2\n      sub\n      swap1\n      log1\n        /* \"contracts/healthcare/Patient.sol\":9098:9136  return \"Record is deleted by patient.\" */\n      mload(0x40)\n      dup1\n      0x40\n      add\n      0x40\n      mstore\n      dup1\n      0x1d\n      dup2\n      mstore\n      0x20\n      add\n      0x5265636f72642069732064656c657465642062792070617469656e742e000000\n      dup2\n      mstore\n      pop\n      swap1\n      pop\n        /* \"contracts/healthcare/Patient.sol\":8313:9154  function delete_record(address _unique_id) public returns (string memory){... */\n      swap2\n      swap1\n      pop\n      jump\t// out\n        /* \"contracts/healthcare/Patient.sol\":13666:14537  function doctor_update_record(address _unique_id, string memory _update) public returns (string memory){... */\n    tag_49:\n        /* \"contracts/healthcare/Patient.sol\":13755:13768  string memory */\n      0x60\n        /* \"contracts/healthcare/Patient.sol\":13788:13802  record_mapping */\n      0x0a\n        /* \"contracts/healthcare/Patient.sol\":13788:13814  record_mapping[_unique_id] */\n      0x00\n        /* \"contracts/healthcare/Patient.sol\":13803:13813  _unique_id */\n      dup5\n        /* \"contracts/healthcare/Patient.sol\":13788:13814  record_mapping[_unique_id] */\n      0xffffffffffffffffffffffffffffffffffffffff\n      and\n      0xffffffffffffffffffffffffffffffffffffffff\n      and\n      dup2\n      mstore\n      0x20\n      add\n      swap1\n      dup2\n      mstore\n      0x20\n      add\n      0x00\n      keccak256\n        /* \"contracts/healthcare/Patient.sol\":13788:13831  record_mapping[_unique_id].is_uid_generated */\n      0x00\n      add\n      0x00\n      swap1\n      sload\n      swap1\n      0x0100\n      exp\n      swap1\n      div\n      0xff\n      and\n        /* \"contracts/healthcare/Patient.sol\":13780:13832  require(record_mapping[_unique_id].is_uid_generated) */\n      tag_160\n      jumpi\n      revert(0x00, 0x00)\n    tag_160:\n        /* \"contracts/healthcare/Patient.sol\":13851:13858  doctors */\n      0x0b\n        /* \"contracts/healthcare/Patient.sol\":13851:13870  doctors[msg.sender] */\n      0x00\n        /* \"contracts/healthcare/Patient.sol\":13859:13869  msg.sender */\n      caller\n        /* \"contracts/healthcare/Patient.sol\":13851:13870  doctors[msg.sender] */\n      0xffffffffffffffffffffffffffffffffffffffff\n      and\n      0xffffffffffffffffffffffffffffffffffffffff\n      and\n      dup2\n      mstore\n      0x20\n      add\n      swap1\n      dup2\n      mstore\n      0x20\n      add\n      0x00\n      keccak256\n      0x00\n      swap1\n      sload\n      swap1\n      0x0100\n      exp\n      swap1\n      div\n      0xff\n      and\n        /* \"contracts/healthcare/Patient.sol\":13843:13871  require(doctors[msg.sender]) */\n      tag_161\n      jumpi\n      revert(0x00, 0x00)\n    tag_161:\n        /* \"contracts/healthcare/Patient.sol\":13932:13933  1 */\n      0x01\n        /* \"contracts/healthcare/Patient.sol\":13890:13904  record_mapping */\n      0x0a\n        /* \"contracts/healthcare/Patient.sol\":13890:13916  record_mapping[_unique_id] */\n      0x00\n        /* \"contracts/healthcare/Patient.sol\":13905:13915  _unique_id */\n      dup6\n        /* \"contracts/healthcare/Patient.sol\":13890:13916  record_mapping[_unique_id] */\n      0xffffffffffffffffffffffffffffffffffffffff\n      and\n      0xffffffffffffffffffffffffffffffffffffffff\n      and\n      dup2\n      mstore\n      0x20\n      add\n      swap1\n      dup2\n      mstore\n      0x20\n      add\n      0x00\n      keccak256\n        /* \"contracts/healthcare/Patient.sol\":13890:13930  record_mapping[_unique_id].record_status */\n      0x03\n      add\n      sload\n        /* \"contracts/healthcare/Patient.sol\":13890:13933  record_mapping[_unique_id].record_status!=1 */\n      sub\n        /* \"contracts/healthcare/Patient.sol\":13882:13934  require(record_mapping[_unique_id].record_status!=1) */\n      tag_162\n      jumpi\n      revert(0x00, 0x00)\n    tag_162:\n        /* \"contracts/healthcare/Patient.sol\":13987:13997  msg.sender */\n      caller\n        /* \"contracts/healthcare/Patient.sol\":13951:13965  record_mapping */\n      0x0a\n        /* \"contracts/healthcare/Patient.sol\":13951:13977  record_mapping[_unique_id] */\n      0x00\n        /* \"contracts/healthcare/Patient.sol\":13966:13976  _unique_id */\n      dup6\n        /* \"contracts/healthcare/Patient.sol\":13951:13977  record_mapping[_unique_id] */\n      0xffffffffffffffffffffffffffffffffffffffff\n      and\n      0xffffffffffffffffffffffffffffffffffffffff\n      and\n      dup2\n      mstore\n      0x20\n      add\n      swap1\n      dup2\n      mstore\n      0x20\n      add\n      0x00\n      keccak256\n        /* \"contracts/healthcare/Patient.sol\":13951:13984  record_mapping[_unique_id].doctor */\n      0x07\n      add\n      0x00\n        /* \"contracts/healthcare/Patient.sol\":13951:13997  record_mapping[_unique_id].doctor = msg.sender */\n      0x0100\n      exp\n      dup2\n      sload\n      dup2\n      0xffffffffffffffffffffffffffffffffffffffff\n      mul\n      not\n      and\n      swap1\n      dup4\n      0xffffffffffffffffffffffffffffffffffffffff\n      and\n      mul\n      or\n      swap1\n      sstore\n      pop\n        /* \"contracts/healthcare/Patient.sol\":14049:14064  block.timestamp */\n      timestamp\n        /* \"contracts/healthcare/Patient.sol\":14008:14022  record_mapping */\n      0x0a\n        /* \"contracts/healthcare/Patient.sol\":14008:14034  record_mapping[_unique_id] */\n      0x00\n        /* \"contracts/healthcare/Patient.sol\":14023:14033  _unique_id */\n      dup6\n        /* \"contracts/healthcare/Patient.sol\":14008:14034  record_mapping[_unique_id] */\n      0xffffffffffffffffffffffffffffffffffffffff\n      and\n      0xffffffffffffffffffffffffffffffffffffffff\n      and\n      dup2\n      mstore\n      0x20\n      add\n      swap1\n      dup2\n      mstore\n      0x20\n      add\n      0x00\n      keccak256\n        /* \"contracts/healthcare/Patient.sol\":14008:14046  record_mapping[_unique_id].doctor_time */\n      0x08\n      add\n        /* \"contracts/healthcare/Patient.sol\":14008:14064  record_mapping[_unique_id].doctor_time = block.timestamp */\n      dup2\n      swap1\n      sstore\n      pop\n        /* \"contracts/healthcare/Patient.sol\":14119:14126  _update */\n      dup2\n        /* \"contracts/healthcare/Patient.sol\":14075:14089  record_mapping */\n      0x0a\n        /* \"contracts/healthcare/Patient.sol\":14075:14101  record_mapping[_unique_id] */\n      0x00\n        /* \"contracts/healthcare/Patient.sol\":14090:14100  _unique_id */\n      dup6\n        /* \"contracts/healthcare/Patient.sol\":14075:14101  record_mapping[_unique_id] */\n      0xffffffffffffffffffffffffffffffffffffffff\n      and\n      0xffffffffffffffffffffffffffffffffffffffff\n      and\n      dup2\n      mstore\n      0x20\n      add\n      swap1\n      dup2\n      mstore\n      0x20\n      add\n      0x00\n      keccak256\n        /* \"contracts/healthcare/Patient.sol\":14075:14116  record_mapping[_unique_id].record_details */\n      0x04\n      add\n        /* \"contracts/healthcare/Patient.sol\":14075:14126  record_mapping[_unique_id].record_details = _update */\n      swap1\n      dup2\n      tag_163\n      swap2\n      swap1\n      tag_142\n      jump\t// in\n    tag_163:\n      pop\n        /* \"contracts/healthcare/Patient.sol\":14180:14181  5 */\n      0x05\n        /* \"contracts/healthcare/Patient.sol\":14137:14151  record_mapping */\n      0x0a\n        /* \"contracts/healthcare/Patient.sol\":14137:14163  record_mapping[_unique_id] */\n      0x00\n        /* \"contracts/healthcare/Patient.sol\":14152:14162  _unique_id */\n      dup6\n        /* \"contracts/healthcare/Patient.sol\":14137:14163  record_mapping[_unique_id] */\n      0xffffffffffffffffffffffffffffffffffffffff\n      and\n      0xffffffffffffffffffffffffffffffffffffffff\n      and\n      dup2\n      mstore\n      0x20\n      add\n      swap1\n      dup2\n      mstore\n      0x20\n      add\n      0x00\n      keccak256\n        /* \"contracts/healthcare/Patient.sol\":14137:14177  record_mapping[_unique_id].record_status */\n      0x03\n      add\n        /* \"contracts/healthcare/Patient.sol\":14137:14181  record_mapping[_unique_id].record_status = 5 */\n      dup2\n      swap1\n      sstore\n      pop\n        /* \"contracts/healthcare/Patient.sol\":14192:14268  record_mapping[_unique_id].record_msg = \"Record is updated by doctor/audit.\" */\n      mload(0x40)\n      dup1\n      0x60\n      add\n      0x40\n      mstore\n      dup1\n      0x22\n      dup2\n      mstore\n      0x20\n      add\n      data_8ae2893cb4cf01e017397c0e83ef41a221a50089f1d558e3d312aaf17b08dafc\n      0x22\n      swap2\n      codecopy\n        /* \"contracts/healthcare/Patient.sol\":14192:14206  record_mapping */\n      0x0a\n        /* \"contracts/healthcare/Patient.sol\":14192:14218  record_mapping[_unique_id] */\n      0x00\n        /* \"contracts/healthcare/Patient.sol\":14207:14217  _unique_id */\n      dup6\n        /* \"contracts/healthcare/Patient.sol\":14192:14218  record_mapping[_unique_id] */\n      0xffffffffffffffffffffffffffffffffffffffff\n      and\n      0xffffffffffffffffffffffffffffffffffffffff\n      and\n      dup2\n      mstore\n      0x20\n      add\n      swap1\n      dup2\n      mstore\n      0x20\n      add\n      0x00\n      keccak256\n        /* \"contracts/healthcare/Patient.sol\":14192:14229  record_mapping[_unique_id].record_msg */\n      0x02\n      add\n        /* \"contracts/healthcare/Patient.sol\":14192:14268  record_mapping[_unique_id].record_msg = \"Record is updated by doctor/audit.\" */\n      swap1\n      dup2\n      tag_164\n      swap2\n      swap1\n      tag_142\n      jump\t// in\n    tag_164:\n      pop\n        /* \"contracts/healthcare/Patient.sol\":14284:14474  event_doctor_update(... */\n      0x89c9a137dd6383374b8e2a092d40bc74fda69a614e9ece010b1f4eaded8f841c\n        /* \"contracts/healthcare/Patient.sol\":14318:14332  record_mapping */\n      0x0a\n        /* \"contracts/healthcare/Patient.sol\":14318:14344  record_mapping[_unique_id] */\n      0x00\n        /* \"contracts/healthcare/Patient.sol\":14333:14343  _unique_id */\n      dup6\n        /* \"contracts/healthcare/Patient.sol\":14318:14344  record_mapping[_unique_id] */\n      0xffffffffffffffffffffffffffffffffffffffff\n      and\n      0xffffffffffffffffffffffffffffffffffffffff\n      and\n      dup2\n      mstore\n      0x20\n      add\n      swap1\n      dup2\n      mstore\n      0x20\n      add\n      0x00\n      keccak256\n        /* \"contracts/healthcare/Patient.sol\":14318:14355  record_mapping[_unique_id].record_msg */\n      0x02\n      add\n        /* \"contracts/healthcare/Patient.sol\":14370:14384  record_mapping */\n      0x0a\n        /* \"contracts/healthcare/Patient.sol\":14370:14396  record_mapping[_unique_id] */\n      0x00\n        /* \"contracts/healthcare/Patient.sol\":14385:14395  _unique_id */\n      dup7\n        /* \"contracts/healthcare/Patient.sol\":14370:14396  record_mapping[_unique_id] */\n      0xffffffffffffffffffffffffffffffffffffffff\n      and\n      0xffffffffffffffffffffffffffffffffffffffff\n      and\n      dup2\n      mstore\n      0x20\n      add\n      swap1\n      dup2\n      mstore\n      0x20\n      add\n      0x00\n      keccak256\n        /* \"contracts/healthcare/Patient.sol\":14370:14410  record_mapping[_unique_id].record_status */\n      0x03\n      add\n      sload\n        /* \"contracts/healthcare/Patient.sol\":14425:14439  record_mapping */\n      0x0a\n        /* \"contracts/healthcare/Patient.sol\":14425:14451  record_mapping[_unique_id] */\n      0x00\n        /* \"contracts/healthcare/Patient.sol\":14440:14450  _unique_id */\n      dup8\n        /* \"contracts/healthcare/Patient.sol\":14425:14451  record_mapping[_unique_id] */\n      0xffffffffffffffffffffffffffffffffffffffff\n      and\n      0xffffffffffffffffffffffffffffffffffffffff\n      and\n      dup2\n      mstore\n      0x20\n      add\n      swap1\n      dup2\n      mstore\n      0x20\n      add\n      0x00\n      keccak256\n        /* \"contracts/healthcare/Patient.sol\":14425:14463  record_mapping[_unique_id].record_time */\n      0x06\n      add\n      sload\n        /* \"contracts/healthcare/Patient.sol\":14284:14474  event_doctor_update(... */\n      mload(0x40)\n      tag_165\n      swap4\n      swap3\n      swap2\n      swap1\n      tag_145\n      jump\t// in\n    tag_165:\n      mload(0x40)\n      dup1\n      swap2\n      sub\n      swap1\n      log1\n        /* \"contracts/healthcare/Patient.sol\":14485:14529  return \"Medical Record Updated Successfully\" */\n      mload(0x40)\n      dup1\n      0x60\n      add\n      0x40\n      mstore\n      dup1\n      0x23\n      dup2\n      mstore\n      0x20\n      add\n      data_d4281e36ecd0888769e9fe71457480d7e262212bd1b773b45a3223c8eaef0339\n      0x23\n      swap2\n      codecopy\n      swap1\n      pop\n        /* \"contracts/healthcare/Patient.sol\":13666:14537  function doctor_update_record(address _unique_id, string memory _update) public returns (string memory){... */\n      swap3\n      swap2\n      pop\n      pop\n      jump\t// out\n        /* \"contracts/healthcare/Patient.sol\":1314:1354  mapping (address => bool) public doctors */\n    tag_53:\n      mstore(0x20, 0x0b)\n      dup1\n      0x00\n      mstore\n      keccak256(0x00, 0x40)\n      0x00\n      swap2\n      pop\n      sload\n      swap1\n      0x0100\n      exp\n      swap1\n      div\n      0xff\n      and\n      dup2\n      jump\t// out\n        /* \"contracts/healthcare/Patient.sol\":1361:1400  mapping (address => bool) public audits */\n    tag_58:\n      mstore(0x20, 0x0c)\n      dup1\n      0x00\n      mstore\n      keccak256(0x00, 0x40)\n      0x00\n      swap2\n      pop\n      sload\n      swap1\n      0x0100\n      exp\n      swap1\n      div\n      0xff\n      and\n      dup2\n      jump\t// out\n        /* \"contracts/healthcare/Patient.sol\":6368:6730  function addAudit(address _audit_address) public only_owner returns (string memory) {... */\n    tag_62:\n        /* \"contracts/healthcare/Patient.sol\":6437:6450  string memory */\n      0x60\n        /* \"contracts/healthcare/Patient.sol\":2210:2220  msg.sender */\n      caller\n        /* \"contracts/healthcare/Patient.sol\":2201:2220  owner == msg.sender */\n      0xffffffffffffffffffffffffffffffffffffffff\n      and\n        /* \"contracts/healthcare/Patient.sol\":2201:2206  owner */\n      0x00\n      0x00\n      swap1\n      sload\n      swap1\n      0x0100\n      exp\n      swap1\n      div\n      0xffffffffffffffffffffffffffffffffffffffff\n      and\n        /* \"contracts/healthcare/Patient.sol\":2201:2220  owner == msg.sender */\n      0xffffffffffffffffffffffffffffffffffffffff\n      and\n      eq\n        /* \"contracts/healthcare/Patient.sol\":2193:2221  require(owner == msg.sender) */\n      tag_167\n      jumpi\n      revert(0x00, 0x00)\n    tag_167:\n        /* \"contracts/healthcare/Patient.sol\":6520:6526  audits */\n      0x0c\n        /* \"contracts/healthcare/Patient.sol\":6520:6542  audits[_audit_address] */\n      0x00\n        /* \"contracts/healthcare/Patient.sol\":6527:6541  _audit_address */\n      dup4\n        /* \"contracts/healthcare/Patient.sol\":6520:6542  audits[_audit_address] */\n      0xffffffffffffffffffffffffffffffffffffffff\n      and\n      0xffffffffffffffffffffffffffffffffffffffff\n      and\n      dup2\n      mstore\n      0x20\n      add\n      swap1\n      dup2\n      mstore\n      0x20\n      add\n      0x00\n      keccak256\n      0x00\n      swap1\n      sload\n      swap1\n      0x0100\n      exp\n      swap1\n      div\n      0xff\n      and\n        /* \"contracts/healthcare/Patient.sol\":6516:6599  if(!audits[_audit_address]){... */\n      tag_169\n      jumpi\n        /* \"contracts/healthcare/Patient.sol\":6583:6587  true */\n      0x01\n        /* \"contracts/healthcare/Patient.sol\":6558:6564  audits */\n      0x0c\n        /* \"contracts/healthcare/Patient.sol\":6558:6580  audits[_audit_address] */\n      0x00\n        /* \"contracts/healthcare/Patient.sol\":6565:6579  _audit_address */\n      dup5\n        /* \"contracts/healthcare/Patient.sol\":6558:6580  audits[_audit_address] */\n      0xffffffffffffffffffffffffffffffffffffffff\n      and\n      0xffffffffffffffffffffffffffffffffffffffff\n      and\n      dup2\n      mstore\n      0x20\n      add\n      swap1\n      dup2\n      mstore\n      0x20\n      add\n      0x00\n      keccak256\n      0x00\n        /* \"contracts/healthcare/Patient.sol\":6558:6587  audits[_audit_address] = true */\n      0x0100\n      exp\n      dup2\n      sload\n      dup2\n      0xff\n      mul\n      not\n      and\n      swap1\n      dup4\n      iszero\n      iszero\n      mul\n      or\n      swap1\n      sstore\n      pop\n        /* \"contracts/healthcare/Patient.sol\":6516:6599  if(!audits[_audit_address]){... */\n    tag_169:\n        /* \"contracts/healthcare/Patient.sol\":6614:6684  event_add_audit(\"An audit is added.\", _audit_address, block.timestamp) */\n      0x8fbe047a5fafe34457a33e6bd83075c8ffed3878dc48a48d31ce3948bbb22cd4\n        /* \"contracts/healthcare/Patient.sol\":6652:6666  _audit_address */\n      dup3\n        /* \"contracts/healthcare/Patient.sol\":6668:6683  block.timestamp */\n      timestamp\n        /* \"contracts/healthcare/Patient.sol\":6614:6684  event_add_audit(\"An audit is added.\", _audit_address, block.timestamp) */\n      mload(0x40)\n      tag_170\n      swap3\n      swap2\n      swap1\n      tag_171\n      jump\t// in\n    tag_170:\n      mload(0x40)\n      dup1\n      swap2\n      sub\n      swap1\n      log1\n        /* \"contracts/healthcare/Patient.sol\":6695:6722  return \"An audit is added.\" */\n      mload(0x40)\n      dup1\n      0x40\n      add\n      0x40\n      mstore\n      dup1\n      0x12\n      dup2\n      mstore\n      0x20\n      add\n      0x416e2061756469742069732061646465642e0000000000000000000000000000\n      dup2\n      mstore\n      pop\n      swap1\n      pop\n        /* \"contracts/healthcare/Patient.sol\":6368:6730  function addAudit(address _audit_address) public only_owner returns (string memory) {... */\n      swap2\n      swap1\n      pop\n      jump\t// out\n        /* \"contracts/healthcare/Patient.sol\":4114:5036  function start_visit(uint _time) public only_owner returns (address){... */\n    tag_67:\n        /* \"contracts/healthcare/Patient.sol\":4174:4181  address */\n      0x00\n        /* \"contracts/healthcare/Patient.sol\":2210:2220  msg.sender */\n      caller\n        /* \"contracts/healthcare/Patient.sol\":2201:2220  owner == msg.sender */\n      0xffffffffffffffffffffffffffffffffffffffff\n      and\n        /* \"contracts/healthcare/Patient.sol\":2201:2206  owner */\n      0x00\n      0x00\n      swap1\n      sload\n      swap1\n      0x0100\n      exp\n      swap1\n      div\n      0xffffffffffffffffffffffffffffffffffffffff\n      and\n        /* \"contracts/healthcare/Patient.sol\":2201:2220  owner == msg.sender */\n      0xffffffffffffffffffffffffffffffffffffffff\n      and\n      eq\n        /* \"contracts/healthcare/Patient.sol\":2193:2221  require(owner == msg.sender) */\n      tag_173\n      jumpi\n      revert(0x00, 0x00)\n    tag_173:\n        /* \"contracts/healthcare/Patient.sol\":4193:4210  address unique_id */\n      0x00\n        /* \"contracts/healthcare/Patient.sol\":4237:4290  sha256(abi.encodePacked(msg.sender, block.timestamp)) */\n      0x02\n        /* \"contracts/healthcare/Patient.sol\":4261:4271  msg.sender */\n      caller\n        /* \"contracts/healthcare/Patient.sol\":4273:4288  block.timestamp */\n      timestamp\n        /* \"contracts/healthcare/Patient.sol\":4244:4289  abi.encodePacked(msg.sender, block.timestamp) */\n      add(0x20, mload(0x40))\n      tag_175\n      swap3\n      swap2\n      swap1\n      tag_176\n      jump\t// in\n    tag_175:\n      mload(0x40)\n      0x20\n      dup2\n      dup4\n      sub\n      sub\n      dup2\n      mstore\n      swap1\n      0x40\n      mstore\n        /* \"contracts/healthcare/Patient.sol\":4237:4290  sha256(abi.encodePacked(msg.sender, block.timestamp)) */\n      mload(0x40)\n      tag_177\n      swap2\n      swap1\n      tag_178\n      jump\t// in\n    tag_177:\n      0x20\n      mload(0x40)\n      dup1\n      dup4\n      sub\n      dup2\n      dup6\n      gas\n      staticcall\n      iszero\n      dup1\n      iszero\n      tag_180\n      jumpi\n      returndatacopy(0x00, 0x00, returndatasize)\n      revert(0x00, returndatasize)\n    tag_180:\n      pop\n      pop\n      pop\n      mload(0x40)\n      returndatasize\n      not(0x1f)\n      0x1f\n      dup3\n      add\n      and\n      dup3\n      add\n      dup1\n      0x40\n      mstore\n      pop\n      dup2\n      add\n      swap1\n      tag_181\n      swap2\n      swap1\n      tag_182\n      jump\t// in\n    tag_181:\n        /* \"contracts/healthcare/Patient.sol\":4229:4291  uint256(sha256(abi.encodePacked(msg.sender, block.timestamp))) */\n      0x00\n      shr\n        /* \"contracts/healthcare/Patient.sol\":4193:4293  address unique_id = address(uint160(uint256(sha256(abi.encodePacked(msg.sender, block.timestamp))))) */\n      swap1\n      pop\n        /* \"contracts/healthcare/Patient.sol\":4349:4353  true */\n      0x01\n        /* \"contracts/healthcare/Patient.sol\":4304:4318  record_mapping */\n      0x0a\n        /* \"contracts/healthcare/Patient.sol\":4304:4329  record_mapping[unique_id] */\n      0x00\n        /* \"contracts/healthcare/Patient.sol\":4319:4328  unique_id */\n      dup4\n        /* \"contracts/healthcare/Patient.sol\":4304:4329  record_mapping[unique_id] */\n      0xffffffffffffffffffffffffffffffffffffffff\n      and\n      0xffffffffffffffffffffffffffffffffffffffff\n      and\n      dup2\n      mstore\n      0x20\n      add\n      swap1\n      dup2\n      mstore\n      0x20\n      add\n      0x00\n      keccak256\n        /* \"contracts/healthcare/Patient.sol\":4304:4346  record_mapping[unique_id].is_uid_generated */\n      0x00\n      add\n      0x00\n        /* \"contracts/healthcare/Patient.sol\":4304:4353  record_mapping[unique_id].is_uid_generated = true */\n      0x0100\n      exp\n      dup2\n      sload\n      dup2\n      0xff\n      mul\n      not\n      and\n      swap1\n      dup4\n      iszero\n      iszero\n      mul\n      or\n      swap1\n      sstore\n      pop\n        /* \"contracts/healthcare/Patient.sol\":4418:4427  unique_id */\n      dup1\n        /* \"contracts/healthcare/Patient.sol\":4402:4429  uint256(uint160(unique_id)) */\n      0xffffffffffffffffffffffffffffffffffffffff\n      and\n        /* \"contracts/healthcare/Patient.sol\":4364:4378  record_mapping */\n      0x0a\n        /* \"contracts/healthcare/Patient.sol\":4364:4389  record_mapping[unique_id] */\n      0x00\n        /* \"contracts/healthcare/Patient.sol\":4379:4388  unique_id */\n      dup4\n        /* \"contracts/healthcare/Patient.sol\":4364:4389  record_mapping[unique_id] */\n      0xffffffffffffffffffffffffffffffffffffffff\n      and\n      0xffffffffffffffffffffffffffffffffffffffff\n      and\n      dup2\n      mstore\n      0x20\n      add\n      swap1\n      dup2\n      mstore\n      0x20\n      add\n      0x00\n      keccak256\n        /* \"contracts/healthcare/Patient.sol\":4364:4399  record_mapping[unique_id].record_id */\n      0x01\n      add\n        /* \"contracts/healthcare/Patient.sol\":4364:4429  record_mapping[unique_id].record_id = uint256(uint160(unique_id)) */\n      dup2\n      swap1\n      sstore\n      pop\n        /* \"contracts/healthcare/Patient.sol\":4440:4510  record_mapping[unique_id].record_msg = \"New Medical Record is created\" */\n      mload(0x40)\n      dup1\n      0x40\n      add\n      0x40\n      mstore\n      dup1\n      0x1d\n      dup2\n      mstore\n      0x20\n      add\n      0x4e6577204d65646963616c205265636f72642069732063726561746564000000\n      dup2\n      mstore\n      pop\n        /* \"contracts/healthcare/Patient.sol\":4440:4454  record_mapping */\n      0x0a\n        /* \"contracts/healthcare/Patient.sol\":4440:4465  record_mapping[unique_id] */\n      0x00\n        /* \"contracts/healthcare/Patient.sol\":4455:4464  unique_id */\n      dup4\n        /* \"contracts/healthcare/Patient.sol\":4440:4465  record_mapping[unique_id] */\n      0xffffffffffffffffffffffffffffffffffffffff\n      and\n      0xffffffffffffffffffffffffffffffffffffffff\n      and\n      dup2\n      mstore\n      0x20\n      add\n      swap1\n      dup2\n      mstore\n      0x20\n      add\n      0x00\n      keccak256\n        /* \"contracts/healthcare/Patient.sol\":4440:4476  record_mapping[unique_id].record_msg */\n      0x02\n      add\n        /* \"contracts/healthcare/Patient.sol\":4440:4510  record_mapping[unique_id].record_msg = \"New Medical Record is created\" */\n      swap1\n      dup2\n      tag_183\n      swap2\n      swap1\n      tag_142\n      jump\t// in\n    tag_183:\n      pop\n        /* \"contracts/healthcare/Patient.sol\":4563:4564  0 */\n      0x00\n        /* \"contracts/healthcare/Patient.sol\":4521:4535  record_mapping */\n      0x0a\n        /* \"contracts/healthcare/Patient.sol\":4521:4546  record_mapping[unique_id] */\n      0x00\n        /* \"contracts/healthcare/Patient.sol\":4536:4545  unique_id */\n      dup4\n        /* \"contracts/healthcare/Patient.sol\":4521:4546  record_mapping[unique_id] */\n      0xffffffffffffffffffffffffffffffffffffffff\n      and\n      0xffffffffffffffffffffffffffffffffffffffff\n      and\n      dup2\n      mstore\n      0x20\n      add\n      swap1\n      dup2\n      mstore\n      0x20\n      add\n      0x00\n      keccak256\n        /* \"contracts/healthcare/Patient.sol\":4521:4560  record_mapping[unique_id].record_status */\n      0x03\n      add\n        /* \"contracts/healthcare/Patient.sol\":4521:4564  record_mapping[unique_id].record_status = 0 */\n      dup2\n      swap1\n      sstore\n      pop\n        /* \"contracts/healthcare/Patient.sol\":4585:4644  record_mapping[unique_id].record_details = \"Visit initiate\" */\n      mload(0x40)\n      dup1\n      0x40\n      add\n      0x40\n      mstore\n      dup1\n      0x0e\n      dup2\n      mstore\n      0x20\n      add\n      0x566973697420696e697469617465000000000000000000000000000000000000\n      dup2\n      mstore\n      pop\n        /* \"contracts/healthcare/Patient.sol\":4585:4599  record_mapping */\n      0x0a\n        /* \"contracts/healthcare/Patient.sol\":4585:4610  record_mapping[unique_id] */\n      0x00\n        /* \"contracts/healthcare/Patient.sol\":4600:4609  unique_id */\n      dup4\n        /* \"contracts/healthcare/Patient.sol\":4585:4610  record_mapping[unique_id] */\n      0xffffffffffffffffffffffffffffffffffffffff\n      and\n      0xffffffffffffffffffffffffffffffffffffffff\n      and\n      dup2\n      mstore\n      0x20\n      add\n      swap1\n      dup2\n      mstore\n      0x20\n      add\n      0x00\n      keccak256\n        /* \"contracts/healthcare/Patient.sol\":4585:4625  record_mapping[unique_id].record_details */\n      0x04\n      add\n        /* \"contracts/healthcare/Patient.sol\":4585:4644  record_mapping[unique_id].record_details = \"Visit initiate\" */\n      swap1\n      dup2\n      tag_184\n      swap2\n      swap1\n      tag_142\n      jump\t// in\n    tag_184:\n      pop\n        /* \"contracts/healthcare/Patient.sol\":4709:4719  msg.sender */\n      caller\n        /* \"contracts/healthcare/Patient.sol\":4665:4679  record_mapping */\n      0x0a\n        /* \"contracts/healthcare/Patient.sol\":4665:4690  record_mapping[unique_id] */\n      0x00\n        /* \"contracts/healthcare/Patient.sol\":4680:4689  unique_id */\n      dup4\n        /* \"contracts/healthcare/Patient.sol\":4665:4690  record_mapping[unique_id] */\n      0xffffffffffffffffffffffffffffffffffffffff\n      and\n      0xffffffffffffffffffffffffffffffffffffffff\n      and\n      dup2\n      mstore\n      0x20\n      add\n      swap1\n      dup2\n      mstore\n      0x20\n      add\n      0x00\n      keccak256\n        /* \"contracts/healthcare/Patient.sol\":4665:4706  record_mapping[unique_id].patient_address */\n      0x05\n      add\n      0x00\n        /* \"contracts/healthcare/Patient.sol\":4665:4719  record_mapping[unique_id].patient_address = msg.sender */\n      0x0100\n      exp\n      dup2\n      sload\n      dup2\n      0xffffffffffffffffffffffffffffffffffffffff\n      mul\n      not\n      and\n      swap1\n      dup4\n      0xffffffffffffffffffffffffffffffffffffffff\n      and\n      mul\n      or\n      swap1\n      sstore\n      pop\n        /* \"contracts/healthcare/Patient.sol\":4770:4775  _time */\n      dup3\n        /* \"contracts/healthcare/Patient.sol\":4730:4744  record_mapping */\n      0x0a\n        /* \"contracts/healthcare/Patient.sol\":4730:4755  record_mapping[unique_id] */\n      0x00\n        /* \"contracts/healthcare/Patient.sol\":4745:4754  unique_id */\n      dup4\n        /* \"contracts/healthcare/Patient.sol\":4730:4755  record_mapping[unique_id] */\n      0xffffffffffffffffffffffffffffffffffffffff\n      and\n      0xffffffffffffffffffffffffffffffffffffffff\n      and\n      dup2\n      mstore\n      0x20\n      add\n      swap1\n      dup2\n      mstore\n      0x20\n      add\n      0x00\n      keccak256\n        /* \"contracts/healthcare/Patient.sol\":4730:4767  record_mapping[unique_id].record_time */\n      0x06\n      add\n        /* \"contracts/healthcare/Patient.sol\":4730:4775  record_mapping[unique_id].record_time = _time */\n      dup2\n      swap1\n      sstore\n      pop\n        /* \"contracts/healthcare/Patient.sol\":4791:5001  event_start_visit(... */\n      0x14207ac2653501de32da60b3fee91a4d0c170419f5edd0528124b1c526a70509\n        /* \"contracts/healthcare/Patient.sol\":4823:4832  unique_id */\n      dup2\n        /* \"contracts/healthcare/Patient.sol\":4847:4861  record_mapping */\n      0x0a\n        /* \"contracts/healthcare/Patient.sol\":4847:4872  record_mapping[unique_id] */\n      0x00\n        /* \"contracts/healthcare/Patient.sol\":4862:4871  unique_id */\n      dup5\n        /* \"contracts/healthcare/Patient.sol\":4847:4872  record_mapping[unique_id] */\n      0xffffffffffffffffffffffffffffffffffffffff\n      and\n      0xffffffffffffffffffffffffffffffffffffffff\n      and\n      dup2\n      mstore\n      0x20\n      add\n      swap1\n      dup2\n      mstore\n      0x20\n      add\n      0x00\n      keccak256\n        /* \"contracts/healthcare/Patient.sol\":4847:4883  record_mapping[unique_id].record_msg */\n      0x02\n      add\n        /* \"contracts/healthcare/Patient.sol\":4898:4912  record_mapping */\n      0x0a\n        /* \"contracts/healthcare/Patient.sol\":4898:4923  record_mapping[unique_id] */\n      0x00\n        /* \"contracts/healthcare/Patient.sol\":4913:4922  unique_id */\n      dup6\n        /* \"contracts/healthcare/Patient.sol\":4898:4923  record_mapping[unique_id] */\n      0xffffffffffffffffffffffffffffffffffffffff\n      and\n      0xffffffffffffffffffffffffffffffffffffffff\n      and\n      dup2\n      mstore\n      0x20\n      add\n      swap1\n      dup2\n      mstore\n      0x20\n      add\n      0x00\n      keccak256\n        /* \"contracts/healthcare/Patient.sol\":4898:4937  record_mapping[unique_id].record_status */\n      0x03\n      add\n      sload\n        /* \"contracts/healthcare/Patient.sol\":4953:4967  record_mapping */\n      0x0a\n        /* \"contracts/healthcare/Patient.sol\":4953:4978  record_mapping[unique_id] */\n      0x00\n        /* \"contracts/healthcare/Patient.sol\":4968:4977  unique_id */\n      dup7\n        /* \"contracts/healthcare/Patient.sol\":4953:4978  record_mapping[unique_id] */\n      0xffffffffffffffffffffffffffffffffffffffff\n      and\n      0xffffffffffffffffffffffffffffffffffffffff\n      and\n      dup2\n      mstore\n      0x20\n      add\n      swap1\n      dup2\n      mstore\n      0x20\n      add\n      0x00\n      keccak256\n        /* \"contracts/healthcare/Patient.sol\":4953:4990  record_mapping[unique_id].record_time */\n      0x06\n      add\n      sload\n        /* \"contracts/healthcare/Patient.sol\":4791:5001  event_start_visit(... */\n      mload(0x40)\n      tag_185\n      swap5\n      swap4\n      swap3\n      swap2\n      swap1\n      tag_186\n      jump\t// in\n    tag_185:\n      mload(0x40)\n      dup1\n      swap2\n      sub\n      swap1\n      log1\n        /* \"contracts/healthcare/Patient.sol\":5019:5028  unique_id */\n      dup1\n        /* \"contracts/healthcare/Patient.sol\":5012:5028  return unique_id */\n      swap2\n      pop\n      pop\n        /* \"contracts/healthcare/Patient.sol\":4114:5036  function start_visit(uint _time) public only_owner returns (address){... */\n      swap2\n      swap1\n      pop\n      jump\t// out\n        /* \"contracts/healthcare/Patient.sol\":11892:12725  function doctor_query_record(address _unique_id) public returns (string memory){... */\n    tag_72:\n        /* \"contracts/healthcare/Patient.sol\":11957:11970  string memory */\n      0x60\n        /* \"contracts/healthcare/Patient.sol\":11982:12002  string memory result */\n      0x00\n        /* \"contracts/healthcare/Patient.sol\":11982:12041  string memory result = \"Record is queried by doctor/audit.\" */\n      mload(0x40)\n      dup1\n      0x60\n      add\n      0x40\n      mstore\n      dup1\n      0x22\n      dup2\n      mstore\n      0x20\n      add\n      data_d38f047a012e048de635cf9ec2b5466fb7738ddfef828b834ad44ccf5f8582f9\n      0x22\n      swap2\n      codecopy\n      swap1\n      pop\n        /* \"contracts/healthcare/Patient.sol\":12060:12074  record_mapping */\n      0x0a\n        /* \"contracts/healthcare/Patient.sol\":12060:12086  record_mapping[_unique_id] */\n      0x00\n        /* \"contracts/healthcare/Patient.sol\":12075:12085  _unique_id */\n      dup5\n        /* \"contracts/healthcare/Patient.sol\":12060:12086  record_mapping[_unique_id] */\n      0xffffffffffffffffffffffffffffffffffffffff\n      and\n      0xffffffffffffffffffffffffffffffffffffffff\n      and\n      dup2\n      mstore\n      0x20\n      add\n      swap1\n      dup2\n      mstore\n      0x20\n      add\n      0x00\n      keccak256\n        /* \"contracts/healthcare/Patient.sol\":12060:12103  record_mapping[_unique_id].is_uid_generated */\n      0x00\n      add\n      0x00\n      swap1\n      sload\n      swap1\n      0x0100\n      exp\n      swap1\n      div\n      0xff\n      and\n        /* \"contracts/healthcare/Patient.sol\":12052:12104  require(record_mapping[_unique_id].is_uid_generated) */\n      tag_188\n      jumpi\n      revert(0x00, 0x00)\n    tag_188:\n        /* \"contracts/healthcare/Patient.sol\":12123:12130  doctors */\n      0x0b\n        /* \"contracts/healthcare/Patient.sol\":12123:12142  doctors[msg.sender] */\n      0x00\n        /* \"contracts/healthcare/Patient.sol\":12131:12141  msg.sender */\n      caller\n        /* \"contracts/healthcare/Patient.sol\":12123:12142  doctors[msg.sender] */\n      0xffffffffffffffffffffffffffffffffffffffff\n      and\n      0xffffffffffffffffffffffffffffffffffffffff\n      and\n      dup2\n      mstore\n      0x20\n      add\n      swap1\n      dup2\n      mstore\n      0x20\n      add\n      0x00\n      keccak256\n      0x00\n      swap1\n      sload\n      swap1\n      0x0100\n      exp\n      swap1\n      div\n      0xff\n      and\n        /* \"contracts/healthcare/Patient.sol\":12115:12143  require(doctors[msg.sender]) */\n      tag_189\n      jumpi\n      revert(0x00, 0x00)\n    tag_189:\n        /* \"contracts/healthcare/Patient.sol\":12204:12205  1 */\n      0x01\n        /* \"contracts/healthcare/Patient.sol\":12162:12176  record_mapping */\n      0x0a\n        /* \"contracts/healthcare/Patient.sol\":12162:12188  record_mapping[_unique_id] */\n      0x00\n        /* \"contracts/healthcare/Patient.sol\":12177:12187  _unique_id */\n      dup6\n        /* \"contracts/healthcare/Patient.sol\":12162:12188  record_mapping[_unique_id] */\n      0xffffffffffffffffffffffffffffffffffffffff\n      and\n      0xffffffffffffffffffffffffffffffffffffffff\n      and\n      dup2\n      mstore\n      0x20\n      add\n      swap1\n      dup2\n      mstore\n      0x20\n      add\n      0x00\n      keccak256\n        /* \"contracts/healthcare/Patient.sol\":12162:12202  record_mapping[_unique_id].record_status */\n      0x03\n      add\n      sload\n        /* \"contracts/healthcare/Patient.sol\":12162:12205  record_mapping[_unique_id].record_status!=1 */\n      sub\n        /* \"contracts/healthcare/Patient.sol\":12154:12206  require(record_mapping[_unique_id].record_status!=1) */\n      tag_190\n      jumpi\n      revert(0x00, 0x00)\n    tag_190:\n        /* \"contracts/healthcare/Patient.sol\":12259:12269  msg.sender */\n      caller\n        /* \"contracts/healthcare/Patient.sol\":12223:12237  record_mapping */\n      0x0a\n        /* \"contracts/healthcare/Patient.sol\":12223:12249  record_mapping[_unique_id] */\n      0x00\n        /* \"contracts/healthcare/Patient.sol\":12238:12248  _unique_id */\n      dup6\n        /* \"contracts/healthcare/Patient.sol\":12223:12249  record_mapping[_unique_id] */\n      0xffffffffffffffffffffffffffffffffffffffff\n      and\n      0xffffffffffffffffffffffffffffffffffffffff\n      and\n      dup2\n      mstore\n      0x20\n      add\n      swap1\n      dup2\n      mstore\n      0x20\n      add\n      0x00\n      keccak256\n        /* \"contracts/healthcare/Patient.sol\":12223:12256  record_mapping[_unique_id].doctor */\n      0x07\n      add\n      0x00\n        /* \"contracts/healthcare/Patient.sol\":12223:12269  record_mapping[_unique_id].doctor = msg.sender */\n      0x0100\n      exp\n      dup2\n      sload\n      dup2\n      0xffffffffffffffffffffffffffffffffffffffff\n      mul\n      not\n      and\n      swap1\n      dup4\n      0xffffffffffffffffffffffffffffffffffffffff\n      and\n      mul\n      or\n      swap1\n      sstore\n      pop\n        /* \"contracts/healthcare/Patient.sol\":12321:12336  block.timestamp */\n      timestamp\n        /* \"contracts/healthcare/Patient.sol\":12280:12294  record_mapping */\n      0x0a\n        /* \"contracts/healthcare/Patient.sol\":12280:12306  record_mapping[_unique_id] */\n      0x00\n        /* \"contracts/healthcare/Patient.sol\":12295:12305  _unique_id */\n      dup6\n        /* \"contracts/healthcare/Patient.sol\":12280:12306  record_mapping[_unique_id] */\n      0xffffffffffffffffffffffffffffffffffffffff\n      and\n      0xffffffffffffffffffffffffffffffffffffffff\n      and\n      dup2\n      mstore\n      0x20\n      add\n      swap1\n      dup2\n      mstore\n      0x20\n      add\n      0x00\n      keccak256\n        /* \"contracts/healthcare/Patient.sol\":12280:12318  record_mapping[_unique_id].doctor_time */\n      0x08\n      add\n        /* \"contracts/healthcare/Patient.sol\":12280:12336  record_mapping[_unique_id].doctor_time = block.timestamp */\n      dup2\n      swap1\n      sstore\n      pop\n        /* \"contracts/healthcare/Patient.sol\":12400:12401  3 */\n      0x03\n        /* \"contracts/healthcare/Patient.sol\":12357:12371  record_mapping */\n      0x0a\n        /* \"contracts/healthcare/Patient.sol\":12357:12383  record_mapping[_unique_id] */\n      0x00\n        /* \"contracts/healthcare/Patient.sol\":12372:12382  _unique_id */\n      dup6\n        /* \"contracts/healthcare/Patient.sol\":12357:12383  record_mapping[_unique_id] */\n      0xffffffffffffffffffffffffffffffffffffffff\n      and\n      0xffffffffffffffffffffffffffffffffffffffff\n      and\n      dup2\n      mstore\n      0x20\n      add\n      swap1\n      dup2\n      mstore\n      0x20\n      add\n      0x00\n      keccak256\n        /* \"contracts/healthcare/Patient.sol\":12357:12397  record_mapping[_unique_id].record_status */\n      0x03\n      add\n        /* \"contracts/healthcare/Patient.sol\":12357:12401  record_mapping[_unique_id].record_status = 3 */\n      dup2\n      swap1\n      sstore\n      pop\n        /* \"contracts/healthcare/Patient.sol\":12412:12488  record_mapping[_unique_id].record_msg = \"Record is queried by doctor/audit.\" */\n      mload(0x40)\n      dup1\n      0x60\n      add\n      0x40\n      mstore\n      dup1\n      0x22\n      dup2\n      mstore\n      0x20\n      add\n      data_d38f047a012e048de635cf9ec2b5466fb7738ddfef828b834ad44ccf5f8582f9\n      0x22\n      swap2\n      codecopy\n        /* \"contracts/healthcare/Patient.sol\":12412:12426  record_mapping */\n      0x0a\n        /* \"contracts/healthcare/Patient.sol\":12412:12438  record_mapping[_unique_id] */\n      0x00\n        /* \"contracts/healthcare/Patient.sol\":12427:12437  _unique_id */\n      dup6\n        /* \"contracts/healthcare/Patient.sol\":12412:12438  record_mapping[_unique_id] */\n      0xffffffffffffffffffffffffffffffffffffffff\n      and\n      0xffffffffffffffffffffffffffffffffffffffff\n      and\n      dup2\n      mstore\n      0x20\n      add\n      swap1\n      dup2\n      mstore\n      0x20\n      add\n      0x00\n      keccak256\n        /* \"contracts/healthcare/Patient.sol\":12412:12449  record_mapping[_unique_id].record_msg */\n      0x02\n      add\n        /* \"contracts/healthcare/Patient.sol\":12412:12488  record_mapping[_unique_id].record_msg = \"Record is queried by doctor/audit.\" */\n      swap1\n      dup2\n      tag_191\n      swap2\n      swap1\n      tag_142\n      jump\t// in\n    tag_191:\n      pop\n        /* \"contracts/healthcare/Patient.sol\":12504:12693  event_doctor_query(... */\n      0xd389c9d6eec9dc6179e4cfc56c2b4a3ddab405290f85c5ca35457c25da541465\n        /* \"contracts/healthcare/Patient.sol\":12537:12551  record_mapping */\n      0x0a\n        /* \"contracts/healthcare/Patient.sol\":12537:12563  record_mapping[_unique_id] */\n      0x00\n        /* \"contracts/healthcare/Patient.sol\":12552:12562  _unique_id */\n      dup6\n        /* \"contracts/healthcare/Patient.sol\":12537:12563  record_mapping[_unique_id] */\n      0xffffffffffffffffffffffffffffffffffffffff\n      and\n      0xffffffffffffffffffffffffffffffffffffffff\n      and\n      dup2\n      mstore\n      0x20\n      add\n      swap1\n      dup2\n      mstore\n      0x20\n      add\n      0x00\n      keccak256\n        /* \"contracts/healthcare/Patient.sol\":12537:12574  record_mapping[_unique_id].record_msg */\n      0x02\n      add\n        /* \"contracts/healthcare/Patient.sol\":12589:12603  record_mapping */\n      0x0a\n        /* \"contracts/healthcare/Patient.sol\":12589:12615  record_mapping[_unique_id] */\n      0x00\n        /* \"contracts/healthcare/Patient.sol\":12604:12614  _unique_id */\n      dup7\n        /* \"contracts/healthcare/Patient.sol\":12589:12615  record_mapping[_unique_id] */\n      0xffffffffffffffffffffffffffffffffffffffff\n      and\n      0xffffffffffffffffffffffffffffffffffffffff\n      and\n      dup2\n      mstore\n      0x20\n      add\n      swap1\n      dup2\n      mstore\n      0x20\n      add\n      0x00\n      keccak256\n        /* \"contracts/healthcare/Patient.sol\":12589:12629  record_mapping[_unique_id].record_status */\n      0x03\n      add\n      sload\n        /* \"contracts/healthcare/Patient.sol\":12644:12658  record_mapping */\n      0x0a\n        /* \"contracts/healthcare/Patient.sol\":12644:12670  record_mapping[_unique_id] */\n      0x00\n        /* \"contracts/healthcare/Patient.sol\":12659:12669  _unique_id */\n      dup8\n        /* \"contracts/healthcare/Patient.sol\":12644:12670  record_mapping[_unique_id] */\n      0xffffffffffffffffffffffffffffffffffffffff\n      and\n      0xffffffffffffffffffffffffffffffffffffffff\n      and\n      dup2\n      mstore\n      0x20\n      add\n      swap1\n      dup2\n      mstore\n      0x20\n      add\n      0x00\n      keccak256\n        /* \"contracts/healthcare/Patient.sol\":12644:12682  record_mapping[_unique_id].record_time */\n      0x06\n      add\n      sload\n        /* \"contracts/healthcare/Patient.sol\":12504:12693  event_doctor_query(... */\n      mload(0x40)\n      tag_192\n      swap4\n      swap3\n      swap2\n      swap1\n      tag_145\n      jump\t// in\n    tag_192:\n      mload(0x40)\n      dup1\n      swap2\n      sub\n      swap1\n      log1\n        /* \"contracts/healthcare/Patient.sol\":12711:12717  result */\n      dup1\n        /* \"contracts/healthcare/Patient.sol\":12704:12717  return result */\n      swap2\n      pop\n      pop\n        /* \"contracts/healthcare/Patient.sol\":11892:12725  function doctor_query_record(address _unique_id) public returns (string memory){... */\n      swap2\n      swap1\n      pop\n      jump\t// out\n        /* \"contracts/healthcare/Patient.sol\":11059:11844  function doctor_print_record(address _unique_id) public returns (string memory record_status){... */\n    tag_76:\n        /* \"contracts/healthcare/Patient.sol\":11124:11151  string memory record_status */\n      0x60\n        /* \"contracts/healthcare/Patient.sol\":11171:11185  record_mapping */\n      0x0a\n        /* \"contracts/healthcare/Patient.sol\":11171:11197  record_mapping[_unique_id] */\n      0x00\n        /* \"contracts/healthcare/Patient.sol\":11186:11196  _unique_id */\n      dup4\n        /* \"contracts/healthcare/Patient.sol\":11171:11197  record_mapping[_unique_id] */\n      0xffffffffffffffffffffffffffffffffffffffff\n      and\n      0xffffffffffffffffffffffffffffffffffffffff\n      and\n      dup2\n      mstore\n      0x20\n      add\n      swap1\n      dup2\n      mstore\n      0x20\n      add\n      0x00\n      keccak256\n        /* \"contracts/healthcare/Patient.sol\":11171:11214  record_mapping[_unique_id].is_uid_generated */\n      0x00\n      add\n      0x00\n      swap1\n      sload\n      swap1\n      0x0100\n      exp\n      swap1\n      div\n      0xff\n      and\n        /* \"contracts/healthcare/Patient.sol\":11163:11215  require(record_mapping[_unique_id].is_uid_generated) */\n      tag_194\n      jumpi\n      revert(0x00, 0x00)\n    tag_194:\n        /* \"contracts/healthcare/Patient.sol\":11234:11241  doctors */\n      0x0b\n        /* \"contracts/healthcare/Patient.sol\":11234:11253  doctors[msg.sender] */\n      0x00\n        /* \"contracts/healthcare/Patient.sol\":11242:11252  msg.sender */\n      caller\n        /* \"contracts/healthcare/Patient.sol\":11234:11253  doctors[msg.sender] */\n      0xffffffffffffffffffffffffffffffffffffffff\n      and\n      0xffffffffffffffffffffffffffffffffffffffff\n      and\n      dup2\n      mstore\n      0x20\n      add\n      swap1\n      dup2\n      mstore\n      0x20\n      add\n      0x00\n      keccak256\n      0x00\n      swap1\n      sload\n      swap1\n      0x0100\n      exp\n      swap1\n      div\n      0xff\n      and\n        /* \"contracts/healthcare/Patient.sol\":11226:11254  require(doctors[msg.sender]) */\n      tag_195\n      jumpi\n      revert(0x00, 0x00)\n    tag_195:\n        /* \"contracts/healthcare/Patient.sol\":11315:11316  1 */\n      0x01\n        /* \"contracts/healthcare/Patient.sol\":11273:11287  record_mapping */\n      0x0a\n        /* \"contracts/healthcare/Patient.sol\":11273:11299  record_mapping[_unique_id] */\n      0x00\n        /* \"contracts/healthcare/Patient.sol\":11288:11298  _unique_id */\n      dup5\n        /* \"contracts/healthcare/Patient.sol\":11273:11299  record_mapping[_unique_id] */\n      0xffffffffffffffffffffffffffffffffffffffff\n      and\n      0xffffffffffffffffffffffffffffffffffffffff\n      and\n      dup2\n      mstore\n      0x20\n      add\n      swap1\n      dup2\n      mstore\n      0x20\n      add\n      0x00\n      keccak256\n        /* \"contracts/healthcare/Patient.sol\":11273:11313  record_mapping[_unique_id].record_status */\n      0x03\n      add\n      sload\n        /* \"contracts/healthcare/Patient.sol\":11273:11316  record_mapping[_unique_id].record_status!=1 */\n      sub\n        /* \"contracts/healthcare/Patient.sol\":11265:11317  require(record_mapping[_unique_id].record_status!=1) */\n      tag_196\n      jumpi\n      revert(0x00, 0x00)\n    tag_196:\n        /* \"contracts/healthcare/Patient.sol\":11370:11380  msg.sender */\n      caller\n        /* \"contracts/healthcare/Patient.sol\":11334:11348  record_mapping */\n      0x0a\n        /* \"contracts/healthcare/Patient.sol\":11334:11360  record_mapping[_unique_id] */\n      0x00\n        /* \"contracts/healthcare/Patient.sol\":11349:11359  _unique_id */\n      dup5\n        /* \"contracts/healthcare/Patient.sol\":11334:11360  record_mapping[_unique_id] */\n      0xffffffffffffffffffffffffffffffffffffffff\n      and\n      0xffffffffffffffffffffffffffffffffffffffff\n      and\n      dup2\n      mstore\n      0x20\n      add\n      swap1\n      dup2\n      mstore\n      0x20\n      add\n      0x00\n      keccak256\n        /* \"contracts/healthcare/Patient.sol\":11334:11367  record_mapping[_unique_id].doctor */\n      0x07\n      add\n      0x00\n        /* \"contracts/healthcare/Patient.sol\":11334:11380  record_mapping[_unique_id].doctor = msg.sender */\n      0x0100\n      exp\n      dup2\n      sload\n      dup2\n      0xffffffffffffffffffffffffffffffffffffffff\n      mul\n      not\n      and\n      swap1\n      dup4\n      0xffffffffffffffffffffffffffffffffffffffff\n      and\n      mul\n      or\n      swap1\n      sstore\n      pop\n        /* \"contracts/healthcare/Patient.sol\":11432:11447  block.timestamp */\n      timestamp\n        /* \"contracts/healthcare/Patient.sol\":11391:11405  record_mapping */\n      0x0a\n        /* \"contracts/healthcare/Patient.sol\":11391:11417  record_mapping[_unique_id] */\n      0x00\n        /* \"contracts/healthcare/Patient.sol\":11406:11416  _unique_id */\n      dup5\n        /* \"contracts/healthcare/Patient.sol\":11391:11417  record_mapping[_unique_id] */\n      0xffffffffffffffffffffffffffffffffffffffff\n      and\n      0xffffffffffffffffffffffffffffffffffffffff\n      and\n      dup2\n      mstore\n      0x20\n      add\n      swap1\n      dup2\n      mstore\n      0x20\n      add\n      0x00\n      keccak256\n        /* \"contracts/healthcare/Patient.sol\":11391:11429  record_mapping[_unique_id].doctor_time */\n      0x08\n      add\n        /* \"contracts/healthcare/Patient.sol\":11391:11447  record_mapping[_unique_id].doctor_time = block.timestamp */\n      dup2\n      swap1\n      sstore\n      pop\n        /* \"contracts/healthcare/Patient.sol\":11511:11512  4 */\n      0x04\n        /* \"contracts/healthcare/Patient.sol\":11468:11482  record_mapping */\n      0x0a\n        /* \"contracts/healthcare/Patient.sol\":11468:11494  record_mapping[_unique_id] */\n      0x00\n        /* \"contracts/healthcare/Patient.sol\":11483:11493  _unique_id */\n      dup5\n        /* \"contracts/healthcare/Patient.sol\":11468:11494  record_mapping[_unique_id] */\n      0xffffffffffffffffffffffffffffffffffffffff\n      and\n      0xffffffffffffffffffffffffffffffffffffffff\n      and\n      dup2\n      mstore\n      0x20\n      add\n      swap1\n      dup2\n      mstore\n      0x20\n      add\n      0x00\n      keccak256\n        /* \"contracts/healthcare/Patient.sol\":11468:11508  record_mapping[_unique_id].record_status */\n      0x03\n      add\n        /* \"contracts/healthcare/Patient.sol\":11468:11512  record_mapping[_unique_id].record_status = 4 */\n      dup2\n      swap1\n      sstore\n      pop\n        /* \"contracts/healthcare/Patient.sol\":11523:11599  record_mapping[_unique_id].record_msg = \"Record is printed by doctor/audit.\" */\n      mload(0x40)\n      dup1\n      0x60\n      add\n      0x40\n      mstore\n      dup1\n      0x22\n      dup2\n      mstore\n      0x20\n      add\n      data_d00529ad41deaf843cb43ae8784c496ffb8e84190407ca9560b040e883addf38\n      0x22\n      swap2\n      codecopy\n        /* \"contracts/healthcare/Patient.sol\":11523:11537  record_mapping */\n      0x0a\n        /* \"contracts/healthcare/Patient.sol\":11523:11549  record_mapping[_unique_id] */\n      0x00\n        /* \"contracts/healthcare/Patient.sol\":11538:11548  _unique_id */\n      dup5\n        /* \"contracts/healthcare/Patient.sol\":11523:11549  record_mapping[_unique_id] */\n      0xffffffffffffffffffffffffffffffffffffffff\n      and\n      0xffffffffffffffffffffffffffffffffffffffff\n      and\n      dup2\n      mstore\n      0x20\n      add\n      swap1\n      dup2\n      mstore\n      0x20\n      add\n      0x00\n      keccak256\n        /* \"contracts/healthcare/Patient.sol\":11523:11560  record_mapping[_unique_id].record_msg */\n      0x02\n      add\n        /* \"contracts/healthcare/Patient.sol\":11523:11599  record_mapping[_unique_id].record_msg = \"Record is printed by doctor/audit.\" */\n      swap1\n      dup2\n      tag_197\n      swap2\n      swap1\n      tag_142\n      jump\t// in\n    tag_197:\n      pop\n        /* \"contracts/healthcare/Patient.sol\":11615:11804  event_doctor_print(... */\n      0x291023100cfc44fba59b279273f751e0fa64289217179d5c9835fc07ab5b1e4f\n        /* \"contracts/healthcare/Patient.sol\":11648:11662  record_mapping */\n      0x0a\n        /* \"contracts/healthcare/Patient.sol\":11648:11674  record_mapping[_unique_id] */\n      0x00\n        /* \"contracts/healthcare/Patient.sol\":11663:11673  _unique_id */\n      dup5\n        /* \"contracts/healthcare/Patient.sol\":11648:11674  record_mapping[_unique_id] */\n      0xffffffffffffffffffffffffffffffffffffffff\n      and\n      0xffffffffffffffffffffffffffffffffffffffff\n      and\n      dup2\n      mstore\n      0x20\n      add\n      swap1\n      dup2\n      mstore\n      0x20\n      add\n      0x00\n      keccak256\n        /* \"contracts/healthcare/Patient.sol\":11648:11685  record_mapping[_unique_id].record_msg */\n      0x02\n      add\n        /* \"contracts/healthcare/Patient.sol\":11700:11714  record_mapping */\n      0x0a\n        /* \"contracts/healthcare/Patient.sol\":11700:11726  record_mapping[_unique_id] */\n      0x00\n        /* \"contracts/healthcare/Patient.sol\":11715:11725  _unique_id */\n      dup6\n        /* \"contracts/healthcare/Patient.sol\":11700:11726  record_mapping[_unique_id] */\n      0xffffffffffffffffffffffffffffffffffffffff\n      and\n      0xffffffffffffffffffffffffffffffffffffffff\n      and\n      dup2\n      mstore\n      0x20\n      add\n      swap1\n      dup2\n      mstore\n      0x20\n      add\n      0x00\n      keccak256\n        /* \"contracts/healthcare/Patient.sol\":11700:11740  record_mapping[_unique_id].record_status */\n      0x03\n      add\n      sload\n        /* \"contracts/healthcare/Patient.sol\":11755:11769  record_mapping */\n      0x0a\n        /* \"contracts/healthcare/Patient.sol\":11755:11781  record_mapping[_unique_id] */\n      0x00\n        /* \"contracts/healthcare/Patient.sol\":11770:11780  _unique_id */\n      dup7\n        /* \"contracts/healthcare/Patient.sol\":11755:11781  record_mapping[_unique_id] */\n      0xffffffffffffffffffffffffffffffffffffffff\n      and\n      0xffffffffffffffffffffffffffffffffffffffff\n      and\n      dup2\n      mstore\n      0x20\n      add\n      swap1\n      dup2\n      mstore\n      0x20\n      add\n      0x00\n      keccak256\n        /* \"contracts/healthcare/Patient.sol\":11755:11793  record_mapping[_unique_id].record_time */\n      0x06\n      add\n      sload\n        /* \"contracts/healthcare/Patient.sol\":11615:11804  event_doctor_print(... */\n      mload(0x40)\n      tag_198\n      swap4\n      swap3\n      swap2\n      swap1\n      tag_145\n      jump\t// in\n    tag_198:\n      mload(0x40)\n      dup1\n      swap2\n      sub\n      swap1\n      log1\n        /* \"contracts/healthcare/Patient.sol\":11059:11844  function doctor_print_record(address _unique_id) public returns (string memory record_status){... */\n      swap2\n      swap1\n      pop\n      jump\t// out\n        /* \"contracts/healthcare/Patient.sol\":6807:7172  function removeAudit(address _audit_address) public only_owner returns (string memory) {... */\n    tag_80:\n        /* \"contracts/healthcare/Patient.sol\":6879:6892  string memory */\n      0x60\n        /* \"contracts/healthcare/Patient.sol\":2210:2220  msg.sender */\n      caller\n        /* \"contracts/healthcare/Patient.sol\":2201:2220  owner == msg.sender */\n      0xffffffffffffffffffffffffffffffffffffffff\n      and\n        /* \"contracts/healthcare/Patient.sol\":2201:2206  owner */\n      0x00\n      0x00\n      swap1\n      sload\n      swap1\n      0x0100\n      exp\n      swap1\n      div\n      0xffffffffffffffffffffffffffffffffffffffff\n      and\n        /* \"contracts/healthcare/Patient.sol\":2201:2220  owner == msg.sender */\n      0xffffffffffffffffffffffffffffffffffffffff\n      and\n      eq\n        /* \"contracts/healthcare/Patient.sol\":2193:2221  require(owner == msg.sender) */\n      tag_200\n      jumpi\n      revert(0x00, 0x00)\n    tag_200:\n        /* \"contracts/healthcare/Patient.sol\":6954:6960  audits */\n      0x0c\n        /* \"contracts/healthcare/Patient.sol\":6954:6976  audits[_audit_address] */\n      0x00\n        /* \"contracts/healthcare/Patient.sol\":6961:6975  _audit_address */\n      dup4\n        /* \"contracts/healthcare/Patient.sol\":6954:6976  audits[_audit_address] */\n      0xffffffffffffffffffffffffffffffffffffffff\n      and\n      0xffffffffffffffffffffffffffffffffffffffff\n      and\n      dup2\n      mstore\n      0x20\n      add\n      swap1\n      dup2\n      mstore\n      0x20\n      add\n      0x00\n      keccak256\n      0x00\n      swap1\n      sload\n      swap1\n      0x0100\n      exp\n      swap1\n      div\n      0xff\n      and\n        /* \"contracts/healthcare/Patient.sol\":6951:7034  if(audits[_audit_address]){... */\n      iszero\n      tag_202\n      jumpi\n        /* \"contracts/healthcare/Patient.sol\":7017:7022  false */\n      0x00\n        /* \"contracts/healthcare/Patient.sol\":6992:6998  audits */\n      0x0c\n        /* \"contracts/healthcare/Patient.sol\":6992:7014  audits[_audit_address] */\n      0x00\n        /* \"contracts/healthcare/Patient.sol\":6999:7013  _audit_address */\n      dup5\n        /* \"contracts/healthcare/Patient.sol\":6992:7014  audits[_audit_address] */\n      0xffffffffffffffffffffffffffffffffffffffff\n      and\n      0xffffffffffffffffffffffffffffffffffffffff\n      and\n      dup2\n      mstore\n      0x20\n      add\n      swap1\n      dup2\n      mstore\n      0x20\n      add\n      0x00\n      keccak256\n      0x00\n        /* \"contracts/healthcare/Patient.sol\":6992:7022  audits[_audit_address] = false */\n      0x0100\n      exp\n      dup2\n      sload\n      dup2\n      0xff\n      mul\n      not\n      and\n      swap1\n      dup4\n      iszero\n      iszero\n      mul\n      or\n      swap1\n      sstore\n      pop\n        /* \"contracts/healthcare/Patient.sol\":6951:7034  if(audits[_audit_address]){... */\n    tag_202:\n        /* \"contracts/healthcare/Patient.sol\":7049:7124  event_remove_audit(\"An audit is removed.\", _audit_address, block.timestamp) */\n      0xab14abf9ce720d4dfa04591da5de1ead53e0c4fdadfca225baaea81626567d4d\n        /* \"contracts/healthcare/Patient.sol\":7092:7106  _audit_address */\n      dup3\n        /* \"contracts/healthcare/Patient.sol\":7108:7123  block.timestamp */\n      timestamp\n        /* \"contracts/healthcare/Patient.sol\":7049:7124  event_remove_audit(\"An audit is removed.\", _audit_address, block.timestamp) */\n      mload(0x40)\n      tag_203\n      swap3\n      swap2\n      swap1\n      tag_204\n      jump\t// in\n    tag_203:\n      mload(0x40)\n      dup1\n      swap2\n      sub\n      swap1\n      log1\n        /* \"contracts/healthcare/Patient.sol\":7135:7164  return \"A doctor is removed.\" */\n      mload(0x40)\n      dup1\n      0x40\n      add\n      0x40\n      mstore\n      dup1\n      0x14\n      dup2\n      mstore\n      0x20\n      add\n      0x4120646f63746f722069732072656d6f7665642e000000000000000000000000\n      dup2\n      mstore\n      pop\n      swap1\n      pop\n        /* \"contracts/healthcare/Patient.sol\":6807:7172  function removeAudit(address _audit_address) public only_owner returns (string memory) {... */\n      swap2\n      swap1\n      pop\n      jump\t// out\n        /* \"contracts/healthcare/Patient.sol\":5442:5813  function addDoctors(address _doctor_address) public only_owner returns (string memory) {... */\n    tag_84:\n        /* \"contracts/healthcare/Patient.sol\":5514:5527  string memory */\n      0x60\n        /* \"contracts/healthcare/Patient.sol\":2210:2220  msg.sender */\n      caller\n        /* \"contracts/healthcare/Patient.sol\":2201:2220  owner == msg.sender */\n      0xffffffffffffffffffffffffffffffffffffffff\n      and\n        /* \"contracts/healthcare/Patient.sol\":2201:2206  owner */\n      0x00\n      0x00\n      swap1\n      sload\n      swap1\n      0x0100\n      exp\n      swap1\n      div\n      0xffffffffffffffffffffffffffffffffffffffff\n      and\n        /* \"contracts/healthcare/Patient.sol\":2201:2220  owner == msg.sender */\n      0xffffffffffffffffffffffffffffffffffffffff\n      and\n      eq\n        /* \"contracts/healthcare/Patient.sol\":2193:2221  require(owner == msg.sender) */\n      tag_206\n      jumpi\n      revert(0x00, 0x00)\n    tag_206:\n        /* \"contracts/healthcare/Patient.sol\":5597:5604  doctors */\n      0x0b\n        /* \"contracts/healthcare/Patient.sol\":5597:5621  doctors[_doctor_address] */\n      0x00\n        /* \"contracts/healthcare/Patient.sol\":5605:5620  _doctor_address */\n      dup4\n        /* \"contracts/healthcare/Patient.sol\":5597:5621  doctors[_doctor_address] */\n      0xffffffffffffffffffffffffffffffffffffffff\n      and\n      0xffffffffffffffffffffffffffffffffffffffff\n      and\n      dup2\n      mstore\n      0x20\n      add\n      swap1\n      dup2\n      mstore\n      0x20\n      add\n      0x00\n      keccak256\n      0x00\n      swap1\n      sload\n      swap1\n      0x0100\n      exp\n      swap1\n      div\n      0xff\n      and\n        /* \"contracts/healthcare/Patient.sol\":5593:5680  if(!doctors[_doctor_address]){... */\n      tag_208\n      jumpi\n        /* \"contracts/healthcare/Patient.sol\":5664:5668  true */\n      0x01\n        /* \"contracts/healthcare/Patient.sol\":5637:5644  doctors */\n      0x0b\n        /* \"contracts/healthcare/Patient.sol\":5637:5661  doctors[_doctor_address] */\n      0x00\n        /* \"contracts/healthcare/Patient.sol\":5645:5660  _doctor_address */\n      dup5\n        /* \"contracts/healthcare/Patient.sol\":5637:5661  doctors[_doctor_address] */\n      0xffffffffffffffffffffffffffffffffffffffff\n      and\n      0xffffffffffffffffffffffffffffffffffffffff\n      and\n      dup2\n      mstore\n      0x20\n      add\n      swap1\n      dup2\n      mstore\n      0x20\n      add\n      0x00\n      keccak256\n      0x00\n        /* \"contracts/healthcare/Patient.sol\":5637:5668  doctors[_doctor_address] = true */\n      0x0100\n      exp\n      dup2\n      sload\n      dup2\n      0xff\n      mul\n      not\n      and\n      swap1\n      dup4\n      iszero\n      iszero\n      mul\n      or\n      swap1\n      sstore\n      pop\n        /* \"contracts/healthcare/Patient.sol\":5593:5680  if(!doctors[_doctor_address]){... */\n    tag_208:\n        /* \"contracts/healthcare/Patient.sol\":5695:5767  event_add_doctor(\"A doctor is added.\", _doctor_address, block.timestamp) */\n      0x51ab0ad16f4f10b093a4b9bc75d760dc953842c743d54ae9faa9b5aae40659aa\n        /* \"contracts/healthcare/Patient.sol\":5734:5749  _doctor_address */\n      dup3\n        /* \"contracts/healthcare/Patient.sol\":5751:5766  block.timestamp */\n      timestamp\n        /* \"contracts/healthcare/Patient.sol\":5695:5767  event_add_doctor(\"A doctor is added.\", _doctor_address, block.timestamp) */\n      mload(0x40)\n      tag_209\n      swap3\n      swap2\n      swap1\n      tag_210\n      jump\t// in\n    tag_209:\n      mload(0x40)\n      dup1\n      swap2\n      sub\n      swap1\n      log1\n        /* \"contracts/healthcare/Patient.sol\":5778:5805  return \"A doctor is added.\" */\n      mload(0x40)\n      dup1\n      0x40\n      add\n      0x40\n      mstore\n      dup1\n      0x12\n      dup2\n      mstore\n      0x20\n      add\n      0x4120646f63746f722069732061646465642e0000000000000000000000000000\n      dup2\n      mstore\n      pop\n      swap1\n      pop\n        /* \"contracts/healthcare/Patient.sol\":5442:5813  function addDoctors(address _doctor_address) public only_owner returns (string memory) {... */\n      swap2\n      swap1\n      pop\n      jump\t// out\n        /* \"contracts/healthcare/Patient.sol\":12772:13616  function doctor_copy_record(address _unique_id) public returns (string memory){... */\n    tag_88:\n        /* \"contracts/healthcare/Patient.sol\":12836:12849  string memory */\n      0x60\n        /* \"contracts/healthcare/Patient.sol\":12869:12883  record_mapping */\n      0x0a\n        /* \"contracts/healthcare/Patient.sol\":12869:12895  record_mapping[_unique_id] */\n      0x00\n        /* \"contracts/healthcare/Patient.sol\":12884:12894  _unique_id */\n      dup4\n        /* \"contracts/healthcare/Patient.sol\":12869:12895  record_mapping[_unique_id] */\n      0xffffffffffffffffffffffffffffffffffffffff\n      and\n      0xffffffffffffffffffffffffffffffffffffffff\n      and\n      dup2\n      mstore\n      0x20\n      add\n      swap1\n      dup2\n      mstore\n      0x20\n      add\n      0x00\n      keccak256\n        /* \"contracts/healthcare/Patient.sol\":12869:12912  record_mapping[_unique_id].is_uid_generated */\n      0x00\n      add\n      0x00\n      swap1\n      sload\n      swap1\n      0x0100\n      exp\n      swap1\n      div\n      0xff\n      and\n        /* \"contracts/healthcare/Patient.sol\":12861:12913  require(record_mapping[_unique_id].is_uid_generated) */\n      tag_212\n      jumpi\n      revert(0x00, 0x00)\n    tag_212:\n        /* \"contracts/healthcare/Patient.sol\":12932:12939  doctors */\n      0x0b\n        /* \"contracts/healthcare/Patient.sol\":12932:12951  doctors[msg.sender] */\n      0x00\n        /* \"contracts/healthcare/Patient.sol\":12940:12950  msg.sender */\n      caller\n        /* \"contracts/healthcare/Patient.sol\":12932:12951  doctors[msg.sender] */\n      0xffffffffffffffffffffffffffffffffffffffff\n      and\n      0xffffffffffffffffffffffffffffffffffffffff\n      and\n      dup2\n      mstore\n      0x20\n      add\n      swap1\n      dup2\n      mstore\n      0x20\n      add\n      0x00\n      keccak256\n      0x00\n      swap1\n      sload\n      swap1\n      0x0100\n      exp\n      swap1\n      div\n      0xff\n      and\n        /* \"contracts/healthcare/Patient.sol\":12932:12973  doctors[msg.sender] || audits[msg.sender] */\n      dup1\n      tag_213\n      jumpi\n      pop\n        /* \"contracts/healthcare/Patient.sol\":12955:12961  audits */\n      0x0c\n        /* \"contracts/healthcare/Patient.sol\":12955:12973  audits[msg.sender] */\n      0x00\n        /* \"contracts/healthcare/Patient.sol\":12962:12972  msg.sender */\n      caller\n        /* \"contracts/healthcare/Patient.sol\":12955:12973  audits[msg.sender] */\n      0xffffffffffffffffffffffffffffffffffffffff\n      and\n      0xffffffffffffffffffffffffffffffffffffffff\n      and\n      dup2\n      mstore\n      0x20\n      add\n      swap1\n      dup2\n      mstore\n      0x20\n      add\n      0x00\n      keccak256\n      0x00\n      swap1\n      sload\n      swap1\n      0x0100\n      exp\n      swap1\n      div\n      0xff\n      and\n        /* \"contracts/healthcare/Patient.sol\":12932:12973  doctors[msg.sender] || audits[msg.sender] */\n    tag_213:\n        /* \"contracts/healthcare/Patient.sol\":12924:12989  require(doctors[msg.sender] || audits[msg.sender], \"Not working\") */\n      tag_214\n      jumpi\n      mload(0x40)\n      0x08c379a000000000000000000000000000000000000000000000000000000000\n      dup2\n      mstore\n      0x04\n      add\n      tag_215\n      swap1\n      tag_113\n      jump\t// in\n    tag_215:\n      mload(0x40)\n      dup1\n      swap2\n      sub\n      swap1\n      revert\n    tag_214:\n        /* \"contracts/healthcare/Patient.sol\":13050:13051  1 */\n      0x01\n        /* \"contracts/healthcare/Patient.sol\":13008:13022  record_mapping */\n      0x0a\n        /* \"contracts/healthcare/Patient.sol\":13008:13034  record_mapping[_unique_id] */\n      0x00\n        /* \"contracts/healthcare/Patient.sol\":13023:13033  _unique_id */\n      dup5\n        /* \"contracts/healthcare/Patient.sol\":13008:13034  record_mapping[_unique_id] */\n      0xffffffffffffffffffffffffffffffffffffffff\n      and\n      0xffffffffffffffffffffffffffffffffffffffff\n      and\n      dup2\n      mstore\n      0x20\n      add\n      swap1\n      dup2\n      mstore\n      0x20\n      add\n      0x00\n      keccak256\n        /* \"contracts/healthcare/Patient.sol\":13008:13048  record_mapping[_unique_id].record_status */\n      0x03\n      add\n      sload\n        /* \"contracts/healthcare/Patient.sol\":13008:13051  record_mapping[_unique_id].record_status!=1 */\n      sub\n        /* \"contracts/healthcare/Patient.sol\":13000:13052  require(record_mapping[_unique_id].record_status!=1) */\n      tag_216\n      jumpi\n      revert(0x00, 0x00)\n    tag_216:\n        /* \"contracts/healthcare/Patient.sol\":13105:13115  msg.sender */\n      caller\n        /* \"contracts/healthcare/Patient.sol\":13069:13083  record_mapping */\n      0x0a\n        /* \"contracts/healthcare/Patient.sol\":13069:13095  record_mapping[_unique_id] */\n      0x00\n        /* \"contracts/healthcare/Patient.sol\":13084:13094  _unique_id */\n      dup5\n        /* \"contracts/healthcare/Patient.sol\":13069:13095  record_mapping[_unique_id] */\n      0xffffffffffffffffffffffffffffffffffffffff\n      and\n      0xffffffffffffffffffffffffffffffffffffffff\n      and\n      dup2\n      mstore\n      0x20\n      add\n      swap1\n      dup2\n      mstore\n      0x20\n      add\n      0x00\n      keccak256\n        /* \"contracts/healthcare/Patient.sol\":13069:13102  record_mapping[_unique_id].doctor */\n      0x07\n      add\n      0x00\n        /* \"contracts/healthcare/Patient.sol\":13069:13115  record_mapping[_unique_id].doctor = msg.sender */\n      0x0100\n      exp\n      dup2\n      sload\n      dup2\n      0xffffffffffffffffffffffffffffffffffffffff\n      mul\n      not\n      and\n      swap1\n      dup4\n      0xffffffffffffffffffffffffffffffffffffffff\n      and\n      mul\n      or\n      swap1\n      sstore\n      pop\n        /* \"contracts/healthcare/Patient.sol\":13167:13182  block.timestamp */\n      timestamp\n        /* \"contracts/healthcare/Patient.sol\":13126:13140  record_mapping */\n      0x0a\n        /* \"contracts/healthcare/Patient.sol\":13126:13152  record_mapping[_unique_id] */\n      0x00\n        /* \"contracts/healthcare/Patient.sol\":13141:13151  _unique_id */\n      dup5\n        /* \"contracts/healthcare/Patient.sol\":13126:13152  record_mapping[_unique_id] */\n      0xffffffffffffffffffffffffffffffffffffffff\n      and\n      0xffffffffffffffffffffffffffffffffffffffff\n      and\n      dup2\n      mstore\n      0x20\n      add\n      swap1\n      dup2\n      mstore\n      0x20\n      add\n      0x00\n      keccak256\n        /* \"contracts/healthcare/Patient.sol\":13126:13164  record_mapping[_unique_id].doctor_time */\n      0x08\n      add\n        /* \"contracts/healthcare/Patient.sol\":13126:13182  record_mapping[_unique_id].doctor_time = block.timestamp */\n      dup2\n      swap1\n      sstore\n      pop\n        /* \"contracts/healthcare/Patient.sol\":13246:13247  5 */\n      0x05\n        /* \"contracts/healthcare/Patient.sol\":13203:13217  record_mapping */\n      0x0a\n        /* \"contracts/healthcare/Patient.sol\":13203:13229  record_mapping[_unique_id] */\n      0x00\n        /* \"contracts/healthcare/Patient.sol\":13218:13228  _unique_id */\n      dup5\n        /* \"contracts/healthcare/Patient.sol\":13203:13229  record_mapping[_unique_id] */\n      0xffffffffffffffffffffffffffffffffffffffff\n      and\n      0xffffffffffffffffffffffffffffffffffffffff\n      and\n      dup2\n      mstore\n      0x20\n      add\n      swap1\n      dup2\n      mstore\n      0x20\n      add\n      0x00\n      keccak256\n        /* \"contracts/healthcare/Patient.sol\":13203:13243  record_mapping[_unique_id].record_status */\n      0x03\n      add\n        /* \"contracts/healthcare/Patient.sol\":13203:13247  record_mapping[_unique_id].record_status = 5 */\n      dup2\n      swap1\n      sstore\n      pop\n        /* \"contracts/healthcare/Patient.sol\":13258:13333  record_mapping[_unique_id].record_msg = \"Record is copied by doctor/audit.\" */\n      mload(0x40)\n      dup1\n      0x60\n      add\n      0x40\n      mstore\n      dup1\n      0x21\n      dup2\n      mstore\n      0x20\n      add\n      data_4978b6b03187df844a847c278aaf4a67aa6dcd97b76a4c1ab7c656e8ee41cb6d\n      0x21\n      swap2\n      codecopy\n        /* \"contracts/healthcare/Patient.sol\":13258:13272  record_mapping */\n      0x0a\n        /* \"contracts/healthcare/Patient.sol\":13258:13284  record_mapping[_unique_id] */\n      0x00\n        /* \"contracts/healthcare/Patient.sol\":13273:13283  _unique_id */\n      dup5\n        /* \"contracts/healthcare/Patient.sol\":13258:13284  record_mapping[_unique_id] */\n      0xffffffffffffffffffffffffffffffffffffffff\n      and\n      0xffffffffffffffffffffffffffffffffffffffff\n      and\n      dup2\n      mstore\n      0x20\n      add\n      swap1\n      dup2\n      mstore\n      0x20\n      add\n      0x00\n      keccak256\n        /* \"contracts/healthcare/Patient.sol\":13258:13295  record_mapping[_unique_id].record_msg */\n      0x02\n      add\n        /* \"contracts/healthcare/Patient.sol\":13258:13333  record_mapping[_unique_id].record_msg = \"Record is copied by doctor/audit.\" */\n      swap1\n      dup2\n      tag_217\n      swap2\n      swap1\n      tag_142\n      jump\t// in\n    tag_217:\n      pop\n        /* \"contracts/healthcare/Patient.sol\":13349:13537  event_doctor_copy(... */\n      0x49b37b6c2e1da17dbf397324fe77f392778404db069d7652d87feb8e0be2bb1d\n        /* \"contracts/healthcare/Patient.sol\":13381:13395  record_mapping */\n      0x0a\n        /* \"contracts/healthcare/Patient.sol\":13381:13407  record_mapping[_unique_id] */\n      0x00\n        /* \"contracts/healthcare/Patient.sol\":13396:13406  _unique_id */\n      dup5\n        /* \"contracts/healthcare/Patient.sol\":13381:13407  record_mapping[_unique_id] */\n      0xffffffffffffffffffffffffffffffffffffffff\n      and\n      0xffffffffffffffffffffffffffffffffffffffff\n      and\n      dup2\n      mstore\n      0x20\n      add\n      swap1\n      dup2\n      mstore\n      0x20\n      add\n      0x00\n      keccak256\n        /* \"contracts/healthcare/Patient.sol\":13381:13418  record_mapping[_unique_id].record_msg */\n      0x02\n      add\n        /* \"contracts/healthcare/Patient.sol\":13433:13447  record_mapping */\n      0x0a\n        /* \"contracts/healthcare/Patient.sol\":13433:13459  record_mapping[_unique_id] */\n      0x00\n        /* \"contracts/healthcare/Patient.sol\":13448:13458  _unique_id */\n      dup6\n        /* \"contracts/healthcare/Patient.sol\":13433:13459  record_mapping[_unique_id] */\n      0xffffffffffffffffffffffffffffffffffffffff\n      and\n      0xffffffffffffffffffffffffffffffffffffffff\n      and\n      dup2\n      mstore\n      0x20\n      add\n      swap1\n      dup2\n      mstore\n      0x20\n      add\n      0x00\n      keccak256\n        /* \"contracts/healthcare/Patient.sol\":13433:13473  record_mapping[_unique_id].record_status */\n      0x03\n      add\n      sload\n        /* \"contracts/healthcare/Patient.sol\":13488:13502  record_mapping */\n      0x0a\n        /* \"contracts/healthcare/Patient.sol\":13488:13514  record_mapping[_unique_id] */\n      0x00\n        /* \"contracts/healthcare/Patient.sol\":13503:13513  _unique_id */\n      dup7\n        /* \"contracts/healthcare/Patient.sol\":13488:13514  record_mapping[_unique_id] */\n      0xffffffffffffffffffffffffffffffffffffffff\n      and\n      0xffffffffffffffffffffffffffffffffffffffff\n      and\n      dup2\n      mstore\n      0x20\n      add\n      swap1\n      dup2\n      mstore\n      0x20\n      add\n      0x00\n      keccak256\n        /* \"contracts/healthcare/Patient.sol\":13488:13526  record_mapping[_unique_id].record_time */\n      0x06\n      add\n      sload\n        /* \"contracts/healthcare/Patient.sol\":13349:13537  event_doctor_copy(... */\n      mload(0x40)\n      tag_218\n      swap4\n      swap3\n      swap2\n      swap1\n      tag_145\n      jump\t// in\n    tag_218:\n      mload(0x40)\n      dup1\n      swap2\n      sub\n      swap1\n      log1\n        /* \"contracts/healthcare/Patient.sol\":13548:13608  return \"Doctor has successfully copied your medical records\" */\n      mload(0x40)\n      dup1\n      0x60\n      add\n      0x40\n      mstore\n      dup1\n      0x33\n      dup2\n      mstore\n      0x20\n      add\n      data_5017b043322db10fe51fa3f32c1cd136a7d729f76bef796bed99fdcfc2dfbfdc\n      0x33\n      swap2\n      codecopy\n      swap1\n      pop\n        /* \"contracts/healthcare/Patient.sol\":12772:13616  function doctor_copy_record(address _unique_id) public returns (string memory){... */\n      swap2\n      swap1\n      pop\n      jump\t// out\n        /* \"contracts/healthcare/Patient.sol\":9215:10092  function print_record(address _unique_id) public returns (string memory ){... */\n    tag_92:\n        /* \"contracts/healthcare/Patient.sol\":9273:9286  string memory */\n      0x60\n        /* \"contracts/healthcare/Patient.sol\":9356:9360  true */\n      0x01\n        /* \"contracts/healthcare/Patient.sol\":9309:9360  record_mapping[_unique_id].is_uid_generated == true */\n      iszero\n      iszero\n        /* \"contracts/healthcare/Patient.sol\":9309:9323  record_mapping */\n      0x0a\n        /* \"contracts/healthcare/Patient.sol\":9309:9335  record_mapping[_unique_id] */\n      0x00\n        /* \"contracts/healthcare/Patient.sol\":9324:9334  _unique_id */\n      dup5\n        /* \"contracts/healthcare/Patient.sol\":9309:9335  record_mapping[_unique_id] */\n      0xffffffffffffffffffffffffffffffffffffffff\n      and\n      0xffffffffffffffffffffffffffffffffffffffff\n      and\n      dup2\n      mstore\n      0x20\n      add\n      swap1\n      dup2\n      mstore\n      0x20\n      add\n      0x00\n      keccak256\n        /* \"contracts/healthcare/Patient.sol\":9309:9352  record_mapping[_unique_id].is_uid_generated */\n      0x00\n      add\n      0x00\n      swap1\n      sload\n      swap1\n      0x0100\n      exp\n      swap1\n      div\n      0xff\n      and\n        /* \"contracts/healthcare/Patient.sol\":9309:9360  record_mapping[_unique_id].is_uid_generated == true */\n      iszero\n      iszero\n      eq\n        /* \"contracts/healthcare/Patient.sol\":9301:9361  require(record_mapping[_unique_id].is_uid_generated == true) */\n      tag_220\n      jumpi\n      revert(0x00, 0x00)\n    tag_220:\n        /* \"contracts/healthcare/Patient.sol\":9422:9423  1 */\n      0x01\n        /* \"contracts/healthcare/Patient.sol\":9380:9394  record_mapping */\n      0x0a\n        /* \"contracts/healthcare/Patient.sol\":9380:9406  record_mapping[_unique_id] */\n      0x00\n        /* \"contracts/healthcare/Patient.sol\":9395:9405  _unique_id */\n      dup5\n        /* \"contracts/healthcare/Patient.sol\":9380:9406  record_mapping[_unique_id] */\n      0xffffffffffffffffffffffffffffffffffffffff\n      and\n      0xffffffffffffffffffffffffffffffffffffffff\n      and\n      dup2\n      mstore\n      0x20\n      add\n      swap1\n      dup2\n      mstore\n      0x20\n      add\n      0x00\n      keccak256\n        /* \"contracts/healthcare/Patient.sol\":9380:9420  record_mapping[_unique_id].record_status */\n      0x03\n      add\n      sload\n        /* \"contracts/healthcare/Patient.sol\":9380:9423  record_mapping[_unique_id].record_status!=1 */\n      sub\n        /* \"contracts/healthcare/Patient.sol\":9372:9424  require(record_mapping[_unique_id].record_status!=1) */\n      tag_221\n      jumpi\n      revert(0x00, 0x00)\n    tag_221:\n        /* \"contracts/healthcare/Patient.sol\":9452:9466  record_mapping */\n      0x0a\n        /* \"contracts/healthcare/Patient.sol\":9452:9478  record_mapping[_unique_id] */\n      0x00\n        /* \"contracts/healthcare/Patient.sol\":9467:9477  _unique_id */\n      dup4\n        /* \"contracts/healthcare/Patient.sol\":9452:9478  record_mapping[_unique_id] */\n      0xffffffffffffffffffffffffffffffffffffffff\n      and\n      0xffffffffffffffffffffffffffffffffffffffff\n      and\n      dup2\n      mstore\n      0x20\n      add\n      swap1\n      dup2\n      mstore\n      0x20\n      add\n      0x00\n      keccak256\n        /* \"contracts/healthcare/Patient.sol\":9452:9494  record_mapping[_unique_id].patient_address */\n      0x05\n      add\n      0x00\n      swap1\n      sload\n      swap1\n      0x0100\n      exp\n      swap1\n      div\n      0xffffffffffffffffffffffffffffffffffffffff\n      and\n        /* \"contracts/healthcare/Patient.sol\":9438:9494  msg.sender != record_mapping[_unique_id].patient_address */\n      0xffffffffffffffffffffffffffffffffffffffff\n      and\n        /* \"contracts/healthcare/Patient.sol\":9438:9448  msg.sender */\n      caller\n        /* \"contracts/healthcare/Patient.sol\":9438:9494  msg.sender != record_mapping[_unique_id].patient_address */\n      0xffffffffffffffffffffffffffffffffffffffff\n      and\n      eq\n      iszero\n        /* \"contracts/healthcare/Patient.sol\":9438:9518  msg.sender != record_mapping[_unique_id].patient_address && !doctors[msg.sender] */\n      dup1\n      iszero\n      tag_222\n      jumpi\n      pop\n        /* \"contracts/healthcare/Patient.sol\":9499:9506  doctors */\n      0x0b\n        /* \"contracts/healthcare/Patient.sol\":9499:9518  doctors[msg.sender] */\n      0x00\n        /* \"contracts/healthcare/Patient.sol\":9507:9517  msg.sender */\n      caller\n        /* \"contracts/healthcare/Patient.sol\":9499:9518  doctors[msg.sender] */\n      0xffffffffffffffffffffffffffffffffffffffff\n      and\n      0xffffffffffffffffffffffffffffffffffffffff\n      and\n      dup2\n      mstore\n      0x20\n      add\n      swap1\n      dup2\n      mstore\n      0x20\n      add\n      0x00\n      keccak256\n      0x00\n      swap1\n      sload\n      swap1\n      0x0100\n      exp\n      swap1\n      div\n      0xff\n      and\n        /* \"contracts/healthcare/Patient.sol\":9498:9518  !doctors[msg.sender] */\n      iszero\n        /* \"contracts/healthcare/Patient.sol\":9438:9518  msg.sender != record_mapping[_unique_id].patient_address && !doctors[msg.sender] */\n    tag_222:\n        /* \"contracts/healthcare/Patient.sol\":9438:9540  msg.sender != record_mapping[_unique_id].patient_address && !doctors[msg.sender] &&!audits[msg.sender] */\n      dup1\n      iszero\n      tag_223\n      jumpi\n      pop\n        /* \"contracts/healthcare/Patient.sol\":9522:9528  audits */\n      0x0c\n        /* \"contracts/healthcare/Patient.sol\":9522:9540  audits[msg.sender] */\n      0x00\n        /* \"contracts/healthcare/Patient.sol\":9529:9539  msg.sender */\n      caller\n        /* \"contracts/healthcare/Patient.sol\":9522:9540  audits[msg.sender] */\n      0xffffffffffffffffffffffffffffffffffffffff\n      and\n      0xffffffffffffffffffffffffffffffffffffffff\n      and\n      dup2\n      mstore\n      0x20\n      add\n      swap1\n      dup2\n      mstore\n      0x20\n      add\n      0x00\n      keccak256\n      0x00\n      swap1\n      sload\n      swap1\n      0x0100\n      exp\n      swap1\n      div\n      0xff\n      and\n        /* \"contracts/healthcare/Patient.sol\":9521:9540  !audits[msg.sender] */\n      iszero\n        /* \"contracts/healthcare/Patient.sol\":9438:9540  msg.sender != record_mapping[_unique_id].patient_address && !doctors[msg.sender] &&!audits[msg.sender] */\n    tag_223:\n        /* \"contracts/healthcare/Patient.sol\":9435:9603  if(msg.sender != record_mapping[_unique_id].patient_address && !doctors[msg.sender] &&!audits[msg.sender]){... */\n      iszero\n      tag_224\n      jumpi\n        /* \"contracts/healthcare/Patient.sol\":9556:9591  return \"You have no authorization.\" */\n      mload(0x40)\n      dup1\n      0x40\n      add\n      0x40\n      mstore\n      dup1\n      0x1a\n      dup2\n      mstore\n      0x20\n      add\n      0x596f752068617665206e6f20617574686f72697a6174696f6e2e000000000000\n      dup2\n      mstore\n      pop\n      swap1\n      pop\n      jump(tag_219)\n        /* \"contracts/healthcare/Patient.sol\":9435:9603  if(msg.sender != record_mapping[_unique_id].patient_address && !doctors[msg.sender] &&!audits[msg.sender]){... */\n    tag_224:\n        /* \"contracts/healthcare/Patient.sol\":9665:9680  block.timestamp */\n      timestamp\n        /* \"contracts/healthcare/Patient.sol\":9624:9638  record_mapping */\n      0x0a\n        /* \"contracts/healthcare/Patient.sol\":9624:9650  record_mapping[_unique_id] */\n      0x00\n        /* \"contracts/healthcare/Patient.sol\":9639:9649  _unique_id */\n      dup5\n        /* \"contracts/healthcare/Patient.sol\":9624:9650  record_mapping[_unique_id] */\n      0xffffffffffffffffffffffffffffffffffffffff\n      and\n      0xffffffffffffffffffffffffffffffffffffffff\n      and\n      dup2\n      mstore\n      0x20\n      add\n      swap1\n      dup2\n      mstore\n      0x20\n      add\n      0x00\n      keccak256\n        /* \"contracts/healthcare/Patient.sol\":9624:9662  record_mapping[_unique_id].record_time */\n      0x06\n      add\n        /* \"contracts/healthcare/Patient.sol\":9624:9680  record_mapping[_unique_id].record_time = block.timestamp */\n      dup2\n      swap1\n      sstore\n      pop\n        /* \"contracts/healthcare/Patient.sol\":9736:9737  4 */\n      0x04\n        /* \"contracts/healthcare/Patient.sol\":9693:9707  record_mapping */\n      0x0a\n        /* \"contracts/healthcare/Patient.sol\":9693:9719  record_mapping[_unique_id] */\n      0x00\n        /* \"contracts/healthcare/Patient.sol\":9708:9718  _unique_id */\n      dup5\n        /* \"contracts/healthcare/Patient.sol\":9693:9719  record_mapping[_unique_id] */\n      0xffffffffffffffffffffffffffffffffffffffff\n      and\n      0xffffffffffffffffffffffffffffffffffffffff\n      and\n      dup2\n      mstore\n      0x20\n      add\n      swap1\n      dup2\n      mstore\n      0x20\n      add\n      0x00\n      keccak256\n        /* \"contracts/healthcare/Patient.sol\":9693:9733  record_mapping[_unique_id].record_status */\n      0x03\n      add\n        /* \"contracts/healthcare/Patient.sol\":9693:9737  record_mapping[_unique_id].record_status = 4 */\n      dup2\n      swap1\n      sstore\n      pop\n        /* \"contracts/healthcare/Patient.sol\":9748:9819  record_mapping[_unique_id].record_msg = \"Record is printed by patient.\" */\n      mload(0x40)\n      dup1\n      0x40\n      add\n      0x40\n      mstore\n      dup1\n      0x1d\n      dup2\n      mstore\n      0x20\n      add\n      0x5265636f7264206973207072696e7465642062792070617469656e742e000000\n      dup2\n      mstore\n      pop\n        /* \"contracts/healthcare/Patient.sol\":9748:9762  record_mapping */\n      0x0a\n        /* \"contracts/healthcare/Patient.sol\":9748:9774  record_mapping[_unique_id] */\n      0x00\n        /* \"contracts/healthcare/Patient.sol\":9763:9773  _unique_id */\n      dup5\n        /* \"contracts/healthcare/Patient.sol\":9748:9774  record_mapping[_unique_id] */\n      0xffffffffffffffffffffffffffffffffffffffff\n      and\n      0xffffffffffffffffffffffffffffffffffffffff\n      and\n      dup2\n      mstore\n      0x20\n      add\n      swap1\n      dup2\n      mstore\n      0x20\n      add\n      0x00\n      keccak256\n        /* \"contracts/healthcare/Patient.sol\":9748:9785  record_mapping[_unique_id].record_msg */\n      0x02\n      add\n        /* \"contracts/healthcare/Patient.sol\":9748:9819  record_mapping[_unique_id].record_msg = \"Record is printed by patient.\" */\n      swap1\n      dup2\n      tag_225\n      swap2\n      swap1\n      tag_142\n      jump\t// in\n    tag_225:\n      pop\n        /* \"contracts/healthcare/Patient.sol\":9845:10035  event_patient_print(... */\n      0xddaa844cc6ae769766c27824c8e5c94b60683cee90d23f0a99f33b2b243a1fde\n        /* \"contracts/healthcare/Patient.sol\":9879:9893  record_mapping */\n      0x0a\n        /* \"contracts/healthcare/Patient.sol\":9879:9905  record_mapping[_unique_id] */\n      0x00\n        /* \"contracts/healthcare/Patient.sol\":9894:9904  _unique_id */\n      dup5\n        /* \"contracts/healthcare/Patient.sol\":9879:9905  record_mapping[_unique_id] */\n      0xffffffffffffffffffffffffffffffffffffffff\n      and\n      0xffffffffffffffffffffffffffffffffffffffff\n      and\n      dup2\n      mstore\n      0x20\n      add\n      swap1\n      dup2\n      mstore\n      0x20\n      add\n      0x00\n      keccak256\n        /* \"contracts/healthcare/Patient.sol\":9879:9916  record_mapping[_unique_id].record_msg */\n      0x02\n      add\n        /* \"contracts/healthcare/Patient.sol\":9931:9945  record_mapping */\n      0x0a\n        /* \"contracts/healthcare/Patient.sol\":9931:9957  record_mapping[_unique_id] */\n      0x00\n        /* \"contracts/healthcare/Patient.sol\":9946:9956  _unique_id */\n      dup6\n        /* \"contracts/healthcare/Patient.sol\":9931:9957  record_mapping[_unique_id] */\n      0xffffffffffffffffffffffffffffffffffffffff\n      and\n      0xffffffffffffffffffffffffffffffffffffffff\n      and\n      dup2\n      mstore\n      0x20\n      add\n      swap1\n      dup2\n      mstore\n      0x20\n      add\n      0x00\n      keccak256\n        /* \"contracts/healthcare/Patient.sol\":9931:9971  record_mapping[_unique_id].record_status */\n      0x03\n      add\n      sload\n        /* \"contracts/healthcare/Patient.sol\":9986:10000  record_mapping */\n      0x0a\n        /* \"contracts/healthcare/Patient.sol\":9986:10012  record_mapping[_unique_id] */\n      0x00\n        /* \"contracts/healthcare/Patient.sol\":10001:10011  _unique_id */\n      dup7\n        /* \"contracts/healthcare/Patient.sol\":9986:10012  record_mapping[_unique_id] */\n      0xffffffffffffffffffffffffffffffffffffffff\n      and\n      0xffffffffffffffffffffffffffffffffffffffff\n      and\n      dup2\n      mstore\n      0x20\n      add\n      swap1\n      dup2\n      mstore\n      0x20\n      add\n      0x00\n      keccak256\n        /* \"contracts/healthcare/Patient.sol\":9986:10024  record_mapping[_unique_id].record_time */\n      0x06\n      add\n      sload\n        /* \"contracts/healthcare/Patient.sol\":9845:10035  event_patient_print(... */\n      mload(0x40)\n      tag_226\n      swap4\n      swap3\n      swap2\n      swap1\n      tag_145\n      jump\t// in\n    tag_226:\n      mload(0x40)\n      dup1\n      swap2\n      sub\n      swap1\n      log1\n        /* \"contracts/healthcare/Patient.sol\":10046:10084  return \"Record is printed by patient.\" */\n      mload(0x40)\n      dup1\n      0x40\n      add\n      0x40\n      mstore\n      dup1\n      0x1d\n      dup2\n      mstore\n      0x20\n      add\n      0x5265636f7264206973207072696e7465642062792070617469656e742e000000\n      dup2\n      mstore\n      pop\n      swap1\n      pop\n        /* \"contracts/healthcare/Patient.sol\":9215:10092  function print_record(address _unique_id) public returns (string memory ){... */\n    tag_219:\n      swap2\n      swap1\n      pop\n      jump\t// out\n        /* \"contracts/healthcare/Patient.sol\":5044:5371  function getUniqueID(address _unique_id) public view returns (bool, uint256, string memory, uint) {... */\n    tag_96:\n        /* \"contracts/healthcare/Patient.sol\":5106:5110  bool */\n      0x00\n        /* \"contracts/healthcare/Patient.sol\":5112:5119  uint256 */\n      0x00\n        /* \"contracts/healthcare/Patient.sol\":5121:5134  string memory */\n      0x60\n        /* \"contracts/healthcare/Patient.sol\":5136:5140  uint */\n      0x00\n        /* \"contracts/healthcare/Patient.sol\":5167:5181  record_mapping */\n      0x0a\n        /* \"contracts/healthcare/Patient.sol\":5167:5193  record_mapping[_unique_id] */\n      0x00\n        /* \"contracts/healthcare/Patient.sol\":5182:5192  _unique_id */\n      dup7\n        /* \"contracts/healthcare/Patient.sol\":5167:5193  record_mapping[_unique_id] */\n      0xffffffffffffffffffffffffffffffffffffffff\n      and\n      0xffffffffffffffffffffffffffffffffffffffff\n      and\n      dup2\n      mstore\n      0x20\n      add\n      swap1\n      dup2\n      mstore\n      0x20\n      add\n      0x00\n      keccak256\n        /* \"contracts/healthcare/Patient.sol\":5167:5210  record_mapping[_unique_id].is_uid_generated */\n      0x00\n      add\n      0x00\n      swap1\n      sload\n      swap1\n      0x0100\n      exp\n      swap1\n      div\n      0xff\n      and\n        /* \"contracts/healthcare/Patient.sol\":5221:5235  record_mapping */\n      0x0a\n        /* \"contracts/healthcare/Patient.sol\":5221:5247  record_mapping[_unique_id] */\n      0x00\n        /* \"contracts/healthcare/Patient.sol\":5236:5246  _unique_id */\n      dup8\n        /* \"contracts/healthcare/Patient.sol\":5221:5247  record_mapping[_unique_id] */\n      0xffffffffffffffffffffffffffffffffffffffff\n      and\n      0xffffffffffffffffffffffffffffffffffffffff\n      and\n      dup2\n      mstore\n      0x20\n      add\n      swap1\n      dup2\n      mstore\n      0x20\n      add\n      0x00\n      keccak256\n        /* \"contracts/healthcare/Patient.sol\":5221:5257  record_mapping[_unique_id].record_id */\n      0x01\n      add\n      sload\n        /* \"contracts/healthcare/Patient.sol\":5268:5282  record_mapping */\n      0x0a\n        /* \"contracts/healthcare/Patient.sol\":5268:5294  record_mapping[_unique_id] */\n      0x00\n        /* \"contracts/healthcare/Patient.sol\":5283:5293  _unique_id */\n      dup9\n        /* \"contracts/healthcare/Patient.sol\":5268:5294  record_mapping[_unique_id] */\n      0xffffffffffffffffffffffffffffffffffffffff\n      and\n      0xffffffffffffffffffffffffffffffffffffffff\n      and\n      dup2\n      mstore\n      0x20\n      add\n      swap1\n      dup2\n      mstore\n      0x20\n      add\n      0x00\n      keccak256\n        /* \"contracts/healthcare/Patient.sol\":5268:5305  record_mapping[_unique_id].record_msg */\n      0x02\n      add\n        /* \"contracts/healthcare/Patient.sol\":5316:5330  record_mapping */\n      0x0a\n        /* \"contracts/healthcare/Patient.sol\":5316:5342  record_mapping[_unique_id] */\n      0x00\n        /* \"contracts/healthcare/Patient.sol\":5331:5341  _unique_id */\n      dup10\n        /* \"contracts/healthcare/Patient.sol\":5316:5342  record_mapping[_unique_id] */\n      0xffffffffffffffffffffffffffffffffffffffff\n      and\n      0xffffffffffffffffffffffffffffffffffffffff\n      and\n      dup2\n      mstore\n      0x20\n      add\n      swap1\n      dup2\n      mstore\n      0x20\n      add\n      0x00\n      keccak256\n        /* \"contracts/healthcare/Patient.sol\":5316:5356  record_mapping[_unique_id].record_status */\n      0x03\n      add\n      sload\n        /* \"contracts/healthcare/Patient.sol\":5149:5363  return (... */\n      dup2\n      dup1\n      sload\n      tag_228\n      swap1\n      tag_105\n      jump\t// in\n    tag_228:\n      dup1\n      0x1f\n      add\n      0x20\n      dup1\n      swap2\n      div\n      mul\n      0x20\n      add\n      mload(0x40)\n      swap1\n      dup2\n      add\n      0x40\n      mstore\n      dup1\n      swap3\n      swap2\n      swap1\n      dup2\n      dup2\n      mstore\n      0x20\n      add\n      dup3\n      dup1\n      sload\n      tag_229\n      swap1\n      tag_105\n      jump\t// in\n    tag_229:\n      dup1\n      iszero\n      tag_230\n      jumpi\n      dup1\n      0x1f\n      lt\n      tag_231\n      jumpi\n      0x0100\n      dup1\n      dup4\n      sload\n      div\n      mul\n      dup4\n      mstore\n      swap2\n      0x20\n      add\n      swap2\n      jump(tag_230)\n    tag_231:\n      dup3\n      add\n      swap2\n      swap1\n      0x00\n      mstore\n      keccak256(0x00, 0x20)\n      swap1\n    tag_232:\n      dup2\n      sload\n      dup2\n      mstore\n      swap1\n      0x01\n      add\n      swap1\n      0x20\n      add\n      dup1\n      dup4\n      gt\n      tag_232\n      jumpi\n      dup3\n      swap1\n      sub\n      0x1f\n      and\n      dup3\n      add\n      swap2\n    tag_230:\n      pop\n      pop\n      pop\n      pop\n      pop\n      swap2\n      pop\n      swap4\n      pop\n      swap4\n      pop\n      swap4\n      pop\n      swap4\n      pop\n        /* \"contracts/healthcare/Patient.sol\":5044:5371  function getUniqueID(address _unique_id) public view returns (bool, uint256, string memory, uint) {... */\n      swap2\n      swap4\n      pop\n      swap2\n      swap4\n      jump\t// out\n        /* \"#utility.yul\":7:82   */\n    tag_233:\n        /* \"#utility.yul\":40:46   */\n      0x00\n        /* \"#utility.yul\":73:75   */\n      0x40\n        /* \"#utility.yul\":67:76   */\n      mload\n        /* \"#utility.yul\":57:76   */\n      swap1\n      pop\n        /* \"#utility.yul\":7:82   */\n      swap1\n      jump\t// out\n        /* \"#utility.yul\":88:205   */\n    tag_234:\n        /* \"#utility.yul\":197:198   */\n      0x00\n        /* \"#utility.yul\":194:195   */\n      0x00\n        /* \"#utility.yul\":187:199   */\n      revert\n        /* \"#utility.yul\":211:328   */\n    tag_235:\n        /* \"#utility.yul\":320:321   */\n      0x00\n        /* \"#utility.yul\":317:318   */\n      0x00\n        /* \"#utility.yul\":310:322   */\n      revert\n        /* \"#utility.yul\":334:460   */\n    tag_236:\n        /* \"#utility.yul\":371:378   */\n      0x00\n        /* \"#utility.yul\":411:453   */\n      0xffffffffffffffffffffffffffffffffffffffff\n        /* \"#utility.yul\":404:409   */\n      dup3\n        /* \"#utility.yul\":400:454   */\n      and\n        /* \"#utility.yul\":389:454   */\n      swap1\n      pop\n        /* \"#utility.yul\":334:460   */\n      swap2\n      swap1\n      pop\n      jump\t// out\n        /* \"#utility.yul\":466:562   */\n    tag_237:\n        /* \"#utility.yul\":503:510   */\n      0x00\n        /* \"#utility.yul\":532:556   */\n      tag_306\n        /* \"#utility.yul\":550:555   */\n      dup3\n        /* \"#utility.yul\":532:556   */\n      tag_236\n      jump\t// in\n    tag_306:\n        /* \"#utility.yul\":521:556   */\n      swap1\n      pop\n        /* \"#utility.yul\":466:562   */\n      swap2\n      swap1\n      pop\n      jump\t// out\n        /* \"#utility.yul\":568:690   */\n    tag_238:\n        /* \"#utility.yul\":641:665   */\n      tag_308\n        /* \"#utility.yul\":659:664   */\n      dup2\n        /* \"#utility.yul\":641:665   */\n      tag_237\n      jump\t// in\n    tag_308:\n        /* \"#utility.yul\":634:639   */\n      dup2\n        /* \"#utility.yul\":631:666   */\n      eq\n        /* \"#utility.yul\":621:684   */\n      tag_309\n      jumpi\n        /* \"#utility.yul\":680:681   */\n      0x00\n        /* \"#utility.yul\":677:678   */\n      0x00\n        /* \"#utility.yul\":670:682   */\n      revert\n        /* \"#utility.yul\":621:684   */\n    tag_309:\n        /* \"#utility.yul\":568:690   */\n      pop\n      jump\t// out\n        /* \"#utility.yul\":696:835   */\n    tag_239:\n        /* \"#utility.yul\":742:747   */\n      0x00\n        /* \"#utility.yul\":780:786   */\n      dup2\n        /* \"#utility.yul\":767:787   */\n      calldataload\n        /* \"#utility.yul\":758:787   */\n      swap1\n      pop\n        /* \"#utility.yul\":796:829   */\n      tag_311\n        /* \"#utility.yul\":823:828   */\n      dup2\n        /* \"#utility.yul\":796:829   */\n      tag_238\n      jump\t// in\n    tag_311:\n        /* \"#utility.yul\":696:835   */\n      swap3\n      swap2\n      pop\n      pop\n      jump\t// out\n        /* \"#utility.yul\":841:1170   */\n    tag_25:\n        /* \"#utility.yul\":900:906   */\n      0x00\n        /* \"#utility.yul\":949:951   */\n      0x20\n        /* \"#utility.yul\":937:946   */\n      dup3\n        /* \"#utility.yul\":928:935   */\n      dup5\n        /* \"#utility.yul\":924:947   */\n      sub\n        /* \"#utility.yul\":920:952   */\n      slt\n        /* \"#utility.yul\":917:1036   */\n      iszero\n      tag_313\n      jumpi\n        /* \"#utility.yul\":955:1034   */\n      tag_314\n      tag_234\n      jump\t// in\n    tag_314:\n        /* \"#utility.yul\":917:1036   */\n    tag_313:\n        /* \"#utility.yul\":1075:1076   */\n      0x00\n        /* \"#utility.yul\":1100:1153   */\n      tag_315\n        /* \"#utility.yul\":1145:1152   */\n      dup5\n        /* \"#utility.yul\":1136:1142   */\n      dup3\n        /* \"#utility.yul\":1125:1134   */\n      dup6\n        /* \"#utility.yul\":1121:1143   */\n      add\n        /* \"#utility.yul\":1100:1153   */\n      tag_239\n      jump\t// in\n    tag_315:\n        /* \"#utility.yul\":1090:1153   */\n      swap2\n      pop\n        /* \"#utility.yul\":1046:1163   */\n      pop\n        /* \"#utility.yul\":841:1170   */\n      swap3\n      swap2\n      pop\n      pop\n      jump\t// out\n        /* \"#utility.yul\":1176:1275   */\n    tag_240:\n        /* \"#utility.yul\":1228:1234   */\n      0x00\n        /* \"#utility.yul\":1262:1267   */\n      dup2\n        /* \"#utility.yul\":1256:1268   */\n      mload\n        /* \"#utility.yul\":1246:1268   */\n      swap1\n      pop\n        /* \"#utility.yul\":1176:1275   */\n      swap2\n      swap1\n      pop\n      jump\t// out\n        /* \"#utility.yul\":1281:1450   */\n    tag_241:\n        /* \"#utility.yul\":1365:1376   */\n      0x00\n        /* \"#utility.yul\":1399:1405   */\n      dup3\n        /* \"#utility.yul\":1394:1397   */\n      dup3\n        /* \"#utility.yul\":1387:1406   */\n      mstore\n        /* \"#utility.yul\":1439:1443   */\n      0x20\n        /* \"#utility.yul\":1434:1437   */\n      dup3\n        /* \"#utility.yul\":1430:1444   */\n      add\n        /* \"#utility.yul\":1415:1444   */\n      swap1\n      pop\n        /* \"#utility.yul\":1281:1450   */\n      swap3\n      swap2\n      pop\n      pop\n      jump\t// out\n        /* \"#utility.yul\":1456:1595   */\n    tag_242:\n        /* \"#utility.yul\":1545:1551   */\n      dup3\n        /* \"#utility.yul\":1540:1543   */\n      dup2\n        /* \"#utility.yul\":1535:1538   */\n      dup4\n        /* \"#utility.yul\":1529:1552   */\n      mcopy\n        /* \"#utility.yul\":1586:1587   */\n      0x00\n        /* \"#utility.yul\":1577:1583   */\n      dup4\n        /* \"#utility.yul\":1572:1575   */\n      dup4\n        /* \"#utility.yul\":1568:1584   */\n      add\n        /* \"#utility.yul\":1561:1588   */\n      mstore\n        /* \"#utility.yul\":1456:1595   */\n      pop\n      pop\n      pop\n      jump\t// out\n        /* \"#utility.yul\":1601:1703   */\n    tag_243:\n        /* \"#utility.yul\":1642:1648   */\n      0x00\n        /* \"#utility.yul\":1693:1695   */\n      0x1f\n        /* \"#utility.yul\":1689:1696   */\n      not\n        /* \"#utility.yul\":1684:1686   */\n      0x1f\n        /* \"#utility.yul\":1677:1682   */\n      dup4\n        /* \"#utility.yul\":1673:1687   */\n      add\n        /* \"#utility.yul\":1669:1697   */\n      and\n        /* \"#utility.yul\":1659:1697   */\n      swap1\n      pop\n        /* \"#utility.yul\":1601:1703   */\n      swap2\n      swap1\n      pop\n      jump\t// out\n        /* \"#utility.yul\":1709:2086   */\n    tag_244:\n        /* \"#utility.yul\":1797:1800   */\n      0x00\n        /* \"#utility.yul\":1825:1864   */\n      tag_321\n        /* \"#utility.yul\":1858:1863   */\n      dup3\n        /* \"#utility.yul\":1825:1864   */\n      tag_240\n      jump\t// in\n    tag_321:\n        /* \"#utility.yul\":1880:1951   */\n      tag_322\n        /* \"#utility.yul\":1944:1950   */\n      dup2\n        /* \"#utility.yul\":1939:1942   */\n      dup6\n        /* \"#utility.yul\":1880:1951   */\n      tag_241\n      jump\t// in\n    tag_322:\n        /* \"#utility.yul\":1873:1951   */\n      swap4\n      pop\n        /* \"#utility.yul\":1960:2025   */\n      tag_323\n        /* \"#utility.yul\":2018:2024   */\n      dup2\n        /* \"#utility.yul\":2013:2016   */\n      dup6\n        /* \"#utility.yul\":2006:2010   */\n      0x20\n        /* \"#utility.yul\":1999:2004   */\n      dup7\n        /* \"#utility.yul\":1995:2011   */\n      add\n        /* \"#utility.yul\":1960:2025   */\n      tag_242\n      jump\t// in\n    tag_323:\n        /* \"#utility.yul\":2050:2079   */\n      tag_324\n        /* \"#utility.yul\":2072:2078   */\n      dup2\n        /* \"#utility.yul\":2050:2079   */\n      tag_243\n      jump\t// in\n    tag_324:\n        /* \"#utility.yul\":2045:2048   */\n      dup5\n        /* \"#utility.yul\":2041:2080   */\n      add\n        /* \"#utility.yul\":2034:2080   */\n      swap2\n      pop\n        /* \"#utility.yul\":1801:2086   */\n      pop\n        /* \"#utility.yul\":1709:2086   */\n      swap3\n      swap2\n      pop\n      pop\n      jump\t// out\n        /* \"#utility.yul\":2092:2405   */\n    tag_28:\n        /* \"#utility.yul\":2205:2209   */\n      0x00\n        /* \"#utility.yul\":2243:2245   */\n      0x20\n        /* \"#utility.yul\":2232:2241   */\n      dup3\n        /* \"#utility.yul\":2228:2246   */\n      add\n        /* \"#utility.yul\":2220:2246   */\n      swap1\n      pop\n        /* \"#utility.yul\":2292:2301   */\n      dup2\n        /* \"#utility.yul\":2286:2290   */\n      dup2\n        /* \"#utility.yul\":2282:2302   */\n      sub\n        /* \"#utility.yul\":2278:2279   */\n      0x00\n        /* \"#utility.yul\":2267:2276   */\n      dup4\n        /* \"#utility.yul\":2263:2280   */\n      add\n        /* \"#utility.yul\":2256:2303   */\n      mstore\n        /* \"#utility.yul\":2320:2398   */\n      tag_326\n        /* \"#utility.yul\":2393:2397   */\n      dup2\n        /* \"#utility.yul\":2384:2390   */\n      dup5\n        /* \"#utility.yul\":2320:2398   */\n      tag_244\n      jump\t// in\n    tag_326:\n        /* \"#utility.yul\":2312:2398   */\n      swap1\n      pop\n        /* \"#utility.yul\":2092:2405   */\n      swap3\n      swap2\n      pop\n      pop\n      jump\t// out\n        /* \"#utility.yul\":2411:2501   */\n    tag_245:\n        /* \"#utility.yul\":2445:2452   */\n      0x00\n        /* \"#utility.yul\":2488:2493   */\n      dup2\n        /* \"#utility.yul\":2481:2494   */\n      iszero\n        /* \"#utility.yul\":2474:2495   */\n      iszero\n        /* \"#utility.yul\":2463:2495   */\n      swap1\n      pop\n        /* \"#utility.yul\":2411:2501   */\n      swap2\n      swap1\n      pop\n      jump\t// out\n        /* \"#utility.yul\":2507:2616   */\n    tag_246:\n        /* \"#utility.yul\":2588:2609   */\n      tag_329\n        /* \"#utility.yul\":2603:2608   */\n      dup2\n        /* \"#utility.yul\":2588:2609   */\n      tag_245\n      jump\t// in\n    tag_329:\n        /* \"#utility.yul\":2583:2586   */\n      dup3\n        /* \"#utility.yul\":2576:2610   */\n      mstore\n        /* \"#utility.yul\":2507:2616   */\n      pop\n      pop\n      jump\t// out\n        /* \"#utility.yul\":2622:2699   */\n    tag_247:\n        /* \"#utility.yul\":2659:2666   */\n      0x00\n        /* \"#utility.yul\":2688:2693   */\n      dup2\n        /* \"#utility.yul\":2677:2693   */\n      swap1\n      pop\n        /* \"#utility.yul\":2622:2699   */\n      swap2\n      swap1\n      pop\n      jump\t// out\n        /* \"#utility.yul\":2705:2823   */\n    tag_248:\n        /* \"#utility.yul\":2792:2816   */\n      tag_332\n        /* \"#utility.yul\":2810:2815   */\n      dup2\n        /* \"#utility.yul\":2792:2816   */\n      tag_247\n      jump\t// in\n    tag_332:\n        /* \"#utility.yul\":2787:2790   */\n      dup3\n        /* \"#utility.yul\":2780:2817   */\n      mstore\n        /* \"#utility.yul\":2705:2823   */\n      pop\n      pop\n      jump\t// out\n        /* \"#utility.yul\":2829:2947   */\n    tag_249:\n        /* \"#utility.yul\":2916:2940   */\n      tag_334\n        /* \"#utility.yul\":2934:2939   */\n      dup2\n        /* \"#utility.yul\":2916:2940   */\n      tag_237\n      jump\t// in\n    tag_334:\n        /* \"#utility.yul\":2911:2914   */\n      dup3\n        /* \"#utility.yul\":2904:2941   */\n      mstore\n        /* \"#utility.yul\":2829:2947   */\n      pop\n      pop\n      jump\t// out\n        /* \"#utility.yul\":2953:4455   */\n    tag_33:\n        /* \"#utility.yul\":3361:3365   */\n      0x00\n        /* \"#utility.yul\":3399:3402   */\n      0x0160\n        /* \"#utility.yul\":3388:3397   */\n      dup3\n        /* \"#utility.yul\":3384:3403   */\n      add\n        /* \"#utility.yul\":3376:3403   */\n      swap1\n      pop\n        /* \"#utility.yul\":3413:3478   */\n      tag_336\n        /* \"#utility.yul\":3475:3476   */\n      0x00\n        /* \"#utility.yul\":3464:3473   */\n      dup4\n        /* \"#utility.yul\":3460:3477   */\n      add\n        /* \"#utility.yul\":3451:3457   */\n      dup15\n        /* \"#utility.yul\":3413:3478   */\n      tag_246\n      jump\t// in\n    tag_336:\n        /* \"#utility.yul\":3488:3560   */\n      tag_337\n        /* \"#utility.yul\":3556:3558   */\n      0x20\n        /* \"#utility.yul\":3545:3554   */\n      dup4\n        /* \"#utility.yul\":3541:3559   */\n      add\n        /* \"#utility.yul\":3532:3538   */\n      dup14\n        /* \"#utility.yul\":3488:3560   */\n      tag_248\n      jump\t// in\n    tag_337:\n        /* \"#utility.yul\":3607:3616   */\n      dup2\n        /* \"#utility.yul\":3601:3605   */\n      dup2\n        /* \"#utility.yul\":3597:3617   */\n      sub\n        /* \"#utility.yul\":3592:3594   */\n      0x40\n        /* \"#utility.yul\":3581:3590   */\n      dup4\n        /* \"#utility.yul\":3577:3595   */\n      add\n        /* \"#utility.yul\":3570:3618   */\n      mstore\n        /* \"#utility.yul\":3635:3713   */\n      tag_338\n        /* \"#utility.yul\":3708:3712   */\n      dup2\n        /* \"#utility.yul\":3699:3705   */\n      dup13\n        /* \"#utility.yul\":3635:3713   */\n      tag_244\n      jump\t// in\n    tag_338:\n        /* \"#utility.yul\":3627:3713   */\n      swap1\n      pop\n        /* \"#utility.yul\":3723:3795   */\n      tag_339\n        /* \"#utility.yul\":3791:3793   */\n      0x60\n        /* \"#utility.yul\":3780:3789   */\n      dup4\n        /* \"#utility.yul\":3776:3794   */\n      add\n        /* \"#utility.yul\":3767:3773   */\n      dup12\n        /* \"#utility.yul\":3723:3795   */\n      tag_248\n      jump\t// in\n    tag_339:\n        /* \"#utility.yul\":3843:3852   */\n      dup2\n        /* \"#utility.yul\":3837:3841   */\n      dup2\n        /* \"#utility.yul\":3833:3853   */\n      sub\n        /* \"#utility.yul\":3827:3830   */\n      0x80\n        /* \"#utility.yul\":3816:3825   */\n      dup4\n        /* \"#utility.yul\":3812:3831   */\n      add\n        /* \"#utility.yul\":3805:3854   */\n      mstore\n        /* \"#utility.yul\":3871:3949   */\n      tag_340\n        /* \"#utility.yul\":3944:3948   */\n      dup2\n        /* \"#utility.yul\":3935:3941   */\n      dup11\n        /* \"#utility.yul\":3871:3949   */\n      tag_244\n      jump\t// in\n    tag_340:\n        /* \"#utility.yul\":3863:3949   */\n      swap1\n      pop\n        /* \"#utility.yul\":3959:4032   */\n      tag_341\n        /* \"#utility.yul\":4027:4030   */\n      0xa0\n        /* \"#utility.yul\":4016:4025   */\n      dup4\n        /* \"#utility.yul\":4012:4031   */\n      add\n        /* \"#utility.yul\":4003:4009   */\n      dup10\n        /* \"#utility.yul\":3959:4032   */\n      tag_249\n      jump\t// in\n    tag_341:\n        /* \"#utility.yul\":4042:4115   */\n      tag_342\n        /* \"#utility.yul\":4110:4113   */\n      0xc0\n        /* \"#utility.yul\":4099:4108   */\n      dup4\n        /* \"#utility.yul\":4095:4114   */\n      add\n        /* \"#utility.yul\":4086:4092   */\n      dup9\n        /* \"#utility.yul\":4042:4115   */\n      tag_248\n      jump\t// in\n    tag_342:\n        /* \"#utility.yul\":4125:4198   */\n      tag_343\n        /* \"#utility.yul\":4193:4196   */\n      0xe0\n        /* \"#utility.yul\":4182:4191   */\n      dup4\n        /* \"#utility.yul\":4178:4197   */\n      add\n        /* \"#utility.yul\":4169:4175   */\n      dup8\n        /* \"#utility.yul\":4125:4198   */\n      tag_249\n      jump\t// in\n    tag_343:\n        /* \"#utility.yul\":4208:4281   */\n      tag_344\n        /* \"#utility.yul\":4276:4279   */\n      0x0100\n        /* \"#utility.yul\":4265:4274   */\n      dup4\n        /* \"#utility.yul\":4261:4280   */\n      add\n        /* \"#utility.yul\":4252:4258   */\n      dup7\n        /* \"#utility.yul\":4208:4281   */\n      tag_248\n      jump\t// in\n    tag_344:\n        /* \"#utility.yul\":4291:4364   */\n      tag_345\n        /* \"#utility.yul\":4359:4362   */\n      0x0120\n        /* \"#utility.yul\":4348:4357   */\n      dup4\n        /* \"#utility.yul\":4344:4363   */\n      add\n        /* \"#utility.yul\":4335:4341   */\n      dup6\n        /* \"#utility.yul\":4291:4364   */\n      tag_249\n      jump\t// in\n    tag_345:\n        /* \"#utility.yul\":4374:4448   */\n      tag_346\n        /* \"#utility.yul\":4443:4446   */\n      0x0140\n        /* \"#utility.yul\":4432:4441   */\n      dup4\n        /* \"#utility.yul\":4428:4447   */\n      add\n        /* \"#utility.yul\":4418:4425   */\n      dup5\n        /* \"#utility.yul\":4374:4448   */\n      tag_248\n      jump\t// in\n    tag_346:\n        /* \"#utility.yul\":2953:4455   */\n      swap13\n      swap12\n      pop\n      pop\n      pop\n      pop\n      pop\n      pop\n      pop\n      pop\n      pop\n      pop\n      pop\n      pop\n      jump\t// out\n        /* \"#utility.yul\":4461:4578   */\n    tag_250:\n        /* \"#utility.yul\":4570:4571   */\n      0x00\n        /* \"#utility.yul\":4567:4568   */\n      0x00\n        /* \"#utility.yul\":4560:4572   */\n      revert\n        /* \"#utility.yul\":4584:4701   */\n    tag_251:\n        /* \"#utility.yul\":4693:4694   */\n      0x00\n        /* \"#utility.yul\":4690:4691   */\n      0x00\n        /* \"#utility.yul\":4683:4695   */\n      revert\n        /* \"#utility.yul\":4707:4887   */\n    tag_252:\n        /* \"#utility.yul\":4755:4832   */\n      0x4e487b7100000000000000000000000000000000000000000000000000000000\n        /* \"#utility.yul\":4752:4753   */\n      0x00\n        /* \"#utility.yul\":4745:4833   */\n      mstore\n        /* \"#utility.yul\":4852:4856   */\n      0x41\n        /* \"#utility.yul\":4849:4850   */\n      0x04\n        /* \"#utility.yul\":4842:4857   */\n      mstore\n        /* \"#utility.yul\":4876:4880   */\n      0x24\n        /* \"#utility.yul\":4873:4874   */\n      0x00\n        /* \"#utility.yul\":4866:4881   */\n      revert\n        /* \"#utility.yul\":4893:5174   */\n    tag_253:\n        /* \"#utility.yul\":4976:5003   */\n      tag_351\n        /* \"#utility.yul\":4998:5002   */\n      dup3\n        /* \"#utility.yul\":4976:5003   */\n      tag_243\n      jump\t// in\n    tag_351:\n        /* \"#utility.yul\":4968:4974   */\n      dup2\n        /* \"#utility.yul\":4964:5004   */\n      add\n        /* \"#utility.yul\":5106:5112   */\n      dup2\n        /* \"#utility.yul\":5094:5104   */\n      dup2\n        /* \"#utility.yul\":5091:5113   */\n      lt\n        /* \"#utility.yul\":5070:5088   */\n      0xffffffffffffffff\n        /* \"#utility.yul\":5058:5068   */\n      dup3\n        /* \"#utility.yul\":5055:5089   */\n      gt\n        /* \"#utility.yul\":5052:5114   */\n      or\n        /* \"#utility.yul\":5049:5137   */\n      iszero\n      tag_352\n      jumpi\n        /* \"#utility.yul\":5117:5135   */\n      tag_353\n      tag_252\n      jump\t// in\n    tag_353:\n        /* \"#utility.yul\":5049:5137   */\n    tag_352:\n        /* \"#utility.yul\":5157:5167   */\n      dup1\n        /* \"#utility.yul\":5153:5155   */\n      0x40\n        /* \"#utility.yul\":5146:5168   */\n      mstore\n        /* \"#utility.yul\":4936:5174   */\n      pop\n        /* \"#utility.yul\":4893:5174   */\n      pop\n      pop\n      jump\t// out\n        /* \"#utility.yul\":5180:5309   */\n    tag_254:\n        /* \"#utility.yul\":5214:5220   */\n      0x00\n        /* \"#utility.yul\":5241:5261   */\n      tag_355\n      tag_233\n      jump\t// in\n    tag_355:\n        /* \"#utility.yul\":5231:5261   */\n      swap1\n      pop\n        /* \"#utility.yul\":5270:5303   */\n      tag_356\n        /* \"#utility.yul\":5298:5302   */\n      dup3\n        /* \"#utility.yul\":5290:5296   */\n      dup3\n        /* \"#utility.yul\":5270:5303   */\n      tag_253\n      jump\t// in\n    tag_356:\n        /* \"#utility.yul\":5180:5309   */\n      swap2\n      swap1\n      pop\n      jump\t// out\n        /* \"#utility.yul\":5315:5623   */\n    tag_255:\n        /* \"#utility.yul\":5377:5381   */\n      0x00\n        /* \"#utility.yul\":5467:5485   */\n      0xffffffffffffffff\n        /* \"#utility.yul\":5459:5465   */\n      dup3\n        /* \"#utility.yul\":5456:5486   */\n      gt\n        /* \"#utility.yul\":5453:5509   */\n      iszero\n      tag_358\n      jumpi\n        /* \"#utility.yul\":5489:5507   */\n      tag_359\n      tag_252\n      jump\t// in\n    tag_359:\n        /* \"#utility.yul\":5453:5509   */\n    tag_358:\n        /* \"#utility.yul\":5527:5556   */\n      tag_360\n        /* \"#utility.yul\":5549:5555   */\n      dup3\n        /* \"#utility.yul\":5527:5556   */\n      tag_243\n      jump\t// in\n    tag_360:\n        /* \"#utility.yul\":5519:5556   */\n      swap1\n      pop\n        /* \"#utility.yul\":5611:5615   */\n      0x20\n        /* \"#utility.yul\":5605:5609   */\n      dup2\n        /* \"#utility.yul\":5601:5616   */\n      add\n        /* \"#utility.yul\":5593:5616   */\n      swap1\n      pop\n        /* \"#utility.yul\":5315:5623   */\n      swap2\n      swap1\n      pop\n      jump\t// out\n        /* \"#utility.yul\":5629:5777   */\n    tag_256:\n        /* \"#utility.yul\":5727:5733   */\n      dup3\n        /* \"#utility.yul\":5722:5725   */\n      dup2\n        /* \"#utility.yul\":5717:5720   */\n      dup4\n        /* \"#utility.yul\":5704:5734   */\n      calldatacopy\n        /* \"#utility.yul\":5768:5769   */\n      0x00\n        /* \"#utility.yul\":5759:5765   */\n      dup4\n        /* \"#utility.yul\":5754:5757   */\n      dup4\n        /* \"#utility.yul\":5750:5766   */\n      add\n        /* \"#utility.yul\":5743:5770   */\n      mstore\n        /* \"#utility.yul\":5629:5777   */\n      pop\n      pop\n      pop\n      jump\t// out\n        /* \"#utility.yul\":5783:6208   */\n    tag_257:\n        /* \"#utility.yul\":5861:5866   */\n      0x00\n        /* \"#utility.yul\":5886:5952   */\n      tag_363\n        /* \"#utility.yul\":5902:5951   */\n      tag_364\n        /* \"#utility.yul\":5944:5950   */\n      dup5\n        /* \"#utility.yul\":5902:5951   */\n      tag_255\n      jump\t// in\n    tag_364:\n        /* \"#utility.yul\":5886:5952   */\n      tag_254\n      jump\t// in\n    tag_363:\n        /* \"#utility.yul\":5877:5952   */\n      swap1\n      pop\n        /* \"#utility.yul\":5975:5981   */\n      dup3\n        /* \"#utility.yul\":5968:5973   */\n      dup2\n        /* \"#utility.yul\":5961:5982   */\n      mstore\n        /* \"#utility.yul\":6013:6017   */\n      0x20\n        /* \"#utility.yul\":6006:6011   */\n      dup2\n        /* \"#utility.yul\":6002:6018   */\n      add\n        /* \"#utility.yul\":6051:6054   */\n      dup5\n        /* \"#utility.yul\":6042:6048   */\n      dup5\n        /* \"#utility.yul\":6037:6040   */\n      dup5\n        /* \"#utility.yul\":6033:6049   */\n      add\n        /* \"#utility.yul\":6030:6055   */\n      gt\n        /* \"#utility.yul\":6027:6139   */\n      iszero\n      tag_365\n      jumpi\n        /* \"#utility.yul\":6058:6137   */\n      tag_366\n      tag_251\n      jump\t// in\n    tag_366:\n        /* \"#utility.yul\":6027:6139   */\n    tag_365:\n        /* \"#utility.yul\":6148:6202   */\n      tag_367\n        /* \"#utility.yul\":6195:6201   */\n      dup5\n        /* \"#utility.yul\":6190:6193   */\n      dup3\n        /* \"#utility.yul\":6185:6188   */\n      dup6\n        /* \"#utility.yul\":6148:6202   */\n      tag_256\n      jump\t// in\n    tag_367:\n        /* \"#utility.yul\":5867:6208   */\n      pop\n        /* \"#utility.yul\":5783:6208   */\n      swap4\n      swap3\n      pop\n      pop\n      pop\n      jump\t// out\n        /* \"#utility.yul\":6228:6568   */\n    tag_258:\n        /* \"#utility.yul\":6284:6289   */\n      0x00\n        /* \"#utility.yul\":6333:6336   */\n      dup3\n        /* \"#utility.yul\":6326:6330   */\n      0x1f\n        /* \"#utility.yul\":6318:6324   */\n      dup4\n        /* \"#utility.yul\":6314:6331   */\n      add\n        /* \"#utility.yul\":6310:6337   */\n      slt\n        /* \"#utility.yul\":6300:6422   */\n      tag_369\n      jumpi\n        /* \"#utility.yul\":6341:6420   */\n      tag_370\n      tag_250\n      jump\t// in\n    tag_370:\n        /* \"#utility.yul\":6300:6422   */\n    tag_369:\n        /* \"#utility.yul\":6458:6464   */\n      dup2\n        /* \"#utility.yul\":6445:6465   */\n      calldataload\n        /* \"#utility.yul\":6483:6562   */\n      tag_371\n        /* \"#utility.yul\":6558:6561   */\n      dup5\n        /* \"#utility.yul\":6550:6556   */\n      dup3\n        /* \"#utility.yul\":6543:6547   */\n      0x20\n        /* \"#utility.yul\":6535:6541   */\n      dup7\n        /* \"#utility.yul\":6531:6548   */\n      add\n        /* \"#utility.yul\":6483:6562   */\n      tag_257\n      jump\t// in\n    tag_371:\n        /* \"#utility.yul\":6474:6562   */\n      swap2\n      pop\n        /* \"#utility.yul\":6290:6568   */\n      pop\n        /* \"#utility.yul\":6228:6568   */\n      swap3\n      swap2\n      pop\n      pop\n      jump\t// out\n        /* \"#utility.yul\":6574:7228   */\n    tag_48:\n        /* \"#utility.yul\":6652:6658   */\n      0x00\n        /* \"#utility.yul\":6660:6666   */\n      0x00\n        /* \"#utility.yul\":6709:6711   */\n      0x40\n        /* \"#utility.yul\":6697:6706   */\n      dup4\n        /* \"#utility.yul\":6688:6695   */\n      dup6\n        /* \"#utility.yul\":6684:6707   */\n      sub\n        /* \"#utility.yul\":6680:6712   */\n      slt\n        /* \"#utility.yul\":6677:6796   */\n      iszero\n      tag_373\n      jumpi\n        /* \"#utility.yul\":6715:6794   */\n      tag_374\n      tag_234\n      jump\t// in\n    tag_374:\n        /* \"#utility.yul\":6677:6796   */\n    tag_373:\n        /* \"#utility.yul\":6835:6836   */\n      0x00\n        /* \"#utility.yul\":6860:6913   */\n      tag_375\n        /* \"#utility.yul\":6905:6912   */\n      dup6\n        /* \"#utility.yul\":6896:6902   */\n      dup3\n        /* \"#utility.yul\":6885:6894   */\n      dup7\n        /* \"#utility.yul\":6881:6903   */\n      add\n        /* \"#utility.yul\":6860:6913   */\n      tag_239\n      jump\t// in\n    tag_375:\n        /* \"#utility.yul\":6850:6913   */\n      swap3\n      pop\n        /* \"#utility.yul\":6806:6923   */\n      pop\n        /* \"#utility.yul\":6990:6992   */\n      0x20\n        /* \"#utility.yul\":6979:6988   */\n      dup4\n        /* \"#utility.yul\":6975:6993   */\n      add\n        /* \"#utility.yul\":6962:6994   */\n      calldataload\n        /* \"#utility.yul\":7021:7039   */\n      0xffffffffffffffff\n        /* \"#utility.yul\":7013:7019   */\n      dup2\n        /* \"#utility.yul\":7010:7040   */\n      gt\n        /* \"#utility.yul\":7007:7124   */\n      iszero\n      tag_376\n      jumpi\n        /* \"#utility.yul\":7043:7122   */\n      tag_377\n      tag_235\n      jump\t// in\n    tag_377:\n        /* \"#utility.yul\":7007:7124   */\n    tag_376:\n        /* \"#utility.yul\":7148:7211   */\n      tag_378\n        /* \"#utility.yul\":7203:7210   */\n      dup6\n        /* \"#utility.yul\":7194:7200   */\n      dup3\n        /* \"#utility.yul\":7183:7192   */\n      dup7\n        /* \"#utility.yul\":7179:7201   */\n      add\n        /* \"#utility.yul\":7148:7211   */\n      tag_258\n      jump\t// in\n    tag_378:\n        /* \"#utility.yul\":7138:7211   */\n      swap2\n      pop\n        /* \"#utility.yul\":6933:7221   */\n      pop\n        /* \"#utility.yul\":6574:7228   */\n      swap3\n      pop\n      swap3\n      swap1\n      pop\n      jump\t// out\n        /* \"#utility.yul\":7234:7444   */\n    tag_55:\n        /* \"#utility.yul\":7321:7325   */\n      0x00\n        /* \"#utility.yul\":7359:7361   */\n      0x20\n        /* \"#utility.yul\":7348:7357   */\n      dup3\n        /* \"#utility.yul\":7344:7362   */\n      add\n        /* \"#utility.yul\":7336:7362   */\n      swap1\n      pop\n        /* \"#utility.yul\":7372:7437   */\n      tag_380\n        /* \"#utility.yul\":7434:7435   */\n      0x00\n        /* \"#utility.yul\":7423:7432   */\n      dup4\n        /* \"#utility.yul\":7419:7436   */\n      add\n        /* \"#utility.yul\":7410:7416   */\n      dup5\n        /* \"#utility.yul\":7372:7437   */\n      tag_246\n      jump\t// in\n    tag_380:\n        /* \"#utility.yul\":7234:7444   */\n      swap3\n      swap2\n      pop\n      pop\n      jump\t// out\n        /* \"#utility.yul\":7450:7572   */\n    tag_259:\n        /* \"#utility.yul\":7523:7547   */\n      tag_382\n        /* \"#utility.yul\":7541:7546   */\n      dup2\n        /* \"#utility.yul\":7523:7547   */\n      tag_247\n      jump\t// in\n    tag_382:\n        /* \"#utility.yul\":7516:7521   */\n      dup2\n        /* \"#utility.yul\":7513:7548   */\n      eq\n        /* \"#utility.yul\":7503:7566   */\n      tag_383\n      jumpi\n        /* \"#utility.yul\":7562:7563   */\n      0x00\n        /* \"#utility.yul\":7559:7560   */\n      0x00\n        /* \"#utility.yul\":7552:7564   */\n      revert\n        /* \"#utility.yul\":7503:7566   */\n    tag_383:\n        /* \"#utility.yul\":7450:7572   */\n      pop\n      jump\t// out\n        /* \"#utility.yul\":7578:7717   */\n    tag_260:\n        /* \"#utility.yul\":7624:7629   */\n      0x00\n        /* \"#utility.yul\":7662:7668   */\n      dup2\n        /* \"#utility.yul\":7649:7669   */\n      calldataload\n        /* \"#utility.yul\":7640:7669   */\n      swap1\n      pop\n        /* \"#utility.yul\":7678:7711   */\n      tag_385\n        /* \"#utility.yul\":7705:7710   */\n      dup2\n        /* \"#utility.yul\":7678:7711   */\n      tag_259\n      jump\t// in\n    tag_385:\n        /* \"#utility.yul\":7578:7717   */\n      swap3\n      swap2\n      pop\n      pop\n      jump\t// out\n        /* \"#utility.yul\":7723:8052   */\n    tag_66:\n        /* \"#utility.yul\":7782:7788   */\n      0x00\n        /* \"#utility.yul\":7831:7833   */\n      0x20\n        /* \"#utility.yul\":7819:7828   */\n      dup3\n        /* \"#utility.yul\":7810:7817   */\n      dup5\n        /* \"#utility.yul\":7806:7829   */\n      sub\n        /* \"#utility.yul\":7802:7834   */\n      slt\n        /* \"#utility.yul\":7799:7918   */\n      iszero\n      tag_387\n      jumpi\n        /* \"#utility.yul\":7837:7916   */\n      tag_388\n      tag_234\n      jump\t// in\n    tag_388:\n        /* \"#utility.yul\":7799:7918   */\n    tag_387:\n        /* \"#utility.yul\":7957:7958   */\n      0x00\n        /* \"#utility.yul\":7982:8035   */\n      tag_389\n        /* \"#utility.yul\":8027:8034   */\n      dup5\n        /* \"#utility.yul\":8018:8024   */\n      dup3\n        /* \"#utility.yul\":8007:8016   */\n      dup6\n        /* \"#utility.yul\":8003:8025   */\n      add\n        /* \"#utility.yul\":7982:8035   */\n      tag_260\n      jump\t// in\n    tag_389:\n        /* \"#utility.yul\":7972:8035   */\n      swap2\n      pop\n        /* \"#utility.yul\":7928:8045   */\n      pop\n        /* \"#utility.yul\":7723:8052   */\n      swap3\n      swap2\n      pop\n      pop\n      jump\t// out\n        /* \"#utility.yul\":8058:8280   */\n    tag_69:\n        /* \"#utility.yul\":8151:8155   */\n      0x00\n        /* \"#utility.yul\":8189:8191   */\n      0x20\n        /* \"#utility.yul\":8178:8187   */\n      dup3\n        /* \"#utility.yul\":8174:8192   */\n      add\n        /* \"#utility.yul\":8166:8192   */\n      swap1\n      pop\n        /* \"#utility.yul\":8202:8273   */\n      tag_391\n        /* \"#utility.yul\":8270:8271   */\n      0x00\n        /* \"#utility.yul\":8259:8268   */\n      dup4\n        /* \"#utility.yul\":8255:8272   */\n      add\n        /* \"#utility.yul\":8246:8252   */\n      dup5\n        /* \"#utility.yul\":8202:8273   */\n      tag_249\n      jump\t// in\n    tag_391:\n        /* \"#utility.yul\":8058:8280   */\n      swap3\n      swap2\n      pop\n      pop\n      jump\t// out\n        /* \"#utility.yul\":8286:8918   */\n    tag_98:\n        /* \"#utility.yul\":8477:8481   */\n      0x00\n        /* \"#utility.yul\":8515:8518   */\n      0x80\n        /* \"#utility.yul\":8504:8513   */\n      dup3\n        /* \"#utility.yul\":8500:8519   */\n      add\n        /* \"#utility.yul\":8492:8519   */\n      swap1\n      pop\n        /* \"#utility.yul\":8529:8594   */\n      tag_393\n        /* \"#utility.yul\":8591:8592   */\n      0x00\n        /* \"#utility.yul\":8580:8589   */\n      dup4\n        /* \"#utility.yul\":8576:8593   */\n      add\n        /* \"#utility.yul\":8567:8573   */\n      dup8\n        /* \"#utility.yul\":8529:8594   */\n      tag_246\n      jump\t// in\n    tag_393:\n        /* \"#utility.yul\":8604:8676   */\n      tag_394\n        /* \"#utility.yul\":8672:8674   */\n      0x20\n        /* \"#utility.yul\":8661:8670   */\n      dup4\n        /* \"#utility.yul\":8657:8675   */\n      add\n        /* \"#utility.yul\":8648:8654   */\n      dup7\n        /* \"#utility.yul\":8604:8676   */\n      tag_248\n      jump\t// in\n    tag_394:\n        /* \"#utility.yul\":8723:8732   */\n      dup2\n        /* \"#utility.yul\":8717:8721   */\n      dup2\n        /* \"#utility.yul\":8713:8733   */\n      sub\n        /* \"#utility.yul\":8708:8710   */\n      0x40\n        /* \"#utility.yul\":8697:8706   */\n      dup4\n        /* \"#utility.yul\":8693:8711   */\n      add\n        /* \"#utility.yul\":8686:8734   */\n      mstore\n        /* \"#utility.yul\":8751:8829   */\n      tag_395\n        /* \"#utility.yul\":8824:8828   */\n      dup2\n        /* \"#utility.yul\":8815:8821   */\n      dup6\n        /* \"#utility.yul\":8751:8829   */\n      tag_244\n      jump\t// in\n    tag_395:\n        /* \"#utility.yul\":8743:8829   */\n      swap1\n      pop\n        /* \"#utility.yul\":8839:8911   */\n      tag_396\n        /* \"#utility.yul\":8907:8909   */\n      0x60\n        /* \"#utility.yul\":8896:8905   */\n      dup4\n        /* \"#utility.yul\":8892:8910   */\n      add\n        /* \"#utility.yul\":8883:8889   */\n      dup5\n        /* \"#utility.yul\":8839:8911   */\n      tag_248\n      jump\t// in\n    tag_396:\n        /* \"#utility.yul\":8286:8918   */\n      swap6\n      swap5\n      pop\n      pop\n      pop\n      pop\n      pop\n      jump\t// out\n        /* \"#utility.yul\":8924:9104   */\n    tag_261:\n        /* \"#utility.yul\":8972:9049   */\n      0x4e487b7100000000000000000000000000000000000000000000000000000000\n        /* \"#utility.yul\":8969:8970   */\n      0x00\n        /* \"#utility.yul\":8962:9050   */\n      mstore\n        /* \"#utility.yul\":9069:9073   */\n      0x22\n        /* \"#utility.yul\":9066:9067   */\n      0x04\n        /* \"#utility.yul\":9059:9074   */\n      mstore\n        /* \"#utility.yul\":9093:9097   */\n      0x24\n        /* \"#utility.yul\":9090:9091   */\n      0x00\n        /* \"#utility.yul\":9083:9098   */\n      revert\n        /* \"#utility.yul\":9110:9430   */\n    tag_105:\n        /* \"#utility.yul\":9154:9160   */\n      0x00\n        /* \"#utility.yul\":9191:9192   */\n      0x02\n        /* \"#utility.yul\":9185:9189   */\n      dup3\n        /* \"#utility.yul\":9181:9193   */\n      div\n        /* \"#utility.yul\":9171:9193   */\n      swap1\n      pop\n        /* \"#utility.yul\":9238:9239   */\n      0x01\n        /* \"#utility.yul\":9232:9236   */\n      dup3\n        /* \"#utility.yul\":9228:9240   */\n      and\n        /* \"#utility.yul\":9259:9277   */\n      dup1\n        /* \"#utility.yul\":9249:9330   */\n      tag_399\n      jumpi\n        /* \"#utility.yul\":9315:9319   */\n      0x7f\n        /* \"#utility.yul\":9307:9313   */\n      dup3\n        /* \"#utility.yul\":9303:9320   */\n      and\n        /* \"#utility.yul\":9293:9320   */\n      swap2\n      pop\n        /* \"#utility.yul\":9249:9330   */\n    tag_399:\n        /* \"#utility.yul\":9377:9379   */\n      0x20\n        /* \"#utility.yul\":9369:9375   */\n      dup3\n        /* \"#utility.yul\":9366:9380   */\n      lt\n        /* \"#utility.yul\":9346:9364   */\n      dup2\n        /* \"#utility.yul\":9343:9381   */\n      sub\n        /* \"#utility.yul\":9340:9424   */\n      tag_400\n      jumpi\n        /* \"#utility.yul\":9396:9414   */\n      tag_401\n      tag_261\n      jump\t// in\n    tag_401:\n        /* \"#utility.yul\":9340:9424   */\n    tag_400:\n        /* \"#utility.yul\":9161:9430   */\n      pop\n        /* \"#utility.yul\":9110:9430   */\n      swap2\n      swap1\n      pop\n      jump\t// out\n        /* \"#utility.yul\":9436:9597   */\n    tag_262:\n        /* \"#utility.yul\":9576:9589   */\n      0x4e6f7420776f726b696e67000000000000000000000000000000000000000000\n        /* \"#utility.yul\":9572:9573   */\n      0x00\n        /* \"#utility.yul\":9564:9570   */\n      dup3\n        /* \"#utility.yul\":9560:9574   */\n      add\n        /* \"#utility.yul\":9553:9590   */\n      mstore\n        /* \"#utility.yul\":9436:9597   */\n      pop\n      jump\t// out\n        /* \"#utility.yul\":9603:9969   */\n    tag_263:\n        /* \"#utility.yul\":9745:9748   */\n      0x00\n        /* \"#utility.yul\":9766:9833   */\n      tag_404\n        /* \"#utility.yul\":9830:9832   */\n      0x0b\n        /* \"#utility.yul\":9825:9828   */\n      dup4\n        /* \"#utility.yul\":9766:9833   */\n      tag_241\n      jump\t// in\n    tag_404:\n        /* \"#utility.yul\":9759:9833   */\n      swap2\n      pop\n        /* \"#utility.yul\":9842:9935   */\n      tag_405\n        /* \"#utility.yul\":9931:9934   */\n      dup3\n        /* \"#utility.yul\":9842:9935   */\n      tag_262\n      jump\t// in\n    tag_405:\n        /* \"#utility.yul\":9960:9962   */\n      0x20\n        /* \"#utility.yul\":9955:9958   */\n      dup3\n        /* \"#utility.yul\":9951:9963   */\n      add\n        /* \"#utility.yul\":9944:9963   */\n      swap1\n      pop\n        /* \"#utility.yul\":9603:9969   */\n      swap2\n      swap1\n      pop\n      jump\t// out\n        /* \"#utility.yul\":9975:10394   */\n    tag_113:\n        /* \"#utility.yul\":10141:10145   */\n      0x00\n        /* \"#utility.yul\":10179:10181   */\n      0x20\n        /* \"#utility.yul\":10168:10177   */\n      dup3\n        /* \"#utility.yul\":10164:10182   */\n      add\n        /* \"#utility.yul\":10156:10182   */\n      swap1\n      pop\n        /* \"#utility.yul\":10228:10237   */\n      dup2\n        /* \"#utility.yul\":10222:10226   */\n      dup2\n        /* \"#utility.yul\":10218:10238   */\n      sub\n        /* \"#utility.yul\":10214:10215   */\n      0x00\n        /* \"#utility.yul\":10203:10212   */\n      dup4\n        /* \"#utility.yul\":10199:10216   */\n      add\n        /* \"#utility.yul\":10192:10239   */\n      mstore\n        /* \"#utility.yul\":10256:10387   */\n      tag_407\n        /* \"#utility.yul\":10382:10386   */\n      dup2\n        /* \"#utility.yul\":10256:10387   */\n      tag_263\n      jump\t// in\n    tag_407:\n        /* \"#utility.yul\":10248:10387   */\n      swap1\n      pop\n        /* \"#utility.yul\":9975:10394   */\n      swap2\n      swap1\n      pop\n      jump\t// out\n        /* \"#utility.yul\":10400:10541   */\n    tag_264:\n        /* \"#utility.yul\":10449:10453   */\n      0x00\n        /* \"#utility.yul\":10472:10475   */\n      dup2\n        /* \"#utility.yul\":10464:10475   */\n      swap1\n      pop\n        /* \"#utility.yul\":10495:10498   */\n      dup2\n        /* \"#utility.yul\":10492:10493   */\n      0x00\n        /* \"#utility.yul\":10485:10499   */\n      mstore\n        /* \"#utility.yul\":10529:10533   */\n      0x20\n        /* \"#utility.yul\":10526:10527   */\n      0x00\n        /* \"#utility.yul\":10516:10534   */\n      keccak256\n        /* \"#utility.yul\":10508:10534   */\n      swap1\n      pop\n        /* \"#utility.yul\":10400:10541   */\n      swap2\n      swap1\n      pop\n      jump\t// out\n        /* \"#utility.yul\":10547:10640   */\n    tag_265:\n        /* \"#utility.yul\":10584:10590   */\n      0x00\n        /* \"#utility.yul\":10631:10633   */\n      0x20\n        /* \"#utility.yul\":10626:10628   */\n      0x1f\n        /* \"#utility.yul\":10619:10624   */\n      dup4\n        /* \"#utility.yul\":10615:10629   */\n      add\n        /* \"#utility.yul\":10611:10634   */\n      div\n        /* \"#utility.yul\":10601:10634   */\n      swap1\n      pop\n        /* \"#utility.yul\":10547:10640   */\n      swap2\n      swap1\n      pop\n      jump\t// out\n        /* \"#utility.yul\":10646:10753   */\n    tag_266:\n        /* \"#utility.yul\":10690:10698   */\n      0x00\n        /* \"#utility.yul\":10740:10745   */\n      dup3\n        /* \"#utility.yul\":10734:10738   */\n      dup3\n        /* \"#utility.yul\":10730:10746   */\n      shl\n        /* \"#utility.yul\":10709:10746   */\n      swap1\n      pop\n        /* \"#utility.yul\":10646:10753   */\n      swap3\n      swap2\n      pop\n      pop\n      jump\t// out\n        /* \"#utility.yul\":10759:11152   */\n    tag_267:\n        /* \"#utility.yul\":10828:10834   */\n      0x00\n        /* \"#utility.yul\":10878:10879   */\n      0x08\n        /* \"#utility.yul\":10866:10876   */\n      dup4\n        /* \"#utility.yul\":10862:10880   */\n      mul\n        /* \"#utility.yul\":10901:10998   */\n      tag_412\n        /* \"#utility.yul\":10931:10997   */\n      0xffffffffffffffffffffffffffffffffffffffffffffffffffffffffffffffff\n        /* \"#utility.yul\":10920:10929   */\n      dup3\n        /* \"#utility.yul\":10901:10998   */\n      tag_266\n      jump\t// in\n    tag_412:\n        /* \"#utility.yul\":11019:11058   */\n      tag_413\n        /* \"#utility.yul\":11049:11057   */\n      dup7\n        /* \"#utility.yul\":11038:11047   */\n      dup4\n        /* \"#utility.yul\":11019:11058   */\n      tag_266\n      jump\t// in\n    tag_413:\n        /* \"#utility.yul\":11007:11058   */\n      swap6\n      pop\n        /* \"#utility.yul\":11091:11095   */\n      dup1\n        /* \"#utility.yul\":11087:11096   */\n      not\n        /* \"#utility.yul\":11080:11085   */\n      dup5\n        /* \"#utility.yul\":11076:11097   */\n      and\n        /* \"#utility.yul\":11067:11097   */\n      swap4\n      pop\n        /* \"#utility.yul\":11140:11144   */\n      dup1\n        /* \"#utility.yul\":11130:11138   */\n      dup7\n        /* \"#utility.yul\":11126:11145   */\n      and\n        /* \"#utility.yul\":11119:11124   */\n      dup5\n        /* \"#utility.yul\":11116:11146   */\n      or\n        /* \"#utility.yul\":11106:11146   */\n      swap3\n      pop\n        /* \"#utility.yul\":10835:11152   */\n      pop\n      pop\n        /* \"#utility.yul\":10759:11152   */\n      swap4\n      swap3\n      pop\n      pop\n      pop\n      jump\t// out\n        /* \"#utility.yul\":11158:11218   */\n    tag_268:\n        /* \"#utility.yul\":11186:11189   */\n      0x00\n        /* \"#utility.yul\":11207:11212   */\n      dup2\n        /* \"#utility.yul\":11200:11212   */\n      swap1\n      pop\n        /* \"#utility.yul\":11158:11218   */\n      swap2\n      swap1\n      pop\n      jump\t// out\n        /* \"#utility.yul\":11224:11366   */\n    tag_269:\n        /* \"#utility.yul\":11274:11283   */\n      0x00\n        /* \"#utility.yul\":11307:11360   */\n      tag_416\n        /* \"#utility.yul\":11325:11359   */\n      tag_417\n        /* \"#utility.yul\":11334:11358   */\n      tag_418\n        /* \"#utility.yul\":11352:11357   */\n      dup5\n        /* \"#utility.yul\":11334:11358   */\n      tag_247\n      jump\t// in\n    tag_418:\n        /* \"#utility.yul\":11325:11359   */\n      tag_268\n      jump\t// in\n    tag_417:\n        /* \"#utility.yul\":11307:11360   */\n      tag_247\n      jump\t// in\n    tag_416:\n        /* \"#utility.yul\":11294:11360   */\n      swap1\n      pop\n        /* \"#utility.yul\":11224:11366   */\n      swap2\n      swap1\n      pop\n      jump\t// out\n        /* \"#utility.yul\":11372:11447   */\n    tag_270:\n        /* \"#utility.yul\":11415:11418   */\n      0x00\n        /* \"#utility.yul\":11436:11441   */\n      dup2\n        /* \"#utility.yul\":11429:11441   */\n      swap1\n      pop\n        /* \"#utility.yul\":11372:11447   */\n      swap2\n      swap1\n      pop\n      jump\t// out\n        /* \"#utility.yul\":11453:11722   */\n    tag_271:\n        /* \"#utility.yul\":11563:11602   */\n      tag_421\n        /* \"#utility.yul\":11594:11601   */\n      dup4\n        /* \"#utility.yul\":11563:11602   */\n      tag_269\n      jump\t// in\n    tag_421:\n        /* \"#utility.yul\":11624:11715   */\n      tag_422\n        /* \"#utility.yul\":11673:11714   */\n      tag_423\n        /* \"#utility.yul\":11697:11713   */\n      dup3\n        /* \"#utility.yul\":11673:11714   */\n      tag_270\n      jump\t// in\n    tag_423:\n        /* \"#utility.yul\":11665:11671   */\n      dup5\n        /* \"#utility.yul\":11658:11662   */\n      dup5\n        /* \"#utility.yul\":11652:11663   */\n      sload\n        /* \"#utility.yul\":11624:11715   */\n      tag_267\n      jump\t// in\n    tag_422:\n        /* \"#utility.yul\":11618:11622   */\n      dup3\n        /* \"#utility.yul\":11611:11716   */\n      sstore\n        /* \"#utility.yul\":11529:11722   */\n      pop\n        /* \"#utility.yul\":11453:11722   */\n      pop\n      pop\n      pop\n      jump\t// out\n        /* \"#utility.yul\":11728:11801   */\n    tag_272:\n        /* \"#utility.yul\":11773:11776   */\n      0x00\n        /* \"#utility.yul\":11794:11795   */\n      0x00\n        /* \"#utility.yul\":11787:11795   */\n      swap1\n      pop\n        /* \"#utility.yul\":11728:11801   */\n      swap1\n      jump\t// out\n        /* \"#utility.yul\":11807:11996   */\n    tag_273:\n        /* \"#utility.yul\":11884:11916   */\n      tag_426\n      tag_272\n      jump\t// in\n    tag_426:\n        /* \"#utility.yul\":11925:11990   */\n      tag_427\n        /* \"#utility.yul\":11983:11989   */\n      dup2\n        /* \"#utility.yul\":11975:11981   */\n      dup5\n        /* \"#utility.yul\":11969:11973   */\n      dup5\n        /* \"#utility.yul\":11925:11990   */\n      tag_271\n      jump\t// in\n    tag_427:\n        /* \"#utility.yul\":11860:11996   */\n      pop\n        /* \"#utility.yul\":11807:11996   */\n      pop\n      pop\n      jump\t// out\n        /* \"#utility.yul\":12002:12188   */\n    tag_274:\n        /* \"#utility.yul\":12062:12182   */\n    tag_429:\n        /* \"#utility.yul\":12079:12082   */\n      dup2\n        /* \"#utility.yul\":12072:12077   */\n      dup2\n        /* \"#utility.yul\":12069:12083   */\n      lt\n        /* \"#utility.yul\":12062:12182   */\n      iszero\n      tag_431\n      jumpi\n        /* \"#utility.yul\":12133:12172   */\n      tag_432\n        /* \"#utility.yul\":12170:12171   */\n      0x00\n        /* \"#utility.yul\":12163:12168   */\n      dup3\n        /* \"#utility.yul\":12133:12172   */\n      tag_273\n      jump\t// in\n    tag_432:\n        /* \"#utility.yul\":12106:12107   */\n      0x01\n        /* \"#utility.yul\":12099:12104   */\n      dup2\n        /* \"#utility.yul\":12095:12108   */\n      add\n        /* \"#utility.yul\":12086:12108   */\n      swap1\n      pop\n        /* \"#utility.yul\":12062:12182   */\n      jump(tag_429)\n    tag_431:\n        /* \"#utility.yul\":12002:12188   */\n      pop\n      pop\n      jump\t// out\n        /* \"#utility.yul\":12194:12737   */\n    tag_275:\n        /* \"#utility.yul\":12295:12297   */\n      0x1f\n        /* \"#utility.yul\":12290:12293   */\n      dup3\n        /* \"#utility.yul\":12287:12298   */\n      gt\n        /* \"#utility.yul\":12284:12730   */\n      iszero\n      tag_434\n      jumpi\n        /* \"#utility.yul\":12329:12367   */\n      tag_435\n        /* \"#utility.yul\":12361:12366   */\n      dup2\n        /* \"#utility.yul\":12329:12367   */\n      tag_264\n      jump\t// in\n    tag_435:\n        /* \"#utility.yul\":12413:12442   */\n      tag_436\n        /* \"#utility.yul\":12431:12441   */\n      dup5\n        /* \"#utility.yul\":12413:12442   */\n      tag_265\n      jump\t// in\n    tag_436:\n        /* \"#utility.yul\":12403:12411   */\n      dup2\n        /* \"#utility.yul\":12399:12443   */\n      add\n        /* \"#utility.yul\":12596:12598   */\n      0x20\n        /* \"#utility.yul\":12584:12594   */\n      dup6\n        /* \"#utility.yul\":12581:12599   */\n      lt\n        /* \"#utility.yul\":12578:12627   */\n      iszero\n      tag_437\n      jumpi\n        /* \"#utility.yul\":12617:12625   */\n      dup2\n        /* \"#utility.yul\":12602:12625   */\n      swap1\n      pop\n        /* \"#utility.yul\":12578:12627   */\n    tag_437:\n        /* \"#utility.yul\":12640:12720   */\n      tag_438\n        /* \"#utility.yul\":12696:12718   */\n      tag_439\n        /* \"#utility.yul\":12714:12717   */\n      dup6\n        /* \"#utility.yul\":12696:12718   */\n      tag_265\n      jump\t// in\n    tag_439:\n        /* \"#utility.yul\":12686:12694   */\n      dup4\n        /* \"#utility.yul\":12682:12719   */\n      add\n        /* \"#utility.yul\":12669:12680   */\n      dup3\n        /* \"#utility.yul\":12640:12720   */\n      tag_274\n      jump\t// in\n    tag_438:\n        /* \"#utility.yul\":12299:12730   */\n      pop\n      pop\n        /* \"#utility.yul\":12284:12730   */\n    tag_434:\n        /* \"#utility.yul\":12194:12737   */\n      pop\n      pop\n      pop\n      jump\t// out\n        /* \"#utility.yul\":12743:12860   */\n    tag_276:\n        /* \"#utility.yul\":12797:12805   */\n      0x00\n        /* \"#utility.yul\":12847:12852   */\n      dup3\n        /* \"#utility.yul\":12841:12845   */\n      dup3\n        /* \"#utility.yul\":12837:12853   */\n      shr\n        /* \"#utility.yul\":12816:12853   */\n      swap1\n      pop\n        /* \"#utility.yul\":12743:12860   */\n      swap3\n      swap2\n      pop\n      pop\n      jump\t// out\n        /* \"#utility.yul\":12866:13035   */\n    tag_277:\n        /* \"#utility.yul\":12910:12916   */\n      0x00\n        /* \"#utility.yul\":12943:12994   */\n      tag_442\n        /* \"#utility.yul\":12991:12992   */\n      0x00\n        /* \"#utility.yul\":12987:12993   */\n      not\n        /* \"#utility.yul\":12979:12984   */\n      dup5\n        /* \"#utility.yul\":12976:12977   */\n      0x08\n        /* \"#utility.yul\":12972:12985   */\n      mul\n        /* \"#utility.yul\":12943:12994   */\n      tag_276\n      jump\t// in\n    tag_442:\n        /* \"#utility.yul\":12939:12995   */\n      not\n        /* \"#utility.yul\":13024:13028   */\n      dup1\n        /* \"#utility.yul\":13018:13022   */\n      dup4\n        /* \"#utility.yul\":13014:13029   */\n      and\n        /* \"#utility.yul\":13004:13029   */\n      swap2\n      pop\n        /* \"#utility.yul\":12917:13035   */\n      pop\n        /* \"#utility.yul\":12866:13035   */\n      swap3\n      swap2\n      pop\n      pop\n      jump\t// out\n        /* \"#utility.yul\":13040:13335   */\n    tag_278:\n        /* \"#utility.yul\":13116:13120   */\n      0x00\n        /* \"#utility.yul\":13262:13291   */\n      tag_444\n        /* \"#utility.yul\":13287:13290   */\n      dup4\n        /* \"#utility.yul\":13281:13285   */\n      dup4\n        /* \"#utility.yul\":13262:13291   */\n      tag_277\n      jump\t// in\n    tag_444:\n        /* \"#utility.yul\":13254:13291   */\n      swap2\n      pop\n        /* \"#utility.yul\":13324:13327   */\n      dup3\n        /* \"#utility.yul\":13321:13322   */\n      0x02\n        /* \"#utility.yul\":13317:13328   */\n      mul\n        /* \"#utility.yul\":13311:13315   */\n      dup3\n        /* \"#utility.yul\":13308:13329   */\n      or\n        /* \"#utility.yul\":13300:13329   */\n      swap1\n      pop\n        /* \"#utility.yul\":13040:13335   */\n      swap3\n      swap2\n      pop\n      pop\n      jump\t// out\n        /* \"#utility.yul\":13340:14735   */\n    tag_142:\n        /* \"#utility.yul\":13457:13494   */\n      tag_446\n        /* \"#utility.yul\":13490:13493   */\n      dup3\n        /* \"#utility.yul\":13457:13494   */\n      tag_240\n      jump\t// in\n    tag_446:\n        /* \"#utility.yul\":13559:13577   */\n      0xffffffffffffffff\n        /* \"#utility.yul\":13551:13557   */\n      dup2\n        /* \"#utility.yul\":13548:13578   */\n      gt\n        /* \"#utility.yul\":13545:13601   */\n      iszero\n      tag_447\n      jumpi\n        /* \"#utility.yul\":13581:13599   */\n      tag_448\n      tag_252\n      jump\t// in\n    tag_448:\n        /* \"#utility.yul\":13545:13601   */\n    tag_447:\n        /* \"#utility.yul\":13625:13663   */\n      tag_449\n        /* \"#utility.yul\":13657:13661   */\n      dup3\n        /* \"#utility.yul\":13651:13662   */\n      sload\n        /* \"#utility.yul\":13625:13663   */\n      tag_105\n      jump\t// in\n    tag_449:\n        /* \"#utility.yul\":13710:13777   */\n      tag_450\n        /* \"#utility.yul\":13770:13776   */\n      dup3\n        /* \"#utility.yul\":13762:13768   */\n      dup3\n        /* \"#utility.yul\":13756:13760   */\n      dup6\n        /* \"#utility.yul\":13710:13777   */\n      tag_275\n      jump\t// in\n    tag_450:\n        /* \"#utility.yul\":13804:13805   */\n      0x00\n        /* \"#utility.yul\":13828:13832   */\n      0x20\n        /* \"#utility.yul\":13815:13832   */\n      swap1\n      pop\n        /* \"#utility.yul\":13860:13862   */\n      0x1f\n        /* \"#utility.yul\":13852:13858   */\n      dup4\n        /* \"#utility.yul\":13849:13863   */\n      gt\n        /* \"#utility.yul\":13877:13878   */\n      0x01\n        /* \"#utility.yul\":13872:14490   */\n      dup2\n      eq\n      tag_452\n      jumpi\n        /* \"#utility.yul\":14534:14535   */\n      0x00\n        /* \"#utility.yul\":14551:14557   */\n      dup5\n        /* \"#utility.yul\":14548:14625   */\n      iszero\n      tag_453\n      jumpi\n        /* \"#utility.yul\":14600:14609   */\n      dup3\n        /* \"#utility.yul\":14595:14598   */\n      dup8\n        /* \"#utility.yul\":14591:14610   */\n      add\n        /* \"#utility.yul\":14585:14611   */\n      mload\n        /* \"#utility.yul\":14576:14611   */\n      swap1\n      pop\n        /* \"#utility.yul\":14548:14625   */\n    tag_453:\n        /* \"#utility.yul\":14651:14718   */\n      tag_454\n        /* \"#utility.yul\":14711:14717   */\n      dup6\n        /* \"#utility.yul\":14704:14709   */\n      dup3\n        /* \"#utility.yul\":14651:14718   */\n      tag_278\n      jump\t// in\n    tag_454:\n        /* \"#utility.yul\":14645:14649   */\n      dup7\n        /* \"#utility.yul\":14638:14719   */\n      sstore\n        /* \"#utility.yul\":14507:14729   */\n      pop\n        /* \"#utility.yul\":13842:14729   */\n      jump(tag_451)\n        /* \"#utility.yul\":13872:14490   */\n    tag_452:\n        /* \"#utility.yul\":13924:13928   */\n      0x1f\n        /* \"#utility.yul\":13920:13929   */\n      not\n        /* \"#utility.yul\":13912:13918   */\n      dup5\n        /* \"#utility.yul\":13908:13930   */\n      and\n        /* \"#utility.yul\":13958:13995   */\n      tag_455\n        /* \"#utility.yul\":13990:13994   */\n      dup7\n        /* \"#utility.yul\":13958:13995   */\n      tag_264\n      jump\t// in\n    tag_455:\n        /* \"#utility.yul\":14017:14018   */\n      0x00\n        /* \"#utility.yul\":14031:14239   */\n    tag_456:\n        /* \"#utility.yul\":14045:14052   */\n      dup3\n        /* \"#utility.yul\":14042:14043   */\n      dup2\n        /* \"#utility.yul\":14039:14053   */\n      lt\n        /* \"#utility.yul\":14031:14239   */\n      iszero\n      tag_458\n      jumpi\n        /* \"#utility.yul\":14124:14133   */\n      dup5\n        /* \"#utility.yul\":14119:14122   */\n      dup10\n        /* \"#utility.yul\":14115:14134   */\n      add\n        /* \"#utility.yul\":14109:14135   */\n      mload\n        /* \"#utility.yul\":14101:14107   */\n      dup3\n        /* \"#utility.yul\":14094:14136   */\n      sstore\n        /* \"#utility.yul\":14175:14176   */\n      0x01\n        /* \"#utility.yul\":14167:14173   */\n      dup3\n        /* \"#utility.yul\":14163:14177   */\n      add\n        /* \"#utility.yul\":14153:14177   */\n      swap2\n      pop\n        /* \"#utility.yul\":14222:14224   */\n      0x20\n        /* \"#utility.yul\":14211:14220   */\n      dup6\n        /* \"#utility.yul\":14207:14225   */\n      add\n        /* \"#utility.yul\":14194:14225   */\n      swap5\n      pop\n        /* \"#utility.yul\":14068:14072   */\n      0x20\n        /* \"#utility.yul\":14065:14066   */\n      dup2\n        /* \"#utility.yul\":14061:14073   */\n      add\n        /* \"#utility.yul\":14056:14073   */\n      swap1\n      pop\n        /* \"#utility.yul\":14031:14239   */\n      jump(tag_456)\n    tag_458:\n        /* \"#utility.yul\":14267:14273   */\n      dup7\n        /* \"#utility.yul\":14258:14265   */\n      dup4\n        /* \"#utility.yul\":14255:14274   */\n      lt\n        /* \"#utility.yul\":14252:14431   */\n      iszero\n      tag_459\n      jumpi\n        /* \"#utility.yul\":14325:14334   */\n      dup5\n        /* \"#utility.yul\":14320:14323   */\n      dup10\n        /* \"#utility.yul\":14316:14335   */\n      add\n        /* \"#utility.yul\":14310:14336   */\n      mload\n        /* \"#utility.yul\":14368:14416   */\n      tag_460\n        /* \"#utility.yul\":14410:14414   */\n      0x1f\n        /* \"#utility.yul\":14402:14408   */\n      dup10\n        /* \"#utility.yul\":14398:14415   */\n      and\n        /* \"#utility.yul\":14387:14396   */\n      dup3\n        /* \"#utility.yul\":14368:14416   */\n      tag_277\n      jump\t// in\n    tag_460:\n        /* \"#utility.yul\":14360:14366   */\n      dup4\n        /* \"#utility.yul\":14353:14417   */\n      sstore\n        /* \"#utility.yul\":14275:14431   */\n      pop\n        /* \"#utility.yul\":14252:14431   */\n    tag_459:\n        /* \"#utility.yul\":14477:14478   */\n      0x01\n        /* \"#utility.yul\":14473:14474   */\n      0x02\n        /* \"#utility.yul\":14465:14471   */\n      dup9\n        /* \"#utility.yul\":14461:14475   */\n      mul\n        /* \"#utility.yul\":14457:14479   */\n      add\n        /* \"#utility.yul\":14451:14455   */\n      dup9\n        /* \"#utility.yul\":14444:14480   */\n      sstore\n        /* \"#utility.yul\":13879:14490   */\n      pop\n      pop\n      pop\n        /* \"#utility.yul\":13842:14729   */\n    tag_451:\n      pop\n        /* \"#utility.yul\":13432:14735   */\n      pop\n      pop\n      pop\n        /* \"#utility.yul\":13340:14735   */\n      pop\n      pop\n      jump\t// out\n        /* \"#utility.yul\":14765:15596   */\n    tag_279:\n        /* \"#utility.yul\":14850:14853   */\n      0x00\n        /* \"#utility.yul\":14887:14892   */\n      dup2\n        /* \"#utility.yul\":14881:14893   */\n      sload\n        /* \"#utility.yul\":14916:14952   */\n      tag_462\n        /* \"#utility.yul\":14942:14951   */\n      dup2\n        /* \"#utility.yul\":14916:14952   */\n      tag_105\n      jump\t// in\n    tag_462:\n        /* \"#utility.yul\":14968:15039   */\n      tag_463\n        /* \"#utility.yul\":15032:15038   */\n      dup2\n        /* \"#utility.yul\":15027:15030   */\n      dup7\n        /* \"#utility.yul\":14968:15039   */\n      tag_241\n      jump\t// in\n    tag_463:\n        /* \"#utility.yul\":14961:15039   */\n      swap5\n      pop\n        /* \"#utility.yul\":15070:15071   */\n      0x01\n        /* \"#utility.yul\":15059:15068   */\n      dup3\n        /* \"#utility.yul\":15055:15072   */\n      and\n        /* \"#utility.yul\":15086:15087   */\n      0x00\n        /* \"#utility.yul\":15081:15245   */\n      dup2\n      eq\n      tag_465\n      jumpi\n        /* \"#utility.yul\":15259:15260   */\n      0x01\n        /* \"#utility.yul\":15254:15590   */\n      dup2\n      eq\n      tag_466\n      jumpi\n        /* \"#utility.yul\":15048:15590   */\n      jump(tag_464)\n        /* \"#utility.yul\":15081:15245   */\n    tag_465:\n        /* \"#utility.yul\":15165:15169   */\n      0xff\n        /* \"#utility.yul\":15161:15170   */\n      not\n        /* \"#utility.yul\":15150:15159   */\n      dup4\n        /* \"#utility.yul\":15146:15171   */\n      and\n        /* \"#utility.yul\":15141:15144   */\n      dup7\n        /* \"#utility.yul\":15134:15172   */\n      mstore\n        /* \"#utility.yul\":15225:15231   */\n      dup2\n        /* \"#utility.yul\":15218:15232   */\n      iszero\n        /* \"#utility.yul\":15211:15233   */\n      iszero\n        /* \"#utility.yul\":15205:15209   */\n      0x20\n        /* \"#utility.yul\":15201:15234   */\n      mul\n        /* \"#utility.yul\":15196:15199   */\n      dup7\n        /* \"#utility.yul\":15192:15235   */\n      add\n        /* \"#utility.yul\":15185:15235   */\n      swap4\n      pop\n        /* \"#utility.yul\":15081:15245   */\n      jump(tag_464)\n        /* \"#utility.yul\":15254:15590   */\n    tag_466:\n        /* \"#utility.yul\":15321:15359   */\n      tag_467\n        /* \"#utility.yul\":15353:15358   */\n      dup6\n        /* \"#utility.yul\":15321:15359   */\n      tag_264\n      jump\t// in\n    tag_467:\n        /* \"#utility.yul\":15381:15382   */\n      0x00\n        /* \"#utility.yul\":15395:15549   */\n    tag_468:\n        /* \"#utility.yul\":15409:15415   */\n      dup4\n        /* \"#utility.yul\":15406:15407   */\n      dup2\n        /* \"#utility.yul\":15403:15416   */\n      lt\n        /* \"#utility.yul\":15395:15549   */\n      iszero\n      tag_470\n      jumpi\n        /* \"#utility.yul\":15483:15490   */\n      dup2\n        /* \"#utility.yul\":15477:15491   */\n      sload\n        /* \"#utility.yul\":15473:15474   */\n      dup2\n        /* \"#utility.yul\":15468:15471   */\n      dup10\n        /* \"#utility.yul\":15464:15475   */\n      add\n        /* \"#utility.yul\":15457:15492   */\n      mstore\n        /* \"#utility.yul\":15533:15534   */\n      0x01\n        /* \"#utility.yul\":15524:15531   */\n      dup3\n        /* \"#utility.yul\":15520:15535   */\n      add\n        /* \"#utility.yul\":15509:15535   */\n      swap2\n      pop\n        /* \"#utility.yul\":15431:15435   */\n      0x20\n        /* \"#utility.yul\":15428:15429   */\n      dup2\n        /* \"#utility.yul\":15424:15436   */\n      add\n        /* \"#utility.yul\":15419:15436   */\n      swap1\n      pop\n        /* \"#utility.yul\":15395:15549   */\n      jump(tag_468)\n    tag_470:\n        /* \"#utility.yul\":15578:15579   */\n      dup1\n        /* \"#utility.yul\":15573:15576   */\n      dup9\n        /* \"#utility.yul\":15569:15580   */\n      add\n        /* \"#utility.yul\":15562:15580   */\n      swap6\n      pop\n        /* \"#utility.yul\":15261:15590   */\n      pop\n      pop\n        /* \"#utility.yul\":15048:15590   */\n    tag_464:\n      pop\n        /* \"#utility.yul\":14854:15596   */\n      pop\n      pop\n        /* \"#utility.yul\":14765:15596   */\n      swap3\n      swap2\n      pop\n      pop\n      jump\t// out\n        /* \"#utility.yul\":15602:16129   */\n    tag_145:\n        /* \"#utility.yul\":15768:15772   */\n      0x00\n        /* \"#utility.yul\":15806:15808   */\n      0x60\n        /* \"#utility.yul\":15795:15804   */\n      dup3\n        /* \"#utility.yul\":15791:15809   */\n      add\n        /* \"#utility.yul\":15783:15809   */\n      swap1\n      pop\n        /* \"#utility.yul\":15855:15864   */\n      dup2\n        /* \"#utility.yul\":15849:15853   */\n      dup2\n        /* \"#utility.yul\":15845:15865   */\n      sub\n        /* \"#utility.yul\":15841:15842   */\n      0x00\n        /* \"#utility.yul\":15830:15839   */\n      dup4\n        /* \"#utility.yul\":15826:15843   */\n      add\n        /* \"#utility.yul\":15819:15866   */\n      mstore\n        /* \"#utility.yul\":15883:15958   */\n      tag_472\n        /* \"#utility.yul\":15953:15957   */\n      dup2\n        /* \"#utility.yul\":15944:15950   */\n      dup7\n        /* \"#utility.yul\":15883:15958   */\n      tag_279\n      jump\t// in\n    tag_472:\n        /* \"#utility.yul\":15875:15958   */\n      swap1\n      pop\n        /* \"#utility.yul\":15968:16040   */\n      tag_473\n        /* \"#utility.yul\":16036:16038   */\n      0x20\n        /* \"#utility.yul\":16025:16034   */\n      dup4\n        /* \"#utility.yul\":16021:16039   */\n      add\n        /* \"#utility.yul\":16012:16018   */\n      dup6\n        /* \"#utility.yul\":15968:16040   */\n      tag_248\n      jump\t// in\n    tag_473:\n        /* \"#utility.yul\":16050:16122   */\n      tag_474\n        /* \"#utility.yul\":16118:16120   */\n      0x40\n        /* \"#utility.yul\":16107:16116   */\n      dup4\n        /* \"#utility.yul\":16103:16121   */\n      add\n        /* \"#utility.yul\":16094:16100   */\n      dup5\n        /* \"#utility.yul\":16050:16122   */\n      tag_248\n      jump\t// in\n    tag_474:\n        /* \"#utility.yul\":15602:16129   */\n      swap5\n      swap4\n      pop\n      pop\n      pop\n      pop\n      jump\t// out\n        /* \"#utility.yul\":16135:16305   */\n    tag_280:\n        /* \"#utility.yul\":16275:16297   */\n      0x4120646f63746f722069732072656d6f7665642e000000000000000000000000\n        /* \"#utility.yul\":16271:16272   */\n      0x00\n        /* \"#utility.yul\":16263:16269   */\n      dup3\n        /* \"#utility.yul\":16259:16273   */\n      add\n        /* \"#utility.yul\":16252:16298   */\n      mstore\n        /* \"#utility.yul\":16135:16305   */\n      pop\n      jump\t// out\n        /* \"#utility.yul\":16311:16677   */\n    tag_281:\n        /* \"#utility.yul\":16453:16456   */\n      0x00\n        /* \"#utility.yul\":16474:16541   */\n      tag_477\n        /* \"#utility.yul\":16538:16540   */\n      0x14\n        /* \"#utility.yul\":16533:16536   */\n      dup4\n        /* \"#utility.yul\":16474:16541   */\n      tag_241\n      jump\t// in\n    tag_477:\n        /* \"#utility.yul\":16467:16541   */\n      swap2\n      pop\n        /* \"#utility.yul\":16550:16643   */\n      tag_478\n        /* \"#utility.yul\":16639:16642   */\n      dup3\n        /* \"#utility.yul\":16550:16643   */\n      tag_280\n      jump\t// in\n    tag_478:\n        /* \"#utility.yul\":16668:16670   */\n      0x20\n        /* \"#utility.yul\":16663:16666   */\n      dup3\n        /* \"#utility.yul\":16659:16671   */\n      add\n        /* \"#utility.yul\":16652:16671   */\n      swap1\n      pop\n        /* \"#utility.yul\":16311:16677   */\n      swap2\n      swap1\n      pop\n      jump\t// out\n        /* \"#utility.yul\":16683:17322   */\n    tag_151:\n        /* \"#utility.yul\":16905:16909   */\n      0x00\n        /* \"#utility.yul\":16943:16945   */\n      0x60\n        /* \"#utility.yul\":16932:16941   */\n      dup3\n        /* \"#utility.yul\":16928:16946   */\n      add\n        /* \"#utility.yul\":16920:16946   */\n      swap1\n      pop\n        /* \"#utility.yul\":16992:17001   */\n      dup2\n        /* \"#utility.yul\":16986:16990   */\n      dup2\n        /* \"#utility.yul\":16982:17002   */\n      sub\n        /* \"#utility.yul\":16978:16979   */\n      0x00\n        /* \"#utility.yul\":16967:16976   */\n      dup4\n        /* \"#utility.yul\":16963:16980   */\n      add\n        /* \"#utility.yul\":16956:17003   */\n      mstore\n        /* \"#utility.yul\":17020:17151   */\n      tag_480\n        /* \"#utility.yul\":17146:17150   */\n      dup2\n        /* \"#utility.yul\":17020:17151   */\n      tag_281\n      jump\t// in\n    tag_480:\n        /* \"#utility.yul\":17012:17151   */\n      swap1\n      pop\n        /* \"#utility.yul\":17161:17233   */\n      tag_481\n        /* \"#utility.yul\":17229:17231   */\n      0x20\n        /* \"#utility.yul\":17218:17227   */\n      dup4\n        /* \"#utility.yul\":17214:17232   */\n      add\n        /* \"#utility.yul\":17205:17211   */\n      dup6\n        /* \"#utility.yul\":17161:17233   */\n      tag_249\n      jump\t// in\n    tag_481:\n        /* \"#utility.yul\":17243:17315   */\n      tag_482\n        /* \"#utility.yul\":17311:17313   */\n      0x40\n        /* \"#utility.yul\":17300:17309   */\n      dup4\n        /* \"#utility.yul\":17296:17314   */\n      add\n        /* \"#utility.yul\":17287:17293   */\n      dup5\n        /* \"#utility.yul\":17243:17315   */\n      tag_248\n      jump\t// in\n    tag_482:\n        /* \"#utility.yul\":16683:17322   */\n      swap4\n      swap3\n      pop\n      pop\n      pop\n      jump\t// out\n        /* \"#utility.yul\":17328:17496   */\n    tag_282:\n        /* \"#utility.yul\":17468:17488   */\n      0x416e2061756469742069732061646465642e0000000000000000000000000000\n        /* \"#utility.yul\":17464:17465   */\n      0x00\n        /* \"#utility.yul\":17456:17462   */\n      dup3\n        /* \"#utility.yul\":17452:17466   */\n      add\n        /* \"#utility.yul\":17445:17489   */\n      mstore\n        /* \"#utility.yul\":17328:17496   */\n      pop\n      jump\t// out\n        /* \"#utility.yul\":17502:17868   */\n    tag_283:\n        /* \"#utility.yul\":17644:17647   */\n      0x00\n        /* \"#utility.yul\":17665:17732   */\n      tag_485\n        /* \"#utility.yul\":17729:17731   */\n      0x12\n        /* \"#utility.yul\":17724:17727   */\n      dup4\n        /* \"#utility.yul\":17665:17732   */\n      tag_241\n      jump\t// in\n    tag_485:\n        /* \"#utility.yul\":17658:17732   */\n      swap2\n      pop\n        /* \"#utility.yul\":17741:17834   */\n      tag_486\n        /* \"#utility.yul\":17830:17833   */\n      dup3\n        /* \"#utility.yul\":17741:17834   */\n      tag_282\n      jump\t// in\n    tag_486:\n        /* \"#utility.yul\":17859:17861   */\n      0x20\n        /* \"#utility.yul\":17854:17857   */\n      dup3\n        /* \"#utility.yul\":17850:17862   */\n      add\n        /* \"#utility.yul\":17843:17862   */\n      swap1\n      pop\n        /* \"#utility.yul\":17502:17868   */\n      swap2\n      swap1\n      pop\n      jump\t// out\n        /* \"#utility.yul\":17874:18513   */\n    tag_171:\n        /* \"#utility.yul\":18096:18100   */\n      0x00\n        /* \"#utility.yul\":18134:18136   */\n      0x60\n        /* \"#utility.yul\":18123:18132   */\n      dup3\n        /* \"#utility.yul\":18119:18137   */\n      add\n        /* \"#utility.yul\":18111:18137   */\n      swap1\n      pop\n        /* \"#utility.yul\":18183:18192   */\n      dup2\n        /* \"#utility.yul\":18177:18181   */\n      dup2\n        /* \"#utility.yul\":18173:18193   */\n      sub\n        /* \"#utility.yul\":18169:18170   */\n      0x00\n        /* \"#utility.yul\":18158:18167   */\n      dup4\n        /* \"#utility.yul\":18154:18171   */\n      add\n        /* \"#utility.yul\":18147:18194   */\n      mstore\n        /* \"#utility.yul\":18211:18342   */\n      tag_488\n        /* \"#utility.yul\":18337:18341   */\n      dup2\n        /* \"#utility.yul\":18211:18342   */\n      tag_283\n      jump\t// in\n    tag_488:\n        /* \"#utility.yul\":18203:18342   */\n      swap1\n      pop\n        /* \"#utility.yul\":18352:18424   */\n      tag_489\n        /* \"#utility.yul\":18420:18422   */\n      0x20\n        /* \"#utility.yul\":18409:18418   */\n      dup4\n        /* \"#utility.yul\":18405:18423   */\n      add\n        /* \"#utility.yul\":18396:18402   */\n      dup6\n        /* \"#utility.yul\":18352:18424   */\n      tag_249\n      jump\t// in\n    tag_489:\n        /* \"#utility.yul\":18434:18506   */\n      tag_490\n        /* \"#utility.yul\":18502:18504   */\n      0x40\n        /* \"#utility.yul\":18491:18500   */\n      dup4\n        /* \"#utility.yul\":18487:18505   */\n      add\n        /* \"#utility.yul\":18478:18484   */\n      dup5\n        /* \"#utility.yul\":18434:18506   */\n      tag_248\n      jump\t// in\n    tag_490:\n        /* \"#utility.yul\":17874:18513   */\n      swap4\n      swap3\n      pop\n      pop\n      pop\n      jump\t// out\n        /* \"#utility.yul\":18519:18613   */\n    tag_284:\n        /* \"#utility.yul\":18552:18560   */\n      0x00\n        /* \"#utility.yul\":18600:18605   */\n      dup2\n        /* \"#utility.yul\":18596:18598   */\n      0x60\n        /* \"#utility.yul\":18592:18606   */\n      shl\n        /* \"#utility.yul\":18571:18606   */\n      swap1\n      pop\n        /* \"#utility.yul\":18519:18613   */\n      swap2\n      swap1\n      pop\n      jump\t// out\n        /* \"#utility.yul\":18619:18713   */\n    tag_285:\n        /* \"#utility.yul\":18658:18665   */\n      0x00\n        /* \"#utility.yul\":18687:18707   */\n      tag_493\n        /* \"#utility.yul\":18701:18706   */\n      dup3\n        /* \"#utility.yul\":18687:18707   */\n      tag_284\n      jump\t// in\n    tag_493:\n        /* \"#utility.yul\":18676:18707   */\n      swap1\n      pop\n        /* \"#utility.yul\":18619:18713   */\n      swap2\n      swap1\n      pop\n      jump\t// out\n        /* \"#utility.yul\":18719:18819   */\n    tag_286:\n        /* \"#utility.yul\":18758:18765   */\n      0x00\n        /* \"#utility.yul\":18787:18813   */\n      tag_495\n        /* \"#utility.yul\":18807:18812   */\n      dup3\n        /* \"#utility.yul\":18787:18813   */\n      tag_285\n      jump\t// in\n    tag_495:\n        /* \"#utility.yul\":18776:18813   */\n      swap1\n      pop\n        /* \"#utility.yul\":18719:18819   */\n      swap2\n      swap1\n      pop\n      jump\t// out\n        /* \"#utility.yul\":18825:18982   */\n    tag_287:\n        /* \"#utility.yul\":18930:18975   */\n      tag_497\n        /* \"#utility.yul\":18950:18974   */\n      tag_498\n        /* \"#utility.yul\":18968:18973   */\n      dup3\n        /* \"#utility.yul\":18950:18974   */\n      tag_237\n      jump\t// in\n    tag_498:\n        /* \"#utility.yul\":18930:18975   */\n      tag_286\n      jump\t// in\n    tag_497:\n        /* \"#utility.yul\":18925:18928   */\n      dup3\n        /* \"#utility.yul\":18918:18976   */\n      mstore\n        /* \"#utility.yul\":18825:18982   */\n      pop\n      pop\n      jump\t// out\n        /* \"#utility.yul\":18988:19067   */\n    tag_288:\n        /* \"#utility.yul\":19027:19034   */\n      0x00\n        /* \"#utility.yul\":19056:19061   */\n      dup2\n        /* \"#utility.yul\":19045:19061   */\n      swap1\n      pop\n        /* \"#utility.yul\":18988:19067   */\n      swap2\n      swap1\n      pop\n      jump\t// out\n        /* \"#utility.yul\":19073:19230   */\n    tag_289:\n        /* \"#utility.yul\":19178:19223   */\n      tag_501\n        /* \"#utility.yul\":19198:19222   */\n      tag_502\n        /* \"#utility.yul\":19216:19221   */\n      dup3\n        /* \"#utility.yul\":19198:19222   */\n      tag_247\n      jump\t// in\n    tag_502:\n        /* \"#utility.yul\":19178:19223   */\n      tag_288\n      jump\t// in\n    tag_501:\n        /* \"#utility.yul\":19173:19176   */\n      dup3\n        /* \"#utility.yul\":19166:19224   */\n      mstore\n        /* \"#utility.yul\":19073:19230   */\n      pop\n      pop\n      jump\t// out\n        /* \"#utility.yul\":19236:19633   */\n    tag_176:\n        /* \"#utility.yul\":19376:19379   */\n      0x00\n        /* \"#utility.yul\":19391:19466   */\n      tag_504\n        /* \"#utility.yul\":19462:19465   */\n      dup3\n        /* \"#utility.yul\":19453:19459   */\n      dup6\n        /* \"#utility.yul\":19391:19466   */\n      tag_287\n      jump\t// in\n    tag_504:\n        /* \"#utility.yul\":19491:19493   */\n      0x14\n        /* \"#utility.yul\":19486:19489   */\n      dup3\n        /* \"#utility.yul\":19482:19494   */\n      add\n        /* \"#utility.yul\":19475:19494   */\n      swap2\n      pop\n        /* \"#utility.yul\":19504:19579   */\n      tag_505\n        /* \"#utility.yul\":19575:19578   */\n      dup3\n        /* \"#utility.yul\":19566:19572   */\n      dup5\n        /* \"#utility.yul\":19504:19579   */\n      tag_289\n      jump\t// in\n    tag_505:\n        /* \"#utility.yul\":19604:19606   */\n      0x20\n        /* \"#utility.yul\":19599:19602   */\n      dup3\n        /* \"#utility.yul\":19595:19607   */\n      add\n        /* \"#utility.yul\":19588:19607   */\n      swap2\n      pop\n        /* \"#utility.yul\":19624:19627   */\n      dup2\n        /* \"#utility.yul\":19617:19627   */\n      swap1\n      pop\n        /* \"#utility.yul\":19236:19633   */\n      swap4\n      swap3\n      pop\n      pop\n      pop\n      jump\t// out\n        /* \"#utility.yul\":19639:19737   */\n    tag_290:\n        /* \"#utility.yul\":19690:19696   */\n      0x00\n        /* \"#utility.yul\":19724:19729   */\n      dup2\n        /* \"#utility.yul\":19718:19730   */\n      mload\n        /* \"#utility.yul\":19708:19730   */\n      swap1\n      pop\n        /* \"#utility.yul\":19639:19737   */\n      swap2\n      swap1\n      pop\n      jump\t// out\n        /* \"#utility.yul\":19743:19890   */\n    tag_291:\n        /* \"#utility.yul\":19844:19855   */\n      0x00\n        /* \"#utility.yul\":19881:19884   */\n      dup2\n        /* \"#utility.yul\":19866:19884   */\n      swap1\n      pop\n        /* \"#utility.yul\":19743:19890   */\n      swap3\n      swap2\n      pop\n      pop\n      jump\t// out\n        /* \"#utility.yul\":19896:20282   */\n    tag_292:\n        /* \"#utility.yul\":20000:20003   */\n      0x00\n        /* \"#utility.yul\":20028:20066   */\n      tag_509\n        /* \"#utility.yul\":20060:20065   */\n      dup3\n        /* \"#utility.yul\":20028:20066   */\n      tag_290\n      jump\t// in\n    tag_509:\n        /* \"#utility.yul\":20082:20170   */\n      tag_510\n        /* \"#utility.yul\":20163:20169   */\n      dup2\n        /* \"#utility.yul\":20158:20161   */\n      dup6\n        /* \"#utility.yul\":20082:20170   */\n      tag_291\n      jump\t// in\n    tag_510:\n        /* \"#utility.yul\":20075:20170   */\n      swap4\n      pop\n        /* \"#utility.yul\":20179:20244   */\n      tag_511\n        /* \"#utility.yul\":20237:20243   */\n      dup2\n        /* \"#utility.yul\":20232:20235   */\n      dup6\n        /* \"#utility.yul\":20225:20229   */\n      0x20\n        /* \"#utility.yul\":20218:20223   */\n      dup7\n        /* \"#utility.yul\":20214:20230   */\n      add\n        /* \"#utility.yul\":20179:20244   */\n      tag_242\n      jump\t// in\n    tag_511:\n        /* \"#utility.yul\":20269:20275   */\n      dup1\n        /* \"#utility.yul\":20264:20267   */\n      dup5\n        /* \"#utility.yul\":20260:20276   */\n      add\n        /* \"#utility.yul\":20253:20276   */\n      swap2\n      pop\n        /* \"#utility.yul\":20004:20282   */\n      pop\n        /* \"#utility.yul\":19896:20282   */\n      swap3\n      swap2\n      pop\n      pop\n      jump\t// out\n        /* \"#utility.yul\":20288:20559   */\n    tag_178:\n        /* \"#utility.yul\":20418:20421   */\n      0x00\n        /* \"#utility.yul\":20440:20533   */\n      tag_513\n        /* \"#utility.yul\":20529:20532   */\n      dup3\n        /* \"#utility.yul\":20520:20526   */\n      dup5\n        /* \"#utility.yul\":20440:20533   */\n      tag_292\n      jump\t// in\n    tag_513:\n        /* \"#utility.yul\":20433:20533   */\n      swap2\n      pop\n        /* \"#utility.yul\":20550:20553   */\n      dup2\n        /* \"#utility.yul\":20543:20553   */\n      swap1\n      pop\n        /* \"#utility.yul\":20288:20559   */\n      swap3\n      swap2\n      pop\n      pop\n      jump\t// out\n        /* \"#utility.yul\":20565:20642   */\n    tag_293:\n        /* \"#utility.yul\":20602:20609   */\n      0x00\n        /* \"#utility.yul\":20631:20636   */\n      dup2\n        /* \"#utility.yul\":20620:20636   */\n      swap1\n      pop\n        /* \"#utility.yul\":20565:20642   */\n      swap2\n      swap1\n      pop\n      jump\t// out\n        /* \"#utility.yul\":20648:20770   */\n    tag_294:\n        /* \"#utility.yul\":20721:20745   */\n      tag_516\n        /* \"#utility.yul\":20739:20744   */\n      dup2\n        /* \"#utility.yul\":20721:20745   */\n      tag_293\n      jump\t// in\n    tag_516:\n        /* \"#utility.yul\":20714:20719   */\n      dup2\n        /* \"#utility.yul\":20711:20746   */\n      eq\n        /* \"#utility.yul\":20701:20764   */\n      tag_517\n      jumpi\n        /* \"#utility.yul\":20760:20761   */\n      0x00\n        /* \"#utility.yul\":20757:20758   */\n      0x00\n        /* \"#utility.yul\":20750:20762   */\n      revert\n        /* \"#utility.yul\":20701:20764   */\n    tag_517:\n        /* \"#utility.yul\":20648:20770   */\n      pop\n      jump\t// out\n        /* \"#utility.yul\":20776:20919   */\n    tag_295:\n        /* \"#utility.yul\":20833:20838   */\n      0x00\n        /* \"#utility.yul\":20864:20870   */\n      dup2\n        /* \"#utility.yul\":20858:20871   */\n      mload\n        /* \"#utility.yul\":20849:20871   */\n      swap1\n      pop\n        /* \"#utility.yul\":20880:20913   */\n      tag_519\n        /* \"#utility.yul\":20907:20912   */\n      dup2\n        /* \"#utility.yul\":20880:20913   */\n      tag_294\n      jump\t// in\n    tag_519:\n        /* \"#utility.yul\":20776:20919   */\n      swap3\n      swap2\n      pop\n      pop\n      jump\t// out\n        /* \"#utility.yul\":20925:21276   */\n    tag_182:\n        /* \"#utility.yul\":20995:21001   */\n      0x00\n        /* \"#utility.yul\":21044:21046   */\n      0x20\n        /* \"#utility.yul\":21032:21041   */\n      dup3\n        /* \"#utility.yul\":21023:21030   */\n      dup5\n        /* \"#utility.yul\":21019:21042   */\n      sub\n        /* \"#utility.yul\":21015:21047   */\n      slt\n        /* \"#utility.yul\":21012:21131   */\n      iszero\n      tag_521\n      jumpi\n        /* \"#utility.yul\":21050:21129   */\n      tag_522\n      tag_234\n      jump\t// in\n    tag_522:\n        /* \"#utility.yul\":21012:21131   */\n    tag_521:\n        /* \"#utility.yul\":21170:21171   */\n      0x00\n        /* \"#utility.yul\":21195:21259   */\n      tag_523\n        /* \"#utility.yul\":21251:21258   */\n      dup5\n        /* \"#utility.yul\":21242:21248   */\n      dup3\n        /* \"#utility.yul\":21231:21240   */\n      dup6\n        /* \"#utility.yul\":21227:21249   */\n      add\n        /* \"#utility.yul\":21195:21259   */\n      tag_295\n      jump\t// in\n    tag_523:\n        /* \"#utility.yul\":21185:21259   */\n      swap2\n      pop\n        /* \"#utility.yul\":21141:21269   */\n      pop\n        /* \"#utility.yul\":20925:21276   */\n      swap3\n      swap2\n      pop\n      pop\n      jump\t// out\n        /* \"#utility.yul\":21282:21920   */\n    tag_186:\n        /* \"#utility.yul\":21476:21480   */\n      0x00\n        /* \"#utility.yul\":21514:21517   */\n      0x80\n        /* \"#utility.yul\":21503:21512   */\n      dup3\n        /* \"#utility.yul\":21499:21518   */\n      add\n        /* \"#utility.yul\":21491:21518   */\n      swap1\n      pop\n        /* \"#utility.yul\":21528:21599   */\n      tag_525\n        /* \"#utility.yul\":21596:21597   */\n      0x00\n        /* \"#utility.yul\":21585:21594   */\n      dup4\n        /* \"#utility.yul\":21581:21598   */\n      add\n        /* \"#utility.yul\":21572:21578   */\n      dup8\n        /* \"#utility.yul\":21528:21599   */\n      tag_249\n      jump\t// in\n    tag_525:\n        /* \"#utility.yul\":21646:21655   */\n      dup2\n        /* \"#utility.yul\":21640:21644   */\n      dup2\n        /* \"#utility.yul\":21636:21656   */\n      sub\n        /* \"#utility.yul\":21631:21633   */\n      0x20\n        /* \"#utility.yul\":21620:21629   */\n      dup4\n        /* \"#utility.yul\":21616:21634   */\n      add\n        /* \"#utility.yul\":21609:21657   */\n      mstore\n        /* \"#utility.yul\":21674:21749   */\n      tag_526\n        /* \"#utility.yul\":21744:21748   */\n      dup2\n        /* \"#utility.yul\":21735:21741   */\n      dup7\n        /* \"#utility.yul\":21674:21749   */\n      tag_279\n      jump\t// in\n    tag_526:\n        /* \"#utility.yul\":21666:21749   */\n      swap1\n      pop\n        /* \"#utility.yul\":21759:21831   */\n      tag_527\n        /* \"#utility.yul\":21827:21829   */\n      0x40\n        /* \"#utility.yul\":21816:21825   */\n      dup4\n        /* \"#utility.yul\":21812:21830   */\n      add\n        /* \"#utility.yul\":21803:21809   */\n      dup6\n        /* \"#utility.yul\":21759:21831   */\n      tag_248\n      jump\t// in\n    tag_527:\n        /* \"#utility.yul\":21841:21913   */\n      tag_528\n        /* \"#utility.yul\":21909:21911   */\n      0x60\n        /* \"#utility.yul\":21898:21907   */\n      dup4\n        /* \"#utility.yul\":21894:21912   */\n      add\n        /* \"#utility.yul\":21885:21891   */\n      dup5\n        /* \"#utility.yul\":21841:21913   */\n      tag_248\n      jump\t// in\n    tag_528:\n        /* \"#utility.yul\":21282:21920   */\n      swap6\n      swap5\n      pop\n      pop\n      pop\n      pop\n      pop\n      jump\t// out\n        /* \"#utility.yul\":21926:22096   */\n    tag_296:\n        /* \"#utility.yul\":22066:22088   */\n      0x416e2061756469742069732072656d6f7665642e000000000000000000000000\n        /* \"#utility.yul\":22062:22063   */\n      0x00\n        /* \"#utility.yul\":22054:22060   */\n      dup3\n        /* \"#utility.yul\":22050:22064   */\n      add\n        /* \"#utility.yul\":22043:22089   */\n      mstore\n        /* \"#utility.yul\":21926:22096   */\n      pop\n      jump\t// out\n        /* \"#utility.yul\":22102:22468   */\n    tag_297:\n        /* \"#utility.yul\":22244:22247   */\n      0x00\n        /* \"#utility.yul\":22265:22332   */\n      tag_531\n        /* \"#utility.yul\":22329:22331   */\n      0x14\n        /* \"#utility.yul\":22324:22327   */\n      dup4\n        /* \"#utility.yul\":22265:22332   */\n      tag_241\n      jump\t// in\n    tag_531:\n        /* \"#utility.yul\":22258:22332   */\n      swap2\n      pop\n        /* \"#utility.yul\":22341:22434   */\n      tag_532\n        /* \"#utility.yul\":22430:22433   */\n      dup3\n        /* \"#utility.yul\":22341:22434   */\n      tag_296\n      jump\t// in\n    tag_532:\n        /* \"#utility.yul\":22459:22461   */\n      0x20\n        /* \"#utility.yul\":22454:22457   */\n      dup3\n        /* \"#utility.yul\":22450:22462   */\n      add\n        /* \"#utility.yul\":22443:22462   */\n      swap1\n      pop\n        /* \"#utility.yul\":22102:22468   */\n      swap2\n      swap1\n      pop\n      jump\t// out\n        /* \"#utility.yul\":22474:23113   */\n    tag_204:\n        /* \"#utility.yul\":22696:22700   */\n      0x00\n        /* \"#utility.yul\":22734:22736   */\n      0x60\n        /* \"#utility.yul\":22723:22732   */\n      dup3\n        /* \"#utility.yul\":22719:22737   */\n      add\n        /* \"#utility.yul\":22711:22737   */\n      swap1\n      pop\n        /* \"#utility.yul\":22783:22792   */\n      dup2\n        /* \"#utility.yul\":22777:22781   */\n      dup2\n        /* \"#utility.yul\":22773:22793   */\n      sub\n        /* \"#utility.yul\":22769:22770   */\n      0x00\n        /* \"#utility.yul\":22758:22767   */\n      dup4\n        /* \"#utility.yul\":22754:22771   */\n      add\n        /* \"#utility.yul\":22747:22794   */\n      mstore\n        /* \"#utility.yul\":22811:22942   */\n      tag_534\n        /* \"#utility.yul\":22937:22941   */\n      dup2\n        /* \"#utility.yul\":22811:22942   */\n      tag_297\n      jump\t// in\n    tag_534:\n        /* \"#utility.yul\":22803:22942   */\n      swap1\n      pop\n        /* \"#utility.yul\":22952:23024   */\n      tag_535\n        /* \"#utility.yul\":23020:23022   */\n      0x20\n        /* \"#utility.yul\":23009:23018   */\n      dup4\n        /* \"#utility.yul\":23005:23023   */\n      add\n        /* \"#utility.yul\":22996:23002   */\n      dup6\n        /* \"#utility.yul\":22952:23024   */\n      tag_249\n      jump\t// in\n    tag_535:\n        /* \"#utility.yul\":23034:23106   */\n      tag_536\n        /* \"#utility.yul\":23102:23104   */\n      0x40\n        /* \"#utility.yul\":23091:23100   */\n      dup4\n        /* \"#utility.yul\":23087:23105   */\n      add\n        /* \"#utility.yul\":23078:23084   */\n      dup5\n        /* \"#utility.yul\":23034:23106   */\n      tag_248\n      jump\t// in\n    tag_536:\n        /* \"#utility.yul\":22474:23113   */\n      swap4\n      swap3\n      pop\n      pop\n      pop\n      jump\t// out\n        /* \"#utility.yul\":23119:23287   */\n    tag_298:\n        /* \"#utility.yul\":23259:23279   */\n      0x4120646f63746f722069732061646465642e0000000000000000000000000000\n        /* \"#utility.yul\":23255:23256   */\n      0x00\n        /* \"#utility.yul\":23247:23253   */\n      dup3\n        /* \"#utility.yul\":23243:23257   */\n      add\n        /* \"#utility.yul\":23236:23280   */\n      mstore\n        /* \"#utility.yul\":23119:23287   */\n      pop\n      jump\t// out\n        /* \"#utility.yul\":23293:23659   */\n    tag_299:\n        /* \"#utility.yul\":23435:23438   */\n      0x00\n        /* \"#utility.yul\":23456:23523   */\n      tag_539\n        /* \"#utility.yul\":23520:23522   */\n      0x12\n        /* \"#utility.yul\":23515:23518   */\n      dup4\n        /* \"#utility.yul\":23456:23523   */\n      tag_241\n      jump\t// in\n    tag_539:\n        /* \"#utility.yul\":23449:23523   */\n      swap2\n      pop\n        /* \"#utility.yul\":23532:23625   */\n      tag_540\n        /* \"#utility.yul\":23621:23624   */\n      dup3\n        /* \"#utility.yul\":23532:23625   */\n      tag_298\n      jump\t// in\n    tag_540:\n        /* \"#utility.yul\":23650:23652   */\n      0x20\n        /* \"#utility.yul\":23645:23648   */\n      dup3\n        /* \"#utility.yul\":23641:23653   */\n      add\n        /* \"#utility.yul\":23634:23653   */\n      swap1\n      pop\n        /* \"#utility.yul\":23293:23659   */\n      swap2\n      swap1\n      pop\n      jump\t// out\n        /* \"#utility.yul\":23665:24304   */\n    tag_210:\n        /* \"#utility.yul\":23887:23891   */\n      0x00\n        /* \"#utility.yul\":23925:23927   */\n      0x60\n        /* \"#utility.yul\":23914:23923   */\n      dup3\n        /* \"#utility.yul\":23910:23928   */\n      add\n        /* \"#utility.yul\":23902:23928   */\n      swap1\n      pop\n        /* \"#utility.yul\":23974:23983   */\n      dup2\n        /* \"#utility.yul\":23968:23972   */\n      dup2\n        /* \"#utility.yul\":23964:23984   */\n      sub\n        /* \"#utility.yul\":23960:23961   */\n      0x00\n        /* \"#utility.yul\":23949:23958   */\n      dup4\n        /* \"#utility.yul\":23945:23962   */\n      add\n        /* \"#utility.yul\":23938:23985   */\n      mstore\n        /* \"#utility.yul\":24002:24133   */\n      tag_542\n        /* \"#utility.yul\":24128:24132   */\n      dup2\n        /* \"#utility.yul\":24002:24133   */\n      tag_299\n      jump\t// in\n    tag_542:\n        /* \"#utility.yul\":23994:24133   */\n      swap1\n      pop\n        /* \"#utility.yul\":24143:24215   */\n      tag_543\n        /* \"#utility.yul\":24211:24213   */\n      0x20\n        /* \"#utility.yul\":24200:24209   */\n      dup4\n        /* \"#utility.yul\":24196:24214   */\n      add\n        /* \"#utility.yul\":24187:24193   */\n      dup6\n        /* \"#utility.yul\":24143:24215   */\n      tag_249\n      jump\t// in\n    tag_543:\n        /* \"#utility.yul\":24225:24297   */\n      tag_544\n        /* \"#utility.yul\":24293:24295   */\n      0x40\n        /* \"#utility.yul\":24282:24291   */\n      dup4\n        /* \"#utility.yul\":24278:24296   */\n      add\n        /* \"#utility.yul\":24269:24275   */\n      dup5\n        /* \"#utility.yul\":24225:24297   */\n      tag_248\n      jump\t// in\n    tag_544:\n        /* \"#utility.yul\":23665:24304   */\n      swap4\n      swap3\n      pop\n      pop\n      pop\n      jump\t// out\n    stop\n    data_043c9a87247bf674d41f3502006b2d867a9b9ef61039032b811494ba5f192019 5265636f726420686173206265656e207375636365737366756c6c792064656c65746564\n    data_4978b6b03187df844a847c278aaf4a67aa6dcd97b76a4c1ab7c656e8ee41cb6d 5265636f726420697320636f7069656420627920646f63746f722f61756469742e\n    data_5017b043322db10fe51fa3f32c1cd136a7d729f76bef796bed99fdcfc2dfbfdc 446f63746f7220686173207375636365737366756c6c7920636f7069656420796f7572206d65646963616c207265636f726473\n    data_8ae2893cb4cf01e017397c0e83ef41a221a50089f1d558e3d312aaf17b08dafc 5265636f7264206973207570646174656420627920646f63746f722f61756469742e\n    data_d00529ad41deaf843cb43ae8784c496ffb8e84190407ca9560b040e883addf38 5265636f7264206973207072696e74656420627920646f63746f722f61756469742e\n    data_d38f047a012e048de635cf9ec2b5466fb7738ddfef828b834ad44ccf5f8582f9 5265636f7264206973207175657269656420627920646f63746f722f61756469742e\n    data_d4281e36ecd0888769e9fe71457480d7e262212bd1b773b45a3223c8eaef0339 4d65646963616c205265636f72642055706461746564205375636365737366756c6c79\n    data_e102acbd7087c93401d8c6a9b5bbf1ae4dfc296293aff2204f4fc047b2628e40 5265636f72642069732064656c6574656420627920646f63746f722f61756469742e\n\n    auxdata: 0xa2646970667358221220ad8acee8266b848b20c391d83b97982709492ef348142e1156976e5dcc12efce64736f6c634300081c0033\n}\n",
				"bytecode": {
					"linkReferences": {},
					"object": "608060405234801561000f575f5ffd5b506040516147bc3803806147bc8339818101604052810190610031919061025b565b335f5f6101000a81548173ffffffffffffffffffffffffffffffffffffffff021916908373ffffffffffffffffffffffffffffffffffffffff160217905550886001908161007f919061062b565b50876002908161008f919061062b565b50866003908161009f919061062b565b5085600490816100af919061062b565b5084600590816100bf919061062b565b5083600690816100cf919061062b565b5082600790816100df919061062b565b5081600890816100ef919061062b565b5080600990816100ff919061062b565b505050505050505050506106fa565b5f604051905090565b5f5ffd5b5f5ffd5b5f5ffd5b5f5ffd5b5f601f19601f8301169050919050565b7f4e487b71000000000000000000000000000000000000000000000000000000005f52604160045260245ffd5b61016d82610127565b810181811067ffffffffffffffff8211171561018c5761018b610137565b5b80604052505050565b5f61019e61010e565b90506101aa8282610164565b919050565b5f67ffffffffffffffff8211156101c9576101c8610137565b5b6101d282610127565b9050602081019050919050565b8281835e5f83830152505050565b5f6101ff6101fa846101af565b610195565b90508281526020810184848401111561021b5761021a610123565b5b6102268482856101df565b509392505050565b5f82601f8301126102425761024161011f565b5b81516102528482602086016101ed565b91505092915050565b5f5f5f5f5f5f5f5f5f6101208a8c03121561027957610278610117565b5b5f8a015167ffffffffffffffff8111156102965761029561011b565b5b6102a28c828d0161022e565b99505060208a015167ffffffffffffffff8111156102c3576102c261011b565b5b6102cf8c828d0161022e565b98505060408a015167ffffffffffffffff8111156102f0576102ef61011b565b5b6102fc8c828d0161022e565b97505060608a015167ffffffffffffffff81111561031d5761031c61011b565b5b6103298c828d0161022e565b96505060808a015167ffffffffffffffff81111561034a5761034961011b565b5b6103568c828d0161022e565b95505060a08a015167ffffffffffffffff8111156103775761037661011b565b5b6103838c828d0161022e565b94505060c08a015167ffffffffffffffff8111156103a4576103a361011b565b5b6103b08c828d0161022e565b93505060e08a015167ffffffffffffffff8111156103d1576103d061011b565b5b6103dd8c828d0161022e565b9250506101008a015167ffffffffffffffff8111156103ff576103fe61011b565b5b61040b8c828d0161022e565b9150509295985092959850929598565b5f81519050919050565b7f4e487b71000000000000000000000000000000000000000000000000000000005f52602260045260245ffd5b5f600282049050600182168061046957607f821691505b60208210810361047c5761047b610425565b5b50919050565b5f819050815f5260205f209050919050565b5f6020601f8301049050919050565b5f82821b905092915050565b5f600883026104de7fffffffffffffffffffffffffffffffffffffffffffffffffffffffffffffffff826104a3565b6104e886836104a3565b95508019841693508086168417925050509392505050565b5f819050919050565b5f819050919050565b5f61052c61052761052284610500565b610509565b610500565b9050919050565b5f819050919050565b61054583610512565b61055961055182610533565b8484546104af565b825550505050565b5f5f905090565b610570610561565b61057b81848461053c565b505050565b5b8181101561059e576105935f82610568565b600181019050610581565b5050565b601f8211156105e3576105b481610482565b6105bd84610494565b810160208510156105cc578190505b6105e06105d885610494565b830182610580565b50505b505050565b5f82821c905092915050565b5f6106035f19846008026105e8565b1980831691505092915050565b5f61061b83836105f4565b9150826002028217905092915050565b6106348261041b565b67ffffffffffffffff81111561064d5761064c610137565b5b6106578254610452565b6106628282856105a2565b5f60209050601f831160018114610693575f8415610681578287015190505b61068b8582610610565b8655506106f2565b601f1984166106a186610482565b5f5b828110156106c8578489015182556001820191506020850194506020810190506106a3565b868310156106e557848901516106e1601f8916826105f4565b8355505b6001600288020188555050505b505050505050565b6140b5806107075f395ff3fe608060405234801561000f575f5ffd5b5060043610610109575f3560e01c8063b1649729116100a0578063d60bd3101161006f578063d60bd31014610357578063db1bf8d814610387578063e111265d146103b7578063f6c25bbd146103e7578063fbad2dbf1461041757610109565b8063b164972914610297578063b24be0a1146102c7578063b6e478e5146102f7578063c73d6d9e1461032757610109565b8063a0da0ea3116100dc578063a0da0ea3146101d7578063a7bf973c14610207578063a9583c2214610237578063ab7fca1c1461026757610109565b80630389523d1461010d5780630cb16b711461013d57806316161f02146101775780631fe8bb6a146101a7575b5f5ffd5b610127600480360381019061012291906133bf565b61044a565b604051610134919061345a565b60405180910390f35b610157600480360381019061015291906133bf565b610a73565b60405161016e9b9a999897969594939291906134bb565b60405180910390f35b610191600480360381019061018c91906133bf565b610c3e565b60405161019e919061345a565b60405180910390f35b6101c160048036038101906101bc91906133bf565b611017565b6040516101ce919061345a565b60405180910390f35b6101f160048036038101906101ec91906133bf565b611189565b6040516101fe919061345a565b60405180910390f35b610221600480360381019061021c919061369e565b611569565b60405161022e919061345a565b60405180910390f35b610251600480360381019061024c91906133bf565b611935565b60405161025e91906136f8565b60405180910390f35b610281600480360381019061027c91906133bf565b611952565b60405161028e91906136f8565b60405180910390f35b6102b160048036038101906102ac91906133bf565b61196f565b6040516102be919061345a565b60405180910390f35b6102e160048036038101906102dc919061373b565b611ae2565b6040516102ee9190613766565b60405180910390f35b610311600480360381019061030c91906133bf565b611f73565b60405161031e919061345a565b60405180910390f35b610341600480360381019061033c91906133bf565b6122f5565b60405161034e919061345a565b60405180910390f35b610371600480360381019061036c91906133bf565b612657565b60405161037e919061345a565b60405180910390f35b6103a1600480360381019061039c91906133bf565b6127ca565b6040516103ae919061345a565b60405180910390f35b6103d160048036038101906103cc91906133bf565b61293d565b6040516103de919061345a565b60405180910390f35b61040160048036038101906103fc91906133bf565b612d42565b60405161040e919061345a565b60405180910390f35b610431600480360381019061042c91906133bf565b6131a8565b604051610441949392919061377f565b60405180910390f35b606060011515600a5f8473ffffffffffffffffffffffffffffffffffffffff1673ffffffffffffffffffffffffffffffffffffffff1681526020019081526020015f205f015f9054906101000a900460ff161515146104a7575f5ffd5b6001600a5f8473ffffffffffffffffffffffffffffffffffffffff1673ffffffffffffffffffffffffffffffffffffffff1681526020019081526020015f2060030154036104f3575f5ffd5b3373ffffffffffffffffffffffffffffffffffffffff16600a5f8473ffffffffffffffffffffffffffffffffffffffff1673ffffffffffffffffffffffffffffffffffffffff1681526020019081526020015f206005015f9054906101000a900473ffffffffffffffffffffffffffffffffffffffff1673ffffffffffffffffffffffffffffffffffffffff16036106e9573373ffffffffffffffffffffffffffffffffffffffff16600a5f8473ffffffffffffffffffffffffffffffffffffffff1673ffffffffffffffffffffffffffffffffffffffff1681526020019081526020015f206005015f9054906101000a900473ffffffffffffffffffffffffffffffffffffffff1673ffffffffffffffffffffffffffffffffffffffff161461061b575f5ffd5b600a5f8373ffffffffffffffffffffffffffffffffffffffff1673ffffffffffffffffffffffffffffffffffffffff1681526020019081526020015f206004018054610666906137f6565b80601f0160208091040260200160405190810160405280929190818152602001828054610692906137f6565b80156106dd5780601f106106b4576101008083540402835291602001916106dd565b820191905f5260205f20905b8154815290600101906020018083116106c057829003601f168201915b50505050509050610a6e565b600b5f3373ffffffffffffffffffffffffffffffffffffffff1673ffffffffffffffffffffffffffffffffffffffff1681526020019081526020015f205f9054906101000a900460ff161561088f57600b5f3373ffffffffffffffffffffffffffffffffffffffff1673ffffffffffffffffffffffffffffffffffffffff1681526020019081526020015f205f9054906101000a900460ff166107c1576040517f08c379a00000000000000000000000000000000000000000000000000000000081526004016107b890613870565b60405180910390fd5b600a5f8373ffffffffffffffffffffffffffffffffffffffff1673ffffffffffffffffffffffffffffffffffffffff1681526020019081526020015f20600401805461080c906137f6565b80601f0160208091040260200160405190810160405280929190818152602001828054610838906137f6565b80156108835780601f1061085a57610100808354040283529160200191610883565b820191905f5260205f20905b81548152906001019060200180831161086657829003601f168201915b50505050509050610a6e565b600c5f3373ffffffffffffffffffffffffffffffffffffffff1673ffffffffffffffffffffffffffffffffffffffff1681526020019081526020015f205f9054906101000a900460ff1615610a3557600c5f3373ffffffffffffffffffffffffffffffffffffffff1673ffffffffffffffffffffffffffffffffffffffff1681526020019081526020015f205f9054906101000a900460ff16610967576040517f08c379a000000000000000000000000000000000000000000000000000000000815260040161095e90613870565b60405180910390fd5b600a5f8373ffffffffffffffffffffffffffffffffffffffff1673ffffffffffffffffffffffffffffffffffffffff1681526020019081526020015f2060040180546109b2906137f6565b80601f01602080910402602001604051908101604052809291908181526020018280546109de906137f6565b8015610a295780601f10610a0057610100808354040283529160200191610a29565b820191905f5260205f20905b815481529060010190602001808311610a0c57829003601f168201915b50505050509050610a6e565b6040518060400160405280601a81526020017f596f752068617665206e6f20617574686f72697a6174696f6e2e00000000000081525090505b919050565b600a602052805f5260405f205f91509050805f015f9054906101000a900460ff1690806001015490806002018054610aaa906137f6565b80601f0160208091040260200160405190810160405280929190818152602001828054610ad6906137f6565b8015610b215780601f10610af857610100808354040283529160200191610b21565b820191905f5260205f20905b815481529060010190602001808311610b0457829003601f168201915b505050505090806003015490806004018054610b3c906137f6565b80601f0160208091040260200160405190810160405280929190818152602001828054610b68906137f6565b8015610bb35780601f10610b8a57610100808354040283529160200191610bb3565b820191905f5260205f20905b815481529060010190602001808311610b9657829003601f168201915b505050505090806005015f9054906101000a900473ffffffffffffffffffffffffffffffffffffffff1690806006015490806007015f9054906101000a900473ffffffffffffffffffffffffffffffffffffffff1690806008015490806009015f9054906101000a900473ffffffffffffffffffffffffffffffffffffffff169080600a015490508b565b6060600a5f8373ffffffffffffffffffffffffffffffffffffffff1673ffffffffffffffffffffffffffffffffffffffff1681526020019081526020015f205f015f9054906101000a900460ff16610c94575f5ffd5b600b5f3373ffffffffffffffffffffffffffffffffffffffff1673ffffffffffffffffffffffffffffffffffffffff1681526020019081526020015f205f9054906101000a900460ff16610ce6575f5ffd5b6001600a5f8473ffffffffffffffffffffffffffffffffffffffff1673ffffffffffffffffffffffffffffffffffffffff1681526020019081526020015f206003015403610d32575f5ffd5b33600a5f8473ffffffffffffffffffffffffffffffffffffffff1673ffffffffffffffffffffffffffffffffffffffff1681526020019081526020015f206007015f6101000a81548173ffffffffffffffffffffffffffffffffffffffff021916908373ffffffffffffffffffffffffffffffffffffffff16021790555042600a5f8473ffffffffffffffffffffffffffffffffffffffff1673ffffffffffffffffffffffffffffffffffffffff1681526020019081526020015f206008018190555060405180602001604052805f815250600a5f8473ffffffffffffffffffffffffffffffffffffffff1673ffffffffffffffffffffffffffffffffffffffff1681526020019081526020015f206004019081610e509190613a2e565b506001600a5f8473ffffffffffffffffffffffffffffffffffffffff1673ffffffffffffffffffffffffffffffffffffffff1681526020019081526020015f206003018190555060405180606001604052806022815260200161405e60229139600a5f8473ffffffffffffffffffffffffffffffffffffffff1673ffffffffffffffffffffffffffffffffffffffff1681526020019081526020015f206002019081610efc9190613a2e565b507f41e7aef4a9a40592736811efa52bae55e6fd1cd88db143dc78a6370b2aac0960600a5f8473ffffffffffffffffffffffffffffffffffffffff1673ffffffffffffffffffffffffffffffffffffffff1681526020019081526020015f20600201600a5f8573ffffffffffffffffffffffffffffffffffffffff1673ffffffffffffffffffffffffffffffffffffffff1681526020019081526020015f2060030154600a5f8673ffffffffffffffffffffffffffffffffffffffff1673ffffffffffffffffffffffffffffffffffffffff1681526020019081526020015f2060060154604051610fef93929190613b7e565b60405180910390a1604051806060016040528060248152602001613f5d602491399050919050565b60603373ffffffffffffffffffffffffffffffffffffffff165f5f9054906101000a900473ffffffffffffffffffffffffffffffffffffffff1673ffffffffffffffffffffffffffffffffffffffff1614611070575f5ffd5b600b5f8373ffffffffffffffffffffffffffffffffffffffff1673ffffffffffffffffffffffffffffffffffffffff1681526020019081526020015f205f9054906101000a900460ff1615611114575f600b5f8473ffffffffffffffffffffffffffffffffffffffff1673ffffffffffffffffffffffffffffffffffffffff1681526020019081526020015f205f6101000a81548160ff0219169083151502179055505b7ed12f5594e82ad336a8fa185a7cc3aab483eddcf14e26ebc4ea81f6400b120a8242604051611144929190613c04565b60405180910390a16040518060400160405280601481526020017f4120646f63746f722069732072656d6f7665642e0000000000000000000000008152509050919050565b606060011515600a5f8473ffffffffffffffffffffffffffffffffffffffff1673ffffffffffffffffffffffffffffffffffffffff1681526020019081526020015f205f015f9054906101000a900460ff161515146111e6575f5ffd5b3373ffffffffffffffffffffffffffffffffffffffff16600a5f8473ffffffffffffffffffffffffffffffffffffffff1673ffffffffffffffffffffffffffffffffffffffff1681526020019081526020015f206005015f9054906101000a900473ffffffffffffffffffffffffffffffffffffffff1673ffffffffffffffffffffffffffffffffffffffff161461127c575f5ffd5b6001600a5f8473ffffffffffffffffffffffffffffffffffffffff1673ffffffffffffffffffffffffffffffffffffffff1681526020019081526020015f2060030154036112c8575f5ffd5b60405180602001604052805f815250600a5f8473ffffffffffffffffffffffffffffffffffffffff1673ffffffffffffffffffffffffffffffffffffffff1681526020019081526020015f2060040190816113239190613a2e565b5042600a5f8473ffffffffffffffffffffffffffffffffffffffff1673ffffffffffffffffffffffffffffffffffffffff1681526020019081526020015f20600601819055506001600a5f8473ffffffffffffffffffffffffffffffffffffffff1673ffffffffffffffffffffffffffffffffffffffff1681526020019081526020015f20600301819055506040518060400160405280601d81526020017f5265636f72642069732064656c657465642062792070617469656e742e000000815250600a5f8473ffffffffffffffffffffffffffffffffffffffff1673ffffffffffffffffffffffffffffffffffffffff1681526020019081526020015f2060020190816114319190613a2e565b507fc5451672c113180dcc201ad0122fe0677464f75276e03a264699d75d16906378600a5f8473ffffffffffffffffffffffffffffffffffffffff1673ffffffffffffffffffffffffffffffffffffffff1681526020019081526020015f20600201600a5f8573ffffffffffffffffffffffffffffffffffffffff1673ffffffffffffffffffffffffffffffffffffffff1681526020019081526020015f2060030154600a5f8673ffffffffffffffffffffffffffffffffffffffff1673ffffffffffffffffffffffffffffffffffffffff1681526020019081526020015f206006015460405161152493929190613b7e565b60405180910390a16040518060400160405280601d81526020017f5265636f72642069732064656c657465642062792070617469656e742e0000008152509050919050565b6060600a5f8473ffffffffffffffffffffffffffffffffffffffff1673ffffffffffffffffffffffffffffffffffffffff1681526020019081526020015f205f015f9054906101000a900460ff166115bf575f5ffd5b600b5f3373ffffffffffffffffffffffffffffffffffffffff1673ffffffffffffffffffffffffffffffffffffffff1681526020019081526020015f205f9054906101000a900460ff16611611575f5ffd5b6001600a5f8573ffffffffffffffffffffffffffffffffffffffff1673ffffffffffffffffffffffffffffffffffffffff1681526020019081526020015f20600301540361165d575f5ffd5b33600a5f8573ffffffffffffffffffffffffffffffffffffffff1673ffffffffffffffffffffffffffffffffffffffff1681526020019081526020015f206007015f6101000a81548173ffffffffffffffffffffffffffffffffffffffff021916908373ffffffffffffffffffffffffffffffffffffffff16021790555042600a5f8573ffffffffffffffffffffffffffffffffffffffff1673ffffffffffffffffffffffffffffffffffffffff1681526020019081526020015f206008018190555081600a5f8573ffffffffffffffffffffffffffffffffffffffff1673ffffffffffffffffffffffffffffffffffffffff1681526020019081526020015f20600401908161176d9190613a2e565b506005600a5f8573ffffffffffffffffffffffffffffffffffffffff1673ffffffffffffffffffffffffffffffffffffffff1681526020019081526020015f2060030181905550604051806060016040528060228152602001613fd560229139600a5f8573ffffffffffffffffffffffffffffffffffffffff1673ffffffffffffffffffffffffffffffffffffffff1681526020019081526020015f2060020190816118199190613a2e565b507f89c9a137dd6383374b8e2a092d40bc74fda69a614e9ece010b1f4eaded8f841c600a5f8573ffffffffffffffffffffffffffffffffffffffff1673ffffffffffffffffffffffffffffffffffffffff1681526020019081526020015f20600201600a5f8673ffffffffffffffffffffffffffffffffffffffff1673ffffffffffffffffffffffffffffffffffffffff1681526020019081526020015f2060030154600a5f8773ffffffffffffffffffffffffffffffffffffffff1673ffffffffffffffffffffffffffffffffffffffff1681526020019081526020015f206006015460405161190c93929190613b7e565b60405180910390a160405180606001604052806023815260200161403b60239139905092915050565b600b602052805f5260405f205f915054906101000a900460ff1681565b600c602052805f5260405f205f915054906101000a900460ff1681565b60603373ffffffffffffffffffffffffffffffffffffffff165f5f9054906101000a900473ffffffffffffffffffffffffffffffffffffffff1673ffffffffffffffffffffffffffffffffffffffff16146119c8575f5ffd5b600c5f8373ffffffffffffffffffffffffffffffffffffffff1673ffffffffffffffffffffffffffffffffffffffff1681526020019081526020015f205f9054906101000a900460ff16611a6c576001600c5f8473ffffffffffffffffffffffffffffffffffffffff1673ffffffffffffffffffffffffffffffffffffffff1681526020019081526020015f205f6101000a81548160ff0219169083151502179055505b7f8fbe047a5fafe34457a33e6bd83075c8ffed3878dc48a48d31ce3948bbb22cd48242604051611a9d929190613c88565b60405180910390a16040518060400160405280601281526020017f416e2061756469742069732061646465642e00000000000000000000000000008152509050919050565b5f3373ffffffffffffffffffffffffffffffffffffffff165f5f9054906101000a900473ffffffffffffffffffffffffffffffffffffffff1673ffffffffffffffffffffffffffffffffffffffff1614611b3a575f5ffd5b5f60023342604051602001611b50929190613d27565b604051602081830303815290604052604051611b6c9190613d96565b602060405180830381855afa158015611b87573d5f5f3e3d5ffd5b5050506040513d601f19601f82011682018060405250810190611baa9190613ddf565b5f1c90506001600a5f8373ffffffffffffffffffffffffffffffffffffffff1673ffffffffffffffffffffffffffffffffffffffff1681526020019081526020015f205f015f6101000a81548160ff0219169083151502179055508073ffffffffffffffffffffffffffffffffffffffff16600a5f8373ffffffffffffffffffffffffffffffffffffffff1673ffffffffffffffffffffffffffffffffffffffff1681526020019081526020015f20600101819055506040518060400160405280601d81526020017f4e6577204d65646963616c205265636f72642069732063726561746564000000815250600a5f8373ffffffffffffffffffffffffffffffffffffffff1673ffffffffffffffffffffffffffffffffffffffff1681526020019081526020015f206002019081611ce29190613a2e565b505f600a5f8373ffffffffffffffffffffffffffffffffffffffff1673ffffffffffffffffffffffffffffffffffffffff1681526020019081526020015f20600301819055506040518060400160405280600e81526020017f566973697420696e697469617465000000000000000000000000000000000000815250600a5f8373ffffffffffffffffffffffffffffffffffffffff1673ffffffffffffffffffffffffffffffffffffffff1681526020019081526020015f206004019081611daa9190613a2e565b5033600a5f8373ffffffffffffffffffffffffffffffffffffffff1673ffffffffffffffffffffffffffffffffffffffff1681526020019081526020015f206005015f6101000a81548173ffffffffffffffffffffffffffffffffffffffff021916908373ffffffffffffffffffffffffffffffffffffffff16021790555082600a5f8373ffffffffffffffffffffffffffffffffffffffff1673ffffffffffffffffffffffffffffffffffffffff1681526020019081526020015f20600601819055507f14207ac2653501de32da60b3fee91a4d0c170419f5edd0528124b1c526a7050981600a5f8473ffffffffffffffffffffffffffffffffffffffff1673ffffffffffffffffffffffffffffffffffffffff1681526020019081526020015f20600201600a5f8573ffffffffffffffffffffffffffffffffffffffff1673ffffffffffffffffffffffffffffffffffffffff1681526020019081526020015f2060030154600a5f8673ffffffffffffffffffffffffffffffffffffffff1673ffffffffffffffffffffffffffffffffffffffff1681526020019081526020015f2060060154604051611f629493929190613e0a565b60405180910390a180915050919050565b60605f604051806060016040528060228152602001614019602291399050600a5f8473ffffffffffffffffffffffffffffffffffffffff1673ffffffffffffffffffffffffffffffffffffffff1681526020019081526020015f205f015f9054906101000a900460ff16611fe5575f5ffd5b600b5f3373ffffffffffffffffffffffffffffffffffffffff1673ffffffffffffffffffffffffffffffffffffffff1681526020019081526020015f205f9054906101000a900460ff16612037575f5ffd5b6001600a5f8573ffffffffffffffffffffffffffffffffffffffff1673ffffffffffffffffffffffffffffffffffffffff1681526020019081526020015f206003015403612083575f5ffd5b33600a5f8573ffffffffffffffffffffffffffffffffffffffff1673ffffffffffffffffffffffffffffffffffffffff1681526020019081526020015f206007015f6101000a81548173ffffffffffffffffffffffffffffffffffffffff021916908373ffffffffffffffffffffffffffffffffffffffff16021790555042600a5f8573ffffffffffffffffffffffffffffffffffffffff1673ffffffffffffffffffffffffffffffffffffffff1681526020019081526020015f20600801819055506003600a5f8573ffffffffffffffffffffffffffffffffffffffff1673ffffffffffffffffffffffffffffffffffffffff1681526020019081526020015f206003018190555060405180606001604052806022815260200161401960229139600a5f8573ffffffffffffffffffffffffffffffffffffffff1673ffffffffffffffffffffffffffffffffffffffff1681526020019081526020015f2060020190816121f19190613a2e565b507fd389c9d6eec9dc6179e4cfc56c2b4a3ddab405290f85c5ca35457c25da541465600a5f8573ffffffffffffffffffffffffffffffffffffffff1673ffffffffffffffffffffffffffffffffffffffff1681526020019081526020015f20600201600a5f8673ffffffffffffffffffffffffffffffffffffffff1673ffffffffffffffffffffffffffffffffffffffff1681526020019081526020015f2060030154600a5f8773ffffffffffffffffffffffffffffffffffffffff1673ffffffffffffffffffffffffffffffffffffffff1681526020019081526020015f20600601546040516122e493929190613b7e565b60405180910390a180915050919050565b6060600a5f8373ffffffffffffffffffffffffffffffffffffffff1673ffffffffffffffffffffffffffffffffffffffff1681526020019081526020015f205f015f9054906101000a900460ff1661234b575f5ffd5b600b5f3373ffffffffffffffffffffffffffffffffffffffff1673ffffffffffffffffffffffffffffffffffffffff1681526020019081526020015f205f9054906101000a900460ff1661239d575f5ffd5b6001600a5f8473ffffffffffffffffffffffffffffffffffffffff1673ffffffffffffffffffffffffffffffffffffffff1681526020019081526020015f2060030154036123e9575f5ffd5b33600a5f8473ffffffffffffffffffffffffffffffffffffffff1673ffffffffffffffffffffffffffffffffffffffff1681526020019081526020015f206007015f6101000a81548173ffffffffffffffffffffffffffffffffffffffff021916908373ffffffffffffffffffffffffffffffffffffffff16021790555042600a5f8473ffffffffffffffffffffffffffffffffffffffff1673ffffffffffffffffffffffffffffffffffffffff1681526020019081526020015f20600801819055506004600a5f8473ffffffffffffffffffffffffffffffffffffffff1673ffffffffffffffffffffffffffffffffffffffff1681526020019081526020015f2060030181905550604051806060016040528060228152602001613ff760229139600a5f8473ffffffffffffffffffffffffffffffffffffffff1673ffffffffffffffffffffffffffffffffffffffff1681526020019081526020015f2060020190816125579190613a2e565b507f291023100cfc44fba59b279273f751e0fa64289217179d5c9835fc07ab5b1e4f600a5f8473ffffffffffffffffffffffffffffffffffffffff1673ffffffffffffffffffffffffffffffffffffffff1681526020019081526020015f20600201600a5f8573ffffffffffffffffffffffffffffffffffffffff1673ffffffffffffffffffffffffffffffffffffffff1681526020019081526020015f2060030154600a5f8673ffffffffffffffffffffffffffffffffffffffff1673ffffffffffffffffffffffffffffffffffffffff1681526020019081526020015f206006015460405161264a93929190613b7e565b60405180910390a1919050565b60603373ffffffffffffffffffffffffffffffffffffffff165f5f9054906101000a900473ffffffffffffffffffffffffffffffffffffffff1673ffffffffffffffffffffffffffffffffffffffff16146126b0575f5ffd5b600c5f8373ffffffffffffffffffffffffffffffffffffffff1673ffffffffffffffffffffffffffffffffffffffff1681526020019081526020015f205f9054906101000a900460ff1615612754575f600c5f8473ffffffffffffffffffffffffffffffffffffffff1673ffffffffffffffffffffffffffffffffffffffff1681526020019081526020015f205f6101000a81548160ff0219169083151502179055505b7fab14abf9ce720d4dfa04591da5de1ead53e0c4fdadfca225baaea81626567d4d8242604051612785929190613e9e565b60405180910390a16040518060400160405280601481526020017f4120646f63746f722069732072656d6f7665642e0000000000000000000000008152509050919050565b60603373ffffffffffffffffffffffffffffffffffffffff165f5f9054906101000a900473ffffffffffffffffffffffffffffffffffffffff1673ffffffffffffffffffffffffffffffffffffffff1614612823575f5ffd5b600b5f8373ffffffffffffffffffffffffffffffffffffffff1673ffffffffffffffffffffffffffffffffffffffff1681526020019081526020015f205f9054906101000a900460ff166128c7576001600b5f8473ffffffffffffffffffffffffffffffffffffffff1673ffffffffffffffffffffffffffffffffffffffff1681526020019081526020015f205f6101000a81548160ff0219169083151502179055505b7f51ab0ad16f4f10b093a4b9bc75d760dc953842c743d54ae9faa9b5aae40659aa82426040516128f8929190613f22565b60405180910390a16040518060400160405280601281526020017f4120646f63746f722069732061646465642e00000000000000000000000000008152509050919050565b6060600a5f8373ffffffffffffffffffffffffffffffffffffffff1673ffffffffffffffffffffffffffffffffffffffff1681526020019081526020015f205f015f9054906101000a900460ff16612993575f5ffd5b600b5f3373ffffffffffffffffffffffffffffffffffffffff1673ffffffffffffffffffffffffffffffffffffffff1681526020019081526020015f205f9054906101000a900460ff1680612a2e5750600c5f3373ffffffffffffffffffffffffffffffffffffffff1673ffffffffffffffffffffffffffffffffffffffff1681526020019081526020015f205f9054906101000a900460ff165b612a6d576040517f08c379a0000000000000000000000000000000000000000000000000000000008152600401612a6490613870565b60405180910390fd5b6001600a5f8473ffffffffffffffffffffffffffffffffffffffff1673ffffffffffffffffffffffffffffffffffffffff1681526020019081526020015f206003015403612ab9575f5ffd5b33600a5f8473ffffffffffffffffffffffffffffffffffffffff1673ffffffffffffffffffffffffffffffffffffffff1681526020019081526020015f206007015f6101000a81548173ffffffffffffffffffffffffffffffffffffffff021916908373ffffffffffffffffffffffffffffffffffffffff16021790555042600a5f8473ffffffffffffffffffffffffffffffffffffffff1673ffffffffffffffffffffffffffffffffffffffff1681526020019081526020015f20600801819055506005600a5f8473ffffffffffffffffffffffffffffffffffffffff1673ffffffffffffffffffffffffffffffffffffffff1681526020019081526020015f2060030181905550604051806060016040528060218152602001613f8160219139600a5f8473ffffffffffffffffffffffffffffffffffffffff1673ffffffffffffffffffffffffffffffffffffffff1681526020019081526020015f206002019081612c279190613a2e565b507f49b37b6c2e1da17dbf397324fe77f392778404db069d7652d87feb8e0be2bb1d600a5f8473ffffffffffffffffffffffffffffffffffffffff1673ffffffffffffffffffffffffffffffffffffffff1681526020019081526020015f20600201600a5f8573ffffffffffffffffffffffffffffffffffffffff1673ffffffffffffffffffffffffffffffffffffffff1681526020019081526020015f2060030154600a5f8673ffffffffffffffffffffffffffffffffffffffff1673ffffffffffffffffffffffffffffffffffffffff1681526020019081526020015f2060060154604051612d1a93929190613b7e565b60405180910390a1604051806060016040528060338152602001613fa2603391399050919050565b606060011515600a5f8473ffffffffffffffffffffffffffffffffffffffff1673ffffffffffffffffffffffffffffffffffffffff1681526020019081526020015f205f015f9054906101000a900460ff16151514612d9f575f5ffd5b6001600a5f8473ffffffffffffffffffffffffffffffffffffffff1673ffffffffffffffffffffffffffffffffffffffff1681526020019081526020015f206003015403612deb575f5ffd5b600a5f8373ffffffffffffffffffffffffffffffffffffffff1673ffffffffffffffffffffffffffffffffffffffff1681526020019081526020015f206005015f9054906101000a900473ffffffffffffffffffffffffffffffffffffffff1673ffffffffffffffffffffffffffffffffffffffff163373ffffffffffffffffffffffffffffffffffffffff1614158015612ecd5750600b5f3373ffffffffffffffffffffffffffffffffffffffff1673ffffffffffffffffffffffffffffffffffffffff1681526020019081526020015f205f9054906101000a900460ff16155b8015612f205750600c5f3373ffffffffffffffffffffffffffffffffffffffff1673ffffffffffffffffffffffffffffffffffffffff1681526020019081526020015f205f9054906101000a900460ff16155b15612f62576040518060400160405280601a81526020017f596f752068617665206e6f20617574686f72697a6174696f6e2e00000000000081525090506131a3565b42600a5f8473ffffffffffffffffffffffffffffffffffffffff1673ffffffffffffffffffffffffffffffffffffffff1681526020019081526020015f20600601819055506004600a5f8473ffffffffffffffffffffffffffffffffffffffff1673ffffffffffffffffffffffffffffffffffffffff1681526020019081526020015f20600301819055506040518060400160405280601d81526020017f5265636f7264206973207072696e7465642062792070617469656e742e000000815250600a5f8473ffffffffffffffffffffffffffffffffffffffff1673ffffffffffffffffffffffffffffffffffffffff1681526020019081526020015f20600201908161306f9190613a2e565b507fddaa844cc6ae769766c27824c8e5c94b60683cee90d23f0a99f33b2b243a1fde600a5f8473ffffffffffffffffffffffffffffffffffffffff1673ffffffffffffffffffffffffffffffffffffffff1681526020019081526020015f20600201600a5f8573ffffffffffffffffffffffffffffffffffffffff1673ffffffffffffffffffffffffffffffffffffffff1681526020019081526020015f2060030154600a5f8673ffffffffffffffffffffffffffffffffffffffff1673ffffffffffffffffffffffffffffffffffffffff1681526020019081526020015f206006015460405161316293929190613b7e565b60405180910390a16040518060400160405280601d81526020017f5265636f7264206973207072696e7465642062792070617469656e742e00000081525090505b919050565b5f5f60605f600a5f8673ffffffffffffffffffffffffffffffffffffffff1673ffffffffffffffffffffffffffffffffffffffff1681526020019081526020015f205f015f9054906101000a900460ff16600a5f8773ffffffffffffffffffffffffffffffffffffffff1673ffffffffffffffffffffffffffffffffffffffff1681526020019081526020015f2060010154600a5f8873ffffffffffffffffffffffffffffffffffffffff1673ffffffffffffffffffffffffffffffffffffffff1681526020019081526020015f20600201600a5f8973ffffffffffffffffffffffffffffffffffffffff1673ffffffffffffffffffffffffffffffffffffffff1681526020019081526020015f20600301548180546132c7906137f6565b80601f01602080910402602001604051908101604052809291908181526020018280546132f3906137f6565b801561333e5780601f106133155761010080835404028352916020019161333e565b820191905f5260205f20905b81548152906001019060200180831161332157829003601f168201915b5050505050915093509350935093509193509193565b5f604051905090565b5f5ffd5b5f5ffd5b5f73ffffffffffffffffffffffffffffffffffffffff82169050919050565b5f61338e82613365565b9050919050565b61339e81613384565b81146133a8575f5ffd5b50565b5f813590506133b981613395565b92915050565b5f602082840312156133d4576133d361335d565b5b5f6133e1848285016133ab565b91505092915050565b5f81519050919050565b5f82825260208201905092915050565b8281835e5f83830152505050565b5f601f19601f8301169050919050565b5f61342c826133ea565b61343681856133f4565b9350613446818560208601613404565b61344f81613412565b840191505092915050565b5f6020820190508181035f8301526134728184613422565b905092915050565b5f8115159050919050565b61348e8161347a565b82525050565b5f819050919050565b6134a681613494565b82525050565b6134b581613384565b82525050565b5f610160820190506134cf5f83018e613485565b6134dc602083018d61349d565b81810360408301526134ee818c613422565b90506134fd606083018b61349d565b818103608083015261350f818a613422565b905061351e60a08301896134ac565b61352b60c083018861349d565b61353860e08301876134ac565b61354661010083018661349d565b6135546101208301856134ac565b61356261014083018461349d565b9c9b505050505050505050505050565b5f5ffd5b5f5ffd5b7f4e487b71000000000000000000000000000000000000000000000000000000005f52604160045260245ffd5b6135b082613412565b810181811067ffffffffffffffff821117156135cf576135ce61357a565b5b80604052505050565b5f6135e1613354565b90506135ed82826135a7565b919050565b5f67ffffffffffffffff82111561360c5761360b61357a565b5b61361582613412565b9050602081019050919050565b828183375f83830152505050565b5f61364261363d846135f2565b6135d8565b90508281526020810184848401111561365e5761365d613576565b5b613669848285613622565b509392505050565b5f82601f83011261368557613684613572565b5b8135613695848260208601613630565b91505092915050565b5f5f604083850312156136b4576136b361335d565b5b5f6136c1858286016133ab565b925050602083013567ffffffffffffffff8111156136e2576136e1613361565b5b6136ee85828601613671565b9150509250929050565b5f60208201905061370b5f830184613485565b92915050565b61371a81613494565b8114613724575f5ffd5b50565b5f8135905061373581613711565b92915050565b5f602082840312156137505761374f61335d565b5b5f61375d84828501613727565b91505092915050565b5f6020820190506137795f8301846134ac565b92915050565b5f6080820190506137925f830187613485565b61379f602083018661349d565b81810360408301526137b18185613422565b90506137c0606083018461349d565b95945050505050565b7f4e487b71000000000000000000000000000000000000000000000000000000005f52602260045260245ffd5b5f600282049050600182168061380d57607f821691505b6020821081036138205761381f6137c9565b5b50919050565b7f4e6f7420776f726b696e670000000000000000000000000000000000000000005f82015250565b5f61385a600b836133f4565b915061386582613826565b602082019050919050565b5f6020820190508181035f8301526138878161384e565b9050919050565b5f819050815f5260205f209050919050565b5f6020601f8301049050919050565b5f82821b905092915050565b5f600883026138ea7fffffffffffffffffffffffffffffffffffffffffffffffffffffffffffffffff826138af565b6138f486836138af565b95508019841693508086168417925050509392505050565b5f819050919050565b5f61392f61392a61392584613494565b61390c565b613494565b9050919050565b5f819050919050565b61394883613915565b61395c61395482613936565b8484546138bb565b825550505050565b5f5f905090565b613973613964565b61397e81848461393f565b505050565b5b818110156139a1576139965f8261396b565b600181019050613984565b5050565b601f8211156139e6576139b78161388e565b6139c0846138a0565b810160208510156139cf578190505b6139e36139db856138a0565b830182613983565b50505b505050565b5f82821c905092915050565b5f613a065f19846008026139eb565b1980831691505092915050565b5f613a1e83836139f7565b9150826002028217905092915050565b613a37826133ea565b67ffffffffffffffff811115613a5057613a4f61357a565b5b613a5a82546137f6565b613a658282856139a5565b5f60209050601f831160018114613a96575f8415613a84578287015190505b613a8e8582613a13565b865550613af5565b601f198416613aa48661388e565b5f5b82811015613acb57848901518255600182019150602085019450602081019050613aa6565b86831015613ae85784890151613ae4601f8916826139f7565b8355505b6001600288020188555050505b505050505050565b5f8154613b09816137f6565b613b1381866133f4565b9450600182165f8114613b2d5760018114613b4357613b75565b60ff198316865281151560200286019350613b75565b613b4c8561388e565b5f5b83811015613b6d57815481890152600182019150602081019050613b4e565b808801955050505b50505092915050565b5f6060820190508181035f830152613b968186613afd565b9050613ba5602083018561349d565b613bb2604083018461349d565b949350505050565b7f4120646f63746f722069732072656d6f7665642e0000000000000000000000005f82015250565b5f613bee6014836133f4565b9150613bf982613bba565b602082019050919050565b5f6060820190508181035f830152613c1b81613be2565b9050613c2a60208301856134ac565b613c37604083018461349d565b9392505050565b7f416e2061756469742069732061646465642e00000000000000000000000000005f82015250565b5f613c726012836133f4565b9150613c7d82613c3e565b602082019050919050565b5f6060820190508181035f830152613c9f81613c66565b9050613cae60208301856134ac565b613cbb604083018461349d565b9392505050565b5f8160601b9050919050565b5f613cd882613cc2565b9050919050565b5f613ce982613cce565b9050919050565b613d01613cfc82613384565b613cdf565b82525050565b5f819050919050565b613d21613d1c82613494565b613d07565b82525050565b5f613d328285613cf0565b601482019150613d428284613d10565b6020820191508190509392505050565b5f81519050919050565b5f81905092915050565b5f613d7082613d52565b613d7a8185613d5c565b9350613d8a818560208601613404565b80840191505092915050565b5f613da18284613d66565b915081905092915050565b5f819050919050565b613dbe81613dac565b8114613dc8575f5ffd5b50565b5f81519050613dd981613db5565b92915050565b5f60208284031215613df457613df361335d565b5b5f613e0184828501613dcb565b91505092915050565b5f608082019050613e1d5f8301876134ac565b8181036020830152613e2f8186613afd565b9050613e3e604083018561349d565b613e4b606083018461349d565b95945050505050565b7f416e2061756469742069732072656d6f7665642e0000000000000000000000005f82015250565b5f613e886014836133f4565b9150613e9382613e54565b602082019050919050565b5f6060820190508181035f830152613eb581613e7c565b9050613ec460208301856134ac565b613ed1604083018461349d565b9392505050565b7f4120646f63746f722069732061646465642e00000000000000000000000000005f82015250565b5f613f0c6012836133f4565b9150613f1782613ed8565b602082019050919050565b5f6060820190508181035f830152613f3981613f00565b9050613f4860208301856134ac565b613f55604083018461349d565b939250505056fe5265636f726420686173206265656e207375636365737366756c6c792064656c657465645265636f726420697320636f7069656420627920646f63746f722f61756469742e446f63746f7220686173207375636365737366756c6c7920636f7069656420796f7572206d65646963616c207265636f7264735265636f7264206973207570646174656420627920646f63746f722f61756469742e5265636f7264206973207072696e74656420627920646f63746f722f61756469742e5265636f7264206973207175657269656420627920646f63746f722f61756469742e4d65646963616c205265636f72642055706461746564205375636365737366756c6c795265636f72642069732064656c6574656420627920646f63746f722f61756469742ea2646970667358221220ad8acee8266b848b20c391d83b97982709492ef348142e1156976e5dcc12efce64736f6c634300081c0033",
					"opcodes": "PUSH1 0x80 PUSH1 0x40 MSTORE CALLVALUE DUP1 ISZERO PUSH2 0xF JUMPI PUSH0 PUSH0 REVERT JUMPDEST POP PUSH1 0x40 MLOAD PUSH2 0x47BC CODESIZE SUB DUP1 PUSH2 0x47BC DUP4 CODECOPY DUP2 DUP2 ADD PUSH1 0x40 MSTORE DUP2 ADD SWAP1 PUSH2 0x31 SWAP2 SWAP1 PUSH2 0x25B JUMP JUMPDEST CALLER PUSH0 PUSH0 PUSH2 0x100 EXP DUP2 SLOAD DUP2 PUSH20 0xFFFFFFFFFFFFFFFFFFFFFFFFFFFFFFFFFFFFFFFF MUL NOT AND SWAP1 DUP4 PUSH20 0xFFFFFFFFFFFFFFFFFFFFFFFFFFFFFFFFFFFFFFFF AND MUL OR SWAP1 SSTORE POP DUP9 PUSH1 0x1 SWAP1 DUP2 PUSH2 0x7F SWAP2 SWAP1 PUSH2 0x62B JUMP JUMPDEST POP DUP8 PUSH1 0x2 SWAP1 DUP2 PUSH2 0x8F SWAP2 SWAP1 PUSH2 0x62B JUMP JUMPDEST POP DUP7 PUSH1 0x3 SWAP1 DUP2 PUSH2 0x9F SWAP2 SWAP1 PUSH2 0x62B JUMP JUMPDEST POP DUP6 PUSH1 0x4 SWAP1 DUP2 PUSH2 0xAF SWAP2 SWAP1 PUSH2 0x62B JUMP JUMPDEST POP DUP5 PUSH1 0x5 SWAP1 DUP2 PUSH2 0xBF SWAP2 SWAP1 PUSH2 0x62B JUMP JUMPDEST POP DUP4 PUSH1 0x6 SWAP1 DUP2 PUSH2 0xCF SWAP2 SWAP1 PUSH2 0x62B JUMP JUMPDEST POP DUP3 PUSH1 0x7 SWAP1 DUP2 PUSH2 0xDF SWAP2 SWAP1 PUSH2 0x62B JUMP JUMPDEST POP DUP2 PUSH1 0x8 SWAP1 DUP2 PUSH2 0xEF SWAP2 SWAP1 PUSH2 0x62B JUMP JUMPDEST POP DUP1 PUSH1 0x9 SWAP1 DUP2 PUSH2 0xFF SWAP2 SWAP1 PUSH2 0x62B JUMP JUMPDEST POP POP POP POP POP POP POP POP POP POP PUSH2 0x6FA JUMP JUMPDEST PUSH0 PUSH1 0x40 MLOAD SWAP1 POP SWAP1 JUMP JUMPDEST PUSH0 PUSH0 REVERT JUMPDEST PUSH0 PUSH0 REVERT JUMPDEST PUSH0 PUSH0 REVERT JUMPDEST PUSH0 PUSH0 REVERT JUMPDEST PUSH0 PUSH1 0x1F NOT PUSH1 0x1F DUP4 ADD AND SWAP1 POP SWAP2 SWAP1 POP JUMP JUMPDEST PUSH32 0x4E487B7100000000000000000000000000000000000000000000000000000000 PUSH0 MSTORE PUSH1 0x41 PUSH1 0x4 MSTORE PUSH1 0x24 PUSH0 REVERT JUMPDEST PUSH2 0x16D DUP3 PUSH2 0x127 JUMP JUMPDEST DUP2 ADD DUP2 DUP2 LT PUSH8 0xFFFFFFFFFFFFFFFF DUP3 GT OR ISZERO PUSH2 0x18C JUMPI PUSH2 0x18B PUSH2 0x137 JUMP JUMPDEST JUMPDEST DUP1 PUSH1 0x40 MSTORE POP POP POP JUMP JUMPDEST PUSH0 PUSH2 0x19E PUSH2 0x10E JUMP JUMPDEST SWAP1 POP PUSH2 0x1AA DUP3 DUP3 PUSH2 0x164 JUMP JUMPDEST SWAP2 SWAP1 POP JUMP JUMPDEST PUSH0 PUSH8 0xFFFFFFFFFFFFFFFF DUP3 GT ISZERO PUSH2 0x1C9 JUMPI PUSH2 0x1C8 PUSH2 0x137 JUMP JUMPDEST JUMPDEST PUSH2 0x1D2 DUP3 PUSH2 0x127 JUMP JUMPDEST SWAP1 POP PUSH1 0x20 DUP2 ADD SWAP1 POP SWAP2 SWAP1 POP JUMP JUMPDEST DUP3 DUP2 DUP4 MCOPY PUSH0 DUP4 DUP4 ADD MSTORE POP POP POP JUMP JUMPDEST PUSH0 PUSH2 0x1FF PUSH2 0x1FA DUP5 PUSH2 0x1AF JUMP JUMPDEST PUSH2 0x195 JUMP JUMPDEST SWAP1 POP DUP3 DUP2 MSTORE PUSH1 0x20 DUP2 ADD DUP5 DUP5 DUP5 ADD GT ISZERO PUSH2 0x21B JUMPI PUSH2 0x21A PUSH2 0x123 JUMP JUMPDEST JUMPDEST PUSH2 0x226 DUP5 DUP3 DUP6 PUSH2 0x1DF JUMP JUMPDEST POP SWAP4 SWAP3 POP POP POP JUMP JUMPDEST PUSH0 DUP3 PUSH1 0x1F DUP4 ADD SLT PUSH2 0x242 JUMPI PUSH2 0x241 PUSH2 0x11F JUMP JUMPDEST JUMPDEST DUP2 MLOAD PUSH2 0x252 DUP5 DUP3 PUSH1 0x20 DUP7 ADD PUSH2 0x1ED JUMP JUMPDEST SWAP2 POP POP SWAP3 SWAP2 POP POP JUMP JUMPDEST PUSH0 PUSH0 PUSH0 PUSH0 PUSH0 PUSH0 PUSH0 PUSH0 PUSH0 PUSH2 0x120 DUP11 DUP13 SUB SLT ISZERO PUSH2 0x279 JUMPI PUSH2 0x278 PUSH2 0x117 JUMP JUMPDEST JUMPDEST PUSH0 DUP11 ADD MLOAD PUSH8 0xFFFFFFFFFFFFFFFF DUP2 GT ISZERO PUSH2 0x296 JUMPI PUSH2 0x295 PUSH2 0x11B JUMP JUMPDEST JUMPDEST PUSH2 0x2A2 DUP13 DUP3 DUP14 ADD PUSH2 0x22E JUMP JUMPDEST SWAP10 POP POP PUSH1 0x20 DUP11 ADD MLOAD PUSH8 0xFFFFFFFFFFFFFFFF DUP2 GT ISZERO PUSH2 0x2C3 JUMPI PUSH2 0x2C2 PUSH2 0x11B JUMP JUMPDEST JUMPDEST PUSH2 0x2CF DUP13 DUP3 DUP14 ADD PUSH2 0x22E JUMP JUMPDEST SWAP9 POP POP PUSH1 0x40 DUP11 ADD MLOAD PUSH8 0xFFFFFFFFFFFFFFFF DUP2 GT ISZERO PUSH2 0x2F0 JUMPI PUSH2 0x2EF PUSH2 0x11B JUMP JUMPDEST JUMPDEST PUSH2 0x2FC DUP13 DUP3 DUP14 ADD PUSH2 0x22E JUMP JUMPDEST SWAP8 POP POP PUSH1 0x60 DUP11 ADD MLOAD PUSH8 0xFFFFFFFFFFFFFFFF DUP2 GT ISZERO PUSH2 0x31D JUMPI PUSH2 0x31C PUSH2 0x11B JUMP JUMPDEST JUMPDEST PUSH2 0x329 DUP13 DUP3 DUP14 ADD PUSH2 0x22E JUMP JUMPDEST SWAP7 POP POP PUSH1 0x80 DUP11 ADD MLOAD PUSH8 0xFFFFFFFFFFFFFFFF DUP2 GT ISZERO PUSH2 0x34A JUMPI PUSH2 0x349 PUSH2 0x11B JUMP JUMPDEST JUMPDEST PUSH2 0x356 DUP13 DUP3 DUP14 ADD PUSH2 0x22E JUMP JUMPDEST SWAP6 POP POP PUSH1 0xA0 DUP11 ADD MLOAD PUSH8 0xFFFFFFFFFFFFFFFF DUP2 GT ISZERO PUSH2 0x377 JUMPI PUSH2 0x376 PUSH2 0x11B JUMP JUMPDEST JUMPDEST PUSH2 0x383 DUP13 DUP3 DUP14 ADD PUSH2 0x22E JUMP JUMPDEST SWAP5 POP POP PUSH1 0xC0 DUP11 ADD MLOAD PUSH8 0xFFFFFFFFFFFFFFFF DUP2 GT ISZERO PUSH2 0x3A4 JUMPI PUSH2 0x3A3 PUSH2 0x11B JUMP JUMPDEST JUMPDEST PUSH2 0x3B0 DUP13 DUP3 DUP14 ADD PUSH2 0x22E JUMP JUMPDEST SWAP4 POP POP PUSH1 0xE0 DUP11 ADD MLOAD PUSH8 0xFFFFFFFFFFFFFFFF DUP2 GT ISZERO PUSH2 0x3D1 JUMPI PUSH2 0x3D0 PUSH2 0x11B JUMP JUMPDEST JUMPDEST PUSH2 0x3DD DUP13 DUP3 DUP14 ADD PUSH2 0x22E JUMP JUMPDEST SWAP3 POP POP PUSH2 0x100 DUP11 ADD MLOAD PUSH8 0xFFFFFFFFFFFFFFFF DUP2 GT ISZERO PUSH2 0x3FF JUMPI PUSH2 0x3FE PUSH2 0x11B JUMP JUMPDEST JUMPDEST PUSH2 0x40B DUP13 DUP3 DUP14 ADD PUSH2 0x22E JUMP JUMPDEST SWAP2 POP POP SWAP3 SWAP6 SWAP9 POP SWAP3 SWAP6 SWAP9 POP SWAP3 SWAP6 SWAP9 JUMP JUMPDEST PUSH0 DUP2 MLOAD SWAP1 POP SWAP2 SWAP1 POP JUMP JUMPDEST PUSH32 0x4E487B7100000000000000000000000000000000000000000000000000000000 PUSH0 MSTORE PUSH1 0x22 PUSH1 0x4 MSTORE PUSH1 0x24 PUSH0 REVERT JUMPDEST PUSH0 PUSH1 0x2 DUP3 DIV SWAP1 POP PUSH1 0x1 DUP3 AND DUP1 PUSH2 0x469 JUMPI PUSH1 0x7F DUP3 AND SWAP2 POP JUMPDEST PUSH1 0x20 DUP3 LT DUP2 SUB PUSH2 0x47C JUMPI PUSH2 0x47B PUSH2 0x425 JUMP JUMPDEST JUMPDEST POP SWAP2 SWAP1 POP JUMP JUMPDEST PUSH0 DUP2 SWAP1 POP DUP2 PUSH0 MSTORE PUSH1 0x20 PUSH0 KECCAK256 SWAP1 POP SWAP2 SWAP1 POP JUMP JUMPDEST PUSH0 PUSH1 0x20 PUSH1 0x1F DUP4 ADD DIV SWAP1 POP SWAP2 SWAP1 POP JUMP JUMPDEST PUSH0 DUP3 DUP3 SHL SWAP1 POP SWAP3 SWAP2 POP POP JUMP JUMPDEST PUSH0 PUSH1 0x8 DUP4 MUL PUSH2 0x4DE PUSH32 0xFFFFFFFFFFFFFFFFFFFFFFFFFFFFFFFFFFFFFFFFFFFFFFFFFFFFFFFFFFFFFFFF DUP3 PUSH2 0x4A3 JUMP JUMPDEST PUSH2 0x4E8 DUP7 DUP4 PUSH2 0x4A3 JUMP JUMPDEST SWAP6 POP DUP1 NOT DUP5 AND SWAP4 POP DUP1 DUP7 AND DUP5 OR SWAP3 POP POP POP SWAP4 SWAP3 POP POP POP JUMP JUMPDEST PUSH0 DUP2 SWAP1 POP SWAP2 SWAP1 POP JUMP JUMPDEST PUSH0 DUP2 SWAP1 POP SWAP2 SWAP1 POP JUMP JUMPDEST PUSH0 PUSH2 0x52C PUSH2 0x527 PUSH2 0x522 DUP5 PUSH2 0x500 JUMP JUMPDEST PUSH2 0x509 JUMP JUMPDEST PUSH2 0x500 JUMP JUMPDEST SWAP1 POP SWAP2 SWAP1 POP JUMP JUMPDEST PUSH0 DUP2 SWAP1 POP SWAP2 SWAP1 POP JUMP JUMPDEST PUSH2 0x545 DUP4 PUSH2 0x512 JUMP JUMPDEST PUSH2 0x559 PUSH2 0x551 DUP3 PUSH2 0x533 JUMP JUMPDEST DUP5 DUP5 SLOAD PUSH2 0x4AF JUMP JUMPDEST DUP3 SSTORE POP POP POP POP JUMP JUMPDEST PUSH0 PUSH0 SWAP1 POP SWAP1 JUMP JUMPDEST PUSH2 0x570 PUSH2 0x561 JUMP JUMPDEST PUSH2 0x57B DUP2 DUP5 DUP5 PUSH2 0x53C JUMP JUMPDEST POP POP POP JUMP JUMPDEST JUMPDEST DUP2 DUP2 LT ISZERO PUSH2 0x59E JUMPI PUSH2 0x593 PUSH0 DUP3 PUSH2 0x568 JUMP JUMPDEST PUSH1 0x1 DUP2 ADD SWAP1 POP PUSH2 0x581 JUMP JUMPDEST POP POP JUMP JUMPDEST PUSH1 0x1F DUP3 GT ISZERO PUSH2 0x5E3 JUMPI PUSH2 0x5B4 DUP2 PUSH2 0x482 JUMP JUMPDEST PUSH2 0x5BD DUP5 PUSH2 0x494 JUMP JUMPDEST DUP2 ADD PUSH1 0x20 DUP6 LT ISZERO PUSH2 0x5CC JUMPI DUP2 SWAP1 POP JUMPDEST PUSH2 0x5E0 PUSH2 0x5D8 DUP6 PUSH2 0x494 JUMP JUMPDEST DUP4 ADD DUP3 PUSH2 0x580 JUMP JUMPDEST POP POP JUMPDEST POP POP POP JUMP JUMPDEST PUSH0 DUP3 DUP3 SHR SWAP1 POP SWAP3 SWAP2 POP POP JUMP JUMPDEST PUSH0 PUSH2 0x603 PUSH0 NOT DUP5 PUSH1 0x8 MUL PUSH2 0x5E8 JUMP JUMPDEST NOT DUP1 DUP4 AND SWAP2 POP POP SWAP3 SWAP2 POP POP JUMP JUMPDEST PUSH0 PUSH2 0x61B DUP4 DUP4 PUSH2 0x5F4 JUMP JUMPDEST SWAP2 POP DUP3 PUSH1 0x2 MUL DUP3 OR SWAP1 POP SWAP3 SWAP2 POP POP JUMP JUMPDEST PUSH2 0x634 DUP3 PUSH2 0x41B JUMP JUMPDEST PUSH8 0xFFFFFFFFFFFFFFFF DUP2 GT ISZERO PUSH2 0x64D JUMPI PUSH2 0x64C PUSH2 0x137 JUMP JUMPDEST JUMPDEST PUSH2 0x657 DUP3 SLOAD PUSH2 0x452 JUMP JUMPDEST PUSH2 0x662 DUP3 DUP3 DUP6 PUSH2 0x5A2 JUMP JUMPDEST PUSH0 PUSH1 0x20 SWAP1 POP PUSH1 0x1F DUP4 GT PUSH1 0x1 DUP2 EQ PUSH2 0x693 JUMPI PUSH0 DUP5 ISZERO PUSH2 0x681 JUMPI DUP3 DUP8 ADD MLOAD SWAP1 POP JUMPDEST PUSH2 0x68B DUP6 DUP3 PUSH2 0x610 JUMP JUMPDEST DUP7 SSTORE POP PUSH2 0x6F2 JUMP JUMPDEST PUSH1 0x1F NOT DUP5 AND PUSH2 0x6A1 DUP7 PUSH2 0x482 JUMP JUMPDEST PUSH0 JUMPDEST DUP3 DUP2 LT ISZERO PUSH2 0x6C8 JUMPI DUP5 DUP10 ADD MLOAD DUP3 SSTORE PUSH1 0x1 DUP3 ADD SWAP2 POP PUSH1 0x20 DUP6 ADD SWAP5 POP PUSH1 0x20 DUP2 ADD SWAP1 POP PUSH2 0x6A3 JUMP JUMPDEST DUP7 DUP4 LT ISZERO PUSH2 0x6E5 JUMPI DUP5 DUP10 ADD MLOAD PUSH2 0x6E1 PUSH1 0x1F DUP10 AND DUP3 PUSH2 0x5F4 JUMP JUMPDEST DUP4 SSTORE POP JUMPDEST PUSH1 0x1 PUSH1 0x2 DUP9 MUL ADD DUP9 SSTORE POP POP POP JUMPDEST POP POP POP POP POP POP JUMP JUMPDEST PUSH2 0x40B5 DUP1 PUSH2 0x707 PUSH0 CODECOPY PUSH0 RETURN INVALID PUSH1 0x80 PUSH1 0x40 MSTORE CALLVALUE DUP1 ISZERO PUSH2 0xF JUMPI PUSH0 PUSH0 REVERT JUMPDEST POP PUSH1 0x4 CALLDATASIZE LT PUSH2 0x109 JUMPI PUSH0 CALLDATALOAD PUSH1 0xE0 SHR DUP1 PUSH4 0xB1649729 GT PUSH2 0xA0 JUMPI DUP1 PUSH4 0xD60BD310 GT PUSH2 0x6F JUMPI DUP1 PUSH4 0xD60BD310 EQ PUSH2 0x357 JUMPI DUP1 PUSH4 0xDB1BF8D8 EQ PUSH2 0x387 JUMPI DUP1 PUSH4 0xE111265D EQ PUSH2 0x3B7 JUMPI DUP1 PUSH4 0xF6C25BBD EQ PUSH2 0x3E7 JUMPI DUP1 PUSH4 0xFBAD2DBF EQ PUSH2 0x417 JUMPI PUSH2 0x109 JUMP JUMPDEST DUP1 PUSH4 0xB1649729 EQ PUSH2 0x297 JUMPI DUP1 PUSH4 0xB24BE0A1 EQ PUSH2 0x2C7 JUMPI DUP1 PUSH4 0xB6E478E5 EQ PUSH2 0x2F7 JUMPI DUP1 PUSH4 0xC73D6D9E EQ PUSH2 0x327 JUMPI PUSH2 0x109 JUMP JUMPDEST DUP1 PUSH4 0xA0DA0EA3 GT PUSH2 0xDC JUMPI DUP1 PUSH4 0xA0DA0EA3 EQ PUSH2 0x1D7 JUMPI DUP1 PUSH4 0xA7BF973C EQ PUSH2 0x207 JUMPI DUP1 PUSH4 0xA9583C22 EQ PUSH2 0x237 JUMPI DUP1 PUSH4 0xAB7FCA1C EQ PUSH2 0x267 JUMPI PUSH2 0x109 JUMP JUMPDEST DUP1 PUSH4 0x389523D EQ PUSH2 0x10D JUMPI DUP1 PUSH4 0xCB16B71 EQ PUSH2 0x13D JUMPI DUP1 PUSH4 0x16161F02 EQ PUSH2 0x177 JUMPI DUP1 PUSH4 0x1FE8BB6A EQ PUSH2 0x1A7 JUMPI JUMPDEST PUSH0 PUSH0 REVERT JUMPDEST PUSH2 0x127 PUSH1 0x4 DUP1 CALLDATASIZE SUB DUP2 ADD SWAP1 PUSH2 0x122 SWAP2 SWAP1 PUSH2 0x33BF JUMP JUMPDEST PUSH2 0x44A JUMP JUMPDEST PUSH1 0x40 MLOAD PUSH2 0x134 SWAP2 SWAP1 PUSH2 0x345A JUMP JUMPDEST PUSH1 0x40 MLOAD DUP1 SWAP2 SUB SWAP1 RETURN JUMPDEST PUSH2 0x157 PUSH1 0x4 DUP1 CALLDATASIZE SUB DUP2 ADD SWAP1 PUSH2 0x152 SWAP2 SWAP1 PUSH2 0x33BF JUMP JUMPDEST PUSH2 0xA73 JUMP JUMPDEST PUSH1 0x40 MLOAD PUSH2 0x16E SWAP12 SWAP11 SWAP10 SWAP9 SWAP8 SWAP7 SWAP6 SWAP5 SWAP4 SWAP3 SWAP2 SWAP1 PUSH2 0x34BB JUMP JUMPDEST PUSH1 0x40 MLOAD DUP1 SWAP2 SUB SWAP1 RETURN JUMPDEST PUSH2 0x191 PUSH1 0x4 DUP1 CALLDATASIZE SUB DUP2 ADD SWAP1 PUSH2 0x18C SWAP2 SWAP1 PUSH2 0x33BF JUMP JUMPDEST PUSH2 0xC3E JUMP JUMPDEST PUSH1 0x40 MLOAD PUSH2 0x19E SWAP2 SWAP1 PUSH2 0x345A JUMP JUMPDEST PUSH1 0x40 MLOAD DUP1 SWAP2 SUB SWAP1 RETURN JUMPDEST PUSH2 0x1C1 PUSH1 0x4 DUP1 CALLDATASIZE SUB DUP2 ADD SWAP1 PUSH2 0x1BC SWAP2 SWAP1 PUSH2 0x33BF JUMP JUMPDEST PUSH2 0x1017 JUMP JUMPDEST PUSH1 0x40 MLOAD PUSH2 0x1CE SWAP2 SWAP1 PUSH2 0x345A JUMP JUMPDEST PUSH1 0x40 MLOAD DUP1 SWAP2 SUB SWAP1 RETURN JUMPDEST PUSH2 0x1F1 PUSH1 0x4 DUP1 CALLDATASIZE SUB DUP2 ADD SWAP1 PUSH2 0x1EC SWAP2 SWAP1 PUSH2 0x33BF JUMP JUMPDEST PUSH2 0x1189 JUMP JUMPDEST PUSH1 0x40 MLOAD PUSH2 0x1FE SWAP2 SWAP1 PUSH2 0x345A JUMP JUMPDEST PUSH1 0x40 MLOAD DUP1 SWAP2 SUB SWAP1 RETURN JUMPDEST PUSH2 0x221 PUSH1 0x4 DUP1 CALLDATASIZE SUB DUP2 ADD SWAP1 PUSH2 0x21C SWAP2 SWAP1 PUSH2 0x369E JUMP JUMPDEST PUSH2 0x1569 JUMP JUMPDEST PUSH1 0x40 MLOAD PUSH2 0x22E SWAP2 SWAP1 PUSH2 0x345A JUMP JUMPDEST PUSH1 0x40 MLOAD DUP1 SWAP2 SUB SWAP1 RETURN JUMPDEST PUSH2 0x251 PUSH1 0x4 DUP1 CALLDATASIZE SUB DUP2 ADD SWAP1 PUSH2 0x24C SWAP2 SWAP1 PUSH2 0x33BF JUMP JUMPDEST PUSH2 0x1935 JUMP JUMPDEST PUSH1 0x40 MLOAD PUSH2 0x25E SWAP2 SWAP1 PUSH2 0x36F8 JUMP JUMPDEST PUSH1 0x40 MLOAD DUP1 SWAP2 SUB SWAP1 RETURN JUMPDEST PUSH2 0x281 PUSH1 0x4 DUP1 CALLDATASIZE SUB DUP2 ADD SWAP1 PUSH2 0x27C SWAP2 SWAP1 PUSH2 0x33BF JUMP JUMPDEST PUSH2 0x1952 JUMP JUMPDEST PUSH1 0x40 MLOAD PUSH2 0x28E SWAP2 SWAP1 PUSH2 0x36F8 JUMP JUMPDEST PUSH1 0x40 MLOAD DUP1 SWAP2 SUB SWAP1 RETURN JUMPDEST PUSH2 0x2B1 PUSH1 0x4 DUP1 CALLDATASIZE SUB DUP2 ADD SWAP1 PUSH2 0x2AC SWAP2 SWAP1 PUSH2 0x33BF JUMP JUMPDEST PUSH2 0x196F JUMP JUMPDEST PUSH1 0x40 MLOAD PUSH2 0x2BE SWAP2 SWAP1 PUSH2 0x345A JUMP JUMPDEST PUSH1 0x40 MLOAD DUP1 SWAP2 SUB SWAP1 RETURN JUMPDEST PUSH2 0x2E1 PUSH1 0x4 DUP1 CALLDATASIZE SUB DUP2 ADD SWAP1 PUSH2 0x2DC SWAP2 SWAP1 PUSH2 0x373B JUMP JUMPDEST PUSH2 0x1AE2 JUMP JUMPDEST PUSH1 0x40 MLOAD PUSH2 0x2EE SWAP2 SWAP1 PUSH2 0x3766 JUMP JUMPDEST PUSH1 0x40 MLOAD DUP1 SWAP2 SUB SWAP1 RETURN JUMPDEST PUSH2 0x311 PUSH1 0x4 DUP1 CALLDATASIZE SUB DUP2 ADD SWAP1 PUSH2 0x30C SWAP2 SWAP1 PUSH2 0x33BF JUMP JUMPDEST PUSH2 0x1F73 JUMP JUMPDEST PUSH1 0x40 MLOAD PUSH2 0x31E SWAP2 SWAP1 PUSH2 0x345A JUMP JUMPDEST PUSH1 0x40 MLOAD DUP1 SWAP2 SUB SWAP1 RETURN JUMPDEST PUSH2 0x341 PUSH1 0x4 DUP1 CALLDATASIZE SUB DUP2 ADD SWAP1 PUSH2 0x33C SWAP2 SWAP1 PUSH2 0x33BF JUMP JUMPDEST PUSH2 0x22F5 JUMP JUMPDEST PUSH1 0x40 MLOAD PUSH2 0x34E SWAP2 SWAP1 PUSH2 0x345A JUMP JUMPDEST PUSH1 0x40 MLOAD DUP1 SWAP2 SUB SWAP1 RETURN JUMPDEST PUSH2 0x371 PUSH1 0x4 DUP1 CALLDATASIZE SUB DUP2 ADD SWAP1 PUSH2 0x36C SWAP2 SWAP1 PUSH2 0x33BF JUMP JUMPDEST PUSH2 0x2657 JUMP JUMPDEST PUSH1 0x40 MLOAD PUSH2 0x37E SWAP2 SWAP1 PUSH2 0x345A JUMP JUMPDEST PUSH1 0x40 MLOAD DUP1 SWAP2 SUB SWAP1 RETURN JUMPDEST PUSH2 0x3A1 PUSH1 0x4 DUP1 CALLDATASIZE SUB DUP2 ADD SWAP1 PUSH2 0x39C SWAP2 SWAP1 PUSH2 0x33BF JUMP JUMPDEST PUSH2 0x27CA JUMP JUMPDEST PUSH1 0x40 MLOAD PUSH2 0x3AE SWAP2 SWAP1 PUSH2 0x345A JUMP JUMPDEST PUSH1 0x40 MLOAD DUP1 SWAP2 SUB SWAP1 RETURN JUMPDEST PUSH2 0x3D1 PUSH1 0x4 DUP1 CALLDATASIZE SUB DUP2 ADD SWAP1 PUSH2 0x3CC SWAP2 SWAP1 PUSH2 0x33BF JUMP JUMPDEST PUSH2 0x293D JUMP JUMPDEST PUSH1 0x40 MLOAD PUSH2 0x3DE SWAP2 SWAP1 PUSH2 0x345A JUMP JUMPDEST PUSH1 0x40 MLOAD DUP1 SWAP2 SUB SWAP1 RETURN JUMPDEST PUSH2 0x401 PUSH1 0x4 DUP1 CALLDATASIZE SUB DUP2 ADD SWAP1 PUSH2 0x3FC SWAP2 SWAP1 PUSH2 0x33BF JUMP JUMPDEST PUSH2 0x2D42 JUMP JUMPDEST PUSH1 0x40 MLOAD PUSH2 0x40E SWAP2 SWAP1 PUSH2 0x345A JUMP JUMPDEST PUSH1 0x40 MLOAD DUP1 SWAP2 SUB SWAP1 RETURN JUMPDEST PUSH2 0x431 PUSH1 0x4 DUP1 CALLDATASIZE SUB DUP2 ADD SWAP1 PUSH2 0x42C SWAP2 SWAP1 PUSH2 0x33BF JUMP JUMPDEST PUSH2 0x31A8 JUMP JUMPDEST PUSH1 0x40 MLOAD PUSH2 0x441 SWAP5 SWAP4 SWAP3 SWAP2 SWAP1 PUSH2 0x377F JUMP JUMPDEST PUSH1 0x40 MLOAD DUP1 SWAP2 SUB SWAP1 RETURN JUMPDEST PUSH1 0x60 PUSH1 0x1 ISZERO ISZERO PUSH1 0xA PUSH0 DUP5 PUSH20 0xFFFFFFFFFFFFFFFFFFFFFFFFFFFFFFFFFFFFFFFF AND PUSH20 0xFFFFFFFFFFFFFFFFFFFFFFFFFFFFFFFFFFFFFFFF AND DUP2 MSTORE PUSH1 0x20 ADD SWAP1 DUP2 MSTORE PUSH1 0x20 ADD PUSH0 KECCAK256 PUSH0 ADD PUSH0 SWAP1 SLOAD SWAP1 PUSH2 0x100 EXP SWAP1 DIV PUSH1 0xFF AND ISZERO ISZERO EQ PUSH2 0x4A7 JUMPI PUSH0 PUSH0 REVERT JUMPDEST PUSH1 0x1 PUSH1 0xA PUSH0 DUP5 PUSH20 0xFFFFFFFFFFFFFFFFFFFFFFFFFFFFFFFFFFFFFFFF AND PUSH20 0xFFFFFFFFFFFFFFFFFFFFFFFFFFFFFFFFFFFFFFFF AND DUP2 MSTORE PUSH1 0x20 ADD SWAP1 DUP2 MSTORE PUSH1 0x20 ADD PUSH0 KECCAK256 PUSH1 0x3 ADD SLOAD SUB PUSH2 0x4F3 JUMPI PUSH0 PUSH0 REVERT JUMPDEST CALLER PUSH20 0xFFFFFFFFFFFFFFFFFFFFFFFFFFFFFFFFFFFFFFFF AND PUSH1 0xA PUSH0 DUP5 PUSH20 0xFFFFFFFFFFFFFFFFFFFFFFFFFFFFFFFFFFFFFFFF AND PUSH20 0xFFFFFFFFFFFFFFFFFFFFFFFFFFFFFFFFFFFFFFFF AND DUP2 MSTORE PUSH1 0x20 ADD SWAP1 DUP2 MSTORE PUSH1 0x20 ADD PUSH0 KECCAK256 PUSH1 0x5 ADD PUSH0 SWAP1 SLOAD SWAP1 PUSH2 0x100 EXP SWAP1 DIV PUSH20 0xFFFFFFFFFFFFFFFFFFFFFFFFFFFFFFFFFFFFFFFF AND PUSH20 0xFFFFFFFFFFFFFFFFFFFFFFFFFFFFFFFFFFFFFFFF AND SUB PUSH2 0x6E9 JUMPI CALLER PUSH20 0xFFFFFFFFFFFFFFFFFFFFFFFFFFFFFFFFFFFFFFFF AND PUSH1 0xA PUSH0 DUP5 PUSH20 0xFFFFFFFFFFFFFFFFFFFFFFFFFFFFFFFFFFFFFFFF AND PUSH20 0xFFFFFFFFFFFFFFFFFFFFFFFFFFFFFFFFFFFFFFFF AND DUP2 MSTORE PUSH1 0x20 ADD SWAP1 DUP2 MSTORE PUSH1 0x20 ADD PUSH0 KECCAK256 PUSH1 0x5 ADD PUSH0 SWAP1 SLOAD SWAP1 PUSH2 0x100 EXP SWAP1 DIV PUSH20 0xFFFFFFFFFFFFFFFFFFFFFFFFFFFFFFFFFFFFFFFF AND PUSH20 0xFFFFFFFFFFFFFFFFFFFFFFFFFFFFFFFFFFFFFFFF AND EQ PUSH2 0x61B JUMPI PUSH0 PUSH0 REVERT JUMPDEST PUSH1 0xA PUSH0 DUP4 PUSH20 0xFFFFFFFFFFFFFFFFFFFFFFFFFFFFFFFFFFFFFFFF AND PUSH20 0xFFFFFFFFFFFFFFFFFFFFFFFFFFFFFFFFFFFFFFFF AND DUP2 MSTORE PUSH1 0x20 ADD SWAP1 DUP2 MSTORE PUSH1 0x20 ADD PUSH0 KECCAK256 PUSH1 0x4 ADD DUP1 SLOAD PUSH2 0x666 SWAP1 PUSH2 0x37F6 JUMP JUMPDEST DUP1 PUSH1 0x1F ADD PUSH1 0x20 DUP1 SWAP2 DIV MUL PUSH1 0x20 ADD PUSH1 0x40 MLOAD SWAP1 DUP2 ADD PUSH1 0x40 MSTORE DUP1 SWAP3 SWAP2 SWAP1 DUP2 DUP2 MSTORE PUSH1 0x20 ADD DUP3 DUP1 SLOAD PUSH2 0x692 SWAP1 PUSH2 0x37F6 JUMP JUMPDEST DUP1 ISZERO PUSH2 0x6DD JUMPI DUP1 PUSH1 0x1F LT PUSH2 0x6B4 JUMPI PUSH2 0x100 DUP1 DUP4 SLOAD DIV MUL DUP4 MSTORE SWAP2 PUSH1 0x20 ADD SWAP2 PUSH2 0x6DD JUMP JUMPDEST DUP3 ADD SWAP2 SWAP1 PUSH0 MSTORE PUSH1 0x20 PUSH0 KECCAK256 SWAP1 JUMPDEST DUP2 SLOAD DUP2 MSTORE SWAP1 PUSH1 0x1 ADD SWAP1 PUSH1 0x20 ADD DUP1 DUP4 GT PUSH2 0x6C0 JUMPI DUP3 SWAP1 SUB PUSH1 0x1F AND DUP3 ADD SWAP2 JUMPDEST POP POP POP POP POP SWAP1 POP PUSH2 0xA6E JUMP JUMPDEST PUSH1 0xB PUSH0 CALLER PUSH20 0xFFFFFFFFFFFFFFFFFFFFFFFFFFFFFFFFFFFFFFFF AND PUSH20 0xFFFFFFFFFFFFFFFFFFFFFFFFFFFFFFFFFFFFFFFF AND DUP2 MSTORE PUSH1 0x20 ADD SWAP1 DUP2 MSTORE PUSH1 0x20 ADD PUSH0 KECCAK256 PUSH0 SWAP1 SLOAD SWAP1 PUSH2 0x100 EXP SWAP1 DIV PUSH1 0xFF AND ISZERO PUSH2 0x88F JUMPI PUSH1 0xB PUSH0 CALLER PUSH20 0xFFFFFFFFFFFFFFFFFFFFFFFFFFFFFFFFFFFFFFFF AND PUSH20 0xFFFFFFFFFFFFFFFFFFFFFFFFFFFFFFFFFFFFFFFF AND DUP2 MSTORE PUSH1 0x20 ADD SWAP1 DUP2 MSTORE PUSH1 0x20 ADD PUSH0 KECCAK256 PUSH0 SWAP1 SLOAD SWAP1 PUSH2 0x100 EXP SWAP1 DIV PUSH1 0xFF AND PUSH2 0x7C1 JUMPI PUSH1 0x40 MLOAD PUSH32 0x8C379A000000000000000000000000000000000000000000000000000000000 DUP2 MSTORE PUSH1 0x4 ADD PUSH2 0x7B8 SWAP1 PUSH2 0x3870 JUMP JUMPDEST PUSH1 0x40 MLOAD DUP1 SWAP2 SUB SWAP1 REVERT JUMPDEST PUSH1 0xA PUSH0 DUP4 PUSH20 0xFFFFFFFFFFFFFFFFFFFFFFFFFFFFFFFFFFFFFFFF AND PUSH20 0xFFFFFFFFFFFFFFFFFFFFFFFFFFFFFFFFFFFFFFFF AND DUP2 MSTORE PUSH1 0x20 ADD SWAP1 DUP2 MSTORE PUSH1 0x20 ADD PUSH0 KECCAK256 PUSH1 0x4 ADD DUP1 SLOAD PUSH2 0x80C SWAP1 PUSH2 0x37F6 JUMP JUMPDEST DUP1 PUSH1 0x1F ADD PUSH1 0x20 DUP1 SWAP2 DIV MUL PUSH1 0x20 ADD PUSH1 0x40 MLOAD SWAP1 DUP2 ADD PUSH1 0x40 MSTORE DUP1 SWAP3 SWAP2 SWAP1 DUP2 DUP2 MSTORE PUSH1 0x20 ADD DUP3 DUP1 SLOAD PUSH2 0x838 SWAP1 PUSH2 0x37F6 JUMP JUMPDEST DUP1 ISZERO PUSH2 0x883 JUMPI DUP1 PUSH1 0x1F LT PUSH2 0x85A JUMPI PUSH2 0x100 DUP1 DUP4 SLOAD DIV MUL DUP4 MSTORE SWAP2 PUSH1 0x20 ADD SWAP2 PUSH2 0x883 JUMP JUMPDEST DUP3 ADD SWAP2 SWAP1 PUSH0 MSTORE PUSH1 0x20 PUSH0 KECCAK256 SWAP1 JUMPDEST DUP2 SLOAD DUP2 MSTORE SWAP1 PUSH1 0x1 ADD SWAP1 PUSH1 0x20 ADD DUP1 DUP4 GT PUSH2 0x866 JUMPI DUP3 SWAP1 SUB PUSH1 0x1F AND DUP3 ADD SWAP2 JUMPDEST POP POP POP POP POP SWAP1 POP PUSH2 0xA6E JUMP JUMPDEST PUSH1 0xC PUSH0 CALLER PUSH20 0xFFFFFFFFFFFFFFFFFFFFFFFFFFFFFFFFFFFFFFFF AND PUSH20 0xFFFFFFFFFFFFFFFFFFFFFFFFFFFFFFFFFFFFFFFF AND DUP2 MSTORE PUSH1 0x20 ADD SWAP1 DUP2 MSTORE PUSH1 0x20 ADD PUSH0 KECCAK256 PUSH0 SWAP1 SLOAD SWAP1 PUSH2 0x100 EXP SWAP1 DIV PUSH1 0xFF AND ISZERO PUSH2 0xA35 JUMPI PUSH1 0xC PUSH0 CALLER PUSH20 0xFFFFFFFFFFFFFFFFFFFFFFFFFFFFFFFFFFFFFFFF AND PUSH20 0xFFFFFFFFFFFFFFFFFFFFFFFFFFFFFFFFFFFFFFFF AND DUP2 MSTORE PUSH1 0x20 ADD SWAP1 DUP2 MSTORE PUSH1 0x20 ADD PUSH0 KECCAK256 PUSH0 SWAP1 SLOAD SWAP1 PUSH2 0x100 EXP SWAP1 DIV PUSH1 0xFF AND PUSH2 0x967 JUMPI PUSH1 0x40 MLOAD PUSH32 0x8C379A000000000000000000000000000000000000000000000000000000000 DUP2 MSTORE PUSH1 0x4 ADD PUSH2 0x95E SWAP1 PUSH2 0x3870 JUMP JUMPDEST PUSH1 0x40 MLOAD DUP1 SWAP2 SUB SWAP1 REVERT JUMPDEST PUSH1 0xA PUSH0 DUP4 PUSH20 0xFFFFFFFFFFFFFFFFFFFFFFFFFFFFFFFFFFFFFFFF AND PUSH20 0xFFFFFFFFFFFFFFFFFFFFFFFFFFFFFFFFFFFFFFFF AND DUP2 MSTORE PUSH1 0x20 ADD SWAP1 DUP2 MSTORE PUSH1 0x20 ADD PUSH0 KECCAK256 PUSH1 0x4 ADD DUP1 SLOAD PUSH2 0x9B2 SWAP1 PUSH2 0x37F6 JUMP JUMPDEST DUP1 PUSH1 0x1F ADD PUSH1 0x20 DUP1 SWAP2 DIV MUL PUSH1 0x20 ADD PUSH1 0x40 MLOAD SWAP1 DUP2 ADD PUSH1 0x40 MSTORE DUP1 SWAP3 SWAP2 SWAP1 DUP2 DUP2 MSTORE PUSH1 0x20 ADD DUP3 DUP1 SLOAD PUSH2 0x9DE SWAP1 PUSH2 0x37F6 JUMP JUMPDEST DUP1 ISZERO PUSH2 0xA29 JUMPI DUP1 PUSH1 0x1F LT PUSH2 0xA00 JUMPI PUSH2 0x100 DUP1 DUP4 SLOAD DIV MUL DUP4 MSTORE SWAP2 PUSH1 0x20 ADD SWAP2 PUSH2 0xA29 JUMP JUMPDEST DUP3 ADD SWAP2 SWAP1 PUSH0 MSTORE PUSH1 0x20 PUSH0 KECCAK256 SWAP1 JUMPDEST DUP2 SLOAD DUP2 MSTORE SWAP1 PUSH1 0x1 ADD SWAP1 PUSH1 0x20 ADD DUP1 DUP4 GT PUSH2 0xA0C JUMPI DUP3 SWAP1 SUB PUSH1 0x1F AND DUP3 ADD SWAP2 JUMPDEST POP POP POP POP POP SWAP1 POP PUSH2 0xA6E JUMP JUMPDEST PUSH1 0x40 MLOAD DUP1 PUSH1 0x40 ADD PUSH1 0x40 MSTORE DUP1 PUSH1 0x1A DUP2 MSTORE PUSH1 0x20 ADD PUSH32 0x596F752068617665206E6F20617574686F72697A6174696F6E2E000000000000 DUP2 MSTORE POP SWAP1 POP JUMPDEST SWAP2 SWAP1 POP JUMP JUMPDEST PUSH1 0xA PUSH1 0x20 MSTORE DUP1 PUSH0 MSTORE PUSH1 0x40 PUSH0 KECCAK256 PUSH0 SWAP2 POP SWAP1 POP DUP1 PUSH0 ADD PUSH0 SWAP1 SLOAD SWAP1 PUSH2 0x100 EXP SWAP1 DIV PUSH1 0xFF AND SWAP1 DUP1 PUSH1 0x1 ADD SLOAD SWAP1 DUP1 PUSH1 0x2 ADD DUP1 SLOAD PUSH2 0xAAA SWAP1 PUSH2 0x37F6 JUMP JUMPDEST DUP1 PUSH1 0x1F ADD PUSH1 0x20 DUP1 SWAP2 DIV MUL PUSH1 0x20 ADD PUSH1 0x40 MLOAD SWAP1 DUP2 ADD PUSH1 0x40 MSTORE DUP1 SWAP3 SWAP2 SWAP1 DUP2 DUP2 MSTORE PUSH1 0x20 ADD DUP3 DUP1 SLOAD PUSH2 0xAD6 SWAP1 PUSH2 0x37F6 JUMP JUMPDEST DUP1 ISZERO PUSH2 0xB21 JUMPI DUP1 PUSH1 0x1F LT PUSH2 0xAF8 JUMPI PUSH2 0x100 DUP1 DUP4 SLOAD DIV MUL DUP4 MSTORE SWAP2 PUSH1 0x20 ADD SWAP2 PUSH2 0xB21 JUMP JUMPDEST DUP3 ADD SWAP2 SWAP1 PUSH0 MSTORE PUSH1 0x20 PUSH0 KECCAK256 SWAP1 JUMPDEST DUP2 SLOAD DUP2 MSTORE SWAP1 PUSH1 0x1 ADD SWAP1 PUSH1 0x20 ADD DUP1 DUP4 GT PUSH2 0xB04 JUMPI DUP3 SWAP1 SUB PUSH1 0x1F AND DUP3 ADD SWAP2 JUMPDEST POP POP POP POP POP SWAP1 DUP1 PUSH1 0x3 ADD SLOAD SWAP1 DUP1 PUSH1 0x4 ADD DUP1 SLOAD PUSH2 0xB3C SWAP1 PUSH2 0x37F6 JUMP JUMPDEST DUP1 PUSH1 0x1F ADD PUSH1 0x20 DUP1 SWAP2 DIV MUL PUSH1 0x20 ADD PUSH1 0x40 MLOAD SWAP1 DUP2 ADD PUSH1 0x40 MSTORE DUP1 SWAP3 SWAP2 SWAP1 DUP2 DUP2 MSTORE PUSH1 0x20 ADD DUP3 DUP1 SLOAD PUSH2 0xB68 SWAP1 PUSH2 0x37F6 JUMP JUMPDEST DUP1 ISZERO PUSH2 0xBB3 JUMPI DUP1 PUSH1 0x1F LT PUSH2 0xB8A JUMPI PUSH2 0x100 DUP1 DUP4 SLOAD DIV MUL DUP4 MSTORE SWAP2 PUSH1 0x20 ADD SWAP2 PUSH2 0xBB3 JUMP JUMPDEST DUP3 ADD SWAP2 SWAP1 PUSH0 MSTORE PUSH1 0x20 PUSH0 KECCAK256 SWAP1 JUMPDEST DUP2 SLOAD DUP2 MSTORE SWAP1 PUSH1 0x1 ADD SWAP1 PUSH1 0x20 ADD DUP1 DUP4 GT PUSH2 0xB96 JUMPI DUP3 SWAP1 SUB PUSH1 0x1F AND DUP3 ADD SWAP2 JUMPDEST POP POP POP POP POP SWAP1 DUP1 PUSH1 0x5 ADD PUSH0 SWAP1 SLOAD SWAP1 PUSH2 0x100 EXP SWAP1 DIV PUSH20 0xFFFFFFFFFFFFFFFFFFFFFFFFFFFFFFFFFFFFFFFF AND SWAP1 DUP1 PUSH1 0x6 ADD SLOAD SWAP1 DUP1 PUSH1 0x7 ADD PUSH0 SWAP1 SLOAD SWAP1 PUSH2 0x100 EXP SWAP1 DIV PUSH20 0xFFFFFFFFFFFFFFFFFFFFFFFFFFFFFFFFFFFFFFFF AND SWAP1 DUP1 PUSH1 0x8 ADD SLOAD SWAP1 DUP1 PUSH1 0x9 ADD PUSH0 SWAP1 SLOAD SWAP1 PUSH2 0x100 EXP SWAP1 DIV PUSH20 0xFFFFFFFFFFFFFFFFFFFFFFFFFFFFFFFFFFFFFFFF AND SWAP1 DUP1 PUSH1 0xA ADD SLOAD SWAP1 POP DUP12 JUMP JUMPDEST PUSH1 0x60 PUSH1 0xA PUSH0 DUP4 PUSH20 0xFFFFFFFFFFFFFFFFFFFFFFFFFFFFFFFFFFFFFFFF AND PUSH20 0xFFFFFFFFFFFFFFFFFFFFFFFFFFFFFFFFFFFFFFFF AND DUP2 MSTORE PUSH1 0x20 ADD SWAP1 DUP2 MSTORE PUSH1 0x20 ADD PUSH0 KECCAK256 PUSH0 ADD PUSH0 SWAP1 SLOAD SWAP1 PUSH2 0x100 EXP SWAP1 DIV PUSH1 0xFF AND PUSH2 0xC94 JUMPI PUSH0 PUSH0 REVERT JUMPDEST PUSH1 0xB PUSH0 CALLER PUSH20 0xFFFFFFFFFFFFFFFFFFFFFFFFFFFFFFFFFFFFFFFF AND PUSH20 0xFFFFFFFFFFFFFFFFFFFFFFFFFFFFFFFFFFFFFFFF AND DUP2 MSTORE PUSH1 0x20 ADD SWAP1 DUP2 MSTORE PUSH1 0x20 ADD PUSH0 KECCAK256 PUSH0 SWAP1 SLOAD SWAP1 PUSH2 0x100 EXP SWAP1 DIV PUSH1 0xFF AND PUSH2 0xCE6 JUMPI PUSH0 PUSH0 REVERT JUMPDEST PUSH1 0x1 PUSH1 0xA PUSH0 DUP5 PUSH20 0xFFFFFFFFFFFFFFFFFFFFFFFFFFFFFFFFFFFFFFFF AND PUSH20 0xFFFFFFFFFFFFFFFFFFFFFFFFFFFFFFFFFFFFFFFF AND DUP2 MSTORE PUSH1 0x20 ADD SWAP1 DUP2 MSTORE PUSH1 0x20 ADD PUSH0 KECCAK256 PUSH1 0x3 ADD SLOAD SUB PUSH2 0xD32 JUMPI PUSH0 PUSH0 REVERT JUMPDEST CALLER PUSH1 0xA PUSH0 DUP5 PUSH20 0xFFFFFFFFFFFFFFFFFFFFFFFFFFFFFFFFFFFFFFFF AND PUSH20 0xFFFFFFFFFFFFFFFFFFFFFFFFFFFFFFFFFFFFFFFF AND DUP2 MSTORE PUSH1 0x20 ADD SWAP1 DUP2 MSTORE PUSH1 0x20 ADD PUSH0 KECCAK256 PUSH1 0x7 ADD PUSH0 PUSH2 0x100 EXP DUP2 SLOAD DUP2 PUSH20 0xFFFFFFFFFFFFFFFFFFFFFFFFFFFFFFFFFFFFFFFF MUL NOT AND SWAP1 DUP4 PUSH20 0xFFFFFFFFFFFFFFFFFFFFFFFFFFFFFFFFFFFFFFFF AND MUL OR SWAP1 SSTORE POP TIMESTAMP PUSH1 0xA PUSH0 DUP5 PUSH20 0xFFFFFFFFFFFFFFFFFFFFFFFFFFFFFFFFFFFFFFFF AND PUSH20 0xFFFFFFFFFFFFFFFFFFFFFFFFFFFFFFFFFFFFFFFF AND DUP2 MSTORE PUSH1 0x20 ADD SWAP1 DUP2 MSTORE PUSH1 0x20 ADD PUSH0 KECCAK256 PUSH1 0x8 ADD DUP2 SWAP1 SSTORE POP PUSH1 0x40 MLOAD DUP1 PUSH1 0x20 ADD PUSH1 0x40 MSTORE DUP1 PUSH0 DUP2 MSTORE POP PUSH1 0xA PUSH0 DUP5 PUSH20 0xFFFFFFFFFFFFFFFFFFFFFFFFFFFFFFFFFFFFFFFF AND PUSH20 0xFFFFFFFFFFFFFFFFFFFFFFFFFFFFFFFFFFFFFFFF AND DUP2 MSTORE PUSH1 0x20 ADD SWAP1 DUP2 MSTORE PUSH1 0x20 ADD PUSH0 KECCAK256 PUSH1 0x4 ADD SWAP1 DUP2 PUSH2 0xE50 SWAP2 SWAP1 PUSH2 0x3A2E JUMP JUMPDEST POP PUSH1 0x1 PUSH1 0xA PUSH0 DUP5 PUSH20 0xFFFFFFFFFFFFFFFFFFFFFFFFFFFFFFFFFFFFFFFF AND PUSH20 0xFFFFFFFFFFFFFFFFFFFFFFFFFFFFFFFFFFFFFFFF AND DUP2 MSTORE PUSH1 0x20 ADD SWAP1 DUP2 MSTORE PUSH1 0x20 ADD PUSH0 KECCAK256 PUSH1 0x3 ADD DUP2 SWAP1 SSTORE POP PUSH1 0x40 MLOAD DUP1 PUSH1 0x60 ADD PUSH1 0x40 MSTORE DUP1 PUSH1 0x22 DUP2 MSTORE PUSH1 0x20 ADD PUSH2 0x405E PUSH1 0x22 SWAP2 CODECOPY PUSH1 0xA PUSH0 DUP5 PUSH20 0xFFFFFFFFFFFFFFFFFFFFFFFFFFFFFFFFFFFFFFFF AND PUSH20 0xFFFFFFFFFFFFFFFFFFFFFFFFFFFFFFFFFFFFFFFF AND DUP2 MSTORE PUSH1 0x20 ADD SWAP1 DUP2 MSTORE PUSH1 0x20 ADD PUSH0 KECCAK256 PUSH1 0x2 ADD SWAP1 DUP2 PUSH2 0xEFC SWAP2 SWAP1 PUSH2 0x3A2E JUMP JUMPDEST POP PUSH32 0x41E7AEF4A9A40592736811EFA52BAE55E6FD1CD88DB143DC78A6370B2AAC0960 PUSH1 0xA PUSH0 DUP5 PUSH20 0xFFFFFFFFFFFFFFFFFFFFFFFFFFFFFFFFFFFFFFFF AND PUSH20 0xFFFFFFFFFFFFFFFFFFFFFFFFFFFFFFFFFFFFFFFF AND DUP2 MSTORE PUSH1 0x20 ADD SWAP1 DUP2 MSTORE PUSH1 0x20 ADD PUSH0 KECCAK256 PUSH1 0x2 ADD PUSH1 0xA PUSH0 DUP6 PUSH20 0xFFFFFFFFFFFFFFFFFFFFFFFFFFFFFFFFFFFFFFFF AND PUSH20 0xFFFFFFFFFFFFFFFFFFFFFFFFFFFFFFFFFFFFFFFF AND DUP2 MSTORE PUSH1 0x20 ADD SWAP1 DUP2 MSTORE PUSH1 0x20 ADD PUSH0 KECCAK256 PUSH1 0x3 ADD SLOAD PUSH1 0xA PUSH0 DUP7 PUSH20 0xFFFFFFFFFFFFFFFFFFFFFFFFFFFFFFFFFFFFFFFF AND PUSH20 0xFFFFFFFFFFFFFFFFFFFFFFFFFFFFFFFFFFFFFFFF AND DUP2 MSTORE PUSH1 0x20 ADD SWAP1 DUP2 MSTORE PUSH1 0x20 ADD PUSH0 KECCAK256 PUSH1 0x6 ADD SLOAD PUSH1 0x40 MLOAD PUSH2 0xFEF SWAP4 SWAP3 SWAP2 SWAP1 PUSH2 0x3B7E JUMP JUMPDEST PUSH1 0x40 MLOAD DUP1 SWAP2 SUB SWAP1 LOG1 PUSH1 0x40 MLOAD DUP1 PUSH1 0x60 ADD PUSH1 0x40 MSTORE DUP1 PUSH1 0x24 DUP2 MSTORE PUSH1 0x20 ADD PUSH2 0x3F5D PUSH1 0x24 SWAP2 CODECOPY SWAP1 POP SWAP2 SWAP1 POP JUMP JUMPDEST PUSH1 0x60 CALLER PUSH20 0xFFFFFFFFFFFFFFFFFFFFFFFFFFFFFFFFFFFFFFFF AND PUSH0 PUSH0 SWAP1 SLOAD SWAP1 PUSH2 0x100 EXP SWAP1 DIV PUSH20 0xFFFFFFFFFFFFFFFFFFFFFFFFFFFFFFFFFFFFFFFF AND PUSH20 0xFFFFFFFFFFFFFFFFFFFFFFFFFFFFFFFFFFFFFFFF AND EQ PUSH2 0x1070 JUMPI PUSH0 PUSH0 REVERT JUMPDEST PUSH1 0xB PUSH0 DUP4 PUSH20 0xFFFFFFFFFFFFFFFFFFFFFFFFFFFFFFFFFFFFFFFF AND PUSH20 0xFFFFFFFFFFFFFFFFFFFFFFFFFFFFFFFFFFFFFFFF AND DUP2 MSTORE PUSH1 0x20 ADD SWAP1 DUP2 MSTORE PUSH1 0x20 ADD PUSH0 KECCAK256 PUSH0 SWAP1 SLOAD SWAP1 PUSH2 0x100 EXP SWAP1 DIV PUSH1 0xFF AND ISZERO PUSH2 0x1114 JUMPI PUSH0 PUSH1 0xB PUSH0 DUP5 PUSH20 0xFFFFFFFFFFFFFFFFFFFFFFFFFFFFFFFFFFFFFFFF AND PUSH20 0xFFFFFFFFFFFFFFFFFFFFFFFFFFFFFFFFFFFFFFFF AND DUP2 MSTORE PUSH1 0x20 ADD SWAP1 DUP2 MSTORE PUSH1 0x20 ADD PUSH0 KECCAK256 PUSH0 PUSH2 0x100 EXP DUP2 SLOAD DUP2 PUSH1 0xFF MUL NOT AND SWAP1 DUP4 ISZERO ISZERO MUL OR SWAP1 SSTORE POP JUMPDEST PUSH31 0xD12F5594E82AD336A8FA185A7CC3AAB483EDDCF14E26EBC4EA81F6400B120A DUP3 TIMESTAMP PUSH1 0x40 MLOAD PUSH2 0x1144 SWAP3 SWAP2 SWAP1 PUSH2 0x3C04 JUMP JUMPDEST PUSH1 0x40 MLOAD DUP1 SWAP2 SUB SWAP1 LOG1 PUSH1 0x40 MLOAD DUP1 PUSH1 0x40 ADD PUSH1 0x40 MSTORE DUP1 PUSH1 0x14 DUP2 MSTORE PUSH1 0x20 ADD PUSH32 0x4120646F63746F722069732072656D6F7665642E000000000000000000000000 DUP2 MSTORE POP SWAP1 POP SWAP2 SWAP1 POP JUMP JUMPDEST PUSH1 0x60 PUSH1 0x1 ISZERO ISZERO PUSH1 0xA PUSH0 DUP5 PUSH20 0xFFFFFFFFFFFFFFFFFFFFFFFFFFFFFFFFFFFFFFFF AND PUSH20 0xFFFFFFFFFFFFFFFFFFFFFFFFFFFFFFFFFFFFFFFF AND DUP2 MSTORE PUSH1 0x20 ADD SWAP1 DUP2 MSTORE PUSH1 0x20 ADD PUSH0 KECCAK256 PUSH0 ADD PUSH0 SWAP1 SLOAD SWAP1 PUSH2 0x100 EXP SWAP1 DIV PUSH1 0xFF AND ISZERO ISZERO EQ PUSH2 0x11E6 JUMPI PUSH0 PUSH0 REVERT JUMPDEST CALLER PUSH20 0xFFFFFFFFFFFFFFFFFFFFFFFFFFFFFFFFFFFFFFFF AND PUSH1 0xA PUSH0 DUP5 PUSH20 0xFFFFFFFFFFFFFFFFFFFFFFFFFFFFFFFFFFFFFFFF AND PUSH20 0xFFFFFFFFFFFFFFFFFFFFFFFFFFFFFFFFFFFFFFFF AND DUP2 MSTORE PUSH1 0x20 ADD SWAP1 DUP2 MSTORE PUSH1 0x20 ADD PUSH0 KECCAK256 PUSH1 0x5 ADD PUSH0 SWAP1 SLOAD SWAP1 PUSH2 0x100 EXP SWAP1 DIV PUSH20 0xFFFFFFFFFFFFFFFFFFFFFFFFFFFFFFFFFFFFFFFF AND PUSH20 0xFFFFFFFFFFFFFFFFFFFFFFFFFFFFFFFFFFFFFFFF AND EQ PUSH2 0x127C JUMPI PUSH0 PUSH0 REVERT JUMPDEST PUSH1 0x1 PUSH1 0xA PUSH0 DUP5 PUSH20 0xFFFFFFFFFFFFFFFFFFFFFFFFFFFFFFFFFFFFFFFF AND PUSH20 0xFFFFFFFFFFFFFFFFFFFFFFFFFFFFFFFFFFFFFFFF AND DUP2 MSTORE PUSH1 0x20 ADD SWAP1 DUP2 MSTORE PUSH1 0x20 ADD PUSH0 KECCAK256 PUSH1 0x3 ADD SLOAD SUB PUSH2 0x12C8 JUMPI PUSH0 PUSH0 REVERT JUMPDEST PUSH1 0x40 MLOAD DUP1 PUSH1 0x20 ADD PUSH1 0x40 MSTORE DUP1 PUSH0 DUP2 MSTORE POP PUSH1 0xA PUSH0 DUP5 PUSH20 0xFFFFFFFFFFFFFFFFFFFFFFFFFFFFFFFFFFFFFFFF AND PUSH20 0xFFFFFFFFFFFFFFFFFFFFFFFFFFFFFFFFFFFFFFFF AND DUP2 MSTORE PUSH1 0x20 ADD SWAP1 DUP2 MSTORE PUSH1 0x20 ADD PUSH0 KECCAK256 PUSH1 0x4 ADD SWAP1 DUP2 PUSH2 0x1323 SWAP2 SWAP1 PUSH2 0x3A2E JUMP JUMPDEST POP TIMESTAMP PUSH1 0xA PUSH0 DUP5 PUSH20 0xFFFFFFFFFFFFFFFFFFFFFFFFFFFFFFFFFFFFFFFF AND PUSH20 0xFFFFFFFFFFFFFFFFFFFFFFFFFFFFFFFFFFFFFFFF AND DUP2 MSTORE PUSH1 0x20 ADD SWAP1 DUP2 MSTORE PUSH1 0x20 ADD PUSH0 KECCAK256 PUSH1 0x6 ADD DUP2 SWAP1 SSTORE POP PUSH1 0x1 PUSH1 0xA PUSH0 DUP5 PUSH20 0xFFFFFFFFFFFFFFFFFFFFFFFFFFFFFFFFFFFFFFFF AND PUSH20 0xFFFFFFFFFFFFFFFFFFFFFFFFFFFFFFFFFFFFFFFF AND DUP2 MSTORE PUSH1 0x20 ADD SWAP1 DUP2 MSTORE PUSH1 0x20 ADD PUSH0 KECCAK256 PUSH1 0x3 ADD DUP2 SWAP1 SSTORE POP PUSH1 0x40 MLOAD DUP1 PUSH1 0x40 ADD PUSH1 0x40 MSTORE DUP1 PUSH1 0x1D DUP2 MSTORE PUSH1 0x20 ADD PUSH32 0x5265636F72642069732064656C657465642062792070617469656E742E000000 DUP2 MSTORE POP PUSH1 0xA PUSH0 DUP5 PUSH20 0xFFFFFFFFFFFFFFFFFFFFFFFFFFFFFFFFFFFFFFFF AND PUSH20 0xFFFFFFFFFFFFFFFFFFFFFFFFFFFFFFFFFFFFFFFF AND DUP2 MSTORE PUSH1 0x20 ADD SWAP1 DUP2 MSTORE PUSH1 0x20 ADD PUSH0 KECCAK256 PUSH1 0x2 ADD SWAP1 DUP2 PUSH2 0x1431 SWAP2 SWAP1 PUSH2 0x3A2E JUMP JUMPDEST POP PUSH32 0xC5451672C113180DCC201AD0122FE0677464F75276E03A264699D75D16906378 PUSH1 0xA PUSH0 DUP5 PUSH20 0xFFFFFFFFFFFFFFFFFFFFFFFFFFFFFFFFFFFFFFFF AND PUSH20 0xFFFFFFFFFFFFFFFFFFFFFFFFFFFFFFFFFFFFFFFF AND DUP2 MSTORE PUSH1 0x20 ADD SWAP1 DUP2 MSTORE PUSH1 0x20 ADD PUSH0 KECCAK256 PUSH1 0x2 ADD PUSH1 0xA PUSH0 DUP6 PUSH20 0xFFFFFFFFFFFFFFFFFFFFFFFFFFFFFFFFFFFFFFFF AND PUSH20 0xFFFFFFFFFFFFFFFFFFFFFFFFFFFFFFFFFFFFFFFF AND DUP2 MSTORE PUSH1 0x20 ADD SWAP1 DUP2 MSTORE PUSH1 0x20 ADD PUSH0 KECCAK256 PUSH1 0x3 ADD SLOAD PUSH1 0xA PUSH0 DUP7 PUSH20 0xFFFFFFFFFFFFFFFFFFFFFFFFFFFFFFFFFFFFFFFF AND PUSH20 0xFFFFFFFFFFFFFFFFFFFFFFFFFFFFFFFFFFFFFFFF AND DUP2 MSTORE PUSH1 0x20 ADD SWAP1 DUP2 MSTORE PUSH1 0x20 ADD PUSH0 KECCAK256 PUSH1 0x6 ADD SLOAD PUSH1 0x40 MLOAD PUSH2 0x1524 SWAP4 SWAP3 SWAP2 SWAP1 PUSH2 0x3B7E JUMP JUMPDEST PUSH1 0x40 MLOAD DUP1 SWAP2 SUB SWAP1 LOG1 PUSH1 0x40 MLOAD DUP1 PUSH1 0x40 ADD PUSH1 0x40 MSTORE DUP1 PUSH1 0x1D DUP2 MSTORE PUSH1 0x20 ADD PUSH32 0x5265636F72642069732064656C657465642062792070617469656E742E000000 DUP2 MSTORE POP SWAP1 POP SWAP2 SWAP1 POP JUMP JUMPDEST PUSH1 0x60 PUSH1 0xA PUSH0 DUP5 PUSH20 0xFFFFFFFFFFFFFFFFFFFFFFFFFFFFFFFFFFFFFFFF AND PUSH20 0xFFFFFFFFFFFFFFFFFFFFFFFFFFFFFFFFFFFFFFFF AND DUP2 MSTORE PUSH1 0x20 ADD SWAP1 DUP2 MSTORE PUSH1 0x20 ADD PUSH0 KECCAK256 PUSH0 ADD PUSH0 SWAP1 SLOAD SWAP1 PUSH2 0x100 EXP SWAP1 DIV PUSH1 0xFF AND PUSH2 0x15BF JUMPI PUSH0 PUSH0 REVERT JUMPDEST PUSH1 0xB PUSH0 CALLER PUSH20 0xFFFFFFFFFFFFFFFFFFFFFFFFFFFFFFFFFFFFFFFF AND PUSH20 0xFFFFFFFFFFFFFFFFFFFFFFFFFFFFFFFFFFFFFFFF AND DUP2 MSTORE PUSH1 0x20 ADD SWAP1 DUP2 MSTORE PUSH1 0x20 ADD PUSH0 KECCAK256 PUSH0 SWAP1 SLOAD SWAP1 PUSH2 0x100 EXP SWAP1 DIV PUSH1 0xFF AND PUSH2 0x1611 JUMPI PUSH0 PUSH0 REVERT JUMPDEST PUSH1 0x1 PUSH1 0xA PUSH0 DUP6 PUSH20 0xFFFFFFFFFFFFFFFFFFFFFFFFFFFFFFFFFFFFFFFF AND PUSH20 0xFFFFFFFFFFFFFFFFFFFFFFFFFFFFFFFFFFFFFFFF AND DUP2 MSTORE PUSH1 0x20 ADD SWAP1 DUP2 MSTORE PUSH1 0x20 ADD PUSH0 KECCAK256 PUSH1 0x3 ADD SLOAD SUB PUSH2 0x165D JUMPI PUSH0 PUSH0 REVERT JUMPDEST CALLER PUSH1 0xA PUSH0 DUP6 PUSH20 0xFFFFFFFFFFFFFFFFFFFFFFFFFFFFFFFFFFFFFFFF AND PUSH20 0xFFFFFFFFFFFFFFFFFFFFFFFFFFFFFFFFFFFFFFFF AND DUP2 MSTORE PUSH1 0x20 ADD SWAP1 DUP2 MSTORE PUSH1 0x20 ADD PUSH0 KECCAK256 PUSH1 0x7 ADD PUSH0 PUSH2 0x100 EXP DUP2 SLOAD DUP2 PUSH20 0xFFFFFFFFFFFFFFFFFFFFFFFFFFFFFFFFFFFFFFFF MUL NOT AND SWAP1 DUP4 PUSH20 0xFFFFFFFFFFFFFFFFFFFFFFFFFFFFFFFFFFFFFFFF AND MUL OR SWAP1 SSTORE POP TIMESTAMP PUSH1 0xA PUSH0 DUP6 PUSH20 0xFFFFFFFFFFFFFFFFFFFFFFFFFFFFFFFFFFFFFFFF AND PUSH20 0xFFFFFFFFFFFFFFFFFFFFFFFFFFFFFFFFFFFFFFFF AND DUP2 MSTORE PUSH1 0x20 ADD SWAP1 DUP2 MSTORE PUSH1 0x20 ADD PUSH0 KECCAK256 PUSH1 0x8 ADD DUP2 SWAP1 SSTORE POP DUP2 PUSH1 0xA PUSH0 DUP6 PUSH20 0xFFFFFFFFFFFFFFFFFFFFFFFFFFFFFFFFFFFFFFFF AND PUSH20 0xFFFFFFFFFFFFFFFFFFFFFFFFFFFFFFFFFFFFFFFF AND DUP2 MSTORE PUSH1 0x20 ADD SWAP1 DUP2 MSTORE PUSH1 0x20 ADD PUSH0 KECCAK256 PUSH1 0x4 ADD SWAP1 DUP2 PUSH2 0x176D SWAP2 SWAP1 PUSH2 0x3A2E JUMP JUMPDEST POP PUSH1 0x5 PUSH1 0xA PUSH0 DUP6 PUSH20 0xFFFFFFFFFFFFFFFFFFFFFFFFFFFFFFFFFFFFFFFF AND PUSH20 0xFFFFFFFFFFFFFFFFFFFFFFFFFFFFFFFFFFFFFFFF AND DUP2 MSTORE PUSH1 0x20 ADD SWAP1 DUP2 MSTORE PUSH1 0x20 ADD PUSH0 KECCAK256 PUSH1 0x3 ADD DUP2 SWAP1 SSTORE POP PUSH1 0x40 MLOAD DUP1 PUSH1 0x60 ADD PUSH1 0x40 MSTORE DUP1 PUSH1 0x22 DUP2 MSTORE PUSH1 0x20 ADD PUSH2 0x3FD5 PUSH1 0x22 SWAP2 CODECOPY PUSH1 0xA PUSH0 DUP6 PUSH20 0xFFFFFFFFFFFFFFFFFFFFFFFFFFFFFFFFFFFFFFFF AND PUSH20 0xFFFFFFFFFFFFFFFFFFFFFFFFFFFFFFFFFFFFFFFF AND DUP2 MSTORE PUSH1 0x20 ADD SWAP1 DUP2 MSTORE PUSH1 0x20 ADD PUSH0 KECCAK256 PUSH1 0x2 ADD SWAP1 DUP2 PUSH2 0x1819 SWAP2 SWAP1 PUSH2 0x3A2E JUMP JUMPDEST POP PUSH32 0x89C9A137DD6383374B8E2A092D40BC74FDA69A614E9ECE010B1F4EADED8F841C PUSH1 0xA PUSH0 DUP6 PUSH20 0xFFFFFFFFFFFFFFFFFFFFFFFFFFFFFFFFFFFFFFFF AND PUSH20 0xFFFFFFFFFFFFFFFFFFFFFFFFFFFFFFFFFFFFFFFF AND DUP2 MSTORE PUSH1 0x20 ADD SWAP1 DUP2 MSTORE PUSH1 0x20 ADD PUSH0 KECCAK256 PUSH1 0x2 ADD PUSH1 0xA PUSH0 DUP7 PUSH20 0xFFFFFFFFFFFFFFFFFFFFFFFFFFFFFFFFFFFFFFFF AND PUSH20 0xFFFFFFFFFFFFFFFFFFFFFFFFFFFFFFFFFFFFFFFF AND DUP2 MSTORE PUSH1 0x20 ADD SWAP1 DUP2 MSTORE PUSH1 0x20 ADD PUSH0 KECCAK256 PUSH1 0x3 ADD SLOAD PUSH1 0xA PUSH0 DUP8 PUSH20 0xFFFFFFFFFFFFFFFFFFFFFFFFFFFFFFFFFFFFFFFF AND PUSH20 0xFFFFFFFFFFFFFFFFFFFFFFFFFFFFFFFFFFFFFFFF AND DUP2 MSTORE PUSH1 0x20 ADD SWAP1 DUP2 MSTORE PUSH1 0x20 ADD PUSH0 KECCAK256 PUSH1 0x6 ADD SLOAD PUSH1 0x40 MLOAD PUSH2 0x190C SWAP4 SWAP3 SWAP2 SWAP1 PUSH2 0x3B7E JUMP JUMPDEST PUSH1 0x40 MLOAD DUP1 SWAP2 SUB SWAP1 LOG1 PUSH1 0x40 MLOAD DUP1 PUSH1 0x60 ADD PUSH1 0x40 MSTORE DUP1 PUSH1 0x23 DUP2 MSTORE PUSH1 0x20 ADD PUSH2 0x403B PUSH1 0x23 SWAP2 CODECOPY SWAP1 POP SWAP3 SWAP2 POP POP JUMP JUMPDEST PUSH1 0xB PUSH1 0x20 MSTORE DUP1 PUSH0 MSTORE PUSH1 0x40 PUSH0 KECCAK256 PUSH0 SWAP2 POP SLOAD SWAP1 PUSH2 0x100 EXP SWAP1 DIV PUSH1 0xFF AND DUP2 JUMP JUMPDEST PUSH1 0xC PUSH1 0x20 MSTORE DUP1 PUSH0 MSTORE PUSH1 0x40 PUSH0 KECCAK256 PUSH0 SWAP2 POP SLOAD SWAP1 PUSH2 0x100 EXP SWAP1 DIV PUSH1 0xFF AND DUP2 JUMP JUMPDEST PUSH1 0x60 CALLER PUSH20 0xFFFFFFFFFFFFFFFFFFFFFFFFFFFFFFFFFFFFFFFF AND PUSH0 PUSH0 SWAP1 SLOAD SWAP1 PUSH2 0x100 EXP SWAP1 DIV PUSH20 0xFFFFFFFFFFFFFFFFFFFFFFFFFFFFFFFFFFFFFFFF AND PUSH20 0xFFFFFFFFFFFFFFFFFFFFFFFFFFFFFFFFFFFFFFFF AND EQ PUSH2 0x19C8 JUMPI PUSH0 PUSH0 REVERT JUMPDEST PUSH1 0xC PUSH0 DUP4 PUSH20 0xFFFFFFFFFFFFFFFFFFFFFFFFFFFFFFFFFFFFFFFF AND PUSH20 0xFFFFFFFFFFFFFFFFFFFFFFFFFFFFFFFFFFFFFFFF AND DUP2 MSTORE PUSH1 0x20 ADD SWAP1 DUP2 MSTORE PUSH1 0x20 ADD PUSH0 KECCAK256 PUSH0 SWAP1 SLOAD SWAP1 PUSH2 0x100 EXP SWAP1 DIV PUSH1 0xFF AND PUSH2 0x1A6C JUMPI PUSH1 0x1 PUSH1 0xC PUSH0 DUP5 PUSH20 0xFFFFFFFFFFFFFFFFFFFFFFFFFFFFFFFFFFFFFFFF AND PUSH20 0xFFFFFFFFFFFFFFFFFFFFFFFFFFFFFFFFFFFFFFFF AND DUP2 MSTORE PUSH1 0x20 ADD SWAP1 DUP2 MSTORE PUSH1 0x20 ADD PUSH0 KECCAK256 PUSH0 PUSH2 0x100 EXP DUP2 SLOAD DUP2 PUSH1 0xFF MUL NOT AND SWAP1 DUP4 ISZERO ISZERO MUL OR SWAP1 SSTORE POP JUMPDEST PUSH32 0x8FBE047A5FAFE34457A33E6BD83075C8FFED3878DC48A48D31CE3948BBB22CD4 DUP3 TIMESTAMP PUSH1 0x40 MLOAD PUSH2 0x1A9D SWAP3 SWAP2 SWAP1 PUSH2 0x3C88 JUMP JUMPDEST PUSH1 0x40 MLOAD DUP1 SWAP2 SUB SWAP1 LOG1 PUSH1 0x40 MLOAD DUP1 PUSH1 0x40 ADD PUSH1 0x40 MSTORE DUP1 PUSH1 0x12 DUP2 MSTORE PUSH1 0x20 ADD PUSH32 0x416E2061756469742069732061646465642E0000000000000000000000000000 DUP2 MSTORE POP SWAP1 POP SWAP2 SWAP1 POP JUMP JUMPDEST PUSH0 CALLER PUSH20 0xFFFFFFFFFFFFFFFFFFFFFFFFFFFFFFFFFFFFFFFF AND PUSH0 PUSH0 SWAP1 SLOAD SWAP1 PUSH2 0x100 EXP SWAP1 DIV PUSH20 0xFFFFFFFFFFFFFFFFFFFFFFFFFFFFFFFFFFFFFFFF AND PUSH20 0xFFFFFFFFFFFFFFFFFFFFFFFFFFFFFFFFFFFFFFFF AND EQ PUSH2 0x1B3A JUMPI PUSH0 PUSH0 REVERT JUMPDEST PUSH0 PUSH1 0x2 CALLER TIMESTAMP PUSH1 0x40 MLOAD PUSH1 0x20 ADD PUSH2 0x1B50 SWAP3 SWAP2 SWAP1 PUSH2 0x3D27 JUMP JUMPDEST PUSH1 0x40 MLOAD PUSH1 0x20 DUP2 DUP4 SUB SUB DUP2 MSTORE SWAP1 PUSH1 0x40 MSTORE PUSH1 0x40 MLOAD PUSH2 0x1B6C SWAP2 SWAP1 PUSH2 0x3D96 JUMP JUMPDEST PUSH1 0x20 PUSH1 0x40 MLOAD DUP1 DUP4 SUB DUP2 DUP6 GAS STATICCALL ISZERO DUP1 ISZERO PUSH2 0x1B87 JUMPI RETURNDATASIZE PUSH0 PUSH0 RETURNDATACOPY RETURNDATASIZE PUSH0 REVERT JUMPDEST POP POP POP PUSH1 0x40 MLOAD RETURNDATASIZE PUSH1 0x1F NOT PUSH1 0x1F DUP3 ADD AND DUP3 ADD DUP1 PUSH1 0x40 MSTORE POP DUP2 ADD SWAP1 PUSH2 0x1BAA SWAP2 SWAP1 PUSH2 0x3DDF JUMP JUMPDEST PUSH0 SHR SWAP1 POP PUSH1 0x1 PUSH1 0xA PUSH0 DUP4 PUSH20 0xFFFFFFFFFFFFFFFFFFFFFFFFFFFFFFFFFFFFFFFF AND PUSH20 0xFFFFFFFFFFFFFFFFFFFFFFFFFFFFFFFFFFFFFFFF AND DUP2 MSTORE PUSH1 0x20 ADD SWAP1 DUP2 MSTORE PUSH1 0x20 ADD PUSH0 KECCAK256 PUSH0 ADD PUSH0 PUSH2 0x100 EXP DUP2 SLOAD DUP2 PUSH1 0xFF MUL NOT AND SWAP1 DUP4 ISZERO ISZERO MUL OR SWAP1 SSTORE POP DUP1 PUSH20 0xFFFFFFFFFFFFFFFFFFFFFFFFFFFFFFFFFFFFFFFF AND PUSH1 0xA PUSH0 DUP4 PUSH20 0xFFFFFFFFFFFFFFFFFFFFFFFFFFFFFFFFFFFFFFFF AND PUSH20 0xFFFFFFFFFFFFFFFFFFFFFFFFFFFFFFFFFFFFFFFF AND DUP2 MSTORE PUSH1 0x20 ADD SWAP1 DUP2 MSTORE PUSH1 0x20 ADD PUSH0 KECCAK256 PUSH1 0x1 ADD DUP2 SWAP1 SSTORE POP PUSH1 0x40 MLOAD DUP1 PUSH1 0x40 ADD PUSH1 0x40 MSTORE DUP1 PUSH1 0x1D DUP2 MSTORE PUSH1 0x20 ADD PUSH32 0x4E6577204D65646963616C205265636F72642069732063726561746564000000 DUP2 MSTORE POP PUSH1 0xA PUSH0 DUP4 PUSH20 0xFFFFFFFFFFFFFFFFFFFFFFFFFFFFFFFFFFFFFFFF AND PUSH20 0xFFFFFFFFFFFFFFFFFFFFFFFFFFFFFFFFFFFFFFFF AND DUP2 MSTORE PUSH1 0x20 ADD SWAP1 DUP2 MSTORE PUSH1 0x20 ADD PUSH0 KECCAK256 PUSH1 0x2 ADD SWAP1 DUP2 PUSH2 0x1CE2 SWAP2 SWAP1 PUSH2 0x3A2E JUMP JUMPDEST POP PUSH0 PUSH1 0xA PUSH0 DUP4 PUSH20 0xFFFFFFFFFFFFFFFFFFFFFFFFFFFFFFFFFFFFFFFF AND PUSH20 0xFFFFFFFFFFFFFFFFFFFFFFFFFFFFFFFFFFFFFFFF AND DUP2 MSTORE PUSH1 0x20 ADD SWAP1 DUP2 MSTORE PUSH1 0x20 ADD PUSH0 KECCAK256 PUSH1 0x3 ADD DUP2 SWAP1 SSTORE POP PUSH1 0x40 MLOAD DUP1 PUSH1 0x40 ADD PUSH1 0x40 MSTORE DUP1 PUSH1 0xE DUP2 MSTORE PUSH1 0x20 ADD PUSH32 0x566973697420696E697469617465000000000000000000000000000000000000 DUP2 MSTORE POP PUSH1 0xA PUSH0 DUP4 PUSH20 0xFFFFFFFFFFFFFFFFFFFFFFFFFFFFFFFFFFFFFFFF AND PUSH20 0xFFFFFFFFFFFFFFFFFFFFFFFFFFFFFFFFFFFFFFFF AND DUP2 MSTORE PUSH1 0x20 ADD SWAP1 DUP2 MSTORE PUSH1 0x20 ADD PUSH0 KECCAK256 PUSH1 0x4 ADD SWAP1 DUP2 PUSH2 0x1DAA SWAP2 SWAP1 PUSH2 0x3A2E JUMP JUMPDEST POP CALLER PUSH1 0xA PUSH0 DUP4 PUSH20 0xFFFFFFFFFFFFFFFFFFFFFFFFFFFFFFFFFFFFFFFF AND PUSH20 0xFFFFFFFFFFFFFFFFFFFFFFFFFFFFFFFFFFFFFFFF AND DUP2 MSTORE PUSH1 0x20 ADD SWAP1 DUP2 MSTORE PUSH1 0x20 ADD PUSH0 KECCAK256 PUSH1 0x5 ADD PUSH0 PUSH2 0x100 EXP DUP2 SLOAD DUP2 PUSH20 0xFFFFFFFFFFFFFFFFFFFFFFFFFFFFFFFFFFFFFFFF MUL NOT AND SWAP1 DUP4 PUSH20 0xFFFFFFFFFFFFFFFFFFFFFFFFFFFFFFFFFFFFFFFF AND MUL OR SWAP1 SSTORE POP DUP3 PUSH1 0xA PUSH0 DUP4 PUSH20 0xFFFFFFFFFFFFFFFFFFFFFFFFFFFFFFFFFFFFFFFF AND PUSH20 0xFFFFFFFFFFFFFFFFFFFFFFFFFFFFFFFFFFFFFFFF AND DUP2 MSTORE PUSH1 0x20 ADD SWAP1 DUP2 MSTORE PUSH1 0x20 ADD PUSH0 KECCAK256 PUSH1 0x6 ADD DUP2 SWAP1 SSTORE POP PUSH32 0x14207AC2653501DE32DA60B3FEE91A4D0C170419F5EDD0528124B1C526A70509 DUP2 PUSH1 0xA PUSH0 DUP5 PUSH20 0xFFFFFFFFFFFFFFFFFFFFFFFFFFFFFFFFFFFFFFFF AND PUSH20 0xFFFFFFFFFFFFFFFFFFFFFFFFFFFFFFFFFFFFFFFF AND DUP2 MSTORE PUSH1 0x20 ADD SWAP1 DUP2 MSTORE PUSH1 0x20 ADD PUSH0 KECCAK256 PUSH1 0x2 ADD PUSH1 0xA PUSH0 DUP6 PUSH20 0xFFFFFFFFFFFFFFFFFFFFFFFFFFFFFFFFFFFFFFFF AND PUSH20 0xFFFFFFFFFFFFFFFFFFFFFFFFFFFFFFFFFFFFFFFF AND DUP2 MSTORE PUSH1 0x20 ADD SWAP1 DUP2 MSTORE PUSH1 0x20 ADD PUSH0 KECCAK256 PUSH1 0x3 ADD SLOAD PUSH1 0xA PUSH0 DUP7 PUSH20 0xFFFFFFFFFFFFFFFFFFFFFFFFFFFFFFFFFFFFFFFF AND PUSH20 0xFFFFFFFFFFFFFFFFFFFFFFFFFFFFFFFFFFFFFFFF AND DUP2 MSTORE PUSH1 0x20 ADD SWAP1 DUP2 MSTORE PUSH1 0x20 ADD PUSH0 KECCAK256 PUSH1 0x6 ADD SLOAD PUSH1 0x40 MLOAD PUSH2 0x1F62 SWAP5 SWAP4 SWAP3 SWAP2 SWAP1 PUSH2 0x3E0A JUMP JUMPDEST PUSH1 0x40 MLOAD DUP1 SWAP2 SUB SWAP1 LOG1 DUP1 SWAP2 POP POP SWAP2 SWAP1 POP JUMP JUMPDEST PUSH1 0x60 PUSH0 PUSH1 0x40 MLOAD DUP1 PUSH1 0x60 ADD PUSH1 0x40 MSTORE DUP1 PUSH1 0x22 DUP2 MSTORE PUSH1 0x20 ADD PUSH2 0x4019 PUSH1 0x22 SWAP2 CODECOPY SWAP1 POP PUSH1 0xA PUSH0 DUP5 PUSH20 0xFFFFFFFFFFFFFFFFFFFFFFFFFFFFFFFFFFFFFFFF AND PUSH20 0xFFFFFFFFFFFFFFFFFFFFFFFFFFFFFFFFFFFFFFFF AND DUP2 MSTORE PUSH1 0x20 ADD SWAP1 DUP2 MSTORE PUSH1 0x20 ADD PUSH0 KECCAK256 PUSH0 ADD PUSH0 SWAP1 SLOAD SWAP1 PUSH2 0x100 EXP SWAP1 DIV PUSH1 0xFF AND PUSH2 0x1FE5 JUMPI PUSH0 PUSH0 REVERT JUMPDEST PUSH1 0xB PUSH0 CALLER PUSH20 0xFFFFFFFFFFFFFFFFFFFFFFFFFFFFFFFFFFFFFFFF AND PUSH20 0xFFFFFFFFFFFFFFFFFFFFFFFFFFFFFFFFFFFFFFFF AND DUP2 MSTORE PUSH1 0x20 ADD SWAP1 DUP2 MSTORE PUSH1 0x20 ADD PUSH0 KECCAK256 PUSH0 SWAP1 SLOAD SWAP1 PUSH2 0x100 EXP SWAP1 DIV PUSH1 0xFF AND PUSH2 0x2037 JUMPI PUSH0 PUSH0 REVERT JUMPDEST PUSH1 0x1 PUSH1 0xA PUSH0 DUP6 PUSH20 0xFFFFFFFFFFFFFFFFFFFFFFFFFFFFFFFFFFFFFFFF AND PUSH20 0xFFFFFFFFFFFFFFFFFFFFFFFFFFFFFFFFFFFFFFFF AND DUP2 MSTORE PUSH1 0x20 ADD SWAP1 DUP2 MSTORE PUSH1 0x20 ADD PUSH0 KECCAK256 PUSH1 0x3 ADD SLOAD SUB PUSH2 0x2083 JUMPI PUSH0 PUSH0 REVERT JUMPDEST CALLER PUSH1 0xA PUSH0 DUP6 PUSH20 0xFFFFFFFFFFFFFFFFFFFFFFFFFFFFFFFFFFFFFFFF AND PUSH20 0xFFFFFFFFFFFFFFFFFFFFFFFFFFFFFFFFFFFFFFFF AND DUP2 MSTORE PUSH1 0x20 ADD SWAP1 DUP2 MSTORE PUSH1 0x20 ADD PUSH0 KECCAK256 PUSH1 0x7 ADD PUSH0 PUSH2 0x100 EXP DUP2 SLOAD DUP2 PUSH20 0xFFFFFFFFFFFFFFFFFFFFFFFFFFFFFFFFFFFFFFFF MUL NOT AND SWAP1 DUP4 PUSH20 0xFFFFFFFFFFFFFFFFFFFFFFFFFFFFFFFFFFFFFFFF AND MUL OR SWAP1 SSTORE POP TIMESTAMP PUSH1 0xA PUSH0 DUP6 PUSH20 0xFFFFFFFFFFFFFFFFFFFFFFFFFFFFFFFFFFFFFFFF AND PUSH20 0xFFFFFFFFFFFFFFFFFFFFFFFFFFFFFFFFFFFFFFFF AND DUP2 MSTORE PUSH1 0x20 ADD SWAP1 DUP2 MSTORE PUSH1 0x20 ADD PUSH0 KECCAK256 PUSH1 0x8 ADD DUP2 SWAP1 SSTORE POP PUSH1 0x3 PUSH1 0xA PUSH0 DUP6 PUSH20 0xFFFFFFFFFFFFFFFFFFFFFFFFFFFFFFFFFFFFFFFF AND PUSH20 0xFFFFFFFFFFFFFFFFFFFFFFFFFFFFFFFFFFFFFFFF AND DUP2 MSTORE PUSH1 0x20 ADD SWAP1 DUP2 MSTORE PUSH1 0x20 ADD PUSH0 KECCAK256 PUSH1 0x3 ADD DUP2 SWAP1 SSTORE POP PUSH1 0x40 MLOAD DUP1 PUSH1 0x60 ADD PUSH1 0x40 MSTORE DUP1 PUSH1 0x22 DUP2 MSTORE PUSH1 0x20 ADD PUSH2 0x4019 PUSH1 0x22 SWAP2 CODECOPY PUSH1 0xA PUSH0 DUP6 PUSH20 0xFFFFFFFFFFFFFFFFFFFFFFFFFFFFFFFFFFFFFFFF AND PUSH20 0xFFFFFFFFFFFFFFFFFFFFFFFFFFFFFFFFFFFFFFFF AND DUP2 MSTORE PUSH1 0x20 ADD SWAP1 DUP2 MSTORE PUSH1 0x20 ADD PUSH0 KECCAK256 PUSH1 0x2 ADD SWAP1 DUP2 PUSH2 0x21F1 SWAP2 SWAP1 PUSH2 0x3A2E JUMP JUMPDEST POP PUSH32 0xD389C9D6EEC9DC6179E4CFC56C2B4A3DDAB405290F85C5CA35457C25DA541465 PUSH1 0xA PUSH0 DUP6 PUSH20 0xFFFFFFFFFFFFFFFFFFFFFFFFFFFFFFFFFFFFFFFF AND PUSH20 0xFFFFFFFFFFFFFFFFFFFFFFFFFFFFFFFFFFFFFFFF AND DUP2 MSTORE PUSH1 0x20 ADD SWAP1 DUP2 MSTORE PUSH1 0x20 ADD PUSH0 KECCAK256 PUSH1 0x2 ADD PUSH1 0xA PUSH0 DUP7 PUSH20 0xFFFFFFFFFFFFFFFFFFFFFFFFFFFFFFFFFFFFFFFF AND PUSH20 0xFFFFFFFFFFFFFFFFFFFFFFFFFFFFFFFFFFFFFFFF AND DUP2 MSTORE PUSH1 0x20 ADD SWAP1 DUP2 MSTORE PUSH1 0x20 ADD PUSH0 KECCAK256 PUSH1 0x3 ADD SLOAD PUSH1 0xA PUSH0 DUP8 PUSH20 0xFFFFFFFFFFFFFFFFFFFFFFFFFFFFFFFFFFFFFFFF AND PUSH20 0xFFFFFFFFFFFFFFFFFFFFFFFFFFFFFFFFFFFFFFFF AND DUP2 MSTORE PUSH1 0x20 ADD SWAP1 DUP2 MSTORE PUSH1 0x20 ADD PUSH0 KECCAK256 PUSH1 0x6 ADD SLOAD PUSH1 0x40 MLOAD PUSH2 0x22E4 SWAP4 SWAP3 SWAP2 SWAP1 PUSH2 0x3B7E JUMP JUMPDEST PUSH1 0x40 MLOAD DUP1 SWAP2 SUB SWAP1 LOG1 DUP1 SWAP2 POP POP SWAP2 SWAP1 POP JUMP JUMPDEST PUSH1 0x60 PUSH1 0xA PUSH0 DUP4 PUSH20 0xFFFFFFFFFFFFFFFFFFFFFFFFFFFFFFFFFFFFFFFF AND PUSH20 0xFFFFFFFFFFFFFFFFFFFFFFFFFFFFFFFFFFFFFFFF AND DUP2 MSTORE PUSH1 0x20 ADD SWAP1 DUP2 MSTORE PUSH1 0x20 ADD PUSH0 KECCAK256 PUSH0 ADD PUSH0 SWAP1 SLOAD SWAP1 PUSH2 0x100 EXP SWAP1 DIV PUSH1 0xFF AND PUSH2 0x234B JUMPI PUSH0 PUSH0 REVERT JUMPDEST PUSH1 0xB PUSH0 CALLER PUSH20 0xFFFFFFFFFFFFFFFFFFFFFFFFFFFFFFFFFFFFFFFF AND PUSH20 0xFFFFFFFFFFFFFFFFFFFFFFFFFFFFFFFFFFFFFFFF AND DUP2 MSTORE PUSH1 0x20 ADD SWAP1 DUP2 MSTORE PUSH1 0x20 ADD PUSH0 KECCAK256 PUSH0 SWAP1 SLOAD SWAP1 PUSH2 0x100 EXP SWAP1 DIV PUSH1 0xFF AND PUSH2 0x239D JUMPI PUSH0 PUSH0 REVERT JUMPDEST PUSH1 0x1 PUSH1 0xA PUSH0 DUP5 PUSH20 0xFFFFFFFFFFFFFFFFFFFFFFFFFFFFFFFFFFFFFFFF AND PUSH20 0xFFFFFFFFFFFFFFFFFFFFFFFFFFFFFFFFFFFFFFFF AND DUP2 MSTORE PUSH1 0x20 ADD SWAP1 DUP2 MSTORE PUSH1 0x20 ADD PUSH0 KECCAK256 PUSH1 0x3 ADD SLOAD SUB PUSH2 0x23E9 JUMPI PUSH0 PUSH0 REVERT JUMPDEST CALLER PUSH1 0xA PUSH0 DUP5 PUSH20 0xFFFFFFFFFFFFFFFFFFFFFFFFFFFFFFFFFFFFFFFF AND PUSH20 0xFFFFFFFFFFFFFFFFFFFFFFFFFFFFFFFFFFFFFFFF AND DUP2 MSTORE PUSH1 0x20 ADD SWAP1 DUP2 MSTORE PUSH1 0x20 ADD PUSH0 KECCAK256 PUSH1 0x7 ADD PUSH0 PUSH2 0x100 EXP DUP2 SLOAD DUP2 PUSH20 0xFFFFFFFFFFFFFFFFFFFFFFFFFFFFFFFFFFFFFFFF MUL NOT AND SWAP1 DUP4 PUSH20 0xFFFFFFFFFFFFFFFFFFFFFFFFFFFFFFFFFFFFFFFF AND MUL OR SWAP1 SSTORE POP TIMESTAMP PUSH1 0xA PUSH0 DUP5 PUSH20 0xFFFFFFFFFFFFFFFFFFFFFFFFFFFFFFFFFFFFFFFF AND PUSH20 0xFFFFFFFFFFFFFFFFFFFFFFFFFFFFFFFFFFFFFFFF AND DUP2 MSTORE PUSH1 0x20 ADD SWAP1 DUP2 MSTORE PUSH1 0x20 ADD PUSH0 KECCAK256 PUSH1 0x8 ADD DUP2 SWAP1 SSTORE POP PUSH1 0x4 PUSH1 0xA PUSH0 DUP5 PUSH20 0xFFFFFFFFFFFFFFFFFFFFFFFFFFFFFFFFFFFFFFFF AND PUSH20 0xFFFFFFFFFFFFFFFFFFFFFFFFFFFFFFFFFFFFFFFF AND DUP2 MSTORE PUSH1 0x20 ADD SWAP1 DUP2 MSTORE PUSH1 0x20 ADD PUSH0 KECCAK256 PUSH1 0x3 ADD DUP2 SWAP1 SSTORE POP PUSH1 0x40 MLOAD DUP1 PUSH1 0x60 ADD PUSH1 0x40 MSTORE DUP1 PUSH1 0x22 DUP2 MSTORE PUSH1 0x20 ADD PUSH2 0x3FF7 PUSH1 0x22 SWAP2 CODECOPY PUSH1 0xA PUSH0 DUP5 PUSH20 0xFFFFFFFFFFFFFFFFFFFFFFFFFFFFFFFFFFFFFFFF AND PUSH20 0xFFFFFFFFFFFFFFFFFFFFFFFFFFFFFFFFFFFFFFFF AND DUP2 MSTORE PUSH1 0x20 ADD SWAP1 DUP2 MSTORE PUSH1 0x20 ADD PUSH0 KECCAK256 PUSH1 0x2 ADD SWAP1 DUP2 PUSH2 0x2557 SWAP2 SWAP1 PUSH2 0x3A2E JUMP JUMPDEST POP PUSH32 0x291023100CFC44FBA59B279273F751E0FA64289217179D5C9835FC07AB5B1E4F PUSH1 0xA PUSH0 DUP5 PUSH20 0xFFFFFFFFFFFFFFFFFFFFFFFFFFFFFFFFFFFFFFFF AND PUSH20 0xFFFFFFFFFFFFFFFFFFFFFFFFFFFFFFFFFFFFFFFF AND DUP2 MSTORE PUSH1 0x20 ADD SWAP1 DUP2 MSTORE PUSH1 0x20 ADD PUSH0 KECCAK256 PUSH1 0x2 ADD PUSH1 0xA PUSH0 DUP6 PUSH20 0xFFFFFFFFFFFFFFFFFFFFFFFFFFFFFFFFFFFFFFFF AND PUSH20 0xFFFFFFFFFFFFFFFFFFFFFFFFFFFFFFFFFFFFFFFF AND DUP2 MSTORE PUSH1 0x20 ADD SWAP1 DUP2 MSTORE PUSH1 0x20 ADD PUSH0 KECCAK256 PUSH1 0x3 ADD SLOAD PUSH1 0xA PUSH0 DUP7 PUSH20 0xFFFFFFFFFFFFFFFFFFFFFFFFFFFFFFFFFFFFFFFF AND PUSH20 0xFFFFFFFFFFFFFFFFFFFFFFFFFFFFFFFFFFFFFFFF AND DUP2 MSTORE PUSH1 0x20 ADD SWAP1 DUP2 MSTORE PUSH1 0x20 ADD PUSH0 KECCAK256 PUSH1 0x6 ADD SLOAD PUSH1 0x40 MLOAD PUSH2 0x264A SWAP4 SWAP3 SWAP2 SWAP1 PUSH2 0x3B7E JUMP JUMPDEST PUSH1 0x40 MLOAD DUP1 SWAP2 SUB SWAP1 LOG1 SWAP2 SWAP1 POP JUMP JUMPDEST PUSH1 0x60 CALLER PUSH20 0xFFFFFFFFFFFFFFFFFFFFFFFFFFFFFFFFFFFFFFFF AND PUSH0 PUSH0 SWAP1 SLOAD SWAP1 PUSH2 0x100 EXP SWAP1 DIV PUSH20 0xFFFFFFFFFFFFFFFFFFFFFFFFFFFFFFFFFFFFFFFF AND PUSH20 0xFFFFFFFFFFFFFFFFFFFFFFFFFFFFFFFFFFFFFFFF AND EQ PUSH2 0x26B0 JUMPI PUSH0 PUSH0 REVERT JUMPDEST PUSH1 0xC PUSH0 DUP4 PUSH20 0xFFFFFFFFFFFFFFFFFFFFFFFFFFFFFFFFFFFFFFFF AND PUSH20 0xFFFFFFFFFFFFFFFFFFFFFFFFFFFFFFFFFFFFFFFF AND DUP2 MSTORE PUSH1 0x20 ADD SWAP1 DUP2 MSTORE PUSH1 0x20 ADD PUSH0 KECCAK256 PUSH0 SWAP1 SLOAD SWAP1 PUSH2 0x100 EXP SWAP1 DIV PUSH1 0xFF AND ISZERO PUSH2 0x2754 JUMPI PUSH0 PUSH1 0xC PUSH0 DUP5 PUSH20 0xFFFFFFFFFFFFFFFFFFFFFFFFFFFFFFFFFFFFFFFF AND PUSH20 0xFFFFFFFFFFFFFFFFFFFFFFFFFFFFFFFFFFFFFFFF AND DUP2 MSTORE PUSH1 0x20 ADD SWAP1 DUP2 MSTORE PUSH1 0x20 ADD PUSH0 KECCAK256 PUSH0 PUSH2 0x100 EXP DUP2 SLOAD DUP2 PUSH1 0xFF MUL NOT AND SWAP1 DUP4 ISZERO ISZERO MUL OR SWAP1 SSTORE POP JUMPDEST PUSH32 0xAB14ABF9CE720D4DFA04591DA5DE1EAD53E0C4FDADFCA225BAAEA81626567D4D DUP3 TIMESTAMP PUSH1 0x40 MLOAD PUSH2 0x2785 SWAP3 SWAP2 SWAP1 PUSH2 0x3E9E JUMP JUMPDEST PUSH1 0x40 MLOAD DUP1 SWAP2 SUB SWAP1 LOG1 PUSH1 0x40 MLOAD DUP1 PUSH1 0x40 ADD PUSH1 0x40 MSTORE DUP1 PUSH1 0x14 DUP2 MSTORE PUSH1 0x20 ADD PUSH32 0x4120646F63746F722069732072656D6F7665642E000000000000000000000000 DUP2 MSTORE POP SWAP1 POP SWAP2 SWAP1 POP JUMP JUMPDEST PUSH1 0x60 CALLER PUSH20 0xFFFFFFFFFFFFFFFFFFFFFFFFFFFFFFFFFFFFFFFF AND PUSH0 PUSH0 SWAP1 SLOAD SWAP1 PUSH2 0x100 EXP SWAP1 DIV PUSH20 0xFFFFFFFFFFFFFFFFFFFFFFFFFFFFFFFFFFFFFFFF AND PUSH20 0xFFFFFFFFFFFFFFFFFFFFFFFFFFFFFFFFFFFFFFFF AND EQ PUSH2 0x2823 JUMPI PUSH0 PUSH0 REVERT JUMPDEST PUSH1 0xB PUSH0 DUP4 PUSH20 0xFFFFFFFFFFFFFFFFFFFFFFFFFFFFFFFFFFFFFFFF AND PUSH20 0xFFFFFFFFFFFFFFFFFFFFFFFFFFFFFFFFFFFFFFFF AND DUP2 MSTORE PUSH1 0x20 ADD SWAP1 DUP2 MSTORE PUSH1 0x20 ADD PUSH0 KECCAK256 PUSH0 SWAP1 SLOAD SWAP1 PUSH2 0x100 EXP SWAP1 DIV PUSH1 0xFF AND PUSH2 0x28C7 JUMPI PUSH1 0x1 PUSH1 0xB PUSH0 DUP5 PUSH20 0xFFFFFFFFFFFFFFFFFFFFFFFFFFFFFFFFFFFFFFFF AND PUSH20 0xFFFFFFFFFFFFFFFFFFFFFFFFFFFFFFFFFFFFFFFF AND DUP2 MSTORE PUSH1 0x20 ADD SWAP1 DUP2 MSTORE PUSH1 0x20 ADD PUSH0 KECCAK256 PUSH0 PUSH2 0x100 EXP DUP2 SLOAD DUP2 PUSH1 0xFF MUL NOT AND SWAP1 DUP4 ISZERO ISZERO MUL OR SWAP1 SSTORE POP JUMPDEST PUSH32 0x51AB0AD16F4F10B093A4B9BC75D760DC953842C743D54AE9FAA9B5AAE40659AA DUP3 TIMESTAMP PUSH1 0x40 MLOAD PUSH2 0x28F8 SWAP3 SWAP2 SWAP1 PUSH2 0x3F22 JUMP JUMPDEST PUSH1 0x40 MLOAD DUP1 SWAP2 SUB SWAP1 LOG1 PUSH1 0x40 MLOAD DUP1 PUSH1 0x40 ADD PUSH1 0x40 MSTORE DUP1 PUSH1 0x12 DUP2 MSTORE PUSH1 0x20 ADD PUSH32 0x4120646F63746F722069732061646465642E0000000000000000000000000000 DUP2 MSTORE POP SWAP1 POP SWAP2 SWAP1 POP JUMP JUMPDEST PUSH1 0x60 PUSH1 0xA PUSH0 DUP4 PUSH20 0xFFFFFFFFFFFFFFFFFFFFFFFFFFFFFFFFFFFFFFFF AND PUSH20 0xFFFFFFFFFFFFFFFFFFFFFFFFFFFFFFFFFFFFFFFF AND DUP2 MSTORE PUSH1 0x20 ADD SWAP1 DUP2 MSTORE PUSH1 0x20 ADD PUSH0 KECCAK256 PUSH0 ADD PUSH0 SWAP1 SLOAD SWAP1 PUSH2 0x100 EXP SWAP1 DIV PUSH1 0xFF AND PUSH2 0x2993 JUMPI PUSH0 PUSH0 REVERT JUMPDEST PUSH1 0xB PUSH0 CALLER PUSH20 0xFFFFFFFFFFFFFFFFFFFFFFFFFFFFFFFFFFFFFFFF AND PUSH20 0xFFFFFFFFFFFFFFFFFFFFFFFFFFFFFFFFFFFFFFFF AND DUP2 MSTORE PUSH1 0x20 ADD SWAP1 DUP2 MSTORE PUSH1 0x20 ADD PUSH0 KECCAK256 PUSH0 SWAP1 SLOAD SWAP1 PUSH2 0x100 EXP SWAP1 DIV PUSH1 0xFF AND DUP1 PUSH2 0x2A2E JUMPI POP PUSH1 0xC PUSH0 CALLER PUSH20 0xFFFFFFFFFFFFFFFFFFFFFFFFFFFFFFFFFFFFFFFF AND PUSH20 0xFFFFFFFFFFFFFFFFFFFFFFFFFFFFFFFFFFFFFFFF AND DUP2 MSTORE PUSH1 0x20 ADD SWAP1 DUP2 MSTORE PUSH1 0x20 ADD PUSH0 KECCAK256 PUSH0 SWAP1 SLOAD SWAP1 PUSH2 0x100 EXP SWAP1 DIV PUSH1 0xFF AND JUMPDEST PUSH2 0x2A6D JUMPI PUSH1 0x40 MLOAD PUSH32 0x8C379A000000000000000000000000000000000000000000000000000000000 DUP2 MSTORE PUSH1 0x4 ADD PUSH2 0x2A64 SWAP1 PUSH2 0x3870 JUMP JUMPDEST PUSH1 0x40 MLOAD DUP1 SWAP2 SUB SWAP1 REVERT JUMPDEST PUSH1 0x1 PUSH1 0xA PUSH0 DUP5 PUSH20 0xFFFFFFFFFFFFFFFFFFFFFFFFFFFFFFFFFFFFFFFF AND PUSH20 0xFFFFFFFFFFFFFFFFFFFFFFFFFFFFFFFFFFFFFFFF AND DUP2 MSTORE PUSH1 0x20 ADD SWAP1 DUP2 MSTORE PUSH1 0x20 ADD PUSH0 KECCAK256 PUSH1 0x3 ADD SLOAD SUB PUSH2 0x2AB9 JUMPI PUSH0 PUSH0 REVERT JUMPDEST CALLER PUSH1 0xA PUSH0 DUP5 PUSH20 0xFFFFFFFFFFFFFFFFFFFFFFFFFFFFFFFFFFFFFFFF AND PUSH20 0xFFFFFFFFFFFFFFFFFFFFFFFFFFFFFFFFFFFFFFFF AND DUP2 MSTORE PUSH1 0x20 ADD SWAP1 DUP2 MSTORE PUSH1 0x20 ADD PUSH0 KECCAK256 PUSH1 0x7 ADD PUSH0 PUSH2 0x100 EXP DUP2 SLOAD DUP2 PUSH20 0xFFFFFFFFFFFFFFFFFFFFFFFFFFFFFFFFFFFFFFFF MUL NOT AND SWAP1 DUP4 PUSH20 0xFFFFFFFFFFFFFFFFFFFFFFFFFFFFFFFFFFFFFFFF AND MUL OR SWAP1 SSTORE POP TIMESTAMP PUSH1 0xA PUSH0 DUP5 PUSH20 0xFFFFFFFFFFFFFFFFFFFFFFFFFFFFFFFFFFFFFFFF AND PUSH20 0xFFFFFFFFFFFFFFFFFFFFFFFFFFFFFFFFFFFFFFFF AND DUP2 MSTORE PUSH1 0x20 ADD SWAP1 DUP2 MSTORE PUSH1 0x20 ADD PUSH0 KECCAK256 PUSH1 0x8 ADD DUP2 SWAP1 SSTORE POP PUSH1 0x5 PUSH1 0xA PUSH0 DUP5 PUSH20 0xFFFFFFFFFFFFFFFFFFFFFFFFFFFFFFFFFFFFFFFF AND PUSH20 0xFFFFFFFFFFFFFFFFFFFFFFFFFFFFFFFFFFFFFFFF AND DUP2 MSTORE PUSH1 0x20 ADD SWAP1 DUP2 MSTORE PUSH1 0x20 ADD PUSH0 KECCAK256 PUSH1 0x3 ADD DUP2 SWAP1 SSTORE POP PUSH1 0x40 MLOAD DUP1 PUSH1 0x60 ADD PUSH1 0x40 MSTORE DUP1 PUSH1 0x21 DUP2 MSTORE PUSH1 0x20 ADD PUSH2 0x3F81 PUSH1 0x21 SWAP2 CODECOPY PUSH1 0xA PUSH0 DUP5 PUSH20 0xFFFFFFFFFFFFFFFFFFFFFFFFFFFFFFFFFFFFFFFF AND PUSH20 0xFFFFFFFFFFFFFFFFFFFFFFFFFFFFFFFFFFFFFFFF AND DUP2 MSTORE PUSH1 0x20 ADD SWAP1 DUP2 MSTORE PUSH1 0x20 ADD PUSH0 KECCAK256 PUSH1 0x2 ADD SWAP1 DUP2 PUSH2 0x2C27 SWAP2 SWAP1 PUSH2 0x3A2E JUMP JUMPDEST POP PUSH32 0x49B37B6C2E1DA17DBF397324FE77F392778404DB069D7652D87FEB8E0BE2BB1D PUSH1 0xA PUSH0 DUP5 PUSH20 0xFFFFFFFFFFFFFFFFFFFFFFFFFFFFFFFFFFFFFFFF AND PUSH20 0xFFFFFFFFFFFFFFFFFFFFFFFFFFFFFFFFFFFFFFFF AND DUP2 MSTORE PUSH1 0x20 ADD SWAP1 DUP2 MSTORE PUSH1 0x20 ADD PUSH0 KECCAK256 PUSH1 0x2 ADD PUSH1 0xA PUSH0 DUP6 PUSH20 0xFFFFFFFFFFFFFFFFFFFFFFFFFFFFFFFFFFFFFFFF AND PUSH20 0xFFFFFFFFFFFFFFFFFFFFFFFFFFFFFFFFFFFFFFFF AND DUP2 MSTORE PUSH1 0x20 ADD SWAP1 DUP2 MSTORE PUSH1 0x20 ADD PUSH0 KECCAK256 PUSH1 0x3 ADD SLOAD PUSH1 0xA PUSH0 DUP7 PUSH20 0xFFFFFFFFFFFFFFFFFFFFFFFFFFFFFFFFFFFFFFFF AND PUSH20 0xFFFFFFFFFFFFFFFFFFFFFFFFFFFFFFFFFFFFFFFF AND DUP2 MSTORE PUSH1 0x20 ADD SWAP1 DUP2 MSTORE PUSH1 0x20 ADD PUSH0 KECCAK256 PUSH1 0x6 ADD SLOAD PUSH1 0x40 MLOAD PUSH2 0x2D1A SWAP4 SWAP3 SWAP2 SWAP1 PUSH2 0x3B7E JUMP JUMPDEST PUSH1 0x40 MLOAD DUP1 SWAP2 SUB SWAP1 LOG1 PUSH1 0x40 MLOAD DUP1 PUSH1 0x60 ADD PUSH1 0x40 MSTORE DUP1 PUSH1 0x33 DUP2 MSTORE PUSH1 0x20 ADD PUSH2 0x3FA2 PUSH1 0x33 SWAP2 CODECOPY SWAP1 POP SWAP2 SWAP1 POP JUMP JUMPDEST PUSH1 0x60 PUSH1 0x1 ISZERO ISZERO PUSH1 0xA PUSH0 DUP5 PUSH20 0xFFFFFFFFFFFFFFFFFFFFFFFFFFFFFFFFFFFFFFFF AND PUSH20 0xFFFFFFFFFFFFFFFFFFFFFFFFFFFFFFFFFFFFFFFF AND DUP2 MSTORE PUSH1 0x20 ADD SWAP1 DUP2 MSTORE PUSH1 0x20 ADD PUSH0 KECCAK256 PUSH0 ADD PUSH0 SWAP1 SLOAD SWAP1 PUSH2 0x100 EXP SWAP1 DIV PUSH1 0xFF AND ISZERO ISZERO EQ PUSH2 0x2D9F JUMPI PUSH0 PUSH0 REVERT JUMPDEST PUSH1 0x1 PUSH1 0xA PUSH0 DUP5 PUSH20 0xFFFFFFFFFFFFFFFFFFFFFFFFFFFFFFFFFFFFFFFF AND PUSH20 0xFFFFFFFFFFFFFFFFFFFFFFFFFFFFFFFFFFFFFFFF AND DUP2 MSTORE PUSH1 0x20 ADD SWAP1 DUP2 MSTORE PUSH1 0x20 ADD PUSH0 KECCAK256 PUSH1 0x3 ADD SLOAD SUB PUSH2 0x2DEB JUMPI PUSH0 PUSH0 REVERT JUMPDEST PUSH1 0xA PUSH0 DUP4 PUSH20 0xFFFFFFFFFFFFFFFFFFFFFFFFFFFFFFFFFFFFFFFF AND PUSH20 0xFFFFFFFFFFFFFFFFFFFFFFFFFFFFFFFFFFFFFFFF AND DUP2 MSTORE PUSH1 0x20 ADD SWAP1 DUP2 MSTORE PUSH1 0x20 ADD PUSH0 KECCAK256 PUSH1 0x5 ADD PUSH0 SWAP1 SLOAD SWAP1 PUSH2 0x100 EXP SWAP1 DIV PUSH20 0xFFFFFFFFFFFFFFFFFFFFFFFFFFFFFFFFFFFFFFFF AND PUSH20 0xFFFFFFFFFFFFFFFFFFFFFFFFFFFFFFFFFFFFFFFF AND CALLER PUSH20 0xFFFFFFFFFFFFFFFFFFFFFFFFFFFFFFFFFFFFFFFF AND EQ ISZERO DUP1 ISZERO PUSH2 0x2ECD JUMPI POP PUSH1 0xB PUSH0 CALLER PUSH20 0xFFFFFFFFFFFFFFFFFFFFFFFFFFFFFFFFFFFFFFFF AND PUSH20 0xFFFFFFFFFFFFFFFFFFFFFFFFFFFFFFFFFFFFFFFF AND DUP2 MSTORE PUSH1 0x20 ADD SWAP1 DUP2 MSTORE PUSH1 0x20 ADD PUSH0 KECCAK256 PUSH0 SWAP1 SLOAD SWAP1 PUSH2 0x100 EXP SWAP1 DIV PUSH1 0xFF AND ISZERO JUMPDEST DUP1 ISZERO PUSH2 0x2F20 JUMPI POP PUSH1 0xC PUSH0 CALLER PUSH20 0xFFFFFFFFFFFFFFFFFFFFFFFFFFFFFFFFFFFFFFFF AND PUSH20 0xFFFFFFFFFFFFFFFFFFFFFFFFFFFFFFFFFFFFFFFF AND DUP2 MSTORE PUSH1 0x20 ADD SWAP1 DUP2 MSTORE PUSH1 0x20 ADD PUSH0 KECCAK256 PUSH0 SWAP1 SLOAD SWAP1 PUSH2 0x100 EXP SWAP1 DIV PUSH1 0xFF AND ISZERO JUMPDEST ISZERO PUSH2 0x2F62 JUMPI PUSH1 0x40 MLOAD DUP1 PUSH1 0x40 ADD PUSH1 0x40 MSTORE DUP1 PUSH1 0x1A DUP2 MSTORE PUSH1 0x20 ADD PUSH32 0x596F752068617665206E6F20617574686F72697A6174696F6E2E000000000000 DUP2 MSTORE POP SWAP1 POP PUSH2 0x31A3 JUMP JUMPDEST TIMESTAMP PUSH1 0xA PUSH0 DUP5 PUSH20 0xFFFFFFFFFFFFFFFFFFFFFFFFFFFFFFFFFFFFFFFF AND PUSH20 0xFFFFFFFFFFFFFFFFFFFFFFFFFFFFFFFFFFFFFFFF AND DUP2 MSTORE PUSH1 0x20 ADD SWAP1 DUP2 MSTORE PUSH1 0x20 ADD PUSH0 KECCAK256 PUSH1 0x6 ADD DUP2 SWAP1 SSTORE POP PUSH1 0x4 PUSH1 0xA PUSH0 DUP5 PUSH20 0xFFFFFFFFFFFFFFFFFFFFFFFFFFFFFFFFFFFFFFFF AND PUSH20 0xFFFFFFFFFFFFFFFFFFFFFFFFFFFFFFFFFFFFFFFF AND DUP2 MSTORE PUSH1 0x20 ADD SWAP1 DUP2 MSTORE PUSH1 0x20 ADD PUSH0 KECCAK256 PUSH1 0x3 ADD DUP2 SWAP1 SSTORE POP PUSH1 0x40 MLOAD DUP1 PUSH1 0x40 ADD PUSH1 0x40 MSTORE DUP1 PUSH1 0x1D DUP2 MSTORE PUSH1 0x20 ADD PUSH32 0x5265636F7264206973207072696E7465642062792070617469656E742E000000 DUP2 MSTORE POP PUSH1 0xA PUSH0 DUP5 PUSH20 0xFFFFFFFFFFFFFFFFFFFFFFFFFFFFFFFFFFFFFFFF AND PUSH20 0xFFFFFFFFFFFFFFFFFFFFFFFFFFFFFFFFFFFFFFFF AND DUP2 MSTORE PUSH1 0x20 ADD SWAP1 DUP2 MSTORE PUSH1 0x20 ADD PUSH0 KECCAK256 PUSH1 0x2 ADD SWAP1 DUP2 PUSH2 0x306F SWAP2 SWAP1 PUSH2 0x3A2E JUMP JUMPDEST POP PUSH32 0xDDAA844CC6AE769766C27824C8E5C94B60683CEE90D23F0A99F33B2B243A1FDE PUSH1 0xA PUSH0 DUP5 PUSH20 0xFFFFFFFFFFFFFFFFFFFFFFFFFFFFFFFFFFFFFFFF AND PUSH20 0xFFFFFFFFFFFFFFFFFFFFFFFFFFFFFFFFFFFFFFFF AND DUP2 MSTORE PUSH1 0x20 ADD SWAP1 DUP2 MSTORE PUSH1 0x20 ADD PUSH0 KECCAK256 PUSH1 0x2 ADD PUSH1 0xA PUSH0 DUP6 PUSH20 0xFFFFFFFFFFFFFFFFFFFFFFFFFFFFFFFFFFFFFFFF AND PUSH20 0xFFFFFFFFFFFFFFFFFFFFFFFFFFFFFFFFFFFFFFFF AND DUP2 MSTORE PUSH1 0x20 ADD SWAP1 DUP2 MSTORE PUSH1 0x20 ADD PUSH0 KECCAK256 PUSH1 0x3 ADD SLOAD PUSH1 0xA PUSH0 DUP7 PUSH20 0xFFFFFFFFFFFFFFFFFFFFFFFFFFFFFFFFFFFFFFFF AND PUSH20 0xFFFFFFFFFFFFFFFFFFFFFFFFFFFFFFFFFFFFFFFF AND DUP2 MSTORE PUSH1 0x20 ADD SWAP1 DUP2 MSTORE PUSH1 0x20 ADD PUSH0 KECCAK256 PUSH1 0x6 ADD SLOAD PUSH1 0x40 MLOAD PUSH2 0x3162 SWAP4 SWAP3 SWAP2 SWAP1 PUSH2 0x3B7E JUMP JUMPDEST PUSH1 0x40 MLOAD DUP1 SWAP2 SUB SWAP1 LOG1 PUSH1 0x40 MLOAD DUP1 PUSH1 0x40 ADD PUSH1 0x40 MSTORE DUP1 PUSH1 0x1D DUP2 MSTORE PUSH1 0x20 ADD PUSH32 0x5265636F7264206973207072696E7465642062792070617469656E742E000000 DUP2 MSTORE POP SWAP1 POP JUMPDEST SWAP2 SWAP1 POP JUMP JUMPDEST PUSH0 PUSH0 PUSH1 0x60 PUSH0 PUSH1 0xA PUSH0 DUP7 PUSH20 0xFFFFFFFFFFFFFFFFFFFFFFFFFFFFFFFFFFFFFFFF AND PUSH20 0xFFFFFFFFFFFFFFFFFFFFFFFFFFFFFFFFFFFFFFFF AND DUP2 MSTORE PUSH1 0x20 ADD SWAP1 DUP2 MSTORE PUSH1 0x20 ADD PUSH0 KECCAK256 PUSH0 ADD PUSH0 SWAP1 SLOAD SWAP1 PUSH2 0x100 EXP SWAP1 DIV PUSH1 0xFF AND PUSH1 0xA PUSH0 DUP8 PUSH20 0xFFFFFFFFFFFFFFFFFFFFFFFFFFFFFFFFFFFFFFFF AND PUSH20 0xFFFFFFFFFFFFFFFFFFFFFFFFFFFFFFFFFFFFFFFF AND DUP2 MSTORE PUSH1 0x20 ADD SWAP1 DUP2 MSTORE PUSH1 0x20 ADD PUSH0 KECCAK256 PUSH1 0x1 ADD SLOAD PUSH1 0xA PUSH0 DUP9 PUSH20 0xFFFFFFFFFFFFFFFFFFFFFFFFFFFFFFFFFFFFFFFF AND PUSH20 0xFFFFFFFFFFFFFFFFFFFFFFFFFFFFFFFFFFFFFFFF AND DUP2 MSTORE PUSH1 0x20 ADD SWAP1 DUP2 MSTORE PUSH1 0x20 ADD PUSH0 KECCAK256 PUSH1 0x2 ADD PUSH1 0xA PUSH0 DUP10 PUSH20 0xFFFFFFFFFFFFFFFFFFFFFFFFFFFFFFFFFFFFFFFF AND PUSH20 0xFFFFFFFFFFFFFFFFFFFFFFFFFFFFFFFFFFFFFFFF AND DUP2 MSTORE PUSH1 0x20 ADD SWAP1 DUP2 MSTORE PUSH1 0x20 ADD PUSH0 KECCAK256 PUSH1 0x3 ADD SLOAD DUP2 DUP1 SLOAD PUSH2 0x32C7 SWAP1 PUSH2 0x37F6 JUMP JUMPDEST DUP1 PUSH1 0x1F ADD PUSH1 0x20 DUP1 SWAP2 DIV MUL PUSH1 0x20 ADD PUSH1 0x40 MLOAD SWAP1 DUP2 ADD PUSH1 0x40 MSTORE DUP1 SWAP3 SWAP2 SWAP1 DUP2 DUP2 MSTORE PUSH1 0x20 ADD DUP3 DUP1 SLOAD PUSH2 0x32F3 SWAP1 PUSH2 0x37F6 JUMP JUMPDEST DUP1 ISZERO PUSH2 0x333E JUMPI DUP1 PUSH1 0x1F LT PUSH2 0x3315 JUMPI PUSH2 0x100 DUP1 DUP4 SLOAD DIV MUL DUP4 MSTORE SWAP2 PUSH1 0x20 ADD SWAP2 PUSH2 0x333E JUMP JUMPDEST DUP3 ADD SWAP2 SWAP1 PUSH0 MSTORE PUSH1 0x20 PUSH0 KECCAK256 SWAP1 JUMPDEST DUP2 SLOAD DUP2 MSTORE SWAP1 PUSH1 0x1 ADD SWAP1 PUSH1 0x20 ADD DUP1 DUP4 GT PUSH2 0x3321 JUMPI DUP3 SWAP1 SUB PUSH1 0x1F AND DUP3 ADD SWAP2 JUMPDEST POP POP POP POP POP SWAP2 POP SWAP4 POP SWAP4 POP SWAP4 POP SWAP4 POP SWAP2 SWAP4 POP SWAP2 SWAP4 JUMP JUMPDEST PUSH0 PUSH1 0x40 MLOAD SWAP1 POP SWAP1 JUMP JUMPDEST PUSH0 PUSH0 REVERT JUMPDEST PUSH0 PUSH0 REVERT JUMPDEST PUSH0 PUSH20 0xFFFFFFFFFFFFFFFFFFFFFFFFFFFFFFFFFFFFFFFF DUP3 AND SWAP1 POP SWAP2 SWAP1 POP JUMP JUMPDEST PUSH0 PUSH2 0x338E DUP3 PUSH2 0x3365 JUMP JUMPDEST SWAP1 POP SWAP2 SWAP1 POP JUMP JUMPDEST PUSH2 0x339E DUP2 PUSH2 0x3384 JUMP JUMPDEST DUP2 EQ PUSH2 0x33A8 JUMPI PUSH0 PUSH0 REVERT JUMPDEST POP JUMP JUMPDEST PUSH0 DUP2 CALLDATALOAD SWAP1 POP PUSH2 0x33B9 DUP2 PUSH2 0x3395 JUMP JUMPDEST SWAP3 SWAP2 POP POP JUMP JUMPDEST PUSH0 PUSH1 0x20 DUP3 DUP5 SUB SLT ISZERO PUSH2 0x33D4 JUMPI PUSH2 0x33D3 PUSH2 0x335D JUMP JUMPDEST JUMPDEST PUSH0 PUSH2 0x33E1 DUP5 DUP3 DUP6 ADD PUSH2 0x33AB JUMP JUMPDEST SWAP2 POP POP SWAP3 SWAP2 POP POP JUMP JUMPDEST PUSH0 DUP2 MLOAD SWAP1 POP SWAP2 SWAP1 POP JUMP JUMPDEST PUSH0 DUP3 DUP3 MSTORE PUSH1 0x20 DUP3 ADD SWAP1 POP SWAP3 SWAP2 POP POP JUMP JUMPDEST DUP3 DUP2 DUP4 MCOPY PUSH0 DUP4 DUP4 ADD MSTORE POP POP POP JUMP JUMPDEST PUSH0 PUSH1 0x1F NOT PUSH1 0x1F DUP4 ADD AND SWAP1 POP SWAP2 SWAP1 POP JUMP JUMPDEST PUSH0 PUSH2 0x342C DUP3 PUSH2 0x33EA JUMP JUMPDEST PUSH2 0x3436 DUP2 DUP6 PUSH2 0x33F4 JUMP JUMPDEST SWAP4 POP PUSH2 0x3446 DUP2 DUP6 PUSH1 0x20 DUP7 ADD PUSH2 0x3404 JUMP JUMPDEST PUSH2 0x344F DUP2 PUSH2 0x3412 JUMP JUMPDEST DUP5 ADD SWAP2 POP POP SWAP3 SWAP2 POP POP JUMP JUMPDEST PUSH0 PUSH1 0x20 DUP3 ADD SWAP1 POP DUP2 DUP2 SUB PUSH0 DUP4 ADD MSTORE PUSH2 0x3472 DUP2 DUP5 PUSH2 0x3422 JUMP JUMPDEST SWAP1 POP SWAP3 SWAP2 POP POP JUMP JUMPDEST PUSH0 DUP2 ISZERO ISZERO SWAP1 POP SWAP2 SWAP1 POP JUMP JUMPDEST PUSH2 0x348E DUP2 PUSH2 0x347A JUMP JUMPDEST DUP3 MSTORE POP POP JUMP JUMPDEST PUSH0 DUP2 SWAP1 POP SWAP2 SWAP1 POP JUMP JUMPDEST PUSH2 0x34A6 DUP2 PUSH2 0x3494 JUMP JUMPDEST DUP3 MSTORE POP POP JUMP JUMPDEST PUSH2 0x34B5 DUP2 PUSH2 0x3384 JUMP JUMPDEST DUP3 MSTORE POP POP JUMP JUMPDEST PUSH0 PUSH2 0x160 DUP3 ADD SWAP1 POP PUSH2 0x34CF PUSH0 DUP4 ADD DUP15 PUSH2 0x3485 JUMP JUMPDEST PUSH2 0x34DC PUSH1 0x20 DUP4 ADD DUP14 PUSH2 0x349D JUMP JUMPDEST DUP2 DUP2 SUB PUSH1 0x40 DUP4 ADD MSTORE PUSH2 0x34EE DUP2 DUP13 PUSH2 0x3422 JUMP JUMPDEST SWAP1 POP PUSH2 0x34FD PUSH1 0x60 DUP4 ADD DUP12 PUSH2 0x349D JUMP JUMPDEST DUP2 DUP2 SUB PUSH1 0x80 DUP4 ADD MSTORE PUSH2 0x350F DUP2 DUP11 PUSH2 0x3422 JUMP JUMPDEST SWAP1 POP PUSH2 0x351E PUSH1 0xA0 DUP4 ADD DUP10 PUSH2 0x34AC JUMP JUMPDEST PUSH2 0x352B PUSH1 0xC0 DUP4 ADD DUP9 PUSH2 0x349D JUMP JUMPDEST PUSH2 0x3538 PUSH1 0xE0 DUP4 ADD DUP8 PUSH2 0x34AC JUMP JUMPDEST PUSH2 0x3546 PUSH2 0x100 DUP4 ADD DUP7 PUSH2 0x349D JUMP JUMPDEST PUSH2 0x3554 PUSH2 0x120 DUP4 ADD DUP6 PUSH2 0x34AC JUMP JUMPDEST PUSH2 0x3562 PUSH2 0x140 DUP4 ADD DUP5 PUSH2 0x349D JUMP JUMPDEST SWAP13 SWAP12 POP POP POP POP POP POP POP POP POP POP POP POP JUMP JUMPDEST PUSH0 PUSH0 REVERT JUMPDEST PUSH0 PUSH0 REVERT JUMPDEST PUSH32 0x4E487B7100000000000000000000000000000000000000000000000000000000 PUSH0 MSTORE PUSH1 0x41 PUSH1 0x4 MSTORE PUSH1 0x24 PUSH0 REVERT JUMPDEST PUSH2 0x35B0 DUP3 PUSH2 0x3412 JUMP JUMPDEST DUP2 ADD DUP2 DUP2 LT PUSH8 0xFFFFFFFFFFFFFFFF DUP3 GT OR ISZERO PUSH2 0x35CF JUMPI PUSH2 0x35CE PUSH2 0x357A JUMP JUMPDEST JUMPDEST DUP1 PUSH1 0x40 MSTORE POP POP POP JUMP JUMPDEST PUSH0 PUSH2 0x35E1 PUSH2 0x3354 JUMP JUMPDEST SWAP1 POP PUSH2 0x35ED DUP3 DUP3 PUSH2 0x35A7 JUMP JUMPDEST SWAP2 SWAP1 POP JUMP JUMPDEST PUSH0 PUSH8 0xFFFFFFFFFFFFFFFF DUP3 GT ISZERO PUSH2 0x360C JUMPI PUSH2 0x360B PUSH2 0x357A JUMP JUMPDEST JUMPDEST PUSH2 0x3615 DUP3 PUSH2 0x3412 JUMP JUMPDEST SWAP1 POP PUSH1 0x20 DUP2 ADD SWAP1 POP SWAP2 SWAP1 POP JUMP JUMPDEST DUP3 DUP2 DUP4 CALLDATACOPY PUSH0 DUP4 DUP4 ADD MSTORE POP POP POP JUMP JUMPDEST PUSH0 PUSH2 0x3642 PUSH2 0x363D DUP5 PUSH2 0x35F2 JUMP JUMPDEST PUSH2 0x35D8 JUMP JUMPDEST SWAP1 POP DUP3 DUP2 MSTORE PUSH1 0x20 DUP2 ADD DUP5 DUP5 DUP5 ADD GT ISZERO PUSH2 0x365E JUMPI PUSH2 0x365D PUSH2 0x3576 JUMP JUMPDEST JUMPDEST PUSH2 0x3669 DUP5 DUP3 DUP6 PUSH2 0x3622 JUMP JUMPDEST POP SWAP4 SWAP3 POP POP POP JUMP JUMPDEST PUSH0 DUP3 PUSH1 0x1F DUP4 ADD SLT PUSH2 0x3685 JUMPI PUSH2 0x3684 PUSH2 0x3572 JUMP JUMPDEST JUMPDEST DUP2 CALLDATALOAD PUSH2 0x3695 DUP5 DUP3 PUSH1 0x20 DUP7 ADD PUSH2 0x3630 JUMP JUMPDEST SWAP2 POP POP SWAP3 SWAP2 POP POP JUMP JUMPDEST PUSH0 PUSH0 PUSH1 0x40 DUP4 DUP6 SUB SLT ISZERO PUSH2 0x36B4 JUMPI PUSH2 0x36B3 PUSH2 0x335D JUMP JUMPDEST JUMPDEST PUSH0 PUSH2 0x36C1 DUP6 DUP3 DUP7 ADD PUSH2 0x33AB JUMP JUMPDEST SWAP3 POP POP PUSH1 0x20 DUP4 ADD CALLDATALOAD PUSH8 0xFFFFFFFFFFFFFFFF DUP2 GT ISZERO PUSH2 0x36E2 JUMPI PUSH2 0x36E1 PUSH2 0x3361 JUMP JUMPDEST JUMPDEST PUSH2 0x36EE DUP6 DUP3 DUP7 ADD PUSH2 0x3671 JUMP JUMPDEST SWAP2 POP POP SWAP3 POP SWAP3 SWAP1 POP JUMP JUMPDEST PUSH0 PUSH1 0x20 DUP3 ADD SWAP1 POP PUSH2 0x370B PUSH0 DUP4 ADD DUP5 PUSH2 0x3485 JUMP JUMPDEST SWAP3 SWAP2 POP POP JUMP JUMPDEST PUSH2 0x371A DUP2 PUSH2 0x3494 JUMP JUMPDEST DUP2 EQ PUSH2 0x3724 JUMPI PUSH0 PUSH0 REVERT JUMPDEST POP JUMP JUMPDEST PUSH0 DUP2 CALLDATALOAD SWAP1 POP PUSH2 0x3735 DUP2 PUSH2 0x3711 JUMP JUMPDEST SWAP3 SWAP2 POP POP JUMP JUMPDEST PUSH0 PUSH1 0x20 DUP3 DUP5 SUB SLT ISZERO PUSH2 0x3750 JUMPI PUSH2 0x374F PUSH2 0x335D JUMP JUMPDEST JUMPDEST PUSH0 PUSH2 0x375D DUP5 DUP3 DUP6 ADD PUSH2 0x3727 JUMP JUMPDEST SWAP2 POP POP SWAP3 SWAP2 POP POP JUMP JUMPDEST PUSH0 PUSH1 0x20 DUP3 ADD SWAP1 POP PUSH2 0x3779 PUSH0 DUP4 ADD DUP5 PUSH2 0x34AC JUMP JUMPDEST SWAP3 SWAP2 POP POP JUMP JUMPDEST PUSH0 PUSH1 0x80 DUP3 ADD SWAP1 POP PUSH2 0x3792 PUSH0 DUP4 ADD DUP8 PUSH2 0x3485 JUMP JUMPDEST PUSH2 0x379F PUSH1 0x20 DUP4 ADD DUP7 PUSH2 0x349D JUMP JUMPDEST DUP2 DUP2 SUB PUSH1 0x40 DUP4 ADD MSTORE PUSH2 0x37B1 DUP2 DUP6 PUSH2 0x3422 JUMP JUMPDEST SWAP1 POP PUSH2 0x37C0 PUSH1 0x60 DUP4 ADD DUP5 PUSH2 0x349D JUMP JUMPDEST SWAP6 SWAP5 POP POP POP POP POP JUMP JUMPDEST PUSH32 0x4E487B7100000000000000000000000000000000000000000000000000000000 PUSH0 MSTORE PUSH1 0x22 PUSH1 0x4 MSTORE PUSH1 0x24 PUSH0 REVERT JUMPDEST PUSH0 PUSH1 0x2 DUP3 DIV SWAP1 POP PUSH1 0x1 DUP3 AND DUP1 PUSH2 0x380D JUMPI PUSH1 0x7F DUP3 AND SWAP2 POP JUMPDEST PUSH1 0x20 DUP3 LT DUP2 SUB PUSH2 0x3820 JUMPI PUSH2 0x381F PUSH2 0x37C9 JUMP JUMPDEST JUMPDEST POP SWAP2 SWAP1 POP JUMP JUMPDEST PUSH32 0x4E6F7420776F726B696E67000000000000000000000000000000000000000000 PUSH0 DUP3 ADD MSTORE POP JUMP JUMPDEST PUSH0 PUSH2 0x385A PUSH1 0xB DUP4 PUSH2 0x33F4 JUMP JUMPDEST SWAP2 POP PUSH2 0x3865 DUP3 PUSH2 0x3826 JUMP JUMPDEST PUSH1 0x20 DUP3 ADD SWAP1 POP SWAP2 SWAP1 POP JUMP JUMPDEST PUSH0 PUSH1 0x20 DUP3 ADD SWAP1 POP DUP2 DUP2 SUB PUSH0 DUP4 ADD MSTORE PUSH2 0x3887 DUP2 PUSH2 0x384E JUMP JUMPDEST SWAP1 POP SWAP2 SWAP1 POP JUMP JUMPDEST PUSH0 DUP2 SWAP1 POP DUP2 PUSH0 MSTORE PUSH1 0x20 PUSH0 KECCAK256 SWAP1 POP SWAP2 SWAP1 POP JUMP JUMPDEST PUSH0 PUSH1 0x20 PUSH1 0x1F DUP4 ADD DIV SWAP1 POP SWAP2 SWAP1 POP JUMP JUMPDEST PUSH0 DUP3 DUP3 SHL SWAP1 POP SWAP3 SWAP2 POP POP JUMP JUMPDEST PUSH0 PUSH1 0x8 DUP4 MUL PUSH2 0x38EA PUSH32 0xFFFFFFFFFFFFFFFFFFFFFFFFFFFFFFFFFFFFFFFFFFFFFFFFFFFFFFFFFFFFFFFF DUP3 PUSH2 0x38AF JUMP JUMPDEST PUSH2 0x38F4 DUP7 DUP4 PUSH2 0x38AF JUMP JUMPDEST SWAP6 POP DUP1 NOT DUP5 AND SWAP4 POP DUP1 DUP7 AND DUP5 OR SWAP3 POP POP POP SWAP4 SWAP3 POP POP POP JUMP JUMPDEST PUSH0 DUP2 SWAP1 POP SWAP2 SWAP1 POP JUMP JUMPDEST PUSH0 PUSH2 0x392F PUSH2 0x392A PUSH2 0x3925 DUP5 PUSH2 0x3494 JUMP JUMPDEST PUSH2 0x390C JUMP JUMPDEST PUSH2 0x3494 JUMP JUMPDEST SWAP1 POP SWAP2 SWAP1 POP JUMP JUMPDEST PUSH0 DUP2 SWAP1 POP SWAP2 SWAP1 POP JUMP JUMPDEST PUSH2 0x3948 DUP4 PUSH2 0x3915 JUMP JUMPDEST PUSH2 0x395C PUSH2 0x3954 DUP3 PUSH2 0x3936 JUMP JUMPDEST DUP5 DUP5 SLOAD PUSH2 0x38BB JUMP JUMPDEST DUP3 SSTORE POP POP POP POP JUMP JUMPDEST PUSH0 PUSH0 SWAP1 POP SWAP1 JUMP JUMPDEST PUSH2 0x3973 PUSH2 0x3964 JUMP JUMPDEST PUSH2 0x397E DUP2 DUP5 DUP5 PUSH2 0x393F JUMP JUMPDEST POP POP POP JUMP JUMPDEST JUMPDEST DUP2 DUP2 LT ISZERO PUSH2 0x39A1 JUMPI PUSH2 0x3996 PUSH0 DUP3 PUSH2 0x396B JUMP JUMPDEST PUSH1 0x1 DUP2 ADD SWAP1 POP PUSH2 0x3984 JUMP JUMPDEST POP POP JUMP JUMPDEST PUSH1 0x1F DUP3 GT ISZERO PUSH2 0x39E6 JUMPI PUSH2 0x39B7 DUP2 PUSH2 0x388E JUMP JUMPDEST PUSH2 0x39C0 DUP5 PUSH2 0x38A0 JUMP JUMPDEST DUP2 ADD PUSH1 0x20 DUP6 LT ISZERO PUSH2 0x39CF JUMPI DUP2 SWAP1 POP JUMPDEST PUSH2 0x39E3 PUSH2 0x39DB DUP6 PUSH2 0x38A0 JUMP JUMPDEST DUP4 ADD DUP3 PUSH2 0x3983 JUMP JUMPDEST POP POP JUMPDEST POP POP POP JUMP JUMPDEST PUSH0 DUP3 DUP3 SHR SWAP1 POP SWAP3 SWAP2 POP POP JUMP JUMPDEST PUSH0 PUSH2 0x3A06 PUSH0 NOT DUP5 PUSH1 0x8 MUL PUSH2 0x39EB JUMP JUMPDEST NOT DUP1 DUP4 AND SWAP2 POP POP SWAP3 SWAP2 POP POP JUMP JUMPDEST PUSH0 PUSH2 0x3A1E DUP4 DUP4 PUSH2 0x39F7 JUMP JUMPDEST SWAP2 POP DUP3 PUSH1 0x2 MUL DUP3 OR SWAP1 POP SWAP3 SWAP2 POP POP JUMP JUMPDEST PUSH2 0x3A37 DUP3 PUSH2 0x33EA JUMP JUMPDEST PUSH8 0xFFFFFFFFFFFFFFFF DUP2 GT ISZERO PUSH2 0x3A50 JUMPI PUSH2 0x3A4F PUSH2 0x357A JUMP JUMPDEST JUMPDEST PUSH2 0x3A5A DUP3 SLOAD PUSH2 0x37F6 JUMP JUMPDEST PUSH2 0x3A65 DUP3 DUP3 DUP6 PUSH2 0x39A5 JUMP JUMPDEST PUSH0 PUSH1 0x20 SWAP1 POP PUSH1 0x1F DUP4 GT PUSH1 0x1 DUP2 EQ PUSH2 0x3A96 JUMPI PUSH0 DUP5 ISZERO PUSH2 0x3A84 JUMPI DUP3 DUP8 ADD MLOAD SWAP1 POP JUMPDEST PUSH2 0x3A8E DUP6 DUP3 PUSH2 0x3A13 JUMP JUMPDEST DUP7 SSTORE POP PUSH2 0x3AF5 JUMP JUMPDEST PUSH1 0x1F NOT DUP5 AND PUSH2 0x3AA4 DUP7 PUSH2 0x388E JUMP JUMPDEST PUSH0 JUMPDEST DUP3 DUP2 LT ISZERO PUSH2 0x3ACB JUMPI DUP5 DUP10 ADD MLOAD DUP3 SSTORE PUSH1 0x1 DUP3 ADD SWAP2 POP PUSH1 0x20 DUP6 ADD SWAP5 POP PUSH1 0x20 DUP2 ADD SWAP1 POP PUSH2 0x3AA6 JUMP JUMPDEST DUP7 DUP4 LT ISZERO PUSH2 0x3AE8 JUMPI DUP5 DUP10 ADD MLOAD PUSH2 0x3AE4 PUSH1 0x1F DUP10 AND DUP3 PUSH2 0x39F7 JUMP JUMPDEST DUP4 SSTORE POP JUMPDEST PUSH1 0x1 PUSH1 0x2 DUP9 MUL ADD DUP9 SSTORE POP POP POP JUMPDEST POP POP POP POP POP POP JUMP JUMPDEST PUSH0 DUP2 SLOAD PUSH2 0x3B09 DUP2 PUSH2 0x37F6 JUMP JUMPDEST PUSH2 0x3B13 DUP2 DUP7 PUSH2 0x33F4 JUMP JUMPDEST SWAP5 POP PUSH1 0x1 DUP3 AND PUSH0 DUP2 EQ PUSH2 0x3B2D JUMPI PUSH1 0x1 DUP2 EQ PUSH2 0x3B43 JUMPI PUSH2 0x3B75 JUMP JUMPDEST PUSH1 0xFF NOT DUP4 AND DUP7 MSTORE DUP2 ISZERO ISZERO PUSH1 0x20 MUL DUP7 ADD SWAP4 POP PUSH2 0x3B75 JUMP JUMPDEST PUSH2 0x3B4C DUP6 PUSH2 0x388E JUMP JUMPDEST PUSH0 JUMPDEST DUP4 DUP2 LT ISZERO PUSH2 0x3B6D JUMPI DUP2 SLOAD DUP2 DUP10 ADD MSTORE PUSH1 0x1 DUP3 ADD SWAP2 POP PUSH1 0x20 DUP2 ADD SWAP1 POP PUSH2 0x3B4E JUMP JUMPDEST DUP1 DUP9 ADD SWAP6 POP POP POP JUMPDEST POP POP POP SWAP3 SWAP2 POP POP JUMP JUMPDEST PUSH0 PUSH1 0x60 DUP3 ADD SWAP1 POP DUP2 DUP2 SUB PUSH0 DUP4 ADD MSTORE PUSH2 0x3B96 DUP2 DUP7 PUSH2 0x3AFD JUMP JUMPDEST SWAP1 POP PUSH2 0x3BA5 PUSH1 0x20 DUP4 ADD DUP6 PUSH2 0x349D JUMP JUMPDEST PUSH2 0x3BB2 PUSH1 0x40 DUP4 ADD DUP5 PUSH2 0x349D JUMP JUMPDEST SWAP5 SWAP4 POP POP POP POP JUMP JUMPDEST PUSH32 0x4120646F63746F722069732072656D6F7665642E000000000000000000000000 PUSH0 DUP3 ADD MSTORE POP JUMP JUMPDEST PUSH0 PUSH2 0x3BEE PUSH1 0x14 DUP4 PUSH2 0x33F4 JUMP JUMPDEST SWAP2 POP PUSH2 0x3BF9 DUP3 PUSH2 0x3BBA JUMP JUMPDEST PUSH1 0x20 DUP3 ADD SWAP1 POP SWAP2 SWAP1 POP JUMP JUMPDEST PUSH0 PUSH1 0x60 DUP3 ADD SWAP1 POP DUP2 DUP2 SUB PUSH0 DUP4 ADD MSTORE PUSH2 0x3C1B DUP2 PUSH2 0x3BE2 JUMP JUMPDEST SWAP1 POP PUSH2 0x3C2A PUSH1 0x20 DUP4 ADD DUP6 PUSH2 0x34AC JUMP JUMPDEST PUSH2 0x3C37 PUSH1 0x40 DUP4 ADD DUP5 PUSH2 0x349D JUMP JUMPDEST SWAP4 SWAP3 POP POP POP JUMP JUMPDEST PUSH32 0x416E2061756469742069732061646465642E0000000000000000000000000000 PUSH0 DUP3 ADD MSTORE POP JUMP JUMPDEST PUSH0 PUSH2 0x3C72 PUSH1 0x12 DUP4 PUSH2 0x33F4 JUMP JUMPDEST SWAP2 POP PUSH2 0x3C7D DUP3 PUSH2 0x3C3E JUMP JUMPDEST PUSH1 0x20 DUP3 ADD SWAP1 POP SWAP2 SWAP1 POP JUMP JUMPDEST PUSH0 PUSH1 0x60 DUP3 ADD SWAP1 POP DUP2 DUP2 SUB PUSH0 DUP4 ADD MSTORE PUSH2 0x3C9F DUP2 PUSH2 0x3C66 JUMP JUMPDEST SWAP1 POP PUSH2 0x3CAE PUSH1 0x20 DUP4 ADD DUP6 PUSH2 0x34AC JUMP JUMPDEST PUSH2 0x3CBB PUSH1 0x40 DUP4 ADD DUP5 PUSH2 0x349D JUMP JUMPDEST SWAP4 SWAP3 POP POP POP JUMP JUMPDEST PUSH0 DUP2 PUSH1 0x60 SHL SWAP1 POP SWAP2 SWAP1 POP JUMP JUMPDEST PUSH0 PUSH2 0x3CD8 DUP3 PUSH2 0x3CC2 JUMP JUMPDEST SWAP1 POP SWAP2 SWAP1 POP JUMP JUMPDEST PUSH0 PUSH2 0x3CE9 DUP3 PUSH2 0x3CCE JUMP JUMPDEST SWAP1 POP SWAP2 SWAP1 POP JUMP JUMPDEST PUSH2 0x3D01 PUSH2 0x3CFC DUP3 PUSH2 0x3384 JUMP JUMPDEST PUSH2 0x3CDF JUMP JUMPDEST DUP3 MSTORE POP POP JUMP JUMPDEST PUSH0 DUP2 SWAP1 POP SWAP2 SWAP1 POP JUMP JUMPDEST PUSH2 0x3D21 PUSH2 0x3D1C DUP3 PUSH2 0x3494 JUMP JUMPDEST PUSH2 0x3D07 JUMP JUMPDEST DUP3 MSTORE POP POP JUMP JUMPDEST PUSH0 PUSH2 0x3D32 DUP3 DUP6 PUSH2 0x3CF0 JUMP JUMPDEST PUSH1 0x14 DUP3 ADD SWAP2 POP PUSH2 0x3D42 DUP3 DUP5 PUSH2 0x3D10 JUMP JUMPDEST PUSH1 0x20 DUP3 ADD SWAP2 POP DUP2 SWAP1 POP SWAP4 SWAP3 POP POP POP JUMP JUMPDEST PUSH0 DUP2 MLOAD SWAP1 POP SWAP2 SWAP1 POP JUMP JUMPDEST PUSH0 DUP2 SWAP1 POP SWAP3 SWAP2 POP POP JUMP JUMPDEST PUSH0 PUSH2 0x3D70 DUP3 PUSH2 0x3D52 JUMP JUMPDEST PUSH2 0x3D7A DUP2 DUP6 PUSH2 0x3D5C JUMP JUMPDEST SWAP4 POP PUSH2 0x3D8A DUP2 DUP6 PUSH1 0x20 DUP7 ADD PUSH2 0x3404 JUMP JUMPDEST DUP1 DUP5 ADD SWAP2 POP POP SWAP3 SWAP2 POP POP JUMP JUMPDEST PUSH0 PUSH2 0x3DA1 DUP3 DUP5 PUSH2 0x3D66 JUMP JUMPDEST SWAP2 POP DUP2 SWAP1 POP SWAP3 SWAP2 POP POP JUMP JUMPDEST PUSH0 DUP2 SWAP1 POP SWAP2 SWAP1 POP JUMP JUMPDEST PUSH2 0x3DBE DUP2 PUSH2 0x3DAC JUMP JUMPDEST DUP2 EQ PUSH2 0x3DC8 JUMPI PUSH0 PUSH0 REVERT JUMPDEST POP JUMP JUMPDEST PUSH0 DUP2 MLOAD SWAP1 POP PUSH2 0x3DD9 DUP2 PUSH2 0x3DB5 JUMP JUMPDEST SWAP3 SWAP2 POP POP JUMP JUMPDEST PUSH0 PUSH1 0x20 DUP3 DUP5 SUB SLT ISZERO PUSH2 0x3DF4 JUMPI PUSH2 0x3DF3 PUSH2 0x335D JUMP JUMPDEST JUMPDEST PUSH0 PUSH2 0x3E01 DUP5 DUP3 DUP6 ADD PUSH2 0x3DCB JUMP JUMPDEST SWAP2 POP POP SWAP3 SWAP2 POP POP JUMP JUMPDEST PUSH0 PUSH1 0x80 DUP3 ADD SWAP1 POP PUSH2 0x3E1D PUSH0 DUP4 ADD DUP8 PUSH2 0x34AC JUMP JUMPDEST DUP2 DUP2 SUB PUSH1 0x20 DUP4 ADD MSTORE PUSH2 0x3E2F DUP2 DUP7 PUSH2 0x3AFD JUMP JUMPDEST SWAP1 POP PUSH2 0x3E3E PUSH1 0x40 DUP4 ADD DUP6 PUSH2 0x349D JUMP JUMPDEST PUSH2 0x3E4B PUSH1 0x60 DUP4 ADD DUP5 PUSH2 0x349D JUMP JUMPDEST SWAP6 SWAP5 POP POP POP POP POP JUMP JUMPDEST PUSH32 0x416E2061756469742069732072656D6F7665642E000000000000000000000000 PUSH0 DUP3 ADD MSTORE POP JUMP JUMPDEST PUSH0 PUSH2 0x3E88 PUSH1 0x14 DUP4 PUSH2 0x33F4 JUMP JUMPDEST SWAP2 POP PUSH2 0x3E93 DUP3 PUSH2 0x3E54 JUMP JUMPDEST PUSH1 0x20 DUP3 ADD SWAP1 POP SWAP2 SWAP1 POP JUMP JUMPDEST PUSH0 PUSH1 0x60 DUP3 ADD SWAP1 POP DUP2 DUP2 SUB PUSH0 DUP4 ADD MSTORE PUSH2 0x3EB5 DUP2 PUSH2 0x3E7C JUMP JUMPDEST SWAP1 POP PUSH2 0x3EC4 PUSH1 0x20 DUP4 ADD DUP6 PUSH2 0x34AC JUMP JUMPDEST PUSH2 0x3ED1 PUSH1 0x40 DUP4 ADD DUP5 PUSH2 0x349D JUMP JUMPDEST SWAP4 SWAP3 POP POP POP JUMP JUMPDEST PUSH32 0x4120646F63746F722069732061646465642E0000000000000000000000000000 PUSH0 DUP3 ADD MSTORE POP JUMP JUMPDEST PUSH0 PUSH2 0x3F0C PUSH1 0x12 DUP4 PUSH2 0x33F4 JUMP JUMPDEST SWAP2 POP PUSH2 0x3F17 DUP3 PUSH2 0x3ED8 JUMP JUMPDEST PUSH1 0x20 DUP3 ADD SWAP1 POP SWAP2 SWAP1 POP JUMP JUMPDEST PUSH0 PUSH1 0x60 DUP3 ADD SWAP1 POP DUP2 DUP2 SUB PUSH0 DUP4 ADD MSTORE PUSH2 0x3F39 DUP2 PUSH2 0x3F00 JUMP JUMPDEST SWAP1 POP PUSH2 0x3F48 PUSH1 0x20 DUP4 ADD DUP6 PUSH2 0x34AC JUMP JUMPDEST PUSH2 0x3F55 PUSH1 0x40 DUP4 ADD DUP5 PUSH2 0x349D JUMP JUMPDEST SWAP4 SWAP3 POP POP POP JUMP INVALID MSTORE PUSH6 0x636F72642068 PUSH2 0x7320 PUSH3 0x65656E KECCAK256 PUSH20 0x75636365737366756C6C792064656C6574656452 PUSH6 0x636F72642069 PUSH20 0x20636F7069656420627920646F63746F722F6175 PUSH5 0x69742E446F PUSH4 0x746F7220 PUSH9 0x617320737563636573 PUSH20 0x66756C6C7920636F7069656420796F7572206D65 PUSH5 0x6963616C20 PUSH19 0x65636F7264735265636F726420697320757064 PUSH2 0x7465 PUSH5 0x2062792064 PUSH16 0x63746F722F61756469742E5265636F72 PUSH5 0x2069732070 PUSH19 0x696E74656420627920646F63746F722F617564 PUSH10 0x742E5265636F72642069 PUSH20 0x207175657269656420627920646F63746F722F61 PUSH22 0x6469742E4D65646963616C205265636F726420557064 PUSH2 0x7465 PUSH5 0x2053756363 PUSH6 0x737366756C6C PUSH26 0x5265636F72642069732064656C6574656420627920646F63746F PUSH19 0x2F61756469742EA2646970667358221220AD8A 0xCE 0xE8 0x26 PUSH12 0x848B20C391D83B9798270949 0x2E RETURN BASEFEE EQ 0x2E GT JUMP SWAP8 PUSH15 0x5DCC12EFCE64736F6C634300081C00 CALLER "
				},
				"gasEstimates": {
					"creation": {
						"codeDepositCost": "3313000",
						"executionCost": "infinite",
						"totalCost": "infinite"
					},
					"external": {
						"addAudit(address)": "infinite",
						"addDoctors(address)": "infinite",
						"audits(address)": "2922",
						"delete_record(address)": "infinite",
						"doctor_copy_record(address)": "infinite",
						"doctor_delete_record(address)": "infinite",
						"doctor_print_record(address)": "infinite",
						"doctor_query_record(address)": "infinite",
						"doctor_update_record(address,string)": "infinite",
						"doctors(address)": "2900",
						"getUniqueID(address)": "infinite",
						"get_record_details(address)": "infinite",
						"print_record(address)": "infinite",
						"record_mapping(address)": "infinite",
						"removeAudit(address)": "infinite",
						"removeDoctors(address)": "infinite",
						"start_visit(uint256)": "infinite"
					}
				},
				"methodIdentifiers": {
					"addAudit(address)": "b1649729",
					"addDoctors(address)": "db1bf8d8",
					"audits(address)": "ab7fca1c",
					"delete_record(address)": "a0da0ea3",
					"doctor_copy_record(address)": "e111265d",
					"doctor_delete_record(address)": "16161f02",
					"doctor_print_record(address)": "c73d6d9e",
					"doctor_query_record(address)": "b6e478e5",
					"doctor_update_record(address,string)": "a7bf973c",
					"doctors(address)": "a9583c22",
					"getUniqueID(address)": "fbad2dbf",
					"get_record_details(address)": "0389523d",
					"print_record(address)": "f6c25bbd",
					"record_mapping(address)": "0cb16b71",
					"removeAudit(address)": "d60bd310",
					"removeDoctors(address)": "1fe8bb6a",
					"start_visit(uint256)": "b24be0a1"
				}
			},
			"storageLayout": {
				"storage": [
					{
						"astId": 3,
						"contract": "contracts/healthcare/Patient.sol:Patient",
						"label": "owner",
						"offset": 0,
						"slot": "0",
						"type": "t_address"
					},
					{
						"astId": 5,
						"contract": "contracts/healthcare/Patient.sol:Patient",
						"label": "firstName",
						"offset": 0,
						"slot": "1",
						"type": "t_string_storage"
					},
					{
						"astId": 7,
						"contract": "contracts/healthcare/Patient.sol:Patient",
						"label": "lastName",
						"offset": 0,
						"slot": "2",
						"type": "t_string_storage"
					},
					{
						"astId": 9,
						"contract": "contracts/healthcare/Patient.sol:Patient",
						"label": "IID",
						"offset": 0,
						"slot": "3",
						"type": "t_string_storage"
					},
					{
						"astId": 11,
						"contract": "contracts/healthcare/Patient.sol:Patient",
						"label": "bdate",
						"offset": 0,
						"slot": "4",
						"type": "t_string_storage"
					},
					{
						"astId": 13,
						"contract": "contracts/healthcare/Patient.sol:Patient",
						"label": "email",
						"offset": 0,
						"slot": "5",
						"type": "t_string_storage"
					},
					{
						"astId": 15,
						"contract": "contracts/healthcare/Patient.sol:Patient",
						"label": "phone",
						"offset": 0,
						"slot": "6",
						"type": "t_string_storage"
					},
					{
						"astId": 17,
						"contract": "contracts/healthcare/Patient.sol:Patient",
						"label": "zip",
						"offset": 0,
						"slot": "7",
						"type": "t_string_storage"
					},
					{
						"astId": 19,
						"contract": "contracts/healthcare/Patient.sol:Patient",
						"label": "city",
						"offset": 0,
						"slot": "8",
						"type": "t_string_storage"
					},
					{
						"astId": 21,
						"contract": "contracts/healthcare/Patient.sol:Patient",
						"label": "encryption_key",
						"offset": 0,
						"slot": "9",
						"type": "t_string_storage"
					},
					{
						"astId": 49,
						"contract": "contracts/healthcare/Patient.sol:Patient",
						"label": "record_mapping",
						"offset": 0,
						"slot": "10",
						"type": "t_mapping(t_address,t_struct(medical_record)44_storage)"
					},
					{
						"astId": 53,
						"contract": "contracts/healthcare/Patient.sol:Patient",
						"label": "doctors",
						"offset": 0,
						"slot": "11",
						"type": "t_mapping(t_address,t_bool)"
					},
					{
						"astId": 57,
						"contract": "contracts/healthcare/Patient.sol:Patient",
						"label": "audits",
						"offset": 0,
						"slot": "12",
						"type": "t_mapping(t_address,t_bool)"
					}
				],
				"types": {
					"t_address": {
						"encoding": "inplace",
						"label": "address",
						"numberOfBytes": "20"
					},
					"t_bool": {
						"encoding": "inplace",
						"label": "bool",
						"numberOfBytes": "1"
					},
					"t_mapping(t_address,t_bool)": {
						"encoding": "mapping",
						"key": "t_address",
						"label": "mapping(address => bool)",
						"numberOfBytes": "32",
						"value": "t_bool"
					},
					"t_mapping(t_address,t_struct(medical_record)44_storage)": {
						"encoding": "mapping",
						"key": "t_address",
						"label": "mapping(address => struct Patient.medical_record)",
						"numberOfBytes": "32",
						"value": "t_struct(medical_record)44_storage"
					},
					"t_string_storage": {
						"encoding": "bytes",
						"label": "string",
						"numberOfBytes": "32"
					},
					"t_struct(medical_record)44_storage": {
						"encoding": "inplace",
						"label": "struct Patient.medical_record",
						"members": [
							{
								"astId": 23,
								"contract": "contracts/healthcare/Patient.sol:Patient",
								"label": "is_uid_generated",
								"offset": 0,
								"slot": "0",
								"type": "t_bool"
							},
							{
								"astId": 25,
								"contract": "contracts/healthcare/Patient.sol:Patient",
								"label": "record_id",
								"offset": 0,
								"slot": "1",
								"type": "t_uint256"
							},
							{
								"astId": 27,
								"contract": "contracts/healthcare/Patient.sol:Patient",
								"label": "record_msg",
								"offset": 0,
								"slot": "2",
								"type": "t_string_storage"
							},
							{
								"astId": 29,
								"contract": "contracts/healthcare/Patient.sol:Patient",
								"label": "record_status",
								"offset": 0,
								"slot": "3",
								"type": "t_uint256"
							},
							{
								"astId": 31,
								"contract": "contracts/healthcare/Patient.sol:Patient",
								"label": "record_details",
								"offset": 0,
								"slot": "4",
								"type": "t_string_storage"
							},
							{
								"astId": 33,
								"contract": "contracts/healthcare/Patient.sol:Patient",
								"label": "patient_address",
								"offset": 0,
								"slot": "5",
								"type": "t_address"
							},
							{
								"astId": 35,
								"contract": "contracts/healthcare/Patient.sol:Patient",
								"label": "record_time",
								"offset": 0,
								"slot": "6",
								"type": "t_uint256"
							},
							{
								"astId": 37,
								"contract": "contracts/healthcare/Patient.sol:Patient",
								"label": "doctor",
								"offset": 0,
								"slot": "7",
								"type": "t_address"
							},
							{
								"astId": 39,
								"contract": "contracts/healthcare/Patient.sol:Patient",
								"label": "doctor_time",
								"offset": 0,
								"slot": "8",
								"type": "t_uint256"
							},
							{
								"astId": 41,
								"contract": "contracts/healthcare/Patient.sol:Patient",
								"label": "audit",
								"offset": 0,
								"slot": "9",
								"type": "t_address"
							},
							{
								"astId": 43,
								"contract": "contracts/healthcare/Patient.sol:Patient",
								"label": "audit_time",
								"offset": 0,
								"slot": "10",
								"type": "t_uint256"
							}
						],
						"numberOfBytes": "352"
					},
					"t_uint256": {
						"encoding": "inplace",
						"label": "uint256",
						"numberOfBytes": "32"
					}
				}
			},
			"userdoc": {
				"kind": "user",
				"methods": {},
				"version": 1
			}
		}
	}
}