{
	"contracts/healthcare/RNNManager.sol": {
		"RNNManager": {
			"abi": [
				{
					"inputs": [
						{
							"internalType": "address",
							"name": "_rnnNode",
							"type": "address"
						}
					],
					"stateMutability": "nonpayable",
					"type": "constructor"
				},
				{
					"anonymous": false,
					"inputs": [
						{
							"indexed": false,
							"internalType": "string",
							"name": "userId",
							"type": "string"
						},
						{
							"indexed": false,
							"internalType": "string",
							"name": "message",
							"type": "string"
						}
					],
					"name": "DataBroadcasted",
					"type": "event"
				},
				{
					"anonymous": false,
					"inputs": [
						{
							"indexed": false,
							"internalType": "string",
							"name": "userId",
							"type": "string"
						},
						{
							"indexed": false,
							"internalType": "string",
							"name": "result",
							"type": "string"
						}
					],
					"name": "PredictionCompleted",
					"type": "event"
				},
				{
					"anonymous": false,
					"inputs": [
						{
							"indexed": false,
							"internalType": "string",
							"name": "userId",
							"type": "string"
						}
					],
					"name": "TrainingCompleted",
					"type": "event"
				},
				{
					"inputs": [
						{
							"internalType": "string",
							"name": "userId",
							"type": "string"
						},
						{
							"internalType": "string",
							"name": "encryptedData",
							"type": "string"
						}
					],
					"name": "broadcastData",
					"outputs": [],
					"stateMutability": "nonpayable",
					"type": "function"
				},
				{
					"inputs": [
						{
							"internalType": "string",
							"name": "userId",
							"type": "string"
						}
					],
					"name": "getEncryptedData",
					"outputs": [
						{
							"components": [
								{
									"internalType": "string",
									"name": "userId",
									"type": "string"
								},
								{
									"internalType": "string",
									"name": "encryptedData",
									"type": "string"
								},
								{
									"internalType": "bool",
									"name": "isTrained",
									"type": "bool"
								}
							],
							"internalType": "struct RNNManager.EncryptedData",
							"name": "",
							"type": "tuple"
						}
					],
					"stateMutability": "view",
					"type": "function"
				},
				{
					"inputs": [
						{
							"internalType": "string",
							"name": "userId",
							"type": "string"
						}
					],
					"name": "getPredictions",
					"outputs": [
						{
							"components": [
								{
									"internalType": "string",
									"name": "userId",
									"type": "string"
								},
								{
									"internalType": "string",
									"name": "result",
									"type": "string"
								},
								{
									"internalType": "uint256",
									"name": "timestamp",
									"type": "uint256"
								}
							],
							"internalType": "struct RNNManager.Prediction[]",
							"name": "",
							"type": "tuple[]"
						}
					],
					"stateMutability": "view",
					"type": "function"
				},
				{
					"inputs": [
						{
							"internalType": "string",
							"name": "userId",
							"type": "string"
						}
					],
					"name": "markAsTrained",
					"outputs": [],
					"stateMutability": "nonpayable",
					"type": "function"
				},
				{
					"inputs": [],
					"name": "rnnNode",
					"outputs": [
						{
							"internalType": "address",
							"name": "",
							"type": "address"
						}
					],
					"stateMutability": "view",
					"type": "function"
				},
				{
					"inputs": [
						{
							"internalType": "string",
							"name": "userId",
							"type": "string"
						},
						{
							"internalType": "string",
							"name": "result",
							"type": "string"
						}
					],
					"name": "submitPrediction",
					"outputs": [],
					"stateMutability": "nonpayable",
					"type": "function"
				}
			],
			"devdoc": {
				"kind": "dev",
				"methods": {},
				"version": 1
			},
			"evm": {
				"assembly": "    /* \"contracts/healthcare/RNNManager.sol\":60:2553  contract RNNManager {... */\n  mstore(0x40, 0x80)\n    /* \"contracts/healthcare/RNNManager.sol\":1126:1193  constructor(address _rnnNode) {... */\n  callvalue\n  dup1\n  iszero\n  tag_1\n  jumpi\n  revert(0x00, 0x00)\ntag_1:\n  pop\n  mload(0x40)\n  sub(codesize, bytecodeSize)\n  dup1\n  bytecodeSize\n  dup4\n  codecopy\n  dup2\n  dup2\n  add\n  0x40\n  mstore\n  dup2\n  add\n  swap1\n  tag_2\n  swap2\n  swap1\n  tag_3\n  jump\t// in\ntag_2:\n    /* \"contracts/healthcare/RNNManager.sol\":1177:1185  _rnnNode */\n  dup1\n    /* \"contracts/healthcare/RNNManager.sol\":1167:1174  rnnNode */\n  0x02\n  0x00\n    /* \"contracts/healthcare/RNNManager.sol\":1167:1185  rnnNode = _rnnNode */\n  0x0100\n  exp\n  dup2\n  sload\n  dup2\n  0xffffffffffffffffffffffffffffffffffffffff\n  mul\n  not\n  and\n  swap1\n  dup4\n  0xffffffffffffffffffffffffffffffffffffffff\n  and\n  mul\n  or\n  swap1\n  sstore\n  pop\n    /* \"contracts/healthcare/RNNManager.sol\":1126:1193  constructor(address _rnnNode) {... */\n  pop\n    /* \"contracts/healthcare/RNNManager.sol\":60:2553  contract RNNManager {... */\n  jump(tag_6)\n    /* \"#utility.yul\":88:205   */\ntag_8:\n    /* \"#utility.yul\":197:198   */\n  0x00\n    /* \"#utility.yul\":194:195   */\n  0x00\n    /* \"#utility.yul\":187:199   */\n  revert\n    /* \"#utility.yul\":334:460   */\ntag_10:\n    /* \"#utility.yul\":371:378   */\n  0x00\n    /* \"#utility.yul\":411:453   */\n  0xffffffffffffffffffffffffffffffffffffffff\n    /* \"#utility.yul\":404:409   */\n  dup3\n    /* \"#utility.yul\":400:454   */\n  and\n    /* \"#utility.yul\":389:454   */\n  swap1\n  pop\n    /* \"#utility.yul\":334:460   */\n  swap2\n  swap1\n  pop\n  jump\t// out\n    /* \"#utility.yul\":466:562   */\ntag_11:\n    /* \"#utility.yul\":503:510   */\n  0x00\n    /* \"#utility.yul\":532:556   */\n  tag_20\n    /* \"#utility.yul\":550:555   */\n  dup3\n    /* \"#utility.yul\":532:556   */\n  tag_10\n  jump\t// in\ntag_20:\n    /* \"#utility.yul\":521:556   */\n  swap1\n  pop\n    /* \"#utility.yul\":466:562   */\n  swap2\n  swap1\n  pop\n  jump\t// out\n    /* \"#utility.yul\":568:690   */\ntag_12:\n    /* \"#utility.yul\":641:665   */\n  tag_22\n    /* \"#utility.yul\":659:664   */\n  dup2\n    /* \"#utility.yul\":641:665   */\n  tag_11\n  jump\t// in\ntag_22:\n    /* \"#utility.yul\":634:639   */\n  dup2\n    /* \"#utility.yul\":631:666   */\n  eq\n    /* \"#utility.yul\":621:684   */\n  tag_23\n  jumpi\n    /* \"#utility.yul\":680:681   */\n  0x00\n    /* \"#utility.yul\":677:678   */\n  0x00\n    /* \"#utility.yul\":670:682   */\n  revert\n    /* \"#utility.yul\":621:684   */\ntag_23:\n    /* \"#utility.yul\":568:690   */\n  pop\n  jump\t// out\n    /* \"#utility.yul\":696:839   */\ntag_13:\n    /* \"#utility.yul\":753:758   */\n  0x00\n    /* \"#utility.yul\":784:790   */\n  dup2\n    /* \"#utility.yul\":778:791   */\n  mload\n    /* \"#utility.yul\":769:791   */\n  swap1\n  pop\n    /* \"#utility.yul\":800:833   */\n  tag_25\n    /* \"#utility.yul\":827:832   */\n  dup2\n    /* \"#utility.yul\":800:833   */\n  tag_12\n  jump\t// in\ntag_25:\n    /* \"#utility.yul\":696:839   */\n  swap3\n  swap2\n  pop\n  pop\n  jump\t// out\n    /* \"#utility.yul\":845:1196   */\ntag_3:\n    /* \"#utility.yul\":915:921   */\n  0x00\n    /* \"#utility.yul\":964:966   */\n  0x20\n    /* \"#utility.yul\":952:961   */\n  dup3\n    /* \"#utility.yul\":943:950   */\n  dup5\n    /* \"#utility.yul\":939:962   */\n  sub\n    /* \"#utility.yul\":935:967   */\n  slt\n    /* \"#utility.yul\":932:1051   */\n  iszero\n  tag_27\n  jumpi\n    /* \"#utility.yul\":970:1049   */\n  tag_28\n  tag_8\n  jump\t// in\ntag_28:\n    /* \"#utility.yul\":932:1051   */\ntag_27:\n    /* \"#utility.yul\":1090:1091   */\n  0x00\n    /* \"#utility.yul\":1115:1179   */\n  tag_29\n    /* \"#utility.yul\":1171:1178   */\n  dup5\n    /* \"#utility.yul\":1162:1168   */\n  dup3\n    /* \"#utility.yul\":1151:1160   */\n  dup6\n    /* \"#utility.yul\":1147:1169   */\n  add\n    /* \"#utility.yul\":1115:1179   */\n  tag_13\n  jump\t// in\ntag_29:\n    /* \"#utility.yul\":1105:1179   */\n  swap2\n  pop\n    /* \"#utility.yul\":1061:1189   */\n  pop\n    /* \"#utility.yul\":845:1196   */\n  swap3\n  swap2\n  pop\n  pop\n  jump\t// out\n    /* \"contracts/healthcare/RNNManager.sol\":60:2553  contract RNNManager {... */\ntag_6:\n  dataSize(sub_0)\n  dup1\n  dataOffset(sub_0)\n  0x00\n  codecopy\n  0x00\n  return\nstop\n\nsub_0: assembly {\n        /* \"contracts/healthcare/RNNManager.sol\":60:2553  contract RNNManager {... */\n      mstore(0x40, 0x80)\n      callvalue\n      dup1\n      iszero\n      tag_1\n      jumpi\n      revert(0x00, 0x00)\n    tag_1:\n      pop\n      jumpi(tag_2, lt(calldatasize, 0x04))\n      shr(0xe0, calldataload(0x00))\n      dup1\n      0x0e178d1f\n      eq\n      tag_3\n      jumpi\n      dup1\n      0x28866426\n      eq\n      tag_4\n      jumpi\n      dup1\n      0x2d6be93d\n      eq\n      tag_5\n      jumpi\n      dup1\n      0x49e4622c\n      eq\n      tag_6\n      jumpi\n      dup1\n      0x58e176c9\n      eq\n      tag_7\n      jumpi\n      dup1\n      0xd8ebf570\n      eq\n      tag_8\n      jumpi\n    tag_2:\n      revert(0x00, 0x00)\n        /* \"contracts/healthcare/RNNManager.sol\":1890:2124  function markAsTrained(string memory userId) public onlyRNNNode {... */\n    tag_3:\n      tag_9\n      0x04\n      dup1\n      calldatasize\n      sub\n      dup2\n      add\n      swap1\n      tag_10\n      swap2\n      swap1\n      tag_11\n      jump\t// in\n    tag_10:\n      tag_12\n      jump\t// in\n    tag_9:\n      stop\n        /* \"contracts/healthcare/RNNManager.sol\":953:975  address public rnnNode */\n    tag_4:\n      tag_13\n      tag_14\n      jump\t// in\n    tag_13:\n      mload(0x40)\n      tag_15\n      swap2\n      swap1\n      tag_16\n      jump\t// in\n    tag_15:\n      mload(0x40)\n      dup1\n      swap2\n      sub\n      swap1\n      return\n        /* \"contracts/healthcare/RNNManager.sol\":1588:1816  function submitPrediction(string memory userId, string memory result) public onlyRNNNode {... */\n    tag_5:\n      tag_17\n      0x04\n      dup1\n      calldatasize\n      sub\n      dup2\n      add\n      swap1\n      tag_18\n      swap2\n      swap1\n      tag_19\n      jump\t// in\n    tag_18:\n      tag_20\n      jump\t// in\n    tag_17:\n      stop\n        /* \"contracts/healthcare/RNNManager.sol\":2414:2550  function getEncryptedData(string memory userId) public view returns (EncryptedData memory) {... */\n    tag_6:\n      tag_21\n      0x04\n      dup1\n      calldatasize\n      sub\n      dup2\n      add\n      swap1\n      tag_22\n      swap2\n      swap1\n      tag_11\n      jump\t// in\n    tag_22:\n      tag_23\n      jump\t// in\n    tag_21:\n      mload(0x40)\n      tag_24\n      swap2\n      swap1\n      tag_25\n      jump\t// in\n    tag_24:\n      mload(0x40)\n      dup1\n      swap2\n      sub\n      swap1\n      return\n        /* \"contracts/healthcare/RNNManager.sol\":1262:1510  function broadcastData(string memory userId, string memory encryptedData) public {... */\n    tag_7:\n      tag_26\n      0x04\n      dup1\n      calldatasize\n      sub\n      dup2\n      add\n      swap1\n      tag_27\n      swap2\n      swap1\n      tag_19\n      jump\t// in\n    tag_27:\n      tag_28\n      jump\t// in\n    tag_26:\n      stop\n        /* \"contracts/healthcare/RNNManager.sol\":2191:2324  function getPredictions(string memory userId) public view returns (Prediction[] memory) {... */\n    tag_8:\n      tag_29\n      0x04\n      dup1\n      calldatasize\n      sub\n      dup2\n      add\n      swap1\n      tag_30\n      swap2\n      swap1\n      tag_11\n      jump\t// in\n    tag_30:\n      tag_31\n      jump\t// in\n    tag_29:\n      mload(0x40)\n      tag_32\n      swap2\n      swap1\n      tag_33\n      jump\t// in\n    tag_32:\n      mload(0x40)\n      dup1\n      swap2\n      sub\n      swap1\n      return\n        /* \"contracts/healthcare/RNNManager.sol\":1890:2124  function markAsTrained(string memory userId) public onlyRNNNode {... */\n    tag_12:\n        /* \"contracts/healthcare/RNNManager.sol\":1038:1045  rnnNode */\n      0x02\n      0x00\n      swap1\n      sload\n      swap1\n      0x0100\n      exp\n      swap1\n      div\n      0xffffffffffffffffffffffffffffffffffffffff\n      and\n        /* \"contracts/healthcare/RNNManager.sol\":1024:1045  msg.sender == rnnNode */\n      0xffffffffffffffffffffffffffffffffffffffff\n      and\n        /* \"contracts/healthcare/RNNManager.sol\":1024:1034  msg.sender */\n      caller\n        /* \"contracts/healthcare/RNNManager.sol\":1024:1045  msg.sender == rnnNode */\n      0xffffffffffffffffffffffffffffffffffffffff\n      and\n      eq\n        /* \"contracts/healthcare/RNNManager.sol\":1016:1098  require(msg.sender == rnnNode, \"Only authorized RNN node can perform this action\") */\n      tag_35\n      jumpi\n      mload(0x40)\n      0x08c379a000000000000000000000000000000000000000000000000000000000\n      dup2\n      mstore\n      0x04\n      add\n      tag_36\n      swap1\n      tag_37\n      jump\t// in\n    tag_36:\n      mload(0x40)\n      dup1\n      swap2\n      sub\n      swap1\n      revert\n    tag_35:\n        /* \"contracts/healthcare/RNNManager.sol\":1974:1985  dataStorage */\n      0x00\n        /* \"contracts/healthcare/RNNManager.sol\":1986:1992  userId */\n      dup2\n        /* \"contracts/healthcare/RNNManager.sol\":1974:1993  dataStorage[userId] */\n      mload(0x40)\n      tag_39\n      swap2\n      swap1\n      tag_40\n      jump\t// in\n    tag_39:\n      swap1\n      dup2\n      mstore\n      0x20\n      add\n      mload(0x40)\n      dup1\n      swap2\n      sub\n      swap1\n      keccak256\n        /* \"contracts/healthcare/RNNManager.sol\":1974:2003  dataStorage[userId].isTrained */\n      0x02\n      add\n      0x00\n      swap1\n      sload\n      swap1\n      0x0100\n      exp\n      swap1\n      div\n      0xff\n      and\n        /* \"contracts/healthcare/RNNManager.sol\":1973:2003  !dataStorage[userId].isTrained */\n      iszero\n        /* \"contracts/healthcare/RNNManager.sol\":1965:2028  require(!dataStorage[userId].isTrained, \"Data already trained\") */\n      tag_41\n      jumpi\n      mload(0x40)\n      0x08c379a000000000000000000000000000000000000000000000000000000000\n      dup2\n      mstore\n      0x04\n      add\n      tag_42\n      swap1\n      tag_43\n      jump\t// in\n    tag_42:\n      mload(0x40)\n      dup1\n      swap2\n      sub\n      swap1\n      revert\n    tag_41:\n        /* \"contracts/healthcare/RNNManager.sol\":2071:2075  true */\n      0x01\n        /* \"contracts/healthcare/RNNManager.sol\":2039:2050  dataStorage */\n      0x00\n        /* \"contracts/healthcare/RNNManager.sol\":2051:2057  userId */\n      dup3\n        /* \"contracts/healthcare/RNNManager.sol\":2039:2058  dataStorage[userId] */\n      mload(0x40)\n      tag_44\n      swap2\n      swap1\n      tag_40\n      jump\t// in\n    tag_44:\n      swap1\n      dup2\n      mstore\n      0x20\n      add\n      mload(0x40)\n      dup1\n      swap2\n      sub\n      swap1\n      keccak256\n        /* \"contracts/healthcare/RNNManager.sol\":2039:2068  dataStorage[userId].isTrained */\n      0x02\n      add\n      0x00\n        /* \"contracts/healthcare/RNNManager.sol\":2039:2075  dataStorage[userId].isTrained = true */\n      0x0100\n      exp\n      dup2\n      sload\n      dup2\n      0xff\n      mul\n      not\n      and\n      swap1\n      dup4\n      iszero\n      iszero\n      mul\n      or\n      swap1\n      sstore\n      pop\n        /* \"contracts/healthcare/RNNManager.sol\":2091:2116  TrainingCompleted(userId) */\n      0x0c62b3a86c1b3297873be6e9e58b83a0408eee3294b83f35d558aacb3a7039a6\n        /* \"contracts/healthcare/RNNManager.sol\":2109:2115  userId */\n      dup2\n        /* \"contracts/healthcare/RNNManager.sol\":2091:2116  TrainingCompleted(userId) */\n      mload(0x40)\n      tag_45\n      swap2\n      swap1\n      tag_46\n      jump\t// in\n    tag_45:\n      mload(0x40)\n      dup1\n      swap2\n      sub\n      swap1\n      log1\n        /* \"contracts/healthcare/RNNManager.sol\":1890:2124  function markAsTrained(string memory userId) public onlyRNNNode {... */\n      pop\n      jump\t// out\n        /* \"contracts/healthcare/RNNManager.sol\":953:975  address public rnnNode */\n    tag_14:\n      0x02\n      0x00\n      swap1\n      sload\n      swap1\n      0x0100\n      exp\n      swap1\n      div\n      0xffffffffffffffffffffffffffffffffffffffff\n      and\n      dup2\n      jump\t// out\n        /* \"contracts/healthcare/RNNManager.sol\":1588:1816  function submitPrediction(string memory userId, string memory result) public onlyRNNNode {... */\n    tag_20:\n        /* \"contracts/healthcare/RNNManager.sol\":1038:1045  rnnNode */\n      0x02\n      0x00\n      swap1\n      sload\n      swap1\n      0x0100\n      exp\n      swap1\n      div\n      0xffffffffffffffffffffffffffffffffffffffff\n      and\n        /* \"contracts/healthcare/RNNManager.sol\":1024:1045  msg.sender == rnnNode */\n      0xffffffffffffffffffffffffffffffffffffffff\n      and\n        /* \"contracts/healthcare/RNNManager.sol\":1024:1034  msg.sender */\n      caller\n        /* \"contracts/healthcare/RNNManager.sol\":1024:1045  msg.sender == rnnNode */\n      0xffffffffffffffffffffffffffffffffffffffff\n      and\n      eq\n        /* \"contracts/healthcare/RNNManager.sol\":1016:1098  require(msg.sender == rnnNode, \"Only authorized RNN node can perform this action\") */\n      tag_48\n      jumpi\n      mload(0x40)\n      0x08c379a000000000000000000000000000000000000000000000000000000000\n      dup2\n      mstore\n      0x04\n      add\n      tag_49\n      swap1\n      tag_37\n      jump\t// in\n    tag_49:\n      mload(0x40)\n      dup1\n      swap2\n      sub\n      swap1\n      revert\n    tag_48:\n        /* \"contracts/healthcare/RNNManager.sol\":1688:1699  predictions */\n      0x01\n        /* \"contracts/healthcare/RNNManager.sol\":1700:1706  userId */\n      dup3\n        /* \"contracts/healthcare/RNNManager.sol\":1688:1707  predictions[userId] */\n      mload(0x40)\n      tag_51\n      swap2\n      swap1\n      tag_40\n      jump\t// in\n    tag_51:\n      swap1\n      dup2\n      mstore\n      0x20\n      add\n      mload(0x40)\n      dup1\n      swap2\n      sub\n      swap1\n      keccak256\n        /* \"contracts/healthcare/RNNManager.sol\":1713:1756  Prediction(userId, result, block.timestamp) */\n      mload(0x40)\n      dup1\n      0x60\n      add\n      0x40\n      mstore\n      dup1\n        /* \"contracts/healthcare/RNNManager.sol\":1724:1730  userId */\n      dup5\n        /* \"contracts/healthcare/RNNManager.sol\":1713:1756  Prediction(userId, result, block.timestamp) */\n      dup2\n      mstore\n      0x20\n      add\n        /* \"contracts/healthcare/RNNManager.sol\":1732:1738  result */\n      dup4\n        /* \"contracts/healthcare/RNNManager.sol\":1713:1756  Prediction(userId, result, block.timestamp) */\n      dup2\n      mstore\n      0x20\n      add\n        /* \"contracts/healthcare/RNNManager.sol\":1740:1755  block.timestamp */\n      timestamp\n        /* \"contracts/healthcare/RNNManager.sol\":1713:1756  Prediction(userId, result, block.timestamp) */\n      dup2\n      mstore\n      pop\n        /* \"contracts/healthcare/RNNManager.sol\":1688:1757  predictions[userId].push(Prediction(userId, result, block.timestamp)) */\n      swap1\n      dup1\n      0x01\n      dup2\n      sload\n      add\n      dup1\n      dup3\n      sstore\n      dup1\n      swap2\n      pop\n      pop\n      0x01\n      swap1\n      sub\n      swap1\n      0x00\n      mstore\n      keccak256(0x00, 0x20)\n      swap1\n      0x03\n      mul\n      add\n      0x00\n      swap1\n      swap2\n      swap1\n      swap2\n      swap1\n      swap2\n      pop\n      0x00\n      dup3\n      add\n      mload\n      dup2\n      0x00\n      add\n      swap1\n      dup2\n      tag_53\n      swap2\n      swap1\n      tag_54\n      jump\t// in\n    tag_53:\n      pop\n      0x20\n      dup3\n      add\n      mload\n      dup2\n      0x01\n      add\n      swap1\n      dup2\n      tag_55\n      swap2\n      swap1\n      tag_54\n      jump\t// in\n    tag_55:\n      pop\n      0x40\n      dup3\n      add\n      mload\n      dup2\n      0x02\n      add\n      sstore\n      pop\n      pop\n        /* \"contracts/healthcare/RNNManager.sol\":1773:1808  PredictionCompleted(userId, result) */\n      0x35f221b2184bd3e6a7a85ffefcca788c6a759654a246e5f38542a3260bb9a57a\n        /* \"contracts/healthcare/RNNManager.sol\":1793:1799  userId */\n      dup3\n        /* \"contracts/healthcare/RNNManager.sol\":1801:1807  result */\n      dup3\n        /* \"contracts/healthcare/RNNManager.sol\":1773:1808  PredictionCompleted(userId, result) */\n      mload(0x40)\n      tag_56\n      swap3\n      swap2\n      swap1\n      tag_57\n      jump\t// in\n    tag_56:\n      mload(0x40)\n      dup1\n      swap2\n      sub\n      swap1\n      log1\n        /* \"contracts/healthcare/RNNManager.sol\":1588:1816  function submitPrediction(string memory userId, string memory result) public onlyRNNNode {... */\n      pop\n      pop\n      jump\t// out\n        /* \"contracts/healthcare/RNNManager.sol\":2414:2550  function getEncryptedData(string memory userId) public view returns (EncryptedData memory) {... */\n    tag_23:\n        /* \"contracts/healthcare/RNNManager.sol\":2483:2503  EncryptedData memory */\n      tag_58\n      tag_59\n      jump\t// in\n    tag_58:\n        /* \"contracts/healthcare/RNNManager.sol\":2523:2534  dataStorage */\n      0x00\n        /* \"contracts/healthcare/RNNManager.sol\":2535:2541  userId */\n      dup3\n        /* \"contracts/healthcare/RNNManager.sol\":2523:2542  dataStorage[userId] */\n      mload(0x40)\n      tag_61\n      swap2\n      swap1\n      tag_40\n      jump\t// in\n    tag_61:\n      swap1\n      dup2\n      mstore\n      0x20\n      add\n      mload(0x40)\n      dup1\n      swap2\n      sub\n      swap1\n      keccak256\n        /* \"contracts/healthcare/RNNManager.sol\":2516:2542  return dataStorage[userId] */\n      mload(0x40)\n      dup1\n      0x60\n      add\n      0x40\n      mstore\n      swap1\n      dup2\n      0x00\n      dup3\n      add\n      dup1\n      sload\n      tag_62\n      swap1\n      tag_63\n      jump\t// in\n    tag_62:\n      dup1\n      0x1f\n      add\n      0x20\n      dup1\n      swap2\n      div\n      mul\n      0x20\n      add\n      mload(0x40)\n      swap1\n      dup2\n      add\n      0x40\n      mstore\n      dup1\n      swap3\n      swap2\n      swap1\n      dup2\n      dup2\n      mstore\n      0x20\n      add\n      dup3\n      dup1\n      sload\n      tag_64\n      swap1\n      tag_63\n      jump\t// in\n    tag_64:\n      dup1\n      iszero\n      tag_65\n      jumpi\n      dup1\n      0x1f\n      lt\n      tag_66\n      jumpi\n      0x0100\n      dup1\n      dup4\n      sload\n      div\n      mul\n      dup4\n      mstore\n      swap2\n      0x20\n      add\n      swap2\n      jump(tag_65)\n    tag_66:\n      dup3\n      add\n      swap2\n      swap1\n      0x00\n      mstore\n      keccak256(0x00, 0x20)\n      swap1\n    tag_67:\n      dup2\n      sload\n      dup2\n      mstore\n      swap1\n      0x01\n      add\n      swap1\n      0x20\n      add\n      dup1\n      dup4\n      gt\n      tag_67\n      jumpi\n      dup3\n      swap1\n      sub\n      0x1f\n      and\n      dup3\n      add\n      swap2\n    tag_65:\n      pop\n      pop\n      pop\n      pop\n      pop\n      dup2\n      mstore\n      0x20\n      add\n      0x01\n      dup3\n      add\n      dup1\n      sload\n      tag_68\n      swap1\n      tag_63\n      jump\t// in\n    tag_68:\n      dup1\n      0x1f\n      add\n      0x20\n      dup1\n      swap2\n      div\n      mul\n      0x20\n      add\n      mload(0x40)\n      swap1\n      dup2\n      add\n      0x40\n      mstore\n      dup1\n      swap3\n      swap2\n      swap1\n      dup2\n      dup2\n      mstore\n      0x20\n      add\n      dup3\n      dup1\n      sload\n      tag_69\n      swap1\n      tag_63\n      jump\t// in\n    tag_69:\n      dup1\n      iszero\n      tag_70\n      jumpi\n      dup1\n      0x1f\n      lt\n      tag_71\n      jumpi\n      0x0100\n      dup1\n      dup4\n      sload\n      div\n      mul\n      dup4\n      mstore\n      swap2\n      0x20\n      add\n      swap2\n      jump(tag_70)\n    tag_71:\n      dup3\n      add\n      swap2\n      swap1\n      0x00\n      mstore\n      keccak256(0x00, 0x20)\n      swap1\n    tag_72:\n      dup2\n      sload\n      dup2\n      mstore\n      swap1\n      0x01\n      add\n      swap1\n      0x20\n      add\n      dup1\n      dup4\n      gt\n      tag_72\n      jumpi\n      dup3\n      swap1\n      sub\n      0x1f\n      and\n      dup3\n      add\n      swap2\n    tag_70:\n      pop\n      pop\n      pop\n      pop\n      pop\n      dup2\n      mstore\n      0x20\n      add\n      0x02\n      dup3\n      add\n      0x00\n      swap1\n      sload\n      swap1\n      0x0100\n      exp\n      swap1\n      div\n      0xff\n      and\n      iszero\n      iszero\n      iszero\n      iszero\n      dup2\n      mstore\n      pop\n      pop\n      swap1\n      pop\n        /* \"contracts/healthcare/RNNManager.sol\":2414:2550  function getEncryptedData(string memory userId) public view returns (EncryptedData memory) {... */\n      swap2\n      swap1\n      pop\n      jump\t// out\n        /* \"contracts/healthcare/RNNManager.sol\":1262:1510  function broadcastData(string memory userId, string memory encryptedData) public {... */\n    tag_28:\n        /* \"contracts/healthcare/RNNManager.sol\":1376:1419  EncryptedData(userId, encryptedData, false) */\n      mload(0x40)\n      dup1\n      0x60\n      add\n      0x40\n      mstore\n      dup1\n        /* \"contracts/healthcare/RNNManager.sol\":1390:1396  userId */\n      dup4\n        /* \"contracts/healthcare/RNNManager.sol\":1376:1419  EncryptedData(userId, encryptedData, false) */\n      dup2\n      mstore\n      0x20\n      add\n        /* \"contracts/healthcare/RNNManager.sol\":1398:1411  encryptedData */\n      dup3\n        /* \"contracts/healthcare/RNNManager.sol\":1376:1419  EncryptedData(userId, encryptedData, false) */\n      dup2\n      mstore\n      0x20\n      add\n        /* \"contracts/healthcare/RNNManager.sol\":1413:1418  false */\n      0x00\n        /* \"contracts/healthcare/RNNManager.sol\":1376:1419  EncryptedData(userId, encryptedData, false) */\n      iszero\n      iszero\n      dup2\n      mstore\n      pop\n        /* \"contracts/healthcare/RNNManager.sol\":1354:1365  dataStorage */\n      0x00\n        /* \"contracts/healthcare/RNNManager.sol\":1366:1372  userId */\n      dup4\n        /* \"contracts/healthcare/RNNManager.sol\":1354:1373  dataStorage[userId] */\n      mload(0x40)\n      tag_74\n      swap2\n      swap1\n      tag_40\n      jump\t// in\n    tag_74:\n      swap1\n      dup2\n      mstore\n      0x20\n      add\n      mload(0x40)\n      dup1\n      swap2\n      sub\n      swap1\n      keccak256\n        /* \"contracts/healthcare/RNNManager.sol\":1354:1419  dataStorage[userId] = EncryptedData(userId, encryptedData, false) */\n      0x00\n      dup3\n      add\n      mload\n      dup2\n      0x00\n      add\n      swap1\n      dup2\n      tag_75\n      swap2\n      swap1\n      tag_54\n      jump\t// in\n    tag_75:\n      pop\n      0x20\n      dup3\n      add\n      mload\n      dup2\n      0x01\n      add\n      swap1\n      dup2\n      tag_76\n      swap2\n      swap1\n      tag_54\n      jump\t// in\n    tag_76:\n      pop\n      0x40\n      dup3\n      add\n      mload\n      dup2\n      0x02\n      add\n      exp(0x0100, 0x00)\n      dup2\n      sload\n      dup2\n      0xff\n      mul\n      not\n      and\n      swap1\n      dup4\n      iszero\n      iszero\n      mul\n      or\n      swap1\n      sstore\n      pop\n      swap1\n      pop\n      pop\n        /* \"contracts/healthcare/RNNManager.sol\":1435:1502  DataBroadcasted(userId, \"Data broadcasted for training/prediction\") */\n      0x8e8b49c7eb65ad559da4e92655b2da6c837c431d05ccfaa2db3ba82c61982391\n        /* \"contracts/healthcare/RNNManager.sol\":1451:1457  userId */\n      dup3\n        /* \"contracts/healthcare/RNNManager.sol\":1435:1502  DataBroadcasted(userId, \"Data broadcasted for training/prediction\") */\n      mload(0x40)\n      tag_77\n      swap2\n      swap1\n      tag_78\n      jump\t// in\n    tag_77:\n      mload(0x40)\n      dup1\n      swap2\n      sub\n      swap1\n      log1\n        /* \"contracts/healthcare/RNNManager.sol\":1262:1510  function broadcastData(string memory userId, string memory encryptedData) public {... */\n      pop\n      pop\n      jump\t// out\n        /* \"contracts/healthcare/RNNManager.sol\":2191:2324  function getPredictions(string memory userId) public view returns (Prediction[] memory) {... */\n    tag_31:\n        /* \"contracts/healthcare/RNNManager.sol\":2258:2277  Prediction[] memory */\n      0x60\n        /* \"contracts/healthcare/RNNManager.sol\":2297:2308  predictions */\n      0x01\n        /* \"contracts/healthcare/RNNManager.sol\":2309:2315  userId */\n      dup3\n        /* \"contracts/healthcare/RNNManager.sol\":2297:2316  predictions[userId] */\n      mload(0x40)\n      tag_80\n      swap2\n      swap1\n      tag_40\n      jump\t// in\n    tag_80:\n      swap1\n      dup2\n      mstore\n      0x20\n      add\n      mload(0x40)\n      dup1\n      swap2\n      sub\n      swap1\n      keccak256\n        /* \"contracts/healthcare/RNNManager.sol\":2290:2316  return predictions[userId] */\n      dup1\n      sload\n      dup1\n      0x20\n      mul\n      0x20\n      add\n      mload(0x40)\n      swap1\n      dup2\n      add\n      0x40\n      mstore\n      dup1\n      swap3\n      swap2\n      swap1\n      dup2\n      dup2\n      mstore\n      0x20\n      add\n      0x00\n      swap1\n    tag_81:\n      dup3\n      dup3\n      lt\n      iszero\n      tag_82\n      jumpi\n      dup4\n      dup3\n      swap1\n      0x00\n      mstore\n      keccak256(0x00, 0x20)\n      swap1\n      0x03\n      mul\n      add\n      mload(0x40)\n      dup1\n      0x60\n      add\n      0x40\n      mstore\n      swap1\n      dup2\n      0x00\n      dup3\n      add\n      dup1\n      sload\n      tag_84\n      swap1\n      tag_63\n      jump\t// in\n    tag_84:\n      dup1\n      0x1f\n      add\n      0x20\n      dup1\n      swap2\n      div\n      mul\n      0x20\n      add\n      mload(0x40)\n      swap1\n      dup2\n      add\n      0x40\n      mstore\n      dup1\n      swap3\n      swap2\n      swap1\n      dup2\n      dup2\n      mstore\n      0x20\n      add\n      dup3\n      dup1\n      sload\n      tag_85\n      swap1\n      tag_63\n      jump\t// in\n    tag_85:\n      dup1\n      iszero\n      tag_86\n      jumpi\n      dup1\n      0x1f\n      lt\n      tag_87\n      jumpi\n      0x0100\n      dup1\n      dup4\n      sload\n      div\n      mul\n      dup4\n      mstore\n      swap2\n      0x20\n      add\n      swap2\n      jump(tag_86)\n    tag_87:\n      dup3\n      add\n      swap2\n      swap1\n      0x00\n      mstore\n      keccak256(0x00, 0x20)\n      swap1\n    tag_88:\n      dup2\n      sload\n      dup2\n      mstore\n      swap1\n      0x01\n      add\n      swap1\n      0x20\n      add\n      dup1\n      dup4\n      gt\n      tag_88\n      jumpi\n      dup3\n      swap1\n      sub\n      0x1f\n      and\n      dup3\n      add\n      swap2\n    tag_86:\n      pop\n      pop\n      pop\n      pop\n      pop\n      dup2\n      mstore\n      0x20\n      add\n      0x01\n      dup3\n      add\n      dup1\n      sload\n      tag_89\n      swap1\n      tag_63\n      jump\t// in\n    tag_89:\n      dup1\n      0x1f\n      add\n      0x20\n      dup1\n      swap2\n      div\n      mul\n      0x20\n      add\n      mload(0x40)\n      swap1\n      dup2\n      add\n      0x40\n      mstore\n      dup1\n      swap3\n      swap2\n      swap1\n      dup2\n      dup2\n      mstore\n      0x20\n      add\n      dup3\n      dup1\n      sload\n      tag_90\n      swap1\n      tag_63\n      jump\t// in\n    tag_90:\n      dup1\n      iszero\n      tag_91\n      jumpi\n      dup1\n      0x1f\n      lt\n      tag_92\n      jumpi\n      0x0100\n      dup1\n      dup4\n      sload\n      div\n      mul\n      dup4\n      mstore\n      swap2\n      0x20\n      add\n      swap2\n      jump(tag_91)\n    tag_92:\n      dup3\n      add\n      swap2\n      swap1\n      0x00\n      mstore\n      keccak256(0x00, 0x20)\n      swap1\n    tag_93:\n      dup2\n      sload\n      dup2\n      mstore\n      swap1\n      0x01\n      add\n      swap1\n      0x20\n      add\n      dup1\n      dup4\n      gt\n      tag_93\n      jumpi\n      dup3\n      swap1\n      sub\n      0x1f\n      and\n      dup3\n      add\n      swap2\n    tag_91:\n      pop\n      pop\n      pop\n      pop\n      pop\n      dup2\n      mstore\n      0x20\n      add\n      0x02\n      dup3\n      add\n      sload\n      dup2\n      mstore\n      pop\n      pop\n      dup2\n      mstore\n      0x20\n      add\n      swap1\n      0x01\n      add\n      swap1\n      jump(tag_81)\n    tag_82:\n      pop\n      pop\n      pop\n      pop\n      swap1\n      pop\n        /* \"contracts/healthcare/RNNManager.sol\":2191:2324  function getPredictions(string memory userId) public view returns (Prediction[] memory) {... */\n      swap2\n      swap1\n      pop\n      jump\t// out\n    tag_59:\n      mload(0x40)\n      dup1\n      0x60\n      add\n      0x40\n      mstore\n      dup1\n      0x60\n      dup2\n      mstore\n      0x20\n      add\n      0x60\n      dup2\n      mstore\n      0x20\n      add\n      iszero(iszero(0x00))\n      dup2\n      mstore\n      pop\n      swap1\n      jump\t// out\n        /* \"#utility.yul\":7:82   */\n    tag_94:\n        /* \"#utility.yul\":40:46   */\n      0x00\n        /* \"#utility.yul\":73:75   */\n      0x40\n        /* \"#utility.yul\":67:76   */\n      mload\n        /* \"#utility.yul\":57:76   */\n      swap1\n      pop\n        /* \"#utility.yul\":7:82   */\n      swap1\n      jump\t// out\n        /* \"#utility.yul\":88:205   */\n    tag_95:\n        /* \"#utility.yul\":197:198   */\n      0x00\n        /* \"#utility.yul\":194:195   */\n      0x00\n        /* \"#utility.yul\":187:199   */\n      revert\n        /* \"#utility.yul\":211:328   */\n    tag_96:\n        /* \"#utility.yul\":320:321   */\n      0x00\n        /* \"#utility.yul\":317:318   */\n      0x00\n        /* \"#utility.yul\":310:322   */\n      revert\n        /* \"#utility.yul\":334:451   */\n    tag_97:\n        /* \"#utility.yul\":443:444   */\n      0x00\n        /* \"#utility.yul\":440:441   */\n      0x00\n        /* \"#utility.yul\":433:445   */\n      revert\n        /* \"#utility.yul\":457:574   */\n    tag_98:\n        /* \"#utility.yul\":566:567   */\n      0x00\n        /* \"#utility.yul\":563:564   */\n      0x00\n        /* \"#utility.yul\":556:568   */\n      revert\n        /* \"#utility.yul\":580:682   */\n    tag_99:\n        /* \"#utility.yul\":621:627   */\n      0x00\n        /* \"#utility.yul\":672:674   */\n      0x1f\n        /* \"#utility.yul\":668:675   */\n      not\n        /* \"#utility.yul\":663:665   */\n      0x1f\n        /* \"#utility.yul\":656:661   */\n      dup4\n        /* \"#utility.yul\":652:666   */\n      add\n        /* \"#utility.yul\":648:676   */\n      and\n        /* \"#utility.yul\":638:676   */\n      swap1\n      pop\n        /* \"#utility.yul\":580:682   */\n      swap2\n      swap1\n      pop\n      jump\t// out\n        /* \"#utility.yul\":688:868   */\n    tag_100:\n        /* \"#utility.yul\":736:813   */\n      0x4e487b7100000000000000000000000000000000000000000000000000000000\n        /* \"#utility.yul\":733:734   */\n      0x00\n        /* \"#utility.yul\":726:814   */\n      mstore\n        /* \"#utility.yul\":833:837   */\n      0x41\n        /* \"#utility.yul\":830:831   */\n      0x04\n        /* \"#utility.yul\":823:838   */\n      mstore\n        /* \"#utility.yul\":857:861   */\n      0x24\n        /* \"#utility.yul\":854:855   */\n      0x00\n        /* \"#utility.yul\":847:862   */\n      revert\n        /* \"#utility.yul\":874:1155   */\n    tag_101:\n        /* \"#utility.yul\":957:984   */\n      tag_161\n        /* \"#utility.yul\":979:983   */\n      dup3\n        /* \"#utility.yul\":957:984   */\n      tag_99\n      jump\t// in\n    tag_161:\n        /* \"#utility.yul\":949:955   */\n      dup2\n        /* \"#utility.yul\":945:985   */\n      add\n        /* \"#utility.yul\":1087:1093   */\n      dup2\n        /* \"#utility.yul\":1075:1085   */\n      dup2\n        /* \"#utility.yul\":1072:1094   */\n      lt\n        /* \"#utility.yul\":1051:1069   */\n      0xffffffffffffffff\n        /* \"#utility.yul\":1039:1049   */\n      dup3\n        /* \"#utility.yul\":1036:1070   */\n      gt\n        /* \"#utility.yul\":1033:1095   */\n      or\n        /* \"#utility.yul\":1030:1118   */\n      iszero\n      tag_162\n      jumpi\n        /* \"#utility.yul\":1098:1116   */\n      tag_163\n      tag_100\n      jump\t// in\n    tag_163:\n        /* \"#utility.yul\":1030:1118   */\n    tag_162:\n        /* \"#utility.yul\":1138:1148   */\n      dup1\n        /* \"#utility.yul\":1134:1136   */\n      0x40\n        /* \"#utility.yul\":1127:1149   */\n      mstore\n        /* \"#utility.yul\":917:1155   */\n      pop\n        /* \"#utility.yul\":874:1155   */\n      pop\n      pop\n      jump\t// out\n        /* \"#utility.yul\":1161:1290   */\n    tag_102:\n        /* \"#utility.yul\":1195:1201   */\n      0x00\n        /* \"#utility.yul\":1222:1242   */\n      tag_165\n      tag_94\n      jump\t// in\n    tag_165:\n        /* \"#utility.yul\":1212:1242   */\n      swap1\n      pop\n        /* \"#utility.yul\":1251:1284   */\n      tag_166\n        /* \"#utility.yul\":1279:1283   */\n      dup3\n        /* \"#utility.yul\":1271:1277   */\n      dup3\n        /* \"#utility.yul\":1251:1284   */\n      tag_101\n      jump\t// in\n    tag_166:\n        /* \"#utility.yul\":1161:1290   */\n      swap2\n      swap1\n      pop\n      jump\t// out\n        /* \"#utility.yul\":1296:1604   */\n    tag_103:\n        /* \"#utility.yul\":1358:1362   */\n      0x00\n        /* \"#utility.yul\":1448:1466   */\n      0xffffffffffffffff\n        /* \"#utility.yul\":1440:1446   */\n      dup3\n        /* \"#utility.yul\":1437:1467   */\n      gt\n        /* \"#utility.yul\":1434:1490   */\n      iszero\n      tag_168\n      jumpi\n        /* \"#utility.yul\":1470:1488   */\n      tag_169\n      tag_100\n      jump\t// in\n    tag_169:\n        /* \"#utility.yul\":1434:1490   */\n    tag_168:\n        /* \"#utility.yul\":1508:1537   */\n      tag_170\n        /* \"#utility.yul\":1530:1536   */\n      dup3\n        /* \"#utility.yul\":1508:1537   */\n      tag_99\n      jump\t// in\n    tag_170:\n        /* \"#utility.yul\":1500:1537   */\n      swap1\n      pop\n        /* \"#utility.yul\":1592:1596   */\n      0x20\n        /* \"#utility.yul\":1586:1590   */\n      dup2\n        /* \"#utility.yul\":1582:1597   */\n      add\n        /* \"#utility.yul\":1574:1597   */\n      swap1\n      pop\n        /* \"#utility.yul\":1296:1604   */\n      swap2\n      swap1\n      pop\n      jump\t// out\n        /* \"#utility.yul\":1610:1758   */\n    tag_104:\n        /* \"#utility.yul\":1708:1714   */\n      dup3\n        /* \"#utility.yul\":1703:1706   */\n      dup2\n        /* \"#utility.yul\":1698:1701   */\n      dup4\n        /* \"#utility.yul\":1685:1715   */\n      calldatacopy\n        /* \"#utility.yul\":1749:1750   */\n      0x00\n        /* \"#utility.yul\":1740:1746   */\n      dup4\n        /* \"#utility.yul\":1735:1738   */\n      dup4\n        /* \"#utility.yul\":1731:1747   */\n      add\n        /* \"#utility.yul\":1724:1751   */\n      mstore\n        /* \"#utility.yul\":1610:1758   */\n      pop\n      pop\n      pop\n      jump\t// out\n        /* \"#utility.yul\":1764:2189   */\n    tag_105:\n        /* \"#utility.yul\":1842:1847   */\n      0x00\n        /* \"#utility.yul\":1867:1933   */\n      tag_173\n        /* \"#utility.yul\":1883:1932   */\n      tag_174\n        /* \"#utility.yul\":1925:1931   */\n      dup5\n        /* \"#utility.yul\":1883:1932   */\n      tag_103\n      jump\t// in\n    tag_174:\n        /* \"#utility.yul\":1867:1933   */\n      tag_102\n      jump\t// in\n    tag_173:\n        /* \"#utility.yul\":1858:1933   */\n      swap1\n      pop\n        /* \"#utility.yul\":1956:1962   */\n      dup3\n        /* \"#utility.yul\":1949:1954   */\n      dup2\n        /* \"#utility.yul\":1942:1963   */\n      mstore\n        /* \"#utility.yul\":1994:1998   */\n      0x20\n        /* \"#utility.yul\":1987:1992   */\n      dup2\n        /* \"#utility.yul\":1983:1999   */\n      add\n        /* \"#utility.yul\":2032:2035   */\n      dup5\n        /* \"#utility.yul\":2023:2029   */\n      dup5\n        /* \"#utility.yul\":2018:2021   */\n      dup5\n        /* \"#utility.yul\":2014:2030   */\n      add\n        /* \"#utility.yul\":2011:2036   */\n      gt\n        /* \"#utility.yul\":2008:2120   */\n      iszero\n      tag_175\n      jumpi\n        /* \"#utility.yul\":2039:2118   */\n      tag_176\n      tag_98\n      jump\t// in\n    tag_176:\n        /* \"#utility.yul\":2008:2120   */\n    tag_175:\n        /* \"#utility.yul\":2129:2183   */\n      tag_177\n        /* \"#utility.yul\":2176:2182   */\n      dup5\n        /* \"#utility.yul\":2171:2174   */\n      dup3\n        /* \"#utility.yul\":2166:2169   */\n      dup6\n        /* \"#utility.yul\":2129:2183   */\n      tag_104\n      jump\t// in\n    tag_177:\n        /* \"#utility.yul\":1848:2189   */\n      pop\n        /* \"#utility.yul\":1764:2189   */\n      swap4\n      swap3\n      pop\n      pop\n      pop\n      jump\t// out\n        /* \"#utility.yul\":2209:2549   */\n    tag_106:\n        /* \"#utility.yul\":2265:2270   */\n      0x00\n        /* \"#utility.yul\":2314:2317   */\n      dup3\n        /* \"#utility.yul\":2307:2311   */\n      0x1f\n        /* \"#utility.yul\":2299:2305   */\n      dup4\n        /* \"#utility.yul\":2295:2312   */\n      add\n        /* \"#utility.yul\":2291:2318   */\n      slt\n        /* \"#utility.yul\":2281:2403   */\n      tag_179\n      jumpi\n        /* \"#utility.yul\":2322:2401   */\n      tag_180\n      tag_97\n      jump\t// in\n    tag_180:\n        /* \"#utility.yul\":2281:2403   */\n    tag_179:\n        /* \"#utility.yul\":2439:2445   */\n      dup2\n        /* \"#utility.yul\":2426:2446   */\n      calldataload\n        /* \"#utility.yul\":2464:2543   */\n      tag_181\n        /* \"#utility.yul\":2539:2542   */\n      dup5\n        /* \"#utility.yul\":2531:2537   */\n      dup3\n        /* \"#utility.yul\":2524:2528   */\n      0x20\n        /* \"#utility.yul\":2516:2522   */\n      dup7\n        /* \"#utility.yul\":2512:2529   */\n      add\n        /* \"#utility.yul\":2464:2543   */\n      tag_105\n      jump\t// in\n    tag_181:\n        /* \"#utility.yul\":2455:2543   */\n      swap2\n      pop\n        /* \"#utility.yul\":2271:2549   */\n      pop\n        /* \"#utility.yul\":2209:2549   */\n      swap3\n      swap2\n      pop\n      pop\n      jump\t// out\n        /* \"#utility.yul\":2555:3064   */\n    tag_11:\n        /* \"#utility.yul\":2624:2630   */\n      0x00\n        /* \"#utility.yul\":2673:2675   */\n      0x20\n        /* \"#utility.yul\":2661:2670   */\n      dup3\n        /* \"#utility.yul\":2652:2659   */\n      dup5\n        /* \"#utility.yul\":2648:2671   */\n      sub\n        /* \"#utility.yul\":2644:2676   */\n      slt\n        /* \"#utility.yul\":2641:2760   */\n      iszero\n      tag_183\n      jumpi\n        /* \"#utility.yul\":2679:2758   */\n      tag_184\n      tag_95\n      jump\t// in\n    tag_184:\n        /* \"#utility.yul\":2641:2760   */\n    tag_183:\n        /* \"#utility.yul\":2827:2828   */\n      0x00\n        /* \"#utility.yul\":2816:2825   */\n      dup3\n        /* \"#utility.yul\":2812:2829   */\n      add\n        /* \"#utility.yul\":2799:2830   */\n      calldataload\n        /* \"#utility.yul\":2857:2875   */\n      0xffffffffffffffff\n        /* \"#utility.yul\":2849:2855   */\n      dup2\n        /* \"#utility.yul\":2846:2876   */\n      gt\n        /* \"#utility.yul\":2843:2960   */\n      iszero\n      tag_185\n      jumpi\n        /* \"#utility.yul\":2879:2958   */\n      tag_186\n      tag_96\n      jump\t// in\n    tag_186:\n        /* \"#utility.yul\":2843:2960   */\n    tag_185:\n        /* \"#utility.yul\":2984:3047   */\n      tag_187\n        /* \"#utility.yul\":3039:3046   */\n      dup5\n        /* \"#utility.yul\":3030:3036   */\n      dup3\n        /* \"#utility.yul\":3019:3028   */\n      dup6\n        /* \"#utility.yul\":3015:3037   */\n      add\n        /* \"#utility.yul\":2984:3047   */\n      tag_106\n      jump\t// in\n    tag_187:\n        /* \"#utility.yul\":2974:3047   */\n      swap2\n      pop\n        /* \"#utility.yul\":2770:3057   */\n      pop\n        /* \"#utility.yul\":2555:3064   */\n      swap3\n      swap2\n      pop\n      pop\n      jump\t// out\n        /* \"#utility.yul\":3070:3196   */\n    tag_107:\n        /* \"#utility.yul\":3107:3114   */\n      0x00\n        /* \"#utility.yul\":3147:3189   */\n      0xffffffffffffffffffffffffffffffffffffffff\n        /* \"#utility.yul\":3140:3145   */\n      dup3\n        /* \"#utility.yul\":3136:3190   */\n      and\n        /* \"#utility.yul\":3125:3190   */\n      swap1\n      pop\n        /* \"#utility.yul\":3070:3196   */\n      swap2\n      swap1\n      pop\n      jump\t// out\n        /* \"#utility.yul\":3202:3298   */\n    tag_108:\n        /* \"#utility.yul\":3239:3246   */\n      0x00\n        /* \"#utility.yul\":3268:3292   */\n      tag_190\n        /* \"#utility.yul\":3286:3291   */\n      dup3\n        /* \"#utility.yul\":3268:3292   */\n      tag_107\n      jump\t// in\n    tag_190:\n        /* \"#utility.yul\":3257:3292   */\n      swap1\n      pop\n        /* \"#utility.yul\":3202:3298   */\n      swap2\n      swap1\n      pop\n      jump\t// out\n        /* \"#utility.yul\":3304:3422   */\n    tag_109:\n        /* \"#utility.yul\":3391:3415   */\n      tag_192\n        /* \"#utility.yul\":3409:3414   */\n      dup2\n        /* \"#utility.yul\":3391:3415   */\n      tag_108\n      jump\t// in\n    tag_192:\n        /* \"#utility.yul\":3386:3389   */\n      dup3\n        /* \"#utility.yul\":3379:3416   */\n      mstore\n        /* \"#utility.yul\":3304:3422   */\n      pop\n      pop\n      jump\t// out\n        /* \"#utility.yul\":3428:3650   */\n    tag_16:\n        /* \"#utility.yul\":3521:3525   */\n      0x00\n        /* \"#utility.yul\":3559:3561   */\n      0x20\n        /* \"#utility.yul\":3548:3557   */\n      dup3\n        /* \"#utility.yul\":3544:3562   */\n      add\n        /* \"#utility.yul\":3536:3562   */\n      swap1\n      pop\n        /* \"#utility.yul\":3572:3643   */\n      tag_194\n        /* \"#utility.yul\":3640:3641   */\n      0x00\n        /* \"#utility.yul\":3629:3638   */\n      dup4\n        /* \"#utility.yul\":3625:3642   */\n      add\n        /* \"#utility.yul\":3616:3622   */\n      dup5\n        /* \"#utility.yul\":3572:3643   */\n      tag_109\n      jump\t// in\n    tag_194:\n        /* \"#utility.yul\":3428:3650   */\n      swap3\n      swap2\n      pop\n      pop\n      jump\t// out\n        /* \"#utility.yul\":3656:4490   */\n    tag_19:\n        /* \"#utility.yul\":3744:3750   */\n      0x00\n        /* \"#utility.yul\":3752:3758   */\n      0x00\n        /* \"#utility.yul\":3801:3803   */\n      0x40\n        /* \"#utility.yul\":3789:3798   */\n      dup4\n        /* \"#utility.yul\":3780:3787   */\n      dup6\n        /* \"#utility.yul\":3776:3799   */\n      sub\n        /* \"#utility.yul\":3772:3804   */\n      slt\n        /* \"#utility.yul\":3769:3888   */\n      iszero\n      tag_196\n      jumpi\n        /* \"#utility.yul\":3807:3886   */\n      tag_197\n      tag_95\n      jump\t// in\n    tag_197:\n        /* \"#utility.yul\":3769:3888   */\n    tag_196:\n        /* \"#utility.yul\":3955:3956   */\n      0x00\n        /* \"#utility.yul\":3944:3953   */\n      dup4\n        /* \"#utility.yul\":3940:3957   */\n      add\n        /* \"#utility.yul\":3927:3958   */\n      calldataload\n        /* \"#utility.yul\":3985:4003   */\n      0xffffffffffffffff\n        /* \"#utility.yul\":3977:3983   */\n      dup2\n        /* \"#utility.yul\":3974:4004   */\n      gt\n        /* \"#utility.yul\":3971:4088   */\n      iszero\n      tag_198\n      jumpi\n        /* \"#utility.yul\":4007:4086   */\n      tag_199\n      tag_96\n      jump\t// in\n    tag_199:\n        /* \"#utility.yul\":3971:4088   */\n    tag_198:\n        /* \"#utility.yul\":4112:4175   */\n      tag_200\n        /* \"#utility.yul\":4167:4174   */\n      dup6\n        /* \"#utility.yul\":4158:4164   */\n      dup3\n        /* \"#utility.yul\":4147:4156   */\n      dup7\n        /* \"#utility.yul\":4143:4165   */\n      add\n        /* \"#utility.yul\":4112:4175   */\n      tag_106\n      jump\t// in\n    tag_200:\n        /* \"#utility.yul\":4102:4175   */\n      swap3\n      pop\n        /* \"#utility.yul\":3898:4185   */\n      pop\n        /* \"#utility.yul\":4252:4254   */\n      0x20\n        /* \"#utility.yul\":4241:4250   */\n      dup4\n        /* \"#utility.yul\":4237:4255   */\n      add\n        /* \"#utility.yul\":4224:4256   */\n      calldataload\n        /* \"#utility.yul\":4283:4301   */\n      0xffffffffffffffff\n        /* \"#utility.yul\":4275:4281   */\n      dup2\n        /* \"#utility.yul\":4272:4302   */\n      gt\n        /* \"#utility.yul\":4269:4386   */\n      iszero\n      tag_201\n      jumpi\n        /* \"#utility.yul\":4305:4384   */\n      tag_202\n      tag_96\n      jump\t// in\n    tag_202:\n        /* \"#utility.yul\":4269:4386   */\n    tag_201:\n        /* \"#utility.yul\":4410:4473   */\n      tag_203\n        /* \"#utility.yul\":4465:4472   */\n      dup6\n        /* \"#utility.yul\":4456:4462   */\n      dup3\n        /* \"#utility.yul\":4445:4454   */\n      dup7\n        /* \"#utility.yul\":4441:4463   */\n      add\n        /* \"#utility.yul\":4410:4473   */\n      tag_106\n      jump\t// in\n    tag_203:\n        /* \"#utility.yul\":4400:4473   */\n      swap2\n      pop\n        /* \"#utility.yul\":4195:4483   */\n      pop\n        /* \"#utility.yul\":3656:4490   */\n      swap3\n      pop\n      swap3\n      swap1\n      pop\n      jump\t// out\n        /* \"#utility.yul\":4496:4595   */\n    tag_110:\n        /* \"#utility.yul\":4548:4554   */\n      0x00\n        /* \"#utility.yul\":4582:4587   */\n      dup2\n        /* \"#utility.yul\":4576:4588   */\n      mload\n        /* \"#utility.yul\":4566:4588   */\n      swap1\n      pop\n        /* \"#utility.yul\":4496:4595   */\n      swap2\n      swap1\n      pop\n      jump\t// out\n        /* \"#utility.yul\":4601:4760   */\n    tag_111:\n        /* \"#utility.yul\":4675:4686   */\n      0x00\n        /* \"#utility.yul\":4709:4715   */\n      dup3\n        /* \"#utility.yul\":4704:4707   */\n      dup3\n        /* \"#utility.yul\":4697:4716   */\n      mstore\n        /* \"#utility.yul\":4749:4753   */\n      0x20\n        /* \"#utility.yul\":4744:4747   */\n      dup3\n        /* \"#utility.yul\":4740:4754   */\n      add\n        /* \"#utility.yul\":4725:4754   */\n      swap1\n      pop\n        /* \"#utility.yul\":4601:4760   */\n      swap3\n      swap2\n      pop\n      pop\n      jump\t// out\n        /* \"#utility.yul\":4766:4905   */\n    tag_112:\n        /* \"#utility.yul\":4855:4861   */\n      dup3\n        /* \"#utility.yul\":4850:4853   */\n      dup2\n        /* \"#utility.yul\":4845:4848   */\n      dup4\n        /* \"#utility.yul\":4839:4862   */\n      mcopy\n        /* \"#utility.yul\":4896:4897   */\n      0x00\n        /* \"#utility.yul\":4887:4893   */\n      dup4\n        /* \"#utility.yul\":4882:4885   */\n      dup4\n        /* \"#utility.yul\":4878:4894   */\n      add\n        /* \"#utility.yul\":4871:4898   */\n      mstore\n        /* \"#utility.yul\":4766:4905   */\n      pop\n      pop\n      pop\n      jump\t// out\n        /* \"#utility.yul\":4911:5268   */\n    tag_113:\n        /* \"#utility.yul\":4989:4992   */\n      0x00\n        /* \"#utility.yul\":5017:5056   */\n      tag_208\n        /* \"#utility.yul\":5050:5055   */\n      dup3\n        /* \"#utility.yul\":5017:5056   */\n      tag_110\n      jump\t// in\n    tag_208:\n        /* \"#utility.yul\":5072:5133   */\n      tag_209\n        /* \"#utility.yul\":5126:5132   */\n      dup2\n        /* \"#utility.yul\":5121:5124   */\n      dup6\n        /* \"#utility.yul\":5072:5133   */\n      tag_111\n      jump\t// in\n    tag_209:\n        /* \"#utility.yul\":5065:5133   */\n      swap4\n      pop\n        /* \"#utility.yul\":5142:5207   */\n      tag_210\n        /* \"#utility.yul\":5200:5206   */\n      dup2\n        /* \"#utility.yul\":5195:5198   */\n      dup6\n        /* \"#utility.yul\":5188:5192   */\n      0x20\n        /* \"#utility.yul\":5181:5186   */\n      dup7\n        /* \"#utility.yul\":5177:5193   */\n      add\n        /* \"#utility.yul\":5142:5207   */\n      tag_112\n      jump\t// in\n    tag_210:\n        /* \"#utility.yul\":5232:5261   */\n      tag_211\n        /* \"#utility.yul\":5254:5260   */\n      dup2\n        /* \"#utility.yul\":5232:5261   */\n      tag_99\n      jump\t// in\n    tag_211:\n        /* \"#utility.yul\":5227:5230   */\n      dup5\n        /* \"#utility.yul\":5223:5262   */\n      add\n        /* \"#utility.yul\":5216:5262   */\n      swap2\n      pop\n        /* \"#utility.yul\":4993:5268   */\n      pop\n        /* \"#utility.yul\":4911:5268   */\n      swap3\n      swap2\n      pop\n      pop\n      jump\t// out\n        /* \"#utility.yul\":5274:5364   */\n    tag_114:\n        /* \"#utility.yul\":5308:5315   */\n      0x00\n        /* \"#utility.yul\":5351:5356   */\n      dup2\n        /* \"#utility.yul\":5344:5357   */\n      iszero\n        /* \"#utility.yul\":5337:5358   */\n      iszero\n        /* \"#utility.yul\":5326:5358   */\n      swap1\n      pop\n        /* \"#utility.yul\":5274:5364   */\n      swap2\n      swap1\n      pop\n      jump\t// out\n        /* \"#utility.yul\":5370:5469   */\n    tag_115:\n        /* \"#utility.yul\":5441:5462   */\n      tag_214\n        /* \"#utility.yul\":5456:5461   */\n      dup2\n        /* \"#utility.yul\":5441:5462   */\n      tag_114\n      jump\t// in\n    tag_214:\n        /* \"#utility.yul\":5436:5439   */\n      dup3\n        /* \"#utility.yul\":5429:5463   */\n      mstore\n        /* \"#utility.yul\":5370:5469   */\n      pop\n      pop\n      jump\t// out\n        /* \"#utility.yul\":5549:6416   */\n    tag_116:\n        /* \"#utility.yul\":5674:5677   */\n      0x00\n        /* \"#utility.yul\":5710:5714   */\n      0x60\n        /* \"#utility.yul\":5705:5708   */\n      dup4\n        /* \"#utility.yul\":5701:5715   */\n      add\n        /* \"#utility.yul\":5799:5803   */\n      0x00\n        /* \"#utility.yul\":5792:5797   */\n      dup4\n        /* \"#utility.yul\":5788:5804   */\n      add\n        /* \"#utility.yul\":5782:5805   */\n      mload\n        /* \"#utility.yul\":5852:5855   */\n      dup5\n        /* \"#utility.yul\":5846:5850   */\n      dup3\n        /* \"#utility.yul\":5842:5856   */\n      sub\n        /* \"#utility.yul\":5835:5839   */\n      0x00\n        /* \"#utility.yul\":5830:5833   */\n      dup7\n        /* \"#utility.yul\":5826:5840   */\n      add\n        /* \"#utility.yul\":5819:5857   */\n      mstore\n        /* \"#utility.yul\":5878:5951   */\n      tag_216\n        /* \"#utility.yul\":5946:5950   */\n      dup3\n        /* \"#utility.yul\":5932:5944   */\n      dup3\n        /* \"#utility.yul\":5878:5951   */\n      tag_113\n      jump\t// in\n    tag_216:\n        /* \"#utility.yul\":5870:5951   */\n      swap2\n      pop\n        /* \"#utility.yul\":5725:5962   */\n      pop\n        /* \"#utility.yul\":6053:6057   */\n      0x20\n        /* \"#utility.yul\":6046:6051   */\n      dup4\n        /* \"#utility.yul\":6042:6058   */\n      add\n        /* \"#utility.yul\":6036:6059   */\n      mload\n        /* \"#utility.yul\":6106:6109   */\n      dup5\n        /* \"#utility.yul\":6100:6104   */\n      dup3\n        /* \"#utility.yul\":6096:6110   */\n      sub\n        /* \"#utility.yul\":6089:6093   */\n      0x20\n        /* \"#utility.yul\":6084:6087   */\n      dup7\n        /* \"#utility.yul\":6080:6094   */\n      add\n        /* \"#utility.yul\":6073:6111   */\n      mstore\n        /* \"#utility.yul\":6132:6205   */\n      tag_217\n        /* \"#utility.yul\":6200:6204   */\n      dup3\n        /* \"#utility.yul\":6186:6198   */\n      dup3\n        /* \"#utility.yul\":6132:6205   */\n      tag_113\n      jump\t// in\n    tag_217:\n        /* \"#utility.yul\":6124:6205   */\n      swap2\n      pop\n        /* \"#utility.yul\":5972:6216   */\n      pop\n        /* \"#utility.yul\":6303:6307   */\n      0x40\n        /* \"#utility.yul\":6296:6301   */\n      dup4\n        /* \"#utility.yul\":6292:6308   */\n      add\n        /* \"#utility.yul\":6286:6309   */\n      mload\n        /* \"#utility.yul\":6322:6379   */\n      tag_218\n        /* \"#utility.yul\":6373:6377   */\n      0x40\n        /* \"#utility.yul\":6368:6371   */\n      dup7\n        /* \"#utility.yul\":6364:6378   */\n      add\n        /* \"#utility.yul\":6350:6362   */\n      dup3\n        /* \"#utility.yul\":6322:6379   */\n      tag_115\n      jump\t// in\n    tag_218:\n        /* \"#utility.yul\":6226:6389   */\n      pop\n        /* \"#utility.yul\":6406:6410   */\n      dup1\n        /* \"#utility.yul\":6399:6410   */\n      swap2\n      pop\n        /* \"#utility.yul\":5679:6416   */\n      pop\n        /* \"#utility.yul\":5549:6416   */\n      swap3\n      swap2\n      pop\n      pop\n      jump\t// out\n        /* \"#utility.yul\":6422:6807   */\n    tag_25:\n        /* \"#utility.yul\":6571:6575   */\n      0x00\n        /* \"#utility.yul\":6609:6611   */\n      0x20\n        /* \"#utility.yul\":6598:6607   */\n      dup3\n        /* \"#utility.yul\":6594:6612   */\n      add\n        /* \"#utility.yul\":6586:6612   */\n      swap1\n      pop\n        /* \"#utility.yul\":6658:6667   */\n      dup2\n        /* \"#utility.yul\":6652:6656   */\n      dup2\n        /* \"#utility.yul\":6648:6668   */\n      sub\n        /* \"#utility.yul\":6644:6645   */\n      0x00\n        /* \"#utility.yul\":6633:6642   */\n      dup4\n        /* \"#utility.yul\":6629:6646   */\n      add\n        /* \"#utility.yul\":6622:6669   */\n      mstore\n        /* \"#utility.yul\":6686:6800   */\n      tag_220\n        /* \"#utility.yul\":6795:6799   */\n      dup2\n        /* \"#utility.yul\":6786:6792   */\n      dup5\n        /* \"#utility.yul\":6686:6800   */\n      tag_116\n      jump\t// in\n    tag_220:\n        /* \"#utility.yul\":6678:6800   */\n      swap1\n      pop\n        /* \"#utility.yul\":6422:6807   */\n      swap3\n      swap2\n      pop\n      pop\n      jump\t// out\n        /* \"#utility.yul\":6813:6953   */\n    tag_117:\n        /* \"#utility.yul\":6906:6912   */\n      0x00\n        /* \"#utility.yul\":6940:6945   */\n      dup2\n        /* \"#utility.yul\":6934:6946   */\n      mload\n        /* \"#utility.yul\":6924:6946   */\n      swap1\n      pop\n        /* \"#utility.yul\":6813:6953   */\n      swap2\n      swap1\n      pop\n      jump\t// out\n        /* \"#utility.yul\":6959:7169   */\n    tag_118:\n        /* \"#utility.yul\":7084:7095   */\n      0x00\n        /* \"#utility.yul\":7118:7124   */\n      dup3\n        /* \"#utility.yul\":7113:7116   */\n      dup3\n        /* \"#utility.yul\":7106:7125   */\n      mstore\n        /* \"#utility.yul\":7158:7162   */\n      0x20\n        /* \"#utility.yul\":7153:7156   */\n      dup3\n        /* \"#utility.yul\":7149:7163   */\n      add\n        /* \"#utility.yul\":7134:7163   */\n      swap1\n      pop\n        /* \"#utility.yul\":6959:7169   */\n      swap3\n      swap2\n      pop\n      pop\n      jump\t// out\n        /* \"#utility.yul\":7175:7333   */\n    tag_119:\n        /* \"#utility.yul\":7268:7272   */\n      0x00\n        /* \"#utility.yul\":7291:7294   */\n      dup2\n        /* \"#utility.yul\":7283:7294   */\n      swap1\n      pop\n        /* \"#utility.yul\":7321:7325   */\n      0x20\n        /* \"#utility.yul\":7316:7319   */\n      dup3\n        /* \"#utility.yul\":7312:7326   */\n      add\n        /* \"#utility.yul\":7304:7326   */\n      swap1\n      pop\n        /* \"#utility.yul\":7175:7333   */\n      swap2\n      swap1\n      pop\n      jump\t// out\n        /* \"#utility.yul\":7339:7416   */\n    tag_120:\n        /* \"#utility.yul\":7376:7383   */\n      0x00\n        /* \"#utility.yul\":7405:7410   */\n      dup2\n        /* \"#utility.yul\":7394:7410   */\n      swap1\n      pop\n        /* \"#utility.yul\":7339:7416   */\n      swap2\n      swap1\n      pop\n      jump\t// out\n        /* \"#utility.yul\":7422:7530   */\n    tag_121:\n        /* \"#utility.yul\":7499:7523   */\n      tag_226\n        /* \"#utility.yul\":7517:7522   */\n      dup2\n        /* \"#utility.yul\":7499:7523   */\n      tag_120\n      jump\t// in\n    tag_226:\n        /* \"#utility.yul\":7494:7497   */\n      dup3\n        /* \"#utility.yul\":7487:7524   */\n      mstore\n        /* \"#utility.yul\":7422:7530   */\n      pop\n      pop\n      jump\t// out\n        /* \"#utility.yul\":7604:8456   */\n    tag_122:\n        /* \"#utility.yul\":7715:7718   */\n      0x00\n        /* \"#utility.yul\":7751:7755   */\n      0x60\n        /* \"#utility.yul\":7746:7749   */\n      dup4\n        /* \"#utility.yul\":7742:7756   */\n      add\n        /* \"#utility.yul\":7840:7844   */\n      0x00\n        /* \"#utility.yul\":7833:7838   */\n      dup4\n        /* \"#utility.yul\":7829:7845   */\n      add\n        /* \"#utility.yul\":7823:7846   */\n      mload\n        /* \"#utility.yul\":7893:7896   */\n      dup5\n        /* \"#utility.yul\":7887:7891   */\n      dup3\n        /* \"#utility.yul\":7883:7897   */\n      sub\n        /* \"#utility.yul\":7876:7880   */\n      0x00\n        /* \"#utility.yul\":7871:7874   */\n      dup7\n        /* \"#utility.yul\":7867:7881   */\n      add\n        /* \"#utility.yul\":7860:7898   */\n      mstore\n        /* \"#utility.yul\":7919:7992   */\n      tag_228\n        /* \"#utility.yul\":7987:7991   */\n      dup3\n        /* \"#utility.yul\":7973:7985   */\n      dup3\n        /* \"#utility.yul\":7919:7992   */\n      tag_113\n      jump\t// in\n    tag_228:\n        /* \"#utility.yul\":7911:7992   */\n      swap2\n      pop\n        /* \"#utility.yul\":7766:8003   */\n      pop\n        /* \"#utility.yul\":8087:8091   */\n      0x20\n        /* \"#utility.yul\":8080:8085   */\n      dup4\n        /* \"#utility.yul\":8076:8092   */\n      add\n        /* \"#utility.yul\":8070:8093   */\n      mload\n        /* \"#utility.yul\":8140:8143   */\n      dup5\n        /* \"#utility.yul\":8134:8138   */\n      dup3\n        /* \"#utility.yul\":8130:8144   */\n      sub\n        /* \"#utility.yul\":8123:8127   */\n      0x20\n        /* \"#utility.yul\":8118:8121   */\n      dup7\n        /* \"#utility.yul\":8114:8128   */\n      add\n        /* \"#utility.yul\":8107:8145   */\n      mstore\n        /* \"#utility.yul\":8166:8239   */\n      tag_229\n        /* \"#utility.yul\":8234:8238   */\n      dup3\n        /* \"#utility.yul\":8220:8232   */\n      dup3\n        /* \"#utility.yul\":8166:8239   */\n      tag_113\n      jump\t// in\n    tag_229:\n        /* \"#utility.yul\":8158:8239   */\n      swap2\n      pop\n        /* \"#utility.yul\":8013:8250   */\n      pop\n        /* \"#utility.yul\":8337:8341   */\n      0x40\n        /* \"#utility.yul\":8330:8335   */\n      dup4\n        /* \"#utility.yul\":8326:8342   */\n      add\n        /* \"#utility.yul\":8320:8343   */\n      mload\n        /* \"#utility.yul\":8356:8419   */\n      tag_230\n        /* \"#utility.yul\":8413:8417   */\n      0x40\n        /* \"#utility.yul\":8408:8411   */\n      dup7\n        /* \"#utility.yul\":8404:8418   */\n      add\n        /* \"#utility.yul\":8390:8402   */\n      dup3\n        /* \"#utility.yul\":8356:8419   */\n      tag_121\n      jump\t// in\n    tag_230:\n        /* \"#utility.yul\":8260:8429   */\n      pop\n        /* \"#utility.yul\":8446:8450   */\n      dup1\n        /* \"#utility.yul\":8439:8450   */\n      swap2\n      pop\n        /* \"#utility.yul\":7720:8456   */\n      pop\n        /* \"#utility.yul\":7604:8456   */\n      swap3\n      swap2\n      pop\n      pop\n      jump\t// out\n        /* \"#utility.yul\":8462:8722   */\n    tag_123:\n        /* \"#utility.yul\":8583:8593   */\n      0x00\n        /* \"#utility.yul\":8618:8716   */\n      tag_232\n        /* \"#utility.yul\":8712:8715   */\n      dup4\n        /* \"#utility.yul\":8704:8710   */\n      dup4\n        /* \"#utility.yul\":8618:8716   */\n      tag_122\n      jump\t// in\n    tag_232:\n        /* \"#utility.yul\":8604:8716   */\n      swap1\n      pop\n        /* \"#utility.yul\":8462:8722   */\n      swap3\n      swap2\n      pop\n      pop\n      jump\t// out\n        /* \"#utility.yul\":8728:8867   */\n    tag_124:\n        /* \"#utility.yul\":8824:8828   */\n      0x00\n        /* \"#utility.yul\":8856:8860   */\n      0x20\n        /* \"#utility.yul\":8851:8854   */\n      dup3\n        /* \"#utility.yul\":8847:8861   */\n      add\n        /* \"#utility.yul\":8839:8861   */\n      swap1\n      pop\n        /* \"#utility.yul\":8728:8867   */\n      swap2\n      swap1\n      pop\n      jump\t// out\n        /* \"#utility.yul\":8945:10064   */\n    tag_125:\n        /* \"#utility.yul\":9116:9119   */\n      0x00\n        /* \"#utility.yul\":9145:9225   */\n      tag_235\n        /* \"#utility.yul\":9219:9224   */\n      dup3\n        /* \"#utility.yul\":9145:9225   */\n      tag_117\n      jump\t// in\n    tag_235:\n        /* \"#utility.yul\":9241:9353   */\n      tag_236\n        /* \"#utility.yul\":9346:9352   */\n      dup2\n        /* \"#utility.yul\":9341:9344   */\n      dup6\n        /* \"#utility.yul\":9241:9353   */\n      tag_118\n      jump\t// in\n    tag_236:\n        /* \"#utility.yul\":9234:9353   */\n      swap4\n      pop\n        /* \"#utility.yul\":9379:9382   */\n      dup4\n        /* \"#utility.yul\":9424:9428   */\n      0x20\n        /* \"#utility.yul\":9416:9422   */\n      dup3\n        /* \"#utility.yul\":9412:9429   */\n      mul\n        /* \"#utility.yul\":9407:9410   */\n      dup6\n        /* \"#utility.yul\":9403:9430   */\n      add\n        /* \"#utility.yul\":9454:9536   */\n      tag_237\n        /* \"#utility.yul\":9530:9535   */\n      dup6\n        /* \"#utility.yul\":9454:9536   */\n      tag_119\n      jump\t// in\n    tag_237:\n        /* \"#utility.yul\":9559:9566   */\n      dup1\n        /* \"#utility.yul\":9590:9591   */\n      0x00\n        /* \"#utility.yul\":9575:10019   */\n    tag_238:\n        /* \"#utility.yul\":9600:9606   */\n      dup6\n        /* \"#utility.yul\":9597:9598   */\n      dup2\n        /* \"#utility.yul\":9594:9607   */\n      lt\n        /* \"#utility.yul\":9575:10019   */\n      iszero\n      tag_240\n      jumpi\n        /* \"#utility.yul\":9671:9680   */\n      dup5\n        /* \"#utility.yul\":9665:9669   */\n      dup5\n        /* \"#utility.yul\":9661:9681   */\n      sub\n        /* \"#utility.yul\":9656:9659   */\n      dup10\n        /* \"#utility.yul\":9649:9682   */\n      mstore\n        /* \"#utility.yul\":9722:9728   */\n      dup2\n        /* \"#utility.yul\":9716:9729   */\n      mload\n        /* \"#utility.yul\":9750:9866   */\n      tag_241\n        /* \"#utility.yul\":9861:9865   */\n      dup6\n        /* \"#utility.yul\":9846:9859   */\n      dup3\n        /* \"#utility.yul\":9750:9866   */\n      tag_123\n      jump\t// in\n    tag_241:\n        /* \"#utility.yul\":9742:9866   */\n      swap5\n      pop\n        /* \"#utility.yul\":9889:9975   */\n      tag_242\n        /* \"#utility.yul\":9968:9974   */\n      dup4\n        /* \"#utility.yul\":9889:9975   */\n      tag_124\n      jump\t// in\n    tag_242:\n        /* \"#utility.yul\":9879:9975   */\n      swap3\n      pop\n        /* \"#utility.yul\":10004:10008   */\n      0x20\n        /* \"#utility.yul\":9999:10002   */\n      dup11\n        /* \"#utility.yul\":9995:10009   */\n      add\n        /* \"#utility.yul\":9988:10009   */\n      swap10\n      pop\n        /* \"#utility.yul\":9635:10019   */\n      pop\n        /* \"#utility.yul\":9622:9623   */\n      0x01\n        /* \"#utility.yul\":9619:9620   */\n      dup2\n        /* \"#utility.yul\":9615:9624   */\n      add\n        /* \"#utility.yul\":9610:9624   */\n      swap1\n      pop\n        /* \"#utility.yul\":9575:10019   */\n      jump(tag_238)\n    tag_240:\n        /* \"#utility.yul\":9579:9593   */\n      pop\n        /* \"#utility.yul\":10035:10039   */\n      dup3\n        /* \"#utility.yul\":10028:10039   */\n      swap8\n      pop\n        /* \"#utility.yul\":10055:10058   */\n      dup8\n        /* \"#utility.yul\":10048:10058   */\n      swap6\n      pop\n        /* \"#utility.yul\":9121:10064   */\n      pop\n      pop\n      pop\n      pop\n      pop\n        /* \"#utility.yul\":8945:10064   */\n      swap3\n      swap2\n      pop\n      pop\n      jump\t// out\n        /* \"#utility.yul\":10070:10547   */\n    tag_33:\n        /* \"#utility.yul\":10265:10269   */\n      0x00\n        /* \"#utility.yul\":10303:10305   */\n      0x20\n        /* \"#utility.yul\":10292:10301   */\n      dup3\n        /* \"#utility.yul\":10288:10306   */\n      add\n        /* \"#utility.yul\":10280:10306   */\n      swap1\n      pop\n        /* \"#utility.yul\":10352:10361   */\n      dup2\n        /* \"#utility.yul\":10346:10350   */\n      dup2\n        /* \"#utility.yul\":10342:10362   */\n      sub\n        /* \"#utility.yul\":10338:10339   */\n      0x00\n        /* \"#utility.yul\":10327:10336   */\n      dup4\n        /* \"#utility.yul\":10323:10340   */\n      add\n        /* \"#utility.yul\":10316:10363   */\n      mstore\n        /* \"#utility.yul\":10380:10540   */\n      tag_244\n        /* \"#utility.yul\":10535:10539   */\n      dup2\n        /* \"#utility.yul\":10526:10532   */\n      dup5\n        /* \"#utility.yul\":10380:10540   */\n      tag_125\n      jump\t// in\n    tag_244:\n        /* \"#utility.yul\":10372:10540   */\n      swap1\n      pop\n        /* \"#utility.yul\":10070:10547   */\n      swap3\n      swap2\n      pop\n      pop\n      jump\t// out\n        /* \"#utility.yul\":10553:10722   */\n    tag_126:\n        /* \"#utility.yul\":10637:10648   */\n      0x00\n        /* \"#utility.yul\":10671:10677   */\n      dup3\n        /* \"#utility.yul\":10666:10669   */\n      dup3\n        /* \"#utility.yul\":10659:10678   */\n      mstore\n        /* \"#utility.yul\":10711:10715   */\n      0x20\n        /* \"#utility.yul\":10706:10709   */\n      dup3\n        /* \"#utility.yul\":10702:10716   */\n      add\n        /* \"#utility.yul\":10687:10716   */\n      swap1\n      pop\n        /* \"#utility.yul\":10553:10722   */\n      swap3\n      swap2\n      pop\n      pop\n      jump\t// out\n        /* \"#utility.yul\":10728:10963   */\n    tag_127:\n        /* \"#utility.yul\":10868:10902   */\n      0x4f6e6c7920617574686f72697a656420524e4e206e6f64652063616e20706572\n        /* \"#utility.yul\":10864:10865   */\n      0x00\n        /* \"#utility.yul\":10856:10862   */\n      dup3\n        /* \"#utility.yul\":10852:10866   */\n      add\n        /* \"#utility.yul\":10845:10903   */\n      mstore\n        /* \"#utility.yul\":10937:10955   */\n      0x666f726d207468697320616374696f6e00000000000000000000000000000000\n        /* \"#utility.yul\":10932:10934   */\n      0x20\n        /* \"#utility.yul\":10924:10930   */\n      dup3\n        /* \"#utility.yul\":10920:10935   */\n      add\n        /* \"#utility.yul\":10913:10956   */\n      mstore\n        /* \"#utility.yul\":10728:10963   */\n      pop\n      jump\t// out\n        /* \"#utility.yul\":10969:11335   */\n    tag_128:\n        /* \"#utility.yul\":11111:11114   */\n      0x00\n        /* \"#utility.yul\":11132:11199   */\n      tag_248\n        /* \"#utility.yul\":11196:11198   */\n      0x30\n        /* \"#utility.yul\":11191:11194   */\n      dup4\n        /* \"#utility.yul\":11132:11199   */\n      tag_126\n      jump\t// in\n    tag_248:\n        /* \"#utility.yul\":11125:11199   */\n      swap2\n      pop\n        /* \"#utility.yul\":11208:11301   */\n      tag_249\n        /* \"#utility.yul\":11297:11300   */\n      dup3\n        /* \"#utility.yul\":11208:11301   */\n      tag_127\n      jump\t// in\n    tag_249:\n        /* \"#utility.yul\":11326:11328   */\n      0x40\n        /* \"#utility.yul\":11321:11324   */\n      dup3\n        /* \"#utility.yul\":11317:11329   */\n      add\n        /* \"#utility.yul\":11310:11329   */\n      swap1\n      pop\n        /* \"#utility.yul\":10969:11335   */\n      swap2\n      swap1\n      pop\n      jump\t// out\n        /* \"#utility.yul\":11341:11760   */\n    tag_37:\n        /* \"#utility.yul\":11507:11511   */\n      0x00\n        /* \"#utility.yul\":11545:11547   */\n      0x20\n        /* \"#utility.yul\":11534:11543   */\n      dup3\n        /* \"#utility.yul\":11530:11548   */\n      add\n        /* \"#utility.yul\":11522:11548   */\n      swap1\n      pop\n        /* \"#utility.yul\":11594:11603   */\n      dup2\n        /* \"#utility.yul\":11588:11592   */\n      dup2\n        /* \"#utility.yul\":11584:11604   */\n      sub\n        /* \"#utility.yul\":11580:11581   */\n      0x00\n        /* \"#utility.yul\":11569:11578   */\n      dup4\n        /* \"#utility.yul\":11565:11582   */\n      add\n        /* \"#utility.yul\":11558:11605   */\n      mstore\n        /* \"#utility.yul\":11622:11753   */\n      tag_251\n        /* \"#utility.yul\":11748:11752   */\n      dup2\n        /* \"#utility.yul\":11622:11753   */\n      tag_128\n      jump\t// in\n    tag_251:\n        /* \"#utility.yul\":11614:11753   */\n      swap1\n      pop\n        /* \"#utility.yul\":11341:11760   */\n      swap2\n      swap1\n      pop\n      jump\t// out\n        /* \"#utility.yul\":11766:11914   */\n    tag_129:\n        /* \"#utility.yul\":11868:11879   */\n      0x00\n        /* \"#utility.yul\":11905:11908   */\n      dup2\n        /* \"#utility.yul\":11890:11908   */\n      swap1\n      pop\n        /* \"#utility.yul\":11766:11914   */\n      swap3\n      swap2\n      pop\n      pop\n      jump\t// out\n        /* \"#utility.yul\":11920:12310   */\n    tag_130:\n        /* \"#utility.yul\":12026:12029   */\n      0x00\n        /* \"#utility.yul\":12054:12093   */\n      tag_254\n        /* \"#utility.yul\":12087:12092   */\n      dup3\n        /* \"#utility.yul\":12054:12093   */\n      tag_110\n      jump\t// in\n    tag_254:\n        /* \"#utility.yul\":12109:12198   */\n      tag_255\n        /* \"#utility.yul\":12191:12197   */\n      dup2\n        /* \"#utility.yul\":12186:12189   */\n      dup6\n        /* \"#utility.yul\":12109:12198   */\n      tag_129\n      jump\t// in\n    tag_255:\n        /* \"#utility.yul\":12102:12198   */\n      swap4\n      pop\n        /* \"#utility.yul\":12207:12272   */\n      tag_256\n        /* \"#utility.yul\":12265:12271   */\n      dup2\n        /* \"#utility.yul\":12260:12263   */\n      dup6\n        /* \"#utility.yul\":12253:12257   */\n      0x20\n        /* \"#utility.yul\":12246:12251   */\n      dup7\n        /* \"#utility.yul\":12242:12258   */\n      add\n        /* \"#utility.yul\":12207:12272   */\n      tag_112\n      jump\t// in\n    tag_256:\n        /* \"#utility.yul\":12297:12303   */\n      dup1\n        /* \"#utility.yul\":12292:12295   */\n      dup5\n        /* \"#utility.yul\":12288:12304   */\n      add\n        /* \"#utility.yul\":12281:12304   */\n      swap2\n      pop\n        /* \"#utility.yul\":12030:12310   */\n      pop\n        /* \"#utility.yul\":11920:12310   */\n      swap3\n      swap2\n      pop\n      pop\n      jump\t// out\n        /* \"#utility.yul\":12316:12591   */\n    tag_40:\n        /* \"#utility.yul\":12448:12451   */\n      0x00\n        /* \"#utility.yul\":12470:12565   */\n      tag_258\n        /* \"#utility.yul\":12561:12564   */\n      dup3\n        /* \"#utility.yul\":12552:12558   */\n      dup5\n        /* \"#utility.yul\":12470:12565   */\n      tag_130\n      jump\t// in\n    tag_258:\n        /* \"#utility.yul\":12463:12565   */\n      swap2\n      pop\n        /* \"#utility.yul\":12582:12585   */\n      dup2\n        /* \"#utility.yul\":12575:12585   */\n      swap1\n      pop\n        /* \"#utility.yul\":12316:12591   */\n      swap3\n      swap2\n      pop\n      pop\n      jump\t// out\n        /* \"#utility.yul\":12597:12767   */\n    tag_131:\n        /* \"#utility.yul\":12737:12759   */\n      0x4461746120616c726561647920747261696e6564000000000000000000000000\n        /* \"#utility.yul\":12733:12734   */\n      0x00\n        /* \"#utility.yul\":12725:12731   */\n      dup3\n        /* \"#utility.yul\":12721:12735   */\n      add\n        /* \"#utility.yul\":12714:12760   */\n      mstore\n        /* \"#utility.yul\":12597:12767   */\n      pop\n      jump\t// out\n        /* \"#utility.yul\":12773:13139   */\n    tag_132:\n        /* \"#utility.yul\":12915:12918   */\n      0x00\n        /* \"#utility.yul\":12936:13003   */\n      tag_261\n        /* \"#utility.yul\":13000:13002   */\n      0x14\n        /* \"#utility.yul\":12995:12998   */\n      dup4\n        /* \"#utility.yul\":12936:13003   */\n      tag_126\n      jump\t// in\n    tag_261:\n        /* \"#utility.yul\":12929:13003   */\n      swap2\n      pop\n        /* \"#utility.yul\":13012:13105   */\n      tag_262\n        /* \"#utility.yul\":13101:13104   */\n      dup3\n        /* \"#utility.yul\":13012:13105   */\n      tag_131\n      jump\t// in\n    tag_262:\n        /* \"#utility.yul\":13130:13132   */\n      0x20\n        /* \"#utility.yul\":13125:13128   */\n      dup3\n        /* \"#utility.yul\":13121:13133   */\n      add\n        /* \"#utility.yul\":13114:13133   */\n      swap1\n      pop\n        /* \"#utility.yul\":12773:13139   */\n      swap2\n      swap1\n      pop\n      jump\t// out\n        /* \"#utility.yul\":13145:13564   */\n    tag_43:\n        /* \"#utility.yul\":13311:13315   */\n      0x00\n        /* \"#utility.yul\":13349:13351   */\n      0x20\n        /* \"#utility.yul\":13338:13347   */\n      dup3\n        /* \"#utility.yul\":13334:13352   */\n      add\n        /* \"#utility.yul\":13326:13352   */\n      swap1\n      pop\n        /* \"#utility.yul\":13398:13407   */\n      dup2\n        /* \"#utility.yul\":13392:13396   */\n      dup2\n        /* \"#utility.yul\":13388:13408   */\n      sub\n        /* \"#utility.yul\":13384:13385   */\n      0x00\n        /* \"#utility.yul\":13373:13382   */\n      dup4\n        /* \"#utility.yul\":13369:13386   */\n      add\n        /* \"#utility.yul\":13362:13409   */\n      mstore\n        /* \"#utility.yul\":13426:13557   */\n      tag_264\n        /* \"#utility.yul\":13552:13556   */\n      dup2\n        /* \"#utility.yul\":13426:13557   */\n      tag_132\n      jump\t// in\n    tag_264:\n        /* \"#utility.yul\":13418:13557   */\n      swap1\n      pop\n        /* \"#utility.yul\":13145:13564   */\n      swap2\n      swap1\n      pop\n      jump\t// out\n        /* \"#utility.yul\":13570:13947   */\n    tag_133:\n        /* \"#utility.yul\":13658:13661   */\n      0x00\n        /* \"#utility.yul\":13686:13725   */\n      tag_266\n        /* \"#utility.yul\":13719:13724   */\n      dup3\n        /* \"#utility.yul\":13686:13725   */\n      tag_110\n      jump\t// in\n    tag_266:\n        /* \"#utility.yul\":13741:13812   */\n      tag_267\n        /* \"#utility.yul\":13805:13811   */\n      dup2\n        /* \"#utility.yul\":13800:13803   */\n      dup6\n        /* \"#utility.yul\":13741:13812   */\n      tag_126\n      jump\t// in\n    tag_267:\n        /* \"#utility.yul\":13734:13812   */\n      swap4\n      pop\n        /* \"#utility.yul\":13821:13886   */\n      tag_268\n        /* \"#utility.yul\":13879:13885   */\n      dup2\n        /* \"#utility.yul\":13874:13877   */\n      dup6\n        /* \"#utility.yul\":13867:13871   */\n      0x20\n        /* \"#utility.yul\":13860:13865   */\n      dup7\n        /* \"#utility.yul\":13856:13872   */\n      add\n        /* \"#utility.yul\":13821:13886   */\n      tag_112\n      jump\t// in\n    tag_268:\n        /* \"#utility.yul\":13911:13940   */\n      tag_269\n        /* \"#utility.yul\":13933:13939   */\n      dup2\n        /* \"#utility.yul\":13911:13940   */\n      tag_99\n      jump\t// in\n    tag_269:\n        /* \"#utility.yul\":13906:13909   */\n      dup5\n        /* \"#utility.yul\":13902:13941   */\n      add\n        /* \"#utility.yul\":13895:13941   */\n      swap2\n      pop\n        /* \"#utility.yul\":13662:13947   */\n      pop\n        /* \"#utility.yul\":13570:13947   */\n      swap3\n      swap2\n      pop\n      pop\n      jump\t// out\n        /* \"#utility.yul\":13953:14266   */\n    tag_46:\n        /* \"#utility.yul\":14066:14070   */\n      0x00\n        /* \"#utility.yul\":14104:14106   */\n      0x20\n        /* \"#utility.yul\":14093:14102   */\n      dup3\n        /* \"#utility.yul\":14089:14107   */\n      add\n        /* \"#utility.yul\":14081:14107   */\n      swap1\n      pop\n        /* \"#utility.yul\":14153:14162   */\n      dup2\n        /* \"#utility.yul\":14147:14151   */\n      dup2\n        /* \"#utility.yul\":14143:14163   */\n      sub\n        /* \"#utility.yul\":14139:14140   */\n      0x00\n        /* \"#utility.yul\":14128:14137   */\n      dup4\n        /* \"#utility.yul\":14124:14141   */\n      add\n        /* \"#utility.yul\":14117:14164   */\n      mstore\n        /* \"#utility.yul\":14181:14259   */\n      tag_271\n        /* \"#utility.yul\":14254:14258   */\n      dup2\n        /* \"#utility.yul\":14245:14251   */\n      dup5\n        /* \"#utility.yul\":14181:14259   */\n      tag_133\n      jump\t// in\n    tag_271:\n        /* \"#utility.yul\":14173:14259   */\n      swap1\n      pop\n        /* \"#utility.yul\":13953:14266   */\n      swap3\n      swap2\n      pop\n      pop\n      jump\t// out\n        /* \"#utility.yul\":14272:14452   */\n    tag_134:\n        /* \"#utility.yul\":14320:14397   */\n      0x4e487b7100000000000000000000000000000000000000000000000000000000\n        /* \"#utility.yul\":14317:14318   */\n      0x00\n        /* \"#utility.yul\":14310:14398   */\n      mstore\n        /* \"#utility.yul\":14417:14421   */\n      0x22\n        /* \"#utility.yul\":14414:14415   */\n      0x04\n        /* \"#utility.yul\":14407:14422   */\n      mstore\n        /* \"#utility.yul\":14441:14445   */\n      0x24\n        /* \"#utility.yul\":14438:14439   */\n      0x00\n        /* \"#utility.yul\":14431:14446   */\n      revert\n        /* \"#utility.yul\":14458:14778   */\n    tag_63:\n        /* \"#utility.yul\":14502:14508   */\n      0x00\n        /* \"#utility.yul\":14539:14540   */\n      0x02\n        /* \"#utility.yul\":14533:14537   */\n      dup3\n        /* \"#utility.yul\":14529:14541   */\n      div\n        /* \"#utility.yul\":14519:14541   */\n      swap1\n      pop\n        /* \"#utility.yul\":14586:14587   */\n      0x01\n        /* \"#utility.yul\":14580:14584   */\n      dup3\n        /* \"#utility.yul\":14576:14588   */\n      and\n        /* \"#utility.yul\":14607:14625   */\n      dup1\n        /* \"#utility.yul\":14597:14678   */\n      tag_274\n      jumpi\n        /* \"#utility.yul\":14663:14667   */\n      0x7f\n        /* \"#utility.yul\":14655:14661   */\n      dup3\n        /* \"#utility.yul\":14651:14668   */\n      and\n        /* \"#utility.yul\":14641:14668   */\n      swap2\n      pop\n        /* \"#utility.yul\":14597:14678   */\n    tag_274:\n        /* \"#utility.yul\":14725:14727   */\n      0x20\n        /* \"#utility.yul\":14717:14723   */\n      dup3\n        /* \"#utility.yul\":14714:14728   */\n      lt\n        /* \"#utility.yul\":14694:14712   */\n      dup2\n        /* \"#utility.yul\":14691:14729   */\n      sub\n        /* \"#utility.yul\":14688:14772   */\n      tag_275\n      jumpi\n        /* \"#utility.yul\":14744:14762   */\n      tag_276\n      tag_134\n      jump\t// in\n    tag_276:\n        /* \"#utility.yul\":14688:14772   */\n    tag_275:\n        /* \"#utility.yul\":14509:14778   */\n      pop\n        /* \"#utility.yul\":14458:14778   */\n      swap2\n      swap1\n      pop\n      jump\t// out\n        /* \"#utility.yul\":14784:14925   */\n    tag_135:\n        /* \"#utility.yul\":14833:14837   */\n      0x00\n        /* \"#utility.yul\":14856:14859   */\n      dup2\n        /* \"#utility.yul\":14848:14859   */\n      swap1\n      pop\n        /* \"#utility.yul\":14879:14882   */\n      dup2\n        /* \"#utility.yul\":14876:14877   */\n      0x00\n        /* \"#utility.yul\":14869:14883   */\n      mstore\n        /* \"#utility.yul\":14913:14917   */\n      0x20\n        /* \"#utility.yul\":14910:14911   */\n      0x00\n        /* \"#utility.yul\":14900:14918   */\n      keccak256\n        /* \"#utility.yul\":14892:14918   */\n      swap1\n      pop\n        /* \"#utility.yul\":14784:14925   */\n      swap2\n      swap1\n      pop\n      jump\t// out\n        /* \"#utility.yul\":14931:15024   */\n    tag_136:\n        /* \"#utility.yul\":14968:14974   */\n      0x00\n        /* \"#utility.yul\":15015:15017   */\n      0x20\n        /* \"#utility.yul\":15010:15012   */\n      0x1f\n        /* \"#utility.yul\":15003:15008   */\n      dup4\n        /* \"#utility.yul\":14999:15013   */\n      add\n        /* \"#utility.yul\":14995:15018   */\n      div\n        /* \"#utility.yul\":14985:15018   */\n      swap1\n      pop\n        /* \"#utility.yul\":14931:15024   */\n      swap2\n      swap1\n      pop\n      jump\t// out\n        /* \"#utility.yul\":15030:15137   */\n    tag_137:\n        /* \"#utility.yul\":15074:15082   */\n      0x00\n        /* \"#utility.yul\":15124:15129   */\n      dup3\n        /* \"#utility.yul\":15118:15122   */\n      dup3\n        /* \"#utility.yul\":15114:15130   */\n      shl\n        /* \"#utility.yul\":15093:15130   */\n      swap1\n      pop\n        /* \"#utility.yul\":15030:15137   */\n      swap3\n      swap2\n      pop\n      pop\n      jump\t// out\n        /* \"#utility.yul\":15143:15536   */\n    tag_138:\n        /* \"#utility.yul\":15212:15218   */\n      0x00\n        /* \"#utility.yul\":15262:15263   */\n      0x08\n        /* \"#utility.yul\":15250:15260   */\n      dup4\n        /* \"#utility.yul\":15246:15264   */\n      mul\n        /* \"#utility.yul\":15285:15382   */\n      tag_281\n        /* \"#utility.yul\":15315:15381   */\n      0xffffffffffffffffffffffffffffffffffffffffffffffffffffffffffffffff\n        /* \"#utility.yul\":15304:15313   */\n      dup3\n        /* \"#utility.yul\":15285:15382   */\n      tag_137\n      jump\t// in\n    tag_281:\n        /* \"#utility.yul\":15403:15442   */\n      tag_282\n        /* \"#utility.yul\":15433:15441   */\n      dup7\n        /* \"#utility.yul\":15422:15431   */\n      dup4\n        /* \"#utility.yul\":15403:15442   */\n      tag_137\n      jump\t// in\n    tag_282:\n        /* \"#utility.yul\":15391:15442   */\n      swap6\n      pop\n        /* \"#utility.yul\":15475:15479   */\n      dup1\n        /* \"#utility.yul\":15471:15480   */\n      not\n        /* \"#utility.yul\":15464:15469   */\n      dup5\n        /* \"#utility.yul\":15460:15481   */\n      and\n        /* \"#utility.yul\":15451:15481   */\n      swap4\n      pop\n        /* \"#utility.yul\":15524:15528   */\n      dup1\n        /* \"#utility.yul\":15514:15522   */\n      dup7\n        /* \"#utility.yul\":15510:15529   */\n      and\n        /* \"#utility.yul\":15503:15508   */\n      dup5\n        /* \"#utility.yul\":15500:15530   */\n      or\n        /* \"#utility.yul\":15490:15530   */\n      swap3\n      pop\n        /* \"#utility.yul\":15219:15536   */\n      pop\n      pop\n        /* \"#utility.yul\":15143:15536   */\n      swap4\n      swap3\n      pop\n      pop\n      pop\n      jump\t// out\n        /* \"#utility.yul\":15542:15602   */\n    tag_139:\n        /* \"#utility.yul\":15570:15573   */\n      0x00\n        /* \"#utility.yul\":15591:15596   */\n      dup2\n        /* \"#utility.yul\":15584:15596   */\n      swap1\n      pop\n        /* \"#utility.yul\":15542:15602   */\n      swap2\n      swap1\n      pop\n      jump\t// out\n        /* \"#utility.yul\":15608:15750   */\n    tag_140:\n        /* \"#utility.yul\":15658:15667   */\n      0x00\n        /* \"#utility.yul\":15691:15744   */\n      tag_285\n        /* \"#utility.yul\":15709:15743   */\n      tag_286\n        /* \"#utility.yul\":15718:15742   */\n      tag_287\n        /* \"#utility.yul\":15736:15741   */\n      dup5\n        /* \"#utility.yul\":15718:15742   */\n      tag_120\n      jump\t// in\n    tag_287:\n        /* \"#utility.yul\":15709:15743   */\n      tag_139\n      jump\t// in\n    tag_286:\n        /* \"#utility.yul\":15691:15744   */\n      tag_120\n      jump\t// in\n    tag_285:\n        /* \"#utility.yul\":15678:15744   */\n      swap1\n      pop\n        /* \"#utility.yul\":15608:15750   */\n      swap2\n      swap1\n      pop\n      jump\t// out\n        /* \"#utility.yul\":15756:15831   */\n    tag_141:\n        /* \"#utility.yul\":15799:15802   */\n      0x00\n        /* \"#utility.yul\":15820:15825   */\n      dup2\n        /* \"#utility.yul\":15813:15825   */\n      swap1\n      pop\n        /* \"#utility.yul\":15756:15831   */\n      swap2\n      swap1\n      pop\n      jump\t// out\n        /* \"#utility.yul\":15837:16106   */\n    tag_142:\n        /* \"#utility.yul\":15947:15986   */\n      tag_290\n        /* \"#utility.yul\":15978:15985   */\n      dup4\n        /* \"#utility.yul\":15947:15986   */\n      tag_140\n      jump\t// in\n    tag_290:\n        /* \"#utility.yul\":16008:16099   */\n      tag_291\n        /* \"#utility.yul\":16057:16098   */\n      tag_292\n        /* \"#utility.yul\":16081:16097   */\n      dup3\n        /* \"#utility.yul\":16057:16098   */\n      tag_141\n      jump\t// in\n    tag_292:\n        /* \"#utility.yul\":16049:16055   */\n      dup5\n        /* \"#utility.yul\":16042:16046   */\n      dup5\n        /* \"#utility.yul\":16036:16047   */\n      sload\n        /* \"#utility.yul\":16008:16099   */\n      tag_138\n      jump\t// in\n    tag_291:\n        /* \"#utility.yul\":16002:16006   */\n      dup3\n        /* \"#utility.yul\":15995:16100   */\n      sstore\n        /* \"#utility.yul\":15913:16106   */\n      pop\n        /* \"#utility.yul\":15837:16106   */\n      pop\n      pop\n      pop\n      jump\t// out\n        /* \"#utility.yul\":16112:16185   */\n    tag_143:\n        /* \"#utility.yul\":16157:16160   */\n      0x00\n        /* \"#utility.yul\":16178:16179   */\n      0x00\n        /* \"#utility.yul\":16171:16179   */\n      swap1\n      pop\n        /* \"#utility.yul\":16112:16185   */\n      swap1\n      jump\t// out\n        /* \"#utility.yul\":16191:16380   */\n    tag_144:\n        /* \"#utility.yul\":16268:16300   */\n      tag_295\n      tag_143\n      jump\t// in\n    tag_295:\n        /* \"#utility.yul\":16309:16374   */\n      tag_296\n        /* \"#utility.yul\":16367:16373   */\n      dup2\n        /* \"#utility.yul\":16359:16365   */\n      dup5\n        /* \"#utility.yul\":16353:16357   */\n      dup5\n        /* \"#utility.yul\":16309:16374   */\n      tag_142\n      jump\t// in\n    tag_296:\n        /* \"#utility.yul\":16244:16380   */\n      pop\n        /* \"#utility.yul\":16191:16380   */\n      pop\n      pop\n      jump\t// out\n        /* \"#utility.yul\":16386:16572   */\n    tag_145:\n        /* \"#utility.yul\":16446:16566   */\n    tag_298:\n        /* \"#utility.yul\":16463:16466   */\n      dup2\n        /* \"#utility.yul\":16456:16461   */\n      dup2\n        /* \"#utility.yul\":16453:16467   */\n      lt\n        /* \"#utility.yul\":16446:16566   */\n      iszero\n      tag_300\n      jumpi\n        /* \"#utility.yul\":16517:16556   */\n      tag_301\n        /* \"#utility.yul\":16554:16555   */\n      0x00\n        /* \"#utility.yul\":16547:16552   */\n      dup3\n        /* \"#utility.yul\":16517:16556   */\n      tag_144\n      jump\t// in\n    tag_301:\n        /* \"#utility.yul\":16490:16491   */\n      0x01\n        /* \"#utility.yul\":16483:16488   */\n      dup2\n        /* \"#utility.yul\":16479:16492   */\n      add\n        /* \"#utility.yul\":16470:16492   */\n      swap1\n      pop\n        /* \"#utility.yul\":16446:16566   */\n      jump(tag_298)\n    tag_300:\n        /* \"#utility.yul\":16386:16572   */\n      pop\n      pop\n      jump\t// out\n        /* \"#utility.yul\":16578:17121   */\n    tag_146:\n        /* \"#utility.yul\":16679:16681   */\n      0x1f\n        /* \"#utility.yul\":16674:16677   */\n      dup3\n        /* \"#utility.yul\":16671:16682   */\n      gt\n        /* \"#utility.yul\":16668:17114   */\n      iszero\n      tag_303\n      jumpi\n        /* \"#utility.yul\":16713:16751   */\n      tag_304\n        /* \"#utility.yul\":16745:16750   */\n      dup2\n        /* \"#utility.yul\":16713:16751   */\n      tag_135\n      jump\t// in\n    tag_304:\n        /* \"#utility.yul\":16797:16826   */\n      tag_305\n        /* \"#utility.yul\":16815:16825   */\n      dup5\n        /* \"#utility.yul\":16797:16826   */\n      tag_136\n      jump\t// in\n    tag_305:\n        /* \"#utility.yul\":16787:16795   */\n      dup2\n        /* \"#utility.yul\":16783:16827   */\n      add\n        /* \"#utility.yul\":16980:16982   */\n      0x20\n        /* \"#utility.yul\":16968:16978   */\n      dup6\n        /* \"#utility.yul\":16965:16983   */\n      lt\n        /* \"#utility.yul\":16962:17011   */\n      iszero\n      tag_306\n      jumpi\n        /* \"#utility.yul\":17001:17009   */\n      dup2\n        /* \"#utility.yul\":16986:17009   */\n      swap1\n      pop\n        /* \"#utility.yul\":16962:17011   */\n    tag_306:\n        /* \"#utility.yul\":17024:17104   */\n      tag_307\n        /* \"#utility.yul\":17080:17102   */\n      tag_308\n        /* \"#utility.yul\":17098:17101   */\n      dup6\n        /* \"#utility.yul\":17080:17102   */\n      tag_136\n      jump\t// in\n    tag_308:\n        /* \"#utility.yul\":17070:17078   */\n      dup4\n        /* \"#utility.yul\":17066:17103   */\n      add\n        /* \"#utility.yul\":17053:17064   */\n      dup3\n        /* \"#utility.yul\":17024:17104   */\n      tag_145\n      jump\t// in\n    tag_307:\n        /* \"#utility.yul\":16683:17114   */\n      pop\n      pop\n        /* \"#utility.yul\":16668:17114   */\n    tag_303:\n        /* \"#utility.yul\":16578:17121   */\n      pop\n      pop\n      pop\n      jump\t// out\n        /* \"#utility.yul\":17127:17244   */\n    tag_147:\n        /* \"#utility.yul\":17181:17189   */\n      0x00\n        /* \"#utility.yul\":17231:17236   */\n      dup3\n        /* \"#utility.yul\":17225:17229   */\n      dup3\n        /* \"#utility.yul\":17221:17237   */\n      shr\n        /* \"#utility.yul\":17200:17237   */\n      swap1\n      pop\n        /* \"#utility.yul\":17127:17244   */\n      swap3\n      swap2\n      pop\n      pop\n      jump\t// out\n        /* \"#utility.yul\":17250:17419   */\n    tag_148:\n        /* \"#utility.yul\":17294:17300   */\n      0x00\n        /* \"#utility.yul\":17327:17378   */\n      tag_311\n        /* \"#utility.yul\":17375:17376   */\n      0x00\n        /* \"#utility.yul\":17371:17377   */\n      not\n        /* \"#utility.yul\":17363:17368   */\n      dup5\n        /* \"#utility.yul\":17360:17361   */\n      0x08\n        /* \"#utility.yul\":17356:17369   */\n      mul\n        /* \"#utility.yul\":17327:17378   */\n      tag_147\n      jump\t// in\n    tag_311:\n        /* \"#utility.yul\":17323:17379   */\n      not\n        /* \"#utility.yul\":17408:17412   */\n      dup1\n        /* \"#utility.yul\":17402:17406   */\n      dup4\n        /* \"#utility.yul\":17398:17413   */\n      and\n        /* \"#utility.yul\":17388:17413   */\n      swap2\n      pop\n        /* \"#utility.yul\":17301:17419   */\n      pop\n        /* \"#utility.yul\":17250:17419   */\n      swap3\n      swap2\n      pop\n      pop\n      jump\t// out\n        /* \"#utility.yul\":17424:17719   */\n    tag_149:\n        /* \"#utility.yul\":17500:17504   */\n      0x00\n        /* \"#utility.yul\":17646:17675   */\n      tag_313\n        /* \"#utility.yul\":17671:17674   */\n      dup4\n        /* \"#utility.yul\":17665:17669   */\n      dup4\n        /* \"#utility.yul\":17646:17675   */\n      tag_148\n      jump\t// in\n    tag_313:\n        /* \"#utility.yul\":17638:17675   */\n      swap2\n      pop\n        /* \"#utility.yul\":17708:17711   */\n      dup3\n        /* \"#utility.yul\":17705:17706   */\n      0x02\n        /* \"#utility.yul\":17701:17712   */\n      mul\n        /* \"#utility.yul\":17695:17699   */\n      dup3\n        /* \"#utility.yul\":17692:17713   */\n      or\n        /* \"#utility.yul\":17684:17713   */\n      swap1\n      pop\n        /* \"#utility.yul\":17424:17719   */\n      swap3\n      swap2\n      pop\n      pop\n      jump\t// out\n        /* \"#utility.yul\":17724:19119   */\n    tag_54:\n        /* \"#utility.yul\":17841:17878   */\n      tag_315\n        /* \"#utility.yul\":17874:17877   */\n      dup3\n        /* \"#utility.yul\":17841:17878   */\n      tag_110\n      jump\t// in\n    tag_315:\n        /* \"#utility.yul\":17943:17961   */\n      0xffffffffffffffff\n        /* \"#utility.yul\":17935:17941   */\n      dup2\n        /* \"#utility.yul\":17932:17962   */\n      gt\n        /* \"#utility.yul\":17929:17985   */\n      iszero\n      tag_316\n      jumpi\n        /* \"#utility.yul\":17965:17983   */\n      tag_317\n      tag_100\n      jump\t// in\n    tag_317:\n        /* \"#utility.yul\":17929:17985   */\n    tag_316:\n        /* \"#utility.yul\":18009:18047   */\n      tag_318\n        /* \"#utility.yul\":18041:18045   */\n      dup3\n        /* \"#utility.yul\":18035:18046   */\n      sload\n        /* \"#utility.yul\":18009:18047   */\n      tag_63\n      jump\t// in\n    tag_318:\n        /* \"#utility.yul\":18094:18161   */\n      tag_319\n        /* \"#utility.yul\":18154:18160   */\n      dup3\n        /* \"#utility.yul\":18146:18152   */\n      dup3\n        /* \"#utility.yul\":18140:18144   */\n      dup6\n        /* \"#utility.yul\":18094:18161   */\n      tag_146\n      jump\t// in\n    tag_319:\n        /* \"#utility.yul\":18188:18189   */\n      0x00\n        /* \"#utility.yul\":18212:18216   */\n      0x20\n        /* \"#utility.yul\":18199:18216   */\n      swap1\n      pop\n        /* \"#utility.yul\":18244:18246   */\n      0x1f\n        /* \"#utility.yul\":18236:18242   */\n      dup4\n        /* \"#utility.yul\":18233:18247   */\n      gt\n        /* \"#utility.yul\":18261:18262   */\n      0x01\n        /* \"#utility.yul\":18256:18874   */\n      dup2\n      eq\n      tag_321\n      jumpi\n        /* \"#utility.yul\":18918:18919   */\n      0x00\n        /* \"#utility.yul\":18935:18941   */\n      dup5\n        /* \"#utility.yul\":18932:19009   */\n      iszero\n      tag_322\n      jumpi\n        /* \"#utility.yul\":18984:18993   */\n      dup3\n        /* \"#utility.yul\":18979:18982   */\n      dup8\n        /* \"#utility.yul\":18975:18994   */\n      add\n        /* \"#utility.yul\":18969:18995   */\n      mload\n        /* \"#utility.yul\":18960:18995   */\n      swap1\n      pop\n        /* \"#utility.yul\":18932:19009   */\n    tag_322:\n        /* \"#utility.yul\":19035:19102   */\n      tag_323\n        /* \"#utility.yul\":19095:19101   */\n      dup6\n        /* \"#utility.yul\":19088:19093   */\n      dup3\n        /* \"#utility.yul\":19035:19102   */\n      tag_149\n      jump\t// in\n    tag_323:\n        /* \"#utility.yul\":19029:19033   */\n      dup7\n        /* \"#utility.yul\":19022:19103   */\n      sstore\n        /* \"#utility.yul\":18891:19113   */\n      pop\n        /* \"#utility.yul\":18226:19113   */\n      jump(tag_320)\n        /* \"#utility.yul\":18256:18874   */\n    tag_321:\n        /* \"#utility.yul\":18308:18312   */\n      0x1f\n        /* \"#utility.yul\":18304:18313   */\n      not\n        /* \"#utility.yul\":18296:18302   */\n      dup5\n        /* \"#utility.yul\":18292:18314   */\n      and\n        /* \"#utility.yul\":18342:18379   */\n      tag_324\n        /* \"#utility.yul\":18374:18378   */\n      dup7\n        /* \"#utility.yul\":18342:18379   */\n      tag_135\n      jump\t// in\n    tag_324:\n        /* \"#utility.yul\":18401:18402   */\n      0x00\n        /* \"#utility.yul\":18415:18623   */\n    tag_325:\n        /* \"#utility.yul\":18429:18436   */\n      dup3\n        /* \"#utility.yul\":18426:18427   */\n      dup2\n        /* \"#utility.yul\":18423:18437   */\n      lt\n        /* \"#utility.yul\":18415:18623   */\n      iszero\n      tag_327\n      jumpi\n        /* \"#utility.yul\":18508:18517   */\n      dup5\n        /* \"#utility.yul\":18503:18506   */\n      dup10\n        /* \"#utility.yul\":18499:18518   */\n      add\n        /* \"#utility.yul\":18493:18519   */\n      mload\n        /* \"#utility.yul\":18485:18491   */\n      dup3\n        /* \"#utility.yul\":18478:18520   */\n      sstore\n        /* \"#utility.yul\":18559:18560   */\n      0x01\n        /* \"#utility.yul\":18551:18557   */\n      dup3\n        /* \"#utility.yul\":18547:18561   */\n      add\n        /* \"#utility.yul\":18537:18561   */\n      swap2\n      pop\n        /* \"#utility.yul\":18606:18608   */\n      0x20\n        /* \"#utility.yul\":18595:18604   */\n      dup6\n        /* \"#utility.yul\":18591:18609   */\n      add\n        /* \"#utility.yul\":18578:18609   */\n      swap5\n      pop\n        /* \"#utility.yul\":18452:18456   */\n      0x20\n        /* \"#utility.yul\":18449:18450   */\n      dup2\n        /* \"#utility.yul\":18445:18457   */\n      add\n        /* \"#utility.yul\":18440:18457   */\n      swap1\n      pop\n        /* \"#utility.yul\":18415:18623   */\n      jump(tag_325)\n    tag_327:\n        /* \"#utility.yul\":18651:18657   */\n      dup7\n        /* \"#utility.yul\":18642:18649   */\n      dup4\n        /* \"#utility.yul\":18639:18658   */\n      lt\n        /* \"#utility.yul\":18636:18815   */\n      iszero\n      tag_328\n      jumpi\n        /* \"#utility.yul\":18709:18718   */\n      dup5\n        /* \"#utility.yul\":18704:18707   */\n      dup10\n        /* \"#utility.yul\":18700:18719   */\n      add\n        /* \"#utility.yul\":18694:18720   */\n      mload\n        /* \"#utility.yul\":18752:18800   */\n      tag_329\n        /* \"#utility.yul\":18794:18798   */\n      0x1f\n        /* \"#utility.yul\":18786:18792   */\n      dup10\n        /* \"#utility.yul\":18782:18799   */\n      and\n        /* \"#utility.yul\":18771:18780   */\n      dup3\n        /* \"#utility.yul\":18752:18800   */\n      tag_148\n      jump\t// in\n    tag_329:\n        /* \"#utility.yul\":18744:18750   */\n      dup4\n        /* \"#utility.yul\":18737:18801   */\n      sstore\n        /* \"#utility.yul\":18659:18815   */\n      pop\n        /* \"#utility.yul\":18636:18815   */\n    tag_328:\n        /* \"#utility.yul\":18861:18862   */\n      0x01\n        /* \"#utility.yul\":18857:18858   */\n      0x02\n        /* \"#utility.yul\":18849:18855   */\n      dup9\n        /* \"#utility.yul\":18845:18859   */\n      mul\n        /* \"#utility.yul\":18841:18863   */\n      add\n        /* \"#utility.yul\":18835:18839   */\n      dup9\n        /* \"#utility.yul\":18828:18864   */\n      sstore\n        /* \"#utility.yul\":18263:18874   */\n      pop\n      pop\n      pop\n        /* \"#utility.yul\":18226:19113   */\n    tag_320:\n      pop\n        /* \"#utility.yul\":17816:19119   */\n      pop\n      pop\n      pop\n        /* \"#utility.yul\":17724:19119   */\n      pop\n      pop\n      jump\t// out\n        /* \"#utility.yul\":19125:19639   */\n    tag_57:\n        /* \"#utility.yul\":19286:19290   */\n      0x00\n        /* \"#utility.yul\":19324:19326   */\n      0x40\n        /* \"#utility.yul\":19313:19322   */\n      dup3\n        /* \"#utility.yul\":19309:19327   */\n      add\n        /* \"#utility.yul\":19301:19327   */\n      swap1\n      pop\n        /* \"#utility.yul\":19373:19382   */\n      dup2\n        /* \"#utility.yul\":19367:19371   */\n      dup2\n        /* \"#utility.yul\":19363:19383   */\n      sub\n        /* \"#utility.yul\":19359:19360   */\n      0x00\n        /* \"#utility.yul\":19348:19357   */\n      dup4\n        /* \"#utility.yul\":19344:19361   */\n      add\n        /* \"#utility.yul\":19337:19384   */\n      mstore\n        /* \"#utility.yul\":19401:19479   */\n      tag_331\n        /* \"#utility.yul\":19474:19478   */\n      dup2\n        /* \"#utility.yul\":19465:19471   */\n      dup6\n        /* \"#utility.yul\":19401:19479   */\n      tag_133\n      jump\t// in\n    tag_331:\n        /* \"#utility.yul\":19393:19479   */\n      swap1\n      pop\n        /* \"#utility.yul\":19526:19535   */\n      dup2\n        /* \"#utility.yul\":19520:19524   */\n      dup2\n        /* \"#utility.yul\":19516:19536   */\n      sub\n        /* \"#utility.yul\":19511:19513   */\n      0x20\n        /* \"#utility.yul\":19500:19509   */\n      dup4\n        /* \"#utility.yul\":19496:19514   */\n      add\n        /* \"#utility.yul\":19489:19537   */\n      mstore\n        /* \"#utility.yul\":19554:19632   */\n      tag_332\n        /* \"#utility.yul\":19627:19631   */\n      dup2\n        /* \"#utility.yul\":19618:19624   */\n      dup5\n        /* \"#utility.yul\":19554:19632   */\n      tag_133\n      jump\t// in\n    tag_332:\n        /* \"#utility.yul\":19546:19632   */\n      swap1\n      pop\n        /* \"#utility.yul\":19125:19639   */\n      swap4\n      swap3\n      pop\n      pop\n      pop\n      jump\t// out\n        /* \"#utility.yul\":19645:19872   */\n    tag_150:\n        /* \"#utility.yul\":19785:19819   */\n      0x446174612062726f616463617374656420666f7220747261696e696e672f7072\n        /* \"#utility.yul\":19781:19782   */\n      0x00\n        /* \"#utility.yul\":19773:19779   */\n      dup3\n        /* \"#utility.yul\":19769:19783   */\n      add\n        /* \"#utility.yul\":19762:19820   */\n      mstore\n        /* \"#utility.yul\":19854:19864   */\n      0x6564696374696f6e000000000000000000000000000000000000000000000000\n        /* \"#utility.yul\":19849:19851   */\n      0x20\n        /* \"#utility.yul\":19841:19847   */\n      dup3\n        /* \"#utility.yul\":19837:19852   */\n      add\n        /* \"#utility.yul\":19830:19865   */\n      mstore\n        /* \"#utility.yul\":19645:19872   */\n      pop\n      jump\t// out\n        /* \"#utility.yul\":19878:20244   */\n    tag_151:\n        /* \"#utility.yul\":20020:20023   */\n      0x00\n        /* \"#utility.yul\":20041:20108   */\n      tag_335\n        /* \"#utility.yul\":20105:20107   */\n      0x28\n        /* \"#utility.yul\":20100:20103   */\n      dup4\n        /* \"#utility.yul\":20041:20108   */\n      tag_126\n      jump\t// in\n    tag_335:\n        /* \"#utility.yul\":20034:20108   */\n      swap2\n      pop\n        /* \"#utility.yul\":20117:20210   */\n      tag_336\n        /* \"#utility.yul\":20206:20209   */\n      dup3\n        /* \"#utility.yul\":20117:20210   */\n      tag_150\n      jump\t// in\n    tag_336:\n        /* \"#utility.yul\":20235:20237   */\n      0x40\n        /* \"#utility.yul\":20230:20233   */\n      dup3\n        /* \"#utility.yul\":20226:20238   */\n      add\n        /* \"#utility.yul\":20219:20238   */\n      swap1\n      pop\n        /* \"#utility.yul\":19878:20244   */\n      swap2\n      swap1\n      pop\n      jump\t// out\n        /* \"#utility.yul\":20250:20870   */\n    tag_78:\n        /* \"#utility.yul\":20464:20468   */\n      0x00\n        /* \"#utility.yul\":20502:20504   */\n      0x40\n        /* \"#utility.yul\":20491:20500   */\n      dup3\n        /* \"#utility.yul\":20487:20505   */\n      add\n        /* \"#utility.yul\":20479:20505   */\n      swap1\n      pop\n        /* \"#utility.yul\":20551:20560   */\n      dup2\n        /* \"#utility.yul\":20545:20549   */\n      dup2\n        /* \"#utility.yul\":20541:20561   */\n      sub\n        /* \"#utility.yul\":20537:20538   */\n      0x00\n        /* \"#utility.yul\":20526:20535   */\n      dup4\n        /* \"#utility.yul\":20522:20539   */\n      add\n        /* \"#utility.yul\":20515:20562   */\n      mstore\n        /* \"#utility.yul\":20579:20657   */\n      tag_338\n        /* \"#utility.yul\":20652:20656   */\n      dup2\n        /* \"#utility.yul\":20643:20649   */\n      dup5\n        /* \"#utility.yul\":20579:20657   */\n      tag_133\n      jump\t// in\n    tag_338:\n        /* \"#utility.yul\":20571:20657   */\n      swap1\n      pop\n        /* \"#utility.yul\":20704:20713   */\n      dup2\n        /* \"#utility.yul\":20698:20702   */\n      dup2\n        /* \"#utility.yul\":20694:20714   */\n      sub\n        /* \"#utility.yul\":20689:20691   */\n      0x20\n        /* \"#utility.yul\":20678:20687   */\n      dup4\n        /* \"#utility.yul\":20674:20692   */\n      add\n        /* \"#utility.yul\":20667:20715   */\n      mstore\n        /* \"#utility.yul\":20732:20863   */\n      tag_339\n        /* \"#utility.yul\":20858:20862   */\n      dup2\n        /* \"#utility.yul\":20732:20863   */\n      tag_151\n      jump\t// in\n    tag_339:\n        /* \"#utility.yul\":20724:20863   */\n      swap1\n      pop\n        /* \"#utility.yul\":20250:20870   */\n      swap3\n      swap2\n      pop\n      pop\n      jump\t// out\n\n    auxdata: 0xa26469706673582212209b4c9e6fac5c8ebb5724a380dcfc3c1add80797d6f9c9dff1090487dc0fc832264736f6c634300081c0033\n}\n",
				"bytecode": {
					"linkReferences": {},
					"object": "608060405234801561000f575f5ffd5b5060405161134c38038061134c833981810160405281019061003191906100d5565b8060025f6101000a81548173ffffffffffffffffffffffffffffffffffffffff021916908373ffffffffffffffffffffffffffffffffffffffff16021790555050610100565b5f5ffd5b5f73ffffffffffffffffffffffffffffffffffffffff82169050919050565b5f6100a48261007b565b9050919050565b6100b48161009a565b81146100be575f5ffd5b50565b5f815190506100cf816100ab565b92915050565b5f602082840312156100ea576100e9610077565b5b5f6100f7848285016100c1565b91505092915050565b61123f8061010d5f395ff3fe608060405234801561000f575f5ffd5b5060043610610060575f3560e01c80630e178d1f1461006457806328866426146100805780632d6be93d1461009e57806349e4622c146100ba57806358e176c9146100ea578063d8ebf57014610106575b5f5ffd5b61007e6004803603810190610079919061096d565b610136565b005b6100886102a4565b60405161009591906109f3565b60405180910390f35b6100b860048036038101906100b39190610a0c565b6102c9565b005b6100d460048036038101906100cf919061096d565b61042a565b6040516100e19190610b50565b60405180910390f35b61010460048036038101906100ff9190610a0c565b61059a565b005b610120600480360381019061011b919061096d565b61065b565b60405161012d9190610c97565b60405180910390f35b60025f9054906101000a900473ffffffffffffffffffffffffffffffffffffffff1673ffffffffffffffffffffffffffffffffffffffff163373ffffffffffffffffffffffffffffffffffffffff16146101c5576040517f08c379a00000000000000000000000000000000000000000000000000000000081526004016101bc90610d37565b60405180910390fd5b5f816040516101d49190610d8f565b90815260200160405180910390206002015f9054906101000a900460ff1615610232576040517f08c379a000000000000000000000000000000000000000000000000000000000815260040161022990610def565b60405180910390fd5b60015f826040516102439190610d8f565b90815260200160405180910390206002015f6101000a81548160ff0219169083151502179055507f0c62b3a86c1b3297873be6e9e58b83a0408eee3294b83f35d558aacb3a7039a6816040516102999190610e45565b60405180910390a150565b60025f9054906101000a900473ffffffffffffffffffffffffffffffffffffffff1681565b60025f9054906101000a900473ffffffffffffffffffffffffffffffffffffffff1673ffffffffffffffffffffffffffffffffffffffff163373ffffffffffffffffffffffffffffffffffffffff1614610358576040517f08c379a000000000000000000000000000000000000000000000000000000000815260040161034f90610d37565b60405180910390fd5b6001826040516103689190610d8f565b9081526020016040518091039020604051806060016040528084815260200183815260200142815250908060018154018082558091505060019003905f5260205f2090600302015f909190919091505f820151815f0190816103ca9190611062565b5060208201518160010190816103e09190611062565b506040820151816002015550507f35f221b2184bd3e6a7a85ffefcca788c6a759654a246e5f38542a3260bb9a57a828260405161041e929190611131565b60405180910390a15050565b6104326107fe565b5f826040516104419190610d8f565b90815260200160405180910390206040518060600160405290815f8201805461046990610e92565b80601f016020809104026020016040519081016040528092919081815260200182805461049590610e92565b80156104e05780601f106104b7576101008083540402835291602001916104e0565b820191905f5260205f20905b8154815290600101906020018083116104c357829003601f168201915b505050505081526020016001820180546104f990610e92565b80601f016020809104026020016040519081016040528092919081815260200182805461052590610e92565b80156105705780601f1061054757610100808354040283529160200191610570565b820191905f5260205f20905b81548152906001019060200180831161055357829003601f168201915b50505050508152602001600282015f9054906101000a900460ff1615151515815250509050919050565b60405180606001604052808381526020018281526020015f15158152505f836040516105c69190610d8f565b90815260200160405180910390205f820151815f0190816105e79190611062565b5060208201518160010190816105fd9190611062565b506040820151816002015f6101000a81548160ff0219169083151502179055509050507f8e8b49c7eb65ad559da4e92655b2da6c837c431d05ccfaa2db3ba82c619823918260405161064f91906111d6565b60405180910390a15050565b606060018260405161066d9190610d8f565b9081526020016040518091039020805480602002602001604051908101604052809291908181526020015f905b828210156107f3578382905f5260205f2090600302016040518060600160405290815f820180546106ca90610e92565b80601f01602080910402602001604051908101604052809291908181526020018280546106f690610e92565b80156107415780601f1061071857610100808354040283529160200191610741565b820191905f5260205f20905b81548152906001019060200180831161072457829003601f168201915b5050505050815260200160018201805461075a90610e92565b80601f016020809104026020016040519081016040528092919081815260200182805461078690610e92565b80156107d15780601f106107a8576101008083540402835291602001916107d1565b820191905f5260205f20905b8154815290600101906020018083116107b457829003601f168201915b505050505081526020016002820154815250508152602001906001019061069a565b505050509050919050565b604051806060016040528060608152602001606081526020015f151581525090565b5f604051905090565b5f5ffd5b5f5ffd5b5f5ffd5b5f5ffd5b5f601f19601f8301169050919050565b7f4e487b71000000000000000000000000000000000000000000000000000000005f52604160045260245ffd5b61087f82610839565b810181811067ffffffffffffffff8211171561089e5761089d610849565b5b80604052505050565b5f6108b0610820565b90506108bc8282610876565b919050565b5f67ffffffffffffffff8211156108db576108da610849565b5b6108e482610839565b9050602081019050919050565b828183375f83830152505050565b5f61091161090c846108c1565b6108a7565b90508281526020810184848401111561092d5761092c610835565b5b6109388482856108f1565b509392505050565b5f82601f83011261095457610953610831565b5b81356109648482602086016108ff565b91505092915050565b5f6020828403121561098257610981610829565b5b5f82013567ffffffffffffffff81111561099f5761099e61082d565b5b6109ab84828501610940565b91505092915050565b5f73ffffffffffffffffffffffffffffffffffffffff82169050919050565b5f6109dd826109b4565b9050919050565b6109ed816109d3565b82525050565b5f602082019050610a065f8301846109e4565b92915050565b5f5f60408385031215610a2257610a21610829565b5b5f83013567ffffffffffffffff811115610a3f57610a3e61082d565b5b610a4b85828601610940565b925050602083013567ffffffffffffffff811115610a6c57610a6b61082d565b5b610a7885828601610940565b9150509250929050565b5f81519050919050565b5f82825260208201905092915050565b8281835e5f83830152505050565b5f610ab482610a82565b610abe8185610a8c565b9350610ace818560208601610a9c565b610ad781610839565b840191505092915050565b5f8115159050919050565b610af681610ae2565b82525050565b5f606083015f8301518482035f860152610b168282610aaa565b91505060208301518482036020860152610b308282610aaa565b9150506040830151610b456040860182610aed565b508091505092915050565b5f6020820190508181035f830152610b688184610afc565b905092915050565b5f81519050919050565b5f82825260208201905092915050565b5f819050602082019050919050565b5f819050919050565b610bab81610b99565b82525050565b5f606083015f8301518482035f860152610bcb8282610aaa565b91505060208301518482036020860152610be58282610aaa565b9150506040830151610bfa6040860182610ba2565b508091505092915050565b5f610c108383610bb1565b905092915050565b5f602082019050919050565b5f610c2e82610b70565b610c388185610b7a565b935083602082028501610c4a85610b8a565b805f5b85811015610c855784840389528151610c668582610c05565b9450610c7183610c18565b925060208a01995050600181019050610c4d565b50829750879550505050505092915050565b5f6020820190508181035f830152610caf8184610c24565b905092915050565b5f82825260208201905092915050565b7f4f6e6c7920617574686f72697a656420524e4e206e6f64652063616e207065725f8201527f666f726d207468697320616374696f6e00000000000000000000000000000000602082015250565b5f610d21603083610cb7565b9150610d2c82610cc7565b604082019050919050565b5f6020820190508181035f830152610d4e81610d15565b9050919050565b5f81905092915050565b5f610d6982610a82565b610d738185610d55565b9350610d83818560208601610a9c565b80840191505092915050565b5f610d9a8284610d5f565b915081905092915050565b7f4461746120616c726561647920747261696e65640000000000000000000000005f82015250565b5f610dd9601483610cb7565b9150610de482610da5565b602082019050919050565b5f6020820190508181035f830152610e0681610dcd565b9050919050565b5f610e1782610a82565b610e218185610cb7565b9350610e31818560208601610a9c565b610e3a81610839565b840191505092915050565b5f6020820190508181035f830152610e5d8184610e0d565b905092915050565b7f4e487b71000000000000000000000000000000000000000000000000000000005f52602260045260245ffd5b5f6002820490506001821680610ea957607f821691505b602082108103610ebc57610ebb610e65565b5b50919050565b5f819050815f5260205f209050919050565b5f6020601f8301049050919050565b5f82821b905092915050565b5f60088302610f1e7fffffffffffffffffffffffffffffffffffffffffffffffffffffffffffffffff82610ee3565b610f288683610ee3565b95508019841693508086168417925050509392505050565b5f819050919050565b5f610f63610f5e610f5984610b99565b610f40565b610b99565b9050919050565b5f819050919050565b610f7c83610f49565b610f90610f8882610f6a565b848454610eef565b825550505050565b5f5f905090565b610fa7610f98565b610fb2818484610f73565b505050565b5b81811015610fd557610fca5f82610f9f565b600181019050610fb8565b5050565b601f82111561101a57610feb81610ec2565b610ff484610ed4565b81016020851015611003578190505b61101761100f85610ed4565b830182610fb7565b50505b505050565b5f82821c905092915050565b5f61103a5f198460080261101f565b1980831691505092915050565b5f611052838361102b565b9150826002028217905092915050565b61106b82610a82565b67ffffffffffffffff81111561108457611083610849565b5b61108e8254610e92565b611099828285610fd9565b5f60209050601f8311600181146110ca575f84156110b8578287015190505b6110c28582611047565b865550611129565b601f1984166110d886610ec2565b5f5b828110156110ff578489015182556001820191506020850194506020810190506110da565b8683101561111c5784890151611118601f89168261102b565b8355505b6001600288020188555050505b505050505050565b5f6040820190508181035f8301526111498185610e0d565b9050818103602083015261115d8184610e0d565b90509392505050565b7f446174612062726f616463617374656420666f7220747261696e696e672f70725f8201527f6564696374696f6e000000000000000000000000000000000000000000000000602082015250565b5f6111c0602883610cb7565b91506111cb82611166565b604082019050919050565b5f6040820190508181035f8301526111ee8184610e0d565b90508181036020830152611201816111b4565b90509291505056fea26469706673582212209b4c9e6fac5c8ebb5724a380dcfc3c1add80797d6f9c9dff1090487dc0fc832264736f6c634300081c0033",
					"opcodes": "PUSH1 0x80 PUSH1 0x40 MSTORE CALLVALUE DUP1 ISZERO PUSH2 0xF JUMPI PUSH0 PUSH0 REVERT JUMPDEST POP PUSH1 0x40 MLOAD PUSH2 0x134C CODESIZE SUB DUP1 PUSH2 0x134C DUP4 CODECOPY DUP2 DUP2 ADD PUSH1 0x40 MSTORE DUP2 ADD SWAP1 PUSH2 0x31 SWAP2 SWAP1 PUSH2 0xD5 JUMP JUMPDEST DUP1 PUSH1 0x2 PUSH0 PUSH2 0x100 EXP DUP2 SLOAD DUP2 PUSH20 0xFFFFFFFFFFFFFFFFFFFFFFFFFFFFFFFFFFFFFFFF MUL NOT AND SWAP1 DUP4 PUSH20 0xFFFFFFFFFFFFFFFFFFFFFFFFFFFFFFFFFFFFFFFF AND MUL OR SWAP1 SSTORE POP POP PUSH2 0x100 JUMP JUMPDEST PUSH0 PUSH0 REVERT JUMPDEST PUSH0 PUSH20 0xFFFFFFFFFFFFFFFFFFFFFFFFFFFFFFFFFFFFFFFF DUP3 AND SWAP1 POP SWAP2 SWAP1 POP JUMP JUMPDEST PUSH0 PUSH2 0xA4 DUP3 PUSH2 0x7B JUMP JUMPDEST SWAP1 POP SWAP2 SWAP1 POP JUMP JUMPDEST PUSH2 0xB4 DUP2 PUSH2 0x9A JUMP JUMPDEST DUP2 EQ PUSH2 0xBE JUMPI PUSH0 PUSH0 REVERT JUMPDEST POP JUMP JUMPDEST PUSH0 DUP2 MLOAD SWAP1 POP PUSH2 0xCF DUP2 PUSH2 0xAB JUMP JUMPDEST SWAP3 SWAP2 POP POP JUMP JUMPDEST PUSH0 PUSH1 0x20 DUP3 DUP5 SUB SLT ISZERO PUSH2 0xEA JUMPI PUSH2 0xE9 PUSH2 0x77 JUMP JUMPDEST JUMPDEST PUSH0 PUSH2 0xF7 DUP5 DUP3 DUP6 ADD PUSH2 0xC1 JUMP JUMPDEST SWAP2 POP POP SWAP3 SWAP2 POP POP JUMP JUMPDEST PUSH2 0x123F DUP1 PUSH2 0x10D PUSH0 CODECOPY PUSH0 RETURN INVALID PUSH1 0x80 PUSH1 0x40 MSTORE CALLVALUE DUP1 ISZERO PUSH2 0xF JUMPI PUSH0 PUSH0 REVERT JUMPDEST POP PUSH1 0x4 CALLDATASIZE LT PUSH2 0x60 JUMPI PUSH0 CALLDATALOAD PUSH1 0xE0 SHR DUP1 PUSH4 0xE178D1F EQ PUSH2 0x64 JUMPI DUP1 PUSH4 0x28866426 EQ PUSH2 0x80 JUMPI DUP1 PUSH4 0x2D6BE93D EQ PUSH2 0x9E JUMPI DUP1 PUSH4 0x49E4622C EQ PUSH2 0xBA JUMPI DUP1 PUSH4 0x58E176C9 EQ PUSH2 0xEA JUMPI DUP1 PUSH4 0xD8EBF570 EQ PUSH2 0x106 JUMPI JUMPDEST PUSH0 PUSH0 REVERT JUMPDEST PUSH2 0x7E PUSH1 0x4 DUP1 CALLDATASIZE SUB DUP2 ADD SWAP1 PUSH2 0x79 SWAP2 SWAP1 PUSH2 0x96D JUMP JUMPDEST PUSH2 0x136 JUMP JUMPDEST STOP JUMPDEST PUSH2 0x88 PUSH2 0x2A4 JUMP JUMPDEST PUSH1 0x40 MLOAD PUSH2 0x95 SWAP2 SWAP1 PUSH2 0x9F3 JUMP JUMPDEST PUSH1 0x40 MLOAD DUP1 SWAP2 SUB SWAP1 RETURN JUMPDEST PUSH2 0xB8 PUSH1 0x4 DUP1 CALLDATASIZE SUB DUP2 ADD SWAP1 PUSH2 0xB3 SWAP2 SWAP1 PUSH2 0xA0C JUMP JUMPDEST PUSH2 0x2C9 JUMP JUMPDEST STOP JUMPDEST PUSH2 0xD4 PUSH1 0x4 DUP1 CALLDATASIZE SUB DUP2 ADD SWAP1 PUSH2 0xCF SWAP2 SWAP1 PUSH2 0x96D JUMP JUMPDEST PUSH2 0x42A JUMP JUMPDEST PUSH1 0x40 MLOAD PUSH2 0xE1 SWAP2 SWAP1 PUSH2 0xB50 JUMP JUMPDEST PUSH1 0x40 MLOAD DUP1 SWAP2 SUB SWAP1 RETURN JUMPDEST PUSH2 0x104 PUSH1 0x4 DUP1 CALLDATASIZE SUB DUP2 ADD SWAP1 PUSH2 0xFF SWAP2 SWAP1 PUSH2 0xA0C JUMP JUMPDEST PUSH2 0x59A JUMP JUMPDEST STOP JUMPDEST PUSH2 0x120 PUSH1 0x4 DUP1 CALLDATASIZE SUB DUP2 ADD SWAP1 PUSH2 0x11B SWAP2 SWAP1 PUSH2 0x96D JUMP JUMPDEST PUSH2 0x65B JUMP JUMPDEST PUSH1 0x40 MLOAD PUSH2 0x12D SWAP2 SWAP1 PUSH2 0xC97 JUMP JUMPDEST PUSH1 0x40 MLOAD DUP1 SWAP2 SUB SWAP1 RETURN JUMPDEST PUSH1 0x2 PUSH0 SWAP1 SLOAD SWAP1 PUSH2 0x100 EXP SWAP1 DIV PUSH20 0xFFFFFFFFFFFFFFFFFFFFFFFFFFFFFFFFFFFFFFFF AND PUSH20 0xFFFFFFFFFFFFFFFFFFFFFFFFFFFFFFFFFFFFFFFF AND CALLER PUSH20 0xFFFFFFFFFFFFFFFFFFFFFFFFFFFFFFFFFFFFFFFF AND EQ PUSH2 0x1C5 JUMPI PUSH1 0x40 MLOAD PUSH32 0x8C379A000000000000000000000000000000000000000000000000000000000 DUP2 MSTORE PUSH1 0x4 ADD PUSH2 0x1BC SWAP1 PUSH2 0xD37 JUMP JUMPDEST PUSH1 0x40 MLOAD DUP1 SWAP2 SUB SWAP1 REVERT JUMPDEST PUSH0 DUP2 PUSH1 0x40 MLOAD PUSH2 0x1D4 SWAP2 SWAP1 PUSH2 0xD8F JUMP JUMPDEST SWAP1 DUP2 MSTORE PUSH1 0x20 ADD PUSH1 0x40 MLOAD DUP1 SWAP2 SUB SWAP1 KECCAK256 PUSH1 0x2 ADD PUSH0 SWAP1 SLOAD SWAP1 PUSH2 0x100 EXP SWAP1 DIV PUSH1 0xFF AND ISZERO PUSH2 0x232 JUMPI PUSH1 0x40 MLOAD PUSH32 0x8C379A000000000000000000000000000000000000000000000000000000000 DUP2 MSTORE PUSH1 0x4 ADD PUSH2 0x229 SWAP1 PUSH2 0xDEF JUMP JUMPDEST PUSH1 0x40 MLOAD DUP1 SWAP2 SUB SWAP1 REVERT JUMPDEST PUSH1 0x1 PUSH0 DUP3 PUSH1 0x40 MLOAD PUSH2 0x243 SWAP2 SWAP1 PUSH2 0xD8F JUMP JUMPDEST SWAP1 DUP2 MSTORE PUSH1 0x20 ADD PUSH1 0x40 MLOAD DUP1 SWAP2 SUB SWAP1 KECCAK256 PUSH1 0x2 ADD PUSH0 PUSH2 0x100 EXP DUP2 SLOAD DUP2 PUSH1 0xFF MUL NOT AND SWAP1 DUP4 ISZERO ISZERO MUL OR SWAP1 SSTORE POP PUSH32 0xC62B3A86C1B3297873BE6E9E58B83A0408EEE3294B83F35D558AACB3A7039A6 DUP2 PUSH1 0x40 MLOAD PUSH2 0x299 SWAP2 SWAP1 PUSH2 0xE45 JUMP JUMPDEST PUSH1 0x40 MLOAD DUP1 SWAP2 SUB SWAP1 LOG1 POP JUMP JUMPDEST PUSH1 0x2 PUSH0 SWAP1 SLOAD SWAP1 PUSH2 0x100 EXP SWAP1 DIV PUSH20 0xFFFFFFFFFFFFFFFFFFFFFFFFFFFFFFFFFFFFFFFF AND DUP2 JUMP JUMPDEST PUSH1 0x2 PUSH0 SWAP1 SLOAD SWAP1 PUSH2 0x100 EXP SWAP1 DIV PUSH20 0xFFFFFFFFFFFFFFFFFFFFFFFFFFFFFFFFFFFFFFFF AND PUSH20 0xFFFFFFFFFFFFFFFFFFFFFFFFFFFFFFFFFFFFFFFF AND CALLER PUSH20 0xFFFFFFFFFFFFFFFFFFFFFFFFFFFFFFFFFFFFFFFF AND EQ PUSH2 0x358 JUMPI PUSH1 0x40 MLOAD PUSH32 0x8C379A000000000000000000000000000000000000000000000000000000000 DUP2 MSTORE PUSH1 0x4 ADD PUSH2 0x34F SWAP1 PUSH2 0xD37 JUMP JUMPDEST PUSH1 0x40 MLOAD DUP1 SWAP2 SUB SWAP1 REVERT JUMPDEST PUSH1 0x1 DUP3 PUSH1 0x40 MLOAD PUSH2 0x368 SWAP2 SWAP1 PUSH2 0xD8F JUMP JUMPDEST SWAP1 DUP2 MSTORE PUSH1 0x20 ADD PUSH1 0x40 MLOAD DUP1 SWAP2 SUB SWAP1 KECCAK256 PUSH1 0x40 MLOAD DUP1 PUSH1 0x60 ADD PUSH1 0x40 MSTORE DUP1 DUP5 DUP2 MSTORE PUSH1 0x20 ADD DUP4 DUP2 MSTORE PUSH1 0x20 ADD TIMESTAMP DUP2 MSTORE POP SWAP1 DUP1 PUSH1 0x1 DUP2 SLOAD ADD DUP1 DUP3 SSTORE DUP1 SWAP2 POP POP PUSH1 0x1 SWAP1 SUB SWAP1 PUSH0 MSTORE PUSH1 0x20 PUSH0 KECCAK256 SWAP1 PUSH1 0x3 MUL ADD PUSH0 SWAP1 SWAP2 SWAP1 SWAP2 SWAP1 SWAP2 POP PUSH0 DUP3 ADD MLOAD DUP2 PUSH0 ADD SWAP1 DUP2 PUSH2 0x3CA SWAP2 SWAP1 PUSH2 0x1062 JUMP JUMPDEST POP PUSH1 0x20 DUP3 ADD MLOAD DUP2 PUSH1 0x1 ADD SWAP1 DUP2 PUSH2 0x3E0 SWAP2 SWAP1 PUSH2 0x1062 JUMP JUMPDEST POP PUSH1 0x40 DUP3 ADD MLOAD DUP2 PUSH1 0x2 ADD SSTORE POP POP PUSH32 0x35F221B2184BD3E6A7A85FFEFCCA788C6A759654A246E5F38542A3260BB9A57A DUP3 DUP3 PUSH1 0x40 MLOAD PUSH2 0x41E SWAP3 SWAP2 SWAP1 PUSH2 0x1131 JUMP JUMPDEST PUSH1 0x40 MLOAD DUP1 SWAP2 SUB SWAP1 LOG1 POP POP JUMP JUMPDEST PUSH2 0x432 PUSH2 0x7FE JUMP JUMPDEST PUSH0 DUP3 PUSH1 0x40 MLOAD PUSH2 0x441 SWAP2 SWAP1 PUSH2 0xD8F JUMP JUMPDEST SWAP1 DUP2 MSTORE PUSH1 0x20 ADD PUSH1 0x40 MLOAD DUP1 SWAP2 SUB SWAP1 KECCAK256 PUSH1 0x40 MLOAD DUP1 PUSH1 0x60 ADD PUSH1 0x40 MSTORE SWAP1 DUP2 PUSH0 DUP3 ADD DUP1 SLOAD PUSH2 0x469 SWAP1 PUSH2 0xE92 JUMP JUMPDEST DUP1 PUSH1 0x1F ADD PUSH1 0x20 DUP1 SWAP2 DIV MUL PUSH1 0x20 ADD PUSH1 0x40 MLOAD SWAP1 DUP2 ADD PUSH1 0x40 MSTORE DUP1 SWAP3 SWAP2 SWAP1 DUP2 DUP2 MSTORE PUSH1 0x20 ADD DUP3 DUP1 SLOAD PUSH2 0x495 SWAP1 PUSH2 0xE92 JUMP JUMPDEST DUP1 ISZERO PUSH2 0x4E0 JUMPI DUP1 PUSH1 0x1F LT PUSH2 0x4B7 JUMPI PUSH2 0x100 DUP1 DUP4 SLOAD DIV MUL DUP4 MSTORE SWAP2 PUSH1 0x20 ADD SWAP2 PUSH2 0x4E0 JUMP JUMPDEST DUP3 ADD SWAP2 SWAP1 PUSH0 MSTORE PUSH1 0x20 PUSH0 KECCAK256 SWAP1 JUMPDEST DUP2 SLOAD DUP2 MSTORE SWAP1 PUSH1 0x1 ADD SWAP1 PUSH1 0x20 ADD DUP1 DUP4 GT PUSH2 0x4C3 JUMPI DUP3 SWAP1 SUB PUSH1 0x1F AND DUP3 ADD SWAP2 JUMPDEST POP POP POP POP POP DUP2 MSTORE PUSH1 0x20 ADD PUSH1 0x1 DUP3 ADD DUP1 SLOAD PUSH2 0x4F9 SWAP1 PUSH2 0xE92 JUMP JUMPDEST DUP1 PUSH1 0x1F ADD PUSH1 0x20 DUP1 SWAP2 DIV MUL PUSH1 0x20 ADD PUSH1 0x40 MLOAD SWAP1 DUP2 ADD PUSH1 0x40 MSTORE DUP1 SWAP3 SWAP2 SWAP1 DUP2 DUP2 MSTORE PUSH1 0x20 ADD DUP3 DUP1 SLOAD PUSH2 0x525 SWAP1 PUSH2 0xE92 JUMP JUMPDEST DUP1 ISZERO PUSH2 0x570 JUMPI DUP1 PUSH1 0x1F LT PUSH2 0x547 JUMPI PUSH2 0x100 DUP1 DUP4 SLOAD DIV MUL DUP4 MSTORE SWAP2 PUSH1 0x20 ADD SWAP2 PUSH2 0x570 JUMP JUMPDEST DUP3 ADD SWAP2 SWAP1 PUSH0 MSTORE PUSH1 0x20 PUSH0 KECCAK256 SWAP1 JUMPDEST DUP2 SLOAD DUP2 MSTORE SWAP1 PUSH1 0x1 ADD SWAP1 PUSH1 0x20 ADD DUP1 DUP4 GT PUSH2 0x553 JUMPI DUP3 SWAP1 SUB PUSH1 0x1F AND DUP3 ADD SWAP2 JUMPDEST POP POP POP POP POP DUP2 MSTORE PUSH1 0x20 ADD PUSH1 0x2 DUP3 ADD PUSH0 SWAP1 SLOAD SWAP1 PUSH2 0x100 EXP SWAP1 DIV PUSH1 0xFF AND ISZERO ISZERO ISZERO ISZERO DUP2 MSTORE POP POP SWAP1 POP SWAP2 SWAP1 POP JUMP JUMPDEST PUSH1 0x40 MLOAD DUP1 PUSH1 0x60 ADD PUSH1 0x40 MSTORE DUP1 DUP4 DUP2 MSTORE PUSH1 0x20 ADD DUP3 DUP2 MSTORE PUSH1 0x20 ADD PUSH0 ISZERO ISZERO DUP2 MSTORE POP PUSH0 DUP4 PUSH1 0x40 MLOAD PUSH2 0x5C6 SWAP2 SWAP1 PUSH2 0xD8F JUMP JUMPDEST SWAP1 DUP2 MSTORE PUSH1 0x20 ADD PUSH1 0x40 MLOAD DUP1 SWAP2 SUB SWAP1 KECCAK256 PUSH0 DUP3 ADD MLOAD DUP2 PUSH0 ADD SWAP1 DUP2 PUSH2 0x5E7 SWAP2 SWAP1 PUSH2 0x1062 JUMP JUMPDEST POP PUSH1 0x20 DUP3 ADD MLOAD DUP2 PUSH1 0x1 ADD SWAP1 DUP2 PUSH2 0x5FD SWAP2 SWAP1 PUSH2 0x1062 JUMP JUMPDEST POP PUSH1 0x40 DUP3 ADD MLOAD DUP2 PUSH1 0x2 ADD PUSH0 PUSH2 0x100 EXP DUP2 SLOAD DUP2 PUSH1 0xFF MUL NOT AND SWAP1 DUP4 ISZERO ISZERO MUL OR SWAP1 SSTORE POP SWAP1 POP POP PUSH32 0x8E8B49C7EB65AD559DA4E92655B2DA6C837C431D05CCFAA2DB3BA82C61982391 DUP3 PUSH1 0x40 MLOAD PUSH2 0x64F SWAP2 SWAP1 PUSH2 0x11D6 JUMP JUMPDEST PUSH1 0x40 MLOAD DUP1 SWAP2 SUB SWAP1 LOG1 POP POP JUMP JUMPDEST PUSH1 0x60 PUSH1 0x1 DUP3 PUSH1 0x40 MLOAD PUSH2 0x66D SWAP2 SWAP1 PUSH2 0xD8F JUMP JUMPDEST SWAP1 DUP2 MSTORE PUSH1 0x20 ADD PUSH1 0x40 MLOAD DUP1 SWAP2 SUB SWAP1 KECCAK256 DUP1 SLOAD DUP1 PUSH1 0x20 MUL PUSH1 0x20 ADD PUSH1 0x40 MLOAD SWAP1 DUP2 ADD PUSH1 0x40 MSTORE DUP1 SWAP3 SWAP2 SWAP1 DUP2 DUP2 MSTORE PUSH1 0x20 ADD PUSH0 SWAP1 JUMPDEST DUP3 DUP3 LT ISZERO PUSH2 0x7F3 JUMPI DUP4 DUP3 SWAP1 PUSH0 MSTORE PUSH1 0x20 PUSH0 KECCAK256 SWAP1 PUSH1 0x3 MUL ADD PUSH1 0x40 MLOAD DUP1 PUSH1 0x60 ADD PUSH1 0x40 MSTORE SWAP1 DUP2 PUSH0 DUP3 ADD DUP1 SLOAD PUSH2 0x6CA SWAP1 PUSH2 0xE92 JUMP JUMPDEST DUP1 PUSH1 0x1F ADD PUSH1 0x20 DUP1 SWAP2 DIV MUL PUSH1 0x20 ADD PUSH1 0x40 MLOAD SWAP1 DUP2 ADD PUSH1 0x40 MSTORE DUP1 SWAP3 SWAP2 SWAP1 DUP2 DUP2 MSTORE PUSH1 0x20 ADD DUP3 DUP1 SLOAD PUSH2 0x6F6 SWAP1 PUSH2 0xE92 JUMP JUMPDEST DUP1 ISZERO PUSH2 0x741 JUMPI DUP1 PUSH1 0x1F LT PUSH2 0x718 JUMPI PUSH2 0x100 DUP1 DUP4 SLOAD DIV MUL DUP4 MSTORE SWAP2 PUSH1 0x20 ADD SWAP2 PUSH2 0x741 JUMP JUMPDEST DUP3 ADD SWAP2 SWAP1 PUSH0 MSTORE PUSH1 0x20 PUSH0 KECCAK256 SWAP1 JUMPDEST DUP2 SLOAD DUP2 MSTORE SWAP1 PUSH1 0x1 ADD SWAP1 PUSH1 0x20 ADD DUP1 DUP4 GT PUSH2 0x724 JUMPI DUP3 SWAP1 SUB PUSH1 0x1F AND DUP3 ADD SWAP2 JUMPDEST POP POP POP POP POP DUP2 MSTORE PUSH1 0x20 ADD PUSH1 0x1 DUP3 ADD DUP1 SLOAD PUSH2 0x75A SWAP1 PUSH2 0xE92 JUMP JUMPDEST DUP1 PUSH1 0x1F ADD PUSH1 0x20 DUP1 SWAP2 DIV MUL PUSH1 0x20 ADD PUSH1 0x40 MLOAD SWAP1 DUP2 ADD PUSH1 0x40 MSTORE DUP1 SWAP3 SWAP2 SWAP1 DUP2 DUP2 MSTORE PUSH1 0x20 ADD DUP3 DUP1 SLOAD PUSH2 0x786 SWAP1 PUSH2 0xE92 JUMP JUMPDEST DUP1 ISZERO PUSH2 0x7D1 JUMPI DUP1 PUSH1 0x1F LT PUSH2 0x7A8 JUMPI PUSH2 0x100 DUP1 DUP4 SLOAD DIV MUL DUP4 MSTORE SWAP2 PUSH1 0x20 ADD SWAP2 PUSH2 0x7D1 JUMP JUMPDEST DUP3 ADD SWAP2 SWAP1 PUSH0 MSTORE PUSH1 0x20 PUSH0 KECCAK256 SWAP1 JUMPDEST DUP2 SLOAD DUP2 MSTORE SWAP1 PUSH1 0x1 ADD SWAP1 PUSH1 0x20 ADD DUP1 DUP4 GT PUSH2 0x7B4 JUMPI DUP3 SWAP1 SUB PUSH1 0x1F AND DUP3 ADD SWAP2 JUMPDEST POP POP POP POP POP DUP2 MSTORE PUSH1 0x20 ADD PUSH1 0x2 DUP3 ADD SLOAD DUP2 MSTORE POP POP DUP2 MSTORE PUSH1 0x20 ADD SWAP1 PUSH1 0x1 ADD SWAP1 PUSH2 0x69A JUMP JUMPDEST POP POP POP POP SWAP1 POP SWAP2 SWAP1 POP JUMP JUMPDEST PUSH1 0x40 MLOAD DUP1 PUSH1 0x60 ADD PUSH1 0x40 MSTORE DUP1 PUSH1 0x60 DUP2 MSTORE PUSH1 0x20 ADD PUSH1 0x60 DUP2 MSTORE PUSH1 0x20 ADD PUSH0 ISZERO ISZERO DUP2 MSTORE POP SWAP1 JUMP JUMPDEST PUSH0 PUSH1 0x40 MLOAD SWAP1 POP SWAP1 JUMP JUMPDEST PUSH0 PUSH0 REVERT JUMPDEST PUSH0 PUSH0 REVERT JUMPDEST PUSH0 PUSH0 REVERT JUMPDEST PUSH0 PUSH0 REVERT JUMPDEST PUSH0 PUSH1 0x1F NOT PUSH1 0x1F DUP4 ADD AND SWAP1 POP SWAP2 SWAP1 POP JUMP JUMPDEST PUSH32 0x4E487B7100000000000000000000000000000000000000000000000000000000 PUSH0 MSTORE PUSH1 0x41 PUSH1 0x4 MSTORE PUSH1 0x24 PUSH0 REVERT JUMPDEST PUSH2 0x87F DUP3 PUSH2 0x839 JUMP JUMPDEST DUP2 ADD DUP2 DUP2 LT PUSH8 0xFFFFFFFFFFFFFFFF DUP3 GT OR ISZERO PUSH2 0x89E JUMPI PUSH2 0x89D PUSH2 0x849 JUMP JUMPDEST JUMPDEST DUP1 PUSH1 0x40 MSTORE POP POP POP JUMP JUMPDEST PUSH0 PUSH2 0x8B0 PUSH2 0x820 JUMP JUMPDEST SWAP1 POP PUSH2 0x8BC DUP3 DUP3 PUSH2 0x876 JUMP JUMPDEST SWAP2 SWAP1 POP JUMP JUMPDEST PUSH0 PUSH8 0xFFFFFFFFFFFFFFFF DUP3 GT ISZERO PUSH2 0x8DB JUMPI PUSH2 0x8DA PUSH2 0x849 JUMP JUMPDEST JUMPDEST PUSH2 0x8E4 DUP3 PUSH2 0x839 JUMP JUMPDEST SWAP1 POP PUSH1 0x20 DUP2 ADD SWAP1 POP SWAP2 SWAP1 POP JUMP JUMPDEST DUP3 DUP2 DUP4 CALLDATACOPY PUSH0 DUP4 DUP4 ADD MSTORE POP POP POP JUMP JUMPDEST PUSH0 PUSH2 0x911 PUSH2 0x90C DUP5 PUSH2 0x8C1 JUMP JUMPDEST PUSH2 0x8A7 JUMP JUMPDEST SWAP1 POP DUP3 DUP2 MSTORE PUSH1 0x20 DUP2 ADD DUP5 DUP5 DUP5 ADD GT ISZERO PUSH2 0x92D JUMPI PUSH2 0x92C PUSH2 0x835 JUMP JUMPDEST JUMPDEST PUSH2 0x938 DUP5 DUP3 DUP6 PUSH2 0x8F1 JUMP JUMPDEST POP SWAP4 SWAP3 POP POP POP JUMP JUMPDEST PUSH0 DUP3 PUSH1 0x1F DUP4 ADD SLT PUSH2 0x954 JUMPI PUSH2 0x953 PUSH2 0x831 JUMP JUMPDEST JUMPDEST DUP2 CALLDATALOAD PUSH2 0x964 DUP5 DUP3 PUSH1 0x20 DUP7 ADD PUSH2 0x8FF JUMP JUMPDEST SWAP2 POP POP SWAP3 SWAP2 POP POP JUMP JUMPDEST PUSH0 PUSH1 0x20 DUP3 DUP5 SUB SLT ISZERO PUSH2 0x982 JUMPI PUSH2 0x981 PUSH2 0x829 JUMP JUMPDEST JUMPDEST PUSH0 DUP3 ADD CALLDATALOAD PUSH8 0xFFFFFFFFFFFFFFFF DUP2 GT ISZERO PUSH2 0x99F JUMPI PUSH2 0x99E PUSH2 0x82D JUMP JUMPDEST JUMPDEST PUSH2 0x9AB DUP5 DUP3 DUP6 ADD PUSH2 0x940 JUMP JUMPDEST SWAP2 POP POP SWAP3 SWAP2 POP POP JUMP JUMPDEST PUSH0 PUSH20 0xFFFFFFFFFFFFFFFFFFFFFFFFFFFFFFFFFFFFFFFF DUP3 AND SWAP1 POP SWAP2 SWAP1 POP JUMP JUMPDEST PUSH0 PUSH2 0x9DD DUP3 PUSH2 0x9B4 JUMP JUMPDEST SWAP1 POP SWAP2 SWAP1 POP JUMP JUMPDEST PUSH2 0x9ED DUP2 PUSH2 0x9D3 JUMP JUMPDEST DUP3 MSTORE POP POP JUMP JUMPDEST PUSH0 PUSH1 0x20 DUP3 ADD SWAP1 POP PUSH2 0xA06 PUSH0 DUP4 ADD DUP5 PUSH2 0x9E4 JUMP JUMPDEST SWAP3 SWAP2 POP POP JUMP JUMPDEST PUSH0 PUSH0 PUSH1 0x40 DUP4 DUP6 SUB SLT ISZERO PUSH2 0xA22 JUMPI PUSH2 0xA21 PUSH2 0x829 JUMP JUMPDEST JUMPDEST PUSH0 DUP4 ADD CALLDATALOAD PUSH8 0xFFFFFFFFFFFFFFFF DUP2 GT ISZERO PUSH2 0xA3F JUMPI PUSH2 0xA3E PUSH2 0x82D JUMP JUMPDEST JUMPDEST PUSH2 0xA4B DUP6 DUP3 DUP7 ADD PUSH2 0x940 JUMP JUMPDEST SWAP3 POP POP PUSH1 0x20 DUP4 ADD CALLDATALOAD PUSH8 0xFFFFFFFFFFFFFFFF DUP2 GT ISZERO PUSH2 0xA6C JUMPI PUSH2 0xA6B PUSH2 0x82D JUMP JUMPDEST JUMPDEST PUSH2 0xA78 DUP6 DUP3 DUP7 ADD PUSH2 0x940 JUMP JUMPDEST SWAP2 POP POP SWAP3 POP SWAP3 SWAP1 POP JUMP JUMPDEST PUSH0 DUP2 MLOAD SWAP1 POP SWAP2 SWAP1 POP JUMP JUMPDEST PUSH0 DUP3 DUP3 MSTORE PUSH1 0x20 DUP3 ADD SWAP1 POP SWAP3 SWAP2 POP POP JUMP JUMPDEST DUP3 DUP2 DUP4 MCOPY PUSH0 DUP4 DUP4 ADD MSTORE POP POP POP JUMP JUMPDEST PUSH0 PUSH2 0xAB4 DUP3 PUSH2 0xA82 JUMP JUMPDEST PUSH2 0xABE DUP2 DUP6 PUSH2 0xA8C JUMP JUMPDEST SWAP4 POP PUSH2 0xACE DUP2 DUP6 PUSH1 0x20 DUP7 ADD PUSH2 0xA9C JUMP JUMPDEST PUSH2 0xAD7 DUP2 PUSH2 0x839 JUMP JUMPDEST DUP5 ADD SWAP2 POP POP SWAP3 SWAP2 POP POP JUMP JUMPDEST PUSH0 DUP2 ISZERO ISZERO SWAP1 POP SWAP2 SWAP1 POP JUMP JUMPDEST PUSH2 0xAF6 DUP2 PUSH2 0xAE2 JUMP JUMPDEST DUP3 MSTORE POP POP JUMP JUMPDEST PUSH0 PUSH1 0x60 DUP4 ADD PUSH0 DUP4 ADD MLOAD DUP5 DUP3 SUB PUSH0 DUP7 ADD MSTORE PUSH2 0xB16 DUP3 DUP3 PUSH2 0xAAA JUMP JUMPDEST SWAP2 POP POP PUSH1 0x20 DUP4 ADD MLOAD DUP5 DUP3 SUB PUSH1 0x20 DUP7 ADD MSTORE PUSH2 0xB30 DUP3 DUP3 PUSH2 0xAAA JUMP JUMPDEST SWAP2 POP POP PUSH1 0x40 DUP4 ADD MLOAD PUSH2 0xB45 PUSH1 0x40 DUP7 ADD DUP3 PUSH2 0xAED JUMP JUMPDEST POP DUP1 SWAP2 POP POP SWAP3 SWAP2 POP POP JUMP JUMPDEST PUSH0 PUSH1 0x20 DUP3 ADD SWAP1 POP DUP2 DUP2 SUB PUSH0 DUP4 ADD MSTORE PUSH2 0xB68 DUP2 DUP5 PUSH2 0xAFC JUMP JUMPDEST SWAP1 POP SWAP3 SWAP2 POP POP JUMP JUMPDEST PUSH0 DUP2 MLOAD SWAP1 POP SWAP2 SWAP1 POP JUMP JUMPDEST PUSH0 DUP3 DUP3 MSTORE PUSH1 0x20 DUP3 ADD SWAP1 POP SWAP3 SWAP2 POP POP JUMP JUMPDEST PUSH0 DUP2 SWAP1 POP PUSH1 0x20 DUP3 ADD SWAP1 POP SWAP2 SWAP1 POP JUMP JUMPDEST PUSH0 DUP2 SWAP1 POP SWAP2 SWAP1 POP JUMP JUMPDEST PUSH2 0xBAB DUP2 PUSH2 0xB99 JUMP JUMPDEST DUP3 MSTORE POP POP JUMP JUMPDEST PUSH0 PUSH1 0x60 DUP4 ADD PUSH0 DUP4 ADD MLOAD DUP5 DUP3 SUB PUSH0 DUP7 ADD MSTORE PUSH2 0xBCB DUP3 DUP3 PUSH2 0xAAA JUMP JUMPDEST SWAP2 POP POP PUSH1 0x20 DUP4 ADD MLOAD DUP5 DUP3 SUB PUSH1 0x20 DUP7 ADD MSTORE PUSH2 0xBE5 DUP3 DUP3 PUSH2 0xAAA JUMP JUMPDEST SWAP2 POP POP PUSH1 0x40 DUP4 ADD MLOAD PUSH2 0xBFA PUSH1 0x40 DUP7 ADD DUP3 PUSH2 0xBA2 JUMP JUMPDEST POP DUP1 SWAP2 POP POP SWAP3 SWAP2 POP POP JUMP JUMPDEST PUSH0 PUSH2 0xC10 DUP4 DUP4 PUSH2 0xBB1 JUMP JUMPDEST SWAP1 POP SWAP3 SWAP2 POP POP JUMP JUMPDEST PUSH0 PUSH1 0x20 DUP3 ADD SWAP1 POP SWAP2 SWAP1 POP JUMP JUMPDEST PUSH0 PUSH2 0xC2E DUP3 PUSH2 0xB70 JUMP JUMPDEST PUSH2 0xC38 DUP2 DUP6 PUSH2 0xB7A JUMP JUMPDEST SWAP4 POP DUP4 PUSH1 0x20 DUP3 MUL DUP6 ADD PUSH2 0xC4A DUP6 PUSH2 0xB8A JUMP JUMPDEST DUP1 PUSH0 JUMPDEST DUP6 DUP2 LT ISZERO PUSH2 0xC85 JUMPI DUP5 DUP5 SUB DUP10 MSTORE DUP2 MLOAD PUSH2 0xC66 DUP6 DUP3 PUSH2 0xC05 JUMP JUMPDEST SWAP5 POP PUSH2 0xC71 DUP4 PUSH2 0xC18 JUMP JUMPDEST SWAP3 POP PUSH1 0x20 DUP11 ADD SWAP10 POP POP PUSH1 0x1 DUP2 ADD SWAP1 POP PUSH2 0xC4D JUMP JUMPDEST POP DUP3 SWAP8 POP DUP8 SWAP6 POP POP POP POP POP POP SWAP3 SWAP2 POP POP JUMP JUMPDEST PUSH0 PUSH1 0x20 DUP3 ADD SWAP1 POP DUP2 DUP2 SUB PUSH0 DUP4 ADD MSTORE PUSH2 0xCAF DUP2 DUP5 PUSH2 0xC24 JUMP JUMPDEST SWAP1 POP SWAP3 SWAP2 POP POP JUMP JUMPDEST PUSH0 DUP3 DUP3 MSTORE PUSH1 0x20 DUP3 ADD SWAP1 POP SWAP3 SWAP2 POP POP JUMP JUMPDEST PUSH32 0x4F6E6C7920617574686F72697A656420524E4E206E6F64652063616E20706572 PUSH0 DUP3 ADD MSTORE PUSH32 0x666F726D207468697320616374696F6E00000000000000000000000000000000 PUSH1 0x20 DUP3 ADD MSTORE POP JUMP JUMPDEST PUSH0 PUSH2 0xD21 PUSH1 0x30 DUP4 PUSH2 0xCB7 JUMP JUMPDEST SWAP2 POP PUSH2 0xD2C DUP3 PUSH2 0xCC7 JUMP JUMPDEST PUSH1 0x40 DUP3 ADD SWAP1 POP SWAP2 SWAP1 POP JUMP JUMPDEST PUSH0 PUSH1 0x20 DUP3 ADD SWAP1 POP DUP2 DUP2 SUB PUSH0 DUP4 ADD MSTORE PUSH2 0xD4E DUP2 PUSH2 0xD15 JUMP JUMPDEST SWAP1 POP SWAP2 SWAP1 POP JUMP JUMPDEST PUSH0 DUP2 SWAP1 POP SWAP3 SWAP2 POP POP JUMP JUMPDEST PUSH0 PUSH2 0xD69 DUP3 PUSH2 0xA82 JUMP JUMPDEST PUSH2 0xD73 DUP2 DUP6 PUSH2 0xD55 JUMP JUMPDEST SWAP4 POP PUSH2 0xD83 DUP2 DUP6 PUSH1 0x20 DUP7 ADD PUSH2 0xA9C JUMP JUMPDEST DUP1 DUP5 ADD SWAP2 POP POP SWAP3 SWAP2 POP POP JUMP JUMPDEST PUSH0 PUSH2 0xD9A DUP3 DUP5 PUSH2 0xD5F JUMP JUMPDEST SWAP2 POP DUP2 SWAP1 POP SWAP3 SWAP2 POP POP JUMP JUMPDEST PUSH32 0x4461746120616C726561647920747261696E6564000000000000000000000000 PUSH0 DUP3 ADD MSTORE POP JUMP JUMPDEST PUSH0 PUSH2 0xDD9 PUSH1 0x14 DUP4 PUSH2 0xCB7 JUMP JUMPDEST SWAP2 POP PUSH2 0xDE4 DUP3 PUSH2 0xDA5 JUMP JUMPDEST PUSH1 0x20 DUP3 ADD SWAP1 POP SWAP2 SWAP1 POP JUMP JUMPDEST PUSH0 PUSH1 0x20 DUP3 ADD SWAP1 POP DUP2 DUP2 SUB PUSH0 DUP4 ADD MSTORE PUSH2 0xE06 DUP2 PUSH2 0xDCD JUMP JUMPDEST SWAP1 POP SWAP2 SWAP1 POP JUMP JUMPDEST PUSH0 PUSH2 0xE17 DUP3 PUSH2 0xA82 JUMP JUMPDEST PUSH2 0xE21 DUP2 DUP6 PUSH2 0xCB7 JUMP JUMPDEST SWAP4 POP PUSH2 0xE31 DUP2 DUP6 PUSH1 0x20 DUP7 ADD PUSH2 0xA9C JUMP JUMPDEST PUSH2 0xE3A DUP2 PUSH2 0x839 JUMP JUMPDEST DUP5 ADD SWAP2 POP POP SWAP3 SWAP2 POP POP JUMP JUMPDEST PUSH0 PUSH1 0x20 DUP3 ADD SWAP1 POP DUP2 DUP2 SUB PUSH0 DUP4 ADD MSTORE PUSH2 0xE5D DUP2 DUP5 PUSH2 0xE0D JUMP JUMPDEST SWAP1 POP SWAP3 SWAP2 POP POP JUMP JUMPDEST PUSH32 0x4E487B7100000000000000000000000000000000000000000000000000000000 PUSH0 MSTORE PUSH1 0x22 PUSH1 0x4 MSTORE PUSH1 0x24 PUSH0 REVERT JUMPDEST PUSH0 PUSH1 0x2 DUP3 DIV SWAP1 POP PUSH1 0x1 DUP3 AND DUP1 PUSH2 0xEA9 JUMPI PUSH1 0x7F DUP3 AND SWAP2 POP JUMPDEST PUSH1 0x20 DUP3 LT DUP2 SUB PUSH2 0xEBC JUMPI PUSH2 0xEBB PUSH2 0xE65 JUMP JUMPDEST JUMPDEST POP SWAP2 SWAP1 POP JUMP JUMPDEST PUSH0 DUP2 SWAP1 POP DUP2 PUSH0 MSTORE PUSH1 0x20 PUSH0 KECCAK256 SWAP1 POP SWAP2 SWAP1 POP JUMP JUMPDEST PUSH0 PUSH1 0x20 PUSH1 0x1F DUP4 ADD DIV SWAP1 POP SWAP2 SWAP1 POP JUMP JUMPDEST PUSH0 DUP3 DUP3 SHL SWAP1 POP SWAP3 SWAP2 POP POP JUMP JUMPDEST PUSH0 PUSH1 0x8 DUP4 MUL PUSH2 0xF1E PUSH32 0xFFFFFFFFFFFFFFFFFFFFFFFFFFFFFFFFFFFFFFFFFFFFFFFFFFFFFFFFFFFFFFFF DUP3 PUSH2 0xEE3 JUMP JUMPDEST PUSH2 0xF28 DUP7 DUP4 PUSH2 0xEE3 JUMP JUMPDEST SWAP6 POP DUP1 NOT DUP5 AND SWAP4 POP DUP1 DUP7 AND DUP5 OR SWAP3 POP POP POP SWAP4 SWAP3 POP POP POP JUMP JUMPDEST PUSH0 DUP2 SWAP1 POP SWAP2 SWAP1 POP JUMP JUMPDEST PUSH0 PUSH2 0xF63 PUSH2 0xF5E PUSH2 0xF59 DUP5 PUSH2 0xB99 JUMP JUMPDEST PUSH2 0xF40 JUMP JUMPDEST PUSH2 0xB99 JUMP JUMPDEST SWAP1 POP SWAP2 SWAP1 POP JUMP JUMPDEST PUSH0 DUP2 SWAP1 POP SWAP2 SWAP1 POP JUMP JUMPDEST PUSH2 0xF7C DUP4 PUSH2 0xF49 JUMP JUMPDEST PUSH2 0xF90 PUSH2 0xF88 DUP3 PUSH2 0xF6A JUMP JUMPDEST DUP5 DUP5 SLOAD PUSH2 0xEEF JUMP JUMPDEST DUP3 SSTORE POP POP POP POP JUMP JUMPDEST PUSH0 PUSH0 SWAP1 POP SWAP1 JUMP JUMPDEST PUSH2 0xFA7 PUSH2 0xF98 JUMP JUMPDEST PUSH2 0xFB2 DUP2 DUP5 DUP5 PUSH2 0xF73 JUMP JUMPDEST POP POP POP JUMP JUMPDEST JUMPDEST DUP2 DUP2 LT ISZERO PUSH2 0xFD5 JUMPI PUSH2 0xFCA PUSH0 DUP3 PUSH2 0xF9F JUMP JUMPDEST PUSH1 0x1 DUP2 ADD SWAP1 POP PUSH2 0xFB8 JUMP JUMPDEST POP POP JUMP JUMPDEST PUSH1 0x1F DUP3 GT ISZERO PUSH2 0x101A JUMPI PUSH2 0xFEB DUP2 PUSH2 0xEC2 JUMP JUMPDEST PUSH2 0xFF4 DUP5 PUSH2 0xED4 JUMP JUMPDEST DUP2 ADD PUSH1 0x20 DUP6 LT ISZERO PUSH2 0x1003 JUMPI DUP2 SWAP1 POP JUMPDEST PUSH2 0x1017 PUSH2 0x100F DUP6 PUSH2 0xED4 JUMP JUMPDEST DUP4 ADD DUP3 PUSH2 0xFB7 JUMP JUMPDEST POP POP JUMPDEST POP POP POP JUMP JUMPDEST PUSH0 DUP3 DUP3 SHR SWAP1 POP SWAP3 SWAP2 POP POP JUMP JUMPDEST PUSH0 PUSH2 0x103A PUSH0 NOT DUP5 PUSH1 0x8 MUL PUSH2 0x101F JUMP JUMPDEST NOT DUP1 DUP4 AND SWAP2 POP POP SWAP3 SWAP2 POP POP JUMP JUMPDEST PUSH0 PUSH2 0x1052 DUP4 DUP4 PUSH2 0x102B JUMP JUMPDEST SWAP2 POP DUP3 PUSH1 0x2 MUL DUP3 OR SWAP1 POP SWAP3 SWAP2 POP POP JUMP JUMPDEST PUSH2 0x106B DUP3 PUSH2 0xA82 JUMP JUMPDEST PUSH8 0xFFFFFFFFFFFFFFFF DUP2 GT ISZERO PUSH2 0x1084 JUMPI PUSH2 0x1083 PUSH2 0x849 JUMP JUMPDEST JUMPDEST PUSH2 0x108E DUP3 SLOAD PUSH2 0xE92 JUMP JUMPDEST PUSH2 0x1099 DUP3 DUP3 DUP6 PUSH2 0xFD9 JUMP JUMPDEST PUSH0 PUSH1 0x20 SWAP1 POP PUSH1 0x1F DUP4 GT PUSH1 0x1 DUP2 EQ PUSH2 0x10CA JUMPI PUSH0 DUP5 ISZERO PUSH2 0x10B8 JUMPI DUP3 DUP8 ADD MLOAD SWAP1 POP JUMPDEST PUSH2 0x10C2 DUP6 DUP3 PUSH2 0x1047 JUMP JUMPDEST DUP7 SSTORE POP PUSH2 0x1129 JUMP JUMPDEST PUSH1 0x1F NOT DUP5 AND PUSH2 0x10D8 DUP7 PUSH2 0xEC2 JUMP JUMPDEST PUSH0 JUMPDEST DUP3 DUP2 LT ISZERO PUSH2 0x10FF JUMPI DUP5 DUP10 ADD MLOAD DUP3 SSTORE PUSH1 0x1 DUP3 ADD SWAP2 POP PUSH1 0x20 DUP6 ADD SWAP5 POP PUSH1 0x20 DUP2 ADD SWAP1 POP PUSH2 0x10DA JUMP JUMPDEST DUP7 DUP4 LT ISZERO PUSH2 0x111C JUMPI DUP5 DUP10 ADD MLOAD PUSH2 0x1118 PUSH1 0x1F DUP10 AND DUP3 PUSH2 0x102B JUMP JUMPDEST DUP4 SSTORE POP JUMPDEST PUSH1 0x1 PUSH1 0x2 DUP9 MUL ADD DUP9 SSTORE POP POP POP JUMPDEST POP POP POP POP POP POP JUMP JUMPDEST PUSH0 PUSH1 0x40 DUP3 ADD SWAP1 POP DUP2 DUP2 SUB PUSH0 DUP4 ADD MSTORE PUSH2 0x1149 DUP2 DUP6 PUSH2 0xE0D JUMP JUMPDEST SWAP1 POP DUP2 DUP2 SUB PUSH1 0x20 DUP4 ADD MSTORE PUSH2 0x115D DUP2 DUP5 PUSH2 0xE0D JUMP JUMPDEST SWAP1 POP SWAP4 SWAP3 POP POP POP JUMP JUMPDEST PUSH32 0x446174612062726F616463617374656420666F7220747261696E696E672F7072 PUSH0 DUP3 ADD MSTORE PUSH32 0x6564696374696F6E000000000000000000000000000000000000000000000000 PUSH1 0x20 DUP3 ADD MSTORE POP JUMP JUMPDEST PUSH0 PUSH2 0x11C0 PUSH1 0x28 DUP4 PUSH2 0xCB7 JUMP JUMPDEST SWAP2 POP PUSH2 0x11CB DUP3 PUSH2 0x1166 JUMP JUMPDEST PUSH1 0x40 DUP3 ADD SWAP1 POP SWAP2 SWAP1 POP JUMP JUMPDEST PUSH0 PUSH1 0x40 DUP3 ADD SWAP1 POP DUP2 DUP2 SUB PUSH0 DUP4 ADD MSTORE PUSH2 0x11EE DUP2 DUP5 PUSH2 0xE0D JUMP JUMPDEST SWAP1 POP DUP2 DUP2 SUB PUSH1 0x20 DUP4 ADD MSTORE PUSH2 0x1201 DUP2 PUSH2 0x11B4 JUMP JUMPDEST SWAP1 POP SWAP3 SWAP2 POP POP JUMP INVALID LOG2 PUSH5 0x6970667358 0x22 SLT KECCAK256 SWAP12 0x4C SWAP15 PUSH16 0xAC5C8EBB5724A380DCFC3C1ADD80797D PUSH16 0x9C9DFF1090487DC0FC832264736F6C63 NUMBER STOP ADDMOD SHR STOP CALLER "
				},
				"gasEstimates": {
					"creation": {
						"codeDepositCost": "934200",
						"executionCost": "infinite",
						"totalCost": "infinite"
					},
					"external": {
						"broadcastData(string,string)": "infinite",
						"getEncryptedData(string)": "infinite",
						"getPredictions(string)": "infinite",
						"markAsTrained(string)": "infinite",
						"rnnNode()": "2508",
						"submitPrediction(string,string)": "infinite"
					}
				},
				"methodIdentifiers": {
					"broadcastData(string,string)": "58e176c9",
					"getEncryptedData(string)": "49e4622c",
					"getPredictions(string)": "d8ebf570",
					"markAsTrained(string)": "0e178d1f",
					"rnnNode()": "28866426",
					"submitPrediction(string,string)": "2d6be93d"
				}
			},
			"storageLayout": {
				"storage": [
					{
						"astId": 20,
						"contract": "contracts/healthcare/RNNManager.sol:RNNManager",
						"label": "dataStorage",
						"offset": 0,
						"slot": "0",
						"type": "t_mapping(t_string_memory_ptr,t_struct(EncryptedData)8_storage)"
					},
					{
						"astId": 26,
						"contract": "contracts/healthcare/RNNManager.sol:RNNManager",
						"label": "predictions",
						"offset": 0,
						"slot": "1",
						"type": "t_mapping(t_string_memory_ptr,t_array(t_struct(Prediction)15_storage)dyn_storage)"
					},
					{
						"astId": 44,
						"contract": "contracts/healthcare/RNNManager.sol:RNNManager",
						"label": "rnnNode",
						"offset": 0,
						"slot": "2",
						"type": "t_address"
					}
				],
				"types": {
					"t_address": {
						"encoding": "inplace",
						"label": "address",
						"numberOfBytes": "20"
					},
					"t_array(t_struct(Prediction)15_storage)dyn_storage": {
						"base": "t_struct(Prediction)15_storage",
						"encoding": "dynamic_array",
						"label": "struct RNNManager.Prediction[]",
						"numberOfBytes": "32"
					},
					"t_bool": {
						"encoding": "inplace",
						"label": "bool",
						"numberOfBytes": "1"
					},
					"t_mapping(t_string_memory_ptr,t_array(t_struct(Prediction)15_storage)dyn_storage)": {
						"encoding": "mapping",
						"key": "t_string_memory_ptr",
						"label": "mapping(string => struct RNNManager.Prediction[])",
						"numberOfBytes": "32",
						"value": "t_array(t_struct(Prediction)15_storage)dyn_storage"
					},
					"t_mapping(t_string_memory_ptr,t_struct(EncryptedData)8_storage)": {
						"encoding": "mapping",
						"key": "t_string_memory_ptr",
						"label": "mapping(string => struct RNNManager.EncryptedData)",
						"numberOfBytes": "32",
						"value": "t_struct(EncryptedData)8_storage"
					},
					"t_string_memory_ptr": {
						"encoding": "bytes",
						"label": "string",
						"numberOfBytes": "32"
					},
					"t_string_storage": {
						"encoding": "bytes",
						"label": "string",
						"numberOfBytes": "32"
					},
					"t_struct(EncryptedData)8_storage": {
						"encoding": "inplace",
						"label": "struct RNNManager.EncryptedData",
						"members": [
							{
								"astId": 3,
								"contract": "contracts/healthcare/RNNManager.sol:RNNManager",
								"label": "userId",
								"offset": 0,
								"slot": "0",
								"type": "t_string_storage"
							},
							{
								"astId": 5,
								"contract": "contracts/healthcare/RNNManager.sol:RNNManager",
								"label": "encryptedData",
								"offset": 0,
								"slot": "1",
								"type": "t_string_storage"
							},
							{
								"astId": 7,
								"contract": "contracts/healthcare/RNNManager.sol:RNNManager",
								"label": "isTrained",
								"offset": 0,
								"slot": "2",
								"type": "t_bool"
							}
						],
						"numberOfBytes": "96"
					},
					"t_struct(Prediction)15_storage": {
						"encoding": "inplace",
						"label": "struct RNNManager.Prediction",
						"members": [
							{
								"astId": 10,
								"contract": "contracts/healthcare/RNNManager.sol:RNNManager",
								"label": "userId",
								"offset": 0,
								"slot": "0",
								"type": "t_string_storage"
							},
							{
								"astId": 12,
								"contract": "contracts/healthcare/RNNManager.sol:RNNManager",
								"label": "result",
								"offset": 0,
								"slot": "1",
								"type": "t_string_storage"
							},
							{
								"astId": 14,
								"contract": "contracts/healthcare/RNNManager.sol:RNNManager",
								"label": "timestamp",
								"offset": 0,
								"slot": "2",
								"type": "t_uint256"
							}
						],
						"numberOfBytes": "96"
					},
					"t_uint256": {
						"encoding": "inplace",
						"label": "uint256",
						"numberOfBytes": "32"
					}
				}
			},
			"userdoc": {
				"kind": "user",
				"methods": {},
				"version": 1
			}
		}
	}
}